{
	"contracts/test2/DividendDistributor.sol": {
		"DividendDistributor": {
			"abi": [
				{
					"inputs": [
						{
							"internalType": "address",
							"name": "_romanToken",
							"type": "address"
						},
						{
							"internalType": "address",
							"name": "_mainNFT",
							"type": "address"
						},
						{
							"internalType": "address",
							"name": "_subNFT",
							"type": "address"
						},
						{
							"internalType": "address",
							"name": "_usdt",
							"type": "address"
						}
					],
					"stateMutability": "nonpayable",
					"type": "constructor"
				},
				{
					"inputs": [
						{
							"internalType": "address",
							"name": "owner",
							"type": "address"
						}
					],
					"name": "OwnableInvalidOwner",
					"type": "error"
				},
				{
					"inputs": [
						{
							"internalType": "address",
							"name": "account",
							"type": "address"
						}
					],
					"name": "OwnableUnauthorizedAccount",
					"type": "error"
				},
				{
					"anonymous": false,
					"inputs": [
						{
							"indexed": true,
							"internalType": "address",
							"name": "user",
							"type": "address"
						},
						{
							"indexed": false,
							"internalType": "uint256",
							"name": "mainId",
							"type": "uint256"
						},
						{
							"indexed": false,
							"internalType": "uint256",
							"name": "subId",
							"type": "uint256"
						}
					],
					"name": "Activated",
					"type": "event"
				},
				{
					"anonymous": false,
					"inputs": [
						{
							"indexed": true,
							"internalType": "address",
							"name": "user",
							"type": "address"
						},
						{
							"indexed": false,
							"internalType": "uint256",
							"name": "usdtAmount",
							"type": "uint256"
						},
						{
							"indexed": false,
							"internalType": "uint256",
							"name": "romanAmount",
							"type": "uint256"
						},
						{
							"indexed": false,
							"internalType": "uint256",
							"name": "bnbAmount",
							"type": "uint256"
						}
					],
					"name": "Claimed",
					"type": "event"
				},
				{
					"anonymous": false,
					"inputs": [
						{
							"indexed": true,
							"internalType": "address",
							"name": "previousOwner",
							"type": "address"
						},
						{
							"indexed": true,
							"internalType": "address",
							"name": "newOwner",
							"type": "address"
						}
					],
					"name": "OwnershipTransferred",
					"type": "event"
				},
				{
					"anonymous": false,
					"inputs": [
						{
							"indexed": false,
							"internalType": "string",
							"name": "rewardType",
							"type": "string"
						},
						{
							"indexed": false,
							"internalType": "uint256",
							"name": "amount",
							"type": "uint256"
						}
					],
					"name": "RewardReceived",
					"type": "event"
				},
				{
					"inputs": [
						{
							"internalType": "uint256",
							"name": "mainTokenId",
							"type": "uint256"
						},
						{
							"internalType": "uint256",
							"name": "subTokenId",
							"type": "uint256"
						}
					],
					"name": "activate",
					"outputs": [],
					"stateMutability": "nonpayable",
					"type": "function"
				},
				{
					"inputs": [
						{
							"internalType": "address",
							"name": "",
							"type": "address"
						}
					],
					"name": "activeMainTokenId",
					"outputs": [
						{
							"internalType": "uint256",
							"name": "",
							"type": "uint256"
						}
					],
					"stateMutability": "view",
					"type": "function"
				},
				{
					"inputs": [
						{
							"internalType": "address",
							"name": "",
							"type": "address"
						}
					],
					"name": "activeSubTokenId",
					"outputs": [
						{
							"internalType": "uint256",
							"name": "",
							"type": "uint256"
						}
					],
					"stateMutability": "view",
					"type": "function"
				},
				{
					"inputs": [],
					"name": "antiDumpRomanPool",
					"outputs": [
						{
							"internalType": "uint256",
							"name": "",
							"type": "uint256"
						}
					],
					"stateMutability": "view",
					"type": "function"
				},
				{
					"inputs": [],
					"name": "claim",
					"outputs": [],
					"stateMutability": "nonpayable",
					"type": "function"
				},
				{
					"inputs": [
						{
							"internalType": "address",
							"name": "token",
							"type": "address"
						},
						{
							"internalType": "uint256",
							"name": "amount",
							"type": "uint256"
						}
					],
					"name": "emergencyWithdraw",
					"outputs": [],
					"stateMutability": "nonpayable",
					"type": "function"
				},
				{
					"inputs": [],
					"name": "feeUsdtPool",
					"outputs": [
						{
							"internalType": "uint256",
							"name": "",
							"type": "uint256"
						}
					],
					"stateMutability": "view",
					"type": "function"
				},
				{
					"inputs": [],
					"name": "hashGameRomanPool",
					"outputs": [
						{
							"internalType": "uint256",
							"name": "",
							"type": "uint256"
						}
					],
					"stateMutability": "view",
					"type": "function"
				},
				{
					"inputs": [],
					"name": "investBnbPool",
					"outputs": [
						{
							"internalType": "uint256",
							"name": "",
							"type": "uint256"
						}
					],
					"stateMutability": "view",
					"type": "function"
				},
				{
					"inputs": [],
					"name": "mainNFT",
					"outputs": [
						{
							"internalType": "address",
							"name": "",
							"type": "address"
						}
					],
					"stateMutability": "view",
					"type": "function"
				},
				{
					"inputs": [],
					"name": "owner",
					"outputs": [
						{
							"internalType": "address",
							"name": "",
							"type": "address"
						}
					],
					"stateMutability": "view",
					"type": "function"
				},
				{
					"inputs": [
						{
							"internalType": "uint256",
							"name": "amount",
							"type": "uint256"
						},
						{
							"internalType": "string",
							"name": "rewardType",
							"type": "string"
						}
					],
					"name": "receiveRoman",
					"outputs": [],
					"stateMutability": "nonpayable",
					"type": "function"
				},
				{
					"inputs": [
						{
							"internalType": "uint256",
							"name": "amount",
							"type": "uint256"
						}
					],
					"name": "receiveUsdt",
					"outputs": [],
					"stateMutability": "nonpayable",
					"type": "function"
				},
				{
					"inputs": [],
					"name": "renounceOwnership",
					"outputs": [],
					"stateMutability": "nonpayable",
					"type": "function"
				},
				{
					"inputs": [],
					"name": "romanToken",
					"outputs": [
						{
							"internalType": "contract IROMANToken",
							"name": "",
							"type": "address"
						}
					],
					"stateMutability": "view",
					"type": "function"
				},
				{
					"inputs": [
						{
							"internalType": "address",
							"name": "user",
							"type": "address"
						},
						{
							"internalType": "bool",
							"name": "status",
							"type": "bool"
						}
					],
					"name": "setWhitelist",
					"outputs": [],
					"stateMutability": "nonpayable",
					"type": "function"
				},
				{
					"inputs": [],
					"name": "subNFT",
					"outputs": [
						{
							"internalType": "address",
							"name": "",
							"type": "address"
						}
					],
					"stateMutability": "view",
					"type": "function"
				},
				{
					"inputs": [],
					"name": "totalActiveMain",
					"outputs": [
						{
							"internalType": "uint256",
							"name": "",
							"type": "uint256"
						}
					],
					"stateMutability": "view",
					"type": "function"
				},
				{
					"inputs": [],
					"name": "totalActiveSub",
					"outputs": [
						{
							"internalType": "uint256",
							"name": "",
							"type": "uint256"
						}
					],
					"stateMutability": "view",
					"type": "function"
				},
				{
					"inputs": [
						{
							"internalType": "address",
							"name": "newOwner",
							"type": "address"
						}
					],
					"name": "transferOwnership",
					"outputs": [],
					"stateMutability": "nonpayable",
					"type": "function"
				},
				{
					"inputs": [],
					"name": "usdt",
					"outputs": [
						{
							"internalType": "address",
							"name": "",
							"type": "address"
						}
					],
					"stateMutability": "view",
					"type": "function"
				},
				{
					"inputs": [
						{
							"internalType": "address",
							"name": "",
							"type": "address"
						}
					],
					"name": "whitelist",
					"outputs": [
						{
							"internalType": "bool",
							"name": "",
							"type": "bool"
						}
					],
					"stateMutability": "view",
					"type": "function"
				},
				{
					"stateMutability": "payable",
					"type": "receive"
				}
			],
			"devdoc": {
				"errors": {
					"OwnableInvalidOwner(address)": [
						{
							"details": "The owner is not a valid owner account. (eg. `address(0)`)"
						}
					],
					"OwnableUnauthorizedAccount(address)": [
						{
							"details": "The caller account is not authorized to perform an operation."
						}
					]
				},
				"kind": "dev",
				"methods": {
					"owner()": {
						"details": "Returns the address of the current owner."
					},
					"renounceOwnership()": {
						"details": "Leaves the contract without owner. It will not be possible to call `onlyOwner` functions. Can only be called by the current owner. NOTE: Renouncing ownership will leave the contract without an owner, thereby disabling any functionality that is only available to the owner."
					},
					"transferOwnership(address)": {
						"details": "Transfers ownership of the contract to a new account (`newOwner`). Can only be called by the current owner."
					}
				},
				"version": 1
			},
			"evm": {
				"assembly": "    /* \"contracts/test2/DividendDistributor.sol\":10075:16901  contract DividendDistributor is Ownable {... */\n  mstore(0x40, 0x80)\n    /* \"contracts/test2/DividendDistributor.sol\":11044:11325  constructor(... */\n  callvalue\n  dup1\n  iszero\n  tag_1\n  jumpi\n  revert(0x00, 0x00)\ntag_1:\n  pop\n  mload(0x40)\n  sub(codesize, bytecodeSize)\n  dup1\n  bytecodeSize\n  dup4\n  codecopy\n  dup2\n  add\n  0x40\n  dup2\n  swap1\n  mstore\n  tag_2\n  swap2\n  tag_3\n  jump\t// in\ntag_2:\n    /* \"contracts/test2/DividendDistributor.sol\":11178:11188  msg.sender */\n  caller\n  dup1\n    /* \"@openzeppelin/contracts/access/Ownable.sol\":1269:1364  if (initialOwner == address(0)) {... */\n  tag_7\n  jumpi\n    /* \"@openzeppelin/contracts/access/Ownable.sol\":1322:1353  OwnableInvalidOwner(address(0)) */\n  mload(0x40)\n  shl(0xe0, 0x1e4fbdf7)\n  dup2\n  mstore\n    /* \"@openzeppelin/contracts/access/Ownable.sol\":1350:1351  0 */\n  0x00\n    /* \"@openzeppelin/contracts/access/Ownable.sol\":1322:1353  OwnableInvalidOwner(address(0)) */\n  0x04\n  dup3\n  add\n    /* \"#utility.yul\":811:862   */\n  mstore\n    /* \"#utility.yul\":784:802   */\n  0x24\n  add\n    /* \"@openzeppelin/contracts/access/Ownable.sol\":1322:1353  OwnableInvalidOwner(address(0)) */\n  mload(0x40)\n  dup1\n  swap2\n  sub\n  swap1\n  revert\n    /* \"@openzeppelin/contracts/access/Ownable.sol\":1269:1364  if (initialOwner == address(0)) {... */\ntag_7:\n    /* \"@openzeppelin/contracts/access/Ownable.sol\":1373:1405  _transferOwnership(initialOwner) */\n  tag_10\n    /* \"@openzeppelin/contracts/access/Ownable.sol\":1392:1404  initialOwner */\n  dup2\n    /* \"@openzeppelin/contracts/access/Ownable.sol\":1373:1391  _transferOwnership */\n  tag_11\n    /* \"@openzeppelin/contracts/access/Ownable.sol\":1373:1405  _transferOwnership(initialOwner) */\n  jump\t// in\ntag_10:\n  pop\n    /* \"contracts/test2/DividendDistributor.sol\":11201:11211  romanToken */\n  0x01\n    /* \"contracts/test2/DividendDistributor.sol\":11201:11238  romanToken = IROMANToken(_romanToken) */\n  dup1\n  sload\n  sub(shl(0xa0, 0x01), 0x01)\n  swap6\n  dup7\n  and\n  not(sub(shl(0xa0, 0x01), 0x01))\n  swap2\n  dup3\n  and\n  or\n  swap1\n  swap2\n  sstore\n    /* \"contracts/test2/DividendDistributor.sol\":11249:11256  mainNFT */\n  0x02\n    /* \"contracts/test2/DividendDistributor.sol\":11249:11267  mainNFT = _mainNFT */\n  dup1\n  sload\n  swap5\n  dup7\n  and\n  swap5\n  dup3\n  and\n  swap5\n  swap1\n  swap5\n  or\n  swap1\n  swap4\n  sstore\n    /* \"contracts/test2/DividendDistributor.sol\":11278:11284  subNFT */\n  0x03\n    /* \"contracts/test2/DividendDistributor.sol\":11278:11294  subNFT = _subNFT */\n  dup1\n  sload\n  swap3\n  dup6\n  and\n  swap3\n  dup5\n  and\n  swap3\n  swap1\n  swap3\n  or\n  swap1\n  swap2\n  sstore\n    /* \"contracts/test2/DividendDistributor.sol\":11305:11309  usdt */\n  0x04\n    /* \"contracts/test2/DividendDistributor.sol\":11305:11317  usdt = _usdt */\n  dup1\n  sload\n  swap2\n  swap1\n  swap4\n  and\n  swap2\n  and\n  or\n  swap1\n  sstore\n    /* \"contracts/test2/DividendDistributor.sol\":10075:16901  contract DividendDistributor is Ownable {... */\n  jump(tag_16)\n    /* \"@openzeppelin/contracts/access/Ownable.sol\":2912:3099  function _transferOwnership(address newOwner) internal virtual {... */\ntag_11:\n    /* \"@openzeppelin/contracts/access/Ownable.sol\":2985:3001  address oldOwner */\n  0x00\n    /* \"@openzeppelin/contracts/access/Ownable.sol\":3004:3010  _owner */\n  dup1\n  sload\n  sub(shl(0xa0, 0x01), 0x01)\n    /* \"@openzeppelin/contracts/access/Ownable.sol\":3020:3037  _owner = newOwner */\n  dup4\n  dup2\n  and\n  not(sub(shl(0xa0, 0x01), 0x01))\n  dup4\n  and\n  dup2\n  or\n  dup5\n  sstore\n    /* \"@openzeppelin/contracts/access/Ownable.sol\":3052:3092  OwnershipTransferred(oldOwner, newOwner) */\n  mload(0x40)\n    /* \"@openzeppelin/contracts/access/Ownable.sol\":3004:3010  _owner */\n  swap2\n  swap1\n  swap3\n  and\n  swap3\n  dup4\n  swap2\n    /* \"@openzeppelin/contracts/access/Ownable.sol\":3052:3092  OwnershipTransferred(oldOwner, newOwner) */\n  0x8be0079c531659141344cd1fd0a4f28419497f9722a3daafe3b4186f6b6457e0\n  swap2\n    /* \"@openzeppelin/contracts/access/Ownable.sol\":2985:3001  address oldOwner */\n  swap1\n    /* \"@openzeppelin/contracts/access/Ownable.sol\":3052:3092  OwnershipTransferred(oldOwner, newOwner) */\n  log3\n    /* \"@openzeppelin/contracts/access/Ownable.sol\":2975:3099  {... */\n  pop\n    /* \"@openzeppelin/contracts/access/Ownable.sol\":2912:3099  function _transferOwnership(address newOwner) internal virtual {... */\n  pop\n  jump\t// out\n    /* \"#utility.yul\":14:191   */\ntag_15:\n    /* \"#utility.yul\":93:106   */\n  dup1\n  mload\n  sub(shl(0xa0, 0x01), 0x01)\n    /* \"#utility.yul\":135:166   */\n  dup2\n  and\n    /* \"#utility.yul\":125:167   */\n  dup2\n  eq\n    /* \"#utility.yul\":115:185   */\n  tag_18\n  jumpi\n    /* \"#utility.yul\":181:182   */\n  0x00\n    /* \"#utility.yul\":178:179   */\n  0x00\n    /* \"#utility.yul\":171:183   */\n  revert\n    /* \"#utility.yul\":115:185   */\ntag_18:\n    /* \"#utility.yul\":14:191   */\n  swap2\n  swap1\n  pop\n  jump\t// out\n    /* \"#utility.yul\":196:660   */\ntag_3:\n    /* \"#utility.yul\":293:299   */\n  0x00\n    /* \"#utility.yul\":301:307   */\n  0x00\n    /* \"#utility.yul\":309:315   */\n  0x00\n    /* \"#utility.yul\":317:323   */\n  0x00\n    /* \"#utility.yul\":370:373   */\n  0x80\n    /* \"#utility.yul\":358:367   */\n  dup6\n    /* \"#utility.yul\":349:356   */\n  dup8\n    /* \"#utility.yul\":345:368   */\n  sub\n    /* \"#utility.yul\":341:374   */\n  slt\n    /* \"#utility.yul\":338:391   */\n  iszero\n  tag_20\n  jumpi\n    /* \"#utility.yul\":387:388   */\n  0x00\n    /* \"#utility.yul\":384:385   */\n  0x00\n    /* \"#utility.yul\":377:389   */\n  revert\n    /* \"#utility.yul\":338:391   */\ntag_20:\n    /* \"#utility.yul\":410:450   */\n  tag_21\n    /* \"#utility.yul\":440:449   */\n  dup6\n    /* \"#utility.yul\":410:450   */\n  tag_15\n  jump\t// in\ntag_21:\n    /* \"#utility.yul\":400:450   */\n  swap4\n  pop\n    /* \"#utility.yul\":469:518   */\n  tag_22\n    /* \"#utility.yul\":514:516   */\n  0x20\n    /* \"#utility.yul\":503:512   */\n  dup7\n    /* \"#utility.yul\":499:517   */\n  add\n    /* \"#utility.yul\":469:518   */\n  tag_15\n  jump\t// in\ntag_22:\n    /* \"#utility.yul\":459:518   */\n  swap3\n  pop\n    /* \"#utility.yul\":537:586   */\n  tag_23\n    /* \"#utility.yul\":582:584   */\n  0x40\n    /* \"#utility.yul\":571:580   */\n  dup7\n    /* \"#utility.yul\":567:585   */\n  add\n    /* \"#utility.yul\":537:586   */\n  tag_15\n  jump\t// in\ntag_23:\n    /* \"#utility.yul\":527:586   */\n  swap2\n  pop\n    /* \"#utility.yul\":605:654   */\n  tag_24\n    /* \"#utility.yul\":650:652   */\n  0x60\n    /* \"#utility.yul\":639:648   */\n  dup7\n    /* \"#utility.yul\":635:653   */\n  add\n    /* \"#utility.yul\":605:654   */\n  tag_15\n  jump\t// in\ntag_24:\n    /* \"#utility.yul\":595:654   */\n  swap1\n  pop\n    /* \"#utility.yul\":196:660   */\n  swap3\n  swap6\n  swap2\n  swap5\n  pop\n  swap3\n  pop\n  jump\t// out\n    /* \"#utility.yul\":665:868   */\ntag_16:\n    /* \"contracts/test2/DividendDistributor.sol\":10075:16901  contract DividendDistributor is Ownable {... */\n  dataSize(sub_0)\n  dup1\n  dataOffset(sub_0)\n  0x00\n  codecopy\n  0x00\n  return\nstop\n\nsub_0: assembly {\n        /* \"contracts/test2/DividendDistributor.sol\":10075:16901  contract DividendDistributor is Ownable {... */\n      mstore(0x40, 0x80)\n      jumpi(tag_1, lt(calldatasize, 0x04))\n      shr(0xe0, calldataload(0x00))\n      dup1\n      0x8da5cb5b\n      gt\n      tag_25\n      jumpi\n      dup1\n      0xa83cb9ab\n      gt\n      tag_26\n      jumpi\n      dup1\n      0xa83cb9ab\n      eq\n      tag_19\n      jumpi\n      dup1\n      0xbb6c0ae1\n      eq\n      tag_20\n      jumpi\n      dup1\n      0xc7e95e37\n      eq\n      tag_21\n      jumpi\n      dup1\n      0xda912989\n      eq\n      tag_22\n      jumpi\n      dup1\n      0xdd6c4398\n      eq\n      tag_23\n      jumpi\n      dup1\n      0xf2fde38b\n      eq\n      tag_24\n      jumpi\n      revert(0x00, 0x00)\n    tag_26:\n      dup1\n      0x8da5cb5b\n      eq\n      tag_14\n      jumpi\n      dup1\n      0x8e9abef0\n      eq\n      tag_15\n      jumpi\n      dup1\n      0x8ea8f83c\n      eq\n      tag_16\n      jumpi\n      dup1\n      0x95ccea67\n      eq\n      tag_17\n      jumpi\n      dup1\n      0x9b19251a\n      eq\n      tag_18\n      jumpi\n      revert(0x00, 0x00)\n    tag_25:\n      dup1\n      0x4e71d92d\n      gt\n      tag_27\n      jumpi\n      dup1\n      0x4e71d92d\n      eq\n      tag_8\n      jumpi\n      dup1\n      0x53d6fd59\n      eq\n      tag_9\n      jumpi\n      dup1\n      0x545bf9ad\n      eq\n      tag_10\n      jumpi\n      dup1\n      0x641117f4\n      eq\n      tag_11\n      jumpi\n      dup1\n      0x715018a6\n      eq\n      tag_12\n      jumpi\n      dup1\n      0x83db58fe\n      eq\n      tag_13\n      jumpi\n      revert(0x00, 0x00)\n    tag_27:\n      dup1\n      0x09aa92e3\n      eq\n      tag_3\n      jumpi\n      dup1\n      0x2f48ab7d\n      eq\n      tag_4\n      jumpi\n      dup1\n      0x3540beff\n      eq\n      tag_5\n      jumpi\n      dup1\n      0x48e66c04\n      eq\n      tag_6\n      jumpi\n      dup1\n      0x48fe85e2\n      eq\n      tag_7\n      jumpi\n      revert(0x00, 0x00)\n    tag_1:\n      jumpi(tag_2, calldatasize)\n        /* \"contracts/test2/DividendDistributor.sol\":11427:11436  msg.value */\n      callvalue\n        /* \"contracts/test2/DividendDistributor.sol\":11410:11423  investBnbPool */\n      0x06\n      0x00\n        /* \"contracts/test2/DividendDistributor.sol\":11410:11436  investBnbPool += msg.value */\n      dup3\n      dup3\n      sload\n      tag_30\n      swap2\n      swap1\n      tag_31\n      jump\t// in\n    tag_30:\n      swap1\n      swap2\n      sstore\n      pop\n      pop\n        /* \"contracts/test2/DividendDistributor.sol\":11452:11491  RewardReceived(\"invest_bnb\", msg.value) */\n      0x40\n      dup1\n      mload\n        /* \"#utility.yul\":488:509   */\n      dup2\n      dup2\n      mstore\n        /* \"#utility.yul\":545:547   */\n      0x0a\n        /* \"#utility.yul\":525:543   */\n      dup2\n      dup4\n      add\n        /* \"#utility.yul\":518:548   */\n      mstore\n      shl(0xb1, 0x34b73b32b9ba2fb13731)\n        /* \"#utility.yul\":579:581   */\n      0x60\n        /* \"#utility.yul\":564:582   */\n      dup3\n      add\n        /* \"#utility.yul\":557:597   */\n      mstore\n        /* \"contracts/test2/DividendDistributor.sol\":11481:11490  msg.value */\n      callvalue\n        /* \"#utility.yul\":664:668   */\n      0x20\n        /* \"#utility.yul\":649:669   */\n      dup3\n      add\n        /* \"#utility.yul\":642:678   */\n      mstore\n        /* \"contracts/test2/DividendDistributor.sol\":11452:11491  RewardReceived(\"invest_bnb\", msg.value) */\n      swap1\n      mload\n      0x82d98a00c349d609e6ab098b00d153a6f84a70abfd6074c0dcc81c83e5e22ca8\n      swap2\n      dup2\n      swap1\n      sub\n        /* \"#utility.yul\":629:632   */\n      0x80\n        /* \"contracts/test2/DividendDistributor.sol\":11452:11491  RewardReceived(\"invest_bnb\", msg.value) */\n      add\n      swap1\n      log1\n        /* \"contracts/test2/DividendDistributor.sol\":10075:16901  contract DividendDistributor is Ownable {... */\n      stop\n    tag_2:\n      revert(0x00, 0x00)\n        /* \"contracts/test2/DividendDistributor.sol\":10561:10613  mapping(address => uint256) public activeMainTokenId */\n    tag_3:\n      callvalue\n      dup1\n      iszero\n      tag_34\n      jumpi\n      revert(0x00, 0x00)\n    tag_34:\n      pop\n      tag_35\n      tag_36\n      calldatasize\n      0x04\n      tag_37\n      jump\t// in\n    tag_36:\n      mstore(0x20, 0x09)\n      0x00\n      swap1\n      dup2\n      mstore\n      0x40\n      swap1\n      keccak256\n      sload\n      dup2\n      jump\n    tag_35:\n      mload(0x40)\n        /* \"#utility.yul\":1223:1248   */\n      swap1\n      dup2\n      mstore\n        /* \"#utility.yul\":1211:1213   */\n      0x20\n        /* \"#utility.yul\":1196:1214   */\n      add\n        /* \"contracts/test2/DividendDistributor.sol\":10561:10613  mapping(address => uint256) public activeMainTokenId */\n    tag_39:\n      mload(0x40)\n      dup1\n      swap2\n      sub\n      swap1\n      return\n        /* \"contracts/test2/DividendDistributor.sol\":10215:10234  address public usdt */\n    tag_4:\n      callvalue\n      dup1\n      iszero\n      tag_41\n      jumpi\n      revert(0x00, 0x00)\n    tag_41:\n      pop\n      sload(0x04)\n      tag_42\n      swap1\n      sub(shl(0xa0, 0x01), 0x01)\n      and\n      dup2\n      jump\n    tag_42:\n      mload(0x40)\n      sub(shl(0xa0, 0x01), 0x01)\n        /* \"#utility.yul\":1423:1455   */\n      swap1\n      swap2\n      and\n        /* \"#utility.yul\":1405:1456   */\n      dup2\n      mstore\n        /* \"#utility.yul\":1393:1395   */\n      0x20\n        /* \"#utility.yul\":1378:1396   */\n      add\n        /* \"contracts/test2/DividendDistributor.sol\":10215:10234  address public usdt */\n      tag_39\n        /* \"#utility.yul\":1259:1462   */\n      jump\n        /* \"contracts/test2/DividendDistributor.sol\":10332:10360  uint256 public investBnbPool */\n    tag_5:\n      callvalue\n      dup1\n      iszero\n      tag_46\n      jumpi\n      revert(0x00, 0x00)\n    tag_46:\n      pop\n      tag_35\n      sload(0x06)\n      dup2\n      jump\n        /* \"contracts/test2/DividendDistributor.sol\":10158:10180  address public mainNFT */\n    tag_6:\n      callvalue\n      dup1\n      iszero\n      tag_50\n      jumpi\n      revert(0x00, 0x00)\n    tag_50:\n      pop\n      sload(0x02)\n      tag_42\n      swap1\n      sub(shl(0xa0, 0x01), 0x01)\n      and\n      dup2\n      jump\n        /* \"contracts/test2/DividendDistributor.sol\":10397:10429  uint256 public antiDumpRomanPool */\n    tag_7:\n      callvalue\n      dup1\n      iszero\n      tag_54\n      jumpi\n      revert(0x00, 0x00)\n    tag_54:\n      pop\n      tag_35\n      sload(0x07)\n      dup2\n      jump\n        /* \"contracts/test2/DividendDistributor.sol\":14290:16638  function claim() external {... */\n    tag_8:\n      callvalue\n      dup1\n      iszero\n      tag_58\n      jumpi\n      revert(0x00, 0x00)\n    tag_58:\n      pop\n      tag_59\n      tag_60\n      jump\t// in\n    tag_59:\n      stop\n        /* \"contracts/test2/DividendDistributor.sol\":12549:12660  function setWhitelist(address user, bool status) external onlyOwner {... */\n    tag_9:\n      callvalue\n      dup1\n      iszero\n      tag_61\n      jumpi\n      revert(0x00, 0x00)\n    tag_61:\n      pop\n      tag_59\n      tag_63\n      calldatasize\n      0x04\n      tag_64\n      jump\t// in\n    tag_63:\n      tag_65\n      jump\t// in\n        /* \"contracts/test2/DividendDistributor.sol\":10264:10290  uint256 public feeUsdtPool */\n    tag_10:\n      callvalue\n      dup1\n      iszero\n      tag_66\n      jumpi\n      revert(0x00, 0x00)\n    tag_66:\n      pop\n      tag_35\n      sload(0x05)\n      dup2\n      jump\n        /* \"contracts/test2/DividendDistributor.sol\":11958:12541  function receiveRoman(uint256 amount, string memory rewardType) external {... */\n    tag_11:\n      callvalue\n      dup1\n      iszero\n      tag_70\n      jumpi\n      revert(0x00, 0x00)\n    tag_70:\n      pop\n      tag_59\n      tag_72\n      calldatasize\n      0x04\n      tag_73\n      jump\t// in\n    tag_72:\n      tag_74\n      jump\t// in\n        /* \"@openzeppelin/contracts/access/Ownable.sol\":2293:2394  function renounceOwnership() public virtual onlyOwner {... */\n    tag_12:\n      callvalue\n      dup1\n      iszero\n      tag_75\n      jumpi\n      revert(0x00, 0x00)\n    tag_75:\n      pop\n      tag_59\n      tag_77\n      jump\t// in\n        /* \"contracts/test2/DividendDistributor.sol\":11569:11882  function receiveUsdt(uint256 amount) external {... */\n    tag_13:\n      callvalue\n      dup1\n      iszero\n      tag_78\n      jumpi\n      revert(0x00, 0x00)\n    tag_78:\n      pop\n      tag_59\n      tag_80\n      calldatasize\n      0x04\n      tag_81\n      jump\t// in\n    tag_80:\n      tag_82\n      jump\t// in\n        /* \"@openzeppelin/contracts/access/Ownable.sol\":1638:1723  function owner() public view virtual returns (address) {... */\n    tag_14:\n      callvalue\n      dup1\n      iszero\n      tag_83\n      jumpi\n      revert(0x00, 0x00)\n    tag_83:\n      pop\n        /* \"@openzeppelin/contracts/access/Ownable.sol\":1684:1691  address */\n      0x00\n        /* \"@openzeppelin/contracts/access/Ownable.sol\":1710:1716  _owner */\n      sload\n      sub(shl(0xa0, 0x01), 0x01)\n      and\n        /* \"@openzeppelin/contracts/access/Ownable.sol\":1638:1723  function owner() public view virtual returns (address) {... */\n      jump(tag_42)\n        /* \"contracts/test2/DividendDistributor.sol\":10765:10794  uint256 public totalActiveSub */\n    tag_15:\n      callvalue\n      dup1\n      iszero\n      tag_87\n      jumpi\n      revert(0x00, 0x00)\n    tag_87:\n      pop\n      tag_35\n      sload(0x0d)\n      dup2\n      jump\n        /* \"contracts/test2/DividendDistributor.sol\":12668:14282  function activate(uint256 mainTokenId, uint256 subTokenId) external {... */\n    tag_16:\n      callvalue\n      dup1\n      iszero\n      tag_91\n      jumpi\n      revert(0x00, 0x00)\n    tag_91:\n      pop\n      tag_59\n      tag_93\n      calldatasize\n      0x04\n      tag_94\n      jump\t// in\n    tag_93:\n      tag_95\n      jump\t// in\n        /* \"contracts/test2/DividendDistributor.sol\":16646:16898  function emergencyWithdraw(address token, uint256 amount) external onlyOwner {... */\n    tag_17:\n      callvalue\n      dup1\n      iszero\n      tag_96\n      jumpi\n      revert(0x00, 0x00)\n    tag_96:\n      pop\n      tag_59\n      tag_98\n      calldatasize\n      0x04\n      tag_99\n      jump\t// in\n    tag_98:\n      tag_100\n      jump\t// in\n        /* \"contracts/test2/DividendDistributor.sol\":10678:10719  mapping(address => bool) public whitelist */\n    tag_18:\n      callvalue\n      dup1\n      iszero\n      tag_101\n      jumpi\n      revert(0x00, 0x00)\n    tag_101:\n      pop\n      tag_102\n      tag_103\n      calldatasize\n      0x04\n      tag_37\n      jump\t// in\n    tag_103:\n      mstore(0x20, 0x0b)\n      0x00\n      swap1\n      dup2\n      mstore\n      0x40\n      swap1\n      keccak256\n      sload\n      0xff\n      and\n      dup2\n      jump\n    tag_102:\n      mload(0x40)\n        /* \"#utility.yul\":4292:4306   */\n      swap1\n      iszero\n        /* \"#utility.yul\":4285:4307   */\n      iszero\n        /* \"#utility.yul\":4267:4308   */\n      dup2\n      mstore\n        /* \"#utility.yul\":4255:4257   */\n      0x20\n        /* \"#utility.yul\":4240:4258   */\n      add\n        /* \"contracts/test2/DividendDistributor.sol\":10678:10719  mapping(address => bool) public whitelist */\n      tag_39\n        /* \"#utility.yul\":4127:4314   */\n      jump\n        /* \"contracts/test2/DividendDistributor.sol\":10620:10671  mapping(address => uint256) public activeSubTokenId */\n    tag_19:\n      callvalue\n      dup1\n      iszero\n      tag_107\n      jumpi\n      revert(0x00, 0x00)\n    tag_107:\n      pop\n      tag_35\n      tag_109\n      calldatasize\n      0x04\n      tag_37\n      jump\t// in\n    tag_109:\n      mstore(0x20, 0x0a)\n      0x00\n      swap1\n      dup2\n      mstore\n      0x40\n      swap1\n      keccak256\n      sload\n      dup2\n      jump\n        /* \"contracts/test2/DividendDistributor.sol\":10122:10151  IROMANToken public romanToken */\n    tag_20:\n      callvalue\n      dup1\n      iszero\n      tag_112\n      jumpi\n      revert(0x00, 0x00)\n    tag_112:\n      pop\n      sload(0x01)\n      tag_42\n      swap1\n      sub(shl(0xa0, 0x01), 0x01)\n      and\n      dup2\n      jump\n        /* \"contracts/test2/DividendDistributor.sol\":10728:10758  uint256 public totalActiveMain */\n    tag_21:\n      callvalue\n      dup1\n      iszero\n      tag_117\n      jumpi\n      revert(0x00, 0x00)\n    tag_117:\n      pop\n      tag_35\n      sload(0x0c)\n      dup2\n      jump\n        /* \"contracts/test2/DividendDistributor.sol\":10466:10498  uint256 public hashGameRomanPool */\n    tag_22:\n      callvalue\n      dup1\n      iszero\n      tag_121\n      jumpi\n      revert(0x00, 0x00)\n    tag_121:\n      pop\n      tag_35\n      sload(0x08)\n      dup2\n      jump\n        /* \"contracts/test2/DividendDistributor.sol\":10187:10208  address public subNFT */\n    tag_23:\n      callvalue\n      dup1\n      iszero\n      tag_125\n      jumpi\n      revert(0x00, 0x00)\n    tag_125:\n      pop\n      sload(0x03)\n      tag_42\n      swap1\n      sub(shl(0xa0, 0x01), 0x01)\n      and\n      dup2\n      jump\n        /* \"@openzeppelin/contracts/access/Ownable.sol\":2543:2758  function transferOwnership(address newOwner) public virtual onlyOwner {... */\n    tag_24:\n      callvalue\n      dup1\n      iszero\n      tag_129\n      jumpi\n      revert(0x00, 0x00)\n    tag_129:\n      pop\n      tag_59\n      tag_131\n      calldatasize\n      0x04\n      tag_37\n      jump\t// in\n    tag_131:\n      tag_132\n      jump\t// in\n        /* \"contracts/test2/DividendDistributor.sol\":14290:16638  function claim() external {... */\n    tag_60:\n        /* \"contracts/test2/DividendDistributor.sol\":14342:14352  msg.sender */\n      caller\n        /* \"contracts/test2/DividendDistributor.sol\":14327:14339  address user */\n      0x00\n        /* \"contracts/test2/DividendDistributor.sol\":14380:14403  activeMainTokenId[user] */\n      dup2\n      dup2\n      mstore\n        /* \"contracts/test2/DividendDistributor.sol\":14380:14397  activeMainTokenId */\n      0x09\n        /* \"contracts/test2/DividendDistributor.sol\":14380:14403  activeMainTokenId[user] */\n      0x20\n      swap1\n      dup2\n      mstore\n      0x40\n      dup1\n      dup4\n      keccak256\n      sload\n        /* \"contracts/test2/DividendDistributor.sol\":14430:14446  activeSubTokenId */\n      0x0a\n        /* \"contracts/test2/DividendDistributor.sol\":14430:14452  activeSubTokenId[user] */\n      swap1\n      swap3\n      mstore\n      swap1\n      swap2\n      keccak256\n      sload\n        /* \"contracts/test2/DividendDistributor.sol\":14473:14484  mainId != 0 */\n      dup2\n      iszero\n      iszero\n      dup1\n        /* \"contracts/test2/DividendDistributor.sol\":14473:14498  mainId != 0 || subId != 0 */\n      tag_134\n      jumpi\n      pop\n        /* \"contracts/test2/DividendDistributor.sol\":14488:14498  subId != 0 */\n      dup1\n      iszero\n      iszero\n        /* \"contracts/test2/DividendDistributor.sol\":14473:14498  mainId != 0 || subId != 0 */\n    tag_134:\n        /* \"contracts/test2/DividendDistributor.sol\":14465:14516  require(mainId != 0 || subId != 0, \"No active NFT\") */\n      tag_135\n      jumpi\n      mload(0x40)\n      shl(0xe5, 0x461bcd)\n      dup2\n      mstore\n        /* \"#utility.yul\":4748:4750   */\n      0x20\n        /* \"contracts/test2/DividendDistributor.sol\":14465:14516  require(mainId != 0 || subId != 0, \"No active NFT\") */\n      0x04\n      dup3\n      add\n        /* \"#utility.yul\":4730:4751   */\n      mstore\n        /* \"#utility.yul\":4787:4789   */\n      0x0d\n        /* \"#utility.yul\":4767:4785   */\n      0x24\n      dup3\n      add\n        /* \"#utility.yul\":4760:4790   */\n      mstore\n      shl(0x9a, 0x139bc81858dd1a5d9948139195)\n        /* \"#utility.yul\":4806:4824   */\n      0x44\n      dup3\n      add\n        /* \"#utility.yul\":4799:4842   */\n      mstore\n        /* \"#utility.yul\":4859:4877   */\n      0x64\n      add\n        /* \"contracts/test2/DividendDistributor.sol\":14465:14516  require(mainId != 0 || subId != 0, \"No active NFT\") */\n    tag_136:\n      mload(0x40)\n      dup1\n      swap2\n      sub\n      swap1\n      revert\n    tag_135:\n        /* \"contracts/test2/DividendDistributor.sol\":14667:14681  totalActiveSub */\n      sload(0x0d)\n        /* \"contracts/test2/DividendDistributor.sol\":14649:14664  totalActiveMain */\n      sload(0x0c)\n        /* \"contracts/test2/DividendDistributor.sol\":14529:14546  uint256 totalUsdt */\n      0x00\n      swap2\n      dup3\n      swap2\n      dup3\n      swap2\n      dup3\n      swap2\n        /* \"contracts/test2/DividendDistributor.sol\":14649:14681  totalActiveMain + totalActiveSub */\n      tag_138\n      swap2\n        /* \"contracts/test2/DividendDistributor.sol\":14667:14681  totalActiveSub */\n      swap1\n        /* \"contracts/test2/DividendDistributor.sol\":14649:14681  totalActiveMain + totalActiveSub */\n      tag_31\n      jump\t// in\n    tag_138:\n        /* \"contracts/test2/DividendDistributor.sol\":14627:14681  uint256 totalActive = totalActiveMain + totalActiveSub */\n      swap1\n      pop\n        /* \"contracts/test2/DividendDistributor.sol\":14696:14707  totalActive */\n      dup1\n        /* \"contracts/test2/DividendDistributor.sol\":14711:14712  0 */\n      0x00\n        /* \"contracts/test2/DividendDistributor.sol\":14696:14712  totalActive == 0 */\n      sub\n        /* \"contracts/test2/DividendDistributor.sol\":14692:14721  if (totalActive == 0) return; */\n      tag_139\n      jumpi\n        /* \"contracts/test2/DividendDistributor.sol\":14714:14721  return; */\n      pop\n      pop\n      pop\n      pop\n      pop\n      pop\n      pop\n        /* \"contracts/test2/DividendDistributor.sol\":14290:16638  function claim() external {... */\n      jump\t// out\n        /* \"contracts/test2/DividendDistributor.sol\":14692:14721  if (totalActive == 0) return; */\n    tag_139:\n        /* \"contracts/test2/DividendDistributor.sol\":14807:14808  0 */\n      0x00\n        /* \"contracts/test2/DividendDistributor.sol\":14793:14804  feeUsdtPool */\n      sload(0x05)\n        /* \"contracts/test2/DividendDistributor.sol\":14793:14808  feeUsdtPool > 0 */\n      gt\n        /* \"contracts/test2/DividendDistributor.sol\":14793:14848  feeUsdtPool > 0 && totalActiveMain + totalActiveSub > 0 */\n      dup1\n      iszero\n      tag_140\n      jumpi\n      pop\n        /* \"contracts/test2/DividendDistributor.sol\":14847:14848  0 */\n      0x00\n        /* \"contracts/test2/DividendDistributor.sol\":14830:14844  totalActiveSub */\n      sload(0x0d)\n        /* \"contracts/test2/DividendDistributor.sol\":14812:14827  totalActiveMain */\n      sload(0x0c)\n        /* \"contracts/test2/DividendDistributor.sol\":14812:14844  totalActiveMain + totalActiveSub */\n      tag_141\n      swap2\n      swap1\n      tag_31\n      jump\t// in\n    tag_141:\n        /* \"contracts/test2/DividendDistributor.sol\":14812:14848  totalActiveMain + totalActiveSub > 0 */\n      gt\n        /* \"contracts/test2/DividendDistributor.sol\":14793:14848  feeUsdtPool > 0 && totalActiveMain + totalActiveSub > 0 */\n    tag_140:\n        /* \"contracts/test2/DividendDistributor.sol\":14789:15147  if (feeUsdtPool > 0 && totalActiveMain + totalActiveSub > 0) {... */\n      iszero\n      tag_152\n      jumpi\n        /* \"contracts/test2/DividendDistributor.sol\":14869:14880  mainId != 0 */\n      dup6\n      iszero\n      dup1\n      iszero\n      swap1\n        /* \"contracts/test2/DividendDistributor.sol\":14869:14903  mainId != 0 && totalActiveMain > 0 */\n      tag_143\n      jumpi\n      pop\n        /* \"contracts/test2/DividendDistributor.sol\":14902:14903  0 */\n      0x00\n        /* \"contracts/test2/DividendDistributor.sol\":14884:14899  totalActiveMain */\n      sload(0x0c)\n        /* \"contracts/test2/DividendDistributor.sol\":14884:14903  totalActiveMain > 0 */\n      gt\n        /* \"contracts/test2/DividendDistributor.sol\":14869:14903  mainId != 0 && totalActiveMain > 0 */\n    tag_143:\n        /* \"contracts/test2/DividendDistributor.sol\":14865:14995  if (mainId != 0 && totalActiveMain > 0) {... */\n      iszero\n      tag_144\n      jumpi\n        /* \"contracts/test2/DividendDistributor.sol\":14964:14979  totalActiveMain */\n      sload(0x0c)\n        /* \"contracts/test2/DividendDistributor.sol\":14958:14961  100 */\n      0x64\n        /* \"contracts/test2/DividendDistributor.sol\":14938:14949  feeUsdtPool */\n      sload(0x05)\n        /* \"contracts/test2/DividendDistributor.sol\":14952:14954  70 */\n      0x46\n        /* \"contracts/test2/DividendDistributor.sol\":14938:14954  feeUsdtPool * 70 */\n      tag_145\n      swap2\n      swap1\n      tag_146\n      jump\t// in\n    tag_145:\n        /* \"contracts/test2/DividendDistributor.sol\":14937:14961  (feeUsdtPool * 70) / 100 */\n      tag_147\n      swap2\n      swap1\n      tag_148\n      jump\t// in\n    tag_147:\n        /* \"contracts/test2/DividendDistributor.sol\":14937:14979  (feeUsdtPool * 70) / 100 / totalActiveMain */\n      tag_149\n      swap2\n      swap1\n      tag_148\n      jump\t// in\n    tag_149:\n        /* \"contracts/test2/DividendDistributor.sol\":14924:14979  totalUsdt += (feeUsdtPool * 70) / 100 / totalActiveMain */\n      tag_150\n      swap1\n      dup6\n      tag_31\n      jump\t// in\n    tag_150:\n      swap4\n      pop\n        /* \"contracts/test2/DividendDistributor.sol\":14865:14995  if (mainId != 0 && totalActiveMain > 0) {... */\n    tag_144:\n        /* \"contracts/test2/DividendDistributor.sol\":15013:15023  subId != 0 */\n      dup5\n      iszero\n      dup1\n      iszero\n      swap1\n        /* \"contracts/test2/DividendDistributor.sol\":15013:15045  subId != 0 && totalActiveSub > 0 */\n      tag_151\n      jumpi\n      pop\n        /* \"contracts/test2/DividendDistributor.sol\":15044:15045  0 */\n      0x00\n        /* \"contracts/test2/DividendDistributor.sol\":15027:15041  totalActiveSub */\n      sload(0x0d)\n        /* \"contracts/test2/DividendDistributor.sol\":15027:15045  totalActiveSub > 0 */\n      gt\n        /* \"contracts/test2/DividendDistributor.sol\":15013:15045  subId != 0 && totalActiveSub > 0 */\n    tag_151:\n        /* \"contracts/test2/DividendDistributor.sol\":15009:15136  if (subId != 0 && totalActiveSub > 0) {... */\n      iszero\n      tag_152\n      jumpi\n        /* \"contracts/test2/DividendDistributor.sol\":15106:15120  totalActiveSub */\n      sload(0x0d)\n        /* \"contracts/test2/DividendDistributor.sol\":15100:15103  100 */\n      0x64\n        /* \"contracts/test2/DividendDistributor.sol\":15080:15091  feeUsdtPool */\n      sload(0x05)\n        /* \"contracts/test2/DividendDistributor.sol\":15094:15096  30 */\n      0x1e\n        /* \"contracts/test2/DividendDistributor.sol\":15080:15096  feeUsdtPool * 30 */\n      tag_153\n      swap2\n      swap1\n      tag_146\n      jump\t// in\n    tag_153:\n        /* \"contracts/test2/DividendDistributor.sol\":15079:15103  (feeUsdtPool * 30) / 100 */\n      tag_154\n      swap2\n      swap1\n      tag_148\n      jump\t// in\n    tag_154:\n        /* \"contracts/test2/DividendDistributor.sol\":15079:15120  (feeUsdtPool * 30) / 100 / totalActiveSub */\n      tag_155\n      swap2\n      swap1\n      tag_148\n      jump\t// in\n    tag_155:\n        /* \"contracts/test2/DividendDistributor.sol\":15066:15120  totalUsdt += (feeUsdtPool * 30) / 100 / totalActiveSub */\n      tag_156\n      swap1\n      dup6\n      tag_31\n      jump\t// in\n    tag_156:\n      swap4\n      pop\n        /* \"contracts/test2/DividendDistributor.sol\":15009:15136  if (subId != 0 && totalActiveSub > 0) {... */\n    tag_152:\n        /* \"contracts/test2/DividendDistributor.sol\":15204:15226  uint256 totalRomanPool */\n      0x00\n        /* \"contracts/test2/DividendDistributor.sol\":15249:15266  hashGameRomanPool */\n      sload(0x08)\n        /* \"contracts/test2/DividendDistributor.sol\":15229:15246  antiDumpRomanPool */\n      sload(0x07)\n        /* \"contracts/test2/DividendDistributor.sol\":15229:15266  antiDumpRomanPool + hashGameRomanPool */\n      tag_157\n      swap2\n      swap1\n      tag_31\n      jump\t// in\n    tag_157:\n        /* \"contracts/test2/DividendDistributor.sol\":15204:15266  uint256 totalRomanPool = antiDumpRomanPool + hashGameRomanPool */\n      swap1\n      pop\n        /* \"contracts/test2/DividendDistributor.sol\":15298:15299  0 */\n      0x00\n        /* \"contracts/test2/DividendDistributor.sol\":15281:15295  totalRomanPool */\n      dup2\n        /* \"contracts/test2/DividendDistributor.sol\":15281:15299  totalRomanPool > 0 */\n      gt\n        /* \"contracts/test2/DividendDistributor.sol\":15281:15339  totalRomanPool > 0 && totalActiveMain + totalActiveSub > 0 */\n      dup1\n      iszero\n      tag_158\n      jumpi\n      pop\n        /* \"contracts/test2/DividendDistributor.sol\":15338:15339  0 */\n      0x00\n        /* \"contracts/test2/DividendDistributor.sol\":15321:15335  totalActiveSub */\n      sload(0x0d)\n        /* \"contracts/test2/DividendDistributor.sol\":15303:15318  totalActiveMain */\n      sload(0x0c)\n        /* \"contracts/test2/DividendDistributor.sol\":15303:15335  totalActiveMain + totalActiveSub */\n      tag_159\n      swap2\n      swap1\n      tag_31\n      jump\t// in\n    tag_159:\n        /* \"contracts/test2/DividendDistributor.sol\":15303:15339  totalActiveMain + totalActiveSub > 0 */\n      gt\n        /* \"contracts/test2/DividendDistributor.sol\":15281:15339  totalRomanPool > 0 && totalActiveMain + totalActiveSub > 0 */\n    tag_158:\n        /* \"contracts/test2/DividendDistributor.sol\":15277:15646  if (totalRomanPool > 0 && totalActiveMain + totalActiveSub > 0) {... */\n      iszero\n      tag_168\n      jumpi\n        /* \"contracts/test2/DividendDistributor.sol\":15360:15371  mainId != 0 */\n      dup7\n      iszero\n      dup1\n      iszero\n      swap1\n        /* \"contracts/test2/DividendDistributor.sol\":15360:15394  mainId != 0 && totalActiveMain > 0 */\n      tag_161\n      jumpi\n      pop\n        /* \"contracts/test2/DividendDistributor.sol\":15393:15394  0 */\n      0x00\n        /* \"contracts/test2/DividendDistributor.sol\":15375:15390  totalActiveMain */\n      sload(0x0c)\n        /* \"contracts/test2/DividendDistributor.sol\":15375:15394  totalActiveMain > 0 */\n      gt\n        /* \"contracts/test2/DividendDistributor.sol\":15360:15394  mainId != 0 && totalActiveMain > 0 */\n    tag_161:\n        /* \"contracts/test2/DividendDistributor.sol\":15356:15490  if (mainId != 0 && totalActiveMain > 0) {... */\n      iszero\n      tag_162\n      jumpi\n        /* \"contracts/test2/DividendDistributor.sol\":15459:15474  totalActiveMain */\n      sload(0x0c)\n        /* \"contracts/test2/DividendDistributor.sol\":15453:15456  100 */\n      0x64\n        /* \"contracts/test2/DividendDistributor.sol\":15430:15449  totalRomanPool * 70 */\n      tag_163\n        /* \"contracts/test2/DividendDistributor.sol\":15430:15444  totalRomanPool */\n      dup4\n        /* \"contracts/test2/DividendDistributor.sol\":15447:15449  70 */\n      0x46\n        /* \"contracts/test2/DividendDistributor.sol\":15430:15449  totalRomanPool * 70 */\n      tag_146\n      jump\t// in\n    tag_163:\n        /* \"contracts/test2/DividendDistributor.sol\":15429:15456  (totalRomanPool * 70) / 100 */\n      tag_164\n      swap2\n      swap1\n      tag_148\n      jump\t// in\n    tag_164:\n        /* \"contracts/test2/DividendDistributor.sol\":15429:15474  (totalRomanPool * 70) / 100 / totalActiveMain */\n      tag_165\n      swap2\n      swap1\n      tag_148\n      jump\t// in\n    tag_165:\n        /* \"contracts/test2/DividendDistributor.sol\":15415:15474  totalRoman += (totalRomanPool * 70) / 100 / totalActiveMain */\n      tag_166\n      swap1\n      dup6\n      tag_31\n      jump\t// in\n    tag_166:\n      swap4\n      pop\n        /* \"contracts/test2/DividendDistributor.sol\":15356:15490  if (mainId != 0 && totalActiveMain > 0) {... */\n    tag_162:\n        /* \"contracts/test2/DividendDistributor.sol\":15508:15518  subId != 0 */\n      dup6\n      iszero\n      dup1\n      iszero\n      swap1\n        /* \"contracts/test2/DividendDistributor.sol\":15508:15540  subId != 0 && totalActiveSub > 0 */\n      tag_167\n      jumpi\n      pop\n        /* \"contracts/test2/DividendDistributor.sol\":15539:15540  0 */\n      0x00\n        /* \"contracts/test2/DividendDistributor.sol\":15522:15536  totalActiveSub */\n      sload(0x0d)\n        /* \"contracts/test2/DividendDistributor.sol\":15522:15540  totalActiveSub > 0 */\n      gt\n        /* \"contracts/test2/DividendDistributor.sol\":15508:15540  subId != 0 && totalActiveSub > 0 */\n    tag_167:\n        /* \"contracts/test2/DividendDistributor.sol\":15504:15635  if (subId != 0 && totalActiveSub > 0) {... */\n      iszero\n      tag_168\n      jumpi\n        /* \"contracts/test2/DividendDistributor.sol\":15605:15619  totalActiveSub */\n      sload(0x0d)\n        /* \"contracts/test2/DividendDistributor.sol\":15599:15602  100 */\n      0x64\n        /* \"contracts/test2/DividendDistributor.sol\":15576:15595  totalRomanPool * 30 */\n      tag_169\n        /* \"contracts/test2/DividendDistributor.sol\":15576:15590  totalRomanPool */\n      dup4\n        /* \"contracts/test2/DividendDistributor.sol\":15593:15595  30 */\n      0x1e\n        /* \"contracts/test2/DividendDistributor.sol\":15576:15595  totalRomanPool * 30 */\n      tag_146\n      jump\t// in\n    tag_169:\n        /* \"contracts/test2/DividendDistributor.sol\":15575:15602  (totalRomanPool * 30) / 100 */\n      tag_170\n      swap2\n      swap1\n      tag_148\n      jump\t// in\n    tag_170:\n        /* \"contracts/test2/DividendDistributor.sol\":15575:15619  (totalRomanPool * 30) / 100 / totalActiveSub */\n      tag_171\n      swap2\n      swap1\n      tag_148\n      jump\t// in\n    tag_171:\n        /* \"contracts/test2/DividendDistributor.sol\":15561:15619  totalRoman += (totalRomanPool * 30) / 100 / totalActiveSub */\n      tag_172\n      swap1\n      dup6\n      tag_31\n      jump\t// in\n    tag_172:\n      swap4\n      pop\n        /* \"contracts/test2/DividendDistributor.sol\":15504:15635  if (subId != 0 && totalActiveSub > 0) {... */\n    tag_168:\n        /* \"contracts/test2/DividendDistributor.sol\":15713:15714  0 */\n      0x00\n        /* \"contracts/test2/DividendDistributor.sol\":15697:15710  investBnbPool */\n      sload(0x06)\n        /* \"contracts/test2/DividendDistributor.sol\":15697:15714  investBnbPool > 0 */\n      gt\n        /* \"contracts/test2/DividendDistributor.sol\":15697:15754  investBnbPool > 0 && totalActiveMain + totalActiveSub > 0 */\n      dup1\n      iszero\n      tag_173\n      jumpi\n      pop\n        /* \"contracts/test2/DividendDistributor.sol\":15753:15754  0 */\n      0x00\n        /* \"contracts/test2/DividendDistributor.sol\":15736:15750  totalActiveSub */\n      sload(0x0d)\n        /* \"contracts/test2/DividendDistributor.sol\":15718:15733  totalActiveMain */\n      sload(0x0c)\n        /* \"contracts/test2/DividendDistributor.sol\":15718:15750  totalActiveMain + totalActiveSub */\n      tag_174\n      swap2\n      swap1\n      tag_31\n      jump\t// in\n    tag_174:\n        /* \"contracts/test2/DividendDistributor.sol\":15718:15754  totalActiveMain + totalActiveSub > 0 */\n      gt\n        /* \"contracts/test2/DividendDistributor.sol\":15697:15754  investBnbPool > 0 && totalActiveMain + totalActiveSub > 0 */\n    tag_173:\n        /* \"contracts/test2/DividendDistributor.sol\":15693:16055  if (investBnbPool > 0 && totalActiveMain + totalActiveSub > 0) {... */\n      iszero\n      tag_183\n      jumpi\n        /* \"contracts/test2/DividendDistributor.sol\":15775:15786  mainId != 0 */\n      dup7\n      iszero\n      dup1\n      iszero\n      swap1\n        /* \"contracts/test2/DividendDistributor.sol\":15775:15809  mainId != 0 && totalActiveMain > 0 */\n      tag_176\n      jumpi\n      pop\n        /* \"contracts/test2/DividendDistributor.sol\":15808:15809  0 */\n      0x00\n        /* \"contracts/test2/DividendDistributor.sol\":15790:15805  totalActiveMain */\n      sload(0x0c)\n        /* \"contracts/test2/DividendDistributor.sol\":15790:15809  totalActiveMain > 0 */\n      gt\n        /* \"contracts/test2/DividendDistributor.sol\":15775:15809  mainId != 0 && totalActiveMain > 0 */\n    tag_176:\n        /* \"contracts/test2/DividendDistributor.sol\":15771:15902  if (mainId != 0 && totalActiveMain > 0) {... */\n      iszero\n      tag_177\n      jumpi\n        /* \"contracts/test2/DividendDistributor.sol\":15871:15886  totalActiveMain */\n      sload(0x0c)\n        /* \"contracts/test2/DividendDistributor.sol\":15865:15868  100 */\n      0x64\n        /* \"contracts/test2/DividendDistributor.sol\":15843:15856  investBnbPool */\n      sload(0x06)\n        /* \"contracts/test2/DividendDistributor.sol\":15859:15861  70 */\n      0x46\n        /* \"contracts/test2/DividendDistributor.sol\":15843:15861  investBnbPool * 70 */\n      tag_178\n      swap2\n      swap1\n      tag_146\n      jump\t// in\n    tag_178:\n        /* \"contracts/test2/DividendDistributor.sol\":15842:15868  (investBnbPool * 70) / 100 */\n      tag_179\n      swap2\n      swap1\n      tag_148\n      jump\t// in\n    tag_179:\n        /* \"contracts/test2/DividendDistributor.sol\":15842:15886  (investBnbPool * 70) / 100 / totalActiveMain */\n      tag_180\n      swap2\n      swap1\n      tag_148\n      jump\t// in\n    tag_180:\n        /* \"contracts/test2/DividendDistributor.sol\":15830:15886  totalBnb += (investBnbPool * 70) / 100 / totalActiveMain */\n      tag_181\n      swap1\n      dup5\n      tag_31\n      jump\t// in\n    tag_181:\n      swap3\n      pop\n        /* \"contracts/test2/DividendDistributor.sol\":15771:15902  if (mainId != 0 && totalActiveMain > 0) {... */\n    tag_177:\n        /* \"contracts/test2/DividendDistributor.sol\":15920:15930  subId != 0 */\n      dup6\n      iszero\n      dup1\n      iszero\n      swap1\n        /* \"contracts/test2/DividendDistributor.sol\":15920:15952  subId != 0 && totalActiveSub > 0 */\n      tag_182\n      jumpi\n      pop\n        /* \"contracts/test2/DividendDistributor.sol\":15951:15952  0 */\n      0x00\n        /* \"contracts/test2/DividendDistributor.sol\":15934:15948  totalActiveSub */\n      sload(0x0d)\n        /* \"contracts/test2/DividendDistributor.sol\":15934:15952  totalActiveSub > 0 */\n      gt\n        /* \"contracts/test2/DividendDistributor.sol\":15920:15952  subId != 0 && totalActiveSub > 0 */\n    tag_182:\n        /* \"contracts/test2/DividendDistributor.sol\":15916:16044  if (subId != 0 && totalActiveSub > 0) {... */\n      iszero\n      tag_183\n      jumpi\n        /* \"contracts/test2/DividendDistributor.sol\":16014:16028  totalActiveSub */\n      sload(0x0d)\n        /* \"contracts/test2/DividendDistributor.sol\":16008:16011  100 */\n      0x64\n        /* \"contracts/test2/DividendDistributor.sol\":15986:15999  investBnbPool */\n      sload(0x06)\n        /* \"contracts/test2/DividendDistributor.sol\":16002:16004  30 */\n      0x1e\n        /* \"contracts/test2/DividendDistributor.sol\":15986:16004  investBnbPool * 30 */\n      tag_184\n      swap2\n      swap1\n      tag_146\n      jump\t// in\n    tag_184:\n        /* \"contracts/test2/DividendDistributor.sol\":15985:16011  (investBnbPool * 30) / 100 */\n      tag_185\n      swap2\n      swap1\n      tag_148\n      jump\t// in\n    tag_185:\n        /* \"contracts/test2/DividendDistributor.sol\":15985:16028  (investBnbPool * 30) / 100 / totalActiveSub */\n      tag_186\n      swap2\n      swap1\n      tag_148\n      jump\t// in\n    tag_186:\n        /* \"contracts/test2/DividendDistributor.sol\":15973:16028  totalBnb += (investBnbPool * 30) / 100 / totalActiveSub */\n      tag_187\n      swap1\n      dup5\n      tag_31\n      jump\t// in\n    tag_187:\n      swap3\n      pop\n        /* \"contracts/test2/DividendDistributor.sol\":15916:16044  if (subId != 0 && totalActiveSub > 0) {... */\n    tag_183:\n        /* \"contracts/test2/DividendDistributor.sol\":16092:16105  totalUsdt > 0 */\n      dup5\n      iszero\n        /* \"contracts/test2/DividendDistributor.sol\":16088:16172  if (totalUsdt > 0) {... */\n      tag_188\n      jumpi\n        /* \"contracts/test2/DividendDistributor.sol\":16129:16133  usdt */\n      0x04\n      dup1\n      sload\n        /* \"contracts/test2/DividendDistributor.sol\":16122:16160  IERC20(usdt).transfer(user, totalUsdt) */\n      mload(0x40)\n      shl(0xe0, 0xa9059cbb)\n      dup2\n      mstore\n      sub(shl(0xa0, 0x01), 0x01)\n        /* \"#utility.yul\":5475:5507   */\n      dup12\n      dup2\n      and\n        /* \"contracts/test2/DividendDistributor.sol\":16122:16160  IERC20(usdt).transfer(user, totalUsdt) */\n      swap4\n      dup3\n      add\n        /* \"#utility.yul\":5457:5508   */\n      swap4\n      swap1\n      swap4\n      mstore\n        /* \"#utility.yul\":5524:5542   */\n      0x24\n      dup2\n      add\n        /* \"#utility.yul\":5517:5551   */\n      dup9\n      swap1\n      mstore\n        /* \"contracts/test2/DividendDistributor.sol\":16129:16133  usdt */\n      swap2\n      and\n      swap1\n        /* \"contracts/test2/DividendDistributor.sol\":16122:16143  IERC20(usdt).transfer */\n      0xa9059cbb\n      swap1\n        /* \"#utility.yul\":5430:5448   */\n      0x44\n      add\n        /* \"contracts/test2/DividendDistributor.sol\":16122:16160  IERC20(usdt).transfer(user, totalUsdt) */\n      0x20\n      mload(0x40)\n      dup1\n      dup4\n      sub\n      dup2\n      0x00\n      dup8\n      gas\n      call\n      iszero\n      dup1\n      iszero\n      tag_192\n      jumpi\n      returndatacopy(0x00, 0x00, returndatasize)\n      revert(0x00, returndatasize)\n    tag_192:\n      pop\n      pop\n      pop\n      pop\n      mload(0x40)\n      returndatasize\n      not(0x1f)\n      0x1f\n      dup3\n      add\n      and\n      dup3\n      add\n      dup1\n      0x40\n      mstore\n      pop\n      dup2\n      add\n      swap1\n      tag_193\n      swap2\n      swap1\n      tag_194\n      jump\t// in\n    tag_193:\n      pop\n        /* \"contracts/test2/DividendDistributor.sol\":16088:16172  if (totalUsdt > 0) {... */\n    tag_188:\n        /* \"contracts/test2/DividendDistributor.sol\":16186:16200  totalRoman > 0 */\n      dup4\n      iszero\n        /* \"contracts/test2/DividendDistributor.sol\":16182:16283  if (totalRoman > 0) {... */\n      tag_195\n      jumpi\n        /* \"contracts/test2/DividendDistributor.sol\":16232:16242  romanToken */\n      sload(0x01)\n        /* \"contracts/test2/DividendDistributor.sol\":16217:16271  IERC20(address(romanToken)).transfer(user, totalRoman) */\n      mload(0x40)\n      shl(0xe0, 0xa9059cbb)\n      dup2\n      mstore\n      sub(shl(0xa0, 0x01), 0x01)\n        /* \"#utility.yul\":5475:5507   */\n      dup11\n      dup2\n      and\n        /* \"contracts/test2/DividendDistributor.sol\":16217:16271  IERC20(address(romanToken)).transfer(user, totalRoman) */\n      0x04\n      dup4\n      add\n        /* \"#utility.yul\":5457:5508   */\n      mstore\n        /* \"#utility.yul\":5524:5542   */\n      0x24\n      dup3\n      add\n        /* \"#utility.yul\":5517:5551   */\n      dup8\n      swap1\n      mstore\n        /* \"contracts/test2/DividendDistributor.sol\":16232:16242  romanToken */\n      swap1\n      swap2\n      and\n      swap1\n        /* \"contracts/test2/DividendDistributor.sol\":16217:16253  IERC20(address(romanToken)).transfer */\n      0xa9059cbb\n      swap1\n        /* \"#utility.yul\":5430:5448   */\n      0x44\n      add\n        /* \"contracts/test2/DividendDistributor.sol\":16217:16271  IERC20(address(romanToken)).transfer(user, totalRoman) */\n      0x20\n      mload(0x40)\n      dup1\n      dup4\n      sub\n      dup2\n      0x00\n      dup8\n      gas\n      call\n      iszero\n      dup1\n      iszero\n      tag_198\n      jumpi\n      returndatacopy(0x00, 0x00, returndatasize)\n      revert(0x00, returndatasize)\n    tag_198:\n      pop\n      pop\n      pop\n      pop\n      mload(0x40)\n      returndatasize\n      not(0x1f)\n      0x1f\n      dup3\n      add\n      and\n      dup3\n      add\n      dup1\n      0x40\n      mstore\n      pop\n      dup2\n      add\n      swap1\n      tag_199\n      swap2\n      swap1\n      tag_194\n      jump\t// in\n    tag_199:\n      pop\n        /* \"contracts/test2/DividendDistributor.sol\":16182:16283  if (totalRoman > 0) {... */\n    tag_195:\n        /* \"contracts/test2/DividendDistributor.sol\":16297:16309  totalBnb > 0 */\n      dup3\n      iszero\n        /* \"contracts/test2/DividendDistributor.sol\":16293:16370  if (totalBnb > 0) {... */\n      tag_200\n      jumpi\n        /* \"contracts/test2/DividendDistributor.sol\":16326:16358  payable(user).transfer(totalBnb) */\n      mload(0x40)\n      sub(shl(0xa0, 0x01), 0x01)\n        /* \"contracts/test2/DividendDistributor.sol\":16326:16348  payable(user).transfer */\n      dup10\n      and\n      swap1\n        /* \"contracts/test2/DividendDistributor.sol\":16326:16358  payable(user).transfer(totalBnb) */\n      dup5\n      iszero\n      0x08fc\n      mul\n      swap1\n        /* \"contracts/test2/DividendDistributor.sol\":16349:16357  totalBnb */\n      dup6\n      swap1\n        /* \"contracts/test2/DividendDistributor.sol\":16326:16358  payable(user).transfer(totalBnb) */\n      0x00\n      dup2\n      dup2\n      dup2\n        /* \"contracts/test2/DividendDistributor.sol\":16349:16357  totalBnb */\n      dup6\n        /* \"contracts/test2/DividendDistributor.sol\":16326:16348  payable(user).transfer */\n      dup9\n        /* \"contracts/test2/DividendDistributor.sol\":16326:16358  payable(user).transfer(totalBnb) */\n      dup9\n      call\n      swap4\n      pop\n      pop\n      pop\n      pop\n      iszero\n      dup1\n      iszero\n      tag_202\n      jumpi\n      returndatacopy(0x00, 0x00, returndatasize)\n      revert(0x00, returndatasize)\n    tag_202:\n      pop\n        /* \"contracts/test2/DividendDistributor.sol\":16293:16370  if (totalBnb > 0) {... */\n    tag_200:\n        /* \"contracts/test2/DividendDistributor.sol\":16457:16466  totalUsdt */\n      dup5\n        /* \"contracts/test2/DividendDistributor.sol\":16442:16453  feeUsdtPool */\n      0x05\n      0x00\n        /* \"contracts/test2/DividendDistributor.sol\":16442:16466  feeUsdtPool -= totalUsdt */\n      dup3\n      dup3\n      sload\n      tag_203\n      swap2\n      swap1\n      tag_204\n      jump\t// in\n    tag_203:\n      swap1\n      swap2\n      sstore\n      pop\n      pop\n        /* \"contracts/test2/DividendDistributor.sol\":16497:16498  0 */\n      0x00\n        /* \"contracts/test2/DividendDistributor.sol\":16477:16494  antiDumpRomanPool */\n      0x07\n        /* \"contracts/test2/DividendDistributor.sol\":16477:16498  antiDumpRomanPool = 0 */\n      dup2\n      swap1\n      sstore\n        /* \"contracts/test2/DividendDistributor.sol\":16509:16526  hashGameRomanPool */\n      0x08\n        /* \"contracts/test2/DividendDistributor.sol\":16509:16530  hashGameRomanPool = 0 */\n      dup2\n      swap1\n      sstore\n        /* \"contracts/test2/DividendDistributor.sol\":16541:16554  investBnbPool */\n      0x06\n        /* \"contracts/test2/DividendDistributor.sol\":16541:16566  investBnbPool -= totalBnb */\n      dup1\n      sload\n        /* \"contracts/test2/DividendDistributor.sol\":16558:16566  totalBnb */\n      dup6\n      swap3\n        /* \"contracts/test2/DividendDistributor.sol\":16497:16498  0 */\n      swap1\n        /* \"contracts/test2/DividendDistributor.sol\":16541:16566  investBnbPool -= totalBnb */\n      tag_205\n      swap1\n        /* \"contracts/test2/DividendDistributor.sol\":16558:16566  totalBnb */\n      dup5\n      swap1\n        /* \"contracts/test2/DividendDistributor.sol\":16541:16566  investBnbPool -= totalBnb */\n      tag_204\n      jump\t// in\n    tag_205:\n      swap1\n      swap2\n      sstore\n      pop\n      pop\n        /* \"contracts/test2/DividendDistributor.sol\":16584:16630  Claimed(user, totalUsdt, totalRoman, totalBnb) */\n      0x40\n      dup1\n      mload\n        /* \"#utility.yul\":6147:6172   */\n      dup7\n      dup2\n      mstore\n        /* \"#utility.yul\":6203:6205   */\n      0x20\n        /* \"#utility.yul\":6188:6206   */\n      dup2\n      add\n        /* \"#utility.yul\":6181:6215   */\n      dup7\n      swap1\n      mstore\n        /* \"#utility.yul\":6231:6249   */\n      swap1\n      dup2\n      add\n        /* \"#utility.yul\":6224:6258   */\n      dup5\n      swap1\n      mstore\n      sub(shl(0xa0, 0x01), 0x01)\n        /* \"contracts/test2/DividendDistributor.sol\":16584:16630  Claimed(user, totalUsdt, totalRoman, totalBnb) */\n      dup10\n      and\n      swap1\n      0x9cdcf2f7714cca3508c7f0110b04a90a80a3a8dd0e35de99689db74d28c5383e\n      swap1\n        /* \"#utility.yul\":6135:6137   */\n      0x60\n        /* \"#utility.yul\":6120:6138   */\n      add\n        /* \"contracts/test2/DividendDistributor.sol\":16584:16630  Claimed(user, totalUsdt, totalRoman, totalBnb) */\n      mload(0x40)\n      dup1\n      swap2\n      sub\n      swap1\n      log2\n        /* \"contracts/test2/DividendDistributor.sol\":14316:16638  {... */\n      pop\n      pop\n      pop\n      pop\n      pop\n      pop\n      pop\n      pop\n        /* \"contracts/test2/DividendDistributor.sol\":14290:16638  function claim() external {... */\n      jump\t// out\n        /* \"contracts/test2/DividendDistributor.sol\":12549:12660  function setWhitelist(address user, bool status) external onlyOwner {... */\n    tag_65:\n        /* \"@openzeppelin/contracts/access/Ownable.sol\":1531:1544  _checkOwner() */\n      tag_209\n        /* \"@openzeppelin/contracts/access/Ownable.sol\":1531:1542  _checkOwner */\n      tag_210\n        /* \"@openzeppelin/contracts/access/Ownable.sol\":1531:1544  _checkOwner() */\n      jump\t// in\n    tag_209:\n      sub(shl(0xa0, 0x01), 0x01)\n        /* \"contracts/test2/DividendDistributor.sol\":12628:12643  whitelist[user] */\n      swap2\n      swap1\n      swap2\n      and\n      0x00\n      swap1\n      dup2\n      mstore\n        /* \"contracts/test2/DividendDistributor.sol\":12628:12637  whitelist */\n      0x0b\n        /* \"contracts/test2/DividendDistributor.sol\":12628:12643  whitelist[user] */\n      0x20\n      mstore\n      0x40\n      swap1\n      keccak256\n        /* \"contracts/test2/DividendDistributor.sol\":12628:12652  whitelist[user] = status */\n      dup1\n      sload\n      not(0xff)\n      and\n      swap2\n      iszero\n      iszero\n      swap2\n      swap1\n      swap2\n      or\n      swap1\n      sstore\n        /* \"contracts/test2/DividendDistributor.sol\":12549:12660  function setWhitelist(address user, bool status) external onlyOwner {... */\n      jump\t// out\n        /* \"contracts/test2/DividendDistributor.sol\":11958:12541  function receiveRoman(uint256 amount, string memory rewardType) external {... */\n    tag_74:\n        /* \"contracts/test2/DividendDistributor.sol\":12072:12082  romanToken */\n      and(sub(shl(0xa0, 0x01), 0x01), sload(0x01))\n        /* \"contracts/test2/DividendDistributor.sol\":12050:12060  msg.sender */\n      caller\n        /* \"contracts/test2/DividendDistributor.sol\":12050:12083  msg.sender == address(romanToken) */\n      eq\n      dup1\n        /* \"contracts/test2/DividendDistributor.sol\":12050:12108  msg.sender == address(romanToken) || msg.sender == owner() */\n      tag_213\n      jumpi\n      pop\n        /* \"@openzeppelin/contracts/access/Ownable.sol\":1684:1691  address */\n      0x00\n        /* \"@openzeppelin/contracts/access/Ownable.sol\":1710:1716  _owner */\n      sload\n      sub(shl(0xa0, 0x01), 0x01)\n      and\n        /* \"contracts/test2/DividendDistributor.sol\":12087:12097  msg.sender */\n      caller\n        /* \"contracts/test2/DividendDistributor.sol\":12087:12108  msg.sender == owner() */\n      eq\n        /* \"contracts/test2/DividendDistributor.sol\":12050:12108  msg.sender == address(romanToken) || msg.sender == owner() */\n    tag_213:\n        /* \"contracts/test2/DividendDistributor.sol\":12042:12137  require(msg.sender == address(romanToken) || msg.sender == owner(), \"Only ROMANToken or owner\") */\n      tag_215\n      jumpi\n      mload(0x40)\n      shl(0xe5, 0x461bcd)\n      dup2\n      mstore\n        /* \"#utility.yul\":6471:6473   */\n      0x20\n        /* \"contracts/test2/DividendDistributor.sol\":12042:12137  require(msg.sender == address(romanToken) || msg.sender == owner(), \"Only ROMANToken or owner\") */\n      0x04\n      dup3\n      add\n        /* \"#utility.yul\":6453:6474   */\n      mstore\n        /* \"#utility.yul\":6510:6512   */\n      0x18\n        /* \"#utility.yul\":6490:6508   */\n      0x24\n      dup3\n      add\n        /* \"#utility.yul\":6483:6513   */\n      mstore\n      shl(0x41, 0x27b7363c902927a6a0a72a37b5b2b71037b91037bbb732b9)\n        /* \"#utility.yul\":6529:6547   */\n      0x44\n      dup3\n      add\n        /* \"#utility.yul\":6522:6576   */\n      mstore\n        /* \"#utility.yul\":6593:6611   */\n      0x64\n      add\n        /* \"contracts/test2/DividendDistributor.sol\":12042:12137  require(msg.sender == address(romanToken) || msg.sender == owner(), \"Only ROMANToken or owner\") */\n      tag_136\n        /* \"#utility.yul\":6269:6617   */\n      jump\n        /* \"contracts/test2/DividendDistributor.sol\":12042:12137  require(msg.sender == address(romanToken) || msg.sender == owner(), \"Only ROMANToken or owner\") */\n    tag_215:\n        /* \"contracts/test2/DividendDistributor.sol\":12163:12173  romanToken */\n      sload(0x01)\n        /* \"contracts/test2/DividendDistributor.sol\":12148:12223  IERC20(address(romanToken)).transferFrom(msg.sender, address(this), amount) */\n      mload(0x40)\n      shl(0xe0, 0x23b872dd)\n      dup2\n      mstore\n        /* \"contracts/test2/DividendDistributor.sol\":12189:12199  msg.sender */\n      caller\n        /* \"contracts/test2/DividendDistributor.sol\":12148:12223  IERC20(address(romanToken)).transferFrom(msg.sender, address(this), amount) */\n      0x04\n      dup3\n      add\n        /* \"#utility.yul\":6824:6875   */\n      mstore\n        /* \"contracts/test2/DividendDistributor.sol\":12209:12213  this */\n      address\n        /* \"#utility.yul\":6891:6909   */\n      0x24\n      dup3\n      add\n        /* \"#utility.yul\":6884:6944   */\n      mstore\n        /* \"#utility.yul\":6960:6978   */\n      0x44\n      dup2\n      add\n        /* \"#utility.yul\":6953:6987   */\n      dup5\n      swap1\n      mstore\n      sub(shl(0xa0, 0x01), 0x01)\n        /* \"contracts/test2/DividendDistributor.sol\":12163:12173  romanToken */\n      swap1\n      swap2\n      and\n      swap1\n        /* \"contracts/test2/DividendDistributor.sol\":12148:12188  IERC20(address(romanToken)).transferFrom */\n      0x23b872dd\n      swap1\n        /* \"#utility.yul\":6797:6815   */\n      0x64\n      add\n        /* \"contracts/test2/DividendDistributor.sol\":12148:12223  IERC20(address(romanToken)).transferFrom(msg.sender, address(this), amount) */\n      0x20\n      mload(0x40)\n      dup1\n      dup4\n      sub\n      dup2\n      0x00\n      dup8\n      gas\n      call\n      iszero\n      dup1\n      iszero\n      tag_221\n      jumpi\n      returndatacopy(0x00, 0x00, returndatasize)\n      revert(0x00, returndatasize)\n    tag_221:\n      pop\n      pop\n      pop\n      pop\n      mload(0x40)\n      returndatasize\n      not(0x1f)\n      0x1f\n      dup3\n      add\n      and\n      dup3\n      add\n      dup1\n      0x40\n      mstore\n      pop\n      dup2\n      add\n      swap1\n      tag_222\n      swap2\n      swap1\n      tag_194\n      jump\t// in\n    tag_222:\n      pop\n        /* \"contracts/test2/DividendDistributor.sol\":12282:12300  bytes(\"anti_dump\") */\n      0x40\n      dup1\n      mload\n      dup1\n      dup3\n      add\n      swap1\n      swap2\n      mstore\n      0x09\n      dup2\n      mstore\n      shl(0xbc, 0x0616e74695f64756d7)\n      0x20\n      swap2\n      dup3\n      add\n      mstore\n        /* \"contracts/test2/DividendDistributor.sol\":12240:12268  keccak256(bytes(rewardType)) */\n      dup2\n      mload\n      swap1\n      dup3\n      add\n      keccak256\n        /* \"contracts/test2/DividendDistributor.sol\":12240:12301  keccak256(bytes(rewardType)) == keccak256(bytes(\"anti_dump\")) */\n      0xa3f057a9a7d57709b5114f83b343454e80cc0f1a75bf54e2a6643d70b90e72d2\n      add\n        /* \"contracts/test2/DividendDistributor.sol\":12236:12484  if (keccak256(bytes(rewardType)) == keccak256(bytes(\"anti_dump\"))) {... */\n      tag_223\n      jumpi\n        /* \"contracts/test2/DividendDistributor.sol\":12339:12345  amount */\n      dup2\n        /* \"contracts/test2/DividendDistributor.sol\":12318:12335  antiDumpRomanPool */\n      0x07\n      0x00\n        /* \"contracts/test2/DividendDistributor.sol\":12318:12345  antiDumpRomanPool += amount */\n      dup3\n      dup3\n      sload\n      tag_224\n      swap2\n      swap1\n      tag_31\n      jump\t// in\n    tag_224:\n      swap1\n      swap2\n      sstore\n      pop\n        /* \"contracts/test2/DividendDistributor.sol\":12236:12484  if (keccak256(bytes(rewardType)) == keccak256(bytes(\"anti_dump\"))) {... */\n      tag_226\n      swap1\n      pop\n      jump\n    tag_223:\n        /* \"contracts/test2/DividendDistributor.sol\":12409:12427  bytes(\"hash_game\") */\n      0x40\n      dup1\n      mload\n      dup1\n      dup3\n      add\n      swap1\n      swap2\n      mstore\n      0x09\n      dup2\n      mstore\n      shl(0xb8, 0x686173685f67616d65)\n      0x20\n      swap2\n      dup3\n      add\n      mstore\n        /* \"contracts/test2/DividendDistributor.sol\":12367:12395  keccak256(bytes(rewardType)) */\n      dup2\n      mload\n      swap1\n      dup3\n      add\n      keccak256\n        /* \"contracts/test2/DividendDistributor.sol\":12367:12428  keccak256(bytes(rewardType)) == keccak256(bytes(\"hash_game\")) */\n      0xd1f02842571171eeaede1665bd9f96206160ba4123ea0c0035d2e3b1c40beafd\n      add\n        /* \"contracts/test2/DividendDistributor.sol\":12363:12484  if (keccak256(bytes(rewardType)) == keccak256(bytes(\"hash_game\"))) {... */\n      tag_226\n      jumpi\n        /* \"contracts/test2/DividendDistributor.sol\":12466:12472  amount */\n      dup2\n        /* \"contracts/test2/DividendDistributor.sol\":12445:12462  hashGameRomanPool */\n      0x08\n      0x00\n        /* \"contracts/test2/DividendDistributor.sol\":12445:12472  hashGameRomanPool += amount */\n      dup3\n      dup3\n      sload\n      tag_227\n      swap2\n      swap1\n      tag_31\n      jump\t// in\n    tag_227:\n      swap1\n      swap2\n      sstore\n      pop\n      pop\n        /* \"contracts/test2/DividendDistributor.sol\":12363:12484  if (keccak256(bytes(rewardType)) == keccak256(bytes(\"hash_game\"))) {... */\n    tag_226:\n        /* \"contracts/test2/DividendDistributor.sol\":12499:12533  RewardReceived(rewardType, amount) */\n      0x82d98a00c349d609e6ab098b00d153a6f84a70abfd6074c0dcc81c83e5e22ca8\n        /* \"contracts/test2/DividendDistributor.sol\":12514:12524  rewardType */\n      dup2\n        /* \"contracts/test2/DividendDistributor.sol\":12526:12532  amount */\n      dup4\n        /* \"contracts/test2/DividendDistributor.sol\":12499:12533  RewardReceived(rewardType, amount) */\n      mload(0x40)\n      tag_228\n      swap3\n      swap2\n      swap1\n      tag_229\n      jump\t// in\n    tag_228:\n      mload(0x40)\n      dup1\n      swap2\n      sub\n      swap1\n      log1\n        /* \"contracts/test2/DividendDistributor.sol\":11958:12541  function receiveRoman(uint256 amount, string memory rewardType) external {... */\n      pop\n      pop\n      jump\t// out\n        /* \"@openzeppelin/contracts/access/Ownable.sol\":2293:2394  function renounceOwnership() public virtual onlyOwner {... */\n    tag_77:\n        /* \"@openzeppelin/contracts/access/Ownable.sol\":1531:1544  _checkOwner() */\n      tag_231\n        /* \"@openzeppelin/contracts/access/Ownable.sol\":1531:1542  _checkOwner */\n      tag_210\n        /* \"@openzeppelin/contracts/access/Ownable.sol\":1531:1544  _checkOwner() */\n      jump\t// in\n    tag_231:\n        /* \"@openzeppelin/contracts/access/Ownable.sol\":2357:2387  _transferOwnership(address(0)) */\n      tag_233\n        /* \"@openzeppelin/contracts/access/Ownable.sol\":2384:2385  0 */\n      0x00\n        /* \"@openzeppelin/contracts/access/Ownable.sol\":2357:2375  _transferOwnership */\n      tag_234\n        /* \"@openzeppelin/contracts/access/Ownable.sol\":2357:2387  _transferOwnership(address(0)) */\n      jump\t// in\n    tag_233:\n        /* \"@openzeppelin/contracts/access/Ownable.sol\":2293:2394  function renounceOwnership() public virtual onlyOwner {... */\n      jump\t// out\n        /* \"contracts/test2/DividendDistributor.sol\":11569:11882  function receiveUsdt(uint256 amount) external {... */\n    tag_82:\n        /* \"contracts/test2/DividendDistributor.sol\":11656:11666  romanToken */\n      and(sub(shl(0xa0, 0x01), 0x01), sload(0x01))\n        /* \"contracts/test2/DividendDistributor.sol\":11634:11644  msg.sender */\n      caller\n        /* \"contracts/test2/DividendDistributor.sol\":11634:11667  msg.sender == address(romanToken) */\n      eq\n      dup1\n        /* \"contracts/test2/DividendDistributor.sol\":11634:11692  msg.sender == address(romanToken) || msg.sender == owner() */\n      tag_236\n      jumpi\n      pop\n        /* \"@openzeppelin/contracts/access/Ownable.sol\":1684:1691  address */\n      0x00\n        /* \"@openzeppelin/contracts/access/Ownable.sol\":1710:1716  _owner */\n      sload\n      sub(shl(0xa0, 0x01), 0x01)\n      and\n        /* \"contracts/test2/DividendDistributor.sol\":11671:11681  msg.sender */\n      caller\n        /* \"contracts/test2/DividendDistributor.sol\":11671:11692  msg.sender == owner() */\n      eq\n        /* \"contracts/test2/DividendDistributor.sol\":11634:11692  msg.sender == address(romanToken) || msg.sender == owner() */\n    tag_236:\n        /* \"contracts/test2/DividendDistributor.sol\":11626:11721  require(msg.sender == address(romanToken) || msg.sender == owner(), \"Only ROMANToken or owner\") */\n      tag_238\n      jumpi\n      mload(0x40)\n      shl(0xe5, 0x461bcd)\n      dup2\n      mstore\n        /* \"#utility.yul\":6471:6473   */\n      0x20\n        /* \"contracts/test2/DividendDistributor.sol\":11626:11721  require(msg.sender == address(romanToken) || msg.sender == owner(), \"Only ROMANToken or owner\") */\n      0x04\n      dup3\n      add\n        /* \"#utility.yul\":6453:6474   */\n      mstore\n        /* \"#utility.yul\":6510:6512   */\n      0x18\n        /* \"#utility.yul\":6490:6508   */\n      0x24\n      dup3\n      add\n        /* \"#utility.yul\":6483:6513   */\n      mstore\n      shl(0x41, 0x27b7363c902927a6a0a72a37b5b2b71037b91037bbb732b9)\n        /* \"#utility.yul\":6529:6547   */\n      0x44\n      dup3\n      add\n        /* \"#utility.yul\":6522:6576   */\n      mstore\n        /* \"#utility.yul\":6593:6611   */\n      0x64\n      add\n        /* \"contracts/test2/DividendDistributor.sol\":11626:11721  require(msg.sender == address(romanToken) || msg.sender == owner(), \"Only ROMANToken or owner\") */\n      tag_136\n        /* \"#utility.yul\":6269:6617   */\n      jump\n        /* \"contracts/test2/DividendDistributor.sol\":11626:11721  require(msg.sender == address(romanToken) || msg.sender == owner(), \"Only ROMANToken or owner\") */\n    tag_238:\n        /* \"contracts/test2/DividendDistributor.sol\":11739:11743  usdt */\n      0x04\n      dup1\n      sload\n        /* \"contracts/test2/DividendDistributor.sol\":11732:11792  IERC20(usdt).transferFrom(msg.sender, address(this), amount) */\n      mload(0x40)\n      shl(0xe0, 0x23b872dd)\n      dup2\n      mstore\n        /* \"contracts/test2/DividendDistributor.sol\":11758:11768  msg.sender */\n      caller\n        /* \"contracts/test2/DividendDistributor.sol\":11732:11792  IERC20(usdt).transferFrom(msg.sender, address(this), amount) */\n      swap3\n      dup2\n      add\n        /* \"#utility.yul\":6824:6875   */\n      swap3\n      swap1\n      swap3\n      mstore\n        /* \"contracts/test2/DividendDistributor.sol\":11778:11782  this */\n      address\n        /* \"#utility.yul\":6891:6909   */\n      0x24\n      dup4\n      add\n        /* \"#utility.yul\":6884:6944   */\n      mstore\n        /* \"#utility.yul\":6960:6978   */\n      0x44\n      dup3\n      add\n        /* \"#utility.yul\":6953:6987   */\n      dup4\n      swap1\n      mstore\n      sub(shl(0xa0, 0x01), 0x01)\n        /* \"contracts/test2/DividendDistributor.sol\":11739:11743  usdt */\n      and\n      swap1\n        /* \"contracts/test2/DividendDistributor.sol\":11732:11757  IERC20(usdt).transferFrom */\n      0x23b872dd\n      swap1\n        /* \"#utility.yul\":6797:6815   */\n      0x64\n      add\n        /* \"contracts/test2/DividendDistributor.sol\":11732:11792  IERC20(usdt).transferFrom(msg.sender, address(this), amount) */\n      0x20\n      mload(0x40)\n      dup1\n      dup4\n      sub\n      dup2\n      0x00\n      dup8\n      gas\n      call\n      iszero\n      dup1\n      iszero\n      tag_242\n      jumpi\n      returndatacopy(0x00, 0x00, returndatasize)\n      revert(0x00, returndatasize)\n    tag_242:\n      pop\n      pop\n      pop\n      pop\n      mload(0x40)\n      returndatasize\n      not(0x1f)\n      0x1f\n      dup3\n      add\n      and\n      dup3\n      add\n      dup1\n      0x40\n      mstore\n      pop\n      dup2\n      add\n      swap1\n      tag_243\n      swap2\n      swap1\n      tag_194\n      jump\t// in\n    tag_243:\n      pop\n        /* \"contracts/test2/DividendDistributor.sol\":11818:11824  amount */\n      dup1\n        /* \"contracts/test2/DividendDistributor.sol\":11803:11814  feeUsdtPool */\n      0x05\n      0x00\n        /* \"contracts/test2/DividendDistributor.sol\":11803:11824  feeUsdtPool += amount */\n      dup3\n      dup3\n      sload\n      tag_244\n      swap2\n      swap1\n      tag_31\n      jump\t// in\n    tag_244:\n      swap1\n      swap2\n      sstore\n      pop\n      pop\n        /* \"contracts/test2/DividendDistributor.sol\":11840:11874  RewardReceived(\"fee_usdt\", amount) */\n      0x40\n      dup1\n      mload\n        /* \"#utility.yul\":7708:7729   */\n      dup2\n      dup2\n      mstore\n        /* \"#utility.yul\":7765:7766   */\n      0x08\n        /* \"#utility.yul\":7745:7763   */\n      dup2\n      dup4\n      add\n        /* \"#utility.yul\":7738:7767   */\n      mstore\n      shl(0xc2, 0x19995957dd5cd91d)\n        /* \"#utility.yul\":7798:7800   */\n      0x60\n        /* \"#utility.yul\":7783:7801   */\n      dup3\n      add\n        /* \"#utility.yul\":7776:7814   */\n      mstore\n        /* \"#utility.yul\":7881:7885   */\n      0x20\n        /* \"#utility.yul\":7866:7886   */\n      dup2\n      add\n        /* \"#utility.yul\":7859:7895   */\n      dup4\n      swap1\n      mstore\n        /* \"contracts/test2/DividendDistributor.sol\":11840:11874  RewardReceived(\"fee_usdt\", amount) */\n      swap1\n      mload\n      0x82d98a00c349d609e6ab098b00d153a6f84a70abfd6074c0dcc81c83e5e22ca8\n      swap2\n      dup2\n      swap1\n      sub\n        /* \"#utility.yul\":7846:7849   */\n      0x80\n        /* \"contracts/test2/DividendDistributor.sol\":11840:11874  RewardReceived(\"fee_usdt\", amount) */\n      add\n      swap1\n      log1\n        /* \"contracts/test2/DividendDistributor.sol\":11569:11882  function receiveUsdt(uint256 amount) external {... */\n      pop\n      jump\t// out\n        /* \"contracts/test2/DividendDistributor.sol\":12668:14282  function activate(uint256 mainTokenId, uint256 subTokenId) external {... */\n    tag_95:\n        /* \"contracts/test2/DividendDistributor.sol\":12762:12772  msg.sender */\n      caller\n        /* \"contracts/test2/DividendDistributor.sol\":12825:12841  mainTokenId != 0 */\n      dup3\n      iszero\n        /* \"contracts/test2/DividendDistributor.sol\":12821:12949  if (mainTokenId != 0) {... */\n      tag_255\n      jumpi\n        /* \"contracts/test2/DividendDistributor.sol\":12874:12881  mainNFT */\n      sload(0x02)\n        /* \"contracts/test2/DividendDistributor.sol\":12866:12903  IERC721(mainNFT).ownerOf(mainTokenId) */\n      mload(0x40)\n      shl(0xe1, 0x31a9108f)\n      dup2\n      mstore\n      0x04\n      dup2\n      add\n        /* \"#utility.yul\":1223:1248   */\n      dup6\n      swap1\n      mstore\n      sub(shl(0xa0, 0x01), 0x01)\n        /* \"contracts/test2/DividendDistributor.sol\":12866:12911  IERC721(mainNFT).ownerOf(mainTokenId) == user */\n      dup4\n      dup2\n      and\n      swap3\n        /* \"contracts/test2/DividendDistributor.sol\":12874:12881  mainNFT */\n      and\n      swap1\n        /* \"contracts/test2/DividendDistributor.sol\":12866:12890  IERC721(mainNFT).ownerOf */\n      0x6352211e\n      swap1\n        /* \"#utility.yul\":1196:1214   */\n      0x24\n      add\n        /* \"contracts/test2/DividendDistributor.sol\":12866:12903  IERC721(mainNFT).ownerOf(mainTokenId) */\n      0x20\n      mload(0x40)\n      dup1\n      dup4\n      sub\n      dup2\n      dup7\n      gas\n      staticcall\n      iszero\n      dup1\n      iszero\n      tag_252\n      jumpi\n      returndatacopy(0x00, 0x00, returndatasize)\n      revert(0x00, returndatasize)\n    tag_252:\n      pop\n      pop\n      pop\n      pop\n      mload(0x40)\n      returndatasize\n      not(0x1f)\n      0x1f\n      dup3\n      add\n      and\n      dup3\n      add\n      dup1\n      0x40\n      mstore\n      pop\n      dup2\n      add\n      swap1\n      tag_253\n      swap2\n      swap1\n      tag_254\n      jump\t// in\n    tag_253:\n      sub(shl(0xa0, 0x01), 0x01)\n        /* \"contracts/test2/DividendDistributor.sol\":12866:12911  IERC721(mainNFT).ownerOf(mainTokenId) == user */\n      and\n      eq\n        /* \"contracts/test2/DividendDistributor.sol\":12858:12937  require(IERC721(mainNFT).ownerOf(mainTokenId) == user, \"Not owner of main NFT\") */\n      tag_255\n      jumpi\n      mload(0x40)\n      shl(0xe5, 0x461bcd)\n      dup2\n      mstore\n        /* \"#utility.yul\":8364:8366   */\n      0x20\n        /* \"contracts/test2/DividendDistributor.sol\":12858:12937  require(IERC721(mainNFT).ownerOf(mainTokenId) == user, \"Not owner of main NFT\") */\n      0x04\n      dup3\n      add\n        /* \"#utility.yul\":8346:8367   */\n      mstore\n        /* \"#utility.yul\":8403:8405   */\n      0x15\n        /* \"#utility.yul\":8383:8401   */\n      0x24\n      dup3\n      add\n        /* \"#utility.yul\":8376:8406   */\n      mstore\n      shl(0x5a, 0x139bdd081bdddb995c881bd9881b585a5b88139195)\n        /* \"#utility.yul\":8422:8440   */\n      0x44\n      dup3\n      add\n        /* \"#utility.yul\":8415:8466   */\n      mstore\n        /* \"#utility.yul\":8483:8501   */\n      0x64\n      add\n        /* \"contracts/test2/DividendDistributor.sol\":12858:12937  require(IERC721(mainNFT).ownerOf(mainTokenId) == user, \"Not owner of main NFT\") */\n      tag_136\n        /* \"#utility.yul\":8162:8507   */\n      jump\n        /* \"contracts/test2/DividendDistributor.sol\":12858:12937  require(IERC721(mainNFT).ownerOf(mainTokenId) == user, \"Not owner of main NFT\") */\n    tag_255:\n        /* \"contracts/test2/DividendDistributor.sol\":12963:12978  subTokenId != 0 */\n      dup2\n      iszero\n        /* \"contracts/test2/DividendDistributor.sol\":12959:13083  if (subTokenId != 0) {... */\n      tag_263\n      jumpi\n        /* \"contracts/test2/DividendDistributor.sol\":13011:13017  subNFT */\n      sload(0x03)\n        /* \"contracts/test2/DividendDistributor.sol\":13003:13038  IERC721(subNFT).ownerOf(subTokenId) */\n      mload(0x40)\n      shl(0xe1, 0x31a9108f)\n      dup2\n      mstore\n      0x04\n      dup2\n      add\n        /* \"#utility.yul\":1223:1248   */\n      dup5\n      swap1\n      mstore\n      sub(shl(0xa0, 0x01), 0x01)\n        /* \"contracts/test2/DividendDistributor.sol\":13003:13046  IERC721(subNFT).ownerOf(subTokenId) == user */\n      dup4\n      dup2\n      and\n      swap3\n        /* \"contracts/test2/DividendDistributor.sol\":13011:13017  subNFT */\n      and\n      swap1\n        /* \"contracts/test2/DividendDistributor.sol\":13003:13026  IERC721(subNFT).ownerOf */\n      0x6352211e\n      swap1\n        /* \"#utility.yul\":1196:1214   */\n      0x24\n      add\n        /* \"contracts/test2/DividendDistributor.sol\":13003:13038  IERC721(subNFT).ownerOf(subTokenId) */\n      0x20\n      mload(0x40)\n      dup1\n      dup4\n      sub\n      dup2\n      dup7\n      gas\n      staticcall\n      iszero\n      dup1\n      iszero\n      tag_261\n      jumpi\n      returndatacopy(0x00, 0x00, returndatasize)\n      revert(0x00, returndatasize)\n    tag_261:\n      pop\n      pop\n      pop\n      pop\n      mload(0x40)\n      returndatasize\n      not(0x1f)\n      0x1f\n      dup3\n      add\n      and\n      dup3\n      add\n      dup1\n      0x40\n      mstore\n      pop\n      dup2\n      add\n      swap1\n      tag_262\n      swap2\n      swap1\n      tag_254\n      jump\t// in\n    tag_262:\n      sub(shl(0xa0, 0x01), 0x01)\n        /* \"contracts/test2/DividendDistributor.sol\":13003:13046  IERC721(subNFT).ownerOf(subTokenId) == user */\n      and\n      eq\n        /* \"contracts/test2/DividendDistributor.sol\":12995:13071  require(IERC721(subNFT).ownerOf(subTokenId) == user, \"Not owner of sub NFT\") */\n      tag_263\n      jumpi\n      mload(0x40)\n      shl(0xe5, 0x461bcd)\n      dup2\n      mstore\n        /* \"#utility.yul\":8714:8716   */\n      0x20\n        /* \"contracts/test2/DividendDistributor.sol\":12995:13071  require(IERC721(subNFT).ownerOf(subTokenId) == user, \"Not owner of sub NFT\") */\n      0x04\n      dup3\n      add\n        /* \"#utility.yul\":8696:8717   */\n      mstore\n        /* \"#utility.yul\":8753:8755   */\n      0x14\n        /* \"#utility.yul\":8733:8751   */\n      0x24\n      dup3\n      add\n        /* \"#utility.yul\":8726:8756   */\n      mstore\n      shl(0x62, 0x139bdd081bdddb995c881bd9881cdd5888139195)\n        /* \"#utility.yul\":8772:8790   */\n      0x44\n      dup3\n      add\n        /* \"#utility.yul\":8765:8815   */\n      mstore\n        /* \"#utility.yul\":8832:8850   */\n      0x64\n      add\n        /* \"contracts/test2/DividendDistributor.sol\":12995:13071  require(IERC721(subNFT).ownerOf(subTokenId) == user, \"Not owner of sub NFT\") */\n      tag_136\n        /* \"#utility.yul\":8512:8856   */\n      jump\n        /* \"contracts/test2/DividendDistributor.sol\":12995:13071  require(IERC721(subNFT).ownerOf(subTokenId) == user, \"Not owner of sub NFT\") */\n    tag_263:\n        /* \"contracts/test2/DividendDistributor.sol\":13171:13181  romanToken */\n      sload(0x01)\n        /* \"contracts/test2/DividendDistributor.sol\":13171:13201  romanToken.getUserStatus(user) */\n      mload(0x40)\n      shl(0xe0, 0xea0d5dcd)\n      dup2\n      mstore\n      sub(shl(0xa0, 0x01), 0x01)\n        /* \"#utility.yul\":1423:1455   */\n      dup4\n      dup2\n      and\n        /* \"contracts/test2/DividendDistributor.sol\":13171:13201  romanToken.getUserStatus(user) */\n      0x04\n      dup4\n      add\n        /* \"#utility.yul\":1405:1456   */\n      mstore\n        /* \"contracts/test2/DividendDistributor.sol\":13137:13153  uint256 bnbTotal */\n      0x00\n      swap3\n      dup4\n      swap3\n        /* \"contracts/test2/DividendDistributor.sol\":13171:13181  romanToken */\n      swap2\n      and\n      swap1\n        /* \"contracts/test2/DividendDistributor.sol\":13171:13195  romanToken.getUserStatus */\n      0xea0d5dcd\n      swap1\n        /* \"#utility.yul\":1378:1396   */\n      0x24\n      add\n        /* \"contracts/test2/DividendDistributor.sol\":13171:13201  romanToken.getUserStatus(user) */\n      0x60\n      mload(0x40)\n      dup1\n      dup4\n      sub\n      dup2\n      dup7\n      gas\n      staticcall\n      iszero\n      dup1\n      iszero\n      tag_268\n      jumpi\n      returndatacopy(0x00, 0x00, returndatasize)\n      revert(0x00, returndatasize)\n    tag_268:\n      pop\n      pop\n      pop\n      pop\n      mload(0x40)\n      returndatasize\n      not(0x1f)\n      0x1f\n      dup3\n      add\n      and\n      dup3\n      add\n      dup1\n      0x40\n      mstore\n      pop\n      dup2\n      add\n      swap1\n      tag_269\n      swap2\n      swap1\n      tag_270\n      jump\t// in\n    tag_269:\n        /* \"contracts/test2/DividendDistributor.sol\":13136:13201  (uint256 bnbTotal, bool isBuy, ) = romanToken.getUserStatus(user) */\n      pop\n      swap2\n      pop\n      swap2\n      pop\n        /* \"contracts/test2/DividendDistributor.sol\":13232:13243  0.002 ether */\n      0x071afd498d0000\n        /* \"contracts/test2/DividendDistributor.sol\":13220:13228  bnbTotal */\n      dup3\n        /* \"contracts/test2/DividendDistributor.sol\":13220:13243  bnbTotal >= 0.002 ether */\n      lt\n      iszero\n        /* \"contracts/test2/DividendDistributor.sol\":13220:13252  bnbTotal >= 0.002 ether && isBuy */\n      dup1\n      iszero\n      tag_271\n      jumpi\n      pop\n        /* \"contracts/test2/DividendDistributor.sol\":13247:13252  isBuy */\n      dup1\n        /* \"contracts/test2/DividendDistributor.sol\":13220:13252  bnbTotal >= 0.002 ether && isBuy */\n    tag_271:\n        /* \"contracts/test2/DividendDistributor.sol\":13212:13289  require(bnbTotal >= 0.002 ether && isBuy, \"Need at least 0.2 BNB investment\") */\n      tag_272\n      jumpi\n      mload(0x40)\n      shl(0xe5, 0x461bcd)\n      dup2\n      mstore\n        /* \"#utility.yul\":9502:9504   */\n      0x20\n        /* \"contracts/test2/DividendDistributor.sol\":13212:13289  require(bnbTotal >= 0.002 ether && isBuy, \"Need at least 0.2 BNB investment\") */\n      0x04\n      dup3\n      add\n        /* \"#utility.yul\":9484:9505   */\n      dup2\n      swap1\n      mstore\n        /* \"#utility.yul\":9521:9539   */\n      0x24\n      dup3\n      add\n        /* \"#utility.yul\":9514:9544   */\n      mstore\n        /* \"#utility.yul\":9580:9614   */\n      0x4e656564206174206c6561737420302e3220424e4220696e766573746d656e74\n        /* \"#utility.yul\":9560:9578   */\n      0x44\n      dup3\n      add\n        /* \"#utility.yul\":9553:9615   */\n      mstore\n        /* \"#utility.yul\":9632:9650   */\n      0x64\n      add\n        /* \"contracts/test2/DividendDistributor.sol\":13212:13289  require(bnbTotal >= 0.002 ether && isBuy, \"Need at least 0.2 BNB investment\") */\n      tag_136\n        /* \"#utility.yul\":9300:9656   */\n      jump\n        /* \"contracts/test2/DividendDistributor.sol\":13212:13289  require(bnbTotal >= 0.002 ether && isBuy, \"Need at least 0.2 BNB investment\") */\n    tag_272:\n      sub(shl(0xa0, 0x01), 0x01)\n        /* \"contracts/test2/DividendDistributor.sol\":13401:13416  whitelist[user] */\n      dup4\n      and\n      0x00\n      swap1\n      dup2\n      mstore\n        /* \"contracts/test2/DividendDistributor.sol\":13401:13410  whitelist */\n      0x0b\n        /* \"contracts/test2/DividendDistributor.sol\":13401:13416  whitelist[user] */\n      0x20\n      mstore\n      0x40\n      swap1\n      keccak256\n      sload\n      0xff\n      and\n        /* \"contracts/test2/DividendDistributor.sol\":13396:13694  if (!whitelist[user]) {... */\n      tag_281\n      jumpi\n      sub(shl(0xa0, 0x01), 0x01)\n        /* \"contracts/test2/DividendDistributor.sol\":13441:13464  activeMainTokenId[user] */\n      dup4\n      and\n      0x00\n      swap1\n      dup2\n      mstore\n        /* \"contracts/test2/DividendDistributor.sol\":13441:13458  activeMainTokenId */\n      0x09\n        /* \"contracts/test2/DividendDistributor.sol\":13441:13464  activeMainTokenId[user] */\n      0x20\n      mstore\n      0x40\n      swap1\n      keccak256\n      sload\n        /* \"contracts/test2/DividendDistributor.sol\":13441:13469  activeMainTokenId[user] == 0 */\n      iszero\n      dup1\n        /* \"contracts/test2/DividendDistributor.sol\":13441:13511  activeMainTokenId[user] == 0 || activeMainTokenId[user] == mainTokenId */\n      tag_276\n      jumpi\n      pop\n      sub(shl(0xa0, 0x01), 0x01)\n        /* \"contracts/test2/DividendDistributor.sol\":13473:13496  activeMainTokenId[user] */\n      dup4\n      and\n      0x00\n      swap1\n      dup2\n      mstore\n        /* \"contracts/test2/DividendDistributor.sol\":13473:13490  activeMainTokenId */\n      0x09\n        /* \"contracts/test2/DividendDistributor.sol\":13473:13496  activeMainTokenId[user] */\n      0x20\n      mstore\n      0x40\n      swap1\n      keccak256\n      sload\n        /* \"contracts/test2/DividendDistributor.sol\":13473:13511  activeMainTokenId[user] == mainTokenId */\n      dup6\n      eq\n        /* \"contracts/test2/DividendDistributor.sol\":13441:13511  activeMainTokenId[user] == 0 || activeMainTokenId[user] == mainTokenId */\n    tag_276:\n        /* \"contracts/test2/DividendDistributor.sol\":13433:13552  require(activeMainTokenId[user] == 0 || activeMainTokenId[user] == mainTokenId, \"Already activated different main NFT\") */\n      tag_277\n      jumpi\n      mload(0x40)\n      shl(0xe5, 0x461bcd)\n      dup2\n      mstore\n        /* \"#utility.yul\":9863:9865   */\n      0x20\n        /* \"contracts/test2/DividendDistributor.sol\":13433:13552  require(activeMainTokenId[user] == 0 || activeMainTokenId[user] == mainTokenId, \"Already activated different main NFT\") */\n      0x04\n      dup3\n      add\n        /* \"#utility.yul\":9845:9866   */\n      mstore\n        /* \"#utility.yul\":9902:9904   */\n      0x24\n        /* \"#utility.yul\":9882:9900   */\n      dup1\n      dup3\n      add\n        /* \"#utility.yul\":9875:9905   */\n      mstore\n        /* \"#utility.yul\":9941:9975   */\n      0x416c72656164792061637469766174656420646966666572656e74206d61696e\n        /* \"#utility.yul\":9921:9939   */\n      0x44\n      dup3\n      add\n        /* \"#utility.yul\":9914:9976   */\n      mstore\n      shl(0xe2, 0x08139195)\n        /* \"#utility.yul\":9992:10010   */\n      0x64\n      dup3\n      add\n        /* \"#utility.yul\":9985:10019   */\n      mstore\n        /* \"#utility.yul\":10036:10055   */\n      0x84\n      add\n        /* \"contracts/test2/DividendDistributor.sol\":13433:13552  require(activeMainTokenId[user] == 0 || activeMainTokenId[user] == mainTokenId, \"Already activated different main NFT\") */\n      tag_136\n        /* \"#utility.yul\":9661:10061   */\n      jump\n        /* \"contracts/test2/DividendDistributor.sol\":13433:13552  require(activeMainTokenId[user] == 0 || activeMainTokenId[user] == mainTokenId, \"Already activated different main NFT\") */\n    tag_277:\n      sub(shl(0xa0, 0x01), 0x01)\n        /* \"contracts/test2/DividendDistributor.sol\":13575:13597  activeSubTokenId[user] */\n      dup4\n      and\n      0x00\n      swap1\n      dup2\n      mstore\n        /* \"contracts/test2/DividendDistributor.sol\":13575:13591  activeSubTokenId */\n      0x0a\n        /* \"contracts/test2/DividendDistributor.sol\":13575:13597  activeSubTokenId[user] */\n      0x20\n      mstore\n      0x40\n      swap1\n      keccak256\n      sload\n        /* \"contracts/test2/DividendDistributor.sol\":13575:13602  activeSubTokenId[user] == 0 */\n      iszero\n      dup1\n        /* \"contracts/test2/DividendDistributor.sol\":13575:13642  activeSubTokenId[user] == 0 || activeSubTokenId[user] == subTokenId */\n      tag_280\n      jumpi\n      pop\n      sub(shl(0xa0, 0x01), 0x01)\n        /* \"contracts/test2/DividendDistributor.sol\":13606:13628  activeSubTokenId[user] */\n      dup4\n      and\n      0x00\n      swap1\n      dup2\n      mstore\n        /* \"contracts/test2/DividendDistributor.sol\":13606:13622  activeSubTokenId */\n      0x0a\n        /* \"contracts/test2/DividendDistributor.sol\":13606:13628  activeSubTokenId[user] */\n      0x20\n      mstore\n      0x40\n      swap1\n      keccak256\n      sload\n        /* \"contracts/test2/DividendDistributor.sol\":13606:13642  activeSubTokenId[user] == subTokenId */\n      dup5\n      eq\n        /* \"contracts/test2/DividendDistributor.sol\":13575:13642  activeSubTokenId[user] == 0 || activeSubTokenId[user] == subTokenId */\n    tag_280:\n        /* \"contracts/test2/DividendDistributor.sol\":13567:13682  require(activeSubTokenId[user] == 0 || activeSubTokenId[user] == subTokenId, \"Already activated different sub NFT\") */\n      tag_281\n      jumpi\n      mload(0x40)\n      shl(0xe5, 0x461bcd)\n      dup2\n      mstore\n        /* \"#utility.yul\":10268:10270   */\n      0x20\n        /* \"contracts/test2/DividendDistributor.sol\":13567:13682  require(activeSubTokenId[user] == 0 || activeSubTokenId[user] == subTokenId, \"Already activated different sub NFT\") */\n      0x04\n      dup3\n      add\n        /* \"#utility.yul\":10250:10271   */\n      mstore\n        /* \"#utility.yul\":10307:10309   */\n      0x23\n        /* \"#utility.yul\":10287:10305   */\n      0x24\n      dup3\n      add\n        /* \"#utility.yul\":10280:10310   */\n      mstore\n        /* \"#utility.yul\":10346:10380   */\n      0x416c72656164792061637469766174656420646966666572656e742073756220\n        /* \"#utility.yul\":10326:10344   */\n      0x44\n      dup3\n      add\n        /* \"#utility.yul\":10319:10381   */\n      mstore\n      shl(0xea, 0x139195)\n        /* \"#utility.yul\":10397:10415   */\n      0x64\n      dup3\n      add\n        /* \"#utility.yul\":10390:10423   */\n      mstore\n        /* \"#utility.yul\":10440:10459   */\n      0x84\n      add\n        /* \"contracts/test2/DividendDistributor.sol\":13567:13682  require(activeSubTokenId[user] == 0 || activeSubTokenId[user] == subTokenId, \"Already activated different sub NFT\") */\n      tag_136\n        /* \"#utility.yul\":10066:10465   */\n      jump\n        /* \"contracts/test2/DividendDistributor.sol\":13567:13682  require(activeSubTokenId[user] == 0 || activeSubTokenId[user] == subTokenId, \"Already activated different sub NFT\") */\n    tag_281:\n        /* \"contracts/test2/DividendDistributor.sol\":13738:13754  mainTokenId != 0 */\n      dup5\n      iszero\n      dup1\n      iszero\n      swap1\n        /* \"contracts/test2/DividendDistributor.sol\":13738:13796  mainTokenId != 0 && activeMainTokenId[user] != mainTokenId */\n      tag_284\n      jumpi\n      pop\n      sub(shl(0xa0, 0x01), 0x01)\n        /* \"contracts/test2/DividendDistributor.sol\":13758:13781  activeMainTokenId[user] */\n      dup4\n      and\n      0x00\n      swap1\n      dup2\n      mstore\n        /* \"contracts/test2/DividendDistributor.sol\":13758:13775  activeMainTokenId */\n      0x09\n        /* \"contracts/test2/DividendDistributor.sol\":13758:13781  activeMainTokenId[user] */\n      0x20\n      mstore\n      0x40\n      swap1\n      keccak256\n      sload\n        /* \"contracts/test2/DividendDistributor.sol\":13758:13796  activeMainTokenId[user] != mainTokenId */\n      dup6\n      eq\n      iszero\n        /* \"contracts/test2/DividendDistributor.sol\":13738:13796  mainTokenId != 0 && activeMainTokenId[user] != mainTokenId */\n    tag_284:\n        /* \"contracts/test2/DividendDistributor.sol\":13734:13960  if (mainTokenId != 0 && activeMainTokenId[user] != mainTokenId) {... */\n      iszero\n      tag_285\n      jumpi\n      sub(shl(0xa0, 0x01), 0x01)\n        /* \"contracts/test2/DividendDistributor.sol\":13817:13840  activeMainTokenId[user] */\n      dup4\n      and\n      0x00\n      swap1\n      dup2\n      mstore\n        /* \"contracts/test2/DividendDistributor.sol\":13817:13834  activeMainTokenId */\n      0x09\n        /* \"contracts/test2/DividendDistributor.sol\":13817:13840  activeMainTokenId[user] */\n      0x20\n      mstore\n      0x40\n      swap1\n      keccak256\n      sload\n        /* \"contracts/test2/DividendDistributor.sol\":13817:13845  activeMainTokenId[user] != 0 */\n      iszero\n        /* \"contracts/test2/DividendDistributor.sol\":13813:13864  if (activeMainTokenId[user] != 0) totalActiveMain-- */\n      tag_286\n      jumpi\n        /* \"contracts/test2/DividendDistributor.sol\":13847:13862  totalActiveMain */\n      0x0c\n        /* \"contracts/test2/DividendDistributor.sol\":13847:13864  totalActiveMain-- */\n      dup1\n      sload\n      swap1\n        /* \"contracts/test2/DividendDistributor.sol\":13847:13862  totalActiveMain */\n      0x00\n        /* \"contracts/test2/DividendDistributor.sol\":13847:13864  totalActiveMain-- */\n      tag_287\n      dup4\n      tag_288\n      jump\t// in\n    tag_287:\n      swap2\n      swap1\n      pop\n      sstore\n      pop\n        /* \"contracts/test2/DividendDistributor.sol\":13813:13864  if (activeMainTokenId[user] != 0) totalActiveMain-- */\n    tag_286:\n      sub(shl(0xa0, 0x01), 0x01)\n        /* \"contracts/test2/DividendDistributor.sol\":13879:13902  activeMainTokenId[user] */\n      dup4\n      and\n      0x00\n      swap1\n      dup2\n      mstore\n        /* \"contracts/test2/DividendDistributor.sol\":13879:13896  activeMainTokenId */\n      0x09\n        /* \"contracts/test2/DividendDistributor.sol\":13879:13902  activeMainTokenId[user] */\n      0x20\n      mstore\n      0x40\n      dup2\n      keccak256\n        /* \"contracts/test2/DividendDistributor.sol\":13879:13916  activeMainTokenId[user] = mainTokenId */\n      dup7\n      swap1\n      sstore\n        /* \"contracts/test2/DividendDistributor.sol\":13931:13946  totalActiveMain */\n      0x0c\n        /* \"contracts/test2/DividendDistributor.sol\":13931:13948  totalActiveMain++ */\n      dup1\n      sload\n      swap2\n      tag_289\n      dup4\n      tag_290\n      jump\t// in\n    tag_289:\n      swap2\n      swap1\n      pop\n      sstore\n      pop\n        /* \"contracts/test2/DividendDistributor.sol\":13734:13960  if (mainTokenId != 0 && activeMainTokenId[user] != mainTokenId) {... */\n    tag_285:\n        /* \"contracts/test2/DividendDistributor.sol\":14003:14018  subTokenId != 0 */\n      dup4\n      iszero\n      dup1\n      iszero\n      swap1\n        /* \"contracts/test2/DividendDistributor.sol\":14003:14058  subTokenId != 0 && activeSubTokenId[user] != subTokenId */\n      tag_291\n      jumpi\n      pop\n      sub(shl(0xa0, 0x01), 0x01)\n        /* \"contracts/test2/DividendDistributor.sol\":14022:14044  activeSubTokenId[user] */\n      dup4\n      and\n      0x00\n      swap1\n      dup2\n      mstore\n        /* \"contracts/test2/DividendDistributor.sol\":14022:14038  activeSubTokenId */\n      0x0a\n        /* \"contracts/test2/DividendDistributor.sol\":14022:14044  activeSubTokenId[user] */\n      0x20\n      mstore\n      0x40\n      swap1\n      keccak256\n      sload\n        /* \"contracts/test2/DividendDistributor.sol\":14022:14058  activeSubTokenId[user] != subTokenId */\n      dup5\n      eq\n      iszero\n        /* \"contracts/test2/DividendDistributor.sol\":14003:14058  subTokenId != 0 && activeSubTokenId[user] != subTokenId */\n    tag_291:\n        /* \"contracts/test2/DividendDistributor.sol\":13999:14217  if (subTokenId != 0 && activeSubTokenId[user] != subTokenId) {... */\n      iszero\n      tag_292\n      jumpi\n      sub(shl(0xa0, 0x01), 0x01)\n        /* \"contracts/test2/DividendDistributor.sol\":14079:14101  activeSubTokenId[user] */\n      dup4\n      and\n      0x00\n      swap1\n      dup2\n      mstore\n        /* \"contracts/test2/DividendDistributor.sol\":14079:14095  activeSubTokenId */\n      0x0a\n        /* \"contracts/test2/DividendDistributor.sol\":14079:14101  activeSubTokenId[user] */\n      0x20\n      mstore\n      0x40\n      swap1\n      keccak256\n      sload\n        /* \"contracts/test2/DividendDistributor.sol\":14079:14106  activeSubTokenId[user] != 0 */\n      iszero\n        /* \"contracts/test2/DividendDistributor.sol\":14075:14124  if (activeSubTokenId[user] != 0) totalActiveSub-- */\n      tag_293\n      jumpi\n        /* \"contracts/test2/DividendDistributor.sol\":14108:14122  totalActiveSub */\n      0x0d\n        /* \"contracts/test2/DividendDistributor.sol\":14108:14124  totalActiveSub-- */\n      dup1\n      sload\n      swap1\n        /* \"contracts/test2/DividendDistributor.sol\":14108:14122  totalActiveSub */\n      0x00\n        /* \"contracts/test2/DividendDistributor.sol\":14108:14124  totalActiveSub-- */\n      tag_294\n      dup4\n      tag_288\n      jump\t// in\n    tag_294:\n      swap2\n      swap1\n      pop\n      sstore\n      pop\n        /* \"contracts/test2/DividendDistributor.sol\":14075:14124  if (activeSubTokenId[user] != 0) totalActiveSub-- */\n    tag_293:\n      sub(shl(0xa0, 0x01), 0x01)\n        /* \"contracts/test2/DividendDistributor.sol\":14139:14161  activeSubTokenId[user] */\n      dup4\n      and\n      0x00\n      swap1\n      dup2\n      mstore\n        /* \"contracts/test2/DividendDistributor.sol\":14139:14155  activeSubTokenId */\n      0x0a\n        /* \"contracts/test2/DividendDistributor.sol\":14139:14161  activeSubTokenId[user] */\n      0x20\n      mstore\n      0x40\n      dup2\n      keccak256\n        /* \"contracts/test2/DividendDistributor.sol\":14139:14174  activeSubTokenId[user] = subTokenId */\n      dup6\n      swap1\n      sstore\n        /* \"contracts/test2/DividendDistributor.sol\":14189:14203  totalActiveSub */\n      0x0d\n        /* \"contracts/test2/DividendDistributor.sol\":14189:14205  totalActiveSub++ */\n      dup1\n      sload\n      swap2\n      tag_295\n      dup4\n      tag_290\n      jump\t// in\n    tag_295:\n      swap2\n      swap1\n      pop\n      sstore\n      pop\n        /* \"contracts/test2/DividendDistributor.sol\":13999:14217  if (subTokenId != 0 && activeSubTokenId[user] != subTokenId) {... */\n    tag_292:\n        /* \"contracts/test2/DividendDistributor.sol\":14234:14274  Activated(user, mainTokenId, subTokenId) */\n      0x40\n      dup1\n      mload\n        /* \"#utility.yul\":10925:10950   */\n      dup7\n      dup2\n      mstore\n        /* \"#utility.yul\":10981:10983   */\n      0x20\n        /* \"#utility.yul\":10966:10984   */\n      dup2\n      add\n        /* \"#utility.yul\":10959:10993   */\n      dup7\n      swap1\n      mstore\n      sub(shl(0xa0, 0x01), 0x01)\n        /* \"contracts/test2/DividendDistributor.sol\":14234:14274  Activated(user, mainTokenId, subTokenId) */\n      dup6\n      and\n      swap2\n      0xf89be561c4ce44410305a86555ebae8b579de22890a703ac89051c5971b5d4dc\n      swap2\n        /* \"#utility.yul\":10898:10916   */\n      add\n        /* \"contracts/test2/DividendDistributor.sol\":14234:14274  Activated(user, mainTokenId, subTokenId) */\n      mload(0x40)\n      dup1\n      swap2\n      sub\n      swap1\n      log2\n        /* \"contracts/test2/DividendDistributor.sol\":12736:14282  {... */\n      pop\n      pop\n      pop\n        /* \"contracts/test2/DividendDistributor.sol\":12668:14282  function activate(uint256 mainTokenId, uint256 subTokenId) external {... */\n      pop\n      pop\n      jump\t// out\n        /* \"contracts/test2/DividendDistributor.sol\":16646:16898  function emergencyWithdraw(address token, uint256 amount) external onlyOwner {... */\n    tag_100:\n        /* \"@openzeppelin/contracts/access/Ownable.sol\":1531:1544  _checkOwner() */\n      tag_299\n        /* \"@openzeppelin/contracts/access/Ownable.sol\":1531:1542  _checkOwner */\n      tag_210\n        /* \"@openzeppelin/contracts/access/Ownable.sol\":1531:1544  _checkOwner() */\n      jump\t// in\n    tag_299:\n      sub(shl(0xa0, 0x01), 0x01)\n        /* \"contracts/test2/DividendDistributor.sol\":16738:16757  token == address(0) */\n      dup3\n      and\n        /* \"contracts/test2/DividendDistributor.sol\":16734:16891  if (token == address(0)) {... */\n      tag_301\n      jumpi\n        /* \"@openzeppelin/contracts/access/Ownable.sol\":1684:1691  address */\n      0x00\n        /* \"@openzeppelin/contracts/access/Ownable.sol\":1710:1716  _owner */\n      dup1\n      sload\n        /* \"contracts/test2/DividendDistributor.sol\":16774:16807  payable(owner()).transfer(amount) */\n      mload(0x40)\n      sub(shl(0xa0, 0x01), 0x01)\n        /* \"@openzeppelin/contracts/access/Ownable.sol\":1710:1716  _owner */\n      swap1\n      swap2\n      and\n      swap2\n        /* \"contracts/test2/DividendDistributor.sol\":16774:16807  payable(owner()).transfer(amount) */\n      dup4\n      iszero\n      0x08fc\n      mul\n      swap2\n        /* \"contracts/test2/DividendDistributor.sol\":16800:16806  amount */\n      dup5\n      swap2\n        /* \"contracts/test2/DividendDistributor.sol\":16774:16807  payable(owner()).transfer(amount) */\n      dup2\n        /* \"@openzeppelin/contracts/access/Ownable.sol\":1684:1691  address */\n      dup2\n        /* \"contracts/test2/DividendDistributor.sol\":16774:16807  payable(owner()).transfer(amount) */\n      dup2\n        /* \"contracts/test2/DividendDistributor.sol\":16800:16806  amount */\n      dup6\n        /* \"@openzeppelin/contracts/access/Ownable.sol\":1710:1716  _owner */\n      dup9\n        /* \"contracts/test2/DividendDistributor.sol\":16774:16807  payable(owner()).transfer(amount) */\n      dup9\n      call\n      swap4\n      pop\n      pop\n      pop\n      pop\n      iszero\n      dup1\n      iszero\n      tag_304\n      jumpi\n      returndatacopy(0x00, 0x00, returndatasize)\n      revert(0x00, returndatasize)\n    tag_304:\n      pop\n        /* \"contracts/test2/DividendDistributor.sol\":16646:16898  function emergencyWithdraw(address token, uint256 amount) external onlyOwner {... */\n      pop\n      pop\n      jump\t// out\n        /* \"contracts/test2/DividendDistributor.sol\":16734:16891  if (token == address(0)) {... */\n    tag_301:\n        /* \"contracts/test2/DividendDistributor.sol\":16847:16852  token */\n      dup2\n      sub(shl(0xa0, 0x01), 0x01)\n        /* \"contracts/test2/DividendDistributor.sol\":16840:16862  IERC20(token).transfer */\n      and\n      0xa9059cbb\n        /* \"contracts/test2/DividendDistributor.sol\":16863:16870  owner() */\n      tag_306\n        /* \"@openzeppelin/contracts/access/Ownable.sol\":1684:1691  address */\n      0x00\n        /* \"@openzeppelin/contracts/access/Ownable.sol\":1710:1716  _owner */\n      sload\n      sub(shl(0xa0, 0x01), 0x01)\n      and\n      swap1\n        /* \"@openzeppelin/contracts/access/Ownable.sol\":1638:1723  function owner() public view virtual returns (address) {... */\n      jump\n        /* \"contracts/test2/DividendDistributor.sol\":16863:16870  owner() */\n    tag_306:\n        /* \"contracts/test2/DividendDistributor.sol\":16840:16879  IERC20(token).transfer(owner(), amount) */\n      mload(0x40)\n      not(sub(shl(0xe0, 0x01), 0x01))\n      0xe0\n      dup5\n      swap1\n      shl\n      and\n      dup2\n      mstore\n      sub(shl(0xa0, 0x01), 0x01)\n        /* \"#utility.yul\":5475:5507   */\n      swap1\n      swap2\n      and\n        /* \"contracts/test2/DividendDistributor.sol\":16840:16879  IERC20(token).transfer(owner(), amount) */\n      0x04\n      dup3\n      add\n        /* \"#utility.yul\":5457:5508   */\n      mstore\n        /* \"#utility.yul\":5524:5542   */\n      0x24\n      dup2\n      add\n        /* \"#utility.yul\":5517:5551   */\n      dup5\n      swap1\n      mstore\n        /* \"#utility.yul\":5430:5448   */\n      0x44\n      add\n        /* \"contracts/test2/DividendDistributor.sol\":16840:16879  IERC20(token).transfer(owner(), amount) */\n      0x20\n      mload(0x40)\n      dup1\n      dup4\n      sub\n      dup2\n      0x00\n      dup8\n      gas\n      call\n      iszero\n      dup1\n      iszero\n      tag_309\n      jumpi\n      returndatacopy(0x00, 0x00, returndatasize)\n      revert(0x00, returndatasize)\n    tag_309:\n      pop\n      pop\n      pop\n      pop\n      mload(0x40)\n      returndatasize\n      not(0x1f)\n      0x1f\n      dup3\n      add\n      and\n      dup3\n      add\n      dup1\n      0x40\n      mstore\n      pop\n      dup2\n      add\n      swap1\n      tag_304\n      swap2\n      swap1\n      tag_194\n      jump\t// in\n        /* \"@openzeppelin/contracts/access/Ownable.sol\":2543:2758  function transferOwnership(address newOwner) public virtual onlyOwner {... */\n    tag_132:\n        /* \"@openzeppelin/contracts/access/Ownable.sol\":1531:1544  _checkOwner() */\n      tag_312\n        /* \"@openzeppelin/contracts/access/Ownable.sol\":1531:1542  _checkOwner */\n      tag_210\n        /* \"@openzeppelin/contracts/access/Ownable.sol\":1531:1544  _checkOwner() */\n      jump\t// in\n    tag_312:\n      sub(shl(0xa0, 0x01), 0x01)\n        /* \"@openzeppelin/contracts/access/Ownable.sol\":2627:2649  newOwner == address(0) */\n      dup2\n      and\n        /* \"@openzeppelin/contracts/access/Ownable.sol\":2623:2714  if (newOwner == address(0)) {... */\n      tag_314\n      jumpi\n        /* \"@openzeppelin/contracts/access/Ownable.sol\":2672:2703  OwnableInvalidOwner(address(0)) */\n      mload(0x40)\n      shl(0xe0, 0x1e4fbdf7)\n      dup2\n      mstore\n        /* \"@openzeppelin/contracts/access/Ownable.sol\":2700:2701  0 */\n      0x00\n        /* \"@openzeppelin/contracts/access/Ownable.sol\":2672:2703  OwnableInvalidOwner(address(0)) */\n      0x04\n      dup3\n      add\n        /* \"#utility.yul\":1405:1456   */\n      mstore\n        /* \"#utility.yul\":1378:1396   */\n      0x24\n      add\n        /* \"@openzeppelin/contracts/access/Ownable.sol\":2672:2703  OwnableInvalidOwner(address(0)) */\n      tag_136\n        /* \"#utility.yul\":1259:1462   */\n      jump\n        /* \"@openzeppelin/contracts/access/Ownable.sol\":2623:2714  if (newOwner == address(0)) {... */\n    tag_314:\n        /* \"@openzeppelin/contracts/access/Ownable.sol\":2723:2751  _transferOwnership(newOwner) */\n      tag_316\n        /* \"@openzeppelin/contracts/access/Ownable.sol\":2742:2750  newOwner */\n      dup2\n        /* \"@openzeppelin/contracts/access/Ownable.sol\":2723:2741  _transferOwnership */\n      tag_234\n        /* \"@openzeppelin/contracts/access/Ownable.sol\":2723:2751  _transferOwnership(newOwner) */\n      jump\t// in\n    tag_316:\n        /* \"@openzeppelin/contracts/access/Ownable.sol\":2543:2758  function transferOwnership(address newOwner) public virtual onlyOwner {... */\n      pop\n      jump\t// out\n        /* \"@openzeppelin/contracts/access/Ownable.sol\":1796:1958  function _checkOwner() internal view virtual {... */\n    tag_210:\n        /* \"@openzeppelin/contracts/access/Ownable.sol\":1684:1691  address */\n      0x00\n        /* \"@openzeppelin/contracts/access/Ownable.sol\":1710:1716  _owner */\n      sload\n      sub(shl(0xa0, 0x01), 0x01)\n      and\n        /* \"@openzeppelin/contracts/utils/Context.sol\":735:745  msg.sender */\n      caller\n        /* \"@openzeppelin/contracts/access/Ownable.sol\":1855:1878  owner() != _msgSender() */\n      eq\n        /* \"@openzeppelin/contracts/access/Ownable.sol\":1851:1952  if (owner() != _msgSender()) {... */\n      tag_233\n      jumpi\n        /* \"@openzeppelin/contracts/access/Ownable.sol\":1901:1941  OwnableUnauthorizedAccount(_msgSender()) */\n      mload(0x40)\n      shl(0xe0, 0x118cdaa7)\n      dup2\n      mstore\n        /* \"@openzeppelin/contracts/utils/Context.sol\":735:745  msg.sender */\n      caller\n        /* \"@openzeppelin/contracts/access/Ownable.sol\":1901:1941  OwnableUnauthorizedAccount(_msgSender()) */\n      0x04\n      dup3\n      add\n        /* \"#utility.yul\":1405:1456   */\n      mstore\n        /* \"#utility.yul\":1378:1396   */\n      0x24\n      add\n        /* \"@openzeppelin/contracts/access/Ownable.sol\":1901:1941  OwnableUnauthorizedAccount(_msgSender()) */\n      tag_136\n        /* \"#utility.yul\":1259:1462   */\n      jump\n        /* \"@openzeppelin/contracts/access/Ownable.sol\":2912:3099  function _transferOwnership(address newOwner) internal virtual {... */\n    tag_234:\n        /* \"@openzeppelin/contracts/access/Ownable.sol\":2985:3001  address oldOwner */\n      0x00\n        /* \"@openzeppelin/contracts/access/Ownable.sol\":3004:3010  _owner */\n      dup1\n      sload\n      sub(shl(0xa0, 0x01), 0x01)\n        /* \"@openzeppelin/contracts/access/Ownable.sol\":3020:3037  _owner = newOwner */\n      dup4\n      dup2\n      and\n      not(sub(shl(0xa0, 0x01), 0x01))\n      dup4\n      and\n      dup2\n      or\n      dup5\n      sstore\n        /* \"@openzeppelin/contracts/access/Ownable.sol\":3052:3092  OwnershipTransferred(oldOwner, newOwner) */\n      mload(0x40)\n        /* \"@openzeppelin/contracts/access/Ownable.sol\":3004:3010  _owner */\n      swap2\n      swap1\n      swap3\n      and\n      swap3\n      dup4\n      swap2\n        /* \"@openzeppelin/contracts/access/Ownable.sol\":3052:3092  OwnershipTransferred(oldOwner, newOwner) */\n      0x8be0079c531659141344cd1fd0a4f28419497f9722a3daafe3b4186f6b6457e0\n      swap2\n        /* \"@openzeppelin/contracts/access/Ownable.sol\":2985:3001  address oldOwner */\n      swap1\n        /* \"@openzeppelin/contracts/access/Ownable.sol\":3052:3092  OwnershipTransferred(oldOwner, newOwner) */\n      log3\n        /* \"@openzeppelin/contracts/access/Ownable.sol\":2975:3099  {... */\n      pop\n        /* \"@openzeppelin/contracts/access/Ownable.sol\":2912:3099  function _transferOwnership(address newOwner) internal virtual {... */\n      pop\n      jump\t// out\n        /* \"#utility.yul\":14:141   */\n    tag_326:\n        /* \"#utility.yul\":75:85   */\n      0x4e487b71\n        /* \"#utility.yul\":70:73   */\n      0xe0\n        /* \"#utility.yul\":66:86   */\n      shl\n        /* \"#utility.yul\":63:64   */\n      0x00\n        /* \"#utility.yul\":56:87   */\n      mstore\n        /* \"#utility.yul\":106:110   */\n      0x11\n        /* \"#utility.yul\":103:104   */\n      0x04\n        /* \"#utility.yul\":96:111   */\n      mstore\n        /* \"#utility.yul\":130:134   */\n      0x24\n        /* \"#utility.yul\":127:128   */\n      0x00\n        /* \"#utility.yul\":120:135   */\n      revert\n        /* \"#utility.yul\":146:271   */\n    tag_31:\n        /* \"#utility.yul\":211:220   */\n      dup1\n      dup3\n      add\n        /* \"#utility.yul\":232:242   */\n      dup1\n      dup3\n      gt\n        /* \"#utility.yul\":229:265   */\n      iszero\n      tag_334\n      jumpi\n        /* \"#utility.yul\":245:263   */\n      tag_334\n      tag_326\n      jump\t// in\n    tag_334:\n        /* \"#utility.yul\":146:271   */\n      swap3\n      swap2\n      pop\n      pop\n      jump\t// out\n        /* \"#utility.yul\":689:820   */\n    tag_327:\n      sub(shl(0xa0, 0x01), 0x01)\n        /* \"#utility.yul\":764:795   */\n      dup2\n      and\n        /* \"#utility.yul\":754:796   */\n      dup2\n      eq\n        /* \"#utility.yul\":744:814   */\n      tag_316\n      jumpi\n        /* \"#utility.yul\":810:811   */\n      0x00\n        /* \"#utility.yul\":807:808   */\n      0x00\n        /* \"#utility.yul\":800:812   */\n      revert\n        /* \"#utility.yul\":825:1072   */\n    tag_37:\n        /* \"#utility.yul\":884:890   */\n      0x00\n        /* \"#utility.yul\":937:939   */\n      0x20\n        /* \"#utility.yul\":925:934   */\n      dup3\n        /* \"#utility.yul\":916:923   */\n      dup5\n        /* \"#utility.yul\":912:935   */\n      sub\n        /* \"#utility.yul\":908:940   */\n      slt\n        /* \"#utility.yul\":905:957   */\n      iszero\n      tag_339\n      jumpi\n        /* \"#utility.yul\":953:954   */\n      0x00\n        /* \"#utility.yul\":950:951   */\n      0x00\n        /* \"#utility.yul\":943:955   */\n      revert\n        /* \"#utility.yul\":905:957   */\n    tag_339:\n        /* \"#utility.yul\":992:1001   */\n      dup2\n        /* \"#utility.yul\":979:1002   */\n      calldataload\n        /* \"#utility.yul\":1011:1042   */\n      tag_340\n        /* \"#utility.yul\":1036:1041   */\n      dup2\n        /* \"#utility.yul\":1011:1042   */\n      tag_327\n      jump\t// in\n    tag_340:\n        /* \"#utility.yul\":1061:1066   */\n      swap4\n        /* \"#utility.yul\":825:1072   */\n      swap3\n      pop\n      pop\n      pop\n      jump\t// out\n        /* \"#utility.yul\":1467:1585   */\n    tag_328:\n        /* \"#utility.yul\":1553:1558   */\n      dup1\n        /* \"#utility.yul\":1546:1559   */\n      iszero\n        /* \"#utility.yul\":1539:1560   */\n      iszero\n        /* \"#utility.yul\":1532:1537   */\n      dup2\n        /* \"#utility.yul\":1529:1561   */\n      eq\n        /* \"#utility.yul\":1519:1579   */\n      tag_316\n      jumpi\n        /* \"#utility.yul\":1575:1576   */\n      0x00\n        /* \"#utility.yul\":1572:1573   */\n      0x00\n        /* \"#utility.yul\":1565:1577   */\n      revert\n        /* \"#utility.yul\":1590:1972   */\n    tag_64:\n        /* \"#utility.yul\":1655:1661   */\n      0x00\n        /* \"#utility.yul\":1663:1669   */\n      0x00\n        /* \"#utility.yul\":1716:1718   */\n      0x40\n        /* \"#utility.yul\":1704:1713   */\n      dup4\n        /* \"#utility.yul\":1695:1702   */\n      dup6\n        /* \"#utility.yul\":1691:1714   */\n      sub\n        /* \"#utility.yul\":1687:1719   */\n      slt\n        /* \"#utility.yul\":1684:1736   */\n      iszero\n      tag_346\n      jumpi\n        /* \"#utility.yul\":1732:1733   */\n      0x00\n        /* \"#utility.yul\":1729:1730   */\n      0x00\n        /* \"#utility.yul\":1722:1734   */\n      revert\n        /* \"#utility.yul\":1684:1736   */\n    tag_346:\n        /* \"#utility.yul\":1771:1780   */\n      dup3\n        /* \"#utility.yul\":1758:1781   */\n      calldataload\n        /* \"#utility.yul\":1790:1821   */\n      tag_347\n        /* \"#utility.yul\":1815:1820   */\n      dup2\n        /* \"#utility.yul\":1790:1821   */\n      tag_327\n      jump\t// in\n    tag_347:\n        /* \"#utility.yul\":1840:1845   */\n      swap2\n      pop\n        /* \"#utility.yul\":1897:1899   */\n      0x20\n        /* \"#utility.yul\":1882:1900   */\n      dup4\n      add\n        /* \"#utility.yul\":1869:1901   */\n      calldataload\n        /* \"#utility.yul\":1910:1940   */\n      tag_348\n        /* \"#utility.yul\":1869:1901   */\n      dup2\n        /* \"#utility.yul\":1910:1940   */\n      tag_328\n      jump\t// in\n    tag_348:\n        /* \"#utility.yul\":1959:1966   */\n      dup1\n        /* \"#utility.yul\":1949:1966   */\n      swap2\n      pop\n      pop\n        /* \"#utility.yul\":1590:1972   */\n      swap3\n      pop\n      swap3\n      swap1\n      pop\n      jump\t// out\n        /* \"#utility.yul\":1977:2104   */\n    tag_329:\n        /* \"#utility.yul\":2038:2048   */\n      0x4e487b71\n        /* \"#utility.yul\":2033:2036   */\n      0xe0\n        /* \"#utility.yul\":2029:2049   */\n      shl\n        /* \"#utility.yul\":2026:2027   */\n      0x00\n        /* \"#utility.yul\":2019:2050   */\n      mstore\n        /* \"#utility.yul\":2069:2073   */\n      0x41\n        /* \"#utility.yul\":2066:2067   */\n      0x04\n        /* \"#utility.yul\":2059:2074   */\n      mstore\n        /* \"#utility.yul\":2093:2097   */\n      0x24\n        /* \"#utility.yul\":2090:2091   */\n      0x00\n        /* \"#utility.yul\":2083:2098   */\n      revert\n        /* \"#utility.yul\":2109:3168   */\n    tag_73:\n        /* \"#utility.yul\":2187:2193   */\n      0x00\n        /* \"#utility.yul\":2195:2201   */\n      0x00\n        /* \"#utility.yul\":2248:2250   */\n      0x40\n        /* \"#utility.yul\":2236:2245   */\n      dup4\n        /* \"#utility.yul\":2227:2234   */\n      dup6\n        /* \"#utility.yul\":2223:2246   */\n      sub\n        /* \"#utility.yul\":2219:2251   */\n      slt\n        /* \"#utility.yul\":2216:2268   */\n      iszero\n      tag_351\n      jumpi\n        /* \"#utility.yul\":2264:2265   */\n      0x00\n        /* \"#utility.yul\":2261:2262   */\n      0x00\n        /* \"#utility.yul\":2254:2266   */\n      revert\n        /* \"#utility.yul\":2216:2268   */\n    tag_351:\n        /* \"#utility.yul\":2309:2332   */\n      dup3\n      calldataload\n      swap2\n      pop\n        /* \"#utility.yul\":2407:2409   */\n      0x20\n        /* \"#utility.yul\":2392:2410   */\n      dup4\n      add\n        /* \"#utility.yul\":2379:2411   */\n      calldataload\n        /* \"#utility.yul\":2434:2452   */\n      0xffffffffffffffff\n        /* \"#utility.yul\":2423:2453   */\n      dup2\n      gt\n        /* \"#utility.yul\":2420:2470   */\n      iszero\n      tag_352\n      jumpi\n        /* \"#utility.yul\":2466:2467   */\n      0x00\n        /* \"#utility.yul\":2463:2464   */\n      0x00\n        /* \"#utility.yul\":2456:2468   */\n      revert\n        /* \"#utility.yul\":2420:2470   */\n    tag_352:\n        /* \"#utility.yul\":2489:2511   */\n      dup4\n      add\n        /* \"#utility.yul\":2542:2546   */\n      0x1f\n        /* \"#utility.yul\":2534:2547   */\n      dup2\n      add\n        /* \"#utility.yul\":2530:2557   */\n      dup6\n      sgt\n        /* \"#utility.yul\":2520:2575   */\n      tag_353\n      jumpi\n        /* \"#utility.yul\":2571:2572   */\n      0x00\n        /* \"#utility.yul\":2568:2569   */\n      0x00\n        /* \"#utility.yul\":2561:2573   */\n      revert\n        /* \"#utility.yul\":2520:2575   */\n    tag_353:\n        /* \"#utility.yul\":2611:2613   */\n      dup1\n        /* \"#utility.yul\":2598:2614   */\n      calldataload\n        /* \"#utility.yul\":2637:2655   */\n      0xffffffffffffffff\n        /* \"#utility.yul\":2629:2635   */\n      dup2\n        /* \"#utility.yul\":2626:2656   */\n      gt\n        /* \"#utility.yul\":2623:2679   */\n      iszero\n      tag_355\n      jumpi\n        /* \"#utility.yul\":2659:2677   */\n      tag_355\n      tag_329\n      jump\t// in\n    tag_355:\n        /* \"#utility.yul\":2708:2710   */\n      0x40\n        /* \"#utility.yul\":2702:2711   */\n      mload\n        /* \"#utility.yul\":2800:2802   */\n      0x1f\n        /* \"#utility.yul\":2762:2779   */\n      dup3\n      add\n      not(0x1f)\n        /* \"#utility.yul\":2758:2789   */\n      swap1\n      dup2\n      and\n        /* \"#utility.yul\":2791:2793   */\n      0x3f\n        /* \"#utility.yul\":2754:2794   */\n      add\n        /* \"#utility.yul\":2750:2804   */\n      and\n        /* \"#utility.yul\":2738:2805   */\n      dup2\n      add\n        /* \"#utility.yul\":2835:2853   */\n      0xffffffffffffffff\n        /* \"#utility.yul\":2820:2854   */\n      dup2\n      gt\n        /* \"#utility.yul\":2856:2878   */\n      dup3\n      dup3\n      lt\n        /* \"#utility.yul\":2817:2879   */\n      or\n        /* \"#utility.yul\":2814:2902   */\n      iszero\n      tag_357\n      jumpi\n        /* \"#utility.yul\":2882:2900   */\n      tag_357\n      tag_329\n      jump\t// in\n    tag_357:\n        /* \"#utility.yul\":2918:2920   */\n      0x40\n        /* \"#utility.yul\":2911:2933   */\n      mstore\n        /* \"#utility.yul\":2942:2964   */\n      dup2\n      dup2\n      mstore\n        /* \"#utility.yul\":2983:2998   */\n      dup3\n      dup3\n      add\n        /* \"#utility.yul\":3000:3002   */\n      0x20\n        /* \"#utility.yul\":2979:3003   */\n      add\n        /* \"#utility.yul\":2976:3013   */\n      dup8\n      lt\n        /* \"#utility.yul\":2973:3030   */\n      iszero\n      tag_358\n      jumpi\n        /* \"#utility.yul\":3026:3027   */\n      0x00\n        /* \"#utility.yul\":3023:3024   */\n      0x00\n        /* \"#utility.yul\":3016:3028   */\n      revert\n        /* \"#utility.yul\":2973:3030   */\n    tag_358:\n        /* \"#utility.yul\":3082:3088   */\n      dup2\n        /* \"#utility.yul\":3077:3079   */\n      0x20\n        /* \"#utility.yul\":3073:3075   */\n      dup5\n        /* \"#utility.yul\":3069:3080   */\n      add\n        /* \"#utility.yul\":3064:3066   */\n      0x20\n        /* \"#utility.yul\":3056:3062   */\n      dup4\n        /* \"#utility.yul\":3052:3067   */\n      add\n        /* \"#utility.yul\":3039:3089   */\n      calldatacopy\n        /* \"#utility.yul\":3135:3136   */\n      0x00\n        /* \"#utility.yul\":3130:3132   */\n      0x20\n        /* \"#utility.yul\":3121:3127   */\n      dup4\n        /* \"#utility.yul\":3113:3119   */\n      dup4\n        /* \"#utility.yul\":3109:3128   */\n      add\n        /* \"#utility.yul\":3105:3133   */\n      add\n        /* \"#utility.yul\":3098:3137   */\n      mstore\n        /* \"#utility.yul\":3156:3162   */\n      dup1\n        /* \"#utility.yul\":3146:3162   */\n      swap4\n      pop\n      pop\n      pop\n      pop\n        /* \"#utility.yul\":2109:3168   */\n      swap3\n      pop\n      swap3\n      swap1\n      pop\n      jump\t// out\n        /* \"#utility.yul\":3173:3399   */\n    tag_81:\n        /* \"#utility.yul\":3232:3238   */\n      0x00\n        /* \"#utility.yul\":3285:3287   */\n      0x20\n        /* \"#utility.yul\":3273:3282   */\n      dup3\n        /* \"#utility.yul\":3264:3271   */\n      dup5\n        /* \"#utility.yul\":3260:3283   */\n      sub\n        /* \"#utility.yul\":3256:3288   */\n      slt\n        /* \"#utility.yul\":3253:3305   */\n      iszero\n      tag_360\n      jumpi\n        /* \"#utility.yul\":3301:3302   */\n      0x00\n        /* \"#utility.yul\":3298:3299   */\n      0x00\n        /* \"#utility.yul\":3291:3303   */\n      revert\n        /* \"#utility.yul\":3253:3305   */\n    tag_360:\n      pop\n        /* \"#utility.yul\":3346:3369   */\n      calldataload\n      swap2\n        /* \"#utility.yul\":3173:3399   */\n      swap1\n      pop\n      jump\t// out\n        /* \"#utility.yul\":3404:3750   */\n    tag_94:\n        /* \"#utility.yul\":3472:3478   */\n      0x00\n        /* \"#utility.yul\":3480:3486   */\n      0x00\n        /* \"#utility.yul\":3533:3535   */\n      0x40\n        /* \"#utility.yul\":3521:3530   */\n      dup4\n        /* \"#utility.yul\":3512:3519   */\n      dup6\n        /* \"#utility.yul\":3508:3531   */\n      sub\n        /* \"#utility.yul\":3504:3536   */\n      slt\n        /* \"#utility.yul\":3501:3553   */\n      iszero\n      tag_362\n      jumpi\n        /* \"#utility.yul\":3549:3550   */\n      0x00\n        /* \"#utility.yul\":3546:3547   */\n      0x00\n        /* \"#utility.yul\":3539:3551   */\n      revert\n        /* \"#utility.yul\":3501:3553   */\n    tag_362:\n      pop\n      pop\n        /* \"#utility.yul\":3594:3617   */\n      dup1\n      calldataload\n      swap3\n        /* \"#utility.yul\":3714:3716   */\n      0x20\n        /* \"#utility.yul\":3699:3717   */\n      swap1\n      swap2\n      add\n        /* \"#utility.yul\":3686:3718   */\n      calldataload\n      swap2\n      pop\n        /* \"#utility.yul\":3404:3750   */\n      jump\t// out\n        /* \"#utility.yul\":3755:4122   */\n    tag_99:\n        /* \"#utility.yul\":3823:3829   */\n      0x00\n        /* \"#utility.yul\":3831:3837   */\n      0x00\n        /* \"#utility.yul\":3884:3886   */\n      0x40\n        /* \"#utility.yul\":3872:3881   */\n      dup4\n        /* \"#utility.yul\":3863:3870   */\n      dup6\n        /* \"#utility.yul\":3859:3882   */\n      sub\n        /* \"#utility.yul\":3855:3887   */\n      slt\n        /* \"#utility.yul\":3852:3904   */\n      iszero\n      tag_364\n      jumpi\n        /* \"#utility.yul\":3900:3901   */\n      0x00\n        /* \"#utility.yul\":3897:3898   */\n      0x00\n        /* \"#utility.yul\":3890:3902   */\n      revert\n        /* \"#utility.yul\":3852:3904   */\n    tag_364:\n        /* \"#utility.yul\":3939:3948   */\n      dup3\n        /* \"#utility.yul\":3926:3949   */\n      calldataload\n        /* \"#utility.yul\":3958:3989   */\n      tag_365\n        /* \"#utility.yul\":3983:3988   */\n      dup2\n        /* \"#utility.yul\":3958:3989   */\n      tag_327\n      jump\t// in\n    tag_365:\n        /* \"#utility.yul\":4008:4013   */\n      swap5\n        /* \"#utility.yul\":4086:4088   */\n      0x20\n        /* \"#utility.yul\":4071:4089   */\n      swap4\n      swap1\n      swap4\n      add\n        /* \"#utility.yul\":4058:4090   */\n      calldataload\n      swap4\n      pop\n      pop\n      pop\n        /* \"#utility.yul\":3755:4122   */\n      jump\t// out\n        /* \"#utility.yul\":4888:5056   */\n    tag_146:\n        /* \"#utility.yul\":4961:4970   */\n      dup1\n      dup3\n      mul\n        /* \"#utility.yul\":4992:5001   */\n      dup2\n      iszero\n        /* \"#utility.yul\":5009:5024   */\n      dup3\n      dup3\n      div\n        /* \"#utility.yul\":5003:5025   */\n      dup5\n      eq\n        /* \"#utility.yul\":4989:5026   */\n      or\n        /* \"#utility.yul\":4979:5050   */\n      tag_334\n      jumpi\n        /* \"#utility.yul\":5030:5048   */\n      tag_334\n      tag_326\n      jump\t// in\n        /* \"#utility.yul\":5061:5278   */\n    tag_148:\n        /* \"#utility.yul\":5101:5102   */\n      0x00\n        /* \"#utility.yul\":5127:5128   */\n      dup3\n        /* \"#utility.yul\":5117:5249   */\n      tag_373\n      jumpi\n        /* \"#utility.yul\":5171:5181   */\n      0x4e487b71\n        /* \"#utility.yul\":5166:5169   */\n      0xe0\n        /* \"#utility.yul\":5162:5182   */\n      shl\n        /* \"#utility.yul\":5159:5160   */\n      0x00\n        /* \"#utility.yul\":5152:5183   */\n      mstore\n        /* \"#utility.yul\":5206:5210   */\n      0x12\n        /* \"#utility.yul\":5203:5204   */\n      0x04\n        /* \"#utility.yul\":5196:5211   */\n      mstore\n        /* \"#utility.yul\":5234:5238   */\n      0x24\n        /* \"#utility.yul\":5231:5232   */\n      0x00\n        /* \"#utility.yul\":5224:5239   */\n      revert\n        /* \"#utility.yul\":5117:5249   */\n    tag_373:\n      pop\n        /* \"#utility.yul\":5263:5272   */\n      div\n      swap1\n        /* \"#utility.yul\":5061:5278   */\n      jump\t// out\n        /* \"#utility.yul\":5562:5807   */\n    tag_194:\n        /* \"#utility.yul\":5629:5635   */\n      0x00\n        /* \"#utility.yul\":5682:5684   */\n      0x20\n        /* \"#utility.yul\":5670:5679   */\n      dup3\n        /* \"#utility.yul\":5661:5668   */\n      dup5\n        /* \"#utility.yul\":5657:5680   */\n      sub\n        /* \"#utility.yul\":5653:5685   */\n      slt\n        /* \"#utility.yul\":5650:5702   */\n      iszero\n      tag_376\n      jumpi\n        /* \"#utility.yul\":5698:5699   */\n      0x00\n        /* \"#utility.yul\":5695:5696   */\n      0x00\n        /* \"#utility.yul\":5688:5700   */\n      revert\n        /* \"#utility.yul\":5650:5702   */\n    tag_376:\n        /* \"#utility.yul\":5730:5739   */\n      dup2\n        /* \"#utility.yul\":5724:5740   */\n      mload\n        /* \"#utility.yul\":5749:5777   */\n      tag_340\n        /* \"#utility.yul\":5771:5776   */\n      dup2\n        /* \"#utility.yul\":5749:5777   */\n      tag_328\n      jump\t// in\n        /* \"#utility.yul\":5812:5940   */\n    tag_204:\n        /* \"#utility.yul\":5879:5888   */\n      dup2\n      dup2\n      sub\n        /* \"#utility.yul\":5900:5911   */\n      dup2\n      dup2\n      gt\n        /* \"#utility.yul\":5897:5934   */\n      iszero\n      tag_334\n      jumpi\n        /* \"#utility.yul\":5914:5932   */\n      tag_334\n      tag_326\n      jump\t// in\n        /* \"#utility.yul\":6998:7491   */\n    tag_229:\n        /* \"#utility.yul\":7175:7177   */\n      0x40\n        /* \"#utility.yul\":7164:7173   */\n      dup2\n        /* \"#utility.yul\":7157:7178   */\n      mstore\n        /* \"#utility.yul\":7138:7142   */\n      0x00\n        /* \"#utility.yul\":7207:7213   */\n      dup4\n        /* \"#utility.yul\":7201:7214   */\n      mload\n        /* \"#utility.yul\":7250:7256   */\n      dup1\n        /* \"#utility.yul\":7245:7247   */\n      0x40\n        /* \"#utility.yul\":7234:7243   */\n      dup5\n        /* \"#utility.yul\":7230:7248   */\n      add\n        /* \"#utility.yul\":7223:7257   */\n      mstore\n        /* \"#utility.yul\":7311:7317   */\n      dup1\n        /* \"#utility.yul\":7304:7308   */\n      0x20\n        /* \"#utility.yul\":7296:7302   */\n      dup7\n        /* \"#utility.yul\":7292:7309   */\n      add\n        /* \"#utility.yul\":7287:7289   */\n      0x60\n        /* \"#utility.yul\":7276:7285   */\n      dup6\n        /* \"#utility.yul\":7272:7290   */\n      add\n        /* \"#utility.yul\":7266:7318   */\n      mcopy\n        /* \"#utility.yul\":7367:7368   */\n      0x00\n        /* \"#utility.yul\":7362:7364   */\n      0x60\n        /* \"#utility.yul\":7353:7359   */\n      dup3\n        /* \"#utility.yul\":7342:7351   */\n      dup6\n        /* \"#utility.yul\":7338:7360   */\n      add\n        /* \"#utility.yul\":7334:7365   */\n      add\n        /* \"#utility.yul\":7327:7369   */\n      mstore\n        /* \"#utility.yul\":7437:7439   */\n      0x60\n        /* \"#utility.yul\":7430:7432   */\n      0x1f\n        /* \"#utility.yul\":7426:7433   */\n      not\n        /* \"#utility.yul\":7421:7423   */\n      0x1f\n        /* \"#utility.yul\":7413:7419   */\n      dup4\n        /* \"#utility.yul\":7409:7424   */\n      add\n        /* \"#utility.yul\":7405:7434   */\n      and\n        /* \"#utility.yul\":7394:7403   */\n      dup5\n        /* \"#utility.yul\":7390:7435   */\n      add\n        /* \"#utility.yul\":7386:7440   */\n      add\n        /* \"#utility.yul\":7378:7440   */\n      swap2\n      pop\n      pop\n        /* \"#utility.yul\":7478:7484   */\n      dup3\n        /* \"#utility.yul\":7471:7475   */\n      0x20\n        /* \"#utility.yul\":7460:7469   */\n      dup4\n        /* \"#utility.yul\":7456:7476   */\n      add\n        /* \"#utility.yul\":7449:7485   */\n      mstore\n        /* \"#utility.yul\":6998:7491   */\n      swap4\n      swap3\n      pop\n      pop\n      pop\n      jump\t// out\n        /* \"#utility.yul\":7906:8157   */\n    tag_254:\n        /* \"#utility.yul\":7976:7982   */\n      0x00\n        /* \"#utility.yul\":8029:8031   */\n      0x20\n        /* \"#utility.yul\":8017:8026   */\n      dup3\n        /* \"#utility.yul\":8008:8015   */\n      dup5\n        /* \"#utility.yul\":8004:8027   */\n      sub\n        /* \"#utility.yul\":8000:8032   */\n      slt\n        /* \"#utility.yul\":7997:8049   */\n      iszero\n      tag_387\n      jumpi\n        /* \"#utility.yul\":8045:8046   */\n      0x00\n        /* \"#utility.yul\":8042:8043   */\n      0x00\n        /* \"#utility.yul\":8035:8047   */\n      revert\n        /* \"#utility.yul\":7997:8049   */\n    tag_387:\n        /* \"#utility.yul\":8077:8086   */\n      dup2\n        /* \"#utility.yul\":8071:8087   */\n      mload\n        /* \"#utility.yul\":8096:8127   */\n      tag_340\n        /* \"#utility.yul\":8121:8126   */\n      dup2\n        /* \"#utility.yul\":8096:8127   */\n      tag_327\n      jump\t// in\n        /* \"#utility.yul\":8861:9295   */\n    tag_270:\n        /* \"#utility.yul\":8943:8949   */\n      0x00\n        /* \"#utility.yul\":8951:8957   */\n      0x00\n        /* \"#utility.yul\":8959:8965   */\n      0x00\n        /* \"#utility.yul\":9012:9014   */\n      0x60\n        /* \"#utility.yul\":9000:9009   */\n      dup5\n        /* \"#utility.yul\":8991:8998   */\n      dup7\n        /* \"#utility.yul\":8987:9010   */\n      sub\n        /* \"#utility.yul\":8983:9015   */\n      slt\n        /* \"#utility.yul\":8980:9032   */\n      iszero\n      tag_392\n      jumpi\n        /* \"#utility.yul\":9028:9029   */\n      0x00\n        /* \"#utility.yul\":9025:9026   */\n      0x00\n        /* \"#utility.yul\":9018:9030   */\n      revert\n        /* \"#utility.yul\":8980:9032   */\n    tag_392:\n        /* \"#utility.yul\":9057:9066   */\n      dup4\n        /* \"#utility.yul\":9051:9067   */\n      mload\n        /* \"#utility.yul\":9041:9067   */\n      swap3\n      pop\n        /* \"#utility.yul\":9110:9112   */\n      0x20\n        /* \"#utility.yul\":9099:9108   */\n      dup5\n        /* \"#utility.yul\":9095:9113   */\n      add\n        /* \"#utility.yul\":9089:9114   */\n      mload\n        /* \"#utility.yul\":9123:9151   */\n      tag_393\n        /* \"#utility.yul\":9145:9150   */\n      dup2\n        /* \"#utility.yul\":9123:9151   */\n      tag_328\n      jump\t// in\n    tag_393:\n        /* \"#utility.yul\":9220:9222   */\n      0x40\n        /* \"#utility.yul\":9205:9223   */\n      dup6\n      add\n        /* \"#utility.yul\":9199:9224   */\n      mload\n        /* \"#utility.yul\":9170:9175   */\n      swap1\n      swap3\n      pop\n        /* \"#utility.yul\":9233:9263   */\n      tag_394\n        /* \"#utility.yul\":9199:9224   */\n      dup2\n        /* \"#utility.yul\":9233:9263   */\n      tag_328\n      jump\t// in\n    tag_394:\n        /* \"#utility.yul\":9282:9289   */\n      dup1\n        /* \"#utility.yul\":9272:9289   */\n      swap2\n      pop\n      pop\n        /* \"#utility.yul\":8861:9295   */\n      swap3\n      pop\n      swap3\n      pop\n      swap3\n      jump\t// out\n        /* \"#utility.yul\":10470:10606   */\n    tag_288:\n        /* \"#utility.yul\":10509:10512   */\n      0x00\n        /* \"#utility.yul\":10537:10542   */\n      dup2\n        /* \"#utility.yul\":10527:10566   */\n      tag_400\n      jumpi\n        /* \"#utility.yul\":10546:10564   */\n      tag_400\n      tag_326\n      jump\t// in\n    tag_400:\n      pop\n      not(0x00)\n        /* \"#utility.yul\":10582:10600   */\n      add\n      swap1\n        /* \"#utility.yul\":10470:10606   */\n      jump\t// out\n        /* \"#utility.yul\":10611:10746   */\n    tag_290:\n        /* \"#utility.yul\":10650:10653   */\n      0x00\n        /* \"#utility.yul\":10671:10688   */\n      0x01\n      dup3\n      add\n        /* \"#utility.yul\":10668:10711   */\n      tag_403\n      jumpi\n        /* \"#utility.yul\":10691:10709   */\n      tag_403\n      tag_326\n      jump\t// in\n    tag_403:\n      pop\n        /* \"#utility.yul\":10738:10739   */\n      0x01\n        /* \"#utility.yul\":10727:10740   */\n      add\n      swap1\n        /* \"#utility.yul\":10611:10746   */\n      jump\t// out\n\n    auxdata: 0xa2646970667358221220457a58b0e4dd5e6880e36b489fc45e86594abc6ef2783d3e50eb2c3d3d041c3964736f6c63430008220033\n}\n",
				"bytecode": {
					"linkReferences": {},
					"object": "608060405234801561000f575f5ffd5b506040516117a53803806117a583398101604081905261002e9161011a565b338061005357604051631e4fbdf760e01b81525f600482015260240160405180910390fd5b61005c816100b0565b50600180546001600160a01b039586166001600160a01b031991821617909155600280549486169482169490941790935560038054928516928416929092179091556004805491909316911617905561016b565b5f80546001600160a01b038381166001600160a01b0319831681178455604051919092169283917f8be0079c531659141344cd1fd0a4f28419497f9722a3daafe3b4186f6b6457e09190a35050565b80516001600160a01b0381168114610115575f5ffd5b919050565b5f5f5f5f6080858703121561012d575f5ffd5b610136856100ff565b9350610144602086016100ff565b9250610152604086016100ff565b9150610160606086016100ff565b905092959194509250565b61162d806101785f395ff3fe608060405260043610610134575f3560e01c80638da5cb5b116100a8578063a83cb9ab1161006d578063a83cb9ab146103ae578063bb6c0ae1146103d9578063c7e95e37146103f8578063da9129891461040d578063dd6c439814610422578063f2fde38b14610441575f5ffd5b80638da5cb5b146103015780638e9abef01461031d5780638ea8f83c1461033257806395ccea67146103515780639b19251a14610370575f5ffd5b80634e71d92d116100f95780634e71d92d1461026557806353d6fd591461027b578063545bf9ad1461029a578063641117f4146102af578063715018a6146102ce57806383db58fe146102e2575f5ffd5b806309aa92e3146101a75780632f48ab7d146101e55780633540beff1461021c57806348e66c041461023157806348fe85e214610250575f5ffd5b366101a3573460065f82825461014a919061130a565b909155505060408051818152600a818301526934b73b32b9ba2fb1373160b11b606082015234602082015290517f82d98a00c349d609e6ab098b00d153a6f84a70abfd6074c0dcc81c83e5e22ca89181900360800190a1005b5f5ffd5b3480156101b2575f5ffd5b506101d26101c1366004611337565b60096020525f908152604090205481565b6040519081526020015b60405180910390f35b3480156101f0575f5ffd5b50600454610204906001600160a01b031681565b6040516001600160a01b0390911681526020016101dc565b348015610227575f5ffd5b506101d260065481565b34801561023c575f5ffd5b50600254610204906001600160a01b031681565b34801561025b575f5ffd5b506101d260075481565b348015610270575f5ffd5b50610279610460565b005b348015610286575f5ffd5b50610279610295366004611366565b6108e7565b3480156102a5575f5ffd5b506101d260055481565b3480156102ba575f5ffd5b506102796102c93660046113b1565b610919565b3480156102d9575f5ffd5b50610279610b05565b3480156102ed575f5ffd5b506102796102fc36600461146e565b610b18565b34801561030c575f5ffd5b505f546001600160a01b0316610204565b348015610328575f5ffd5b506101d2600d5481565b34801561033d575f5ffd5b5061027961034c366004611485565b610c65565b34801561035c575f5ffd5b5061027961036b3660046114a5565b61115f565b34801561037b575f5ffd5b5061039e61038a366004611337565b600b6020525f908152604090205460ff1681565b60405190151581526020016101dc565b3480156103b9575f5ffd5b506101d26103c8366004611337565b600a6020525f908152604090205481565b3480156103e4575f5ffd5b50600154610204906001600160a01b031681565b348015610403575f5ffd5b506101d2600c5481565b348015610418575f5ffd5b506101d260085481565b34801561042d575f5ffd5b50600354610204906001600160a01b031681565b34801561044c575f5ffd5b5061027961045b366004611337565b61123e565b335f81815260096020908152604080832054600a909252909120548115158061048857508015155b6104c95760405162461bcd60e51b815260206004820152600d60248201526c139bc81858dd1a5d9948139195609a1b60448201526064015b60405180910390fd5b600d54600c545f918291829182916104e1919061130a565b9050805f036104f35750505050505050565b5f60055411801561051257505f600d54600c54610510919061130a565b115b156105ab57851580159061052757505f600c54115b1561056157600c546064600554604661054091906114cf565b61054a91906114e6565b61055491906114e6565b61055e908561130a565b93505b841580159061057157505f600d54115b156105ab57600d546064600554601e61058a91906114cf565b61059491906114e6565b61059e91906114e6565b6105a8908561130a565b93505b5f6008546007546105bc919061130a565b90505f811180156105db57505f600d54600c546105d9919061130a565b115b1561066c5786158015906105f057505f600c54115b1561062657600c5460646106058360466114cf565b61060f91906114e6565b61061991906114e6565b610623908561130a565b93505b851580159061063657505f600d54115b1561066c57600d54606461064b83601e6114cf565b61065591906114e6565b61065f91906114e6565b610669908561130a565b93505b5f60065411801561068b57505f600d54600c54610689919061130a565b115b156107245786158015906106a057505f600c54115b156106da57600c54606460065460466106b991906114cf565b6106c391906114e6565b6106cd91906114e6565b6106d7908461130a565b92505b85158015906106ea57505f600d54115b1561072457600d546064600654601e61070391906114cf565b61070d91906114e6565b61071791906114e6565b610721908461130a565b92505b84156107a2576004805460405163a9059cbb60e01b81526001600160a01b038b8116938201939093526024810188905291169063a9059cbb906044016020604051808303815f875af115801561077c573d5f5f3e3d5ffd5b505050506040513d601f19601f820116820180604052508101906107a09190611505565b505b831561081e5760015460405163a9059cbb60e01b81526001600160a01b038a81166004830152602482018790529091169063a9059cbb906044016020604051808303815f875af11580156107f8573d5f5f3e3d5ffd5b505050506040513d601f19601f8201168201806040525081019061081c9190611505565b505b8215610859576040516001600160a01b0389169084156108fc029085905f818181858888f19350505050158015610857573d5f5f3e3d5ffd5b505b8460055f82825461086a9190611520565b90915550505f600781905560088190556006805485929061088c908490611520565b909155505060408051868152602081018690529081018490526001600160a01b038916907f9cdcf2f7714cca3508c7f0110b04a90a80a3a8dd0e35de99689db74d28c5383e9060600160405180910390a25050505050505050565b6108ef61127b565b6001600160a01b03919091165f908152600b60205260409020805460ff1916911515919091179055565b6001546001600160a01b031633148061093b57505f546001600160a01b031633145b6109825760405162461bcd60e51b815260206004820152601860248201527727b7363c902927a6a0a72a37b5b2b71037b91037bbb732b960411b60448201526064016104c0565b6001546040516323b872dd60e01b8152336004820152306024820152604481018490526001600160a01b03909116906323b872dd906064016020604051808303815f875af11580156109d6573d5f5f3e3d5ffd5b505050506040513d601f19601f820116820180604052508101906109fa9190611505565b506040805180820190915260098152680616e74695f64756d760bc1b6020918201528151908201207fa3f057a9a7d57709b5114f83b343454e80cc0f1a75bf54e2a6643d70b90e72d201610a64578160075f828254610a59919061130a565b90915550610ac89050565b604080518082019091526009815268686173685f67616d6560b81b6020918201528151908201207fd1f02842571171eeaede1665bd9f96206160ba4123ea0c0035d2e3b1c40beafd01610ac8578160085f828254610ac2919061130a565b90915550505b7f82d98a00c349d609e6ab098b00d153a6f84a70abfd6074c0dcc81c83e5e22ca88183604051610af9929190611533565b60405180910390a15050565b610b0d61127b565b610b165f6112a7565b565b6001546001600160a01b0316331480610b3a57505f546001600160a01b031633145b610b815760405162461bcd60e51b815260206004820152601860248201527727b7363c902927a6a0a72a37b5b2b71037b91037bbb732b960411b60448201526064016104c0565b600480546040516323b872dd60e01b81523392810192909252306024830152604482018390526001600160a01b0316906323b872dd906064016020604051808303815f875af1158015610bd6573d5f5f3e3d5ffd5b505050506040513d601f19601f82011682018060405250810190610bfa9190611505565b508060055f828254610c0c919061130a565b9091555050604080518181526008818301526719995957dd5cd91d60c21b60608201526020810183905290517f82d98a00c349d609e6ab098b00d153a6f84a70abfd6074c0dcc81c83e5e22ca89181900360800190a150565b338215610d27576002546040516331a9108f60e11b8152600481018590526001600160a01b03838116921690636352211e90602401602060405180830381865afa158015610cb5573d5f5f3e3d5ffd5b505050506040513d601f19601f82011682018060405250810190610cd9919061156f565b6001600160a01b031614610d275760405162461bcd60e51b8152602060048201526015602482015274139bdd081bdddb995c881bd9881b585a5b88139195605a1b60448201526064016104c0565b8115610de7576003546040516331a9108f60e11b8152600481018490526001600160a01b03838116921690636352211e90602401602060405180830381865afa158015610d76573d5f5f3e3d5ffd5b505050506040513d601f19601f82011682018060405250810190610d9a919061156f565b6001600160a01b031614610de75760405162461bcd60e51b8152602060048201526014602482015273139bdd081bdddb995c881bd9881cdd588813919560621b60448201526064016104c0565b60015460405163ea0d5dcd60e01b81526001600160a01b0383811660048301525f92839291169063ea0d5dcd90602401606060405180830381865afa158015610e32573d5f5f3e3d5ffd5b505050506040513d601f19601f82011682018060405250810190610e56919061158a565b509150915066071afd498d00008210158015610e6f5750805b610ebb5760405162461bcd60e51b815260206004820181905260248201527f4e656564206174206c6561737420302e3220424e4220696e766573746d656e7460448201526064016104c0565b6001600160a01b0383165f908152600b602052604090205460ff16610ffe576001600160a01b0383165f908152600960205260409020541580610f1457506001600160a01b0383165f9081526009602052604090205485145b610f6c5760405162461bcd60e51b8152602060048201526024808201527f416c72656164792061637469766174656420646966666572656e74206d61696e6044820152630813919560e21b60648201526084016104c0565b6001600160a01b0383165f908152600a60205260409020541580610fa657506001600160a01b0383165f908152600a602052604090205484145b610ffe5760405162461bcd60e51b815260206004820152602360248201527f416c72656164792061637469766174656420646966666572656e74207375622060448201526213919560ea1b60648201526084016104c0565b841580159061102457506001600160a01b0383165f908152600960205260409020548514155b15611089576001600160a01b0383165f908152600960205260409020541561105b57600c8054905f611055836115ca565b91905055505b6001600160a01b0383165f908152600960205260408120869055600c805491611083836115df565b91905055505b83158015906110af57506001600160a01b0383165f908152600a60205260409020548414155b15611114576001600160a01b0383165f908152600a6020526040902054156110e657600d8054905f6110e0836115ca565b91905055505b6001600160a01b0383165f908152600a60205260408120859055600d80549161110e836115df565b91905055505b60408051868152602081018690526001600160a01b038516917ff89be561c4ce44410305a86555ebae8b579de22890a703ac89051c5971b5d4dc910160405180910390a25050505050565b61116761127b565b6001600160a01b0382166111b0575f80546040516001600160a01b039091169183156108fc02918491818181858888f193505050501580156111ab573d5f5f3e3d5ffd5b505050565b816001600160a01b031663a9059cbb6111d05f546001600160a01b031690565b6040516001600160e01b031960e084901b1681526001600160a01b039091166004820152602481018490526044016020604051808303815f875af115801561121a573d5f5f3e3d5ffd5b505050506040513d601f19601f820116820180604052508101906111ab9190611505565b61124661127b565b6001600160a01b03811661126f57604051631e4fbdf760e01b81525f60048201526024016104c0565b611278816112a7565b50565b5f546001600160a01b03163314610b165760405163118cdaa760e01b81523360048201526024016104c0565b5f80546001600160a01b038381166001600160a01b0319831681178455604051919092169283917f8be0079c531659141344cd1fd0a4f28419497f9722a3daafe3b4186f6b6457e09190a35050565b634e487b7160e01b5f52601160045260245ffd5b8082018082111561131d5761131d6112f6565b92915050565b6001600160a01b0381168114611278575f5ffd5b5f60208284031215611347575f5ffd5b813561135281611323565b9392505050565b8015158114611278575f5ffd5b5f5f60408385031215611377575f5ffd5b823561138281611323565b9150602083013561139281611359565b809150509250929050565b634e487b7160e01b5f52604160045260245ffd5b5f5f604083850312156113c2575f5ffd5b82359150602083013567ffffffffffffffff8111156113df575f5ffd5b8301601f810185136113ef575f5ffd5b803567ffffffffffffffff8111156114095761140961139d565b604051601f8201601f19908116603f0116810167ffffffffffffffff811182821017156114385761143861139d565b60405281815282820160200187101561144f575f5ffd5b816020840160208301375f602083830101528093505050509250929050565b5f6020828403121561147e575f5ffd5b5035919050565b5f5f60408385031215611496575f5ffd5b50508035926020909101359150565b5f5f604083850312156114b6575f5ffd5b82356114c181611323565b946020939093013593505050565b808202811582820484141761131d5761131d6112f6565b5f8261150057634e487b7160e01b5f52601260045260245ffd5b500490565b5f60208284031215611515575f5ffd5b815161135281611359565b8181038181111561131d5761131d6112f6565b604081525f83518060408401528060208601606085015e5f606082850101526060601f19601f8301168401019150508260208301529392505050565b5f6020828403121561157f575f5ffd5b815161135281611323565b5f5f5f6060848603121561159c575f5ffd5b8351925060208401516115ae81611359565b60408501519092506115bf81611359565b809150509250925092565b5f816115d8576115d86112f6565b505f190190565b5f600182016115f0576115f06112f6565b506001019056fea2646970667358221220457a58b0e4dd5e6880e36b489fc45e86594abc6ef2783d3e50eb2c3d3d041c3964736f6c63430008220033",
					"opcodes": "PUSH1 0x80 PUSH1 0x40 MSTORE CALLVALUE DUP1 ISZERO PUSH2 0xF JUMPI PUSH0 PUSH0 REVERT JUMPDEST POP PUSH1 0x40 MLOAD PUSH2 0x17A5 CODESIZE SUB DUP1 PUSH2 0x17A5 DUP4 CODECOPY DUP2 ADD PUSH1 0x40 DUP2 SWAP1 MSTORE PUSH2 0x2E SWAP2 PUSH2 0x11A JUMP JUMPDEST CALLER DUP1 PUSH2 0x53 JUMPI PUSH1 0x40 MLOAD PUSH4 0x1E4FBDF7 PUSH1 0xE0 SHL DUP2 MSTORE PUSH0 PUSH1 0x4 DUP3 ADD MSTORE PUSH1 0x24 ADD PUSH1 0x40 MLOAD DUP1 SWAP2 SUB SWAP1 REVERT JUMPDEST PUSH2 0x5C DUP2 PUSH2 0xB0 JUMP JUMPDEST POP PUSH1 0x1 DUP1 SLOAD PUSH1 0x1 PUSH1 0x1 PUSH1 0xA0 SHL SUB SWAP6 DUP7 AND PUSH1 0x1 PUSH1 0x1 PUSH1 0xA0 SHL SUB NOT SWAP2 DUP3 AND OR SWAP1 SWAP2 SSTORE PUSH1 0x2 DUP1 SLOAD SWAP5 DUP7 AND SWAP5 DUP3 AND SWAP5 SWAP1 SWAP5 OR SWAP1 SWAP4 SSTORE PUSH1 0x3 DUP1 SLOAD SWAP3 DUP6 AND SWAP3 DUP5 AND SWAP3 SWAP1 SWAP3 OR SWAP1 SWAP2 SSTORE PUSH1 0x4 DUP1 SLOAD SWAP2 SWAP1 SWAP4 AND SWAP2 AND OR SWAP1 SSTORE PUSH2 0x16B JUMP JUMPDEST PUSH0 DUP1 SLOAD PUSH1 0x1 PUSH1 0x1 PUSH1 0xA0 SHL SUB DUP4 DUP2 AND PUSH1 0x1 PUSH1 0x1 PUSH1 0xA0 SHL SUB NOT DUP4 AND DUP2 OR DUP5 SSTORE PUSH1 0x40 MLOAD SWAP2 SWAP1 SWAP3 AND SWAP3 DUP4 SWAP2 PUSH32 0x8BE0079C531659141344CD1FD0A4F28419497F9722A3DAAFE3B4186F6B6457E0 SWAP2 SWAP1 LOG3 POP POP JUMP JUMPDEST DUP1 MLOAD PUSH1 0x1 PUSH1 0x1 PUSH1 0xA0 SHL SUB DUP2 AND DUP2 EQ PUSH2 0x115 JUMPI PUSH0 PUSH0 REVERT JUMPDEST SWAP2 SWAP1 POP JUMP JUMPDEST PUSH0 PUSH0 PUSH0 PUSH0 PUSH1 0x80 DUP6 DUP8 SUB SLT ISZERO PUSH2 0x12D JUMPI PUSH0 PUSH0 REVERT JUMPDEST PUSH2 0x136 DUP6 PUSH2 0xFF JUMP JUMPDEST SWAP4 POP PUSH2 0x144 PUSH1 0x20 DUP7 ADD PUSH2 0xFF JUMP JUMPDEST SWAP3 POP PUSH2 0x152 PUSH1 0x40 DUP7 ADD PUSH2 0xFF JUMP JUMPDEST SWAP2 POP PUSH2 0x160 PUSH1 0x60 DUP7 ADD PUSH2 0xFF JUMP JUMPDEST SWAP1 POP SWAP3 SWAP6 SWAP2 SWAP5 POP SWAP3 POP JUMP JUMPDEST PUSH2 0x162D DUP1 PUSH2 0x178 PUSH0 CODECOPY PUSH0 RETURN INVALID PUSH1 0x80 PUSH1 0x40 MSTORE PUSH1 0x4 CALLDATASIZE LT PUSH2 0x134 JUMPI PUSH0 CALLDATALOAD PUSH1 0xE0 SHR DUP1 PUSH4 0x8DA5CB5B GT PUSH2 0xA8 JUMPI DUP1 PUSH4 0xA83CB9AB GT PUSH2 0x6D JUMPI DUP1 PUSH4 0xA83CB9AB EQ PUSH2 0x3AE JUMPI DUP1 PUSH4 0xBB6C0AE1 EQ PUSH2 0x3D9 JUMPI DUP1 PUSH4 0xC7E95E37 EQ PUSH2 0x3F8 JUMPI DUP1 PUSH4 0xDA912989 EQ PUSH2 0x40D JUMPI DUP1 PUSH4 0xDD6C4398 EQ PUSH2 0x422 JUMPI DUP1 PUSH4 0xF2FDE38B EQ PUSH2 0x441 JUMPI PUSH0 PUSH0 REVERT JUMPDEST DUP1 PUSH4 0x8DA5CB5B EQ PUSH2 0x301 JUMPI DUP1 PUSH4 0x8E9ABEF0 EQ PUSH2 0x31D JUMPI DUP1 PUSH4 0x8EA8F83C EQ PUSH2 0x332 JUMPI DUP1 PUSH4 0x95CCEA67 EQ PUSH2 0x351 JUMPI DUP1 PUSH4 0x9B19251A EQ PUSH2 0x370 JUMPI PUSH0 PUSH0 REVERT JUMPDEST DUP1 PUSH4 0x4E71D92D GT PUSH2 0xF9 JUMPI DUP1 PUSH4 0x4E71D92D EQ PUSH2 0x265 JUMPI DUP1 PUSH4 0x53D6FD59 EQ PUSH2 0x27B JUMPI DUP1 PUSH4 0x545BF9AD EQ PUSH2 0x29A JUMPI DUP1 PUSH4 0x641117F4 EQ PUSH2 0x2AF JUMPI DUP1 PUSH4 0x715018A6 EQ PUSH2 0x2CE JUMPI DUP1 PUSH4 0x83DB58FE EQ PUSH2 0x2E2 JUMPI PUSH0 PUSH0 REVERT JUMPDEST DUP1 PUSH4 0x9AA92E3 EQ PUSH2 0x1A7 JUMPI DUP1 PUSH4 0x2F48AB7D EQ PUSH2 0x1E5 JUMPI DUP1 PUSH4 0x3540BEFF EQ PUSH2 0x21C JUMPI DUP1 PUSH4 0x48E66C04 EQ PUSH2 0x231 JUMPI DUP1 PUSH4 0x48FE85E2 EQ PUSH2 0x250 JUMPI PUSH0 PUSH0 REVERT JUMPDEST CALLDATASIZE PUSH2 0x1A3 JUMPI CALLVALUE PUSH1 0x6 PUSH0 DUP3 DUP3 SLOAD PUSH2 0x14A SWAP2 SWAP1 PUSH2 0x130A JUMP JUMPDEST SWAP1 SWAP2 SSTORE POP POP PUSH1 0x40 DUP1 MLOAD DUP2 DUP2 MSTORE PUSH1 0xA DUP2 DUP4 ADD MSTORE PUSH10 0x34B73B32B9BA2FB13731 PUSH1 0xB1 SHL PUSH1 0x60 DUP3 ADD MSTORE CALLVALUE PUSH1 0x20 DUP3 ADD MSTORE SWAP1 MLOAD PUSH32 0x82D98A00C349D609E6AB098B00D153A6F84A70ABFD6074C0DCC81C83E5E22CA8 SWAP2 DUP2 SWAP1 SUB PUSH1 0x80 ADD SWAP1 LOG1 STOP JUMPDEST PUSH0 PUSH0 REVERT JUMPDEST CALLVALUE DUP1 ISZERO PUSH2 0x1B2 JUMPI PUSH0 PUSH0 REVERT JUMPDEST POP PUSH2 0x1D2 PUSH2 0x1C1 CALLDATASIZE PUSH1 0x4 PUSH2 0x1337 JUMP JUMPDEST PUSH1 0x9 PUSH1 0x20 MSTORE PUSH0 SWAP1 DUP2 MSTORE PUSH1 0x40 SWAP1 KECCAK256 SLOAD DUP2 JUMP JUMPDEST PUSH1 0x40 MLOAD SWAP1 DUP2 MSTORE PUSH1 0x20 ADD JUMPDEST PUSH1 0x40 MLOAD DUP1 SWAP2 SUB SWAP1 RETURN JUMPDEST CALLVALUE DUP1 ISZERO PUSH2 0x1F0 JUMPI PUSH0 PUSH0 REVERT JUMPDEST POP PUSH1 0x4 SLOAD PUSH2 0x204 SWAP1 PUSH1 0x1 PUSH1 0x1 PUSH1 0xA0 SHL SUB AND DUP2 JUMP JUMPDEST PUSH1 0x40 MLOAD PUSH1 0x1 PUSH1 0x1 PUSH1 0xA0 SHL SUB SWAP1 SWAP2 AND DUP2 MSTORE PUSH1 0x20 ADD PUSH2 0x1DC JUMP JUMPDEST CALLVALUE DUP1 ISZERO PUSH2 0x227 JUMPI PUSH0 PUSH0 REVERT JUMPDEST POP PUSH2 0x1D2 PUSH1 0x6 SLOAD DUP2 JUMP JUMPDEST CALLVALUE DUP1 ISZERO PUSH2 0x23C JUMPI PUSH0 PUSH0 REVERT JUMPDEST POP PUSH1 0x2 SLOAD PUSH2 0x204 SWAP1 PUSH1 0x1 PUSH1 0x1 PUSH1 0xA0 SHL SUB AND DUP2 JUMP JUMPDEST CALLVALUE DUP1 ISZERO PUSH2 0x25B JUMPI PUSH0 PUSH0 REVERT JUMPDEST POP PUSH2 0x1D2 PUSH1 0x7 SLOAD DUP2 JUMP JUMPDEST CALLVALUE DUP1 ISZERO PUSH2 0x270 JUMPI PUSH0 PUSH0 REVERT JUMPDEST POP PUSH2 0x279 PUSH2 0x460 JUMP JUMPDEST STOP JUMPDEST CALLVALUE DUP1 ISZERO PUSH2 0x286 JUMPI PUSH0 PUSH0 REVERT JUMPDEST POP PUSH2 0x279 PUSH2 0x295 CALLDATASIZE PUSH1 0x4 PUSH2 0x1366 JUMP JUMPDEST PUSH2 0x8E7 JUMP JUMPDEST CALLVALUE DUP1 ISZERO PUSH2 0x2A5 JUMPI PUSH0 PUSH0 REVERT JUMPDEST POP PUSH2 0x1D2 PUSH1 0x5 SLOAD DUP2 JUMP JUMPDEST CALLVALUE DUP1 ISZERO PUSH2 0x2BA JUMPI PUSH0 PUSH0 REVERT JUMPDEST POP PUSH2 0x279 PUSH2 0x2C9 CALLDATASIZE PUSH1 0x4 PUSH2 0x13B1 JUMP JUMPDEST PUSH2 0x919 JUMP JUMPDEST CALLVALUE DUP1 ISZERO PUSH2 0x2D9 JUMPI PUSH0 PUSH0 REVERT JUMPDEST POP PUSH2 0x279 PUSH2 0xB05 JUMP JUMPDEST CALLVALUE DUP1 ISZERO PUSH2 0x2ED JUMPI PUSH0 PUSH0 REVERT JUMPDEST POP PUSH2 0x279 PUSH2 0x2FC CALLDATASIZE PUSH1 0x4 PUSH2 0x146E JUMP JUMPDEST PUSH2 0xB18 JUMP JUMPDEST CALLVALUE DUP1 ISZERO PUSH2 0x30C JUMPI PUSH0 PUSH0 REVERT JUMPDEST POP PUSH0 SLOAD PUSH1 0x1 PUSH1 0x1 PUSH1 0xA0 SHL SUB AND PUSH2 0x204 JUMP JUMPDEST CALLVALUE DUP1 ISZERO PUSH2 0x328 JUMPI PUSH0 PUSH0 REVERT JUMPDEST POP PUSH2 0x1D2 PUSH1 0xD SLOAD DUP2 JUMP JUMPDEST CALLVALUE DUP1 ISZERO PUSH2 0x33D JUMPI PUSH0 PUSH0 REVERT JUMPDEST POP PUSH2 0x279 PUSH2 0x34C CALLDATASIZE PUSH1 0x4 PUSH2 0x1485 JUMP JUMPDEST PUSH2 0xC65 JUMP JUMPDEST CALLVALUE DUP1 ISZERO PUSH2 0x35C JUMPI PUSH0 PUSH0 REVERT JUMPDEST POP PUSH2 0x279 PUSH2 0x36B CALLDATASIZE PUSH1 0x4 PUSH2 0x14A5 JUMP JUMPDEST PUSH2 0x115F JUMP JUMPDEST CALLVALUE DUP1 ISZERO PUSH2 0x37B JUMPI PUSH0 PUSH0 REVERT JUMPDEST POP PUSH2 0x39E PUSH2 0x38A CALLDATASIZE PUSH1 0x4 PUSH2 0x1337 JUMP JUMPDEST PUSH1 0xB PUSH1 0x20 MSTORE PUSH0 SWAP1 DUP2 MSTORE PUSH1 0x40 SWAP1 KECCAK256 SLOAD PUSH1 0xFF AND DUP2 JUMP JUMPDEST PUSH1 0x40 MLOAD SWAP1 ISZERO ISZERO DUP2 MSTORE PUSH1 0x20 ADD PUSH2 0x1DC JUMP JUMPDEST CALLVALUE DUP1 ISZERO PUSH2 0x3B9 JUMPI PUSH0 PUSH0 REVERT JUMPDEST POP PUSH2 0x1D2 PUSH2 0x3C8 CALLDATASIZE PUSH1 0x4 PUSH2 0x1337 JUMP JUMPDEST PUSH1 0xA PUSH1 0x20 MSTORE PUSH0 SWAP1 DUP2 MSTORE PUSH1 0x40 SWAP1 KECCAK256 SLOAD DUP2 JUMP JUMPDEST CALLVALUE DUP1 ISZERO PUSH2 0x3E4 JUMPI PUSH0 PUSH0 REVERT JUMPDEST POP PUSH1 0x1 SLOAD PUSH2 0x204 SWAP1 PUSH1 0x1 PUSH1 0x1 PUSH1 0xA0 SHL SUB AND DUP2 JUMP JUMPDEST CALLVALUE DUP1 ISZERO PUSH2 0x403 JUMPI PUSH0 PUSH0 REVERT JUMPDEST POP PUSH2 0x1D2 PUSH1 0xC SLOAD DUP2 JUMP JUMPDEST CALLVALUE DUP1 ISZERO PUSH2 0x418 JUMPI PUSH0 PUSH0 REVERT JUMPDEST POP PUSH2 0x1D2 PUSH1 0x8 SLOAD DUP2 JUMP JUMPDEST CALLVALUE DUP1 ISZERO PUSH2 0x42D JUMPI PUSH0 PUSH0 REVERT JUMPDEST POP PUSH1 0x3 SLOAD PUSH2 0x204 SWAP1 PUSH1 0x1 PUSH1 0x1 PUSH1 0xA0 SHL SUB AND DUP2 JUMP JUMPDEST CALLVALUE DUP1 ISZERO PUSH2 0x44C JUMPI PUSH0 PUSH0 REVERT JUMPDEST POP PUSH2 0x279 PUSH2 0x45B CALLDATASIZE PUSH1 0x4 PUSH2 0x1337 JUMP JUMPDEST PUSH2 0x123E JUMP JUMPDEST CALLER PUSH0 DUP2 DUP2 MSTORE PUSH1 0x9 PUSH1 0x20 SWAP1 DUP2 MSTORE PUSH1 0x40 DUP1 DUP4 KECCAK256 SLOAD PUSH1 0xA SWAP1 SWAP3 MSTORE SWAP1 SWAP2 KECCAK256 SLOAD DUP2 ISZERO ISZERO DUP1 PUSH2 0x488 JUMPI POP DUP1 ISZERO ISZERO JUMPDEST PUSH2 0x4C9 JUMPI PUSH1 0x40 MLOAD PUSH3 0x461BCD PUSH1 0xE5 SHL DUP2 MSTORE PUSH1 0x20 PUSH1 0x4 DUP3 ADD MSTORE PUSH1 0xD PUSH1 0x24 DUP3 ADD MSTORE PUSH13 0x139BC81858DD1A5D9948139195 PUSH1 0x9A SHL PUSH1 0x44 DUP3 ADD MSTORE PUSH1 0x64 ADD JUMPDEST PUSH1 0x40 MLOAD DUP1 SWAP2 SUB SWAP1 REVERT JUMPDEST PUSH1 0xD SLOAD PUSH1 0xC SLOAD PUSH0 SWAP2 DUP3 SWAP2 DUP3 SWAP2 DUP3 SWAP2 PUSH2 0x4E1 SWAP2 SWAP1 PUSH2 0x130A JUMP JUMPDEST SWAP1 POP DUP1 PUSH0 SUB PUSH2 0x4F3 JUMPI POP POP POP POP POP POP POP JUMP JUMPDEST PUSH0 PUSH1 0x5 SLOAD GT DUP1 ISZERO PUSH2 0x512 JUMPI POP PUSH0 PUSH1 0xD SLOAD PUSH1 0xC SLOAD PUSH2 0x510 SWAP2 SWAP1 PUSH2 0x130A JUMP JUMPDEST GT JUMPDEST ISZERO PUSH2 0x5AB JUMPI DUP6 ISZERO DUP1 ISZERO SWAP1 PUSH2 0x527 JUMPI POP PUSH0 PUSH1 0xC SLOAD GT JUMPDEST ISZERO PUSH2 0x561 JUMPI PUSH1 0xC SLOAD PUSH1 0x64 PUSH1 0x5 SLOAD PUSH1 0x46 PUSH2 0x540 SWAP2 SWAP1 PUSH2 0x14CF JUMP JUMPDEST PUSH2 0x54A SWAP2 SWAP1 PUSH2 0x14E6 JUMP JUMPDEST PUSH2 0x554 SWAP2 SWAP1 PUSH2 0x14E6 JUMP JUMPDEST PUSH2 0x55E SWAP1 DUP6 PUSH2 0x130A JUMP JUMPDEST SWAP4 POP JUMPDEST DUP5 ISZERO DUP1 ISZERO SWAP1 PUSH2 0x571 JUMPI POP PUSH0 PUSH1 0xD SLOAD GT JUMPDEST ISZERO PUSH2 0x5AB JUMPI PUSH1 0xD SLOAD PUSH1 0x64 PUSH1 0x5 SLOAD PUSH1 0x1E PUSH2 0x58A SWAP2 SWAP1 PUSH2 0x14CF JUMP JUMPDEST PUSH2 0x594 SWAP2 SWAP1 PUSH2 0x14E6 JUMP JUMPDEST PUSH2 0x59E SWAP2 SWAP1 PUSH2 0x14E6 JUMP JUMPDEST PUSH2 0x5A8 SWAP1 DUP6 PUSH2 0x130A JUMP JUMPDEST SWAP4 POP JUMPDEST PUSH0 PUSH1 0x8 SLOAD PUSH1 0x7 SLOAD PUSH2 0x5BC SWAP2 SWAP1 PUSH2 0x130A JUMP JUMPDEST SWAP1 POP PUSH0 DUP2 GT DUP1 ISZERO PUSH2 0x5DB JUMPI POP PUSH0 PUSH1 0xD SLOAD PUSH1 0xC SLOAD PUSH2 0x5D9 SWAP2 SWAP1 PUSH2 0x130A JUMP JUMPDEST GT JUMPDEST ISZERO PUSH2 0x66C JUMPI DUP7 ISZERO DUP1 ISZERO SWAP1 PUSH2 0x5F0 JUMPI POP PUSH0 PUSH1 0xC SLOAD GT JUMPDEST ISZERO PUSH2 0x626 JUMPI PUSH1 0xC SLOAD PUSH1 0x64 PUSH2 0x605 DUP4 PUSH1 0x46 PUSH2 0x14CF JUMP JUMPDEST PUSH2 0x60F SWAP2 SWAP1 PUSH2 0x14E6 JUMP JUMPDEST PUSH2 0x619 SWAP2 SWAP1 PUSH2 0x14E6 JUMP JUMPDEST PUSH2 0x623 SWAP1 DUP6 PUSH2 0x130A JUMP JUMPDEST SWAP4 POP JUMPDEST DUP6 ISZERO DUP1 ISZERO SWAP1 PUSH2 0x636 JUMPI POP PUSH0 PUSH1 0xD SLOAD GT JUMPDEST ISZERO PUSH2 0x66C JUMPI PUSH1 0xD SLOAD PUSH1 0x64 PUSH2 0x64B DUP4 PUSH1 0x1E PUSH2 0x14CF JUMP JUMPDEST PUSH2 0x655 SWAP2 SWAP1 PUSH2 0x14E6 JUMP JUMPDEST PUSH2 0x65F SWAP2 SWAP1 PUSH2 0x14E6 JUMP JUMPDEST PUSH2 0x669 SWAP1 DUP6 PUSH2 0x130A JUMP JUMPDEST SWAP4 POP JUMPDEST PUSH0 PUSH1 0x6 SLOAD GT DUP1 ISZERO PUSH2 0x68B JUMPI POP PUSH0 PUSH1 0xD SLOAD PUSH1 0xC SLOAD PUSH2 0x689 SWAP2 SWAP1 PUSH2 0x130A JUMP JUMPDEST GT JUMPDEST ISZERO PUSH2 0x724 JUMPI DUP7 ISZERO DUP1 ISZERO SWAP1 PUSH2 0x6A0 JUMPI POP PUSH0 PUSH1 0xC SLOAD GT JUMPDEST ISZERO PUSH2 0x6DA JUMPI PUSH1 0xC SLOAD PUSH1 0x64 PUSH1 0x6 SLOAD PUSH1 0x46 PUSH2 0x6B9 SWAP2 SWAP1 PUSH2 0x14CF JUMP JUMPDEST PUSH2 0x6C3 SWAP2 SWAP1 PUSH2 0x14E6 JUMP JUMPDEST PUSH2 0x6CD SWAP2 SWAP1 PUSH2 0x14E6 JUMP JUMPDEST PUSH2 0x6D7 SWAP1 DUP5 PUSH2 0x130A JUMP JUMPDEST SWAP3 POP JUMPDEST DUP6 ISZERO DUP1 ISZERO SWAP1 PUSH2 0x6EA JUMPI POP PUSH0 PUSH1 0xD SLOAD GT JUMPDEST ISZERO PUSH2 0x724 JUMPI PUSH1 0xD SLOAD PUSH1 0x64 PUSH1 0x6 SLOAD PUSH1 0x1E PUSH2 0x703 SWAP2 SWAP1 PUSH2 0x14CF JUMP JUMPDEST PUSH2 0x70D SWAP2 SWAP1 PUSH2 0x14E6 JUMP JUMPDEST PUSH2 0x717 SWAP2 SWAP1 PUSH2 0x14E6 JUMP JUMPDEST PUSH2 0x721 SWAP1 DUP5 PUSH2 0x130A JUMP JUMPDEST SWAP3 POP JUMPDEST DUP5 ISZERO PUSH2 0x7A2 JUMPI PUSH1 0x4 DUP1 SLOAD PUSH1 0x40 MLOAD PUSH4 0xA9059CBB PUSH1 0xE0 SHL DUP2 MSTORE PUSH1 0x1 PUSH1 0x1 PUSH1 0xA0 SHL SUB DUP12 DUP2 AND SWAP4 DUP3 ADD SWAP4 SWAP1 SWAP4 MSTORE PUSH1 0x24 DUP2 ADD DUP9 SWAP1 MSTORE SWAP2 AND SWAP1 PUSH4 0xA9059CBB SWAP1 PUSH1 0x44 ADD PUSH1 0x20 PUSH1 0x40 MLOAD DUP1 DUP4 SUB DUP2 PUSH0 DUP8 GAS CALL ISZERO DUP1 ISZERO PUSH2 0x77C JUMPI RETURNDATASIZE PUSH0 PUSH0 RETURNDATACOPY RETURNDATASIZE PUSH0 REVERT JUMPDEST POP POP POP POP PUSH1 0x40 MLOAD RETURNDATASIZE PUSH1 0x1F NOT PUSH1 0x1F DUP3 ADD AND DUP3 ADD DUP1 PUSH1 0x40 MSTORE POP DUP2 ADD SWAP1 PUSH2 0x7A0 SWAP2 SWAP1 PUSH2 0x1505 JUMP JUMPDEST POP JUMPDEST DUP4 ISZERO PUSH2 0x81E JUMPI PUSH1 0x1 SLOAD PUSH1 0x40 MLOAD PUSH4 0xA9059CBB PUSH1 0xE0 SHL DUP2 MSTORE PUSH1 0x1 PUSH1 0x1 PUSH1 0xA0 SHL SUB DUP11 DUP2 AND PUSH1 0x4 DUP4 ADD MSTORE PUSH1 0x24 DUP3 ADD DUP8 SWAP1 MSTORE SWAP1 SWAP2 AND SWAP1 PUSH4 0xA9059CBB SWAP1 PUSH1 0x44 ADD PUSH1 0x20 PUSH1 0x40 MLOAD DUP1 DUP4 SUB DUP2 PUSH0 DUP8 GAS CALL ISZERO DUP1 ISZERO PUSH2 0x7F8 JUMPI RETURNDATASIZE PUSH0 PUSH0 RETURNDATACOPY RETURNDATASIZE PUSH0 REVERT JUMPDEST POP POP POP POP PUSH1 0x40 MLOAD RETURNDATASIZE PUSH1 0x1F NOT PUSH1 0x1F DUP3 ADD AND DUP3 ADD DUP1 PUSH1 0x40 MSTORE POP DUP2 ADD SWAP1 PUSH2 0x81C SWAP2 SWAP1 PUSH2 0x1505 JUMP JUMPDEST POP JUMPDEST DUP3 ISZERO PUSH2 0x859 JUMPI PUSH1 0x40 MLOAD PUSH1 0x1 PUSH1 0x1 PUSH1 0xA0 SHL SUB DUP10 AND SWAP1 DUP5 ISZERO PUSH2 0x8FC MUL SWAP1 DUP6 SWAP1 PUSH0 DUP2 DUP2 DUP2 DUP6 DUP9 DUP9 CALL SWAP4 POP POP POP POP ISZERO DUP1 ISZERO PUSH2 0x857 JUMPI RETURNDATASIZE PUSH0 PUSH0 RETURNDATACOPY RETURNDATASIZE PUSH0 REVERT JUMPDEST POP JUMPDEST DUP5 PUSH1 0x5 PUSH0 DUP3 DUP3 SLOAD PUSH2 0x86A SWAP2 SWAP1 PUSH2 0x1520 JUMP JUMPDEST SWAP1 SWAP2 SSTORE POP POP PUSH0 PUSH1 0x7 DUP2 SWAP1 SSTORE PUSH1 0x8 DUP2 SWAP1 SSTORE PUSH1 0x6 DUP1 SLOAD DUP6 SWAP3 SWAP1 PUSH2 0x88C SWAP1 DUP5 SWAP1 PUSH2 0x1520 JUMP JUMPDEST SWAP1 SWAP2 SSTORE POP POP PUSH1 0x40 DUP1 MLOAD DUP7 DUP2 MSTORE PUSH1 0x20 DUP2 ADD DUP7 SWAP1 MSTORE SWAP1 DUP2 ADD DUP5 SWAP1 MSTORE PUSH1 0x1 PUSH1 0x1 PUSH1 0xA0 SHL SUB DUP10 AND SWAP1 PUSH32 0x9CDCF2F7714CCA3508C7F0110B04A90A80A3A8DD0E35DE99689DB74D28C5383E SWAP1 PUSH1 0x60 ADD PUSH1 0x40 MLOAD DUP1 SWAP2 SUB SWAP1 LOG2 POP POP POP POP POP POP POP POP JUMP JUMPDEST PUSH2 0x8EF PUSH2 0x127B JUMP JUMPDEST PUSH1 0x1 PUSH1 0x1 PUSH1 0xA0 SHL SUB SWAP2 SWAP1 SWAP2 AND PUSH0 SWAP1 DUP2 MSTORE PUSH1 0xB PUSH1 0x20 MSTORE PUSH1 0x40 SWAP1 KECCAK256 DUP1 SLOAD PUSH1 0xFF NOT AND SWAP2 ISZERO ISZERO SWAP2 SWAP1 SWAP2 OR SWAP1 SSTORE JUMP JUMPDEST PUSH1 0x1 SLOAD PUSH1 0x1 PUSH1 0x1 PUSH1 0xA0 SHL SUB AND CALLER EQ DUP1 PUSH2 0x93B JUMPI POP PUSH0 SLOAD PUSH1 0x1 PUSH1 0x1 PUSH1 0xA0 SHL SUB AND CALLER EQ JUMPDEST PUSH2 0x982 JUMPI PUSH1 0x40 MLOAD PUSH3 0x461BCD PUSH1 0xE5 SHL DUP2 MSTORE PUSH1 0x20 PUSH1 0x4 DUP3 ADD MSTORE PUSH1 0x18 PUSH1 0x24 DUP3 ADD MSTORE PUSH24 0x27B7363C902927A6A0A72A37B5B2B71037B91037BBB732B9 PUSH1 0x41 SHL PUSH1 0x44 DUP3 ADD MSTORE PUSH1 0x64 ADD PUSH2 0x4C0 JUMP JUMPDEST PUSH1 0x1 SLOAD PUSH1 0x40 MLOAD PUSH4 0x23B872DD PUSH1 0xE0 SHL DUP2 MSTORE CALLER PUSH1 0x4 DUP3 ADD MSTORE ADDRESS PUSH1 0x24 DUP3 ADD MSTORE PUSH1 0x44 DUP2 ADD DUP5 SWAP1 MSTORE PUSH1 0x1 PUSH1 0x1 PUSH1 0xA0 SHL SUB SWAP1 SWAP2 AND SWAP1 PUSH4 0x23B872DD SWAP1 PUSH1 0x64 ADD PUSH1 0x20 PUSH1 0x40 MLOAD DUP1 DUP4 SUB DUP2 PUSH0 DUP8 GAS CALL ISZERO DUP1 ISZERO PUSH2 0x9D6 JUMPI RETURNDATASIZE PUSH0 PUSH0 RETURNDATACOPY RETURNDATASIZE PUSH0 REVERT JUMPDEST POP POP POP POP PUSH1 0x40 MLOAD RETURNDATASIZE PUSH1 0x1F NOT PUSH1 0x1F DUP3 ADD AND DUP3 ADD DUP1 PUSH1 0x40 MSTORE POP DUP2 ADD SWAP1 PUSH2 0x9FA SWAP2 SWAP1 PUSH2 0x1505 JUMP JUMPDEST POP PUSH1 0x40 DUP1 MLOAD DUP1 DUP3 ADD SWAP1 SWAP2 MSTORE PUSH1 0x9 DUP2 MSTORE PUSH9 0x616E74695F64756D7 PUSH1 0xBC SHL PUSH1 0x20 SWAP2 DUP3 ADD MSTORE DUP2 MLOAD SWAP1 DUP3 ADD KECCAK256 PUSH32 0xA3F057A9A7D57709B5114F83B343454E80CC0F1A75BF54E2A6643D70B90E72D2 ADD PUSH2 0xA64 JUMPI DUP2 PUSH1 0x7 PUSH0 DUP3 DUP3 SLOAD PUSH2 0xA59 SWAP2 SWAP1 PUSH2 0x130A JUMP JUMPDEST SWAP1 SWAP2 SSTORE POP PUSH2 0xAC8 SWAP1 POP JUMP JUMPDEST PUSH1 0x40 DUP1 MLOAD DUP1 DUP3 ADD SWAP1 SWAP2 MSTORE PUSH1 0x9 DUP2 MSTORE PUSH9 0x686173685F67616D65 PUSH1 0xB8 SHL PUSH1 0x20 SWAP2 DUP3 ADD MSTORE DUP2 MLOAD SWAP1 DUP3 ADD KECCAK256 PUSH32 0xD1F02842571171EEAEDE1665BD9F96206160BA4123EA0C0035D2E3B1C40BEAFD ADD PUSH2 0xAC8 JUMPI DUP2 PUSH1 0x8 PUSH0 DUP3 DUP3 SLOAD PUSH2 0xAC2 SWAP2 SWAP1 PUSH2 0x130A JUMP JUMPDEST SWAP1 SWAP2 SSTORE POP POP JUMPDEST PUSH32 0x82D98A00C349D609E6AB098B00D153A6F84A70ABFD6074C0DCC81C83E5E22CA8 DUP2 DUP4 PUSH1 0x40 MLOAD PUSH2 0xAF9 SWAP3 SWAP2 SWAP1 PUSH2 0x1533 JUMP JUMPDEST PUSH1 0x40 MLOAD DUP1 SWAP2 SUB SWAP1 LOG1 POP POP JUMP JUMPDEST PUSH2 0xB0D PUSH2 0x127B JUMP JUMPDEST PUSH2 0xB16 PUSH0 PUSH2 0x12A7 JUMP JUMPDEST JUMP JUMPDEST PUSH1 0x1 SLOAD PUSH1 0x1 PUSH1 0x1 PUSH1 0xA0 SHL SUB AND CALLER EQ DUP1 PUSH2 0xB3A JUMPI POP PUSH0 SLOAD PUSH1 0x1 PUSH1 0x1 PUSH1 0xA0 SHL SUB AND CALLER EQ JUMPDEST PUSH2 0xB81 JUMPI PUSH1 0x40 MLOAD PUSH3 0x461BCD PUSH1 0xE5 SHL DUP2 MSTORE PUSH1 0x20 PUSH1 0x4 DUP3 ADD MSTORE PUSH1 0x18 PUSH1 0x24 DUP3 ADD MSTORE PUSH24 0x27B7363C902927A6A0A72A37B5B2B71037B91037BBB732B9 PUSH1 0x41 SHL PUSH1 0x44 DUP3 ADD MSTORE PUSH1 0x64 ADD PUSH2 0x4C0 JUMP JUMPDEST PUSH1 0x4 DUP1 SLOAD PUSH1 0x40 MLOAD PUSH4 0x23B872DD PUSH1 0xE0 SHL DUP2 MSTORE CALLER SWAP3 DUP2 ADD SWAP3 SWAP1 SWAP3 MSTORE ADDRESS PUSH1 0x24 DUP4 ADD MSTORE PUSH1 0x44 DUP3 ADD DUP4 SWAP1 MSTORE PUSH1 0x1 PUSH1 0x1 PUSH1 0xA0 SHL SUB AND SWAP1 PUSH4 0x23B872DD SWAP1 PUSH1 0x64 ADD PUSH1 0x20 PUSH1 0x40 MLOAD DUP1 DUP4 SUB DUP2 PUSH0 DUP8 GAS CALL ISZERO DUP1 ISZERO PUSH2 0xBD6 JUMPI RETURNDATASIZE PUSH0 PUSH0 RETURNDATACOPY RETURNDATASIZE PUSH0 REVERT JUMPDEST POP POP POP POP PUSH1 0x40 MLOAD RETURNDATASIZE PUSH1 0x1F NOT PUSH1 0x1F DUP3 ADD AND DUP3 ADD DUP1 PUSH1 0x40 MSTORE POP DUP2 ADD SWAP1 PUSH2 0xBFA SWAP2 SWAP1 PUSH2 0x1505 JUMP JUMPDEST POP DUP1 PUSH1 0x5 PUSH0 DUP3 DUP3 SLOAD PUSH2 0xC0C SWAP2 SWAP1 PUSH2 0x130A JUMP JUMPDEST SWAP1 SWAP2 SSTORE POP POP PUSH1 0x40 DUP1 MLOAD DUP2 DUP2 MSTORE PUSH1 0x8 DUP2 DUP4 ADD MSTORE PUSH8 0x19995957DD5CD91D PUSH1 0xC2 SHL PUSH1 0x60 DUP3 ADD MSTORE PUSH1 0x20 DUP2 ADD DUP4 SWAP1 MSTORE SWAP1 MLOAD PUSH32 0x82D98A00C349D609E6AB098B00D153A6F84A70ABFD6074C0DCC81C83E5E22CA8 SWAP2 DUP2 SWAP1 SUB PUSH1 0x80 ADD SWAP1 LOG1 POP JUMP JUMPDEST CALLER DUP3 ISZERO PUSH2 0xD27 JUMPI PUSH1 0x2 SLOAD PUSH1 0x40 MLOAD PUSH4 0x31A9108F PUSH1 0xE1 SHL DUP2 MSTORE PUSH1 0x4 DUP2 ADD DUP6 SWAP1 MSTORE PUSH1 0x1 PUSH1 0x1 PUSH1 0xA0 SHL SUB DUP4 DUP2 AND SWAP3 AND SWAP1 PUSH4 0x6352211E SWAP1 PUSH1 0x24 ADD PUSH1 0x20 PUSH1 0x40 MLOAD DUP1 DUP4 SUB DUP2 DUP7 GAS STATICCALL ISZERO DUP1 ISZERO PUSH2 0xCB5 JUMPI RETURNDATASIZE PUSH0 PUSH0 RETURNDATACOPY RETURNDATASIZE PUSH0 REVERT JUMPDEST POP POP POP POP PUSH1 0x40 MLOAD RETURNDATASIZE PUSH1 0x1F NOT PUSH1 0x1F DUP3 ADD AND DUP3 ADD DUP1 PUSH1 0x40 MSTORE POP DUP2 ADD SWAP1 PUSH2 0xCD9 SWAP2 SWAP1 PUSH2 0x156F JUMP JUMPDEST PUSH1 0x1 PUSH1 0x1 PUSH1 0xA0 SHL SUB AND EQ PUSH2 0xD27 JUMPI PUSH1 0x40 MLOAD PUSH3 0x461BCD PUSH1 0xE5 SHL DUP2 MSTORE PUSH1 0x20 PUSH1 0x4 DUP3 ADD MSTORE PUSH1 0x15 PUSH1 0x24 DUP3 ADD MSTORE PUSH21 0x139BDD081BDDDB995C881BD9881B585A5B88139195 PUSH1 0x5A SHL PUSH1 0x44 DUP3 ADD MSTORE PUSH1 0x64 ADD PUSH2 0x4C0 JUMP JUMPDEST DUP2 ISZERO PUSH2 0xDE7 JUMPI PUSH1 0x3 SLOAD PUSH1 0x40 MLOAD PUSH4 0x31A9108F PUSH1 0xE1 SHL DUP2 MSTORE PUSH1 0x4 DUP2 ADD DUP5 SWAP1 MSTORE PUSH1 0x1 PUSH1 0x1 PUSH1 0xA0 SHL SUB DUP4 DUP2 AND SWAP3 AND SWAP1 PUSH4 0x6352211E SWAP1 PUSH1 0x24 ADD PUSH1 0x20 PUSH1 0x40 MLOAD DUP1 DUP4 SUB DUP2 DUP7 GAS STATICCALL ISZERO DUP1 ISZERO PUSH2 0xD76 JUMPI RETURNDATASIZE PUSH0 PUSH0 RETURNDATACOPY RETURNDATASIZE PUSH0 REVERT JUMPDEST POP POP POP POP PUSH1 0x40 MLOAD RETURNDATASIZE PUSH1 0x1F NOT PUSH1 0x1F DUP3 ADD AND DUP3 ADD DUP1 PUSH1 0x40 MSTORE POP DUP2 ADD SWAP1 PUSH2 0xD9A SWAP2 SWAP1 PUSH2 0x156F JUMP JUMPDEST PUSH1 0x1 PUSH1 0x1 PUSH1 0xA0 SHL SUB AND EQ PUSH2 0xDE7 JUMPI PUSH1 0x40 MLOAD PUSH3 0x461BCD PUSH1 0xE5 SHL DUP2 MSTORE PUSH1 0x20 PUSH1 0x4 DUP3 ADD MSTORE PUSH1 0x14 PUSH1 0x24 DUP3 ADD MSTORE PUSH20 0x139BDD081BDDDB995C881BD9881CDD5888139195 PUSH1 0x62 SHL PUSH1 0x44 DUP3 ADD MSTORE PUSH1 0x64 ADD PUSH2 0x4C0 JUMP JUMPDEST PUSH1 0x1 SLOAD PUSH1 0x40 MLOAD PUSH4 0xEA0D5DCD PUSH1 0xE0 SHL DUP2 MSTORE PUSH1 0x1 PUSH1 0x1 PUSH1 0xA0 SHL SUB DUP4 DUP2 AND PUSH1 0x4 DUP4 ADD MSTORE PUSH0 SWAP3 DUP4 SWAP3 SWAP2 AND SWAP1 PUSH4 0xEA0D5DCD SWAP1 PUSH1 0x24 ADD PUSH1 0x60 PUSH1 0x40 MLOAD DUP1 DUP4 SUB DUP2 DUP7 GAS STATICCALL ISZERO DUP1 ISZERO PUSH2 0xE32 JUMPI RETURNDATASIZE PUSH0 PUSH0 RETURNDATACOPY RETURNDATASIZE PUSH0 REVERT JUMPDEST POP POP POP POP PUSH1 0x40 MLOAD RETURNDATASIZE PUSH1 0x1F NOT PUSH1 0x1F DUP3 ADD AND DUP3 ADD DUP1 PUSH1 0x40 MSTORE POP DUP2 ADD SWAP1 PUSH2 0xE56 SWAP2 SWAP1 PUSH2 0x158A JUMP JUMPDEST POP SWAP2 POP SWAP2 POP PUSH7 0x71AFD498D0000 DUP3 LT ISZERO DUP1 ISZERO PUSH2 0xE6F JUMPI POP DUP1 JUMPDEST PUSH2 0xEBB JUMPI PUSH1 0x40 MLOAD PUSH3 0x461BCD PUSH1 0xE5 SHL DUP2 MSTORE PUSH1 0x20 PUSH1 0x4 DUP3 ADD DUP2 SWAP1 MSTORE PUSH1 0x24 DUP3 ADD MSTORE PUSH32 0x4E656564206174206C6561737420302E3220424E4220696E766573746D656E74 PUSH1 0x44 DUP3 ADD MSTORE PUSH1 0x64 ADD PUSH2 0x4C0 JUMP JUMPDEST PUSH1 0x1 PUSH1 0x1 PUSH1 0xA0 SHL SUB DUP4 AND PUSH0 SWAP1 DUP2 MSTORE PUSH1 0xB PUSH1 0x20 MSTORE PUSH1 0x40 SWAP1 KECCAK256 SLOAD PUSH1 0xFF AND PUSH2 0xFFE JUMPI PUSH1 0x1 PUSH1 0x1 PUSH1 0xA0 SHL SUB DUP4 AND PUSH0 SWAP1 DUP2 MSTORE PUSH1 0x9 PUSH1 0x20 MSTORE PUSH1 0x40 SWAP1 KECCAK256 SLOAD ISZERO DUP1 PUSH2 0xF14 JUMPI POP PUSH1 0x1 PUSH1 0x1 PUSH1 0xA0 SHL SUB DUP4 AND PUSH0 SWAP1 DUP2 MSTORE PUSH1 0x9 PUSH1 0x20 MSTORE PUSH1 0x40 SWAP1 KECCAK256 SLOAD DUP6 EQ JUMPDEST PUSH2 0xF6C JUMPI PUSH1 0x40 MLOAD PUSH3 0x461BCD PUSH1 0xE5 SHL DUP2 MSTORE PUSH1 0x20 PUSH1 0x4 DUP3 ADD MSTORE PUSH1 0x24 DUP1 DUP3 ADD MSTORE PUSH32 0x416C72656164792061637469766174656420646966666572656E74206D61696E PUSH1 0x44 DUP3 ADD MSTORE PUSH4 0x8139195 PUSH1 0xE2 SHL PUSH1 0x64 DUP3 ADD MSTORE PUSH1 0x84 ADD PUSH2 0x4C0 JUMP JUMPDEST PUSH1 0x1 PUSH1 0x1 PUSH1 0xA0 SHL SUB DUP4 AND PUSH0 SWAP1 DUP2 MSTORE PUSH1 0xA PUSH1 0x20 MSTORE PUSH1 0x40 SWAP1 KECCAK256 SLOAD ISZERO DUP1 PUSH2 0xFA6 JUMPI POP PUSH1 0x1 PUSH1 0x1 PUSH1 0xA0 SHL SUB DUP4 AND PUSH0 SWAP1 DUP2 MSTORE PUSH1 0xA PUSH1 0x20 MSTORE PUSH1 0x40 SWAP1 KECCAK256 SLOAD DUP5 EQ JUMPDEST PUSH2 0xFFE JUMPI PUSH1 0x40 MLOAD PUSH3 0x461BCD PUSH1 0xE5 SHL DUP2 MSTORE PUSH1 0x20 PUSH1 0x4 DUP3 ADD MSTORE PUSH1 0x23 PUSH1 0x24 DUP3 ADD MSTORE PUSH32 0x416C72656164792061637469766174656420646966666572656E742073756220 PUSH1 0x44 DUP3 ADD MSTORE PUSH3 0x139195 PUSH1 0xEA SHL PUSH1 0x64 DUP3 ADD MSTORE PUSH1 0x84 ADD PUSH2 0x4C0 JUMP JUMPDEST DUP5 ISZERO DUP1 ISZERO SWAP1 PUSH2 0x1024 JUMPI POP PUSH1 0x1 PUSH1 0x1 PUSH1 0xA0 SHL SUB DUP4 AND PUSH0 SWAP1 DUP2 MSTORE PUSH1 0x9 PUSH1 0x20 MSTORE PUSH1 0x40 SWAP1 KECCAK256 SLOAD DUP6 EQ ISZERO JUMPDEST ISZERO PUSH2 0x1089 JUMPI PUSH1 0x1 PUSH1 0x1 PUSH1 0xA0 SHL SUB DUP4 AND PUSH0 SWAP1 DUP2 MSTORE PUSH1 0x9 PUSH1 0x20 MSTORE PUSH1 0x40 SWAP1 KECCAK256 SLOAD ISZERO PUSH2 0x105B JUMPI PUSH1 0xC DUP1 SLOAD SWAP1 PUSH0 PUSH2 0x1055 DUP4 PUSH2 0x15CA JUMP JUMPDEST SWAP2 SWAP1 POP SSTORE POP JUMPDEST PUSH1 0x1 PUSH1 0x1 PUSH1 0xA0 SHL SUB DUP4 AND PUSH0 SWAP1 DUP2 MSTORE PUSH1 0x9 PUSH1 0x20 MSTORE PUSH1 0x40 DUP2 KECCAK256 DUP7 SWAP1 SSTORE PUSH1 0xC DUP1 SLOAD SWAP2 PUSH2 0x1083 DUP4 PUSH2 0x15DF JUMP JUMPDEST SWAP2 SWAP1 POP SSTORE POP JUMPDEST DUP4 ISZERO DUP1 ISZERO SWAP1 PUSH2 0x10AF JUMPI POP PUSH1 0x1 PUSH1 0x1 PUSH1 0xA0 SHL SUB DUP4 AND PUSH0 SWAP1 DUP2 MSTORE PUSH1 0xA PUSH1 0x20 MSTORE PUSH1 0x40 SWAP1 KECCAK256 SLOAD DUP5 EQ ISZERO JUMPDEST ISZERO PUSH2 0x1114 JUMPI PUSH1 0x1 PUSH1 0x1 PUSH1 0xA0 SHL SUB DUP4 AND PUSH0 SWAP1 DUP2 MSTORE PUSH1 0xA PUSH1 0x20 MSTORE PUSH1 0x40 SWAP1 KECCAK256 SLOAD ISZERO PUSH2 0x10E6 JUMPI PUSH1 0xD DUP1 SLOAD SWAP1 PUSH0 PUSH2 0x10E0 DUP4 PUSH2 0x15CA JUMP JUMPDEST SWAP2 SWAP1 POP SSTORE POP JUMPDEST PUSH1 0x1 PUSH1 0x1 PUSH1 0xA0 SHL SUB DUP4 AND PUSH0 SWAP1 DUP2 MSTORE PUSH1 0xA PUSH1 0x20 MSTORE PUSH1 0x40 DUP2 KECCAK256 DUP6 SWAP1 SSTORE PUSH1 0xD DUP1 SLOAD SWAP2 PUSH2 0x110E DUP4 PUSH2 0x15DF JUMP JUMPDEST SWAP2 SWAP1 POP SSTORE POP JUMPDEST PUSH1 0x40 DUP1 MLOAD DUP7 DUP2 MSTORE PUSH1 0x20 DUP2 ADD DUP7 SWAP1 MSTORE PUSH1 0x1 PUSH1 0x1 PUSH1 0xA0 SHL SUB DUP6 AND SWAP2 PUSH32 0xF89BE561C4CE44410305A86555EBAE8B579DE22890A703AC89051C5971B5D4DC SWAP2 ADD PUSH1 0x40 MLOAD DUP1 SWAP2 SUB SWAP1 LOG2 POP POP POP POP POP JUMP JUMPDEST PUSH2 0x1167 PUSH2 0x127B JUMP JUMPDEST PUSH1 0x1 PUSH1 0x1 PUSH1 0xA0 SHL SUB DUP3 AND PUSH2 0x11B0 JUMPI PUSH0 DUP1 SLOAD PUSH1 0x40 MLOAD PUSH1 0x1 PUSH1 0x1 PUSH1 0xA0 SHL SUB SWAP1 SWAP2 AND SWAP2 DUP4 ISZERO PUSH2 0x8FC MUL SWAP2 DUP5 SWAP2 DUP2 DUP2 DUP2 DUP6 DUP9 DUP9 CALL SWAP4 POP POP POP POP ISZERO DUP1 ISZERO PUSH2 0x11AB JUMPI RETURNDATASIZE PUSH0 PUSH0 RETURNDATACOPY RETURNDATASIZE PUSH0 REVERT JUMPDEST POP POP POP JUMP JUMPDEST DUP2 PUSH1 0x1 PUSH1 0x1 PUSH1 0xA0 SHL SUB AND PUSH4 0xA9059CBB PUSH2 0x11D0 PUSH0 SLOAD PUSH1 0x1 PUSH1 0x1 PUSH1 0xA0 SHL SUB AND SWAP1 JUMP JUMPDEST PUSH1 0x40 MLOAD PUSH1 0x1 PUSH1 0x1 PUSH1 0xE0 SHL SUB NOT PUSH1 0xE0 DUP5 SWAP1 SHL AND DUP2 MSTORE PUSH1 0x1 PUSH1 0x1 PUSH1 0xA0 SHL SUB SWAP1 SWAP2 AND PUSH1 0x4 DUP3 ADD MSTORE PUSH1 0x24 DUP2 ADD DUP5 SWAP1 MSTORE PUSH1 0x44 ADD PUSH1 0x20 PUSH1 0x40 MLOAD DUP1 DUP4 SUB DUP2 PUSH0 DUP8 GAS CALL ISZERO DUP1 ISZERO PUSH2 0x121A JUMPI RETURNDATASIZE PUSH0 PUSH0 RETURNDATACOPY RETURNDATASIZE PUSH0 REVERT JUMPDEST POP POP POP POP PUSH1 0x40 MLOAD RETURNDATASIZE PUSH1 0x1F NOT PUSH1 0x1F DUP3 ADD AND DUP3 ADD DUP1 PUSH1 0x40 MSTORE POP DUP2 ADD SWAP1 PUSH2 0x11AB SWAP2 SWAP1 PUSH2 0x1505 JUMP JUMPDEST PUSH2 0x1246 PUSH2 0x127B JUMP JUMPDEST PUSH1 0x1 PUSH1 0x1 PUSH1 0xA0 SHL SUB DUP2 AND PUSH2 0x126F JUMPI PUSH1 0x40 MLOAD PUSH4 0x1E4FBDF7 PUSH1 0xE0 SHL DUP2 MSTORE PUSH0 PUSH1 0x4 DUP3 ADD MSTORE PUSH1 0x24 ADD PUSH2 0x4C0 JUMP JUMPDEST PUSH2 0x1278 DUP2 PUSH2 0x12A7 JUMP JUMPDEST POP JUMP JUMPDEST PUSH0 SLOAD PUSH1 0x1 PUSH1 0x1 PUSH1 0xA0 SHL SUB AND CALLER EQ PUSH2 0xB16 JUMPI PUSH1 0x40 MLOAD PUSH4 0x118CDAA7 PUSH1 0xE0 SHL DUP2 MSTORE CALLER PUSH1 0x4 DUP3 ADD MSTORE PUSH1 0x24 ADD PUSH2 0x4C0 JUMP JUMPDEST PUSH0 DUP1 SLOAD PUSH1 0x1 PUSH1 0x1 PUSH1 0xA0 SHL SUB DUP4 DUP2 AND PUSH1 0x1 PUSH1 0x1 PUSH1 0xA0 SHL SUB NOT DUP4 AND DUP2 OR DUP5 SSTORE PUSH1 0x40 MLOAD SWAP2 SWAP1 SWAP3 AND SWAP3 DUP4 SWAP2 PUSH32 0x8BE0079C531659141344CD1FD0A4F28419497F9722A3DAAFE3B4186F6B6457E0 SWAP2 SWAP1 LOG3 POP POP JUMP JUMPDEST PUSH4 0x4E487B71 PUSH1 0xE0 SHL PUSH0 MSTORE PUSH1 0x11 PUSH1 0x4 MSTORE PUSH1 0x24 PUSH0 REVERT JUMPDEST DUP1 DUP3 ADD DUP1 DUP3 GT ISZERO PUSH2 0x131D JUMPI PUSH2 0x131D PUSH2 0x12F6 JUMP JUMPDEST SWAP3 SWAP2 POP POP JUMP JUMPDEST PUSH1 0x1 PUSH1 0x1 PUSH1 0xA0 SHL SUB DUP2 AND DUP2 EQ PUSH2 0x1278 JUMPI PUSH0 PUSH0 REVERT JUMPDEST PUSH0 PUSH1 0x20 DUP3 DUP5 SUB SLT ISZERO PUSH2 0x1347 JUMPI PUSH0 PUSH0 REVERT JUMPDEST DUP2 CALLDATALOAD PUSH2 0x1352 DUP2 PUSH2 0x1323 JUMP JUMPDEST SWAP4 SWAP3 POP POP POP JUMP JUMPDEST DUP1 ISZERO ISZERO DUP2 EQ PUSH2 0x1278 JUMPI PUSH0 PUSH0 REVERT JUMPDEST PUSH0 PUSH0 PUSH1 0x40 DUP4 DUP6 SUB SLT ISZERO PUSH2 0x1377 JUMPI PUSH0 PUSH0 REVERT JUMPDEST DUP3 CALLDATALOAD PUSH2 0x1382 DUP2 PUSH2 0x1323 JUMP JUMPDEST SWAP2 POP PUSH1 0x20 DUP4 ADD CALLDATALOAD PUSH2 0x1392 DUP2 PUSH2 0x1359 JUMP JUMPDEST DUP1 SWAP2 POP POP SWAP3 POP SWAP3 SWAP1 POP JUMP JUMPDEST PUSH4 0x4E487B71 PUSH1 0xE0 SHL PUSH0 MSTORE PUSH1 0x41 PUSH1 0x4 MSTORE PUSH1 0x24 PUSH0 REVERT JUMPDEST PUSH0 PUSH0 PUSH1 0x40 DUP4 DUP6 SUB SLT ISZERO PUSH2 0x13C2 JUMPI PUSH0 PUSH0 REVERT JUMPDEST DUP3 CALLDATALOAD SWAP2 POP PUSH1 0x20 DUP4 ADD CALLDATALOAD PUSH8 0xFFFFFFFFFFFFFFFF DUP2 GT ISZERO PUSH2 0x13DF JUMPI PUSH0 PUSH0 REVERT JUMPDEST DUP4 ADD PUSH1 0x1F DUP2 ADD DUP6 SGT PUSH2 0x13EF JUMPI PUSH0 PUSH0 REVERT JUMPDEST DUP1 CALLDATALOAD PUSH8 0xFFFFFFFFFFFFFFFF DUP2 GT ISZERO PUSH2 0x1409 JUMPI PUSH2 0x1409 PUSH2 0x139D JUMP JUMPDEST PUSH1 0x40 MLOAD PUSH1 0x1F DUP3 ADD PUSH1 0x1F NOT SWAP1 DUP2 AND PUSH1 0x3F ADD AND DUP2 ADD PUSH8 0xFFFFFFFFFFFFFFFF DUP2 GT DUP3 DUP3 LT OR ISZERO PUSH2 0x1438 JUMPI PUSH2 0x1438 PUSH2 0x139D JUMP JUMPDEST PUSH1 0x40 MSTORE DUP2 DUP2 MSTORE DUP3 DUP3 ADD PUSH1 0x20 ADD DUP8 LT ISZERO PUSH2 0x144F JUMPI PUSH0 PUSH0 REVERT JUMPDEST DUP2 PUSH1 0x20 DUP5 ADD PUSH1 0x20 DUP4 ADD CALLDATACOPY PUSH0 PUSH1 0x20 DUP4 DUP4 ADD ADD MSTORE DUP1 SWAP4 POP POP POP POP SWAP3 POP SWAP3 SWAP1 POP JUMP JUMPDEST PUSH0 PUSH1 0x20 DUP3 DUP5 SUB SLT ISZERO PUSH2 0x147E JUMPI PUSH0 PUSH0 REVERT JUMPDEST POP CALLDATALOAD SWAP2 SWAP1 POP JUMP JUMPDEST PUSH0 PUSH0 PUSH1 0x40 DUP4 DUP6 SUB SLT ISZERO PUSH2 0x1496 JUMPI PUSH0 PUSH0 REVERT JUMPDEST POP POP DUP1 CALLDATALOAD SWAP3 PUSH1 0x20 SWAP1 SWAP2 ADD CALLDATALOAD SWAP2 POP JUMP JUMPDEST PUSH0 PUSH0 PUSH1 0x40 DUP4 DUP6 SUB SLT ISZERO PUSH2 0x14B6 JUMPI PUSH0 PUSH0 REVERT JUMPDEST DUP3 CALLDATALOAD PUSH2 0x14C1 DUP2 PUSH2 0x1323 JUMP JUMPDEST SWAP5 PUSH1 0x20 SWAP4 SWAP1 SWAP4 ADD CALLDATALOAD SWAP4 POP POP POP JUMP JUMPDEST DUP1 DUP3 MUL DUP2 ISZERO DUP3 DUP3 DIV DUP5 EQ OR PUSH2 0x131D JUMPI PUSH2 0x131D PUSH2 0x12F6 JUMP JUMPDEST PUSH0 DUP3 PUSH2 0x1500 JUMPI PUSH4 0x4E487B71 PUSH1 0xE0 SHL PUSH0 MSTORE PUSH1 0x12 PUSH1 0x4 MSTORE PUSH1 0x24 PUSH0 REVERT JUMPDEST POP DIV SWAP1 JUMP JUMPDEST PUSH0 PUSH1 0x20 DUP3 DUP5 SUB SLT ISZERO PUSH2 0x1515 JUMPI PUSH0 PUSH0 REVERT JUMPDEST DUP2 MLOAD PUSH2 0x1352 DUP2 PUSH2 0x1359 JUMP JUMPDEST DUP2 DUP2 SUB DUP2 DUP2 GT ISZERO PUSH2 0x131D JUMPI PUSH2 0x131D PUSH2 0x12F6 JUMP JUMPDEST PUSH1 0x40 DUP2 MSTORE PUSH0 DUP4 MLOAD DUP1 PUSH1 0x40 DUP5 ADD MSTORE DUP1 PUSH1 0x20 DUP7 ADD PUSH1 0x60 DUP6 ADD MCOPY PUSH0 PUSH1 0x60 DUP3 DUP6 ADD ADD MSTORE PUSH1 0x60 PUSH1 0x1F NOT PUSH1 0x1F DUP4 ADD AND DUP5 ADD ADD SWAP2 POP POP DUP3 PUSH1 0x20 DUP4 ADD MSTORE SWAP4 SWAP3 POP POP POP JUMP JUMPDEST PUSH0 PUSH1 0x20 DUP3 DUP5 SUB SLT ISZERO PUSH2 0x157F JUMPI PUSH0 PUSH0 REVERT JUMPDEST DUP2 MLOAD PUSH2 0x1352 DUP2 PUSH2 0x1323 JUMP JUMPDEST PUSH0 PUSH0 PUSH0 PUSH1 0x60 DUP5 DUP7 SUB SLT ISZERO PUSH2 0x159C JUMPI PUSH0 PUSH0 REVERT JUMPDEST DUP4 MLOAD SWAP3 POP PUSH1 0x20 DUP5 ADD MLOAD PUSH2 0x15AE DUP2 PUSH2 0x1359 JUMP JUMPDEST PUSH1 0x40 DUP6 ADD MLOAD SWAP1 SWAP3 POP PUSH2 0x15BF DUP2 PUSH2 0x1359 JUMP JUMPDEST DUP1 SWAP2 POP POP SWAP3 POP SWAP3 POP SWAP3 JUMP JUMPDEST PUSH0 DUP2 PUSH2 0x15D8 JUMPI PUSH2 0x15D8 PUSH2 0x12F6 JUMP JUMPDEST POP PUSH0 NOT ADD SWAP1 JUMP JUMPDEST PUSH0 PUSH1 0x1 DUP3 ADD PUSH2 0x15F0 JUMPI PUSH2 0x15F0 PUSH2 0x12F6 JUMP JUMPDEST POP PUSH1 0x1 ADD SWAP1 JUMP INVALID LOG2 PUSH5 0x6970667358 0x22 SLT KECCAK256 GASLIMIT PUSH27 0x58B0E4DD5E6880E36B489FC45E86594ABC6EF2783D3E50EB2C3D3D DIV SHR CODECOPY PUSH5 0x736F6C6343 STOP ADDMOD 0x22 STOP CALLER "
				},
				"gasEstimates": {
					"creation": {
						"codeDepositCost": "1135400",
						"executionCost": "infinite",
						"totalCost": "infinite"
					},
					"external": {
						"activate(uint256,uint256)": "infinite",
						"activeMainTokenId(address)": "2523",
						"activeSubTokenId(address)": "2521",
						"antiDumpRomanPool()": "2395",
						"claim()": "infinite",
						"emergencyWithdraw(address,uint256)": "infinite",
						"feeUsdtPool()": "2350",
						"hashGameRomanPool()": "2371",
						"investBnbPool()": "2351",
						"mainNFT()": "2426",
						"owner()": "2352",
						"receiveRoman(uint256,string)": "infinite",
						"receiveUsdt(uint256)": "infinite",
						"renounceOwnership()": "infinite",
						"romanToken()": "2380",
						"setWhitelist(address,bool)": "infinite",
						"subNFT()": "2446",
						"totalActiveMain()": "2349",
						"totalActiveSub()": "2328",
						"transferOwnership(address)": "infinite",
						"usdt()": "2382",
						"whitelist(address)": "2633"
					}
				},
				"methodIdentifiers": {
					"activate(uint256,uint256)": "8ea8f83c",
					"activeMainTokenId(address)": "09aa92e3",
					"activeSubTokenId(address)": "a83cb9ab",
					"antiDumpRomanPool()": "48fe85e2",
					"claim()": "4e71d92d",
					"emergencyWithdraw(address,uint256)": "95ccea67",
					"feeUsdtPool()": "545bf9ad",
					"hashGameRomanPool()": "da912989",
					"investBnbPool()": "3540beff",
					"mainNFT()": "48e66c04",
					"owner()": "8da5cb5b",
					"receiveRoman(uint256,string)": "641117f4",
					"receiveUsdt(uint256)": "83db58fe",
					"renounceOwnership()": "715018a6",
					"romanToken()": "bb6c0ae1",
					"setWhitelist(address,bool)": "53d6fd59",
					"subNFT()": "dd6c4398",
					"totalActiveMain()": "c7e95e37",
					"totalActiveSub()": "8e9abef0",
					"transferOwnership(address)": "f2fde38b",
					"usdt()": "2f48ab7d",
					"whitelist(address)": "9b19251a"
				}
			},
			"storageLayout": {
				"storage": [
					{
						"astId": 8,
						"contract": "contracts/test2/DividendDistributor.sol:DividendDistributor",
						"label": "_owner",
						"offset": 0,
						"slot": "0",
						"type": "t_address"
					},
					{
						"astId": 276,
						"contract": "contracts/test2/DividendDistributor.sol:DividendDistributor",
						"label": "romanToken",
						"offset": 0,
						"slot": "1",
						"type": "t_contract(IROMANToken)271"
					},
					{
						"astId": 278,
						"contract": "contracts/test2/DividendDistributor.sol:DividendDistributor",
						"label": "mainNFT",
						"offset": 0,
						"slot": "2",
						"type": "t_address"
					},
					{
						"astId": 280,
						"contract": "contracts/test2/DividendDistributor.sol:DividendDistributor",
						"label": "subNFT",
						"offset": 0,
						"slot": "3",
						"type": "t_address"
					},
					{
						"astId": 282,
						"contract": "contracts/test2/DividendDistributor.sol:DividendDistributor",
						"label": "usdt",
						"offset": 0,
						"slot": "4",
						"type": "t_address"
					},
					{
						"astId": 284,
						"contract": "contracts/test2/DividendDistributor.sol:DividendDistributor",
						"label": "feeUsdtPool",
						"offset": 0,
						"slot": "5",
						"type": "t_uint256"
					},
					{
						"astId": 286,
						"contract": "contracts/test2/DividendDistributor.sol:DividendDistributor",
						"label": "investBnbPool",
						"offset": 0,
						"slot": "6",
						"type": "t_uint256"
					},
					{
						"astId": 288,
						"contract": "contracts/test2/DividendDistributor.sol:DividendDistributor",
						"label": "antiDumpRomanPool",
						"offset": 0,
						"slot": "7",
						"type": "t_uint256"
					},
					{
						"astId": 290,
						"contract": "contracts/test2/DividendDistributor.sol:DividendDistributor",
						"label": "hashGameRomanPool",
						"offset": 0,
						"slot": "8",
						"type": "t_uint256"
					},
					{
						"astId": 294,
						"contract": "contracts/test2/DividendDistributor.sol:DividendDistributor",
						"label": "activeMainTokenId",
						"offset": 0,
						"slot": "9",
						"type": "t_mapping(t_address,t_uint256)"
					},
					{
						"astId": 298,
						"contract": "contracts/test2/DividendDistributor.sol:DividendDistributor",
						"label": "activeSubTokenId",
						"offset": 0,
						"slot": "10",
						"type": "t_mapping(t_address,t_uint256)"
					},
					{
						"astId": 302,
						"contract": "contracts/test2/DividendDistributor.sol:DividendDistributor",
						"label": "whitelist",
						"offset": 0,
						"slot": "11",
						"type": "t_mapping(t_address,t_bool)"
					},
					{
						"astId": 304,
						"contract": "contracts/test2/DividendDistributor.sol:DividendDistributor",
						"label": "totalActiveMain",
						"offset": 0,
						"slot": "12",
						"type": "t_uint256"
					},
					{
						"astId": 306,
						"contract": "contracts/test2/DividendDistributor.sol:DividendDistributor",
						"label": "totalActiveSub",
						"offset": 0,
						"slot": "13",
						"type": "t_uint256"
					}
				],
				"types": {
					"t_address": {
						"encoding": "inplace",
						"label": "address",
						"numberOfBytes": "20"
					},
					"t_bool": {
						"encoding": "inplace",
						"label": "bool",
						"numberOfBytes": "1"
					},
					"t_contract(IROMANToken)271": {
						"encoding": "inplace",
						"label": "contract IROMANToken",
						"numberOfBytes": "20"
					},
					"t_mapping(t_address,t_bool)": {
						"encoding": "mapping",
						"key": "t_address",
						"label": "mapping(address => bool)",
						"numberOfBytes": "32",
						"value": "t_bool"
					},
					"t_mapping(t_address,t_uint256)": {
						"encoding": "mapping",
						"key": "t_address",
						"label": "mapping(address => uint256)",
						"numberOfBytes": "32",
						"value": "t_uint256"
					},
					"t_uint256": {
						"encoding": "inplace",
						"label": "uint256",
						"numberOfBytes": "32"
					}
				}
			},
			"userdoc": {
				"kind": "user",
				"methods": {},
				"version": 1
			}
		}
	}
}