{
	"contracts/HashGame.sol": {
		"HashGame": {
			"abi": [
				{
					"inputs": [
						{
							"internalType": "address",
							"name": "_token",
							"type": "address"
						},
						{
							"internalType": "address",
							"name": "_nft",
							"type": "address"
						}
					],
					"stateMutability": "nonpayable",
					"type": "constructor"
				},
				{
					"inputs": [
						{
							"internalType": "address",
							"name": "owner",
							"type": "address"
						}
					],
					"name": "OwnableInvalidOwner",
					"type": "error"
				},
				{
					"inputs": [
						{
							"internalType": "address",
							"name": "account",
							"type": "address"
						}
					],
					"name": "OwnableUnauthorizedAccount",
					"type": "error"
				},
				{
					"anonymous": false,
					"inputs": [
						{
							"indexed": true,
							"internalType": "address",
							"name": "player",
							"type": "address"
						},
						{
							"indexed": false,
							"internalType": "uint256",
							"name": "amount",
							"type": "uint256"
						},
						{
							"indexed": false,
							"internalType": "bool",
							"name": "isOdd",
							"type": "bool"
						},
						{
							"indexed": false,
							"internalType": "bool",
							"name": "win",
							"type": "bool"
						},
						{
							"indexed": false,
							"internalType": "uint256",
							"name": "payout",
							"type": "uint256"
						}
					],
					"name": "BetPlaced",
					"type": "event"
				},
				{
					"anonymous": false,
					"inputs": [
						{
							"indexed": false,
							"internalType": "bool",
							"name": "active",
							"type": "bool"
						}
					],
					"name": "GameStatusChanged",
					"type": "event"
				},
				{
					"anonymous": false,
					"inputs": [
						{
							"indexed": true,
							"internalType": "address",
							"name": "previousOwner",
							"type": "address"
						},
						{
							"indexed": true,
							"internalType": "address",
							"name": "newOwner",
							"type": "address"
						}
					],
					"name": "OwnershipTransferred",
					"type": "event"
				},
				{
					"anonymous": false,
					"inputs": [
						{
							"indexed": true,
							"internalType": "address",
							"name": "account",
							"type": "address"
						},
						{
							"indexed": false,
							"internalType": "bool",
							"name": "status",
							"type": "bool"
						}
					],
					"name": "WhitelistUpdated",
					"type": "event"
				},
				{
					"inputs": [],
					"name": "GAME_STOP_THRESHOLD",
					"outputs": [
						{
							"internalType": "uint256",
							"name": "",
							"type": "uint256"
						}
					],
					"stateMutability": "view",
					"type": "function"
				},
				{
					"inputs": [],
					"name": "MAX_BET",
					"outputs": [
						{
							"internalType": "uint256",
							"name": "",
							"type": "uint256"
						}
					],
					"stateMutability": "view",
					"type": "function"
				},
				{
					"inputs": [],
					"name": "MIN_BET",
					"outputs": [
						{
							"internalType": "uint256",
							"name": "",
							"type": "uint256"
						}
					],
					"stateMutability": "view",
					"type": "function"
				},
				{
					"inputs": [
						{
							"internalType": "address",
							"name": "account",
							"type": "address"
						}
					],
					"name": "addToWhitelist",
					"outputs": [],
					"stateMutability": "nonpayable",
					"type": "function"
				},
				{
					"inputs": [
						{
							"internalType": "uint256",
							"name": "amount",
							"type": "uint256"
						}
					],
					"name": "bet",
					"outputs": [],
					"stateMutability": "nonpayable",
					"type": "function"
				},
				{
					"inputs": [],
					"name": "forceStopGame",
					"outputs": [],
					"stateMutability": "nonpayable",
					"type": "function"
				},
				{
					"inputs": [],
					"name": "gameActive",
					"outputs": [
						{
							"internalType": "bool",
							"name": "",
							"type": "bool"
						}
					],
					"stateMutability": "view",
					"type": "function"
				},
				{
					"inputs": [],
					"name": "isGameActive",
					"outputs": [
						{
							"internalType": "bool",
							"name": "",
							"type": "bool"
						}
					],
					"stateMutability": "view",
					"type": "function"
				},
				{
					"inputs": [],
					"name": "nft",
					"outputs": [
						{
							"internalType": "address",
							"name": "",
							"type": "address"
						}
					],
					"stateMutability": "view",
					"type": "function"
				},
				{
					"inputs": [],
					"name": "owner",
					"outputs": [
						{
							"internalType": "address",
							"name": "",
							"type": "address"
						}
					],
					"stateMutability": "view",
					"type": "function"
				},
				{
					"inputs": [
						{
							"internalType": "address",
							"name": "account",
							"type": "address"
						}
					],
					"name": "removeFromWhitelist",
					"outputs": [],
					"stateMutability": "nonpayable",
					"type": "function"
				},
				{
					"inputs": [],
					"name": "renounceOwnership",
					"outputs": [],
					"stateMutability": "nonpayable",
					"type": "function"
				},
				{
					"inputs": [
						{
							"internalType": "address",
							"name": "_nft",
							"type": "address"
						}
					],
					"name": "setNFT",
					"outputs": [],
					"stateMutability": "nonpayable",
					"type": "function"
				},
				{
					"inputs": [],
					"name": "startGame",
					"outputs": [],
					"stateMutability": "nonpayable",
					"type": "function"
				},
				{
					"inputs": [],
					"name": "token",
					"outputs": [
						{
							"internalType": "contract IERC20",
							"name": "",
							"type": "address"
						}
					],
					"stateMutability": "view",
					"type": "function"
				},
				{
					"inputs": [
						{
							"internalType": "address",
							"name": "newOwner",
							"type": "address"
						}
					],
					"name": "transferOwnership",
					"outputs": [],
					"stateMutability": "nonpayable",
					"type": "function"
				},
				{
					"inputs": [
						{
							"internalType": "address",
							"name": "",
							"type": "address"
						}
					],
					"name": "whitelist",
					"outputs": [
						{
							"internalType": "bool",
							"name": "",
							"type": "bool"
						}
					],
					"stateMutability": "view",
					"type": "function"
				}
			],
			"devdoc": {
				"errors": {
					"OwnableInvalidOwner(address)": [
						{
							"details": "The owner is not a valid owner account. (eg. `address(0)`)"
						}
					],
					"OwnableUnauthorizedAccount(address)": [
						{
							"details": "The caller account is not authorized to perform an operation."
						}
					]
				},
				"kind": "dev",
				"methods": {
					"owner()": {
						"details": "Returns the address of the current owner."
					},
					"renounceOwnership()": {
						"details": "Leaves the contract without owner. It will not be possible to call `onlyOwner` functions. Can only be called by the current owner. NOTE: Renouncing ownership will leave the contract without an owner, thereby disabling any functionality that is only available to the owner."
					},
					"transferOwnership(address)": {
						"details": "Transfers ownership of the contract to a new account (`newOwner`). Can only be called by the current owner."
					}
				},
				"version": 1
			},
			"evm": {
				"assembly": "    /* \"contracts/HashGame.sol\":175:3950  contract HashGame is Ownable {... */\n  mstore(0x40, 0xa0)\n    /* \"contracts/HashGame.sol\":496:525  bool public gameActive = true */\n  0x03\n  dup1\n  sload\n  not(0xff)\n  and\n    /* \"contracts/HashGame.sol\":521:525  true */\n  0x01\n    /* \"contracts/HashGame.sol\":496:525  bool public gameActive = true */\n  or\n  swap1\n  sstore\n    /* \"contracts/HashGame.sol\":746:870  constructor(address _token, address _nft) Ownable(msg.sender) {... */\n  callvalue\n  dup1\n  iszero\n  tag_1\n  jumpi\n  revert(0x00, 0x00)\ntag_1:\n  pop\n  mload(0x40)\n  sub(codesize, bytecodeSize)\n  dup1\n  bytecodeSize\n  dup4\n  codecopy\n  dup2\n  add\n  0x40\n  dup2\n  swap1\n  mstore\n  tag_2\n  swap2\n  tag_3\n  jump\t// in\ntag_2:\n    /* \"contracts/HashGame.sol\":796:806  msg.sender */\n  caller\n  dup1\n    /* \"@openzeppelin/contracts/access/Ownable.sol\":1269:1364  if (initialOwner == address(0)) {... */\n  tag_7\n  jumpi\n    /* \"@openzeppelin/contracts/access/Ownable.sol\":1322:1353  OwnableInvalidOwner(address(0)) */\n  mload(0x40)\n  shl(0xe0, 0x1e4fbdf7)\n  dup2\n  mstore\n    /* \"@openzeppelin/contracts/access/Ownable.sol\":1350:1351  0 */\n  0x00\n    /* \"@openzeppelin/contracts/access/Ownable.sol\":1322:1353  OwnableInvalidOwner(address(0)) */\n  0x04\n  dup3\n  add\n    /* \"#utility.yul\":640:691   */\n  mstore\n    /* \"#utility.yul\":613:631   */\n  0x24\n  add\n    /* \"@openzeppelin/contracts/access/Ownable.sol\":1322:1353  OwnableInvalidOwner(address(0)) */\n  mload(0x40)\n  dup1\n  swap2\n  sub\n  swap1\n  revert\n    /* \"@openzeppelin/contracts/access/Ownable.sol\":1269:1364  if (initialOwner == address(0)) {... */\ntag_7:\n    /* \"@openzeppelin/contracts/access/Ownable.sol\":1373:1405  _transferOwnership(initialOwner) */\n  tag_10\n    /* \"@openzeppelin/contracts/access/Ownable.sol\":1392:1404  initialOwner */\n  dup2\n    /* \"@openzeppelin/contracts/access/Ownable.sol\":1373:1391  _transferOwnership */\n  tag_11\n    /* \"@openzeppelin/contracts/access/Ownable.sol\":1373:1405  _transferOwnership(initialOwner) */\n  jump\t// in\ntag_10:\n  pop\n  sub(shl(0xa0, 0x01), 0x01)\n    /* \"contracts/HashGame.sol\":819:841  token = IERC20(_token) */\n  swap2\n  dup3\n  and\n  0x80\n  mstore\n    /* \"contracts/HashGame.sol\":852:855  nft */\n  0x01\n    /* \"contracts/HashGame.sol\":852:862  nft = _nft */\n  dup1\n  sload\n  not(sub(shl(0xa0, 0x01), 0x01))\n  and\n  swap2\n  swap1\n  swap3\n  and\n  or\n  swap1\n  sstore\n    /* \"contracts/HashGame.sol\":175:3950  contract HashGame is Ownable {... */\n  jump(tag_16)\n    /* \"@openzeppelin/contracts/access/Ownable.sol\":2912:3099  function _transferOwnership(address newOwner) internal virtual {... */\ntag_11:\n    /* \"@openzeppelin/contracts/access/Ownable.sol\":2985:3001  address oldOwner */\n  0x00\n    /* \"@openzeppelin/contracts/access/Ownable.sol\":3004:3010  _owner */\n  dup1\n  sload\n  sub(shl(0xa0, 0x01), 0x01)\n    /* \"@openzeppelin/contracts/access/Ownable.sol\":3020:3037  _owner = newOwner */\n  dup4\n  dup2\n  and\n  not(sub(shl(0xa0, 0x01), 0x01))\n  dup4\n  and\n  dup2\n  or\n  dup5\n  sstore\n    /* \"@openzeppelin/contracts/access/Ownable.sol\":3052:3092  OwnershipTransferred(oldOwner, newOwner) */\n  mload(0x40)\n    /* \"@openzeppelin/contracts/access/Ownable.sol\":3004:3010  _owner */\n  swap2\n  swap1\n  swap3\n  and\n  swap3\n  dup4\n  swap2\n    /* \"@openzeppelin/contracts/access/Ownable.sol\":3052:3092  OwnershipTransferred(oldOwner, newOwner) */\n  0x8be0079c531659141344cd1fd0a4f28419497f9722a3daafe3b4186f6b6457e0\n  swap2\n    /* \"@openzeppelin/contracts/access/Ownable.sol\":2985:3001  address oldOwner */\n  swap1\n    /* \"@openzeppelin/contracts/access/Ownable.sol\":3052:3092  OwnershipTransferred(oldOwner, newOwner) */\n  log3\n    /* \"@openzeppelin/contracts/access/Ownable.sol\":2975:3099  {... */\n  pop\n    /* \"@openzeppelin/contracts/access/Ownable.sol\":2912:3099  function _transferOwnership(address newOwner) internal virtual {... */\n  pop\n  jump\t// out\n    /* \"#utility.yul\":14:191   */\ntag_15:\n    /* \"#utility.yul\":93:106   */\n  dup1\n  mload\n  sub(shl(0xa0, 0x01), 0x01)\n    /* \"#utility.yul\":135:166   */\n  dup2\n  and\n    /* \"#utility.yul\":125:167   */\n  dup2\n  eq\n    /* \"#utility.yul\":115:185   */\n  tag_18\n  jumpi\n    /* \"#utility.yul\":181:182   */\n  0x00\n    /* \"#utility.yul\":178:179   */\n  0x00\n    /* \"#utility.yul\":171:183   */\n  revert\n    /* \"#utility.yul\":115:185   */\ntag_18:\n    /* \"#utility.yul\":14:191   */\n  swap2\n  swap1\n  pop\n  jump\t// out\n    /* \"#utility.yul\":196:489   */\ntag_3:\n    /* \"#utility.yul\":275:281   */\n  0x00\n    /* \"#utility.yul\":283:289   */\n  0x00\n    /* \"#utility.yul\":336:338   */\n  0x40\n    /* \"#utility.yul\":324:333   */\n  dup4\n    /* \"#utility.yul\":315:322   */\n  dup6\n    /* \"#utility.yul\":311:334   */\n  sub\n    /* \"#utility.yul\":307:339   */\n  slt\n    /* \"#utility.yul\":304:356   */\n  iszero\n  tag_20\n  jumpi\n    /* \"#utility.yul\":352:353   */\n  0x00\n    /* \"#utility.yul\":349:350   */\n  0x00\n    /* \"#utility.yul\":342:354   */\n  revert\n    /* \"#utility.yul\":304:356   */\ntag_20:\n    /* \"#utility.yul\":375:415   */\n  tag_21\n    /* \"#utility.yul\":405:414   */\n  dup4\n    /* \"#utility.yul\":375:415   */\n  tag_15\n  jump\t// in\ntag_21:\n    /* \"#utility.yul\":365:415   */\n  swap2\n  pop\n    /* \"#utility.yul\":434:483   */\n  tag_22\n    /* \"#utility.yul\":479:481   */\n  0x20\n    /* \"#utility.yul\":468:477   */\n  dup5\n    /* \"#utility.yul\":464:482   */\n  add\n    /* \"#utility.yul\":434:483   */\n  tag_15\n  jump\t// in\ntag_22:\n    /* \"#utility.yul\":424:483   */\n  swap1\n  pop\n    /* \"#utility.yul\":196:489   */\n  swap3\n  pop\n  swap3\n  swap1\n  pop\n  jump\t// out\n    /* \"#utility.yul\":494:697   */\ntag_16:\n    /* \"contracts/HashGame.sol\":175:3950  contract HashGame is Ownable {... */\n  mload(0x80)\n  codecopy(0x00, dataOffset(sub_0), dataSize(sub_0))\n  0x00\n  assignImmutable(\"0xb7020dd003fcd4d96af1507ff4dc7e2c1158f23ad0bacfdf3455869cf9fb4898\")\n  return(0x00, dataSize(sub_0))\nstop\n\nsub_0: assembly {\n        /* \"contracts/HashGame.sol\":175:3950  contract HashGame is Ownable {... */\n      mstore(0x40, 0x80)\n      callvalue\n      dup1\n      iszero\n      tag_1\n      jumpi\n      revert(0x00, 0x00)\n    tag_1:\n      pop\n      jumpi(tag_2, lt(calldatasize, 0x04))\n      shr(0xe0, calldataload(0x00))\n      dup1\n      0x8ab1d681\n      gt\n      tag_20\n      jumpi\n      dup1\n      0xe43252d7\n      gt\n      tag_21\n      jumpi\n      dup1\n      0xe43252d7\n      eq\n      tag_15\n      jumpi\n      dup1\n      0xf020044f\n      eq\n      tag_16\n      jumpi\n      dup1\n      0xf2fde38b\n      eq\n      tag_17\n      jumpi\n      dup1\n      0xf56e9c66\n      eq\n      tag_18\n      jumpi\n      dup1\n      0xfc0c546a\n      eq\n      tag_19\n      jumpi\n      revert(0x00, 0x00)\n    tag_21:\n      dup1\n      0x8ab1d681\n      eq\n      tag_11\n      jumpi\n      dup1\n      0x8da5cb5b\n      eq\n      tag_12\n      jumpi\n      dup1\n      0x9b19251a\n      eq\n      tag_13\n      jumpi\n      dup1\n      0xd65ab5f2\n      eq\n      tag_14\n      jumpi\n      revert(0x00, 0x00)\n    tag_20:\n      dup1\n      0x6540742f\n      gt\n      tag_22\n      jumpi\n      dup1\n      0x6540742f\n      eq\n      tag_7\n      jumpi\n      dup1\n      0x715018a6\n      eq\n      tag_8\n      jumpi\n      dup1\n      0x7365870b\n      eq\n      tag_9\n      jumpi\n      dup1\n      0x7e95b523\n      eq\n      tag_10\n      jumpi\n      revert(0x00, 0x00)\n    tag_22:\n      dup1\n      0x061e431c\n      eq\n      tag_3\n      jumpi\n      dup1\n      0x0c0ef2b0\n      eq\n      tag_4\n      jumpi\n      dup1\n      0x2cf685a4\n      eq\n      tag_5\n      jumpi\n      dup1\n      0x47ccca02\n      eq\n      tag_6\n      jumpi\n    tag_2:\n      revert(0x00, 0x00)\n        /* \"contracts/HashGame.sol\":380:439  uint256 public constant GAME_STOP_THRESHOLD = 10_000 * 1e18 */\n    tag_3:\n      tag_23\n        /* \"contracts/HashGame.sol\":426:439  10_000 * 1e18 */\n      0x021e19e0c9bab2400000\n        /* \"contracts/HashGame.sol\":380:439  uint256 public constant GAME_STOP_THRESHOLD = 10_000 * 1e18 */\n      dup2\n      jump\n    tag_23:\n      mload(0x40)\n        /* \"#utility.yul\":160:185   */\n      swap1\n      dup2\n      mstore\n        /* \"#utility.yul\":148:150   */\n      0x20\n        /* \"#utility.yul\":133:151   */\n      add\n        /* \"contracts/HashGame.sol\":380:439  uint256 public constant GAME_STOP_THRESHOLD = 10_000 * 1e18 */\n    tag_25:\n      mload(0x40)\n      dup1\n      swap2\n      sub\n      swap1\n      return\n        /* \"contracts/HashGame.sol\":3801:3947  function isGameActive() external view returns (bool) {... */\n    tag_4:\n      tag_27\n      tag_28\n      jump\t// in\n    tag_27:\n      mload(0x40)\n        /* \"#utility.yul\":361:375   */\n      swap1\n      iszero\n        /* \"#utility.yul\":354:376   */\n      iszero\n        /* \"#utility.yul\":336:377   */\n      dup2\n      mstore\n        /* \"#utility.yul\":324:326   */\n      0x20\n        /* \"#utility.yul\":309:327   */\n      add\n        /* \"contracts/HashGame.sol\":3801:3947  function isGameActive() external view returns (bool) {... */\n      tag_25\n        /* \"#utility.yul\":196:383   */\n      jump\n        /* \"contracts/HashGame.sol\":3446:3567  function forceStopGame() external onlyOwner {... */\n    tag_5:\n      tag_31\n      tag_32\n      jump\t// in\n    tag_31:\n      stop\n        /* \"contracts/HashGame.sol\":247:265  address public nft */\n    tag_6:\n      sload(0x01)\n      tag_33\n      swap1\n      sub(shl(0xa0, 0x01), 0x01)\n      and\n      dup2\n      jump\n    tag_33:\n      mload(0x40)\n      sub(shl(0xa0, 0x01), 0x01)\n        /* \"#utility.yul\":552:584   */\n      swap1\n      swap2\n      and\n        /* \"#utility.yul\":534:585   */\n      dup2\n      mstore\n        /* \"#utility.yul\":522:524   */\n      0x20\n        /* \"#utility.yul\":507:525   */\n      add\n        /* \"contracts/HashGame.sol\":247:265  address public nft */\n      tag_25\n        /* \"#utility.yul\":388:591   */\n      jump\n        /* \"contracts/HashGame.sol\":274:318  uint256 public constant MIN_BET = 100 * 1e18 */\n    tag_7:\n      tag_23\n        /* \"contracts/HashGame.sol\":308:318  100 * 1e18 */\n      0x056bc75e2d63100000\n        /* \"contracts/HashGame.sol\":274:318  uint256 public constant MIN_BET = 100 * 1e18 */\n      dup2\n      jump\n        /* \"@openzeppelin/contracts/access/Ownable.sol\":2293:2394  function renounceOwnership() public virtual onlyOwner {... */\n    tag_8:\n      tag_31\n      tag_41\n      jump\t// in\n        /* \"contracts/HashGame.sol\":878:2668  function bet(uint256 amount) external {... */\n    tag_9:\n      tag_31\n      tag_43\n      calldatasize\n      0x04\n      tag_44\n      jump\t// in\n    tag_43:\n      tag_45\n      jump\t// in\n        /* \"contracts/HashGame.sol\":325:373  uint256 public constant MAX_BET = 100_000 * 1e18 */\n    tag_10:\n      tag_23\n        /* \"contracts/HashGame.sol\":359:373  100_000 * 1e18 */\n      0x152d02c7e14af6800000\n        /* \"contracts/HashGame.sol\":325:373  uint256 public constant MAX_BET = 100_000 * 1e18 */\n      dup2\n      jump\n        /* \"contracts/HashGame.sol\":3194:3352  function removeFromWhitelist(address account) external onlyOwner {... */\n    tag_11:\n      tag_31\n      tag_50\n      calldatasize\n      0x04\n      tag_51\n      jump\t// in\n    tag_50:\n      tag_52\n      jump\t// in\n        /* \"@openzeppelin/contracts/access/Ownable.sol\":1638:1723  function owner() public view virtual returns (address) {... */\n    tag_12:\n        /* \"@openzeppelin/contracts/access/Ownable.sol\":1684:1691  address */\n      0x00\n        /* \"@openzeppelin/contracts/access/Ownable.sol\":1710:1716  _owner */\n      sload\n      sub(shl(0xa0, 0x01), 0x01)\n      and\n        /* \"@openzeppelin/contracts/access/Ownable.sol\":1638:1723  function owner() public view virtual returns (address) {... */\n      jump(tag_33)\n        /* \"contracts/HashGame.sol\":448:489  mapping(address => bool) public whitelist */\n    tag_13:\n      tag_27\n      tag_57\n      calldatasize\n      0x04\n      tag_51\n      jump\t// in\n    tag_57:\n      mstore(0x20, 0x02)\n      0x00\n      swap1\n      dup2\n      mstore\n      0x40\n      swap1\n      keccak256\n      sload\n      0xff\n      and\n      dup2\n      jump\n        /* \"contracts/HashGame.sol\":3575:3791  function startGame() external onlyOwner {... */\n    tag_14:\n      tag_31\n      tag_61\n      jump\t// in\n        /* \"contracts/HashGame.sol\":3035:3186  function addToWhitelist(address account) external onlyOwner {... */\n    tag_15:\n      tag_31\n      tag_63\n      calldatasize\n      0x04\n      tag_51\n      jump\t// in\n    tag_63:\n      tag_64\n      jump\t// in\n        /* \"contracts/HashGame.sol\":496:525  bool public gameActive = true */\n    tag_16:\n      sload(0x03)\n      tag_27\n      swap1\n      0xff\n      and\n      dup2\n      jump\n        /* \"@openzeppelin/contracts/access/Ownable.sol\":2543:2758  function transferOwnership(address newOwner) public virtual onlyOwner {... */\n    tag_17:\n      tag_31\n      tag_69\n      calldatasize\n      0x04\n      tag_51\n      jump\t// in\n    tag_69:\n      tag_70\n      jump\t// in\n        /* \"contracts/HashGame.sol\":3360:3438  function setNFT(address _nft) external onlyOwner {... */\n    tag_18:\n      tag_31\n      tag_72\n      calldatasize\n      0x04\n      tag_51\n      jump\t// in\n    tag_72:\n      tag_73\n      jump\t// in\n        /* \"contracts/HashGame.sol\":211:240  IERC20 public immutable token */\n    tag_19:\n      tag_33\n      immutable(\"0xb7020dd003fcd4d96af1507ff4dc7e2c1158f23ad0bacfdf3455869cf9fb4898\")\n      dup2\n      jump\n        /* \"contracts/HashGame.sol\":3801:3947  function isGameActive() external view returns (bool) {... */\n    tag_28:\n        /* \"contracts/HashGame.sol\":3872:3882  gameActive */\n      sload(0x03)\n        /* \"contracts/HashGame.sol\":3848:3852  bool */\n      0x00\n      swap1\n        /* \"contracts/HashGame.sol\":3872:3882  gameActive */\n      0xff\n      and\n        /* \"contracts/HashGame.sol\":3872:3939  gameActive && token.balanceOf(address(this)) >= GAME_STOP_THRESHOLD */\n      dup1\n      iszero\n      tag_79\n      jumpi\n      pop\n        /* \"contracts/HashGame.sol\":3886:3916  token.balanceOf(address(this)) */\n      mload(0x40)\n      shl(0xe0, 0x70a08231)\n      dup2\n      mstore\n        /* \"contracts/HashGame.sol\":3910:3914  this */\n      address\n        /* \"contracts/HashGame.sol\":3886:3916  token.balanceOf(address(this)) */\n      0x04\n      dup3\n      add\n        /* \"#utility.yul\":534:585   */\n      mstore\n        /* \"contracts/HashGame.sol\":426:439  10_000 * 1e18 */\n      0x021e19e0c9bab2400000\n      swap1\n        /* \"contracts/HashGame.sol\":3886:3891  token */\n      immutable(\"0xb7020dd003fcd4d96af1507ff4dc7e2c1158f23ad0bacfdf3455869cf9fb4898\")\n      sub(shl(0xa0, 0x01), 0x01)\n        /* \"contracts/HashGame.sol\":3886:3901  token.balanceOf */\n      and\n      swap1\n      0x70a08231\n      swap1\n        /* \"#utility.yul\":507:525   */\n      0x24\n      add\n        /* \"contracts/HashGame.sol\":3886:3916  token.balanceOf(address(this)) */\n      0x20\n      mload(0x40)\n      dup1\n      dup4\n      sub\n      dup2\n      dup7\n      gas\n      staticcall\n      iszero\n      dup1\n      iszero\n      tag_82\n      jumpi\n      returndatacopy(0x00, 0x00, returndatasize)\n      revert(0x00, returndatasize)\n    tag_82:\n      pop\n      pop\n      pop\n      pop\n      mload(0x40)\n      returndatasize\n      not(0x1f)\n      0x1f\n      dup3\n      add\n      and\n      dup3\n      add\n      dup1\n      0x40\n      mstore\n      pop\n      dup2\n      add\n      swap1\n      tag_83\n      swap2\n      swap1\n      tag_84\n      jump\t// in\n    tag_83:\n        /* \"contracts/HashGame.sol\":3886:3939  token.balanceOf(address(this)) >= GAME_STOP_THRESHOLD */\n      lt\n      iszero\n        /* \"contracts/HashGame.sol\":3872:3939  gameActive && token.balanceOf(address(this)) >= GAME_STOP_THRESHOLD */\n    tag_79:\n        /* \"contracts/HashGame.sol\":3865:3939  return gameActive && token.balanceOf(address(this)) >= GAME_STOP_THRESHOLD */\n      swap1\n      pop\n        /* \"contracts/HashGame.sol\":3801:3947  function isGameActive() external view returns (bool) {... */\n      swap1\n      jump\t// out\n        /* \"contracts/HashGame.sol\":3446:3567  function forceStopGame() external onlyOwner {... */\n    tag_32:\n        /* \"@openzeppelin/contracts/access/Ownable.sol\":1531:1544  _checkOwner() */\n      tag_86\n        /* \"@openzeppelin/contracts/access/Ownable.sol\":1531:1542  _checkOwner */\n      tag_87\n        /* \"@openzeppelin/contracts/access/Ownable.sol\":1531:1544  _checkOwner() */\n      jump\t// in\n    tag_86:\n        /* \"contracts/HashGame.sol\":3501:3511  gameActive */\n      0x03\n        /* \"contracts/HashGame.sol\":3501:3519  gameActive = false */\n      dup1\n      sload\n      not(0xff)\n      and\n      swap1\n      sstore\n        /* \"contracts/HashGame.sol\":3535:3559  GameStatusChanged(false) */\n      mload(0x40)\n      0x00\n        /* \"#utility.yul\":336:377   */\n      dup2\n      mstore\n      mload(0x00)\n      codecopy(0x00, data_7c63af91c38aa66029c65b3cf79cefb409e6d6c8b63fd70faf8cc4ce3d92be50, 0x20)\n      mload(0x00)\n      swap1\n      0x00\n      mstore\n        /* \"contracts/HashGame.sol\":3535:3559  GameStatusChanged(false) */\n      swap1\n        /* \"#utility.yul\":324:326   */\n      0x20\n        /* \"#utility.yul\":309:327   */\n      add\n        /* \"contracts/HashGame.sol\":3535:3559  GameStatusChanged(false) */\n    tag_89:\n      mload(0x40)\n      dup1\n      swap2\n      sub\n      swap1\n      log1\n        /* \"contracts/HashGame.sol\":3446:3567  function forceStopGame() external onlyOwner {... */\n      jump\t// out\n        /* \"@openzeppelin/contracts/access/Ownable.sol\":2293:2394  function renounceOwnership() public virtual onlyOwner {... */\n    tag_41:\n        /* \"@openzeppelin/contracts/access/Ownable.sol\":1531:1544  _checkOwner() */\n      tag_91\n        /* \"@openzeppelin/contracts/access/Ownable.sol\":1531:1542  _checkOwner */\n      tag_87\n        /* \"@openzeppelin/contracts/access/Ownable.sol\":1531:1544  _checkOwner() */\n      jump\t// in\n    tag_91:\n        /* \"@openzeppelin/contracts/access/Ownable.sol\":2357:2387  _transferOwnership(address(0)) */\n      tag_93\n        /* \"@openzeppelin/contracts/access/Ownable.sol\":2384:2385  0 */\n      0x00\n        /* \"@openzeppelin/contracts/access/Ownable.sol\":2357:2375  _transferOwnership */\n      tag_94\n        /* \"@openzeppelin/contracts/access/Ownable.sol\":2357:2387  _transferOwnership(address(0)) */\n      jump\t// in\n    tag_93:\n        /* \"@openzeppelin/contracts/access/Ownable.sol\":2293:2394  function renounceOwnership() public virtual onlyOwner {... */\n      jump\t// out\n        /* \"contracts/HashGame.sol\":878:2668  function bet(uint256 amount) external {... */\n    tag_45:\n        /* \"contracts/HashGame.sol\":935:945  gameActive */\n      and(0xff, sload(0x03))\n        /* \"contracts/HashGame.sol\":927:965  require(gameActive, \"Game is stopped\") */\n      tag_96\n      jumpi\n      mload(0x40)\n      shl(0xe5, 0x461bcd)\n      dup2\n      mstore\n        /* \"#utility.yul\":1685:1687   */\n      0x20\n        /* \"contracts/HashGame.sol\":927:965  require(gameActive, \"Game is stopped\") */\n      0x04\n      dup3\n      add\n        /* \"#utility.yul\":1667:1688   */\n      mstore\n        /* \"#utility.yul\":1724:1726   */\n      0x0f\n        /* \"#utility.yul\":1704:1722   */\n      0x24\n      dup3\n      add\n        /* \"#utility.yul\":1697:1727   */\n      mstore\n      shl(0x8a, 0x11d85b59481a5cc81cdd1bdc1c1959)\n        /* \"#utility.yul\":1743:1761   */\n      0x44\n      dup3\n      add\n        /* \"#utility.yul\":1736:1781   */\n      mstore\n        /* \"#utility.yul\":1798:1816   */\n      0x64\n      add\n        /* \"contracts/HashGame.sol\":927:965  require(gameActive, \"Game is stopped\") */\n    tag_97:\n      mload(0x40)\n      dup1\n      swap2\n      sub\n      swap1\n      revert\n    tag_96:\n        /* \"contracts/HashGame.sol\":1009:1019  msg.sender */\n      caller\n        /* \"contracts/HashGame.sol\":978:996  bool isWhitelisted */\n      0x00\n        /* \"contracts/HashGame.sol\":999:1020  whitelist[msg.sender] */\n      swap1\n      dup2\n      mstore\n        /* \"contracts/HashGame.sol\":999:1008  whitelist */\n      0x02\n        /* \"contracts/HashGame.sol\":999:1020  whitelist[msg.sender] */\n      0x20\n      mstore\n      0x40\n      swap1\n      keccak256\n      sload\n      0xff\n      and\n      dup1\n        /* \"contracts/HashGame.sol\":1033:1162  if (!isWhitelisted) {... */\n      tag_101\n      jumpi\n        /* \"contracts/HashGame.sol\":308:318  100 * 1e18 */\n      0x056bc75e2d63100000\n        /* \"contracts/HashGame.sol\":1076:1082  amount */\n      dup3\n        /* \"contracts/HashGame.sol\":1076:1093  amount >= MIN_BET */\n      lt\n      iszero\n        /* \"contracts/HashGame.sol\":1076:1114  amount >= MIN_BET && amount <= MAX_BET */\n      dup1\n      iszero\n      tag_100\n      jumpi\n      pop\n        /* \"contracts/HashGame.sol\":359:373  100_000 * 1e18 */\n      0x152d02c7e14af6800000\n        /* \"contracts/HashGame.sol\":1097:1103  amount */\n      dup3\n        /* \"contracts/HashGame.sol\":1097:1114  amount <= MAX_BET */\n      gt\n      iszero\n        /* \"contracts/HashGame.sol\":1076:1114  amount >= MIN_BET && amount <= MAX_BET */\n    tag_100:\n        /* \"contracts/HashGame.sol\":1068:1150  require(amount >= MIN_BET && amount <= MAX_BET, \"Bet amount must be 100 ~ 100000\") */\n      tag_101\n      jumpi\n      mload(0x40)\n      shl(0xe5, 0x461bcd)\n      dup2\n      mstore\n        /* \"#utility.yul\":2029:2031   */\n      0x20\n        /* \"contracts/HashGame.sol\":1068:1150  require(amount >= MIN_BET && amount <= MAX_BET, \"Bet amount must be 100 ~ 100000\") */\n      0x04\n      dup3\n      add\n        /* \"#utility.yul\":2011:2032   */\n      mstore\n        /* \"#utility.yul\":2068:2070   */\n      0x1f\n        /* \"#utility.yul\":2048:2066   */\n      0x24\n      dup3\n      add\n        /* \"#utility.yul\":2041:2071   */\n      mstore\n        /* \"#utility.yul\":2107:2140   */\n      0x42657420616d6f756e74206d75737420626520313030207e2031303030303000\n        /* \"#utility.yul\":2087:2105   */\n      0x44\n      dup3\n      add\n        /* \"#utility.yul\":2080:2141   */\n      mstore\n        /* \"#utility.yul\":2158:2176   */\n      0x64\n      add\n        /* \"contracts/HashGame.sol\":1068:1150  require(amount >= MIN_BET && amount <= MAX_BET, \"Bet amount must be 100 ~ 100000\") */\n      tag_97\n        /* \"#utility.yul\":1827:2182   */\n      jump\n        /* \"contracts/HashGame.sol\":1068:1150  require(amount >= MIN_BET && amount <= MAX_BET, \"Bet amount must be 100 ~ 100000\") */\n    tag_101:\n        /* \"contracts/HashGame.sol\":1200:1230  token.balanceOf(address(this)) */\n      mload(0x40)\n      shl(0xe0, 0x70a08231)\n      dup2\n      mstore\n        /* \"contracts/HashGame.sol\":1224:1228  this */\n      address\n        /* \"contracts/HashGame.sol\":1200:1230  token.balanceOf(address(this)) */\n      0x04\n      dup3\n      add\n        /* \"#utility.yul\":534:585   */\n      mstore\n        /* \"contracts/HashGame.sol\":1174:1197  uint256 contractBalance */\n      0x00\n      swap1\n        /* \"contracts/HashGame.sol\":1200:1205  token */\n      immutable(\"0xb7020dd003fcd4d96af1507ff4dc7e2c1158f23ad0bacfdf3455869cf9fb4898\")\n      sub(shl(0xa0, 0x01), 0x01)\n        /* \"contracts/HashGame.sol\":1200:1215  token.balanceOf */\n      and\n      swap1\n      0x70a08231\n      swap1\n        /* \"#utility.yul\":507:525   */\n      0x24\n      add\n        /* \"contracts/HashGame.sol\":1200:1230  token.balanceOf(address(this)) */\n      0x20\n      mload(0x40)\n      dup1\n      dup4\n      sub\n      dup2\n      dup7\n      gas\n      staticcall\n      iszero\n      dup1\n      iszero\n      tag_106\n      jumpi\n      returndatacopy(0x00, 0x00, returndatasize)\n      revert(0x00, returndatasize)\n    tag_106:\n      pop\n      pop\n      pop\n      pop\n      mload(0x40)\n      returndatasize\n      not(0x1f)\n      0x1f\n      dup3\n      add\n      and\n      dup3\n      add\n      dup1\n      0x40\n      mstore\n      pop\n      dup2\n      add\n      swap1\n      tag_107\n      swap2\n      swap1\n      tag_84\n      jump\t// in\n    tag_107:\n        /* \"contracts/HashGame.sol\":1174:1230  uint256 contractBalance = token.balanceOf(address(this)) */\n      swap1\n      pop\n        /* \"contracts/HashGame.sol\":426:439  10_000 * 1e18 */\n      0x021e19e0c9bab2400000\n        /* \"contracts/HashGame.sol\":1245:1260  contractBalance */\n      dup2\n        /* \"contracts/HashGame.sol\":1245:1282  contractBalance < GAME_STOP_THRESHOLD */\n      lt\n        /* \"contracts/HashGame.sol\":1241:1432  if (contractBalance < GAME_STOP_THRESHOLD) {... */\n      iszero\n      tag_108\n      jumpi\n        /* \"contracts/HashGame.sol\":1299:1309  gameActive */\n      0x03\n        /* \"contracts/HashGame.sol\":1299:1317  gameActive = false */\n      dup1\n      sload\n      not(0xff)\n      and\n      swap1\n      sstore\n        /* \"contracts/HashGame.sol\":1337:1361  GameStatusChanged(false) */\n      mload(0x40)\n      0x00\n        /* \"#utility.yul\":336:377   */\n      dup2\n      mstore\n      mload(0x00)\n      codecopy(0x00, data_7c63af91c38aa66029c65b3cf79cefb409e6d6c8b63fd70faf8cc4ce3d92be50, 0x20)\n      mload(0x00)\n      swap1\n      0x00\n      mstore\n        /* \"contracts/HashGame.sol\":1337:1361  GameStatusChanged(false) */\n      swap1\n        /* \"#utility.yul\":324:326   */\n      0x20\n        /* \"#utility.yul\":309:327   */\n      add\n        /* \"contracts/HashGame.sol\":1337:1361  GameStatusChanged(false) */\n      mload(0x40)\n      dup1\n      swap2\n      sub\n      swap1\n      log1\n        /* \"contracts/HashGame.sol\":1376:1420  revert(\"Game stopped: insufficient balance\") */\n      mload(0x40)\n      shl(0xe5, 0x461bcd)\n      dup2\n      mstore\n        /* \"#utility.yul\":2389:2391   */\n      0x20\n        /* \"contracts/HashGame.sol\":1376:1420  revert(\"Game stopped: insufficient balance\") */\n      0x04\n      dup3\n      add\n        /* \"#utility.yul\":2371:2392   */\n      mstore\n        /* \"#utility.yul\":2428:2430   */\n      0x22\n        /* \"#utility.yul\":2408:2426   */\n      0x24\n      dup3\n      add\n        /* \"#utility.yul\":2401:2431   */\n      mstore\n        /* \"#utility.yul\":2467:2501   */\n      0x47616d652073746f707065643a20696e73756666696369656e742062616c616e\n        /* \"#utility.yul\":2447:2465   */\n      0x44\n      dup3\n      add\n        /* \"#utility.yul\":2440:2502   */\n      mstore\n      shl(0xf0, 0x6365)\n        /* \"#utility.yul\":2518:2536   */\n      0x64\n      dup3\n      add\n        /* \"#utility.yul\":2511:2543   */\n      mstore\n        /* \"#utility.yul\":2560:2579   */\n      0x84\n      add\n        /* \"contracts/HashGame.sol\":1376:1420  revert(\"Game stopped: insufficient balance\") */\n      tag_97\n        /* \"#utility.yul\":2187:2585   */\n      jump\n        /* \"contracts/HashGame.sol\":1241:1432  if (contractBalance < GAME_STOP_THRESHOLD) {... */\n    tag_108:\n        /* \"contracts/HashGame.sol\":1452:1505  token.transferFrom(msg.sender, address(this), amount) */\n      mload(0x40)\n      shl(0xe0, 0x23b872dd)\n      dup2\n      mstore\n        /* \"contracts/HashGame.sol\":1471:1481  msg.sender */\n      caller\n        /* \"contracts/HashGame.sol\":1452:1505  token.transferFrom(msg.sender, address(this), amount) */\n      0x04\n      dup3\n      add\n        /* \"#utility.yul\":2792:2843   */\n      mstore\n        /* \"contracts/HashGame.sol\":1491:1495  this */\n      address\n        /* \"#utility.yul\":2859:2877   */\n      0x24\n      dup3\n      add\n        /* \"#utility.yul\":2852:2912   */\n      mstore\n        /* \"#utility.yul\":2928:2946   */\n      0x44\n      dup2\n      add\n        /* \"#utility.yul\":2921:2955   */\n      dup5\n      swap1\n      mstore\n        /* \"contracts/HashGame.sol\":1452:1457  token */\n      immutable(\"0xb7020dd003fcd4d96af1507ff4dc7e2c1158f23ad0bacfdf3455869cf9fb4898\")\n      sub(shl(0xa0, 0x01), 0x01)\n        /* \"contracts/HashGame.sol\":1452:1470  token.transferFrom */\n      and\n      swap1\n      0x23b872dd\n      swap1\n        /* \"#utility.yul\":2765:2783   */\n      0x64\n      add\n        /* \"contracts/HashGame.sol\":1452:1505  token.transferFrom(msg.sender, address(this), amount) */\n      0x20\n      mload(0x40)\n      dup1\n      dup4\n      sub\n      dup2\n      0x00\n      dup8\n      gas\n      call\n      iszero\n      dup1\n      iszero\n      tag_115\n      jumpi\n      returndatacopy(0x00, 0x00, returndatasize)\n      revert(0x00, returndatasize)\n    tag_115:\n      pop\n      pop\n      pop\n      pop\n      mload(0x40)\n      returndatasize\n      not(0x1f)\n      0x1f\n      dup3\n      add\n      and\n      dup3\n      add\n      dup1\n      0x40\n      mstore\n      pop\n      dup2\n      add\n      swap1\n      tag_116\n      swap2\n      swap1\n      tag_117\n      jump\t// in\n    tag_116:\n        /* \"contracts/HashGame.sol\":1444:1531  require(token.transferFrom(msg.sender, address(this), amount), \"Token transfer failed\") */\n      tag_118\n      jumpi\n      mload(0x40)\n      shl(0xe5, 0x461bcd)\n      dup2\n      mstore\n        /* \"#utility.yul\":3450:3452   */\n      0x20\n        /* \"contracts/HashGame.sol\":1444:1531  require(token.transferFrom(msg.sender, address(this), amount), \"Token transfer failed\") */\n      0x04\n      dup3\n      add\n        /* \"#utility.yul\":3432:3453   */\n      mstore\n        /* \"#utility.yul\":3489:3491   */\n      0x15\n        /* \"#utility.yul\":3469:3487   */\n      0x24\n      dup3\n      add\n        /* \"#utility.yul\":3462:3492   */\n      mstore\n      shl(0x5a, 0x151bdad95b881d1c985b9cd9995c8819985a5b1959)\n        /* \"#utility.yul\":3508:3526   */\n      0x44\n      dup3\n      add\n        /* \"#utility.yul\":3501:3552   */\n      mstore\n        /* \"#utility.yul\":3569:3587   */\n      0x64\n      add\n        /* \"contracts/HashGame.sol\":1444:1531  require(token.transferFrom(msg.sender, address(this), amount), \"Token transfer failed\") */\n      tag_97\n        /* \"#utility.yul\":3248:3593   */\n      jump\n        /* \"contracts/HashGame.sol\":1444:1531  require(token.transferFrom(msg.sender, address(this), amount), \"Token transfer failed\") */\n    tag_118:\n        /* \"contracts/HashGame.sol\":1618:1631  uint256 toNFT */\n      0x00\n        /* \"contracts/HashGame.sol\":1649:1652  100 */\n      0x64\n        /* \"contracts/HashGame.sol\":1635:1645  amount * 5 */\n      tag_121\n        /* \"contracts/HashGame.sol\":1635:1641  amount */\n      dup6\n        /* \"contracts/HashGame.sol\":1644:1645  5 */\n      0x05\n        /* \"contracts/HashGame.sol\":1635:1645  amount * 5 */\n      tag_122\n      jump\t// in\n    tag_121:\n        /* \"contracts/HashGame.sol\":1634:1652  (amount * 5) / 100 */\n      tag_123\n      swap2\n      swap1\n      tag_124\n      jump\t// in\n    tag_123:\n        /* \"contracts/HashGame.sol\":1618:1652  uint256 toNFT = (amount * 5) / 100 */\n      swap1\n      pop\n        /* \"contracts/HashGame.sol\":1675:1676  0 */\n      0x00\n        /* \"contracts/HashGame.sol\":1667:1672  toNFT */\n      dup2\n        /* \"contracts/HashGame.sol\":1667:1676  toNFT > 0 */\n      gt\n        /* \"contracts/HashGame.sol\":1667:1697  toNFT > 0 && nft != address(0) */\n      dup1\n      iszero\n      tag_125\n      jumpi\n      pop\n        /* \"contracts/HashGame.sol\":1680:1683  nft */\n      and(sub(shl(0xa0, 0x01), 0x01), sload(0x01))\n        /* \"contracts/HashGame.sol\":1680:1697  nft != address(0) */\n      iszero\n      iszero\n        /* \"contracts/HashGame.sol\":1667:1697  toNFT > 0 && nft != address(0) */\n    tag_125:\n        /* \"contracts/HashGame.sol\":1663:1752  if (toNFT > 0 && nft != address(0)) {... */\n      iszero\n      tag_126\n      jumpi\n        /* \"contracts/HashGame.sol\":1729:1732  nft */\n      sload(0x01)\n        /* \"contracts/HashGame.sol\":1714:1740  token.transfer(nft, toNFT) */\n      mload(0x40)\n      shl(0xe0, 0xa9059cbb)\n      dup2\n      mstore\n      sub(shl(0xa0, 0x01), 0x01)\n        /* \"contracts/HashGame.sol\":1729:1732  nft */\n      swap2\n      dup3\n      and\n        /* \"contracts/HashGame.sol\":1714:1740  token.transfer(nft, toNFT) */\n      0x04\n      dup3\n      add\n        /* \"#utility.yul\":4334:4385   */\n      mstore\n        /* \"#utility.yul\":4401:4419   */\n      0x24\n      dup2\n      add\n        /* \"#utility.yul\":4394:4428   */\n      dup4\n      swap1\n      mstore\n        /* \"contracts/HashGame.sol\":1714:1719  token */\n      immutable(\"0xb7020dd003fcd4d96af1507ff4dc7e2c1158f23ad0bacfdf3455869cf9fb4898\")\n        /* \"contracts/HashGame.sol\":1714:1728  token.transfer */\n      swap1\n      swap2\n      and\n      swap1\n      0xa9059cbb\n      swap1\n        /* \"#utility.yul\":4307:4325   */\n      0x44\n      add\n        /* \"contracts/HashGame.sol\":1714:1740  token.transfer(nft, toNFT) */\n      0x20\n      mload(0x40)\n      dup1\n      dup4\n      sub\n      dup2\n      0x00\n      dup8\n      gas\n      call\n      iszero\n      dup1\n      iszero\n      tag_130\n      jumpi\n      returndatacopy(0x00, 0x00, returndatasize)\n      revert(0x00, returndatasize)\n    tag_130:\n      pop\n      pop\n      pop\n      pop\n      mload(0x40)\n      returndatasize\n      not(0x1f)\n      0x1f\n      dup3\n      add\n      and\n      dup3\n      add\n      dup1\n      0x40\n      mstore\n      pop\n      dup2\n      add\n      swap1\n      tag_131\n      swap2\n      swap1\n      tag_117\n      jump\t// in\n    tag_131:\n      pop\n        /* \"contracts/HashGame.sol\":1663:1752  if (toNFT > 0 && nft != address(0)) {... */\n    tag_126:\n        /* \"contracts/HashGame.sol\":1862:1929  abi.encodePacked(block.timestamp, msg.sender, block.number, amount) */\n      0x40\n      dup1\n      mload\n        /* \"contracts/HashGame.sol\":1879:1894  block.timestamp */\n      timestamp\n        /* \"contracts/HashGame.sol\":1862:1929  abi.encodePacked(block.timestamp, msg.sender, block.number, amount) */\n      0x20\n      dup3\n      add\n        /* \"#utility.yul\":4652:4671   */\n      mstore\n      not(0xffffffffffffffffffffffff)\n        /* \"contracts/HashGame.sol\":1896:1906  msg.sender */\n      caller\n        /* \"#utility.yul\":4709:4711   */\n      0x60\n        /* \"#utility.yul\":4705:4720   */\n      shl\n        /* \"#utility.yul\":4701:4754   */\n      and\n        /* \"#utility.yul\":4687:4699   */\n      swap2\n      dup2\n      add\n        /* \"#utility.yul\":4680:4755   */\n      swap2\n      swap1\n      swap2\n      mstore\n        /* \"contracts/HashGame.sol\":1908:1920  block.number */\n      number\n        /* \"#utility.yul\":4771:4783   */\n      0x54\n      dup3\n      add\n        /* \"#utility.yul\":4764:4792   */\n      mstore\n        /* \"#utility.yul\":4808:4820   */\n      0x74\n      dup2\n      add\n        /* \"#utility.yul\":4801:4829   */\n      dup6\n      swap1\n      mstore\n        /* \"contracts/HashGame.sol\":1837:1849  bytes32 hash */\n      0x00\n      swap1\n        /* \"#utility.yul\":4845:4858   */\n      0x94\n      add\n        /* \"contracts/HashGame.sol\":1862:1929  abi.encodePacked(block.timestamp, msg.sender, block.number, amount) */\n      mload(0x40)\n      0x20\n      dup2\n      dup4\n      sub\n      sub\n      dup2\n      mstore\n      swap1\n      0x40\n      mstore\n        /* \"contracts/HashGame.sol\":1852:1930  keccak256(abi.encodePacked(block.timestamp, msg.sender, block.number, amount)) */\n      dup1\n      mload\n      swap1\n      0x20\n      add\n      keccak256\n        /* \"contracts/HashGame.sol\":1837:1930  bytes32 hash = keccak256(abi.encodePacked(block.timestamp, msg.sender, block.number, amount)) */\n      swap1\n      pop\n        /* \"contracts/HashGame.sol\":1941:1956  uint8 lastDigit */\n      0x00\n        /* \"contracts/HashGame.sol\":1959:1986  _getLastDigitFromHash(hash) */\n      tag_134\n        /* \"contracts/HashGame.sol\":1981:1985  hash */\n      dup3\n        /* \"contracts/HashGame.sol\":1959:1980  _getLastDigitFromHash */\n      tag_135\n        /* \"contracts/HashGame.sol\":1959:1986  _getLastDigitFromHash(hash) */\n      jump\t// in\n    tag_134:\n        /* \"contracts/HashGame.sol\":1941:1986  uint8 lastDigit = _getLastDigitFromHash(hash) */\n      swap1\n      pop\n        /* \"contracts/HashGame.sol\":1997:2007  bool isOdd */\n      0x00\n        /* \"contracts/HashGame.sol\":2011:2024  lastDigit % 2 */\n      tag_136\n        /* \"contracts/HashGame.sol\":2023:2024  2 */\n      0x02\n        /* \"contracts/HashGame.sol\":1941:1986  uint8 lastDigit = _getLastDigitFromHash(hash) */\n      dup4\n        /* \"contracts/HashGame.sol\":2011:2024  lastDigit % 2 */\n      tag_137\n      jump\t// in\n    tag_136:\n        /* \"contracts/HashGame.sol\":2011:2029  lastDigit % 2 == 1 */\n      0xff\n      and\n        /* \"contracts/HashGame.sol\":2028:2029  1 */\n      0x01\n        /* \"contracts/HashGame.sol\":2011:2029  lastDigit % 2 == 1 */\n      eq\n      swap1\n      pop\n      dup1\n        /* \"contracts/HashGame.sol\":2043:2051  bool win */\n      0x00\n        /* \"contracts/HashGame.sol\":2011:2029  lastDigit % 2 == 1 */\n      dup2\n        /* \"contracts/HashGame.sol\":2107:2128  win && !isWhitelisted */\n      dup1\n      iszero\n      tag_138\n      jumpi\n      pop\n        /* \"contracts/HashGame.sol\":2115:2128  isWhitelisted */\n      dup8\n        /* \"contracts/HashGame.sol\":2114:2128  !isWhitelisted */\n      iszero\n        /* \"contracts/HashGame.sol\":2107:2128  win && !isWhitelisted */\n    tag_138:\n        /* \"contracts/HashGame.sol\":2103:2594  if (win && !isWhitelisted) {... */\n      iszero\n      tag_139\n      jumpi\n        /* \"contracts/HashGame.sol\":2145:2162  uint256 winAmount */\n      0x00\n        /* \"contracts/HashGame.sol\":2165:2175  amount * 2 */\n      tag_140\n        /* \"contracts/HashGame.sol\":2165:2171  amount */\n      dup11\n        /* \"contracts/HashGame.sol\":2174:2175  2 */\n      0x02\n        /* \"contracts/HashGame.sol\":2165:2175  amount * 2 */\n      tag_122\n      jump\t// in\n    tag_140:\n        /* \"contracts/HashGame.sol\":2210:2240  token.balanceOf(address(this)) */\n      mload(0x40)\n      shl(0xe0, 0x70a08231)\n      dup2\n      mstore\n        /* \"contracts/HashGame.sol\":2234:2238  this */\n      address\n        /* \"contracts/HashGame.sol\":2210:2240  token.balanceOf(address(this)) */\n      0x04\n      dup3\n      add\n        /* \"#utility.yul\":534:585   */\n      mstore\n        /* \"contracts/HashGame.sol\":2145:2175  uint256 winAmount = amount * 2 */\n      swap1\n      swap2\n      pop\n        /* \"contracts/HashGame.sol\":2190:2207  uint256 available */\n      0x00\n      swap1\n      sub(shl(0xa0, 0x01), 0x01)\n        /* \"contracts/HashGame.sol\":2210:2215  token */\n      immutable(\"0xb7020dd003fcd4d96af1507ff4dc7e2c1158f23ad0bacfdf3455869cf9fb4898\")\n        /* \"contracts/HashGame.sol\":2210:2225  token.balanceOf */\n      and\n      swap1\n      0x70a08231\n      swap1\n        /* \"#utility.yul\":507:525   */\n      0x24\n      add\n        /* \"contracts/HashGame.sol\":2210:2240  token.balanceOf(address(this)) */\n      0x20\n      mload(0x40)\n      dup1\n      dup4\n      sub\n      dup2\n      dup7\n      gas\n      staticcall\n      iszero\n      dup1\n      iszero\n      tag_143\n      jumpi\n      returndatacopy(0x00, 0x00, returndatasize)\n      revert(0x00, returndatasize)\n    tag_143:\n      pop\n      pop\n      pop\n      pop\n      mload(0x40)\n      returndatasize\n      not(0x1f)\n      0x1f\n      dup3\n      add\n      and\n      dup3\n      add\n      dup1\n      0x40\n      mstore\n      pop\n      dup2\n      add\n      swap1\n      tag_144\n      swap2\n      swap1\n      tag_84\n      jump\t// in\n    tag_144:\n        /* \"contracts/HashGame.sol\":2190:2240  uint256 available = token.balanceOf(address(this)) */\n      swap1\n      pop\n        /* \"contracts/HashGame.sol\":2274:2283  winAmount */\n      dup2\n        /* \"contracts/HashGame.sol\":2261:2270  available */\n      dup2\n        /* \"contracts/HashGame.sol\":2261:2283  available >= winAmount */\n      lt\n        /* \"contracts/HashGame.sol\":2257:2482  if (available >= winAmount) {... */\n      tag_145\n      jumpi\n        /* \"contracts/HashGame.sol\":2313:2322  winAmount */\n      dup2\n        /* \"contracts/HashGame.sol\":2304:2322  payout = winAmount */\n      swap3\n      pop\n        /* \"contracts/HashGame.sol\":2257:2482  if (available >= winAmount) {... */\n      jump(tag_146)\n    tag_145:\n        /* \"contracts/HashGame.sol\":2400:2410  gameActive */\n      0x03\n        /* \"contracts/HashGame.sol\":2400:2418  gameActive = false */\n      dup1\n      sload\n      not(0xff)\n      and\n      swap1\n      sstore\n        /* \"contracts/HashGame.sol\":2442:2466  GameStatusChanged(false) */\n      mload(0x40)\n      0x00\n        /* \"#utility.yul\":336:377   */\n      dup2\n      mstore\n        /* \"contracts/HashGame.sol\":2372:2381  available */\n      swap1\n      swap3\n      pop\n      dup3\n      swap1\n      mload(0x00)\n      codecopy(0x00, data_7c63af91c38aa66029c65b3cf79cefb409e6d6c8b63fd70faf8cc4ce3d92be50, 0x20)\n      mload(0x00)\n      swap1\n      0x00\n      mstore\n        /* \"contracts/HashGame.sol\":2442:2466  GameStatusChanged(false) */\n      swap1\n        /* \"#utility.yul\":324:326   */\n      0x20\n        /* \"#utility.yul\":309:327   */\n      add\n        /* \"contracts/HashGame.sol\":2442:2466  GameStatusChanged(false) */\n      mload(0x40)\n      dup1\n      swap2\n      sub\n      swap1\n      log1\n        /* \"contracts/HashGame.sol\":2257:2482  if (available >= winAmount) {... */\n    tag_146:\n        /* \"contracts/HashGame.sol\":2502:2512  payout > 0 */\n      dup3\n      iszero\n        /* \"contracts/HashGame.sol\":2498:2583  if (payout > 0) {... */\n      tag_148\n      jumpi\n        /* \"contracts/HashGame.sol\":2533:2567  token.transfer(msg.sender, payout) */\n      mload(0x40)\n      shl(0xe0, 0xa9059cbb)\n      dup2\n      mstore\n        /* \"contracts/HashGame.sol\":2548:2558  msg.sender */\n      caller\n        /* \"contracts/HashGame.sol\":2533:2567  token.transfer(msg.sender, payout) */\n      0x04\n      dup3\n      add\n        /* \"#utility.yul\":4334:4385   */\n      mstore\n        /* \"#utility.yul\":4401:4419   */\n      0x24\n      dup2\n      add\n        /* \"#utility.yul\":4394:4428   */\n      dup5\n      swap1\n      mstore\n        /* \"contracts/HashGame.sol\":2533:2538  token */\n      immutable(\"0xb7020dd003fcd4d96af1507ff4dc7e2c1158f23ad0bacfdf3455869cf9fb4898\")\n      sub(shl(0xa0, 0x01), 0x01)\n        /* \"contracts/HashGame.sol\":2533:2547  token.transfer */\n      and\n      swap1\n      0xa9059cbb\n      swap1\n        /* \"#utility.yul\":4307:4325   */\n      0x44\n      add\n        /* \"contracts/HashGame.sol\":2533:2567  token.transfer(msg.sender, payout) */\n      0x20\n      mload(0x40)\n      dup1\n      dup4\n      sub\n      dup2\n      0x00\n      dup8\n      gas\n      call\n      iszero\n      dup1\n      iszero\n      tag_151\n      jumpi\n      returndatacopy(0x00, 0x00, returndatasize)\n      revert(0x00, returndatasize)\n    tag_151:\n      pop\n      pop\n      pop\n      pop\n      mload(0x40)\n      returndatasize\n      not(0x1f)\n      0x1f\n      dup3\n      add\n      and\n      dup3\n      add\n      dup1\n      0x40\n      mstore\n      pop\n      dup2\n      add\n      swap1\n      tag_152\n      swap2\n      swap1\n      tag_117\n      jump\t// in\n    tag_152:\n      pop\n        /* \"contracts/HashGame.sol\":2498:2583  if (payout > 0) {... */\n    tag_148:\n        /* \"contracts/HashGame.sol\":2130:2594  {... */\n      pop\n      pop\n        /* \"contracts/HashGame.sol\":2103:2594  if (win && !isWhitelisted) {... */\n    tag_139:\n        /* \"contracts/HashGame.sol\":2611:2660  BetPlaced(msg.sender, amount, isOdd, win, payout) */\n      0x40\n      dup1\n      mload\n        /* \"#utility.yul\":5250:5275   */\n      dup11\n      dup2\n      mstore\n        /* \"#utility.yul\":5318:5332   */\n      dup5\n      iszero\n        /* \"#utility.yul\":5311:5333   */\n      iszero\n        /* \"#utility.yul\":5306:5308   */\n      0x20\n        /* \"#utility.yul\":5291:5309   */\n      dup3\n      add\n        /* \"#utility.yul\":5284:5334   */\n      mstore\n        /* \"#utility.yul\":5377:5391   */\n      dup4\n      iszero\n        /* \"#utility.yul\":5370:5392   */\n      iszero\n        /* \"#utility.yul\":5350:5368   */\n      dup2\n      dup4\n      add\n        /* \"#utility.yul\":5343:5393   */\n      mstore\n        /* \"#utility.yul\":5424:5426   */\n      0x60\n        /* \"#utility.yul\":5409:5427   */\n      dup2\n      add\n        /* \"#utility.yul\":5402:5436   */\n      dup4\n      swap1\n      mstore\n        /* \"contracts/HashGame.sol\":2611:2660  BetPlaced(msg.sender, amount, isOdd, win, payout) */\n      swap1\n      mload\n        /* \"contracts/HashGame.sol\":2621:2631  msg.sender */\n      caller\n      swap2\n        /* \"contracts/HashGame.sol\":2611:2660  BetPlaced(msg.sender, amount, isOdd, win, payout) */\n      0x316ab8c7409332c9cedbf19a8dc4d2f926f2976b4561f8954db9eb3b00e007d9\n      swap2\n      swap1\n      dup2\n      swap1\n      sub\n        /* \"#utility.yul\":5237:5240   */\n      0x80\n        /* \"contracts/HashGame.sol\":2611:2660  BetPlaced(msg.sender, amount, isOdd, win, payout) */\n      add\n      swap1\n      log2\n        /* \"contracts/HashGame.sol\":916:2668  {... */\n      pop\n      pop\n      pop\n      pop\n      pop\n      pop\n      pop\n      pop\n        /* \"contracts/HashGame.sol\":878:2668  function bet(uint256 amount) external {... */\n      pop\n      jump\t// out\n        /* \"contracts/HashGame.sol\":3194:3352  function removeFromWhitelist(address account) external onlyOwner {... */\n    tag_52:\n        /* \"@openzeppelin/contracts/access/Ownable.sol\":1531:1544  _checkOwner() */\n      tag_156\n        /* \"@openzeppelin/contracts/access/Ownable.sol\":1531:1542  _checkOwner */\n      tag_87\n        /* \"@openzeppelin/contracts/access/Ownable.sol\":1531:1544  _checkOwner() */\n      jump\t// in\n    tag_156:\n      sub(shl(0xa0, 0x01), 0x01)\n        /* \"contracts/HashGame.sol\":3270:3288  whitelist[account] */\n      dup2\n      and\n        /* \"contracts/HashGame.sol\":3291:3296  false */\n      0x00\n        /* \"contracts/HashGame.sol\":3270:3288  whitelist[account] */\n      dup2\n      dup2\n      mstore\n        /* \"contracts/HashGame.sol\":3270:3279  whitelist */\n      0x02\n        /* \"contracts/HashGame.sol\":3270:3288  whitelist[account] */\n      0x20\n      swap1\n      dup2\n      mstore\n      0x40\n      dup1\n      dup4\n      keccak256\n        /* \"contracts/HashGame.sol\":3270:3296  whitelist[account] = false */\n      dup1\n      sload\n      not(0xff)\n      and\n      swap1\n      sstore\n        /* \"contracts/HashGame.sol\":3312:3344  WhitelistUpdated(account, false) */\n      mload\n        /* \"#utility.yul\":336:377   */\n      swap2\n      dup3\n      mstore\n        /* \"contracts/HashGame.sol\":3312:3344  WhitelistUpdated(account, false) */\n      0xf93f9a76c1bf3444d22400a00cb9fe990e6abe9dbb333fda48859cfee864543d\n      swap2\n        /* \"#utility.yul\":309:327   */\n      add\n        /* \"contracts/HashGame.sol\":3312:3344  WhitelistUpdated(account, false) */\n    tag_158:\n      mload(0x40)\n      dup1\n      swap2\n      sub\n      swap1\n      log2\n        /* \"contracts/HashGame.sol\":3194:3352  function removeFromWhitelist(address account) external onlyOwner {... */\n      pop\n      jump\t// out\n        /* \"contracts/HashGame.sol\":3575:3791  function startGame() external onlyOwner {... */\n    tag_61:\n        /* \"@openzeppelin/contracts/access/Ownable.sol\":1531:1544  _checkOwner() */\n      tag_161\n        /* \"@openzeppelin/contracts/access/Ownable.sol\":1531:1542  _checkOwner */\n      tag_87\n        /* \"@openzeppelin/contracts/access/Ownable.sol\":1531:1544  _checkOwner() */\n      jump\t// in\n    tag_161:\n        /* \"contracts/HashGame.sol\":3634:3664  token.balanceOf(address(this)) */\n      mload(0x40)\n      shl(0xe0, 0x70a08231)\n      dup2\n      mstore\n        /* \"contracts/HashGame.sol\":3658:3662  this */\n      address\n        /* \"contracts/HashGame.sol\":3634:3664  token.balanceOf(address(this)) */\n      0x04\n      dup3\n      add\n        /* \"#utility.yul\":534:585   */\n      mstore\n        /* \"contracts/HashGame.sol\":426:439  10_000 * 1e18 */\n      0x021e19e0c9bab2400000\n      swap1\n        /* \"contracts/HashGame.sol\":3634:3639  token */\n      immutable(\"0xb7020dd003fcd4d96af1507ff4dc7e2c1158f23ad0bacfdf3455869cf9fb4898\")\n      sub(shl(0xa0, 0x01), 0x01)\n        /* \"contracts/HashGame.sol\":3634:3649  token.balanceOf */\n      and\n      swap1\n      0x70a08231\n      swap1\n        /* \"#utility.yul\":507:525   */\n      0x24\n      add\n        /* \"contracts/HashGame.sol\":3634:3664  token.balanceOf(address(this)) */\n      0x20\n      mload(0x40)\n      dup1\n      dup4\n      sub\n      dup2\n      dup7\n      gas\n      staticcall\n      iszero\n      dup1\n      iszero\n      tag_165\n      jumpi\n      returndatacopy(0x00, 0x00, returndatasize)\n      revert(0x00, returndatasize)\n    tag_165:\n      pop\n      pop\n      pop\n      pop\n      mload(0x40)\n      returndatasize\n      not(0x1f)\n      0x1f\n      dup3\n      add\n      and\n      dup3\n      add\n      dup1\n      0x40\n      mstore\n      pop\n      dup2\n      add\n      swap1\n      tag_166\n      swap2\n      swap1\n      tag_84\n      jump\t// in\n    tag_166:\n        /* \"contracts/HashGame.sol\":3634:3687  token.balanceOf(address(this)) >= GAME_STOP_THRESHOLD */\n      lt\n      iszero\n        /* \"contracts/HashGame.sol\":3626:3716  require(token.balanceOf(address(this)) >= GAME_STOP_THRESHOLD, \"Balance too low to start\") */\n      tag_167\n      jumpi\n      mload(0x40)\n      shl(0xe5, 0x461bcd)\n      dup2\n      mstore\n        /* \"#utility.yul\":5649:5651   */\n      0x20\n        /* \"contracts/HashGame.sol\":3626:3716  require(token.balanceOf(address(this)) >= GAME_STOP_THRESHOLD, \"Balance too low to start\") */\n      0x04\n      dup3\n      add\n        /* \"#utility.yul\":5631:5652   */\n      mstore\n        /* \"#utility.yul\":5688:5690   */\n      0x18\n        /* \"#utility.yul\":5668:5686   */\n      0x24\n      dup3\n      add\n        /* \"#utility.yul\":5661:5691   */\n      mstore\n        /* \"#utility.yul\":5727:5753   */\n      0x42616c616e636520746f6f206c6f7720746f2073746172740000000000000000\n        /* \"#utility.yul\":5707:5725   */\n      0x44\n      dup3\n      add\n        /* \"#utility.yul\":5700:5754   */\n      mstore\n        /* \"#utility.yul\":5771:5789   */\n      0x64\n      add\n        /* \"contracts/HashGame.sol\":3626:3716  require(token.balanceOf(address(this)) >= GAME_STOP_THRESHOLD, \"Balance too low to start\") */\n      tag_97\n        /* \"#utility.yul\":5447:5795   */\n      jump\n        /* \"contracts/HashGame.sol\":3626:3716  require(token.balanceOf(address(this)) >= GAME_STOP_THRESHOLD, \"Balance too low to start\") */\n    tag_167:\n        /* \"contracts/HashGame.sol\":3727:3737  gameActive */\n      0x03\n        /* \"contracts/HashGame.sol\":3727:3744  gameActive = true */\n      dup1\n      sload\n      not(0xff)\n      and\n        /* \"contracts/HashGame.sol\":3740:3744  true */\n      0x01\n        /* \"contracts/HashGame.sol\":3727:3744  gameActive = true */\n      swap1\n      dup2\n      or\n      swap1\n      swap2\n      sstore\n        /* \"contracts/HashGame.sol\":3760:3783  GameStatusChanged(true) */\n      mload(0x40)\n        /* \"#utility.yul\":336:377   */\n      swap1\n      dup2\n      mstore\n      mload(0x00)\n      codecopy(0x00, data_7c63af91c38aa66029c65b3cf79cefb409e6d6c8b63fd70faf8cc4ce3d92be50, 0x20)\n      mload(0x00)\n      swap1\n      0x00\n      mstore\n        /* \"contracts/HashGame.sol\":3760:3783  GameStatusChanged(true) */\n      swap1\n        /* \"#utility.yul\":324:326   */\n      0x20\n        /* \"#utility.yul\":309:327   */\n      add\n        /* \"contracts/HashGame.sol\":3760:3783  GameStatusChanged(true) */\n      tag_89\n        /* \"#utility.yul\":196:383   */\n      jump\n        /* \"contracts/HashGame.sol\":3035:3186  function addToWhitelist(address account) external onlyOwner {... */\n    tag_64:\n        /* \"@openzeppelin/contracts/access/Ownable.sol\":1531:1544  _checkOwner() */\n      tag_172\n        /* \"@openzeppelin/contracts/access/Ownable.sol\":1531:1542  _checkOwner */\n      tag_87\n        /* \"@openzeppelin/contracts/access/Ownable.sol\":1531:1544  _checkOwner() */\n      jump\t// in\n    tag_172:\n      sub(shl(0xa0, 0x01), 0x01)\n        /* \"contracts/HashGame.sol\":3106:3124  whitelist[account] */\n      dup2\n      and\n      0x00\n      dup2\n      dup2\n      mstore\n        /* \"contracts/HashGame.sol\":3106:3115  whitelist */\n      0x02\n        /* \"contracts/HashGame.sol\":3106:3124  whitelist[account] */\n      0x20\n      swap1\n      dup2\n      mstore\n      0x40\n      swap2\n      dup3\n      swap1\n      keccak256\n        /* \"contracts/HashGame.sol\":3106:3131  whitelist[account] = true */\n      dup1\n      sload\n      not(0xff)\n      and\n        /* \"contracts/HashGame.sol\":3127:3131  true */\n      0x01\n        /* \"contracts/HashGame.sol\":3106:3131  whitelist[account] = true */\n      swap1\n      dup2\n      or\n      swap1\n      swap2\n      sstore\n        /* \"contracts/HashGame.sol\":3147:3178  WhitelistUpdated(account, true) */\n      swap2\n      mload\n        /* \"#utility.yul\":336:377   */\n      swap2\n      dup3\n      mstore\n        /* \"contracts/HashGame.sol\":3147:3178  WhitelistUpdated(account, true) */\n      0xf93f9a76c1bf3444d22400a00cb9fe990e6abe9dbb333fda48859cfee864543d\n      swap2\n        /* \"#utility.yul\":309:327   */\n      add\n        /* \"contracts/HashGame.sol\":3147:3178  WhitelistUpdated(account, true) */\n      tag_158\n        /* \"#utility.yul\":196:383   */\n      jump\n        /* \"@openzeppelin/contracts/access/Ownable.sol\":2543:2758  function transferOwnership(address newOwner) public virtual onlyOwner {... */\n    tag_70:\n        /* \"@openzeppelin/contracts/access/Ownable.sol\":1531:1544  _checkOwner() */\n      tag_176\n        /* \"@openzeppelin/contracts/access/Ownable.sol\":1531:1542  _checkOwner */\n      tag_87\n        /* \"@openzeppelin/contracts/access/Ownable.sol\":1531:1544  _checkOwner() */\n      jump\t// in\n    tag_176:\n      sub(shl(0xa0, 0x01), 0x01)\n        /* \"@openzeppelin/contracts/access/Ownable.sol\":2627:2649  newOwner == address(0) */\n      dup2\n      and\n        /* \"@openzeppelin/contracts/access/Ownable.sol\":2623:2714  if (newOwner == address(0)) {... */\n      tag_178\n      jumpi\n        /* \"@openzeppelin/contracts/access/Ownable.sol\":2672:2703  OwnableInvalidOwner(address(0)) */\n      mload(0x40)\n      shl(0xe0, 0x1e4fbdf7)\n      dup2\n      mstore\n        /* \"@openzeppelin/contracts/access/Ownable.sol\":2700:2701  0 */\n      0x00\n        /* \"@openzeppelin/contracts/access/Ownable.sol\":2672:2703  OwnableInvalidOwner(address(0)) */\n      0x04\n      dup3\n      add\n        /* \"#utility.yul\":534:585   */\n      mstore\n        /* \"#utility.yul\":507:525   */\n      0x24\n      add\n        /* \"@openzeppelin/contracts/access/Ownable.sol\":2672:2703  OwnableInvalidOwner(address(0)) */\n      tag_97\n        /* \"#utility.yul\":388:591   */\n      jump\n        /* \"@openzeppelin/contracts/access/Ownable.sol\":2623:2714  if (newOwner == address(0)) {... */\n    tag_178:\n        /* \"@openzeppelin/contracts/access/Ownable.sol\":2723:2751  _transferOwnership(newOwner) */\n      tag_180\n        /* \"@openzeppelin/contracts/access/Ownable.sol\":2742:2750  newOwner */\n      dup2\n        /* \"@openzeppelin/contracts/access/Ownable.sol\":2723:2741  _transferOwnership */\n      tag_94\n        /* \"@openzeppelin/contracts/access/Ownable.sol\":2723:2751  _transferOwnership(newOwner) */\n      jump\t// in\n    tag_180:\n        /* \"@openzeppelin/contracts/access/Ownable.sol\":2543:2758  function transferOwnership(address newOwner) public virtual onlyOwner {... */\n      pop\n      jump\t// out\n        /* \"contracts/HashGame.sol\":3360:3438  function setNFT(address _nft) external onlyOwner {... */\n    tag_73:\n        /* \"@openzeppelin/contracts/access/Ownable.sol\":1531:1544  _checkOwner() */\n      tag_182\n        /* \"@openzeppelin/contracts/access/Ownable.sol\":1531:1542  _checkOwner */\n      tag_87\n        /* \"@openzeppelin/contracts/access/Ownable.sol\":1531:1544  _checkOwner() */\n      jump\t// in\n    tag_182:\n        /* \"contracts/HashGame.sol\":3420:3423  nft */\n      0x01\n        /* \"contracts/HashGame.sol\":3420:3430  nft = _nft */\n      dup1\n      sload\n      not(sub(shl(0xa0, 0x01), 0x01))\n      and\n      sub(shl(0xa0, 0x01), 0x01)\n      swap3\n      swap1\n      swap3\n      and\n      swap2\n      swap1\n      swap2\n      or\n      swap1\n      sstore\n        /* \"contracts/HashGame.sol\":3360:3438  function setNFT(address _nft) external onlyOwner {... */\n      jump\t// out\n        /* \"@openzeppelin/contracts/access/Ownable.sol\":1796:1958  function _checkOwner() internal view virtual {... */\n    tag_87:\n        /* \"@openzeppelin/contracts/access/Ownable.sol\":1684:1691  address */\n      0x00\n        /* \"@openzeppelin/contracts/access/Ownable.sol\":1710:1716  _owner */\n      sload\n      sub(shl(0xa0, 0x01), 0x01)\n      and\n        /* \"@openzeppelin/contracts/utils/Context.sol\":735:745  msg.sender */\n      caller\n        /* \"@openzeppelin/contracts/access/Ownable.sol\":1855:1878  owner() != _msgSender() */\n      eq\n        /* \"@openzeppelin/contracts/access/Ownable.sol\":1851:1952  if (owner() != _msgSender()) {... */\n      tag_93\n      jumpi\n        /* \"@openzeppelin/contracts/access/Ownable.sol\":1901:1941  OwnableUnauthorizedAccount(_msgSender()) */\n      mload(0x40)\n      shl(0xe0, 0x118cdaa7)\n      dup2\n      mstore\n        /* \"@openzeppelin/contracts/utils/Context.sol\":735:745  msg.sender */\n      caller\n        /* \"@openzeppelin/contracts/access/Ownable.sol\":1901:1941  OwnableUnauthorizedAccount(_msgSender()) */\n      0x04\n      dup3\n      add\n        /* \"#utility.yul\":534:585   */\n      mstore\n        /* \"#utility.yul\":507:525   */\n      0x24\n      add\n        /* \"@openzeppelin/contracts/access/Ownable.sol\":1901:1941  OwnableUnauthorizedAccount(_msgSender()) */\n      tag_97\n        /* \"#utility.yul\":388:591   */\n      jump\n        /* \"@openzeppelin/contracts/access/Ownable.sol\":2912:3099  function _transferOwnership(address newOwner) internal virtual {... */\n    tag_94:\n        /* \"@openzeppelin/contracts/access/Ownable.sol\":2985:3001  address oldOwner */\n      0x00\n        /* \"@openzeppelin/contracts/access/Ownable.sol\":3004:3010  _owner */\n      dup1\n      sload\n      sub(shl(0xa0, 0x01), 0x01)\n        /* \"@openzeppelin/contracts/access/Ownable.sol\":3020:3037  _owner = newOwner */\n      dup4\n      dup2\n      and\n      not(sub(shl(0xa0, 0x01), 0x01))\n      dup4\n      and\n      dup2\n      or\n      dup5\n      sstore\n        /* \"@openzeppelin/contracts/access/Ownable.sol\":3052:3092  OwnershipTransferred(oldOwner, newOwner) */\n      mload(0x40)\n        /* \"@openzeppelin/contracts/access/Ownable.sol\":3004:3010  _owner */\n      swap2\n      swap1\n      swap3\n      and\n      swap3\n      dup4\n      swap2\n        /* \"@openzeppelin/contracts/access/Ownable.sol\":3052:3092  OwnershipTransferred(oldOwner, newOwner) */\n      0x8be0079c531659141344cd1fd0a4f28419497f9722a3daafe3b4186f6b6457e0\n      swap2\n        /* \"@openzeppelin/contracts/access/Ownable.sol\":2985:3001  address oldOwner */\n      swap1\n        /* \"@openzeppelin/contracts/access/Ownable.sol\":3052:3092  OwnershipTransferred(oldOwner, newOwner) */\n      log3\n        /* \"@openzeppelin/contracts/access/Ownable.sol\":2975:3099  {... */\n      pop\n        /* \"@openzeppelin/contracts/access/Ownable.sol\":2912:3099  function _transferOwnership(address newOwner) internal virtual {... */\n      pop\n      jump\t// out\n        /* \"contracts/HashGame.sol\":2676:2971  function _getLastDigitFromHash(bytes32 hash) internal pure returns (uint8) {... */\n    tag_135:\n        /* \"contracts/HashGame.sol\":2744:2749  uint8 */\n      0x00\n        /* \"contracts/HashGame.sol\":2779:2781  31 */\n      0x1f\n        /* \"contracts/HashGame.sol\":2762:2945  for (uint256 i = 31; i >= 0; i--) {... */\n    tag_193:\n        /* \"contracts/HashGame.sol\":2811:2821  uint8 char */\n      0x00\n        /* \"contracts/HashGame.sol\":2830:2834  hash */\n      dup4\n        /* \"contracts/HashGame.sol\":2835:2836  i */\n      dup3\n        /* \"contracts/HashGame.sol\":2830:2837  hash[i] */\n      0x20\n      dup2\n      lt\n      tag_197\n      jumpi\n      tag_197\n      tag_198\n      jump\t// in\n    tag_197:\n      byte\n      swap1\n      pop\n        /* \"contracts/HashGame.sol\":2865:2867  48 */\n      0x30\n        /* \"contracts/HashGame.sol\":2857:2867  char >= 48 */\n      dup2\n      lt\n      dup1\n      iszero\n      swap1\n        /* \"contracts/HashGame.sol\":2857:2881  char >= 48 && char <= 57 */\n      tag_199\n      jumpi\n      pop\n        /* \"contracts/HashGame.sol\":2879:2881  57 */\n      0x39\n        /* \"contracts/HashGame.sol\":2871:2875  char */\n      dup2\n        /* \"contracts/HashGame.sol\":2871:2881  char <= 57 */\n      0xff\n      and\n      gt\n      iszero\n        /* \"contracts/HashGame.sol\":2857:2881  char >= 48 && char <= 57 */\n    tag_199:\n        /* \"contracts/HashGame.sol\":2853:2934  if (char >= 48 && char <= 57) {... */\n      iszero\n      tag_200\n      jumpi\n        /* \"contracts/HashGame.sol\":2909:2918  char - 48 */\n      tag_201\n        /* \"contracts/HashGame.sol\":2916:2918  48 */\n      0x30\n        /* \"contracts/HashGame.sol\":2909:2913  char */\n      dup3\n        /* \"contracts/HashGame.sol\":2909:2918  char - 48 */\n      tag_202\n      jump\t// in\n    tag_201:\n        /* \"contracts/HashGame.sol\":2902:2918  return char - 48 */\n      swap5\n        /* \"contracts/HashGame.sol\":2676:2971  function _getLastDigitFromHash(bytes32 hash) internal pure returns (uint8) {... */\n      swap4\n      pop\n      pop\n      pop\n      pop\n      jump\t// out\n        /* \"contracts/HashGame.sol\":2853:2934  if (char >= 48 && char <= 57) {... */\n    tag_200:\n      pop\n        /* \"contracts/HashGame.sol\":2791:2794  i-- */\n      dup1\n      tag_203\n      dup2\n      tag_204\n      jump\t// in\n    tag_203:\n      swap2\n      pop\n      pop\n        /* \"contracts/HashGame.sol\":2762:2945  for (uint256 i = 31; i >= 0; i--) {... */\n      jump(tag_193)\n        /* \"#utility.yul\":596:776   */\n    tag_44:\n        /* \"#utility.yul\":655:661   */\n      0x00\n        /* \"#utility.yul\":708:710   */\n      0x20\n        /* \"#utility.yul\":696:705   */\n      dup3\n        /* \"#utility.yul\":687:694   */\n      dup5\n        /* \"#utility.yul\":683:706   */\n      sub\n        /* \"#utility.yul\":679:711   */\n      slt\n        /* \"#utility.yul\":676:728   */\n      iszero\n      tag_213\n      jumpi\n        /* \"#utility.yul\":724:725   */\n      0x00\n        /* \"#utility.yul\":721:722   */\n      0x00\n        /* \"#utility.yul\":714:726   */\n      revert\n        /* \"#utility.yul\":676:728   */\n    tag_213:\n      pop\n        /* \"#utility.yul\":747:770   */\n      calldataload\n      swap2\n        /* \"#utility.yul\":596:776   */\n      swap1\n      pop\n      jump\t// out\n        /* \"#utility.yul\":781:1067   */\n    tag_51:\n        /* \"#utility.yul\":840:846   */\n      0x00\n        /* \"#utility.yul\":893:895   */\n      0x20\n        /* \"#utility.yul\":881:890   */\n      dup3\n        /* \"#utility.yul\":872:879   */\n      dup5\n        /* \"#utility.yul\":868:891   */\n      sub\n        /* \"#utility.yul\":864:896   */\n      slt\n        /* \"#utility.yul\":861:913   */\n      iszero\n      tag_215\n      jumpi\n        /* \"#utility.yul\":909:910   */\n      0x00\n        /* \"#utility.yul\":906:907   */\n      0x00\n        /* \"#utility.yul\":899:911   */\n      revert\n        /* \"#utility.yul\":861:913   */\n    tag_215:\n        /* \"#utility.yul\":935:958   */\n      dup2\n      calldataload\n      sub(shl(0xa0, 0x01), 0x01)\n        /* \"#utility.yul\":987:1018   */\n      dup2\n      and\n        /* \"#utility.yul\":977:1019   */\n      dup2\n      eq\n        /* \"#utility.yul\":967:1037   */\n      tag_216\n      jumpi\n        /* \"#utility.yul\":1033:1034   */\n      0x00\n        /* \"#utility.yul\":1030:1031   */\n      0x00\n        /* \"#utility.yul\":1023:1035   */\n      revert\n        /* \"#utility.yul\":967:1037   */\n    tag_216:\n        /* \"#utility.yul\":1056:1061   */\n      swap4\n        /* \"#utility.yul\":781:1067   */\n      swap3\n      pop\n      pop\n      pop\n      jump\t// out\n        /* \"#utility.yul\":1294:1478   */\n    tag_84:\n        /* \"#utility.yul\":1364:1370   */\n      0x00\n        /* \"#utility.yul\":1417:1419   */\n      0x20\n        /* \"#utility.yul\":1405:1414   */\n      dup3\n        /* \"#utility.yul\":1396:1403   */\n      dup5\n        /* \"#utility.yul\":1392:1415   */\n      sub\n        /* \"#utility.yul\":1388:1420   */\n      slt\n        /* \"#utility.yul\":1385:1437   */\n      iszero\n      tag_219\n      jumpi\n        /* \"#utility.yul\":1433:1434   */\n      0x00\n        /* \"#utility.yul\":1430:1431   */\n      0x00\n        /* \"#utility.yul\":1423:1435   */\n      revert\n        /* \"#utility.yul\":1385:1437   */\n    tag_219:\n      pop\n        /* \"#utility.yul\":1456:1472   */\n      mload\n      swap2\n        /* \"#utility.yul\":1294:1478   */\n      swap1\n      pop\n      jump\t// out\n        /* \"#utility.yul\":2966:3243   */\n    tag_117:\n        /* \"#utility.yul\":3033:3039   */\n      0x00\n        /* \"#utility.yul\":3086:3088   */\n      0x20\n        /* \"#utility.yul\":3074:3083   */\n      dup3\n        /* \"#utility.yul\":3065:3072   */\n      dup5\n        /* \"#utility.yul\":3061:3084   */\n      sub\n        /* \"#utility.yul\":3057:3089   */\n      slt\n        /* \"#utility.yul\":3054:3106   */\n      iszero\n      tag_225\n      jumpi\n        /* \"#utility.yul\":3102:3103   */\n      0x00\n        /* \"#utility.yul\":3099:3100   */\n      0x00\n        /* \"#utility.yul\":3092:3104   */\n      revert\n        /* \"#utility.yul\":3054:3106   */\n    tag_225:\n        /* \"#utility.yul\":3134:3143   */\n      dup2\n        /* \"#utility.yul\":3128:3144   */\n      mload\n        /* \"#utility.yul\":3187:3192   */\n      dup1\n        /* \"#utility.yul\":3180:3193   */\n      iszero\n        /* \"#utility.yul\":3173:3194   */\n      iszero\n        /* \"#utility.yul\":3166:3171   */\n      dup2\n        /* \"#utility.yul\":3163:3195   */\n      eq\n        /* \"#utility.yul\":3153:3213   */\n      tag_216\n      jumpi\n        /* \"#utility.yul\":3209:3210   */\n      0x00\n        /* \"#utility.yul\":3206:3207   */\n      0x00\n        /* \"#utility.yul\":3199:3211   */\n      revert\n        /* \"#utility.yul\":3598:3725   */\n    tag_206:\n        /* \"#utility.yul\":3659:3669   */\n      0x4e487b71\n        /* \"#utility.yul\":3654:3657   */\n      0xe0\n        /* \"#utility.yul\":3650:3670   */\n      shl\n        /* \"#utility.yul\":3647:3648   */\n      0x00\n        /* \"#utility.yul\":3640:3671   */\n      mstore\n        /* \"#utility.yul\":3690:3694   */\n      0x11\n        /* \"#utility.yul\":3687:3688   */\n      0x04\n        /* \"#utility.yul\":3680:3695   */\n      mstore\n        /* \"#utility.yul\":3714:3718   */\n      0x24\n        /* \"#utility.yul\":3711:3712   */\n      0x00\n        /* \"#utility.yul\":3704:3719   */\n      revert\n        /* \"#utility.yul\":3730:3898   */\n    tag_122:\n        /* \"#utility.yul\":3803:3812   */\n      dup1\n      dup3\n      mul\n        /* \"#utility.yul\":3834:3843   */\n      dup2\n      iszero\n        /* \"#utility.yul\":3851:3866   */\n      dup3\n      dup3\n      div\n        /* \"#utility.yul\":3845:3867   */\n      dup5\n      eq\n        /* \"#utility.yul\":3831:3868   */\n      or\n        /* \"#utility.yul\":3821:3892   */\n      tag_231\n      jumpi\n        /* \"#utility.yul\":3872:3890   */\n      tag_231\n      tag_206\n      jump\t// in\n    tag_231:\n        /* \"#utility.yul\":3730:3898   */\n      swap3\n      swap2\n      pop\n      pop\n      jump\t// out\n        /* \"#utility.yul\":3903:4030   */\n    tag_207:\n        /* \"#utility.yul\":3964:3974   */\n      0x4e487b71\n        /* \"#utility.yul\":3959:3962   */\n      0xe0\n        /* \"#utility.yul\":3955:3975   */\n      shl\n        /* \"#utility.yul\":3952:3953   */\n      0x00\n        /* \"#utility.yul\":3945:3976   */\n      mstore\n        /* \"#utility.yul\":3995:3999   */\n      0x12\n        /* \"#utility.yul\":3992:3993   */\n      0x04\n        /* \"#utility.yul\":3985:4000   */\n      mstore\n        /* \"#utility.yul\":4019:4023   */\n      0x24\n        /* \"#utility.yul\":4016:4017   */\n      0x00\n        /* \"#utility.yul\":4009:4024   */\n      revert\n        /* \"#utility.yul\":4035:4155   */\n    tag_124:\n        /* \"#utility.yul\":4075:4076   */\n      0x00\n        /* \"#utility.yul\":4101:4102   */\n      dup3\n        /* \"#utility.yul\":4091:4126   */\n      tag_235\n      jumpi\n        /* \"#utility.yul\":4106:4124   */\n      tag_235\n      tag_207\n      jump\t// in\n    tag_235:\n      pop\n        /* \"#utility.yul\":4140:4149   */\n      div\n      swap1\n        /* \"#utility.yul\":4035:4155   */\n      jump\t// out\n        /* \"#utility.yul\":4869:5026   */\n    tag_137:\n        /* \"#utility.yul\":4899:4900   */\n      0x00\n        /* \"#utility.yul\":4933:4937   */\n      0xff\n        /* \"#utility.yul\":4930:4931   */\n      dup4\n        /* \"#utility.yul\":4926:4938   */\n      and\n        /* \"#utility.yul\":4957:4960   */\n      dup1\n        /* \"#utility.yul\":4947:4984   */\n      tag_240\n      jumpi\n        /* \"#utility.yul\":4964:4982   */\n      tag_240\n      tag_207\n      jump\t// in\n    tag_240:\n        /* \"#utility.yul\":5016:5019   */\n      dup1\n        /* \"#utility.yul\":5009:5013   */\n      0xff\n        /* \"#utility.yul\":5006:5007   */\n      dup5\n        /* \"#utility.yul\":5002:5014   */\n      and\n        /* \"#utility.yul\":4998:5020   */\n      mod\n        /* \"#utility.yul\":4993:5020   */\n      swap2\n      pop\n      pop\n        /* \"#utility.yul\":4869:5026   */\n      swap3\n      swap2\n      pop\n      pop\n      jump\t// out\n        /* \"#utility.yul\":5800:5927   */\n    tag_198:\n        /* \"#utility.yul\":5861:5871   */\n      0x4e487b71\n        /* \"#utility.yul\":5856:5859   */\n      0xe0\n        /* \"#utility.yul\":5852:5872   */\n      shl\n        /* \"#utility.yul\":5849:5850   */\n      0x00\n        /* \"#utility.yul\":5842:5873   */\n      mstore\n        /* \"#utility.yul\":5892:5896   */\n      0x32\n        /* \"#utility.yul\":5889:5890   */\n      0x04\n        /* \"#utility.yul\":5882:5897   */\n      mstore\n        /* \"#utility.yul\":5916:5920   */\n      0x24\n        /* \"#utility.yul\":5913:5914   */\n      0x00\n        /* \"#utility.yul\":5906:5921   */\n      revert\n        /* \"#utility.yul\":5932:6083   */\n    tag_202:\n        /* \"#utility.yul\":6022:6026   */\n      0xff\n        /* \"#utility.yul\":6015:6027   */\n      dup3\n      dup2\n      and\n        /* \"#utility.yul\":6001:6013   */\n      dup3\n      dup3\n      and\n        /* \"#utility.yul\":5997:6028   */\n      sub\n      swap1\n        /* \"#utility.yul\":6040:6054   */\n      dup2\n      gt\n        /* \"#utility.yul\":6037:6077   */\n      iszero\n      tag_231\n      jumpi\n        /* \"#utility.yul\":6057:6075   */\n      tag_231\n      tag_206\n      jump\t// in\n        /* \"#utility.yul\":6088:6224   */\n    tag_204:\n        /* \"#utility.yul\":6127:6130   */\n      0x00\n        /* \"#utility.yul\":6155:6160   */\n      dup2\n        /* \"#utility.yul\":6145:6184   */\n      tag_249\n      jumpi\n        /* \"#utility.yul\":6164:6182   */\n      tag_249\n      tag_206\n      jump\t// in\n    tag_249:\n      pop\n      not(0x00)\n        /* \"#utility.yul\":6200:6218   */\n      add\n      swap1\n        /* \"#utility.yul\":6088:6224   */\n      jump\t// out\n    stop\n    data_7c63af91c38aa66029c65b3cf79cefb409e6d6c8b63fd70faf8cc4ce3d92be50 fc5e76d60c483e79ee18a38d792a63cc569f716fce9f2c04d20725dda4580fcb\n\n    auxdata: 0xa26469706673582212203bc50bf81b18ff8de673292f48b4be223e731d04ae57970d86df2ab23c5a95ba64736f6c63430008220033\n}\n",
				"bytecode": {
					"linkReferences": {},
					"object": "60a06040526003805460ff1916600117905534801561001c575f5ffd5b50604051610f46380380610f4683398101604081905261003b916100fc565b338061006057604051631e4fbdf760e01b81525f600482015260240160405180910390fd5b61006981610092565b506001600160a01b03918216608052600180546001600160a01b0319169190921617905561012d565b5f80546001600160a01b038381166001600160a01b0319831681178455604051919092169283917f8be0079c531659141344cd1fd0a4f28419497f9722a3daafe3b4186f6b6457e09190a35050565b80516001600160a01b03811681146100f7575f5ffd5b919050565b5f5f6040838503121561010d575f5ffd5b610116836100e1565b9150610124602084016100e1565b90509250929050565b608051610dd06101765f395f818161024f015281816102a1015281816104480152818161056c015281816106830152818161079f0152818161086b01526109bf0152610dd05ff3fe608060405234801561000f575f5ffd5b5060043610610106575f3560e01c80638ab1d6811161009e578063e43252d71161006e578063e43252d714610204578063f020044f14610217578063f2fde38b14610224578063f56e9c6614610237578063fc0c546a1461024a575f5ffd5b80638ab1d681146101b75780638da5cb5b146101ca5780639b19251a146101da578063d65ab5f2146101fc575f5ffd5b80636540742f116100d95780636540742f1461017b578063715018a61461018b5780637365870b146101935780637e95b523146101a6575f5ffd5b8063061e431c1461010a5780630c0ef2b01461012e5780632cf685a41461014657806347ccca0214610150575b5f5ffd5b61011b69021e19e0c9bab240000081565b6040519081526020015b60405180910390f35b610136610271565b6040519015158152602001610125565b61014e61031a565b005b600154610163906001600160a01b031681565b6040516001600160a01b039091168152602001610125565b61011b68056bc75e2d6310000081565b61014e61034f565b61014e6101a1366004610c45565b610362565b61011b69152d02c7e14af680000081565b61014e6101c5366004610c5c565b610939565b5f546001600160a01b0316610163565b6101366101e8366004610c5c565b60026020525f908152604090205460ff1681565b61014e610996565b61014e610212366004610c5c565b610aab565b6003546101369060ff1681565b61014e610232366004610c5c565b610b09565b61014e610245366004610c5c565b610b46565b6101637f000000000000000000000000000000000000000000000000000000000000000081565b6003545f9060ff16801561031557506040516370a0823160e01b815230600482015269021e19e0c9bab2400000907f00000000000000000000000000000000000000000000000000000000000000006001600160a01b0316906370a0823190602401602060405180830381865afa1580156102ee573d5f5f3e3d5ffd5b505050506040513d601f19601f820116820180604052508101906103129190610c89565b10155b905090565b610322610b70565b6003805460ff191690556040515f81525f516020610d7b5f395f51905f52906020015b60405180910390a1565b610357610b70565b6103605f610b9c565b565b60035460ff166103ab5760405162461bcd60e51b815260206004820152600f60248201526e11d85b59481a5cc81cdd1bdc1c1959608a1b60448201526064015b60405180910390fd5b335f9081526002602052604090205460ff16806104315768056bc75e2d6310000082101580156103e5575069152d02c7e14af68000008211155b6104315760405162461bcd60e51b815260206004820152601f60248201527f42657420616d6f756e74206d75737420626520313030207e203130303030300060448201526064016103a2565b6040516370a0823160e01b81523060048201525f907f00000000000000000000000000000000000000000000000000000000000000006001600160a01b0316906370a0823190602401602060405180830381865afa158015610495573d5f5f3e3d5ffd5b505050506040513d601f19601f820116820180604052508101906104b99190610c89565b905069021e19e0c9bab240000081101561054a576003805460ff191690556040515f81525f516020610d7b5f395f51905f529060200160405180910390a160405162461bcd60e51b815260206004820152602260248201527f47616d652073746f707065643a20696e73756666696369656e742062616c616e604482015261636560f01b60648201526084016103a2565b6040516323b872dd60e01b8152336004820152306024820152604481018490527f00000000000000000000000000000000000000000000000000000000000000006001600160a01b0316906323b872dd906064016020604051808303815f875af11580156105ba573d5f5f3e3d5ffd5b505050506040513d601f19601f820116820180604052508101906105de9190610ca0565b6106225760405162461bcd60e51b8152602060048201526015602482015274151bdad95b881d1c985b9cd9995c8819985a5b1959605a1b60448201526064016103a2565b5f6064610630856005610cd3565b61063a9190610d04565b90505f8111801561065557506001546001600160a01b031615155b156106f15760015460405163a9059cbb60e01b81526001600160a01b039182166004820152602481018390527f00000000000000000000000000000000000000000000000000000000000000009091169063a9059cbb906044016020604051808303815f875af11580156106cb573d5f5f3e3d5ffd5b505050506040513d601f19601f820116820180604052508101906106ef9190610ca0565b505b604080514260208201526bffffffffffffffffffffffff193360601b1691810191909152436054820152607481018590525f906094016040516020818303038152906040528051906020012090505f61074982610beb565b90505f610757600283610d17565b60ff166001149050805f81801561076c575087155b156108e2575f61077d8a6002610cd3565b6040516370a0823160e01b81523060048201529091505f906001600160a01b037f000000000000000000000000000000000000000000000000000000000000000016906370a0823190602401602060405180830381865afa1580156107e4573d5f5f3e3d5ffd5b505050506040513d601f19601f820116820180604052508101906108089190610c89565b905081811061081957819250610849565b6003805460ff191690556040515f815290925082905f516020610d7b5f395f51905f529060200160405180910390a15b82156108df5760405163a9059cbb60e01b8152336004820152602481018490527f00000000000000000000000000000000000000000000000000000000000000006001600160a01b03169063a9059cbb906044016020604051808303815f875af11580156108b9573d5f5f3e3d5ffd5b505050506040513d601f19601f820116820180604052508101906108dd9190610ca0565b505b50505b604080518a815284151560208201528315158183015260608101839052905133917f316ab8c7409332c9cedbf19a8dc4d2f926f2976b4561f8954db9eb3b00e007d9919081900360800190a2505050505050505050565b610941610b70565b6001600160a01b0381165f818152600260209081526040808320805460ff19169055519182527ff93f9a76c1bf3444d22400a00cb9fe990e6abe9dbb333fda48859cfee864543d91015b60405180910390a250565b61099e610b70565b6040516370a0823160e01b815230600482015269021e19e0c9bab2400000907f00000000000000000000000000000000000000000000000000000000000000006001600160a01b0316906370a0823190602401602060405180830381865afa158015610a0c573d5f5f3e3d5ffd5b505050506040513d601f19601f82011682018060405250810190610a309190610c89565b1015610a7e5760405162461bcd60e51b815260206004820152601860248201527f42616c616e636520746f6f206c6f7720746f207374617274000000000000000060448201526064016103a2565b6003805460ff191660019081179091556040519081525f516020610d7b5f395f51905f5290602001610345565b610ab3610b70565b6001600160a01b0381165f81815260026020908152604091829020805460ff1916600190811790915591519182527ff93f9a76c1bf3444d22400a00cb9fe990e6abe9dbb333fda48859cfee864543d910161098b565b610b11610b70565b6001600160a01b038116610b3a57604051631e4fbdf760e01b81525f60048201526024016103a2565b610b4381610b9c565b50565b610b4e610b70565b600180546001600160a01b0319166001600160a01b0392909216919091179055565b5f546001600160a01b031633146103605760405163118cdaa760e01b81523360048201526024016103a2565b5f80546001600160a01b038381166001600160a01b0319831681178455604051919092169283917f8be0079c531659141344cd1fd0a4f28419497f9722a3daafe3b4186f6b6457e09190a35050565b5f601f5b5f838260208110610c0257610c02610d38565b1a905060308110801590610c1a575060398160ff1611155b15610c3257610c2a603082610d4c565b949350505050565b5080610c3d81610d65565b915050610bef565b5f60208284031215610c55575f5ffd5b5035919050565b5f60208284031215610c6c575f5ffd5b81356001600160a01b0381168114610c82575f5ffd5b9392505050565b5f60208284031215610c99575f5ffd5b5051919050565b5f60208284031215610cb0575f5ffd5b81518015158114610c82575f5ffd5b634e487b7160e01b5f52601160045260245ffd5b8082028115828204841417610cea57610cea610cbf565b92915050565b634e487b7160e01b5f52601260045260245ffd5b5f82610d1257610d12610cf0565b500490565b5f60ff831680610d2957610d29610cf0565b8060ff84160691505092915050565b634e487b7160e01b5f52603260045260245ffd5b60ff8281168282160390811115610cea57610cea610cbf565b5f81610d7357610d73610cbf565b505f19019056fefc5e76d60c483e79ee18a38d792a63cc569f716fce9f2c04d20725dda4580fcba26469706673582212203bc50bf81b18ff8de673292f48b4be223e731d04ae57970d86df2ab23c5a95ba64736f6c63430008220033",
					"opcodes": "PUSH1 0xA0 PUSH1 0x40 MSTORE PUSH1 0x3 DUP1 SLOAD PUSH1 0xFF NOT AND PUSH1 0x1 OR SWAP1 SSTORE CALLVALUE DUP1 ISZERO PUSH2 0x1C JUMPI PUSH0 PUSH0 REVERT JUMPDEST POP PUSH1 0x40 MLOAD PUSH2 0xF46 CODESIZE SUB DUP1 PUSH2 0xF46 DUP4 CODECOPY DUP2 ADD PUSH1 0x40 DUP2 SWAP1 MSTORE PUSH2 0x3B SWAP2 PUSH2 0xFC JUMP JUMPDEST CALLER DUP1 PUSH2 0x60 JUMPI PUSH1 0x40 MLOAD PUSH4 0x1E4FBDF7 PUSH1 0xE0 SHL DUP2 MSTORE PUSH0 PUSH1 0x4 DUP3 ADD MSTORE PUSH1 0x24 ADD PUSH1 0x40 MLOAD DUP1 SWAP2 SUB SWAP1 REVERT JUMPDEST PUSH2 0x69 DUP2 PUSH2 0x92 JUMP JUMPDEST POP PUSH1 0x1 PUSH1 0x1 PUSH1 0xA0 SHL SUB SWAP2 DUP3 AND PUSH1 0x80 MSTORE PUSH1 0x1 DUP1 SLOAD PUSH1 0x1 PUSH1 0x1 PUSH1 0xA0 SHL SUB NOT AND SWAP2 SWAP1 SWAP3 AND OR SWAP1 SSTORE PUSH2 0x12D JUMP JUMPDEST PUSH0 DUP1 SLOAD PUSH1 0x1 PUSH1 0x1 PUSH1 0xA0 SHL SUB DUP4 DUP2 AND PUSH1 0x1 PUSH1 0x1 PUSH1 0xA0 SHL SUB NOT DUP4 AND DUP2 OR DUP5 SSTORE PUSH1 0x40 MLOAD SWAP2 SWAP1 SWAP3 AND SWAP3 DUP4 SWAP2 PUSH32 0x8BE0079C531659141344CD1FD0A4F28419497F9722A3DAAFE3B4186F6B6457E0 SWAP2 SWAP1 LOG3 POP POP JUMP JUMPDEST DUP1 MLOAD PUSH1 0x1 PUSH1 0x1 PUSH1 0xA0 SHL SUB DUP2 AND DUP2 EQ PUSH2 0xF7 JUMPI PUSH0 PUSH0 REVERT JUMPDEST SWAP2 SWAP1 POP JUMP JUMPDEST PUSH0 PUSH0 PUSH1 0x40 DUP4 DUP6 SUB SLT ISZERO PUSH2 0x10D JUMPI PUSH0 PUSH0 REVERT JUMPDEST PUSH2 0x116 DUP4 PUSH2 0xE1 JUMP JUMPDEST SWAP2 POP PUSH2 0x124 PUSH1 0x20 DUP5 ADD PUSH2 0xE1 JUMP JUMPDEST SWAP1 POP SWAP3 POP SWAP3 SWAP1 POP JUMP JUMPDEST PUSH1 0x80 MLOAD PUSH2 0xDD0 PUSH2 0x176 PUSH0 CODECOPY PUSH0 DUP2 DUP2 PUSH2 0x24F ADD MSTORE DUP2 DUP2 PUSH2 0x2A1 ADD MSTORE DUP2 DUP2 PUSH2 0x448 ADD MSTORE DUP2 DUP2 PUSH2 0x56C ADD MSTORE DUP2 DUP2 PUSH2 0x683 ADD MSTORE DUP2 DUP2 PUSH2 0x79F ADD MSTORE DUP2 DUP2 PUSH2 0x86B ADD MSTORE PUSH2 0x9BF ADD MSTORE PUSH2 0xDD0 PUSH0 RETURN INVALID PUSH1 0x80 PUSH1 0x40 MSTORE CALLVALUE DUP1 ISZERO PUSH2 0xF JUMPI PUSH0 PUSH0 REVERT JUMPDEST POP PUSH1 0x4 CALLDATASIZE LT PUSH2 0x106 JUMPI PUSH0 CALLDATALOAD PUSH1 0xE0 SHR DUP1 PUSH4 0x8AB1D681 GT PUSH2 0x9E JUMPI DUP1 PUSH4 0xE43252D7 GT PUSH2 0x6E JUMPI DUP1 PUSH4 0xE43252D7 EQ PUSH2 0x204 JUMPI DUP1 PUSH4 0xF020044F EQ PUSH2 0x217 JUMPI DUP1 PUSH4 0xF2FDE38B EQ PUSH2 0x224 JUMPI DUP1 PUSH4 0xF56E9C66 EQ PUSH2 0x237 JUMPI DUP1 PUSH4 0xFC0C546A EQ PUSH2 0x24A JUMPI PUSH0 PUSH0 REVERT JUMPDEST DUP1 PUSH4 0x8AB1D681 EQ PUSH2 0x1B7 JUMPI DUP1 PUSH4 0x8DA5CB5B EQ PUSH2 0x1CA JUMPI DUP1 PUSH4 0x9B19251A EQ PUSH2 0x1DA JUMPI DUP1 PUSH4 0xD65AB5F2 EQ PUSH2 0x1FC JUMPI PUSH0 PUSH0 REVERT JUMPDEST DUP1 PUSH4 0x6540742F GT PUSH2 0xD9 JUMPI DUP1 PUSH4 0x6540742F EQ PUSH2 0x17B JUMPI DUP1 PUSH4 0x715018A6 EQ PUSH2 0x18B JUMPI DUP1 PUSH4 0x7365870B EQ PUSH2 0x193 JUMPI DUP1 PUSH4 0x7E95B523 EQ PUSH2 0x1A6 JUMPI PUSH0 PUSH0 REVERT JUMPDEST DUP1 PUSH4 0x61E431C EQ PUSH2 0x10A JUMPI DUP1 PUSH4 0xC0EF2B0 EQ PUSH2 0x12E JUMPI DUP1 PUSH4 0x2CF685A4 EQ PUSH2 0x146 JUMPI DUP1 PUSH4 0x47CCCA02 EQ PUSH2 0x150 JUMPI JUMPDEST PUSH0 PUSH0 REVERT JUMPDEST PUSH2 0x11B PUSH10 0x21E19E0C9BAB2400000 DUP2 JUMP JUMPDEST PUSH1 0x40 MLOAD SWAP1 DUP2 MSTORE PUSH1 0x20 ADD JUMPDEST PUSH1 0x40 MLOAD DUP1 SWAP2 SUB SWAP1 RETURN JUMPDEST PUSH2 0x136 PUSH2 0x271 JUMP JUMPDEST PUSH1 0x40 MLOAD SWAP1 ISZERO ISZERO DUP2 MSTORE PUSH1 0x20 ADD PUSH2 0x125 JUMP JUMPDEST PUSH2 0x14E PUSH2 0x31A JUMP JUMPDEST STOP JUMPDEST PUSH1 0x1 SLOAD PUSH2 0x163 SWAP1 PUSH1 0x1 PUSH1 0x1 PUSH1 0xA0 SHL SUB AND DUP2 JUMP JUMPDEST PUSH1 0x40 MLOAD PUSH1 0x1 PUSH1 0x1 PUSH1 0xA0 SHL SUB SWAP1 SWAP2 AND DUP2 MSTORE PUSH1 0x20 ADD PUSH2 0x125 JUMP JUMPDEST PUSH2 0x11B PUSH9 0x56BC75E2D63100000 DUP2 JUMP JUMPDEST PUSH2 0x14E PUSH2 0x34F JUMP JUMPDEST PUSH2 0x14E PUSH2 0x1A1 CALLDATASIZE PUSH1 0x4 PUSH2 0xC45 JUMP JUMPDEST PUSH2 0x362 JUMP JUMPDEST PUSH2 0x11B PUSH10 0x152D02C7E14AF6800000 DUP2 JUMP JUMPDEST PUSH2 0x14E PUSH2 0x1C5 CALLDATASIZE PUSH1 0x4 PUSH2 0xC5C JUMP JUMPDEST PUSH2 0x939 JUMP JUMPDEST PUSH0 SLOAD PUSH1 0x1 PUSH1 0x1 PUSH1 0xA0 SHL SUB AND PUSH2 0x163 JUMP JUMPDEST PUSH2 0x136 PUSH2 0x1E8 CALLDATASIZE PUSH1 0x4 PUSH2 0xC5C JUMP JUMPDEST PUSH1 0x2 PUSH1 0x20 MSTORE PUSH0 SWAP1 DUP2 MSTORE PUSH1 0x40 SWAP1 KECCAK256 SLOAD PUSH1 0xFF AND DUP2 JUMP JUMPDEST PUSH2 0x14E PUSH2 0x996 JUMP JUMPDEST PUSH2 0x14E PUSH2 0x212 CALLDATASIZE PUSH1 0x4 PUSH2 0xC5C JUMP JUMPDEST PUSH2 0xAAB JUMP JUMPDEST PUSH1 0x3 SLOAD PUSH2 0x136 SWAP1 PUSH1 0xFF AND DUP2 JUMP JUMPDEST PUSH2 0x14E PUSH2 0x232 CALLDATASIZE PUSH1 0x4 PUSH2 0xC5C JUMP JUMPDEST PUSH2 0xB09 JUMP JUMPDEST PUSH2 0x14E PUSH2 0x245 CALLDATASIZE PUSH1 0x4 PUSH2 0xC5C JUMP JUMPDEST PUSH2 0xB46 JUMP JUMPDEST PUSH2 0x163 PUSH32 0x0 DUP2 JUMP JUMPDEST PUSH1 0x3 SLOAD PUSH0 SWAP1 PUSH1 0xFF AND DUP1 ISZERO PUSH2 0x315 JUMPI POP PUSH1 0x40 MLOAD PUSH4 0x70A08231 PUSH1 0xE0 SHL DUP2 MSTORE ADDRESS PUSH1 0x4 DUP3 ADD MSTORE PUSH10 0x21E19E0C9BAB2400000 SWAP1 PUSH32 0x0 PUSH1 0x1 PUSH1 0x1 PUSH1 0xA0 SHL SUB AND SWAP1 PUSH4 0x70A08231 SWAP1 PUSH1 0x24 ADD PUSH1 0x20 PUSH1 0x40 MLOAD DUP1 DUP4 SUB DUP2 DUP7 GAS STATICCALL ISZERO DUP1 ISZERO PUSH2 0x2EE JUMPI RETURNDATASIZE PUSH0 PUSH0 RETURNDATACOPY RETURNDATASIZE PUSH0 REVERT JUMPDEST POP POP POP POP PUSH1 0x40 MLOAD RETURNDATASIZE PUSH1 0x1F NOT PUSH1 0x1F DUP3 ADD AND DUP3 ADD DUP1 PUSH1 0x40 MSTORE POP DUP2 ADD SWAP1 PUSH2 0x312 SWAP2 SWAP1 PUSH2 0xC89 JUMP JUMPDEST LT ISZERO JUMPDEST SWAP1 POP SWAP1 JUMP JUMPDEST PUSH2 0x322 PUSH2 0xB70 JUMP JUMPDEST PUSH1 0x3 DUP1 SLOAD PUSH1 0xFF NOT AND SWAP1 SSTORE PUSH1 0x40 MLOAD PUSH0 DUP2 MSTORE PUSH0 MLOAD PUSH1 0x20 PUSH2 0xD7B PUSH0 CODECOPY PUSH0 MLOAD SWAP1 PUSH0 MSTORE SWAP1 PUSH1 0x20 ADD JUMPDEST PUSH1 0x40 MLOAD DUP1 SWAP2 SUB SWAP1 LOG1 JUMP JUMPDEST PUSH2 0x357 PUSH2 0xB70 JUMP JUMPDEST PUSH2 0x360 PUSH0 PUSH2 0xB9C JUMP JUMPDEST JUMP JUMPDEST PUSH1 0x3 SLOAD PUSH1 0xFF AND PUSH2 0x3AB JUMPI PUSH1 0x40 MLOAD PUSH3 0x461BCD PUSH1 0xE5 SHL DUP2 MSTORE PUSH1 0x20 PUSH1 0x4 DUP3 ADD MSTORE PUSH1 0xF PUSH1 0x24 DUP3 ADD MSTORE PUSH15 0x11D85B59481A5CC81CDD1BDC1C1959 PUSH1 0x8A SHL PUSH1 0x44 DUP3 ADD MSTORE PUSH1 0x64 ADD JUMPDEST PUSH1 0x40 MLOAD DUP1 SWAP2 SUB SWAP1 REVERT JUMPDEST CALLER PUSH0 SWAP1 DUP2 MSTORE PUSH1 0x2 PUSH1 0x20 MSTORE PUSH1 0x40 SWAP1 KECCAK256 SLOAD PUSH1 0xFF AND DUP1 PUSH2 0x431 JUMPI PUSH9 0x56BC75E2D63100000 DUP3 LT ISZERO DUP1 ISZERO PUSH2 0x3E5 JUMPI POP PUSH10 0x152D02C7E14AF6800000 DUP3 GT ISZERO JUMPDEST PUSH2 0x431 JUMPI PUSH1 0x40 MLOAD PUSH3 0x461BCD PUSH1 0xE5 SHL DUP2 MSTORE PUSH1 0x20 PUSH1 0x4 DUP3 ADD MSTORE PUSH1 0x1F PUSH1 0x24 DUP3 ADD MSTORE PUSH32 0x42657420616D6F756E74206D75737420626520313030207E2031303030303000 PUSH1 0x44 DUP3 ADD MSTORE PUSH1 0x64 ADD PUSH2 0x3A2 JUMP JUMPDEST PUSH1 0x40 MLOAD PUSH4 0x70A08231 PUSH1 0xE0 SHL DUP2 MSTORE ADDRESS PUSH1 0x4 DUP3 ADD MSTORE PUSH0 SWAP1 PUSH32 0x0 PUSH1 0x1 PUSH1 0x1 PUSH1 0xA0 SHL SUB AND SWAP1 PUSH4 0x70A08231 SWAP1 PUSH1 0x24 ADD PUSH1 0x20 PUSH1 0x40 MLOAD DUP1 DUP4 SUB DUP2 DUP7 GAS STATICCALL ISZERO DUP1 ISZERO PUSH2 0x495 JUMPI RETURNDATASIZE PUSH0 PUSH0 RETURNDATACOPY RETURNDATASIZE PUSH0 REVERT JUMPDEST POP POP POP POP PUSH1 0x40 MLOAD RETURNDATASIZE PUSH1 0x1F NOT PUSH1 0x1F DUP3 ADD AND DUP3 ADD DUP1 PUSH1 0x40 MSTORE POP DUP2 ADD SWAP1 PUSH2 0x4B9 SWAP2 SWAP1 PUSH2 0xC89 JUMP JUMPDEST SWAP1 POP PUSH10 0x21E19E0C9BAB2400000 DUP2 LT ISZERO PUSH2 0x54A JUMPI PUSH1 0x3 DUP1 SLOAD PUSH1 0xFF NOT AND SWAP1 SSTORE PUSH1 0x40 MLOAD PUSH0 DUP2 MSTORE PUSH0 MLOAD PUSH1 0x20 PUSH2 0xD7B PUSH0 CODECOPY PUSH0 MLOAD SWAP1 PUSH0 MSTORE SWAP1 PUSH1 0x20 ADD PUSH1 0x40 MLOAD DUP1 SWAP2 SUB SWAP1 LOG1 PUSH1 0x40 MLOAD PUSH3 0x461BCD PUSH1 0xE5 SHL DUP2 MSTORE PUSH1 0x20 PUSH1 0x4 DUP3 ADD MSTORE PUSH1 0x22 PUSH1 0x24 DUP3 ADD MSTORE PUSH32 0x47616D652073746F707065643A20696E73756666696369656E742062616C616E PUSH1 0x44 DUP3 ADD MSTORE PUSH2 0x6365 PUSH1 0xF0 SHL PUSH1 0x64 DUP3 ADD MSTORE PUSH1 0x84 ADD PUSH2 0x3A2 JUMP JUMPDEST PUSH1 0x40 MLOAD PUSH4 0x23B872DD PUSH1 0xE0 SHL DUP2 MSTORE CALLER PUSH1 0x4 DUP3 ADD MSTORE ADDRESS PUSH1 0x24 DUP3 ADD MSTORE PUSH1 0x44 DUP2 ADD DUP5 SWAP1 MSTORE PUSH32 0x0 PUSH1 0x1 PUSH1 0x1 PUSH1 0xA0 SHL SUB AND SWAP1 PUSH4 0x23B872DD SWAP1 PUSH1 0x64 ADD PUSH1 0x20 PUSH1 0x40 MLOAD DUP1 DUP4 SUB DUP2 PUSH0 DUP8 GAS CALL ISZERO DUP1 ISZERO PUSH2 0x5BA JUMPI RETURNDATASIZE PUSH0 PUSH0 RETURNDATACOPY RETURNDATASIZE PUSH0 REVERT JUMPDEST POP POP POP POP PUSH1 0x40 MLOAD RETURNDATASIZE PUSH1 0x1F NOT PUSH1 0x1F DUP3 ADD AND DUP3 ADD DUP1 PUSH1 0x40 MSTORE POP DUP2 ADD SWAP1 PUSH2 0x5DE SWAP2 SWAP1 PUSH2 0xCA0 JUMP JUMPDEST PUSH2 0x622 JUMPI PUSH1 0x40 MLOAD PUSH3 0x461BCD PUSH1 0xE5 SHL DUP2 MSTORE PUSH1 0x20 PUSH1 0x4 DUP3 ADD MSTORE PUSH1 0x15 PUSH1 0x24 DUP3 ADD MSTORE PUSH21 0x151BDAD95B881D1C985B9CD9995C8819985A5B1959 PUSH1 0x5A SHL PUSH1 0x44 DUP3 ADD MSTORE PUSH1 0x64 ADD PUSH2 0x3A2 JUMP JUMPDEST PUSH0 PUSH1 0x64 PUSH2 0x630 DUP6 PUSH1 0x5 PUSH2 0xCD3 JUMP JUMPDEST PUSH2 0x63A SWAP2 SWAP1 PUSH2 0xD04 JUMP JUMPDEST SWAP1 POP PUSH0 DUP2 GT DUP1 ISZERO PUSH2 0x655 JUMPI POP PUSH1 0x1 SLOAD PUSH1 0x1 PUSH1 0x1 PUSH1 0xA0 SHL SUB AND ISZERO ISZERO JUMPDEST ISZERO PUSH2 0x6F1 JUMPI PUSH1 0x1 SLOAD PUSH1 0x40 MLOAD PUSH4 0xA9059CBB PUSH1 0xE0 SHL DUP2 MSTORE PUSH1 0x1 PUSH1 0x1 PUSH1 0xA0 SHL SUB SWAP2 DUP3 AND PUSH1 0x4 DUP3 ADD MSTORE PUSH1 0x24 DUP2 ADD DUP4 SWAP1 MSTORE PUSH32 0x0 SWAP1 SWAP2 AND SWAP1 PUSH4 0xA9059CBB SWAP1 PUSH1 0x44 ADD PUSH1 0x20 PUSH1 0x40 MLOAD DUP1 DUP4 SUB DUP2 PUSH0 DUP8 GAS CALL ISZERO DUP1 ISZERO PUSH2 0x6CB JUMPI RETURNDATASIZE PUSH0 PUSH0 RETURNDATACOPY RETURNDATASIZE PUSH0 REVERT JUMPDEST POP POP POP POP PUSH1 0x40 MLOAD RETURNDATASIZE PUSH1 0x1F NOT PUSH1 0x1F DUP3 ADD AND DUP3 ADD DUP1 PUSH1 0x40 MSTORE POP DUP2 ADD SWAP1 PUSH2 0x6EF SWAP2 SWAP1 PUSH2 0xCA0 JUMP JUMPDEST POP JUMPDEST PUSH1 0x40 DUP1 MLOAD TIMESTAMP PUSH1 0x20 DUP3 ADD MSTORE PUSH12 0xFFFFFFFFFFFFFFFFFFFFFFFF NOT CALLER PUSH1 0x60 SHL AND SWAP2 DUP2 ADD SWAP2 SWAP1 SWAP2 MSTORE NUMBER PUSH1 0x54 DUP3 ADD MSTORE PUSH1 0x74 DUP2 ADD DUP6 SWAP1 MSTORE PUSH0 SWAP1 PUSH1 0x94 ADD PUSH1 0x40 MLOAD PUSH1 0x20 DUP2 DUP4 SUB SUB DUP2 MSTORE SWAP1 PUSH1 0x40 MSTORE DUP1 MLOAD SWAP1 PUSH1 0x20 ADD KECCAK256 SWAP1 POP PUSH0 PUSH2 0x749 DUP3 PUSH2 0xBEB JUMP JUMPDEST SWAP1 POP PUSH0 PUSH2 0x757 PUSH1 0x2 DUP4 PUSH2 0xD17 JUMP JUMPDEST PUSH1 0xFF AND PUSH1 0x1 EQ SWAP1 POP DUP1 PUSH0 DUP2 DUP1 ISZERO PUSH2 0x76C JUMPI POP DUP8 ISZERO JUMPDEST ISZERO PUSH2 0x8E2 JUMPI PUSH0 PUSH2 0x77D DUP11 PUSH1 0x2 PUSH2 0xCD3 JUMP JUMPDEST PUSH1 0x40 MLOAD PUSH4 0x70A08231 PUSH1 0xE0 SHL DUP2 MSTORE ADDRESS PUSH1 0x4 DUP3 ADD MSTORE SWAP1 SWAP2 POP PUSH0 SWAP1 PUSH1 0x1 PUSH1 0x1 PUSH1 0xA0 SHL SUB PUSH32 0x0 AND SWAP1 PUSH4 0x70A08231 SWAP1 PUSH1 0x24 ADD PUSH1 0x20 PUSH1 0x40 MLOAD DUP1 DUP4 SUB DUP2 DUP7 GAS STATICCALL ISZERO DUP1 ISZERO PUSH2 0x7E4 JUMPI RETURNDATASIZE PUSH0 PUSH0 RETURNDATACOPY RETURNDATASIZE PUSH0 REVERT JUMPDEST POP POP POP POP PUSH1 0x40 MLOAD RETURNDATASIZE PUSH1 0x1F NOT PUSH1 0x1F DUP3 ADD AND DUP3 ADD DUP1 PUSH1 0x40 MSTORE POP DUP2 ADD SWAP1 PUSH2 0x808 SWAP2 SWAP1 PUSH2 0xC89 JUMP JUMPDEST SWAP1 POP DUP2 DUP2 LT PUSH2 0x819 JUMPI DUP2 SWAP3 POP PUSH2 0x849 JUMP JUMPDEST PUSH1 0x3 DUP1 SLOAD PUSH1 0xFF NOT AND SWAP1 SSTORE PUSH1 0x40 MLOAD PUSH0 DUP2 MSTORE SWAP1 SWAP3 POP DUP3 SWAP1 PUSH0 MLOAD PUSH1 0x20 PUSH2 0xD7B PUSH0 CODECOPY PUSH0 MLOAD SWAP1 PUSH0 MSTORE SWAP1 PUSH1 0x20 ADD PUSH1 0x40 MLOAD DUP1 SWAP2 SUB SWAP1 LOG1 JUMPDEST DUP3 ISZERO PUSH2 0x8DF JUMPI PUSH1 0x40 MLOAD PUSH4 0xA9059CBB PUSH1 0xE0 SHL DUP2 MSTORE CALLER PUSH1 0x4 DUP3 ADD MSTORE PUSH1 0x24 DUP2 ADD DUP5 SWAP1 MSTORE PUSH32 0x0 PUSH1 0x1 PUSH1 0x1 PUSH1 0xA0 SHL SUB AND SWAP1 PUSH4 0xA9059CBB SWAP1 PUSH1 0x44 ADD PUSH1 0x20 PUSH1 0x40 MLOAD DUP1 DUP4 SUB DUP2 PUSH0 DUP8 GAS CALL ISZERO DUP1 ISZERO PUSH2 0x8B9 JUMPI RETURNDATASIZE PUSH0 PUSH0 RETURNDATACOPY RETURNDATASIZE PUSH0 REVERT JUMPDEST POP POP POP POP PUSH1 0x40 MLOAD RETURNDATASIZE PUSH1 0x1F NOT PUSH1 0x1F DUP3 ADD AND DUP3 ADD DUP1 PUSH1 0x40 MSTORE POP DUP2 ADD SWAP1 PUSH2 0x8DD SWAP2 SWAP1 PUSH2 0xCA0 JUMP JUMPDEST POP JUMPDEST POP POP JUMPDEST PUSH1 0x40 DUP1 MLOAD DUP11 DUP2 MSTORE DUP5 ISZERO ISZERO PUSH1 0x20 DUP3 ADD MSTORE DUP4 ISZERO ISZERO DUP2 DUP4 ADD MSTORE PUSH1 0x60 DUP2 ADD DUP4 SWAP1 MSTORE SWAP1 MLOAD CALLER SWAP2 PUSH32 0x316AB8C7409332C9CEDBF19A8DC4D2F926F2976B4561F8954DB9EB3B00E007D9 SWAP2 SWAP1 DUP2 SWAP1 SUB PUSH1 0x80 ADD SWAP1 LOG2 POP POP POP POP POP POP POP POP POP JUMP JUMPDEST PUSH2 0x941 PUSH2 0xB70 JUMP JUMPDEST PUSH1 0x1 PUSH1 0x1 PUSH1 0xA0 SHL SUB DUP2 AND PUSH0 DUP2 DUP2 MSTORE PUSH1 0x2 PUSH1 0x20 SWAP1 DUP2 MSTORE PUSH1 0x40 DUP1 DUP4 KECCAK256 DUP1 SLOAD PUSH1 0xFF NOT AND SWAP1 SSTORE MLOAD SWAP2 DUP3 MSTORE PUSH32 0xF93F9A76C1BF3444D22400A00CB9FE990E6ABE9DBB333FDA48859CFEE864543D SWAP2 ADD JUMPDEST PUSH1 0x40 MLOAD DUP1 SWAP2 SUB SWAP1 LOG2 POP JUMP JUMPDEST PUSH2 0x99E PUSH2 0xB70 JUMP JUMPDEST PUSH1 0x40 MLOAD PUSH4 0x70A08231 PUSH1 0xE0 SHL DUP2 MSTORE ADDRESS PUSH1 0x4 DUP3 ADD MSTORE PUSH10 0x21E19E0C9BAB2400000 SWAP1 PUSH32 0x0 PUSH1 0x1 PUSH1 0x1 PUSH1 0xA0 SHL SUB AND SWAP1 PUSH4 0x70A08231 SWAP1 PUSH1 0x24 ADD PUSH1 0x20 PUSH1 0x40 MLOAD DUP1 DUP4 SUB DUP2 DUP7 GAS STATICCALL ISZERO DUP1 ISZERO PUSH2 0xA0C JUMPI RETURNDATASIZE PUSH0 PUSH0 RETURNDATACOPY RETURNDATASIZE PUSH0 REVERT JUMPDEST POP POP POP POP PUSH1 0x40 MLOAD RETURNDATASIZE PUSH1 0x1F NOT PUSH1 0x1F DUP3 ADD AND DUP3 ADD DUP1 PUSH1 0x40 MSTORE POP DUP2 ADD SWAP1 PUSH2 0xA30 SWAP2 SWAP1 PUSH2 0xC89 JUMP JUMPDEST LT ISZERO PUSH2 0xA7E JUMPI PUSH1 0x40 MLOAD PUSH3 0x461BCD PUSH1 0xE5 SHL DUP2 MSTORE PUSH1 0x20 PUSH1 0x4 DUP3 ADD MSTORE PUSH1 0x18 PUSH1 0x24 DUP3 ADD MSTORE PUSH32 0x42616C616E636520746F6F206C6F7720746F2073746172740000000000000000 PUSH1 0x44 DUP3 ADD MSTORE PUSH1 0x64 ADD PUSH2 0x3A2 JUMP JUMPDEST PUSH1 0x3 DUP1 SLOAD PUSH1 0xFF NOT AND PUSH1 0x1 SWAP1 DUP2 OR SWAP1 SWAP2 SSTORE PUSH1 0x40 MLOAD SWAP1 DUP2 MSTORE PUSH0 MLOAD PUSH1 0x20 PUSH2 0xD7B PUSH0 CODECOPY PUSH0 MLOAD SWAP1 PUSH0 MSTORE SWAP1 PUSH1 0x20 ADD PUSH2 0x345 JUMP JUMPDEST PUSH2 0xAB3 PUSH2 0xB70 JUMP JUMPDEST PUSH1 0x1 PUSH1 0x1 PUSH1 0xA0 SHL SUB DUP2 AND PUSH0 DUP2 DUP2 MSTORE PUSH1 0x2 PUSH1 0x20 SWAP1 DUP2 MSTORE PUSH1 0x40 SWAP2 DUP3 SWAP1 KECCAK256 DUP1 SLOAD PUSH1 0xFF NOT AND PUSH1 0x1 SWAP1 DUP2 OR SWAP1 SWAP2 SSTORE SWAP2 MLOAD SWAP2 DUP3 MSTORE PUSH32 0xF93F9A76C1BF3444D22400A00CB9FE990E6ABE9DBB333FDA48859CFEE864543D SWAP2 ADD PUSH2 0x98B JUMP JUMPDEST PUSH2 0xB11 PUSH2 0xB70 JUMP JUMPDEST PUSH1 0x1 PUSH1 0x1 PUSH1 0xA0 SHL SUB DUP2 AND PUSH2 0xB3A JUMPI PUSH1 0x40 MLOAD PUSH4 0x1E4FBDF7 PUSH1 0xE0 SHL DUP2 MSTORE PUSH0 PUSH1 0x4 DUP3 ADD MSTORE PUSH1 0x24 ADD PUSH2 0x3A2 JUMP JUMPDEST PUSH2 0xB43 DUP2 PUSH2 0xB9C JUMP JUMPDEST POP JUMP JUMPDEST PUSH2 0xB4E PUSH2 0xB70 JUMP JUMPDEST PUSH1 0x1 DUP1 SLOAD PUSH1 0x1 PUSH1 0x1 PUSH1 0xA0 SHL SUB NOT AND PUSH1 0x1 PUSH1 0x1 PUSH1 0xA0 SHL SUB SWAP3 SWAP1 SWAP3 AND SWAP2 SWAP1 SWAP2 OR SWAP1 SSTORE JUMP JUMPDEST PUSH0 SLOAD PUSH1 0x1 PUSH1 0x1 PUSH1 0xA0 SHL SUB AND CALLER EQ PUSH2 0x360 JUMPI PUSH1 0x40 MLOAD PUSH4 0x118CDAA7 PUSH1 0xE0 SHL DUP2 MSTORE CALLER PUSH1 0x4 DUP3 ADD MSTORE PUSH1 0x24 ADD PUSH2 0x3A2 JUMP JUMPDEST PUSH0 DUP1 SLOAD PUSH1 0x1 PUSH1 0x1 PUSH1 0xA0 SHL SUB DUP4 DUP2 AND PUSH1 0x1 PUSH1 0x1 PUSH1 0xA0 SHL SUB NOT DUP4 AND DUP2 OR DUP5 SSTORE PUSH1 0x40 MLOAD SWAP2 SWAP1 SWAP3 AND SWAP3 DUP4 SWAP2 PUSH32 0x8BE0079C531659141344CD1FD0A4F28419497F9722A3DAAFE3B4186F6B6457E0 SWAP2 SWAP1 LOG3 POP POP JUMP JUMPDEST PUSH0 PUSH1 0x1F JUMPDEST PUSH0 DUP4 DUP3 PUSH1 0x20 DUP2 LT PUSH2 0xC02 JUMPI PUSH2 0xC02 PUSH2 0xD38 JUMP JUMPDEST BYTE SWAP1 POP PUSH1 0x30 DUP2 LT DUP1 ISZERO SWAP1 PUSH2 0xC1A JUMPI POP PUSH1 0x39 DUP2 PUSH1 0xFF AND GT ISZERO JUMPDEST ISZERO PUSH2 0xC32 JUMPI PUSH2 0xC2A PUSH1 0x30 DUP3 PUSH2 0xD4C JUMP JUMPDEST SWAP5 SWAP4 POP POP POP POP JUMP JUMPDEST POP DUP1 PUSH2 0xC3D DUP2 PUSH2 0xD65 JUMP JUMPDEST SWAP2 POP POP PUSH2 0xBEF JUMP JUMPDEST PUSH0 PUSH1 0x20 DUP3 DUP5 SUB SLT ISZERO PUSH2 0xC55 JUMPI PUSH0 PUSH0 REVERT JUMPDEST POP CALLDATALOAD SWAP2 SWAP1 POP JUMP JUMPDEST PUSH0 PUSH1 0x20 DUP3 DUP5 SUB SLT ISZERO PUSH2 0xC6C JUMPI PUSH0 PUSH0 REVERT JUMPDEST DUP2 CALLDATALOAD PUSH1 0x1 PUSH1 0x1 PUSH1 0xA0 SHL SUB DUP2 AND DUP2 EQ PUSH2 0xC82 JUMPI PUSH0 PUSH0 REVERT JUMPDEST SWAP4 SWAP3 POP POP POP JUMP JUMPDEST PUSH0 PUSH1 0x20 DUP3 DUP5 SUB SLT ISZERO PUSH2 0xC99 JUMPI PUSH0 PUSH0 REVERT JUMPDEST POP MLOAD SWAP2 SWAP1 POP JUMP JUMPDEST PUSH0 PUSH1 0x20 DUP3 DUP5 SUB SLT ISZERO PUSH2 0xCB0 JUMPI PUSH0 PUSH0 REVERT JUMPDEST DUP2 MLOAD DUP1 ISZERO ISZERO DUP2 EQ PUSH2 0xC82 JUMPI PUSH0 PUSH0 REVERT JUMPDEST PUSH4 0x4E487B71 PUSH1 0xE0 SHL PUSH0 MSTORE PUSH1 0x11 PUSH1 0x4 MSTORE PUSH1 0x24 PUSH0 REVERT JUMPDEST DUP1 DUP3 MUL DUP2 ISZERO DUP3 DUP3 DIV DUP5 EQ OR PUSH2 0xCEA JUMPI PUSH2 0xCEA PUSH2 0xCBF JUMP JUMPDEST SWAP3 SWAP2 POP POP JUMP JUMPDEST PUSH4 0x4E487B71 PUSH1 0xE0 SHL PUSH0 MSTORE PUSH1 0x12 PUSH1 0x4 MSTORE PUSH1 0x24 PUSH0 REVERT JUMPDEST PUSH0 DUP3 PUSH2 0xD12 JUMPI PUSH2 0xD12 PUSH2 0xCF0 JUMP JUMPDEST POP DIV SWAP1 JUMP JUMPDEST PUSH0 PUSH1 0xFF DUP4 AND DUP1 PUSH2 0xD29 JUMPI PUSH2 0xD29 PUSH2 0xCF0 JUMP JUMPDEST DUP1 PUSH1 0xFF DUP5 AND MOD SWAP2 POP POP SWAP3 SWAP2 POP POP JUMP JUMPDEST PUSH4 0x4E487B71 PUSH1 0xE0 SHL PUSH0 MSTORE PUSH1 0x32 PUSH1 0x4 MSTORE PUSH1 0x24 PUSH0 REVERT JUMPDEST PUSH1 0xFF DUP3 DUP2 AND DUP3 DUP3 AND SUB SWAP1 DUP2 GT ISZERO PUSH2 0xCEA JUMPI PUSH2 0xCEA PUSH2 0xCBF JUMP JUMPDEST PUSH0 DUP2 PUSH2 0xD73 JUMPI PUSH2 0xD73 PUSH2 0xCBF JUMP JUMPDEST POP PUSH0 NOT ADD SWAP1 JUMP INVALID 0xFC MCOPY PUSH23 0xD60C483E79EE18A38D792A63CC569F716FCE9F2C04D207 0x25 0xDD LOG4 PC 0xF 0xCB LOG2 PUSH5 0x6970667358 0x22 SLT KECCAK256 EXTCODESIZE 0xC5 SIGNEXTEND EXTCALL SHL XOR SELFDESTRUCT DUP14 DUPN 0x73 0x29 0x2F BASEFEE 0xB4 0xBE 0x22 RETURNDATACOPY PUSH20 0x1D04AE57970D86DF2AB23C5A95BA64736F6C6343 STOP ADDMOD 0x22 STOP CALLER "
				},
				"gasEstimates": {
					"creation": {
						"codeDepositCost": "707200",
						"executionCost": "infinite",
						"totalCost": "infinite"
					},
					"external": {
						"GAME_STOP_THRESHOLD()": "207",
						"MAX_BET()": "272",
						"MIN_BET()": "206",
						"addToWhitelist(address)": "28224",
						"bet(uint256)": "infinite",
						"forceStopGame()": "infinite",
						"gameActive()": "2353",
						"isGameActive()": "infinite",
						"nft()": "2426",
						"owner()": "2374",
						"removeFromWhitelist(address)": "28193",
						"renounceOwnership()": "infinite",
						"setNFT(address)": "26785",
						"startGame()": "infinite",
						"token()": "infinite",
						"transferOwnership(address)": "28360",
						"whitelist(address)": "2560"
					},
					"internal": {
						"_getLastDigitFromHash(bytes32)": "infinite"
					}
				},
				"methodIdentifiers": {
					"GAME_STOP_THRESHOLD()": "061e431c",
					"MAX_BET()": "7e95b523",
					"MIN_BET()": "6540742f",
					"addToWhitelist(address)": "e43252d7",
					"bet(uint256)": "7365870b",
					"forceStopGame()": "2cf685a4",
					"gameActive()": "f020044f",
					"isGameActive()": "0c0ef2b0",
					"nft()": "47ccca02",
					"owner()": "8da5cb5b",
					"removeFromWhitelist(address)": "8ab1d681",
					"renounceOwnership()": "715018a6",
					"setNFT(address)": "f56e9c66",
					"startGame()": "d65ab5f2",
					"token()": "fc0c546a",
					"transferOwnership(address)": "f2fde38b",
					"whitelist(address)": "9b19251a"
				}
			},
			"storageLayout": {
				"storage": [
					{
						"astId": 8,
						"contract": "contracts/HashGame.sol:HashGame",
						"label": "_owner",
						"offset": 0,
						"slot": "0",
						"type": "t_address"
					},
					{
						"astId": 266,
						"contract": "contracts/HashGame.sol:HashGame",
						"label": "nft",
						"offset": 0,
						"slot": "1",
						"type": "t_address"
					},
					{
						"astId": 285,
						"contract": "contracts/HashGame.sol:HashGame",
						"label": "whitelist",
						"offset": 0,
						"slot": "2",
						"type": "t_mapping(t_address,t_bool)"
					},
					{
						"astId": 288,
						"contract": "contracts/HashGame.sol:HashGame",
						"label": "gameActive",
						"offset": 0,
						"slot": "3",
						"type": "t_bool"
					}
				],
				"types": {
					"t_address": {
						"encoding": "inplace",
						"label": "address",
						"numberOfBytes": "20"
					},
					"t_bool": {
						"encoding": "inplace",
						"label": "bool",
						"numberOfBytes": "1"
					},
					"t_mapping(t_address,t_bool)": {
						"encoding": "mapping",
						"key": "t_address",
						"label": "mapping(address => bool)",
						"numberOfBytes": "32",
						"value": "t_bool"
					}
				}
			},
			"userdoc": {
				"kind": "user",
				"methods": {},
				"version": 1
			}
		}
	}
}