{
	"contracts/Pool.sol": {
		"Pool": {
			"abi": [
				{
					"inputs": [],
					"stateMutability": "nonpayable",
					"type": "constructor"
				},
				{
					"inputs": [
						{
							"internalType": "address",
							"name": "token",
							"type": "address"
						},
						{
							"internalType": "address",
							"name": "to",
							"type": "address"
						},
						{
							"internalType": "uint256",
							"name": "amount",
							"type": "uint256"
						}
					],
					"name": "claimToken",
					"outputs": [],
					"stateMutability": "nonpayable",
					"type": "function"
				}
			],
			"devdoc": {
				"kind": "dev",
				"methods": {},
				"version": 1
			},
			"evm": {
				"assembly": "    /* \"contracts/Pool.sol\":128:462  contract Pool {... */\n  mstore(0x40, 0x80)\n    /* \"contracts/Pool.sol\":204:269  constructor() {... */\n  callvalue\n  dup1\n  iszero\n  tag_1\n  jumpi\n  revert(0x00, 0x00)\ntag_1:\n  pop\n    /* \"contracts/Pool.sol\":243:253  msg.sender */\n  caller\n    /* \"contracts/Pool.sol\":229:242  _feeWhiteList */\n  0x00\n    /* \"contracts/Pool.sol\":229:254  _feeWhiteList[msg.sender] */\n  swap1\n  dup2\n  mstore\n  0x20\n  dup2\n  swap1\n  mstore\n  0x40\n  swap1\n  keccak256\n    /* \"contracts/Pool.sol\":229:261  _feeWhiteList[msg.sender] = true */\n  dup1\n  sload\n  not(0xff)\n  and\n    /* \"contracts/Pool.sol\":257:261  true */\n  0x01\n    /* \"contracts/Pool.sol\":229:261  _feeWhiteList[msg.sender] = true */\n  or\n  swap1\n  sstore\n    /* \"contracts/Pool.sol\":128:462  contract Pool {... */\n  dataSize(sub_0)\n  dup1\n  dataOffset(sub_0)\n  0x00\n  codecopy\n  0x00\n  return\nstop\n\nsub_0: assembly {\n        /* \"contracts/Pool.sol\":128:462  contract Pool {... */\n      mstore(0x40, 0x80)\n      callvalue\n      dup1\n      iszero\n      tag_1\n      jumpi\n      revert(0x00, 0x00)\n    tag_1:\n      pop\n      jumpi(tag_2, lt(calldatasize, 0x04))\n      shr(0xe0, calldataload(0x00))\n      dup1\n      0x125bfb66\n      eq\n      tag_3\n      jumpi\n    tag_2:\n      revert(0x00, 0x00)\n        /* \"contracts/Pool.sol\":277:459  function claimToken(address token, address to, uint256 amount) external {... */\n    tag_3:\n      tag_4\n      tag_5\n      calldatasize\n      0x04\n      tag_6\n      jump\t// in\n    tag_5:\n      tag_7\n      jump\t// in\n    tag_4:\n      stop\n    tag_7:\n        /* \"contracts/Pool.sol\":378:388  msg.sender */\n      caller\n        /* \"contracts/Pool.sol\":364:377  _feeWhiteList */\n      0x00\n        /* \"contracts/Pool.sol\":364:389  _feeWhiteList[msg.sender] */\n      swap1\n      dup2\n      mstore\n      0x20\n      dup2\n      swap1\n      mstore\n      0x40\n      swap1\n      keccak256\n      sload\n      0xff\n      and\n        /* \"contracts/Pool.sol\":360:452  if (_feeWhiteList[msg.sender]) {... */\n      iszero\n      tag_9\n      jumpi\n        /* \"contracts/Pool.sol\":406:440  IERC20(token).transfer(to, amount) */\n      mload(0x40)\n      shl(0xe0, 0xa9059cbb)\n      dup2\n      mstore\n      sub(shl(0xa0, 0x01), 0x01)\n        /* \"#utility.yul\":717:749   */\n      dup4\n      dup2\n      and\n        /* \"contracts/Pool.sol\":406:440  IERC20(token).transfer(to, amount) */\n      0x04\n      dup4\n      add\n        /* \"#utility.yul\":699:750   */\n      mstore\n        /* \"#utility.yul\":766:784   */\n      0x24\n      dup3\n      add\n        /* \"#utility.yul\":759:793   */\n      dup4\n      swap1\n      mstore\n        /* \"contracts/Pool.sol\":406:428  IERC20(token).transfer */\n      dup5\n      and\n      swap1\n      0xa9059cbb\n      swap1\n        /* \"#utility.yul\":672:690   */\n      0x44\n      add\n        /* \"contracts/Pool.sol\":406:440  IERC20(token).transfer(to, amount) */\n      0x20\n      mload(0x40)\n      dup1\n      dup4\n      sub\n      dup2\n      0x00\n      dup8\n      gas\n      call\n      iszero\n      dup1\n      iszero\n      tag_13\n      jumpi\n      returndatacopy(0x00, 0x00, returndatasize)\n      revert(0x00, returndatasize)\n    tag_13:\n      pop\n      pop\n      pop\n      pop\n      mload(0x40)\n      returndatasize\n      not(0x1f)\n      0x1f\n      dup3\n      add\n      and\n      dup3\n      add\n      dup1\n      0x40\n      mstore\n      pop\n      dup2\n      add\n      swap1\n      tag_14\n      swap2\n      swap1\n      tag_15\n      jump\t// in\n    tag_14:\n      pop\n        /* \"contracts/Pool.sol\":360:452  if (_feeWhiteList[msg.sender]) {... */\n    tag_9:\n        /* \"contracts/Pool.sol\":277:459  function claimToken(address token, address to, uint256 amount) external {... */\n      pop\n      pop\n      pop\n      jump\t// out\n        /* \"#utility.yul\":14:187   */\n    tag_16:\n        /* \"#utility.yul\":82:102   */\n      dup1\n      calldataload\n      sub(shl(0xa0, 0x01), 0x01)\n        /* \"#utility.yul\":131:162   */\n      dup2\n      and\n        /* \"#utility.yul\":121:163   */\n      dup2\n      eq\n        /* \"#utility.yul\":111:181   */\n      tag_19\n      jumpi\n        /* \"#utility.yul\":177:178   */\n      0x00\n        /* \"#utility.yul\":174:175   */\n      0x00\n        /* \"#utility.yul\":167:179   */\n      revert\n        /* \"#utility.yul\":111:181   */\n    tag_19:\n        /* \"#utility.yul\":14:187   */\n      swap2\n      swap1\n      pop\n      jump\t// out\n        /* \"#utility.yul\":192:520   */\n    tag_6:\n        /* \"#utility.yul\":269:275   */\n      0x00\n        /* \"#utility.yul\":277:283   */\n      0x00\n        /* \"#utility.yul\":285:291   */\n      0x00\n        /* \"#utility.yul\":338:340   */\n      0x60\n        /* \"#utility.yul\":326:335   */\n      dup5\n        /* \"#utility.yul\":317:324   */\n      dup7\n        /* \"#utility.yul\":313:336   */\n      sub\n        /* \"#utility.yul\":309:341   */\n      slt\n        /* \"#utility.yul\":306:358   */\n      iszero\n      tag_21\n      jumpi\n        /* \"#utility.yul\":354:355   */\n      0x00\n        /* \"#utility.yul\":351:352   */\n      0x00\n        /* \"#utility.yul\":344:356   */\n      revert\n        /* \"#utility.yul\":306:358   */\n    tag_21:\n        /* \"#utility.yul\":377:406   */\n      tag_22\n        /* \"#utility.yul\":396:405   */\n      dup5\n        /* \"#utility.yul\":377:406   */\n      tag_16\n      jump\t// in\n    tag_22:\n        /* \"#utility.yul\":367:406   */\n      swap3\n      pop\n        /* \"#utility.yul\":425:463   */\n      tag_23\n        /* \"#utility.yul\":459:461   */\n      0x20\n        /* \"#utility.yul\":448:457   */\n      dup6\n        /* \"#utility.yul\":444:462   */\n      add\n        /* \"#utility.yul\":425:463   */\n      tag_16\n      jump\t// in\n    tag_23:\n        /* \"#utility.yul\":415:463   */\n      swap2\n      pop\n        /* \"#utility.yul\":510:512   */\n      0x40\n        /* \"#utility.yul\":499:508   */\n      dup5\n        /* \"#utility.yul\":495:513   */\n      add\n        /* \"#utility.yul\":482:514   */\n      calldataload\n        /* \"#utility.yul\":472:514   */\n      swap1\n      pop\n        /* \"#utility.yul\":192:520   */\n      swap3\n      pop\n      swap3\n      pop\n      swap3\n      jump\t// out\n        /* \"#utility.yul\":804:1081   */\n    tag_15:\n        /* \"#utility.yul\":871:877   */\n      0x00\n        /* \"#utility.yul\":924:926   */\n      0x20\n        /* \"#utility.yul\":912:921   */\n      dup3\n        /* \"#utility.yul\":903:910   */\n      dup5\n        /* \"#utility.yul\":899:922   */\n      sub\n        /* \"#utility.yul\":895:927   */\n      slt\n        /* \"#utility.yul\":892:944   */\n      iszero\n      tag_26\n      jumpi\n        /* \"#utility.yul\":940:941   */\n      0x00\n        /* \"#utility.yul\":937:938   */\n      0x00\n        /* \"#utility.yul\":930:942   */\n      revert\n        /* \"#utility.yul\":892:944   */\n    tag_26:\n        /* \"#utility.yul\":972:981   */\n      dup2\n        /* \"#utility.yul\":966:982   */\n      mload\n        /* \"#utility.yul\":1025:1030   */\n      dup1\n        /* \"#utility.yul\":1018:1031   */\n      iszero\n        /* \"#utility.yul\":1011:1032   */\n      iszero\n        /* \"#utility.yul\":1004:1009   */\n      dup2\n        /* \"#utility.yul\":1001:1033   */\n      eq\n        /* \"#utility.yul\":991:1051   */\n      tag_27\n      jumpi\n        /* \"#utility.yul\":1047:1048   */\n      0x00\n        /* \"#utility.yul\":1044:1045   */\n      0x00\n        /* \"#utility.yul\":1037:1049   */\n      revert\n        /* \"#utility.yul\":991:1051   */\n    tag_27:\n        /* \"#utility.yul\":1070:1075   */\n      swap4\n        /* \"#utility.yul\":804:1081   */\n      swap3\n      pop\n      pop\n      pop\n      jump\t// out\n\n    auxdata: 0xa2646970667358221220f7fe6dd1ad1318698974b3ce2c64ee69468d54a5d1b0031bc4beca565d8d665664736f6c63430008220033\n}\n",
				"bytecode": {
					"linkReferences": {},
					"object": "6080604052348015600e575f5ffd5b50335f908152602081905260409020805460ff19166001179055610180806100355f395ff3fe608060405234801561000f575f5ffd5b5060043610610029575f3560e01c8063125bfb661461002d575b5f5ffd5b61004061003b3660046100eb565b610042565b005b335f9081526020819052604090205460ff16156100cb5760405163a9059cbb60e01b81526001600160a01b0383811660048301526024820183905284169063a9059cbb906044016020604051808303815f875af11580156100a5573d5f5f3e3d5ffd5b505050506040513d601f19601f820116820180604052508101906100c99190610124565b505b505050565b80356001600160a01b03811681146100e6575f5ffd5b919050565b5f5f5f606084860312156100fd575f5ffd5b610106846100d0565b9250610114602085016100d0565b9150604084013590509250925092565b5f60208284031215610134575f5ffd5b81518015158114610143575f5ffd5b939250505056fea2646970667358221220f7fe6dd1ad1318698974b3ce2c64ee69468d54a5d1b0031bc4beca565d8d665664736f6c63430008220033",
					"opcodes": "PUSH1 0x80 PUSH1 0x40 MSTORE CALLVALUE DUP1 ISZERO PUSH1 0xE JUMPI PUSH0 PUSH0 REVERT JUMPDEST POP CALLER PUSH0 SWAP1 DUP2 MSTORE PUSH1 0x20 DUP2 SWAP1 MSTORE PUSH1 0x40 SWAP1 KECCAK256 DUP1 SLOAD PUSH1 0xFF NOT AND PUSH1 0x1 OR SWAP1 SSTORE PUSH2 0x180 DUP1 PUSH2 0x35 PUSH0 CODECOPY PUSH0 RETURN INVALID PUSH1 0x80 PUSH1 0x40 MSTORE CALLVALUE DUP1 ISZERO PUSH2 0xF JUMPI PUSH0 PUSH0 REVERT JUMPDEST POP PUSH1 0x4 CALLDATASIZE LT PUSH2 0x29 JUMPI PUSH0 CALLDATALOAD PUSH1 0xE0 SHR DUP1 PUSH4 0x125BFB66 EQ PUSH2 0x2D JUMPI JUMPDEST PUSH0 PUSH0 REVERT JUMPDEST PUSH2 0x40 PUSH2 0x3B CALLDATASIZE PUSH1 0x4 PUSH2 0xEB JUMP JUMPDEST PUSH2 0x42 JUMP JUMPDEST STOP JUMPDEST CALLER PUSH0 SWAP1 DUP2 MSTORE PUSH1 0x20 DUP2 SWAP1 MSTORE PUSH1 0x40 SWAP1 KECCAK256 SLOAD PUSH1 0xFF AND ISZERO PUSH2 0xCB JUMPI PUSH1 0x40 MLOAD PUSH4 0xA9059CBB PUSH1 0xE0 SHL DUP2 MSTORE PUSH1 0x1 PUSH1 0x1 PUSH1 0xA0 SHL SUB DUP4 DUP2 AND PUSH1 0x4 DUP4 ADD MSTORE PUSH1 0x24 DUP3 ADD DUP4 SWAP1 MSTORE DUP5 AND SWAP1 PUSH4 0xA9059CBB SWAP1 PUSH1 0x44 ADD PUSH1 0x20 PUSH1 0x40 MLOAD DUP1 DUP4 SUB DUP2 PUSH0 DUP8 GAS CALL ISZERO DUP1 ISZERO PUSH2 0xA5 JUMPI RETURNDATASIZE PUSH0 PUSH0 RETURNDATACOPY RETURNDATASIZE PUSH0 REVERT JUMPDEST POP POP POP POP PUSH1 0x40 MLOAD RETURNDATASIZE PUSH1 0x1F NOT PUSH1 0x1F DUP3 ADD AND DUP3 ADD DUP1 PUSH1 0x40 MSTORE POP DUP2 ADD SWAP1 PUSH2 0xC9 SWAP2 SWAP1 PUSH2 0x124 JUMP JUMPDEST POP JUMPDEST POP POP POP JUMP JUMPDEST DUP1 CALLDATALOAD PUSH1 0x1 PUSH1 0x1 PUSH1 0xA0 SHL SUB DUP2 AND DUP2 EQ PUSH2 0xE6 JUMPI PUSH0 PUSH0 REVERT JUMPDEST SWAP2 SWAP1 POP JUMP JUMPDEST PUSH0 PUSH0 PUSH0 PUSH1 0x60 DUP5 DUP7 SUB SLT ISZERO PUSH2 0xFD JUMPI PUSH0 PUSH0 REVERT JUMPDEST PUSH2 0x106 DUP5 PUSH2 0xD0 JUMP JUMPDEST SWAP3 POP PUSH2 0x114 PUSH1 0x20 DUP6 ADD PUSH2 0xD0 JUMP JUMPDEST SWAP2 POP PUSH1 0x40 DUP5 ADD CALLDATALOAD SWAP1 POP SWAP3 POP SWAP3 POP SWAP3 JUMP JUMPDEST PUSH0 PUSH1 0x20 DUP3 DUP5 SUB SLT ISZERO PUSH2 0x134 JUMPI PUSH0 PUSH0 REVERT JUMPDEST DUP2 MLOAD DUP1 ISZERO ISZERO DUP2 EQ PUSH2 0x143 JUMPI PUSH0 PUSH0 REVERT JUMPDEST SWAP4 SWAP3 POP POP POP JUMP INVALID LOG2 PUSH5 0x6970667358 0x22 SLT KECCAK256 0xF7 INVALID PUSH14 0xD1AD1318698974B3CE2C64EE6946 DUP14 SLOAD 0xA5 DATALOADN 0xB003 SHL 0xC4 0xBE 0xCA JUMP TSTORE DUP14 PUSH7 0x5664736F6C6343 STOP ADDMOD 0x22 STOP CALLER "
				},
				"gasEstimates": {
					"creation": {
						"codeDepositCost": "76800",
						"executionCost": "24415",
						"totalCost": "101215"
					},
					"external": {
						"claimToken(address,address,uint256)": "infinite"
					}
				},
				"methodIdentifiers": {
					"claimToken(address,address,uint256)": "125bfb66"
				}
			},
			"storageLayout": {
				"storage": [
					{
						"astId": 84,
						"contract": "contracts/Pool.sol:Pool",
						"label": "_feeWhiteList",
						"offset": 0,
						"slot": "0",
						"type": "t_mapping(t_address,t_bool)"
					}
				],
				"types": {
					"t_address": {
						"encoding": "inplace",
						"label": "address",
						"numberOfBytes": "20"
					},
					"t_bool": {
						"encoding": "inplace",
						"label": "bool",
						"numberOfBytes": "1"
					},
					"t_mapping(t_address,t_bool)": {
						"encoding": "mapping",
						"key": "t_address",
						"label": "mapping(address => bool)",
						"numberOfBytes": "32",
						"value": "t_bool"
					}
				}
			},
			"userdoc": {
				"kind": "user",
				"methods": {},
				"version": 1
			}
		}
	}
}