{
	"contracts/test2/DividendDistributor.sol": {
		"DividendDistributor": {
			"abi": [
				{
					"inputs": [
						{
							"internalType": "address",
							"name": "_romanToken",
							"type": "address"
						},
						{
							"internalType": "address",
							"name": "_mainNFT",
							"type": "address"
						},
						{
							"internalType": "address",
							"name": "_subNFT",
							"type": "address"
						},
						{
							"internalType": "address",
							"name": "_usdt",
							"type": "address"
						}
					],
					"stateMutability": "nonpayable",
					"type": "constructor"
				},
				{
					"inputs": [
						{
							"internalType": "address",
							"name": "owner",
							"type": "address"
						}
					],
					"name": "OwnableInvalidOwner",
					"type": "error"
				},
				{
					"inputs": [
						{
							"internalType": "address",
							"name": "account",
							"type": "address"
						}
					],
					"name": "OwnableUnauthorizedAccount",
					"type": "error"
				},
				{
					"anonymous": false,
					"inputs": [
						{
							"indexed": true,
							"internalType": "address",
							"name": "user",
							"type": "address"
						},
						{
							"indexed": false,
							"internalType": "uint256",
							"name": "mainId",
							"type": "uint256"
						},
						{
							"indexed": false,
							"internalType": "uint256",
							"name": "subId",
							"type": "uint256"
						}
					],
					"name": "Activated",
					"type": "event"
				},
				{
					"anonymous": false,
					"inputs": [
						{
							"indexed": true,
							"internalType": "address",
							"name": "user",
							"type": "address"
						},
						{
							"indexed": false,
							"internalType": "uint256",
							"name": "usdtAmount",
							"type": "uint256"
						},
						{
							"indexed": false,
							"internalType": "uint256",
							"name": "romanAmount",
							"type": "uint256"
						},
						{
							"indexed": false,
							"internalType": "uint256",
							"name": "bnbAmount",
							"type": "uint256"
						}
					],
					"name": "Claimed",
					"type": "event"
				},
				{
					"anonymous": false,
					"inputs": [
						{
							"indexed": true,
							"internalType": "address",
							"name": "previousOwner",
							"type": "address"
						},
						{
							"indexed": true,
							"internalType": "address",
							"name": "newOwner",
							"type": "address"
						}
					],
					"name": "OwnershipTransferred",
					"type": "event"
				},
				{
					"anonymous": false,
					"inputs": [
						{
							"indexed": false,
							"internalType": "string",
							"name": "rewardType",
							"type": "string"
						},
						{
							"indexed": false,
							"internalType": "uint256",
							"name": "amount",
							"type": "uint256"
						}
					],
					"name": "RewardReceived",
					"type": "event"
				},
				{
					"inputs": [
						{
							"internalType": "uint256",
							"name": "mainTokenId",
							"type": "uint256"
						},
						{
							"internalType": "uint256",
							"name": "subTokenId",
							"type": "uint256"
						}
					],
					"name": "activate",
					"outputs": [],
					"stateMutability": "nonpayable",
					"type": "function"
				},
				{
					"inputs": [
						{
							"internalType": "address",
							"name": "",
							"type": "address"
						}
					],
					"name": "activeMainTokenId",
					"outputs": [
						{
							"internalType": "uint256",
							"name": "",
							"type": "uint256"
						}
					],
					"stateMutability": "view",
					"type": "function"
				},
				{
					"inputs": [
						{
							"internalType": "address",
							"name": "",
							"type": "address"
						}
					],
					"name": "activeSubTokenId",
					"outputs": [
						{
							"internalType": "uint256",
							"name": "",
							"type": "uint256"
						}
					],
					"stateMutability": "view",
					"type": "function"
				},
				{
					"inputs": [],
					"name": "antiDumpRomanPool",
					"outputs": [
						{
							"internalType": "uint256",
							"name": "",
							"type": "uint256"
						}
					],
					"stateMutability": "view",
					"type": "function"
				},
				{
					"inputs": [],
					"name": "claim",
					"outputs": [],
					"stateMutability": "nonpayable",
					"type": "function"
				},
				{
					"inputs": [
						{
							"internalType": "address",
							"name": "token",
							"type": "address"
						},
						{
							"internalType": "uint256",
							"name": "amount",
							"type": "uint256"
						}
					],
					"name": "emergencyWithdraw",
					"outputs": [],
					"stateMutability": "nonpayable",
					"type": "function"
				},
				{
					"inputs": [],
					"name": "feeUsdtPool",
					"outputs": [
						{
							"internalType": "uint256",
							"name": "",
							"type": "uint256"
						}
					],
					"stateMutability": "view",
					"type": "function"
				},
				{
					"inputs": [],
					"name": "hashGameRomanPool",
					"outputs": [
						{
							"internalType": "uint256",
							"name": "",
							"type": "uint256"
						}
					],
					"stateMutability": "view",
					"type": "function"
				},
				{
					"inputs": [],
					"name": "investBnbPool",
					"outputs": [
						{
							"internalType": "uint256",
							"name": "",
							"type": "uint256"
						}
					],
					"stateMutability": "view",
					"type": "function"
				},
				{
					"inputs": [],
					"name": "mainNFT",
					"outputs": [
						{
							"internalType": "address",
							"name": "",
							"type": "address"
						}
					],
					"stateMutability": "view",
					"type": "function"
				},
				{
					"inputs": [],
					"name": "owner",
					"outputs": [
						{
							"internalType": "address",
							"name": "",
							"type": "address"
						}
					],
					"stateMutability": "view",
					"type": "function"
				},
				{
					"inputs": [
						{
							"internalType": "uint256",
							"name": "amount",
							"type": "uint256"
						},
						{
							"internalType": "string",
							"name": "rewardType",
							"type": "string"
						}
					],
					"name": "receiveRoman",
					"outputs": [],
					"stateMutability": "nonpayable",
					"type": "function"
				},
				{
					"inputs": [
						{
							"internalType": "uint256",
							"name": "amount",
							"type": "uint256"
						}
					],
					"name": "receiveUsdt",
					"outputs": [],
					"stateMutability": "nonpayable",
					"type": "function"
				},
				{
					"inputs": [],
					"name": "renounceOwnership",
					"outputs": [],
					"stateMutability": "nonpayable",
					"type": "function"
				},
				{
					"inputs": [],
					"name": "romanToken",
					"outputs": [
						{
							"internalType": "contract IROMANToken",
							"name": "",
							"type": "address"
						}
					],
					"stateMutability": "view",
					"type": "function"
				},
				{
					"inputs": [
						{
							"internalType": "address",
							"name": "user",
							"type": "address"
						},
						{
							"internalType": "bool",
							"name": "status",
							"type": "bool"
						}
					],
					"name": "setWhitelist",
					"outputs": [],
					"stateMutability": "nonpayable",
					"type": "function"
				},
				{
					"inputs": [],
					"name": "subNFT",
					"outputs": [
						{
							"internalType": "address",
							"name": "",
							"type": "address"
						}
					],
					"stateMutability": "view",
					"type": "function"
				},
				{
					"inputs": [],
					"name": "totalActiveMain",
					"outputs": [
						{
							"internalType": "uint256",
							"name": "",
							"type": "uint256"
						}
					],
					"stateMutability": "view",
					"type": "function"
				},
				{
					"inputs": [],
					"name": "totalActiveSub",
					"outputs": [
						{
							"internalType": "uint256",
							"name": "",
							"type": "uint256"
						}
					],
					"stateMutability": "view",
					"type": "function"
				},
				{
					"inputs": [
						{
							"internalType": "address",
							"name": "newOwner",
							"type": "address"
						}
					],
					"name": "transferOwnership",
					"outputs": [],
					"stateMutability": "nonpayable",
					"type": "function"
				},
				{
					"inputs": [],
					"name": "usdt",
					"outputs": [
						{
							"internalType": "address",
							"name": "",
							"type": "address"
						}
					],
					"stateMutability": "view",
					"type": "function"
				},
				{
					"inputs": [
						{
							"internalType": "address",
							"name": "",
							"type": "address"
						}
					],
					"name": "whitelist",
					"outputs": [
						{
							"internalType": "bool",
							"name": "",
							"type": "bool"
						}
					],
					"stateMutability": "view",
					"type": "function"
				},
				{
					"stateMutability": "payable",
					"type": "receive"
				}
			],
			"devdoc": {
				"errors": {
					"OwnableInvalidOwner(address)": [
						{
							"details": "The owner is not a valid owner account. (eg. `address(0)`)"
						}
					],
					"OwnableUnauthorizedAccount(address)": [
						{
							"details": "The caller account is not authorized to perform an operation."
						}
					]
				},
				"kind": "dev",
				"methods": {
					"owner()": {
						"details": "Returns the address of the current owner."
					},
					"renounceOwnership()": {
						"details": "Leaves the contract without owner. It will not be possible to call `onlyOwner` functions. Can only be called by the current owner. NOTE: Renouncing ownership will leave the contract without an owner, thereby disabling any functionality that is only available to the owner."
					},
					"transferOwnership(address)": {
						"details": "Transfers ownership of the contract to a new account (`newOwner`). Can only be called by the current owner."
					}
				},
				"version": 1
			},
			"evm": {
				"assembly": "    /* \"contracts/test2/DividendDistributor.sol\":10245:20193  contract DividendDistributor is Ownable {... */\n  mstore(0x40, 0x80)\n    /* \"contracts/test2/DividendDistributor.sol\":11214:11495  constructor(... */\n  callvalue\n  dup1\n  iszero\n  tag_1\n  jumpi\n  revert(0x00, 0x00)\ntag_1:\n  pop\n  mload(0x40)\n  sub(codesize, bytecodeSize)\n  dup1\n  bytecodeSize\n  dup4\n  codecopy\n  dup2\n  add\n  0x40\n  dup2\n  swap1\n  mstore\n  tag_2\n  swap2\n  tag_3\n  jump\t// in\ntag_2:\n    /* \"contracts/test2/DividendDistributor.sol\":11348:11358  msg.sender */\n  caller\n  dup1\n    /* \"@openzeppelin/contracts/access/Ownable.sol\":1269:1364  if (initialOwner == address(0)) {... */\n  tag_7\n  jumpi\n    /* \"@openzeppelin/contracts/access/Ownable.sol\":1322:1353  OwnableInvalidOwner(address(0)) */\n  mload(0x40)\n  shl(0xe0, 0x1e4fbdf7)\n  dup2\n  mstore\n    /* \"@openzeppelin/contracts/access/Ownable.sol\":1350:1351  0 */\n  0x00\n    /* \"@openzeppelin/contracts/access/Ownable.sol\":1322:1353  OwnableInvalidOwner(address(0)) */\n  0x04\n  dup3\n  add\n    /* \"#utility.yul\":811:862   */\n  mstore\n    /* \"#utility.yul\":784:802   */\n  0x24\n  add\n    /* \"@openzeppelin/contracts/access/Ownable.sol\":1322:1353  OwnableInvalidOwner(address(0)) */\n  mload(0x40)\n  dup1\n  swap2\n  sub\n  swap1\n  revert\n    /* \"@openzeppelin/contracts/access/Ownable.sol\":1269:1364  if (initialOwner == address(0)) {... */\ntag_7:\n    /* \"@openzeppelin/contracts/access/Ownable.sol\":1373:1405  _transferOwnership(initialOwner) */\n  tag_10\n    /* \"@openzeppelin/contracts/access/Ownable.sol\":1392:1404  initialOwner */\n  dup2\n    /* \"@openzeppelin/contracts/access/Ownable.sol\":1373:1391  _transferOwnership */\n  tag_11\n    /* \"@openzeppelin/contracts/access/Ownable.sol\":1373:1405  _transferOwnership(initialOwner) */\n  jump\t// in\ntag_10:\n  pop\n    /* \"contracts/test2/DividendDistributor.sol\":11371:11381  romanToken */\n  0x01\n    /* \"contracts/test2/DividendDistributor.sol\":11371:11408  romanToken = IROMANToken(_romanToken) */\n  dup1\n  sload\n  sub(shl(0xa0, 0x01), 0x01)\n  swap6\n  dup7\n  and\n  not(sub(shl(0xa0, 0x01), 0x01))\n  swap2\n  dup3\n  and\n  or\n  swap1\n  swap2\n  sstore\n    /* \"contracts/test2/DividendDistributor.sol\":11419:11426  mainNFT */\n  0x02\n    /* \"contracts/test2/DividendDistributor.sol\":11419:11437  mainNFT = _mainNFT */\n  dup1\n  sload\n  swap5\n  dup7\n  and\n  swap5\n  dup3\n  and\n  swap5\n  swap1\n  swap5\n  or\n  swap1\n  swap4\n  sstore\n    /* \"contracts/test2/DividendDistributor.sol\":11448:11454  subNFT */\n  0x03\n    /* \"contracts/test2/DividendDistributor.sol\":11448:11464  subNFT = _subNFT */\n  dup1\n  sload\n  swap3\n  dup6\n  and\n  swap3\n  dup5\n  and\n  swap3\n  swap1\n  swap3\n  or\n  swap1\n  swap2\n  sstore\n    /* \"contracts/test2/DividendDistributor.sol\":11475:11479  usdt */\n  0x04\n    /* \"contracts/test2/DividendDistributor.sol\":11475:11487  usdt = _usdt */\n  dup1\n  sload\n  swap2\n  swap1\n  swap4\n  and\n  swap2\n  and\n  or\n  swap1\n  sstore\n    /* \"contracts/test2/DividendDistributor.sol\":10245:20193  contract DividendDistributor is Ownable {... */\n  jump(tag_16)\n    /* \"@openzeppelin/contracts/access/Ownable.sol\":2912:3099  function _transferOwnership(address newOwner) internal virtual {... */\ntag_11:\n    /* \"@openzeppelin/contracts/access/Ownable.sol\":2985:3001  address oldOwner */\n  0x00\n    /* \"@openzeppelin/contracts/access/Ownable.sol\":3004:3010  _owner */\n  dup1\n  sload\n  sub(shl(0xa0, 0x01), 0x01)\n    /* \"@openzeppelin/contracts/access/Ownable.sol\":3020:3037  _owner = newOwner */\n  dup4\n  dup2\n  and\n  not(sub(shl(0xa0, 0x01), 0x01))\n  dup4\n  and\n  dup2\n  or\n  dup5\n  sstore\n    /* \"@openzeppelin/contracts/access/Ownable.sol\":3052:3092  OwnershipTransferred(oldOwner, newOwner) */\n  mload(0x40)\n    /* \"@openzeppelin/contracts/access/Ownable.sol\":3004:3010  _owner */\n  swap2\n  swap1\n  swap3\n  and\n  swap3\n  dup4\n  swap2\n    /* \"@openzeppelin/contracts/access/Ownable.sol\":3052:3092  OwnershipTransferred(oldOwner, newOwner) */\n  0x8be0079c531659141344cd1fd0a4f28419497f9722a3daafe3b4186f6b6457e0\n  swap2\n    /* \"@openzeppelin/contracts/access/Ownable.sol\":2985:3001  address oldOwner */\n  swap1\n    /* \"@openzeppelin/contracts/access/Ownable.sol\":3052:3092  OwnershipTransferred(oldOwner, newOwner) */\n  log3\n    /* \"@openzeppelin/contracts/access/Ownable.sol\":2975:3099  {... */\n  pop\n    /* \"@openzeppelin/contracts/access/Ownable.sol\":2912:3099  function _transferOwnership(address newOwner) internal virtual {... */\n  pop\n  jump\t// out\n    /* \"#utility.yul\":14:191   */\ntag_15:\n    /* \"#utility.yul\":93:106   */\n  dup1\n  mload\n  sub(shl(0xa0, 0x01), 0x01)\n    /* \"#utility.yul\":135:166   */\n  dup2\n  and\n    /* \"#utility.yul\":125:167   */\n  dup2\n  eq\n    /* \"#utility.yul\":115:185   */\n  tag_18\n  jumpi\n    /* \"#utility.yul\":181:182   */\n  0x00\n    /* \"#utility.yul\":178:179   */\n  0x00\n    /* \"#utility.yul\":171:183   */\n  revert\n    /* \"#utility.yul\":115:185   */\ntag_18:\n    /* \"#utility.yul\":14:191   */\n  swap2\n  swap1\n  pop\n  jump\t// out\n    /* \"#utility.yul\":196:660   */\ntag_3:\n    /* \"#utility.yul\":293:299   */\n  0x00\n    /* \"#utility.yul\":301:307   */\n  0x00\n    /* \"#utility.yul\":309:315   */\n  0x00\n    /* \"#utility.yul\":317:323   */\n  0x00\n    /* \"#utility.yul\":370:373   */\n  0x80\n    /* \"#utility.yul\":358:367   */\n  dup6\n    /* \"#utility.yul\":349:356   */\n  dup8\n    /* \"#utility.yul\":345:368   */\n  sub\n    /* \"#utility.yul\":341:374   */\n  slt\n    /* \"#utility.yul\":338:391   */\n  iszero\n  tag_20\n  jumpi\n    /* \"#utility.yul\":387:388   */\n  0x00\n    /* \"#utility.yul\":384:385   */\n  0x00\n    /* \"#utility.yul\":377:389   */\n  revert\n    /* \"#utility.yul\":338:391   */\ntag_20:\n    /* \"#utility.yul\":410:450   */\n  tag_21\n    /* \"#utility.yul\":440:449   */\n  dup6\n    /* \"#utility.yul\":410:450   */\n  tag_15\n  jump\t// in\ntag_21:\n    /* \"#utility.yul\":400:450   */\n  swap4\n  pop\n    /* \"#utility.yul\":469:518   */\n  tag_22\n    /* \"#utility.yul\":514:516   */\n  0x20\n    /* \"#utility.yul\":503:512   */\n  dup7\n    /* \"#utility.yul\":499:517   */\n  add\n    /* \"#utility.yul\":469:518   */\n  tag_15\n  jump\t// in\ntag_22:\n    /* \"#utility.yul\":459:518   */\n  swap3\n  pop\n    /* \"#utility.yul\":537:586   */\n  tag_23\n    /* \"#utility.yul\":582:584   */\n  0x40\n    /* \"#utility.yul\":571:580   */\n  dup7\n    /* \"#utility.yul\":567:585   */\n  add\n    /* \"#utility.yul\":537:586   */\n  tag_15\n  jump\t// in\ntag_23:\n    /* \"#utility.yul\":527:586   */\n  swap2\n  pop\n    /* \"#utility.yul\":605:654   */\n  tag_24\n    /* \"#utility.yul\":650:652   */\n  0x60\n    /* \"#utility.yul\":639:648   */\n  dup7\n    /* \"#utility.yul\":635:653   */\n  add\n    /* \"#utility.yul\":605:654   */\n  tag_15\n  jump\t// in\ntag_24:\n    /* \"#utility.yul\":595:654   */\n  swap1\n  pop\n    /* \"#utility.yul\":196:660   */\n  swap3\n  swap6\n  swap2\n  swap5\n  pop\n  swap3\n  pop\n  jump\t// out\n    /* \"#utility.yul\":665:868   */\ntag_16:\n    /* \"contracts/test2/DividendDistributor.sol\":10245:20193  contract DividendDistributor is Ownable {... */\n  dataSize(sub_0)\n  dup1\n  dataOffset(sub_0)\n  0x00\n  codecopy\n  0x00\n  return\nstop\n\nsub_0: assembly {\n        /* \"contracts/test2/DividendDistributor.sol\":10245:20193  contract DividendDistributor is Ownable {... */\n      mstore(0x40, 0x80)\n      jumpi(tag_1, lt(calldatasize, 0x04))\n      shr(0xe0, calldataload(0x00))\n      dup1\n      0x8da5cb5b\n      gt\n      tag_25\n      jumpi\n      dup1\n      0xa83cb9ab\n      gt\n      tag_26\n      jumpi\n      dup1\n      0xa83cb9ab\n      eq\n      tag_19\n      jumpi\n      dup1\n      0xbb6c0ae1\n      eq\n      tag_20\n      jumpi\n      dup1\n      0xc7e95e37\n      eq\n      tag_21\n      jumpi\n      dup1\n      0xda912989\n      eq\n      tag_22\n      jumpi\n      dup1\n      0xdd6c4398\n      eq\n      tag_23\n      jumpi\n      dup1\n      0xf2fde38b\n      eq\n      tag_24\n      jumpi\n      revert(0x00, 0x00)\n    tag_26:\n      dup1\n      0x8da5cb5b\n      eq\n      tag_14\n      jumpi\n      dup1\n      0x8e9abef0\n      eq\n      tag_15\n      jumpi\n      dup1\n      0x8ea8f83c\n      eq\n      tag_16\n      jumpi\n      dup1\n      0x95ccea67\n      eq\n      tag_17\n      jumpi\n      dup1\n      0x9b19251a\n      eq\n      tag_18\n      jumpi\n      revert(0x00, 0x00)\n    tag_25:\n      dup1\n      0x4e71d92d\n      gt\n      tag_27\n      jumpi\n      dup1\n      0x4e71d92d\n      eq\n      tag_8\n      jumpi\n      dup1\n      0x53d6fd59\n      eq\n      tag_9\n      jumpi\n      dup1\n      0x545bf9ad\n      eq\n      tag_10\n      jumpi\n      dup1\n      0x641117f4\n      eq\n      tag_11\n      jumpi\n      dup1\n      0x715018a6\n      eq\n      tag_12\n      jumpi\n      dup1\n      0x83db58fe\n      eq\n      tag_13\n      jumpi\n      revert(0x00, 0x00)\n    tag_27:\n      dup1\n      0x09aa92e3\n      eq\n      tag_3\n      jumpi\n      dup1\n      0x2f48ab7d\n      eq\n      tag_4\n      jumpi\n      dup1\n      0x3540beff\n      eq\n      tag_5\n      jumpi\n      dup1\n      0x48e66c04\n      eq\n      tag_6\n      jumpi\n      dup1\n      0x48fe85e2\n      eq\n      tag_7\n      jumpi\n      revert(0x00, 0x00)\n    tag_1:\n      jumpi(tag_2, calldatasize)\n        /* \"contracts/test2/DividendDistributor.sol\":11597:11606  msg.value */\n      callvalue\n        /* \"contracts/test2/DividendDistributor.sol\":11580:11593  investBnbPool */\n      0x06\n      0x00\n        /* \"contracts/test2/DividendDistributor.sol\":11580:11606  investBnbPool += msg.value */\n      dup3\n      dup3\n      sload\n      tag_30\n      swap2\n      swap1\n      tag_31\n      jump\t// in\n    tag_30:\n      swap1\n      swap2\n      sstore\n      pop\n      pop\n        /* \"contracts/test2/DividendDistributor.sol\":11622:11661  RewardReceived(\"invest_bnb\", msg.value) */\n      0x40\n      dup1\n      mload\n        /* \"#utility.yul\":488:509   */\n      dup2\n      dup2\n      mstore\n        /* \"#utility.yul\":545:547   */\n      0x0a\n        /* \"#utility.yul\":525:543   */\n      dup2\n      dup4\n      add\n        /* \"#utility.yul\":518:548   */\n      mstore\n      shl(0xb1, 0x34b73b32b9ba2fb13731)\n        /* \"#utility.yul\":579:581   */\n      0x60\n        /* \"#utility.yul\":564:582   */\n      dup3\n      add\n        /* \"#utility.yul\":557:597   */\n      mstore\n        /* \"contracts/test2/DividendDistributor.sol\":11651:11660  msg.value */\n      callvalue\n        /* \"#utility.yul\":664:668   */\n      0x20\n        /* \"#utility.yul\":649:669   */\n      dup3\n      add\n        /* \"#utility.yul\":642:678   */\n      mstore\n        /* \"contracts/test2/DividendDistributor.sol\":11622:11661  RewardReceived(\"invest_bnb\", msg.value) */\n      swap1\n      mload\n      0x82d98a00c349d609e6ab098b00d153a6f84a70abfd6074c0dcc81c83e5e22ca8\n      swap2\n      dup2\n      swap1\n      sub\n        /* \"#utility.yul\":629:632   */\n      0x80\n        /* \"contracts/test2/DividendDistributor.sol\":11622:11661  RewardReceived(\"invest_bnb\", msg.value) */\n      add\n      swap1\n      log1\n        /* \"contracts/test2/DividendDistributor.sol\":10245:20193  contract DividendDistributor is Ownable {... */\n      stop\n    tag_2:\n      revert(0x00, 0x00)\n        /* \"contracts/test2/DividendDistributor.sol\":10731:10783  mapping(address => uint256) public activeMainTokenId */\n    tag_3:\n      callvalue\n      dup1\n      iszero\n      tag_34\n      jumpi\n      revert(0x00, 0x00)\n    tag_34:\n      pop\n      tag_35\n      tag_36\n      calldatasize\n      0x04\n      tag_37\n      jump\t// in\n    tag_36:\n      mstore(0x20, 0x09)\n      0x00\n      swap1\n      dup2\n      mstore\n      0x40\n      swap1\n      keccak256\n      sload\n      dup2\n      jump\n    tag_35:\n      mload(0x40)\n        /* \"#utility.yul\":1223:1248   */\n      swap1\n      dup2\n      mstore\n        /* \"#utility.yul\":1211:1213   */\n      0x20\n        /* \"#utility.yul\":1196:1214   */\n      add\n        /* \"contracts/test2/DividendDistributor.sol\":10731:10783  mapping(address => uint256) public activeMainTokenId */\n    tag_39:\n      mload(0x40)\n      dup1\n      swap2\n      sub\n      swap1\n      return\n        /* \"contracts/test2/DividendDistributor.sol\":10385:10404  address public usdt */\n    tag_4:\n      callvalue\n      dup1\n      iszero\n      tag_41\n      jumpi\n      revert(0x00, 0x00)\n    tag_41:\n      pop\n      sload(0x04)\n      tag_42\n      swap1\n      sub(shl(0xa0, 0x01), 0x01)\n      and\n      dup2\n      jump\n    tag_42:\n      mload(0x40)\n      sub(shl(0xa0, 0x01), 0x01)\n        /* \"#utility.yul\":1423:1455   */\n      swap1\n      swap2\n      and\n        /* \"#utility.yul\":1405:1456   */\n      dup2\n      mstore\n        /* \"#utility.yul\":1393:1395   */\n      0x20\n        /* \"#utility.yul\":1378:1396   */\n      add\n        /* \"contracts/test2/DividendDistributor.sol\":10385:10404  address public usdt */\n      tag_39\n        /* \"#utility.yul\":1259:1462   */\n      jump\n        /* \"contracts/test2/DividendDistributor.sol\":10502:10530  uint256 public investBnbPool */\n    tag_5:\n      callvalue\n      dup1\n      iszero\n      tag_46\n      jumpi\n      revert(0x00, 0x00)\n    tag_46:\n      pop\n      tag_35\n      sload(0x06)\n      dup2\n      jump\n        /* \"contracts/test2/DividendDistributor.sol\":10328:10350  address public mainNFT */\n    tag_6:\n      callvalue\n      dup1\n      iszero\n      tag_50\n      jumpi\n      revert(0x00, 0x00)\n    tag_50:\n      pop\n      sload(0x02)\n      tag_42\n      swap1\n      sub(shl(0xa0, 0x01), 0x01)\n      and\n      dup2\n      jump\n        /* \"contracts/test2/DividendDistributor.sol\":10567:10599  uint256 public antiDumpRomanPool */\n    tag_7:\n      callvalue\n      dup1\n      iszero\n      tag_54\n      jumpi\n      revert(0x00, 0x00)\n    tag_54:\n      pop\n      tag_35\n      sload(0x07)\n      dup2\n      jump\n        /* \"contracts/test2/DividendDistributor.sol\":16975:19930  function claim() external {... */\n    tag_8:\n      callvalue\n      dup1\n      iszero\n      tag_58\n      jumpi\n      revert(0x00, 0x00)\n    tag_58:\n      pop\n      tag_59\n      tag_60\n      jump\t// in\n    tag_59:\n      stop\n        /* \"contracts/test2/DividendDistributor.sol\":12719:12830  function setWhitelist(address user, bool status) external onlyOwner {... */\n    tag_9:\n      callvalue\n      dup1\n      iszero\n      tag_61\n      jumpi\n      revert(0x00, 0x00)\n    tag_61:\n      pop\n      tag_59\n      tag_63\n      calldatasize\n      0x04\n      tag_64\n      jump\t// in\n    tag_63:\n      tag_65\n      jump\t// in\n        /* \"contracts/test2/DividendDistributor.sol\":10434:10460  uint256 public feeUsdtPool */\n    tag_10:\n      callvalue\n      dup1\n      iszero\n      tag_66\n      jumpi\n      revert(0x00, 0x00)\n    tag_66:\n      pop\n      tag_35\n      sload(0x05)\n      dup2\n      jump\n        /* \"contracts/test2/DividendDistributor.sol\":12128:12711  function receiveRoman(uint256 amount, string memory rewardType) external {... */\n    tag_11:\n      callvalue\n      dup1\n      iszero\n      tag_70\n      jumpi\n      revert(0x00, 0x00)\n    tag_70:\n      pop\n      tag_59\n      tag_72\n      calldatasize\n      0x04\n      tag_73\n      jump\t// in\n    tag_72:\n      tag_74\n      jump\t// in\n        /* \"@openzeppelin/contracts/access/Ownable.sol\":2293:2394  function renounceOwnership() public virtual onlyOwner {... */\n    tag_12:\n      callvalue\n      dup1\n      iszero\n      tag_75\n      jumpi\n      revert(0x00, 0x00)\n    tag_75:\n      pop\n      tag_59\n      tag_77\n      jump\t// in\n        /* \"contracts/test2/DividendDistributor.sol\":11739:12052  function receiveUsdt(uint256 amount) external {... */\n    tag_13:\n      callvalue\n      dup1\n      iszero\n      tag_78\n      jumpi\n      revert(0x00, 0x00)\n    tag_78:\n      pop\n      tag_59\n      tag_80\n      calldatasize\n      0x04\n      tag_81\n      jump\t// in\n    tag_80:\n      tag_82\n      jump\t// in\n        /* \"@openzeppelin/contracts/access/Ownable.sol\":1638:1723  function owner() public view virtual returns (address) {... */\n    tag_14:\n      callvalue\n      dup1\n      iszero\n      tag_83\n      jumpi\n      revert(0x00, 0x00)\n    tag_83:\n      pop\n        /* \"@openzeppelin/contracts/access/Ownable.sol\":1684:1691  address */\n      0x00\n        /* \"@openzeppelin/contracts/access/Ownable.sol\":1710:1716  _owner */\n      sload\n      sub(shl(0xa0, 0x01), 0x01)\n      and\n        /* \"@openzeppelin/contracts/access/Ownable.sol\":1638:1723  function owner() public view virtual returns (address) {... */\n      jump(tag_42)\n        /* \"contracts/test2/DividendDistributor.sol\":10935:10964  uint256 public totalActiveSub */\n    tag_15:\n      callvalue\n      dup1\n      iszero\n      tag_87\n      jumpi\n      revert(0x00, 0x00)\n    tag_87:\n      pop\n      tag_35\n      sload(0x0d)\n      dup2\n      jump\n        /* \"contracts/test2/DividendDistributor.sol\":12838:14452  function activate(uint256 mainTokenId, uint256 subTokenId) external {... */\n    tag_16:\n      callvalue\n      dup1\n      iszero\n      tag_91\n      jumpi\n      revert(0x00, 0x00)\n    tag_91:\n      pop\n      tag_59\n      tag_93\n      calldatasize\n      0x04\n      tag_94\n      jump\t// in\n    tag_93:\n      tag_95\n      jump\t// in\n        /* \"contracts/test2/DividendDistributor.sol\":19938:20190  function emergencyWithdraw(address token, uint256 amount) external onlyOwner {... */\n    tag_17:\n      callvalue\n      dup1\n      iszero\n      tag_96\n      jumpi\n      revert(0x00, 0x00)\n    tag_96:\n      pop\n      tag_59\n      tag_98\n      calldatasize\n      0x04\n      tag_99\n      jump\t// in\n    tag_98:\n      tag_100\n      jump\t// in\n        /* \"contracts/test2/DividendDistributor.sol\":10848:10889  mapping(address => bool) public whitelist */\n    tag_18:\n      callvalue\n      dup1\n      iszero\n      tag_101\n      jumpi\n      revert(0x00, 0x00)\n    tag_101:\n      pop\n      tag_102\n      tag_103\n      calldatasize\n      0x04\n      tag_37\n      jump\t// in\n    tag_103:\n      mstore(0x20, 0x0b)\n      0x00\n      swap1\n      dup2\n      mstore\n      0x40\n      swap1\n      keccak256\n      sload\n      0xff\n      and\n      dup2\n      jump\n    tag_102:\n      mload(0x40)\n        /* \"#utility.yul\":4292:4306   */\n      swap1\n      iszero\n        /* \"#utility.yul\":4285:4307   */\n      iszero\n        /* \"#utility.yul\":4267:4308   */\n      dup2\n      mstore\n        /* \"#utility.yul\":4255:4257   */\n      0x20\n        /* \"#utility.yul\":4240:4258   */\n      add\n        /* \"contracts/test2/DividendDistributor.sol\":10848:10889  mapping(address => bool) public whitelist */\n      tag_39\n        /* \"#utility.yul\":4127:4314   */\n      jump\n        /* \"contracts/test2/DividendDistributor.sol\":10790:10841  mapping(address => uint256) public activeSubTokenId */\n    tag_19:\n      callvalue\n      dup1\n      iszero\n      tag_107\n      jumpi\n      revert(0x00, 0x00)\n    tag_107:\n      pop\n      tag_35\n      tag_109\n      calldatasize\n      0x04\n      tag_37\n      jump\t// in\n    tag_109:\n      mstore(0x20, 0x0a)\n      0x00\n      swap1\n      dup2\n      mstore\n      0x40\n      swap1\n      keccak256\n      sload\n      dup2\n      jump\n        /* \"contracts/test2/DividendDistributor.sol\":10292:10321  IROMANToken public romanToken */\n    tag_20:\n      callvalue\n      dup1\n      iszero\n      tag_112\n      jumpi\n      revert(0x00, 0x00)\n    tag_112:\n      pop\n      sload(0x01)\n      tag_42\n      swap1\n      sub(shl(0xa0, 0x01), 0x01)\n      and\n      dup2\n      jump\n        /* \"contracts/test2/DividendDistributor.sol\":10898:10928  uint256 public totalActiveMain */\n    tag_21:\n      callvalue\n      dup1\n      iszero\n      tag_117\n      jumpi\n      revert(0x00, 0x00)\n    tag_117:\n      pop\n      tag_35\n      sload(0x0c)\n      dup2\n      jump\n        /* \"contracts/test2/DividendDistributor.sol\":10636:10668  uint256 public hashGameRomanPool */\n    tag_22:\n      callvalue\n      dup1\n      iszero\n      tag_121\n      jumpi\n      revert(0x00, 0x00)\n    tag_121:\n      pop\n      tag_35\n      sload(0x08)\n      dup2\n      jump\n        /* \"contracts/test2/DividendDistributor.sol\":10357:10378  address public subNFT */\n    tag_23:\n      callvalue\n      dup1\n      iszero\n      tag_125\n      jumpi\n      revert(0x00, 0x00)\n    tag_125:\n      pop\n      sload(0x03)\n      tag_42\n      swap1\n      sub(shl(0xa0, 0x01), 0x01)\n      and\n      dup2\n      jump\n        /* \"@openzeppelin/contracts/access/Ownable.sol\":2543:2758  function transferOwnership(address newOwner) public virtual onlyOwner {... */\n    tag_24:\n      callvalue\n      dup1\n      iszero\n      tag_129\n      jumpi\n      revert(0x00, 0x00)\n    tag_129:\n      pop\n      tag_59\n      tag_131\n      calldatasize\n      0x04\n      tag_37\n      jump\t// in\n    tag_131:\n      tag_132\n      jump\t// in\n        /* \"contracts/test2/DividendDistributor.sol\":16975:19930  function claim() external {... */\n    tag_60:\n        /* \"contracts/test2/DividendDistributor.sol\":17137:17144  mainNFT */\n      sload(0x02)\n        /* \"contracts/test2/DividendDistributor.sol\":17023:17033  msg.sender */\n      caller\n      swap1\n        /* \"contracts/test2/DividendDistributor.sol\":17008:17020  address user */\n      0x00\n      swap1\n      sub(shl(0xa0, 0x01), 0x01)\n        /* \"contracts/test2/DividendDistributor.sol\":17137:17144  mainNFT */\n      and\n        /* \"contracts/test2/DividendDistributor.sol\":17137:17158  mainNFT != address(0) */\n      iszero\n      dup1\n      iszero\n      swap1\n        /* \"contracts/test2/DividendDistributor.sol\":17136:17201  (mainNFT != address(0)) && (IERC721(mainNFT).balanceOf(user) > 0) */\n      tag_134\n      jumpi\n      pop\n        /* \"contracts/test2/DividendDistributor.sol\":17172:17179  mainNFT */\n      sload(0x02)\n        /* \"contracts/test2/DividendDistributor.sol\":17164:17196  IERC721(mainNFT).balanceOf(user) */\n      mload(0x40)\n      shl(0xe0, 0x70a08231)\n      dup2\n      mstore\n      sub(shl(0xa0, 0x01), 0x01)\n        /* \"#utility.yul\":1423:1455   */\n      dup5\n      dup2\n      and\n        /* \"contracts/test2/DividendDistributor.sol\":17164:17196  IERC721(mainNFT).balanceOf(user) */\n      0x04\n      dup4\n      add\n        /* \"#utility.yul\":1405:1456   */\n      mstore\n        /* \"contracts/test2/DividendDistributor.sol\":17199:17200  0 */\n      0x00\n      swap3\n        /* \"contracts/test2/DividendDistributor.sol\":17172:17179  mainNFT */\n      and\n      swap1\n        /* \"contracts/test2/DividendDistributor.sol\":17164:17190  IERC721(mainNFT).balanceOf */\n      0x70a08231\n      swap1\n        /* \"#utility.yul\":1378:1396   */\n      0x24\n      add\n        /* \"contracts/test2/DividendDistributor.sol\":17164:17196  IERC721(mainNFT).balanceOf(user) */\n      0x20\n      mload(0x40)\n      dup1\n      dup4\n      sub\n      dup2\n      dup7\n      gas\n      staticcall\n      iszero\n      dup1\n      iszero\n      tag_137\n      jumpi\n      returndatacopy(0x00, 0x00, returndatasize)\n      revert(0x00, returndatasize)\n    tag_137:\n      pop\n      pop\n      pop\n      pop\n      mload(0x40)\n      returndatasize\n      not(0x1f)\n      0x1f\n      dup3\n      add\n      and\n      dup3\n      add\n      dup1\n      0x40\n      mstore\n      pop\n      dup2\n      add\n      swap1\n      tag_138\n      swap2\n      swap1\n      tag_139\n      jump\t// in\n    tag_138:\n        /* \"contracts/test2/DividendDistributor.sol\":17164:17200  IERC721(mainNFT).balanceOf(user) > 0 */\n      gt\n        /* \"contracts/test2/DividendDistributor.sol\":17136:17201  (mainNFT != address(0)) && (IERC721(mainNFT).balanceOf(user) > 0) */\n    tag_134:\n        /* \"contracts/test2/DividendDistributor.sol\":17227:17233  subNFT */\n      sload(0x03)\n        /* \"contracts/test2/DividendDistributor.sol\":17118:17201  bool hasMainNFT = (mainNFT != address(0)) && (IERC721(mainNFT).balanceOf(user) > 0) */\n      swap1\n      swap2\n      pop\n        /* \"contracts/test2/DividendDistributor.sol\":17208:17222  bool hasSubNFT */\n      0x00\n      swap1\n      sub(shl(0xa0, 0x01), 0x01)\n        /* \"contracts/test2/DividendDistributor.sol\":17227:17233  subNFT */\n      and\n        /* \"contracts/test2/DividendDistributor.sol\":17227:17248  subNFT  != address(0) */\n      iszero\n      dup1\n      iszero\n      swap1\n        /* \"contracts/test2/DividendDistributor.sol\":17226:17290  (subNFT  != address(0)) && (IERC721(subNFT).balanceOf(user) > 0) */\n      tag_140\n      jumpi\n      pop\n        /* \"contracts/test2/DividendDistributor.sol\":17262:17268  subNFT */\n      sload(0x03)\n        /* \"contracts/test2/DividendDistributor.sol\":17254:17285  IERC721(subNFT).balanceOf(user) */\n      mload(0x40)\n      shl(0xe0, 0x70a08231)\n      dup2\n      mstore\n      sub(shl(0xa0, 0x01), 0x01)\n        /* \"#utility.yul\":1423:1455   */\n      dup6\n      dup2\n      and\n        /* \"contracts/test2/DividendDistributor.sol\":17254:17285  IERC721(subNFT).balanceOf(user) */\n      0x04\n      dup4\n      add\n        /* \"#utility.yul\":1405:1456   */\n      mstore\n        /* \"contracts/test2/DividendDistributor.sol\":17288:17289  0 */\n      0x00\n      swap3\n        /* \"contracts/test2/DividendDistributor.sol\":17262:17268  subNFT */\n      and\n      swap1\n        /* \"contracts/test2/DividendDistributor.sol\":17254:17279  IERC721(subNFT).balanceOf */\n      0x70a08231\n      swap1\n        /* \"#utility.yul\":1378:1396   */\n      0x24\n      add\n        /* \"contracts/test2/DividendDistributor.sol\":17254:17285  IERC721(subNFT).balanceOf(user) */\n      0x20\n      mload(0x40)\n      dup1\n      dup4\n      sub\n      dup2\n      dup7\n      gas\n      staticcall\n      iszero\n      dup1\n      iszero\n      tag_143\n      jumpi\n      returndatacopy(0x00, 0x00, returndatasize)\n      revert(0x00, returndatasize)\n    tag_143:\n      pop\n      pop\n      pop\n      pop\n      mload(0x40)\n      returndatasize\n      not(0x1f)\n      0x1f\n      dup3\n      add\n      and\n      dup3\n      add\n      dup1\n      0x40\n      mstore\n      pop\n      dup2\n      add\n      swap1\n      tag_144\n      swap2\n      swap1\n      tag_139\n      jump\t// in\n    tag_144:\n        /* \"contracts/test2/DividendDistributor.sol\":17254:17289  IERC721(subNFT).balanceOf(user) > 0 */\n      gt\n        /* \"contracts/test2/DividendDistributor.sol\":17226:17290  (subNFT  != address(0)) && (IERC721(subNFT).balanceOf(user) > 0) */\n    tag_140:\n        /* \"contracts/test2/DividendDistributor.sol\":17208:17290  bool hasSubNFT  = (subNFT  != address(0)) && (IERC721(subNFT).balanceOf(user) > 0) */\n      swap1\n      pop\n        /* \"contracts/test2/DividendDistributor.sol\":17307:17317  hasMainNFT */\n      dup2\n        /* \"contracts/test2/DividendDistributor.sol\":17307:17330  hasMainNFT || hasSubNFT */\n      dup1\n      tag_145\n      jumpi\n      pop\n        /* \"contracts/test2/DividendDistributor.sol\":17321:17330  hasSubNFT */\n      dup1\n        /* \"contracts/test2/DividendDistributor.sol\":17307:17330  hasMainNFT || hasSubNFT */\n    tag_145:\n        /* \"contracts/test2/DividendDistributor.sol\":17299:17374  require(hasMainNFT || hasSubNFT, \"You must hold MainCardNFT or SubCardNFT\") */\n      tag_146\n      jumpi\n      mload(0x40)\n      shl(0xe5, 0x461bcd)\n      dup2\n      mstore\n        /* \"#utility.yul\":4983:4985   */\n      0x20\n        /* \"contracts/test2/DividendDistributor.sol\":17299:17374  require(hasMainNFT || hasSubNFT, \"You must hold MainCardNFT or SubCardNFT\") */\n      0x04\n      dup3\n      add\n        /* \"#utility.yul\":4965:4986   */\n      mstore\n        /* \"#utility.yul\":5022:5024   */\n      0x27\n        /* \"#utility.yul\":5002:5020   */\n      0x24\n      dup3\n      add\n        /* \"#utility.yul\":4995:5025   */\n      mstore\n        /* \"#utility.yul\":5061:5095   */\n      0x596f75206d75737420686f6c64204d61696e436172644e4654206f7220537562\n        /* \"#utility.yul\":5041:5059   */\n      0x44\n      dup3\n      add\n        /* \"#utility.yul\":5034:5096   */\n      mstore\n      shl(0xca, 0x10d85c99139195)\n        /* \"#utility.yul\":5112:5130   */\n      0x64\n      dup3\n      add\n        /* \"#utility.yul\":5105:5142   */\n      mstore\n        /* \"#utility.yul\":5159:5178   */\n      0x84\n      add\n        /* \"contracts/test2/DividendDistributor.sol\":17299:17374  require(hasMainNFT || hasSubNFT, \"You must hold MainCardNFT or SubCardNFT\") */\n    tag_147:\n      mload(0x40)\n      dup1\n      swap2\n      sub\n      swap1\n      revert\n    tag_146:\n        /* \"contracts/test2/DividendDistributor.sol\":17476:17489  bool paidMain */\n      0x00\n      dup1\n        /* \"contracts/test2/DividendDistributor.sol\":17538:17548  hasMainNFT */\n      dup4\n        /* \"contracts/test2/DividendDistributor.sol\":17538:17573  hasMainNFT && mainNFT != address(0) */\n      dup1\n      iszero\n      tag_149\n      jumpi\n      pop\n        /* \"contracts/test2/DividendDistributor.sol\":17552:17559  mainNFT */\n      and(sub(shl(0xa0, 0x01), 0x01), sload(0x02))\n        /* \"contracts/test2/DividendDistributor.sol\":17552:17573  mainNFT != address(0) */\n      iszero\n      iszero\n        /* \"contracts/test2/DividendDistributor.sol\":17538:17573  hasMainNFT && mainNFT != address(0) */\n    tag_149:\n        /* \"contracts/test2/DividendDistributor.sol\":17534:17655  if (hasMainNFT && mainNFT != address(0)) {... */\n      iszero\n      tag_150\n      jumpi\n        /* \"contracts/test2/DividendDistributor.sol\":17612:17619  mainNFT */\n      sload(0x02)\n        /* \"contracts/test2/DividendDistributor.sol\":17597:17647  INFTActivation(mainNFT).hasPaidActivationFee(user) */\n      mload(0x40)\n      shl(0xe1, 0x04599033)\n      dup2\n      mstore\n      sub(shl(0xa0, 0x01), 0x01)\n        /* \"#utility.yul\":1423:1455   */\n      dup8\n      dup2\n      and\n        /* \"contracts/test2/DividendDistributor.sol\":17597:17647  INFTActivation(mainNFT).hasPaidActivationFee(user) */\n      0x04\n      dup4\n      add\n        /* \"#utility.yul\":1405:1456   */\n      mstore\n        /* \"contracts/test2/DividendDistributor.sol\":17612:17619  mainNFT */\n      swap1\n      swap2\n      and\n      swap1\n        /* \"contracts/test2/DividendDistributor.sol\":17597:17641  INFTActivation(mainNFT).hasPaidActivationFee */\n      0x08b32066\n      swap1\n        /* \"#utility.yul\":1378:1396   */\n      0x24\n      add\n        /* \"contracts/test2/DividendDistributor.sol\":17597:17647  INFTActivation(mainNFT).hasPaidActivationFee(user) */\n      0x20\n      mload(0x40)\n      dup1\n      dup4\n      sub\n      dup2\n      dup7\n      gas\n      staticcall\n      iszero\n      dup1\n      iszero\n      tag_153\n      jumpi\n      returndatacopy(0x00, 0x00, returndatasize)\n      revert(0x00, returndatasize)\n    tag_153:\n      pop\n      pop\n      pop\n      pop\n      mload(0x40)\n      returndatasize\n      not(0x1f)\n      0x1f\n      dup3\n      add\n      and\n      dup3\n      add\n      dup1\n      0x40\n      mstore\n      pop\n      dup2\n      add\n      swap1\n      tag_154\n      swap2\n      swap1\n      tag_155\n      jump\t// in\n    tag_154:\n        /* \"contracts/test2/DividendDistributor.sol\":17586:17647  paidMain = INFTActivation(mainNFT).hasPaidActivationFee(user) */\n      swap2\n      pop\n        /* \"contracts/test2/DividendDistributor.sol\":17534:17655  if (hasMainNFT && mainNFT != address(0)) {... */\n    tag_150:\n        /* \"contracts/test2/DividendDistributor.sol\":17667:17676  hasSubNFT */\n      dup3\n        /* \"contracts/test2/DividendDistributor.sol\":17667:17700  hasSubNFT && subNFT != address(0) */\n      dup1\n      iszero\n      tag_156\n      jumpi\n      pop\n        /* \"contracts/test2/DividendDistributor.sol\":17680:17686  subNFT */\n      and(sub(shl(0xa0, 0x01), 0x01), sload(0x03))\n        /* \"contracts/test2/DividendDistributor.sol\":17680:17700  subNFT != address(0) */\n      iszero\n      iszero\n        /* \"contracts/test2/DividendDistributor.sol\":17667:17700  hasSubNFT && subNFT != address(0) */\n    tag_156:\n        /* \"contracts/test2/DividendDistributor.sol\":17663:17780  if (hasSubNFT && subNFT != address(0)) {... */\n      iszero\n      tag_157\n      jumpi\n        /* \"contracts/test2/DividendDistributor.sol\":17738:17744  subNFT */\n      sload(0x03)\n        /* \"contracts/test2/DividendDistributor.sol\":17723:17772  INFTActivation(subNFT).hasPaidActivationFee(user) */\n      mload(0x40)\n      shl(0xe1, 0x04599033)\n      dup2\n      mstore\n      sub(shl(0xa0, 0x01), 0x01)\n        /* \"#utility.yul\":1423:1455   */\n      dup8\n      dup2\n      and\n        /* \"contracts/test2/DividendDistributor.sol\":17723:17772  INFTActivation(subNFT).hasPaidActivationFee(user) */\n      0x04\n      dup4\n      add\n        /* \"#utility.yul\":1405:1456   */\n      mstore\n        /* \"contracts/test2/DividendDistributor.sol\":17738:17744  subNFT */\n      swap1\n      swap2\n      and\n      swap1\n        /* \"contracts/test2/DividendDistributor.sol\":17723:17766  INFTActivation(subNFT).hasPaidActivationFee */\n      0x08b32066\n      swap1\n        /* \"#utility.yul\":1378:1396   */\n      0x24\n      add\n        /* \"contracts/test2/DividendDistributor.sol\":17723:17772  INFTActivation(subNFT).hasPaidActivationFee(user) */\n      0x20\n      mload(0x40)\n      dup1\n      dup4\n      sub\n      dup2\n      dup7\n      gas\n      staticcall\n      iszero\n      dup1\n      iszero\n      tag_160\n      jumpi\n      returndatacopy(0x00, 0x00, returndatasize)\n      revert(0x00, returndatasize)\n    tag_160:\n      pop\n      pop\n      pop\n      pop\n      mload(0x40)\n      returndatasize\n      not(0x1f)\n      0x1f\n      dup3\n      add\n      and\n      dup3\n      add\n      dup1\n      0x40\n      mstore\n      pop\n      dup2\n      add\n      swap1\n      tag_161\n      swap2\n      swap1\n      tag_155\n      jump\t// in\n    tag_161:\n        /* \"contracts/test2/DividendDistributor.sol\":17713:17772  paidSub = INFTActivation(subNFT).hasPaidActivationFee(user) */\n      swap1\n      pop\n        /* \"contracts/test2/DividendDistributor.sol\":17663:17780  if (hasSubNFT && subNFT != address(0)) {... */\n    tag_157:\n        /* \"contracts/test2/DividendDistributor.sol\":17796:17804  paidMain */\n      dup2\n        /* \"contracts/test2/DividendDistributor.sol\":17796:17815  paidMain || paidSub */\n      dup1\n      tag_162\n      jumpi\n      pop\n        /* \"contracts/test2/DividendDistributor.sol\":17808:17815  paidSub */\n      dup1\n        /* \"contracts/test2/DividendDistributor.sol\":17796:17815  paidMain || paidSub */\n    tag_162:\n        /* \"contracts/test2/DividendDistributor.sol\":17788:17877  require(paidMain || paidSub, \"You must pay 0.2 BNB activation fee to NFT contract first\") */\n      tag_163\n      jumpi\n      mload(0x40)\n      shl(0xe5, 0x461bcd)\n      dup2\n      mstore\n        /* \"#utility.yul\":5641:5643   */\n      0x20\n        /* \"contracts/test2/DividendDistributor.sol\":17788:17877  require(paidMain || paidSub, \"You must pay 0.2 BNB activation fee to NFT contract first\") */\n      0x04\n      dup3\n      add\n        /* \"#utility.yul\":5623:5644   */\n      mstore\n        /* \"#utility.yul\":5680:5682   */\n      0x39\n        /* \"#utility.yul\":5660:5678   */\n      0x24\n      dup3\n      add\n        /* \"#utility.yul\":5653:5683   */\n      mstore\n        /* \"#utility.yul\":5719:5753   */\n      0x596f75206d7573742070617920302e3220424e422061637469766174696f6e20\n        /* \"#utility.yul\":5699:5717   */\n      0x44\n      dup3\n      add\n        /* \"#utility.yul\":5692:5754   */\n      mstore\n        /* \"#utility.yul\":5790:5817   */\n      0x66656520746f204e465420636f6e747261637420666972737400000000000000\n        /* \"#utility.yul\":5770:5788   */\n      0x64\n      dup3\n      add\n        /* \"#utility.yul\":5763:5818   */\n      mstore\n        /* \"#utility.yul\":5835:5854   */\n      0x84\n      add\n        /* \"contracts/test2/DividendDistributor.sol\":17788:17877  require(paidMain || paidSub, \"You must pay 0.2 BNB activation fee to NFT contract first\") */\n      tag_147\n        /* \"#utility.yul\":5439:5860   */\n      jump\n        /* \"contracts/test2/DividendDistributor.sol\":17788:17877  require(paidMain || paidSub, \"You must pay 0.2 BNB activation fee to NFT contract first\") */\n    tag_163:\n        /* \"contracts/test2/DividendDistributor.sol\":18108:18122  totalActiveSub */\n      sload(0x0d)\n        /* \"contracts/test2/DividendDistributor.sol\":18090:18105  totalActiveMain */\n      sload(0x0c)\n        /* \"contracts/test2/DividendDistributor.sol\":17982:17999  uint256 totalUsdt */\n      0x00\n      swap2\n      dup3\n      swap2\n      dup3\n      swap2\n      dup3\n      swap2\n        /* \"contracts/test2/DividendDistributor.sol\":18090:18122  totalActiveMain + totalActiveSub */\n      tag_166\n      swap2\n        /* \"contracts/test2/DividendDistributor.sol\":18108:18122  totalActiveSub */\n      swap1\n        /* \"contracts/test2/DividendDistributor.sol\":18090:18122  totalActiveMain + totalActiveSub */\n      tag_31\n      jump\t// in\n    tag_166:\n        /* \"contracts/test2/DividendDistributor.sol\":18068:18122  uint256 totalActive = totalActiveMain + totalActiveSub */\n      swap1\n      pop\n        /* \"contracts/test2/DividendDistributor.sol\":18133:18144  totalActive */\n      dup1\n        /* \"contracts/test2/DividendDistributor.sol\":18148:18149  0 */\n      0x00\n        /* \"contracts/test2/DividendDistributor.sol\":18133:18149  totalActive == 0 */\n      sub\n        /* \"contracts/test2/DividendDistributor.sol\":18129:18158  if (totalActive == 0) return; */\n      tag_167\n      jumpi\n        /* \"contracts/test2/DividendDistributor.sol\":18151:18158  return; */\n      pop\n      pop\n      pop\n      pop\n      pop\n      pop\n      pop\n      pop\n      pop\n        /* \"contracts/test2/DividendDistributor.sol\":16975:19930  function claim() external {... */\n      jump\t// out\n        /* \"contracts/test2/DividendDistributor.sol\":18129:18158  if (totalActive == 0) return; */\n    tag_167:\n        /* \"contracts/test2/DividendDistributor.sol\":18236:18237  0 */\n      0x00\n        /* \"contracts/test2/DividendDistributor.sol\":18222:18233  feeUsdtPool */\n      sload(0x05)\n        /* \"contracts/test2/DividendDistributor.sol\":18222:18237  feeUsdtPool > 0 */\n      gt\n        /* \"contracts/test2/DividendDistributor.sol\":18222:18277  feeUsdtPool > 0 && totalActiveMain + totalActiveSub > 0 */\n      dup1\n      iszero\n      tag_168\n      jumpi\n      pop\n        /* \"contracts/test2/DividendDistributor.sol\":18276:18277  0 */\n      0x00\n        /* \"contracts/test2/DividendDistributor.sol\":18259:18273  totalActiveSub */\n      sload(0x0d)\n        /* \"contracts/test2/DividendDistributor.sol\":18241:18256  totalActiveMain */\n      sload(0x0c)\n        /* \"contracts/test2/DividendDistributor.sol\":18241:18273  totalActiveMain + totalActiveSub */\n      tag_169\n      swap2\n      swap1\n      tag_31\n      jump\t// in\n    tag_169:\n        /* \"contracts/test2/DividendDistributor.sol\":18241:18277  totalActiveMain + totalActiveSub > 0 */\n      gt\n        /* \"contracts/test2/DividendDistributor.sol\":18222:18277  feeUsdtPool > 0 && totalActiveMain + totalActiveSub > 0 */\n    tag_168:\n        /* \"contracts/test2/DividendDistributor.sol\":18218:18542  if (feeUsdtPool > 0 && totalActiveMain + totalActiveSub > 0) {... */\n      iszero\n      tag_180\n      jumpi\n        /* \"contracts/test2/DividendDistributor.sol\":18294:18302  paidMain */\n      dup6\n        /* \"contracts/test2/DividendDistributor.sol\":18294:18325  paidMain && totalActiveMain > 0 */\n      dup1\n      iszero\n      tag_171\n      jumpi\n      pop\n        /* \"contracts/test2/DividendDistributor.sol\":18324:18325  0 */\n      0x00\n        /* \"contracts/test2/DividendDistributor.sol\":18306:18321  totalActiveMain */\n      sload(0x0c)\n        /* \"contracts/test2/DividendDistributor.sol\":18306:18325  totalActiveMain > 0 */\n      gt\n        /* \"contracts/test2/DividendDistributor.sol\":18294:18325  paidMain && totalActiveMain > 0 */\n    tag_171:\n        /* \"contracts/test2/DividendDistributor.sol\":18290:18409  if (paidMain && totalActiveMain > 0) {... */\n      iszero\n      tag_172\n      jumpi\n        /* \"contracts/test2/DividendDistributor.sol\":18382:18397  totalActiveMain */\n      sload(0x0c)\n        /* \"contracts/test2/DividendDistributor.sol\":18376:18379  100 */\n      0x64\n        /* \"contracts/test2/DividendDistributor.sol\":18356:18367  feeUsdtPool */\n      sload(0x05)\n        /* \"contracts/test2/DividendDistributor.sol\":18370:18372  70 */\n      0x46\n        /* \"contracts/test2/DividendDistributor.sol\":18356:18372  feeUsdtPool * 70 */\n      tag_173\n      swap2\n      swap1\n      tag_174\n      jump\t// in\n    tag_173:\n        /* \"contracts/test2/DividendDistributor.sol\":18355:18379  (feeUsdtPool * 70) / 100 */\n      tag_175\n      swap2\n      swap1\n      tag_176\n      jump\t// in\n    tag_175:\n        /* \"contracts/test2/DividendDistributor.sol\":18355:18397  (feeUsdtPool * 70) / 100 / totalActiveMain */\n      tag_177\n      swap2\n      swap1\n      tag_176\n      jump\t// in\n    tag_177:\n        /* \"contracts/test2/DividendDistributor.sol\":18342:18397  totalUsdt += (feeUsdtPool * 70) / 100 / totalActiveMain */\n      tag_178\n      swap1\n      dup6\n      tag_31\n      jump\t// in\n    tag_178:\n      swap4\n      pop\n        /* \"contracts/test2/DividendDistributor.sol\":18290:18409  if (paidMain && totalActiveMain > 0) {... */\n    tag_172:\n        /* \"contracts/test2/DividendDistributor.sol\":18423:18430  paidSub */\n      dup5\n        /* \"contracts/test2/DividendDistributor.sol\":18423:18452  paidSub && totalActiveSub > 0 */\n      dup1\n      iszero\n      tag_179\n      jumpi\n      pop\n        /* \"contracts/test2/DividendDistributor.sol\":18451:18452  0 */\n      0x00\n        /* \"contracts/test2/DividendDistributor.sol\":18434:18448  totalActiveSub */\n      sload(0x0d)\n        /* \"contracts/test2/DividendDistributor.sol\":18434:18452  totalActiveSub > 0 */\n      gt\n        /* \"contracts/test2/DividendDistributor.sol\":18423:18452  paidSub && totalActiveSub > 0 */\n    tag_179:\n        /* \"contracts/test2/DividendDistributor.sol\":18419:18535  if (paidSub && totalActiveSub > 0) {... */\n      iszero\n      tag_180\n      jumpi\n        /* \"contracts/test2/DividendDistributor.sol\":18509:18523  totalActiveSub */\n      sload(0x0d)\n        /* \"contracts/test2/DividendDistributor.sol\":18503:18506  100 */\n      0x64\n        /* \"contracts/test2/DividendDistributor.sol\":18483:18494  feeUsdtPool */\n      sload(0x05)\n        /* \"contracts/test2/DividendDistributor.sol\":18497:18499  30 */\n      0x1e\n        /* \"contracts/test2/DividendDistributor.sol\":18483:18499  feeUsdtPool * 30 */\n      tag_181\n      swap2\n      swap1\n      tag_174\n      jump\t// in\n    tag_181:\n        /* \"contracts/test2/DividendDistributor.sol\":18482:18506  (feeUsdtPool * 30) / 100 */\n      tag_182\n      swap2\n      swap1\n      tag_176\n      jump\t// in\n    tag_182:\n        /* \"contracts/test2/DividendDistributor.sol\":18482:18523  (feeUsdtPool * 30) / 100 / totalActiveSub */\n      tag_183\n      swap2\n      swap1\n      tag_176\n      jump\t// in\n    tag_183:\n        /* \"contracts/test2/DividendDistributor.sol\":18469:18523  totalUsdt += (feeUsdtPool * 30) / 100 / totalActiveSub */\n      tag_184\n      swap1\n      dup6\n      tag_31\n      jump\t// in\n    tag_184:\n      swap4\n      pop\n        /* \"contracts/test2/DividendDistributor.sol\":18419:18535  if (paidSub && totalActiveSub > 0) {... */\n    tag_180:\n        /* \"contracts/test2/DividendDistributor.sol\":18591:18613  uint256 totalRomanPool */\n      0x00\n        /* \"contracts/test2/DividendDistributor.sol\":18636:18653  hashGameRomanPool */\n      sload(0x08)\n        /* \"contracts/test2/DividendDistributor.sol\":18616:18633  antiDumpRomanPool */\n      sload(0x07)\n        /* \"contracts/test2/DividendDistributor.sol\":18616:18653  antiDumpRomanPool + hashGameRomanPool */\n      tag_185\n      swap2\n      swap1\n      tag_31\n      jump\t// in\n    tag_185:\n        /* \"contracts/test2/DividendDistributor.sol\":18591:18653  uint256 totalRomanPool = antiDumpRomanPool + hashGameRomanPool */\n      swap1\n      pop\n        /* \"contracts/test2/DividendDistributor.sol\":18681:18682  0 */\n      0x00\n        /* \"contracts/test2/DividendDistributor.sol\":18664:18678  totalRomanPool */\n      dup2\n        /* \"contracts/test2/DividendDistributor.sol\":18664:18682  totalRomanPool > 0 */\n      gt\n        /* \"contracts/test2/DividendDistributor.sol\":18664:18722  totalRomanPool > 0 && totalActiveMain + totalActiveSub > 0 */\n      dup1\n      iszero\n      tag_186\n      jumpi\n      pop\n        /* \"contracts/test2/DividendDistributor.sol\":18721:18722  0 */\n      0x00\n        /* \"contracts/test2/DividendDistributor.sol\":18704:18718  totalActiveSub */\n      sload(0x0d)\n        /* \"contracts/test2/DividendDistributor.sol\":18686:18701  totalActiveMain */\n      sload(0x0c)\n        /* \"contracts/test2/DividendDistributor.sol\":18686:18718  totalActiveMain + totalActiveSub */\n      tag_187\n      swap2\n      swap1\n      tag_31\n      jump\t// in\n    tag_187:\n        /* \"contracts/test2/DividendDistributor.sol\":18686:18722  totalActiveMain + totalActiveSub > 0 */\n      gt\n        /* \"contracts/test2/DividendDistributor.sol\":18664:18722  totalRomanPool > 0 && totalActiveMain + totalActiveSub > 0 */\n    tag_186:\n        /* \"contracts/test2/DividendDistributor.sol\":18660:18995  if (totalRomanPool > 0 && totalActiveMain + totalActiveSub > 0) {... */\n      iszero\n      tag_196\n      jumpi\n        /* \"contracts/test2/DividendDistributor.sol\":18739:18747  paidMain */\n      dup7\n        /* \"contracts/test2/DividendDistributor.sol\":18739:18770  paidMain && totalActiveMain > 0 */\n      dup1\n      iszero\n      tag_189\n      jumpi\n      pop\n        /* \"contracts/test2/DividendDistributor.sol\":18769:18770  0 */\n      0x00\n        /* \"contracts/test2/DividendDistributor.sol\":18751:18766  totalActiveMain */\n      sload(0x0c)\n        /* \"contracts/test2/DividendDistributor.sol\":18751:18770  totalActiveMain > 0 */\n      gt\n        /* \"contracts/test2/DividendDistributor.sol\":18739:18770  paidMain && totalActiveMain > 0 */\n    tag_189:\n        /* \"contracts/test2/DividendDistributor.sol\":18735:18858  if (paidMain && totalActiveMain > 0) {... */\n      iszero\n      tag_190\n      jumpi\n        /* \"contracts/test2/DividendDistributor.sol\":18831:18846  totalActiveMain */\n      sload(0x0c)\n        /* \"contracts/test2/DividendDistributor.sol\":18825:18828  100 */\n      0x64\n        /* \"contracts/test2/DividendDistributor.sol\":18802:18821  totalRomanPool * 70 */\n      tag_191\n        /* \"contracts/test2/DividendDistributor.sol\":18802:18816  totalRomanPool */\n      dup4\n        /* \"contracts/test2/DividendDistributor.sol\":18819:18821  70 */\n      0x46\n        /* \"contracts/test2/DividendDistributor.sol\":18802:18821  totalRomanPool * 70 */\n      tag_174\n      jump\t// in\n    tag_191:\n        /* \"contracts/test2/DividendDistributor.sol\":18801:18828  (totalRomanPool * 70) / 100 */\n      tag_192\n      swap2\n      swap1\n      tag_176\n      jump\t// in\n    tag_192:\n        /* \"contracts/test2/DividendDistributor.sol\":18801:18846  (totalRomanPool * 70) / 100 / totalActiveMain */\n      tag_193\n      swap2\n      swap1\n      tag_176\n      jump\t// in\n    tag_193:\n        /* \"contracts/test2/DividendDistributor.sol\":18787:18846  totalRoman += (totalRomanPool * 70) / 100 / totalActiveMain */\n      tag_194\n      swap1\n      dup6\n      tag_31\n      jump\t// in\n    tag_194:\n      swap4\n      pop\n        /* \"contracts/test2/DividendDistributor.sol\":18735:18858  if (paidMain && totalActiveMain > 0) {... */\n    tag_190:\n        /* \"contracts/test2/DividendDistributor.sol\":18872:18879  paidSub */\n      dup6\n        /* \"contracts/test2/DividendDistributor.sol\":18872:18901  paidSub && totalActiveSub > 0 */\n      dup1\n      iszero\n      tag_195\n      jumpi\n      pop\n        /* \"contracts/test2/DividendDistributor.sol\":18900:18901  0 */\n      0x00\n        /* \"contracts/test2/DividendDistributor.sol\":18883:18897  totalActiveSub */\n      sload(0x0d)\n        /* \"contracts/test2/DividendDistributor.sol\":18883:18901  totalActiveSub > 0 */\n      gt\n        /* \"contracts/test2/DividendDistributor.sol\":18872:18901  paidSub && totalActiveSub > 0 */\n    tag_195:\n        /* \"contracts/test2/DividendDistributor.sol\":18868:18988  if (paidSub && totalActiveSub > 0) {... */\n      iszero\n      tag_196\n      jumpi\n        /* \"contracts/test2/DividendDistributor.sol\":18962:18976  totalActiveSub */\n      sload(0x0d)\n        /* \"contracts/test2/DividendDistributor.sol\":18956:18959  100 */\n      0x64\n        /* \"contracts/test2/DividendDistributor.sol\":18933:18952  totalRomanPool * 30 */\n      tag_197\n        /* \"contracts/test2/DividendDistributor.sol\":18933:18947  totalRomanPool */\n      dup4\n        /* \"contracts/test2/DividendDistributor.sol\":18950:18952  30 */\n      0x1e\n        /* \"contracts/test2/DividendDistributor.sol\":18933:18952  totalRomanPool * 30 */\n      tag_174\n      jump\t// in\n    tag_197:\n        /* \"contracts/test2/DividendDistributor.sol\":18932:18959  (totalRomanPool * 30) / 100 */\n      tag_198\n      swap2\n      swap1\n      tag_176\n      jump\t// in\n    tag_198:\n        /* \"contracts/test2/DividendDistributor.sol\":18932:18976  (totalRomanPool * 30) / 100 / totalActiveSub */\n      tag_199\n      swap2\n      swap1\n      tag_176\n      jump\t// in\n    tag_199:\n        /* \"contracts/test2/DividendDistributor.sol\":18918:18976  totalRoman += (totalRomanPool * 30) / 100 / totalActiveSub */\n      tag_200\n      swap1\n      dup6\n      tag_31\n      jump\t// in\n    tag_200:\n      swap4\n      pop\n        /* \"contracts/test2/DividendDistributor.sol\":18868:18988  if (paidSub && totalActiveSub > 0) {... */\n    tag_196:\n        /* \"contracts/test2/DividendDistributor.sol\":19054:19055  0 */\n      0x00\n        /* \"contracts/test2/DividendDistributor.sol\":19038:19051  investBnbPool */\n      sload(0x06)\n        /* \"contracts/test2/DividendDistributor.sol\":19038:19055  investBnbPool > 0 */\n      gt\n        /* \"contracts/test2/DividendDistributor.sol\":19038:19095  investBnbPool > 0 && totalActiveMain + totalActiveSub > 0 */\n      dup1\n      iszero\n      tag_201\n      jumpi\n      pop\n        /* \"contracts/test2/DividendDistributor.sol\":19094:19095  0 */\n      0x00\n        /* \"contracts/test2/DividendDistributor.sol\":19077:19091  totalActiveSub */\n      sload(0x0d)\n        /* \"contracts/test2/DividendDistributor.sol\":19059:19074  totalActiveMain */\n      sload(0x0c)\n        /* \"contracts/test2/DividendDistributor.sol\":19059:19091  totalActiveMain + totalActiveSub */\n      tag_202\n      swap2\n      swap1\n      tag_31\n      jump\t// in\n    tag_202:\n        /* \"contracts/test2/DividendDistributor.sol\":19059:19095  totalActiveMain + totalActiveSub > 0 */\n      gt\n        /* \"contracts/test2/DividendDistributor.sol\":19038:19095  investBnbPool > 0 && totalActiveMain + totalActiveSub > 0 */\n    tag_201:\n        /* \"contracts/test2/DividendDistributor.sol\":19034:19362  if (investBnbPool > 0 && totalActiveMain + totalActiveSub > 0) {... */\n      iszero\n      tag_211\n      jumpi\n        /* \"contracts/test2/DividendDistributor.sol\":19112:19120  paidMain */\n      dup7\n        /* \"contracts/test2/DividendDistributor.sol\":19112:19143  paidMain && totalActiveMain > 0 */\n      dup1\n      iszero\n      tag_204\n      jumpi\n      pop\n        /* \"contracts/test2/DividendDistributor.sol\":19142:19143  0 */\n      0x00\n        /* \"contracts/test2/DividendDistributor.sol\":19124:19139  totalActiveMain */\n      sload(0x0c)\n        /* \"contracts/test2/DividendDistributor.sol\":19124:19143  totalActiveMain > 0 */\n      gt\n        /* \"contracts/test2/DividendDistributor.sol\":19112:19143  paidMain && totalActiveMain > 0 */\n    tag_204:\n        /* \"contracts/test2/DividendDistributor.sol\":19108:19228  if (paidMain && totalActiveMain > 0) {... */\n      iszero\n      tag_205\n      jumpi\n        /* \"contracts/test2/DividendDistributor.sol\":19201:19216  totalActiveMain */\n      sload(0x0c)\n        /* \"contracts/test2/DividendDistributor.sol\":19195:19198  100 */\n      0x64\n        /* \"contracts/test2/DividendDistributor.sol\":19173:19186  investBnbPool */\n      sload(0x06)\n        /* \"contracts/test2/DividendDistributor.sol\":19189:19191  70 */\n      0x46\n        /* \"contracts/test2/DividendDistributor.sol\":19173:19191  investBnbPool * 70 */\n      tag_206\n      swap2\n      swap1\n      tag_174\n      jump\t// in\n    tag_206:\n        /* \"contracts/test2/DividendDistributor.sol\":19172:19198  (investBnbPool * 70) / 100 */\n      tag_207\n      swap2\n      swap1\n      tag_176\n      jump\t// in\n    tag_207:\n        /* \"contracts/test2/DividendDistributor.sol\":19172:19216  (investBnbPool * 70) / 100 / totalActiveMain */\n      tag_208\n      swap2\n      swap1\n      tag_176\n      jump\t// in\n    tag_208:\n        /* \"contracts/test2/DividendDistributor.sol\":19160:19216  totalBnb += (investBnbPool * 70) / 100 / totalActiveMain */\n      tag_209\n      swap1\n      dup5\n      tag_31\n      jump\t// in\n    tag_209:\n      swap3\n      pop\n        /* \"contracts/test2/DividendDistributor.sol\":19108:19228  if (paidMain && totalActiveMain > 0) {... */\n    tag_205:\n        /* \"contracts/test2/DividendDistributor.sol\":19242:19249  paidSub */\n      dup6\n        /* \"contracts/test2/DividendDistributor.sol\":19242:19271  paidSub && totalActiveSub > 0 */\n      dup1\n      iszero\n      tag_210\n      jumpi\n      pop\n        /* \"contracts/test2/DividendDistributor.sol\":19270:19271  0 */\n      0x00\n        /* \"contracts/test2/DividendDistributor.sol\":19253:19267  totalActiveSub */\n      sload(0x0d)\n        /* \"contracts/test2/DividendDistributor.sol\":19253:19271  totalActiveSub > 0 */\n      gt\n        /* \"contracts/test2/DividendDistributor.sol\":19242:19271  paidSub && totalActiveSub > 0 */\n    tag_210:\n        /* \"contracts/test2/DividendDistributor.sol\":19238:19355  if (paidSub && totalActiveSub > 0) {... */\n      iszero\n      tag_211\n      jumpi\n        /* \"contracts/test2/DividendDistributor.sol\":19329:19343  totalActiveSub */\n      sload(0x0d)\n        /* \"contracts/test2/DividendDistributor.sol\":19323:19326  100 */\n      0x64\n        /* \"contracts/test2/DividendDistributor.sol\":19301:19314  investBnbPool */\n      sload(0x06)\n        /* \"contracts/test2/DividendDistributor.sol\":19317:19319  30 */\n      0x1e\n        /* \"contracts/test2/DividendDistributor.sol\":19301:19319  investBnbPool * 30 */\n      tag_212\n      swap2\n      swap1\n      tag_174\n      jump\t// in\n    tag_212:\n        /* \"contracts/test2/DividendDistributor.sol\":19300:19326  (investBnbPool * 30) / 100 */\n      tag_213\n      swap2\n      swap1\n      tag_176\n      jump\t// in\n    tag_213:\n        /* \"contracts/test2/DividendDistributor.sol\":19300:19343  (investBnbPool * 30) / 100 / totalActiveSub */\n      tag_214\n      swap2\n      swap1\n      tag_176\n      jump\t// in\n    tag_214:\n        /* \"contracts/test2/DividendDistributor.sol\":19288:19343  totalBnb += (investBnbPool * 30) / 100 / totalActiveSub */\n      tag_215\n      swap1\n      dup5\n      tag_31\n      jump\t// in\n    tag_215:\n      swap3\n      pop\n        /* \"contracts/test2/DividendDistributor.sol\":19238:19355  if (paidSub && totalActiveSub > 0) {... */\n    tag_211:\n        /* \"contracts/test2/DividendDistributor.sol\":19434:19447  totalUsdt > 0 */\n      dup5\n      iszero\n        /* \"contracts/test2/DividendDistributor.sol\":19430:19506  if (totalUsdt > 0) {... */\n      tag_216\n      jumpi\n        /* \"contracts/test2/DividendDistributor.sol\":19467:19471  usdt */\n      0x04\n      dup1\n      sload\n        /* \"contracts/test2/DividendDistributor.sol\":19460:19498  IERC20(usdt).transfer(user, totalUsdt) */\n      mload(0x40)\n      shl(0xe0, 0xa9059cbb)\n      dup2\n      mstore\n      sub(shl(0xa0, 0x01), 0x01)\n        /* \"#utility.yul\":6452:6484   */\n      dup14\n      dup2\n      and\n        /* \"contracts/test2/DividendDistributor.sol\":19460:19498  IERC20(usdt).transfer(user, totalUsdt) */\n      swap4\n      dup3\n      add\n        /* \"#utility.yul\":6434:6485   */\n      swap4\n      swap1\n      swap4\n      mstore\n        /* \"#utility.yul\":6501:6519   */\n      0x24\n      dup2\n      add\n        /* \"#utility.yul\":6494:6528   */\n      dup9\n      swap1\n      mstore\n        /* \"contracts/test2/DividendDistributor.sol\":19467:19471  usdt */\n      swap2\n      and\n      swap1\n        /* \"contracts/test2/DividendDistributor.sol\":19460:19481  IERC20(usdt).transfer */\n      0xa9059cbb\n      swap1\n        /* \"#utility.yul\":6407:6425   */\n      0x44\n      add\n        /* \"contracts/test2/DividendDistributor.sol\":19460:19498  IERC20(usdt).transfer(user, totalUsdt) */\n      0x20\n      mload(0x40)\n      dup1\n      dup4\n      sub\n      dup2\n      0x00\n      dup8\n      gas\n      call\n      iszero\n      dup1\n      iszero\n      tag_220\n      jumpi\n      returndatacopy(0x00, 0x00, returndatasize)\n      revert(0x00, returndatasize)\n    tag_220:\n      pop\n      pop\n      pop\n      pop\n      mload(0x40)\n      returndatasize\n      not(0x1f)\n      0x1f\n      dup3\n      add\n      and\n      dup3\n      add\n      dup1\n      0x40\n      mstore\n      pop\n      dup2\n      add\n      swap1\n      tag_221\n      swap2\n      swap1\n      tag_155\n      jump\t// in\n    tag_221:\n      pop\n        /* \"contracts/test2/DividendDistributor.sol\":19430:19506  if (totalUsdt > 0) {... */\n    tag_216:\n        /* \"contracts/test2/DividendDistributor.sol\":19516:19530  totalRoman > 0 */\n      dup4\n      iszero\n        /* \"contracts/test2/DividendDistributor.sol\":19512:19605  if (totalRoman > 0) {... */\n      tag_222\n      jumpi\n        /* \"contracts/test2/DividendDistributor.sol\":19558:19568  romanToken */\n      sload(0x01)\n        /* \"contracts/test2/DividendDistributor.sol\":19543:19597  IERC20(address(romanToken)).transfer(user, totalRoman) */\n      mload(0x40)\n      shl(0xe0, 0xa9059cbb)\n      dup2\n      mstore\n      sub(shl(0xa0, 0x01), 0x01)\n        /* \"#utility.yul\":6452:6484   */\n      dup13\n      dup2\n      and\n        /* \"contracts/test2/DividendDistributor.sol\":19543:19597  IERC20(address(romanToken)).transfer(user, totalRoman) */\n      0x04\n      dup4\n      add\n        /* \"#utility.yul\":6434:6485   */\n      mstore\n        /* \"#utility.yul\":6501:6519   */\n      0x24\n      dup3\n      add\n        /* \"#utility.yul\":6494:6528   */\n      dup8\n      swap1\n      mstore\n        /* \"contracts/test2/DividendDistributor.sol\":19558:19568  romanToken */\n      swap1\n      swap2\n      and\n      swap1\n        /* \"contracts/test2/DividendDistributor.sol\":19543:19579  IERC20(address(romanToken)).transfer */\n      0xa9059cbb\n      swap1\n        /* \"#utility.yul\":6407:6425   */\n      0x44\n      add\n        /* \"contracts/test2/DividendDistributor.sol\":19543:19597  IERC20(address(romanToken)).transfer(user, totalRoman) */\n      0x20\n      mload(0x40)\n      dup1\n      dup4\n      sub\n      dup2\n      0x00\n      dup8\n      gas\n      call\n      iszero\n      dup1\n      iszero\n      tag_225\n      jumpi\n      returndatacopy(0x00, 0x00, returndatasize)\n      revert(0x00, returndatasize)\n    tag_225:\n      pop\n      pop\n      pop\n      pop\n      mload(0x40)\n      returndatasize\n      not(0x1f)\n      0x1f\n      dup3\n      add\n      and\n      dup3\n      add\n      dup1\n      0x40\n      mstore\n      pop\n      dup2\n      add\n      swap1\n      tag_226\n      swap2\n      swap1\n      tag_155\n      jump\t// in\n    tag_226:\n      pop\n        /* \"contracts/test2/DividendDistributor.sol\":19512:19605  if (totalRoman > 0) {... */\n    tag_222:\n        /* \"contracts/test2/DividendDistributor.sol\":19615:19627  totalBnb > 0 */\n      dup3\n      iszero\n        /* \"contracts/test2/DividendDistributor.sol\":19611:19680  if (totalBnb > 0) {... */\n      tag_227\n      jumpi\n        /* \"contracts/test2/DividendDistributor.sol\":19640:19672  payable(user).transfer(totalBnb) */\n      mload(0x40)\n      sub(shl(0xa0, 0x01), 0x01)\n        /* \"contracts/test2/DividendDistributor.sol\":19640:19662  payable(user).transfer */\n      dup12\n      and\n      swap1\n        /* \"contracts/test2/DividendDistributor.sol\":19640:19672  payable(user).transfer(totalBnb) */\n      dup5\n      iszero\n      0x08fc\n      mul\n      swap1\n        /* \"contracts/test2/DividendDistributor.sol\":19663:19671  totalBnb */\n      dup6\n      swap1\n        /* \"contracts/test2/DividendDistributor.sol\":19640:19672  payable(user).transfer(totalBnb) */\n      0x00\n      dup2\n      dup2\n      dup2\n        /* \"contracts/test2/DividendDistributor.sol\":19663:19671  totalBnb */\n      dup6\n        /* \"contracts/test2/DividendDistributor.sol\":19640:19662  payable(user).transfer */\n      dup9\n        /* \"contracts/test2/DividendDistributor.sol\":19640:19672  payable(user).transfer(totalBnb) */\n      dup9\n      call\n      swap4\n      pop\n      pop\n      pop\n      pop\n      iszero\n      dup1\n      iszero\n      tag_229\n      jumpi\n      returndatacopy(0x00, 0x00, returndatasize)\n      revert(0x00, returndatasize)\n    tag_229:\n      pop\n        /* \"contracts/test2/DividendDistributor.sol\":19611:19680  if (totalBnb > 0) {... */\n    tag_227:\n        /* \"contracts/test2/DividendDistributor.sol\":19769:19778  totalUsdt */\n      dup5\n        /* \"contracts/test2/DividendDistributor.sol\":19754:19765  feeUsdtPool */\n      0x05\n      0x00\n        /* \"contracts/test2/DividendDistributor.sol\":19754:19778  feeUsdtPool -= totalUsdt */\n      dup3\n      dup3\n      sload\n      tag_230\n      swap2\n      swap1\n      tag_231\n      jump\t// in\n    tag_230:\n      swap1\n      swap2\n      sstore\n      pop\n      pop\n        /* \"contracts/test2/DividendDistributor.sol\":19805:19806  0 */\n      0x00\n        /* \"contracts/test2/DividendDistributor.sol\":19785:19802  antiDumpRomanPool */\n      0x07\n        /* \"contracts/test2/DividendDistributor.sol\":19785:19806  antiDumpRomanPool = 0 */\n      dup2\n      swap1\n      sstore\n        /* \"contracts/test2/DividendDistributor.sol\":19813:19830  hashGameRomanPool */\n      0x08\n        /* \"contracts/test2/DividendDistributor.sol\":19813:19834  hashGameRomanPool = 0 */\n      dup2\n      swap1\n      sstore\n        /* \"contracts/test2/DividendDistributor.sol\":19841:19854  investBnbPool */\n      0x06\n        /* \"contracts/test2/DividendDistributor.sol\":19841:19866  investBnbPool -= totalBnb */\n      dup1\n      sload\n        /* \"contracts/test2/DividendDistributor.sol\":19858:19866  totalBnb */\n      dup6\n      swap3\n        /* \"contracts/test2/DividendDistributor.sol\":19805:19806  0 */\n      swap1\n        /* \"contracts/test2/DividendDistributor.sol\":19841:19866  investBnbPool -= totalBnb */\n      tag_232\n      swap1\n        /* \"contracts/test2/DividendDistributor.sol\":19858:19866  totalBnb */\n      dup5\n      swap1\n        /* \"contracts/test2/DividendDistributor.sol\":19841:19866  investBnbPool -= totalBnb */\n      tag_231\n      jump\t// in\n    tag_232:\n      swap1\n      swap2\n      sstore\n      pop\n      pop\n        /* \"contracts/test2/DividendDistributor.sol\":19880:19926  Claimed(user, totalUsdt, totalRoman, totalBnb) */\n      0x40\n      dup1\n      mload\n        /* \"#utility.yul\":6874:6899   */\n      dup7\n      dup2\n      mstore\n        /* \"#utility.yul\":6930:6932   */\n      0x20\n        /* \"#utility.yul\":6915:6933   */\n      dup2\n      add\n        /* \"#utility.yul\":6908:6942   */\n      dup7\n      swap1\n      mstore\n        /* \"#utility.yul\":6958:6976   */\n      swap1\n      dup2\n      add\n        /* \"#utility.yul\":6951:6985   */\n      dup5\n      swap1\n      mstore\n      sub(shl(0xa0, 0x01), 0x01)\n        /* \"contracts/test2/DividendDistributor.sol\":19880:19926  Claimed(user, totalUsdt, totalRoman, totalBnb) */\n      dup12\n      and\n      swap1\n      0x9cdcf2f7714cca3508c7f0110b04a90a80a3a8dd0e35de99689db74d28c5383e\n      swap1\n        /* \"#utility.yul\":6862:6864   */\n      0x60\n        /* \"#utility.yul\":6847:6865   */\n      add\n        /* \"contracts/test2/DividendDistributor.sol\":19880:19926  Claimed(user, totalUsdt, totalRoman, totalBnb) */\n      mload(0x40)\n      dup1\n      swap2\n      sub\n      swap1\n      log2\n        /* \"contracts/test2/DividendDistributor.sol\":17001:19930  {... */\n      pop\n      pop\n      pop\n      pop\n      pop\n      pop\n      pop\n      pop\n      pop\n      pop\n        /* \"contracts/test2/DividendDistributor.sol\":16975:19930  function claim() external {... */\n      jump\t// out\n        /* \"contracts/test2/DividendDistributor.sol\":12719:12830  function setWhitelist(address user, bool status) external onlyOwner {... */\n    tag_65:\n        /* \"@openzeppelin/contracts/access/Ownable.sol\":1531:1544  _checkOwner() */\n      tag_236\n        /* \"@openzeppelin/contracts/access/Ownable.sol\":1531:1542  _checkOwner */\n      tag_237\n        /* \"@openzeppelin/contracts/access/Ownable.sol\":1531:1544  _checkOwner() */\n      jump\t// in\n    tag_236:\n      sub(shl(0xa0, 0x01), 0x01)\n        /* \"contracts/test2/DividendDistributor.sol\":12798:12813  whitelist[user] */\n      swap2\n      swap1\n      swap2\n      and\n      0x00\n      swap1\n      dup2\n      mstore\n        /* \"contracts/test2/DividendDistributor.sol\":12798:12807  whitelist */\n      0x0b\n        /* \"contracts/test2/DividendDistributor.sol\":12798:12813  whitelist[user] */\n      0x20\n      mstore\n      0x40\n      swap1\n      keccak256\n        /* \"contracts/test2/DividendDistributor.sol\":12798:12822  whitelist[user] = status */\n      dup1\n      sload\n      not(0xff)\n      and\n      swap2\n      iszero\n      iszero\n      swap2\n      swap1\n      swap2\n      or\n      swap1\n      sstore\n        /* \"contracts/test2/DividendDistributor.sol\":12719:12830  function setWhitelist(address user, bool status) external onlyOwner {... */\n      jump\t// out\n        /* \"contracts/test2/DividendDistributor.sol\":12128:12711  function receiveRoman(uint256 amount, string memory rewardType) external {... */\n    tag_74:\n        /* \"contracts/test2/DividendDistributor.sol\":12242:12252  romanToken */\n      and(sub(shl(0xa0, 0x01), 0x01), sload(0x01))\n        /* \"contracts/test2/DividendDistributor.sol\":12220:12230  msg.sender */\n      caller\n        /* \"contracts/test2/DividendDistributor.sol\":12220:12253  msg.sender == address(romanToken) */\n      eq\n      dup1\n        /* \"contracts/test2/DividendDistributor.sol\":12220:12278  msg.sender == address(romanToken) || msg.sender == owner() */\n      tag_240\n      jumpi\n      pop\n        /* \"@openzeppelin/contracts/access/Ownable.sol\":1684:1691  address */\n      0x00\n        /* \"@openzeppelin/contracts/access/Ownable.sol\":1710:1716  _owner */\n      sload\n      sub(shl(0xa0, 0x01), 0x01)\n      and\n        /* \"contracts/test2/DividendDistributor.sol\":12257:12267  msg.sender */\n      caller\n        /* \"contracts/test2/DividendDistributor.sol\":12257:12278  msg.sender == owner() */\n      eq\n        /* \"contracts/test2/DividendDistributor.sol\":12220:12278  msg.sender == address(romanToken) || msg.sender == owner() */\n    tag_240:\n        /* \"contracts/test2/DividendDistributor.sol\":12212:12307  require(msg.sender == address(romanToken) || msg.sender == owner(), \"Only ROMANToken or owner\") */\n      tag_242\n      jumpi\n      mload(0x40)\n      shl(0xe5, 0x461bcd)\n      dup2\n      mstore\n        /* \"#utility.yul\":7198:7200   */\n      0x20\n        /* \"contracts/test2/DividendDistributor.sol\":12212:12307  require(msg.sender == address(romanToken) || msg.sender == owner(), \"Only ROMANToken or owner\") */\n      0x04\n      dup3\n      add\n        /* \"#utility.yul\":7180:7201   */\n      mstore\n        /* \"#utility.yul\":7237:7239   */\n      0x18\n        /* \"#utility.yul\":7217:7235   */\n      0x24\n      dup3\n      add\n        /* \"#utility.yul\":7210:7240   */\n      mstore\n      shl(0x41, 0x27b7363c902927a6a0a72a37b5b2b71037b91037bbb732b9)\n        /* \"#utility.yul\":7256:7274   */\n      0x44\n      dup3\n      add\n        /* \"#utility.yul\":7249:7303   */\n      mstore\n        /* \"#utility.yul\":7320:7338   */\n      0x64\n      add\n        /* \"contracts/test2/DividendDistributor.sol\":12212:12307  require(msg.sender == address(romanToken) || msg.sender == owner(), \"Only ROMANToken or owner\") */\n      tag_147\n        /* \"#utility.yul\":6996:7344   */\n      jump\n        /* \"contracts/test2/DividendDistributor.sol\":12212:12307  require(msg.sender == address(romanToken) || msg.sender == owner(), \"Only ROMANToken or owner\") */\n    tag_242:\n        /* \"contracts/test2/DividendDistributor.sol\":12333:12343  romanToken */\n      sload(0x01)\n        /* \"contracts/test2/DividendDistributor.sol\":12318:12393  IERC20(address(romanToken)).transferFrom(msg.sender, address(this), amount) */\n      mload(0x40)\n      shl(0xe0, 0x23b872dd)\n      dup2\n      mstore\n        /* \"contracts/test2/DividendDistributor.sol\":12359:12369  msg.sender */\n      caller\n        /* \"contracts/test2/DividendDistributor.sol\":12318:12393  IERC20(address(romanToken)).transferFrom(msg.sender, address(this), amount) */\n      0x04\n      dup3\n      add\n        /* \"#utility.yul\":7551:7602   */\n      mstore\n        /* \"contracts/test2/DividendDistributor.sol\":12379:12383  this */\n      address\n        /* \"#utility.yul\":7618:7636   */\n      0x24\n      dup3\n      add\n        /* \"#utility.yul\":7611:7671   */\n      mstore\n        /* \"#utility.yul\":7687:7705   */\n      0x44\n      dup2\n      add\n        /* \"#utility.yul\":7680:7714   */\n      dup5\n      swap1\n      mstore\n      sub(shl(0xa0, 0x01), 0x01)\n        /* \"contracts/test2/DividendDistributor.sol\":12333:12343  romanToken */\n      swap1\n      swap2\n      and\n      swap1\n        /* \"contracts/test2/DividendDistributor.sol\":12318:12358  IERC20(address(romanToken)).transferFrom */\n      0x23b872dd\n      swap1\n        /* \"#utility.yul\":7524:7542   */\n      0x64\n      add\n        /* \"contracts/test2/DividendDistributor.sol\":12318:12393  IERC20(address(romanToken)).transferFrom(msg.sender, address(this), amount) */\n      0x20\n      mload(0x40)\n      dup1\n      dup4\n      sub\n      dup2\n      0x00\n      dup8\n      gas\n      call\n      iszero\n      dup1\n      iszero\n      tag_248\n      jumpi\n      returndatacopy(0x00, 0x00, returndatasize)\n      revert(0x00, returndatasize)\n    tag_248:\n      pop\n      pop\n      pop\n      pop\n      mload(0x40)\n      returndatasize\n      not(0x1f)\n      0x1f\n      dup3\n      add\n      and\n      dup3\n      add\n      dup1\n      0x40\n      mstore\n      pop\n      dup2\n      add\n      swap1\n      tag_249\n      swap2\n      swap1\n      tag_155\n      jump\t// in\n    tag_249:\n      pop\n        /* \"contracts/test2/DividendDistributor.sol\":12452:12470  bytes(\"anti_dump\") */\n      0x40\n      dup1\n      mload\n      dup1\n      dup3\n      add\n      swap1\n      swap2\n      mstore\n      0x09\n      dup2\n      mstore\n      shl(0xbc, 0x0616e74695f64756d7)\n      0x20\n      swap2\n      dup3\n      add\n      mstore\n        /* \"contracts/test2/DividendDistributor.sol\":12410:12438  keccak256(bytes(rewardType)) */\n      dup2\n      mload\n      swap1\n      dup3\n      add\n      keccak256\n        /* \"contracts/test2/DividendDistributor.sol\":12410:12471  keccak256(bytes(rewardType)) == keccak256(bytes(\"anti_dump\")) */\n      0xa3f057a9a7d57709b5114f83b343454e80cc0f1a75bf54e2a6643d70b90e72d2\n      add\n        /* \"contracts/test2/DividendDistributor.sol\":12406:12654  if (keccak256(bytes(rewardType)) == keccak256(bytes(\"anti_dump\"))) {... */\n      tag_250\n      jumpi\n        /* \"contracts/test2/DividendDistributor.sol\":12509:12515  amount */\n      dup2\n        /* \"contracts/test2/DividendDistributor.sol\":12488:12505  antiDumpRomanPool */\n      0x07\n      0x00\n        /* \"contracts/test2/DividendDistributor.sol\":12488:12515  antiDumpRomanPool += amount */\n      dup3\n      dup3\n      sload\n      tag_251\n      swap2\n      swap1\n      tag_31\n      jump\t// in\n    tag_251:\n      swap1\n      swap2\n      sstore\n      pop\n        /* \"contracts/test2/DividendDistributor.sol\":12406:12654  if (keccak256(bytes(rewardType)) == keccak256(bytes(\"anti_dump\"))) {... */\n      tag_253\n      swap1\n      pop\n      jump\n    tag_250:\n        /* \"contracts/test2/DividendDistributor.sol\":12579:12597  bytes(\"hash_game\") */\n      0x40\n      dup1\n      mload\n      dup1\n      dup3\n      add\n      swap1\n      swap2\n      mstore\n      0x09\n      dup2\n      mstore\n      shl(0xb8, 0x686173685f67616d65)\n      0x20\n      swap2\n      dup3\n      add\n      mstore\n        /* \"contracts/test2/DividendDistributor.sol\":12537:12565  keccak256(bytes(rewardType)) */\n      dup2\n      mload\n      swap1\n      dup3\n      add\n      keccak256\n        /* \"contracts/test2/DividendDistributor.sol\":12537:12598  keccak256(bytes(rewardType)) == keccak256(bytes(\"hash_game\")) */\n      0xd1f02842571171eeaede1665bd9f96206160ba4123ea0c0035d2e3b1c40beafd\n      add\n        /* \"contracts/test2/DividendDistributor.sol\":12533:12654  if (keccak256(bytes(rewardType)) == keccak256(bytes(\"hash_game\"))) {... */\n      tag_253\n      jumpi\n        /* \"contracts/test2/DividendDistributor.sol\":12636:12642  amount */\n      dup2\n        /* \"contracts/test2/DividendDistributor.sol\":12615:12632  hashGameRomanPool */\n      0x08\n      0x00\n        /* \"contracts/test2/DividendDistributor.sol\":12615:12642  hashGameRomanPool += amount */\n      dup3\n      dup3\n      sload\n      tag_254\n      swap2\n      swap1\n      tag_31\n      jump\t// in\n    tag_254:\n      swap1\n      swap2\n      sstore\n      pop\n      pop\n        /* \"contracts/test2/DividendDistributor.sol\":12533:12654  if (keccak256(bytes(rewardType)) == keccak256(bytes(\"hash_game\"))) {... */\n    tag_253:\n        /* \"contracts/test2/DividendDistributor.sol\":12669:12703  RewardReceived(rewardType, amount) */\n      0x82d98a00c349d609e6ab098b00d153a6f84a70abfd6074c0dcc81c83e5e22ca8\n        /* \"contracts/test2/DividendDistributor.sol\":12684:12694  rewardType */\n      dup2\n        /* \"contracts/test2/DividendDistributor.sol\":12696:12702  amount */\n      dup4\n        /* \"contracts/test2/DividendDistributor.sol\":12669:12703  RewardReceived(rewardType, amount) */\n      mload(0x40)\n      tag_255\n      swap3\n      swap2\n      swap1\n      tag_256\n      jump\t// in\n    tag_255:\n      mload(0x40)\n      dup1\n      swap2\n      sub\n      swap1\n      log1\n        /* \"contracts/test2/DividendDistributor.sol\":12128:12711  function receiveRoman(uint256 amount, string memory rewardType) external {... */\n      pop\n      pop\n      jump\t// out\n        /* \"@openzeppelin/contracts/access/Ownable.sol\":2293:2394  function renounceOwnership() public virtual onlyOwner {... */\n    tag_77:\n        /* \"@openzeppelin/contracts/access/Ownable.sol\":1531:1544  _checkOwner() */\n      tag_258\n        /* \"@openzeppelin/contracts/access/Ownable.sol\":1531:1542  _checkOwner */\n      tag_237\n        /* \"@openzeppelin/contracts/access/Ownable.sol\":1531:1544  _checkOwner() */\n      jump\t// in\n    tag_258:\n        /* \"@openzeppelin/contracts/access/Ownable.sol\":2357:2387  _transferOwnership(address(0)) */\n      tag_260\n        /* \"@openzeppelin/contracts/access/Ownable.sol\":2384:2385  0 */\n      0x00\n        /* \"@openzeppelin/contracts/access/Ownable.sol\":2357:2375  _transferOwnership */\n      tag_261\n        /* \"@openzeppelin/contracts/access/Ownable.sol\":2357:2387  _transferOwnership(address(0)) */\n      jump\t// in\n    tag_260:\n        /* \"@openzeppelin/contracts/access/Ownable.sol\":2293:2394  function renounceOwnership() public virtual onlyOwner {... */\n      jump\t// out\n        /* \"contracts/test2/DividendDistributor.sol\":11739:12052  function receiveUsdt(uint256 amount) external {... */\n    tag_82:\n        /* \"contracts/test2/DividendDistributor.sol\":11826:11836  romanToken */\n      and(sub(shl(0xa0, 0x01), 0x01), sload(0x01))\n        /* \"contracts/test2/DividendDistributor.sol\":11804:11814  msg.sender */\n      caller\n        /* \"contracts/test2/DividendDistributor.sol\":11804:11837  msg.sender == address(romanToken) */\n      eq\n      dup1\n        /* \"contracts/test2/DividendDistributor.sol\":11804:11862  msg.sender == address(romanToken) || msg.sender == owner() */\n      tag_263\n      jumpi\n      pop\n        /* \"@openzeppelin/contracts/access/Ownable.sol\":1684:1691  address */\n      0x00\n        /* \"@openzeppelin/contracts/access/Ownable.sol\":1710:1716  _owner */\n      sload\n      sub(shl(0xa0, 0x01), 0x01)\n      and\n        /* \"contracts/test2/DividendDistributor.sol\":11841:11851  msg.sender */\n      caller\n        /* \"contracts/test2/DividendDistributor.sol\":11841:11862  msg.sender == owner() */\n      eq\n        /* \"contracts/test2/DividendDistributor.sol\":11804:11862  msg.sender == address(romanToken) || msg.sender == owner() */\n    tag_263:\n        /* \"contracts/test2/DividendDistributor.sol\":11796:11891  require(msg.sender == address(romanToken) || msg.sender == owner(), \"Only ROMANToken or owner\") */\n      tag_265\n      jumpi\n      mload(0x40)\n      shl(0xe5, 0x461bcd)\n      dup2\n      mstore\n        /* \"#utility.yul\":7198:7200   */\n      0x20\n        /* \"contracts/test2/DividendDistributor.sol\":11796:11891  require(msg.sender == address(romanToken) || msg.sender == owner(), \"Only ROMANToken or owner\") */\n      0x04\n      dup3\n      add\n        /* \"#utility.yul\":7180:7201   */\n      mstore\n        /* \"#utility.yul\":7237:7239   */\n      0x18\n        /* \"#utility.yul\":7217:7235   */\n      0x24\n      dup3\n      add\n        /* \"#utility.yul\":7210:7240   */\n      mstore\n      shl(0x41, 0x27b7363c902927a6a0a72a37b5b2b71037b91037bbb732b9)\n        /* \"#utility.yul\":7256:7274   */\n      0x44\n      dup3\n      add\n        /* \"#utility.yul\":7249:7303   */\n      mstore\n        /* \"#utility.yul\":7320:7338   */\n      0x64\n      add\n        /* \"contracts/test2/DividendDistributor.sol\":11796:11891  require(msg.sender == address(romanToken) || msg.sender == owner(), \"Only ROMANToken or owner\") */\n      tag_147\n        /* \"#utility.yul\":6996:7344   */\n      jump\n        /* \"contracts/test2/DividendDistributor.sol\":11796:11891  require(msg.sender == address(romanToken) || msg.sender == owner(), \"Only ROMANToken or owner\") */\n    tag_265:\n        /* \"contracts/test2/DividendDistributor.sol\":11909:11913  usdt */\n      0x04\n      dup1\n      sload\n        /* \"contracts/test2/DividendDistributor.sol\":11902:11962  IERC20(usdt).transferFrom(msg.sender, address(this), amount) */\n      mload(0x40)\n      shl(0xe0, 0x23b872dd)\n      dup2\n      mstore\n        /* \"contracts/test2/DividendDistributor.sol\":11928:11938  msg.sender */\n      caller\n        /* \"contracts/test2/DividendDistributor.sol\":11902:11962  IERC20(usdt).transferFrom(msg.sender, address(this), amount) */\n      swap3\n      dup2\n      add\n        /* \"#utility.yul\":7551:7602   */\n      swap3\n      swap1\n      swap3\n      mstore\n        /* \"contracts/test2/DividendDistributor.sol\":11948:11952  this */\n      address\n        /* \"#utility.yul\":7618:7636   */\n      0x24\n      dup4\n      add\n        /* \"#utility.yul\":7611:7671   */\n      mstore\n        /* \"#utility.yul\":7687:7705   */\n      0x44\n      dup3\n      add\n        /* \"#utility.yul\":7680:7714   */\n      dup4\n      swap1\n      mstore\n      sub(shl(0xa0, 0x01), 0x01)\n        /* \"contracts/test2/DividendDistributor.sol\":11909:11913  usdt */\n      and\n      swap1\n        /* \"contracts/test2/DividendDistributor.sol\":11902:11927  IERC20(usdt).transferFrom */\n      0x23b872dd\n      swap1\n        /* \"#utility.yul\":7524:7542   */\n      0x64\n      add\n        /* \"contracts/test2/DividendDistributor.sol\":11902:11962  IERC20(usdt).transferFrom(msg.sender, address(this), amount) */\n      0x20\n      mload(0x40)\n      dup1\n      dup4\n      sub\n      dup2\n      0x00\n      dup8\n      gas\n      call\n      iszero\n      dup1\n      iszero\n      tag_269\n      jumpi\n      returndatacopy(0x00, 0x00, returndatasize)\n      revert(0x00, returndatasize)\n    tag_269:\n      pop\n      pop\n      pop\n      pop\n      mload(0x40)\n      returndatasize\n      not(0x1f)\n      0x1f\n      dup3\n      add\n      and\n      dup3\n      add\n      dup1\n      0x40\n      mstore\n      pop\n      dup2\n      add\n      swap1\n      tag_270\n      swap2\n      swap1\n      tag_155\n      jump\t// in\n    tag_270:\n      pop\n        /* \"contracts/test2/DividendDistributor.sol\":11988:11994  amount */\n      dup1\n        /* \"contracts/test2/DividendDistributor.sol\":11973:11984  feeUsdtPool */\n      0x05\n      0x00\n        /* \"contracts/test2/DividendDistributor.sol\":11973:11994  feeUsdtPool += amount */\n      dup3\n      dup3\n      sload\n      tag_271\n      swap2\n      swap1\n      tag_31\n      jump\t// in\n    tag_271:\n      swap1\n      swap2\n      sstore\n      pop\n      pop\n        /* \"contracts/test2/DividendDistributor.sol\":12010:12044  RewardReceived(\"fee_usdt\", amount) */\n      0x40\n      dup1\n      mload\n        /* \"#utility.yul\":8435:8456   */\n      dup2\n      dup2\n      mstore\n        /* \"#utility.yul\":8492:8493   */\n      0x08\n        /* \"#utility.yul\":8472:8490   */\n      dup2\n      dup4\n      add\n        /* \"#utility.yul\":8465:8494   */\n      mstore\n      shl(0xc2, 0x19995957dd5cd91d)\n        /* \"#utility.yul\":8525:8527   */\n      0x60\n        /* \"#utility.yul\":8510:8528   */\n      dup3\n      add\n        /* \"#utility.yul\":8503:8541   */\n      mstore\n        /* \"#utility.yul\":8608:8612   */\n      0x20\n        /* \"#utility.yul\":8593:8613   */\n      dup2\n      add\n        /* \"#utility.yul\":8586:8622   */\n      dup4\n      swap1\n      mstore\n        /* \"contracts/test2/DividendDistributor.sol\":12010:12044  RewardReceived(\"fee_usdt\", amount) */\n      swap1\n      mload\n      0x82d98a00c349d609e6ab098b00d153a6f84a70abfd6074c0dcc81c83e5e22ca8\n      swap2\n      dup2\n      swap1\n      sub\n        /* \"#utility.yul\":8573:8576   */\n      0x80\n        /* \"contracts/test2/DividendDistributor.sol\":12010:12044  RewardReceived(\"fee_usdt\", amount) */\n      add\n      swap1\n      log1\n        /* \"contracts/test2/DividendDistributor.sol\":11739:12052  function receiveUsdt(uint256 amount) external {... */\n      pop\n      jump\t// out\n        /* \"contracts/test2/DividendDistributor.sol\":12838:14452  function activate(uint256 mainTokenId, uint256 subTokenId) external {... */\n    tag_95:\n        /* \"contracts/test2/DividendDistributor.sol\":12932:12942  msg.sender */\n      caller\n        /* \"contracts/test2/DividendDistributor.sol\":12995:13011  mainTokenId != 0 */\n      dup3\n      iszero\n        /* \"contracts/test2/DividendDistributor.sol\":12991:13119  if (mainTokenId != 0) {... */\n      tag_282\n      jumpi\n        /* \"contracts/test2/DividendDistributor.sol\":13044:13051  mainNFT */\n      sload(0x02)\n        /* \"contracts/test2/DividendDistributor.sol\":13036:13073  IERC721(mainNFT).ownerOf(mainTokenId) */\n      mload(0x40)\n      shl(0xe1, 0x31a9108f)\n      dup2\n      mstore\n      0x04\n      dup2\n      add\n        /* \"#utility.yul\":1223:1248   */\n      dup6\n      swap1\n      mstore\n      sub(shl(0xa0, 0x01), 0x01)\n        /* \"contracts/test2/DividendDistributor.sol\":13036:13081  IERC721(mainNFT).ownerOf(mainTokenId) == user */\n      dup4\n      dup2\n      and\n      swap3\n        /* \"contracts/test2/DividendDistributor.sol\":13044:13051  mainNFT */\n      and\n      swap1\n        /* \"contracts/test2/DividendDistributor.sol\":13036:13060  IERC721(mainNFT).ownerOf */\n      0x6352211e\n      swap1\n        /* \"#utility.yul\":1196:1214   */\n      0x24\n      add\n        /* \"contracts/test2/DividendDistributor.sol\":13036:13073  IERC721(mainNFT).ownerOf(mainTokenId) */\n      0x20\n      mload(0x40)\n      dup1\n      dup4\n      sub\n      dup2\n      dup7\n      gas\n      staticcall\n      iszero\n      dup1\n      iszero\n      tag_279\n      jumpi\n      returndatacopy(0x00, 0x00, returndatasize)\n      revert(0x00, returndatasize)\n    tag_279:\n      pop\n      pop\n      pop\n      pop\n      mload(0x40)\n      returndatasize\n      not(0x1f)\n      0x1f\n      dup3\n      add\n      and\n      dup3\n      add\n      dup1\n      0x40\n      mstore\n      pop\n      dup2\n      add\n      swap1\n      tag_280\n      swap2\n      swap1\n      tag_281\n      jump\t// in\n    tag_280:\n      sub(shl(0xa0, 0x01), 0x01)\n        /* \"contracts/test2/DividendDistributor.sol\":13036:13081  IERC721(mainNFT).ownerOf(mainTokenId) == user */\n      and\n      eq\n        /* \"contracts/test2/DividendDistributor.sol\":13028:13107  require(IERC721(mainNFT).ownerOf(mainTokenId) == user, \"Not owner of main NFT\") */\n      tag_282\n      jumpi\n      mload(0x40)\n      shl(0xe5, 0x461bcd)\n      dup2\n      mstore\n        /* \"#utility.yul\":9091:9093   */\n      0x20\n        /* \"contracts/test2/DividendDistributor.sol\":13028:13107  require(IERC721(mainNFT).ownerOf(mainTokenId) == user, \"Not owner of main NFT\") */\n      0x04\n      dup3\n      add\n        /* \"#utility.yul\":9073:9094   */\n      mstore\n        /* \"#utility.yul\":9130:9132   */\n      0x15\n        /* \"#utility.yul\":9110:9128   */\n      0x24\n      dup3\n      add\n        /* \"#utility.yul\":9103:9133   */\n      mstore\n      shl(0x5a, 0x139bdd081bdddb995c881bd9881b585a5b88139195)\n        /* \"#utility.yul\":9149:9167   */\n      0x44\n      dup3\n      add\n        /* \"#utility.yul\":9142:9193   */\n      mstore\n        /* \"#utility.yul\":9210:9228   */\n      0x64\n      add\n        /* \"contracts/test2/DividendDistributor.sol\":13028:13107  require(IERC721(mainNFT).ownerOf(mainTokenId) == user, \"Not owner of main NFT\") */\n      tag_147\n        /* \"#utility.yul\":8889:9234   */\n      jump\n        /* \"contracts/test2/DividendDistributor.sol\":13028:13107  require(IERC721(mainNFT).ownerOf(mainTokenId) == user, \"Not owner of main NFT\") */\n    tag_282:\n        /* \"contracts/test2/DividendDistributor.sol\":13133:13148  subTokenId != 0 */\n      dup2\n      iszero\n        /* \"contracts/test2/DividendDistributor.sol\":13129:13253  if (subTokenId != 0) {... */\n      tag_290\n      jumpi\n        /* \"contracts/test2/DividendDistributor.sol\":13181:13187  subNFT */\n      sload(0x03)\n        /* \"contracts/test2/DividendDistributor.sol\":13173:13208  IERC721(subNFT).ownerOf(subTokenId) */\n      mload(0x40)\n      shl(0xe1, 0x31a9108f)\n      dup2\n      mstore\n      0x04\n      dup2\n      add\n        /* \"#utility.yul\":1223:1248   */\n      dup5\n      swap1\n      mstore\n      sub(shl(0xa0, 0x01), 0x01)\n        /* \"contracts/test2/DividendDistributor.sol\":13173:13216  IERC721(subNFT).ownerOf(subTokenId) == user */\n      dup4\n      dup2\n      and\n      swap3\n        /* \"contracts/test2/DividendDistributor.sol\":13181:13187  subNFT */\n      and\n      swap1\n        /* \"contracts/test2/DividendDistributor.sol\":13173:13196  IERC721(subNFT).ownerOf */\n      0x6352211e\n      swap1\n        /* \"#utility.yul\":1196:1214   */\n      0x24\n      add\n        /* \"contracts/test2/DividendDistributor.sol\":13173:13208  IERC721(subNFT).ownerOf(subTokenId) */\n      0x20\n      mload(0x40)\n      dup1\n      dup4\n      sub\n      dup2\n      dup7\n      gas\n      staticcall\n      iszero\n      dup1\n      iszero\n      tag_288\n      jumpi\n      returndatacopy(0x00, 0x00, returndatasize)\n      revert(0x00, returndatasize)\n    tag_288:\n      pop\n      pop\n      pop\n      pop\n      mload(0x40)\n      returndatasize\n      not(0x1f)\n      0x1f\n      dup3\n      add\n      and\n      dup3\n      add\n      dup1\n      0x40\n      mstore\n      pop\n      dup2\n      add\n      swap1\n      tag_289\n      swap2\n      swap1\n      tag_281\n      jump\t// in\n    tag_289:\n      sub(shl(0xa0, 0x01), 0x01)\n        /* \"contracts/test2/DividendDistributor.sol\":13173:13216  IERC721(subNFT).ownerOf(subTokenId) == user */\n      and\n      eq\n        /* \"contracts/test2/DividendDistributor.sol\":13165:13241  require(IERC721(subNFT).ownerOf(subTokenId) == user, \"Not owner of sub NFT\") */\n      tag_290\n      jumpi\n      mload(0x40)\n      shl(0xe5, 0x461bcd)\n      dup2\n      mstore\n        /* \"#utility.yul\":9441:9443   */\n      0x20\n        /* \"contracts/test2/DividendDistributor.sol\":13165:13241  require(IERC721(subNFT).ownerOf(subTokenId) == user, \"Not owner of sub NFT\") */\n      0x04\n      dup3\n      add\n        /* \"#utility.yul\":9423:9444   */\n      mstore\n        /* \"#utility.yul\":9480:9482   */\n      0x14\n        /* \"#utility.yul\":9460:9478   */\n      0x24\n      dup3\n      add\n        /* \"#utility.yul\":9453:9483   */\n      mstore\n      shl(0x62, 0x139bdd081bdddb995c881bd9881cdd5888139195)\n        /* \"#utility.yul\":9499:9517   */\n      0x44\n      dup3\n      add\n        /* \"#utility.yul\":9492:9542   */\n      mstore\n        /* \"#utility.yul\":9559:9577   */\n      0x64\n      add\n        /* \"contracts/test2/DividendDistributor.sol\":13165:13241  require(IERC721(subNFT).ownerOf(subTokenId) == user, \"Not owner of sub NFT\") */\n      tag_147\n        /* \"#utility.yul\":9239:9583   */\n      jump\n        /* \"contracts/test2/DividendDistributor.sol\":13165:13241  require(IERC721(subNFT).ownerOf(subTokenId) == user, \"Not owner of sub NFT\") */\n    tag_290:\n        /* \"contracts/test2/DividendDistributor.sol\":13341:13351  romanToken */\n      sload(0x01)\n        /* \"contracts/test2/DividendDistributor.sol\":13341:13371  romanToken.getUserStatus(user) */\n      mload(0x40)\n      shl(0xe0, 0xea0d5dcd)\n      dup2\n      mstore\n      sub(shl(0xa0, 0x01), 0x01)\n        /* \"#utility.yul\":1423:1455   */\n      dup4\n      dup2\n      and\n        /* \"contracts/test2/DividendDistributor.sol\":13341:13371  romanToken.getUserStatus(user) */\n      0x04\n      dup4\n      add\n        /* \"#utility.yul\":1405:1456   */\n      mstore\n        /* \"contracts/test2/DividendDistributor.sol\":13307:13323  uint256 bnbTotal */\n      0x00\n      swap3\n      dup4\n      swap3\n        /* \"contracts/test2/DividendDistributor.sol\":13341:13351  romanToken */\n      swap2\n      and\n      swap1\n        /* \"contracts/test2/DividendDistributor.sol\":13341:13365  romanToken.getUserStatus */\n      0xea0d5dcd\n      swap1\n        /* \"#utility.yul\":1378:1396   */\n      0x24\n      add\n        /* \"contracts/test2/DividendDistributor.sol\":13341:13371  romanToken.getUserStatus(user) */\n      0x60\n      mload(0x40)\n      dup1\n      dup4\n      sub\n      dup2\n      dup7\n      gas\n      staticcall\n      iszero\n      dup1\n      iszero\n      tag_295\n      jumpi\n      returndatacopy(0x00, 0x00, returndatasize)\n      revert(0x00, returndatasize)\n    tag_295:\n      pop\n      pop\n      pop\n      pop\n      mload(0x40)\n      returndatasize\n      not(0x1f)\n      0x1f\n      dup3\n      add\n      and\n      dup3\n      add\n      dup1\n      0x40\n      mstore\n      pop\n      dup2\n      add\n      swap1\n      tag_296\n      swap2\n      swap1\n      tag_297\n      jump\t// in\n    tag_296:\n        /* \"contracts/test2/DividendDistributor.sol\":13306:13371  (uint256 bnbTotal, bool isBuy, ) = romanToken.getUserStatus(user) */\n      pop\n      swap2\n      pop\n      swap2\n      pop\n        /* \"contracts/test2/DividendDistributor.sol\":13402:13413  0.002 ether */\n      0x071afd498d0000\n        /* \"contracts/test2/DividendDistributor.sol\":13390:13398  bnbTotal */\n      dup3\n        /* \"contracts/test2/DividendDistributor.sol\":13390:13413  bnbTotal >= 0.002 ether */\n      lt\n      iszero\n        /* \"contracts/test2/DividendDistributor.sol\":13390:13422  bnbTotal >= 0.002 ether && isBuy */\n      dup1\n      iszero\n      tag_298\n      jumpi\n      pop\n        /* \"contracts/test2/DividendDistributor.sol\":13417:13422  isBuy */\n      dup1\n        /* \"contracts/test2/DividendDistributor.sol\":13390:13422  bnbTotal >= 0.002 ether && isBuy */\n    tag_298:\n        /* \"contracts/test2/DividendDistributor.sol\":13382:13459  require(bnbTotal >= 0.002 ether && isBuy, \"Need at least 0.2 BNB investment\") */\n      tag_299\n      jumpi\n      mload(0x40)\n      shl(0xe5, 0x461bcd)\n      dup2\n      mstore\n        /* \"#utility.yul\":10281:10283   */\n      0x20\n        /* \"contracts/test2/DividendDistributor.sol\":13382:13459  require(bnbTotal >= 0.002 ether && isBuy, \"Need at least 0.2 BNB investment\") */\n      0x04\n      dup3\n      add\n        /* \"#utility.yul\":10263:10284   */\n      dup2\n      swap1\n      mstore\n        /* \"#utility.yul\":10300:10318   */\n      0x24\n      dup3\n      add\n        /* \"#utility.yul\":10293:10323   */\n      mstore\n        /* \"#utility.yul\":10359:10393   */\n      0x4e656564206174206c6561737420302e3220424e4220696e766573746d656e74\n        /* \"#utility.yul\":10339:10357   */\n      0x44\n      dup3\n      add\n        /* \"#utility.yul\":10332:10394   */\n      mstore\n        /* \"#utility.yul\":10411:10429   */\n      0x64\n      add\n        /* \"contracts/test2/DividendDistributor.sol\":13382:13459  require(bnbTotal >= 0.002 ether && isBuy, \"Need at least 0.2 BNB investment\") */\n      tag_147\n        /* \"#utility.yul\":10079:10435   */\n      jump\n        /* \"contracts/test2/DividendDistributor.sol\":13382:13459  require(bnbTotal >= 0.002 ether && isBuy, \"Need at least 0.2 BNB investment\") */\n    tag_299:\n      sub(shl(0xa0, 0x01), 0x01)\n        /* \"contracts/test2/DividendDistributor.sol\":13571:13586  whitelist[user] */\n      dup4\n      and\n      0x00\n      swap1\n      dup2\n      mstore\n        /* \"contracts/test2/DividendDistributor.sol\":13571:13580  whitelist */\n      0x0b\n        /* \"contracts/test2/DividendDistributor.sol\":13571:13586  whitelist[user] */\n      0x20\n      mstore\n      0x40\n      swap1\n      keccak256\n      sload\n      0xff\n      and\n        /* \"contracts/test2/DividendDistributor.sol\":13566:13864  if (!whitelist[user]) {... */\n      tag_308\n      jumpi\n      sub(shl(0xa0, 0x01), 0x01)\n        /* \"contracts/test2/DividendDistributor.sol\":13611:13634  activeMainTokenId[user] */\n      dup4\n      and\n      0x00\n      swap1\n      dup2\n      mstore\n        /* \"contracts/test2/DividendDistributor.sol\":13611:13628  activeMainTokenId */\n      0x09\n        /* \"contracts/test2/DividendDistributor.sol\":13611:13634  activeMainTokenId[user] */\n      0x20\n      mstore\n      0x40\n      swap1\n      keccak256\n      sload\n        /* \"contracts/test2/DividendDistributor.sol\":13611:13639  activeMainTokenId[user] == 0 */\n      iszero\n      dup1\n        /* \"contracts/test2/DividendDistributor.sol\":13611:13681  activeMainTokenId[user] == 0 || activeMainTokenId[user] == mainTokenId */\n      tag_303\n      jumpi\n      pop\n      sub(shl(0xa0, 0x01), 0x01)\n        /* \"contracts/test2/DividendDistributor.sol\":13643:13666  activeMainTokenId[user] */\n      dup4\n      and\n      0x00\n      swap1\n      dup2\n      mstore\n        /* \"contracts/test2/DividendDistributor.sol\":13643:13660  activeMainTokenId */\n      0x09\n        /* \"contracts/test2/DividendDistributor.sol\":13643:13666  activeMainTokenId[user] */\n      0x20\n      mstore\n      0x40\n      swap1\n      keccak256\n      sload\n        /* \"contracts/test2/DividendDistributor.sol\":13643:13681  activeMainTokenId[user] == mainTokenId */\n      dup6\n      eq\n        /* \"contracts/test2/DividendDistributor.sol\":13611:13681  activeMainTokenId[user] == 0 || activeMainTokenId[user] == mainTokenId */\n    tag_303:\n        /* \"contracts/test2/DividendDistributor.sol\":13603:13722  require(activeMainTokenId[user] == 0 || activeMainTokenId[user] == mainTokenId, \"Already activated different main NFT\") */\n      tag_304\n      jumpi\n      mload(0x40)\n      shl(0xe5, 0x461bcd)\n      dup2\n      mstore\n        /* \"#utility.yul\":10642:10644   */\n      0x20\n        /* \"contracts/test2/DividendDistributor.sol\":13603:13722  require(activeMainTokenId[user] == 0 || activeMainTokenId[user] == mainTokenId, \"Already activated different main NFT\") */\n      0x04\n      dup3\n      add\n        /* \"#utility.yul\":10624:10645   */\n      mstore\n        /* \"#utility.yul\":10681:10683   */\n      0x24\n        /* \"#utility.yul\":10661:10679   */\n      dup1\n      dup3\n      add\n        /* \"#utility.yul\":10654:10684   */\n      mstore\n        /* \"#utility.yul\":10720:10754   */\n      0x416c72656164792061637469766174656420646966666572656e74206d61696e\n        /* \"#utility.yul\":10700:10718   */\n      0x44\n      dup3\n      add\n        /* \"#utility.yul\":10693:10755   */\n      mstore\n      shl(0xe2, 0x08139195)\n        /* \"#utility.yul\":10771:10789   */\n      0x64\n      dup3\n      add\n        /* \"#utility.yul\":10764:10798   */\n      mstore\n        /* \"#utility.yul\":10815:10834   */\n      0x84\n      add\n        /* \"contracts/test2/DividendDistributor.sol\":13603:13722  require(activeMainTokenId[user] == 0 || activeMainTokenId[user] == mainTokenId, \"Already activated different main NFT\") */\n      tag_147\n        /* \"#utility.yul\":10440:10840   */\n      jump\n        /* \"contracts/test2/DividendDistributor.sol\":13603:13722  require(activeMainTokenId[user] == 0 || activeMainTokenId[user] == mainTokenId, \"Already activated different main NFT\") */\n    tag_304:\n      sub(shl(0xa0, 0x01), 0x01)\n        /* \"contracts/test2/DividendDistributor.sol\":13745:13767  activeSubTokenId[user] */\n      dup4\n      and\n      0x00\n      swap1\n      dup2\n      mstore\n        /* \"contracts/test2/DividendDistributor.sol\":13745:13761  activeSubTokenId */\n      0x0a\n        /* \"contracts/test2/DividendDistributor.sol\":13745:13767  activeSubTokenId[user] */\n      0x20\n      mstore\n      0x40\n      swap1\n      keccak256\n      sload\n        /* \"contracts/test2/DividendDistributor.sol\":13745:13772  activeSubTokenId[user] == 0 */\n      iszero\n      dup1\n        /* \"contracts/test2/DividendDistributor.sol\":13745:13812  activeSubTokenId[user] == 0 || activeSubTokenId[user] == subTokenId */\n      tag_307\n      jumpi\n      pop\n      sub(shl(0xa0, 0x01), 0x01)\n        /* \"contracts/test2/DividendDistributor.sol\":13776:13798  activeSubTokenId[user] */\n      dup4\n      and\n      0x00\n      swap1\n      dup2\n      mstore\n        /* \"contracts/test2/DividendDistributor.sol\":13776:13792  activeSubTokenId */\n      0x0a\n        /* \"contracts/test2/DividendDistributor.sol\":13776:13798  activeSubTokenId[user] */\n      0x20\n      mstore\n      0x40\n      swap1\n      keccak256\n      sload\n        /* \"contracts/test2/DividendDistributor.sol\":13776:13812  activeSubTokenId[user] == subTokenId */\n      dup5\n      eq\n        /* \"contracts/test2/DividendDistributor.sol\":13745:13812  activeSubTokenId[user] == 0 || activeSubTokenId[user] == subTokenId */\n    tag_307:\n        /* \"contracts/test2/DividendDistributor.sol\":13737:13852  require(activeSubTokenId[user] == 0 || activeSubTokenId[user] == subTokenId, \"Already activated different sub NFT\") */\n      tag_308\n      jumpi\n      mload(0x40)\n      shl(0xe5, 0x461bcd)\n      dup2\n      mstore\n        /* \"#utility.yul\":11047:11049   */\n      0x20\n        /* \"contracts/test2/DividendDistributor.sol\":13737:13852  require(activeSubTokenId[user] == 0 || activeSubTokenId[user] == subTokenId, \"Already activated different sub NFT\") */\n      0x04\n      dup3\n      add\n        /* \"#utility.yul\":11029:11050   */\n      mstore\n        /* \"#utility.yul\":11086:11088   */\n      0x23\n        /* \"#utility.yul\":11066:11084   */\n      0x24\n      dup3\n      add\n        /* \"#utility.yul\":11059:11089   */\n      mstore\n        /* \"#utility.yul\":11125:11159   */\n      0x416c72656164792061637469766174656420646966666572656e742073756220\n        /* \"#utility.yul\":11105:11123   */\n      0x44\n      dup3\n      add\n        /* \"#utility.yul\":11098:11160   */\n      mstore\n      shl(0xea, 0x139195)\n        /* \"#utility.yul\":11176:11194   */\n      0x64\n      dup3\n      add\n        /* \"#utility.yul\":11169:11202   */\n      mstore\n        /* \"#utility.yul\":11219:11238   */\n      0x84\n      add\n        /* \"contracts/test2/DividendDistributor.sol\":13737:13852  require(activeSubTokenId[user] == 0 || activeSubTokenId[user] == subTokenId, \"Already activated different sub NFT\") */\n      tag_147\n        /* \"#utility.yul\":10845:11244   */\n      jump\n        /* \"contracts/test2/DividendDistributor.sol\":13737:13852  require(activeSubTokenId[user] == 0 || activeSubTokenId[user] == subTokenId, \"Already activated different sub NFT\") */\n    tag_308:\n        /* \"contracts/test2/DividendDistributor.sol\":13908:13924  mainTokenId != 0 */\n      dup5\n      iszero\n      dup1\n      iszero\n      swap1\n        /* \"contracts/test2/DividendDistributor.sol\":13908:13966  mainTokenId != 0 && activeMainTokenId[user] != mainTokenId */\n      tag_311\n      jumpi\n      pop\n      sub(shl(0xa0, 0x01), 0x01)\n        /* \"contracts/test2/DividendDistributor.sol\":13928:13951  activeMainTokenId[user] */\n      dup4\n      and\n      0x00\n      swap1\n      dup2\n      mstore\n        /* \"contracts/test2/DividendDistributor.sol\":13928:13945  activeMainTokenId */\n      0x09\n        /* \"contracts/test2/DividendDistributor.sol\":13928:13951  activeMainTokenId[user] */\n      0x20\n      mstore\n      0x40\n      swap1\n      keccak256\n      sload\n        /* \"contracts/test2/DividendDistributor.sol\":13928:13966  activeMainTokenId[user] != mainTokenId */\n      dup6\n      eq\n      iszero\n        /* \"contracts/test2/DividendDistributor.sol\":13908:13966  mainTokenId != 0 && activeMainTokenId[user] != mainTokenId */\n    tag_311:\n        /* \"contracts/test2/DividendDistributor.sol\":13904:14130  if (mainTokenId != 0 && activeMainTokenId[user] != mainTokenId) {... */\n      iszero\n      tag_312\n      jumpi\n      sub(shl(0xa0, 0x01), 0x01)\n        /* \"contracts/test2/DividendDistributor.sol\":13987:14010  activeMainTokenId[user] */\n      dup4\n      and\n      0x00\n      swap1\n      dup2\n      mstore\n        /* \"contracts/test2/DividendDistributor.sol\":13987:14004  activeMainTokenId */\n      0x09\n        /* \"contracts/test2/DividendDistributor.sol\":13987:14010  activeMainTokenId[user] */\n      0x20\n      mstore\n      0x40\n      swap1\n      keccak256\n      sload\n        /* \"contracts/test2/DividendDistributor.sol\":13987:14015  activeMainTokenId[user] != 0 */\n      iszero\n        /* \"contracts/test2/DividendDistributor.sol\":13983:14034  if (activeMainTokenId[user] != 0) totalActiveMain-- */\n      tag_313\n      jumpi\n        /* \"contracts/test2/DividendDistributor.sol\":14017:14032  totalActiveMain */\n      0x0c\n        /* \"contracts/test2/DividendDistributor.sol\":14017:14034  totalActiveMain-- */\n      dup1\n      sload\n      swap1\n        /* \"contracts/test2/DividendDistributor.sol\":14017:14032  totalActiveMain */\n      0x00\n        /* \"contracts/test2/DividendDistributor.sol\":14017:14034  totalActiveMain-- */\n      tag_314\n      dup4\n      tag_315\n      jump\t// in\n    tag_314:\n      swap2\n      swap1\n      pop\n      sstore\n      pop\n        /* \"contracts/test2/DividendDistributor.sol\":13983:14034  if (activeMainTokenId[user] != 0) totalActiveMain-- */\n    tag_313:\n      sub(shl(0xa0, 0x01), 0x01)\n        /* \"contracts/test2/DividendDistributor.sol\":14049:14072  activeMainTokenId[user] */\n      dup4\n      and\n      0x00\n      swap1\n      dup2\n      mstore\n        /* \"contracts/test2/DividendDistributor.sol\":14049:14066  activeMainTokenId */\n      0x09\n        /* \"contracts/test2/DividendDistributor.sol\":14049:14072  activeMainTokenId[user] */\n      0x20\n      mstore\n      0x40\n      dup2\n      keccak256\n        /* \"contracts/test2/DividendDistributor.sol\":14049:14086  activeMainTokenId[user] = mainTokenId */\n      dup7\n      swap1\n      sstore\n        /* \"contracts/test2/DividendDistributor.sol\":14101:14116  totalActiveMain */\n      0x0c\n        /* \"contracts/test2/DividendDistributor.sol\":14101:14118  totalActiveMain++ */\n      dup1\n      sload\n      swap2\n      tag_316\n      dup4\n      tag_317\n      jump\t// in\n    tag_316:\n      swap2\n      swap1\n      pop\n      sstore\n      pop\n        /* \"contracts/test2/DividendDistributor.sol\":13904:14130  if (mainTokenId != 0 && activeMainTokenId[user] != mainTokenId) {... */\n    tag_312:\n        /* \"contracts/test2/DividendDistributor.sol\":14173:14188  subTokenId != 0 */\n      dup4\n      iszero\n      dup1\n      iszero\n      swap1\n        /* \"contracts/test2/DividendDistributor.sol\":14173:14228  subTokenId != 0 && activeSubTokenId[user] != subTokenId */\n      tag_318\n      jumpi\n      pop\n      sub(shl(0xa0, 0x01), 0x01)\n        /* \"contracts/test2/DividendDistributor.sol\":14192:14214  activeSubTokenId[user] */\n      dup4\n      and\n      0x00\n      swap1\n      dup2\n      mstore\n        /* \"contracts/test2/DividendDistributor.sol\":14192:14208  activeSubTokenId */\n      0x0a\n        /* \"contracts/test2/DividendDistributor.sol\":14192:14214  activeSubTokenId[user] */\n      0x20\n      mstore\n      0x40\n      swap1\n      keccak256\n      sload\n        /* \"contracts/test2/DividendDistributor.sol\":14192:14228  activeSubTokenId[user] != subTokenId */\n      dup5\n      eq\n      iszero\n        /* \"contracts/test2/DividendDistributor.sol\":14173:14228  subTokenId != 0 && activeSubTokenId[user] != subTokenId */\n    tag_318:\n        /* \"contracts/test2/DividendDistributor.sol\":14169:14387  if (subTokenId != 0 && activeSubTokenId[user] != subTokenId) {... */\n      iszero\n      tag_319\n      jumpi\n      sub(shl(0xa0, 0x01), 0x01)\n        /* \"contracts/test2/DividendDistributor.sol\":14249:14271  activeSubTokenId[user] */\n      dup4\n      and\n      0x00\n      swap1\n      dup2\n      mstore\n        /* \"contracts/test2/DividendDistributor.sol\":14249:14265  activeSubTokenId */\n      0x0a\n        /* \"contracts/test2/DividendDistributor.sol\":14249:14271  activeSubTokenId[user] */\n      0x20\n      mstore\n      0x40\n      swap1\n      keccak256\n      sload\n        /* \"contracts/test2/DividendDistributor.sol\":14249:14276  activeSubTokenId[user] != 0 */\n      iszero\n        /* \"contracts/test2/DividendDistributor.sol\":14245:14294  if (activeSubTokenId[user] != 0) totalActiveSub-- */\n      tag_320\n      jumpi\n        /* \"contracts/test2/DividendDistributor.sol\":14278:14292  totalActiveSub */\n      0x0d\n        /* \"contracts/test2/DividendDistributor.sol\":14278:14294  totalActiveSub-- */\n      dup1\n      sload\n      swap1\n        /* \"contracts/test2/DividendDistributor.sol\":14278:14292  totalActiveSub */\n      0x00\n        /* \"contracts/test2/DividendDistributor.sol\":14278:14294  totalActiveSub-- */\n      tag_321\n      dup4\n      tag_315\n      jump\t// in\n    tag_321:\n      swap2\n      swap1\n      pop\n      sstore\n      pop\n        /* \"contracts/test2/DividendDistributor.sol\":14245:14294  if (activeSubTokenId[user] != 0) totalActiveSub-- */\n    tag_320:\n      sub(shl(0xa0, 0x01), 0x01)\n        /* \"contracts/test2/DividendDistributor.sol\":14309:14331  activeSubTokenId[user] */\n      dup4\n      and\n      0x00\n      swap1\n      dup2\n      mstore\n        /* \"contracts/test2/DividendDistributor.sol\":14309:14325  activeSubTokenId */\n      0x0a\n        /* \"contracts/test2/DividendDistributor.sol\":14309:14331  activeSubTokenId[user] */\n      0x20\n      mstore\n      0x40\n      dup2\n      keccak256\n        /* \"contracts/test2/DividendDistributor.sol\":14309:14344  activeSubTokenId[user] = subTokenId */\n      dup6\n      swap1\n      sstore\n        /* \"contracts/test2/DividendDistributor.sol\":14359:14373  totalActiveSub */\n      0x0d\n        /* \"contracts/test2/DividendDistributor.sol\":14359:14375  totalActiveSub++ */\n      dup1\n      sload\n      swap2\n      tag_322\n      dup4\n      tag_317\n      jump\t// in\n    tag_322:\n      swap2\n      swap1\n      pop\n      sstore\n      pop\n        /* \"contracts/test2/DividendDistributor.sol\":14169:14387  if (subTokenId != 0 && activeSubTokenId[user] != subTokenId) {... */\n    tag_319:\n        /* \"contracts/test2/DividendDistributor.sol\":14404:14444  Activated(user, mainTokenId, subTokenId) */\n      0x40\n      dup1\n      mload\n        /* \"#utility.yul\":11704:11729   */\n      dup7\n      dup2\n      mstore\n        /* \"#utility.yul\":11760:11762   */\n      0x20\n        /* \"#utility.yul\":11745:11763   */\n      dup2\n      add\n        /* \"#utility.yul\":11738:11772   */\n      dup7\n      swap1\n      mstore\n      sub(shl(0xa0, 0x01), 0x01)\n        /* \"contracts/test2/DividendDistributor.sol\":14404:14444  Activated(user, mainTokenId, subTokenId) */\n      dup6\n      and\n      swap2\n      0xf89be561c4ce44410305a86555ebae8b579de22890a703ac89051c5971b5d4dc\n      swap2\n        /* \"#utility.yul\":11677:11695   */\n      add\n        /* \"contracts/test2/DividendDistributor.sol\":14404:14444  Activated(user, mainTokenId, subTokenId) */\n      mload(0x40)\n      dup1\n      swap2\n      sub\n      swap1\n      log2\n        /* \"contracts/test2/DividendDistributor.sol\":12906:14452  {... */\n      pop\n      pop\n      pop\n        /* \"contracts/test2/DividendDistributor.sol\":12838:14452  function activate(uint256 mainTokenId, uint256 subTokenId) external {... */\n      pop\n      pop\n      jump\t// out\n        /* \"contracts/test2/DividendDistributor.sol\":19938:20190  function emergencyWithdraw(address token, uint256 amount) external onlyOwner {... */\n    tag_100:\n        /* \"@openzeppelin/contracts/access/Ownable.sol\":1531:1544  _checkOwner() */\n      tag_326\n        /* \"@openzeppelin/contracts/access/Ownable.sol\":1531:1542  _checkOwner */\n      tag_237\n        /* \"@openzeppelin/contracts/access/Ownable.sol\":1531:1544  _checkOwner() */\n      jump\t// in\n    tag_326:\n      sub(shl(0xa0, 0x01), 0x01)\n        /* \"contracts/test2/DividendDistributor.sol\":20030:20049  token == address(0) */\n      dup3\n      and\n        /* \"contracts/test2/DividendDistributor.sol\":20026:20183  if (token == address(0)) {... */\n      tag_328\n      jumpi\n        /* \"@openzeppelin/contracts/access/Ownable.sol\":1684:1691  address */\n      0x00\n        /* \"@openzeppelin/contracts/access/Ownable.sol\":1710:1716  _owner */\n      dup1\n      sload\n        /* \"contracts/test2/DividendDistributor.sol\":20066:20099  payable(owner()).transfer(amount) */\n      mload(0x40)\n      sub(shl(0xa0, 0x01), 0x01)\n        /* \"@openzeppelin/contracts/access/Ownable.sol\":1710:1716  _owner */\n      swap1\n      swap2\n      and\n      swap2\n        /* \"contracts/test2/DividendDistributor.sol\":20066:20099  payable(owner()).transfer(amount) */\n      dup4\n      iszero\n      0x08fc\n      mul\n      swap2\n        /* \"contracts/test2/DividendDistributor.sol\":20092:20098  amount */\n      dup5\n      swap2\n        /* \"contracts/test2/DividendDistributor.sol\":20066:20099  payable(owner()).transfer(amount) */\n      dup2\n        /* \"@openzeppelin/contracts/access/Ownable.sol\":1684:1691  address */\n      dup2\n        /* \"contracts/test2/DividendDistributor.sol\":20066:20099  payable(owner()).transfer(amount) */\n      dup2\n        /* \"contracts/test2/DividendDistributor.sol\":20092:20098  amount */\n      dup6\n        /* \"@openzeppelin/contracts/access/Ownable.sol\":1710:1716  _owner */\n      dup9\n        /* \"contracts/test2/DividendDistributor.sol\":20066:20099  payable(owner()).transfer(amount) */\n      dup9\n      call\n      swap4\n      pop\n      pop\n      pop\n      pop\n      iszero\n      dup1\n      iszero\n      tag_331\n      jumpi\n      returndatacopy(0x00, 0x00, returndatasize)\n      revert(0x00, returndatasize)\n    tag_331:\n      pop\n        /* \"contracts/test2/DividendDistributor.sol\":19938:20190  function emergencyWithdraw(address token, uint256 amount) external onlyOwner {... */\n      pop\n      pop\n      jump\t// out\n        /* \"contracts/test2/DividendDistributor.sol\":20026:20183  if (token == address(0)) {... */\n    tag_328:\n        /* \"contracts/test2/DividendDistributor.sol\":20139:20144  token */\n      dup2\n      sub(shl(0xa0, 0x01), 0x01)\n        /* \"contracts/test2/DividendDistributor.sol\":20132:20154  IERC20(token).transfer */\n      and\n      0xa9059cbb\n        /* \"contracts/test2/DividendDistributor.sol\":20155:20162  owner() */\n      tag_333\n        /* \"@openzeppelin/contracts/access/Ownable.sol\":1684:1691  address */\n      0x00\n        /* \"@openzeppelin/contracts/access/Ownable.sol\":1710:1716  _owner */\n      sload\n      sub(shl(0xa0, 0x01), 0x01)\n      and\n      swap1\n        /* \"@openzeppelin/contracts/access/Ownable.sol\":1638:1723  function owner() public view virtual returns (address) {... */\n      jump\n        /* \"contracts/test2/DividendDistributor.sol\":20155:20162  owner() */\n    tag_333:\n        /* \"contracts/test2/DividendDistributor.sol\":20132:20171  IERC20(token).transfer(owner(), amount) */\n      mload(0x40)\n      not(sub(shl(0xe0, 0x01), 0x01))\n      0xe0\n      dup5\n      swap1\n      shl\n      and\n      dup2\n      mstore\n      sub(shl(0xa0, 0x01), 0x01)\n        /* \"#utility.yul\":6452:6484   */\n      swap1\n      swap2\n      and\n        /* \"contracts/test2/DividendDistributor.sol\":20132:20171  IERC20(token).transfer(owner(), amount) */\n      0x04\n      dup3\n      add\n        /* \"#utility.yul\":6434:6485   */\n      mstore\n        /* \"#utility.yul\":6501:6519   */\n      0x24\n      dup2\n      add\n        /* \"#utility.yul\":6494:6528   */\n      dup5\n      swap1\n      mstore\n        /* \"#utility.yul\":6407:6425   */\n      0x44\n      add\n        /* \"contracts/test2/DividendDistributor.sol\":20132:20171  IERC20(token).transfer(owner(), amount) */\n      0x20\n      mload(0x40)\n      dup1\n      dup4\n      sub\n      dup2\n      0x00\n      dup8\n      gas\n      call\n      iszero\n      dup1\n      iszero\n      tag_336\n      jumpi\n      returndatacopy(0x00, 0x00, returndatasize)\n      revert(0x00, returndatasize)\n    tag_336:\n      pop\n      pop\n      pop\n      pop\n      mload(0x40)\n      returndatasize\n      not(0x1f)\n      0x1f\n      dup3\n      add\n      and\n      dup3\n      add\n      dup1\n      0x40\n      mstore\n      pop\n      dup2\n      add\n      swap1\n      tag_331\n      swap2\n      swap1\n      tag_155\n      jump\t// in\n        /* \"@openzeppelin/contracts/access/Ownable.sol\":2543:2758  function transferOwnership(address newOwner) public virtual onlyOwner {... */\n    tag_132:\n        /* \"@openzeppelin/contracts/access/Ownable.sol\":1531:1544  _checkOwner() */\n      tag_339\n        /* \"@openzeppelin/contracts/access/Ownable.sol\":1531:1542  _checkOwner */\n      tag_237\n        /* \"@openzeppelin/contracts/access/Ownable.sol\":1531:1544  _checkOwner() */\n      jump\t// in\n    tag_339:\n      sub(shl(0xa0, 0x01), 0x01)\n        /* \"@openzeppelin/contracts/access/Ownable.sol\":2627:2649  newOwner == address(0) */\n      dup2\n      and\n        /* \"@openzeppelin/contracts/access/Ownable.sol\":2623:2714  if (newOwner == address(0)) {... */\n      tag_341\n      jumpi\n        /* \"@openzeppelin/contracts/access/Ownable.sol\":2672:2703  OwnableInvalidOwner(address(0)) */\n      mload(0x40)\n      shl(0xe0, 0x1e4fbdf7)\n      dup2\n      mstore\n        /* \"@openzeppelin/contracts/access/Ownable.sol\":2700:2701  0 */\n      0x00\n        /* \"@openzeppelin/contracts/access/Ownable.sol\":2672:2703  OwnableInvalidOwner(address(0)) */\n      0x04\n      dup3\n      add\n        /* \"#utility.yul\":1405:1456   */\n      mstore\n        /* \"#utility.yul\":1378:1396   */\n      0x24\n      add\n        /* \"@openzeppelin/contracts/access/Ownable.sol\":2672:2703  OwnableInvalidOwner(address(0)) */\n      tag_147\n        /* \"#utility.yul\":1259:1462   */\n      jump\n        /* \"@openzeppelin/contracts/access/Ownable.sol\":2623:2714  if (newOwner == address(0)) {... */\n    tag_341:\n        /* \"@openzeppelin/contracts/access/Ownable.sol\":2723:2751  _transferOwnership(newOwner) */\n      tag_343\n        /* \"@openzeppelin/contracts/access/Ownable.sol\":2742:2750  newOwner */\n      dup2\n        /* \"@openzeppelin/contracts/access/Ownable.sol\":2723:2741  _transferOwnership */\n      tag_261\n        /* \"@openzeppelin/contracts/access/Ownable.sol\":2723:2751  _transferOwnership(newOwner) */\n      jump\t// in\n    tag_343:\n        /* \"@openzeppelin/contracts/access/Ownable.sol\":2543:2758  function transferOwnership(address newOwner) public virtual onlyOwner {... */\n      pop\n      jump\t// out\n        /* \"@openzeppelin/contracts/access/Ownable.sol\":1796:1958  function _checkOwner() internal view virtual {... */\n    tag_237:\n        /* \"@openzeppelin/contracts/access/Ownable.sol\":1684:1691  address */\n      0x00\n        /* \"@openzeppelin/contracts/access/Ownable.sol\":1710:1716  _owner */\n      sload\n      sub(shl(0xa0, 0x01), 0x01)\n      and\n        /* \"@openzeppelin/contracts/utils/Context.sol\":735:745  msg.sender */\n      caller\n        /* \"@openzeppelin/contracts/access/Ownable.sol\":1855:1878  owner() != _msgSender() */\n      eq\n        /* \"@openzeppelin/contracts/access/Ownable.sol\":1851:1952  if (owner() != _msgSender()) {... */\n      tag_260\n      jumpi\n        /* \"@openzeppelin/contracts/access/Ownable.sol\":1901:1941  OwnableUnauthorizedAccount(_msgSender()) */\n      mload(0x40)\n      shl(0xe0, 0x118cdaa7)\n      dup2\n      mstore\n        /* \"@openzeppelin/contracts/utils/Context.sol\":735:745  msg.sender */\n      caller\n        /* \"@openzeppelin/contracts/access/Ownable.sol\":1901:1941  OwnableUnauthorizedAccount(_msgSender()) */\n      0x04\n      dup3\n      add\n        /* \"#utility.yul\":1405:1456   */\n      mstore\n        /* \"#utility.yul\":1378:1396   */\n      0x24\n      add\n        /* \"@openzeppelin/contracts/access/Ownable.sol\":1901:1941  OwnableUnauthorizedAccount(_msgSender()) */\n      tag_147\n        /* \"#utility.yul\":1259:1462   */\n      jump\n        /* \"@openzeppelin/contracts/access/Ownable.sol\":2912:3099  function _transferOwnership(address newOwner) internal virtual {... */\n    tag_261:\n        /* \"@openzeppelin/contracts/access/Ownable.sol\":2985:3001  address oldOwner */\n      0x00\n        /* \"@openzeppelin/contracts/access/Ownable.sol\":3004:3010  _owner */\n      dup1\n      sload\n      sub(shl(0xa0, 0x01), 0x01)\n        /* \"@openzeppelin/contracts/access/Ownable.sol\":3020:3037  _owner = newOwner */\n      dup4\n      dup2\n      and\n      not(sub(shl(0xa0, 0x01), 0x01))\n      dup4\n      and\n      dup2\n      or\n      dup5\n      sstore\n        /* \"@openzeppelin/contracts/access/Ownable.sol\":3052:3092  OwnershipTransferred(oldOwner, newOwner) */\n      mload(0x40)\n        /* \"@openzeppelin/contracts/access/Ownable.sol\":3004:3010  _owner */\n      swap2\n      swap1\n      swap3\n      and\n      swap3\n      dup4\n      swap2\n        /* \"@openzeppelin/contracts/access/Ownable.sol\":3052:3092  OwnershipTransferred(oldOwner, newOwner) */\n      0x8be0079c531659141344cd1fd0a4f28419497f9722a3daafe3b4186f6b6457e0\n      swap2\n        /* \"@openzeppelin/contracts/access/Ownable.sol\":2985:3001  address oldOwner */\n      swap1\n        /* \"@openzeppelin/contracts/access/Ownable.sol\":3052:3092  OwnershipTransferred(oldOwner, newOwner) */\n      log3\n        /* \"@openzeppelin/contracts/access/Ownable.sol\":2975:3099  {... */\n      pop\n        /* \"@openzeppelin/contracts/access/Ownable.sol\":2912:3099  function _transferOwnership(address newOwner) internal virtual {... */\n      pop\n      jump\t// out\n        /* \"#utility.yul\":14:141   */\n    tag_353:\n        /* \"#utility.yul\":75:85   */\n      0x4e487b71\n        /* \"#utility.yul\":70:73   */\n      0xe0\n        /* \"#utility.yul\":66:86   */\n      shl\n        /* \"#utility.yul\":63:64   */\n      0x00\n        /* \"#utility.yul\":56:87   */\n      mstore\n        /* \"#utility.yul\":106:110   */\n      0x11\n        /* \"#utility.yul\":103:104   */\n      0x04\n        /* \"#utility.yul\":96:111   */\n      mstore\n        /* \"#utility.yul\":130:134   */\n      0x24\n        /* \"#utility.yul\":127:128   */\n      0x00\n        /* \"#utility.yul\":120:135   */\n      revert\n        /* \"#utility.yul\":146:271   */\n    tag_31:\n        /* \"#utility.yul\":211:220   */\n      dup1\n      dup3\n      add\n        /* \"#utility.yul\":232:242   */\n      dup1\n      dup3\n      gt\n        /* \"#utility.yul\":229:265   */\n      iszero\n      tag_361\n      jumpi\n        /* \"#utility.yul\":245:263   */\n      tag_361\n      tag_353\n      jump\t// in\n    tag_361:\n        /* \"#utility.yul\":146:271   */\n      swap3\n      swap2\n      pop\n      pop\n      jump\t// out\n        /* \"#utility.yul\":689:820   */\n    tag_354:\n      sub(shl(0xa0, 0x01), 0x01)\n        /* \"#utility.yul\":764:795   */\n      dup2\n      and\n        /* \"#utility.yul\":754:796   */\n      dup2\n      eq\n        /* \"#utility.yul\":744:814   */\n      tag_343\n      jumpi\n        /* \"#utility.yul\":810:811   */\n      0x00\n        /* \"#utility.yul\":807:808   */\n      0x00\n        /* \"#utility.yul\":800:812   */\n      revert\n        /* \"#utility.yul\":825:1072   */\n    tag_37:\n        /* \"#utility.yul\":884:890   */\n      0x00\n        /* \"#utility.yul\":937:939   */\n      0x20\n        /* \"#utility.yul\":925:934   */\n      dup3\n        /* \"#utility.yul\":916:923   */\n      dup5\n        /* \"#utility.yul\":912:935   */\n      sub\n        /* \"#utility.yul\":908:940   */\n      slt\n        /* \"#utility.yul\":905:957   */\n      iszero\n      tag_366\n      jumpi\n        /* \"#utility.yul\":953:954   */\n      0x00\n        /* \"#utility.yul\":950:951   */\n      0x00\n        /* \"#utility.yul\":943:955   */\n      revert\n        /* \"#utility.yul\":905:957   */\n    tag_366:\n        /* \"#utility.yul\":992:1001   */\n      dup2\n        /* \"#utility.yul\":979:1002   */\n      calldataload\n        /* \"#utility.yul\":1011:1042   */\n      tag_367\n        /* \"#utility.yul\":1036:1041   */\n      dup2\n        /* \"#utility.yul\":1011:1042   */\n      tag_354\n      jump\t// in\n    tag_367:\n        /* \"#utility.yul\":1061:1066   */\n      swap4\n        /* \"#utility.yul\":825:1072   */\n      swap3\n      pop\n      pop\n      pop\n      jump\t// out\n        /* \"#utility.yul\":1467:1585   */\n    tag_355:\n        /* \"#utility.yul\":1553:1558   */\n      dup1\n        /* \"#utility.yul\":1546:1559   */\n      iszero\n        /* \"#utility.yul\":1539:1560   */\n      iszero\n        /* \"#utility.yul\":1532:1537   */\n      dup2\n        /* \"#utility.yul\":1529:1561   */\n      eq\n        /* \"#utility.yul\":1519:1579   */\n      tag_343\n      jumpi\n        /* \"#utility.yul\":1575:1576   */\n      0x00\n        /* \"#utility.yul\":1572:1573   */\n      0x00\n        /* \"#utility.yul\":1565:1577   */\n      revert\n        /* \"#utility.yul\":1590:1972   */\n    tag_64:\n        /* \"#utility.yul\":1655:1661   */\n      0x00\n        /* \"#utility.yul\":1663:1669   */\n      0x00\n        /* \"#utility.yul\":1716:1718   */\n      0x40\n        /* \"#utility.yul\":1704:1713   */\n      dup4\n        /* \"#utility.yul\":1695:1702   */\n      dup6\n        /* \"#utility.yul\":1691:1714   */\n      sub\n        /* \"#utility.yul\":1687:1719   */\n      slt\n        /* \"#utility.yul\":1684:1736   */\n      iszero\n      tag_373\n      jumpi\n        /* \"#utility.yul\":1732:1733   */\n      0x00\n        /* \"#utility.yul\":1729:1730   */\n      0x00\n        /* \"#utility.yul\":1722:1734   */\n      revert\n        /* \"#utility.yul\":1684:1736   */\n    tag_373:\n        /* \"#utility.yul\":1771:1780   */\n      dup3\n        /* \"#utility.yul\":1758:1781   */\n      calldataload\n        /* \"#utility.yul\":1790:1821   */\n      tag_374\n        /* \"#utility.yul\":1815:1820   */\n      dup2\n        /* \"#utility.yul\":1790:1821   */\n      tag_354\n      jump\t// in\n    tag_374:\n        /* \"#utility.yul\":1840:1845   */\n      swap2\n      pop\n        /* \"#utility.yul\":1897:1899   */\n      0x20\n        /* \"#utility.yul\":1882:1900   */\n      dup4\n      add\n        /* \"#utility.yul\":1869:1901   */\n      calldataload\n        /* \"#utility.yul\":1910:1940   */\n      tag_375\n        /* \"#utility.yul\":1869:1901   */\n      dup2\n        /* \"#utility.yul\":1910:1940   */\n      tag_355\n      jump\t// in\n    tag_375:\n        /* \"#utility.yul\":1959:1966   */\n      dup1\n        /* \"#utility.yul\":1949:1966   */\n      swap2\n      pop\n      pop\n        /* \"#utility.yul\":1590:1972   */\n      swap3\n      pop\n      swap3\n      swap1\n      pop\n      jump\t// out\n        /* \"#utility.yul\":1977:2104   */\n    tag_356:\n        /* \"#utility.yul\":2038:2048   */\n      0x4e487b71\n        /* \"#utility.yul\":2033:2036   */\n      0xe0\n        /* \"#utility.yul\":2029:2049   */\n      shl\n        /* \"#utility.yul\":2026:2027   */\n      0x00\n        /* \"#utility.yul\":2019:2050   */\n      mstore\n        /* \"#utility.yul\":2069:2073   */\n      0x41\n        /* \"#utility.yul\":2066:2067   */\n      0x04\n        /* \"#utility.yul\":2059:2074   */\n      mstore\n        /* \"#utility.yul\":2093:2097   */\n      0x24\n        /* \"#utility.yul\":2090:2091   */\n      0x00\n        /* \"#utility.yul\":2083:2098   */\n      revert\n        /* \"#utility.yul\":2109:3168   */\n    tag_73:\n        /* \"#utility.yul\":2187:2193   */\n      0x00\n        /* \"#utility.yul\":2195:2201   */\n      0x00\n        /* \"#utility.yul\":2248:2250   */\n      0x40\n        /* \"#utility.yul\":2236:2245   */\n      dup4\n        /* \"#utility.yul\":2227:2234   */\n      dup6\n        /* \"#utility.yul\":2223:2246   */\n      sub\n        /* \"#utility.yul\":2219:2251   */\n      slt\n        /* \"#utility.yul\":2216:2268   */\n      iszero\n      tag_378\n      jumpi\n        /* \"#utility.yul\":2264:2265   */\n      0x00\n        /* \"#utility.yul\":2261:2262   */\n      0x00\n        /* \"#utility.yul\":2254:2266   */\n      revert\n        /* \"#utility.yul\":2216:2268   */\n    tag_378:\n        /* \"#utility.yul\":2309:2332   */\n      dup3\n      calldataload\n      swap2\n      pop\n        /* \"#utility.yul\":2407:2409   */\n      0x20\n        /* \"#utility.yul\":2392:2410   */\n      dup4\n      add\n        /* \"#utility.yul\":2379:2411   */\n      calldataload\n        /* \"#utility.yul\":2434:2452   */\n      0xffffffffffffffff\n        /* \"#utility.yul\":2423:2453   */\n      dup2\n      gt\n        /* \"#utility.yul\":2420:2470   */\n      iszero\n      tag_379\n      jumpi\n        /* \"#utility.yul\":2466:2467   */\n      0x00\n        /* \"#utility.yul\":2463:2464   */\n      0x00\n        /* \"#utility.yul\":2456:2468   */\n      revert\n        /* \"#utility.yul\":2420:2470   */\n    tag_379:\n        /* \"#utility.yul\":2489:2511   */\n      dup4\n      add\n        /* \"#utility.yul\":2542:2546   */\n      0x1f\n        /* \"#utility.yul\":2534:2547   */\n      dup2\n      add\n        /* \"#utility.yul\":2530:2557   */\n      dup6\n      sgt\n        /* \"#utility.yul\":2520:2575   */\n      tag_380\n      jumpi\n        /* \"#utility.yul\":2571:2572   */\n      0x00\n        /* \"#utility.yul\":2568:2569   */\n      0x00\n        /* \"#utility.yul\":2561:2573   */\n      revert\n        /* \"#utility.yul\":2520:2575   */\n    tag_380:\n        /* \"#utility.yul\":2611:2613   */\n      dup1\n        /* \"#utility.yul\":2598:2614   */\n      calldataload\n        /* \"#utility.yul\":2637:2655   */\n      0xffffffffffffffff\n        /* \"#utility.yul\":2629:2635   */\n      dup2\n        /* \"#utility.yul\":2626:2656   */\n      gt\n        /* \"#utility.yul\":2623:2679   */\n      iszero\n      tag_382\n      jumpi\n        /* \"#utility.yul\":2659:2677   */\n      tag_382\n      tag_356\n      jump\t// in\n    tag_382:\n        /* \"#utility.yul\":2708:2710   */\n      0x40\n        /* \"#utility.yul\":2702:2711   */\n      mload\n        /* \"#utility.yul\":2800:2802   */\n      0x1f\n        /* \"#utility.yul\":2762:2779   */\n      dup3\n      add\n      not(0x1f)\n        /* \"#utility.yul\":2758:2789   */\n      swap1\n      dup2\n      and\n        /* \"#utility.yul\":2791:2793   */\n      0x3f\n        /* \"#utility.yul\":2754:2794   */\n      add\n        /* \"#utility.yul\":2750:2804   */\n      and\n        /* \"#utility.yul\":2738:2805   */\n      dup2\n      add\n        /* \"#utility.yul\":2835:2853   */\n      0xffffffffffffffff\n        /* \"#utility.yul\":2820:2854   */\n      dup2\n      gt\n        /* \"#utility.yul\":2856:2878   */\n      dup3\n      dup3\n      lt\n        /* \"#utility.yul\":2817:2879   */\n      or\n        /* \"#utility.yul\":2814:2902   */\n      iszero\n      tag_384\n      jumpi\n        /* \"#utility.yul\":2882:2900   */\n      tag_384\n      tag_356\n      jump\t// in\n    tag_384:\n        /* \"#utility.yul\":2918:2920   */\n      0x40\n        /* \"#utility.yul\":2911:2933   */\n      mstore\n        /* \"#utility.yul\":2942:2964   */\n      dup2\n      dup2\n      mstore\n        /* \"#utility.yul\":2983:2998   */\n      dup3\n      dup3\n      add\n        /* \"#utility.yul\":3000:3002   */\n      0x20\n        /* \"#utility.yul\":2979:3003   */\n      add\n        /* \"#utility.yul\":2976:3013   */\n      dup8\n      lt\n        /* \"#utility.yul\":2973:3030   */\n      iszero\n      tag_385\n      jumpi\n        /* \"#utility.yul\":3026:3027   */\n      0x00\n        /* \"#utility.yul\":3023:3024   */\n      0x00\n        /* \"#utility.yul\":3016:3028   */\n      revert\n        /* \"#utility.yul\":2973:3030   */\n    tag_385:\n        /* \"#utility.yul\":3082:3088   */\n      dup2\n        /* \"#utility.yul\":3077:3079   */\n      0x20\n        /* \"#utility.yul\":3073:3075   */\n      dup5\n        /* \"#utility.yul\":3069:3080   */\n      add\n        /* \"#utility.yul\":3064:3066   */\n      0x20\n        /* \"#utility.yul\":3056:3062   */\n      dup4\n        /* \"#utility.yul\":3052:3067   */\n      add\n        /* \"#utility.yul\":3039:3089   */\n      calldatacopy\n        /* \"#utility.yul\":3135:3136   */\n      0x00\n        /* \"#utility.yul\":3130:3132   */\n      0x20\n        /* \"#utility.yul\":3121:3127   */\n      dup4\n        /* \"#utility.yul\":3113:3119   */\n      dup4\n        /* \"#utility.yul\":3109:3128   */\n      add\n        /* \"#utility.yul\":3105:3133   */\n      add\n        /* \"#utility.yul\":3098:3137   */\n      mstore\n        /* \"#utility.yul\":3156:3162   */\n      dup1\n        /* \"#utility.yul\":3146:3162   */\n      swap4\n      pop\n      pop\n      pop\n      pop\n        /* \"#utility.yul\":2109:3168   */\n      swap3\n      pop\n      swap3\n      swap1\n      pop\n      jump\t// out\n        /* \"#utility.yul\":3173:3399   */\n    tag_81:\n        /* \"#utility.yul\":3232:3238   */\n      0x00\n        /* \"#utility.yul\":3285:3287   */\n      0x20\n        /* \"#utility.yul\":3273:3282   */\n      dup3\n        /* \"#utility.yul\":3264:3271   */\n      dup5\n        /* \"#utility.yul\":3260:3283   */\n      sub\n        /* \"#utility.yul\":3256:3288   */\n      slt\n        /* \"#utility.yul\":3253:3305   */\n      iszero\n      tag_387\n      jumpi\n        /* \"#utility.yul\":3301:3302   */\n      0x00\n        /* \"#utility.yul\":3298:3299   */\n      0x00\n        /* \"#utility.yul\":3291:3303   */\n      revert\n        /* \"#utility.yul\":3253:3305   */\n    tag_387:\n      pop\n        /* \"#utility.yul\":3346:3369   */\n      calldataload\n      swap2\n        /* \"#utility.yul\":3173:3399   */\n      swap1\n      pop\n      jump\t// out\n        /* \"#utility.yul\":3404:3750   */\n    tag_94:\n        /* \"#utility.yul\":3472:3478   */\n      0x00\n        /* \"#utility.yul\":3480:3486   */\n      0x00\n        /* \"#utility.yul\":3533:3535   */\n      0x40\n        /* \"#utility.yul\":3521:3530   */\n      dup4\n        /* \"#utility.yul\":3512:3519   */\n      dup6\n        /* \"#utility.yul\":3508:3531   */\n      sub\n        /* \"#utility.yul\":3504:3536   */\n      slt\n        /* \"#utility.yul\":3501:3553   */\n      iszero\n      tag_389\n      jumpi\n        /* \"#utility.yul\":3549:3550   */\n      0x00\n        /* \"#utility.yul\":3546:3547   */\n      0x00\n        /* \"#utility.yul\":3539:3551   */\n      revert\n        /* \"#utility.yul\":3501:3553   */\n    tag_389:\n      pop\n      pop\n        /* \"#utility.yul\":3594:3617   */\n      dup1\n      calldataload\n      swap3\n        /* \"#utility.yul\":3714:3716   */\n      0x20\n        /* \"#utility.yul\":3699:3717   */\n      swap1\n      swap2\n      add\n        /* \"#utility.yul\":3686:3718   */\n      calldataload\n      swap2\n      pop\n        /* \"#utility.yul\":3404:3750   */\n      jump\t// out\n        /* \"#utility.yul\":3755:4122   */\n    tag_99:\n        /* \"#utility.yul\":3823:3829   */\n      0x00\n        /* \"#utility.yul\":3831:3837   */\n      0x00\n        /* \"#utility.yul\":3884:3886   */\n      0x40\n        /* \"#utility.yul\":3872:3881   */\n      dup4\n        /* \"#utility.yul\":3863:3870   */\n      dup6\n        /* \"#utility.yul\":3859:3882   */\n      sub\n        /* \"#utility.yul\":3855:3887   */\n      slt\n        /* \"#utility.yul\":3852:3904   */\n      iszero\n      tag_391\n      jumpi\n        /* \"#utility.yul\":3900:3901   */\n      0x00\n        /* \"#utility.yul\":3897:3898   */\n      0x00\n        /* \"#utility.yul\":3890:3902   */\n      revert\n        /* \"#utility.yul\":3852:3904   */\n    tag_391:\n        /* \"#utility.yul\":3939:3948   */\n      dup3\n        /* \"#utility.yul\":3926:3949   */\n      calldataload\n        /* \"#utility.yul\":3958:3989   */\n      tag_392\n        /* \"#utility.yul\":3983:3988   */\n      dup2\n        /* \"#utility.yul\":3958:3989   */\n      tag_354\n      jump\t// in\n    tag_392:\n        /* \"#utility.yul\":4008:4013   */\n      swap5\n        /* \"#utility.yul\":4086:4088   */\n      0x20\n        /* \"#utility.yul\":4071:4089   */\n      swap4\n      swap1\n      swap4\n      add\n        /* \"#utility.yul\":4058:4090   */\n      calldataload\n      swap4\n      pop\n      pop\n      pop\n        /* \"#utility.yul\":3755:4122   */\n      jump\t// out\n        /* \"#utility.yul\":4546:4776   */\n    tag_139:\n        /* \"#utility.yul\":4616:4622   */\n      0x00\n        /* \"#utility.yul\":4669:4671   */\n      0x20\n        /* \"#utility.yul\":4657:4666   */\n      dup3\n        /* \"#utility.yul\":4648:4655   */\n      dup5\n        /* \"#utility.yul\":4644:4667   */\n      sub\n        /* \"#utility.yul\":4640:4672   */\n      slt\n        /* \"#utility.yul\":4637:4689   */\n      iszero\n      tag_396\n      jumpi\n        /* \"#utility.yul\":4685:4686   */\n      0x00\n        /* \"#utility.yul\":4682:4683   */\n      0x00\n        /* \"#utility.yul\":4675:4687   */\n      revert\n        /* \"#utility.yul\":4637:4689   */\n    tag_396:\n      pop\n        /* \"#utility.yul\":4730:4746   */\n      mload\n      swap2\n        /* \"#utility.yul\":4546:4776   */\n      swap1\n      pop\n      jump\t// out\n        /* \"#utility.yul\":5189:5434   */\n    tag_155:\n        /* \"#utility.yul\":5256:5262   */\n      0x00\n        /* \"#utility.yul\":5309:5311   */\n      0x20\n        /* \"#utility.yul\":5297:5306   */\n      dup3\n        /* \"#utility.yul\":5288:5295   */\n      dup5\n        /* \"#utility.yul\":5284:5307   */\n      sub\n        /* \"#utility.yul\":5280:5312   */\n      slt\n        /* \"#utility.yul\":5277:5329   */\n      iszero\n      tag_399\n      jumpi\n        /* \"#utility.yul\":5325:5326   */\n      0x00\n        /* \"#utility.yul\":5322:5323   */\n      0x00\n        /* \"#utility.yul\":5315:5327   */\n      revert\n        /* \"#utility.yul\":5277:5329   */\n    tag_399:\n        /* \"#utility.yul\":5357:5366   */\n      dup2\n        /* \"#utility.yul\":5351:5367   */\n      mload\n        /* \"#utility.yul\":5376:5404   */\n      tag_367\n        /* \"#utility.yul\":5398:5403   */\n      dup2\n        /* \"#utility.yul\":5376:5404   */\n      tag_355\n      jump\t// in\n        /* \"#utility.yul\":5865:6033   */\n    tag_174:\n        /* \"#utility.yul\":5938:5947   */\n      dup1\n      dup3\n      mul\n        /* \"#utility.yul\":5969:5978   */\n      dup2\n      iszero\n        /* \"#utility.yul\":5986:6001   */\n      dup3\n      dup3\n      div\n        /* \"#utility.yul\":5980:6002   */\n      dup5\n      eq\n        /* \"#utility.yul\":5966:6003   */\n      or\n        /* \"#utility.yul\":5956:6027   */\n      tag_361\n      jumpi\n        /* \"#utility.yul\":6007:6025   */\n      tag_361\n      tag_353\n      jump\t// in\n        /* \"#utility.yul\":6038:6255   */\n    tag_176:\n        /* \"#utility.yul\":6078:6079   */\n      0x00\n        /* \"#utility.yul\":6104:6105   */\n      dup3\n        /* \"#utility.yul\":6094:6226   */\n      tag_406\n      jumpi\n        /* \"#utility.yul\":6148:6158   */\n      0x4e487b71\n        /* \"#utility.yul\":6143:6146   */\n      0xe0\n        /* \"#utility.yul\":6139:6159   */\n      shl\n        /* \"#utility.yul\":6136:6137   */\n      0x00\n        /* \"#utility.yul\":6129:6160   */\n      mstore\n        /* \"#utility.yul\":6183:6187   */\n      0x12\n        /* \"#utility.yul\":6180:6181   */\n      0x04\n        /* \"#utility.yul\":6173:6188   */\n      mstore\n        /* \"#utility.yul\":6211:6215   */\n      0x24\n        /* \"#utility.yul\":6208:6209   */\n      0x00\n        /* \"#utility.yul\":6201:6216   */\n      revert\n        /* \"#utility.yul\":6094:6226   */\n    tag_406:\n      pop\n        /* \"#utility.yul\":6240:6249   */\n      div\n      swap1\n        /* \"#utility.yul\":6038:6255   */\n      jump\t// out\n        /* \"#utility.yul\":6539:6667   */\n    tag_231:\n        /* \"#utility.yul\":6606:6615   */\n      dup2\n      dup2\n      sub\n        /* \"#utility.yul\":6627:6638   */\n      dup2\n      dup2\n      gt\n        /* \"#utility.yul\":6624:6661   */\n      iszero\n      tag_361\n      jumpi\n        /* \"#utility.yul\":6641:6659   */\n      tag_361\n      tag_353\n      jump\t// in\n        /* \"#utility.yul\":7725:8218   */\n    tag_256:\n        /* \"#utility.yul\":7902:7904   */\n      0x40\n        /* \"#utility.yul\":7891:7900   */\n      dup2\n        /* \"#utility.yul\":7884:7905   */\n      mstore\n        /* \"#utility.yul\":7865:7869   */\n      0x00\n        /* \"#utility.yul\":7934:7940   */\n      dup4\n        /* \"#utility.yul\":7928:7941   */\n      mload\n        /* \"#utility.yul\":7977:7983   */\n      dup1\n        /* \"#utility.yul\":7972:7974   */\n      0x40\n        /* \"#utility.yul\":7961:7970   */\n      dup5\n        /* \"#utility.yul\":7957:7975   */\n      add\n        /* \"#utility.yul\":7950:7984   */\n      mstore\n        /* \"#utility.yul\":8038:8044   */\n      dup1\n        /* \"#utility.yul\":8031:8035   */\n      0x20\n        /* \"#utility.yul\":8023:8029   */\n      dup7\n        /* \"#utility.yul\":8019:8036   */\n      add\n        /* \"#utility.yul\":8014:8016   */\n      0x60\n        /* \"#utility.yul\":8003:8012   */\n      dup6\n        /* \"#utility.yul\":7999:8017   */\n      add\n        /* \"#utility.yul\":7993:8045   */\n      mcopy\n        /* \"#utility.yul\":8094:8095   */\n      0x00\n        /* \"#utility.yul\":8089:8091   */\n      0x60\n        /* \"#utility.yul\":8080:8086   */\n      dup3\n        /* \"#utility.yul\":8069:8078   */\n      dup6\n        /* \"#utility.yul\":8065:8087   */\n      add\n        /* \"#utility.yul\":8061:8092   */\n      add\n        /* \"#utility.yul\":8054:8096   */\n      mstore\n        /* \"#utility.yul\":8164:8166   */\n      0x60\n        /* \"#utility.yul\":8157:8159   */\n      0x1f\n        /* \"#utility.yul\":8153:8160   */\n      not\n        /* \"#utility.yul\":8148:8150   */\n      0x1f\n        /* \"#utility.yul\":8140:8146   */\n      dup4\n        /* \"#utility.yul\":8136:8151   */\n      add\n        /* \"#utility.yul\":8132:8161   */\n      and\n        /* \"#utility.yul\":8121:8130   */\n      dup5\n        /* \"#utility.yul\":8117:8162   */\n      add\n        /* \"#utility.yul\":8113:8167   */\n      add\n        /* \"#utility.yul\":8105:8167   */\n      swap2\n      pop\n      pop\n        /* \"#utility.yul\":8205:8211   */\n      dup3\n        /* \"#utility.yul\":8198:8202   */\n      0x20\n        /* \"#utility.yul\":8187:8196   */\n      dup4\n        /* \"#utility.yul\":8183:8203   */\n      add\n        /* \"#utility.yul\":8176:8212   */\n      mstore\n        /* \"#utility.yul\":7725:8218   */\n      swap4\n      swap3\n      pop\n      pop\n      pop\n      jump\t// out\n        /* \"#utility.yul\":8633:8884   */\n    tag_281:\n        /* \"#utility.yul\":8703:8709   */\n      0x00\n        /* \"#utility.yul\":8756:8758   */\n      0x20\n        /* \"#utility.yul\":8744:8753   */\n      dup3\n        /* \"#utility.yul\":8735:8742   */\n      dup5\n        /* \"#utility.yul\":8731:8754   */\n      sub\n        /* \"#utility.yul\":8727:8759   */\n      slt\n        /* \"#utility.yul\":8724:8776   */\n      iszero\n      tag_417\n      jumpi\n        /* \"#utility.yul\":8772:8773   */\n      0x00\n        /* \"#utility.yul\":8769:8770   */\n      0x00\n        /* \"#utility.yul\":8762:8774   */\n      revert\n        /* \"#utility.yul\":8724:8776   */\n    tag_417:\n        /* \"#utility.yul\":8804:8813   */\n      dup2\n        /* \"#utility.yul\":8798:8814   */\n      mload\n        /* \"#utility.yul\":8823:8854   */\n      tag_367\n        /* \"#utility.yul\":8848:8853   */\n      dup2\n        /* \"#utility.yul\":8823:8854   */\n      tag_354\n      jump\t// in\n        /* \"#utility.yul\":9588:10074   */\n    tag_297:\n        /* \"#utility.yul\":9670:9676   */\n      0x00\n        /* \"#utility.yul\":9678:9684   */\n      0x00\n        /* \"#utility.yul\":9686:9692   */\n      0x00\n        /* \"#utility.yul\":9739:9741   */\n      0x60\n        /* \"#utility.yul\":9727:9736   */\n      dup5\n        /* \"#utility.yul\":9718:9725   */\n      dup7\n        /* \"#utility.yul\":9714:9737   */\n      sub\n        /* \"#utility.yul\":9710:9742   */\n      slt\n        /* \"#utility.yul\":9707:9759   */\n      iszero\n      tag_422\n      jumpi\n        /* \"#utility.yul\":9755:9756   */\n      0x00\n        /* \"#utility.yul\":9752:9753   */\n      0x00\n        /* \"#utility.yul\":9745:9757   */\n      revert\n        /* \"#utility.yul\":9707:9759   */\n    tag_422:\n        /* \"#utility.yul\":9800:9816   */\n      dup4\n      mload\n        /* \"#utility.yul\":9885:9887   */\n      0x20\n        /* \"#utility.yul\":9870:9888   */\n      dup6\n      add\n        /* \"#utility.yul\":9864:9889   */\n      mload\n        /* \"#utility.yul\":9800:9816   */\n      swap1\n      swap4\n      pop\n        /* \"#utility.yul\":9898:9928   */\n      tag_423\n        /* \"#utility.yul\":9864:9889   */\n      dup2\n        /* \"#utility.yul\":9898:9928   */\n      tag_355\n      jump\t// in\n    tag_423:\n        /* \"#utility.yul\":9999:10001   */\n      0x40\n        /* \"#utility.yul\":9984:10002   */\n      dup6\n      add\n        /* \"#utility.yul\":9978:10003   */\n      mload\n        /* \"#utility.yul\":9947:9954   */\n      swap1\n      swap3\n      pop\n        /* \"#utility.yul\":10012:10042   */\n      tag_424\n        /* \"#utility.yul\":9978:10003   */\n      dup2\n        /* \"#utility.yul\":10012:10042   */\n      tag_355\n      jump\t// in\n    tag_424:\n        /* \"#utility.yul\":10061:10068   */\n      dup1\n        /* \"#utility.yul\":10051:10068   */\n      swap2\n      pop\n      pop\n        /* \"#utility.yul\":9588:10074   */\n      swap3\n      pop\n      swap3\n      pop\n      swap3\n      jump\t// out\n        /* \"#utility.yul\":11249:11385   */\n    tag_315:\n        /* \"#utility.yul\":11288:11291   */\n      0x00\n        /* \"#utility.yul\":11316:11321   */\n      dup2\n        /* \"#utility.yul\":11306:11345   */\n      tag_430\n      jumpi\n        /* \"#utility.yul\":11325:11343   */\n      tag_430\n      tag_353\n      jump\t// in\n    tag_430:\n      pop\n      not(0x00)\n        /* \"#utility.yul\":11361:11379   */\n      add\n      swap1\n        /* \"#utility.yul\":11249:11385   */\n      jump\t// out\n        /* \"#utility.yul\":11390:11525   */\n    tag_317:\n        /* \"#utility.yul\":11429:11432   */\n      0x00\n        /* \"#utility.yul\":11450:11467   */\n      0x01\n      dup3\n      add\n        /* \"#utility.yul\":11447:11490   */\n      tag_433\n      jumpi\n        /* \"#utility.yul\":11470:11488   */\n      tag_433\n      tag_353\n      jump\t// in\n    tag_433:\n      pop\n        /* \"#utility.yul\":11517:11518   */\n      0x01\n        /* \"#utility.yul\":11506:11519   */\n      add\n      swap1\n        /* \"#utility.yul\":11390:11525   */\n      jump\t// out\n\n    auxdata: 0xa26469706673582212201335e5939211a6caa46437ec39c217721f6aa38be6ef161aedd67491da143b1364736f6c63430008220033\n}\n",
				"bytecode": {
					"linkReferences": {},
					"object": "608060405234801561000f575f5ffd5b50604051611a5a380380611a5a83398101604081905261002e9161011a565b338061005357604051631e4fbdf760e01b81525f600482015260240160405180910390fd5b61005c816100b0565b50600180546001600160a01b039586166001600160a01b031991821617909155600280549486169482169490941790935560038054928516928416929092179091556004805491909316911617905561016b565b5f80546001600160a01b038381166001600160a01b0319831681178455604051919092169283917f8be0079c531659141344cd1fd0a4f28419497f9722a3daafe3b4186f6b6457e09190a35050565b80516001600160a01b0381168114610115575f5ffd5b919050565b5f5f5f5f6080858703121561012d575f5ffd5b610136856100ff565b9350610144602086016100ff565b9250610152604086016100ff565b9150610160606086016100ff565b905092959194509250565b6118e2806101785f395ff3fe608060405260043610610134575f3560e01c80638da5cb5b116100a8578063a83cb9ab1161006d578063a83cb9ab146103ae578063bb6c0ae1146103d9578063c7e95e37146103f8578063da9129891461040d578063dd6c439814610422578063f2fde38b14610441575f5ffd5b80638da5cb5b146103015780638e9abef01461031d5780638ea8f83c1461033257806395ccea67146103515780639b19251a14610370575f5ffd5b80634e71d92d116100f95780634e71d92d1461026557806353d6fd591461027b578063545bf9ad1461029a578063641117f4146102af578063715018a6146102ce57806383db58fe146102e2575f5ffd5b806309aa92e3146101a75780632f48ab7d146101e55780633540beff1461021c57806348e66c041461023157806348fe85e214610250575f5ffd5b366101a3573460065f82825461014a91906115a7565b909155505060408051818152600a818301526934b73b32b9ba2fb1373160b11b606082015234602082015290517f82d98a00c349d609e6ab098b00d153a6f84a70abfd6074c0dcc81c83e5e22ca89181900360800190a1005b5f5ffd5b3480156101b2575f5ffd5b506101d26101c13660046115d4565b60096020525f908152604090205481565b6040519081526020015b60405180910390f35b3480156101f0575f5ffd5b50600454610204906001600160a01b031681565b6040516001600160a01b0390911681526020016101dc565b348015610227575f5ffd5b506101d260065481565b34801561023c575f5ffd5b50600254610204906001600160a01b031681565b34801561025b575f5ffd5b506101d260075481565b348015610270575f5ffd5b50610279610460565b005b348015610286575f5ffd5b50610279610295366004611603565b610b84565b3480156102a5575f5ffd5b506101d260055481565b3480156102ba575f5ffd5b506102796102c936600461164e565b610bb6565b3480156102d9575f5ffd5b50610279610da2565b3480156102ed575f5ffd5b506102796102fc36600461170b565b610db5565b34801561030c575f5ffd5b505f546001600160a01b0316610204565b348015610328575f5ffd5b506101d2600d5481565b34801561033d575f5ffd5b5061027961034c366004611722565b610f02565b34801561035c575f5ffd5b5061027961036b366004611742565b6113fc565b34801561037b575f5ffd5b5061039e61038a3660046115d4565b600b6020525f908152604090205460ff1681565b60405190151581526020016101dc565b3480156103b9575f5ffd5b506101d26103c83660046115d4565b600a6020525f908152604090205481565b3480156103e4575f5ffd5b50600154610204906001600160a01b031681565b348015610403575f5ffd5b506101d2600c5481565b348015610418575f5ffd5b506101d260085481565b34801561042d575f5ffd5b50600354610204906001600160a01b031681565b34801561044c575f5ffd5b5061027961045b3660046115d4565b6114db565b60025433905f906001600160a01b0316158015906104e757506002546040516370a0823160e01b81526001600160a01b0384811660048301525f9216906370a0823190602401602060405180830381865afa1580156104c1573d5f5f3e3d5ffd5b505050506040513d601f19601f820116820180604052508101906104e5919061176c565b115b6003549091505f906001600160a01b03161580159061056f57506003546040516370a0823160e01b81526001600160a01b0385811660048301525f9216906370a0823190602401602060405180830381865afa158015610549573d5f5f3e3d5ffd5b505050506040513d601f19601f8201168201806040525081019061056d919061176c565b115b9050818061057a5750805b6105db5760405162461bcd60e51b815260206004820152602760248201527f596f75206d75737420686f6c64204d61696e436172644e4654206f722053756260448201526610d85c9913919560ca1b60648201526084015b60405180910390fd5b5f808380156105f457506002546001600160a01b031615155b1561066857600254604051630459903360e11b81526001600160a01b038781166004830152909116906308b3206690602401602060405180830381865afa158015610641573d5f5f3e3d5ffd5b505050506040513d601f19601f820116820180604052508101906106659190611783565b91505b82801561067f57506003546001600160a01b031615155b156106f357600354604051630459903360e11b81526001600160a01b038781166004830152909116906308b3206690602401602060405180830381865afa1580156106cc573d5f5f3e3d5ffd5b505050506040513d601f19601f820116820180604052508101906106f09190611783565b90505b81806106fc5750805b61076e5760405162461bcd60e51b815260206004820152603960248201527f596f75206d7573742070617920302e3220424e422061637469766174696f6e2060448201527f66656520746f204e465420636f6e74726163742066697273740000000000000060648201526084016105d2565b600d54600c545f9182918291829161078691906115a7565b9050805f0361079a57505050505050505050565b5f6005541180156107b957505f600d54600c546107b791906115a7565b115b1561084e578580156107cc57505f600c54115b1561080657600c54606460055460466107e5919061179e565b6107ef91906117b5565b6107f991906117b5565b61080390856115a7565b93505b84801561081457505f600d54115b1561084e57600d546064600554601e61082d919061179e565b61083791906117b5565b61084191906117b5565b61084b90856115a7565b93505b5f60085460075461085f91906115a7565b90505f8111801561087e57505f600d54600c5461087c91906115a7565b115b1561090b5786801561089157505f600c54115b156108c757600c5460646108a683604661179e565b6108b091906117b5565b6108ba91906117b5565b6108c490856115a7565b93505b8580156108d557505f600d54115b1561090b57600d5460646108ea83601e61179e565b6108f491906117b5565b6108fe91906117b5565b61090890856115a7565b93505b5f60065411801561092a57505f600d54600c5461092891906115a7565b115b156109bf5786801561093d57505f600c54115b1561097757600c5460646006546046610956919061179e565b61096091906117b5565b61096a91906117b5565b61097490846115a7565b92505b85801561098557505f600d54115b156109bf57600d546064600654601e61099e919061179e565b6109a891906117b5565b6109b291906117b5565b6109bc90846115a7565b92505b8415610a3d576004805460405163a9059cbb60e01b81526001600160a01b038d8116938201939093526024810188905291169063a9059cbb906044016020604051808303815f875af1158015610a17573d5f5f3e3d5ffd5b505050506040513d601f19601f82011682018060405250810190610a3b9190611783565b505b8315610ab95760015460405163a9059cbb60e01b81526001600160a01b038c81166004830152602482018790529091169063a9059cbb906044016020604051808303815f875af1158015610a93573d5f5f3e3d5ffd5b505050506040513d601f19601f82011682018060405250810190610ab79190611783565b505b8215610af4576040516001600160a01b038b169084156108fc029085905f818181858888f19350505050158015610af2573d5f5f3e3d5ffd5b505b8460055f828254610b0591906117d4565b90915550505f6007819055600881905560068054859290610b279084906117d4565b909155505060408051868152602081018690529081018490526001600160a01b038b16907f9cdcf2f7714cca3508c7f0110b04a90a80a3a8dd0e35de99689db74d28c5383e9060600160405180910390a250505050505050505050565b610b8c611518565b6001600160a01b03919091165f908152600b60205260409020805460ff1916911515919091179055565b6001546001600160a01b0316331480610bd857505f546001600160a01b031633145b610c1f5760405162461bcd60e51b815260206004820152601860248201527727b7363c902927a6a0a72a37b5b2b71037b91037bbb732b960411b60448201526064016105d2565b6001546040516323b872dd60e01b8152336004820152306024820152604481018490526001600160a01b03909116906323b872dd906064016020604051808303815f875af1158015610c73573d5f5f3e3d5ffd5b505050506040513d601f19601f82011682018060405250810190610c979190611783565b506040805180820190915260098152680616e74695f64756d760bc1b6020918201528151908201207fa3f057a9a7d57709b5114f83b343454e80cc0f1a75bf54e2a6643d70b90e72d201610d01578160075f828254610cf691906115a7565b90915550610d659050565b604080518082019091526009815268686173685f67616d6560b81b6020918201528151908201207fd1f02842571171eeaede1665bd9f96206160ba4123ea0c0035d2e3b1c40beafd01610d65578160085f828254610d5f91906115a7565b90915550505b7f82d98a00c349d609e6ab098b00d153a6f84a70abfd6074c0dcc81c83e5e22ca88183604051610d969291906117e7565b60405180910390a15050565b610daa611518565b610db35f611544565b565b6001546001600160a01b0316331480610dd757505f546001600160a01b031633145b610e1e5760405162461bcd60e51b815260206004820152601860248201527727b7363c902927a6a0a72a37b5b2b71037b91037bbb732b960411b60448201526064016105d2565b600480546040516323b872dd60e01b81523392810192909252306024830152604482018390526001600160a01b0316906323b872dd906064016020604051808303815f875af1158015610e73573d5f5f3e3d5ffd5b505050506040513d601f19601f82011682018060405250810190610e979190611783565b508060055f828254610ea991906115a7565b9091555050604080518181526008818301526719995957dd5cd91d60c21b60608201526020810183905290517f82d98a00c349d609e6ab098b00d153a6f84a70abfd6074c0dcc81c83e5e22ca89181900360800190a150565b338215610fc4576002546040516331a9108f60e11b8152600481018590526001600160a01b03838116921690636352211e90602401602060405180830381865afa158015610f52573d5f5f3e3d5ffd5b505050506040513d601f19601f82011682018060405250810190610f769190611823565b6001600160a01b031614610fc45760405162461bcd60e51b8152602060048201526015602482015274139bdd081bdddb995c881bd9881b585a5b88139195605a1b60448201526064016105d2565b8115611084576003546040516331a9108f60e11b8152600481018490526001600160a01b03838116921690636352211e90602401602060405180830381865afa158015611013573d5f5f3e3d5ffd5b505050506040513d601f19601f820116820180604052508101906110379190611823565b6001600160a01b0316146110845760405162461bcd60e51b8152602060048201526014602482015273139bdd081bdddb995c881bd9881cdd588813919560621b60448201526064016105d2565b60015460405163ea0d5dcd60e01b81526001600160a01b0383811660048301525f92839291169063ea0d5dcd90602401606060405180830381865afa1580156110cf573d5f5f3e3d5ffd5b505050506040513d601f19601f820116820180604052508101906110f3919061183e565b509150915066071afd498d0000821015801561110c5750805b6111585760405162461bcd60e51b815260206004820181905260248201527f4e656564206174206c6561737420302e3220424e4220696e766573746d656e7460448201526064016105d2565b6001600160a01b0383165f908152600b602052604090205460ff1661129b576001600160a01b0383165f9081526009602052604090205415806111b157506001600160a01b0383165f9081526009602052604090205485145b6112095760405162461bcd60e51b8152602060048201526024808201527f416c72656164792061637469766174656420646966666572656e74206d61696e6044820152630813919560e21b60648201526084016105d2565b6001600160a01b0383165f908152600a6020526040902054158061124357506001600160a01b0383165f908152600a602052604090205484145b61129b5760405162461bcd60e51b815260206004820152602360248201527f416c72656164792061637469766174656420646966666572656e74207375622060448201526213919560ea1b60648201526084016105d2565b84158015906112c157506001600160a01b0383165f908152600960205260409020548514155b15611326576001600160a01b0383165f90815260096020526040902054156112f857600c8054905f6112f28361187f565b91905055505b6001600160a01b0383165f908152600960205260408120869055600c80549161132083611894565b91905055505b831580159061134c57506001600160a01b0383165f908152600a60205260409020548414155b156113b1576001600160a01b0383165f908152600a60205260409020541561138357600d8054905f61137d8361187f565b91905055505b6001600160a01b0383165f908152600a60205260408120859055600d8054916113ab83611894565b91905055505b60408051868152602081018690526001600160a01b038516917ff89be561c4ce44410305a86555ebae8b579de22890a703ac89051c5971b5d4dc910160405180910390a25050505050565b611404611518565b6001600160a01b03821661144d575f80546040516001600160a01b039091169183156108fc02918491818181858888f19350505050158015611448573d5f5f3e3d5ffd5b505050565b816001600160a01b031663a9059cbb61146d5f546001600160a01b031690565b6040516001600160e01b031960e084901b1681526001600160a01b039091166004820152602481018490526044016020604051808303815f875af11580156114b7573d5f5f3e3d5ffd5b505050506040513d601f19601f820116820180604052508101906114489190611783565b6114e3611518565b6001600160a01b03811661150c57604051631e4fbdf760e01b81525f60048201526024016105d2565b61151581611544565b50565b5f546001600160a01b03163314610db35760405163118cdaa760e01b81523360048201526024016105d2565b5f80546001600160a01b038381166001600160a01b0319831681178455604051919092169283917f8be0079c531659141344cd1fd0a4f28419497f9722a3daafe3b4186f6b6457e09190a35050565b634e487b7160e01b5f52601160045260245ffd5b808201808211156115ba576115ba611593565b92915050565b6001600160a01b0381168114611515575f5ffd5b5f602082840312156115e4575f5ffd5b81356115ef816115c0565b9392505050565b8015158114611515575f5ffd5b5f5f60408385031215611614575f5ffd5b823561161f816115c0565b9150602083013561162f816115f6565b809150509250929050565b634e487b7160e01b5f52604160045260245ffd5b5f5f6040838503121561165f575f5ffd5b82359150602083013567ffffffffffffffff81111561167c575f5ffd5b8301601f8101851361168c575f5ffd5b803567ffffffffffffffff8111156116a6576116a661163a565b604051601f8201601f19908116603f0116810167ffffffffffffffff811182821017156116d5576116d561163a565b6040528181528282016020018710156116ec575f5ffd5b816020840160208301375f602083830101528093505050509250929050565b5f6020828403121561171b575f5ffd5b5035919050565b5f5f60408385031215611733575f5ffd5b50508035926020909101359150565b5f5f60408385031215611753575f5ffd5b823561175e816115c0565b946020939093013593505050565b5f6020828403121561177c575f5ffd5b5051919050565b5f60208284031215611793575f5ffd5b81516115ef816115f6565b80820281158282048414176115ba576115ba611593565b5f826117cf57634e487b7160e01b5f52601260045260245ffd5b500490565b818103818111156115ba576115ba611593565b604081525f83518060408401528060208601606085015e5f606082850101526060601f19601f8301168401019150508260208301529392505050565b5f60208284031215611833575f5ffd5b81516115ef816115c0565b5f5f5f60608486031215611850575f5ffd5b83516020850151909350611863816115f6565b6040850151909250611874816115f6565b809150509250925092565b5f8161188d5761188d611593565b505f190190565b5f600182016118a5576118a5611593565b506001019056fea26469706673582212201335e5939211a6caa46437ec39c217721f6aa38be6ef161aedd67491da143b1364736f6c63430008220033",
					"opcodes": "PUSH1 0x80 PUSH1 0x40 MSTORE CALLVALUE DUP1 ISZERO PUSH2 0xF JUMPI PUSH0 PUSH0 REVERT JUMPDEST POP PUSH1 0x40 MLOAD PUSH2 0x1A5A CODESIZE SUB DUP1 PUSH2 0x1A5A DUP4 CODECOPY DUP2 ADD PUSH1 0x40 DUP2 SWAP1 MSTORE PUSH2 0x2E SWAP2 PUSH2 0x11A JUMP JUMPDEST CALLER DUP1 PUSH2 0x53 JUMPI PUSH1 0x40 MLOAD PUSH4 0x1E4FBDF7 PUSH1 0xE0 SHL DUP2 MSTORE PUSH0 PUSH1 0x4 DUP3 ADD MSTORE PUSH1 0x24 ADD PUSH1 0x40 MLOAD DUP1 SWAP2 SUB SWAP1 REVERT JUMPDEST PUSH2 0x5C DUP2 PUSH2 0xB0 JUMP JUMPDEST POP PUSH1 0x1 DUP1 SLOAD PUSH1 0x1 PUSH1 0x1 PUSH1 0xA0 SHL SUB SWAP6 DUP7 AND PUSH1 0x1 PUSH1 0x1 PUSH1 0xA0 SHL SUB NOT SWAP2 DUP3 AND OR SWAP1 SWAP2 SSTORE PUSH1 0x2 DUP1 SLOAD SWAP5 DUP7 AND SWAP5 DUP3 AND SWAP5 SWAP1 SWAP5 OR SWAP1 SWAP4 SSTORE PUSH1 0x3 DUP1 SLOAD SWAP3 DUP6 AND SWAP3 DUP5 AND SWAP3 SWAP1 SWAP3 OR SWAP1 SWAP2 SSTORE PUSH1 0x4 DUP1 SLOAD SWAP2 SWAP1 SWAP4 AND SWAP2 AND OR SWAP1 SSTORE PUSH2 0x16B JUMP JUMPDEST PUSH0 DUP1 SLOAD PUSH1 0x1 PUSH1 0x1 PUSH1 0xA0 SHL SUB DUP4 DUP2 AND PUSH1 0x1 PUSH1 0x1 PUSH1 0xA0 SHL SUB NOT DUP4 AND DUP2 OR DUP5 SSTORE PUSH1 0x40 MLOAD SWAP2 SWAP1 SWAP3 AND SWAP3 DUP4 SWAP2 PUSH32 0x8BE0079C531659141344CD1FD0A4F28419497F9722A3DAAFE3B4186F6B6457E0 SWAP2 SWAP1 LOG3 POP POP JUMP JUMPDEST DUP1 MLOAD PUSH1 0x1 PUSH1 0x1 PUSH1 0xA0 SHL SUB DUP2 AND DUP2 EQ PUSH2 0x115 JUMPI PUSH0 PUSH0 REVERT JUMPDEST SWAP2 SWAP1 POP JUMP JUMPDEST PUSH0 PUSH0 PUSH0 PUSH0 PUSH1 0x80 DUP6 DUP8 SUB SLT ISZERO PUSH2 0x12D JUMPI PUSH0 PUSH0 REVERT JUMPDEST PUSH2 0x136 DUP6 PUSH2 0xFF JUMP JUMPDEST SWAP4 POP PUSH2 0x144 PUSH1 0x20 DUP7 ADD PUSH2 0xFF JUMP JUMPDEST SWAP3 POP PUSH2 0x152 PUSH1 0x40 DUP7 ADD PUSH2 0xFF JUMP JUMPDEST SWAP2 POP PUSH2 0x160 PUSH1 0x60 DUP7 ADD PUSH2 0xFF JUMP JUMPDEST SWAP1 POP SWAP3 SWAP6 SWAP2 SWAP5 POP SWAP3 POP JUMP JUMPDEST PUSH2 0x18E2 DUP1 PUSH2 0x178 PUSH0 CODECOPY PUSH0 RETURN INVALID PUSH1 0x80 PUSH1 0x40 MSTORE PUSH1 0x4 CALLDATASIZE LT PUSH2 0x134 JUMPI PUSH0 CALLDATALOAD PUSH1 0xE0 SHR DUP1 PUSH4 0x8DA5CB5B GT PUSH2 0xA8 JUMPI DUP1 PUSH4 0xA83CB9AB GT PUSH2 0x6D JUMPI DUP1 PUSH4 0xA83CB9AB EQ PUSH2 0x3AE JUMPI DUP1 PUSH4 0xBB6C0AE1 EQ PUSH2 0x3D9 JUMPI DUP1 PUSH4 0xC7E95E37 EQ PUSH2 0x3F8 JUMPI DUP1 PUSH4 0xDA912989 EQ PUSH2 0x40D JUMPI DUP1 PUSH4 0xDD6C4398 EQ PUSH2 0x422 JUMPI DUP1 PUSH4 0xF2FDE38B EQ PUSH2 0x441 JUMPI PUSH0 PUSH0 REVERT JUMPDEST DUP1 PUSH4 0x8DA5CB5B EQ PUSH2 0x301 JUMPI DUP1 PUSH4 0x8E9ABEF0 EQ PUSH2 0x31D JUMPI DUP1 PUSH4 0x8EA8F83C EQ PUSH2 0x332 JUMPI DUP1 PUSH4 0x95CCEA67 EQ PUSH2 0x351 JUMPI DUP1 PUSH4 0x9B19251A EQ PUSH2 0x370 JUMPI PUSH0 PUSH0 REVERT JUMPDEST DUP1 PUSH4 0x4E71D92D GT PUSH2 0xF9 JUMPI DUP1 PUSH4 0x4E71D92D EQ PUSH2 0x265 JUMPI DUP1 PUSH4 0x53D6FD59 EQ PUSH2 0x27B JUMPI DUP1 PUSH4 0x545BF9AD EQ PUSH2 0x29A JUMPI DUP1 PUSH4 0x641117F4 EQ PUSH2 0x2AF JUMPI DUP1 PUSH4 0x715018A6 EQ PUSH2 0x2CE JUMPI DUP1 PUSH4 0x83DB58FE EQ PUSH2 0x2E2 JUMPI PUSH0 PUSH0 REVERT JUMPDEST DUP1 PUSH4 0x9AA92E3 EQ PUSH2 0x1A7 JUMPI DUP1 PUSH4 0x2F48AB7D EQ PUSH2 0x1E5 JUMPI DUP1 PUSH4 0x3540BEFF EQ PUSH2 0x21C JUMPI DUP1 PUSH4 0x48E66C04 EQ PUSH2 0x231 JUMPI DUP1 PUSH4 0x48FE85E2 EQ PUSH2 0x250 JUMPI PUSH0 PUSH0 REVERT JUMPDEST CALLDATASIZE PUSH2 0x1A3 JUMPI CALLVALUE PUSH1 0x6 PUSH0 DUP3 DUP3 SLOAD PUSH2 0x14A SWAP2 SWAP1 PUSH2 0x15A7 JUMP JUMPDEST SWAP1 SWAP2 SSTORE POP POP PUSH1 0x40 DUP1 MLOAD DUP2 DUP2 MSTORE PUSH1 0xA DUP2 DUP4 ADD MSTORE PUSH10 0x34B73B32B9BA2FB13731 PUSH1 0xB1 SHL PUSH1 0x60 DUP3 ADD MSTORE CALLVALUE PUSH1 0x20 DUP3 ADD MSTORE SWAP1 MLOAD PUSH32 0x82D98A00C349D609E6AB098B00D153A6F84A70ABFD6074C0DCC81C83E5E22CA8 SWAP2 DUP2 SWAP1 SUB PUSH1 0x80 ADD SWAP1 LOG1 STOP JUMPDEST PUSH0 PUSH0 REVERT JUMPDEST CALLVALUE DUP1 ISZERO PUSH2 0x1B2 JUMPI PUSH0 PUSH0 REVERT JUMPDEST POP PUSH2 0x1D2 PUSH2 0x1C1 CALLDATASIZE PUSH1 0x4 PUSH2 0x15D4 JUMP JUMPDEST PUSH1 0x9 PUSH1 0x20 MSTORE PUSH0 SWAP1 DUP2 MSTORE PUSH1 0x40 SWAP1 KECCAK256 SLOAD DUP2 JUMP JUMPDEST PUSH1 0x40 MLOAD SWAP1 DUP2 MSTORE PUSH1 0x20 ADD JUMPDEST PUSH1 0x40 MLOAD DUP1 SWAP2 SUB SWAP1 RETURN JUMPDEST CALLVALUE DUP1 ISZERO PUSH2 0x1F0 JUMPI PUSH0 PUSH0 REVERT JUMPDEST POP PUSH1 0x4 SLOAD PUSH2 0x204 SWAP1 PUSH1 0x1 PUSH1 0x1 PUSH1 0xA0 SHL SUB AND DUP2 JUMP JUMPDEST PUSH1 0x40 MLOAD PUSH1 0x1 PUSH1 0x1 PUSH1 0xA0 SHL SUB SWAP1 SWAP2 AND DUP2 MSTORE PUSH1 0x20 ADD PUSH2 0x1DC JUMP JUMPDEST CALLVALUE DUP1 ISZERO PUSH2 0x227 JUMPI PUSH0 PUSH0 REVERT JUMPDEST POP PUSH2 0x1D2 PUSH1 0x6 SLOAD DUP2 JUMP JUMPDEST CALLVALUE DUP1 ISZERO PUSH2 0x23C JUMPI PUSH0 PUSH0 REVERT JUMPDEST POP PUSH1 0x2 SLOAD PUSH2 0x204 SWAP1 PUSH1 0x1 PUSH1 0x1 PUSH1 0xA0 SHL SUB AND DUP2 JUMP JUMPDEST CALLVALUE DUP1 ISZERO PUSH2 0x25B JUMPI PUSH0 PUSH0 REVERT JUMPDEST POP PUSH2 0x1D2 PUSH1 0x7 SLOAD DUP2 JUMP JUMPDEST CALLVALUE DUP1 ISZERO PUSH2 0x270 JUMPI PUSH0 PUSH0 REVERT JUMPDEST POP PUSH2 0x279 PUSH2 0x460 JUMP JUMPDEST STOP JUMPDEST CALLVALUE DUP1 ISZERO PUSH2 0x286 JUMPI PUSH0 PUSH0 REVERT JUMPDEST POP PUSH2 0x279 PUSH2 0x295 CALLDATASIZE PUSH1 0x4 PUSH2 0x1603 JUMP JUMPDEST PUSH2 0xB84 JUMP JUMPDEST CALLVALUE DUP1 ISZERO PUSH2 0x2A5 JUMPI PUSH0 PUSH0 REVERT JUMPDEST POP PUSH2 0x1D2 PUSH1 0x5 SLOAD DUP2 JUMP JUMPDEST CALLVALUE DUP1 ISZERO PUSH2 0x2BA JUMPI PUSH0 PUSH0 REVERT JUMPDEST POP PUSH2 0x279 PUSH2 0x2C9 CALLDATASIZE PUSH1 0x4 PUSH2 0x164E JUMP JUMPDEST PUSH2 0xBB6 JUMP JUMPDEST CALLVALUE DUP1 ISZERO PUSH2 0x2D9 JUMPI PUSH0 PUSH0 REVERT JUMPDEST POP PUSH2 0x279 PUSH2 0xDA2 JUMP JUMPDEST CALLVALUE DUP1 ISZERO PUSH2 0x2ED JUMPI PUSH0 PUSH0 REVERT JUMPDEST POP PUSH2 0x279 PUSH2 0x2FC CALLDATASIZE PUSH1 0x4 PUSH2 0x170B JUMP JUMPDEST PUSH2 0xDB5 JUMP JUMPDEST CALLVALUE DUP1 ISZERO PUSH2 0x30C JUMPI PUSH0 PUSH0 REVERT JUMPDEST POP PUSH0 SLOAD PUSH1 0x1 PUSH1 0x1 PUSH1 0xA0 SHL SUB AND PUSH2 0x204 JUMP JUMPDEST CALLVALUE DUP1 ISZERO PUSH2 0x328 JUMPI PUSH0 PUSH0 REVERT JUMPDEST POP PUSH2 0x1D2 PUSH1 0xD SLOAD DUP2 JUMP JUMPDEST CALLVALUE DUP1 ISZERO PUSH2 0x33D JUMPI PUSH0 PUSH0 REVERT JUMPDEST POP PUSH2 0x279 PUSH2 0x34C CALLDATASIZE PUSH1 0x4 PUSH2 0x1722 JUMP JUMPDEST PUSH2 0xF02 JUMP JUMPDEST CALLVALUE DUP1 ISZERO PUSH2 0x35C JUMPI PUSH0 PUSH0 REVERT JUMPDEST POP PUSH2 0x279 PUSH2 0x36B CALLDATASIZE PUSH1 0x4 PUSH2 0x1742 JUMP JUMPDEST PUSH2 0x13FC JUMP JUMPDEST CALLVALUE DUP1 ISZERO PUSH2 0x37B JUMPI PUSH0 PUSH0 REVERT JUMPDEST POP PUSH2 0x39E PUSH2 0x38A CALLDATASIZE PUSH1 0x4 PUSH2 0x15D4 JUMP JUMPDEST PUSH1 0xB PUSH1 0x20 MSTORE PUSH0 SWAP1 DUP2 MSTORE PUSH1 0x40 SWAP1 KECCAK256 SLOAD PUSH1 0xFF AND DUP2 JUMP JUMPDEST PUSH1 0x40 MLOAD SWAP1 ISZERO ISZERO DUP2 MSTORE PUSH1 0x20 ADD PUSH2 0x1DC JUMP JUMPDEST CALLVALUE DUP1 ISZERO PUSH2 0x3B9 JUMPI PUSH0 PUSH0 REVERT JUMPDEST POP PUSH2 0x1D2 PUSH2 0x3C8 CALLDATASIZE PUSH1 0x4 PUSH2 0x15D4 JUMP JUMPDEST PUSH1 0xA PUSH1 0x20 MSTORE PUSH0 SWAP1 DUP2 MSTORE PUSH1 0x40 SWAP1 KECCAK256 SLOAD DUP2 JUMP JUMPDEST CALLVALUE DUP1 ISZERO PUSH2 0x3E4 JUMPI PUSH0 PUSH0 REVERT JUMPDEST POP PUSH1 0x1 SLOAD PUSH2 0x204 SWAP1 PUSH1 0x1 PUSH1 0x1 PUSH1 0xA0 SHL SUB AND DUP2 JUMP JUMPDEST CALLVALUE DUP1 ISZERO PUSH2 0x403 JUMPI PUSH0 PUSH0 REVERT JUMPDEST POP PUSH2 0x1D2 PUSH1 0xC SLOAD DUP2 JUMP JUMPDEST CALLVALUE DUP1 ISZERO PUSH2 0x418 JUMPI PUSH0 PUSH0 REVERT JUMPDEST POP PUSH2 0x1D2 PUSH1 0x8 SLOAD DUP2 JUMP JUMPDEST CALLVALUE DUP1 ISZERO PUSH2 0x42D JUMPI PUSH0 PUSH0 REVERT JUMPDEST POP PUSH1 0x3 SLOAD PUSH2 0x204 SWAP1 PUSH1 0x1 PUSH1 0x1 PUSH1 0xA0 SHL SUB AND DUP2 JUMP JUMPDEST CALLVALUE DUP1 ISZERO PUSH2 0x44C JUMPI PUSH0 PUSH0 REVERT JUMPDEST POP PUSH2 0x279 PUSH2 0x45B CALLDATASIZE PUSH1 0x4 PUSH2 0x15D4 JUMP JUMPDEST PUSH2 0x14DB JUMP JUMPDEST PUSH1 0x2 SLOAD CALLER SWAP1 PUSH0 SWAP1 PUSH1 0x1 PUSH1 0x1 PUSH1 0xA0 SHL SUB AND ISZERO DUP1 ISZERO SWAP1 PUSH2 0x4E7 JUMPI POP PUSH1 0x2 SLOAD PUSH1 0x40 MLOAD PUSH4 0x70A08231 PUSH1 0xE0 SHL DUP2 MSTORE PUSH1 0x1 PUSH1 0x1 PUSH1 0xA0 SHL SUB DUP5 DUP2 AND PUSH1 0x4 DUP4 ADD MSTORE PUSH0 SWAP3 AND SWAP1 PUSH4 0x70A08231 SWAP1 PUSH1 0x24 ADD PUSH1 0x20 PUSH1 0x40 MLOAD DUP1 DUP4 SUB DUP2 DUP7 GAS STATICCALL ISZERO DUP1 ISZERO PUSH2 0x4C1 JUMPI RETURNDATASIZE PUSH0 PUSH0 RETURNDATACOPY RETURNDATASIZE PUSH0 REVERT JUMPDEST POP POP POP POP PUSH1 0x40 MLOAD RETURNDATASIZE PUSH1 0x1F NOT PUSH1 0x1F DUP3 ADD AND DUP3 ADD DUP1 PUSH1 0x40 MSTORE POP DUP2 ADD SWAP1 PUSH2 0x4E5 SWAP2 SWAP1 PUSH2 0x176C JUMP JUMPDEST GT JUMPDEST PUSH1 0x3 SLOAD SWAP1 SWAP2 POP PUSH0 SWAP1 PUSH1 0x1 PUSH1 0x1 PUSH1 0xA0 SHL SUB AND ISZERO DUP1 ISZERO SWAP1 PUSH2 0x56F JUMPI POP PUSH1 0x3 SLOAD PUSH1 0x40 MLOAD PUSH4 0x70A08231 PUSH1 0xE0 SHL DUP2 MSTORE PUSH1 0x1 PUSH1 0x1 PUSH1 0xA0 SHL SUB DUP6 DUP2 AND PUSH1 0x4 DUP4 ADD MSTORE PUSH0 SWAP3 AND SWAP1 PUSH4 0x70A08231 SWAP1 PUSH1 0x24 ADD PUSH1 0x20 PUSH1 0x40 MLOAD DUP1 DUP4 SUB DUP2 DUP7 GAS STATICCALL ISZERO DUP1 ISZERO PUSH2 0x549 JUMPI RETURNDATASIZE PUSH0 PUSH0 RETURNDATACOPY RETURNDATASIZE PUSH0 REVERT JUMPDEST POP POP POP POP PUSH1 0x40 MLOAD RETURNDATASIZE PUSH1 0x1F NOT PUSH1 0x1F DUP3 ADD AND DUP3 ADD DUP1 PUSH1 0x40 MSTORE POP DUP2 ADD SWAP1 PUSH2 0x56D SWAP2 SWAP1 PUSH2 0x176C JUMP JUMPDEST GT JUMPDEST SWAP1 POP DUP2 DUP1 PUSH2 0x57A JUMPI POP DUP1 JUMPDEST PUSH2 0x5DB JUMPI PUSH1 0x40 MLOAD PUSH3 0x461BCD PUSH1 0xE5 SHL DUP2 MSTORE PUSH1 0x20 PUSH1 0x4 DUP3 ADD MSTORE PUSH1 0x27 PUSH1 0x24 DUP3 ADD MSTORE PUSH32 0x596F75206D75737420686F6C64204D61696E436172644E4654206F7220537562 PUSH1 0x44 DUP3 ADD MSTORE PUSH7 0x10D85C99139195 PUSH1 0xCA SHL PUSH1 0x64 DUP3 ADD MSTORE PUSH1 0x84 ADD JUMPDEST PUSH1 0x40 MLOAD DUP1 SWAP2 SUB SWAP1 REVERT JUMPDEST PUSH0 DUP1 DUP4 DUP1 ISZERO PUSH2 0x5F4 JUMPI POP PUSH1 0x2 SLOAD PUSH1 0x1 PUSH1 0x1 PUSH1 0xA0 SHL SUB AND ISZERO ISZERO JUMPDEST ISZERO PUSH2 0x668 JUMPI PUSH1 0x2 SLOAD PUSH1 0x40 MLOAD PUSH4 0x4599033 PUSH1 0xE1 SHL DUP2 MSTORE PUSH1 0x1 PUSH1 0x1 PUSH1 0xA0 SHL SUB DUP8 DUP2 AND PUSH1 0x4 DUP4 ADD MSTORE SWAP1 SWAP2 AND SWAP1 PUSH4 0x8B32066 SWAP1 PUSH1 0x24 ADD PUSH1 0x20 PUSH1 0x40 MLOAD DUP1 DUP4 SUB DUP2 DUP7 GAS STATICCALL ISZERO DUP1 ISZERO PUSH2 0x641 JUMPI RETURNDATASIZE PUSH0 PUSH0 RETURNDATACOPY RETURNDATASIZE PUSH0 REVERT JUMPDEST POP POP POP POP PUSH1 0x40 MLOAD RETURNDATASIZE PUSH1 0x1F NOT PUSH1 0x1F DUP3 ADD AND DUP3 ADD DUP1 PUSH1 0x40 MSTORE POP DUP2 ADD SWAP1 PUSH2 0x665 SWAP2 SWAP1 PUSH2 0x1783 JUMP JUMPDEST SWAP2 POP JUMPDEST DUP3 DUP1 ISZERO PUSH2 0x67F JUMPI POP PUSH1 0x3 SLOAD PUSH1 0x1 PUSH1 0x1 PUSH1 0xA0 SHL SUB AND ISZERO ISZERO JUMPDEST ISZERO PUSH2 0x6F3 JUMPI PUSH1 0x3 SLOAD PUSH1 0x40 MLOAD PUSH4 0x4599033 PUSH1 0xE1 SHL DUP2 MSTORE PUSH1 0x1 PUSH1 0x1 PUSH1 0xA0 SHL SUB DUP8 DUP2 AND PUSH1 0x4 DUP4 ADD MSTORE SWAP1 SWAP2 AND SWAP1 PUSH4 0x8B32066 SWAP1 PUSH1 0x24 ADD PUSH1 0x20 PUSH1 0x40 MLOAD DUP1 DUP4 SUB DUP2 DUP7 GAS STATICCALL ISZERO DUP1 ISZERO PUSH2 0x6CC JUMPI RETURNDATASIZE PUSH0 PUSH0 RETURNDATACOPY RETURNDATASIZE PUSH0 REVERT JUMPDEST POP POP POP POP PUSH1 0x40 MLOAD RETURNDATASIZE PUSH1 0x1F NOT PUSH1 0x1F DUP3 ADD AND DUP3 ADD DUP1 PUSH1 0x40 MSTORE POP DUP2 ADD SWAP1 PUSH2 0x6F0 SWAP2 SWAP1 PUSH2 0x1783 JUMP JUMPDEST SWAP1 POP JUMPDEST DUP2 DUP1 PUSH2 0x6FC JUMPI POP DUP1 JUMPDEST PUSH2 0x76E JUMPI PUSH1 0x40 MLOAD PUSH3 0x461BCD PUSH1 0xE5 SHL DUP2 MSTORE PUSH1 0x20 PUSH1 0x4 DUP3 ADD MSTORE PUSH1 0x39 PUSH1 0x24 DUP3 ADD MSTORE PUSH32 0x596F75206D7573742070617920302E3220424E422061637469766174696F6E20 PUSH1 0x44 DUP3 ADD MSTORE PUSH32 0x66656520746F204E465420636F6E747261637420666972737400000000000000 PUSH1 0x64 DUP3 ADD MSTORE PUSH1 0x84 ADD PUSH2 0x5D2 JUMP JUMPDEST PUSH1 0xD SLOAD PUSH1 0xC SLOAD PUSH0 SWAP2 DUP3 SWAP2 DUP3 SWAP2 DUP3 SWAP2 PUSH2 0x786 SWAP2 SWAP1 PUSH2 0x15A7 JUMP JUMPDEST SWAP1 POP DUP1 PUSH0 SUB PUSH2 0x79A JUMPI POP POP POP POP POP POP POP POP POP JUMP JUMPDEST PUSH0 PUSH1 0x5 SLOAD GT DUP1 ISZERO PUSH2 0x7B9 JUMPI POP PUSH0 PUSH1 0xD SLOAD PUSH1 0xC SLOAD PUSH2 0x7B7 SWAP2 SWAP1 PUSH2 0x15A7 JUMP JUMPDEST GT JUMPDEST ISZERO PUSH2 0x84E JUMPI DUP6 DUP1 ISZERO PUSH2 0x7CC JUMPI POP PUSH0 PUSH1 0xC SLOAD GT JUMPDEST ISZERO PUSH2 0x806 JUMPI PUSH1 0xC SLOAD PUSH1 0x64 PUSH1 0x5 SLOAD PUSH1 0x46 PUSH2 0x7E5 SWAP2 SWAP1 PUSH2 0x179E JUMP JUMPDEST PUSH2 0x7EF SWAP2 SWAP1 PUSH2 0x17B5 JUMP JUMPDEST PUSH2 0x7F9 SWAP2 SWAP1 PUSH2 0x17B5 JUMP JUMPDEST PUSH2 0x803 SWAP1 DUP6 PUSH2 0x15A7 JUMP JUMPDEST SWAP4 POP JUMPDEST DUP5 DUP1 ISZERO PUSH2 0x814 JUMPI POP PUSH0 PUSH1 0xD SLOAD GT JUMPDEST ISZERO PUSH2 0x84E JUMPI PUSH1 0xD SLOAD PUSH1 0x64 PUSH1 0x5 SLOAD PUSH1 0x1E PUSH2 0x82D SWAP2 SWAP1 PUSH2 0x179E JUMP JUMPDEST PUSH2 0x837 SWAP2 SWAP1 PUSH2 0x17B5 JUMP JUMPDEST PUSH2 0x841 SWAP2 SWAP1 PUSH2 0x17B5 JUMP JUMPDEST PUSH2 0x84B SWAP1 DUP6 PUSH2 0x15A7 JUMP JUMPDEST SWAP4 POP JUMPDEST PUSH0 PUSH1 0x8 SLOAD PUSH1 0x7 SLOAD PUSH2 0x85F SWAP2 SWAP1 PUSH2 0x15A7 JUMP JUMPDEST SWAP1 POP PUSH0 DUP2 GT DUP1 ISZERO PUSH2 0x87E JUMPI POP PUSH0 PUSH1 0xD SLOAD PUSH1 0xC SLOAD PUSH2 0x87C SWAP2 SWAP1 PUSH2 0x15A7 JUMP JUMPDEST GT JUMPDEST ISZERO PUSH2 0x90B JUMPI DUP7 DUP1 ISZERO PUSH2 0x891 JUMPI POP PUSH0 PUSH1 0xC SLOAD GT JUMPDEST ISZERO PUSH2 0x8C7 JUMPI PUSH1 0xC SLOAD PUSH1 0x64 PUSH2 0x8A6 DUP4 PUSH1 0x46 PUSH2 0x179E JUMP JUMPDEST PUSH2 0x8B0 SWAP2 SWAP1 PUSH2 0x17B5 JUMP JUMPDEST PUSH2 0x8BA SWAP2 SWAP1 PUSH2 0x17B5 JUMP JUMPDEST PUSH2 0x8C4 SWAP1 DUP6 PUSH2 0x15A7 JUMP JUMPDEST SWAP4 POP JUMPDEST DUP6 DUP1 ISZERO PUSH2 0x8D5 JUMPI POP PUSH0 PUSH1 0xD SLOAD GT JUMPDEST ISZERO PUSH2 0x90B JUMPI PUSH1 0xD SLOAD PUSH1 0x64 PUSH2 0x8EA DUP4 PUSH1 0x1E PUSH2 0x179E JUMP JUMPDEST PUSH2 0x8F4 SWAP2 SWAP1 PUSH2 0x17B5 JUMP JUMPDEST PUSH2 0x8FE SWAP2 SWAP1 PUSH2 0x17B5 JUMP JUMPDEST PUSH2 0x908 SWAP1 DUP6 PUSH2 0x15A7 JUMP JUMPDEST SWAP4 POP JUMPDEST PUSH0 PUSH1 0x6 SLOAD GT DUP1 ISZERO PUSH2 0x92A JUMPI POP PUSH0 PUSH1 0xD SLOAD PUSH1 0xC SLOAD PUSH2 0x928 SWAP2 SWAP1 PUSH2 0x15A7 JUMP JUMPDEST GT JUMPDEST ISZERO PUSH2 0x9BF JUMPI DUP7 DUP1 ISZERO PUSH2 0x93D JUMPI POP PUSH0 PUSH1 0xC SLOAD GT JUMPDEST ISZERO PUSH2 0x977 JUMPI PUSH1 0xC SLOAD PUSH1 0x64 PUSH1 0x6 SLOAD PUSH1 0x46 PUSH2 0x956 SWAP2 SWAP1 PUSH2 0x179E JUMP JUMPDEST PUSH2 0x960 SWAP2 SWAP1 PUSH2 0x17B5 JUMP JUMPDEST PUSH2 0x96A SWAP2 SWAP1 PUSH2 0x17B5 JUMP JUMPDEST PUSH2 0x974 SWAP1 DUP5 PUSH2 0x15A7 JUMP JUMPDEST SWAP3 POP JUMPDEST DUP6 DUP1 ISZERO PUSH2 0x985 JUMPI POP PUSH0 PUSH1 0xD SLOAD GT JUMPDEST ISZERO PUSH2 0x9BF JUMPI PUSH1 0xD SLOAD PUSH1 0x64 PUSH1 0x6 SLOAD PUSH1 0x1E PUSH2 0x99E SWAP2 SWAP1 PUSH2 0x179E JUMP JUMPDEST PUSH2 0x9A8 SWAP2 SWAP1 PUSH2 0x17B5 JUMP JUMPDEST PUSH2 0x9B2 SWAP2 SWAP1 PUSH2 0x17B5 JUMP JUMPDEST PUSH2 0x9BC SWAP1 DUP5 PUSH2 0x15A7 JUMP JUMPDEST SWAP3 POP JUMPDEST DUP5 ISZERO PUSH2 0xA3D JUMPI PUSH1 0x4 DUP1 SLOAD PUSH1 0x40 MLOAD PUSH4 0xA9059CBB PUSH1 0xE0 SHL DUP2 MSTORE PUSH1 0x1 PUSH1 0x1 PUSH1 0xA0 SHL SUB DUP14 DUP2 AND SWAP4 DUP3 ADD SWAP4 SWAP1 SWAP4 MSTORE PUSH1 0x24 DUP2 ADD DUP9 SWAP1 MSTORE SWAP2 AND SWAP1 PUSH4 0xA9059CBB SWAP1 PUSH1 0x44 ADD PUSH1 0x20 PUSH1 0x40 MLOAD DUP1 DUP4 SUB DUP2 PUSH0 DUP8 GAS CALL ISZERO DUP1 ISZERO PUSH2 0xA17 JUMPI RETURNDATASIZE PUSH0 PUSH0 RETURNDATACOPY RETURNDATASIZE PUSH0 REVERT JUMPDEST POP POP POP POP PUSH1 0x40 MLOAD RETURNDATASIZE PUSH1 0x1F NOT PUSH1 0x1F DUP3 ADD AND DUP3 ADD DUP1 PUSH1 0x40 MSTORE POP DUP2 ADD SWAP1 PUSH2 0xA3B SWAP2 SWAP1 PUSH2 0x1783 JUMP JUMPDEST POP JUMPDEST DUP4 ISZERO PUSH2 0xAB9 JUMPI PUSH1 0x1 SLOAD PUSH1 0x40 MLOAD PUSH4 0xA9059CBB PUSH1 0xE0 SHL DUP2 MSTORE PUSH1 0x1 PUSH1 0x1 PUSH1 0xA0 SHL SUB DUP13 DUP2 AND PUSH1 0x4 DUP4 ADD MSTORE PUSH1 0x24 DUP3 ADD DUP8 SWAP1 MSTORE SWAP1 SWAP2 AND SWAP1 PUSH4 0xA9059CBB SWAP1 PUSH1 0x44 ADD PUSH1 0x20 PUSH1 0x40 MLOAD DUP1 DUP4 SUB DUP2 PUSH0 DUP8 GAS CALL ISZERO DUP1 ISZERO PUSH2 0xA93 JUMPI RETURNDATASIZE PUSH0 PUSH0 RETURNDATACOPY RETURNDATASIZE PUSH0 REVERT JUMPDEST POP POP POP POP PUSH1 0x40 MLOAD RETURNDATASIZE PUSH1 0x1F NOT PUSH1 0x1F DUP3 ADD AND DUP3 ADD DUP1 PUSH1 0x40 MSTORE POP DUP2 ADD SWAP1 PUSH2 0xAB7 SWAP2 SWAP1 PUSH2 0x1783 JUMP JUMPDEST POP JUMPDEST DUP3 ISZERO PUSH2 0xAF4 JUMPI PUSH1 0x40 MLOAD PUSH1 0x1 PUSH1 0x1 PUSH1 0xA0 SHL SUB DUP12 AND SWAP1 DUP5 ISZERO PUSH2 0x8FC MUL SWAP1 DUP6 SWAP1 PUSH0 DUP2 DUP2 DUP2 DUP6 DUP9 DUP9 CALL SWAP4 POP POP POP POP ISZERO DUP1 ISZERO PUSH2 0xAF2 JUMPI RETURNDATASIZE PUSH0 PUSH0 RETURNDATACOPY RETURNDATASIZE PUSH0 REVERT JUMPDEST POP JUMPDEST DUP5 PUSH1 0x5 PUSH0 DUP3 DUP3 SLOAD PUSH2 0xB05 SWAP2 SWAP1 PUSH2 0x17D4 JUMP JUMPDEST SWAP1 SWAP2 SSTORE POP POP PUSH0 PUSH1 0x7 DUP2 SWAP1 SSTORE PUSH1 0x8 DUP2 SWAP1 SSTORE PUSH1 0x6 DUP1 SLOAD DUP6 SWAP3 SWAP1 PUSH2 0xB27 SWAP1 DUP5 SWAP1 PUSH2 0x17D4 JUMP JUMPDEST SWAP1 SWAP2 SSTORE POP POP PUSH1 0x40 DUP1 MLOAD DUP7 DUP2 MSTORE PUSH1 0x20 DUP2 ADD DUP7 SWAP1 MSTORE SWAP1 DUP2 ADD DUP5 SWAP1 MSTORE PUSH1 0x1 PUSH1 0x1 PUSH1 0xA0 SHL SUB DUP12 AND SWAP1 PUSH32 0x9CDCF2F7714CCA3508C7F0110B04A90A80A3A8DD0E35DE99689DB74D28C5383E SWAP1 PUSH1 0x60 ADD PUSH1 0x40 MLOAD DUP1 SWAP2 SUB SWAP1 LOG2 POP POP POP POP POP POP POP POP POP POP JUMP JUMPDEST PUSH2 0xB8C PUSH2 0x1518 JUMP JUMPDEST PUSH1 0x1 PUSH1 0x1 PUSH1 0xA0 SHL SUB SWAP2 SWAP1 SWAP2 AND PUSH0 SWAP1 DUP2 MSTORE PUSH1 0xB PUSH1 0x20 MSTORE PUSH1 0x40 SWAP1 KECCAK256 DUP1 SLOAD PUSH1 0xFF NOT AND SWAP2 ISZERO ISZERO SWAP2 SWAP1 SWAP2 OR SWAP1 SSTORE JUMP JUMPDEST PUSH1 0x1 SLOAD PUSH1 0x1 PUSH1 0x1 PUSH1 0xA0 SHL SUB AND CALLER EQ DUP1 PUSH2 0xBD8 JUMPI POP PUSH0 SLOAD PUSH1 0x1 PUSH1 0x1 PUSH1 0xA0 SHL SUB AND CALLER EQ JUMPDEST PUSH2 0xC1F JUMPI PUSH1 0x40 MLOAD PUSH3 0x461BCD PUSH1 0xE5 SHL DUP2 MSTORE PUSH1 0x20 PUSH1 0x4 DUP3 ADD MSTORE PUSH1 0x18 PUSH1 0x24 DUP3 ADD MSTORE PUSH24 0x27B7363C902927A6A0A72A37B5B2B71037B91037BBB732B9 PUSH1 0x41 SHL PUSH1 0x44 DUP3 ADD MSTORE PUSH1 0x64 ADD PUSH2 0x5D2 JUMP JUMPDEST PUSH1 0x1 SLOAD PUSH1 0x40 MLOAD PUSH4 0x23B872DD PUSH1 0xE0 SHL DUP2 MSTORE CALLER PUSH1 0x4 DUP3 ADD MSTORE ADDRESS PUSH1 0x24 DUP3 ADD MSTORE PUSH1 0x44 DUP2 ADD DUP5 SWAP1 MSTORE PUSH1 0x1 PUSH1 0x1 PUSH1 0xA0 SHL SUB SWAP1 SWAP2 AND SWAP1 PUSH4 0x23B872DD SWAP1 PUSH1 0x64 ADD PUSH1 0x20 PUSH1 0x40 MLOAD DUP1 DUP4 SUB DUP2 PUSH0 DUP8 GAS CALL ISZERO DUP1 ISZERO PUSH2 0xC73 JUMPI RETURNDATASIZE PUSH0 PUSH0 RETURNDATACOPY RETURNDATASIZE PUSH0 REVERT JUMPDEST POP POP POP POP PUSH1 0x40 MLOAD RETURNDATASIZE PUSH1 0x1F NOT PUSH1 0x1F DUP3 ADD AND DUP3 ADD DUP1 PUSH1 0x40 MSTORE POP DUP2 ADD SWAP1 PUSH2 0xC97 SWAP2 SWAP1 PUSH2 0x1783 JUMP JUMPDEST POP PUSH1 0x40 DUP1 MLOAD DUP1 DUP3 ADD SWAP1 SWAP2 MSTORE PUSH1 0x9 DUP2 MSTORE PUSH9 0x616E74695F64756D7 PUSH1 0xBC SHL PUSH1 0x20 SWAP2 DUP3 ADD MSTORE DUP2 MLOAD SWAP1 DUP3 ADD KECCAK256 PUSH32 0xA3F057A9A7D57709B5114F83B343454E80CC0F1A75BF54E2A6643D70B90E72D2 ADD PUSH2 0xD01 JUMPI DUP2 PUSH1 0x7 PUSH0 DUP3 DUP3 SLOAD PUSH2 0xCF6 SWAP2 SWAP1 PUSH2 0x15A7 JUMP JUMPDEST SWAP1 SWAP2 SSTORE POP PUSH2 0xD65 SWAP1 POP JUMP JUMPDEST PUSH1 0x40 DUP1 MLOAD DUP1 DUP3 ADD SWAP1 SWAP2 MSTORE PUSH1 0x9 DUP2 MSTORE PUSH9 0x686173685F67616D65 PUSH1 0xB8 SHL PUSH1 0x20 SWAP2 DUP3 ADD MSTORE DUP2 MLOAD SWAP1 DUP3 ADD KECCAK256 PUSH32 0xD1F02842571171EEAEDE1665BD9F96206160BA4123EA0C0035D2E3B1C40BEAFD ADD PUSH2 0xD65 JUMPI DUP2 PUSH1 0x8 PUSH0 DUP3 DUP3 SLOAD PUSH2 0xD5F SWAP2 SWAP1 PUSH2 0x15A7 JUMP JUMPDEST SWAP1 SWAP2 SSTORE POP POP JUMPDEST PUSH32 0x82D98A00C349D609E6AB098B00D153A6F84A70ABFD6074C0DCC81C83E5E22CA8 DUP2 DUP4 PUSH1 0x40 MLOAD PUSH2 0xD96 SWAP3 SWAP2 SWAP1 PUSH2 0x17E7 JUMP JUMPDEST PUSH1 0x40 MLOAD DUP1 SWAP2 SUB SWAP1 LOG1 POP POP JUMP JUMPDEST PUSH2 0xDAA PUSH2 0x1518 JUMP JUMPDEST PUSH2 0xDB3 PUSH0 PUSH2 0x1544 JUMP JUMPDEST JUMP JUMPDEST PUSH1 0x1 SLOAD PUSH1 0x1 PUSH1 0x1 PUSH1 0xA0 SHL SUB AND CALLER EQ DUP1 PUSH2 0xDD7 JUMPI POP PUSH0 SLOAD PUSH1 0x1 PUSH1 0x1 PUSH1 0xA0 SHL SUB AND CALLER EQ JUMPDEST PUSH2 0xE1E JUMPI PUSH1 0x40 MLOAD PUSH3 0x461BCD PUSH1 0xE5 SHL DUP2 MSTORE PUSH1 0x20 PUSH1 0x4 DUP3 ADD MSTORE PUSH1 0x18 PUSH1 0x24 DUP3 ADD MSTORE PUSH24 0x27B7363C902927A6A0A72A37B5B2B71037B91037BBB732B9 PUSH1 0x41 SHL PUSH1 0x44 DUP3 ADD MSTORE PUSH1 0x64 ADD PUSH2 0x5D2 JUMP JUMPDEST PUSH1 0x4 DUP1 SLOAD PUSH1 0x40 MLOAD PUSH4 0x23B872DD PUSH1 0xE0 SHL DUP2 MSTORE CALLER SWAP3 DUP2 ADD SWAP3 SWAP1 SWAP3 MSTORE ADDRESS PUSH1 0x24 DUP4 ADD MSTORE PUSH1 0x44 DUP3 ADD DUP4 SWAP1 MSTORE PUSH1 0x1 PUSH1 0x1 PUSH1 0xA0 SHL SUB AND SWAP1 PUSH4 0x23B872DD SWAP1 PUSH1 0x64 ADD PUSH1 0x20 PUSH1 0x40 MLOAD DUP1 DUP4 SUB DUP2 PUSH0 DUP8 GAS CALL ISZERO DUP1 ISZERO PUSH2 0xE73 JUMPI RETURNDATASIZE PUSH0 PUSH0 RETURNDATACOPY RETURNDATASIZE PUSH0 REVERT JUMPDEST POP POP POP POP PUSH1 0x40 MLOAD RETURNDATASIZE PUSH1 0x1F NOT PUSH1 0x1F DUP3 ADD AND DUP3 ADD DUP1 PUSH1 0x40 MSTORE POP DUP2 ADD SWAP1 PUSH2 0xE97 SWAP2 SWAP1 PUSH2 0x1783 JUMP JUMPDEST POP DUP1 PUSH1 0x5 PUSH0 DUP3 DUP3 SLOAD PUSH2 0xEA9 SWAP2 SWAP1 PUSH2 0x15A7 JUMP JUMPDEST SWAP1 SWAP2 SSTORE POP POP PUSH1 0x40 DUP1 MLOAD DUP2 DUP2 MSTORE PUSH1 0x8 DUP2 DUP4 ADD MSTORE PUSH8 0x19995957DD5CD91D PUSH1 0xC2 SHL PUSH1 0x60 DUP3 ADD MSTORE PUSH1 0x20 DUP2 ADD DUP4 SWAP1 MSTORE SWAP1 MLOAD PUSH32 0x82D98A00C349D609E6AB098B00D153A6F84A70ABFD6074C0DCC81C83E5E22CA8 SWAP2 DUP2 SWAP1 SUB PUSH1 0x80 ADD SWAP1 LOG1 POP JUMP JUMPDEST CALLER DUP3 ISZERO PUSH2 0xFC4 JUMPI PUSH1 0x2 SLOAD PUSH1 0x40 MLOAD PUSH4 0x31A9108F PUSH1 0xE1 SHL DUP2 MSTORE PUSH1 0x4 DUP2 ADD DUP6 SWAP1 MSTORE PUSH1 0x1 PUSH1 0x1 PUSH1 0xA0 SHL SUB DUP4 DUP2 AND SWAP3 AND SWAP1 PUSH4 0x6352211E SWAP1 PUSH1 0x24 ADD PUSH1 0x20 PUSH1 0x40 MLOAD DUP1 DUP4 SUB DUP2 DUP7 GAS STATICCALL ISZERO DUP1 ISZERO PUSH2 0xF52 JUMPI RETURNDATASIZE PUSH0 PUSH0 RETURNDATACOPY RETURNDATASIZE PUSH0 REVERT JUMPDEST POP POP POP POP PUSH1 0x40 MLOAD RETURNDATASIZE PUSH1 0x1F NOT PUSH1 0x1F DUP3 ADD AND DUP3 ADD DUP1 PUSH1 0x40 MSTORE POP DUP2 ADD SWAP1 PUSH2 0xF76 SWAP2 SWAP1 PUSH2 0x1823 JUMP JUMPDEST PUSH1 0x1 PUSH1 0x1 PUSH1 0xA0 SHL SUB AND EQ PUSH2 0xFC4 JUMPI PUSH1 0x40 MLOAD PUSH3 0x461BCD PUSH1 0xE5 SHL DUP2 MSTORE PUSH1 0x20 PUSH1 0x4 DUP3 ADD MSTORE PUSH1 0x15 PUSH1 0x24 DUP3 ADD MSTORE PUSH21 0x139BDD081BDDDB995C881BD9881B585A5B88139195 PUSH1 0x5A SHL PUSH1 0x44 DUP3 ADD MSTORE PUSH1 0x64 ADD PUSH2 0x5D2 JUMP JUMPDEST DUP2 ISZERO PUSH2 0x1084 JUMPI PUSH1 0x3 SLOAD PUSH1 0x40 MLOAD PUSH4 0x31A9108F PUSH1 0xE1 SHL DUP2 MSTORE PUSH1 0x4 DUP2 ADD DUP5 SWAP1 MSTORE PUSH1 0x1 PUSH1 0x1 PUSH1 0xA0 SHL SUB DUP4 DUP2 AND SWAP3 AND SWAP1 PUSH4 0x6352211E SWAP1 PUSH1 0x24 ADD PUSH1 0x20 PUSH1 0x40 MLOAD DUP1 DUP4 SUB DUP2 DUP7 GAS STATICCALL ISZERO DUP1 ISZERO PUSH2 0x1013 JUMPI RETURNDATASIZE PUSH0 PUSH0 RETURNDATACOPY RETURNDATASIZE PUSH0 REVERT JUMPDEST POP POP POP POP PUSH1 0x40 MLOAD RETURNDATASIZE PUSH1 0x1F NOT PUSH1 0x1F DUP3 ADD AND DUP3 ADD DUP1 PUSH1 0x40 MSTORE POP DUP2 ADD SWAP1 PUSH2 0x1037 SWAP2 SWAP1 PUSH2 0x1823 JUMP JUMPDEST PUSH1 0x1 PUSH1 0x1 PUSH1 0xA0 SHL SUB AND EQ PUSH2 0x1084 JUMPI PUSH1 0x40 MLOAD PUSH3 0x461BCD PUSH1 0xE5 SHL DUP2 MSTORE PUSH1 0x20 PUSH1 0x4 DUP3 ADD MSTORE PUSH1 0x14 PUSH1 0x24 DUP3 ADD MSTORE PUSH20 0x139BDD081BDDDB995C881BD9881CDD5888139195 PUSH1 0x62 SHL PUSH1 0x44 DUP3 ADD MSTORE PUSH1 0x64 ADD PUSH2 0x5D2 JUMP JUMPDEST PUSH1 0x1 SLOAD PUSH1 0x40 MLOAD PUSH4 0xEA0D5DCD PUSH1 0xE0 SHL DUP2 MSTORE PUSH1 0x1 PUSH1 0x1 PUSH1 0xA0 SHL SUB DUP4 DUP2 AND PUSH1 0x4 DUP4 ADD MSTORE PUSH0 SWAP3 DUP4 SWAP3 SWAP2 AND SWAP1 PUSH4 0xEA0D5DCD SWAP1 PUSH1 0x24 ADD PUSH1 0x60 PUSH1 0x40 MLOAD DUP1 DUP4 SUB DUP2 DUP7 GAS STATICCALL ISZERO DUP1 ISZERO PUSH2 0x10CF JUMPI RETURNDATASIZE PUSH0 PUSH0 RETURNDATACOPY RETURNDATASIZE PUSH0 REVERT JUMPDEST POP POP POP POP PUSH1 0x40 MLOAD RETURNDATASIZE PUSH1 0x1F NOT PUSH1 0x1F DUP3 ADD AND DUP3 ADD DUP1 PUSH1 0x40 MSTORE POP DUP2 ADD SWAP1 PUSH2 0x10F3 SWAP2 SWAP1 PUSH2 0x183E JUMP JUMPDEST POP SWAP2 POP SWAP2 POP PUSH7 0x71AFD498D0000 DUP3 LT ISZERO DUP1 ISZERO PUSH2 0x110C JUMPI POP DUP1 JUMPDEST PUSH2 0x1158 JUMPI PUSH1 0x40 MLOAD PUSH3 0x461BCD PUSH1 0xE5 SHL DUP2 MSTORE PUSH1 0x20 PUSH1 0x4 DUP3 ADD DUP2 SWAP1 MSTORE PUSH1 0x24 DUP3 ADD MSTORE PUSH32 0x4E656564206174206C6561737420302E3220424E4220696E766573746D656E74 PUSH1 0x44 DUP3 ADD MSTORE PUSH1 0x64 ADD PUSH2 0x5D2 JUMP JUMPDEST PUSH1 0x1 PUSH1 0x1 PUSH1 0xA0 SHL SUB DUP4 AND PUSH0 SWAP1 DUP2 MSTORE PUSH1 0xB PUSH1 0x20 MSTORE PUSH1 0x40 SWAP1 KECCAK256 SLOAD PUSH1 0xFF AND PUSH2 0x129B JUMPI PUSH1 0x1 PUSH1 0x1 PUSH1 0xA0 SHL SUB DUP4 AND PUSH0 SWAP1 DUP2 MSTORE PUSH1 0x9 PUSH1 0x20 MSTORE PUSH1 0x40 SWAP1 KECCAK256 SLOAD ISZERO DUP1 PUSH2 0x11B1 JUMPI POP PUSH1 0x1 PUSH1 0x1 PUSH1 0xA0 SHL SUB DUP4 AND PUSH0 SWAP1 DUP2 MSTORE PUSH1 0x9 PUSH1 0x20 MSTORE PUSH1 0x40 SWAP1 KECCAK256 SLOAD DUP6 EQ JUMPDEST PUSH2 0x1209 JUMPI PUSH1 0x40 MLOAD PUSH3 0x461BCD PUSH1 0xE5 SHL DUP2 MSTORE PUSH1 0x20 PUSH1 0x4 DUP3 ADD MSTORE PUSH1 0x24 DUP1 DUP3 ADD MSTORE PUSH32 0x416C72656164792061637469766174656420646966666572656E74206D61696E PUSH1 0x44 DUP3 ADD MSTORE PUSH4 0x8139195 PUSH1 0xE2 SHL PUSH1 0x64 DUP3 ADD MSTORE PUSH1 0x84 ADD PUSH2 0x5D2 JUMP JUMPDEST PUSH1 0x1 PUSH1 0x1 PUSH1 0xA0 SHL SUB DUP4 AND PUSH0 SWAP1 DUP2 MSTORE PUSH1 0xA PUSH1 0x20 MSTORE PUSH1 0x40 SWAP1 KECCAK256 SLOAD ISZERO DUP1 PUSH2 0x1243 JUMPI POP PUSH1 0x1 PUSH1 0x1 PUSH1 0xA0 SHL SUB DUP4 AND PUSH0 SWAP1 DUP2 MSTORE PUSH1 0xA PUSH1 0x20 MSTORE PUSH1 0x40 SWAP1 KECCAK256 SLOAD DUP5 EQ JUMPDEST PUSH2 0x129B JUMPI PUSH1 0x40 MLOAD PUSH3 0x461BCD PUSH1 0xE5 SHL DUP2 MSTORE PUSH1 0x20 PUSH1 0x4 DUP3 ADD MSTORE PUSH1 0x23 PUSH1 0x24 DUP3 ADD MSTORE PUSH32 0x416C72656164792061637469766174656420646966666572656E742073756220 PUSH1 0x44 DUP3 ADD MSTORE PUSH3 0x139195 PUSH1 0xEA SHL PUSH1 0x64 DUP3 ADD MSTORE PUSH1 0x84 ADD PUSH2 0x5D2 JUMP JUMPDEST DUP5 ISZERO DUP1 ISZERO SWAP1 PUSH2 0x12C1 JUMPI POP PUSH1 0x1 PUSH1 0x1 PUSH1 0xA0 SHL SUB DUP4 AND PUSH0 SWAP1 DUP2 MSTORE PUSH1 0x9 PUSH1 0x20 MSTORE PUSH1 0x40 SWAP1 KECCAK256 SLOAD DUP6 EQ ISZERO JUMPDEST ISZERO PUSH2 0x1326 JUMPI PUSH1 0x1 PUSH1 0x1 PUSH1 0xA0 SHL SUB DUP4 AND PUSH0 SWAP1 DUP2 MSTORE PUSH1 0x9 PUSH1 0x20 MSTORE PUSH1 0x40 SWAP1 KECCAK256 SLOAD ISZERO PUSH2 0x12F8 JUMPI PUSH1 0xC DUP1 SLOAD SWAP1 PUSH0 PUSH2 0x12F2 DUP4 PUSH2 0x187F JUMP JUMPDEST SWAP2 SWAP1 POP SSTORE POP JUMPDEST PUSH1 0x1 PUSH1 0x1 PUSH1 0xA0 SHL SUB DUP4 AND PUSH0 SWAP1 DUP2 MSTORE PUSH1 0x9 PUSH1 0x20 MSTORE PUSH1 0x40 DUP2 KECCAK256 DUP7 SWAP1 SSTORE PUSH1 0xC DUP1 SLOAD SWAP2 PUSH2 0x1320 DUP4 PUSH2 0x1894 JUMP JUMPDEST SWAP2 SWAP1 POP SSTORE POP JUMPDEST DUP4 ISZERO DUP1 ISZERO SWAP1 PUSH2 0x134C JUMPI POP PUSH1 0x1 PUSH1 0x1 PUSH1 0xA0 SHL SUB DUP4 AND PUSH0 SWAP1 DUP2 MSTORE PUSH1 0xA PUSH1 0x20 MSTORE PUSH1 0x40 SWAP1 KECCAK256 SLOAD DUP5 EQ ISZERO JUMPDEST ISZERO PUSH2 0x13B1 JUMPI PUSH1 0x1 PUSH1 0x1 PUSH1 0xA0 SHL SUB DUP4 AND PUSH0 SWAP1 DUP2 MSTORE PUSH1 0xA PUSH1 0x20 MSTORE PUSH1 0x40 SWAP1 KECCAK256 SLOAD ISZERO PUSH2 0x1383 JUMPI PUSH1 0xD DUP1 SLOAD SWAP1 PUSH0 PUSH2 0x137D DUP4 PUSH2 0x187F JUMP JUMPDEST SWAP2 SWAP1 POP SSTORE POP JUMPDEST PUSH1 0x1 PUSH1 0x1 PUSH1 0xA0 SHL SUB DUP4 AND PUSH0 SWAP1 DUP2 MSTORE PUSH1 0xA PUSH1 0x20 MSTORE PUSH1 0x40 DUP2 KECCAK256 DUP6 SWAP1 SSTORE PUSH1 0xD DUP1 SLOAD SWAP2 PUSH2 0x13AB DUP4 PUSH2 0x1894 JUMP JUMPDEST SWAP2 SWAP1 POP SSTORE POP JUMPDEST PUSH1 0x40 DUP1 MLOAD DUP7 DUP2 MSTORE PUSH1 0x20 DUP2 ADD DUP7 SWAP1 MSTORE PUSH1 0x1 PUSH1 0x1 PUSH1 0xA0 SHL SUB DUP6 AND SWAP2 PUSH32 0xF89BE561C4CE44410305A86555EBAE8B579DE22890A703AC89051C5971B5D4DC SWAP2 ADD PUSH1 0x40 MLOAD DUP1 SWAP2 SUB SWAP1 LOG2 POP POP POP POP POP JUMP JUMPDEST PUSH2 0x1404 PUSH2 0x1518 JUMP JUMPDEST PUSH1 0x1 PUSH1 0x1 PUSH1 0xA0 SHL SUB DUP3 AND PUSH2 0x144D JUMPI PUSH0 DUP1 SLOAD PUSH1 0x40 MLOAD PUSH1 0x1 PUSH1 0x1 PUSH1 0xA0 SHL SUB SWAP1 SWAP2 AND SWAP2 DUP4 ISZERO PUSH2 0x8FC MUL SWAP2 DUP5 SWAP2 DUP2 DUP2 DUP2 DUP6 DUP9 DUP9 CALL SWAP4 POP POP POP POP ISZERO DUP1 ISZERO PUSH2 0x1448 JUMPI RETURNDATASIZE PUSH0 PUSH0 RETURNDATACOPY RETURNDATASIZE PUSH0 REVERT JUMPDEST POP POP POP JUMP JUMPDEST DUP2 PUSH1 0x1 PUSH1 0x1 PUSH1 0xA0 SHL SUB AND PUSH4 0xA9059CBB PUSH2 0x146D PUSH0 SLOAD PUSH1 0x1 PUSH1 0x1 PUSH1 0xA0 SHL SUB AND SWAP1 JUMP JUMPDEST PUSH1 0x40 MLOAD PUSH1 0x1 PUSH1 0x1 PUSH1 0xE0 SHL SUB NOT PUSH1 0xE0 DUP5 SWAP1 SHL AND DUP2 MSTORE PUSH1 0x1 PUSH1 0x1 PUSH1 0xA0 SHL SUB SWAP1 SWAP2 AND PUSH1 0x4 DUP3 ADD MSTORE PUSH1 0x24 DUP2 ADD DUP5 SWAP1 MSTORE PUSH1 0x44 ADD PUSH1 0x20 PUSH1 0x40 MLOAD DUP1 DUP4 SUB DUP2 PUSH0 DUP8 GAS CALL ISZERO DUP1 ISZERO PUSH2 0x14B7 JUMPI RETURNDATASIZE PUSH0 PUSH0 RETURNDATACOPY RETURNDATASIZE PUSH0 REVERT JUMPDEST POP POP POP POP PUSH1 0x40 MLOAD RETURNDATASIZE PUSH1 0x1F NOT PUSH1 0x1F DUP3 ADD AND DUP3 ADD DUP1 PUSH1 0x40 MSTORE POP DUP2 ADD SWAP1 PUSH2 0x1448 SWAP2 SWAP1 PUSH2 0x1783 JUMP JUMPDEST PUSH2 0x14E3 PUSH2 0x1518 JUMP JUMPDEST PUSH1 0x1 PUSH1 0x1 PUSH1 0xA0 SHL SUB DUP2 AND PUSH2 0x150C JUMPI PUSH1 0x40 MLOAD PUSH4 0x1E4FBDF7 PUSH1 0xE0 SHL DUP2 MSTORE PUSH0 PUSH1 0x4 DUP3 ADD MSTORE PUSH1 0x24 ADD PUSH2 0x5D2 JUMP JUMPDEST PUSH2 0x1515 DUP2 PUSH2 0x1544 JUMP JUMPDEST POP JUMP JUMPDEST PUSH0 SLOAD PUSH1 0x1 PUSH1 0x1 PUSH1 0xA0 SHL SUB AND CALLER EQ PUSH2 0xDB3 JUMPI PUSH1 0x40 MLOAD PUSH4 0x118CDAA7 PUSH1 0xE0 SHL DUP2 MSTORE CALLER PUSH1 0x4 DUP3 ADD MSTORE PUSH1 0x24 ADD PUSH2 0x5D2 JUMP JUMPDEST PUSH0 DUP1 SLOAD PUSH1 0x1 PUSH1 0x1 PUSH1 0xA0 SHL SUB DUP4 DUP2 AND PUSH1 0x1 PUSH1 0x1 PUSH1 0xA0 SHL SUB NOT DUP4 AND DUP2 OR DUP5 SSTORE PUSH1 0x40 MLOAD SWAP2 SWAP1 SWAP3 AND SWAP3 DUP4 SWAP2 PUSH32 0x8BE0079C531659141344CD1FD0A4F28419497F9722A3DAAFE3B4186F6B6457E0 SWAP2 SWAP1 LOG3 POP POP JUMP JUMPDEST PUSH4 0x4E487B71 PUSH1 0xE0 SHL PUSH0 MSTORE PUSH1 0x11 PUSH1 0x4 MSTORE PUSH1 0x24 PUSH0 REVERT JUMPDEST DUP1 DUP3 ADD DUP1 DUP3 GT ISZERO PUSH2 0x15BA JUMPI PUSH2 0x15BA PUSH2 0x1593 JUMP JUMPDEST SWAP3 SWAP2 POP POP JUMP JUMPDEST PUSH1 0x1 PUSH1 0x1 PUSH1 0xA0 SHL SUB DUP2 AND DUP2 EQ PUSH2 0x1515 JUMPI PUSH0 PUSH0 REVERT JUMPDEST PUSH0 PUSH1 0x20 DUP3 DUP5 SUB SLT ISZERO PUSH2 0x15E4 JUMPI PUSH0 PUSH0 REVERT JUMPDEST DUP2 CALLDATALOAD PUSH2 0x15EF DUP2 PUSH2 0x15C0 JUMP JUMPDEST SWAP4 SWAP3 POP POP POP JUMP JUMPDEST DUP1 ISZERO ISZERO DUP2 EQ PUSH2 0x1515 JUMPI PUSH0 PUSH0 REVERT JUMPDEST PUSH0 PUSH0 PUSH1 0x40 DUP4 DUP6 SUB SLT ISZERO PUSH2 0x1614 JUMPI PUSH0 PUSH0 REVERT JUMPDEST DUP3 CALLDATALOAD PUSH2 0x161F DUP2 PUSH2 0x15C0 JUMP JUMPDEST SWAP2 POP PUSH1 0x20 DUP4 ADD CALLDATALOAD PUSH2 0x162F DUP2 PUSH2 0x15F6 JUMP JUMPDEST DUP1 SWAP2 POP POP SWAP3 POP SWAP3 SWAP1 POP JUMP JUMPDEST PUSH4 0x4E487B71 PUSH1 0xE0 SHL PUSH0 MSTORE PUSH1 0x41 PUSH1 0x4 MSTORE PUSH1 0x24 PUSH0 REVERT JUMPDEST PUSH0 PUSH0 PUSH1 0x40 DUP4 DUP6 SUB SLT ISZERO PUSH2 0x165F JUMPI PUSH0 PUSH0 REVERT JUMPDEST DUP3 CALLDATALOAD SWAP2 POP PUSH1 0x20 DUP4 ADD CALLDATALOAD PUSH8 0xFFFFFFFFFFFFFFFF DUP2 GT ISZERO PUSH2 0x167C JUMPI PUSH0 PUSH0 REVERT JUMPDEST DUP4 ADD PUSH1 0x1F DUP2 ADD DUP6 SGT PUSH2 0x168C JUMPI PUSH0 PUSH0 REVERT JUMPDEST DUP1 CALLDATALOAD PUSH8 0xFFFFFFFFFFFFFFFF DUP2 GT ISZERO PUSH2 0x16A6 JUMPI PUSH2 0x16A6 PUSH2 0x163A JUMP JUMPDEST PUSH1 0x40 MLOAD PUSH1 0x1F DUP3 ADD PUSH1 0x1F NOT SWAP1 DUP2 AND PUSH1 0x3F ADD AND DUP2 ADD PUSH8 0xFFFFFFFFFFFFFFFF DUP2 GT DUP3 DUP3 LT OR ISZERO PUSH2 0x16D5 JUMPI PUSH2 0x16D5 PUSH2 0x163A JUMP JUMPDEST PUSH1 0x40 MSTORE DUP2 DUP2 MSTORE DUP3 DUP3 ADD PUSH1 0x20 ADD DUP8 LT ISZERO PUSH2 0x16EC JUMPI PUSH0 PUSH0 REVERT JUMPDEST DUP2 PUSH1 0x20 DUP5 ADD PUSH1 0x20 DUP4 ADD CALLDATACOPY PUSH0 PUSH1 0x20 DUP4 DUP4 ADD ADD MSTORE DUP1 SWAP4 POP POP POP POP SWAP3 POP SWAP3 SWAP1 POP JUMP JUMPDEST PUSH0 PUSH1 0x20 DUP3 DUP5 SUB SLT ISZERO PUSH2 0x171B JUMPI PUSH0 PUSH0 REVERT JUMPDEST POP CALLDATALOAD SWAP2 SWAP1 POP JUMP JUMPDEST PUSH0 PUSH0 PUSH1 0x40 DUP4 DUP6 SUB SLT ISZERO PUSH2 0x1733 JUMPI PUSH0 PUSH0 REVERT JUMPDEST POP POP DUP1 CALLDATALOAD SWAP3 PUSH1 0x20 SWAP1 SWAP2 ADD CALLDATALOAD SWAP2 POP JUMP JUMPDEST PUSH0 PUSH0 PUSH1 0x40 DUP4 DUP6 SUB SLT ISZERO PUSH2 0x1753 JUMPI PUSH0 PUSH0 REVERT JUMPDEST DUP3 CALLDATALOAD PUSH2 0x175E DUP2 PUSH2 0x15C0 JUMP JUMPDEST SWAP5 PUSH1 0x20 SWAP4 SWAP1 SWAP4 ADD CALLDATALOAD SWAP4 POP POP POP JUMP JUMPDEST PUSH0 PUSH1 0x20 DUP3 DUP5 SUB SLT ISZERO PUSH2 0x177C JUMPI PUSH0 PUSH0 REVERT JUMPDEST POP MLOAD SWAP2 SWAP1 POP JUMP JUMPDEST PUSH0 PUSH1 0x20 DUP3 DUP5 SUB SLT ISZERO PUSH2 0x1793 JUMPI PUSH0 PUSH0 REVERT JUMPDEST DUP2 MLOAD PUSH2 0x15EF DUP2 PUSH2 0x15F6 JUMP JUMPDEST DUP1 DUP3 MUL DUP2 ISZERO DUP3 DUP3 DIV DUP5 EQ OR PUSH2 0x15BA JUMPI PUSH2 0x15BA PUSH2 0x1593 JUMP JUMPDEST PUSH0 DUP3 PUSH2 0x17CF JUMPI PUSH4 0x4E487B71 PUSH1 0xE0 SHL PUSH0 MSTORE PUSH1 0x12 PUSH1 0x4 MSTORE PUSH1 0x24 PUSH0 REVERT JUMPDEST POP DIV SWAP1 JUMP JUMPDEST DUP2 DUP2 SUB DUP2 DUP2 GT ISZERO PUSH2 0x15BA JUMPI PUSH2 0x15BA PUSH2 0x1593 JUMP JUMPDEST PUSH1 0x40 DUP2 MSTORE PUSH0 DUP4 MLOAD DUP1 PUSH1 0x40 DUP5 ADD MSTORE DUP1 PUSH1 0x20 DUP7 ADD PUSH1 0x60 DUP6 ADD MCOPY PUSH0 PUSH1 0x60 DUP3 DUP6 ADD ADD MSTORE PUSH1 0x60 PUSH1 0x1F NOT PUSH1 0x1F DUP4 ADD AND DUP5 ADD ADD SWAP2 POP POP DUP3 PUSH1 0x20 DUP4 ADD MSTORE SWAP4 SWAP3 POP POP POP JUMP JUMPDEST PUSH0 PUSH1 0x20 DUP3 DUP5 SUB SLT ISZERO PUSH2 0x1833 JUMPI PUSH0 PUSH0 REVERT JUMPDEST DUP2 MLOAD PUSH2 0x15EF DUP2 PUSH2 0x15C0 JUMP JUMPDEST PUSH0 PUSH0 PUSH0 PUSH1 0x60 DUP5 DUP7 SUB SLT ISZERO PUSH2 0x1850 JUMPI PUSH0 PUSH0 REVERT JUMPDEST DUP4 MLOAD PUSH1 0x20 DUP6 ADD MLOAD SWAP1 SWAP4 POP PUSH2 0x1863 DUP2 PUSH2 0x15F6 JUMP JUMPDEST PUSH1 0x40 DUP6 ADD MLOAD SWAP1 SWAP3 POP PUSH2 0x1874 DUP2 PUSH2 0x15F6 JUMP JUMPDEST DUP1 SWAP2 POP POP SWAP3 POP SWAP3 POP SWAP3 JUMP JUMPDEST PUSH0 DUP2 PUSH2 0x188D JUMPI PUSH2 0x188D PUSH2 0x1593 JUMP JUMPDEST POP PUSH0 NOT ADD SWAP1 JUMP JUMPDEST PUSH0 PUSH1 0x1 DUP3 ADD PUSH2 0x18A5 JUMPI PUSH2 0x18A5 PUSH2 0x1593 JUMP JUMPDEST POP PUSH1 0x1 ADD SWAP1 JUMP INVALID LOG2 PUSH5 0x6970667358 0x22 SLT KECCAK256 SGT CALLDATALOAD JUMPF 0x9392 GT 0xA6 0xCA LOG4 PUSH5 0x37EC39C217 PUSH19 0x1F6AA38BE6EF161AEDD67491DA143B1364736F PUSH13 0x63430008220033000000000000 "
				},
				"gasEstimates": {
					"creation": {
						"codeDepositCost": "1274000",
						"executionCost": "infinite",
						"totalCost": "infinite"
					},
					"external": {
						"activate(uint256,uint256)": "infinite",
						"activeMainTokenId(address)": "2523",
						"activeSubTokenId(address)": "2521",
						"antiDumpRomanPool()": "2395",
						"claim()": "infinite",
						"emergencyWithdraw(address,uint256)": "infinite",
						"feeUsdtPool()": "2350",
						"hashGameRomanPool()": "2371",
						"investBnbPool()": "2351",
						"mainNFT()": "2426",
						"owner()": "2352",
						"receiveRoman(uint256,string)": "infinite",
						"receiveUsdt(uint256)": "infinite",
						"renounceOwnership()": "infinite",
						"romanToken()": "2380",
						"setWhitelist(address,bool)": "infinite",
						"subNFT()": "2446",
						"totalActiveMain()": "2349",
						"totalActiveSub()": "2328",
						"transferOwnership(address)": "infinite",
						"usdt()": "2382",
						"whitelist(address)": "2633"
					}
				},
				"methodIdentifiers": {
					"activate(uint256,uint256)": "8ea8f83c",
					"activeMainTokenId(address)": "09aa92e3",
					"activeSubTokenId(address)": "a83cb9ab",
					"antiDumpRomanPool()": "48fe85e2",
					"claim()": "4e71d92d",
					"emergencyWithdraw(address,uint256)": "95ccea67",
					"feeUsdtPool()": "545bf9ad",
					"hashGameRomanPool()": "da912989",
					"investBnbPool()": "3540beff",
					"mainNFT()": "48e66c04",
					"owner()": "8da5cb5b",
					"receiveRoman(uint256,string)": "641117f4",
					"receiveUsdt(uint256)": "83db58fe",
					"renounceOwnership()": "715018a6",
					"romanToken()": "bb6c0ae1",
					"setWhitelist(address,bool)": "53d6fd59",
					"subNFT()": "dd6c4398",
					"totalActiveMain()": "c7e95e37",
					"totalActiveSub()": "8e9abef0",
					"transferOwnership(address)": "f2fde38b",
					"usdt()": "2f48ab7d",
					"whitelist(address)": "9b19251a"
				}
			},
			"storageLayout": {
				"storage": [
					{
						"astId": 8,
						"contract": "contracts/test2/DividendDistributor.sol:DividendDistributor",
						"label": "_owner",
						"offset": 0,
						"slot": "0",
						"type": "t_address"
					},
					{
						"astId": 414,
						"contract": "contracts/test2/DividendDistributor.sol:DividendDistributor",
						"label": "romanToken",
						"offset": 0,
						"slot": "1",
						"type": "t_contract(IROMANToken)401"
					},
					{
						"astId": 416,
						"contract": "contracts/test2/DividendDistributor.sol:DividendDistributor",
						"label": "mainNFT",
						"offset": 0,
						"slot": "2",
						"type": "t_address"
					},
					{
						"astId": 418,
						"contract": "contracts/test2/DividendDistributor.sol:DividendDistributor",
						"label": "subNFT",
						"offset": 0,
						"slot": "3",
						"type": "t_address"
					},
					{
						"astId": 420,
						"contract": "contracts/test2/DividendDistributor.sol:DividendDistributor",
						"label": "usdt",
						"offset": 0,
						"slot": "4",
						"type": "t_address"
					},
					{
						"astId": 422,
						"contract": "contracts/test2/DividendDistributor.sol:DividendDistributor",
						"label": "feeUsdtPool",
						"offset": 0,
						"slot": "5",
						"type": "t_uint256"
					},
					{
						"astId": 424,
						"contract": "contracts/test2/DividendDistributor.sol:DividendDistributor",
						"label": "investBnbPool",
						"offset": 0,
						"slot": "6",
						"type": "t_uint256"
					},
					{
						"astId": 426,
						"contract": "contracts/test2/DividendDistributor.sol:DividendDistributor",
						"label": "antiDumpRomanPool",
						"offset": 0,
						"slot": "7",
						"type": "t_uint256"
					},
					{
						"astId": 428,
						"contract": "contracts/test2/DividendDistributor.sol:DividendDistributor",
						"label": "hashGameRomanPool",
						"offset": 0,
						"slot": "8",
						"type": "t_uint256"
					},
					{
						"astId": 432,
						"contract": "contracts/test2/DividendDistributor.sol:DividendDistributor",
						"label": "activeMainTokenId",
						"offset": 0,
						"slot": "9",
						"type": "t_mapping(t_address,t_uint256)"
					},
					{
						"astId": 436,
						"contract": "contracts/test2/DividendDistributor.sol:DividendDistributor",
						"label": "activeSubTokenId",
						"offset": 0,
						"slot": "10",
						"type": "t_mapping(t_address,t_uint256)"
					},
					{
						"astId": 440,
						"contract": "contracts/test2/DividendDistributor.sol:DividendDistributor",
						"label": "whitelist",
						"offset": 0,
						"slot": "11",
						"type": "t_mapping(t_address,t_bool)"
					},
					{
						"astId": 442,
						"contract": "contracts/test2/DividendDistributor.sol:DividendDistributor",
						"label": "totalActiveMain",
						"offset": 0,
						"slot": "12",
						"type": "t_uint256"
					},
					{
						"astId": 444,
						"contract": "contracts/test2/DividendDistributor.sol:DividendDistributor",
						"label": "totalActiveSub",
						"offset": 0,
						"slot": "13",
						"type": "t_uint256"
					}
				],
				"types": {
					"t_address": {
						"encoding": "inplace",
						"label": "address",
						"numberOfBytes": "20"
					},
					"t_bool": {
						"encoding": "inplace",
						"label": "bool",
						"numberOfBytes": "1"
					},
					"t_contract(IROMANToken)401": {
						"encoding": "inplace",
						"label": "contract IROMANToken",
						"numberOfBytes": "20"
					},
					"t_mapping(t_address,t_bool)": {
						"encoding": "mapping",
						"key": "t_address",
						"label": "mapping(address => bool)",
						"numberOfBytes": "32",
						"value": "t_bool"
					},
					"t_mapping(t_address,t_uint256)": {
						"encoding": "mapping",
						"key": "t_address",
						"label": "mapping(address => uint256)",
						"numberOfBytes": "32",
						"value": "t_uint256"
					},
					"t_uint256": {
						"encoding": "inplace",
						"label": "uint256",
						"numberOfBytes": "32"
					}
				}
			},
			"userdoc": {
				"kind": "user",
				"methods": {},
				"version": 1
			}
		}
	}
}