{
	"data": {
		"bytecode": {
			"linkReferences": {},
			"object": "608060405234801561000f575f5ffd5b50604051611a5a380380611a5a83398101604081905261002e9161011a565b338061005357604051631e4fbdf760e01b81525f600482015260240160405180910390fd5b61005c816100b0565b50600180546001600160a01b039586166001600160a01b031991821617909155600280549486169482169490941790935560038054928516928416929092179091556004805491909316911617905561016b565b5f80546001600160a01b038381166001600160a01b0319831681178455604051919092169283917f8be0079c531659141344cd1fd0a4f28419497f9722a3daafe3b4186f6b6457e09190a35050565b80516001600160a01b0381168114610115575f5ffd5b919050565b5f5f5f5f6080858703121561012d575f5ffd5b610136856100ff565b9350610144602086016100ff565b9250610152604086016100ff565b9150610160606086016100ff565b905092959194509250565b6118e2806101785f395ff3fe608060405260043610610134575f3560e01c80638da5cb5b116100a8578063a83cb9ab1161006d578063a83cb9ab146103ae578063bb6c0ae1146103d9578063c7e95e37146103f8578063da9129891461040d578063dd6c439814610422578063f2fde38b14610441575f5ffd5b80638da5cb5b146103015780638e9abef01461031d5780638ea8f83c1461033257806395ccea67146103515780639b19251a14610370575f5ffd5b80634e71d92d116100f95780634e71d92d1461026557806353d6fd591461027b578063545bf9ad1461029a578063641117f4146102af578063715018a6146102ce57806383db58fe146102e2575f5ffd5b806309aa92e3146101a75780632f48ab7d146101e55780633540beff1461021c57806348e66c041461023157806348fe85e214610250575f5ffd5b366101a3573460065f82825461014a91906115a7565b909155505060408051818152600a818301526934b73b32b9ba2fb1373160b11b606082015234602082015290517f82d98a00c349d609e6ab098b00d153a6f84a70abfd6074c0dcc81c83e5e22ca89181900360800190a1005b5f5ffd5b3480156101b2575f5ffd5b506101d26101c13660046115d4565b60096020525f908152604090205481565b6040519081526020015b60405180910390f35b3480156101f0575f5ffd5b50600454610204906001600160a01b031681565b6040516001600160a01b0390911681526020016101dc565b348015610227575f5ffd5b506101d260065481565b34801561023c575f5ffd5b50600254610204906001600160a01b031681565b34801561025b575f5ffd5b506101d260075481565b348015610270575f5ffd5b50610279610460565b005b348015610286575f5ffd5b50610279610295366004611603565b610b84565b3480156102a5575f5ffd5b506101d260055481565b3480156102ba575f5ffd5b506102796102c936600461164e565b610bb6565b3480156102d9575f5ffd5b50610279610da2565b3480156102ed575f5ffd5b506102796102fc36600461170b565b610db5565b34801561030c575f5ffd5b505f546001600160a01b0316610204565b348015610328575f5ffd5b506101d2600d5481565b34801561033d575f5ffd5b5061027961034c366004611722565b610f02565b34801561035c575f5ffd5b5061027961036b366004611742565b6113fc565b34801561037b575f5ffd5b5061039e61038a3660046115d4565b600b6020525f908152604090205460ff1681565b60405190151581526020016101dc565b3480156103b9575f5ffd5b506101d26103c83660046115d4565b600a6020525f908152604090205481565b3480156103e4575f5ffd5b50600154610204906001600160a01b031681565b348015610403575f5ffd5b506101d2600c5481565b348015610418575f5ffd5b506101d260085481565b34801561042d575f5ffd5b50600354610204906001600160a01b031681565b34801561044c575f5ffd5b5061027961045b3660046115d4565b6114db565b60025433905f906001600160a01b0316158015906104e757506002546040516370a0823160e01b81526001600160a01b0384811660048301525f9216906370a0823190602401602060405180830381865afa1580156104c1573d5f5f3e3d5ffd5b505050506040513d601f19601f820116820180604052508101906104e5919061176c565b115b6003549091505f906001600160a01b03161580159061056f57506003546040516370a0823160e01b81526001600160a01b0385811660048301525f9216906370a0823190602401602060405180830381865afa158015610549573d5f5f3e3d5ffd5b505050506040513d601f19601f8201168201806040525081019061056d919061176c565b115b9050818061057a5750805b6105db5760405162461bcd60e51b815260206004820152602760248201527f596f75206d75737420686f6c64204d61696e436172644e4654206f722053756260448201526610d85c9913919560ca1b60648201526084015b60405180910390fd5b5f808380156105f457506002546001600160a01b031615155b1561066857600254604051630459903360e11b81526001600160a01b038781166004830152909116906308b3206690602401602060405180830381865afa158015610641573d5f5f3e3d5ffd5b505050506040513d601f19601f820116820180604052508101906106659190611783565b91505b82801561067f57506003546001600160a01b031615155b156106f357600354604051630459903360e11b81526001600160a01b038781166004830152909116906308b3206690602401602060405180830381865afa1580156106cc573d5f5f3e3d5ffd5b505050506040513d601f19601f820116820180604052508101906106f09190611783565b90505b81806106fc5750805b61076e5760405162461bcd60e51b815260206004820152603960248201527f596f75206d7573742070617920302e3220424e422061637469766174696f6e2060448201527f66656520746f204e465420636f6e74726163742066697273740000000000000060648201526084016105d2565b600d54600c545f9182918291829161078691906115a7565b9050805f0361079a57505050505050505050565b5f6005541180156107b957505f600d54600c546107b791906115a7565b115b1561084e578580156107cc57505f600c54115b1561080657600c54606460055460466107e5919061179e565b6107ef91906117b5565b6107f991906117b5565b61080390856115a7565b93505b84801561081457505f600d54115b1561084e57600d546064600554601e61082d919061179e565b61083791906117b5565b61084191906117b5565b61084b90856115a7565b93505b5f60085460075461085f91906115a7565b90505f8111801561087e57505f600d54600c5461087c91906115a7565b115b1561090b5786801561089157505f600c54115b156108c757600c5460646108a683604661179e565b6108b091906117b5565b6108ba91906117b5565b6108c490856115a7565b93505b8580156108d557505f600d54115b1561090b57600d5460646108ea83601e61179e565b6108f491906117b5565b6108fe91906117b5565b61090890856115a7565b93505b5f60065411801561092a57505f600d54600c5461092891906115a7565b115b156109bf5786801561093d57505f600c54115b1561097757600c5460646006546046610956919061179e565b61096091906117b5565b61096a91906117b5565b61097490846115a7565b92505b85801561098557505f600d54115b156109bf57600d546064600654601e61099e919061179e565b6109a891906117b5565b6109b291906117b5565b6109bc90846115a7565b92505b8415610a3d576004805460405163a9059cbb60e01b81526001600160a01b038d8116938201939093526024810188905291169063a9059cbb906044016020604051808303815f875af1158015610a17573d5f5f3e3d5ffd5b505050506040513d601f19601f82011682018060405250810190610a3b9190611783565b505b8315610ab95760015460405163a9059cbb60e01b81526001600160a01b038c81166004830152602482018790529091169063a9059cbb906044016020604051808303815f875af1158015610a93573d5f5f3e3d5ffd5b505050506040513d601f19601f82011682018060405250810190610ab79190611783565b505b8215610af4576040516001600160a01b038b169084156108fc029085905f818181858888f19350505050158015610af2573d5f5f3e3d5ffd5b505b8460055f828254610b0591906117d4565b90915550505f6007819055600881905560068054859290610b279084906117d4565b909155505060408051868152602081018690529081018490526001600160a01b038b16907f9cdcf2f7714cca3508c7f0110b04a90a80a3a8dd0e35de99689db74d28c5383e9060600160405180910390a250505050505050505050565b610b8c611518565b6001600160a01b03919091165f908152600b60205260409020805460ff1916911515919091179055565b6001546001600160a01b0316331480610bd857505f546001600160a01b031633145b610c1f5760405162461bcd60e51b815260206004820152601860248201527727b7363c902927a6a0a72a37b5b2b71037b91037bbb732b960411b60448201526064016105d2565b6001546040516323b872dd60e01b8152336004820152306024820152604481018490526001600160a01b03909116906323b872dd906064016020604051808303815f875af1158015610c73573d5f5f3e3d5ffd5b505050506040513d601f19601f82011682018060405250810190610c979190611783565b506040805180820190915260098152680616e74695f64756d760bc1b6020918201528151908201207fa3f057a9a7d57709b5114f83b343454e80cc0f1a75bf54e2a6643d70b90e72d201610d01578160075f828254610cf691906115a7565b90915550610d659050565b604080518082019091526009815268686173685f67616d6560b81b6020918201528151908201207fd1f02842571171eeaede1665bd9f96206160ba4123ea0c0035d2e3b1c40beafd01610d65578160085f828254610d5f91906115a7565b90915550505b7f82d98a00c349d609e6ab098b00d153a6f84a70abfd6074c0dcc81c83e5e22ca88183604051610d969291906117e7565b60405180910390a15050565b610daa611518565b610db35f611544565b565b6001546001600160a01b0316331480610dd757505f546001600160a01b031633145b610e1e5760405162461bcd60e51b815260206004820152601860248201527727b7363c902927a6a0a72a37b5b2b71037b91037bbb732b960411b60448201526064016105d2565b600480546040516323b872dd60e01b81523392810192909252306024830152604482018390526001600160a01b0316906323b872dd906064016020604051808303815f875af1158015610e73573d5f5f3e3d5ffd5b505050506040513d601f19601f82011682018060405250810190610e979190611783565b508060055f828254610ea991906115a7565b9091555050604080518181526008818301526719995957dd5cd91d60c21b60608201526020810183905290517f82d98a00c349d609e6ab098b00d153a6f84a70abfd6074c0dcc81c83e5e22ca89181900360800190a150565b338215610fc4576002546040516331a9108f60e11b8152600481018590526001600160a01b03838116921690636352211e90602401602060405180830381865afa158015610f52573d5f5f3e3d5ffd5b505050506040513d601f19601f82011682018060405250810190610f769190611823565b6001600160a01b031614610fc45760405162461bcd60e51b8152602060048201526015602482015274139bdd081bdddb995c881bd9881b585a5b88139195605a1b60448201526064016105d2565b8115611084576003546040516331a9108f60e11b8152600481018490526001600160a01b03838116921690636352211e90602401602060405180830381865afa158015611013573d5f5f3e3d5ffd5b505050506040513d601f19601f820116820180604052508101906110379190611823565b6001600160a01b0316146110845760405162461bcd60e51b8152602060048201526014602482015273139bdd081bdddb995c881bd9881cdd588813919560621b60448201526064016105d2565b60015460405163ea0d5dcd60e01b81526001600160a01b0383811660048301525f92839291169063ea0d5dcd90602401606060405180830381865afa1580156110cf573d5f5f3e3d5ffd5b505050506040513d601f19601f820116820180604052508101906110f3919061183e565b509150915066071afd498d0000821015801561110c5750805b6111585760405162461bcd60e51b815260206004820181905260248201527f4e656564206174206c6561737420302e3220424e4220696e766573746d656e7460448201526064016105d2565b6001600160a01b0383165f908152600b602052604090205460ff1661129b576001600160a01b0383165f9081526009602052604090205415806111b157506001600160a01b0383165f9081526009602052604090205485145b6112095760405162461bcd60e51b8152602060048201526024808201527f416c72656164792061637469766174656420646966666572656e74206d61696e6044820152630813919560e21b60648201526084016105d2565b6001600160a01b0383165f908152600a6020526040902054158061124357506001600160a01b0383165f908152600a602052604090205484145b61129b5760405162461bcd60e51b815260206004820152602360248201527f416c72656164792061637469766174656420646966666572656e74207375622060448201526213919560ea1b60648201526084016105d2565b84158015906112c157506001600160a01b0383165f908152600960205260409020548514155b15611326576001600160a01b0383165f90815260096020526040902054156112f857600c8054905f6112f28361187f565b91905055505b6001600160a01b0383165f908152600960205260408120869055600c80549161132083611894565b91905055505b831580159061134c57506001600160a01b0383165f908152600a60205260409020548414155b156113b1576001600160a01b0383165f908152600a60205260409020541561138357600d8054905f61137d8361187f565b91905055505b6001600160a01b0383165f908152600a60205260408120859055600d8054916113ab83611894565b91905055505b60408051868152602081018690526001600160a01b038516917ff89be561c4ce44410305a86555ebae8b579de22890a703ac89051c5971b5d4dc910160405180910390a25050505050565b611404611518565b6001600160a01b03821661144d575f80546040516001600160a01b039091169183156108fc02918491818181858888f19350505050158015611448573d5f5f3e3d5ffd5b505050565b816001600160a01b031663a9059cbb61146d5f546001600160a01b031690565b6040516001600160e01b031960e084901b1681526001600160a01b039091166004820152602481018490526044016020604051808303815f875af11580156114b7573d5f5f3e3d5ffd5b505050506040513d601f19601f820116820180604052508101906114489190611783565b6114e3611518565b6001600160a01b03811661150c57604051631e4fbdf760e01b81525f60048201526024016105d2565b61151581611544565b50565b5f546001600160a01b03163314610db35760405163118cdaa760e01b81523360048201526024016105d2565b5f80546001600160a01b038381166001600160a01b0319831681178455604051919092169283917f8be0079c531659141344cd1fd0a4f28419497f9722a3daafe3b4186f6b6457e09190a35050565b634e487b7160e01b5f52601160045260245ffd5b808201808211156115ba576115ba611593565b92915050565b6001600160a01b0381168114611515575f5ffd5b5f602082840312156115e4575f5ffd5b81356115ef816115c0565b9392505050565b8015158114611515575f5ffd5b5f5f60408385031215611614575f5ffd5b823561161f816115c0565b9150602083013561162f816115f6565b809150509250929050565b634e487b7160e01b5f52604160045260245ffd5b5f5f6040838503121561165f575f5ffd5b82359150602083013567ffffffffffffffff81111561167c575f5ffd5b8301601f8101851361168c575f5ffd5b803567ffffffffffffffff8111156116a6576116a661163a565b604051601f8201601f19908116603f0116810167ffffffffffffffff811182821017156116d5576116d561163a565b6040528181528282016020018710156116ec575f5ffd5b816020840160208301375f602083830101528093505050509250929050565b5f6020828403121561171b575f5ffd5b5035919050565b5f5f60408385031215611733575f5ffd5b50508035926020909101359150565b5f5f60408385031215611753575f5ffd5b823561175e816115c0565b946020939093013593505050565b5f6020828403121561177c575f5ffd5b5051919050565b5f60208284031215611793575f5ffd5b81516115ef816115f6565b80820281158282048414176115ba576115ba611593565b5f826117cf57634e487b7160e01b5f52601260045260245ffd5b500490565b818103818111156115ba576115ba611593565b604081525f83518060408401528060208601606085015e5f606082850101526060601f19601f8301168401019150508260208301529392505050565b5f60208284031215611833575f5ffd5b81516115ef816115c0565b5f5f5f60608486031215611850575f5ffd5b83516020850151909350611863816115f6565b6040850151909250611874816115f6565b809150509250925092565b5f8161188d5761188d611593565b505f190190565b5f600182016118a5576118a5611593565b506001019056fea26469706673582212201335e5939211a6caa46437ec39c217721f6aa38be6ef161aedd67491da143b1364736f6c63430008220033",
			"opcodes": "PUSH1 0x80 PUSH1 0x40 MSTORE CALLVALUE DUP1 ISZERO PUSH2 0xF JUMPI PUSH0 PUSH0 REVERT JUMPDEST POP PUSH1 0x40 MLOAD PUSH2 0x1A5A CODESIZE SUB DUP1 PUSH2 0x1A5A DUP4 CODECOPY DUP2 ADD PUSH1 0x40 DUP2 SWAP1 MSTORE PUSH2 0x2E SWAP2 PUSH2 0x11A JUMP JUMPDEST CALLER DUP1 PUSH2 0x53 JUMPI PUSH1 0x40 MLOAD PUSH4 0x1E4FBDF7 PUSH1 0xE0 SHL DUP2 MSTORE PUSH0 PUSH1 0x4 DUP3 ADD MSTORE PUSH1 0x24 ADD PUSH1 0x40 MLOAD DUP1 SWAP2 SUB SWAP1 REVERT JUMPDEST PUSH2 0x5C DUP2 PUSH2 0xB0 JUMP JUMPDEST POP PUSH1 0x1 DUP1 SLOAD PUSH1 0x1 PUSH1 0x1 PUSH1 0xA0 SHL SUB SWAP6 DUP7 AND PUSH1 0x1 PUSH1 0x1 PUSH1 0xA0 SHL SUB NOT SWAP2 DUP3 AND OR SWAP1 SWAP2 SSTORE PUSH1 0x2 DUP1 SLOAD SWAP5 DUP7 AND SWAP5 DUP3 AND SWAP5 SWAP1 SWAP5 OR SWAP1 SWAP4 SSTORE PUSH1 0x3 DUP1 SLOAD SWAP3 DUP6 AND SWAP3 DUP5 AND SWAP3 SWAP1 SWAP3 OR SWAP1 SWAP2 SSTORE PUSH1 0x4 DUP1 SLOAD SWAP2 SWAP1 SWAP4 AND SWAP2 AND OR SWAP1 SSTORE PUSH2 0x16B JUMP JUMPDEST PUSH0 DUP1 SLOAD PUSH1 0x1 PUSH1 0x1 PUSH1 0xA0 SHL SUB DUP4 DUP2 AND PUSH1 0x1 PUSH1 0x1 PUSH1 0xA0 SHL SUB NOT DUP4 AND DUP2 OR DUP5 SSTORE PUSH1 0x40 MLOAD SWAP2 SWAP1 SWAP3 AND SWAP3 DUP4 SWAP2 PUSH32 0x8BE0079C531659141344CD1FD0A4F28419497F9722A3DAAFE3B4186F6B6457E0 SWAP2 SWAP1 LOG3 POP POP JUMP JUMPDEST DUP1 MLOAD PUSH1 0x1 PUSH1 0x1 PUSH1 0xA0 SHL SUB DUP2 AND DUP2 EQ PUSH2 0x115 JUMPI PUSH0 PUSH0 REVERT JUMPDEST SWAP2 SWAP1 POP JUMP JUMPDEST PUSH0 PUSH0 PUSH0 PUSH0 PUSH1 0x80 DUP6 DUP8 SUB SLT ISZERO PUSH2 0x12D JUMPI PUSH0 PUSH0 REVERT JUMPDEST PUSH2 0x136 DUP6 PUSH2 0xFF JUMP JUMPDEST SWAP4 POP PUSH2 0x144 PUSH1 0x20 DUP7 ADD PUSH2 0xFF JUMP JUMPDEST SWAP3 POP PUSH2 0x152 PUSH1 0x40 DUP7 ADD PUSH2 0xFF JUMP JUMPDEST SWAP2 POP PUSH2 0x160 PUSH1 0x60 DUP7 ADD PUSH2 0xFF JUMP JUMPDEST SWAP1 POP SWAP3 SWAP6 SWAP2 SWAP5 POP SWAP3 POP JUMP JUMPDEST PUSH2 0x18E2 DUP1 PUSH2 0x178 PUSH0 CODECOPY PUSH0 RETURN INVALID PUSH1 0x80 PUSH1 0x40 MSTORE PUSH1 0x4 CALLDATASIZE LT PUSH2 0x134 JUMPI PUSH0 CALLDATALOAD PUSH1 0xE0 SHR DUP1 PUSH4 0x8DA5CB5B GT PUSH2 0xA8 JUMPI DUP1 PUSH4 0xA83CB9AB GT PUSH2 0x6D JUMPI DUP1 PUSH4 0xA83CB9AB EQ PUSH2 0x3AE JUMPI DUP1 PUSH4 0xBB6C0AE1 EQ PUSH2 0x3D9 JUMPI DUP1 PUSH4 0xC7E95E37 EQ PUSH2 0x3F8 JUMPI DUP1 PUSH4 0xDA912989 EQ PUSH2 0x40D JUMPI DUP1 PUSH4 0xDD6C4398 EQ PUSH2 0x422 JUMPI DUP1 PUSH4 0xF2FDE38B EQ PUSH2 0x441 JUMPI PUSH0 PUSH0 REVERT JUMPDEST DUP1 PUSH4 0x8DA5CB5B EQ PUSH2 0x301 JUMPI DUP1 PUSH4 0x8E9ABEF0 EQ PUSH2 0x31D JUMPI DUP1 PUSH4 0x8EA8F83C EQ PUSH2 0x332 JUMPI DUP1 PUSH4 0x95CCEA67 EQ PUSH2 0x351 JUMPI DUP1 PUSH4 0x9B19251A EQ PUSH2 0x370 JUMPI PUSH0 PUSH0 REVERT JUMPDEST DUP1 PUSH4 0x4E71D92D GT PUSH2 0xF9 JUMPI DUP1 PUSH4 0x4E71D92D EQ PUSH2 0x265 JUMPI DUP1 PUSH4 0x53D6FD59 EQ PUSH2 0x27B JUMPI DUP1 PUSH4 0x545BF9AD EQ PUSH2 0x29A JUMPI DUP1 PUSH4 0x641117F4 EQ PUSH2 0x2AF JUMPI DUP1 PUSH4 0x715018A6 EQ PUSH2 0x2CE JUMPI DUP1 PUSH4 0x83DB58FE EQ PUSH2 0x2E2 JUMPI PUSH0 PUSH0 REVERT JUMPDEST DUP1 PUSH4 0x9AA92E3 EQ PUSH2 0x1A7 JUMPI DUP1 PUSH4 0x2F48AB7D EQ PUSH2 0x1E5 JUMPI DUP1 PUSH4 0x3540BEFF EQ PUSH2 0x21C JUMPI DUP1 PUSH4 0x48E66C04 EQ PUSH2 0x231 JUMPI DUP1 PUSH4 0x48FE85E2 EQ PUSH2 0x250 JUMPI PUSH0 PUSH0 REVERT JUMPDEST CALLDATASIZE PUSH2 0x1A3 JUMPI CALLVALUE PUSH1 0x6 PUSH0 DUP3 DUP3 SLOAD PUSH2 0x14A SWAP2 SWAP1 PUSH2 0x15A7 JUMP JUMPDEST SWAP1 SWAP2 SSTORE POP POP PUSH1 0x40 DUP1 MLOAD DUP2 DUP2 MSTORE PUSH1 0xA DUP2 DUP4 ADD MSTORE PUSH10 0x34B73B32B9BA2FB13731 PUSH1 0xB1 SHL PUSH1 0x60 DUP3 ADD MSTORE CALLVALUE PUSH1 0x20 DUP3 ADD MSTORE SWAP1 MLOAD PUSH32 0x82D98A00C349D609E6AB098B00D153A6F84A70ABFD6074C0DCC81C83E5E22CA8 SWAP2 DUP2 SWAP1 SUB PUSH1 0x80 ADD SWAP1 LOG1 STOP JUMPDEST PUSH0 PUSH0 REVERT JUMPDEST CALLVALUE DUP1 ISZERO PUSH2 0x1B2 JUMPI PUSH0 PUSH0 REVERT JUMPDEST POP PUSH2 0x1D2 PUSH2 0x1C1 CALLDATASIZE PUSH1 0x4 PUSH2 0x15D4 JUMP JUMPDEST PUSH1 0x9 PUSH1 0x20 MSTORE PUSH0 SWAP1 DUP2 MSTORE PUSH1 0x40 SWAP1 KECCAK256 SLOAD DUP2 JUMP JUMPDEST PUSH1 0x40 MLOAD SWAP1 DUP2 MSTORE PUSH1 0x20 ADD JUMPDEST PUSH1 0x40 MLOAD DUP1 SWAP2 SUB SWAP1 RETURN JUMPDEST CALLVALUE DUP1 ISZERO PUSH2 0x1F0 JUMPI PUSH0 PUSH0 REVERT JUMPDEST POP PUSH1 0x4 SLOAD PUSH2 0x204 SWAP1 PUSH1 0x1 PUSH1 0x1 PUSH1 0xA0 SHL SUB AND DUP2 JUMP JUMPDEST PUSH1 0x40 MLOAD PUSH1 0x1 PUSH1 0x1 PUSH1 0xA0 SHL SUB SWAP1 SWAP2 AND DUP2 MSTORE PUSH1 0x20 ADD PUSH2 0x1DC JUMP JUMPDEST CALLVALUE DUP1 ISZERO PUSH2 0x227 JUMPI PUSH0 PUSH0 REVERT JUMPDEST POP PUSH2 0x1D2 PUSH1 0x6 SLOAD DUP2 JUMP JUMPDEST CALLVALUE DUP1 ISZERO PUSH2 0x23C JUMPI PUSH0 PUSH0 REVERT JUMPDEST POP PUSH1 0x2 SLOAD PUSH2 0x204 SWAP1 PUSH1 0x1 PUSH1 0x1 PUSH1 0xA0 SHL SUB AND DUP2 JUMP JUMPDEST CALLVALUE DUP1 ISZERO PUSH2 0x25B JUMPI PUSH0 PUSH0 REVERT JUMPDEST POP PUSH2 0x1D2 PUSH1 0x7 SLOAD DUP2 JUMP JUMPDEST CALLVALUE DUP1 ISZERO PUSH2 0x270 JUMPI PUSH0 PUSH0 REVERT JUMPDEST POP PUSH2 0x279 PUSH2 0x460 JUMP JUMPDEST STOP JUMPDEST CALLVALUE DUP1 ISZERO PUSH2 0x286 JUMPI PUSH0 PUSH0 REVERT JUMPDEST POP PUSH2 0x279 PUSH2 0x295 CALLDATASIZE PUSH1 0x4 PUSH2 0x1603 JUMP JUMPDEST PUSH2 0xB84 JUMP JUMPDEST CALLVALUE DUP1 ISZERO PUSH2 0x2A5 JUMPI PUSH0 PUSH0 REVERT JUMPDEST POP PUSH2 0x1D2 PUSH1 0x5 SLOAD DUP2 JUMP JUMPDEST CALLVALUE DUP1 ISZERO PUSH2 0x2BA JUMPI PUSH0 PUSH0 REVERT JUMPDEST POP PUSH2 0x279 PUSH2 0x2C9 CALLDATASIZE PUSH1 0x4 PUSH2 0x164E JUMP JUMPDEST PUSH2 0xBB6 JUMP JUMPDEST CALLVALUE DUP1 ISZERO PUSH2 0x2D9 JUMPI PUSH0 PUSH0 REVERT JUMPDEST POP PUSH2 0x279 PUSH2 0xDA2 JUMP JUMPDEST CALLVALUE DUP1 ISZERO PUSH2 0x2ED JUMPI PUSH0 PUSH0 REVERT JUMPDEST POP PUSH2 0x279 PUSH2 0x2FC CALLDATASIZE PUSH1 0x4 PUSH2 0x170B JUMP JUMPDEST PUSH2 0xDB5 JUMP JUMPDEST CALLVALUE DUP1 ISZERO PUSH2 0x30C JUMPI PUSH0 PUSH0 REVERT JUMPDEST POP PUSH0 SLOAD PUSH1 0x1 PUSH1 0x1 PUSH1 0xA0 SHL SUB AND PUSH2 0x204 JUMP JUMPDEST CALLVALUE DUP1 ISZERO PUSH2 0x328 JUMPI PUSH0 PUSH0 REVERT JUMPDEST POP PUSH2 0x1D2 PUSH1 0xD SLOAD DUP2 JUMP JUMPDEST CALLVALUE DUP1 ISZERO PUSH2 0x33D JUMPI PUSH0 PUSH0 REVERT JUMPDEST POP PUSH2 0x279 PUSH2 0x34C CALLDATASIZE PUSH1 0x4 PUSH2 0x1722 JUMP JUMPDEST PUSH2 0xF02 JUMP JUMPDEST CALLVALUE DUP1 ISZERO PUSH2 0x35C JUMPI PUSH0 PUSH0 REVERT JUMPDEST POP PUSH2 0x279 PUSH2 0x36B CALLDATASIZE PUSH1 0x4 PUSH2 0x1742 JUMP JUMPDEST PUSH2 0x13FC JUMP JUMPDEST CALLVALUE DUP1 ISZERO PUSH2 0x37B JUMPI PUSH0 PUSH0 REVERT JUMPDEST POP PUSH2 0x39E PUSH2 0x38A CALLDATASIZE PUSH1 0x4 PUSH2 0x15D4 JUMP JUMPDEST PUSH1 0xB PUSH1 0x20 MSTORE PUSH0 SWAP1 DUP2 MSTORE PUSH1 0x40 SWAP1 KECCAK256 SLOAD PUSH1 0xFF AND DUP2 JUMP JUMPDEST PUSH1 0x40 MLOAD SWAP1 ISZERO ISZERO DUP2 MSTORE PUSH1 0x20 ADD PUSH2 0x1DC JUMP JUMPDEST CALLVALUE DUP1 ISZERO PUSH2 0x3B9 JUMPI PUSH0 PUSH0 REVERT JUMPDEST POP PUSH2 0x1D2 PUSH2 0x3C8 CALLDATASIZE PUSH1 0x4 PUSH2 0x15D4 JUMP JUMPDEST PUSH1 0xA PUSH1 0x20 MSTORE PUSH0 SWAP1 DUP2 MSTORE PUSH1 0x40 SWAP1 KECCAK256 SLOAD DUP2 JUMP JUMPDEST CALLVALUE DUP1 ISZERO PUSH2 0x3E4 JUMPI PUSH0 PUSH0 REVERT JUMPDEST POP PUSH1 0x1 SLOAD PUSH2 0x204 SWAP1 PUSH1 0x1 PUSH1 0x1 PUSH1 0xA0 SHL SUB AND DUP2 JUMP JUMPDEST CALLVALUE DUP1 ISZERO PUSH2 0x403 JUMPI PUSH0 PUSH0 REVERT JUMPDEST POP PUSH2 0x1D2 PUSH1 0xC SLOAD DUP2 JUMP JUMPDEST CALLVALUE DUP1 ISZERO PUSH2 0x418 JUMPI PUSH0 PUSH0 REVERT JUMPDEST POP PUSH2 0x1D2 PUSH1 0x8 SLOAD DUP2 JUMP JUMPDEST CALLVALUE DUP1 ISZERO PUSH2 0x42D JUMPI PUSH0 PUSH0 REVERT JUMPDEST POP PUSH1 0x3 SLOAD PUSH2 0x204 SWAP1 PUSH1 0x1 PUSH1 0x1 PUSH1 0xA0 SHL SUB AND DUP2 JUMP JUMPDEST CALLVALUE DUP1 ISZERO PUSH2 0x44C JUMPI PUSH0 PUSH0 REVERT JUMPDEST POP PUSH2 0x279 PUSH2 0x45B CALLDATASIZE PUSH1 0x4 PUSH2 0x15D4 JUMP JUMPDEST PUSH2 0x14DB JUMP JUMPDEST PUSH1 0x2 SLOAD CALLER SWAP1 PUSH0 SWAP1 PUSH1 0x1 PUSH1 0x1 PUSH1 0xA0 SHL SUB AND ISZERO DUP1 ISZERO SWAP1 PUSH2 0x4E7 JUMPI POP PUSH1 0x2 SLOAD PUSH1 0x40 MLOAD PUSH4 0x70A08231 PUSH1 0xE0 SHL DUP2 MSTORE PUSH1 0x1 PUSH1 0x1 PUSH1 0xA0 SHL SUB DUP5 DUP2 AND PUSH1 0x4 DUP4 ADD MSTORE PUSH0 SWAP3 AND SWAP1 PUSH4 0x70A08231 SWAP1 PUSH1 0x24 ADD PUSH1 0x20 PUSH1 0x40 MLOAD DUP1 DUP4 SUB DUP2 DUP7 GAS STATICCALL ISZERO DUP1 ISZERO PUSH2 0x4C1 JUMPI RETURNDATASIZE PUSH0 PUSH0 RETURNDATACOPY RETURNDATASIZE PUSH0 REVERT JUMPDEST POP POP POP POP PUSH1 0x40 MLOAD RETURNDATASIZE PUSH1 0x1F NOT PUSH1 0x1F DUP3 ADD AND DUP3 ADD DUP1 PUSH1 0x40 MSTORE POP DUP2 ADD SWAP1 PUSH2 0x4E5 SWAP2 SWAP1 PUSH2 0x176C JUMP JUMPDEST GT JUMPDEST PUSH1 0x3 SLOAD SWAP1 SWAP2 POP PUSH0 SWAP1 PUSH1 0x1 PUSH1 0x1 PUSH1 0xA0 SHL SUB AND ISZERO DUP1 ISZERO SWAP1 PUSH2 0x56F JUMPI POP PUSH1 0x3 SLOAD PUSH1 0x40 MLOAD PUSH4 0x70A08231 PUSH1 0xE0 SHL DUP2 MSTORE PUSH1 0x1 PUSH1 0x1 PUSH1 0xA0 SHL SUB DUP6 DUP2 AND PUSH1 0x4 DUP4 ADD MSTORE PUSH0 SWAP3 AND SWAP1 PUSH4 0x70A08231 SWAP1 PUSH1 0x24 ADD PUSH1 0x20 PUSH1 0x40 MLOAD DUP1 DUP4 SUB DUP2 DUP7 GAS STATICCALL ISZERO DUP1 ISZERO PUSH2 0x549 JUMPI RETURNDATASIZE PUSH0 PUSH0 RETURNDATACOPY RETURNDATASIZE PUSH0 REVERT JUMPDEST POP POP POP POP PUSH1 0x40 MLOAD RETURNDATASIZE PUSH1 0x1F NOT PUSH1 0x1F DUP3 ADD AND DUP3 ADD DUP1 PUSH1 0x40 MSTORE POP DUP2 ADD SWAP1 PUSH2 0x56D SWAP2 SWAP1 PUSH2 0x176C JUMP JUMPDEST GT JUMPDEST SWAP1 POP DUP2 DUP1 PUSH2 0x57A JUMPI POP DUP1 JUMPDEST PUSH2 0x5DB JUMPI PUSH1 0x40 MLOAD PUSH3 0x461BCD PUSH1 0xE5 SHL DUP2 MSTORE PUSH1 0x20 PUSH1 0x4 DUP3 ADD MSTORE PUSH1 0x27 PUSH1 0x24 DUP3 ADD MSTORE PUSH32 0x596F75206D75737420686F6C64204D61696E436172644E4654206F7220537562 PUSH1 0x44 DUP3 ADD MSTORE PUSH7 0x10D85C99139195 PUSH1 0xCA SHL PUSH1 0x64 DUP3 ADD MSTORE PUSH1 0x84 ADD JUMPDEST PUSH1 0x40 MLOAD DUP1 SWAP2 SUB SWAP1 REVERT JUMPDEST PUSH0 DUP1 DUP4 DUP1 ISZERO PUSH2 0x5F4 JUMPI POP PUSH1 0x2 SLOAD PUSH1 0x1 PUSH1 0x1 PUSH1 0xA0 SHL SUB AND ISZERO ISZERO JUMPDEST ISZERO PUSH2 0x668 JUMPI PUSH1 0x2 SLOAD PUSH1 0x40 MLOAD PUSH4 0x4599033 PUSH1 0xE1 SHL DUP2 MSTORE PUSH1 0x1 PUSH1 0x1 PUSH1 0xA0 SHL SUB DUP8 DUP2 AND PUSH1 0x4 DUP4 ADD MSTORE SWAP1 SWAP2 AND SWAP1 PUSH4 0x8B32066 SWAP1 PUSH1 0x24 ADD PUSH1 0x20 PUSH1 0x40 MLOAD DUP1 DUP4 SUB DUP2 DUP7 GAS STATICCALL ISZERO DUP1 ISZERO PUSH2 0x641 JUMPI RETURNDATASIZE PUSH0 PUSH0 RETURNDATACOPY RETURNDATASIZE PUSH0 REVERT JUMPDEST POP POP POP POP PUSH1 0x40 MLOAD RETURNDATASIZE PUSH1 0x1F NOT PUSH1 0x1F DUP3 ADD AND DUP3 ADD DUP1 PUSH1 0x40 MSTORE POP DUP2 ADD SWAP1 PUSH2 0x665 SWAP2 SWAP1 PUSH2 0x1783 JUMP JUMPDEST SWAP2 POP JUMPDEST DUP3 DUP1 ISZERO PUSH2 0x67F JUMPI POP PUSH1 0x3 SLOAD PUSH1 0x1 PUSH1 0x1 PUSH1 0xA0 SHL SUB AND ISZERO ISZERO JUMPDEST ISZERO PUSH2 0x6F3 JUMPI PUSH1 0x3 SLOAD PUSH1 0x40 MLOAD PUSH4 0x4599033 PUSH1 0xE1 SHL DUP2 MSTORE PUSH1 0x1 PUSH1 0x1 PUSH1 0xA0 SHL SUB DUP8 DUP2 AND PUSH1 0x4 DUP4 ADD MSTORE SWAP1 SWAP2 AND SWAP1 PUSH4 0x8B32066 SWAP1 PUSH1 0x24 ADD PUSH1 0x20 PUSH1 0x40 MLOAD DUP1 DUP4 SUB DUP2 DUP7 GAS STATICCALL ISZERO DUP1 ISZERO PUSH2 0x6CC JUMPI RETURNDATASIZE PUSH0 PUSH0 RETURNDATACOPY RETURNDATASIZE PUSH0 REVERT JUMPDEST POP POP POP POP PUSH1 0x40 MLOAD RETURNDATASIZE PUSH1 0x1F NOT PUSH1 0x1F DUP3 ADD AND DUP3 ADD DUP1 PUSH1 0x40 MSTORE POP DUP2 ADD SWAP1 PUSH2 0x6F0 SWAP2 SWAP1 PUSH2 0x1783 JUMP JUMPDEST SWAP1 POP JUMPDEST DUP2 DUP1 PUSH2 0x6FC JUMPI POP DUP1 JUMPDEST PUSH2 0x76E JUMPI PUSH1 0x40 MLOAD PUSH3 0x461BCD PUSH1 0xE5 SHL DUP2 MSTORE PUSH1 0x20 PUSH1 0x4 DUP3 ADD MSTORE PUSH1 0x39 PUSH1 0x24 DUP3 ADD MSTORE PUSH32 0x596F75206D7573742070617920302E3220424E422061637469766174696F6E20 PUSH1 0x44 DUP3 ADD MSTORE PUSH32 0x66656520746F204E465420636F6E747261637420666972737400000000000000 PUSH1 0x64 DUP3 ADD MSTORE PUSH1 0x84 ADD PUSH2 0x5D2 JUMP JUMPDEST PUSH1 0xD SLOAD PUSH1 0xC SLOAD PUSH0 SWAP2 DUP3 SWAP2 DUP3 SWAP2 DUP3 SWAP2 PUSH2 0x786 SWAP2 SWAP1 PUSH2 0x15A7 JUMP JUMPDEST SWAP1 POP DUP1 PUSH0 SUB PUSH2 0x79A JUMPI POP POP POP POP POP POP POP POP POP JUMP JUMPDEST PUSH0 PUSH1 0x5 SLOAD GT DUP1 ISZERO PUSH2 0x7B9 JUMPI POP PUSH0 PUSH1 0xD SLOAD PUSH1 0xC SLOAD PUSH2 0x7B7 SWAP2 SWAP1 PUSH2 0x15A7 JUMP JUMPDEST GT JUMPDEST ISZERO PUSH2 0x84E JUMPI DUP6 DUP1 ISZERO PUSH2 0x7CC JUMPI POP PUSH0 PUSH1 0xC SLOAD GT JUMPDEST ISZERO PUSH2 0x806 JUMPI PUSH1 0xC SLOAD PUSH1 0x64 PUSH1 0x5 SLOAD PUSH1 0x46 PUSH2 0x7E5 SWAP2 SWAP1 PUSH2 0x179E JUMP JUMPDEST PUSH2 0x7EF SWAP2 SWAP1 PUSH2 0x17B5 JUMP JUMPDEST PUSH2 0x7F9 SWAP2 SWAP1 PUSH2 0x17B5 JUMP JUMPDEST PUSH2 0x803 SWAP1 DUP6 PUSH2 0x15A7 JUMP JUMPDEST SWAP4 POP JUMPDEST DUP5 DUP1 ISZERO PUSH2 0x814 JUMPI POP PUSH0 PUSH1 0xD SLOAD GT JUMPDEST ISZERO PUSH2 0x84E JUMPI PUSH1 0xD SLOAD PUSH1 0x64 PUSH1 0x5 SLOAD PUSH1 0x1E PUSH2 0x82D SWAP2 SWAP1 PUSH2 0x179E JUMP JUMPDEST PUSH2 0x837 SWAP2 SWAP1 PUSH2 0x17B5 JUMP JUMPDEST PUSH2 0x841 SWAP2 SWAP1 PUSH2 0x17B5 JUMP JUMPDEST PUSH2 0x84B SWAP1 DUP6 PUSH2 0x15A7 JUMP JUMPDEST SWAP4 POP JUMPDEST PUSH0 PUSH1 0x8 SLOAD PUSH1 0x7 SLOAD PUSH2 0x85F SWAP2 SWAP1 PUSH2 0x15A7 JUMP JUMPDEST SWAP1 POP PUSH0 DUP2 GT DUP1 ISZERO PUSH2 0x87E JUMPI POP PUSH0 PUSH1 0xD SLOAD PUSH1 0xC SLOAD PUSH2 0x87C SWAP2 SWAP1 PUSH2 0x15A7 JUMP JUMPDEST GT JUMPDEST ISZERO PUSH2 0x90B JUMPI DUP7 DUP1 ISZERO PUSH2 0x891 JUMPI POP PUSH0 PUSH1 0xC SLOAD GT JUMPDEST ISZERO PUSH2 0x8C7 JUMPI PUSH1 0xC SLOAD PUSH1 0x64 PUSH2 0x8A6 DUP4 PUSH1 0x46 PUSH2 0x179E JUMP JUMPDEST PUSH2 0x8B0 SWAP2 SWAP1 PUSH2 0x17B5 JUMP JUMPDEST PUSH2 0x8BA SWAP2 SWAP1 PUSH2 0x17B5 JUMP JUMPDEST PUSH2 0x8C4 SWAP1 DUP6 PUSH2 0x15A7 JUMP JUMPDEST SWAP4 POP JUMPDEST DUP6 DUP1 ISZERO PUSH2 0x8D5 JUMPI POP PUSH0 PUSH1 0xD SLOAD GT JUMPDEST ISZERO PUSH2 0x90B JUMPI PUSH1 0xD SLOAD PUSH1 0x64 PUSH2 0x8EA DUP4 PUSH1 0x1E PUSH2 0x179E JUMP JUMPDEST PUSH2 0x8F4 SWAP2 SWAP1 PUSH2 0x17B5 JUMP JUMPDEST PUSH2 0x8FE SWAP2 SWAP1 PUSH2 0x17B5 JUMP JUMPDEST PUSH2 0x908 SWAP1 DUP6 PUSH2 0x15A7 JUMP JUMPDEST SWAP4 POP JUMPDEST PUSH0 PUSH1 0x6 SLOAD GT DUP1 ISZERO PUSH2 0x92A JUMPI POP PUSH0 PUSH1 0xD SLOAD PUSH1 0xC SLOAD PUSH2 0x928 SWAP2 SWAP1 PUSH2 0x15A7 JUMP JUMPDEST GT JUMPDEST ISZERO PUSH2 0x9BF JUMPI DUP7 DUP1 ISZERO PUSH2 0x93D JUMPI POP PUSH0 PUSH1 0xC SLOAD GT JUMPDEST ISZERO PUSH2 0x977 JUMPI PUSH1 0xC SLOAD PUSH1 0x64 PUSH1 0x6 SLOAD PUSH1 0x46 PUSH2 0x956 SWAP2 SWAP1 PUSH2 0x179E JUMP JUMPDEST PUSH2 0x960 SWAP2 SWAP1 PUSH2 0x17B5 JUMP JUMPDEST PUSH2 0x96A SWAP2 SWAP1 PUSH2 0x17B5 JUMP JUMPDEST PUSH2 0x974 SWAP1 DUP5 PUSH2 0x15A7 JUMP JUMPDEST SWAP3 POP JUMPDEST DUP6 DUP1 ISZERO PUSH2 0x985 JUMPI POP PUSH0 PUSH1 0xD SLOAD GT JUMPDEST ISZERO PUSH2 0x9BF JUMPI PUSH1 0xD SLOAD PUSH1 0x64 PUSH1 0x6 SLOAD PUSH1 0x1E PUSH2 0x99E SWAP2 SWAP1 PUSH2 0x179E JUMP JUMPDEST PUSH2 0x9A8 SWAP2 SWAP1 PUSH2 0x17B5 JUMP JUMPDEST PUSH2 0x9B2 SWAP2 SWAP1 PUSH2 0x17B5 JUMP JUMPDEST PUSH2 0x9BC SWAP1 DUP5 PUSH2 0x15A7 JUMP JUMPDEST SWAP3 POP JUMPDEST DUP5 ISZERO PUSH2 0xA3D JUMPI PUSH1 0x4 DUP1 SLOAD PUSH1 0x40 MLOAD PUSH4 0xA9059CBB PUSH1 0xE0 SHL DUP2 MSTORE PUSH1 0x1 PUSH1 0x1 PUSH1 0xA0 SHL SUB DUP14 DUP2 AND SWAP4 DUP3 ADD SWAP4 SWAP1 SWAP4 MSTORE PUSH1 0x24 DUP2 ADD DUP9 SWAP1 MSTORE SWAP2 AND SWAP1 PUSH4 0xA9059CBB SWAP1 PUSH1 0x44 ADD PUSH1 0x20 PUSH1 0x40 MLOAD DUP1 DUP4 SUB DUP2 PUSH0 DUP8 GAS CALL ISZERO DUP1 ISZERO PUSH2 0xA17 JUMPI RETURNDATASIZE PUSH0 PUSH0 RETURNDATACOPY RETURNDATASIZE PUSH0 REVERT JUMPDEST POP POP POP POP PUSH1 0x40 MLOAD RETURNDATASIZE PUSH1 0x1F NOT PUSH1 0x1F DUP3 ADD AND DUP3 ADD DUP1 PUSH1 0x40 MSTORE POP DUP2 ADD SWAP1 PUSH2 0xA3B SWAP2 SWAP1 PUSH2 0x1783 JUMP JUMPDEST POP JUMPDEST DUP4 ISZERO PUSH2 0xAB9 JUMPI PUSH1 0x1 SLOAD PUSH1 0x40 MLOAD PUSH4 0xA9059CBB PUSH1 0xE0 SHL DUP2 MSTORE PUSH1 0x1 PUSH1 0x1 PUSH1 0xA0 SHL SUB DUP13 DUP2 AND PUSH1 0x4 DUP4 ADD MSTORE PUSH1 0x24 DUP3 ADD DUP8 SWAP1 MSTORE SWAP1 SWAP2 AND SWAP1 PUSH4 0xA9059CBB SWAP1 PUSH1 0x44 ADD PUSH1 0x20 PUSH1 0x40 MLOAD DUP1 DUP4 SUB DUP2 PUSH0 DUP8 GAS CALL ISZERO DUP1 ISZERO PUSH2 0xA93 JUMPI RETURNDATASIZE PUSH0 PUSH0 RETURNDATACOPY RETURNDATASIZE PUSH0 REVERT JUMPDEST POP POP POP POP PUSH1 0x40 MLOAD RETURNDATASIZE PUSH1 0x1F NOT PUSH1 0x1F DUP3 ADD AND DUP3 ADD DUP1 PUSH1 0x40 MSTORE POP DUP2 ADD SWAP1 PUSH2 0xAB7 SWAP2 SWAP1 PUSH2 0x1783 JUMP JUMPDEST POP JUMPDEST DUP3 ISZERO PUSH2 0xAF4 JUMPI PUSH1 0x40 MLOAD PUSH1 0x1 PUSH1 0x1 PUSH1 0xA0 SHL SUB DUP12 AND SWAP1 DUP5 ISZERO PUSH2 0x8FC MUL SWAP1 DUP6 SWAP1 PUSH0 DUP2 DUP2 DUP2 DUP6 DUP9 DUP9 CALL SWAP4 POP POP POP POP ISZERO DUP1 ISZERO PUSH2 0xAF2 JUMPI RETURNDATASIZE PUSH0 PUSH0 RETURNDATACOPY RETURNDATASIZE PUSH0 REVERT JUMPDEST POP JUMPDEST DUP5 PUSH1 0x5 PUSH0 DUP3 DUP3 SLOAD PUSH2 0xB05 SWAP2 SWAP1 PUSH2 0x17D4 JUMP JUMPDEST SWAP1 SWAP2 SSTORE POP POP PUSH0 PUSH1 0x7 DUP2 SWAP1 SSTORE PUSH1 0x8 DUP2 SWAP1 SSTORE PUSH1 0x6 DUP1 SLOAD DUP6 SWAP3 SWAP1 PUSH2 0xB27 SWAP1 DUP5 SWAP1 PUSH2 0x17D4 JUMP JUMPDEST SWAP1 SWAP2 SSTORE POP POP PUSH1 0x40 DUP1 MLOAD DUP7 DUP2 MSTORE PUSH1 0x20 DUP2 ADD DUP7 SWAP1 MSTORE SWAP1 DUP2 ADD DUP5 SWAP1 MSTORE PUSH1 0x1 PUSH1 0x1 PUSH1 0xA0 SHL SUB DUP12 AND SWAP1 PUSH32 0x9CDCF2F7714CCA3508C7F0110B04A90A80A3A8DD0E35DE99689DB74D28C5383E SWAP1 PUSH1 0x60 ADD PUSH1 0x40 MLOAD DUP1 SWAP2 SUB SWAP1 LOG2 POP POP POP POP POP POP POP POP POP POP JUMP JUMPDEST PUSH2 0xB8C PUSH2 0x1518 JUMP JUMPDEST PUSH1 0x1 PUSH1 0x1 PUSH1 0xA0 SHL SUB SWAP2 SWAP1 SWAP2 AND PUSH0 SWAP1 DUP2 MSTORE PUSH1 0xB PUSH1 0x20 MSTORE PUSH1 0x40 SWAP1 KECCAK256 DUP1 SLOAD PUSH1 0xFF NOT AND SWAP2 ISZERO ISZERO SWAP2 SWAP1 SWAP2 OR SWAP1 SSTORE JUMP JUMPDEST PUSH1 0x1 SLOAD PUSH1 0x1 PUSH1 0x1 PUSH1 0xA0 SHL SUB AND CALLER EQ DUP1 PUSH2 0xBD8 JUMPI POP PUSH0 SLOAD PUSH1 0x1 PUSH1 0x1 PUSH1 0xA0 SHL SUB AND CALLER EQ JUMPDEST PUSH2 0xC1F JUMPI PUSH1 0x40 MLOAD PUSH3 0x461BCD PUSH1 0xE5 SHL DUP2 MSTORE PUSH1 0x20 PUSH1 0x4 DUP3 ADD MSTORE PUSH1 0x18 PUSH1 0x24 DUP3 ADD MSTORE PUSH24 0x27B7363C902927A6A0A72A37B5B2B71037B91037BBB732B9 PUSH1 0x41 SHL PUSH1 0x44 DUP3 ADD MSTORE PUSH1 0x64 ADD PUSH2 0x5D2 JUMP JUMPDEST PUSH1 0x1 SLOAD PUSH1 0x40 MLOAD PUSH4 0x23B872DD PUSH1 0xE0 SHL DUP2 MSTORE CALLER PUSH1 0x4 DUP3 ADD MSTORE ADDRESS PUSH1 0x24 DUP3 ADD MSTORE PUSH1 0x44 DUP2 ADD DUP5 SWAP1 MSTORE PUSH1 0x1 PUSH1 0x1 PUSH1 0xA0 SHL SUB SWAP1 SWAP2 AND SWAP1 PUSH4 0x23B872DD SWAP1 PUSH1 0x64 ADD PUSH1 0x20 PUSH1 0x40 MLOAD DUP1 DUP4 SUB DUP2 PUSH0 DUP8 GAS CALL ISZERO DUP1 ISZERO PUSH2 0xC73 JUMPI RETURNDATASIZE PUSH0 PUSH0 RETURNDATACOPY RETURNDATASIZE PUSH0 REVERT JUMPDEST POP POP POP POP PUSH1 0x40 MLOAD RETURNDATASIZE PUSH1 0x1F NOT PUSH1 0x1F DUP3 ADD AND DUP3 ADD DUP1 PUSH1 0x40 MSTORE POP DUP2 ADD SWAP1 PUSH2 0xC97 SWAP2 SWAP1 PUSH2 0x1783 JUMP JUMPDEST POP PUSH1 0x40 DUP1 MLOAD DUP1 DUP3 ADD SWAP1 SWAP2 MSTORE PUSH1 0x9 DUP2 MSTORE PUSH9 0x616E74695F64756D7 PUSH1 0xBC SHL PUSH1 0x20 SWAP2 DUP3 ADD MSTORE DUP2 MLOAD SWAP1 DUP3 ADD KECCAK256 PUSH32 0xA3F057A9A7D57709B5114F83B343454E80CC0F1A75BF54E2A6643D70B90E72D2 ADD PUSH2 0xD01 JUMPI DUP2 PUSH1 0x7 PUSH0 DUP3 DUP3 SLOAD PUSH2 0xCF6 SWAP2 SWAP1 PUSH2 0x15A7 JUMP JUMPDEST SWAP1 SWAP2 SSTORE POP PUSH2 0xD65 SWAP1 POP JUMP JUMPDEST PUSH1 0x40 DUP1 MLOAD DUP1 DUP3 ADD SWAP1 SWAP2 MSTORE PUSH1 0x9 DUP2 MSTORE PUSH9 0x686173685F67616D65 PUSH1 0xB8 SHL PUSH1 0x20 SWAP2 DUP3 ADD MSTORE DUP2 MLOAD SWAP1 DUP3 ADD KECCAK256 PUSH32 0xD1F02842571171EEAEDE1665BD9F96206160BA4123EA0C0035D2E3B1C40BEAFD ADD PUSH2 0xD65 JUMPI DUP2 PUSH1 0x8 PUSH0 DUP3 DUP3 SLOAD PUSH2 0xD5F SWAP2 SWAP1 PUSH2 0x15A7 JUMP JUMPDEST SWAP1 SWAP2 SSTORE POP POP JUMPDEST PUSH32 0x82D98A00C349D609E6AB098B00D153A6F84A70ABFD6074C0DCC81C83E5E22CA8 DUP2 DUP4 PUSH1 0x40 MLOAD PUSH2 0xD96 SWAP3 SWAP2 SWAP1 PUSH2 0x17E7 JUMP JUMPDEST PUSH1 0x40 MLOAD DUP1 SWAP2 SUB SWAP1 LOG1 POP POP JUMP JUMPDEST PUSH2 0xDAA PUSH2 0x1518 JUMP JUMPDEST PUSH2 0xDB3 PUSH0 PUSH2 0x1544 JUMP JUMPDEST JUMP JUMPDEST PUSH1 0x1 SLOAD PUSH1 0x1 PUSH1 0x1 PUSH1 0xA0 SHL SUB AND CALLER EQ DUP1 PUSH2 0xDD7 JUMPI POP PUSH0 SLOAD PUSH1 0x1 PUSH1 0x1 PUSH1 0xA0 SHL SUB AND CALLER EQ JUMPDEST PUSH2 0xE1E JUMPI PUSH1 0x40 MLOAD PUSH3 0x461BCD PUSH1 0xE5 SHL DUP2 MSTORE PUSH1 0x20 PUSH1 0x4 DUP3 ADD MSTORE PUSH1 0x18 PUSH1 0x24 DUP3 ADD MSTORE PUSH24 0x27B7363C902927A6A0A72A37B5B2B71037B91037BBB732B9 PUSH1 0x41 SHL PUSH1 0x44 DUP3 ADD MSTORE PUSH1 0x64 ADD PUSH2 0x5D2 JUMP JUMPDEST PUSH1 0x4 DUP1 SLOAD PUSH1 0x40 MLOAD PUSH4 0x23B872DD PUSH1 0xE0 SHL DUP2 MSTORE CALLER SWAP3 DUP2 ADD SWAP3 SWAP1 SWAP3 MSTORE ADDRESS PUSH1 0x24 DUP4 ADD MSTORE PUSH1 0x44 DUP3 ADD DUP4 SWAP1 MSTORE PUSH1 0x1 PUSH1 0x1 PUSH1 0xA0 SHL SUB AND SWAP1 PUSH4 0x23B872DD SWAP1 PUSH1 0x64 ADD PUSH1 0x20 PUSH1 0x40 MLOAD DUP1 DUP4 SUB DUP2 PUSH0 DUP8 GAS CALL ISZERO DUP1 ISZERO PUSH2 0xE73 JUMPI RETURNDATASIZE PUSH0 PUSH0 RETURNDATACOPY RETURNDATASIZE PUSH0 REVERT JUMPDEST POP POP POP POP PUSH1 0x40 MLOAD RETURNDATASIZE PUSH1 0x1F NOT PUSH1 0x1F DUP3 ADD AND DUP3 ADD DUP1 PUSH1 0x40 MSTORE POP DUP2 ADD SWAP1 PUSH2 0xE97 SWAP2 SWAP1 PUSH2 0x1783 JUMP JUMPDEST POP DUP1 PUSH1 0x5 PUSH0 DUP3 DUP3 SLOAD PUSH2 0xEA9 SWAP2 SWAP1 PUSH2 0x15A7 JUMP JUMPDEST SWAP1 SWAP2 SSTORE POP POP PUSH1 0x40 DUP1 MLOAD DUP2 DUP2 MSTORE PUSH1 0x8 DUP2 DUP4 ADD MSTORE PUSH8 0x19995957DD5CD91D PUSH1 0xC2 SHL PUSH1 0x60 DUP3 ADD MSTORE PUSH1 0x20 DUP2 ADD DUP4 SWAP1 MSTORE SWAP1 MLOAD PUSH32 0x82D98A00C349D609E6AB098B00D153A6F84A70ABFD6074C0DCC81C83E5E22CA8 SWAP2 DUP2 SWAP1 SUB PUSH1 0x80 ADD SWAP1 LOG1 POP JUMP JUMPDEST CALLER DUP3 ISZERO PUSH2 0xFC4 JUMPI PUSH1 0x2 SLOAD PUSH1 0x40 MLOAD PUSH4 0x31A9108F PUSH1 0xE1 SHL DUP2 MSTORE PUSH1 0x4 DUP2 ADD DUP6 SWAP1 MSTORE PUSH1 0x1 PUSH1 0x1 PUSH1 0xA0 SHL SUB DUP4 DUP2 AND SWAP3 AND SWAP1 PUSH4 0x6352211E SWAP1 PUSH1 0x24 ADD PUSH1 0x20 PUSH1 0x40 MLOAD DUP1 DUP4 SUB DUP2 DUP7 GAS STATICCALL ISZERO DUP1 ISZERO PUSH2 0xF52 JUMPI RETURNDATASIZE PUSH0 PUSH0 RETURNDATACOPY RETURNDATASIZE PUSH0 REVERT JUMPDEST POP POP POP POP PUSH1 0x40 MLOAD RETURNDATASIZE PUSH1 0x1F NOT PUSH1 0x1F DUP3 ADD AND DUP3 ADD DUP1 PUSH1 0x40 MSTORE POP DUP2 ADD SWAP1 PUSH2 0xF76 SWAP2 SWAP1 PUSH2 0x1823 JUMP JUMPDEST PUSH1 0x1 PUSH1 0x1 PUSH1 0xA0 SHL SUB AND EQ PUSH2 0xFC4 JUMPI PUSH1 0x40 MLOAD PUSH3 0x461BCD PUSH1 0xE5 SHL DUP2 MSTORE PUSH1 0x20 PUSH1 0x4 DUP3 ADD MSTORE PUSH1 0x15 PUSH1 0x24 DUP3 ADD MSTORE PUSH21 0x139BDD081BDDDB995C881BD9881B585A5B88139195 PUSH1 0x5A SHL PUSH1 0x44 DUP3 ADD MSTORE PUSH1 0x64 ADD PUSH2 0x5D2 JUMP JUMPDEST DUP2 ISZERO PUSH2 0x1084 JUMPI PUSH1 0x3 SLOAD PUSH1 0x40 MLOAD PUSH4 0x31A9108F PUSH1 0xE1 SHL DUP2 MSTORE PUSH1 0x4 DUP2 ADD DUP5 SWAP1 MSTORE PUSH1 0x1 PUSH1 0x1 PUSH1 0xA0 SHL SUB DUP4 DUP2 AND SWAP3 AND SWAP1 PUSH4 0x6352211E SWAP1 PUSH1 0x24 ADD PUSH1 0x20 PUSH1 0x40 MLOAD DUP1 DUP4 SUB DUP2 DUP7 GAS STATICCALL ISZERO DUP1 ISZERO PUSH2 0x1013 JUMPI RETURNDATASIZE PUSH0 PUSH0 RETURNDATACOPY RETURNDATASIZE PUSH0 REVERT JUMPDEST POP POP POP POP PUSH1 0x40 MLOAD RETURNDATASIZE PUSH1 0x1F NOT PUSH1 0x1F DUP3 ADD AND DUP3 ADD DUP1 PUSH1 0x40 MSTORE POP DUP2 ADD SWAP1 PUSH2 0x1037 SWAP2 SWAP1 PUSH2 0x1823 JUMP JUMPDEST PUSH1 0x1 PUSH1 0x1 PUSH1 0xA0 SHL SUB AND EQ PUSH2 0x1084 JUMPI PUSH1 0x40 MLOAD PUSH3 0x461BCD PUSH1 0xE5 SHL DUP2 MSTORE PUSH1 0x20 PUSH1 0x4 DUP3 ADD MSTORE PUSH1 0x14 PUSH1 0x24 DUP3 ADD MSTORE PUSH20 0x139BDD081BDDDB995C881BD9881CDD5888139195 PUSH1 0x62 SHL PUSH1 0x44 DUP3 ADD MSTORE PUSH1 0x64 ADD PUSH2 0x5D2 JUMP JUMPDEST PUSH1 0x1 SLOAD PUSH1 0x40 MLOAD PUSH4 0xEA0D5DCD PUSH1 0xE0 SHL DUP2 MSTORE PUSH1 0x1 PUSH1 0x1 PUSH1 0xA0 SHL SUB DUP4 DUP2 AND PUSH1 0x4 DUP4 ADD MSTORE PUSH0 SWAP3 DUP4 SWAP3 SWAP2 AND SWAP1 PUSH4 0xEA0D5DCD SWAP1 PUSH1 0x24 ADD PUSH1 0x60 PUSH1 0x40 MLOAD DUP1 DUP4 SUB DUP2 DUP7 GAS STATICCALL ISZERO DUP1 ISZERO PUSH2 0x10CF JUMPI RETURNDATASIZE PUSH0 PUSH0 RETURNDATACOPY RETURNDATASIZE PUSH0 REVERT JUMPDEST POP POP POP POP PUSH1 0x40 MLOAD RETURNDATASIZE PUSH1 0x1F NOT PUSH1 0x1F DUP3 ADD AND DUP3 ADD DUP1 PUSH1 0x40 MSTORE POP DUP2 ADD SWAP1 PUSH2 0x10F3 SWAP2 SWAP1 PUSH2 0x183E JUMP JUMPDEST POP SWAP2 POP SWAP2 POP PUSH7 0x71AFD498D0000 DUP3 LT ISZERO DUP1 ISZERO PUSH2 0x110C JUMPI POP DUP1 JUMPDEST PUSH2 0x1158 JUMPI PUSH1 0x40 MLOAD PUSH3 0x461BCD PUSH1 0xE5 SHL DUP2 MSTORE PUSH1 0x20 PUSH1 0x4 DUP3 ADD DUP2 SWAP1 MSTORE PUSH1 0x24 DUP3 ADD MSTORE PUSH32 0x4E656564206174206C6561737420302E3220424E4220696E766573746D656E74 PUSH1 0x44 DUP3 ADD MSTORE PUSH1 0x64 ADD PUSH2 0x5D2 JUMP JUMPDEST PUSH1 0x1 PUSH1 0x1 PUSH1 0xA0 SHL SUB DUP4 AND PUSH0 SWAP1 DUP2 MSTORE PUSH1 0xB PUSH1 0x20 MSTORE PUSH1 0x40 SWAP1 KECCAK256 SLOAD PUSH1 0xFF AND PUSH2 0x129B JUMPI PUSH1 0x1 PUSH1 0x1 PUSH1 0xA0 SHL SUB DUP4 AND PUSH0 SWAP1 DUP2 MSTORE PUSH1 0x9 PUSH1 0x20 MSTORE PUSH1 0x40 SWAP1 KECCAK256 SLOAD ISZERO DUP1 PUSH2 0x11B1 JUMPI POP PUSH1 0x1 PUSH1 0x1 PUSH1 0xA0 SHL SUB DUP4 AND PUSH0 SWAP1 DUP2 MSTORE PUSH1 0x9 PUSH1 0x20 MSTORE PUSH1 0x40 SWAP1 KECCAK256 SLOAD DUP6 EQ JUMPDEST PUSH2 0x1209 JUMPI PUSH1 0x40 MLOAD PUSH3 0x461BCD PUSH1 0xE5 SHL DUP2 MSTORE PUSH1 0x20 PUSH1 0x4 DUP3 ADD MSTORE PUSH1 0x24 DUP1 DUP3 ADD MSTORE PUSH32 0x416C72656164792061637469766174656420646966666572656E74206D61696E PUSH1 0x44 DUP3 ADD MSTORE PUSH4 0x8139195 PUSH1 0xE2 SHL PUSH1 0x64 DUP3 ADD MSTORE PUSH1 0x84 ADD PUSH2 0x5D2 JUMP JUMPDEST PUSH1 0x1 PUSH1 0x1 PUSH1 0xA0 SHL SUB DUP4 AND PUSH0 SWAP1 DUP2 MSTORE PUSH1 0xA PUSH1 0x20 MSTORE PUSH1 0x40 SWAP1 KECCAK256 SLOAD ISZERO DUP1 PUSH2 0x1243 JUMPI POP PUSH1 0x1 PUSH1 0x1 PUSH1 0xA0 SHL SUB DUP4 AND PUSH0 SWAP1 DUP2 MSTORE PUSH1 0xA PUSH1 0x20 MSTORE PUSH1 0x40 SWAP1 KECCAK256 SLOAD DUP5 EQ JUMPDEST PUSH2 0x129B JUMPI PUSH1 0x40 MLOAD PUSH3 0x461BCD PUSH1 0xE5 SHL DUP2 MSTORE PUSH1 0x20 PUSH1 0x4 DUP3 ADD MSTORE PUSH1 0x23 PUSH1 0x24 DUP3 ADD MSTORE PUSH32 0x416C72656164792061637469766174656420646966666572656E742073756220 PUSH1 0x44 DUP3 ADD MSTORE PUSH3 0x139195 PUSH1 0xEA SHL PUSH1 0x64 DUP3 ADD MSTORE PUSH1 0x84 ADD PUSH2 0x5D2 JUMP JUMPDEST DUP5 ISZERO DUP1 ISZERO SWAP1 PUSH2 0x12C1 JUMPI POP PUSH1 0x1 PUSH1 0x1 PUSH1 0xA0 SHL SUB DUP4 AND PUSH0 SWAP1 DUP2 MSTORE PUSH1 0x9 PUSH1 0x20 MSTORE PUSH1 0x40 SWAP1 KECCAK256 SLOAD DUP6 EQ ISZERO JUMPDEST ISZERO PUSH2 0x1326 JUMPI PUSH1 0x1 PUSH1 0x1 PUSH1 0xA0 SHL SUB DUP4 AND PUSH0 SWAP1 DUP2 MSTORE PUSH1 0x9 PUSH1 0x20 MSTORE PUSH1 0x40 SWAP1 KECCAK256 SLOAD ISZERO PUSH2 0x12F8 JUMPI PUSH1 0xC DUP1 SLOAD SWAP1 PUSH0 PUSH2 0x12F2 DUP4 PUSH2 0x187F JUMP JUMPDEST SWAP2 SWAP1 POP SSTORE POP JUMPDEST PUSH1 0x1 PUSH1 0x1 PUSH1 0xA0 SHL SUB DUP4 AND PUSH0 SWAP1 DUP2 MSTORE PUSH1 0x9 PUSH1 0x20 MSTORE PUSH1 0x40 DUP2 KECCAK256 DUP7 SWAP1 SSTORE PUSH1 0xC DUP1 SLOAD SWAP2 PUSH2 0x1320 DUP4 PUSH2 0x1894 JUMP JUMPDEST SWAP2 SWAP1 POP SSTORE POP JUMPDEST DUP4 ISZERO DUP1 ISZERO SWAP1 PUSH2 0x134C JUMPI POP PUSH1 0x1 PUSH1 0x1 PUSH1 0xA0 SHL SUB DUP4 AND PUSH0 SWAP1 DUP2 MSTORE PUSH1 0xA PUSH1 0x20 MSTORE PUSH1 0x40 SWAP1 KECCAK256 SLOAD DUP5 EQ ISZERO JUMPDEST ISZERO PUSH2 0x13B1 JUMPI PUSH1 0x1 PUSH1 0x1 PUSH1 0xA0 SHL SUB DUP4 AND PUSH0 SWAP1 DUP2 MSTORE PUSH1 0xA PUSH1 0x20 MSTORE PUSH1 0x40 SWAP1 KECCAK256 SLOAD ISZERO PUSH2 0x1383 JUMPI PUSH1 0xD DUP1 SLOAD SWAP1 PUSH0 PUSH2 0x137D DUP4 PUSH2 0x187F JUMP JUMPDEST SWAP2 SWAP1 POP SSTORE POP JUMPDEST PUSH1 0x1 PUSH1 0x1 PUSH1 0xA0 SHL SUB DUP4 AND PUSH0 SWAP1 DUP2 MSTORE PUSH1 0xA PUSH1 0x20 MSTORE PUSH1 0x40 DUP2 KECCAK256 DUP6 SWAP1 SSTORE PUSH1 0xD DUP1 SLOAD SWAP2 PUSH2 0x13AB DUP4 PUSH2 0x1894 JUMP JUMPDEST SWAP2 SWAP1 POP SSTORE POP JUMPDEST PUSH1 0x40 DUP1 MLOAD DUP7 DUP2 MSTORE PUSH1 0x20 DUP2 ADD DUP7 SWAP1 MSTORE PUSH1 0x1 PUSH1 0x1 PUSH1 0xA0 SHL SUB DUP6 AND SWAP2 PUSH32 0xF89BE561C4CE44410305A86555EBAE8B579DE22890A703AC89051C5971B5D4DC SWAP2 ADD PUSH1 0x40 MLOAD DUP1 SWAP2 SUB SWAP1 LOG2 POP POP POP POP POP JUMP JUMPDEST PUSH2 0x1404 PUSH2 0x1518 JUMP JUMPDEST PUSH1 0x1 PUSH1 0x1 PUSH1 0xA0 SHL SUB DUP3 AND PUSH2 0x144D JUMPI PUSH0 DUP1 SLOAD PUSH1 0x40 MLOAD PUSH1 0x1 PUSH1 0x1 PUSH1 0xA0 SHL SUB SWAP1 SWAP2 AND SWAP2 DUP4 ISZERO PUSH2 0x8FC MUL SWAP2 DUP5 SWAP2 DUP2 DUP2 DUP2 DUP6 DUP9 DUP9 CALL SWAP4 POP POP POP POP ISZERO DUP1 ISZERO PUSH2 0x1448 JUMPI RETURNDATASIZE PUSH0 PUSH0 RETURNDATACOPY RETURNDATASIZE PUSH0 REVERT JUMPDEST POP POP POP JUMP JUMPDEST DUP2 PUSH1 0x1 PUSH1 0x1 PUSH1 0xA0 SHL SUB AND PUSH4 0xA9059CBB PUSH2 0x146D PUSH0 SLOAD PUSH1 0x1 PUSH1 0x1 PUSH1 0xA0 SHL SUB AND SWAP1 JUMP JUMPDEST PUSH1 0x40 MLOAD PUSH1 0x1 PUSH1 0x1 PUSH1 0xE0 SHL SUB NOT PUSH1 0xE0 DUP5 SWAP1 SHL AND DUP2 MSTORE PUSH1 0x1 PUSH1 0x1 PUSH1 0xA0 SHL SUB SWAP1 SWAP2 AND PUSH1 0x4 DUP3 ADD MSTORE PUSH1 0x24 DUP2 ADD DUP5 SWAP1 MSTORE PUSH1 0x44 ADD PUSH1 0x20 PUSH1 0x40 MLOAD DUP1 DUP4 SUB DUP2 PUSH0 DUP8 GAS CALL ISZERO DUP1 ISZERO PUSH2 0x14B7 JUMPI RETURNDATASIZE PUSH0 PUSH0 RETURNDATACOPY RETURNDATASIZE PUSH0 REVERT JUMPDEST POP POP POP POP PUSH1 0x40 MLOAD RETURNDATASIZE PUSH1 0x1F NOT PUSH1 0x1F DUP3 ADD AND DUP3 ADD DUP1 PUSH1 0x40 MSTORE POP DUP2 ADD SWAP1 PUSH2 0x1448 SWAP2 SWAP1 PUSH2 0x1783 JUMP JUMPDEST PUSH2 0x14E3 PUSH2 0x1518 JUMP JUMPDEST PUSH1 0x1 PUSH1 0x1 PUSH1 0xA0 SHL SUB DUP2 AND PUSH2 0x150C JUMPI PUSH1 0x40 MLOAD PUSH4 0x1E4FBDF7 PUSH1 0xE0 SHL DUP2 MSTORE PUSH0 PUSH1 0x4 DUP3 ADD MSTORE PUSH1 0x24 ADD PUSH2 0x5D2 JUMP JUMPDEST PUSH2 0x1515 DUP2 PUSH2 0x1544 JUMP JUMPDEST POP JUMP JUMPDEST PUSH0 SLOAD PUSH1 0x1 PUSH1 0x1 PUSH1 0xA0 SHL SUB AND CALLER EQ PUSH2 0xDB3 JUMPI PUSH1 0x40 MLOAD PUSH4 0x118CDAA7 PUSH1 0xE0 SHL DUP2 MSTORE CALLER PUSH1 0x4 DUP3 ADD MSTORE PUSH1 0x24 ADD PUSH2 0x5D2 JUMP JUMPDEST PUSH0 DUP1 SLOAD PUSH1 0x1 PUSH1 0x1 PUSH1 0xA0 SHL SUB DUP4 DUP2 AND PUSH1 0x1 PUSH1 0x1 PUSH1 0xA0 SHL SUB NOT DUP4 AND DUP2 OR DUP5 SSTORE PUSH1 0x40 MLOAD SWAP2 SWAP1 SWAP3 AND SWAP3 DUP4 SWAP2 PUSH32 0x8BE0079C531659141344CD1FD0A4F28419497F9722A3DAAFE3B4186F6B6457E0 SWAP2 SWAP1 LOG3 POP POP JUMP JUMPDEST PUSH4 0x4E487B71 PUSH1 0xE0 SHL PUSH0 MSTORE PUSH1 0x11 PUSH1 0x4 MSTORE PUSH1 0x24 PUSH0 REVERT JUMPDEST DUP1 DUP3 ADD DUP1 DUP3 GT ISZERO PUSH2 0x15BA JUMPI PUSH2 0x15BA PUSH2 0x1593 JUMP JUMPDEST SWAP3 SWAP2 POP POP JUMP JUMPDEST PUSH1 0x1 PUSH1 0x1 PUSH1 0xA0 SHL SUB DUP2 AND DUP2 EQ PUSH2 0x1515 JUMPI PUSH0 PUSH0 REVERT JUMPDEST PUSH0 PUSH1 0x20 DUP3 DUP5 SUB SLT ISZERO PUSH2 0x15E4 JUMPI PUSH0 PUSH0 REVERT JUMPDEST DUP2 CALLDATALOAD PUSH2 0x15EF DUP2 PUSH2 0x15C0 JUMP JUMPDEST SWAP4 SWAP3 POP POP POP JUMP JUMPDEST DUP1 ISZERO ISZERO DUP2 EQ PUSH2 0x1515 JUMPI PUSH0 PUSH0 REVERT JUMPDEST PUSH0 PUSH0 PUSH1 0x40 DUP4 DUP6 SUB SLT ISZERO PUSH2 0x1614 JUMPI PUSH0 PUSH0 REVERT JUMPDEST DUP3 CALLDATALOAD PUSH2 0x161F DUP2 PUSH2 0x15C0 JUMP JUMPDEST SWAP2 POP PUSH1 0x20 DUP4 ADD CALLDATALOAD PUSH2 0x162F DUP2 PUSH2 0x15F6 JUMP JUMPDEST DUP1 SWAP2 POP POP SWAP3 POP SWAP3 SWAP1 POP JUMP JUMPDEST PUSH4 0x4E487B71 PUSH1 0xE0 SHL PUSH0 MSTORE PUSH1 0x41 PUSH1 0x4 MSTORE PUSH1 0x24 PUSH0 REVERT JUMPDEST PUSH0 PUSH0 PUSH1 0x40 DUP4 DUP6 SUB SLT ISZERO PUSH2 0x165F JUMPI PUSH0 PUSH0 REVERT JUMPDEST DUP3 CALLDATALOAD SWAP2 POP PUSH1 0x20 DUP4 ADD CALLDATALOAD PUSH8 0xFFFFFFFFFFFFFFFF DUP2 GT ISZERO PUSH2 0x167C JUMPI PUSH0 PUSH0 REVERT JUMPDEST DUP4 ADD PUSH1 0x1F DUP2 ADD DUP6 SGT PUSH2 0x168C JUMPI PUSH0 PUSH0 REVERT JUMPDEST DUP1 CALLDATALOAD PUSH8 0xFFFFFFFFFFFFFFFF DUP2 GT ISZERO PUSH2 0x16A6 JUMPI PUSH2 0x16A6 PUSH2 0x163A JUMP JUMPDEST PUSH1 0x40 MLOAD PUSH1 0x1F DUP3 ADD PUSH1 0x1F NOT SWAP1 DUP2 AND PUSH1 0x3F ADD AND DUP2 ADD PUSH8 0xFFFFFFFFFFFFFFFF DUP2 GT DUP3 DUP3 LT OR ISZERO PUSH2 0x16D5 JUMPI PUSH2 0x16D5 PUSH2 0x163A JUMP JUMPDEST PUSH1 0x40 MSTORE DUP2 DUP2 MSTORE DUP3 DUP3 ADD PUSH1 0x20 ADD DUP8 LT ISZERO PUSH2 0x16EC JUMPI PUSH0 PUSH0 REVERT JUMPDEST DUP2 PUSH1 0x20 DUP5 ADD PUSH1 0x20 DUP4 ADD CALLDATACOPY PUSH0 PUSH1 0x20 DUP4 DUP4 ADD ADD MSTORE DUP1 SWAP4 POP POP POP POP SWAP3 POP SWAP3 SWAP1 POP JUMP JUMPDEST PUSH0 PUSH1 0x20 DUP3 DUP5 SUB SLT ISZERO PUSH2 0x171B JUMPI PUSH0 PUSH0 REVERT JUMPDEST POP CALLDATALOAD SWAP2 SWAP1 POP JUMP JUMPDEST PUSH0 PUSH0 PUSH1 0x40 DUP4 DUP6 SUB SLT ISZERO PUSH2 0x1733 JUMPI PUSH0 PUSH0 REVERT JUMPDEST POP POP DUP1 CALLDATALOAD SWAP3 PUSH1 0x20 SWAP1 SWAP2 ADD CALLDATALOAD SWAP2 POP JUMP JUMPDEST PUSH0 PUSH0 PUSH1 0x40 DUP4 DUP6 SUB SLT ISZERO PUSH2 0x1753 JUMPI PUSH0 PUSH0 REVERT JUMPDEST DUP3 CALLDATALOAD PUSH2 0x175E DUP2 PUSH2 0x15C0 JUMP JUMPDEST SWAP5 PUSH1 0x20 SWAP4 SWAP1 SWAP4 ADD CALLDATALOAD SWAP4 POP POP POP JUMP JUMPDEST PUSH0 PUSH1 0x20 DUP3 DUP5 SUB SLT ISZERO PUSH2 0x177C JUMPI PUSH0 PUSH0 REVERT JUMPDEST POP MLOAD SWAP2 SWAP1 POP JUMP JUMPDEST PUSH0 PUSH1 0x20 DUP3 DUP5 SUB SLT ISZERO PUSH2 0x1793 JUMPI PUSH0 PUSH0 REVERT JUMPDEST DUP2 MLOAD PUSH2 0x15EF DUP2 PUSH2 0x15F6 JUMP JUMPDEST DUP1 DUP3 MUL DUP2 ISZERO DUP3 DUP3 DIV DUP5 EQ OR PUSH2 0x15BA JUMPI PUSH2 0x15BA PUSH2 0x1593 JUMP JUMPDEST PUSH0 DUP3 PUSH2 0x17CF JUMPI PUSH4 0x4E487B71 PUSH1 0xE0 SHL PUSH0 MSTORE PUSH1 0x12 PUSH1 0x4 MSTORE PUSH1 0x24 PUSH0 REVERT JUMPDEST POP DIV SWAP1 JUMP JUMPDEST DUP2 DUP2 SUB DUP2 DUP2 GT ISZERO PUSH2 0x15BA JUMPI PUSH2 0x15BA PUSH2 0x1593 JUMP JUMPDEST PUSH1 0x40 DUP2 MSTORE PUSH0 DUP4 MLOAD DUP1 PUSH1 0x40 DUP5 ADD MSTORE DUP1 PUSH1 0x20 DUP7 ADD PUSH1 0x60 DUP6 ADD MCOPY PUSH0 PUSH1 0x60 DUP3 DUP6 ADD ADD MSTORE PUSH1 0x60 PUSH1 0x1F NOT PUSH1 0x1F DUP4 ADD AND DUP5 ADD ADD SWAP2 POP POP DUP3 PUSH1 0x20 DUP4 ADD MSTORE SWAP4 SWAP3 POP POP POP JUMP JUMPDEST PUSH0 PUSH1 0x20 DUP3 DUP5 SUB SLT ISZERO PUSH2 0x1833 JUMPI PUSH0 PUSH0 REVERT JUMPDEST DUP2 MLOAD PUSH2 0x15EF DUP2 PUSH2 0x15C0 JUMP JUMPDEST PUSH0 PUSH0 PUSH0 PUSH1 0x60 DUP5 DUP7 SUB SLT ISZERO PUSH2 0x1850 JUMPI PUSH0 PUSH0 REVERT JUMPDEST DUP4 MLOAD PUSH1 0x20 DUP6 ADD MLOAD SWAP1 SWAP4 POP PUSH2 0x1863 DUP2 PUSH2 0x15F6 JUMP JUMPDEST PUSH1 0x40 DUP6 ADD MLOAD SWAP1 SWAP3 POP PUSH2 0x1874 DUP2 PUSH2 0x15F6 JUMP JUMPDEST DUP1 SWAP2 POP POP SWAP3 POP SWAP3 POP SWAP3 JUMP JUMPDEST PUSH0 DUP2 PUSH2 0x188D JUMPI PUSH2 0x188D PUSH2 0x1593 JUMP JUMPDEST POP PUSH0 NOT ADD SWAP1 JUMP JUMPDEST PUSH0 PUSH1 0x1 DUP3 ADD PUSH2 0x18A5 JUMPI PUSH2 0x18A5 PUSH2 0x1593 JUMP JUMPDEST POP PUSH1 0x1 ADD SWAP1 JUMP INVALID LOG2 PUSH5 0x6970667358 0x22 SLT KECCAK256 SGT CALLDATALOAD JUMPF 0x9392 GT 0xA6 0xCA LOG4 PUSH5 0x37EC39C217 PUSH19 0x1F6AA38BE6EF161AEDD67491DA143B1364736F PUSH13 0x63430008220033000000000000 "
		},
		"gasEstimates": {
			"creation": {
				"codeDepositCost": "1274000",
				"executionCost": "infinite",
				"totalCost": "infinite"
			},
			"external": {
				"activate(uint256,uint256)": "infinite",
				"activeMainTokenId(address)": "2523",
				"activeSubTokenId(address)": "2521",
				"antiDumpRomanPool()": "2395",
				"claim()": "infinite",
				"emergencyWithdraw(address,uint256)": "infinite",
				"feeUsdtPool()": "2350",
				"hashGameRomanPool()": "2371",
				"investBnbPool()": "2351",
				"mainNFT()": "2426",
				"owner()": "2352",
				"receiveRoman(uint256,string)": "infinite",
				"receiveUsdt(uint256)": "infinite",
				"renounceOwnership()": "infinite",
				"romanToken()": "2380",
				"setWhitelist(address,bool)": "infinite",
				"subNFT()": "2446",
				"totalActiveMain()": "2349",
				"totalActiveSub()": "2328",
				"transferOwnership(address)": "infinite",
				"usdt()": "2382",
				"whitelist(address)": "2633"
			}
		},
		"methodIdentifiers": {
			"activate(uint256,uint256)": "8ea8f83c",
			"activeMainTokenId(address)": "09aa92e3",
			"activeSubTokenId(address)": "a83cb9ab",
			"antiDumpRomanPool()": "48fe85e2",
			"claim()": "4e71d92d",
			"emergencyWithdraw(address,uint256)": "95ccea67",
			"feeUsdtPool()": "545bf9ad",
			"hashGameRomanPool()": "da912989",
			"investBnbPool()": "3540beff",
			"mainNFT()": "48e66c04",
			"owner()": "8da5cb5b",
			"receiveRoman(uint256,string)": "641117f4",
			"receiveUsdt(uint256)": "83db58fe",
			"renounceOwnership()": "715018a6",
			"romanToken()": "bb6c0ae1",
			"setWhitelist(address,bool)": "53d6fd59",
			"subNFT()": "dd6c4398",
			"totalActiveMain()": "c7e95e37",
			"totalActiveSub()": "8e9abef0",
			"transferOwnership(address)": "f2fde38b",
			"usdt()": "2f48ab7d",
			"whitelist(address)": "9b19251a"
		}
	},
	"abi": [
		{
			"inputs": [
				{
					"internalType": "address",
					"name": "_romanToken",
					"type": "address"
				},
				{
					"internalType": "address",
					"name": "_mainNFT",
					"type": "address"
				},
				{
					"internalType": "address",
					"name": "_subNFT",
					"type": "address"
				},
				{
					"internalType": "address",
					"name": "_usdt",
					"type": "address"
				}
			],
			"stateMutability": "nonpayable",
			"type": "constructor"
		},
		{
			"inputs": [
				{
					"internalType": "address",
					"name": "owner",
					"type": "address"
				}
			],
			"name": "OwnableInvalidOwner",
			"type": "error"
		},
		{
			"inputs": [
				{
					"internalType": "address",
					"name": "account",
					"type": "address"
				}
			],
			"name": "OwnableUnauthorizedAccount",
			"type": "error"
		},
		{
			"anonymous": false,
			"inputs": [
				{
					"indexed": true,
					"internalType": "address",
					"name": "user",
					"type": "address"
				},
				{
					"indexed": false,
					"internalType": "uint256",
					"name": "mainId",
					"type": "uint256"
				},
				{
					"indexed": false,
					"internalType": "uint256",
					"name": "subId",
					"type": "uint256"
				}
			],
			"name": "Activated",
			"type": "event"
		},
		{
			"anonymous": false,
			"inputs": [
				{
					"indexed": true,
					"internalType": "address",
					"name": "user",
					"type": "address"
				},
				{
					"indexed": false,
					"internalType": "uint256",
					"name": "usdtAmount",
					"type": "uint256"
				},
				{
					"indexed": false,
					"internalType": "uint256",
					"name": "romanAmount",
					"type": "uint256"
				},
				{
					"indexed": false,
					"internalType": "uint256",
					"name": "bnbAmount",
					"type": "uint256"
				}
			],
			"name": "Claimed",
			"type": "event"
		},
		{
			"anonymous": false,
			"inputs": [
				{
					"indexed": true,
					"internalType": "address",
					"name": "previousOwner",
					"type": "address"
				},
				{
					"indexed": true,
					"internalType": "address",
					"name": "newOwner",
					"type": "address"
				}
			],
			"name": "OwnershipTransferred",
			"type": "event"
		},
		{
			"anonymous": false,
			"inputs": [
				{
					"indexed": false,
					"internalType": "string",
					"name": "rewardType",
					"type": "string"
				},
				{
					"indexed": false,
					"internalType": "uint256",
					"name": "amount",
					"type": "uint256"
				}
			],
			"name": "RewardReceived",
			"type": "event"
		},
		{
			"inputs": [
				{
					"internalType": "uint256",
					"name": "mainTokenId",
					"type": "uint256"
				},
				{
					"internalType": "uint256",
					"name": "subTokenId",
					"type": "uint256"
				}
			],
			"name": "activate",
			"outputs": [],
			"stateMutability": "nonpayable",
			"type": "function"
		},
		{
			"inputs": [
				{
					"internalType": "address",
					"name": "",
					"type": "address"
				}
			],
			"name": "activeMainTokenId",
			"outputs": [
				{
					"internalType": "uint256",
					"name": "",
					"type": "uint256"
				}
			],
			"stateMutability": "view",
			"type": "function"
		},
		{
			"inputs": [
				{
					"internalType": "address",
					"name": "",
					"type": "address"
				}
			],
			"name": "activeSubTokenId",
			"outputs": [
				{
					"internalType": "uint256",
					"name": "",
					"type": "uint256"
				}
			],
			"stateMutability": "view",
			"type": "function"
		},
		{
			"inputs": [],
			"name": "antiDumpRomanPool",
			"outputs": [
				{
					"internalType": "uint256",
					"name": "",
					"type": "uint256"
				}
			],
			"stateMutability": "view",
			"type": "function"
		},
		{
			"inputs": [],
			"name": "claim",
			"outputs": [],
			"stateMutability": "nonpayable",
			"type": "function"
		},
		{
			"inputs": [
				{
					"internalType": "address",
					"name": "token",
					"type": "address"
				},
				{
					"internalType": "uint256",
					"name": "amount",
					"type": "uint256"
				}
			],
			"name": "emergencyWithdraw",
			"outputs": [],
			"stateMutability": "nonpayable",
			"type": "function"
		},
		{
			"inputs": [],
			"name": "feeUsdtPool",
			"outputs": [
				{
					"internalType": "uint256",
					"name": "",
					"type": "uint256"
				}
			],
			"stateMutability": "view",
			"type": "function"
		},
		{
			"inputs": [],
			"name": "hashGameRomanPool",
			"outputs": [
				{
					"internalType": "uint256",
					"name": "",
					"type": "uint256"
				}
			],
			"stateMutability": "view",
			"type": "function"
		},
		{
			"inputs": [],
			"name": "investBnbPool",
			"outputs": [
				{
					"internalType": "uint256",
					"name": "",
					"type": "uint256"
				}
			],
			"stateMutability": "view",
			"type": "function"
		},
		{
			"inputs": [],
			"name": "mainNFT",
			"outputs": [
				{
					"internalType": "address",
					"name": "",
					"type": "address"
				}
			],
			"stateMutability": "view",
			"type": "function"
		},
		{
			"inputs": [],
			"name": "owner",
			"outputs": [
				{
					"internalType": "address",
					"name": "",
					"type": "address"
				}
			],
			"stateMutability": "view",
			"type": "function"
		},
		{
			"inputs": [
				{
					"internalType": "uint256",
					"name": "amount",
					"type": "uint256"
				},
				{
					"internalType": "string",
					"name": "rewardType",
					"type": "string"
				}
			],
			"name": "receiveRoman",
			"outputs": [],
			"stateMutability": "nonpayable",
			"type": "function"
		},
		{
			"inputs": [
				{
					"internalType": "uint256",
					"name": "amount",
					"type": "uint256"
				}
			],
			"name": "receiveUsdt",
			"outputs": [],
			"stateMutability": "nonpayable",
			"type": "function"
		},
		{
			"inputs": [],
			"name": "renounceOwnership",
			"outputs": [],
			"stateMutability": "nonpayable",
			"type": "function"
		},
		{
			"inputs": [],
			"name": "romanToken",
			"outputs": [
				{
					"internalType": "contract IROMANToken",
					"name": "",
					"type": "address"
				}
			],
			"stateMutability": "view",
			"type": "function"
		},
		{
			"inputs": [
				{
					"internalType": "address",
					"name": "user",
					"type": "address"
				},
				{
					"internalType": "bool",
					"name": "status",
					"type": "bool"
				}
			],
			"name": "setWhitelist",
			"outputs": [],
			"stateMutability": "nonpayable",
			"type": "function"
		},
		{
			"inputs": [],
			"name": "subNFT",
			"outputs": [
				{
					"internalType": "address",
					"name": "",
					"type": "address"
				}
			],
			"stateMutability": "view",
			"type": "function"
		},
		{
			"inputs": [],
			"name": "totalActiveMain",
			"outputs": [
				{
					"internalType": "uint256",
					"name": "",
					"type": "uint256"
				}
			],
			"stateMutability": "view",
			"type": "function"
		},
		{
			"inputs": [],
			"name": "totalActiveSub",
			"outputs": [
				{
					"internalType": "uint256",
					"name": "",
					"type": "uint256"
				}
			],
			"stateMutability": "view",
			"type": "function"
		},
		{
			"inputs": [
				{
					"internalType": "address",
					"name": "newOwner",
					"type": "address"
				}
			],
			"name": "transferOwnership",
			"outputs": [],
			"stateMutability": "nonpayable",
			"type": "function"
		},
		{
			"inputs": [],
			"name": "usdt",
			"outputs": [
				{
					"internalType": "address",
					"name": "",
					"type": "address"
				}
			],
			"stateMutability": "view",
			"type": "function"
		},
		{
			"inputs": [
				{
					"internalType": "address",
					"name": "",
					"type": "address"
				}
			],
			"name": "whitelist",
			"outputs": [
				{
					"internalType": "bool",
					"name": "",
					"type": "bool"
				}
			],
			"stateMutability": "view",
			"type": "function"
		},
		{
			"stateMutability": "payable",
			"type": "receive"
		}
	]
}