{
	"data": {
		"bytecode": {
			"linkReferences": {},
			"object": "60a06040526a115eec47f6cf7e3500000060115567016345785d8a000060145560168054600161ff0160a01b0319167501005b6453ea3f0e6f975f7440884257037f72a7c33b1790556001601755348015610058575f5ffd5b50604051616afe380380616afe83398101604081905261007791612481565b336040518060400160405280600881526020016726a7a2aa37b5b2b760c11b815250604051806040016040528060038152602001624d4f4560e81b81525081600390816100c49190612555565b5060046100d18282612555565b5050506001600160a01b03811661010257604051631e4fbdf760e01b81525f60048201526024015b60405180910390fd5b61010b81610337565b5073d99d1c33f9fc3444f8101754abc46c52416550d16080819052604080516315ab88c960e31b8152905163ad5c4648916004808201926020929091908290030181865afa15801561015f573d5f5f3e3d5ffd5b505050506040513d601f19601f82011682018060405250810190610183919061260f565b600b5f6101000a8154816001600160a01b0302191690836001600160a01b031602179055506080516001600160a01b031663c45a01556040518163ffffffff1660e01b8152600401602060405180830381865afa1580156101e6573d5f5f3e3d5ffd5b505050506040513d601f19601f8201168201806040525081019061020a919061260f565b600b546040516364e329cb60e11b81523060048201526001600160a01b03918216602482015291169063c9c65396906044016020604051808303815f875af1158015610258573d5f5f3e3d5ffd5b505050506040513d601f19601f8201168201806040525081019061027c919061260f565b600680546001600160a01b03199081166001600160a01b0393841617909155600d80548216858416179055600e80549091169183169190911790556040516102c39061245e565b604051809103905ff0801580156102dc573d5f5f3e3d5ffd5b50601080546001600160a01b0319166001600160a01b03929092169190911790556369aaba1f60155561032f83610311601290565b61031c90600a61271f565b61032a90637d2b750061272d565b610388565b5050506129e2565b600580546001600160a01b038381166001600160a01b0319831681179093556040519116919082907f8be0079c531659141344cd1fd0a4f28419497f9722a3daafe3b4186f6b6457e0905f90a35050565b6001600160a01b0382166103b15760405163ec442f0560e01b81525f60048201526024016100f9565b6103bc5f83836103c0565b5050565b671bc16d674ec80000811480156103fc57506001600160a01b038084165f9081526007602090815260408083209386168352929052205460ff16155b15610431576001600160a01b038084165f908152600760209081526040808320938616835292905220805460ff191660011790555b670de0b6b3a76400008114801561046c57506001600160a01b038083165f9081526007602090815260408083209387168352929052205460ff165b801561048f57506001600160a01b038381165f908152600a602052604090205416155b15610517576001600160a01b038381165f908152600a6020908152604080832080546001600160a01b031916948716948517905592825260089052206104d59084610e14565b50826001600160a01b0316826001600160a01b03167f8d63f2e3d39eb6cf9c80d49bc203133f6f215ce2a1a3d27a68f0167f6c045d4860405160405180910390a35b335f908152601960205260409020541561059557335f9081526019602052604090205461054690600390612744565b4210156105955760405162461bcd60e51b815260206004820152601c60248201527f416e74692d666c6173686c6f616e3a20746f6f206672657175656e740000000060448201526064016100f9565b335f8181526019602052604090204290556001600160a01b0384161480156105dc57506001600160a01b0383165f908152600a6020526040902060070154610100900460ff165b80156105f057506001600160a01b03821630145b80156106035750670de0b6b3a764000081145b156106cc57601054600160a01b900460ff161561064a5760405162461bcd60e51b8152602060048201526005602482015264119d5cd95960da1b60448201526064016100f9565b6001600160a01b038381165f908152600a60205260409020541615801561067f57506016546001600160a01b03848116911614155b156106be5760405162461bcd60e51b815260206004820152600f60248201526e135d5cdd08189a5b9908199a5c9cdd608a1b60448201526064016100f9565b6106c783610e31565b505050565b336001600160a01b03841614801561070357506001600160a01b0383165f908152600a6020526040902060070154610100900460ff165b801561071757506001600160a01b03821630145b801561072a5750678ac7230489e8000081145b15610743576107388361118a565b6106c783838361137b565b6001600160a01b03831630148061076257506001600160a01b03821630145b8061077a57506010546001600160a01b038481169116145b8061079257506010546001600160a01b038381169116145b156107a2576106c783838361137b565b6006546001600160a01b03908116908416036109fe5742601554106107f55760405162461bcd60e51b8152602060048201526009602482015268737461727454696d6560b81b60448201526064016100f9565b325f9081526009602090815260408083204290819055601890925282205561081b6114a1565b11156108f0575f8061082b611636565b90506b033b2e3c9fd0803ce8000000811061085e57600a61084d84600961272d565b6108579190612757565b91506108c0565b6b019d971e4fe8401e74000000811061087e57600a61084d84600661272d565b6a52b7d2dcc80cd2e4000000811061089d57600a61084d84600461272d565b6a295be96e6406697200000081106108bc57600a61084d84600261272d565b8291505b6108cd8561dead8461137b565b818311156108e9576108e985856108e48587612776565b61137b565b5050505050565b60646108fa61173a565b61090590600561272d565b61090f9190612757565b81106109495760405162461bcd60e51b815260206004820152600960248201526836b0bc103a37b5b2b760b91b60448201526064016100f9565b5f6127106109598361012c61272d565b6109639190612757565b90505f606461097383604661272d565b61097d9190612757565b90505f606461098d84600a61272d565b6109979190612757565b90505f816109a58486612776565b6109af9190612776565b90508260125f8282546109c29190612744565b909155506109d590508761dead8461137b565b600d546109ed9088906001600160a01b03168361137b565b6109f78486612776565b9450505050505b6006546001600160a01b0390811690831603610d0b57601654600160a81b900460ff1615610af95760065460408051630240bc6b60e21b815290516001600160a01b03909216915f9182918491630902f1ac9160048083019260609291908290030181865afa158015610a73573d5f5f3e3d5ffd5b505050506040513d601f19601f82011682018060405250810190610a97919061279f565b5091509150816001600160701b03165f148015610abb57506001600160701b038116155b8015610ad05750601654600160a81b900460ff165b15610af5576016805460ff60a81b19169055610aed86868661137b565b505050505050565b5050505b610b04600a42612776565b325f9081526009602052604090205410610b455760405162461bcd60e51b815260206004820152600260248201526118d960f21b60448201526064016100f9565b5f610b4f8261177a565b11610d0b574260155410610b915760405162461bcd60e51b8152602060048201526009602482015268737461727454696d6560b81b60448201526064016100f9565b6064610b9b61173a565b610ba690600a61272d565b610bb09190612757565b8110610bea5760405162461bcd60e51b815260206004820152600960248201526836b0bc103a37b5b2b760b91b60448201526064016100f9565b61012c5f612710610bfb838561272d565b610c059190612757565b90505f6064610c1583604661272d565b610c1f9190612757565b90505f6064610c2f84600a61272d565b610c399190612757565b90505f81610c478486612776565b610c519190612776565b90508260125f828254610c649190612744565b90915550610c7790508861dead8461137b565b600d54610c8f9089906001600160a01b03168361137b565b61012c851115610cf1575f612710610ca961012c88612776565b610cb3908961272d565b610cbd9190612757565b9050610ccf89306108e4600285612757565b610cda600282612757565b60125f828254610cea9190612744565b9091555050505b610cfb8487612776565b9550610d05611972565b50505050505b5f6001600160a01b038316301480610d3057506006546001600160a01b038481169116145b80610d4857506010546001600160a01b038481169116145b905080610dfb576001600160a01b03841630148015610d7457506005546001600160a01b038481169116145b610dfb576a295be96e6406697200000082610da3856001600160a01b03165f9081526020819052604090205490565b610dad9190612744565b1115610dfb5760405162461bcd60e51b815260206004820181905260248201527f416e74692d7768616c653a206d617820686f6c64696e6720657863656564656460448201526064016100f9565b610e03611ad5565b610e0e84848461137b565b50505050565b5f610e28836001600160a01b038416611c78565b90505b92915050565b601754600114610e755760405162461bcd60e51b815260206004820152600f60248201526e1499595b9d1c985b98de51dd585c99608a1b60448201526064016100f9565b60026017556001600160a01b0381165f908152600a602052604090206007810154610100900460ff16610eea5760405162461bcd60e51b815260206004820152601360248201527f5573657220686173206e6f7420626f756768740000000000000000000000000060448201526064016100f9565b5f610ef3611636565b90505f6a52b7d2dcc80cd2e4000000821015610f11576103e8610f15565b6106405b90505f6a52b7d2dcc80cd2e4000000831015610f325760c8610f35565b607d5b6001600160a01b0386165f908152601a602052604081205491925090603c90610f5e9042612776565b610f689190612757565b90505f610f7683601861272d565b610f8190603c61272d565b905080821115610f8f578091505b5f64013948320083868960010154610fa7919061272d565b610fb1919061272d565b610fbb9190612757565b6001600160a01b0389165f908152601b602052604081205460018a015492935091610fe89060039061272d565b905080610ff58484612744565b1115611008576110058282612776565b92505b5f83116110575760405162461bcd60e51b815260206004820152601a60248201527f4e6f207374617469632072657761726420617661696c61626c6500000000000060448201526064016100f9565b5f611063600285612757565b90505f61106f82611cc4565b90505f61107b82611de5565b9050611088308e8461137b565b60065460405163a9059cbb60e01b81526001600160a01b038f81166004830152602482018490529091169063a9059cbb906044016020604051808303815f875af11580156110d8573d5f5f3e3d5ffd5b505050506040513d601f19601f820116820180604052508101906110fc91906127eb565b506001600160a01b038d165f908152601b602052604081208054889290611124908490612744565b9091555061113390508d612158565b8c6001600160a01b03167fecdc6e126990404a0972ca032fdf15b518a92ae33e366e89bf5e503ceab6518f8760405161116e91815260200190565b60405180910390a2505060016017555050505050505050505050565b6001600160a01b0381165f908152600a6020526040902060028101546111da5760405162461bcd60e51b815260206004820152600560248201526404e6f204c560dc1b60448201526064016100f9565b5f6111e3611636565b90505f6a52b7d2dcc80cd2e4000000821015611201576107d0611205565b6113885b61ffff1690505f61271082856002015461121f919061272d565b6112299190612757565b90505f81856002015461123c9190612776565b905081156112b85760065460405163a9059cbb60e01b8152306004820152602481018490526001600160a01b039091169063a9059cbb906044016020604051808303815f875af1158015611292573d5f5f3e3d5ffd5b505050506040513d601f19601f820116820180604052508101906112b691906127eb565b505b80156113345760065460405163a9059cbb60e01b81526001600160a01b038881166004830152602482018490529091169063a9059cbb906044016020604051808303815f875af115801561130e573d5f5f3e3d5ffd5b505050506040513d601f19601f8201168201806040525081019061133291906127eb565b505b50505f60028401819055600184018190556007909301805461ffff1916905550506001600160a01b039091168152601a60209081526040808320839055601b909152812055565b6001600160a01b0383166113a5578060025f82825461139a9190612744565b909155506114159050565b6001600160a01b0383165f90815260208190526040902054818110156113f75760405163391434e360e21b81526001600160a01b038516600482015260248101829052604481018390526064016100f9565b6001600160a01b0384165f9081526020819052604090209082900390555b6001600160a01b0382166114315760028054829003905561144f565b6001600160a01b0382165f9081526020819052604090208054820190555b816001600160a01b0316836001600160a01b03167fddf252ad1be2c89b69c2b068fc378daa952ba7f163c4a11628f55a4df523b3ef8360405161149491815260200190565b60405180910390a3505050565b5f5f60065f9054906101000a90046001600160a01b03166001600160a01b0316630902f1ac6040518163ffffffff1660e01b8152600401606060405180830381865afa1580156114f3573d5f5f3e3d5ffd5b505050506040513d601f19601f82011682018060405250810190611517919061279f565b5050600b546006546040516370a0823160e01b81526001600160a01b0391821660048201526001600160701b039390931693505f929116906370a0823190602401602060405180830381865afa158015611573573d5f5f3e3d5ffd5b505050506040513d601f19601f820116820180604052508101906115979190612811565b90508082111561163157600654604080516318160ddd60e01b815290515f926001600160a01b0316916318160ddd9160048083019260209291908290030181865afa1580156115e8573d5f5f3e3d5ffd5b505050506040513d601f19601f8201168201806040525081019061160c9190612811565b9050816116198185612776565b611623908361272d565b61162d9190612757565b9350505b505090565b60065460408051630240bc6b60e21b815290515f926001600160a01b031691839182918491630902f1ac916004808201926060929091908290030181865afa158015611684573d5f5f3e3d5ffd5b505050506040513d601f19601f820116820180604052508101906116a8919061279f565b50915091505f836001600160a01b0316630dfe16816040518163ffffffff1660e01b8152600401602060405180830381865afa1580156116ea573d5f5f3e3d5ffd5b505050506040513d601f19601f8201168201806040525081019061170e919061260f565b90506001600160a01b03811630146117265781611728565b825b6001600160701b031694505050505090565b61dead5f90815260208190527f44ad89ba62b98ff34f51403ac22759b55759460c0bb5521eb4b6ee3cff49cf83546002546117759190612776565b905090565b6080515f906001600160a01b0316330361196d575f5f60065f9054906101000a90046001600160a01b03166001600160a01b0316630902f1ac6040518163ffffffff1660e01b8152600401606060405180830381865afa1580156117e0573d5f5f3e3d5ffd5b505050506040513d601f19601f82011682018060405250810190611804919061279f565b50600b546006546040516370a0823160e01b81526001600160a01b0391821660048201526001600160701b0394851696509290931693505f9216906370a0823190602401602060405180830381865afa158015611863573d5f5f3e3d5ffd5b505050506040513d601f19601f820116820180604052508101906118879190612811565b90508281111561196957600654604080516318160ddd60e01b815290515f926001600160a01b0316916318160ddd9160048083019260209291908290030181865afa1580156118d8573d5f5f3e3d5ffd5b505050506040513d601f19601f820116820180604052508101906118fc9190612811565b9050805f036119115750600195945050505050565b61191c8183856121a5565b6119269082612744565b905061196584826119378286612776565b611941919061272d565b61194b9190612757565b84611956848a61272d565b6119609190612757565b61229a565b9450505b5050505b919050565b5f6013546012546119839190612744565b9050670de0b6b3a76400008110156119985750565b6119ab30608051836122af60201b60201c565b6040805160028082526060820183525f9260208301908036833701905050905030815f815181106119de576119de612828565b6001600160a01b039283166020918202929092010152600b54825191169082906001908110611a0f57611a0f612828565b6001600160a01b03928316602091820292909201015260805160405163791ac94760e01b815291169063791ac94790611a549085905f9086903090429060040161287f565b5f604051808303815f87803b158015611a6b575f5ffd5b505af1158015611a7d573d5f5f3e3d5ffd5b5050600e54601354611ab293506001600160a01b0390911691508490611aa3904761272d565b611aad9190612757565b6122bc565b600c54611ac8906001600160a01b0316476122bc565b50505f6012819055601355565b60065460408051630240bc6b60e21b815290516001600160a01b03909216915f9182918491630902f1ac9160048083019260609291908290030181865afa158015611b22573d5f5f3e3d5ffd5b505050506040513d601f19601f82011682018060405250810190611b46919061279f565b5091509150816001600160701b03165f1480611b6957506001600160701b038116155b15611b7357505050565b5f836001600160a01b0316630dfe16816040518163ffffffff1660e01b8152600401602060405180830381865afa158015611bb0573d5f5f3e3d5ffd5b505050506040513d601f19601f82011682018060405250810190611bd4919061260f565b90505f6001600160a01b0382163014611bed5782611bef565b835b6011546010546001600160701b03929092169250821090600160a01b900460ff1615158114610aed576010805460ff60a01b1916600160a01b8315158102919091179182905560405160ff9190920416151581527fbbef43c3cfdeb912e8273ccc6a33addff577b417336f27d902d7a93e07eed4369060200160405180910390a1505050505050565b5f818152600183016020526040812054611cbd57508154600181810184555f848152602080822090930184905584548482528286019093526040902091909155610e2b565b505f610e2b565b6040805160028082526060820183525f92839291906020830190803683375050600b5482519293506001600160a01b0316918391505f90611d0757611d07612828565b60200260200101906001600160a01b031690816001600160a01b0316815250503081600181518110611d3b57611d3b612828565b6001600160a01b03928316602091820292909201015260805160405163d06ca61f60e01b81525f92919091169063d06ca61f90611d7e90879086906004016128ba565b5f60405180830381865afa158015611d98573d5f5f3e3d5ffd5b505050506040513d5f823e601f3d908101601f19168201604052611dbf91908101906128da565b905080600181518110611dd457611dd4612828565b602002602001015192505050919050565b5f80611df2600284612757565b6040805160028082526060820183529293505f92909160208301908036833701905050905030815f81518110611e2a57611e2a612828565b6001600160a01b039283166020918202929092010152600b54825191169082906001908110611e5b57611e5b612828565b6001600160a01b039283166020918202929092010152600654611e809116308661137b565b60065f9054906101000a90046001600160a01b03166001600160a01b031663fff6cae96040518163ffffffff1660e01b81526004015f604051808303815f87803b158015611ecc575f5ffd5b505af1158015611ede573d5f5f3e3d5ffd5b50505050611ef530608051866122af60201b60201c565b608051601054604051635c11d79560e01b81526001600160a01b0392831692635c11d79592611f319287925f928892911690429060040161287f565b5f604051808303815f87803b158015611f48575f5ffd5b505af1158015611f5a573d5f5f3e3d5ffd5b5050600b546010546040516370a0823160e01b81526001600160a01b0391821660048201525f9450911691506370a0823190602401602060405180830381865afa158015611faa573d5f5f3e3d5ffd5b505050506040513d601f19601f82011682018060405250810190611fce9190612811565b601054600b5460405163092dfdb360e11b81526001600160a01b03918216600482015230602482015260448101849052929350169063125bfb66906064015f604051808303815f87803b158015612023575f5ffd5b505af1158015612035573d5f5f3e3d5ffd5b5050600b5460805160405163095ea7b360e01b81526001600160a01b039182166004820152602481018690529116925063095ea7b391506044016020604051808303815f875af115801561208b573d5f5f3e3d5ffd5b505050506040513d601f19601f820116820180604052508101906120af91906127eb565b50608051600b5460405162e8e33760e81b81526001600160a01b039182166004820152306024820181905260448201859052606482018790525f6084830181905260a483015260c48201524260e482015291169063e8e3370090610104016060604051808303815f875af1158015612129573d5f5f3e3d5ffd5b505050506040513d601f19601f8201168201806040525081019061214d91906129a1565b979650505050505050565b6001600160a01b0381165f908152601c602052604090205480156121815761218130838361137b565b506001600160a01b03165f908152601c60205260409020670de0b6b3a76400009055565b5f806121b96121b4848661272d565b61231f565b90505f61223360065f9054906101000a90046001600160a01b03166001600160a01b0316637464fc3d6040518163ffffffff1660e01b8152600401602060405180830381865afa15801561220f573d5f5f3e3d5ffd5b505050506040513d601f19601f820116820180604052508101906121b49190612811565b905080821115612291575f6122488284612776565b612252908861272d565b61225d90600861272d565b90505f61226b83600861272d565b61227685601161272d565b6122809190612744565b905061228c8183612757565b945050505b50509392505050565b5f8183106122a85781610e28565b5090919050565b6106c7838383600161238c565b604080515f808252602082019092526001600160a01b0384169083906040516122e591906129cc565b5f6040518083038185875af1925050503d805f8114610aed576040519150601f19603f3d011682016040523d82523d5f602084013e610aed565b5f600382111561237e5750805f612337600283612757565b612342906001612744565b90505b818110156123785790508060028161235d8186612757565b6123679190612744565b6123719190612757565b9050612345565b50919050565b811561196d57506001919050565b6001600160a01b0384166123b55760405163e602df0560e01b81525f60048201526024016100f9565b6001600160a01b0383166123de57604051634a1406b160e11b81525f60048201526024016100f9565b6001600160a01b038085165f9081526001602090815260408083209387168352929052208290558015610e0e57826001600160a01b0316846001600160a01b03167f8c5be1e5ebec7d5bd14f71427d1e84f3dd0314c0f7b2291e5b200ac8c7c3b9258460405161245091815260200190565b60405180910390a350505050565b6101b58061694983390190565b80516001600160a01b038116811461196d575f5ffd5b5f5f5f60608486031215612493575f5ffd5b61249c8461246b565b92506124aa6020850161246b565b91506124b86040850161246b565b90509250925092565b634e487b7160e01b5f52604160045260245ffd5b600181811c908216806124e957607f821691505b60208210810361237857634e487b7160e01b5f52602260045260245ffd5b601f8211156106c757828211156106c757805f5260205f20601f840160051c602085101561253257505f5b90810190601f840160051c035f5b81811015610aed575f83820155600101612540565b81516001600160401b0381111561256e5761256e6124c1565b6125828161257c84546124d5565b84612507565b6020601f8211600181146125b4575f831561259d5750848201515b5f19600385901b1c1916600184901b1784556108e9565b5f84815260208120601f198516915b828110156125e357878501518255602094850194600190920191016125c3565b508482101561260057868401515f19600387901b60f8161c191681555b50505050600190811b01905550565b5f6020828403121561261f575f5ffd5b610e288261246b565b634e487b7160e01b5f52601160045260245ffd5b6001815b60018411156126775780850481111561265b5761265b612628565b600184161561266957908102905b60019390931c928002612640565b935093915050565b5f8261268d57506001610e2b565b8161269957505f610e2b565b81600181146126af57600281146126b9576126d5565b6001915050610e2b565b60ff8411156126ca576126ca612628565b50506001821b610e2b565b5060208310610133831016604e8410600b84101617156126f8575081810a610e2b565b6127045f19848461263c565b805f190482111561271757612717612628565b029392505050565b5f610e2860ff84168361267f565b8082028115828204841417610e2b57610e2b612628565b80820180821115610e2b57610e2b612628565b5f8261277157634e487b7160e01b5f52601260045260245ffd5b500490565b81810381811115610e2b57610e2b612628565b80516001600160701b038116811461196d575f5ffd5b5f5f5f606084860312156127b1575f5ffd5b6127ba84612789565b92506127c860208501612789565b9150604084015163ffffffff811681146127e0575f5ffd5b809150509250925092565b5f602082840312156127fb575f5ffd5b8151801515811461280a575f5ffd5b9392505050565b5f60208284031215612821575f5ffd5b5051919050565b634e487b7160e01b5f52603260045260245ffd5b5f8151808452602084019350602083015f5b828110156128755781516001600160a01b031686526020958601959091019060010161284e565b5093949350505050565b85815284602082015260a060408201525f61289d60a083018661283c565b6001600160a01b0394909416606083015250608001529392505050565b828152604060208201525f6128d2604083018461283c565b949350505050565b5f602082840312156128ea575f5ffd5b81516001600160401b038111156128ff575f5ffd5b8201601f8101841361290f575f5ffd5b80516001600160401b03811115612928576129286124c1565b604051600582901b90603f8201601f191681016001600160401b0381118282101715612956576129566124c1565b604052918252602081840181019290810187841115612973575f5ffd5b6020850194505b838510156129965784518082526020958601959093500161297a565b509695505050505050565b5f5f5f606084860312156129b3575f5ffd5b5050815160208301516040909301519094929350919050565b5f82518060208501845e5f920191825250919050565b608051613f02612a475f395f818161093c01528181610efd01528181610fad0152818161100801528181612f5e0152818161319401528181613242015281816133ec0152818161358d015281816135cc0152818161372d01526137f90152613f025ff3fe608060405260043610610369575f3560e01c806378e97925116101c8578063c2ae0f7a116100fd578063dbb4ef031161009d578063e8e8fe041161006d578063e8e8fe0414610d58578063f2fde38b14610d77578063f56e9c6614610d96578063fd36e3c614610db5575f5ffd5b8063dbb4ef0314610cce578063dd62ed3e14610ce0578063ddbcb5fa14610d24578063e82bef2914610d39575f5ffd5b8063d108e2a6116100d8578063d108e2a614610c47578063d122734314610c65578063d3eff2f114610c84578063d5aed6bf14610caf575f5ffd5b8063c2ae0f7a14610bf3578063c82c3cbf14610c1e578063cca3c5ff14610c32575f5ffd5b806395d89b4111610168578063a87430ba11610143578063a87430ba14610ae7578063a9059cbb14610bab578063b4a2e46314610bca578063bf151cb814610bdf575f5ffd5b806395d89b4114610a935780639c89ecbb14610aa7578063a52ee3af14610abc575f5ffd5b80638d1057dc116101a35780638d1057dc14610a185780638da5cb5b14610a2c5780638dd9500214610a49578063942c9dd114610a68575f5ffd5b806378e97925146109da5780637d263245146109ef5780637f05445514610a03575f5ffd5b806329b805361161029e57806347ab459c1161023e578063583e056811610219578063583e05681461092b5780636d476a771461095e57806370a0823114610992578063715018a6146109c6575f5ffd5b806347ab459c146108d957806347ccca02146108ed5780634bf28fd01461090c575f5ffd5b80633e0a322d116102795780633e0a322d146108425780633fecc2e214610863578063412753581461088e578063440b30e7146108ad575f5ffd5b806329b80536146107ea578063313ce567146108085780633d471d5714610823575f5ffd5b80631c53c28011610309578063228c3845116102e4578063228c38451461076b57806323b872dd146107805780632529d1a31461079f578063281f0b89146107bf575f5ffd5b80631c53c28014610738578063212251a6146107245780632225d3c414610757575f5ffd5b806316f0115b1161034457806316f0115b146106ae57806317d63605146106e557806318160ddd146107105780631a8c102214610724575f5ffd5b806306fdde0314610633578063095ea7b31461065d57806309d467461461068c575f5ffd5b3661062f576017546001146103b75760405162461bcd60e51b815260206004820152600f60248201526e1499595b9d1c985b98de51dd585c99608a1b60448201526064015b60405180910390fd5b6002601755335f818152600a60205260409020546001600160a01b031690349032900361062357601454811015801561040c57506001600160a01b03821615158061040c57506016546001600160a01b031633145b1561060a57335f908152600a6020526040902060070154610100900460ff166104c957335f908152600a60205260409020600701805461ff0019166101001790556001600160a01b038216156104c9576001600160a01b0382165f908152600a60205260408120600601805460019290610487908490613a3e565b90915550506702c68af0bb14000081106104c9576001600160a01b0382165f908152601d602052604081208054600192906104c3908490613a3e565b90915550505b5f60646104d7836003613a51565b6104e19190613a68565b90505f60646104f1846007613a51565b6104fb9190613a68565b90505f606461050b85605a613a51565b6105159190613a68565b9050821561053357600c54610533906001600160a01b031684610dee565b811561054f57600d5461054f906001600160a01b031683610dee565b5f61056361055e600284613a68565b610e5e565b335f908152600a6020526040812060010180549293508792909190610589908490613a3e565b9091555050335f908152600a6020526040812060020180548392906105af908490613a3e565b9091555050335f818152601a602052604090819020429055517f5f41f00e6c90dea5837402efbf3e658a1f1df8db3b19624b133bc1df0444f7ea906105f79088815260200190565b60405180910390a2505050505050610626565b60405163236c6e5b60e01b815260040160405180910390fd5b50505b60016017819055005b5f5ffd5b34801561063e575f5ffd5b50610647611087565b6040516106549190613a87565b60405180910390f35b348015610668575f5ffd5b5061067c610677366004613ad0565b611117565b6040519015158152602001610654565b348015610697575f5ffd5b506106a0611130565b604051908152602001610654565b3480156106b9575f5ffd5b506010546106cd906001600160a01b031681565b6040516001600160a01b039091168152602001610654565b3480156106f0575f5ffd5b506106a06106ff366004613afa565b60196020525f908152604090205481565b34801561071b575f5ffd5b506002546106a0565b34801561072f575f5ffd5b506106a0600381565b348015610743575f5ffd5b506106cd610752366004613b15565b611234565b348015610762575f5ffd5b506106a0607d81565b348015610776575f5ffd5b506106a06103e881565b34801561078b575f5ffd5b5061067c61079a366004613b2c565b61125c565b3480156107aa575f5ffd5b5060105461067c90600160a01b900460ff1681565b3480156107ca575f5ffd5b506106a06107d9366004613afa565b601c6020525f908152604090205481565b3480156107f5575f5ffd5b506106a06a52b7d2dcc80cd2e400000081565b348015610813575f5ffd5b5060405160128152602001610654565b34801561082e575f5ffd5b506106a061083d366004613b15565b61127f565b34801561084d575f5ffd5b5061086161085c366004613b15565b611306565b005b34801561086e575f5ffd5b506106a061087d366004613afa565b60186020525f908152604090205481565b348015610899575f5ffd5b50600e546106cd906001600160a01b031681565b3480156108b8575f5ffd5b506108cc6108c7366004613afa565b611313565b6040516106549190613bad565b3480156108e4575f5ffd5b50610861611336565b3480156108f8575f5ffd5b50600c546106cd906001600160a01b031681565b348015610917575f5ffd5b506006546106cd906001600160a01b031681565b348015610936575f5ffd5b506106cd7f000000000000000000000000000000000000000000000000000000000000000081565b348015610969575f5ffd5b506109726114d9565b604080519485526020850193909352918301526060820152608001610654565b34801561099d575f5ffd5b506106a06109ac366004613afa565b6001600160a01b03165f9081526020819052604090205490565b3480156109d1575f5ffd5b50610861611588565b3480156109e5575f5ffd5b506106a060155481565b3480156109fa575f5ffd5b506106a0603c81565b348015610a0e575f5ffd5b506106a060135481565b348015610a23575f5ffd5b506106a060c881565b348015610a37575f5ffd5b506005546001600160a01b03166106cd565b348015610a54575f5ffd5b50600b546106cd906001600160a01b031681565b348015610a73575f5ffd5b506106a0610a82366004613afa565b601b6020525f908152604090205481565b348015610a9e575f5ffd5b5061064761159b565b348015610ab2575f5ffd5b506106a061064081565b348015610ac7575f5ffd5b506106a0610ad6366004613afa565b60096020525f908152604090205481565b348015610af2575f5ffd5b50610b59610b01366004613afa565b600a6020525f9081526040902080546001820154600283015460038401546004850154600586015460068701546007909701546001600160a01b03909616969495939492939192909160ff8082169161010090041689565b604080516001600160a01b03909a168a5260208a0198909852968801959095526060870193909352608086019190915260a085015260c0840152151560e0830152151561010082015261012001610654565b348015610bb6575f5ffd5b5061067c610bc5366004613ad0565b6115aa565b348015610bd5575f5ffd5b506106a060115481565b348015610bea575f5ffd5b506106a06115b7565b348015610bfe575f5ffd5b506106a0610c0d366004613afa565b601d6020525f908152604090205481565b348015610c29575f5ffd5b506108616115f7565b348015610c3d575f5ffd5b506106a060125481565b348015610c52575f5ffd5b506106a06a295be96e6406697200000081565b348015610c70575f5ffd5b5061067c610c7f366004613bbf565b61173f565b348015610c8f575f5ffd5b506106a0610c9e366004613afa565b601a6020525f908152604090205481565b348015610cba575f5ffd5b50610861610cc9366004613afa565b61183e565b348015610cd9575f5ffd5b505f61067c565b348015610ceb575f5ffd5b506106a0610cfa366004613bbf565b6001600160a01b039182165f90815260016020908152604080832093909416825291909152205490565b348015610d2f575f5ffd5b506106a060145481565b348015610d44575f5ffd5b50600d546106cd906001600160a01b031681565b348015610d63575f5ffd5b506106a0610d72366004613afa565b611868565b348015610d82575f5ffd5b50610861610d91366004613afa565b6119fb565b348015610da1575f5ffd5b50610861610db0366004613afa565b611a38565b348015610dc0575f5ffd5b5061067c610dcf366004613bbf565b600760209081525f928352604080842090915290825290205460ff1681565b604080515f808252602082019092526001600160a01b038416908390604051610e179190613c0a565b5f6040518083038185875af1925050503d805f8114610e51576040519150601f19603f3d011682016040523d82523d5f602084013e610e56565b606091505b505050505050565b6040805160028082526060820183525f92839291906020830190803683375050600b5482519293506001600160a01b0316918391505f90610ea157610ea1613c20565b60200260200101906001600160a01b031690816001600160a01b0316815250503081600181518110610ed557610ed5613c20565b6001600160a01b03928316602091820292909201015260105460405163b6f9de9560e01b81527f000000000000000000000000000000000000000000000000000000000000000083169263b6f9de95928792610f3c925f9288929116904290600401613c34565b5f604051808303818588803b158015610f53575f5ffd5b505af1158015610f65573d5f5f3e3d5ffd5b50506010546001600160a01b03165f908152602081905260408120549093509150610f8d9050565b601054909150610fa7906001600160a01b03163083611a62565b610fd2307f000000000000000000000000000000000000000000000000000000000000000083611b88565b60405163f305d71960e01b81523060048201819052602482018390525f60448301819052606483015260848201524260a48201527f00000000000000000000000000000000000000000000000000000000000000006001600160a01b03169063f305d71990869060c40160606040518083038185885af1158015611058573d5f5f3e3d5ffd5b50505050506040513d601f19601f8201168201806040525081019061107d9190613c68565b9695505050505050565b60606003805461109690613c93565b80601f01602080910402602001604051908101604052809291908181526020018280546110c290613c93565b801561110d5780601f106110e45761010080835404028352916020019161110d565b820191905f5260205f20905b8154815290600101906020018083116110f057829003601f168201915b5050505050905090565b5f33611124818585611b88565b60019150505b92915050565b60065460408051630240bc6b60e21b815290515f926001600160a01b031691839182918491630902f1ac916004808201926060929091908290030181865afa15801561117e573d5f5f3e3d5ffd5b505050506040513d601f19601f820116820180604052508101906111a29190613cdb565b50915091505f836001600160a01b0316630dfe16816040518163ffffffff1660e01b8152600401602060405180830381865afa1580156111e4573d5f5f3e3d5ffd5b505050506040513d601f19601f820116820180604052508101906112089190613d27565b90506001600160a01b03811630146112205781611222565b825b6001600160701b031694505050505090565b600f8181548110611243575f80fd5b5f918252602090912001546001600160a01b0316905081565b5f33611269858285611b9a565b611274858585611c10565b506001949350505050565b5f816001036112905750600a919050565b816002036112a057506005919050565b816003036112b057506003919050565b600482101580156112c2575060118211155b156112cf57506001919050565b816012036112df57506003919050565b816013036112ef57506005919050565b816014036112ff5750600a919050565b505f919050565b61130e611c6d565b601555565b6001600160a01b0381165f90815260086020526040902060609061112a90611c9a565b60065460408051630240bc6b60e21b815290516001600160a01b03909216915f9182918491630902f1ac9160048083019260609291908290030181865afa158015611383573d5f5f3e3d5ffd5b505050506040513d601f19601f820116820180604052508101906113a79190613cdb565b5091509150816001600160701b03165f14806113ca57506001600160701b038116155b156113d457505050565b5f836001600160a01b0316630dfe16816040518163ffffffff1660e01b8152600401602060405180830381865afa158015611411573d5f5f3e3d5ffd5b505050506040513d601f19601f820116820180604052508101906114359190613d27565b90505f6001600160a01b038216301461144e5782611450565b835b6011546010546001600160701b03929092169250821090600160a01b900460ff1615158114610e56576010805460ff60a01b1916600160a01b8315158102919091179182905560405160ff9190920416151581527fbbef43c3cfdeb912e8273ccc6a33addff577b417336f27d902d7a93e07eed4369060200160405180910390a1505050505050565b5f5f5f5f5f6114e6611130565b90506b033b2e3c9fd0803ce8000000811115611515576105dc6102ee61012c603c945094509450945050611582565b6b019d971e4fe8401e74000000811115611542576104e261027161012c603c945094509450945050611582565b6a52b7d2dcc80cd2e400000081111561156e576103e86101f461012c603c945094509450945050611582565b6101f460fa61012c603c9450945094509450505b90919293565b611590611c6d565b6115995f611cad565b565b60606004805461109690613c93565b5f33611124818585611c10565b61dead5f90815260208190527f44ad89ba62b98ff34f51403ac22759b55759460c0bb5521eb4b6ee3cff49cf83546002546115f29190613d42565b905090565b600b546006546040516370a0823160e01b81523060048201526001600160a01b039283169263a9059cbb92169083906370a0823190602401602060405180830381865afa15801561164a573d5f5f3e3d5ffd5b505050506040513d601f19601f8201168201806040525081019061166e9190613d55565b6040516001600160e01b031960e085901b1681526001600160a01b03909216600483015260248201526044016020604051808303815f875af11580156116b6573d5f5f3e3d5ffd5b505050506040513d601f19601f820116820180604052508101906116da9190613d6c565b5060065f9054906101000a90046001600160a01b03166001600160a01b031663fff6cae96040518163ffffffff1660e01b81526004015f604051808303815f87803b158015611727575f5ffd5b505af1158015611739573d5f5f3e3d5ffd5b50505050565b5f816001600160a01b0316836001600160a01b03160361176057505f61112a565b6001600160a01b038084165f9081526007602090815260408083209386168352929052205460ff161561179457505f61112a565b6006546001600160a01b03838116911614806117bd57506006546001600160a01b038481169116145b156117c957505f61112a565b815f5b6001600160a01b038216158015906117e7575060198160ff16105b1561127457846001600160a01b0316826001600160a01b03160361180f575f9250505061112a565b6001600160a01b039182165f908152600a6020526040902054909116908061183681613d8b565b9150506117cc565b611846611c6d565b600680546001600160a01b0319166001600160a01b0392909216919091179055565b6001600160a01b038082165f908152600a60209081526040808320815161012081018352815490951685526001810154928501929092526002820154908401526003810154606084015260048101546080840152600581015460a0840152600681015460c08401526007015460ff808216151560e08501526101009182900416158015918401919091529091908061191657506001600160a01b0383165f908152601a602052604090205442105b1561192357505f92915050565b5f61192c611130565b90505f6a52b7d2dcc80cd2e400000082101561194a576103e861194e565b6106405b6001600160a01b0386165f908152601a602052604081205491925090603c906119779042613d42565b6119819190613a68565b90505f6a52b7d2dcc80cd2e400000084101561199e5760c86119a1565b607d5b6119ac906018613a51565b6119b790603c613a51565b9050808211156119c5578091505b640139483200828487602001516119dc9190613a51565b6119e69190613a51565b6119f09190613a68565b979650505050505050565b611a03611c6d565b6001600160a01b038116611a2c57604051631e4fbdf760e01b81525f60048201526024016103ae565b611a3581611cad565b50565b611a40611c6d565b600c80546001600160a01b0319166001600160a01b0392909216919091179055565b6001600160a01b038316611a8c578060025f828254611a819190613a3e565b90915550611afc9050565b6001600160a01b0383165f9081526020819052604090205481811015611ade5760405163391434e360e21b81526001600160a01b038516600482015260248101829052604481018390526064016103ae565b6001600160a01b0384165f9081526020819052604090209082900390555b6001600160a01b038216611b1857600280548290039055611b36565b6001600160a01b0382165f9081526020819052604090208054820190555b816001600160a01b0316836001600160a01b03167fddf252ad1be2c89b69c2b068fc378daa952ba7f163c4a11628f55a4df523b3ef83604051611b7b91815260200190565b60405180910390a3505050565b611b958383836001611cfe565b505050565b6001600160a01b038381165f908152600160209081526040808320938616835292905220545f198110156117395781811015611c0257604051637dc7a0d960e11b81526001600160a01b038416600482015260248101829052604481018390526064016103ae565b61173984848484035f611cfe565b6001600160a01b038316611c3957604051634b637e8f60e11b81525f60048201526024016103ae565b6001600160a01b038216611c625760405163ec442f0560e01b81525f60048201526024016103ae565b611b95838383611dd0565b6005546001600160a01b031633146115995760405163118cdaa760e01b81523360048201526024016103ae565b60605f611ca683612811565b9392505050565b600580546001600160a01b038381166001600160a01b0319831681179093556040519116919082907f8be0079c531659141344cd1fd0a4f28419497f9722a3daafe3b4186f6b6457e0905f90a35050565b6001600160a01b038416611d275760405163e602df0560e01b81525f60048201526024016103ae565b6001600160a01b038316611d5057604051634a1406b160e11b81525f60048201526024016103ae565b6001600160a01b038085165f908152600160209081526040808320938716835292905220829055801561173957826001600160a01b0316846001600160a01b03167f8c5be1e5ebec7d5bd14f71427d1e84f3dd0314c0f7b2291e5b200ac8c7c3b92584604051611dc291815260200190565b60405180910390a350505050565b671bc16d674ec8000081148015611e0c57506001600160a01b038084165f9081526007602090815260408083209386168352929052205460ff16155b15611e41576001600160a01b038084165f908152600760209081526040808320938616835292905220805460ff191660011790555b670de0b6b3a764000081148015611e7c57506001600160a01b038083165f9081526007602090815260408083209387168352929052205460ff165b8015611e9f57506001600160a01b038381165f908152600a602052604090205416155b15611f27576001600160a01b038381165f908152600a6020908152604080832080546001600160a01b03191694871694851790559282526008905220611ee5908461286a565b50826001600160a01b0316826001600160a01b03167f8d63f2e3d39eb6cf9c80d49bc203133f6f215ce2a1a3d27a68f0167f6c045d4860405160405180910390a35b335f9081526019602052604090205415611fa557335f90815260196020526040902054611f5690600390613a3e565b421015611fa55760405162461bcd60e51b815260206004820152601c60248201527f416e74692d666c6173686c6f616e3a20746f6f206672657175656e740000000060448201526064016103ae565b335f8181526019602052604090204290556001600160a01b038416148015611fec57506001600160a01b0383165f908152600a6020526040902060070154610100900460ff165b801561200057506001600160a01b03821630145b80156120135750670de0b6b3a764000081145b156120d757601054600160a01b900460ff161561205a5760405162461bcd60e51b8152602060048201526005602482015264119d5cd95960da1b60448201526064016103ae565b6001600160a01b038381165f908152600a60205260409020541615801561208f57506016546001600160a01b03848116911614155b156120ce5760405162461bcd60e51b815260206004820152600f60248201526e135d5cdd08189a5b9908199a5c9cdd608a1b60448201526064016103ae565b611b958361287e565b336001600160a01b03841614801561210e57506001600160a01b0383165f908152600a6020526040902060070154610100900460ff165b801561212257506001600160a01b03821630145b80156121355750678ac7230489e8000081145b1561214e5761214383612bcd565b611b95838383611a62565b6001600160a01b03831630148061216d57506001600160a01b03821630145b8061218557506010546001600160a01b038481169116145b8061219d57506010546001600160a01b038381169116145b156121ad57611b95838383611a62565b6006546001600160a01b03908116908416036124095742601554106122005760405162461bcd60e51b8152602060048201526009602482015268737461727454696d6560b81b60448201526064016103ae565b325f90815260096020908152604080832042908190556018909252822055612226612dbe565b11156122fb575f5f612236611130565b90506b033b2e3c9fd0803ce8000000811061226957600a612258846009613a51565b6122629190613a68565b91506122cb565b6b019d971e4fe8401e74000000811061228957600a612258846006613a51565b6a52b7d2dcc80cd2e400000081106122a857600a612258846004613a51565b6a295be96e6406697200000081106122c757600a612258846002613a51565b8291505b6122d88561dead84611a62565b818311156122f4576122f485856122ef8587613d42565b611a62565b5050505050565b60646123056115b7565b612310906005613a51565b61231a9190613a68565b81106123545760405162461bcd60e51b815260206004820152600960248201526836b0bc103a37b5b2b760b91b60448201526064016103ae565b5f6127106123648361012c613a51565b61236e9190613a68565b90505f606461237e836046613a51565b6123889190613a68565b90505f606461239884600a613a51565b6123a29190613a68565b90505f816123b08486613d42565b6123ba9190613d42565b90508260125f8282546123cd9190613a3e565b909155506123e090508761dead84611a62565b600d546123f89088906001600160a01b031683611a62565b6124028486613d42565b9450505050505b6006546001600160a01b039081169083160361270e57601654600160a81b900460ff16156124fc5760065460408051630240bc6b60e21b815290516001600160a01b03909216915f9182918491630902f1ac9160048083019260609291908290030181865afa15801561247e573d5f5f3e3d5ffd5b505050506040513d601f19601f820116820180604052508101906124a29190613cdb565b5091509150816001600160701b03165f1480156124c657506001600160701b038116155b80156124db5750601654600160a81b900460ff165b156124f8576016805460ff60a81b19169055610e56868686611a62565b5050505b612507600a42613d42565b325f90815260096020526040902054106125485760405162461bcd60e51b815260206004820152600260248201526118d960f21b60448201526064016103ae565b5f61255282612f53565b1161270e5742601554106125945760405162461bcd60e51b8152602060048201526009602482015268737461727454696d6560b81b60448201526064016103ae565b606461259e6115b7565b6125a990600a613a51565b6125b39190613a68565b81106125ed5760405162461bcd60e51b815260206004820152600960248201526836b0bc103a37b5b2b760b91b60448201526064016103ae565b61012c5f6127106125fe8385613a51565b6126089190613a68565b90505f6064612618836046613a51565b6126229190613a68565b90505f606461263284600a613a51565b61263c9190613a68565b90505f8161264a8486613d42565b6126549190613d42565b90508260125f8282546126679190613a3e565b9091555061267a90508861dead84611a62565b600d546126929089906001600160a01b031683611a62565b61012c8511156126f4575f6127106126ac61012c88613d42565b6126b69089613a51565b6126c09190613a68565b90506126d289306122ef600285613a68565b6126dd600282613a68565b60125f8282546126ed9190613a3e565b9091555050505b6126fe8487613d42565b9550612708613168565b50505050505b5f6001600160a01b03831630148061273357506006546001600160a01b038481169116145b8061274b57506010546001600160a01b038481169116145b9050806127fe576001600160a01b0384163014801561277757506005546001600160a01b038481169116145b6127fe576a295be96e64066972000000826127a6856001600160a01b03165f9081526020819052604090205490565b6127b09190613a3e565b11156127fe5760405162461bcd60e51b815260206004820181905260248201527f416e74692d7768616c653a206d617820686f6c64696e6720657863656564656460448201526064016103ae565b612806611336565b611739848484611a62565b6060815f0180548060200260200160405190810160405280929190818152602001828054801561285e57602002820191905f5260205f20905b81548152602001906001019080831161284a575b50505050509050919050565b5f611ca6836001600160a01b038416613302565b6017546001146128c25760405162461bcd60e51b815260206004820152600f60248201526e1499595b9d1c985b98de51dd585c99608a1b60448201526064016103ae565b60026017556001600160a01b0381165f908152600a602052604090206007810154610100900460ff1661292d5760405162461bcd60e51b8152602060048201526013602482015272155cd95c881a185cc81b9bdd08189bdd59da1d606a1b60448201526064016103ae565b5f612936611130565b90505f6a52b7d2dcc80cd2e4000000821015612954576103e8612958565b6106405b90505f6a52b7d2dcc80cd2e40000008310156129755760c8612978565b607d5b6001600160a01b0386165f908152601a602052604081205491925090603c906129a19042613d42565b6129ab9190613a68565b90505f6129b9836018613a51565b6129c490603c613a51565b9050808211156129d2578091505b5f640139483200838689600101546129ea9190613a51565b6129f49190613a51565b6129fe9190613a68565b6001600160a01b0389165f908152601b602052604081205460018a015492935091612a2b90600390613a51565b905080612a388484613a3e565b1115612a4b57612a488282613d42565b92505b5f8311612a9a5760405162461bcd60e51b815260206004820152601a60248201527f4e6f207374617469632072657761726420617661696c61626c6500000000000060448201526064016103ae565b5f612aa6600285613a68565b90505f612ab28261334e565b90505f612abe8261348a565b9050612acb308e84611a62565b60065460405163a9059cbb60e01b81526001600160a01b038f81166004830152602482018490529091169063a9059cbb906044016020604051808303815f875af1158015612b1b573d5f5f3e3d5ffd5b505050506040513d601f19601f82011682018060405250810190612b3f9190613d6c565b506001600160a01b038d165f908152601b602052604081208054889290612b67908490613a3e565b90915550612b7690508d613866565b8c6001600160a01b03167fecdc6e126990404a0972ca032fdf15b518a92ae33e366e89bf5e503ceab6518f87604051612bb191815260200190565b60405180910390a2505060016017555050505050505050505050565b6001600160a01b0381165f908152600a602052604090206002810154612c1d5760405162461bcd60e51b815260206004820152600560248201526404e6f204c560dc1b60448201526064016103ae565b5f612c26611130565b90505f6a52b7d2dcc80cd2e4000000821015612c44576107d0612c48565b6113885b61ffff1690505f612710828560020154612c629190613a51565b612c6c9190613a68565b90505f818560020154612c7f9190613d42565b90508115612cfb5760065460405163a9059cbb60e01b8152306004820152602481018490526001600160a01b039091169063a9059cbb906044016020604051808303815f875af1158015612cd5573d5f5f3e3d5ffd5b505050506040513d601f19601f82011682018060405250810190612cf99190613d6c565b505b8015612d775760065460405163a9059cbb60e01b81526001600160a01b038881166004830152602482018490529091169063a9059cbb906044016020604051808303815f875af1158015612d51573d5f5f3e3d5ffd5b505050506040513d601f19601f82011682018060405250810190612d759190613d6c565b505b50505f60028401819055600184018190556007909301805461ffff1916905550506001600160a01b039091168152601a60209081526040808320839055601b909152812055565b5f5f60065f9054906101000a90046001600160a01b03166001600160a01b0316630902f1ac6040518163ffffffff1660e01b8152600401606060405180830381865afa158015612e10573d5f5f3e3d5ffd5b505050506040513d601f19601f82011682018060405250810190612e349190613cdb565b5050600b546006546040516370a0823160e01b81526001600160a01b0391821660048201526001600160701b039390931693505f929116906370a0823190602401602060405180830381865afa158015612e90573d5f5f3e3d5ffd5b505050506040513d601f19601f82011682018060405250810190612eb49190613d55565b905080821115612f4e57600654604080516318160ddd60e01b815290515f926001600160a01b0316916318160ddd9160048083019260209291908290030181865afa158015612f05573d5f5f3e3d5ffd5b505050506040513d601f19601f82011682018060405250810190612f299190613d55565b905081612f368185613d42565b612f409083613a51565b612f4a9190613a68565b9350505b505090565b5f6001600160a01b037f0000000000000000000000000000000000000000000000000000000000000000163303613163575f5f60065f9054906101000a90046001600160a01b03166001600160a01b0316630902f1ac6040518163ffffffff1660e01b8152600401606060405180830381865afa158015612fd6573d5f5f3e3d5ffd5b505050506040513d601f19601f82011682018060405250810190612ffa9190613cdb565b50600b546006546040516370a0823160e01b81526001600160a01b0391821660048201526001600160701b0394851696509290931693505f9216906370a0823190602401602060405180830381865afa158015613059573d5f5f3e3d5ffd5b505050506040513d601f19601f8201168201806040525081019061307d9190613d55565b90508281111561315f57600654604080516318160ddd60e01b815290515f926001600160a01b0316916318160ddd9160048083019260209291908290030181865afa1580156130ce573d5f5f3e3d5ffd5b505050506040513d601f19601f820116820180604052508101906130f29190613d55565b9050805f036131075750600195945050505050565b6131128183856138b3565b61311c9082613a3e565b905061315b848261312d8286613d42565b6131379190613a51565b6131419190613a68565b8461314c848a613a51565b6131569190613a68565b6139a8565b9450505b5050505b919050565b5f6013546012546131799190613a3e565b9050670de0b6b3a764000081101561318e5750565b6131b9307f000000000000000000000000000000000000000000000000000000000000000083611b88565b6040805160028082526060820183525f9260208301908036833701905050905030815f815181106131ec576131ec613c20565b6001600160a01b039283166020918202929092010152600b5482519116908290600190811061321d5761321d613c20565b6001600160a01b03928316602091820292909201015260405163791ac94760e01b81527f00000000000000000000000000000000000000000000000000000000000000009091169063791ac947906132819085905f90869030904290600401613da9565b5f604051808303815f87803b158015613298575f5ffd5b505af11580156132aa573d5f5f3e3d5ffd5b5050600e546013546132df93506001600160a01b03909116915084906132d09047613a51565b6132da9190613a68565b610dee565b600c546132f5906001600160a01b031647610dee565b50505f6012819055601355565b5f81815260018301602052604081205461334757508154600181810184555f84815260208082209093018490558454848252828601909352604090209190915561112a565b505f61112a565b6040805160028082526060820183525f92839291906020830190803683375050600b5482519293506001600160a01b0316918391505f9061339157613391613c20565b60200260200101906001600160a01b031690816001600160a01b03168152505030816001815181106133c5576133c5613c20565b6001600160a01b03928316602091820292909201015260405163d06ca61f60e01b81525f917f0000000000000000000000000000000000000000000000000000000000000000169063d06ca61f906134239087908690600401613de4565b5f60405180830381865afa15801561343d573d5f5f3e3d5ffd5b505050506040513d5f823e601f3d908101601f191682016040526134649190810190613e04565b90508060018151811061347957613479613c20565b602002602001015192505050919050565b5f80613497600284613a68565b6040805160028082526060820183529293505f92909160208301908036833701905050905030815f815181106134cf576134cf613c20565b6001600160a01b039283166020918202929092010152600b5482519116908290600190811061350057613500613c20565b6001600160a01b03928316602091820292909201015260065461352591163086611a62565b60065f9054906101000a90046001600160a01b03166001600160a01b031663fff6cae96040518163ffffffff1660e01b81526004015f604051808303815f87803b158015613571575f5ffd5b505af1158015613583573d5f5f3e3d5ffd5b505050506135b2307f000000000000000000000000000000000000000000000000000000000000000086611b88565b601054604051635c11d79560e01b81526001600160a01b037f0000000000000000000000000000000000000000000000000000000000000000811692635c11d7959261360d9287925f92889291909116904290600401613da9565b5f604051808303815f87803b158015613624575f5ffd5b505af1158015613636573d5f5f3e3d5ffd5b5050600b546010546040516370a0823160e01b81526001600160a01b0391821660048201525f9450911691506370a0823190602401602060405180830381865afa158015613686573d5f5f3e3d5ffd5b505050506040513d601f19601f820116820180604052508101906136aa9190613d55565b601054600b5460405163092dfdb360e11b81526001600160a01b03918216600482015230602482015260448101849052929350169063125bfb66906064015f604051808303815f87803b1580156136ff575f5ffd5b505af1158015613711573d5f5f3e3d5ffd5b5050600b5460405163095ea7b360e01b81526001600160a01b037f00000000000000000000000000000000000000000000000000000000000000008116600483015260248201869052909116925063095ea7b391506044016020604051808303815f875af1158015613785573d5f5f3e3d5ffd5b505050506040513d601f19601f820116820180604052508101906137a99190613d6c565b50600b5460405162e8e33760e81b81526001600160a01b039182166004820152306024820181905260448201849052606482018690525f6084830181905260a483015260c48201524260e48201527f00000000000000000000000000000000000000000000000000000000000000009091169063e8e3370090610104016060604051808303815f875af1158015613842573d5f5f3e3d5ffd5b505050506040513d601f19601f820116820180604052508101906119f09190613c68565b6001600160a01b0381165f908152601c6020526040902054801561388f5761388f308383611a62565b506001600160a01b03165f908152601c60205260409020670de0b6b3a76400009055565b5f806138c76138c28486613a51565b6139bd565b90505f61394160065f9054906101000a90046001600160a01b03166001600160a01b0316637464fc3d6040518163ffffffff1660e01b8152600401602060405180830381865afa15801561391d573d5f5f3e3d5ffd5b505050506040513d601f19601f820116820180604052508101906138c29190613d55565b90508082111561399f575f6139568284613d42565b6139609088613a51565b61396b906008613a51565b90505f613979836008613a51565b613984856011613a51565b61398e9190613a3e565b905061399a8183613a68565b945050505b50509392505050565b5f8183106139b65781611ca6565b5090919050565b5f6003821115613a1c5750805f6139d5600283613a68565b6139e0906001613a3e565b90505b81811015613a16579050806002816139fb8186613a68565b613a059190613a3e565b613a0f9190613a68565b90506139e3565b50919050565b811561316357506001919050565b634e487b7160e01b5f52601160045260245ffd5b8082018082111561112a5761112a613a2a565b808202811582820484141761112a5761112a613a2a565b5f82613a8257634e487b7160e01b5f52601260045260245ffd5b500490565b602081525f82518060208401528060208501604085015e5f604082850101526040601f19601f83011684010191505092915050565b6001600160a01b0381168114611a35575f5ffd5b5f5f60408385031215613ae1575f5ffd5b8235613aec81613abc565b946020939093013593505050565b5f60208284031215613b0a575f5ffd5b8135611ca681613abc565b5f60208284031215613b25575f5ffd5b5035919050565b5f5f5f60608486031215613b3e575f5ffd5b8335613b4981613abc565b92506020840135613b5981613abc565b929592945050506040919091013590565b5f8151808452602084019350602083015f5b82811015613ba35781516001600160a01b0316865260209586019590910190600101613b7c565b5093949350505050565b602081525f611ca66020830184613b6a565b5f5f60408385031215613bd0575f5ffd5b8235613bdb81613abc565b91506020830135613beb81613abc565b809150509250929050565b634e487b7160e01b5f52604160045260245ffd5b5f82518060208501845e5f920191825250919050565b634e487b7160e01b5f52603260045260245ffd5b848152608060208201525f613c4c6080830186613b6a565b6001600160a01b03949094166040830152506060015292915050565b5f5f5f60608486031215613c7a575f5ffd5b5050815160208301516040909301519094929350919050565b600181811c90821680613ca757607f821691505b602082108103613a1657634e487b7160e01b5f52602260045260245ffd5b80516001600160701b0381168114613163575f5ffd5b5f5f5f60608486031215613ced575f5ffd5b613cf684613cc5565b9250613d0460208501613cc5565b9150604084015163ffffffff81168114613d1c575f5ffd5b809150509250925092565b5f60208284031215613d37575f5ffd5b8151611ca681613abc565b8181038181111561112a5761112a613a2a565b5f60208284031215613d65575f5ffd5b5051919050565b5f60208284031215613d7c575f5ffd5b81518015158114611ca6575f5ffd5b5f60ff821660ff8103613da057613da0613a2a565b60010192915050565b85815284602082015260a060408201525f613dc760a0830186613b6a565b6001600160a01b0394909416606083015250608001529392505050565b828152604060208201525f613dfc6040830184613b6a565b949350505050565b5f60208284031215613e14575f5ffd5b815167ffffffffffffffff811115613e2a575f5ffd5b8201601f81018413613e3a575f5ffd5b805167ffffffffffffffff811115613e5457613e54613bf6565b8060051b604051601f19603f830116810181811067ffffffffffffffff82111715613e8157613e81613bf6565b604052918252602081840181019290810187841115613e9e575f5ffd5b6020850194505b83851015613ec157845180825260209586019590935001613ea5565b50969550505050505056fea26469706673582212208616335871e6f9f30ac33e736ef508c728e7b46c4e8e5f683c66be05e72bf82b64736f6c634300082200336080604052348015600e575f5ffd5b50335f908152602081905260409020805460ff19166001179055610180806100355f395ff3fe608060405234801561000f575f5ffd5b5060043610610029575f3560e01c8063125bfb661461002d575b5f5ffd5b61004061003b3660046100eb565b610042565b005b335f9081526020819052604090205460ff16156100cb5760405163a9059cbb60e01b81526001600160a01b0383811660048301526024820183905284169063a9059cbb906044016020604051808303815f875af11580156100a5573d5f5f3e3d5ffd5b505050506040513d601f19601f820116820180604052508101906100c99190610124565b505b505050565b80356001600160a01b03811681146100e6575f5ffd5b919050565b5f5f5f606084860312156100fd575f5ffd5b610106846100d0565b9250610114602085016100d0565b9150604084013590509250925092565b5f60208284031215610134575f5ffd5b81518015158114610143575f5ffd5b939250505056fea264697066735822122013ced6dcc42b9d2c5aafee247a3739b9673cb43b76a0376be9cb7a50bb922fa264736f6c63430008220033",
			"opcodes": "PUSH1 0xA0 PUSH1 0x40 MSTORE PUSH11 0x115EEC47F6CF7E35000000 PUSH1 0x11 SSTORE PUSH8 0x16345785D8A0000 PUSH1 0x14 SSTORE PUSH1 0x16 DUP1 SLOAD PUSH1 0x1 PUSH2 0xFF01 PUSH1 0xA0 SHL SUB NOT AND PUSH22 0x1005B6453EA3F0E6F975F7440884257037F72A7C33B OR SWAP1 SSTORE PUSH1 0x1 PUSH1 0x17 SSTORE CALLVALUE DUP1 ISZERO PUSH2 0x58 JUMPI PUSH0 PUSH0 REVERT JUMPDEST POP PUSH1 0x40 MLOAD PUSH2 0x6AFE CODESIZE SUB DUP1 PUSH2 0x6AFE DUP4 CODECOPY DUP2 ADD PUSH1 0x40 DUP2 SWAP1 MSTORE PUSH2 0x77 SWAP2 PUSH2 0x2481 JUMP JUMPDEST CALLER PUSH1 0x40 MLOAD DUP1 PUSH1 0x40 ADD PUSH1 0x40 MSTORE DUP1 PUSH1 0x8 DUP2 MSTORE PUSH1 0x20 ADD PUSH8 0x26A7A2AA37B5B2B7 PUSH1 0xC1 SHL DUP2 MSTORE POP PUSH1 0x40 MLOAD DUP1 PUSH1 0x40 ADD PUSH1 0x40 MSTORE DUP1 PUSH1 0x3 DUP2 MSTORE PUSH1 0x20 ADD PUSH3 0x4D4F45 PUSH1 0xE8 SHL DUP2 MSTORE POP DUP2 PUSH1 0x3 SWAP1 DUP2 PUSH2 0xC4 SWAP2 SWAP1 PUSH2 0x2555 JUMP JUMPDEST POP PUSH1 0x4 PUSH2 0xD1 DUP3 DUP3 PUSH2 0x2555 JUMP JUMPDEST POP POP POP PUSH1 0x1 PUSH1 0x1 PUSH1 0xA0 SHL SUB DUP2 AND PUSH2 0x102 JUMPI PUSH1 0x40 MLOAD PUSH4 0x1E4FBDF7 PUSH1 0xE0 SHL DUP2 MSTORE PUSH0 PUSH1 0x4 DUP3 ADD MSTORE PUSH1 0x24 ADD JUMPDEST PUSH1 0x40 MLOAD DUP1 SWAP2 SUB SWAP1 REVERT JUMPDEST PUSH2 0x10B DUP2 PUSH2 0x337 JUMP JUMPDEST POP PUSH20 0xD99D1C33F9FC3444F8101754ABC46C52416550D1 PUSH1 0x80 DUP2 SWAP1 MSTORE PUSH1 0x40 DUP1 MLOAD PUSH4 0x15AB88C9 PUSH1 0xE3 SHL DUP2 MSTORE SWAP1 MLOAD PUSH4 0xAD5C4648 SWAP2 PUSH1 0x4 DUP1 DUP3 ADD SWAP3 PUSH1 0x20 SWAP3 SWAP1 SWAP2 SWAP1 DUP3 SWAP1 SUB ADD DUP2 DUP7 GAS STATICCALL ISZERO DUP1 ISZERO PUSH2 0x15F JUMPI RETURNDATASIZE PUSH0 PUSH0 RETURNDATACOPY RETURNDATASIZE PUSH0 REVERT JUMPDEST POP POP POP POP PUSH1 0x40 MLOAD RETURNDATASIZE PUSH1 0x1F NOT PUSH1 0x1F DUP3 ADD AND DUP3 ADD DUP1 PUSH1 0x40 MSTORE POP DUP2 ADD SWAP1 PUSH2 0x183 SWAP2 SWAP1 PUSH2 0x260F JUMP JUMPDEST PUSH1 0xB PUSH0 PUSH2 0x100 EXP DUP2 SLOAD DUP2 PUSH1 0x1 PUSH1 0x1 PUSH1 0xA0 SHL SUB MUL NOT AND SWAP1 DUP4 PUSH1 0x1 PUSH1 0x1 PUSH1 0xA0 SHL SUB AND MUL OR SWAP1 SSTORE POP PUSH1 0x80 MLOAD PUSH1 0x1 PUSH1 0x1 PUSH1 0xA0 SHL SUB AND PUSH4 0xC45A0155 PUSH1 0x40 MLOAD DUP2 PUSH4 0xFFFFFFFF AND PUSH1 0xE0 SHL DUP2 MSTORE PUSH1 0x4 ADD PUSH1 0x20 PUSH1 0x40 MLOAD DUP1 DUP4 SUB DUP2 DUP7 GAS STATICCALL ISZERO DUP1 ISZERO PUSH2 0x1E6 JUMPI RETURNDATASIZE PUSH0 PUSH0 RETURNDATACOPY RETURNDATASIZE PUSH0 REVERT JUMPDEST POP POP POP POP PUSH1 0x40 MLOAD RETURNDATASIZE PUSH1 0x1F NOT PUSH1 0x1F DUP3 ADD AND DUP3 ADD DUP1 PUSH1 0x40 MSTORE POP DUP2 ADD SWAP1 PUSH2 0x20A SWAP2 SWAP1 PUSH2 0x260F JUMP JUMPDEST PUSH1 0xB SLOAD PUSH1 0x40 MLOAD PUSH4 0x64E329CB PUSH1 0xE1 SHL DUP2 MSTORE ADDRESS PUSH1 0x4 DUP3 ADD MSTORE PUSH1 0x1 PUSH1 0x1 PUSH1 0xA0 SHL SUB SWAP2 DUP3 AND PUSH1 0x24 DUP3 ADD MSTORE SWAP2 AND SWAP1 PUSH4 0xC9C65396 SWAP1 PUSH1 0x44 ADD PUSH1 0x20 PUSH1 0x40 MLOAD DUP1 DUP4 SUB DUP2 PUSH0 DUP8 GAS CALL ISZERO DUP1 ISZERO PUSH2 0x258 JUMPI RETURNDATASIZE PUSH0 PUSH0 RETURNDATACOPY RETURNDATASIZE PUSH0 REVERT JUMPDEST POP POP POP POP PUSH1 0x40 MLOAD RETURNDATASIZE PUSH1 0x1F NOT PUSH1 0x1F DUP3 ADD AND DUP3 ADD DUP1 PUSH1 0x40 MSTORE POP DUP2 ADD SWAP1 PUSH2 0x27C SWAP2 SWAP1 PUSH2 0x260F JUMP JUMPDEST PUSH1 0x6 DUP1 SLOAD PUSH1 0x1 PUSH1 0x1 PUSH1 0xA0 SHL SUB NOT SWAP1 DUP2 AND PUSH1 0x1 PUSH1 0x1 PUSH1 0xA0 SHL SUB SWAP4 DUP5 AND OR SWAP1 SWAP2 SSTORE PUSH1 0xD DUP1 SLOAD DUP3 AND DUP6 DUP5 AND OR SWAP1 SSTORE PUSH1 0xE DUP1 SLOAD SWAP1 SWAP2 AND SWAP2 DUP4 AND SWAP2 SWAP1 SWAP2 OR SWAP1 SSTORE PUSH1 0x40 MLOAD PUSH2 0x2C3 SWAP1 PUSH2 0x245E JUMP JUMPDEST PUSH1 0x40 MLOAD DUP1 SWAP2 SUB SWAP1 PUSH0 CREATE DUP1 ISZERO DUP1 ISZERO PUSH2 0x2DC JUMPI RETURNDATASIZE PUSH0 PUSH0 RETURNDATACOPY RETURNDATASIZE PUSH0 REVERT JUMPDEST POP PUSH1 0x10 DUP1 SLOAD PUSH1 0x1 PUSH1 0x1 PUSH1 0xA0 SHL SUB NOT AND PUSH1 0x1 PUSH1 0x1 PUSH1 0xA0 SHL SUB SWAP3 SWAP1 SWAP3 AND SWAP2 SWAP1 SWAP2 OR SWAP1 SSTORE PUSH4 0x69AABA1F PUSH1 0x15 SSTORE PUSH2 0x32F DUP4 PUSH2 0x311 PUSH1 0x12 SWAP1 JUMP JUMPDEST PUSH2 0x31C SWAP1 PUSH1 0xA PUSH2 0x271F JUMP JUMPDEST PUSH2 0x32A SWAP1 PUSH4 0x7D2B7500 PUSH2 0x272D JUMP JUMPDEST PUSH2 0x388 JUMP JUMPDEST POP POP POP PUSH2 0x29E2 JUMP JUMPDEST PUSH1 0x5 DUP1 SLOAD PUSH1 0x1 PUSH1 0x1 PUSH1 0xA0 SHL SUB DUP4 DUP2 AND PUSH1 0x1 PUSH1 0x1 PUSH1 0xA0 SHL SUB NOT DUP4 AND DUP2 OR SWAP1 SWAP4 SSTORE PUSH1 0x40 MLOAD SWAP2 AND SWAP2 SWAP1 DUP3 SWAP1 PUSH32 0x8BE0079C531659141344CD1FD0A4F28419497F9722A3DAAFE3B4186F6B6457E0 SWAP1 PUSH0 SWAP1 LOG3 POP POP JUMP JUMPDEST PUSH1 0x1 PUSH1 0x1 PUSH1 0xA0 SHL SUB DUP3 AND PUSH2 0x3B1 JUMPI PUSH1 0x40 MLOAD PUSH4 0xEC442F05 PUSH1 0xE0 SHL DUP2 MSTORE PUSH0 PUSH1 0x4 DUP3 ADD MSTORE PUSH1 0x24 ADD PUSH2 0xF9 JUMP JUMPDEST PUSH2 0x3BC PUSH0 DUP4 DUP4 PUSH2 0x3C0 JUMP JUMPDEST POP POP JUMP JUMPDEST PUSH8 0x1BC16D674EC80000 DUP2 EQ DUP1 ISZERO PUSH2 0x3FC JUMPI POP PUSH1 0x1 PUSH1 0x1 PUSH1 0xA0 SHL SUB DUP1 DUP5 AND PUSH0 SWAP1 DUP2 MSTORE PUSH1 0x7 PUSH1 0x20 SWAP1 DUP2 MSTORE PUSH1 0x40 DUP1 DUP4 KECCAK256 SWAP4 DUP7 AND DUP4 MSTORE SWAP3 SWAP1 MSTORE KECCAK256 SLOAD PUSH1 0xFF AND ISZERO JUMPDEST ISZERO PUSH2 0x431 JUMPI PUSH1 0x1 PUSH1 0x1 PUSH1 0xA0 SHL SUB DUP1 DUP5 AND PUSH0 SWAP1 DUP2 MSTORE PUSH1 0x7 PUSH1 0x20 SWAP1 DUP2 MSTORE PUSH1 0x40 DUP1 DUP4 KECCAK256 SWAP4 DUP7 AND DUP4 MSTORE SWAP3 SWAP1 MSTORE KECCAK256 DUP1 SLOAD PUSH1 0xFF NOT AND PUSH1 0x1 OR SWAP1 SSTORE JUMPDEST PUSH8 0xDE0B6B3A7640000 DUP2 EQ DUP1 ISZERO PUSH2 0x46C JUMPI POP PUSH1 0x1 PUSH1 0x1 PUSH1 0xA0 SHL SUB DUP1 DUP4 AND PUSH0 SWAP1 DUP2 MSTORE PUSH1 0x7 PUSH1 0x20 SWAP1 DUP2 MSTORE PUSH1 0x40 DUP1 DUP4 KECCAK256 SWAP4 DUP8 AND DUP4 MSTORE SWAP3 SWAP1 MSTORE KECCAK256 SLOAD PUSH1 0xFF AND JUMPDEST DUP1 ISZERO PUSH2 0x48F JUMPI POP PUSH1 0x1 PUSH1 0x1 PUSH1 0xA0 SHL SUB DUP4 DUP2 AND PUSH0 SWAP1 DUP2 MSTORE PUSH1 0xA PUSH1 0x20 MSTORE PUSH1 0x40 SWAP1 KECCAK256 SLOAD AND ISZERO JUMPDEST ISZERO PUSH2 0x517 JUMPI PUSH1 0x1 PUSH1 0x1 PUSH1 0xA0 SHL SUB DUP4 DUP2 AND PUSH0 SWAP1 DUP2 MSTORE PUSH1 0xA PUSH1 0x20 SWAP1 DUP2 MSTORE PUSH1 0x40 DUP1 DUP4 KECCAK256 DUP1 SLOAD PUSH1 0x1 PUSH1 0x1 PUSH1 0xA0 SHL SUB NOT AND SWAP5 DUP8 AND SWAP5 DUP6 OR SWAP1 SSTORE SWAP3 DUP3 MSTORE PUSH1 0x8 SWAP1 MSTORE KECCAK256 PUSH2 0x4D5 SWAP1 DUP5 PUSH2 0xE14 JUMP JUMPDEST POP DUP3 PUSH1 0x1 PUSH1 0x1 PUSH1 0xA0 SHL SUB AND DUP3 PUSH1 0x1 PUSH1 0x1 PUSH1 0xA0 SHL SUB AND PUSH32 0x8D63F2E3D39EB6CF9C80D49BC203133F6F215CE2A1A3D27A68F0167F6C045D48 PUSH1 0x40 MLOAD PUSH1 0x40 MLOAD DUP1 SWAP2 SUB SWAP1 LOG3 JUMPDEST CALLER PUSH0 SWAP1 DUP2 MSTORE PUSH1 0x19 PUSH1 0x20 MSTORE PUSH1 0x40 SWAP1 KECCAK256 SLOAD ISZERO PUSH2 0x595 JUMPI CALLER PUSH0 SWAP1 DUP2 MSTORE PUSH1 0x19 PUSH1 0x20 MSTORE PUSH1 0x40 SWAP1 KECCAK256 SLOAD PUSH2 0x546 SWAP1 PUSH1 0x3 SWAP1 PUSH2 0x2744 JUMP JUMPDEST TIMESTAMP LT ISZERO PUSH2 0x595 JUMPI PUSH1 0x40 MLOAD PUSH3 0x461BCD PUSH1 0xE5 SHL DUP2 MSTORE PUSH1 0x20 PUSH1 0x4 DUP3 ADD MSTORE PUSH1 0x1C PUSH1 0x24 DUP3 ADD MSTORE PUSH32 0x416E74692D666C6173686C6F616E3A20746F6F206672657175656E7400000000 PUSH1 0x44 DUP3 ADD MSTORE PUSH1 0x64 ADD PUSH2 0xF9 JUMP JUMPDEST CALLER PUSH0 DUP2 DUP2 MSTORE PUSH1 0x19 PUSH1 0x20 MSTORE PUSH1 0x40 SWAP1 KECCAK256 TIMESTAMP SWAP1 SSTORE PUSH1 0x1 PUSH1 0x1 PUSH1 0xA0 SHL SUB DUP5 AND EQ DUP1 ISZERO PUSH2 0x5DC JUMPI POP PUSH1 0x1 PUSH1 0x1 PUSH1 0xA0 SHL SUB DUP4 AND PUSH0 SWAP1 DUP2 MSTORE PUSH1 0xA PUSH1 0x20 MSTORE PUSH1 0x40 SWAP1 KECCAK256 PUSH1 0x7 ADD SLOAD PUSH2 0x100 SWAP1 DIV PUSH1 0xFF AND JUMPDEST DUP1 ISZERO PUSH2 0x5F0 JUMPI POP PUSH1 0x1 PUSH1 0x1 PUSH1 0xA0 SHL SUB DUP3 AND ADDRESS EQ JUMPDEST DUP1 ISZERO PUSH2 0x603 JUMPI POP PUSH8 0xDE0B6B3A7640000 DUP2 EQ JUMPDEST ISZERO PUSH2 0x6CC JUMPI PUSH1 0x10 SLOAD PUSH1 0x1 PUSH1 0xA0 SHL SWAP1 DIV PUSH1 0xFF AND ISZERO PUSH2 0x64A JUMPI PUSH1 0x40 MLOAD PUSH3 0x461BCD PUSH1 0xE5 SHL DUP2 MSTORE PUSH1 0x20 PUSH1 0x4 DUP3 ADD MSTORE PUSH1 0x5 PUSH1 0x24 DUP3 ADD MSTORE PUSH5 0x119D5CD959 PUSH1 0xDA SHL PUSH1 0x44 DUP3 ADD MSTORE PUSH1 0x64 ADD PUSH2 0xF9 JUMP JUMPDEST PUSH1 0x1 PUSH1 0x1 PUSH1 0xA0 SHL SUB DUP4 DUP2 AND PUSH0 SWAP1 DUP2 MSTORE PUSH1 0xA PUSH1 0x20 MSTORE PUSH1 0x40 SWAP1 KECCAK256 SLOAD AND ISZERO DUP1 ISZERO PUSH2 0x67F JUMPI POP PUSH1 0x16 SLOAD PUSH1 0x1 PUSH1 0x1 PUSH1 0xA0 SHL SUB DUP5 DUP2 AND SWAP2 AND EQ ISZERO JUMPDEST ISZERO PUSH2 0x6BE JUMPI PUSH1 0x40 MLOAD PUSH3 0x461BCD PUSH1 0xE5 SHL DUP2 MSTORE PUSH1 0x20 PUSH1 0x4 DUP3 ADD MSTORE PUSH1 0xF PUSH1 0x24 DUP3 ADD MSTORE PUSH15 0x135D5CDD08189A5B9908199A5C9CDD PUSH1 0x8A SHL PUSH1 0x44 DUP3 ADD MSTORE PUSH1 0x64 ADD PUSH2 0xF9 JUMP JUMPDEST PUSH2 0x6C7 DUP4 PUSH2 0xE31 JUMP JUMPDEST POP POP POP JUMP JUMPDEST CALLER PUSH1 0x1 PUSH1 0x1 PUSH1 0xA0 SHL SUB DUP5 AND EQ DUP1 ISZERO PUSH2 0x703 JUMPI POP PUSH1 0x1 PUSH1 0x1 PUSH1 0xA0 SHL SUB DUP4 AND PUSH0 SWAP1 DUP2 MSTORE PUSH1 0xA PUSH1 0x20 MSTORE PUSH1 0x40 SWAP1 KECCAK256 PUSH1 0x7 ADD SLOAD PUSH2 0x100 SWAP1 DIV PUSH1 0xFF AND JUMPDEST DUP1 ISZERO PUSH2 0x717 JUMPI POP PUSH1 0x1 PUSH1 0x1 PUSH1 0xA0 SHL SUB DUP3 AND ADDRESS EQ JUMPDEST DUP1 ISZERO PUSH2 0x72A JUMPI POP PUSH8 0x8AC7230489E80000 DUP2 EQ JUMPDEST ISZERO PUSH2 0x743 JUMPI PUSH2 0x738 DUP4 PUSH2 0x118A JUMP JUMPDEST PUSH2 0x6C7 DUP4 DUP4 DUP4 PUSH2 0x137B JUMP JUMPDEST PUSH1 0x1 PUSH1 0x1 PUSH1 0xA0 SHL SUB DUP4 AND ADDRESS EQ DUP1 PUSH2 0x762 JUMPI POP PUSH1 0x1 PUSH1 0x1 PUSH1 0xA0 SHL SUB DUP3 AND ADDRESS EQ JUMPDEST DUP1 PUSH2 0x77A JUMPI POP PUSH1 0x10 SLOAD PUSH1 0x1 PUSH1 0x1 PUSH1 0xA0 SHL SUB DUP5 DUP2 AND SWAP2 AND EQ JUMPDEST DUP1 PUSH2 0x792 JUMPI POP PUSH1 0x10 SLOAD PUSH1 0x1 PUSH1 0x1 PUSH1 0xA0 SHL SUB DUP4 DUP2 AND SWAP2 AND EQ JUMPDEST ISZERO PUSH2 0x7A2 JUMPI PUSH2 0x6C7 DUP4 DUP4 DUP4 PUSH2 0x137B JUMP JUMPDEST PUSH1 0x6 SLOAD PUSH1 0x1 PUSH1 0x1 PUSH1 0xA0 SHL SUB SWAP1 DUP2 AND SWAP1 DUP5 AND SUB PUSH2 0x9FE JUMPI TIMESTAMP PUSH1 0x15 SLOAD LT PUSH2 0x7F5 JUMPI PUSH1 0x40 MLOAD PUSH3 0x461BCD PUSH1 0xE5 SHL DUP2 MSTORE PUSH1 0x20 PUSH1 0x4 DUP3 ADD MSTORE PUSH1 0x9 PUSH1 0x24 DUP3 ADD MSTORE PUSH9 0x737461727454696D65 PUSH1 0xB8 SHL PUSH1 0x44 DUP3 ADD MSTORE PUSH1 0x64 ADD PUSH2 0xF9 JUMP JUMPDEST ORIGIN PUSH0 SWAP1 DUP2 MSTORE PUSH1 0x9 PUSH1 0x20 SWAP1 DUP2 MSTORE PUSH1 0x40 DUP1 DUP4 KECCAK256 TIMESTAMP SWAP1 DUP2 SWAP1 SSTORE PUSH1 0x18 SWAP1 SWAP3 MSTORE DUP3 KECCAK256 SSTORE PUSH2 0x81B PUSH2 0x14A1 JUMP JUMPDEST GT ISZERO PUSH2 0x8F0 JUMPI PUSH0 DUP1 PUSH2 0x82B PUSH2 0x1636 JUMP JUMPDEST SWAP1 POP PUSH12 0x33B2E3C9FD0803CE8000000 DUP2 LT PUSH2 0x85E JUMPI PUSH1 0xA PUSH2 0x84D DUP5 PUSH1 0x9 PUSH2 0x272D JUMP JUMPDEST PUSH2 0x857 SWAP2 SWAP1 PUSH2 0x2757 JUMP JUMPDEST SWAP2 POP PUSH2 0x8C0 JUMP JUMPDEST PUSH12 0x19D971E4FE8401E74000000 DUP2 LT PUSH2 0x87E JUMPI PUSH1 0xA PUSH2 0x84D DUP5 PUSH1 0x6 PUSH2 0x272D JUMP JUMPDEST PUSH11 0x52B7D2DCC80CD2E4000000 DUP2 LT PUSH2 0x89D JUMPI PUSH1 0xA PUSH2 0x84D DUP5 PUSH1 0x4 PUSH2 0x272D JUMP JUMPDEST PUSH11 0x295BE96E64066972000000 DUP2 LT PUSH2 0x8BC JUMPI PUSH1 0xA PUSH2 0x84D DUP5 PUSH1 0x2 PUSH2 0x272D JUMP JUMPDEST DUP3 SWAP2 POP JUMPDEST PUSH2 0x8CD DUP6 PUSH2 0xDEAD DUP5 PUSH2 0x137B JUMP JUMPDEST DUP2 DUP4 GT ISZERO PUSH2 0x8E9 JUMPI PUSH2 0x8E9 DUP6 DUP6 PUSH2 0x8E4 DUP6 DUP8 PUSH2 0x2776 JUMP JUMPDEST PUSH2 0x137B JUMP JUMPDEST POP POP POP POP POP JUMP JUMPDEST PUSH1 0x64 PUSH2 0x8FA PUSH2 0x173A JUMP JUMPDEST PUSH2 0x905 SWAP1 PUSH1 0x5 PUSH2 0x272D JUMP JUMPDEST PUSH2 0x90F SWAP2 SWAP1 PUSH2 0x2757 JUMP JUMPDEST DUP2 LT PUSH2 0x949 JUMPI PUSH1 0x40 MLOAD PUSH3 0x461BCD PUSH1 0xE5 SHL DUP2 MSTORE PUSH1 0x20 PUSH1 0x4 DUP3 ADD MSTORE PUSH1 0x9 PUSH1 0x24 DUP3 ADD MSTORE PUSH9 0x36B0BC103A37B5B2B7 PUSH1 0xB9 SHL PUSH1 0x44 DUP3 ADD MSTORE PUSH1 0x64 ADD PUSH2 0xF9 JUMP JUMPDEST PUSH0 PUSH2 0x2710 PUSH2 0x959 DUP4 PUSH2 0x12C PUSH2 0x272D JUMP JUMPDEST PUSH2 0x963 SWAP2 SWAP1 PUSH2 0x2757 JUMP JUMPDEST SWAP1 POP PUSH0 PUSH1 0x64 PUSH2 0x973 DUP4 PUSH1 0x46 PUSH2 0x272D JUMP JUMPDEST PUSH2 0x97D SWAP2 SWAP1 PUSH2 0x2757 JUMP JUMPDEST SWAP1 POP PUSH0 PUSH1 0x64 PUSH2 0x98D DUP5 PUSH1 0xA PUSH2 0x272D JUMP JUMPDEST PUSH2 0x997 SWAP2 SWAP1 PUSH2 0x2757 JUMP JUMPDEST SWAP1 POP PUSH0 DUP2 PUSH2 0x9A5 DUP5 DUP7 PUSH2 0x2776 JUMP JUMPDEST PUSH2 0x9AF SWAP2 SWAP1 PUSH2 0x2776 JUMP JUMPDEST SWAP1 POP DUP3 PUSH1 0x12 PUSH0 DUP3 DUP3 SLOAD PUSH2 0x9C2 SWAP2 SWAP1 PUSH2 0x2744 JUMP JUMPDEST SWAP1 SWAP2 SSTORE POP PUSH2 0x9D5 SWAP1 POP DUP8 PUSH2 0xDEAD DUP5 PUSH2 0x137B JUMP JUMPDEST PUSH1 0xD SLOAD PUSH2 0x9ED SWAP1 DUP9 SWAP1 PUSH1 0x1 PUSH1 0x1 PUSH1 0xA0 SHL SUB AND DUP4 PUSH2 0x137B JUMP JUMPDEST PUSH2 0x9F7 DUP5 DUP7 PUSH2 0x2776 JUMP JUMPDEST SWAP5 POP POP POP POP POP JUMPDEST PUSH1 0x6 SLOAD PUSH1 0x1 PUSH1 0x1 PUSH1 0xA0 SHL SUB SWAP1 DUP2 AND SWAP1 DUP4 AND SUB PUSH2 0xD0B JUMPI PUSH1 0x16 SLOAD PUSH1 0x1 PUSH1 0xA8 SHL SWAP1 DIV PUSH1 0xFF AND ISZERO PUSH2 0xAF9 JUMPI PUSH1 0x6 SLOAD PUSH1 0x40 DUP1 MLOAD PUSH4 0x240BC6B PUSH1 0xE2 SHL DUP2 MSTORE SWAP1 MLOAD PUSH1 0x1 PUSH1 0x1 PUSH1 0xA0 SHL SUB SWAP1 SWAP3 AND SWAP2 PUSH0 SWAP2 DUP3 SWAP2 DUP5 SWAP2 PUSH4 0x902F1AC SWAP2 PUSH1 0x4 DUP1 DUP4 ADD SWAP3 PUSH1 0x60 SWAP3 SWAP2 SWAP1 DUP3 SWAP1 SUB ADD DUP2 DUP7 GAS STATICCALL ISZERO DUP1 ISZERO PUSH2 0xA73 JUMPI RETURNDATASIZE PUSH0 PUSH0 RETURNDATACOPY RETURNDATASIZE PUSH0 REVERT JUMPDEST POP POP POP POP PUSH1 0x40 MLOAD RETURNDATASIZE PUSH1 0x1F NOT PUSH1 0x1F DUP3 ADD AND DUP3 ADD DUP1 PUSH1 0x40 MSTORE POP DUP2 ADD SWAP1 PUSH2 0xA97 SWAP2 SWAP1 PUSH2 0x279F JUMP JUMPDEST POP SWAP2 POP SWAP2 POP DUP2 PUSH1 0x1 PUSH1 0x1 PUSH1 0x70 SHL SUB AND PUSH0 EQ DUP1 ISZERO PUSH2 0xABB JUMPI POP PUSH1 0x1 PUSH1 0x1 PUSH1 0x70 SHL SUB DUP2 AND ISZERO JUMPDEST DUP1 ISZERO PUSH2 0xAD0 JUMPI POP PUSH1 0x16 SLOAD PUSH1 0x1 PUSH1 0xA8 SHL SWAP1 DIV PUSH1 0xFF AND JUMPDEST ISZERO PUSH2 0xAF5 JUMPI PUSH1 0x16 DUP1 SLOAD PUSH1 0xFF PUSH1 0xA8 SHL NOT AND SWAP1 SSTORE PUSH2 0xAED DUP7 DUP7 DUP7 PUSH2 0x137B JUMP JUMPDEST POP POP POP POP POP POP JUMP JUMPDEST POP POP POP JUMPDEST PUSH2 0xB04 PUSH1 0xA TIMESTAMP PUSH2 0x2776 JUMP JUMPDEST ORIGIN PUSH0 SWAP1 DUP2 MSTORE PUSH1 0x9 PUSH1 0x20 MSTORE PUSH1 0x40 SWAP1 KECCAK256 SLOAD LT PUSH2 0xB45 JUMPI PUSH1 0x40 MLOAD PUSH3 0x461BCD PUSH1 0xE5 SHL DUP2 MSTORE PUSH1 0x20 PUSH1 0x4 DUP3 ADD MSTORE PUSH1 0x2 PUSH1 0x24 DUP3 ADD MSTORE PUSH2 0x18D9 PUSH1 0xF2 SHL PUSH1 0x44 DUP3 ADD MSTORE PUSH1 0x64 ADD PUSH2 0xF9 JUMP JUMPDEST PUSH0 PUSH2 0xB4F DUP3 PUSH2 0x177A JUMP JUMPDEST GT PUSH2 0xD0B JUMPI TIMESTAMP PUSH1 0x15 SLOAD LT PUSH2 0xB91 JUMPI PUSH1 0x40 MLOAD PUSH3 0x461BCD PUSH1 0xE5 SHL DUP2 MSTORE PUSH1 0x20 PUSH1 0x4 DUP3 ADD MSTORE PUSH1 0x9 PUSH1 0x24 DUP3 ADD MSTORE PUSH9 0x737461727454696D65 PUSH1 0xB8 SHL PUSH1 0x44 DUP3 ADD MSTORE PUSH1 0x64 ADD PUSH2 0xF9 JUMP JUMPDEST PUSH1 0x64 PUSH2 0xB9B PUSH2 0x173A JUMP JUMPDEST PUSH2 0xBA6 SWAP1 PUSH1 0xA PUSH2 0x272D JUMP JUMPDEST PUSH2 0xBB0 SWAP2 SWAP1 PUSH2 0x2757 JUMP JUMPDEST DUP2 LT PUSH2 0xBEA JUMPI PUSH1 0x40 MLOAD PUSH3 0x461BCD PUSH1 0xE5 SHL DUP2 MSTORE PUSH1 0x20 PUSH1 0x4 DUP3 ADD MSTORE PUSH1 0x9 PUSH1 0x24 DUP3 ADD MSTORE PUSH9 0x36B0BC103A37B5B2B7 PUSH1 0xB9 SHL PUSH1 0x44 DUP3 ADD MSTORE PUSH1 0x64 ADD PUSH2 0xF9 JUMP JUMPDEST PUSH2 0x12C PUSH0 PUSH2 0x2710 PUSH2 0xBFB DUP4 DUP6 PUSH2 0x272D JUMP JUMPDEST PUSH2 0xC05 SWAP2 SWAP1 PUSH2 0x2757 JUMP JUMPDEST SWAP1 POP PUSH0 PUSH1 0x64 PUSH2 0xC15 DUP4 PUSH1 0x46 PUSH2 0x272D JUMP JUMPDEST PUSH2 0xC1F SWAP2 SWAP1 PUSH2 0x2757 JUMP JUMPDEST SWAP1 POP PUSH0 PUSH1 0x64 PUSH2 0xC2F DUP5 PUSH1 0xA PUSH2 0x272D JUMP JUMPDEST PUSH2 0xC39 SWAP2 SWAP1 PUSH2 0x2757 JUMP JUMPDEST SWAP1 POP PUSH0 DUP2 PUSH2 0xC47 DUP5 DUP7 PUSH2 0x2776 JUMP JUMPDEST PUSH2 0xC51 SWAP2 SWAP1 PUSH2 0x2776 JUMP JUMPDEST SWAP1 POP DUP3 PUSH1 0x12 PUSH0 DUP3 DUP3 SLOAD PUSH2 0xC64 SWAP2 SWAP1 PUSH2 0x2744 JUMP JUMPDEST SWAP1 SWAP2 SSTORE POP PUSH2 0xC77 SWAP1 POP DUP9 PUSH2 0xDEAD DUP5 PUSH2 0x137B JUMP JUMPDEST PUSH1 0xD SLOAD PUSH2 0xC8F SWAP1 DUP10 SWAP1 PUSH1 0x1 PUSH1 0x1 PUSH1 0xA0 SHL SUB AND DUP4 PUSH2 0x137B JUMP JUMPDEST PUSH2 0x12C DUP6 GT ISZERO PUSH2 0xCF1 JUMPI PUSH0 PUSH2 0x2710 PUSH2 0xCA9 PUSH2 0x12C DUP9 PUSH2 0x2776 JUMP JUMPDEST PUSH2 0xCB3 SWAP1 DUP10 PUSH2 0x272D JUMP JUMPDEST PUSH2 0xCBD SWAP2 SWAP1 PUSH2 0x2757 JUMP JUMPDEST SWAP1 POP PUSH2 0xCCF DUP10 ADDRESS PUSH2 0x8E4 PUSH1 0x2 DUP6 PUSH2 0x2757 JUMP JUMPDEST PUSH2 0xCDA PUSH1 0x2 DUP3 PUSH2 0x2757 JUMP JUMPDEST PUSH1 0x12 PUSH0 DUP3 DUP3 SLOAD PUSH2 0xCEA SWAP2 SWAP1 PUSH2 0x2744 JUMP JUMPDEST SWAP1 SWAP2 SSTORE POP POP POP JUMPDEST PUSH2 0xCFB DUP5 DUP8 PUSH2 0x2776 JUMP JUMPDEST SWAP6 POP PUSH2 0xD05 PUSH2 0x1972 JUMP JUMPDEST POP POP POP POP POP JUMPDEST PUSH0 PUSH1 0x1 PUSH1 0x1 PUSH1 0xA0 SHL SUB DUP4 AND ADDRESS EQ DUP1 PUSH2 0xD30 JUMPI POP PUSH1 0x6 SLOAD PUSH1 0x1 PUSH1 0x1 PUSH1 0xA0 SHL SUB DUP5 DUP2 AND SWAP2 AND EQ JUMPDEST DUP1 PUSH2 0xD48 JUMPI POP PUSH1 0x10 SLOAD PUSH1 0x1 PUSH1 0x1 PUSH1 0xA0 SHL SUB DUP5 DUP2 AND SWAP2 AND EQ JUMPDEST SWAP1 POP DUP1 PUSH2 0xDFB JUMPI PUSH1 0x1 PUSH1 0x1 PUSH1 0xA0 SHL SUB DUP5 AND ADDRESS EQ DUP1 ISZERO PUSH2 0xD74 JUMPI POP PUSH1 0x5 SLOAD PUSH1 0x1 PUSH1 0x1 PUSH1 0xA0 SHL SUB DUP5 DUP2 AND SWAP2 AND EQ JUMPDEST PUSH2 0xDFB JUMPI PUSH11 0x295BE96E64066972000000 DUP3 PUSH2 0xDA3 DUP6 PUSH1 0x1 PUSH1 0x1 PUSH1 0xA0 SHL SUB AND PUSH0 SWAP1 DUP2 MSTORE PUSH1 0x20 DUP2 SWAP1 MSTORE PUSH1 0x40 SWAP1 KECCAK256 SLOAD SWAP1 JUMP JUMPDEST PUSH2 0xDAD SWAP2 SWAP1 PUSH2 0x2744 JUMP JUMPDEST GT ISZERO PUSH2 0xDFB JUMPI PUSH1 0x40 MLOAD PUSH3 0x461BCD PUSH1 0xE5 SHL DUP2 MSTORE PUSH1 0x20 PUSH1 0x4 DUP3 ADD DUP2 SWAP1 MSTORE PUSH1 0x24 DUP3 ADD MSTORE PUSH32 0x416E74692D7768616C653A206D617820686F6C64696E67206578636565646564 PUSH1 0x44 DUP3 ADD MSTORE PUSH1 0x64 ADD PUSH2 0xF9 JUMP JUMPDEST PUSH2 0xE03 PUSH2 0x1AD5 JUMP JUMPDEST PUSH2 0xE0E DUP5 DUP5 DUP5 PUSH2 0x137B JUMP JUMPDEST POP POP POP POP JUMP JUMPDEST PUSH0 PUSH2 0xE28 DUP4 PUSH1 0x1 PUSH1 0x1 PUSH1 0xA0 SHL SUB DUP5 AND PUSH2 0x1C78 JUMP JUMPDEST SWAP1 POP JUMPDEST SWAP3 SWAP2 POP POP JUMP JUMPDEST PUSH1 0x17 SLOAD PUSH1 0x1 EQ PUSH2 0xE75 JUMPI PUSH1 0x40 MLOAD PUSH3 0x461BCD PUSH1 0xE5 SHL DUP2 MSTORE PUSH1 0x20 PUSH1 0x4 DUP3 ADD MSTORE PUSH1 0xF PUSH1 0x24 DUP3 ADD MSTORE PUSH15 0x1499595B9D1C985B98DE51DD585C99 PUSH1 0x8A SHL PUSH1 0x44 DUP3 ADD MSTORE PUSH1 0x64 ADD PUSH2 0xF9 JUMP JUMPDEST PUSH1 0x2 PUSH1 0x17 SSTORE PUSH1 0x1 PUSH1 0x1 PUSH1 0xA0 SHL SUB DUP2 AND PUSH0 SWAP1 DUP2 MSTORE PUSH1 0xA PUSH1 0x20 MSTORE PUSH1 0x40 SWAP1 KECCAK256 PUSH1 0x7 DUP2 ADD SLOAD PUSH2 0x100 SWAP1 DIV PUSH1 0xFF AND PUSH2 0xEEA JUMPI PUSH1 0x40 MLOAD PUSH3 0x461BCD PUSH1 0xE5 SHL DUP2 MSTORE PUSH1 0x20 PUSH1 0x4 DUP3 ADD MSTORE PUSH1 0x13 PUSH1 0x24 DUP3 ADD MSTORE PUSH32 0x5573657220686173206E6F7420626F7567687400000000000000000000000000 PUSH1 0x44 DUP3 ADD MSTORE PUSH1 0x64 ADD PUSH2 0xF9 JUMP JUMPDEST PUSH0 PUSH2 0xEF3 PUSH2 0x1636 JUMP JUMPDEST SWAP1 POP PUSH0 PUSH11 0x52B7D2DCC80CD2E4000000 DUP3 LT ISZERO PUSH2 0xF11 JUMPI PUSH2 0x3E8 PUSH2 0xF15 JUMP JUMPDEST PUSH2 0x640 JUMPDEST SWAP1 POP PUSH0 PUSH11 0x52B7D2DCC80CD2E4000000 DUP4 LT ISZERO PUSH2 0xF32 JUMPI PUSH1 0xC8 PUSH2 0xF35 JUMP JUMPDEST PUSH1 0x7D JUMPDEST PUSH1 0x1 PUSH1 0x1 PUSH1 0xA0 SHL SUB DUP7 AND PUSH0 SWAP1 DUP2 MSTORE PUSH1 0x1A PUSH1 0x20 MSTORE PUSH1 0x40 DUP2 KECCAK256 SLOAD SWAP2 SWAP3 POP SWAP1 PUSH1 0x3C SWAP1 PUSH2 0xF5E SWAP1 TIMESTAMP PUSH2 0x2776 JUMP JUMPDEST PUSH2 0xF68 SWAP2 SWAP1 PUSH2 0x2757 JUMP JUMPDEST SWAP1 POP PUSH0 PUSH2 0xF76 DUP4 PUSH1 0x18 PUSH2 0x272D JUMP JUMPDEST PUSH2 0xF81 SWAP1 PUSH1 0x3C PUSH2 0x272D JUMP JUMPDEST SWAP1 POP DUP1 DUP3 GT ISZERO PUSH2 0xF8F JUMPI DUP1 SWAP2 POP JUMPDEST PUSH0 PUSH5 0x139483200 DUP4 DUP7 DUP10 PUSH1 0x1 ADD SLOAD PUSH2 0xFA7 SWAP2 SWAP1 PUSH2 0x272D JUMP JUMPDEST PUSH2 0xFB1 SWAP2 SWAP1 PUSH2 0x272D JUMP JUMPDEST PUSH2 0xFBB SWAP2 SWAP1 PUSH2 0x2757 JUMP JUMPDEST PUSH1 0x1 PUSH1 0x1 PUSH1 0xA0 SHL SUB DUP10 AND PUSH0 SWAP1 DUP2 MSTORE PUSH1 0x1B PUSH1 0x20 MSTORE PUSH1 0x40 DUP2 KECCAK256 SLOAD PUSH1 0x1 DUP11 ADD SLOAD SWAP3 SWAP4 POP SWAP2 PUSH2 0xFE8 SWAP1 PUSH1 0x3 SWAP1 PUSH2 0x272D JUMP JUMPDEST SWAP1 POP DUP1 PUSH2 0xFF5 DUP5 DUP5 PUSH2 0x2744 JUMP JUMPDEST GT ISZERO PUSH2 0x1008 JUMPI PUSH2 0x1005 DUP3 DUP3 PUSH2 0x2776 JUMP JUMPDEST SWAP3 POP JUMPDEST PUSH0 DUP4 GT PUSH2 0x1057 JUMPI PUSH1 0x40 MLOAD PUSH3 0x461BCD PUSH1 0xE5 SHL DUP2 MSTORE PUSH1 0x20 PUSH1 0x4 DUP3 ADD MSTORE PUSH1 0x1A PUSH1 0x24 DUP3 ADD MSTORE PUSH32 0x4E6F207374617469632072657761726420617661696C61626C65000000000000 PUSH1 0x44 DUP3 ADD MSTORE PUSH1 0x64 ADD PUSH2 0xF9 JUMP JUMPDEST PUSH0 PUSH2 0x1063 PUSH1 0x2 DUP6 PUSH2 0x2757 JUMP JUMPDEST SWAP1 POP PUSH0 PUSH2 0x106F DUP3 PUSH2 0x1CC4 JUMP JUMPDEST SWAP1 POP PUSH0 PUSH2 0x107B DUP3 PUSH2 0x1DE5 JUMP JUMPDEST SWAP1 POP PUSH2 0x1088 ADDRESS DUP15 DUP5 PUSH2 0x137B JUMP JUMPDEST PUSH1 0x6 SLOAD PUSH1 0x40 MLOAD PUSH4 0xA9059CBB PUSH1 0xE0 SHL DUP2 MSTORE PUSH1 0x1 PUSH1 0x1 PUSH1 0xA0 SHL SUB DUP16 DUP2 AND PUSH1 0x4 DUP4 ADD MSTORE PUSH1 0x24 DUP3 ADD DUP5 SWAP1 MSTORE SWAP1 SWAP2 AND SWAP1 PUSH4 0xA9059CBB SWAP1 PUSH1 0x44 ADD PUSH1 0x20 PUSH1 0x40 MLOAD DUP1 DUP4 SUB DUP2 PUSH0 DUP8 GAS CALL ISZERO DUP1 ISZERO PUSH2 0x10D8 JUMPI RETURNDATASIZE PUSH0 PUSH0 RETURNDATACOPY RETURNDATASIZE PUSH0 REVERT JUMPDEST POP POP POP POP PUSH1 0x40 MLOAD RETURNDATASIZE PUSH1 0x1F NOT PUSH1 0x1F DUP3 ADD AND DUP3 ADD DUP1 PUSH1 0x40 MSTORE POP DUP2 ADD SWAP1 PUSH2 0x10FC SWAP2 SWAP1 PUSH2 0x27EB JUMP JUMPDEST POP PUSH1 0x1 PUSH1 0x1 PUSH1 0xA0 SHL SUB DUP14 AND PUSH0 SWAP1 DUP2 MSTORE PUSH1 0x1B PUSH1 0x20 MSTORE PUSH1 0x40 DUP2 KECCAK256 DUP1 SLOAD DUP9 SWAP3 SWAP1 PUSH2 0x1124 SWAP1 DUP5 SWAP1 PUSH2 0x2744 JUMP JUMPDEST SWAP1 SWAP2 SSTORE POP PUSH2 0x1133 SWAP1 POP DUP14 PUSH2 0x2158 JUMP JUMPDEST DUP13 PUSH1 0x1 PUSH1 0x1 PUSH1 0xA0 SHL SUB AND PUSH32 0xECDC6E126990404A0972CA032FDF15B518A92AE33E366E89BF5E503CEAB6518F DUP8 PUSH1 0x40 MLOAD PUSH2 0x116E SWAP2 DUP2 MSTORE PUSH1 0x20 ADD SWAP1 JUMP JUMPDEST PUSH1 0x40 MLOAD DUP1 SWAP2 SUB SWAP1 LOG2 POP POP PUSH1 0x1 PUSH1 0x17 SSTORE POP POP POP POP POP POP POP POP POP POP POP JUMP JUMPDEST PUSH1 0x1 PUSH1 0x1 PUSH1 0xA0 SHL SUB DUP2 AND PUSH0 SWAP1 DUP2 MSTORE PUSH1 0xA PUSH1 0x20 MSTORE PUSH1 0x40 SWAP1 KECCAK256 PUSH1 0x2 DUP2 ADD SLOAD PUSH2 0x11DA JUMPI PUSH1 0x40 MLOAD PUSH3 0x461BCD PUSH1 0xE5 SHL DUP2 MSTORE PUSH1 0x20 PUSH1 0x4 DUP3 ADD MSTORE PUSH1 0x5 PUSH1 0x24 DUP3 ADD MSTORE PUSH5 0x4E6F204C5 PUSH1 0xDC SHL PUSH1 0x44 DUP3 ADD MSTORE PUSH1 0x64 ADD PUSH2 0xF9 JUMP JUMPDEST PUSH0 PUSH2 0x11E3 PUSH2 0x1636 JUMP JUMPDEST SWAP1 POP PUSH0 PUSH11 0x52B7D2DCC80CD2E4000000 DUP3 LT ISZERO PUSH2 0x1201 JUMPI PUSH2 0x7D0 PUSH2 0x1205 JUMP JUMPDEST PUSH2 0x1388 JUMPDEST PUSH2 0xFFFF AND SWAP1 POP PUSH0 PUSH2 0x2710 DUP3 DUP6 PUSH1 0x2 ADD SLOAD PUSH2 0x121F SWAP2 SWAP1 PUSH2 0x272D JUMP JUMPDEST PUSH2 0x1229 SWAP2 SWAP1 PUSH2 0x2757 JUMP JUMPDEST SWAP1 POP PUSH0 DUP2 DUP6 PUSH1 0x2 ADD SLOAD PUSH2 0x123C SWAP2 SWAP1 PUSH2 0x2776 JUMP JUMPDEST SWAP1 POP DUP2 ISZERO PUSH2 0x12B8 JUMPI PUSH1 0x6 SLOAD PUSH1 0x40 MLOAD PUSH4 0xA9059CBB PUSH1 0xE0 SHL DUP2 MSTORE ADDRESS PUSH1 0x4 DUP3 ADD MSTORE PUSH1 0x24 DUP2 ADD DUP5 SWAP1 MSTORE PUSH1 0x1 PUSH1 0x1 PUSH1 0xA0 SHL SUB SWAP1 SWAP2 AND SWAP1 PUSH4 0xA9059CBB SWAP1 PUSH1 0x44 ADD PUSH1 0x20 PUSH1 0x40 MLOAD DUP1 DUP4 SUB DUP2 PUSH0 DUP8 GAS CALL ISZERO DUP1 ISZERO PUSH2 0x1292 JUMPI RETURNDATASIZE PUSH0 PUSH0 RETURNDATACOPY RETURNDATASIZE PUSH0 REVERT JUMPDEST POP POP POP POP PUSH1 0x40 MLOAD RETURNDATASIZE PUSH1 0x1F NOT PUSH1 0x1F DUP3 ADD AND DUP3 ADD DUP1 PUSH1 0x40 MSTORE POP DUP2 ADD SWAP1 PUSH2 0x12B6 SWAP2 SWAP1 PUSH2 0x27EB JUMP JUMPDEST POP JUMPDEST DUP1 ISZERO PUSH2 0x1334 JUMPI PUSH1 0x6 SLOAD PUSH1 0x40 MLOAD PUSH4 0xA9059CBB PUSH1 0xE0 SHL DUP2 MSTORE PUSH1 0x1 PUSH1 0x1 PUSH1 0xA0 SHL SUB DUP9 DUP2 AND PUSH1 0x4 DUP4 ADD MSTORE PUSH1 0x24 DUP3 ADD DUP5 SWAP1 MSTORE SWAP1 SWAP2 AND SWAP1 PUSH4 0xA9059CBB SWAP1 PUSH1 0x44 ADD PUSH1 0x20 PUSH1 0x40 MLOAD DUP1 DUP4 SUB DUP2 PUSH0 DUP8 GAS CALL ISZERO DUP1 ISZERO PUSH2 0x130E JUMPI RETURNDATASIZE PUSH0 PUSH0 RETURNDATACOPY RETURNDATASIZE PUSH0 REVERT JUMPDEST POP POP POP POP PUSH1 0x40 MLOAD RETURNDATASIZE PUSH1 0x1F NOT PUSH1 0x1F DUP3 ADD AND DUP3 ADD DUP1 PUSH1 0x40 MSTORE POP DUP2 ADD SWAP1 PUSH2 0x1332 SWAP2 SWAP1 PUSH2 0x27EB JUMP JUMPDEST POP JUMPDEST POP POP PUSH0 PUSH1 0x2 DUP5 ADD DUP2 SWAP1 SSTORE PUSH1 0x1 DUP5 ADD DUP2 SWAP1 SSTORE PUSH1 0x7 SWAP1 SWAP4 ADD DUP1 SLOAD PUSH2 0xFFFF NOT AND SWAP1 SSTORE POP POP PUSH1 0x1 PUSH1 0x1 PUSH1 0xA0 SHL SUB SWAP1 SWAP2 AND DUP2 MSTORE PUSH1 0x1A PUSH1 0x20 SWAP1 DUP2 MSTORE PUSH1 0x40 DUP1 DUP4 KECCAK256 DUP4 SWAP1 SSTORE PUSH1 0x1B SWAP1 SWAP2 MSTORE DUP2 KECCAK256 SSTORE JUMP JUMPDEST PUSH1 0x1 PUSH1 0x1 PUSH1 0xA0 SHL SUB DUP4 AND PUSH2 0x13A5 JUMPI DUP1 PUSH1 0x2 PUSH0 DUP3 DUP3 SLOAD PUSH2 0x139A SWAP2 SWAP1 PUSH2 0x2744 JUMP JUMPDEST SWAP1 SWAP2 SSTORE POP PUSH2 0x1415 SWAP1 POP JUMP JUMPDEST PUSH1 0x1 PUSH1 0x1 PUSH1 0xA0 SHL SUB DUP4 AND PUSH0 SWAP1 DUP2 MSTORE PUSH1 0x20 DUP2 SWAP1 MSTORE PUSH1 0x40 SWAP1 KECCAK256 SLOAD DUP2 DUP2 LT ISZERO PUSH2 0x13F7 JUMPI PUSH1 0x40 MLOAD PUSH4 0x391434E3 PUSH1 0xE2 SHL DUP2 MSTORE PUSH1 0x1 PUSH1 0x1 PUSH1 0xA0 SHL SUB DUP6 AND PUSH1 0x4 DUP3 ADD MSTORE PUSH1 0x24 DUP2 ADD DUP3 SWAP1 MSTORE PUSH1 0x44 DUP2 ADD DUP4 SWAP1 MSTORE PUSH1 0x64 ADD PUSH2 0xF9 JUMP JUMPDEST PUSH1 0x1 PUSH1 0x1 PUSH1 0xA0 SHL SUB DUP5 AND PUSH0 SWAP1 DUP2 MSTORE PUSH1 0x20 DUP2 SWAP1 MSTORE PUSH1 0x40 SWAP1 KECCAK256 SWAP1 DUP3 SWAP1 SUB SWAP1 SSTORE JUMPDEST PUSH1 0x1 PUSH1 0x1 PUSH1 0xA0 SHL SUB DUP3 AND PUSH2 0x1431 JUMPI PUSH1 0x2 DUP1 SLOAD DUP3 SWAP1 SUB SWAP1 SSTORE PUSH2 0x144F JUMP JUMPDEST PUSH1 0x1 PUSH1 0x1 PUSH1 0xA0 SHL SUB DUP3 AND PUSH0 SWAP1 DUP2 MSTORE PUSH1 0x20 DUP2 SWAP1 MSTORE PUSH1 0x40 SWAP1 KECCAK256 DUP1 SLOAD DUP3 ADD SWAP1 SSTORE JUMPDEST DUP2 PUSH1 0x1 PUSH1 0x1 PUSH1 0xA0 SHL SUB AND DUP4 PUSH1 0x1 PUSH1 0x1 PUSH1 0xA0 SHL SUB AND PUSH32 0xDDF252AD1BE2C89B69C2B068FC378DAA952BA7F163C4A11628F55A4DF523B3EF DUP4 PUSH1 0x40 MLOAD PUSH2 0x1494 SWAP2 DUP2 MSTORE PUSH1 0x20 ADD SWAP1 JUMP JUMPDEST PUSH1 0x40 MLOAD DUP1 SWAP2 SUB SWAP1 LOG3 POP POP POP JUMP JUMPDEST PUSH0 PUSH0 PUSH1 0x6 PUSH0 SWAP1 SLOAD SWAP1 PUSH2 0x100 EXP SWAP1 DIV PUSH1 0x1 PUSH1 0x1 PUSH1 0xA0 SHL SUB AND PUSH1 0x1 PUSH1 0x1 PUSH1 0xA0 SHL SUB AND PUSH4 0x902F1AC PUSH1 0x40 MLOAD DUP2 PUSH4 0xFFFFFFFF AND PUSH1 0xE0 SHL DUP2 MSTORE PUSH1 0x4 ADD PUSH1 0x60 PUSH1 0x40 MLOAD DUP1 DUP4 SUB DUP2 DUP7 GAS STATICCALL ISZERO DUP1 ISZERO PUSH2 0x14F3 JUMPI RETURNDATASIZE PUSH0 PUSH0 RETURNDATACOPY RETURNDATASIZE PUSH0 REVERT JUMPDEST POP POP POP POP PUSH1 0x40 MLOAD RETURNDATASIZE PUSH1 0x1F NOT PUSH1 0x1F DUP3 ADD AND DUP3 ADD DUP1 PUSH1 0x40 MSTORE POP DUP2 ADD SWAP1 PUSH2 0x1517 SWAP2 SWAP1 PUSH2 0x279F JUMP JUMPDEST POP POP PUSH1 0xB SLOAD PUSH1 0x6 SLOAD PUSH1 0x40 MLOAD PUSH4 0x70A08231 PUSH1 0xE0 SHL DUP2 MSTORE PUSH1 0x1 PUSH1 0x1 PUSH1 0xA0 SHL SUB SWAP2 DUP3 AND PUSH1 0x4 DUP3 ADD MSTORE PUSH1 0x1 PUSH1 0x1 PUSH1 0x70 SHL SUB SWAP4 SWAP1 SWAP4 AND SWAP4 POP PUSH0 SWAP3 SWAP2 AND SWAP1 PUSH4 0x70A08231 SWAP1 PUSH1 0x24 ADD PUSH1 0x20 PUSH1 0x40 MLOAD DUP1 DUP4 SUB DUP2 DUP7 GAS STATICCALL ISZERO DUP1 ISZERO PUSH2 0x1573 JUMPI RETURNDATASIZE PUSH0 PUSH0 RETURNDATACOPY RETURNDATASIZE PUSH0 REVERT JUMPDEST POP POP POP POP PUSH1 0x40 MLOAD RETURNDATASIZE PUSH1 0x1F NOT PUSH1 0x1F DUP3 ADD AND DUP3 ADD DUP1 PUSH1 0x40 MSTORE POP DUP2 ADD SWAP1 PUSH2 0x1597 SWAP2 SWAP1 PUSH2 0x2811 JUMP JUMPDEST SWAP1 POP DUP1 DUP3 GT ISZERO PUSH2 0x1631 JUMPI PUSH1 0x6 SLOAD PUSH1 0x40 DUP1 MLOAD PUSH4 0x18160DDD PUSH1 0xE0 SHL DUP2 MSTORE SWAP1 MLOAD PUSH0 SWAP3 PUSH1 0x1 PUSH1 0x1 PUSH1 0xA0 SHL SUB AND SWAP2 PUSH4 0x18160DDD SWAP2 PUSH1 0x4 DUP1 DUP4 ADD SWAP3 PUSH1 0x20 SWAP3 SWAP2 SWAP1 DUP3 SWAP1 SUB ADD DUP2 DUP7 GAS STATICCALL ISZERO DUP1 ISZERO PUSH2 0x15E8 JUMPI RETURNDATASIZE PUSH0 PUSH0 RETURNDATACOPY RETURNDATASIZE PUSH0 REVERT JUMPDEST POP POP POP POP PUSH1 0x40 MLOAD RETURNDATASIZE PUSH1 0x1F NOT PUSH1 0x1F DUP3 ADD AND DUP3 ADD DUP1 PUSH1 0x40 MSTORE POP DUP2 ADD SWAP1 PUSH2 0x160C SWAP2 SWAP1 PUSH2 0x2811 JUMP JUMPDEST SWAP1 POP DUP2 PUSH2 0x1619 DUP2 DUP6 PUSH2 0x2776 JUMP JUMPDEST PUSH2 0x1623 SWAP1 DUP4 PUSH2 0x272D JUMP JUMPDEST PUSH2 0x162D SWAP2 SWAP1 PUSH2 0x2757 JUMP JUMPDEST SWAP4 POP POP JUMPDEST POP POP SWAP1 JUMP JUMPDEST PUSH1 0x6 SLOAD PUSH1 0x40 DUP1 MLOAD PUSH4 0x240BC6B PUSH1 0xE2 SHL DUP2 MSTORE SWAP1 MLOAD PUSH0 SWAP3 PUSH1 0x1 PUSH1 0x1 PUSH1 0xA0 SHL SUB AND SWAP2 DUP4 SWAP2 DUP3 SWAP2 DUP5 SWAP2 PUSH4 0x902F1AC SWAP2 PUSH1 0x4 DUP1 DUP3 ADD SWAP3 PUSH1 0x60 SWAP3 SWAP1 SWAP2 SWAP1 DUP3 SWAP1 SUB ADD DUP2 DUP7 GAS STATICCALL ISZERO DUP1 ISZERO PUSH2 0x1684 JUMPI RETURNDATASIZE PUSH0 PUSH0 RETURNDATACOPY RETURNDATASIZE PUSH0 REVERT JUMPDEST POP POP POP POP PUSH1 0x40 MLOAD RETURNDATASIZE PUSH1 0x1F NOT PUSH1 0x1F DUP3 ADD AND DUP3 ADD DUP1 PUSH1 0x40 MSTORE POP DUP2 ADD SWAP1 PUSH2 0x16A8 SWAP2 SWAP1 PUSH2 0x279F JUMP JUMPDEST POP SWAP2 POP SWAP2 POP PUSH0 DUP4 PUSH1 0x1 PUSH1 0x1 PUSH1 0xA0 SHL SUB AND PUSH4 0xDFE1681 PUSH1 0x40 MLOAD DUP2 PUSH4 0xFFFFFFFF AND PUSH1 0xE0 SHL DUP2 MSTORE PUSH1 0x4 ADD PUSH1 0x20 PUSH1 0x40 MLOAD DUP1 DUP4 SUB DUP2 DUP7 GAS STATICCALL ISZERO DUP1 ISZERO PUSH2 0x16EA JUMPI RETURNDATASIZE PUSH0 PUSH0 RETURNDATACOPY RETURNDATASIZE PUSH0 REVERT JUMPDEST POP POP POP POP PUSH1 0x40 MLOAD RETURNDATASIZE PUSH1 0x1F NOT PUSH1 0x1F DUP3 ADD AND DUP3 ADD DUP1 PUSH1 0x40 MSTORE POP DUP2 ADD SWAP1 PUSH2 0x170E SWAP2 SWAP1 PUSH2 0x260F JUMP JUMPDEST SWAP1 POP PUSH1 0x1 PUSH1 0x1 PUSH1 0xA0 SHL SUB DUP2 AND ADDRESS EQ PUSH2 0x1726 JUMPI DUP2 PUSH2 0x1728 JUMP JUMPDEST DUP3 JUMPDEST PUSH1 0x1 PUSH1 0x1 PUSH1 0x70 SHL SUB AND SWAP5 POP POP POP POP POP SWAP1 JUMP JUMPDEST PUSH2 0xDEAD PUSH0 SWAP1 DUP2 MSTORE PUSH1 0x20 DUP2 SWAP1 MSTORE PUSH32 0x44AD89BA62B98FF34F51403AC22759B55759460C0BB5521EB4B6EE3CFF49CF83 SLOAD PUSH1 0x2 SLOAD PUSH2 0x1775 SWAP2 SWAP1 PUSH2 0x2776 JUMP JUMPDEST SWAP1 POP SWAP1 JUMP JUMPDEST PUSH1 0x80 MLOAD PUSH0 SWAP1 PUSH1 0x1 PUSH1 0x1 PUSH1 0xA0 SHL SUB AND CALLER SUB PUSH2 0x196D JUMPI PUSH0 PUSH0 PUSH1 0x6 PUSH0 SWAP1 SLOAD SWAP1 PUSH2 0x100 EXP SWAP1 DIV PUSH1 0x1 PUSH1 0x1 PUSH1 0xA0 SHL SUB AND PUSH1 0x1 PUSH1 0x1 PUSH1 0xA0 SHL SUB AND PUSH4 0x902F1AC PUSH1 0x40 MLOAD DUP2 PUSH4 0xFFFFFFFF AND PUSH1 0xE0 SHL DUP2 MSTORE PUSH1 0x4 ADD PUSH1 0x60 PUSH1 0x40 MLOAD DUP1 DUP4 SUB DUP2 DUP7 GAS STATICCALL ISZERO DUP1 ISZERO PUSH2 0x17E0 JUMPI RETURNDATASIZE PUSH0 PUSH0 RETURNDATACOPY RETURNDATASIZE PUSH0 REVERT JUMPDEST POP POP POP POP PUSH1 0x40 MLOAD RETURNDATASIZE PUSH1 0x1F NOT PUSH1 0x1F DUP3 ADD AND DUP3 ADD DUP1 PUSH1 0x40 MSTORE POP DUP2 ADD SWAP1 PUSH2 0x1804 SWAP2 SWAP1 PUSH2 0x279F JUMP JUMPDEST POP PUSH1 0xB SLOAD PUSH1 0x6 SLOAD PUSH1 0x40 MLOAD PUSH4 0x70A08231 PUSH1 0xE0 SHL DUP2 MSTORE PUSH1 0x1 PUSH1 0x1 PUSH1 0xA0 SHL SUB SWAP2 DUP3 AND PUSH1 0x4 DUP3 ADD MSTORE PUSH1 0x1 PUSH1 0x1 PUSH1 0x70 SHL SUB SWAP5 DUP6 AND SWAP7 POP SWAP3 SWAP1 SWAP4 AND SWAP4 POP PUSH0 SWAP3 AND SWAP1 PUSH4 0x70A08231 SWAP1 PUSH1 0x24 ADD PUSH1 0x20 PUSH1 0x40 MLOAD DUP1 DUP4 SUB DUP2 DUP7 GAS STATICCALL ISZERO DUP1 ISZERO PUSH2 0x1863 JUMPI RETURNDATASIZE PUSH0 PUSH0 RETURNDATACOPY RETURNDATASIZE PUSH0 REVERT JUMPDEST POP POP POP POP PUSH1 0x40 MLOAD RETURNDATASIZE PUSH1 0x1F NOT PUSH1 0x1F DUP3 ADD AND DUP3 ADD DUP1 PUSH1 0x40 MSTORE POP DUP2 ADD SWAP1 PUSH2 0x1887 SWAP2 SWAP1 PUSH2 0x2811 JUMP JUMPDEST SWAP1 POP DUP3 DUP2 GT ISZERO PUSH2 0x1969 JUMPI PUSH1 0x6 SLOAD PUSH1 0x40 DUP1 MLOAD PUSH4 0x18160DDD PUSH1 0xE0 SHL DUP2 MSTORE SWAP1 MLOAD PUSH0 SWAP3 PUSH1 0x1 PUSH1 0x1 PUSH1 0xA0 SHL SUB AND SWAP2 PUSH4 0x18160DDD SWAP2 PUSH1 0x4 DUP1 DUP4 ADD SWAP3 PUSH1 0x20 SWAP3 SWAP2 SWAP1 DUP3 SWAP1 SUB ADD DUP2 DUP7 GAS STATICCALL ISZERO DUP1 ISZERO PUSH2 0x18D8 JUMPI RETURNDATASIZE PUSH0 PUSH0 RETURNDATACOPY RETURNDATASIZE PUSH0 REVERT JUMPDEST POP POP POP POP PUSH1 0x40 MLOAD RETURNDATASIZE PUSH1 0x1F NOT PUSH1 0x1F DUP3 ADD AND DUP3 ADD DUP1 PUSH1 0x40 MSTORE POP DUP2 ADD SWAP1 PUSH2 0x18FC SWAP2 SWAP1 PUSH2 0x2811 JUMP JUMPDEST SWAP1 POP DUP1 PUSH0 SUB PUSH2 0x1911 JUMPI POP PUSH1 0x1 SWAP6 SWAP5 POP POP POP POP POP JUMP JUMPDEST PUSH2 0x191C DUP2 DUP4 DUP6 PUSH2 0x21A5 JUMP JUMPDEST PUSH2 0x1926 SWAP1 DUP3 PUSH2 0x2744 JUMP JUMPDEST SWAP1 POP PUSH2 0x1965 DUP5 DUP3 PUSH2 0x1937 DUP3 DUP7 PUSH2 0x2776 JUMP JUMPDEST PUSH2 0x1941 SWAP2 SWAP1 PUSH2 0x272D JUMP JUMPDEST PUSH2 0x194B SWAP2 SWAP1 PUSH2 0x2757 JUMP JUMPDEST DUP5 PUSH2 0x1956 DUP5 DUP11 PUSH2 0x272D JUMP JUMPDEST PUSH2 0x1960 SWAP2 SWAP1 PUSH2 0x2757 JUMP JUMPDEST PUSH2 0x229A JUMP JUMPDEST SWAP5 POP POP JUMPDEST POP POP POP JUMPDEST SWAP2 SWAP1 POP JUMP JUMPDEST PUSH0 PUSH1 0x13 SLOAD PUSH1 0x12 SLOAD PUSH2 0x1983 SWAP2 SWAP1 PUSH2 0x2744 JUMP JUMPDEST SWAP1 POP PUSH8 0xDE0B6B3A7640000 DUP2 LT ISZERO PUSH2 0x1998 JUMPI POP JUMP JUMPDEST PUSH2 0x19AB ADDRESS PUSH1 0x80 MLOAD DUP4 PUSH2 0x22AF PUSH1 0x20 SHL PUSH1 0x20 SHR JUMP JUMPDEST PUSH1 0x40 DUP1 MLOAD PUSH1 0x2 DUP1 DUP3 MSTORE PUSH1 0x60 DUP3 ADD DUP4 MSTORE PUSH0 SWAP3 PUSH1 0x20 DUP4 ADD SWAP1 DUP1 CALLDATASIZE DUP4 CALLDATACOPY ADD SWAP1 POP POP SWAP1 POP ADDRESS DUP2 PUSH0 DUP2 MLOAD DUP2 LT PUSH2 0x19DE JUMPI PUSH2 0x19DE PUSH2 0x2828 JUMP JUMPDEST PUSH1 0x1 PUSH1 0x1 PUSH1 0xA0 SHL SUB SWAP3 DUP4 AND PUSH1 0x20 SWAP2 DUP3 MUL SWAP3 SWAP1 SWAP3 ADD ADD MSTORE PUSH1 0xB SLOAD DUP3 MLOAD SWAP2 AND SWAP1 DUP3 SWAP1 PUSH1 0x1 SWAP1 DUP2 LT PUSH2 0x1A0F JUMPI PUSH2 0x1A0F PUSH2 0x2828 JUMP JUMPDEST PUSH1 0x1 PUSH1 0x1 PUSH1 0xA0 SHL SUB SWAP3 DUP4 AND PUSH1 0x20 SWAP2 DUP3 MUL SWAP3 SWAP1 SWAP3 ADD ADD MSTORE PUSH1 0x80 MLOAD PUSH1 0x40 MLOAD PUSH4 0x791AC947 PUSH1 0xE0 SHL DUP2 MSTORE SWAP2 AND SWAP1 PUSH4 0x791AC947 SWAP1 PUSH2 0x1A54 SWAP1 DUP6 SWAP1 PUSH0 SWAP1 DUP7 SWAP1 ADDRESS SWAP1 TIMESTAMP SWAP1 PUSH1 0x4 ADD PUSH2 0x287F JUMP JUMPDEST PUSH0 PUSH1 0x40 MLOAD DUP1 DUP4 SUB DUP2 PUSH0 DUP8 DUP1 EXTCODESIZE ISZERO DUP1 ISZERO PUSH2 0x1A6B JUMPI PUSH0 PUSH0 REVERT JUMPDEST POP GAS CALL ISZERO DUP1 ISZERO PUSH2 0x1A7D JUMPI RETURNDATASIZE PUSH0 PUSH0 RETURNDATACOPY RETURNDATASIZE PUSH0 REVERT JUMPDEST POP POP PUSH1 0xE SLOAD PUSH1 0x13 SLOAD PUSH2 0x1AB2 SWAP4 POP PUSH1 0x1 PUSH1 0x1 PUSH1 0xA0 SHL SUB SWAP1 SWAP2 AND SWAP2 POP DUP5 SWAP1 PUSH2 0x1AA3 SWAP1 SELFBALANCE PUSH2 0x272D JUMP JUMPDEST PUSH2 0x1AAD SWAP2 SWAP1 PUSH2 0x2757 JUMP JUMPDEST PUSH2 0x22BC JUMP JUMPDEST PUSH1 0xC SLOAD PUSH2 0x1AC8 SWAP1 PUSH1 0x1 PUSH1 0x1 PUSH1 0xA0 SHL SUB AND SELFBALANCE PUSH2 0x22BC JUMP JUMPDEST POP POP PUSH0 PUSH1 0x12 DUP2 SWAP1 SSTORE PUSH1 0x13 SSTORE JUMP JUMPDEST PUSH1 0x6 SLOAD PUSH1 0x40 DUP1 MLOAD PUSH4 0x240BC6B PUSH1 0xE2 SHL DUP2 MSTORE SWAP1 MLOAD PUSH1 0x1 PUSH1 0x1 PUSH1 0xA0 SHL SUB SWAP1 SWAP3 AND SWAP2 PUSH0 SWAP2 DUP3 SWAP2 DUP5 SWAP2 PUSH4 0x902F1AC SWAP2 PUSH1 0x4 DUP1 DUP4 ADD SWAP3 PUSH1 0x60 SWAP3 SWAP2 SWAP1 DUP3 SWAP1 SUB ADD DUP2 DUP7 GAS STATICCALL ISZERO DUP1 ISZERO PUSH2 0x1B22 JUMPI RETURNDATASIZE PUSH0 PUSH0 RETURNDATACOPY RETURNDATASIZE PUSH0 REVERT JUMPDEST POP POP POP POP PUSH1 0x40 MLOAD RETURNDATASIZE PUSH1 0x1F NOT PUSH1 0x1F DUP3 ADD AND DUP3 ADD DUP1 PUSH1 0x40 MSTORE POP DUP2 ADD SWAP1 PUSH2 0x1B46 SWAP2 SWAP1 PUSH2 0x279F JUMP JUMPDEST POP SWAP2 POP SWAP2 POP DUP2 PUSH1 0x1 PUSH1 0x1 PUSH1 0x70 SHL SUB AND PUSH0 EQ DUP1 PUSH2 0x1B69 JUMPI POP PUSH1 0x1 PUSH1 0x1 PUSH1 0x70 SHL SUB DUP2 AND ISZERO JUMPDEST ISZERO PUSH2 0x1B73 JUMPI POP POP POP JUMP JUMPDEST PUSH0 DUP4 PUSH1 0x1 PUSH1 0x1 PUSH1 0xA0 SHL SUB AND PUSH4 0xDFE1681 PUSH1 0x40 MLOAD DUP2 PUSH4 0xFFFFFFFF AND PUSH1 0xE0 SHL DUP2 MSTORE PUSH1 0x4 ADD PUSH1 0x20 PUSH1 0x40 MLOAD DUP1 DUP4 SUB DUP2 DUP7 GAS STATICCALL ISZERO DUP1 ISZERO PUSH2 0x1BB0 JUMPI RETURNDATASIZE PUSH0 PUSH0 RETURNDATACOPY RETURNDATASIZE PUSH0 REVERT JUMPDEST POP POP POP POP PUSH1 0x40 MLOAD RETURNDATASIZE PUSH1 0x1F NOT PUSH1 0x1F DUP3 ADD AND DUP3 ADD DUP1 PUSH1 0x40 MSTORE POP DUP2 ADD SWAP1 PUSH2 0x1BD4 SWAP2 SWAP1 PUSH2 0x260F JUMP JUMPDEST SWAP1 POP PUSH0 PUSH1 0x1 PUSH1 0x1 PUSH1 0xA0 SHL SUB DUP3 AND ADDRESS EQ PUSH2 0x1BED JUMPI DUP3 PUSH2 0x1BEF JUMP JUMPDEST DUP4 JUMPDEST PUSH1 0x11 SLOAD PUSH1 0x10 SLOAD PUSH1 0x1 PUSH1 0x1 PUSH1 0x70 SHL SUB SWAP3 SWAP1 SWAP3 AND SWAP3 POP DUP3 LT SWAP1 PUSH1 0x1 PUSH1 0xA0 SHL SWAP1 DIV PUSH1 0xFF AND ISZERO ISZERO DUP2 EQ PUSH2 0xAED JUMPI PUSH1 0x10 DUP1 SLOAD PUSH1 0xFF PUSH1 0xA0 SHL NOT AND PUSH1 0x1 PUSH1 0xA0 SHL DUP4 ISZERO ISZERO DUP2 MUL SWAP2 SWAP1 SWAP2 OR SWAP2 DUP3 SWAP1 SSTORE PUSH1 0x40 MLOAD PUSH1 0xFF SWAP2 SWAP1 SWAP3 DIV AND ISZERO ISZERO DUP2 MSTORE PUSH32 0xBBEF43C3CFDEB912E8273CCC6A33ADDFF577B417336F27D902D7A93E07EED436 SWAP1 PUSH1 0x20 ADD PUSH1 0x40 MLOAD DUP1 SWAP2 SUB SWAP1 LOG1 POP POP POP POP POP POP JUMP JUMPDEST PUSH0 DUP2 DUP2 MSTORE PUSH1 0x1 DUP4 ADD PUSH1 0x20 MSTORE PUSH1 0x40 DUP2 KECCAK256 SLOAD PUSH2 0x1CBD JUMPI POP DUP2 SLOAD PUSH1 0x1 DUP2 DUP2 ADD DUP5 SSTORE PUSH0 DUP5 DUP2 MSTORE PUSH1 0x20 DUP1 DUP3 KECCAK256 SWAP1 SWAP4 ADD DUP5 SWAP1 SSTORE DUP5 SLOAD DUP5 DUP3 MSTORE DUP3 DUP7 ADD SWAP1 SWAP4 MSTORE PUSH1 0x40 SWAP1 KECCAK256 SWAP2 SWAP1 SWAP2 SSTORE PUSH2 0xE2B JUMP JUMPDEST POP PUSH0 PUSH2 0xE2B JUMP JUMPDEST PUSH1 0x40 DUP1 MLOAD PUSH1 0x2 DUP1 DUP3 MSTORE PUSH1 0x60 DUP3 ADD DUP4 MSTORE PUSH0 SWAP3 DUP4 SWAP3 SWAP2 SWAP1 PUSH1 0x20 DUP4 ADD SWAP1 DUP1 CALLDATASIZE DUP4 CALLDATACOPY POP POP PUSH1 0xB SLOAD DUP3 MLOAD SWAP3 SWAP4 POP PUSH1 0x1 PUSH1 0x1 PUSH1 0xA0 SHL SUB AND SWAP2 DUP4 SWAP2 POP PUSH0 SWAP1 PUSH2 0x1D07 JUMPI PUSH2 0x1D07 PUSH2 0x2828 JUMP JUMPDEST PUSH1 0x20 MUL PUSH1 0x20 ADD ADD SWAP1 PUSH1 0x1 PUSH1 0x1 PUSH1 0xA0 SHL SUB AND SWAP1 DUP2 PUSH1 0x1 PUSH1 0x1 PUSH1 0xA0 SHL SUB AND DUP2 MSTORE POP POP ADDRESS DUP2 PUSH1 0x1 DUP2 MLOAD DUP2 LT PUSH2 0x1D3B JUMPI PUSH2 0x1D3B PUSH2 0x2828 JUMP JUMPDEST PUSH1 0x1 PUSH1 0x1 PUSH1 0xA0 SHL SUB SWAP3 DUP4 AND PUSH1 0x20 SWAP2 DUP3 MUL SWAP3 SWAP1 SWAP3 ADD ADD MSTORE PUSH1 0x80 MLOAD PUSH1 0x40 MLOAD PUSH4 0xD06CA61F PUSH1 0xE0 SHL DUP2 MSTORE PUSH0 SWAP3 SWAP2 SWAP1 SWAP2 AND SWAP1 PUSH4 0xD06CA61F SWAP1 PUSH2 0x1D7E SWAP1 DUP8 SWAP1 DUP7 SWAP1 PUSH1 0x4 ADD PUSH2 0x28BA JUMP JUMPDEST PUSH0 PUSH1 0x40 MLOAD DUP1 DUP4 SUB DUP2 DUP7 GAS STATICCALL ISZERO DUP1 ISZERO PUSH2 0x1D98 JUMPI RETURNDATASIZE PUSH0 PUSH0 RETURNDATACOPY RETURNDATASIZE PUSH0 REVERT JUMPDEST POP POP POP POP PUSH1 0x40 MLOAD RETURNDATASIZE PUSH0 DUP3 RETURNDATACOPY PUSH1 0x1F RETURNDATASIZE SWAP1 DUP2 ADD PUSH1 0x1F NOT AND DUP3 ADD PUSH1 0x40 MSTORE PUSH2 0x1DBF SWAP2 SWAP1 DUP2 ADD SWAP1 PUSH2 0x28DA JUMP JUMPDEST SWAP1 POP DUP1 PUSH1 0x1 DUP2 MLOAD DUP2 LT PUSH2 0x1DD4 JUMPI PUSH2 0x1DD4 PUSH2 0x2828 JUMP JUMPDEST PUSH1 0x20 MUL PUSH1 0x20 ADD ADD MLOAD SWAP3 POP POP POP SWAP2 SWAP1 POP JUMP JUMPDEST PUSH0 DUP1 PUSH2 0x1DF2 PUSH1 0x2 DUP5 PUSH2 0x2757 JUMP JUMPDEST PUSH1 0x40 DUP1 MLOAD PUSH1 0x2 DUP1 DUP3 MSTORE PUSH1 0x60 DUP3 ADD DUP4 MSTORE SWAP3 SWAP4 POP PUSH0 SWAP3 SWAP1 SWAP2 PUSH1 0x20 DUP4 ADD SWAP1 DUP1 CALLDATASIZE DUP4 CALLDATACOPY ADD SWAP1 POP POP SWAP1 POP ADDRESS DUP2 PUSH0 DUP2 MLOAD DUP2 LT PUSH2 0x1E2A JUMPI PUSH2 0x1E2A PUSH2 0x2828 JUMP JUMPDEST PUSH1 0x1 PUSH1 0x1 PUSH1 0xA0 SHL SUB SWAP3 DUP4 AND PUSH1 0x20 SWAP2 DUP3 MUL SWAP3 SWAP1 SWAP3 ADD ADD MSTORE PUSH1 0xB SLOAD DUP3 MLOAD SWAP2 AND SWAP1 DUP3 SWAP1 PUSH1 0x1 SWAP1 DUP2 LT PUSH2 0x1E5B JUMPI PUSH2 0x1E5B PUSH2 0x2828 JUMP JUMPDEST PUSH1 0x1 PUSH1 0x1 PUSH1 0xA0 SHL SUB SWAP3 DUP4 AND PUSH1 0x20 SWAP2 DUP3 MUL SWAP3 SWAP1 SWAP3 ADD ADD MSTORE PUSH1 0x6 SLOAD PUSH2 0x1E80 SWAP2 AND ADDRESS DUP7 PUSH2 0x137B JUMP JUMPDEST PUSH1 0x6 PUSH0 SWAP1 SLOAD SWAP1 PUSH2 0x100 EXP SWAP1 DIV PUSH1 0x1 PUSH1 0x1 PUSH1 0xA0 SHL SUB AND PUSH1 0x1 PUSH1 0x1 PUSH1 0xA0 SHL SUB AND PUSH4 0xFFF6CAE9 PUSH1 0x40 MLOAD DUP2 PUSH4 0xFFFFFFFF AND PUSH1 0xE0 SHL DUP2 MSTORE PUSH1 0x4 ADD PUSH0 PUSH1 0x40 MLOAD DUP1 DUP4 SUB DUP2 PUSH0 DUP8 DUP1 EXTCODESIZE ISZERO DUP1 ISZERO PUSH2 0x1ECC JUMPI PUSH0 PUSH0 REVERT JUMPDEST POP GAS CALL ISZERO DUP1 ISZERO PUSH2 0x1EDE JUMPI RETURNDATASIZE PUSH0 PUSH0 RETURNDATACOPY RETURNDATASIZE PUSH0 REVERT JUMPDEST POP POP POP POP PUSH2 0x1EF5 ADDRESS PUSH1 0x80 MLOAD DUP7 PUSH2 0x22AF PUSH1 0x20 SHL PUSH1 0x20 SHR JUMP JUMPDEST PUSH1 0x80 MLOAD PUSH1 0x10 SLOAD PUSH1 0x40 MLOAD PUSH4 0x5C11D795 PUSH1 0xE0 SHL DUP2 MSTORE PUSH1 0x1 PUSH1 0x1 PUSH1 0xA0 SHL SUB SWAP3 DUP4 AND SWAP3 PUSH4 0x5C11D795 SWAP3 PUSH2 0x1F31 SWAP3 DUP8 SWAP3 PUSH0 SWAP3 DUP9 SWAP3 SWAP2 AND SWAP1 TIMESTAMP SWAP1 PUSH1 0x4 ADD PUSH2 0x287F JUMP JUMPDEST PUSH0 PUSH1 0x40 MLOAD DUP1 DUP4 SUB DUP2 PUSH0 DUP8 DUP1 EXTCODESIZE ISZERO DUP1 ISZERO PUSH2 0x1F48 JUMPI PUSH0 PUSH0 REVERT JUMPDEST POP GAS CALL ISZERO DUP1 ISZERO PUSH2 0x1F5A JUMPI RETURNDATASIZE PUSH0 PUSH0 RETURNDATACOPY RETURNDATASIZE PUSH0 REVERT JUMPDEST POP POP PUSH1 0xB SLOAD PUSH1 0x10 SLOAD PUSH1 0x40 MLOAD PUSH4 0x70A08231 PUSH1 0xE0 SHL DUP2 MSTORE PUSH1 0x1 PUSH1 0x1 PUSH1 0xA0 SHL SUB SWAP2 DUP3 AND PUSH1 0x4 DUP3 ADD MSTORE PUSH0 SWAP5 POP SWAP2 AND SWAP2 POP PUSH4 0x70A08231 SWAP1 PUSH1 0x24 ADD PUSH1 0x20 PUSH1 0x40 MLOAD DUP1 DUP4 SUB DUP2 DUP7 GAS STATICCALL ISZERO DUP1 ISZERO PUSH2 0x1FAA JUMPI RETURNDATASIZE PUSH0 PUSH0 RETURNDATACOPY RETURNDATASIZE PUSH0 REVERT JUMPDEST POP POP POP POP PUSH1 0x40 MLOAD RETURNDATASIZE PUSH1 0x1F NOT PUSH1 0x1F DUP3 ADD AND DUP3 ADD DUP1 PUSH1 0x40 MSTORE POP DUP2 ADD SWAP1 PUSH2 0x1FCE SWAP2 SWAP1 PUSH2 0x2811 JUMP JUMPDEST PUSH1 0x10 SLOAD PUSH1 0xB SLOAD PUSH1 0x40 MLOAD PUSH4 0x92DFDB3 PUSH1 0xE1 SHL DUP2 MSTORE PUSH1 0x1 PUSH1 0x1 PUSH1 0xA0 SHL SUB SWAP2 DUP3 AND PUSH1 0x4 DUP3 ADD MSTORE ADDRESS PUSH1 0x24 DUP3 ADD MSTORE PUSH1 0x44 DUP2 ADD DUP5 SWAP1 MSTORE SWAP3 SWAP4 POP AND SWAP1 PUSH4 0x125BFB66 SWAP1 PUSH1 0x64 ADD PUSH0 PUSH1 0x40 MLOAD DUP1 DUP4 SUB DUP2 PUSH0 DUP8 DUP1 EXTCODESIZE ISZERO DUP1 ISZERO PUSH2 0x2023 JUMPI PUSH0 PUSH0 REVERT JUMPDEST POP GAS CALL ISZERO DUP1 ISZERO PUSH2 0x2035 JUMPI RETURNDATASIZE PUSH0 PUSH0 RETURNDATACOPY RETURNDATASIZE PUSH0 REVERT JUMPDEST POP POP PUSH1 0xB SLOAD PUSH1 0x80 MLOAD PUSH1 0x40 MLOAD PUSH4 0x95EA7B3 PUSH1 0xE0 SHL DUP2 MSTORE PUSH1 0x1 PUSH1 0x1 PUSH1 0xA0 SHL SUB SWAP2 DUP3 AND PUSH1 0x4 DUP3 ADD MSTORE PUSH1 0x24 DUP2 ADD DUP7 SWAP1 MSTORE SWAP2 AND SWAP3 POP PUSH4 0x95EA7B3 SWAP2 POP PUSH1 0x44 ADD PUSH1 0x20 PUSH1 0x40 MLOAD DUP1 DUP4 SUB DUP2 PUSH0 DUP8 GAS CALL ISZERO DUP1 ISZERO PUSH2 0x208B JUMPI RETURNDATASIZE PUSH0 PUSH0 RETURNDATACOPY RETURNDATASIZE PUSH0 REVERT JUMPDEST POP POP POP POP PUSH1 0x40 MLOAD RETURNDATASIZE PUSH1 0x1F NOT PUSH1 0x1F DUP3 ADD AND DUP3 ADD DUP1 PUSH1 0x40 MSTORE POP DUP2 ADD SWAP1 PUSH2 0x20AF SWAP2 SWAP1 PUSH2 0x27EB JUMP JUMPDEST POP PUSH1 0x80 MLOAD PUSH1 0xB SLOAD PUSH1 0x40 MLOAD PUSH3 0xE8E337 PUSH1 0xE8 SHL DUP2 MSTORE PUSH1 0x1 PUSH1 0x1 PUSH1 0xA0 SHL SUB SWAP2 DUP3 AND PUSH1 0x4 DUP3 ADD MSTORE ADDRESS PUSH1 0x24 DUP3 ADD DUP2 SWAP1 MSTORE PUSH1 0x44 DUP3 ADD DUP6 SWAP1 MSTORE PUSH1 0x64 DUP3 ADD DUP8 SWAP1 MSTORE PUSH0 PUSH1 0x84 DUP4 ADD DUP2 SWAP1 MSTORE PUSH1 0xA4 DUP4 ADD MSTORE PUSH1 0xC4 DUP3 ADD MSTORE TIMESTAMP PUSH1 0xE4 DUP3 ADD MSTORE SWAP2 AND SWAP1 PUSH4 0xE8E33700 SWAP1 PUSH2 0x104 ADD PUSH1 0x60 PUSH1 0x40 MLOAD DUP1 DUP4 SUB DUP2 PUSH0 DUP8 GAS CALL ISZERO DUP1 ISZERO PUSH2 0x2129 JUMPI RETURNDATASIZE PUSH0 PUSH0 RETURNDATACOPY RETURNDATASIZE PUSH0 REVERT JUMPDEST POP POP POP POP PUSH1 0x40 MLOAD RETURNDATASIZE PUSH1 0x1F NOT PUSH1 0x1F DUP3 ADD AND DUP3 ADD DUP1 PUSH1 0x40 MSTORE POP DUP2 ADD SWAP1 PUSH2 0x214D SWAP2 SWAP1 PUSH2 0x29A1 JUMP JUMPDEST SWAP8 SWAP7 POP POP POP POP POP POP POP JUMP JUMPDEST PUSH1 0x1 PUSH1 0x1 PUSH1 0xA0 SHL SUB DUP2 AND PUSH0 SWAP1 DUP2 MSTORE PUSH1 0x1C PUSH1 0x20 MSTORE PUSH1 0x40 SWAP1 KECCAK256 SLOAD DUP1 ISZERO PUSH2 0x2181 JUMPI PUSH2 0x2181 ADDRESS DUP4 DUP4 PUSH2 0x137B JUMP JUMPDEST POP PUSH1 0x1 PUSH1 0x1 PUSH1 0xA0 SHL SUB AND PUSH0 SWAP1 DUP2 MSTORE PUSH1 0x1C PUSH1 0x20 MSTORE PUSH1 0x40 SWAP1 KECCAK256 PUSH8 0xDE0B6B3A7640000 SWAP1 SSTORE JUMP JUMPDEST PUSH0 DUP1 PUSH2 0x21B9 PUSH2 0x21B4 DUP5 DUP7 PUSH2 0x272D JUMP JUMPDEST PUSH2 0x231F JUMP JUMPDEST SWAP1 POP PUSH0 PUSH2 0x2233 PUSH1 0x6 PUSH0 SWAP1 SLOAD SWAP1 PUSH2 0x100 EXP SWAP1 DIV PUSH1 0x1 PUSH1 0x1 PUSH1 0xA0 SHL SUB AND PUSH1 0x1 PUSH1 0x1 PUSH1 0xA0 SHL SUB AND PUSH4 0x7464FC3D PUSH1 0x40 MLOAD DUP2 PUSH4 0xFFFFFFFF AND PUSH1 0xE0 SHL DUP2 MSTORE PUSH1 0x4 ADD PUSH1 0x20 PUSH1 0x40 MLOAD DUP1 DUP4 SUB DUP2 DUP7 GAS STATICCALL ISZERO DUP1 ISZERO PUSH2 0x220F JUMPI RETURNDATASIZE PUSH0 PUSH0 RETURNDATACOPY RETURNDATASIZE PUSH0 REVERT JUMPDEST POP POP POP POP PUSH1 0x40 MLOAD RETURNDATASIZE PUSH1 0x1F NOT PUSH1 0x1F DUP3 ADD AND DUP3 ADD DUP1 PUSH1 0x40 MSTORE POP DUP2 ADD SWAP1 PUSH2 0x21B4 SWAP2 SWAP1 PUSH2 0x2811 JUMP JUMPDEST SWAP1 POP DUP1 DUP3 GT ISZERO PUSH2 0x2291 JUMPI PUSH0 PUSH2 0x2248 DUP3 DUP5 PUSH2 0x2776 JUMP JUMPDEST PUSH2 0x2252 SWAP1 DUP9 PUSH2 0x272D JUMP JUMPDEST PUSH2 0x225D SWAP1 PUSH1 0x8 PUSH2 0x272D JUMP JUMPDEST SWAP1 POP PUSH0 PUSH2 0x226B DUP4 PUSH1 0x8 PUSH2 0x272D JUMP JUMPDEST PUSH2 0x2276 DUP6 PUSH1 0x11 PUSH2 0x272D JUMP JUMPDEST PUSH2 0x2280 SWAP2 SWAP1 PUSH2 0x2744 JUMP JUMPDEST SWAP1 POP PUSH2 0x228C DUP2 DUP4 PUSH2 0x2757 JUMP JUMPDEST SWAP5 POP POP POP JUMPDEST POP POP SWAP4 SWAP3 POP POP POP JUMP JUMPDEST PUSH0 DUP2 DUP4 LT PUSH2 0x22A8 JUMPI DUP2 PUSH2 0xE28 JUMP JUMPDEST POP SWAP1 SWAP2 SWAP1 POP JUMP JUMPDEST PUSH2 0x6C7 DUP4 DUP4 DUP4 PUSH1 0x1 PUSH2 0x238C JUMP JUMPDEST PUSH1 0x40 DUP1 MLOAD PUSH0 DUP1 DUP3 MSTORE PUSH1 0x20 DUP3 ADD SWAP1 SWAP3 MSTORE PUSH1 0x1 PUSH1 0x1 PUSH1 0xA0 SHL SUB DUP5 AND SWAP1 DUP4 SWAP1 PUSH1 0x40 MLOAD PUSH2 0x22E5 SWAP2 SWAP1 PUSH2 0x29CC JUMP JUMPDEST PUSH0 PUSH1 0x40 MLOAD DUP1 DUP4 SUB DUP2 DUP6 DUP8 GAS CALL SWAP3 POP POP POP RETURNDATASIZE DUP1 PUSH0 DUP2 EQ PUSH2 0xAED JUMPI PUSH1 0x40 MLOAD SWAP2 POP PUSH1 0x1F NOT PUSH1 0x3F RETURNDATASIZE ADD AND DUP3 ADD PUSH1 0x40 MSTORE RETURNDATASIZE DUP3 MSTORE RETURNDATASIZE PUSH0 PUSH1 0x20 DUP5 ADD RETURNDATACOPY PUSH2 0xAED JUMP JUMPDEST PUSH0 PUSH1 0x3 DUP3 GT ISZERO PUSH2 0x237E JUMPI POP DUP1 PUSH0 PUSH2 0x2337 PUSH1 0x2 DUP4 PUSH2 0x2757 JUMP JUMPDEST PUSH2 0x2342 SWAP1 PUSH1 0x1 PUSH2 0x2744 JUMP JUMPDEST SWAP1 POP JUMPDEST DUP2 DUP2 LT ISZERO PUSH2 0x2378 JUMPI SWAP1 POP DUP1 PUSH1 0x2 DUP2 PUSH2 0x235D DUP2 DUP7 PUSH2 0x2757 JUMP JUMPDEST PUSH2 0x2367 SWAP2 SWAP1 PUSH2 0x2744 JUMP JUMPDEST PUSH2 0x2371 SWAP2 SWAP1 PUSH2 0x2757 JUMP JUMPDEST SWAP1 POP PUSH2 0x2345 JUMP JUMPDEST POP SWAP2 SWAP1 POP JUMP JUMPDEST DUP2 ISZERO PUSH2 0x196D JUMPI POP PUSH1 0x1 SWAP2 SWAP1 POP JUMP JUMPDEST PUSH1 0x1 PUSH1 0x1 PUSH1 0xA0 SHL SUB DUP5 AND PUSH2 0x23B5 JUMPI PUSH1 0x40 MLOAD PUSH4 0xE602DF05 PUSH1 0xE0 SHL DUP2 MSTORE PUSH0 PUSH1 0x4 DUP3 ADD MSTORE PUSH1 0x24 ADD PUSH2 0xF9 JUMP JUMPDEST PUSH1 0x1 PUSH1 0x1 PUSH1 0xA0 SHL SUB DUP4 AND PUSH2 0x23DE JUMPI PUSH1 0x40 MLOAD PUSH4 0x4A1406B1 PUSH1 0xE1 SHL DUP2 MSTORE PUSH0 PUSH1 0x4 DUP3 ADD MSTORE PUSH1 0x24 ADD PUSH2 0xF9 JUMP JUMPDEST PUSH1 0x1 PUSH1 0x1 PUSH1 0xA0 SHL SUB DUP1 DUP6 AND PUSH0 SWAP1 DUP2 MSTORE PUSH1 0x1 PUSH1 0x20 SWAP1 DUP2 MSTORE PUSH1 0x40 DUP1 DUP4 KECCAK256 SWAP4 DUP8 AND DUP4 MSTORE SWAP3 SWAP1 MSTORE KECCAK256 DUP3 SWAP1 SSTORE DUP1 ISZERO PUSH2 0xE0E JUMPI DUP3 PUSH1 0x1 PUSH1 0x1 PUSH1 0xA0 SHL SUB AND DUP5 PUSH1 0x1 PUSH1 0x1 PUSH1 0xA0 SHL SUB AND PUSH32 0x8C5BE1E5EBEC7D5BD14F71427D1E84F3DD0314C0F7B2291E5B200AC8C7C3B925 DUP5 PUSH1 0x40 MLOAD PUSH2 0x2450 SWAP2 DUP2 MSTORE PUSH1 0x20 ADD SWAP1 JUMP JUMPDEST PUSH1 0x40 MLOAD DUP1 SWAP2 SUB SWAP1 LOG3 POP POP POP POP JUMP JUMPDEST PUSH2 0x1B5 DUP1 PUSH2 0x6949 DUP4 CODECOPY ADD SWAP1 JUMP JUMPDEST DUP1 MLOAD PUSH1 0x1 PUSH1 0x1 PUSH1 0xA0 SHL SUB DUP2 AND DUP2 EQ PUSH2 0x196D JUMPI PUSH0 PUSH0 REVERT JUMPDEST PUSH0 PUSH0 PUSH0 PUSH1 0x60 DUP5 DUP7 SUB SLT ISZERO PUSH2 0x2493 JUMPI PUSH0 PUSH0 REVERT JUMPDEST PUSH2 0x249C DUP5 PUSH2 0x246B JUMP JUMPDEST SWAP3 POP PUSH2 0x24AA PUSH1 0x20 DUP6 ADD PUSH2 0x246B JUMP JUMPDEST SWAP2 POP PUSH2 0x24B8 PUSH1 0x40 DUP6 ADD PUSH2 0x246B JUMP JUMPDEST SWAP1 POP SWAP3 POP SWAP3 POP SWAP3 JUMP JUMPDEST PUSH4 0x4E487B71 PUSH1 0xE0 SHL PUSH0 MSTORE PUSH1 0x41 PUSH1 0x4 MSTORE PUSH1 0x24 PUSH0 REVERT JUMPDEST PUSH1 0x1 DUP2 DUP2 SHR SWAP1 DUP3 AND DUP1 PUSH2 0x24E9 JUMPI PUSH1 0x7F DUP3 AND SWAP2 POP JUMPDEST PUSH1 0x20 DUP3 LT DUP2 SUB PUSH2 0x2378 JUMPI PUSH4 0x4E487B71 PUSH1 0xE0 SHL PUSH0 MSTORE PUSH1 0x22 PUSH1 0x4 MSTORE PUSH1 0x24 PUSH0 REVERT JUMPDEST PUSH1 0x1F DUP3 GT ISZERO PUSH2 0x6C7 JUMPI DUP3 DUP3 GT ISZERO PUSH2 0x6C7 JUMPI DUP1 PUSH0 MSTORE PUSH1 0x20 PUSH0 KECCAK256 PUSH1 0x1F DUP5 ADD PUSH1 0x5 SHR PUSH1 0x20 DUP6 LT ISZERO PUSH2 0x2532 JUMPI POP PUSH0 JUMPDEST SWAP1 DUP2 ADD SWAP1 PUSH1 0x1F DUP5 ADD PUSH1 0x5 SHR SUB PUSH0 JUMPDEST DUP2 DUP2 LT ISZERO PUSH2 0xAED JUMPI PUSH0 DUP4 DUP3 ADD SSTORE PUSH1 0x1 ADD PUSH2 0x2540 JUMP JUMPDEST DUP2 MLOAD PUSH1 0x1 PUSH1 0x1 PUSH1 0x40 SHL SUB DUP2 GT ISZERO PUSH2 0x256E JUMPI PUSH2 0x256E PUSH2 0x24C1 JUMP JUMPDEST PUSH2 0x2582 DUP2 PUSH2 0x257C DUP5 SLOAD PUSH2 0x24D5 JUMP JUMPDEST DUP5 PUSH2 0x2507 JUMP JUMPDEST PUSH1 0x20 PUSH1 0x1F DUP3 GT PUSH1 0x1 DUP2 EQ PUSH2 0x25B4 JUMPI PUSH0 DUP4 ISZERO PUSH2 0x259D JUMPI POP DUP5 DUP3 ADD MLOAD JUMPDEST PUSH0 NOT PUSH1 0x3 DUP6 SWAP1 SHL SHR NOT AND PUSH1 0x1 DUP5 SWAP1 SHL OR DUP5 SSTORE PUSH2 0x8E9 JUMP JUMPDEST PUSH0 DUP5 DUP2 MSTORE PUSH1 0x20 DUP2 KECCAK256 PUSH1 0x1F NOT DUP6 AND SWAP2 JUMPDEST DUP3 DUP2 LT ISZERO PUSH2 0x25E3 JUMPI DUP8 DUP6 ADD MLOAD DUP3 SSTORE PUSH1 0x20 SWAP5 DUP6 ADD SWAP5 PUSH1 0x1 SWAP1 SWAP3 ADD SWAP2 ADD PUSH2 0x25C3 JUMP JUMPDEST POP DUP5 DUP3 LT ISZERO PUSH2 0x2600 JUMPI DUP7 DUP5 ADD MLOAD PUSH0 NOT PUSH1 0x3 DUP8 SWAP1 SHL PUSH1 0xF8 AND SHR NOT AND DUP2 SSTORE JUMPDEST POP POP POP POP PUSH1 0x1 SWAP1 DUP2 SHL ADD SWAP1 SSTORE POP JUMP JUMPDEST PUSH0 PUSH1 0x20 DUP3 DUP5 SUB SLT ISZERO PUSH2 0x261F JUMPI PUSH0 PUSH0 REVERT JUMPDEST PUSH2 0xE28 DUP3 PUSH2 0x246B JUMP JUMPDEST PUSH4 0x4E487B71 PUSH1 0xE0 SHL PUSH0 MSTORE PUSH1 0x11 PUSH1 0x4 MSTORE PUSH1 0x24 PUSH0 REVERT JUMPDEST PUSH1 0x1 DUP2 JUMPDEST PUSH1 0x1 DUP5 GT ISZERO PUSH2 0x2677 JUMPI DUP1 DUP6 DIV DUP2 GT ISZERO PUSH2 0x265B JUMPI PUSH2 0x265B PUSH2 0x2628 JUMP JUMPDEST PUSH1 0x1 DUP5 AND ISZERO PUSH2 0x2669 JUMPI SWAP1 DUP2 MUL SWAP1 JUMPDEST PUSH1 0x1 SWAP4 SWAP1 SWAP4 SHR SWAP3 DUP1 MUL PUSH2 0x2640 JUMP JUMPDEST SWAP4 POP SWAP4 SWAP2 POP POP JUMP JUMPDEST PUSH0 DUP3 PUSH2 0x268D JUMPI POP PUSH1 0x1 PUSH2 0xE2B JUMP JUMPDEST DUP2 PUSH2 0x2699 JUMPI POP PUSH0 PUSH2 0xE2B JUMP JUMPDEST DUP2 PUSH1 0x1 DUP2 EQ PUSH2 0x26AF JUMPI PUSH1 0x2 DUP2 EQ PUSH2 0x26B9 JUMPI PUSH2 0x26D5 JUMP JUMPDEST PUSH1 0x1 SWAP2 POP POP PUSH2 0xE2B JUMP JUMPDEST PUSH1 0xFF DUP5 GT ISZERO PUSH2 0x26CA JUMPI PUSH2 0x26CA PUSH2 0x2628 JUMP JUMPDEST POP POP PUSH1 0x1 DUP3 SHL PUSH2 0xE2B JUMP JUMPDEST POP PUSH1 0x20 DUP4 LT PUSH2 0x133 DUP4 LT AND PUSH1 0x4E DUP5 LT PUSH1 0xB DUP5 LT AND OR ISZERO PUSH2 0x26F8 JUMPI POP DUP2 DUP2 EXP PUSH2 0xE2B JUMP JUMPDEST PUSH2 0x2704 PUSH0 NOT DUP5 DUP5 PUSH2 0x263C JUMP JUMPDEST DUP1 PUSH0 NOT DIV DUP3 GT ISZERO PUSH2 0x2717 JUMPI PUSH2 0x2717 PUSH2 0x2628 JUMP JUMPDEST MUL SWAP4 SWAP3 POP POP POP JUMP JUMPDEST PUSH0 PUSH2 0xE28 PUSH1 0xFF DUP5 AND DUP4 PUSH2 0x267F JUMP JUMPDEST DUP1 DUP3 MUL DUP2 ISZERO DUP3 DUP3 DIV DUP5 EQ OR PUSH2 0xE2B JUMPI PUSH2 0xE2B PUSH2 0x2628 JUMP JUMPDEST DUP1 DUP3 ADD DUP1 DUP3 GT ISZERO PUSH2 0xE2B JUMPI PUSH2 0xE2B PUSH2 0x2628 JUMP JUMPDEST PUSH0 DUP3 PUSH2 0x2771 JUMPI PUSH4 0x4E487B71 PUSH1 0xE0 SHL PUSH0 MSTORE PUSH1 0x12 PUSH1 0x4 MSTORE PUSH1 0x24 PUSH0 REVERT JUMPDEST POP DIV SWAP1 JUMP JUMPDEST DUP2 DUP2 SUB DUP2 DUP2 GT ISZERO PUSH2 0xE2B JUMPI PUSH2 0xE2B PUSH2 0x2628 JUMP JUMPDEST DUP1 MLOAD PUSH1 0x1 PUSH1 0x1 PUSH1 0x70 SHL SUB DUP2 AND DUP2 EQ PUSH2 0x196D JUMPI PUSH0 PUSH0 REVERT JUMPDEST PUSH0 PUSH0 PUSH0 PUSH1 0x60 DUP5 DUP7 SUB SLT ISZERO PUSH2 0x27B1 JUMPI PUSH0 PUSH0 REVERT JUMPDEST PUSH2 0x27BA DUP5 PUSH2 0x2789 JUMP JUMPDEST SWAP3 POP PUSH2 0x27C8 PUSH1 0x20 DUP6 ADD PUSH2 0x2789 JUMP JUMPDEST SWAP2 POP PUSH1 0x40 DUP5 ADD MLOAD PUSH4 0xFFFFFFFF DUP2 AND DUP2 EQ PUSH2 0x27E0 JUMPI PUSH0 PUSH0 REVERT JUMPDEST DUP1 SWAP2 POP POP SWAP3 POP SWAP3 POP SWAP3 JUMP JUMPDEST PUSH0 PUSH1 0x20 DUP3 DUP5 SUB SLT ISZERO PUSH2 0x27FB JUMPI PUSH0 PUSH0 REVERT JUMPDEST DUP2 MLOAD DUP1 ISZERO ISZERO DUP2 EQ PUSH2 0x280A JUMPI PUSH0 PUSH0 REVERT JUMPDEST SWAP4 SWAP3 POP POP POP JUMP JUMPDEST PUSH0 PUSH1 0x20 DUP3 DUP5 SUB SLT ISZERO PUSH2 0x2821 JUMPI PUSH0 PUSH0 REVERT JUMPDEST POP MLOAD SWAP2 SWAP1 POP JUMP JUMPDEST PUSH4 0x4E487B71 PUSH1 0xE0 SHL PUSH0 MSTORE PUSH1 0x32 PUSH1 0x4 MSTORE PUSH1 0x24 PUSH0 REVERT JUMPDEST PUSH0 DUP2 MLOAD DUP1 DUP5 MSTORE PUSH1 0x20 DUP5 ADD SWAP4 POP PUSH1 0x20 DUP4 ADD PUSH0 JUMPDEST DUP3 DUP2 LT ISZERO PUSH2 0x2875 JUMPI DUP2 MLOAD PUSH1 0x1 PUSH1 0x1 PUSH1 0xA0 SHL SUB AND DUP7 MSTORE PUSH1 0x20 SWAP6 DUP7 ADD SWAP6 SWAP1 SWAP2 ADD SWAP1 PUSH1 0x1 ADD PUSH2 0x284E JUMP JUMPDEST POP SWAP4 SWAP5 SWAP4 POP POP POP POP JUMP JUMPDEST DUP6 DUP2 MSTORE DUP5 PUSH1 0x20 DUP3 ADD MSTORE PUSH1 0xA0 PUSH1 0x40 DUP3 ADD MSTORE PUSH0 PUSH2 0x289D PUSH1 0xA0 DUP4 ADD DUP7 PUSH2 0x283C JUMP JUMPDEST PUSH1 0x1 PUSH1 0x1 PUSH1 0xA0 SHL SUB SWAP5 SWAP1 SWAP5 AND PUSH1 0x60 DUP4 ADD MSTORE POP PUSH1 0x80 ADD MSTORE SWAP4 SWAP3 POP POP POP JUMP JUMPDEST DUP3 DUP2 MSTORE PUSH1 0x40 PUSH1 0x20 DUP3 ADD MSTORE PUSH0 PUSH2 0x28D2 PUSH1 0x40 DUP4 ADD DUP5 PUSH2 0x283C JUMP JUMPDEST SWAP5 SWAP4 POP POP POP POP JUMP JUMPDEST PUSH0 PUSH1 0x20 DUP3 DUP5 SUB SLT ISZERO PUSH2 0x28EA JUMPI PUSH0 PUSH0 REVERT JUMPDEST DUP2 MLOAD PUSH1 0x1 PUSH1 0x1 PUSH1 0x40 SHL SUB DUP2 GT ISZERO PUSH2 0x28FF JUMPI PUSH0 PUSH0 REVERT JUMPDEST DUP3 ADD PUSH1 0x1F DUP2 ADD DUP5 SGT PUSH2 0x290F JUMPI PUSH0 PUSH0 REVERT JUMPDEST DUP1 MLOAD PUSH1 0x1 PUSH1 0x1 PUSH1 0x40 SHL SUB DUP2 GT ISZERO PUSH2 0x2928 JUMPI PUSH2 0x2928 PUSH2 0x24C1 JUMP JUMPDEST PUSH1 0x40 MLOAD PUSH1 0x5 DUP3 SWAP1 SHL SWAP1 PUSH1 0x3F DUP3 ADD PUSH1 0x1F NOT AND DUP2 ADD PUSH1 0x1 PUSH1 0x1 PUSH1 0x40 SHL SUB DUP2 GT DUP3 DUP3 LT OR ISZERO PUSH2 0x2956 JUMPI PUSH2 0x2956 PUSH2 0x24C1 JUMP JUMPDEST PUSH1 0x40 MSTORE SWAP2 DUP3 MSTORE PUSH1 0x20 DUP2 DUP5 ADD DUP2 ADD SWAP3 SWAP1 DUP2 ADD DUP8 DUP5 GT ISZERO PUSH2 0x2973 JUMPI PUSH0 PUSH0 REVERT JUMPDEST PUSH1 0x20 DUP6 ADD SWAP5 POP JUMPDEST DUP4 DUP6 LT ISZERO PUSH2 0x2996 JUMPI DUP5 MLOAD DUP1 DUP3 MSTORE PUSH1 0x20 SWAP6 DUP7 ADD SWAP6 SWAP1 SWAP4 POP ADD PUSH2 0x297A JUMP JUMPDEST POP SWAP7 SWAP6 POP POP POP POP POP POP JUMP JUMPDEST PUSH0 PUSH0 PUSH0 PUSH1 0x60 DUP5 DUP7 SUB SLT ISZERO PUSH2 0x29B3 JUMPI PUSH0 PUSH0 REVERT JUMPDEST POP POP DUP2 MLOAD PUSH1 0x20 DUP4 ADD MLOAD PUSH1 0x40 SWAP1 SWAP4 ADD MLOAD SWAP1 SWAP5 SWAP3 SWAP4 POP SWAP2 SWAP1 POP JUMP JUMPDEST PUSH0 DUP3 MLOAD DUP1 PUSH1 0x20 DUP6 ADD DUP5 MCOPY PUSH0 SWAP3 ADD SWAP2 DUP3 MSTORE POP SWAP2 SWAP1 POP JUMP JUMPDEST PUSH1 0x80 MLOAD PUSH2 0x3F02 PUSH2 0x2A47 PUSH0 CODECOPY PUSH0 DUP2 DUP2 PUSH2 0x93C ADD MSTORE DUP2 DUP2 PUSH2 0xEFD ADD MSTORE DUP2 DUP2 PUSH2 0xFAD ADD MSTORE DUP2 DUP2 PUSH2 0x1008 ADD MSTORE DUP2 DUP2 PUSH2 0x2F5E ADD MSTORE DUP2 DUP2 PUSH2 0x3194 ADD MSTORE DUP2 DUP2 PUSH2 0x3242 ADD MSTORE DUP2 DUP2 PUSH2 0x33EC ADD MSTORE DUP2 DUP2 PUSH2 0x358D ADD MSTORE DUP2 DUP2 PUSH2 0x35CC ADD MSTORE DUP2 DUP2 PUSH2 0x372D ADD MSTORE PUSH2 0x37F9 ADD MSTORE PUSH2 0x3F02 PUSH0 RETURN INVALID PUSH1 0x80 PUSH1 0x40 MSTORE PUSH1 0x4 CALLDATASIZE LT PUSH2 0x369 JUMPI PUSH0 CALLDATALOAD PUSH1 0xE0 SHR DUP1 PUSH4 0x78E97925 GT PUSH2 0x1C8 JUMPI DUP1 PUSH4 0xC2AE0F7A GT PUSH2 0xFD JUMPI DUP1 PUSH4 0xDBB4EF03 GT PUSH2 0x9D JUMPI DUP1 PUSH4 0xE8E8FE04 GT PUSH2 0x6D JUMPI DUP1 PUSH4 0xE8E8FE04 EQ PUSH2 0xD58 JUMPI DUP1 PUSH4 0xF2FDE38B EQ PUSH2 0xD77 JUMPI DUP1 PUSH4 0xF56E9C66 EQ PUSH2 0xD96 JUMPI DUP1 PUSH4 0xFD36E3C6 EQ PUSH2 0xDB5 JUMPI PUSH0 PUSH0 REVERT JUMPDEST DUP1 PUSH4 0xDBB4EF03 EQ PUSH2 0xCCE JUMPI DUP1 PUSH4 0xDD62ED3E EQ PUSH2 0xCE0 JUMPI DUP1 PUSH4 0xDDBCB5FA EQ PUSH2 0xD24 JUMPI DUP1 PUSH4 0xE82BEF29 EQ PUSH2 0xD39 JUMPI PUSH0 PUSH0 REVERT JUMPDEST DUP1 PUSH4 0xD108E2A6 GT PUSH2 0xD8 JUMPI DUP1 PUSH4 0xD108E2A6 EQ PUSH2 0xC47 JUMPI DUP1 PUSH4 0xD1227343 EQ PUSH2 0xC65 JUMPI DUP1 PUSH4 0xD3EFF2F1 EQ PUSH2 0xC84 JUMPI DUP1 PUSH4 0xD5AED6BF EQ PUSH2 0xCAF JUMPI PUSH0 PUSH0 REVERT JUMPDEST DUP1 PUSH4 0xC2AE0F7A EQ PUSH2 0xBF3 JUMPI DUP1 PUSH4 0xC82C3CBF EQ PUSH2 0xC1E JUMPI DUP1 PUSH4 0xCCA3C5FF EQ PUSH2 0xC32 JUMPI PUSH0 PUSH0 REVERT JUMPDEST DUP1 PUSH4 0x95D89B41 GT PUSH2 0x168 JUMPI DUP1 PUSH4 0xA87430BA GT PUSH2 0x143 JUMPI DUP1 PUSH4 0xA87430BA EQ PUSH2 0xAE7 JUMPI DUP1 PUSH4 0xA9059CBB EQ PUSH2 0xBAB JUMPI DUP1 PUSH4 0xB4A2E463 EQ PUSH2 0xBCA JUMPI DUP1 PUSH4 0xBF151CB8 EQ PUSH2 0xBDF JUMPI PUSH0 PUSH0 REVERT JUMPDEST DUP1 PUSH4 0x95D89B41 EQ PUSH2 0xA93 JUMPI DUP1 PUSH4 0x9C89ECBB EQ PUSH2 0xAA7 JUMPI DUP1 PUSH4 0xA52EE3AF EQ PUSH2 0xABC JUMPI PUSH0 PUSH0 REVERT JUMPDEST DUP1 PUSH4 0x8D1057DC GT PUSH2 0x1A3 JUMPI DUP1 PUSH4 0x8D1057DC EQ PUSH2 0xA18 JUMPI DUP1 PUSH4 0x8DA5CB5B EQ PUSH2 0xA2C JUMPI DUP1 PUSH4 0x8DD95002 EQ PUSH2 0xA49 JUMPI DUP1 PUSH4 0x942C9DD1 EQ PUSH2 0xA68 JUMPI PUSH0 PUSH0 REVERT JUMPDEST DUP1 PUSH4 0x78E97925 EQ PUSH2 0x9DA JUMPI DUP1 PUSH4 0x7D263245 EQ PUSH2 0x9EF JUMPI DUP1 PUSH4 0x7F054455 EQ PUSH2 0xA03 JUMPI PUSH0 PUSH0 REVERT JUMPDEST DUP1 PUSH4 0x29B80536 GT PUSH2 0x29E JUMPI DUP1 PUSH4 0x47AB459C GT PUSH2 0x23E JUMPI DUP1 PUSH4 0x583E0568 GT PUSH2 0x219 JUMPI DUP1 PUSH4 0x583E0568 EQ PUSH2 0x92B JUMPI DUP1 PUSH4 0x6D476A77 EQ PUSH2 0x95E JUMPI DUP1 PUSH4 0x70A08231 EQ PUSH2 0x992 JUMPI DUP1 PUSH4 0x715018A6 EQ PUSH2 0x9C6 JUMPI PUSH0 PUSH0 REVERT JUMPDEST DUP1 PUSH4 0x47AB459C EQ PUSH2 0x8D9 JUMPI DUP1 PUSH4 0x47CCCA02 EQ PUSH2 0x8ED JUMPI DUP1 PUSH4 0x4BF28FD0 EQ PUSH2 0x90C JUMPI PUSH0 PUSH0 REVERT JUMPDEST DUP1 PUSH4 0x3E0A322D GT PUSH2 0x279 JUMPI DUP1 PUSH4 0x3E0A322D EQ PUSH2 0x842 JUMPI DUP1 PUSH4 0x3FECC2E2 EQ PUSH2 0x863 JUMPI DUP1 PUSH4 0x41275358 EQ PUSH2 0x88E JUMPI DUP1 PUSH4 0x440B30E7 EQ PUSH2 0x8AD JUMPI PUSH0 PUSH0 REVERT JUMPDEST DUP1 PUSH4 0x29B80536 EQ PUSH2 0x7EA JUMPI DUP1 PUSH4 0x313CE567 EQ PUSH2 0x808 JUMPI DUP1 PUSH4 0x3D471D57 EQ PUSH2 0x823 JUMPI PUSH0 PUSH0 REVERT JUMPDEST DUP1 PUSH4 0x1C53C280 GT PUSH2 0x309 JUMPI DUP1 PUSH4 0x228C3845 GT PUSH2 0x2E4 JUMPI DUP1 PUSH4 0x228C3845 EQ PUSH2 0x76B JUMPI DUP1 PUSH4 0x23B872DD EQ PUSH2 0x780 JUMPI DUP1 PUSH4 0x2529D1A3 EQ PUSH2 0x79F JUMPI DUP1 PUSH4 0x281F0B89 EQ PUSH2 0x7BF JUMPI PUSH0 PUSH0 REVERT JUMPDEST DUP1 PUSH4 0x1C53C280 EQ PUSH2 0x738 JUMPI DUP1 PUSH4 0x212251A6 EQ PUSH2 0x724 JUMPI DUP1 PUSH4 0x2225D3C4 EQ PUSH2 0x757 JUMPI PUSH0 PUSH0 REVERT JUMPDEST DUP1 PUSH4 0x16F0115B GT PUSH2 0x344 JUMPI DUP1 PUSH4 0x16F0115B EQ PUSH2 0x6AE JUMPI DUP1 PUSH4 0x17D63605 EQ PUSH2 0x6E5 JUMPI DUP1 PUSH4 0x18160DDD EQ PUSH2 0x710 JUMPI DUP1 PUSH4 0x1A8C1022 EQ PUSH2 0x724 JUMPI PUSH0 PUSH0 REVERT JUMPDEST DUP1 PUSH4 0x6FDDE03 EQ PUSH2 0x633 JUMPI DUP1 PUSH4 0x95EA7B3 EQ PUSH2 0x65D JUMPI DUP1 PUSH4 0x9D46746 EQ PUSH2 0x68C JUMPI PUSH0 PUSH0 REVERT JUMPDEST CALLDATASIZE PUSH2 0x62F JUMPI PUSH1 0x17 SLOAD PUSH1 0x1 EQ PUSH2 0x3B7 JUMPI PUSH1 0x40 MLOAD PUSH3 0x461BCD PUSH1 0xE5 SHL DUP2 MSTORE PUSH1 0x20 PUSH1 0x4 DUP3 ADD MSTORE PUSH1 0xF PUSH1 0x24 DUP3 ADD MSTORE PUSH15 0x1499595B9D1C985B98DE51DD585C99 PUSH1 0x8A SHL PUSH1 0x44 DUP3 ADD MSTORE PUSH1 0x64 ADD JUMPDEST PUSH1 0x40 MLOAD DUP1 SWAP2 SUB SWAP1 REVERT JUMPDEST PUSH1 0x2 PUSH1 0x17 SSTORE CALLER PUSH0 DUP2 DUP2 MSTORE PUSH1 0xA PUSH1 0x20 MSTORE PUSH1 0x40 SWAP1 KECCAK256 SLOAD PUSH1 0x1 PUSH1 0x1 PUSH1 0xA0 SHL SUB AND SWAP1 CALLVALUE SWAP1 ORIGIN SWAP1 SUB PUSH2 0x623 JUMPI PUSH1 0x14 SLOAD DUP2 LT ISZERO DUP1 ISZERO PUSH2 0x40C JUMPI POP PUSH1 0x1 PUSH1 0x1 PUSH1 0xA0 SHL SUB DUP3 AND ISZERO ISZERO DUP1 PUSH2 0x40C JUMPI POP PUSH1 0x16 SLOAD PUSH1 0x1 PUSH1 0x1 PUSH1 0xA0 SHL SUB AND CALLER EQ JUMPDEST ISZERO PUSH2 0x60A JUMPI CALLER PUSH0 SWAP1 DUP2 MSTORE PUSH1 0xA PUSH1 0x20 MSTORE PUSH1 0x40 SWAP1 KECCAK256 PUSH1 0x7 ADD SLOAD PUSH2 0x100 SWAP1 DIV PUSH1 0xFF AND PUSH2 0x4C9 JUMPI CALLER PUSH0 SWAP1 DUP2 MSTORE PUSH1 0xA PUSH1 0x20 MSTORE PUSH1 0x40 SWAP1 KECCAK256 PUSH1 0x7 ADD DUP1 SLOAD PUSH2 0xFF00 NOT AND PUSH2 0x100 OR SWAP1 SSTORE PUSH1 0x1 PUSH1 0x1 PUSH1 0xA0 SHL SUB DUP3 AND ISZERO PUSH2 0x4C9 JUMPI PUSH1 0x1 PUSH1 0x1 PUSH1 0xA0 SHL SUB DUP3 AND PUSH0 SWAP1 DUP2 MSTORE PUSH1 0xA PUSH1 0x20 MSTORE PUSH1 0x40 DUP2 KECCAK256 PUSH1 0x6 ADD DUP1 SLOAD PUSH1 0x1 SWAP3 SWAP1 PUSH2 0x487 SWAP1 DUP5 SWAP1 PUSH2 0x3A3E JUMP JUMPDEST SWAP1 SWAP2 SSTORE POP POP PUSH8 0x2C68AF0BB140000 DUP2 LT PUSH2 0x4C9 JUMPI PUSH1 0x1 PUSH1 0x1 PUSH1 0xA0 SHL SUB DUP3 AND PUSH0 SWAP1 DUP2 MSTORE PUSH1 0x1D PUSH1 0x20 MSTORE PUSH1 0x40 DUP2 KECCAK256 DUP1 SLOAD PUSH1 0x1 SWAP3 SWAP1 PUSH2 0x4C3 SWAP1 DUP5 SWAP1 PUSH2 0x3A3E JUMP JUMPDEST SWAP1 SWAP2 SSTORE POP POP JUMPDEST PUSH0 PUSH1 0x64 PUSH2 0x4D7 DUP4 PUSH1 0x3 PUSH2 0x3A51 JUMP JUMPDEST PUSH2 0x4E1 SWAP2 SWAP1 PUSH2 0x3A68 JUMP JUMPDEST SWAP1 POP PUSH0 PUSH1 0x64 PUSH2 0x4F1 DUP5 PUSH1 0x7 PUSH2 0x3A51 JUMP JUMPDEST PUSH2 0x4FB SWAP2 SWAP1 PUSH2 0x3A68 JUMP JUMPDEST SWAP1 POP PUSH0 PUSH1 0x64 PUSH2 0x50B DUP6 PUSH1 0x5A PUSH2 0x3A51 JUMP JUMPDEST PUSH2 0x515 SWAP2 SWAP1 PUSH2 0x3A68 JUMP JUMPDEST SWAP1 POP DUP3 ISZERO PUSH2 0x533 JUMPI PUSH1 0xC SLOAD PUSH2 0x533 SWAP1 PUSH1 0x1 PUSH1 0x1 PUSH1 0xA0 SHL SUB AND DUP5 PUSH2 0xDEE JUMP JUMPDEST DUP2 ISZERO PUSH2 0x54F JUMPI PUSH1 0xD SLOAD PUSH2 0x54F SWAP1 PUSH1 0x1 PUSH1 0x1 PUSH1 0xA0 SHL SUB AND DUP4 PUSH2 0xDEE JUMP JUMPDEST PUSH0 PUSH2 0x563 PUSH2 0x55E PUSH1 0x2 DUP5 PUSH2 0x3A68 JUMP JUMPDEST PUSH2 0xE5E JUMP JUMPDEST CALLER PUSH0 SWAP1 DUP2 MSTORE PUSH1 0xA PUSH1 0x20 MSTORE PUSH1 0x40 DUP2 KECCAK256 PUSH1 0x1 ADD DUP1 SLOAD SWAP3 SWAP4 POP DUP8 SWAP3 SWAP1 SWAP2 SWAP1 PUSH2 0x589 SWAP1 DUP5 SWAP1 PUSH2 0x3A3E JUMP JUMPDEST SWAP1 SWAP2 SSTORE POP POP CALLER PUSH0 SWAP1 DUP2 MSTORE PUSH1 0xA PUSH1 0x20 MSTORE PUSH1 0x40 DUP2 KECCAK256 PUSH1 0x2 ADD DUP1 SLOAD DUP4 SWAP3 SWAP1 PUSH2 0x5AF SWAP1 DUP5 SWAP1 PUSH2 0x3A3E JUMP JUMPDEST SWAP1 SWAP2 SSTORE POP POP CALLER PUSH0 DUP2 DUP2 MSTORE PUSH1 0x1A PUSH1 0x20 MSTORE PUSH1 0x40 SWAP1 DUP2 SWAP1 KECCAK256 TIMESTAMP SWAP1 SSTORE MLOAD PUSH32 0x5F41F00E6C90DEA5837402EFBF3E658A1F1DF8DB3B19624B133BC1DF0444F7EA SWAP1 PUSH2 0x5F7 SWAP1 DUP9 DUP2 MSTORE PUSH1 0x20 ADD SWAP1 JUMP JUMPDEST PUSH1 0x40 MLOAD DUP1 SWAP2 SUB SWAP1 LOG2 POP POP POP POP POP POP PUSH2 0x626 JUMP JUMPDEST PUSH1 0x40 MLOAD PUSH4 0x236C6E5B PUSH1 0xE0 SHL DUP2 MSTORE PUSH1 0x4 ADD PUSH1 0x40 MLOAD DUP1 SWAP2 SUB SWAP1 REVERT JUMPDEST POP POP JUMPDEST PUSH1 0x1 PUSH1 0x17 DUP2 SWAP1 SSTORE STOP JUMPDEST PUSH0 PUSH0 REVERT JUMPDEST CALLVALUE DUP1 ISZERO PUSH2 0x63E JUMPI PUSH0 PUSH0 REVERT JUMPDEST POP PUSH2 0x647 PUSH2 0x1087 JUMP JUMPDEST PUSH1 0x40 MLOAD PUSH2 0x654 SWAP2 SWAP1 PUSH2 0x3A87 JUMP JUMPDEST PUSH1 0x40 MLOAD DUP1 SWAP2 SUB SWAP1 RETURN JUMPDEST CALLVALUE DUP1 ISZERO PUSH2 0x668 JUMPI PUSH0 PUSH0 REVERT JUMPDEST POP PUSH2 0x67C PUSH2 0x677 CALLDATASIZE PUSH1 0x4 PUSH2 0x3AD0 JUMP JUMPDEST PUSH2 0x1117 JUMP JUMPDEST PUSH1 0x40 MLOAD SWAP1 ISZERO ISZERO DUP2 MSTORE PUSH1 0x20 ADD PUSH2 0x654 JUMP JUMPDEST CALLVALUE DUP1 ISZERO PUSH2 0x697 JUMPI PUSH0 PUSH0 REVERT JUMPDEST POP PUSH2 0x6A0 PUSH2 0x1130 JUMP JUMPDEST PUSH1 0x40 MLOAD SWAP1 DUP2 MSTORE PUSH1 0x20 ADD PUSH2 0x654 JUMP JUMPDEST CALLVALUE DUP1 ISZERO PUSH2 0x6B9 JUMPI PUSH0 PUSH0 REVERT JUMPDEST POP PUSH1 0x10 SLOAD PUSH2 0x6CD SWAP1 PUSH1 0x1 PUSH1 0x1 PUSH1 0xA0 SHL SUB AND DUP2 JUMP JUMPDEST PUSH1 0x40 MLOAD PUSH1 0x1 PUSH1 0x1 PUSH1 0xA0 SHL SUB SWAP1 SWAP2 AND DUP2 MSTORE PUSH1 0x20 ADD PUSH2 0x654 JUMP JUMPDEST CALLVALUE DUP1 ISZERO PUSH2 0x6F0 JUMPI PUSH0 PUSH0 REVERT JUMPDEST POP PUSH2 0x6A0 PUSH2 0x6FF CALLDATASIZE PUSH1 0x4 PUSH2 0x3AFA JUMP JUMPDEST PUSH1 0x19 PUSH1 0x20 MSTORE PUSH0 SWAP1 DUP2 MSTORE PUSH1 0x40 SWAP1 KECCAK256 SLOAD DUP2 JUMP JUMPDEST CALLVALUE DUP1 ISZERO PUSH2 0x71B JUMPI PUSH0 PUSH0 REVERT JUMPDEST POP PUSH1 0x2 SLOAD PUSH2 0x6A0 JUMP JUMPDEST CALLVALUE DUP1 ISZERO PUSH2 0x72F JUMPI PUSH0 PUSH0 REVERT JUMPDEST POP PUSH2 0x6A0 PUSH1 0x3 DUP2 JUMP JUMPDEST CALLVALUE DUP1 ISZERO PUSH2 0x743 JUMPI PUSH0 PUSH0 REVERT JUMPDEST POP PUSH2 0x6CD PUSH2 0x752 CALLDATASIZE PUSH1 0x4 PUSH2 0x3B15 JUMP JUMPDEST PUSH2 0x1234 JUMP JUMPDEST CALLVALUE DUP1 ISZERO PUSH2 0x762 JUMPI PUSH0 PUSH0 REVERT JUMPDEST POP PUSH2 0x6A0 PUSH1 0x7D DUP2 JUMP JUMPDEST CALLVALUE DUP1 ISZERO PUSH2 0x776 JUMPI PUSH0 PUSH0 REVERT JUMPDEST POP PUSH2 0x6A0 PUSH2 0x3E8 DUP2 JUMP JUMPDEST CALLVALUE DUP1 ISZERO PUSH2 0x78B JUMPI PUSH0 PUSH0 REVERT JUMPDEST POP PUSH2 0x67C PUSH2 0x79A CALLDATASIZE PUSH1 0x4 PUSH2 0x3B2C JUMP JUMPDEST PUSH2 0x125C JUMP JUMPDEST CALLVALUE DUP1 ISZERO PUSH2 0x7AA JUMPI PUSH0 PUSH0 REVERT JUMPDEST POP PUSH1 0x10 SLOAD PUSH2 0x67C SWAP1 PUSH1 0x1 PUSH1 0xA0 SHL SWAP1 DIV PUSH1 0xFF AND DUP2 JUMP JUMPDEST CALLVALUE DUP1 ISZERO PUSH2 0x7CA JUMPI PUSH0 PUSH0 REVERT JUMPDEST POP PUSH2 0x6A0 PUSH2 0x7D9 CALLDATASIZE PUSH1 0x4 PUSH2 0x3AFA JUMP JUMPDEST PUSH1 0x1C PUSH1 0x20 MSTORE PUSH0 SWAP1 DUP2 MSTORE PUSH1 0x40 SWAP1 KECCAK256 SLOAD DUP2 JUMP JUMPDEST CALLVALUE DUP1 ISZERO PUSH2 0x7F5 JUMPI PUSH0 PUSH0 REVERT JUMPDEST POP PUSH2 0x6A0 PUSH11 0x52B7D2DCC80CD2E4000000 DUP2 JUMP JUMPDEST CALLVALUE DUP1 ISZERO PUSH2 0x813 JUMPI PUSH0 PUSH0 REVERT JUMPDEST POP PUSH1 0x40 MLOAD PUSH1 0x12 DUP2 MSTORE PUSH1 0x20 ADD PUSH2 0x654 JUMP JUMPDEST CALLVALUE DUP1 ISZERO PUSH2 0x82E JUMPI PUSH0 PUSH0 REVERT JUMPDEST POP PUSH2 0x6A0 PUSH2 0x83D CALLDATASIZE PUSH1 0x4 PUSH2 0x3B15 JUMP JUMPDEST PUSH2 0x127F JUMP JUMPDEST CALLVALUE DUP1 ISZERO PUSH2 0x84D JUMPI PUSH0 PUSH0 REVERT JUMPDEST POP PUSH2 0x861 PUSH2 0x85C CALLDATASIZE PUSH1 0x4 PUSH2 0x3B15 JUMP JUMPDEST PUSH2 0x1306 JUMP JUMPDEST STOP JUMPDEST CALLVALUE DUP1 ISZERO PUSH2 0x86E JUMPI PUSH0 PUSH0 REVERT JUMPDEST POP PUSH2 0x6A0 PUSH2 0x87D CALLDATASIZE PUSH1 0x4 PUSH2 0x3AFA JUMP JUMPDEST PUSH1 0x18 PUSH1 0x20 MSTORE PUSH0 SWAP1 DUP2 MSTORE PUSH1 0x40 SWAP1 KECCAK256 SLOAD DUP2 JUMP JUMPDEST CALLVALUE DUP1 ISZERO PUSH2 0x899 JUMPI PUSH0 PUSH0 REVERT JUMPDEST POP PUSH1 0xE SLOAD PUSH2 0x6CD SWAP1 PUSH1 0x1 PUSH1 0x1 PUSH1 0xA0 SHL SUB AND DUP2 JUMP JUMPDEST CALLVALUE DUP1 ISZERO PUSH2 0x8B8 JUMPI PUSH0 PUSH0 REVERT JUMPDEST POP PUSH2 0x8CC PUSH2 0x8C7 CALLDATASIZE PUSH1 0x4 PUSH2 0x3AFA JUMP JUMPDEST PUSH2 0x1313 JUMP JUMPDEST PUSH1 0x40 MLOAD PUSH2 0x654 SWAP2 SWAP1 PUSH2 0x3BAD JUMP JUMPDEST CALLVALUE DUP1 ISZERO PUSH2 0x8E4 JUMPI PUSH0 PUSH0 REVERT JUMPDEST POP PUSH2 0x861 PUSH2 0x1336 JUMP JUMPDEST CALLVALUE DUP1 ISZERO PUSH2 0x8F8 JUMPI PUSH0 PUSH0 REVERT JUMPDEST POP PUSH1 0xC SLOAD PUSH2 0x6CD SWAP1 PUSH1 0x1 PUSH1 0x1 PUSH1 0xA0 SHL SUB AND DUP2 JUMP JUMPDEST CALLVALUE DUP1 ISZERO PUSH2 0x917 JUMPI PUSH0 PUSH0 REVERT JUMPDEST POP PUSH1 0x6 SLOAD PUSH2 0x6CD SWAP1 PUSH1 0x1 PUSH1 0x1 PUSH1 0xA0 SHL SUB AND DUP2 JUMP JUMPDEST CALLVALUE DUP1 ISZERO PUSH2 0x936 JUMPI PUSH0 PUSH0 REVERT JUMPDEST POP PUSH2 0x6CD PUSH32 0x0 DUP2 JUMP JUMPDEST CALLVALUE DUP1 ISZERO PUSH2 0x969 JUMPI PUSH0 PUSH0 REVERT JUMPDEST POP PUSH2 0x972 PUSH2 0x14D9 JUMP JUMPDEST PUSH1 0x40 DUP1 MLOAD SWAP5 DUP6 MSTORE PUSH1 0x20 DUP6 ADD SWAP4 SWAP1 SWAP4 MSTORE SWAP2 DUP4 ADD MSTORE PUSH1 0x60 DUP3 ADD MSTORE PUSH1 0x80 ADD PUSH2 0x654 JUMP JUMPDEST CALLVALUE DUP1 ISZERO PUSH2 0x99D JUMPI PUSH0 PUSH0 REVERT JUMPDEST POP PUSH2 0x6A0 PUSH2 0x9AC CALLDATASIZE PUSH1 0x4 PUSH2 0x3AFA JUMP JUMPDEST PUSH1 0x1 PUSH1 0x1 PUSH1 0xA0 SHL SUB AND PUSH0 SWAP1 DUP2 MSTORE PUSH1 0x20 DUP2 SWAP1 MSTORE PUSH1 0x40 SWAP1 KECCAK256 SLOAD SWAP1 JUMP JUMPDEST CALLVALUE DUP1 ISZERO PUSH2 0x9D1 JUMPI PUSH0 PUSH0 REVERT JUMPDEST POP PUSH2 0x861 PUSH2 0x1588 JUMP JUMPDEST CALLVALUE DUP1 ISZERO PUSH2 0x9E5 JUMPI PUSH0 PUSH0 REVERT JUMPDEST POP PUSH2 0x6A0 PUSH1 0x15 SLOAD DUP2 JUMP JUMPDEST CALLVALUE DUP1 ISZERO PUSH2 0x9FA JUMPI PUSH0 PUSH0 REVERT JUMPDEST POP PUSH2 0x6A0 PUSH1 0x3C DUP2 JUMP JUMPDEST CALLVALUE DUP1 ISZERO PUSH2 0xA0E JUMPI PUSH0 PUSH0 REVERT JUMPDEST POP PUSH2 0x6A0 PUSH1 0x13 SLOAD DUP2 JUMP JUMPDEST CALLVALUE DUP1 ISZERO PUSH2 0xA23 JUMPI PUSH0 PUSH0 REVERT JUMPDEST POP PUSH2 0x6A0 PUSH1 0xC8 DUP2 JUMP JUMPDEST CALLVALUE DUP1 ISZERO PUSH2 0xA37 JUMPI PUSH0 PUSH0 REVERT JUMPDEST POP PUSH1 0x5 SLOAD PUSH1 0x1 PUSH1 0x1 PUSH1 0xA0 SHL SUB AND PUSH2 0x6CD JUMP JUMPDEST CALLVALUE DUP1 ISZERO PUSH2 0xA54 JUMPI PUSH0 PUSH0 REVERT JUMPDEST POP PUSH1 0xB SLOAD PUSH2 0x6CD SWAP1 PUSH1 0x1 PUSH1 0x1 PUSH1 0xA0 SHL SUB AND DUP2 JUMP JUMPDEST CALLVALUE DUP1 ISZERO PUSH2 0xA73 JUMPI PUSH0 PUSH0 REVERT JUMPDEST POP PUSH2 0x6A0 PUSH2 0xA82 CALLDATASIZE PUSH1 0x4 PUSH2 0x3AFA JUMP JUMPDEST PUSH1 0x1B PUSH1 0x20 MSTORE PUSH0 SWAP1 DUP2 MSTORE PUSH1 0x40 SWAP1 KECCAK256 SLOAD DUP2 JUMP JUMPDEST CALLVALUE DUP1 ISZERO PUSH2 0xA9E JUMPI PUSH0 PUSH0 REVERT JUMPDEST POP PUSH2 0x647 PUSH2 0x159B JUMP JUMPDEST CALLVALUE DUP1 ISZERO PUSH2 0xAB2 JUMPI PUSH0 PUSH0 REVERT JUMPDEST POP PUSH2 0x6A0 PUSH2 0x640 DUP2 JUMP JUMPDEST CALLVALUE DUP1 ISZERO PUSH2 0xAC7 JUMPI PUSH0 PUSH0 REVERT JUMPDEST POP PUSH2 0x6A0 PUSH2 0xAD6 CALLDATASIZE PUSH1 0x4 PUSH2 0x3AFA JUMP JUMPDEST PUSH1 0x9 PUSH1 0x20 MSTORE PUSH0 SWAP1 DUP2 MSTORE PUSH1 0x40 SWAP1 KECCAK256 SLOAD DUP2 JUMP JUMPDEST CALLVALUE DUP1 ISZERO PUSH2 0xAF2 JUMPI PUSH0 PUSH0 REVERT JUMPDEST POP PUSH2 0xB59 PUSH2 0xB01 CALLDATASIZE PUSH1 0x4 PUSH2 0x3AFA JUMP JUMPDEST PUSH1 0xA PUSH1 0x20 MSTORE PUSH0 SWAP1 DUP2 MSTORE PUSH1 0x40 SWAP1 KECCAK256 DUP1 SLOAD PUSH1 0x1 DUP3 ADD SLOAD PUSH1 0x2 DUP4 ADD SLOAD PUSH1 0x3 DUP5 ADD SLOAD PUSH1 0x4 DUP6 ADD SLOAD PUSH1 0x5 DUP7 ADD SLOAD PUSH1 0x6 DUP8 ADD SLOAD PUSH1 0x7 SWAP1 SWAP8 ADD SLOAD PUSH1 0x1 PUSH1 0x1 PUSH1 0xA0 SHL SUB SWAP1 SWAP7 AND SWAP7 SWAP5 SWAP6 SWAP4 SWAP5 SWAP3 SWAP4 SWAP2 SWAP3 SWAP1 SWAP2 PUSH1 0xFF DUP1 DUP3 AND SWAP2 PUSH2 0x100 SWAP1 DIV AND DUP10 JUMP JUMPDEST PUSH1 0x40 DUP1 MLOAD PUSH1 0x1 PUSH1 0x1 PUSH1 0xA0 SHL SUB SWAP1 SWAP11 AND DUP11 MSTORE PUSH1 0x20 DUP11 ADD SWAP9 SWAP1 SWAP9 MSTORE SWAP7 DUP9 ADD SWAP6 SWAP1 SWAP6 MSTORE PUSH1 0x60 DUP8 ADD SWAP4 SWAP1 SWAP4 MSTORE PUSH1 0x80 DUP7 ADD SWAP2 SWAP1 SWAP2 MSTORE PUSH1 0xA0 DUP6 ADD MSTORE PUSH1 0xC0 DUP5 ADD MSTORE ISZERO ISZERO PUSH1 0xE0 DUP4 ADD MSTORE ISZERO ISZERO PUSH2 0x100 DUP3 ADD MSTORE PUSH2 0x120 ADD PUSH2 0x654 JUMP JUMPDEST CALLVALUE DUP1 ISZERO PUSH2 0xBB6 JUMPI PUSH0 PUSH0 REVERT JUMPDEST POP PUSH2 0x67C PUSH2 0xBC5 CALLDATASIZE PUSH1 0x4 PUSH2 0x3AD0 JUMP JUMPDEST PUSH2 0x15AA JUMP JUMPDEST CALLVALUE DUP1 ISZERO PUSH2 0xBD5 JUMPI PUSH0 PUSH0 REVERT JUMPDEST POP PUSH2 0x6A0 PUSH1 0x11 SLOAD DUP2 JUMP JUMPDEST CALLVALUE DUP1 ISZERO PUSH2 0xBEA JUMPI PUSH0 PUSH0 REVERT JUMPDEST POP PUSH2 0x6A0 PUSH2 0x15B7 JUMP JUMPDEST CALLVALUE DUP1 ISZERO PUSH2 0xBFE JUMPI PUSH0 PUSH0 REVERT JUMPDEST POP PUSH2 0x6A0 PUSH2 0xC0D CALLDATASIZE PUSH1 0x4 PUSH2 0x3AFA JUMP JUMPDEST PUSH1 0x1D PUSH1 0x20 MSTORE PUSH0 SWAP1 DUP2 MSTORE PUSH1 0x40 SWAP1 KECCAK256 SLOAD DUP2 JUMP JUMPDEST CALLVALUE DUP1 ISZERO PUSH2 0xC29 JUMPI PUSH0 PUSH0 REVERT JUMPDEST POP PUSH2 0x861 PUSH2 0x15F7 JUMP JUMPDEST CALLVALUE DUP1 ISZERO PUSH2 0xC3D JUMPI PUSH0 PUSH0 REVERT JUMPDEST POP PUSH2 0x6A0 PUSH1 0x12 SLOAD DUP2 JUMP JUMPDEST CALLVALUE DUP1 ISZERO PUSH2 0xC52 JUMPI PUSH0 PUSH0 REVERT JUMPDEST POP PUSH2 0x6A0 PUSH11 0x295BE96E64066972000000 DUP2 JUMP JUMPDEST CALLVALUE DUP1 ISZERO PUSH2 0xC70 JUMPI PUSH0 PUSH0 REVERT JUMPDEST POP PUSH2 0x67C PUSH2 0xC7F CALLDATASIZE PUSH1 0x4 PUSH2 0x3BBF JUMP JUMPDEST PUSH2 0x173F JUMP JUMPDEST CALLVALUE DUP1 ISZERO PUSH2 0xC8F JUMPI PUSH0 PUSH0 REVERT JUMPDEST POP PUSH2 0x6A0 PUSH2 0xC9E CALLDATASIZE PUSH1 0x4 PUSH2 0x3AFA JUMP JUMPDEST PUSH1 0x1A PUSH1 0x20 MSTORE PUSH0 SWAP1 DUP2 MSTORE PUSH1 0x40 SWAP1 KECCAK256 SLOAD DUP2 JUMP JUMPDEST CALLVALUE DUP1 ISZERO PUSH2 0xCBA JUMPI PUSH0 PUSH0 REVERT JUMPDEST POP PUSH2 0x861 PUSH2 0xCC9 CALLDATASIZE PUSH1 0x4 PUSH2 0x3AFA JUMP JUMPDEST PUSH2 0x183E JUMP JUMPDEST CALLVALUE DUP1 ISZERO PUSH2 0xCD9 JUMPI PUSH0 PUSH0 REVERT JUMPDEST POP PUSH0 PUSH2 0x67C JUMP JUMPDEST CALLVALUE DUP1 ISZERO PUSH2 0xCEB JUMPI PUSH0 PUSH0 REVERT JUMPDEST POP PUSH2 0x6A0 PUSH2 0xCFA CALLDATASIZE PUSH1 0x4 PUSH2 0x3BBF JUMP JUMPDEST PUSH1 0x1 PUSH1 0x1 PUSH1 0xA0 SHL SUB SWAP2 DUP3 AND PUSH0 SWAP1 DUP2 MSTORE PUSH1 0x1 PUSH1 0x20 SWAP1 DUP2 MSTORE PUSH1 0x40 DUP1 DUP4 KECCAK256 SWAP4 SWAP1 SWAP5 AND DUP3 MSTORE SWAP2 SWAP1 SWAP2 MSTORE KECCAK256 SLOAD SWAP1 JUMP JUMPDEST CALLVALUE DUP1 ISZERO PUSH2 0xD2F JUMPI PUSH0 PUSH0 REVERT JUMPDEST POP PUSH2 0x6A0 PUSH1 0x14 SLOAD DUP2 JUMP JUMPDEST CALLVALUE DUP1 ISZERO PUSH2 0xD44 JUMPI PUSH0 PUSH0 REVERT JUMPDEST POP PUSH1 0xD SLOAD PUSH2 0x6CD SWAP1 PUSH1 0x1 PUSH1 0x1 PUSH1 0xA0 SHL SUB AND DUP2 JUMP JUMPDEST CALLVALUE DUP1 ISZERO PUSH2 0xD63 JUMPI PUSH0 PUSH0 REVERT JUMPDEST POP PUSH2 0x6A0 PUSH2 0xD72 CALLDATASIZE PUSH1 0x4 PUSH2 0x3AFA JUMP JUMPDEST PUSH2 0x1868 JUMP JUMPDEST CALLVALUE DUP1 ISZERO PUSH2 0xD82 JUMPI PUSH0 PUSH0 REVERT JUMPDEST POP PUSH2 0x861 PUSH2 0xD91 CALLDATASIZE PUSH1 0x4 PUSH2 0x3AFA JUMP JUMPDEST PUSH2 0x19FB JUMP JUMPDEST CALLVALUE DUP1 ISZERO PUSH2 0xDA1 JUMPI PUSH0 PUSH0 REVERT JUMPDEST POP PUSH2 0x861 PUSH2 0xDB0 CALLDATASIZE PUSH1 0x4 PUSH2 0x3AFA JUMP JUMPDEST PUSH2 0x1A38 JUMP JUMPDEST CALLVALUE DUP1 ISZERO PUSH2 0xDC0 JUMPI PUSH0 PUSH0 REVERT JUMPDEST POP PUSH2 0x67C PUSH2 0xDCF CALLDATASIZE PUSH1 0x4 PUSH2 0x3BBF JUMP JUMPDEST PUSH1 0x7 PUSH1 0x20 SWAP1 DUP2 MSTORE PUSH0 SWAP3 DUP4 MSTORE PUSH1 0x40 DUP1 DUP5 KECCAK256 SWAP1 SWAP2 MSTORE SWAP1 DUP3 MSTORE SWAP1 KECCAK256 SLOAD PUSH1 0xFF AND DUP2 JUMP JUMPDEST PUSH1 0x40 DUP1 MLOAD PUSH0 DUP1 DUP3 MSTORE PUSH1 0x20 DUP3 ADD SWAP1 SWAP3 MSTORE PUSH1 0x1 PUSH1 0x1 PUSH1 0xA0 SHL SUB DUP5 AND SWAP1 DUP4 SWAP1 PUSH1 0x40 MLOAD PUSH2 0xE17 SWAP2 SWAP1 PUSH2 0x3C0A JUMP JUMPDEST PUSH0 PUSH1 0x40 MLOAD DUP1 DUP4 SUB DUP2 DUP6 DUP8 GAS CALL SWAP3 POP POP POP RETURNDATASIZE DUP1 PUSH0 DUP2 EQ PUSH2 0xE51 JUMPI PUSH1 0x40 MLOAD SWAP2 POP PUSH1 0x1F NOT PUSH1 0x3F RETURNDATASIZE ADD AND DUP3 ADD PUSH1 0x40 MSTORE RETURNDATASIZE DUP3 MSTORE RETURNDATASIZE PUSH0 PUSH1 0x20 DUP5 ADD RETURNDATACOPY PUSH2 0xE56 JUMP JUMPDEST PUSH1 0x60 SWAP2 POP JUMPDEST POP POP POP POP POP POP JUMP JUMPDEST PUSH1 0x40 DUP1 MLOAD PUSH1 0x2 DUP1 DUP3 MSTORE PUSH1 0x60 DUP3 ADD DUP4 MSTORE PUSH0 SWAP3 DUP4 SWAP3 SWAP2 SWAP1 PUSH1 0x20 DUP4 ADD SWAP1 DUP1 CALLDATASIZE DUP4 CALLDATACOPY POP POP PUSH1 0xB SLOAD DUP3 MLOAD SWAP3 SWAP4 POP PUSH1 0x1 PUSH1 0x1 PUSH1 0xA0 SHL SUB AND SWAP2 DUP4 SWAP2 POP PUSH0 SWAP1 PUSH2 0xEA1 JUMPI PUSH2 0xEA1 PUSH2 0x3C20 JUMP JUMPDEST PUSH1 0x20 MUL PUSH1 0x20 ADD ADD SWAP1 PUSH1 0x1 PUSH1 0x1 PUSH1 0xA0 SHL SUB AND SWAP1 DUP2 PUSH1 0x1 PUSH1 0x1 PUSH1 0xA0 SHL SUB AND DUP2 MSTORE POP POP ADDRESS DUP2 PUSH1 0x1 DUP2 MLOAD DUP2 LT PUSH2 0xED5 JUMPI PUSH2 0xED5 PUSH2 0x3C20 JUMP JUMPDEST PUSH1 0x1 PUSH1 0x1 PUSH1 0xA0 SHL SUB SWAP3 DUP4 AND PUSH1 0x20 SWAP2 DUP3 MUL SWAP3 SWAP1 SWAP3 ADD ADD MSTORE PUSH1 0x10 SLOAD PUSH1 0x40 MLOAD PUSH4 0xB6F9DE95 PUSH1 0xE0 SHL DUP2 MSTORE PUSH32 0x0 DUP4 AND SWAP3 PUSH4 0xB6F9DE95 SWAP3 DUP8 SWAP3 PUSH2 0xF3C SWAP3 PUSH0 SWAP3 DUP9 SWAP3 SWAP2 AND SWAP1 TIMESTAMP SWAP1 PUSH1 0x4 ADD PUSH2 0x3C34 JUMP JUMPDEST PUSH0 PUSH1 0x40 MLOAD DUP1 DUP4 SUB DUP2 DUP6 DUP9 DUP1 EXTCODESIZE ISZERO DUP1 ISZERO PUSH2 0xF53 JUMPI PUSH0 PUSH0 REVERT JUMPDEST POP GAS CALL ISZERO DUP1 ISZERO PUSH2 0xF65 JUMPI RETURNDATASIZE PUSH0 PUSH0 RETURNDATACOPY RETURNDATASIZE PUSH0 REVERT JUMPDEST POP POP PUSH1 0x10 SLOAD PUSH1 0x1 PUSH1 0x1 PUSH1 0xA0 SHL SUB AND PUSH0 SWAP1 DUP2 MSTORE PUSH1 0x20 DUP2 SWAP1 MSTORE PUSH1 0x40 DUP2 KECCAK256 SLOAD SWAP1 SWAP4 POP SWAP2 POP PUSH2 0xF8D SWAP1 POP JUMP JUMPDEST PUSH1 0x10 SLOAD SWAP1 SWAP2 POP PUSH2 0xFA7 SWAP1 PUSH1 0x1 PUSH1 0x1 PUSH1 0xA0 SHL SUB AND ADDRESS DUP4 PUSH2 0x1A62 JUMP JUMPDEST PUSH2 0xFD2 ADDRESS PUSH32 0x0 DUP4 PUSH2 0x1B88 JUMP JUMPDEST PUSH1 0x40 MLOAD PUSH4 0xF305D719 PUSH1 0xE0 SHL DUP2 MSTORE ADDRESS PUSH1 0x4 DUP3 ADD DUP2 SWAP1 MSTORE PUSH1 0x24 DUP3 ADD DUP4 SWAP1 MSTORE PUSH0 PUSH1 0x44 DUP4 ADD DUP2 SWAP1 MSTORE PUSH1 0x64 DUP4 ADD MSTORE PUSH1 0x84 DUP3 ADD MSTORE TIMESTAMP PUSH1 0xA4 DUP3 ADD MSTORE PUSH32 0x0 PUSH1 0x1 PUSH1 0x1 PUSH1 0xA0 SHL SUB AND SWAP1 PUSH4 0xF305D719 SWAP1 DUP7 SWAP1 PUSH1 0xC4 ADD PUSH1 0x60 PUSH1 0x40 MLOAD DUP1 DUP4 SUB DUP2 DUP6 DUP9 GAS CALL ISZERO DUP1 ISZERO PUSH2 0x1058 JUMPI RETURNDATASIZE PUSH0 PUSH0 RETURNDATACOPY RETURNDATASIZE PUSH0 REVERT JUMPDEST POP POP POP POP POP PUSH1 0x40 MLOAD RETURNDATASIZE PUSH1 0x1F NOT PUSH1 0x1F DUP3 ADD AND DUP3 ADD DUP1 PUSH1 0x40 MSTORE POP DUP2 ADD SWAP1 PUSH2 0x107D SWAP2 SWAP1 PUSH2 0x3C68 JUMP JUMPDEST SWAP7 SWAP6 POP POP POP POP POP POP JUMP JUMPDEST PUSH1 0x60 PUSH1 0x3 DUP1 SLOAD PUSH2 0x1096 SWAP1 PUSH2 0x3C93 JUMP JUMPDEST DUP1 PUSH1 0x1F ADD PUSH1 0x20 DUP1 SWAP2 DIV MUL PUSH1 0x20 ADD PUSH1 0x40 MLOAD SWAP1 DUP2 ADD PUSH1 0x40 MSTORE DUP1 SWAP3 SWAP2 SWAP1 DUP2 DUP2 MSTORE PUSH1 0x20 ADD DUP3 DUP1 SLOAD PUSH2 0x10C2 SWAP1 PUSH2 0x3C93 JUMP JUMPDEST DUP1 ISZERO PUSH2 0x110D JUMPI DUP1 PUSH1 0x1F LT PUSH2 0x10E4 JUMPI PUSH2 0x100 DUP1 DUP4 SLOAD DIV MUL DUP4 MSTORE SWAP2 PUSH1 0x20 ADD SWAP2 PUSH2 0x110D JUMP JUMPDEST DUP3 ADD SWAP2 SWAP1 PUSH0 MSTORE PUSH1 0x20 PUSH0 KECCAK256 SWAP1 JUMPDEST DUP2 SLOAD DUP2 MSTORE SWAP1 PUSH1 0x1 ADD SWAP1 PUSH1 0x20 ADD DUP1 DUP4 GT PUSH2 0x10F0 JUMPI DUP3 SWAP1 SUB PUSH1 0x1F AND DUP3 ADD SWAP2 JUMPDEST POP POP POP POP POP SWAP1 POP SWAP1 JUMP JUMPDEST PUSH0 CALLER PUSH2 0x1124 DUP2 DUP6 DUP6 PUSH2 0x1B88 JUMP JUMPDEST PUSH1 0x1 SWAP2 POP POP JUMPDEST SWAP3 SWAP2 POP POP JUMP JUMPDEST PUSH1 0x6 SLOAD PUSH1 0x40 DUP1 MLOAD PUSH4 0x240BC6B PUSH1 0xE2 SHL DUP2 MSTORE SWAP1 MLOAD PUSH0 SWAP3 PUSH1 0x1 PUSH1 0x1 PUSH1 0xA0 SHL SUB AND SWAP2 DUP4 SWAP2 DUP3 SWAP2 DUP5 SWAP2 PUSH4 0x902F1AC SWAP2 PUSH1 0x4 DUP1 DUP3 ADD SWAP3 PUSH1 0x60 SWAP3 SWAP1 SWAP2 SWAP1 DUP3 SWAP1 SUB ADD DUP2 DUP7 GAS STATICCALL ISZERO DUP1 ISZERO PUSH2 0x117E JUMPI RETURNDATASIZE PUSH0 PUSH0 RETURNDATACOPY RETURNDATASIZE PUSH0 REVERT JUMPDEST POP POP POP POP PUSH1 0x40 MLOAD RETURNDATASIZE PUSH1 0x1F NOT PUSH1 0x1F DUP3 ADD AND DUP3 ADD DUP1 PUSH1 0x40 MSTORE POP DUP2 ADD SWAP1 PUSH2 0x11A2 SWAP2 SWAP1 PUSH2 0x3CDB JUMP JUMPDEST POP SWAP2 POP SWAP2 POP PUSH0 DUP4 PUSH1 0x1 PUSH1 0x1 PUSH1 0xA0 SHL SUB AND PUSH4 0xDFE1681 PUSH1 0x40 MLOAD DUP2 PUSH4 0xFFFFFFFF AND PUSH1 0xE0 SHL DUP2 MSTORE PUSH1 0x4 ADD PUSH1 0x20 PUSH1 0x40 MLOAD DUP1 DUP4 SUB DUP2 DUP7 GAS STATICCALL ISZERO DUP1 ISZERO PUSH2 0x11E4 JUMPI RETURNDATASIZE PUSH0 PUSH0 RETURNDATACOPY RETURNDATASIZE PUSH0 REVERT JUMPDEST POP POP POP POP PUSH1 0x40 MLOAD RETURNDATASIZE PUSH1 0x1F NOT PUSH1 0x1F DUP3 ADD AND DUP3 ADD DUP1 PUSH1 0x40 MSTORE POP DUP2 ADD SWAP1 PUSH2 0x1208 SWAP2 SWAP1 PUSH2 0x3D27 JUMP JUMPDEST SWAP1 POP PUSH1 0x1 PUSH1 0x1 PUSH1 0xA0 SHL SUB DUP2 AND ADDRESS EQ PUSH2 0x1220 JUMPI DUP2 PUSH2 0x1222 JUMP JUMPDEST DUP3 JUMPDEST PUSH1 0x1 PUSH1 0x1 PUSH1 0x70 SHL SUB AND SWAP5 POP POP POP POP POP SWAP1 JUMP JUMPDEST PUSH1 0xF DUP2 DUP2 SLOAD DUP2 LT PUSH2 0x1243 JUMPI PUSH0 DUP1 REVERT JUMPDEST PUSH0 SWAP2 DUP3 MSTORE PUSH1 0x20 SWAP1 SWAP2 KECCAK256 ADD SLOAD PUSH1 0x1 PUSH1 0x1 PUSH1 0xA0 SHL SUB AND SWAP1 POP DUP2 JUMP JUMPDEST PUSH0 CALLER PUSH2 0x1269 DUP6 DUP3 DUP6 PUSH2 0x1B9A JUMP JUMPDEST PUSH2 0x1274 DUP6 DUP6 DUP6 PUSH2 0x1C10 JUMP JUMPDEST POP PUSH1 0x1 SWAP5 SWAP4 POP POP POP POP JUMP JUMPDEST PUSH0 DUP2 PUSH1 0x1 SUB PUSH2 0x1290 JUMPI POP PUSH1 0xA SWAP2 SWAP1 POP JUMP JUMPDEST DUP2 PUSH1 0x2 SUB PUSH2 0x12A0 JUMPI POP PUSH1 0x5 SWAP2 SWAP1 POP JUMP JUMPDEST DUP2 PUSH1 0x3 SUB PUSH2 0x12B0 JUMPI POP PUSH1 0x3 SWAP2 SWAP1 POP JUMP JUMPDEST PUSH1 0x4 DUP3 LT ISZERO DUP1 ISZERO PUSH2 0x12C2 JUMPI POP PUSH1 0x11 DUP3 GT ISZERO JUMPDEST ISZERO PUSH2 0x12CF JUMPI POP PUSH1 0x1 SWAP2 SWAP1 POP JUMP JUMPDEST DUP2 PUSH1 0x12 SUB PUSH2 0x12DF JUMPI POP PUSH1 0x3 SWAP2 SWAP1 POP JUMP JUMPDEST DUP2 PUSH1 0x13 SUB PUSH2 0x12EF JUMPI POP PUSH1 0x5 SWAP2 SWAP1 POP JUMP JUMPDEST DUP2 PUSH1 0x14 SUB PUSH2 0x12FF JUMPI POP PUSH1 0xA SWAP2 SWAP1 POP JUMP JUMPDEST POP PUSH0 SWAP2 SWAP1 POP JUMP JUMPDEST PUSH2 0x130E PUSH2 0x1C6D JUMP JUMPDEST PUSH1 0x15 SSTORE JUMP JUMPDEST PUSH1 0x1 PUSH1 0x1 PUSH1 0xA0 SHL SUB DUP2 AND PUSH0 SWAP1 DUP2 MSTORE PUSH1 0x8 PUSH1 0x20 MSTORE PUSH1 0x40 SWAP1 KECCAK256 PUSH1 0x60 SWAP1 PUSH2 0x112A SWAP1 PUSH2 0x1C9A JUMP JUMPDEST PUSH1 0x6 SLOAD PUSH1 0x40 DUP1 MLOAD PUSH4 0x240BC6B PUSH1 0xE2 SHL DUP2 MSTORE SWAP1 MLOAD PUSH1 0x1 PUSH1 0x1 PUSH1 0xA0 SHL SUB SWAP1 SWAP3 AND SWAP2 PUSH0 SWAP2 DUP3 SWAP2 DUP5 SWAP2 PUSH4 0x902F1AC SWAP2 PUSH1 0x4 DUP1 DUP4 ADD SWAP3 PUSH1 0x60 SWAP3 SWAP2 SWAP1 DUP3 SWAP1 SUB ADD DUP2 DUP7 GAS STATICCALL ISZERO DUP1 ISZERO PUSH2 0x1383 JUMPI RETURNDATASIZE PUSH0 PUSH0 RETURNDATACOPY RETURNDATASIZE PUSH0 REVERT JUMPDEST POP POP POP POP PUSH1 0x40 MLOAD RETURNDATASIZE PUSH1 0x1F NOT PUSH1 0x1F DUP3 ADD AND DUP3 ADD DUP1 PUSH1 0x40 MSTORE POP DUP2 ADD SWAP1 PUSH2 0x13A7 SWAP2 SWAP1 PUSH2 0x3CDB JUMP JUMPDEST POP SWAP2 POP SWAP2 POP DUP2 PUSH1 0x1 PUSH1 0x1 PUSH1 0x70 SHL SUB AND PUSH0 EQ DUP1 PUSH2 0x13CA JUMPI POP PUSH1 0x1 PUSH1 0x1 PUSH1 0x70 SHL SUB DUP2 AND ISZERO JUMPDEST ISZERO PUSH2 0x13D4 JUMPI POP POP POP JUMP JUMPDEST PUSH0 DUP4 PUSH1 0x1 PUSH1 0x1 PUSH1 0xA0 SHL SUB AND PUSH4 0xDFE1681 PUSH1 0x40 MLOAD DUP2 PUSH4 0xFFFFFFFF AND PUSH1 0xE0 SHL DUP2 MSTORE PUSH1 0x4 ADD PUSH1 0x20 PUSH1 0x40 MLOAD DUP1 DUP4 SUB DUP2 DUP7 GAS STATICCALL ISZERO DUP1 ISZERO PUSH2 0x1411 JUMPI RETURNDATASIZE PUSH0 PUSH0 RETURNDATACOPY RETURNDATASIZE PUSH0 REVERT JUMPDEST POP POP POP POP PUSH1 0x40 MLOAD RETURNDATASIZE PUSH1 0x1F NOT PUSH1 0x1F DUP3 ADD AND DUP3 ADD DUP1 PUSH1 0x40 MSTORE POP DUP2 ADD SWAP1 PUSH2 0x1435 SWAP2 SWAP1 PUSH2 0x3D27 JUMP JUMPDEST SWAP1 POP PUSH0 PUSH1 0x1 PUSH1 0x1 PUSH1 0xA0 SHL SUB DUP3 AND ADDRESS EQ PUSH2 0x144E JUMPI DUP3 PUSH2 0x1450 JUMP JUMPDEST DUP4 JUMPDEST PUSH1 0x11 SLOAD PUSH1 0x10 SLOAD PUSH1 0x1 PUSH1 0x1 PUSH1 0x70 SHL SUB SWAP3 SWAP1 SWAP3 AND SWAP3 POP DUP3 LT SWAP1 PUSH1 0x1 PUSH1 0xA0 SHL SWAP1 DIV PUSH1 0xFF AND ISZERO ISZERO DUP2 EQ PUSH2 0xE56 JUMPI PUSH1 0x10 DUP1 SLOAD PUSH1 0xFF PUSH1 0xA0 SHL NOT AND PUSH1 0x1 PUSH1 0xA0 SHL DUP4 ISZERO ISZERO DUP2 MUL SWAP2 SWAP1 SWAP2 OR SWAP2 DUP3 SWAP1 SSTORE PUSH1 0x40 MLOAD PUSH1 0xFF SWAP2 SWAP1 SWAP3 DIV AND ISZERO ISZERO DUP2 MSTORE PUSH32 0xBBEF43C3CFDEB912E8273CCC6A33ADDFF577B417336F27D902D7A93E07EED436 SWAP1 PUSH1 0x20 ADD PUSH1 0x40 MLOAD DUP1 SWAP2 SUB SWAP1 LOG1 POP POP POP POP POP POP JUMP JUMPDEST PUSH0 PUSH0 PUSH0 PUSH0 PUSH0 PUSH2 0x14E6 PUSH2 0x1130 JUMP JUMPDEST SWAP1 POP PUSH12 0x33B2E3C9FD0803CE8000000 DUP2 GT ISZERO PUSH2 0x1515 JUMPI PUSH2 0x5DC PUSH2 0x2EE PUSH2 0x12C PUSH1 0x3C SWAP5 POP SWAP5 POP SWAP5 POP SWAP5 POP POP PUSH2 0x1582 JUMP JUMPDEST PUSH12 0x19D971E4FE8401E74000000 DUP2 GT ISZERO PUSH2 0x1542 JUMPI PUSH2 0x4E2 PUSH2 0x271 PUSH2 0x12C PUSH1 0x3C SWAP5 POP SWAP5 POP SWAP5 POP SWAP5 POP POP PUSH2 0x1582 JUMP JUMPDEST PUSH11 0x52B7D2DCC80CD2E4000000 DUP2 GT ISZERO PUSH2 0x156E JUMPI PUSH2 0x3E8 PUSH2 0x1F4 PUSH2 0x12C PUSH1 0x3C SWAP5 POP SWAP5 POP SWAP5 POP SWAP5 POP POP PUSH2 0x1582 JUMP JUMPDEST PUSH2 0x1F4 PUSH1 0xFA PUSH2 0x12C PUSH1 0x3C SWAP5 POP SWAP5 POP SWAP5 POP SWAP5 POP POP JUMPDEST SWAP1 SWAP2 SWAP3 SWAP4 JUMP JUMPDEST PUSH2 0x1590 PUSH2 0x1C6D JUMP JUMPDEST PUSH2 0x1599 PUSH0 PUSH2 0x1CAD JUMP JUMPDEST JUMP JUMPDEST PUSH1 0x60 PUSH1 0x4 DUP1 SLOAD PUSH2 0x1096 SWAP1 PUSH2 0x3C93 JUMP JUMPDEST PUSH0 CALLER PUSH2 0x1124 DUP2 DUP6 DUP6 PUSH2 0x1C10 JUMP JUMPDEST PUSH2 0xDEAD PUSH0 SWAP1 DUP2 MSTORE PUSH1 0x20 DUP2 SWAP1 MSTORE PUSH32 0x44AD89BA62B98FF34F51403AC22759B55759460C0BB5521EB4B6EE3CFF49CF83 SLOAD PUSH1 0x2 SLOAD PUSH2 0x15F2 SWAP2 SWAP1 PUSH2 0x3D42 JUMP JUMPDEST SWAP1 POP SWAP1 JUMP JUMPDEST PUSH1 0xB SLOAD PUSH1 0x6 SLOAD PUSH1 0x40 MLOAD PUSH4 0x70A08231 PUSH1 0xE0 SHL DUP2 MSTORE ADDRESS PUSH1 0x4 DUP3 ADD MSTORE PUSH1 0x1 PUSH1 0x1 PUSH1 0xA0 SHL SUB SWAP3 DUP4 AND SWAP3 PUSH4 0xA9059CBB SWAP3 AND SWAP1 DUP4 SWAP1 PUSH4 0x70A08231 SWAP1 PUSH1 0x24 ADD PUSH1 0x20 PUSH1 0x40 MLOAD DUP1 DUP4 SUB DUP2 DUP7 GAS STATICCALL ISZERO DUP1 ISZERO PUSH2 0x164A JUMPI RETURNDATASIZE PUSH0 PUSH0 RETURNDATACOPY RETURNDATASIZE PUSH0 REVERT JUMPDEST POP POP POP POP PUSH1 0x40 MLOAD RETURNDATASIZE PUSH1 0x1F NOT PUSH1 0x1F DUP3 ADD AND DUP3 ADD DUP1 PUSH1 0x40 MSTORE POP DUP2 ADD SWAP1 PUSH2 0x166E SWAP2 SWAP1 PUSH2 0x3D55 JUMP JUMPDEST PUSH1 0x40 MLOAD PUSH1 0x1 PUSH1 0x1 PUSH1 0xE0 SHL SUB NOT PUSH1 0xE0 DUP6 SWAP1 SHL AND DUP2 MSTORE PUSH1 0x1 PUSH1 0x1 PUSH1 0xA0 SHL SUB SWAP1 SWAP3 AND PUSH1 0x4 DUP4 ADD MSTORE PUSH1 0x24 DUP3 ADD MSTORE PUSH1 0x44 ADD PUSH1 0x20 PUSH1 0x40 MLOAD DUP1 DUP4 SUB DUP2 PUSH0 DUP8 GAS CALL ISZERO DUP1 ISZERO PUSH2 0x16B6 JUMPI RETURNDATASIZE PUSH0 PUSH0 RETURNDATACOPY RETURNDATASIZE PUSH0 REVERT JUMPDEST POP POP POP POP PUSH1 0x40 MLOAD RETURNDATASIZE PUSH1 0x1F NOT PUSH1 0x1F DUP3 ADD AND DUP3 ADD DUP1 PUSH1 0x40 MSTORE POP DUP2 ADD SWAP1 PUSH2 0x16DA SWAP2 SWAP1 PUSH2 0x3D6C JUMP JUMPDEST POP PUSH1 0x6 PUSH0 SWAP1 SLOAD SWAP1 PUSH2 0x100 EXP SWAP1 DIV PUSH1 0x1 PUSH1 0x1 PUSH1 0xA0 SHL SUB AND PUSH1 0x1 PUSH1 0x1 PUSH1 0xA0 SHL SUB AND PUSH4 0xFFF6CAE9 PUSH1 0x40 MLOAD DUP2 PUSH4 0xFFFFFFFF AND PUSH1 0xE0 SHL DUP2 MSTORE PUSH1 0x4 ADD PUSH0 PUSH1 0x40 MLOAD DUP1 DUP4 SUB DUP2 PUSH0 DUP8 DUP1 EXTCODESIZE ISZERO DUP1 ISZERO PUSH2 0x1727 JUMPI PUSH0 PUSH0 REVERT JUMPDEST POP GAS CALL ISZERO DUP1 ISZERO PUSH2 0x1739 JUMPI RETURNDATASIZE PUSH0 PUSH0 RETURNDATACOPY RETURNDATASIZE PUSH0 REVERT JUMPDEST POP POP POP POP JUMP JUMPDEST PUSH0 DUP2 PUSH1 0x1 PUSH1 0x1 PUSH1 0xA0 SHL SUB AND DUP4 PUSH1 0x1 PUSH1 0x1 PUSH1 0xA0 SHL SUB AND SUB PUSH2 0x1760 JUMPI POP PUSH0 PUSH2 0x112A JUMP JUMPDEST PUSH1 0x1 PUSH1 0x1 PUSH1 0xA0 SHL SUB DUP1 DUP5 AND PUSH0 SWAP1 DUP2 MSTORE PUSH1 0x7 PUSH1 0x20 SWAP1 DUP2 MSTORE PUSH1 0x40 DUP1 DUP4 KECCAK256 SWAP4 DUP7 AND DUP4 MSTORE SWAP3 SWAP1 MSTORE KECCAK256 SLOAD PUSH1 0xFF AND ISZERO PUSH2 0x1794 JUMPI POP PUSH0 PUSH2 0x112A JUMP JUMPDEST PUSH1 0x6 SLOAD PUSH1 0x1 PUSH1 0x1 PUSH1 0xA0 SHL SUB DUP4 DUP2 AND SWAP2 AND EQ DUP1 PUSH2 0x17BD JUMPI POP PUSH1 0x6 SLOAD PUSH1 0x1 PUSH1 0x1 PUSH1 0xA0 SHL SUB DUP5 DUP2 AND SWAP2 AND EQ JUMPDEST ISZERO PUSH2 0x17C9 JUMPI POP PUSH0 PUSH2 0x112A JUMP JUMPDEST DUP2 PUSH0 JUMPDEST PUSH1 0x1 PUSH1 0x1 PUSH1 0xA0 SHL SUB DUP3 AND ISZERO DUP1 ISZERO SWAP1 PUSH2 0x17E7 JUMPI POP PUSH1 0x19 DUP2 PUSH1 0xFF AND LT JUMPDEST ISZERO PUSH2 0x1274 JUMPI DUP5 PUSH1 0x1 PUSH1 0x1 PUSH1 0xA0 SHL SUB AND DUP3 PUSH1 0x1 PUSH1 0x1 PUSH1 0xA0 SHL SUB AND SUB PUSH2 0x180F JUMPI PUSH0 SWAP3 POP POP POP PUSH2 0x112A JUMP JUMPDEST PUSH1 0x1 PUSH1 0x1 PUSH1 0xA0 SHL SUB SWAP2 DUP3 AND PUSH0 SWAP1 DUP2 MSTORE PUSH1 0xA PUSH1 0x20 MSTORE PUSH1 0x40 SWAP1 KECCAK256 SLOAD SWAP1 SWAP2 AND SWAP1 DUP1 PUSH2 0x1836 DUP2 PUSH2 0x3D8B JUMP JUMPDEST SWAP2 POP POP PUSH2 0x17CC JUMP JUMPDEST PUSH2 0x1846 PUSH2 0x1C6D JUMP JUMPDEST PUSH1 0x6 DUP1 SLOAD PUSH1 0x1 PUSH1 0x1 PUSH1 0xA0 SHL SUB NOT AND PUSH1 0x1 PUSH1 0x1 PUSH1 0xA0 SHL SUB SWAP3 SWAP1 SWAP3 AND SWAP2 SWAP1 SWAP2 OR SWAP1 SSTORE JUMP JUMPDEST PUSH1 0x1 PUSH1 0x1 PUSH1 0xA0 SHL SUB DUP1 DUP3 AND PUSH0 SWAP1 DUP2 MSTORE PUSH1 0xA PUSH1 0x20 SWAP1 DUP2 MSTORE PUSH1 0x40 DUP1 DUP4 KECCAK256 DUP2 MLOAD PUSH2 0x120 DUP2 ADD DUP4 MSTORE DUP2 SLOAD SWAP1 SWAP6 AND DUP6 MSTORE PUSH1 0x1 DUP2 ADD SLOAD SWAP3 DUP6 ADD SWAP3 SWAP1 SWAP3 MSTORE PUSH1 0x2 DUP3 ADD SLOAD SWAP1 DUP5 ADD MSTORE PUSH1 0x3 DUP2 ADD SLOAD PUSH1 0x60 DUP5 ADD MSTORE PUSH1 0x4 DUP2 ADD SLOAD PUSH1 0x80 DUP5 ADD MSTORE PUSH1 0x5 DUP2 ADD SLOAD PUSH1 0xA0 DUP5 ADD MSTORE PUSH1 0x6 DUP2 ADD SLOAD PUSH1 0xC0 DUP5 ADD MSTORE PUSH1 0x7 ADD SLOAD PUSH1 0xFF DUP1 DUP3 AND ISZERO ISZERO PUSH1 0xE0 DUP6 ADD MSTORE PUSH2 0x100 SWAP2 DUP3 SWAP1 DIV AND ISZERO DUP1 ISZERO SWAP2 DUP5 ADD SWAP2 SWAP1 SWAP2 MSTORE SWAP1 SWAP2 SWAP1 DUP1 PUSH2 0x1916 JUMPI POP PUSH1 0x1 PUSH1 0x1 PUSH1 0xA0 SHL SUB DUP4 AND PUSH0 SWAP1 DUP2 MSTORE PUSH1 0x1A PUSH1 0x20 MSTORE PUSH1 0x40 SWAP1 KECCAK256 SLOAD TIMESTAMP LT JUMPDEST ISZERO PUSH2 0x1923 JUMPI POP PUSH0 SWAP3 SWAP2 POP POP JUMP JUMPDEST PUSH0 PUSH2 0x192C PUSH2 0x1130 JUMP JUMPDEST SWAP1 POP PUSH0 PUSH11 0x52B7D2DCC80CD2E4000000 DUP3 LT ISZERO PUSH2 0x194A JUMPI PUSH2 0x3E8 PUSH2 0x194E JUMP JUMPDEST PUSH2 0x640 JUMPDEST PUSH1 0x1 PUSH1 0x1 PUSH1 0xA0 SHL SUB DUP7 AND PUSH0 SWAP1 DUP2 MSTORE PUSH1 0x1A PUSH1 0x20 MSTORE PUSH1 0x40 DUP2 KECCAK256 SLOAD SWAP2 SWAP3 POP SWAP1 PUSH1 0x3C SWAP1 PUSH2 0x1977 SWAP1 TIMESTAMP PUSH2 0x3D42 JUMP JUMPDEST PUSH2 0x1981 SWAP2 SWAP1 PUSH2 0x3A68 JUMP JUMPDEST SWAP1 POP PUSH0 PUSH11 0x52B7D2DCC80CD2E4000000 DUP5 LT ISZERO PUSH2 0x199E JUMPI PUSH1 0xC8 PUSH2 0x19A1 JUMP JUMPDEST PUSH1 0x7D JUMPDEST PUSH2 0x19AC SWAP1 PUSH1 0x18 PUSH2 0x3A51 JUMP JUMPDEST PUSH2 0x19B7 SWAP1 PUSH1 0x3C PUSH2 0x3A51 JUMP JUMPDEST SWAP1 POP DUP1 DUP3 GT ISZERO PUSH2 0x19C5 JUMPI DUP1 SWAP2 POP JUMPDEST PUSH5 0x139483200 DUP3 DUP5 DUP8 PUSH1 0x20 ADD MLOAD PUSH2 0x19DC SWAP2 SWAP1 PUSH2 0x3A51 JUMP JUMPDEST PUSH2 0x19E6 SWAP2 SWAP1 PUSH2 0x3A51 JUMP JUMPDEST PUSH2 0x19F0 SWAP2 SWAP1 PUSH2 0x3A68 JUMP JUMPDEST SWAP8 SWAP7 POP POP POP POP POP POP POP JUMP JUMPDEST PUSH2 0x1A03 PUSH2 0x1C6D JUMP JUMPDEST PUSH1 0x1 PUSH1 0x1 PUSH1 0xA0 SHL SUB DUP2 AND PUSH2 0x1A2C JUMPI PUSH1 0x40 MLOAD PUSH4 0x1E4FBDF7 PUSH1 0xE0 SHL DUP2 MSTORE PUSH0 PUSH1 0x4 DUP3 ADD MSTORE PUSH1 0x24 ADD PUSH2 0x3AE JUMP JUMPDEST PUSH2 0x1A35 DUP2 PUSH2 0x1CAD JUMP JUMPDEST POP JUMP JUMPDEST PUSH2 0x1A40 PUSH2 0x1C6D JUMP JUMPDEST PUSH1 0xC DUP1 SLOAD PUSH1 0x1 PUSH1 0x1 PUSH1 0xA0 SHL SUB NOT AND PUSH1 0x1 PUSH1 0x1 PUSH1 0xA0 SHL SUB SWAP3 SWAP1 SWAP3 AND SWAP2 SWAP1 SWAP2 OR SWAP1 SSTORE JUMP JUMPDEST PUSH1 0x1 PUSH1 0x1 PUSH1 0xA0 SHL SUB DUP4 AND PUSH2 0x1A8C JUMPI DUP1 PUSH1 0x2 PUSH0 DUP3 DUP3 SLOAD PUSH2 0x1A81 SWAP2 SWAP1 PUSH2 0x3A3E JUMP JUMPDEST SWAP1 SWAP2 SSTORE POP PUSH2 0x1AFC SWAP1 POP JUMP JUMPDEST PUSH1 0x1 PUSH1 0x1 PUSH1 0xA0 SHL SUB DUP4 AND PUSH0 SWAP1 DUP2 MSTORE PUSH1 0x20 DUP2 SWAP1 MSTORE PUSH1 0x40 SWAP1 KECCAK256 SLOAD DUP2 DUP2 LT ISZERO PUSH2 0x1ADE JUMPI PUSH1 0x40 MLOAD PUSH4 0x391434E3 PUSH1 0xE2 SHL DUP2 MSTORE PUSH1 0x1 PUSH1 0x1 PUSH1 0xA0 SHL SUB DUP6 AND PUSH1 0x4 DUP3 ADD MSTORE PUSH1 0x24 DUP2 ADD DUP3 SWAP1 MSTORE PUSH1 0x44 DUP2 ADD DUP4 SWAP1 MSTORE PUSH1 0x64 ADD PUSH2 0x3AE JUMP JUMPDEST PUSH1 0x1 PUSH1 0x1 PUSH1 0xA0 SHL SUB DUP5 AND PUSH0 SWAP1 DUP2 MSTORE PUSH1 0x20 DUP2 SWAP1 MSTORE PUSH1 0x40 SWAP1 KECCAK256 SWAP1 DUP3 SWAP1 SUB SWAP1 SSTORE JUMPDEST PUSH1 0x1 PUSH1 0x1 PUSH1 0xA0 SHL SUB DUP3 AND PUSH2 0x1B18 JUMPI PUSH1 0x2 DUP1 SLOAD DUP3 SWAP1 SUB SWAP1 SSTORE PUSH2 0x1B36 JUMP JUMPDEST PUSH1 0x1 PUSH1 0x1 PUSH1 0xA0 SHL SUB DUP3 AND PUSH0 SWAP1 DUP2 MSTORE PUSH1 0x20 DUP2 SWAP1 MSTORE PUSH1 0x40 SWAP1 KECCAK256 DUP1 SLOAD DUP3 ADD SWAP1 SSTORE JUMPDEST DUP2 PUSH1 0x1 PUSH1 0x1 PUSH1 0xA0 SHL SUB AND DUP4 PUSH1 0x1 PUSH1 0x1 PUSH1 0xA0 SHL SUB AND PUSH32 0xDDF252AD1BE2C89B69C2B068FC378DAA952BA7F163C4A11628F55A4DF523B3EF DUP4 PUSH1 0x40 MLOAD PUSH2 0x1B7B SWAP2 DUP2 MSTORE PUSH1 0x20 ADD SWAP1 JUMP JUMPDEST PUSH1 0x40 MLOAD DUP1 SWAP2 SUB SWAP1 LOG3 POP POP POP JUMP JUMPDEST PUSH2 0x1B95 DUP4 DUP4 DUP4 PUSH1 0x1 PUSH2 0x1CFE JUMP JUMPDEST POP POP POP JUMP JUMPDEST PUSH1 0x1 PUSH1 0x1 PUSH1 0xA0 SHL SUB DUP4 DUP2 AND PUSH0 SWAP1 DUP2 MSTORE PUSH1 0x1 PUSH1 0x20 SWAP1 DUP2 MSTORE PUSH1 0x40 DUP1 DUP4 KECCAK256 SWAP4 DUP7 AND DUP4 MSTORE SWAP3 SWAP1 MSTORE KECCAK256 SLOAD PUSH0 NOT DUP2 LT ISZERO PUSH2 0x1739 JUMPI DUP2 DUP2 LT ISZERO PUSH2 0x1C02 JUMPI PUSH1 0x40 MLOAD PUSH4 0x7DC7A0D9 PUSH1 0xE1 SHL DUP2 MSTORE PUSH1 0x1 PUSH1 0x1 PUSH1 0xA0 SHL SUB DUP5 AND PUSH1 0x4 DUP3 ADD MSTORE PUSH1 0x24 DUP2 ADD DUP3 SWAP1 MSTORE PUSH1 0x44 DUP2 ADD DUP4 SWAP1 MSTORE PUSH1 0x64 ADD PUSH2 0x3AE JUMP JUMPDEST PUSH2 0x1739 DUP5 DUP5 DUP5 DUP5 SUB PUSH0 PUSH2 0x1CFE JUMP JUMPDEST PUSH1 0x1 PUSH1 0x1 PUSH1 0xA0 SHL SUB DUP4 AND PUSH2 0x1C39 JUMPI PUSH1 0x40 MLOAD PUSH4 0x4B637E8F PUSH1 0xE1 SHL DUP2 MSTORE PUSH0 PUSH1 0x4 DUP3 ADD MSTORE PUSH1 0x24 ADD PUSH2 0x3AE JUMP JUMPDEST PUSH1 0x1 PUSH1 0x1 PUSH1 0xA0 SHL SUB DUP3 AND PUSH2 0x1C62 JUMPI PUSH1 0x40 MLOAD PUSH4 0xEC442F05 PUSH1 0xE0 SHL DUP2 MSTORE PUSH0 PUSH1 0x4 DUP3 ADD MSTORE PUSH1 0x24 ADD PUSH2 0x3AE JUMP JUMPDEST PUSH2 0x1B95 DUP4 DUP4 DUP4 PUSH2 0x1DD0 JUMP JUMPDEST PUSH1 0x5 SLOAD PUSH1 0x1 PUSH1 0x1 PUSH1 0xA0 SHL SUB AND CALLER EQ PUSH2 0x1599 JUMPI PUSH1 0x40 MLOAD PUSH4 0x118CDAA7 PUSH1 0xE0 SHL DUP2 MSTORE CALLER PUSH1 0x4 DUP3 ADD MSTORE PUSH1 0x24 ADD PUSH2 0x3AE JUMP JUMPDEST PUSH1 0x60 PUSH0 PUSH2 0x1CA6 DUP4 PUSH2 0x2811 JUMP JUMPDEST SWAP4 SWAP3 POP POP POP JUMP JUMPDEST PUSH1 0x5 DUP1 SLOAD PUSH1 0x1 PUSH1 0x1 PUSH1 0xA0 SHL SUB DUP4 DUP2 AND PUSH1 0x1 PUSH1 0x1 PUSH1 0xA0 SHL SUB NOT DUP4 AND DUP2 OR SWAP1 SWAP4 SSTORE PUSH1 0x40 MLOAD SWAP2 AND SWAP2 SWAP1 DUP3 SWAP1 PUSH32 0x8BE0079C531659141344CD1FD0A4F28419497F9722A3DAAFE3B4186F6B6457E0 SWAP1 PUSH0 SWAP1 LOG3 POP POP JUMP JUMPDEST PUSH1 0x1 PUSH1 0x1 PUSH1 0xA0 SHL SUB DUP5 AND PUSH2 0x1D27 JUMPI PUSH1 0x40 MLOAD PUSH4 0xE602DF05 PUSH1 0xE0 SHL DUP2 MSTORE PUSH0 PUSH1 0x4 DUP3 ADD MSTORE PUSH1 0x24 ADD PUSH2 0x3AE JUMP JUMPDEST PUSH1 0x1 PUSH1 0x1 PUSH1 0xA0 SHL SUB DUP4 AND PUSH2 0x1D50 JUMPI PUSH1 0x40 MLOAD PUSH4 0x4A1406B1 PUSH1 0xE1 SHL DUP2 MSTORE PUSH0 PUSH1 0x4 DUP3 ADD MSTORE PUSH1 0x24 ADD PUSH2 0x3AE JUMP JUMPDEST PUSH1 0x1 PUSH1 0x1 PUSH1 0xA0 SHL SUB DUP1 DUP6 AND PUSH0 SWAP1 DUP2 MSTORE PUSH1 0x1 PUSH1 0x20 SWAP1 DUP2 MSTORE PUSH1 0x40 DUP1 DUP4 KECCAK256 SWAP4 DUP8 AND DUP4 MSTORE SWAP3 SWAP1 MSTORE KECCAK256 DUP3 SWAP1 SSTORE DUP1 ISZERO PUSH2 0x1739 JUMPI DUP3 PUSH1 0x1 PUSH1 0x1 PUSH1 0xA0 SHL SUB AND DUP5 PUSH1 0x1 PUSH1 0x1 PUSH1 0xA0 SHL SUB AND PUSH32 0x8C5BE1E5EBEC7D5BD14F71427D1E84F3DD0314C0F7B2291E5B200AC8C7C3B925 DUP5 PUSH1 0x40 MLOAD PUSH2 0x1DC2 SWAP2 DUP2 MSTORE PUSH1 0x20 ADD SWAP1 JUMP JUMPDEST PUSH1 0x40 MLOAD DUP1 SWAP2 SUB SWAP1 LOG3 POP POP POP POP JUMP JUMPDEST PUSH8 0x1BC16D674EC80000 DUP2 EQ DUP1 ISZERO PUSH2 0x1E0C JUMPI POP PUSH1 0x1 PUSH1 0x1 PUSH1 0xA0 SHL SUB DUP1 DUP5 AND PUSH0 SWAP1 DUP2 MSTORE PUSH1 0x7 PUSH1 0x20 SWAP1 DUP2 MSTORE PUSH1 0x40 DUP1 DUP4 KECCAK256 SWAP4 DUP7 AND DUP4 MSTORE SWAP3 SWAP1 MSTORE KECCAK256 SLOAD PUSH1 0xFF AND ISZERO JUMPDEST ISZERO PUSH2 0x1E41 JUMPI PUSH1 0x1 PUSH1 0x1 PUSH1 0xA0 SHL SUB DUP1 DUP5 AND PUSH0 SWAP1 DUP2 MSTORE PUSH1 0x7 PUSH1 0x20 SWAP1 DUP2 MSTORE PUSH1 0x40 DUP1 DUP4 KECCAK256 SWAP4 DUP7 AND DUP4 MSTORE SWAP3 SWAP1 MSTORE KECCAK256 DUP1 SLOAD PUSH1 0xFF NOT AND PUSH1 0x1 OR SWAP1 SSTORE JUMPDEST PUSH8 0xDE0B6B3A7640000 DUP2 EQ DUP1 ISZERO PUSH2 0x1E7C JUMPI POP PUSH1 0x1 PUSH1 0x1 PUSH1 0xA0 SHL SUB DUP1 DUP4 AND PUSH0 SWAP1 DUP2 MSTORE PUSH1 0x7 PUSH1 0x20 SWAP1 DUP2 MSTORE PUSH1 0x40 DUP1 DUP4 KECCAK256 SWAP4 DUP8 AND DUP4 MSTORE SWAP3 SWAP1 MSTORE KECCAK256 SLOAD PUSH1 0xFF AND JUMPDEST DUP1 ISZERO PUSH2 0x1E9F JUMPI POP PUSH1 0x1 PUSH1 0x1 PUSH1 0xA0 SHL SUB DUP4 DUP2 AND PUSH0 SWAP1 DUP2 MSTORE PUSH1 0xA PUSH1 0x20 MSTORE PUSH1 0x40 SWAP1 KECCAK256 SLOAD AND ISZERO JUMPDEST ISZERO PUSH2 0x1F27 JUMPI PUSH1 0x1 PUSH1 0x1 PUSH1 0xA0 SHL SUB DUP4 DUP2 AND PUSH0 SWAP1 DUP2 MSTORE PUSH1 0xA PUSH1 0x20 SWAP1 DUP2 MSTORE PUSH1 0x40 DUP1 DUP4 KECCAK256 DUP1 SLOAD PUSH1 0x1 PUSH1 0x1 PUSH1 0xA0 SHL SUB NOT AND SWAP5 DUP8 AND SWAP5 DUP6 OR SWAP1 SSTORE SWAP3 DUP3 MSTORE PUSH1 0x8 SWAP1 MSTORE KECCAK256 PUSH2 0x1EE5 SWAP1 DUP5 PUSH2 0x286A JUMP JUMPDEST POP DUP3 PUSH1 0x1 PUSH1 0x1 PUSH1 0xA0 SHL SUB AND DUP3 PUSH1 0x1 PUSH1 0x1 PUSH1 0xA0 SHL SUB AND PUSH32 0x8D63F2E3D39EB6CF9C80D49BC203133F6F215CE2A1A3D27A68F0167F6C045D48 PUSH1 0x40 MLOAD PUSH1 0x40 MLOAD DUP1 SWAP2 SUB SWAP1 LOG3 JUMPDEST CALLER PUSH0 SWAP1 DUP2 MSTORE PUSH1 0x19 PUSH1 0x20 MSTORE PUSH1 0x40 SWAP1 KECCAK256 SLOAD ISZERO PUSH2 0x1FA5 JUMPI CALLER PUSH0 SWAP1 DUP2 MSTORE PUSH1 0x19 PUSH1 0x20 MSTORE PUSH1 0x40 SWAP1 KECCAK256 SLOAD PUSH2 0x1F56 SWAP1 PUSH1 0x3 SWAP1 PUSH2 0x3A3E JUMP JUMPDEST TIMESTAMP LT ISZERO PUSH2 0x1FA5 JUMPI PUSH1 0x40 MLOAD PUSH3 0x461BCD PUSH1 0xE5 SHL DUP2 MSTORE PUSH1 0x20 PUSH1 0x4 DUP3 ADD MSTORE PUSH1 0x1C PUSH1 0x24 DUP3 ADD MSTORE PUSH32 0x416E74692D666C6173686C6F616E3A20746F6F206672657175656E7400000000 PUSH1 0x44 DUP3 ADD MSTORE PUSH1 0x64 ADD PUSH2 0x3AE JUMP JUMPDEST CALLER PUSH0 DUP2 DUP2 MSTORE PUSH1 0x19 PUSH1 0x20 MSTORE PUSH1 0x40 SWAP1 KECCAK256 TIMESTAMP SWAP1 SSTORE PUSH1 0x1 PUSH1 0x1 PUSH1 0xA0 SHL SUB DUP5 AND EQ DUP1 ISZERO PUSH2 0x1FEC JUMPI POP PUSH1 0x1 PUSH1 0x1 PUSH1 0xA0 SHL SUB DUP4 AND PUSH0 SWAP1 DUP2 MSTORE PUSH1 0xA PUSH1 0x20 MSTORE PUSH1 0x40 SWAP1 KECCAK256 PUSH1 0x7 ADD SLOAD PUSH2 0x100 SWAP1 DIV PUSH1 0xFF AND JUMPDEST DUP1 ISZERO PUSH2 0x2000 JUMPI POP PUSH1 0x1 PUSH1 0x1 PUSH1 0xA0 SHL SUB DUP3 AND ADDRESS EQ JUMPDEST DUP1 ISZERO PUSH2 0x2013 JUMPI POP PUSH8 0xDE0B6B3A7640000 DUP2 EQ JUMPDEST ISZERO PUSH2 0x20D7 JUMPI PUSH1 0x10 SLOAD PUSH1 0x1 PUSH1 0xA0 SHL SWAP1 DIV PUSH1 0xFF AND ISZERO PUSH2 0x205A JUMPI PUSH1 0x40 MLOAD PUSH3 0x461BCD PUSH1 0xE5 SHL DUP2 MSTORE PUSH1 0x20 PUSH1 0x4 DUP3 ADD MSTORE PUSH1 0x5 PUSH1 0x24 DUP3 ADD MSTORE PUSH5 0x119D5CD959 PUSH1 0xDA SHL PUSH1 0x44 DUP3 ADD MSTORE PUSH1 0x64 ADD PUSH2 0x3AE JUMP JUMPDEST PUSH1 0x1 PUSH1 0x1 PUSH1 0xA0 SHL SUB DUP4 DUP2 AND PUSH0 SWAP1 DUP2 MSTORE PUSH1 0xA PUSH1 0x20 MSTORE PUSH1 0x40 SWAP1 KECCAK256 SLOAD AND ISZERO DUP1 ISZERO PUSH2 0x208F JUMPI POP PUSH1 0x16 SLOAD PUSH1 0x1 PUSH1 0x1 PUSH1 0xA0 SHL SUB DUP5 DUP2 AND SWAP2 AND EQ ISZERO JUMPDEST ISZERO PUSH2 0x20CE JUMPI PUSH1 0x40 MLOAD PUSH3 0x461BCD PUSH1 0xE5 SHL DUP2 MSTORE PUSH1 0x20 PUSH1 0x4 DUP3 ADD MSTORE PUSH1 0xF PUSH1 0x24 DUP3 ADD MSTORE PUSH15 0x135D5CDD08189A5B9908199A5C9CDD PUSH1 0x8A SHL PUSH1 0x44 DUP3 ADD MSTORE PUSH1 0x64 ADD PUSH2 0x3AE JUMP JUMPDEST PUSH2 0x1B95 DUP4 PUSH2 0x287E JUMP JUMPDEST CALLER PUSH1 0x1 PUSH1 0x1 PUSH1 0xA0 SHL SUB DUP5 AND EQ DUP1 ISZERO PUSH2 0x210E JUMPI POP PUSH1 0x1 PUSH1 0x1 PUSH1 0xA0 SHL SUB DUP4 AND PUSH0 SWAP1 DUP2 MSTORE PUSH1 0xA PUSH1 0x20 MSTORE PUSH1 0x40 SWAP1 KECCAK256 PUSH1 0x7 ADD SLOAD PUSH2 0x100 SWAP1 DIV PUSH1 0xFF AND JUMPDEST DUP1 ISZERO PUSH2 0x2122 JUMPI POP PUSH1 0x1 PUSH1 0x1 PUSH1 0xA0 SHL SUB DUP3 AND ADDRESS EQ JUMPDEST DUP1 ISZERO PUSH2 0x2135 JUMPI POP PUSH8 0x8AC7230489E80000 DUP2 EQ JUMPDEST ISZERO PUSH2 0x214E JUMPI PUSH2 0x2143 DUP4 PUSH2 0x2BCD JUMP JUMPDEST PUSH2 0x1B95 DUP4 DUP4 DUP4 PUSH2 0x1A62 JUMP JUMPDEST PUSH1 0x1 PUSH1 0x1 PUSH1 0xA0 SHL SUB DUP4 AND ADDRESS EQ DUP1 PUSH2 0x216D JUMPI POP PUSH1 0x1 PUSH1 0x1 PUSH1 0xA0 SHL SUB DUP3 AND ADDRESS EQ JUMPDEST DUP1 PUSH2 0x2185 JUMPI POP PUSH1 0x10 SLOAD PUSH1 0x1 PUSH1 0x1 PUSH1 0xA0 SHL SUB DUP5 DUP2 AND SWAP2 AND EQ JUMPDEST DUP1 PUSH2 0x219D JUMPI POP PUSH1 0x10 SLOAD PUSH1 0x1 PUSH1 0x1 PUSH1 0xA0 SHL SUB DUP4 DUP2 AND SWAP2 AND EQ JUMPDEST ISZERO PUSH2 0x21AD JUMPI PUSH2 0x1B95 DUP4 DUP4 DUP4 PUSH2 0x1A62 JUMP JUMPDEST PUSH1 0x6 SLOAD PUSH1 0x1 PUSH1 0x1 PUSH1 0xA0 SHL SUB SWAP1 DUP2 AND SWAP1 DUP5 AND SUB PUSH2 0x2409 JUMPI TIMESTAMP PUSH1 0x15 SLOAD LT PUSH2 0x2200 JUMPI PUSH1 0x40 MLOAD PUSH3 0x461BCD PUSH1 0xE5 SHL DUP2 MSTORE PUSH1 0x20 PUSH1 0x4 DUP3 ADD MSTORE PUSH1 0x9 PUSH1 0x24 DUP3 ADD MSTORE PUSH9 0x737461727454696D65 PUSH1 0xB8 SHL PUSH1 0x44 DUP3 ADD MSTORE PUSH1 0x64 ADD PUSH2 0x3AE JUMP JUMPDEST ORIGIN PUSH0 SWAP1 DUP2 MSTORE PUSH1 0x9 PUSH1 0x20 SWAP1 DUP2 MSTORE PUSH1 0x40 DUP1 DUP4 KECCAK256 TIMESTAMP SWAP1 DUP2 SWAP1 SSTORE PUSH1 0x18 SWAP1 SWAP3 MSTORE DUP3 KECCAK256 SSTORE PUSH2 0x2226 PUSH2 0x2DBE JUMP JUMPDEST GT ISZERO PUSH2 0x22FB JUMPI PUSH0 PUSH0 PUSH2 0x2236 PUSH2 0x1130 JUMP JUMPDEST SWAP1 POP PUSH12 0x33B2E3C9FD0803CE8000000 DUP2 LT PUSH2 0x2269 JUMPI PUSH1 0xA PUSH2 0x2258 DUP5 PUSH1 0x9 PUSH2 0x3A51 JUMP JUMPDEST PUSH2 0x2262 SWAP2 SWAP1 PUSH2 0x3A68 JUMP JUMPDEST SWAP2 POP PUSH2 0x22CB JUMP JUMPDEST PUSH12 0x19D971E4FE8401E74000000 DUP2 LT PUSH2 0x2289 JUMPI PUSH1 0xA PUSH2 0x2258 DUP5 PUSH1 0x6 PUSH2 0x3A51 JUMP JUMPDEST PUSH11 0x52B7D2DCC80CD2E4000000 DUP2 LT PUSH2 0x22A8 JUMPI PUSH1 0xA PUSH2 0x2258 DUP5 PUSH1 0x4 PUSH2 0x3A51 JUMP JUMPDEST PUSH11 0x295BE96E64066972000000 DUP2 LT PUSH2 0x22C7 JUMPI PUSH1 0xA PUSH2 0x2258 DUP5 PUSH1 0x2 PUSH2 0x3A51 JUMP JUMPDEST DUP3 SWAP2 POP JUMPDEST PUSH2 0x22D8 DUP6 PUSH2 0xDEAD DUP5 PUSH2 0x1A62 JUMP JUMPDEST DUP2 DUP4 GT ISZERO PUSH2 0x22F4 JUMPI PUSH2 0x22F4 DUP6 DUP6 PUSH2 0x22EF DUP6 DUP8 PUSH2 0x3D42 JUMP JUMPDEST PUSH2 0x1A62 JUMP JUMPDEST POP POP POP POP POP JUMP JUMPDEST PUSH1 0x64 PUSH2 0x2305 PUSH2 0x15B7 JUMP JUMPDEST PUSH2 0x2310 SWAP1 PUSH1 0x5 PUSH2 0x3A51 JUMP JUMPDEST PUSH2 0x231A SWAP2 SWAP1 PUSH2 0x3A68 JUMP JUMPDEST DUP2 LT PUSH2 0x2354 JUMPI PUSH1 0x40 MLOAD PUSH3 0x461BCD PUSH1 0xE5 SHL DUP2 MSTORE PUSH1 0x20 PUSH1 0x4 DUP3 ADD MSTORE PUSH1 0x9 PUSH1 0x24 DUP3 ADD MSTORE PUSH9 0x36B0BC103A37B5B2B7 PUSH1 0xB9 SHL PUSH1 0x44 DUP3 ADD MSTORE PUSH1 0x64 ADD PUSH2 0x3AE JUMP JUMPDEST PUSH0 PUSH2 0x2710 PUSH2 0x2364 DUP4 PUSH2 0x12C PUSH2 0x3A51 JUMP JUMPDEST PUSH2 0x236E SWAP2 SWAP1 PUSH2 0x3A68 JUMP JUMPDEST SWAP1 POP PUSH0 PUSH1 0x64 PUSH2 0x237E DUP4 PUSH1 0x46 PUSH2 0x3A51 JUMP JUMPDEST PUSH2 0x2388 SWAP2 SWAP1 PUSH2 0x3A68 JUMP JUMPDEST SWAP1 POP PUSH0 PUSH1 0x64 PUSH2 0x2398 DUP5 PUSH1 0xA PUSH2 0x3A51 JUMP JUMPDEST PUSH2 0x23A2 SWAP2 SWAP1 PUSH2 0x3A68 JUMP JUMPDEST SWAP1 POP PUSH0 DUP2 PUSH2 0x23B0 DUP5 DUP7 PUSH2 0x3D42 JUMP JUMPDEST PUSH2 0x23BA SWAP2 SWAP1 PUSH2 0x3D42 JUMP JUMPDEST SWAP1 POP DUP3 PUSH1 0x12 PUSH0 DUP3 DUP3 SLOAD PUSH2 0x23CD SWAP2 SWAP1 PUSH2 0x3A3E JUMP JUMPDEST SWAP1 SWAP2 SSTORE POP PUSH2 0x23E0 SWAP1 POP DUP8 PUSH2 0xDEAD DUP5 PUSH2 0x1A62 JUMP JUMPDEST PUSH1 0xD SLOAD PUSH2 0x23F8 SWAP1 DUP9 SWAP1 PUSH1 0x1 PUSH1 0x1 PUSH1 0xA0 SHL SUB AND DUP4 PUSH2 0x1A62 JUMP JUMPDEST PUSH2 0x2402 DUP5 DUP7 PUSH2 0x3D42 JUMP JUMPDEST SWAP5 POP POP POP POP POP JUMPDEST PUSH1 0x6 SLOAD PUSH1 0x1 PUSH1 0x1 PUSH1 0xA0 SHL SUB SWAP1 DUP2 AND SWAP1 DUP4 AND SUB PUSH2 0x270E JUMPI PUSH1 0x16 SLOAD PUSH1 0x1 PUSH1 0xA8 SHL SWAP1 DIV PUSH1 0xFF AND ISZERO PUSH2 0x24FC JUMPI PUSH1 0x6 SLOAD PUSH1 0x40 DUP1 MLOAD PUSH4 0x240BC6B PUSH1 0xE2 SHL DUP2 MSTORE SWAP1 MLOAD PUSH1 0x1 PUSH1 0x1 PUSH1 0xA0 SHL SUB SWAP1 SWAP3 AND SWAP2 PUSH0 SWAP2 DUP3 SWAP2 DUP5 SWAP2 PUSH4 0x902F1AC SWAP2 PUSH1 0x4 DUP1 DUP4 ADD SWAP3 PUSH1 0x60 SWAP3 SWAP2 SWAP1 DUP3 SWAP1 SUB ADD DUP2 DUP7 GAS STATICCALL ISZERO DUP1 ISZERO PUSH2 0x247E JUMPI RETURNDATASIZE PUSH0 PUSH0 RETURNDATACOPY RETURNDATASIZE PUSH0 REVERT JUMPDEST POP POP POP POP PUSH1 0x40 MLOAD RETURNDATASIZE PUSH1 0x1F NOT PUSH1 0x1F DUP3 ADD AND DUP3 ADD DUP1 PUSH1 0x40 MSTORE POP DUP2 ADD SWAP1 PUSH2 0x24A2 SWAP2 SWAP1 PUSH2 0x3CDB JUMP JUMPDEST POP SWAP2 POP SWAP2 POP DUP2 PUSH1 0x1 PUSH1 0x1 PUSH1 0x70 SHL SUB AND PUSH0 EQ DUP1 ISZERO PUSH2 0x24C6 JUMPI POP PUSH1 0x1 PUSH1 0x1 PUSH1 0x70 SHL SUB DUP2 AND ISZERO JUMPDEST DUP1 ISZERO PUSH2 0x24DB JUMPI POP PUSH1 0x16 SLOAD PUSH1 0x1 PUSH1 0xA8 SHL SWAP1 DIV PUSH1 0xFF AND JUMPDEST ISZERO PUSH2 0x24F8 JUMPI PUSH1 0x16 DUP1 SLOAD PUSH1 0xFF PUSH1 0xA8 SHL NOT AND SWAP1 SSTORE PUSH2 0xE56 DUP7 DUP7 DUP7 PUSH2 0x1A62 JUMP JUMPDEST POP POP POP JUMPDEST PUSH2 0x2507 PUSH1 0xA TIMESTAMP PUSH2 0x3D42 JUMP JUMPDEST ORIGIN PUSH0 SWAP1 DUP2 MSTORE PUSH1 0x9 PUSH1 0x20 MSTORE PUSH1 0x40 SWAP1 KECCAK256 SLOAD LT PUSH2 0x2548 JUMPI PUSH1 0x40 MLOAD PUSH3 0x461BCD PUSH1 0xE5 SHL DUP2 MSTORE PUSH1 0x20 PUSH1 0x4 DUP3 ADD MSTORE PUSH1 0x2 PUSH1 0x24 DUP3 ADD MSTORE PUSH2 0x18D9 PUSH1 0xF2 SHL PUSH1 0x44 DUP3 ADD MSTORE PUSH1 0x64 ADD PUSH2 0x3AE JUMP JUMPDEST PUSH0 PUSH2 0x2552 DUP3 PUSH2 0x2F53 JUMP JUMPDEST GT PUSH2 0x270E JUMPI TIMESTAMP PUSH1 0x15 SLOAD LT PUSH2 0x2594 JUMPI PUSH1 0x40 MLOAD PUSH3 0x461BCD PUSH1 0xE5 SHL DUP2 MSTORE PUSH1 0x20 PUSH1 0x4 DUP3 ADD MSTORE PUSH1 0x9 PUSH1 0x24 DUP3 ADD MSTORE PUSH9 0x737461727454696D65 PUSH1 0xB8 SHL PUSH1 0x44 DUP3 ADD MSTORE PUSH1 0x64 ADD PUSH2 0x3AE JUMP JUMPDEST PUSH1 0x64 PUSH2 0x259E PUSH2 0x15B7 JUMP JUMPDEST PUSH2 0x25A9 SWAP1 PUSH1 0xA PUSH2 0x3A51 JUMP JUMPDEST PUSH2 0x25B3 SWAP2 SWAP1 PUSH2 0x3A68 JUMP JUMPDEST DUP2 LT PUSH2 0x25ED JUMPI PUSH1 0x40 MLOAD PUSH3 0x461BCD PUSH1 0xE5 SHL DUP2 MSTORE PUSH1 0x20 PUSH1 0x4 DUP3 ADD MSTORE PUSH1 0x9 PUSH1 0x24 DUP3 ADD MSTORE PUSH9 0x36B0BC103A37B5B2B7 PUSH1 0xB9 SHL PUSH1 0x44 DUP3 ADD MSTORE PUSH1 0x64 ADD PUSH2 0x3AE JUMP JUMPDEST PUSH2 0x12C PUSH0 PUSH2 0x2710 PUSH2 0x25FE DUP4 DUP6 PUSH2 0x3A51 JUMP JUMPDEST PUSH2 0x2608 SWAP2 SWAP1 PUSH2 0x3A68 JUMP JUMPDEST SWAP1 POP PUSH0 PUSH1 0x64 PUSH2 0x2618 DUP4 PUSH1 0x46 PUSH2 0x3A51 JUMP JUMPDEST PUSH2 0x2622 SWAP2 SWAP1 PUSH2 0x3A68 JUMP JUMPDEST SWAP1 POP PUSH0 PUSH1 0x64 PUSH2 0x2632 DUP5 PUSH1 0xA PUSH2 0x3A51 JUMP JUMPDEST PUSH2 0x263C SWAP2 SWAP1 PUSH2 0x3A68 JUMP JUMPDEST SWAP1 POP PUSH0 DUP2 PUSH2 0x264A DUP5 DUP7 PUSH2 0x3D42 JUMP JUMPDEST PUSH2 0x2654 SWAP2 SWAP1 PUSH2 0x3D42 JUMP JUMPDEST SWAP1 POP DUP3 PUSH1 0x12 PUSH0 DUP3 DUP3 SLOAD PUSH2 0x2667 SWAP2 SWAP1 PUSH2 0x3A3E JUMP JUMPDEST SWAP1 SWAP2 SSTORE POP PUSH2 0x267A SWAP1 POP DUP9 PUSH2 0xDEAD DUP5 PUSH2 0x1A62 JUMP JUMPDEST PUSH1 0xD SLOAD PUSH2 0x2692 SWAP1 DUP10 SWAP1 PUSH1 0x1 PUSH1 0x1 PUSH1 0xA0 SHL SUB AND DUP4 PUSH2 0x1A62 JUMP JUMPDEST PUSH2 0x12C DUP6 GT ISZERO PUSH2 0x26F4 JUMPI PUSH0 PUSH2 0x2710 PUSH2 0x26AC PUSH2 0x12C DUP9 PUSH2 0x3D42 JUMP JUMPDEST PUSH2 0x26B6 SWAP1 DUP10 PUSH2 0x3A51 JUMP JUMPDEST PUSH2 0x26C0 SWAP2 SWAP1 PUSH2 0x3A68 JUMP JUMPDEST SWAP1 POP PUSH2 0x26D2 DUP10 ADDRESS PUSH2 0x22EF PUSH1 0x2 DUP6 PUSH2 0x3A68 JUMP JUMPDEST PUSH2 0x26DD PUSH1 0x2 DUP3 PUSH2 0x3A68 JUMP JUMPDEST PUSH1 0x12 PUSH0 DUP3 DUP3 SLOAD PUSH2 0x26ED SWAP2 SWAP1 PUSH2 0x3A3E JUMP JUMPDEST SWAP1 SWAP2 SSTORE POP POP POP JUMPDEST PUSH2 0x26FE DUP5 DUP8 PUSH2 0x3D42 JUMP JUMPDEST SWAP6 POP PUSH2 0x2708 PUSH2 0x3168 JUMP JUMPDEST POP POP POP POP POP JUMPDEST PUSH0 PUSH1 0x1 PUSH1 0x1 PUSH1 0xA0 SHL SUB DUP4 AND ADDRESS EQ DUP1 PUSH2 0x2733 JUMPI POP PUSH1 0x6 SLOAD PUSH1 0x1 PUSH1 0x1 PUSH1 0xA0 SHL SUB DUP5 DUP2 AND SWAP2 AND EQ JUMPDEST DUP1 PUSH2 0x274B JUMPI POP PUSH1 0x10 SLOAD PUSH1 0x1 PUSH1 0x1 PUSH1 0xA0 SHL SUB DUP5 DUP2 AND SWAP2 AND EQ JUMPDEST SWAP1 POP DUP1 PUSH2 0x27FE JUMPI PUSH1 0x1 PUSH1 0x1 PUSH1 0xA0 SHL SUB DUP5 AND ADDRESS EQ DUP1 ISZERO PUSH2 0x2777 JUMPI POP PUSH1 0x5 SLOAD PUSH1 0x1 PUSH1 0x1 PUSH1 0xA0 SHL SUB DUP5 DUP2 AND SWAP2 AND EQ JUMPDEST PUSH2 0x27FE JUMPI PUSH11 0x295BE96E64066972000000 DUP3 PUSH2 0x27A6 DUP6 PUSH1 0x1 PUSH1 0x1 PUSH1 0xA0 SHL SUB AND PUSH0 SWAP1 DUP2 MSTORE PUSH1 0x20 DUP2 SWAP1 MSTORE PUSH1 0x40 SWAP1 KECCAK256 SLOAD SWAP1 JUMP JUMPDEST PUSH2 0x27B0 SWAP2 SWAP1 PUSH2 0x3A3E JUMP JUMPDEST GT ISZERO PUSH2 0x27FE JUMPI PUSH1 0x40 MLOAD PUSH3 0x461BCD PUSH1 0xE5 SHL DUP2 MSTORE PUSH1 0x20 PUSH1 0x4 DUP3 ADD DUP2 SWAP1 MSTORE PUSH1 0x24 DUP3 ADD MSTORE PUSH32 0x416E74692D7768616C653A206D617820686F6C64696E67206578636565646564 PUSH1 0x44 DUP3 ADD MSTORE PUSH1 0x64 ADD PUSH2 0x3AE JUMP JUMPDEST PUSH2 0x2806 PUSH2 0x1336 JUMP JUMPDEST PUSH2 0x1739 DUP5 DUP5 DUP5 PUSH2 0x1A62 JUMP JUMPDEST PUSH1 0x60 DUP2 PUSH0 ADD DUP1 SLOAD DUP1 PUSH1 0x20 MUL PUSH1 0x20 ADD PUSH1 0x40 MLOAD SWAP1 DUP2 ADD PUSH1 0x40 MSTORE DUP1 SWAP3 SWAP2 SWAP1 DUP2 DUP2 MSTORE PUSH1 0x20 ADD DUP3 DUP1 SLOAD DUP1 ISZERO PUSH2 0x285E JUMPI PUSH1 0x20 MUL DUP3 ADD SWAP2 SWAP1 PUSH0 MSTORE PUSH1 0x20 PUSH0 KECCAK256 SWAP1 JUMPDEST DUP2 SLOAD DUP2 MSTORE PUSH1 0x20 ADD SWAP1 PUSH1 0x1 ADD SWAP1 DUP1 DUP4 GT PUSH2 0x284A JUMPI JUMPDEST POP POP POP POP POP SWAP1 POP SWAP2 SWAP1 POP JUMP JUMPDEST PUSH0 PUSH2 0x1CA6 DUP4 PUSH1 0x1 PUSH1 0x1 PUSH1 0xA0 SHL SUB DUP5 AND PUSH2 0x3302 JUMP JUMPDEST PUSH1 0x17 SLOAD PUSH1 0x1 EQ PUSH2 0x28C2 JUMPI PUSH1 0x40 MLOAD PUSH3 0x461BCD PUSH1 0xE5 SHL DUP2 MSTORE PUSH1 0x20 PUSH1 0x4 DUP3 ADD MSTORE PUSH1 0xF PUSH1 0x24 DUP3 ADD MSTORE PUSH15 0x1499595B9D1C985B98DE51DD585C99 PUSH1 0x8A SHL PUSH1 0x44 DUP3 ADD MSTORE PUSH1 0x64 ADD PUSH2 0x3AE JUMP JUMPDEST PUSH1 0x2 PUSH1 0x17 SSTORE PUSH1 0x1 PUSH1 0x1 PUSH1 0xA0 SHL SUB DUP2 AND PUSH0 SWAP1 DUP2 MSTORE PUSH1 0xA PUSH1 0x20 MSTORE PUSH1 0x40 SWAP1 KECCAK256 PUSH1 0x7 DUP2 ADD SLOAD PUSH2 0x100 SWAP1 DIV PUSH1 0xFF AND PUSH2 0x292D JUMPI PUSH1 0x40 MLOAD PUSH3 0x461BCD PUSH1 0xE5 SHL DUP2 MSTORE PUSH1 0x20 PUSH1 0x4 DUP3 ADD MSTORE PUSH1 0x13 PUSH1 0x24 DUP3 ADD MSTORE PUSH19 0x155CD95C881A185CC81B9BDD08189BDD59DA1D PUSH1 0x6A SHL PUSH1 0x44 DUP3 ADD MSTORE PUSH1 0x64 ADD PUSH2 0x3AE JUMP JUMPDEST PUSH0 PUSH2 0x2936 PUSH2 0x1130 JUMP JUMPDEST SWAP1 POP PUSH0 PUSH11 0x52B7D2DCC80CD2E4000000 DUP3 LT ISZERO PUSH2 0x2954 JUMPI PUSH2 0x3E8 PUSH2 0x2958 JUMP JUMPDEST PUSH2 0x640 JUMPDEST SWAP1 POP PUSH0 PUSH11 0x52B7D2DCC80CD2E4000000 DUP4 LT ISZERO PUSH2 0x2975 JUMPI PUSH1 0xC8 PUSH2 0x2978 JUMP JUMPDEST PUSH1 0x7D JUMPDEST PUSH1 0x1 PUSH1 0x1 PUSH1 0xA0 SHL SUB DUP7 AND PUSH0 SWAP1 DUP2 MSTORE PUSH1 0x1A PUSH1 0x20 MSTORE PUSH1 0x40 DUP2 KECCAK256 SLOAD SWAP2 SWAP3 POP SWAP1 PUSH1 0x3C SWAP1 PUSH2 0x29A1 SWAP1 TIMESTAMP PUSH2 0x3D42 JUMP JUMPDEST PUSH2 0x29AB SWAP2 SWAP1 PUSH2 0x3A68 JUMP JUMPDEST SWAP1 POP PUSH0 PUSH2 0x29B9 DUP4 PUSH1 0x18 PUSH2 0x3A51 JUMP JUMPDEST PUSH2 0x29C4 SWAP1 PUSH1 0x3C PUSH2 0x3A51 JUMP JUMPDEST SWAP1 POP DUP1 DUP3 GT ISZERO PUSH2 0x29D2 JUMPI DUP1 SWAP2 POP JUMPDEST PUSH0 PUSH5 0x139483200 DUP4 DUP7 DUP10 PUSH1 0x1 ADD SLOAD PUSH2 0x29EA SWAP2 SWAP1 PUSH2 0x3A51 JUMP JUMPDEST PUSH2 0x29F4 SWAP2 SWAP1 PUSH2 0x3A51 JUMP JUMPDEST PUSH2 0x29FE SWAP2 SWAP1 PUSH2 0x3A68 JUMP JUMPDEST PUSH1 0x1 PUSH1 0x1 PUSH1 0xA0 SHL SUB DUP10 AND PUSH0 SWAP1 DUP2 MSTORE PUSH1 0x1B PUSH1 0x20 MSTORE PUSH1 0x40 DUP2 KECCAK256 SLOAD PUSH1 0x1 DUP11 ADD SLOAD SWAP3 SWAP4 POP SWAP2 PUSH2 0x2A2B SWAP1 PUSH1 0x3 SWAP1 PUSH2 0x3A51 JUMP JUMPDEST SWAP1 POP DUP1 PUSH2 0x2A38 DUP5 DUP5 PUSH2 0x3A3E JUMP JUMPDEST GT ISZERO PUSH2 0x2A4B JUMPI PUSH2 0x2A48 DUP3 DUP3 PUSH2 0x3D42 JUMP JUMPDEST SWAP3 POP JUMPDEST PUSH0 DUP4 GT PUSH2 0x2A9A JUMPI PUSH1 0x40 MLOAD PUSH3 0x461BCD PUSH1 0xE5 SHL DUP2 MSTORE PUSH1 0x20 PUSH1 0x4 DUP3 ADD MSTORE PUSH1 0x1A PUSH1 0x24 DUP3 ADD MSTORE PUSH32 0x4E6F207374617469632072657761726420617661696C61626C65000000000000 PUSH1 0x44 DUP3 ADD MSTORE PUSH1 0x64 ADD PUSH2 0x3AE JUMP JUMPDEST PUSH0 PUSH2 0x2AA6 PUSH1 0x2 DUP6 PUSH2 0x3A68 JUMP JUMPDEST SWAP1 POP PUSH0 PUSH2 0x2AB2 DUP3 PUSH2 0x334E JUMP JUMPDEST SWAP1 POP PUSH0 PUSH2 0x2ABE DUP3 PUSH2 0x348A JUMP JUMPDEST SWAP1 POP PUSH2 0x2ACB ADDRESS DUP15 DUP5 PUSH2 0x1A62 JUMP JUMPDEST PUSH1 0x6 SLOAD PUSH1 0x40 MLOAD PUSH4 0xA9059CBB PUSH1 0xE0 SHL DUP2 MSTORE PUSH1 0x1 PUSH1 0x1 PUSH1 0xA0 SHL SUB DUP16 DUP2 AND PUSH1 0x4 DUP4 ADD MSTORE PUSH1 0x24 DUP3 ADD DUP5 SWAP1 MSTORE SWAP1 SWAP2 AND SWAP1 PUSH4 0xA9059CBB SWAP1 PUSH1 0x44 ADD PUSH1 0x20 PUSH1 0x40 MLOAD DUP1 DUP4 SUB DUP2 PUSH0 DUP8 GAS CALL ISZERO DUP1 ISZERO PUSH2 0x2B1B JUMPI RETURNDATASIZE PUSH0 PUSH0 RETURNDATACOPY RETURNDATASIZE PUSH0 REVERT JUMPDEST POP POP POP POP PUSH1 0x40 MLOAD RETURNDATASIZE PUSH1 0x1F NOT PUSH1 0x1F DUP3 ADD AND DUP3 ADD DUP1 PUSH1 0x40 MSTORE POP DUP2 ADD SWAP1 PUSH2 0x2B3F SWAP2 SWAP1 PUSH2 0x3D6C JUMP JUMPDEST POP PUSH1 0x1 PUSH1 0x1 PUSH1 0xA0 SHL SUB DUP14 AND PUSH0 SWAP1 DUP2 MSTORE PUSH1 0x1B PUSH1 0x20 MSTORE PUSH1 0x40 DUP2 KECCAK256 DUP1 SLOAD DUP9 SWAP3 SWAP1 PUSH2 0x2B67 SWAP1 DUP5 SWAP1 PUSH2 0x3A3E JUMP JUMPDEST SWAP1 SWAP2 SSTORE POP PUSH2 0x2B76 SWAP1 POP DUP14 PUSH2 0x3866 JUMP JUMPDEST DUP13 PUSH1 0x1 PUSH1 0x1 PUSH1 0xA0 SHL SUB AND PUSH32 0xECDC6E126990404A0972CA032FDF15B518A92AE33E366E89BF5E503CEAB6518F DUP8 PUSH1 0x40 MLOAD PUSH2 0x2BB1 SWAP2 DUP2 MSTORE PUSH1 0x20 ADD SWAP1 JUMP JUMPDEST PUSH1 0x40 MLOAD DUP1 SWAP2 SUB SWAP1 LOG2 POP POP PUSH1 0x1 PUSH1 0x17 SSTORE POP POP POP POP POP POP POP POP POP POP POP JUMP JUMPDEST PUSH1 0x1 PUSH1 0x1 PUSH1 0xA0 SHL SUB DUP2 AND PUSH0 SWAP1 DUP2 MSTORE PUSH1 0xA PUSH1 0x20 MSTORE PUSH1 0x40 SWAP1 KECCAK256 PUSH1 0x2 DUP2 ADD SLOAD PUSH2 0x2C1D JUMPI PUSH1 0x40 MLOAD PUSH3 0x461BCD PUSH1 0xE5 SHL DUP2 MSTORE PUSH1 0x20 PUSH1 0x4 DUP3 ADD MSTORE PUSH1 0x5 PUSH1 0x24 DUP3 ADD MSTORE PUSH5 0x4E6F204C5 PUSH1 0xDC SHL PUSH1 0x44 DUP3 ADD MSTORE PUSH1 0x64 ADD PUSH2 0x3AE JUMP JUMPDEST PUSH0 PUSH2 0x2C26 PUSH2 0x1130 JUMP JUMPDEST SWAP1 POP PUSH0 PUSH11 0x52B7D2DCC80CD2E4000000 DUP3 LT ISZERO PUSH2 0x2C44 JUMPI PUSH2 0x7D0 PUSH2 0x2C48 JUMP JUMPDEST PUSH2 0x1388 JUMPDEST PUSH2 0xFFFF AND SWAP1 POP PUSH0 PUSH2 0x2710 DUP3 DUP6 PUSH1 0x2 ADD SLOAD PUSH2 0x2C62 SWAP2 SWAP1 PUSH2 0x3A51 JUMP JUMPDEST PUSH2 0x2C6C SWAP2 SWAP1 PUSH2 0x3A68 JUMP JUMPDEST SWAP1 POP PUSH0 DUP2 DUP6 PUSH1 0x2 ADD SLOAD PUSH2 0x2C7F SWAP2 SWAP1 PUSH2 0x3D42 JUMP JUMPDEST SWAP1 POP DUP2 ISZERO PUSH2 0x2CFB JUMPI PUSH1 0x6 SLOAD PUSH1 0x40 MLOAD PUSH4 0xA9059CBB PUSH1 0xE0 SHL DUP2 MSTORE ADDRESS PUSH1 0x4 DUP3 ADD MSTORE PUSH1 0x24 DUP2 ADD DUP5 SWAP1 MSTORE PUSH1 0x1 PUSH1 0x1 PUSH1 0xA0 SHL SUB SWAP1 SWAP2 AND SWAP1 PUSH4 0xA9059CBB SWAP1 PUSH1 0x44 ADD PUSH1 0x20 PUSH1 0x40 MLOAD DUP1 DUP4 SUB DUP2 PUSH0 DUP8 GAS CALL ISZERO DUP1 ISZERO PUSH2 0x2CD5 JUMPI RETURNDATASIZE PUSH0 PUSH0 RETURNDATACOPY RETURNDATASIZE PUSH0 REVERT JUMPDEST POP POP POP POP PUSH1 0x40 MLOAD RETURNDATASIZE PUSH1 0x1F NOT PUSH1 0x1F DUP3 ADD AND DUP3 ADD DUP1 PUSH1 0x40 MSTORE POP DUP2 ADD SWAP1 PUSH2 0x2CF9 SWAP2 SWAP1 PUSH2 0x3D6C JUMP JUMPDEST POP JUMPDEST DUP1 ISZERO PUSH2 0x2D77 JUMPI PUSH1 0x6 SLOAD PUSH1 0x40 MLOAD PUSH4 0xA9059CBB PUSH1 0xE0 SHL DUP2 MSTORE PUSH1 0x1 PUSH1 0x1 PUSH1 0xA0 SHL SUB DUP9 DUP2 AND PUSH1 0x4 DUP4 ADD MSTORE PUSH1 0x24 DUP3 ADD DUP5 SWAP1 MSTORE SWAP1 SWAP2 AND SWAP1 PUSH4 0xA9059CBB SWAP1 PUSH1 0x44 ADD PUSH1 0x20 PUSH1 0x40 MLOAD DUP1 DUP4 SUB DUP2 PUSH0 DUP8 GAS CALL ISZERO DUP1 ISZERO PUSH2 0x2D51 JUMPI RETURNDATASIZE PUSH0 PUSH0 RETURNDATACOPY RETURNDATASIZE PUSH0 REVERT JUMPDEST POP POP POP POP PUSH1 0x40 MLOAD RETURNDATASIZE PUSH1 0x1F NOT PUSH1 0x1F DUP3 ADD AND DUP3 ADD DUP1 PUSH1 0x40 MSTORE POP DUP2 ADD SWAP1 PUSH2 0x2D75 SWAP2 SWAP1 PUSH2 0x3D6C JUMP JUMPDEST POP JUMPDEST POP POP PUSH0 PUSH1 0x2 DUP5 ADD DUP2 SWAP1 SSTORE PUSH1 0x1 DUP5 ADD DUP2 SWAP1 SSTORE PUSH1 0x7 SWAP1 SWAP4 ADD DUP1 SLOAD PUSH2 0xFFFF NOT AND SWAP1 SSTORE POP POP PUSH1 0x1 PUSH1 0x1 PUSH1 0xA0 SHL SUB SWAP1 SWAP2 AND DUP2 MSTORE PUSH1 0x1A PUSH1 0x20 SWAP1 DUP2 MSTORE PUSH1 0x40 DUP1 DUP4 KECCAK256 DUP4 SWAP1 SSTORE PUSH1 0x1B SWAP1 SWAP2 MSTORE DUP2 KECCAK256 SSTORE JUMP JUMPDEST PUSH0 PUSH0 PUSH1 0x6 PUSH0 SWAP1 SLOAD SWAP1 PUSH2 0x100 EXP SWAP1 DIV PUSH1 0x1 PUSH1 0x1 PUSH1 0xA0 SHL SUB AND PUSH1 0x1 PUSH1 0x1 PUSH1 0xA0 SHL SUB AND PUSH4 0x902F1AC PUSH1 0x40 MLOAD DUP2 PUSH4 0xFFFFFFFF AND PUSH1 0xE0 SHL DUP2 MSTORE PUSH1 0x4 ADD PUSH1 0x60 PUSH1 0x40 MLOAD DUP1 DUP4 SUB DUP2 DUP7 GAS STATICCALL ISZERO DUP1 ISZERO PUSH2 0x2E10 JUMPI RETURNDATASIZE PUSH0 PUSH0 RETURNDATACOPY RETURNDATASIZE PUSH0 REVERT JUMPDEST POP POP POP POP PUSH1 0x40 MLOAD RETURNDATASIZE PUSH1 0x1F NOT PUSH1 0x1F DUP3 ADD AND DUP3 ADD DUP1 PUSH1 0x40 MSTORE POP DUP2 ADD SWAP1 PUSH2 0x2E34 SWAP2 SWAP1 PUSH2 0x3CDB JUMP JUMPDEST POP POP PUSH1 0xB SLOAD PUSH1 0x6 SLOAD PUSH1 0x40 MLOAD PUSH4 0x70A08231 PUSH1 0xE0 SHL DUP2 MSTORE PUSH1 0x1 PUSH1 0x1 PUSH1 0xA0 SHL SUB SWAP2 DUP3 AND PUSH1 0x4 DUP3 ADD MSTORE PUSH1 0x1 PUSH1 0x1 PUSH1 0x70 SHL SUB SWAP4 SWAP1 SWAP4 AND SWAP4 POP PUSH0 SWAP3 SWAP2 AND SWAP1 PUSH4 0x70A08231 SWAP1 PUSH1 0x24 ADD PUSH1 0x20 PUSH1 0x40 MLOAD DUP1 DUP4 SUB DUP2 DUP7 GAS STATICCALL ISZERO DUP1 ISZERO PUSH2 0x2E90 JUMPI RETURNDATASIZE PUSH0 PUSH0 RETURNDATACOPY RETURNDATASIZE PUSH0 REVERT JUMPDEST POP POP POP POP PUSH1 0x40 MLOAD RETURNDATASIZE PUSH1 0x1F NOT PUSH1 0x1F DUP3 ADD AND DUP3 ADD DUP1 PUSH1 0x40 MSTORE POP DUP2 ADD SWAP1 PUSH2 0x2EB4 SWAP2 SWAP1 PUSH2 0x3D55 JUMP JUMPDEST SWAP1 POP DUP1 DUP3 GT ISZERO PUSH2 0x2F4E JUMPI PUSH1 0x6 SLOAD PUSH1 0x40 DUP1 MLOAD PUSH4 0x18160DDD PUSH1 0xE0 SHL DUP2 MSTORE SWAP1 MLOAD PUSH0 SWAP3 PUSH1 0x1 PUSH1 0x1 PUSH1 0xA0 SHL SUB AND SWAP2 PUSH4 0x18160DDD SWAP2 PUSH1 0x4 DUP1 DUP4 ADD SWAP3 PUSH1 0x20 SWAP3 SWAP2 SWAP1 DUP3 SWAP1 SUB ADD DUP2 DUP7 GAS STATICCALL ISZERO DUP1 ISZERO PUSH2 0x2F05 JUMPI RETURNDATASIZE PUSH0 PUSH0 RETURNDATACOPY RETURNDATASIZE PUSH0 REVERT JUMPDEST POP POP POP POP PUSH1 0x40 MLOAD RETURNDATASIZE PUSH1 0x1F NOT PUSH1 0x1F DUP3 ADD AND DUP3 ADD DUP1 PUSH1 0x40 MSTORE POP DUP2 ADD SWAP1 PUSH2 0x2F29 SWAP2 SWAP1 PUSH2 0x3D55 JUMP JUMPDEST SWAP1 POP DUP2 PUSH2 0x2F36 DUP2 DUP6 PUSH2 0x3D42 JUMP JUMPDEST PUSH2 0x2F40 SWAP1 DUP4 PUSH2 0x3A51 JUMP JUMPDEST PUSH2 0x2F4A SWAP2 SWAP1 PUSH2 0x3A68 JUMP JUMPDEST SWAP4 POP POP JUMPDEST POP POP SWAP1 JUMP JUMPDEST PUSH0 PUSH1 0x1 PUSH1 0x1 PUSH1 0xA0 SHL SUB PUSH32 0x0 AND CALLER SUB PUSH2 0x3163 JUMPI PUSH0 PUSH0 PUSH1 0x6 PUSH0 SWAP1 SLOAD SWAP1 PUSH2 0x100 EXP SWAP1 DIV PUSH1 0x1 PUSH1 0x1 PUSH1 0xA0 SHL SUB AND PUSH1 0x1 PUSH1 0x1 PUSH1 0xA0 SHL SUB AND PUSH4 0x902F1AC PUSH1 0x40 MLOAD DUP2 PUSH4 0xFFFFFFFF AND PUSH1 0xE0 SHL DUP2 MSTORE PUSH1 0x4 ADD PUSH1 0x60 PUSH1 0x40 MLOAD DUP1 DUP4 SUB DUP2 DUP7 GAS STATICCALL ISZERO DUP1 ISZERO PUSH2 0x2FD6 JUMPI RETURNDATASIZE PUSH0 PUSH0 RETURNDATACOPY RETURNDATASIZE PUSH0 REVERT JUMPDEST POP POP POP POP PUSH1 0x40 MLOAD RETURNDATASIZE PUSH1 0x1F NOT PUSH1 0x1F DUP3 ADD AND DUP3 ADD DUP1 PUSH1 0x40 MSTORE POP DUP2 ADD SWAP1 PUSH2 0x2FFA SWAP2 SWAP1 PUSH2 0x3CDB JUMP JUMPDEST POP PUSH1 0xB SLOAD PUSH1 0x6 SLOAD PUSH1 0x40 MLOAD PUSH4 0x70A08231 PUSH1 0xE0 SHL DUP2 MSTORE PUSH1 0x1 PUSH1 0x1 PUSH1 0xA0 SHL SUB SWAP2 DUP3 AND PUSH1 0x4 DUP3 ADD MSTORE PUSH1 0x1 PUSH1 0x1 PUSH1 0x70 SHL SUB SWAP5 DUP6 AND SWAP7 POP SWAP3 SWAP1 SWAP4 AND SWAP4 POP PUSH0 SWAP3 AND SWAP1 PUSH4 0x70A08231 SWAP1 PUSH1 0x24 ADD PUSH1 0x20 PUSH1 0x40 MLOAD DUP1 DUP4 SUB DUP2 DUP7 GAS STATICCALL ISZERO DUP1 ISZERO PUSH2 0x3059 JUMPI RETURNDATASIZE PUSH0 PUSH0 RETURNDATACOPY RETURNDATASIZE PUSH0 REVERT JUMPDEST POP POP POP POP PUSH1 0x40 MLOAD RETURNDATASIZE PUSH1 0x1F NOT PUSH1 0x1F DUP3 ADD AND DUP3 ADD DUP1 PUSH1 0x40 MSTORE POP DUP2 ADD SWAP1 PUSH2 0x307D SWAP2 SWAP1 PUSH2 0x3D55 JUMP JUMPDEST SWAP1 POP DUP3 DUP2 GT ISZERO PUSH2 0x315F JUMPI PUSH1 0x6 SLOAD PUSH1 0x40 DUP1 MLOAD PUSH4 0x18160DDD PUSH1 0xE0 SHL DUP2 MSTORE SWAP1 MLOAD PUSH0 SWAP3 PUSH1 0x1 PUSH1 0x1 PUSH1 0xA0 SHL SUB AND SWAP2 PUSH4 0x18160DDD SWAP2 PUSH1 0x4 DUP1 DUP4 ADD SWAP3 PUSH1 0x20 SWAP3 SWAP2 SWAP1 DUP3 SWAP1 SUB ADD DUP2 DUP7 GAS STATICCALL ISZERO DUP1 ISZERO PUSH2 0x30CE JUMPI RETURNDATASIZE PUSH0 PUSH0 RETURNDATACOPY RETURNDATASIZE PUSH0 REVERT JUMPDEST POP POP POP POP PUSH1 0x40 MLOAD RETURNDATASIZE PUSH1 0x1F NOT PUSH1 0x1F DUP3 ADD AND DUP3 ADD DUP1 PUSH1 0x40 MSTORE POP DUP2 ADD SWAP1 PUSH2 0x30F2 SWAP2 SWAP1 PUSH2 0x3D55 JUMP JUMPDEST SWAP1 POP DUP1 PUSH0 SUB PUSH2 0x3107 JUMPI POP PUSH1 0x1 SWAP6 SWAP5 POP POP POP POP POP JUMP JUMPDEST PUSH2 0x3112 DUP2 DUP4 DUP6 PUSH2 0x38B3 JUMP JUMPDEST PUSH2 0x311C SWAP1 DUP3 PUSH2 0x3A3E JUMP JUMPDEST SWAP1 POP PUSH2 0x315B DUP5 DUP3 PUSH2 0x312D DUP3 DUP7 PUSH2 0x3D42 JUMP JUMPDEST PUSH2 0x3137 SWAP2 SWAP1 PUSH2 0x3A51 JUMP JUMPDEST PUSH2 0x3141 SWAP2 SWAP1 PUSH2 0x3A68 JUMP JUMPDEST DUP5 PUSH2 0x314C DUP5 DUP11 PUSH2 0x3A51 JUMP JUMPDEST PUSH2 0x3156 SWAP2 SWAP1 PUSH2 0x3A68 JUMP JUMPDEST PUSH2 0x39A8 JUMP JUMPDEST SWAP5 POP POP JUMPDEST POP POP POP JUMPDEST SWAP2 SWAP1 POP JUMP JUMPDEST PUSH0 PUSH1 0x13 SLOAD PUSH1 0x12 SLOAD PUSH2 0x3179 SWAP2 SWAP1 PUSH2 0x3A3E JUMP JUMPDEST SWAP1 POP PUSH8 0xDE0B6B3A7640000 DUP2 LT ISZERO PUSH2 0x318E JUMPI POP JUMP JUMPDEST PUSH2 0x31B9 ADDRESS PUSH32 0x0 DUP4 PUSH2 0x1B88 JUMP JUMPDEST PUSH1 0x40 DUP1 MLOAD PUSH1 0x2 DUP1 DUP3 MSTORE PUSH1 0x60 DUP3 ADD DUP4 MSTORE PUSH0 SWAP3 PUSH1 0x20 DUP4 ADD SWAP1 DUP1 CALLDATASIZE DUP4 CALLDATACOPY ADD SWAP1 POP POP SWAP1 POP ADDRESS DUP2 PUSH0 DUP2 MLOAD DUP2 LT PUSH2 0x31EC JUMPI PUSH2 0x31EC PUSH2 0x3C20 JUMP JUMPDEST PUSH1 0x1 PUSH1 0x1 PUSH1 0xA0 SHL SUB SWAP3 DUP4 AND PUSH1 0x20 SWAP2 DUP3 MUL SWAP3 SWAP1 SWAP3 ADD ADD MSTORE PUSH1 0xB SLOAD DUP3 MLOAD SWAP2 AND SWAP1 DUP3 SWAP1 PUSH1 0x1 SWAP1 DUP2 LT PUSH2 0x321D JUMPI PUSH2 0x321D PUSH2 0x3C20 JUMP JUMPDEST PUSH1 0x1 PUSH1 0x1 PUSH1 0xA0 SHL SUB SWAP3 DUP4 AND PUSH1 0x20 SWAP2 DUP3 MUL SWAP3 SWAP1 SWAP3 ADD ADD MSTORE PUSH1 0x40 MLOAD PUSH4 0x791AC947 PUSH1 0xE0 SHL DUP2 MSTORE PUSH32 0x0 SWAP1 SWAP2 AND SWAP1 PUSH4 0x791AC947 SWAP1 PUSH2 0x3281 SWAP1 DUP6 SWAP1 PUSH0 SWAP1 DUP7 SWAP1 ADDRESS SWAP1 TIMESTAMP SWAP1 PUSH1 0x4 ADD PUSH2 0x3DA9 JUMP JUMPDEST PUSH0 PUSH1 0x40 MLOAD DUP1 DUP4 SUB DUP2 PUSH0 DUP8 DUP1 EXTCODESIZE ISZERO DUP1 ISZERO PUSH2 0x3298 JUMPI PUSH0 PUSH0 REVERT JUMPDEST POP GAS CALL ISZERO DUP1 ISZERO PUSH2 0x32AA JUMPI RETURNDATASIZE PUSH0 PUSH0 RETURNDATACOPY RETURNDATASIZE PUSH0 REVERT JUMPDEST POP POP PUSH1 0xE SLOAD PUSH1 0x13 SLOAD PUSH2 0x32DF SWAP4 POP PUSH1 0x1 PUSH1 0x1 PUSH1 0xA0 SHL SUB SWAP1 SWAP2 AND SWAP2 POP DUP5 SWAP1 PUSH2 0x32D0 SWAP1 SELFBALANCE PUSH2 0x3A51 JUMP JUMPDEST PUSH2 0x32DA SWAP2 SWAP1 PUSH2 0x3A68 JUMP JUMPDEST PUSH2 0xDEE JUMP JUMPDEST PUSH1 0xC SLOAD PUSH2 0x32F5 SWAP1 PUSH1 0x1 PUSH1 0x1 PUSH1 0xA0 SHL SUB AND SELFBALANCE PUSH2 0xDEE JUMP JUMPDEST POP POP PUSH0 PUSH1 0x12 DUP2 SWAP1 SSTORE PUSH1 0x13 SSTORE JUMP JUMPDEST PUSH0 DUP2 DUP2 MSTORE PUSH1 0x1 DUP4 ADD PUSH1 0x20 MSTORE PUSH1 0x40 DUP2 KECCAK256 SLOAD PUSH2 0x3347 JUMPI POP DUP2 SLOAD PUSH1 0x1 DUP2 DUP2 ADD DUP5 SSTORE PUSH0 DUP5 DUP2 MSTORE PUSH1 0x20 DUP1 DUP3 KECCAK256 SWAP1 SWAP4 ADD DUP5 SWAP1 SSTORE DUP5 SLOAD DUP5 DUP3 MSTORE DUP3 DUP7 ADD SWAP1 SWAP4 MSTORE PUSH1 0x40 SWAP1 KECCAK256 SWAP2 SWAP1 SWAP2 SSTORE PUSH2 0x112A JUMP JUMPDEST POP PUSH0 PUSH2 0x112A JUMP JUMPDEST PUSH1 0x40 DUP1 MLOAD PUSH1 0x2 DUP1 DUP3 MSTORE PUSH1 0x60 DUP3 ADD DUP4 MSTORE PUSH0 SWAP3 DUP4 SWAP3 SWAP2 SWAP1 PUSH1 0x20 DUP4 ADD SWAP1 DUP1 CALLDATASIZE DUP4 CALLDATACOPY POP POP PUSH1 0xB SLOAD DUP3 MLOAD SWAP3 SWAP4 POP PUSH1 0x1 PUSH1 0x1 PUSH1 0xA0 SHL SUB AND SWAP2 DUP4 SWAP2 POP PUSH0 SWAP1 PUSH2 0x3391 JUMPI PUSH2 0x3391 PUSH2 0x3C20 JUMP JUMPDEST PUSH1 0x20 MUL PUSH1 0x20 ADD ADD SWAP1 PUSH1 0x1 PUSH1 0x1 PUSH1 0xA0 SHL SUB AND SWAP1 DUP2 PUSH1 0x1 PUSH1 0x1 PUSH1 0xA0 SHL SUB AND DUP2 MSTORE POP POP ADDRESS DUP2 PUSH1 0x1 DUP2 MLOAD DUP2 LT PUSH2 0x33C5 JUMPI PUSH2 0x33C5 PUSH2 0x3C20 JUMP JUMPDEST PUSH1 0x1 PUSH1 0x1 PUSH1 0xA0 SHL SUB SWAP3 DUP4 AND PUSH1 0x20 SWAP2 DUP3 MUL SWAP3 SWAP1 SWAP3 ADD ADD MSTORE PUSH1 0x40 MLOAD PUSH4 0xD06CA61F PUSH1 0xE0 SHL DUP2 MSTORE PUSH0 SWAP2 PUSH32 0x0 AND SWAP1 PUSH4 0xD06CA61F SWAP1 PUSH2 0x3423 SWAP1 DUP8 SWAP1 DUP7 SWAP1 PUSH1 0x4 ADD PUSH2 0x3DE4 JUMP JUMPDEST PUSH0 PUSH1 0x40 MLOAD DUP1 DUP4 SUB DUP2 DUP7 GAS STATICCALL ISZERO DUP1 ISZERO PUSH2 0x343D JUMPI RETURNDATASIZE PUSH0 PUSH0 RETURNDATACOPY RETURNDATASIZE PUSH0 REVERT JUMPDEST POP POP POP POP PUSH1 0x40 MLOAD RETURNDATASIZE PUSH0 DUP3 RETURNDATACOPY PUSH1 0x1F RETURNDATASIZE SWAP1 DUP2 ADD PUSH1 0x1F NOT AND DUP3 ADD PUSH1 0x40 MSTORE PUSH2 0x3464 SWAP2 SWAP1 DUP2 ADD SWAP1 PUSH2 0x3E04 JUMP JUMPDEST SWAP1 POP DUP1 PUSH1 0x1 DUP2 MLOAD DUP2 LT PUSH2 0x3479 JUMPI PUSH2 0x3479 PUSH2 0x3C20 JUMP JUMPDEST PUSH1 0x20 MUL PUSH1 0x20 ADD ADD MLOAD SWAP3 POP POP POP SWAP2 SWAP1 POP JUMP JUMPDEST PUSH0 DUP1 PUSH2 0x3497 PUSH1 0x2 DUP5 PUSH2 0x3A68 JUMP JUMPDEST PUSH1 0x40 DUP1 MLOAD PUSH1 0x2 DUP1 DUP3 MSTORE PUSH1 0x60 DUP3 ADD DUP4 MSTORE SWAP3 SWAP4 POP PUSH0 SWAP3 SWAP1 SWAP2 PUSH1 0x20 DUP4 ADD SWAP1 DUP1 CALLDATASIZE DUP4 CALLDATACOPY ADD SWAP1 POP POP SWAP1 POP ADDRESS DUP2 PUSH0 DUP2 MLOAD DUP2 LT PUSH2 0x34CF JUMPI PUSH2 0x34CF PUSH2 0x3C20 JUMP JUMPDEST PUSH1 0x1 PUSH1 0x1 PUSH1 0xA0 SHL SUB SWAP3 DUP4 AND PUSH1 0x20 SWAP2 DUP3 MUL SWAP3 SWAP1 SWAP3 ADD ADD MSTORE PUSH1 0xB SLOAD DUP3 MLOAD SWAP2 AND SWAP1 DUP3 SWAP1 PUSH1 0x1 SWAP1 DUP2 LT PUSH2 0x3500 JUMPI PUSH2 0x3500 PUSH2 0x3C20 JUMP JUMPDEST PUSH1 0x1 PUSH1 0x1 PUSH1 0xA0 SHL SUB SWAP3 DUP4 AND PUSH1 0x20 SWAP2 DUP3 MUL SWAP3 SWAP1 SWAP3 ADD ADD MSTORE PUSH1 0x6 SLOAD PUSH2 0x3525 SWAP2 AND ADDRESS DUP7 PUSH2 0x1A62 JUMP JUMPDEST PUSH1 0x6 PUSH0 SWAP1 SLOAD SWAP1 PUSH2 0x100 EXP SWAP1 DIV PUSH1 0x1 PUSH1 0x1 PUSH1 0xA0 SHL SUB AND PUSH1 0x1 PUSH1 0x1 PUSH1 0xA0 SHL SUB AND PUSH4 0xFFF6CAE9 PUSH1 0x40 MLOAD DUP2 PUSH4 0xFFFFFFFF AND PUSH1 0xE0 SHL DUP2 MSTORE PUSH1 0x4 ADD PUSH0 PUSH1 0x40 MLOAD DUP1 DUP4 SUB DUP2 PUSH0 DUP8 DUP1 EXTCODESIZE ISZERO DUP1 ISZERO PUSH2 0x3571 JUMPI PUSH0 PUSH0 REVERT JUMPDEST POP GAS CALL ISZERO DUP1 ISZERO PUSH2 0x3583 JUMPI RETURNDATASIZE PUSH0 PUSH0 RETURNDATACOPY RETURNDATASIZE PUSH0 REVERT JUMPDEST POP POP POP POP PUSH2 0x35B2 ADDRESS PUSH32 0x0 DUP7 PUSH2 0x1B88 JUMP JUMPDEST PUSH1 0x10 SLOAD PUSH1 0x40 MLOAD PUSH4 0x5C11D795 PUSH1 0xE0 SHL DUP2 MSTORE PUSH1 0x1 PUSH1 0x1 PUSH1 0xA0 SHL SUB PUSH32 0x0 DUP2 AND SWAP3 PUSH4 0x5C11D795 SWAP3 PUSH2 0x360D SWAP3 DUP8 SWAP3 PUSH0 SWAP3 DUP9 SWAP3 SWAP2 SWAP1 SWAP2 AND SWAP1 TIMESTAMP SWAP1 PUSH1 0x4 ADD PUSH2 0x3DA9 JUMP JUMPDEST PUSH0 PUSH1 0x40 MLOAD DUP1 DUP4 SUB DUP2 PUSH0 DUP8 DUP1 EXTCODESIZE ISZERO DUP1 ISZERO PUSH2 0x3624 JUMPI PUSH0 PUSH0 REVERT JUMPDEST POP GAS CALL ISZERO DUP1 ISZERO PUSH2 0x3636 JUMPI RETURNDATASIZE PUSH0 PUSH0 RETURNDATACOPY RETURNDATASIZE PUSH0 REVERT JUMPDEST POP POP PUSH1 0xB SLOAD PUSH1 0x10 SLOAD PUSH1 0x40 MLOAD PUSH4 0x70A08231 PUSH1 0xE0 SHL DUP2 MSTORE PUSH1 0x1 PUSH1 0x1 PUSH1 0xA0 SHL SUB SWAP2 DUP3 AND PUSH1 0x4 DUP3 ADD MSTORE PUSH0 SWAP5 POP SWAP2 AND SWAP2 POP PUSH4 0x70A08231 SWAP1 PUSH1 0x24 ADD PUSH1 0x20 PUSH1 0x40 MLOAD DUP1 DUP4 SUB DUP2 DUP7 GAS STATICCALL ISZERO DUP1 ISZERO PUSH2 0x3686 JUMPI RETURNDATASIZE PUSH0 PUSH0 RETURNDATACOPY RETURNDATASIZE PUSH0 REVERT JUMPDEST POP POP POP POP PUSH1 0x40 MLOAD RETURNDATASIZE PUSH1 0x1F NOT PUSH1 0x1F DUP3 ADD AND DUP3 ADD DUP1 PUSH1 0x40 MSTORE POP DUP2 ADD SWAP1 PUSH2 0x36AA SWAP2 SWAP1 PUSH2 0x3D55 JUMP JUMPDEST PUSH1 0x10 SLOAD PUSH1 0xB SLOAD PUSH1 0x40 MLOAD PUSH4 0x92DFDB3 PUSH1 0xE1 SHL DUP2 MSTORE PUSH1 0x1 PUSH1 0x1 PUSH1 0xA0 SHL SUB SWAP2 DUP3 AND PUSH1 0x4 DUP3 ADD MSTORE ADDRESS PUSH1 0x24 DUP3 ADD MSTORE PUSH1 0x44 DUP2 ADD DUP5 SWAP1 MSTORE SWAP3 SWAP4 POP AND SWAP1 PUSH4 0x125BFB66 SWAP1 PUSH1 0x64 ADD PUSH0 PUSH1 0x40 MLOAD DUP1 DUP4 SUB DUP2 PUSH0 DUP8 DUP1 EXTCODESIZE ISZERO DUP1 ISZERO PUSH2 0x36FF JUMPI PUSH0 PUSH0 REVERT JUMPDEST POP GAS CALL ISZERO DUP1 ISZERO PUSH2 0x3711 JUMPI RETURNDATASIZE PUSH0 PUSH0 RETURNDATACOPY RETURNDATASIZE PUSH0 REVERT JUMPDEST POP POP PUSH1 0xB SLOAD PUSH1 0x40 MLOAD PUSH4 0x95EA7B3 PUSH1 0xE0 SHL DUP2 MSTORE PUSH1 0x1 PUSH1 0x1 PUSH1 0xA0 SHL SUB PUSH32 0x0 DUP2 AND PUSH1 0x4 DUP4 ADD MSTORE PUSH1 0x24 DUP3 ADD DUP7 SWAP1 MSTORE SWAP1 SWAP2 AND SWAP3 POP PUSH4 0x95EA7B3 SWAP2 POP PUSH1 0x44 ADD PUSH1 0x20 PUSH1 0x40 MLOAD DUP1 DUP4 SUB DUP2 PUSH0 DUP8 GAS CALL ISZERO DUP1 ISZERO PUSH2 0x3785 JUMPI RETURNDATASIZE PUSH0 PUSH0 RETURNDATACOPY RETURNDATASIZE PUSH0 REVERT JUMPDEST POP POP POP POP PUSH1 0x40 MLOAD RETURNDATASIZE PUSH1 0x1F NOT PUSH1 0x1F DUP3 ADD AND DUP3 ADD DUP1 PUSH1 0x40 MSTORE POP DUP2 ADD SWAP1 PUSH2 0x37A9 SWAP2 SWAP1 PUSH2 0x3D6C JUMP JUMPDEST POP PUSH1 0xB SLOAD PUSH1 0x40 MLOAD PUSH3 0xE8E337 PUSH1 0xE8 SHL DUP2 MSTORE PUSH1 0x1 PUSH1 0x1 PUSH1 0xA0 SHL SUB SWAP2 DUP3 AND PUSH1 0x4 DUP3 ADD MSTORE ADDRESS PUSH1 0x24 DUP3 ADD DUP2 SWAP1 MSTORE PUSH1 0x44 DUP3 ADD DUP5 SWAP1 MSTORE PUSH1 0x64 DUP3 ADD DUP7 SWAP1 MSTORE PUSH0 PUSH1 0x84 DUP4 ADD DUP2 SWAP1 MSTORE PUSH1 0xA4 DUP4 ADD MSTORE PUSH1 0xC4 DUP3 ADD MSTORE TIMESTAMP PUSH1 0xE4 DUP3 ADD MSTORE PUSH32 0x0 SWAP1 SWAP2 AND SWAP1 PUSH4 0xE8E33700 SWAP1 PUSH2 0x104 ADD PUSH1 0x60 PUSH1 0x40 MLOAD DUP1 DUP4 SUB DUP2 PUSH0 DUP8 GAS CALL ISZERO DUP1 ISZERO PUSH2 0x3842 JUMPI RETURNDATASIZE PUSH0 PUSH0 RETURNDATACOPY RETURNDATASIZE PUSH0 REVERT JUMPDEST POP POP POP POP PUSH1 0x40 MLOAD RETURNDATASIZE PUSH1 0x1F NOT PUSH1 0x1F DUP3 ADD AND DUP3 ADD DUP1 PUSH1 0x40 MSTORE POP DUP2 ADD SWAP1 PUSH2 0x19F0 SWAP2 SWAP1 PUSH2 0x3C68 JUMP JUMPDEST PUSH1 0x1 PUSH1 0x1 PUSH1 0xA0 SHL SUB DUP2 AND PUSH0 SWAP1 DUP2 MSTORE PUSH1 0x1C PUSH1 0x20 MSTORE PUSH1 0x40 SWAP1 KECCAK256 SLOAD DUP1 ISZERO PUSH2 0x388F JUMPI PUSH2 0x388F ADDRESS DUP4 DUP4 PUSH2 0x1A62 JUMP JUMPDEST POP PUSH1 0x1 PUSH1 0x1 PUSH1 0xA0 SHL SUB AND PUSH0 SWAP1 DUP2 MSTORE PUSH1 0x1C PUSH1 0x20 MSTORE PUSH1 0x40 SWAP1 KECCAK256 PUSH8 0xDE0B6B3A7640000 SWAP1 SSTORE JUMP JUMPDEST PUSH0 DUP1 PUSH2 0x38C7 PUSH2 0x38C2 DUP5 DUP7 PUSH2 0x3A51 JUMP JUMPDEST PUSH2 0x39BD JUMP JUMPDEST SWAP1 POP PUSH0 PUSH2 0x3941 PUSH1 0x6 PUSH0 SWAP1 SLOAD SWAP1 PUSH2 0x100 EXP SWAP1 DIV PUSH1 0x1 PUSH1 0x1 PUSH1 0xA0 SHL SUB AND PUSH1 0x1 PUSH1 0x1 PUSH1 0xA0 SHL SUB AND PUSH4 0x7464FC3D PUSH1 0x40 MLOAD DUP2 PUSH4 0xFFFFFFFF AND PUSH1 0xE0 SHL DUP2 MSTORE PUSH1 0x4 ADD PUSH1 0x20 PUSH1 0x40 MLOAD DUP1 DUP4 SUB DUP2 DUP7 GAS STATICCALL ISZERO DUP1 ISZERO PUSH2 0x391D JUMPI RETURNDATASIZE PUSH0 PUSH0 RETURNDATACOPY RETURNDATASIZE PUSH0 REVERT JUMPDEST POP POP POP POP PUSH1 0x40 MLOAD RETURNDATASIZE PUSH1 0x1F NOT PUSH1 0x1F DUP3 ADD AND DUP3 ADD DUP1 PUSH1 0x40 MSTORE POP DUP2 ADD SWAP1 PUSH2 0x38C2 SWAP2 SWAP1 PUSH2 0x3D55 JUMP JUMPDEST SWAP1 POP DUP1 DUP3 GT ISZERO PUSH2 0x399F JUMPI PUSH0 PUSH2 0x3956 DUP3 DUP5 PUSH2 0x3D42 JUMP JUMPDEST PUSH2 0x3960 SWAP1 DUP9 PUSH2 0x3A51 JUMP JUMPDEST PUSH2 0x396B SWAP1 PUSH1 0x8 PUSH2 0x3A51 JUMP JUMPDEST SWAP1 POP PUSH0 PUSH2 0x3979 DUP4 PUSH1 0x8 PUSH2 0x3A51 JUMP JUMPDEST PUSH2 0x3984 DUP6 PUSH1 0x11 PUSH2 0x3A51 JUMP JUMPDEST PUSH2 0x398E SWAP2 SWAP1 PUSH2 0x3A3E JUMP JUMPDEST SWAP1 POP PUSH2 0x399A DUP2 DUP4 PUSH2 0x3A68 JUMP JUMPDEST SWAP5 POP POP POP JUMPDEST POP POP SWAP4 SWAP3 POP POP POP JUMP JUMPDEST PUSH0 DUP2 DUP4 LT PUSH2 0x39B6 JUMPI DUP2 PUSH2 0x1CA6 JUMP JUMPDEST POP SWAP1 SWAP2 SWAP1 POP JUMP JUMPDEST PUSH0 PUSH1 0x3 DUP3 GT ISZERO PUSH2 0x3A1C JUMPI POP DUP1 PUSH0 PUSH2 0x39D5 PUSH1 0x2 DUP4 PUSH2 0x3A68 JUMP JUMPDEST PUSH2 0x39E0 SWAP1 PUSH1 0x1 PUSH2 0x3A3E JUMP JUMPDEST SWAP1 POP JUMPDEST DUP2 DUP2 LT ISZERO PUSH2 0x3A16 JUMPI SWAP1 POP DUP1 PUSH1 0x2 DUP2 PUSH2 0x39FB DUP2 DUP7 PUSH2 0x3A68 JUMP JUMPDEST PUSH2 0x3A05 SWAP2 SWAP1 PUSH2 0x3A3E JUMP JUMPDEST PUSH2 0x3A0F SWAP2 SWAP1 PUSH2 0x3A68 JUMP JUMPDEST SWAP1 POP PUSH2 0x39E3 JUMP JUMPDEST POP SWAP2 SWAP1 POP JUMP JUMPDEST DUP2 ISZERO PUSH2 0x3163 JUMPI POP PUSH1 0x1 SWAP2 SWAP1 POP JUMP JUMPDEST PUSH4 0x4E487B71 PUSH1 0xE0 SHL PUSH0 MSTORE PUSH1 0x11 PUSH1 0x4 MSTORE PUSH1 0x24 PUSH0 REVERT JUMPDEST DUP1 DUP3 ADD DUP1 DUP3 GT ISZERO PUSH2 0x112A JUMPI PUSH2 0x112A PUSH2 0x3A2A JUMP JUMPDEST DUP1 DUP3 MUL DUP2 ISZERO DUP3 DUP3 DIV DUP5 EQ OR PUSH2 0x112A JUMPI PUSH2 0x112A PUSH2 0x3A2A JUMP JUMPDEST PUSH0 DUP3 PUSH2 0x3A82 JUMPI PUSH4 0x4E487B71 PUSH1 0xE0 SHL PUSH0 MSTORE PUSH1 0x12 PUSH1 0x4 MSTORE PUSH1 0x24 PUSH0 REVERT JUMPDEST POP DIV SWAP1 JUMP JUMPDEST PUSH1 0x20 DUP2 MSTORE PUSH0 DUP3 MLOAD DUP1 PUSH1 0x20 DUP5 ADD MSTORE DUP1 PUSH1 0x20 DUP6 ADD PUSH1 0x40 DUP6 ADD MCOPY PUSH0 PUSH1 0x40 DUP3 DUP6 ADD ADD MSTORE PUSH1 0x40 PUSH1 0x1F NOT PUSH1 0x1F DUP4 ADD AND DUP5 ADD ADD SWAP2 POP POP SWAP3 SWAP2 POP POP JUMP JUMPDEST PUSH1 0x1 PUSH1 0x1 PUSH1 0xA0 SHL SUB DUP2 AND DUP2 EQ PUSH2 0x1A35 JUMPI PUSH0 PUSH0 REVERT JUMPDEST PUSH0 PUSH0 PUSH1 0x40 DUP4 DUP6 SUB SLT ISZERO PUSH2 0x3AE1 JUMPI PUSH0 PUSH0 REVERT JUMPDEST DUP3 CALLDATALOAD PUSH2 0x3AEC DUP2 PUSH2 0x3ABC JUMP JUMPDEST SWAP5 PUSH1 0x20 SWAP4 SWAP1 SWAP4 ADD CALLDATALOAD SWAP4 POP POP POP JUMP JUMPDEST PUSH0 PUSH1 0x20 DUP3 DUP5 SUB SLT ISZERO PUSH2 0x3B0A JUMPI PUSH0 PUSH0 REVERT JUMPDEST DUP2 CALLDATALOAD PUSH2 0x1CA6 DUP2 PUSH2 0x3ABC JUMP JUMPDEST PUSH0 PUSH1 0x20 DUP3 DUP5 SUB SLT ISZERO PUSH2 0x3B25 JUMPI PUSH0 PUSH0 REVERT JUMPDEST POP CALLDATALOAD SWAP2 SWAP1 POP JUMP JUMPDEST PUSH0 PUSH0 PUSH0 PUSH1 0x60 DUP5 DUP7 SUB SLT ISZERO PUSH2 0x3B3E JUMPI PUSH0 PUSH0 REVERT JUMPDEST DUP4 CALLDATALOAD PUSH2 0x3B49 DUP2 PUSH2 0x3ABC JUMP JUMPDEST SWAP3 POP PUSH1 0x20 DUP5 ADD CALLDATALOAD PUSH2 0x3B59 DUP2 PUSH2 0x3ABC JUMP JUMPDEST SWAP3 SWAP6 SWAP3 SWAP5 POP POP POP PUSH1 0x40 SWAP2 SWAP1 SWAP2 ADD CALLDATALOAD SWAP1 JUMP JUMPDEST PUSH0 DUP2 MLOAD DUP1 DUP5 MSTORE PUSH1 0x20 DUP5 ADD SWAP4 POP PUSH1 0x20 DUP4 ADD PUSH0 JUMPDEST DUP3 DUP2 LT ISZERO PUSH2 0x3BA3 JUMPI DUP2 MLOAD PUSH1 0x1 PUSH1 0x1 PUSH1 0xA0 SHL SUB AND DUP7 MSTORE PUSH1 0x20 SWAP6 DUP7 ADD SWAP6 SWAP1 SWAP2 ADD SWAP1 PUSH1 0x1 ADD PUSH2 0x3B7C JUMP JUMPDEST POP SWAP4 SWAP5 SWAP4 POP POP POP POP JUMP JUMPDEST PUSH1 0x20 DUP2 MSTORE PUSH0 PUSH2 0x1CA6 PUSH1 0x20 DUP4 ADD DUP5 PUSH2 0x3B6A JUMP JUMPDEST PUSH0 PUSH0 PUSH1 0x40 DUP4 DUP6 SUB SLT ISZERO PUSH2 0x3BD0 JUMPI PUSH0 PUSH0 REVERT JUMPDEST DUP3 CALLDATALOAD PUSH2 0x3BDB DUP2 PUSH2 0x3ABC JUMP JUMPDEST SWAP2 POP PUSH1 0x20 DUP4 ADD CALLDATALOAD PUSH2 0x3BEB DUP2 PUSH2 0x3ABC JUMP JUMPDEST DUP1 SWAP2 POP POP SWAP3 POP SWAP3 SWAP1 POP JUMP JUMPDEST PUSH4 0x4E487B71 PUSH1 0xE0 SHL PUSH0 MSTORE PUSH1 0x41 PUSH1 0x4 MSTORE PUSH1 0x24 PUSH0 REVERT JUMPDEST PUSH0 DUP3 MLOAD DUP1 PUSH1 0x20 DUP6 ADD DUP5 MCOPY PUSH0 SWAP3 ADD SWAP2 DUP3 MSTORE POP SWAP2 SWAP1 POP JUMP JUMPDEST PUSH4 0x4E487B71 PUSH1 0xE0 SHL PUSH0 MSTORE PUSH1 0x32 PUSH1 0x4 MSTORE PUSH1 0x24 PUSH0 REVERT JUMPDEST DUP5 DUP2 MSTORE PUSH1 0x80 PUSH1 0x20 DUP3 ADD MSTORE PUSH0 PUSH2 0x3C4C PUSH1 0x80 DUP4 ADD DUP7 PUSH2 0x3B6A JUMP JUMPDEST PUSH1 0x1 PUSH1 0x1 PUSH1 0xA0 SHL SUB SWAP5 SWAP1 SWAP5 AND PUSH1 0x40 DUP4 ADD MSTORE POP PUSH1 0x60 ADD MSTORE SWAP3 SWAP2 POP POP JUMP JUMPDEST PUSH0 PUSH0 PUSH0 PUSH1 0x60 DUP5 DUP7 SUB SLT ISZERO PUSH2 0x3C7A JUMPI PUSH0 PUSH0 REVERT JUMPDEST POP POP DUP2 MLOAD PUSH1 0x20 DUP4 ADD MLOAD PUSH1 0x40 SWAP1 SWAP4 ADD MLOAD SWAP1 SWAP5 SWAP3 SWAP4 POP SWAP2 SWAP1 POP JUMP JUMPDEST PUSH1 0x1 DUP2 DUP2 SHR SWAP1 DUP3 AND DUP1 PUSH2 0x3CA7 JUMPI PUSH1 0x7F DUP3 AND SWAP2 POP JUMPDEST PUSH1 0x20 DUP3 LT DUP2 SUB PUSH2 0x3A16 JUMPI PUSH4 0x4E487B71 PUSH1 0xE0 SHL PUSH0 MSTORE PUSH1 0x22 PUSH1 0x4 MSTORE PUSH1 0x24 PUSH0 REVERT JUMPDEST DUP1 MLOAD PUSH1 0x1 PUSH1 0x1 PUSH1 0x70 SHL SUB DUP2 AND DUP2 EQ PUSH2 0x3163 JUMPI PUSH0 PUSH0 REVERT JUMPDEST PUSH0 PUSH0 PUSH0 PUSH1 0x60 DUP5 DUP7 SUB SLT ISZERO PUSH2 0x3CED JUMPI PUSH0 PUSH0 REVERT JUMPDEST PUSH2 0x3CF6 DUP5 PUSH2 0x3CC5 JUMP JUMPDEST SWAP3 POP PUSH2 0x3D04 PUSH1 0x20 DUP6 ADD PUSH2 0x3CC5 JUMP JUMPDEST SWAP2 POP PUSH1 0x40 DUP5 ADD MLOAD PUSH4 0xFFFFFFFF DUP2 AND DUP2 EQ PUSH2 0x3D1C JUMPI PUSH0 PUSH0 REVERT JUMPDEST DUP1 SWAP2 POP POP SWAP3 POP SWAP3 POP SWAP3 JUMP JUMPDEST PUSH0 PUSH1 0x20 DUP3 DUP5 SUB SLT ISZERO PUSH2 0x3D37 JUMPI PUSH0 PUSH0 REVERT JUMPDEST DUP2 MLOAD PUSH2 0x1CA6 DUP2 PUSH2 0x3ABC JUMP JUMPDEST DUP2 DUP2 SUB DUP2 DUP2 GT ISZERO PUSH2 0x112A JUMPI PUSH2 0x112A PUSH2 0x3A2A JUMP JUMPDEST PUSH0 PUSH1 0x20 DUP3 DUP5 SUB SLT ISZERO PUSH2 0x3D65 JUMPI PUSH0 PUSH0 REVERT JUMPDEST POP MLOAD SWAP2 SWAP1 POP JUMP JUMPDEST PUSH0 PUSH1 0x20 DUP3 DUP5 SUB SLT ISZERO PUSH2 0x3D7C JUMPI PUSH0 PUSH0 REVERT JUMPDEST DUP2 MLOAD DUP1 ISZERO ISZERO DUP2 EQ PUSH2 0x1CA6 JUMPI PUSH0 PUSH0 REVERT JUMPDEST PUSH0 PUSH1 0xFF DUP3 AND PUSH1 0xFF DUP2 SUB PUSH2 0x3DA0 JUMPI PUSH2 0x3DA0 PUSH2 0x3A2A JUMP JUMPDEST PUSH1 0x1 ADD SWAP3 SWAP2 POP POP JUMP JUMPDEST DUP6 DUP2 MSTORE DUP5 PUSH1 0x20 DUP3 ADD MSTORE PUSH1 0xA0 PUSH1 0x40 DUP3 ADD MSTORE PUSH0 PUSH2 0x3DC7 PUSH1 0xA0 DUP4 ADD DUP7 PUSH2 0x3B6A JUMP JUMPDEST PUSH1 0x1 PUSH1 0x1 PUSH1 0xA0 SHL SUB SWAP5 SWAP1 SWAP5 AND PUSH1 0x60 DUP4 ADD MSTORE POP PUSH1 0x80 ADD MSTORE SWAP4 SWAP3 POP POP POP JUMP JUMPDEST DUP3 DUP2 MSTORE PUSH1 0x40 PUSH1 0x20 DUP3 ADD MSTORE PUSH0 PUSH2 0x3DFC PUSH1 0x40 DUP4 ADD DUP5 PUSH2 0x3B6A JUMP JUMPDEST SWAP5 SWAP4 POP POP POP POP JUMP JUMPDEST PUSH0 PUSH1 0x20 DUP3 DUP5 SUB SLT ISZERO PUSH2 0x3E14 JUMPI PUSH0 PUSH0 REVERT JUMPDEST DUP2 MLOAD PUSH8 0xFFFFFFFFFFFFFFFF DUP2 GT ISZERO PUSH2 0x3E2A JUMPI PUSH0 PUSH0 REVERT JUMPDEST DUP3 ADD PUSH1 0x1F DUP2 ADD DUP5 SGT PUSH2 0x3E3A JUMPI PUSH0 PUSH0 REVERT JUMPDEST DUP1 MLOAD PUSH8 0xFFFFFFFFFFFFFFFF DUP2 GT ISZERO PUSH2 0x3E54 JUMPI PUSH2 0x3E54 PUSH2 0x3BF6 JUMP JUMPDEST DUP1 PUSH1 0x5 SHL PUSH1 0x40 MLOAD PUSH1 0x1F NOT PUSH1 0x3F DUP4 ADD AND DUP2 ADD DUP2 DUP2 LT PUSH8 0xFFFFFFFFFFFFFFFF DUP3 GT OR ISZERO PUSH2 0x3E81 JUMPI PUSH2 0x3E81 PUSH2 0x3BF6 JUMP JUMPDEST PUSH1 0x40 MSTORE SWAP2 DUP3 MSTORE PUSH1 0x20 DUP2 DUP5 ADD DUP2 ADD SWAP3 SWAP1 DUP2 ADD DUP8 DUP5 GT ISZERO PUSH2 0x3E9E JUMPI PUSH0 PUSH0 REVERT JUMPDEST PUSH1 0x20 DUP6 ADD SWAP5 POP JUMPDEST DUP4 DUP6 LT ISZERO PUSH2 0x3EC1 JUMPI DUP5 MLOAD DUP1 DUP3 MSTORE PUSH1 0x20 SWAP6 DUP7 ADD SWAP6 SWAP1 SWAP4 POP ADD PUSH2 0x3EA5 JUMP JUMPDEST POP SWAP7 SWAP6 POP POP POP POP POP POP JUMP INVALID LOG2 PUSH5 0x6970667358 0x22 SLT KECCAK256 DUP7 AND CALLER PC PUSH18 0xE6F9F30AC33E736EF508C728E7B46C4E8E5F PUSH9 0x3C66BE05E72BF82B64 PUSH20 0x6F6C634300082200336080604052348015600E57 PUSH0 PUSH0 REVERT JUMPDEST POP CALLER PUSH0 SWAP1 DUP2 MSTORE PUSH1 0x20 DUP2 SWAP1 MSTORE PUSH1 0x40 SWAP1 KECCAK256 DUP1 SLOAD PUSH1 0xFF NOT AND PUSH1 0x1 OR SWAP1 SSTORE PUSH2 0x180 DUP1 PUSH2 0x35 PUSH0 CODECOPY PUSH0 RETURN INVALID PUSH1 0x80 PUSH1 0x40 MSTORE CALLVALUE DUP1 ISZERO PUSH2 0xF JUMPI PUSH0 PUSH0 REVERT JUMPDEST POP PUSH1 0x4 CALLDATASIZE LT PUSH2 0x29 JUMPI PUSH0 CALLDATALOAD PUSH1 0xE0 SHR DUP1 PUSH4 0x125BFB66 EQ PUSH2 0x2D JUMPI JUMPDEST PUSH0 PUSH0 REVERT JUMPDEST PUSH2 0x40 PUSH2 0x3B CALLDATASIZE PUSH1 0x4 PUSH2 0xEB JUMP JUMPDEST PUSH2 0x42 JUMP JUMPDEST STOP JUMPDEST CALLER PUSH0 SWAP1 DUP2 MSTORE PUSH1 0x20 DUP2 SWAP1 MSTORE PUSH1 0x40 SWAP1 KECCAK256 SLOAD PUSH1 0xFF AND ISZERO PUSH2 0xCB JUMPI PUSH1 0x40 MLOAD PUSH4 0xA9059CBB PUSH1 0xE0 SHL DUP2 MSTORE PUSH1 0x1 PUSH1 0x1 PUSH1 0xA0 SHL SUB DUP4 DUP2 AND PUSH1 0x4 DUP4 ADD MSTORE PUSH1 0x24 DUP3 ADD DUP4 SWAP1 MSTORE DUP5 AND SWAP1 PUSH4 0xA9059CBB SWAP1 PUSH1 0x44 ADD PUSH1 0x20 PUSH1 0x40 MLOAD DUP1 DUP4 SUB DUP2 PUSH0 DUP8 GAS CALL ISZERO DUP1 ISZERO PUSH2 0xA5 JUMPI RETURNDATASIZE PUSH0 PUSH0 RETURNDATACOPY RETURNDATASIZE PUSH0 REVERT JUMPDEST POP POP POP POP PUSH1 0x40 MLOAD RETURNDATASIZE PUSH1 0x1F NOT PUSH1 0x1F DUP3 ADD AND DUP3 ADD DUP1 PUSH1 0x40 MSTORE POP DUP2 ADD SWAP1 PUSH2 0xC9 SWAP2 SWAP1 PUSH2 0x124 JUMP JUMPDEST POP JUMPDEST POP POP POP JUMP JUMPDEST DUP1 CALLDATALOAD PUSH1 0x1 PUSH1 0x1 PUSH1 0xA0 SHL SUB DUP2 AND DUP2 EQ PUSH2 0xE6 JUMPI PUSH0 PUSH0 REVERT JUMPDEST SWAP2 SWAP1 POP JUMP JUMPDEST PUSH0 PUSH0 PUSH0 PUSH1 0x60 DUP5 DUP7 SUB SLT ISZERO PUSH2 0xFD JUMPI PUSH0 PUSH0 REVERT JUMPDEST PUSH2 0x106 DUP5 PUSH2 0xD0 JUMP JUMPDEST SWAP3 POP PUSH2 0x114 PUSH1 0x20 DUP6 ADD PUSH2 0xD0 JUMP JUMPDEST SWAP2 POP PUSH1 0x40 DUP5 ADD CALLDATALOAD SWAP1 POP SWAP3 POP SWAP3 POP SWAP3 JUMP JUMPDEST PUSH0 PUSH1 0x20 DUP3 DUP5 SUB SLT ISZERO PUSH2 0x134 JUMPI PUSH0 PUSH0 REVERT JUMPDEST DUP2 MLOAD DUP1 ISZERO ISZERO DUP2 EQ PUSH2 0x143 JUMPI PUSH0 PUSH0 REVERT JUMPDEST SWAP4 SWAP3 POP POP POP JUMP INVALID LOG2 PUSH5 0x6970667358 0x22 SLT KECCAK256 SGT 0xCE 0xD6 0xDC 0xC4 0x2B SWAP14 0x2C GAS 0xAF RETURNCONTRACT 0x24 PUSH27 0x3739B9673CB43B76A0376BE9CB7A50BB922FA264736F6C63430008 0x22 STOP CALLER "
		},
		"gasEstimates": {
			"creation": {
				"codeDepositCost": "3226000",
				"executionCost": "infinite",
				"totalCost": "infinite"
			},
			"external": {
				"COOLDOWN_TIME()": "285",
				"FUSE_THRESHOLD()": "2405",
				"MAX_HOLDING()": "261",
				"MIN_AMOUNT()": "2405",
				"MIN_TX_INTERVAL()": "329",
				"POOL_THRESHOLD()": "263",
				"STATIC_CAP_MULTIPLIER()": "285",
				"STATIC_DAILY_RATE_HIGH()": "284",
				"STATIC_DAILY_RATE_LOW()": "262",
				"STATIC_MAX_DAYS_HIGH()": "307",
				"STATIC_MAX_DAYS_LOW()": "262",
				"WBNB()": "2448",
				"_uniswapPair()": "2448",
				"_uniswapV2Router()": "infinite",
				"allowance(address,address)": "infinite",
				"approve(address,uint256)": "24797",
				"balanceOf(address)": "2642",
				"calculateRewardRates()": "infinite",
				"calculateStaticReward(address)": "infinite",
				"decimals()": "267",
				"feeAddress()": "2448",
				"fundAddress()": "2469",
				"fundRewardTotal()": "2407",
				"fused()": "2438",
				"fusing()": "infinite",
				"getCirculation()": "4648",
				"getDynamicRewardRate(uint256)": "604",
				"getPoolTokenAmount()": "infinite",
				"getUpsChildList(address)": "infinite",
				"isCanBindInviter(address,address)": "infinite",
				"isPriceDump()": "263",
				"lastBuyTime(address)": "2600",
				"lastClaimTokenAmount(address)": "2644",
				"lastTxTime(address)": "2601",
				"name()": "infinite",
				"nft()": "2426",
				"nftRewardTotal()": "2406",
				"nodes(uint256)": "4680",
				"owner()": "2420",
				"pool()": "2405",
				"preUps(address,address)": "infinite",
				"renounceOwnership()": "infinite",
				"sediment()": "infinite",
				"setNFT(address)": "26837",
				"setStartTime(uint256)": "24554",
				"setUniswapPair(address)": "26860",
				"startTime()": "2363",
				"staticStartTime(address)": "2621",
				"symbol()": "infinite",
				"totalStaticClaimed(address)": "2644",
				"totalSupply()": "2404",
				"transfer(address,uint256)": "infinite",
				"transferFrom(address,address,uint256)": "infinite",
				"transferOwnership(address)": "infinite",
				"users(address)": "17624",
				"usersBuyTime(address)": "2622",
				"validDirectCount(address)": "2578"
			},
			"internal": {
				"_returnLastToken(address)": "infinite",
				"_update(address,address,uint256)": "infinite",
				"_withdraw(address)": "infinite",
				"calculateDynamicReward(address,uint256)": "infinite",
				"distributeLPReward(uint256)": "infinite",
				"getBNBForTokenAmount(uint256)": "infinite",
				"getFeeLP(uint256,uint256,uint256)": "infinite",
				"isAddLiquidity(uint256)": "infinite",
				"isRemoveLiquidity()": "infinite",
				"min(uint256,uint256)": "60",
				"processStaticReward(address)": "infinite",
				"safeTransferETH(address,uint256)": "infinite",
				"sellFee()": "infinite",
				"sqrt(uint256)": "infinite",
				"swapAndAddLiquidity(uint256)": "infinite",
				"swapTokenAndAddLiquidity(uint256)": "infinite"
			}
		},
		"methodIdentifiers": {
			"COOLDOWN_TIME()": "7d263245",
			"FUSE_THRESHOLD()": "b4a2e463",
			"MAX_HOLDING()": "d108e2a6",
			"MIN_AMOUNT()": "ddbcb5fa",
			"MIN_TX_INTERVAL()": "1a8c1022",
			"POOL_THRESHOLD()": "29b80536",
			"STATIC_CAP_MULTIPLIER()": "212251a6",
			"STATIC_DAILY_RATE_HIGH()": "9c89ecbb",
			"STATIC_DAILY_RATE_LOW()": "228c3845",
			"STATIC_MAX_DAYS_HIGH()": "2225d3c4",
			"STATIC_MAX_DAYS_LOW()": "8d1057dc",
			"WBNB()": "8dd95002",
			"_uniswapPair()": "4bf28fd0",
			"_uniswapV2Router()": "583e0568",
			"allowance(address,address)": "dd62ed3e",
			"approve(address,uint256)": "095ea7b3",
			"balanceOf(address)": "70a08231",
			"calculateRewardRates()": "6d476a77",
			"calculateStaticReward(address)": "e8e8fe04",
			"decimals()": "313ce567",
			"feeAddress()": "41275358",
			"fundAddress()": "e82bef29",
			"fundRewardTotal()": "7f054455",
			"fused()": "2529d1a3",
			"fusing()": "47ab459c",
			"getCirculation()": "bf151cb8",
			"getDynamicRewardRate(uint256)": "3d471d57",
			"getPoolTokenAmount()": "09d46746",
			"getUpsChildList(address)": "440b30e7",
			"isCanBindInviter(address,address)": "d1227343",
			"isPriceDump()": "dbb4ef03",
			"lastBuyTime(address)": "3fecc2e2",
			"lastClaimTokenAmount(address)": "281f0b89",
			"lastTxTime(address)": "17d63605",
			"name()": "06fdde03",
			"nft()": "47ccca02",
			"nftRewardTotal()": "cca3c5ff",
			"nodes(uint256)": "1c53c280",
			"owner()": "8da5cb5b",
			"pool()": "16f0115b",
			"preUps(address,address)": "fd36e3c6",
			"renounceOwnership()": "715018a6",
			"sediment()": "c82c3cbf",
			"setNFT(address)": "f56e9c66",
			"setStartTime(uint256)": "3e0a322d",
			"setUniswapPair(address)": "d5aed6bf",
			"startTime()": "78e97925",
			"staticStartTime(address)": "d3eff2f1",
			"symbol()": "95d89b41",
			"totalStaticClaimed(address)": "942c9dd1",
			"totalSupply()": "18160ddd",
			"transfer(address,uint256)": "a9059cbb",
			"transferFrom(address,address,uint256)": "23b872dd",
			"transferOwnership(address)": "f2fde38b",
			"users(address)": "a87430ba",
			"usersBuyTime(address)": "a52ee3af",
			"validDirectCount(address)": "c2ae0f7a"
		}
	},
	"abi": [
		{
			"inputs": [
				{
					"internalType": "address",
					"name": "user_",
					"type": "address"
				},
				{
					"internalType": "address",
					"name": "fund_",
					"type": "address"
				},
				{
					"internalType": "address",
					"name": "fee_",
					"type": "address"
				}
			],
			"stateMutability": "nonpayable",
			"type": "constructor"
		},
		{
			"inputs": [
				{
					"internalType": "address",
					"name": "spender",
					"type": "address"
				},
				{
					"internalType": "uint256",
					"name": "allowance",
					"type": "uint256"
				},
				{
					"internalType": "uint256",
					"name": "needed",
					"type": "uint256"
				}
			],
			"name": "ERC20InsufficientAllowance",
			"type": "error"
		},
		{
			"inputs": [
				{
					"internalType": "address",
					"name": "sender",
					"type": "address"
				},
				{
					"internalType": "uint256",
					"name": "balance",
					"type": "uint256"
				},
				{
					"internalType": "uint256",
					"name": "needed",
					"type": "uint256"
				}
			],
			"name": "ERC20InsufficientBalance",
			"type": "error"
		},
		{
			"inputs": [
				{
					"internalType": "address",
					"name": "approver",
					"type": "address"
				}
			],
			"name": "ERC20InvalidApprover",
			"type": "error"
		},
		{
			"inputs": [
				{
					"internalType": "address",
					"name": "receiver",
					"type": "address"
				}
			],
			"name": "ERC20InvalidReceiver",
			"type": "error"
		},
		{
			"inputs": [
				{
					"internalType": "address",
					"name": "sender",
					"type": "address"
				}
			],
			"name": "ERC20InvalidSender",
			"type": "error"
		},
		{
			"inputs": [
				{
					"internalType": "address",
					"name": "spender",
					"type": "address"
				}
			],
			"name": "ERC20InvalidSpender",
			"type": "error"
		},
		{
			"inputs": [],
			"name": "InvalidTransfer",
			"type": "error"
		},
		{
			"inputs": [],
			"name": "NodeAlreadyExist",
			"type": "error"
		},
		{
			"inputs": [
				{
					"internalType": "address",
					"name": "owner",
					"type": "address"
				}
			],
			"name": "OwnableInvalidOwner",
			"type": "error"
		},
		{
			"inputs": [
				{
					"internalType": "address",
					"name": "account",
					"type": "address"
				}
			],
			"name": "OwnableUnauthorizedAccount",
			"type": "error"
		},
		{
			"anonymous": false,
			"inputs": [
				{
					"indexed": true,
					"internalType": "address",
					"name": "owner",
					"type": "address"
				},
				{
					"indexed": true,
					"internalType": "address",
					"name": "spender",
					"type": "address"
				},
				{
					"indexed": false,
					"internalType": "uint256",
					"name": "value",
					"type": "uint256"
				}
			],
			"name": "Approval",
			"type": "event"
		},
		{
			"anonymous": false,
			"inputs": [
				{
					"indexed": true,
					"internalType": "address",
					"name": "up",
					"type": "address"
				},
				{
					"indexed": true,
					"internalType": "address",
					"name": "down",
					"type": "address"
				}
			],
			"name": "BindEvent",
			"type": "event"
		},
		{
			"anonymous": false,
			"inputs": [
				{
					"indexed": false,
					"internalType": "bool",
					"name": "fused",
					"type": "bool"
				}
			],
			"name": "FuseStatusChanged",
			"type": "event"
		},
		{
			"anonymous": false,
			"inputs": [
				{
					"indexed": true,
					"internalType": "address",
					"name": "invite",
					"type": "address"
				},
				{
					"indexed": false,
					"internalType": "uint256",
					"name": "amount",
					"type": "uint256"
				}
			],
			"name": "InvestEvent",
			"type": "event"
		},
		{
			"anonymous": false,
			"inputs": [
				{
					"indexed": true,
					"internalType": "address",
					"name": "previousOwner",
					"type": "address"
				},
				{
					"indexed": true,
					"internalType": "address",
					"name": "newOwner",
					"type": "address"
				}
			],
			"name": "OwnershipTransferred",
			"type": "event"
		},
		{
			"anonymous": false,
			"inputs": [
				{
					"indexed": true,
					"internalType": "address",
					"name": "user",
					"type": "address"
				},
				{
					"indexed": false,
					"internalType": "uint256",
					"name": "amount",
					"type": "uint256"
				}
			],
			"name": "StaticRewardClaimed",
			"type": "event"
		},
		{
			"anonymous": false,
			"inputs": [
				{
					"indexed": true,
					"internalType": "address",
					"name": "from",
					"type": "address"
				},
				{
					"indexed": true,
					"internalType": "address",
					"name": "to",
					"type": "address"
				},
				{
					"indexed": false,
					"internalType": "uint256",
					"name": "value",
					"type": "uint256"
				}
			],
			"name": "Transfer",
			"type": "event"
		},
		{
			"inputs": [],
			"name": "COOLDOWN_TIME",
			"outputs": [
				{
					"internalType": "uint256",
					"name": "",
					"type": "uint256"
				}
			],
			"stateMutability": "view",
			"type": "function"
		},
		{
			"inputs": [],
			"name": "FUSE_THRESHOLD",
			"outputs": [
				{
					"internalType": "uint256",
					"name": "",
					"type": "uint256"
				}
			],
			"stateMutability": "view",
			"type": "function"
		},
		{
			"inputs": [],
			"name": "MAX_HOLDING",
			"outputs": [
				{
					"internalType": "uint256",
					"name": "",
					"type": "uint256"
				}
			],
			"stateMutability": "view",
			"type": "function"
		},
		{
			"inputs": [],
			"name": "MIN_AMOUNT",
			"outputs": [
				{
					"internalType": "uint256",
					"name": "",
					"type": "uint256"
				}
			],
			"stateMutability": "view",
			"type": "function"
		},
		{
			"inputs": [],
			"name": "MIN_TX_INTERVAL",
			"outputs": [
				{
					"internalType": "uint256",
					"name": "",
					"type": "uint256"
				}
			],
			"stateMutability": "view",
			"type": "function"
		},
		{
			"inputs": [],
			"name": "POOL_THRESHOLD",
			"outputs": [
				{
					"internalType": "uint256",
					"name": "",
					"type": "uint256"
				}
			],
			"stateMutability": "view",
			"type": "function"
		},
		{
			"inputs": [],
			"name": "STATIC_CAP_MULTIPLIER",
			"outputs": [
				{
					"internalType": "uint256",
					"name": "",
					"type": "uint256"
				}
			],
			"stateMutability": "view",
			"type": "function"
		},
		{
			"inputs": [],
			"name": "STATIC_DAILY_RATE_HIGH",
			"outputs": [
				{
					"internalType": "uint256",
					"name": "",
					"type": "uint256"
				}
			],
			"stateMutability": "view",
			"type": "function"
		},
		{
			"inputs": [],
			"name": "STATIC_DAILY_RATE_LOW",
			"outputs": [
				{
					"internalType": "uint256",
					"name": "",
					"type": "uint256"
				}
			],
			"stateMutability": "view",
			"type": "function"
		},
		{
			"inputs": [],
			"name": "STATIC_MAX_DAYS_HIGH",
			"outputs": [
				{
					"internalType": "uint256",
					"name": "",
					"type": "uint256"
				}
			],
			"stateMutability": "view",
			"type": "function"
		},
		{
			"inputs": [],
			"name": "STATIC_MAX_DAYS_LOW",
			"outputs": [
				{
					"internalType": "uint256",
					"name": "",
					"type": "uint256"
				}
			],
			"stateMutability": "view",
			"type": "function"
		},
		{
			"inputs": [],
			"name": "WBNB",
			"outputs": [
				{
					"internalType": "address",
					"name": "",
					"type": "address"
				}
			],
			"stateMutability": "view",
			"type": "function"
		},
		{
			"inputs": [],
			"name": "_uniswapPair",
			"outputs": [
				{
					"internalType": "address",
					"name": "",
					"type": "address"
				}
			],
			"stateMutability": "view",
			"type": "function"
		},
		{
			"inputs": [],
			"name": "_uniswapV2Router",
			"outputs": [
				{
					"internalType": "contract IUniswapV2Router02",
					"name": "",
					"type": "address"
				}
			],
			"stateMutability": "view",
			"type": "function"
		},
		{
			"inputs": [
				{
					"internalType": "address",
					"name": "owner",
					"type": "address"
				},
				{
					"internalType": "address",
					"name": "spender",
					"type": "address"
				}
			],
			"name": "allowance",
			"outputs": [
				{
					"internalType": "uint256",
					"name": "",
					"type": "uint256"
				}
			],
			"stateMutability": "view",
			"type": "function"
		},
		{
			"inputs": [
				{
					"internalType": "address",
					"name": "spender",
					"type": "address"
				},
				{
					"internalType": "uint256",
					"name": "value",
					"type": "uint256"
				}
			],
			"name": "approve",
			"outputs": [
				{
					"internalType": "bool",
					"name": "",
					"type": "bool"
				}
			],
			"stateMutability": "nonpayable",
			"type": "function"
		},
		{
			"inputs": [
				{
					"internalType": "address",
					"name": "account",
					"type": "address"
				}
			],
			"name": "balanceOf",
			"outputs": [
				{
					"internalType": "uint256",
					"name": "",
					"type": "uint256"
				}
			],
			"stateMutability": "view",
			"type": "function"
		},
		{
			"inputs": [],
			"name": "calculateRewardRates",
			"outputs": [
				{
					"internalType": "uint256",
					"name": "",
					"type": "uint256"
				},
				{
					"internalType": "uint256",
					"name": "",
					"type": "uint256"
				},
				{
					"internalType": "uint256",
					"name": "",
					"type": "uint256"
				},
				{
					"internalType": "uint256",
					"name": "",
					"type": "uint256"
				}
			],
			"stateMutability": "view",
			"type": "function"
		},
		{
			"inputs": [
				{
					"internalType": "address",
					"name": "user",
					"type": "address"
				}
			],
			"name": "calculateStaticReward",
			"outputs": [
				{
					"internalType": "uint256",
					"name": "",
					"type": "uint256"
				}
			],
			"stateMutability": "view",
			"type": "function"
		},
		{
			"inputs": [],
			"name": "decimals",
			"outputs": [
				{
					"internalType": "uint8",
					"name": "",
					"type": "uint8"
				}
			],
			"stateMutability": "view",
			"type": "function"
		},
		{
			"inputs": [],
			"name": "feeAddress",
			"outputs": [
				{
					"internalType": "address",
					"name": "",
					"type": "address"
				}
			],
			"stateMutability": "view",
			"type": "function"
		},
		{
			"inputs": [],
			"name": "fundAddress",
			"outputs": [
				{
					"internalType": "address",
					"name": "",
					"type": "address"
				}
			],
			"stateMutability": "view",
			"type": "function"
		},
		{
			"inputs": [],
			"name": "fundRewardTotal",
			"outputs": [
				{
					"internalType": "uint256",
					"name": "",
					"type": "uint256"
				}
			],
			"stateMutability": "view",
			"type": "function"
		},
		{
			"inputs": [],
			"name": "fused",
			"outputs": [
				{
					"internalType": "bool",
					"name": "",
					"type": "bool"
				}
			],
			"stateMutability": "view",
			"type": "function"
		},
		{
			"inputs": [],
			"name": "fusing",
			"outputs": [],
			"stateMutability": "nonpayable",
			"type": "function"
		},
		{
			"inputs": [],
			"name": "getCirculation",
			"outputs": [
				{
					"internalType": "uint256",
					"name": "",
					"type": "uint256"
				}
			],
			"stateMutability": "view",
			"type": "function"
		},
		{
			"inputs": [
				{
					"internalType": "uint256",
					"name": "generation",
					"type": "uint256"
				}
			],
			"name": "getDynamicRewardRate",
			"outputs": [
				{
					"internalType": "uint256",
					"name": "",
					"type": "uint256"
				}
			],
			"stateMutability": "pure",
			"type": "function"
		},
		{
			"inputs": [],
			"name": "getPoolTokenAmount",
			"outputs": [
				{
					"internalType": "uint256",
					"name": "",
					"type": "uint256"
				}
			],
			"stateMutability": "view",
			"type": "function"
		},
		{
			"inputs": [
				{
					"internalType": "address",
					"name": "account",
					"type": "address"
				}
			],
			"name": "getUpsChildList",
			"outputs": [
				{
					"internalType": "address[]",
					"name": "",
					"type": "address[]"
				}
			],
			"stateMutability": "view",
			"type": "function"
		},
		{
			"inputs": [
				{
					"internalType": "address",
					"name": "from",
					"type": "address"
				},
				{
					"internalType": "address",
					"name": "to",
					"type": "address"
				}
			],
			"name": "isCanBindInviter",
			"outputs": [
				{
					"internalType": "bool",
					"name": "",
					"type": "bool"
				}
			],
			"stateMutability": "view",
			"type": "function"
		},
		{
			"inputs": [],
			"name": "isPriceDump",
			"outputs": [
				{
					"internalType": "bool",
					"name": "",
					"type": "bool"
				}
			],
			"stateMutability": "view",
			"type": "function"
		},
		{
			"inputs": [
				{
					"internalType": "address",
					"name": "",
					"type": "address"
				}
			],
			"name": "lastBuyTime",
			"outputs": [
				{
					"internalType": "uint256",
					"name": "",
					"type": "uint256"
				}
			],
			"stateMutability": "view",
			"type": "function"
		},
		{
			"inputs": [
				{
					"internalType": "address",
					"name": "",
					"type": "address"
				}
			],
			"name": "lastClaimTokenAmount",
			"outputs": [
				{
					"internalType": "uint256",
					"name": "",
					"type": "uint256"
				}
			],
			"stateMutability": "view",
			"type": "function"
		},
		{
			"inputs": [
				{
					"internalType": "address",
					"name": "",
					"type": "address"
				}
			],
			"name": "lastTxTime",
			"outputs": [
				{
					"internalType": "uint256",
					"name": "",
					"type": "uint256"
				}
			],
			"stateMutability": "view",
			"type": "function"
		},
		{
			"inputs": [],
			"name": "name",
			"outputs": [
				{
					"internalType": "string",
					"name": "",
					"type": "string"
				}
			],
			"stateMutability": "view",
			"type": "function"
		},
		{
			"inputs": [],
			"name": "nft",
			"outputs": [
				{
					"internalType": "address",
					"name": "",
					"type": "address"
				}
			],
			"stateMutability": "view",
			"type": "function"
		},
		{
			"inputs": [],
			"name": "nftRewardTotal",
			"outputs": [
				{
					"internalType": "uint256",
					"name": "",
					"type": "uint256"
				}
			],
			"stateMutability": "view",
			"type": "function"
		},
		{
			"inputs": [
				{
					"internalType": "uint256",
					"name": "",
					"type": "uint256"
				}
			],
			"name": "nodes",
			"outputs": [
				{
					"internalType": "address",
					"name": "",
					"type": "address"
				}
			],
			"stateMutability": "view",
			"type": "function"
		},
		{
			"inputs": [],
			"name": "owner",
			"outputs": [
				{
					"internalType": "address",
					"name": "",
					"type": "address"
				}
			],
			"stateMutability": "view",
			"type": "function"
		},
		{
			"inputs": [],
			"name": "pool",
			"outputs": [
				{
					"internalType": "contract Pool",
					"name": "",
					"type": "address"
				}
			],
			"stateMutability": "view",
			"type": "function"
		},
		{
			"inputs": [
				{
					"internalType": "address",
					"name": "",
					"type": "address"
				},
				{
					"internalType": "address",
					"name": "",
					"type": "address"
				}
			],
			"name": "preUps",
			"outputs": [
				{
					"internalType": "bool",
					"name": "",
					"type": "bool"
				}
			],
			"stateMutability": "view",
			"type": "function"
		},
		{
			"inputs": [],
			"name": "renounceOwnership",
			"outputs": [],
			"stateMutability": "nonpayable",
			"type": "function"
		},
		{
			"inputs": [],
			"name": "sediment",
			"outputs": [],
			"stateMutability": "nonpayable",
			"type": "function"
		},
		{
			"inputs": [
				{
					"internalType": "address",
					"name": "_nft",
					"type": "address"
				}
			],
			"name": "setNFT",
			"outputs": [],
			"stateMutability": "nonpayable",
			"type": "function"
		},
		{
			"inputs": [
				{
					"internalType": "uint256",
					"name": "startTime_",
					"type": "uint256"
				}
			],
			"name": "setStartTime",
			"outputs": [],
			"stateMutability": "nonpayable",
			"type": "function"
		},
		{
			"inputs": [
				{
					"internalType": "address",
					"name": "_pair",
					"type": "address"
				}
			],
			"name": "setUniswapPair",
			"outputs": [],
			"stateMutability": "nonpayable",
			"type": "function"
		},
		{
			"inputs": [],
			"name": "startTime",
			"outputs": [
				{
					"internalType": "uint256",
					"name": "",
					"type": "uint256"
				}
			],
			"stateMutability": "view",
			"type": "function"
		},
		{
			"inputs": [
				{
					"internalType": "address",
					"name": "",
					"type": "address"
				}
			],
			"name": "staticStartTime",
			"outputs": [
				{
					"internalType": "uint256",
					"name": "",
					"type": "uint256"
				}
			],
			"stateMutability": "view",
			"type": "function"
		},
		{
			"inputs": [],
			"name": "symbol",
			"outputs": [
				{
					"internalType": "string",
					"name": "",
					"type": "string"
				}
			],
			"stateMutability": "view",
			"type": "function"
		},
		{
			"inputs": [
				{
					"internalType": "address",
					"name": "",
					"type": "address"
				}
			],
			"name": "totalStaticClaimed",
			"outputs": [
				{
					"internalType": "uint256",
					"name": "",
					"type": "uint256"
				}
			],
			"stateMutability": "view",
			"type": "function"
		},
		{
			"inputs": [],
			"name": "totalSupply",
			"outputs": [
				{
					"internalType": "uint256",
					"name": "",
					"type": "uint256"
				}
			],
			"stateMutability": "view",
			"type": "function"
		},
		{
			"inputs": [
				{
					"internalType": "address",
					"name": "to",
					"type": "address"
				},
				{
					"internalType": "uint256",
					"name": "value",
					"type": "uint256"
				}
			],
			"name": "transfer",
			"outputs": [
				{
					"internalType": "bool",
					"name": "",
					"type": "bool"
				}
			],
			"stateMutability": "nonpayable",
			"type": "function"
		},
		{
			"inputs": [
				{
					"internalType": "address",
					"name": "from",
					"type": "address"
				},
				{
					"internalType": "address",
					"name": "to",
					"type": "address"
				},
				{
					"internalType": "uint256",
					"name": "value",
					"type": "uint256"
				}
			],
			"name": "transferFrom",
			"outputs": [
				{
					"internalType": "bool",
					"name": "",
					"type": "bool"
				}
			],
			"stateMutability": "nonpayable",
			"type": "function"
		},
		{
			"inputs": [
				{
					"internalType": "address",
					"name": "newOwner",
					"type": "address"
				}
			],
			"name": "transferOwnership",
			"outputs": [],
			"stateMutability": "nonpayable",
			"type": "function"
		},
		{
			"inputs": [
				{
					"internalType": "address",
					"name": "",
					"type": "address"
				}
			],
			"name": "users",
			"outputs": [
				{
					"internalType": "address",
					"name": "up",
					"type": "address"
				},
				{
					"internalType": "uint256",
					"name": "bnbTotal",
					"type": "uint256"
				},
				{
					"internalType": "uint256",
					"name": "lpTotal",
					"type": "uint256"
				},
				{
					"internalType": "uint256",
					"name": "staticDrawAt",
					"type": "uint256"
				},
				{
					"internalType": "uint256",
					"name": "directTotal",
					"type": "uint256"
				},
				{
					"internalType": "uint256",
					"name": "directBuyTotal",
					"type": "uint256"
				},
				{
					"internalType": "uint256",
					"name": "validTotal",
					"type": "uint256"
				},
				{
					"internalType": "bool",
					"name": "staticDrawStatus",
					"type": "bool"
				},
				{
					"internalType": "bool",
					"name": "isBuy",
					"type": "bool"
				}
			],
			"stateMutability": "view",
			"type": "function"
		},
		{
			"inputs": [
				{
					"internalType": "address",
					"name": "",
					"type": "address"
				}
			],
			"name": "usersBuyTime",
			"outputs": [
				{
					"internalType": "uint256",
					"name": "",
					"type": "uint256"
				}
			],
			"stateMutability": "view",
			"type": "function"
		},
		{
			"inputs": [
				{
					"internalType": "address",
					"name": "",
					"type": "address"
				}
			],
			"name": "validDirectCount",
			"outputs": [
				{
					"internalType": "uint256",
					"name": "",
					"type": "uint256"
				}
			],
			"stateMutability": "view",
			"type": "function"
		},
		{
			"stateMutability": "payable",
			"type": "receive"
		}
	]
}