{
	"data": {
		"bytecode": {
			"linkReferences": {},
			"object": "60a06040526a115eec47f6cf7e35000000600f5567016345785d8a0000601255601480546001600160a01b031916735b6453ea3f0e6f975f7440884257037f72a7c33b1790556016805460ff60a81b1916600160a81b179055348015610063575f5ffd5b50604051616c08380380616c0883398101604081905261008291612942565b336040518060400160405280600881526020016726a7a2aa37b5b2b760c11b815250604051806040016040528060038152602001624d4f4560e81b81525081600390816100cf9190612a16565b5060046100dc8282612a16565b5050506001600160a01b03811661010d57604051631e4fbdf760e01b81525f60048201526024015b60405180910390fd5b61011681610342565b5073d99d1c33f9fc3444f8101754abc46c52416550d16080819052604080516315ab88c960e31b8152905163ad5c4648916004808201926020929091908290030181865afa15801561016a573d5f5f3e3d5ffd5b505050506040513d601f19601f8201168201806040525081019061018e9190612ad0565b600b5f6101000a8154816001600160a01b0302191690836001600160a01b031602179055506080516001600160a01b031663c45a01556040518163ffffffff1660e01b8152600401602060405180830381865afa1580156101f1573d5f5f3e3d5ffd5b505050506040513d601f19601f820116820180604052508101906102159190612ad0565b600b546040516364e329cb60e11b81523060048201526001600160a01b03918216602482015291169063c9c65396906044016020604051808303815f875af1158015610263573d5f5f3e3d5ffd5b505050506040513d601f19601f820116820180604052508101906102879190612ad0565b600680546001600160a01b03199081166001600160a01b0393841617909155601580548216858416179055601680549091169183169190911790556040516102ce90612901565b604051809103905ff0801580156102e7573d5f5f3e3d5ffd5b50600e80546001600160a01b0319166001600160a01b03929092169190911790556369aaba1f60135561033a8361031c601290565b61032790600a612be0565b61033590637d2b7500612bee565b610393565b505050612ed2565b600580546001600160a01b038381166001600160a01b0319831681179093556040519116919082907f8be0079c531659141344cd1fd0a4f28419497f9722a3daafe3b4186f6b6457e0905f90a35050565b6001600160a01b0382166103bc5760405163ec442f0560e01b81525f6004820152602401610104565b6103c75f83836103cb565b5050565b671bc16d674ec800008114801561040757506001600160a01b038083165f9081526007602090815260408083209387168352929052205460ff16155b801561041857506104188383610db3565b1561044d576001600160a01b038084165f908152600760209081526040808320938616835292905220805460ff191660011790555b670de0b6b3a76400008114801561048857506001600160a01b038083165f9081526007602090815260408083209387168352929052205460ff165b80156104ab57506001600160a01b038381165f908152600a602052604090205416155b15610533576001600160a01b038381165f908152600a6020908152604080832080546001600160a01b031916948716948517905592825260089052206104f19084610efc565b50816001600160a01b0316836001600160a01b03167f8d63f2e3d39eb6cf9c80d49bc203133f6f215ce2a1a3d27a68f0167f6c045d4860405160405180910390a35b6001600160a01b038084165f908152600a6020908152604091829020825161012081018452815490941684526001810154918401919091526002810154918301919091526003810154606083015260048101546080830152600581015460a0830152600681015460c08301526007015460ff808216151560e0840152610100918290041615159082015233321480156105ce57508061010001515b80156105dd57505f8160400151115b80156105f157506001600160a01b03831630145b1561082c57670de0b6b3a7640000820361071357600e54600160a01b900460ff161561063057604051632f35253160e01b815260040160405180910390fd5b8060e0015161068b576001600160a01b0384165f908152600a60205260409020600701805460ff1916600117905561066b4262015180612c05565b6001600160a01b0385165f908152600a6020526040902060030155610713565b8060e0015180156106a0575080606001514210155b156106fa576106ae84610f17565b6106bb4262015180612c05565b6001600160a01b0385165f908152600a60205260409020600301556106e18484846114b1565b6106f43085670de0b6b3a76400006114b1565b50505050565b604051632f35253160e01b815260040160405180910390fd5b678ac7230489e800008203610821576040810151156107a757600654604082810151905163a9059cbb60e01b81526001600160a01b038781166004830152602482019290925291169063a9059cbb906044016020604051808303815f875af1158015610781573d5f5f3e3d5ffd5b505050506040513d601f19601f820116820180604052508101906107a59190612c18565b505b6001600160a01b038085165f908152600a602052604080822060078101805460028301859055600190920184905561ffff199091169055835190921681522060060154156108215780516001600160a01b03165f908152600a6020526040812060060180546001929061081b908490612c37565b90915550505b6106f48484846114b1565b6001600160a01b03841630148061084b57506001600160a01b03831630145b806108635750600e546001600160a01b038581169116145b8061087b5750600e546001600160a01b038481169116145b1561088b576106f48484846114b1565b6006546001600160a01b0390811690851603610aee5742601354106108de5760405162461bcd60e51b8152602060048201526009602482015268737461727454696d6560b81b6044820152606401610104565b325f9081526009602052604081204290556108f76115d7565b11156109cd575f8061090761176c565b90506b033b2e3c9fd0803ce8000000811061093a57600a610929856009612bee565b6109339190612c4a565b915061099c565b6b019d971e4fe8401e74000000811061095a57600a610929856006612bee565b6a52b7d2dcc80cd2e4000000811061097957600a610929856004612bee565b6a0422ca8b0a00a425000000811061099857600a610929856002612bee565b8391505b6109a98661dead846114b1565b818411156109c5576109c586866109c08588612c37565b6114b1565b505050505050565b60646109d7611870565b6109e2906005612bee565b6109ec9190612c4a565b8210610a265760405162461bcd60e51b815260206004820152600960248201526836b0bc103a37b5b2b760b91b6044820152606401610104565b5f6064610a34846003612bee565b610a3e9190612c4a565b90505f600a610a4e836007612bee565b610a589190612c4a565b90508060105f828254610a6b9190612c05565b909155505f9050600a610a7f846001612bee565b610a899190612c4a565b9050610a988761dead836114b1565b5f81610aa48486612c37565b610aae9190612c37565b90508060115f828254610ac19190612c05565b90915550610ad290508830856114b1565b610add8830836114b1565b610ae78487612c37565b9550505050505b6006546001600160a01b0390811690841603610dab57601654600160a81b900460ff1615610bea5760065460408051630240bc6b60e21b815290516001600160a01b03909216915f9182918491630902f1ac9160048083019260609291908290030181865afa158015610b63573d5f5f3e3d5ffd5b505050506040513d601f19601f82011682018060405250810190610b879190612c7f565b5091509150816001600160701b03165f148015610bab57506001600160701b038116155b8015610bc05750601654600160a81b900460ff165b15610be6576016805460ff60a81b19169055610bdd8787876114b1565b50505050505050565b5050505b610bf5600a42612c37565b325f9081526009602052604090205410610c365760405162461bcd60e51b815260206004820152600260248201526118d960f21b6044820152606401610104565b5f610c40836118b0565b11610dab574260135410610c825760405162461bcd60e51b8152602060048201526009602482015268737461727454696d6560b81b6044820152606401610104565b6064610c8c611870565b610c9790600a612bee565b610ca19190612c4a565b8210610cdb5760405162461bcd60e51b815260206004820152600960248201526836b0bc103a37b5b2b760b91b6044820152606401610104565b5f6064610ce9846004612bee565b610cf39190612c4a565b90505f600a610d03836007612bee565b610d0d9190612c4a565b90508060105f828254610d209190612c05565b909155505f9050600a610d34846001612bee565b610d3e9190612c4a565b9050610d4d8761dead836114b1565b5f81610d598486612c37565b610d639190612c37565b90508060115f828254610d769190612c05565b90915550610d8790508830856114b1565b610d928830836114b1565b610d9c8487612c37565b9550610da6611aa8565b505050505b610821611c0b565b6001600160a01b038281165f908152600a6020526040812054909116158015610dea57506014546001600160a01b03848116911614155b8015610e0457506006546001600160a01b03838116911614155b8015610e1e57506006546001600160a01b03848116911614155b15610e2a57505f610ef6565b6001600160a01b038084165f9081526007602090815260408083209386168352929052205460ff1680610e6e5750816001600160a01b0316836001600160a01b0316145b15610e7a57505f610ef6565b815f5b6001600160a01b03821615801590610e98575060198160ff16105b15610eef57846001600160a01b0316826001600160a01b031603610ec0575f92505050610ef6565b6001600160a01b039182165f908152600a60205260409020549091169080610ee781612ccb565b915050610e7d565b6001925050505b92915050565b5f610f10836001600160a01b038416611d8b565b9392505050565b6001600160a01b038082165f908152600a6020908152604091829020825161012081018452815490941684526001810154918401919091526002810154918301919091526003810154606083015260048101546080830152600581015460a0830152600681015460c08301526007015460ff808216151560e084015261010091829004161515908201819052610fef5760405162461bcd60e51b815260206004820152601360248201527f5573657220686173206e6f7420626f75676874000000000000000000000000006044820152606401610104565b8060e001516110405760405162461bcd60e51b815260206004820152601b60248201527f53746174696320726577617264206e6f7420617661696c61626c6500000000006044820152606401610104565b80606001514210156110895760405162461bcd60e51b815260206004820152601260248201527114995dd85c99081b9bdd081b585d1d5c995960721b6044820152606401610104565b5f61109383611dd7565b90505f81116110e45760405162461bcd60e51b815260206004820152601a60248201527f4e6f207374617469632072657761726420617661696c61626c650000000000006044820152606401610104565b5f80806110ef611ec1565b6020890151929650909450925090505f620186a061110d8684612bee565b6111179190612c4a565b90505f620186a06111288685612bee565b6111329190612c4a565b90505f620186a06111438686612bee565b61114d9190612c4a565b90505f818361115c868c612c05565b6111669190612c05565b6111709190612c05565b90505f61117c82611f70565b905061118661290e565b61118f82612091565b808252839061119f908d90612bee565b6111a99190612c4a565b81600160200201526006546001600160a01b031663a9059cbb8e83600160200201516040516001600160e01b031960e085901b1681526001600160a01b03909216600483015260248201526044016020604051808303815f875af1158015611213573d5f5f3e3d5ffd5b505050506040513d601f19601f820116820180604052508101906112379190612c18565b506112498d8260016020020151612404565b60408201528051839061125d908790612bee565b6112679190612c4a565b60608201819052600654600c5460405163a9059cbb60e01b81526001600160a01b0391821660048201526024810193909352169063a9059cbb906044016020604051808303815f875af11580156112c0573d5f5f3e3d5ffd5b505050506040513d601f19601f820116820180604052508101906112e49190612c18565b50600c5f9054906101000a90046001600160a01b03166001600160a01b031663c33fb8776040518163ffffffff1660e01b81526004015f604051808303815f87803b158015611331575f5ffd5b505af1925050508015611342575060015b5080518390611352908690612bee565b61135c9190612c4a565b6080820181905260065460155460405163a9059cbb60e01b81526001600160a01b0391821660048201526024810193909352169063a9059cbb906044016020604051808303815f875af11580156113b5573d5f5f3e3d5ffd5b505050506040513d601f19601f820116820180604052508101906113d99190612c18565b50608081015160608201516040830151602084015184516113fa9190612c37565b6114049190612c37565b61140e9190612c37565b6114189190612c37565b60a08201819052156114a25760065460155460a083015160405163a9059cbb60e01b81526001600160a01b039283166004820152602481019190915291169063a9059cbb906044016020604051808303815f875af115801561147c573d5f5f3e3d5ffd5b505050506040513d601f19601f820116820180604052508101906114a09190612c18565b505b50505050505050505050505050565b6001600160a01b0383166114db578060025f8282546114d09190612c05565b9091555061154b9050565b6001600160a01b0383165f908152602081905260409020548181101561152d5760405163391434e360e21b81526001600160a01b03851660048201526024810182905260448101839052606401610104565b6001600160a01b0384165f9081526020819052604090209082900390555b6001600160a01b03821661156757600280548290039055611585565b6001600160a01b0382165f9081526020819052604090208054820190555b816001600160a01b0316836001600160a01b03167fddf252ad1be2c89b69c2b068fc378daa952ba7f163c4a11628f55a4df523b3ef836040516115ca91815260200190565b60405180910390a3505050565b5f5f60065f9054906101000a90046001600160a01b03166001600160a01b0316630902f1ac6040518163ffffffff1660e01b8152600401606060405180830381865afa158015611629573d5f5f3e3d5ffd5b505050506040513d601f19601f8201168201806040525081019061164d9190612c7f565b5050600b546006546040516370a0823160e01b81526001600160a01b0391821660048201526001600160701b039390931693505f929116906370a0823190602401602060405180830381865afa1580156116a9573d5f5f3e3d5ffd5b505050506040513d601f19601f820116820180604052508101906116cd9190612cfd565b90508082111561176757600654604080516318160ddd60e01b815290515f926001600160a01b0316916318160ddd9160048083019260209291908290030181865afa15801561171e573d5f5f3e3d5ffd5b505050506040513d601f19601f820116820180604052508101906117429190612cfd565b90508161174f8185612c37565b6117599083612bee565b6117639190612c4a565b9350505b505090565b60065460408051630240bc6b60e21b815290515f926001600160a01b031691839182918491630902f1ac916004808201926060929091908290030181865afa1580156117ba573d5f5f3e3d5ffd5b505050506040513d601f19601f820116820180604052508101906117de9190612c7f565b50915091505f836001600160a01b0316630dfe16816040518163ffffffff1660e01b8152600401602060405180830381865afa158015611820573d5f5f3e3d5ffd5b505050506040513d601f19601f820116820180604052508101906118449190612ad0565b90506001600160a01b038116301461185c578161185e565b825b6001600160701b031694505050505090565b61dead5f90815260208190527f44ad89ba62b98ff34f51403ac22759b55759460c0bb5521eb4b6ee3cff49cf83546002546118ab9190612c37565b905090565b6080515f906001600160a01b03163303611aa3575f5f60065f9054906101000a90046001600160a01b03166001600160a01b0316630902f1ac6040518163ffffffff1660e01b8152600401606060405180830381865afa158015611916573d5f5f3e3d5ffd5b505050506040513d601f19601f8201168201806040525081019061193a9190612c7f565b50600b546006546040516370a0823160e01b81526001600160a01b0391821660048201526001600160701b0394851696509290931693505f9216906370a0823190602401602060405180830381865afa158015611999573d5f5f3e3d5ffd5b505050506040513d601f19601f820116820180604052508101906119bd9190612cfd565b905082811115611a9f57600654604080516318160ddd60e01b815290515f926001600160a01b0316916318160ddd9160048083019260209291908290030181865afa158015611a0e573d5f5f3e3d5ffd5b505050506040513d601f19601f82011682018060405250810190611a329190612cfd565b9050805f03611a475750600195945050505050565b611a528183856125bc565b611a5c9082612c05565b9050611a9b8482611a6d8286612c37565b611a779190612bee565b611a819190612c4a565b84611a8c848a612bee565b611a969190612c4a565b6126b1565b9450505b5050505b919050565b5f601154601054611ab99190612c05565b9050670de0b6b3a7640000811015611ace5750565b611ae130608051836126c660201b60201c565b6040805160028082526060820183525f9260208301908036833701905050905030815f81518110611b1457611b14612ce9565b6001600160a01b039283166020918202929092010152600b54825191169082906001908110611b4557611b45612ce9565b6001600160a01b03928316602091820292909201015260805160405163791ac94760e01b815291169063791ac94790611b8a9085905f90869030904290600401612d57565b5f604051808303815f87803b158015611ba1575f5ffd5b505af1158015611bb3573d5f5f3e3d5ffd5b5050601654601154611be893506001600160a01b0390911691508490611bd99047612bee565b611be39190612c4a565b6126d8565b600c54611bfe906001600160a01b0316476126d8565b50505f6010819055601155565b60065460408051630240bc6b60e21b815290516001600160a01b03909216915f9182918491630902f1ac9160048083019260609291908290030181865afa158015611c58573d5f5f3e3d5ffd5b505050506040513d601f19601f82011682018060405250810190611c7c9190612c7f565b5091509150816001600160701b03165f1480611c9f57506001600160701b038116155b15611ca957505050565b5f836001600160a01b0316630dfe16816040518163ffffffff1660e01b8152600401602060405180830381865afa158015611ce6573d5f5f3e3d5ffd5b505050506040513d601f19601f82011682018060405250810190611d0a9190612ad0565b90505f6001600160a01b0382163014611d235782611d25565b835b6001600160701b03169050600f54811015611d6457600e54600160a01b900460ff16611d5f57600e805460ff60a01b1916600160a01b1790555b611d84565b600e54600160a01b900460ff1615611d8457600e805460ff60a01b191690555b5050505050565b5f818152600183016020526040812054611dd057508154600181810184555f848152602080822090930184905584548482528286019093526040902091909155610ef6565b505f610ef6565b6001600160a01b038082165f908152600a60209081526040808320815161012081018352815490951685526001810154928501929092526002820154908401526003810154606084015260048101546080840152600581015460a0840152600681015460c08401526007015460ff808216151560e085015261010091829004161580159184019190915290919080611e7157508060e00151155b80611e7f5750806060015142105b15611e8c57505f92915050565b5f611e95611ec1565b5050506020830151909150620186a0611eae8383612bee565b611eb89190612c4a565b95945050505050565b5f80808080611ece61176c565b90506b033b2e3c9fd0803ce8000000811115611efd576105dc6102ee61012c603c945094509450945050611f6a565b6b019d971e4fe8401e74000000811115611f2a576104e261027161012c603c945094509450945050611f6a565b6a52b7d2dcc80cd2e4000000811115611f56576103e86101f461012c603c945094509450945050611f6a565b6101f460fa61012c603c9450945094509450505b90919293565b6040805160028082526060820183525f92839291906020830190803683375050600b5482519293506001600160a01b0316918391505f90611fb357611fb3612ce9565b60200260200101906001600160a01b031690816001600160a01b0316815250503081600181518110611fe757611fe7612ce9565b6001600160a01b03928316602091820292909201015260805160405163d06ca61f60e01b81525f92919091169063d06ca61f9061202a9087908690600401612d92565b5f60405180830381865afa158015612044573d5f5f3e3d5ffd5b505050506040513d5f823e601f3d908101601f1916820160405261206b9190810190612db2565b90508060018151811061208057612080612ce9565b602002602001015192505050919050565b5f8061209e600284612c4a565b6040805160028082526060820183529293505f92909160208301908036833701905050905030815f815181106120d6576120d6612ce9565b6001600160a01b039283166020918202929092010152600b5482519116908290600190811061210757612107612ce9565b6001600160a01b03928316602091820292909201015260065461212c911630866114b1565b60065f9054906101000a90046001600160a01b03166001600160a01b031663fff6cae96040518163ffffffff1660e01b81526004015f604051808303815f87803b158015612178575f5ffd5b505af115801561218a573d5f5f3e3d5ffd5b505050506121a130608051866126c660201b60201c565b608051600e54604051635c11d79560e01b81526001600160a01b0392831692635c11d795926121dd9287925f9288929116904290600401612d57565b5f604051808303815f87803b1580156121f4575f5ffd5b505af1158015612206573d5f5f3e3d5ffd5b5050600b54600e546040516370a0823160e01b81526001600160a01b0391821660048201525f9450911691506370a0823190602401602060405180830381865afa158015612256573d5f5f3e3d5ffd5b505050506040513d601f19601f8201168201806040525081019061227a9190612cfd565b600e54600b5460405163092dfdb360e11b81526001600160a01b03918216600482015230602482015260448101849052929350169063125bfb66906064015f604051808303815f87803b1580156122cf575f5ffd5b505af11580156122e1573d5f5f3e3d5ffd5b5050600b5460805160405163095ea7b360e01b81526001600160a01b039182166004820152602481018690529116925063095ea7b391506044016020604051808303815f875af1158015612337573d5f5f3e3d5ffd5b505050506040513d601f19601f8201168201806040525081019061235b9190612c18565b50608051600b5460405162e8e33760e81b81526001600160a01b039182166004820152306024820181905260448201859052606482018790525f6084830181905260a483015260c48201524260e482015291169063e8e3370090610104016060604051808303815f875af11580156123d5573d5f5f3e3d5ffd5b505050506040513d601f19601f820116820180604052508101906123f99190612e79565b979650505050505050565b6001600160a01b038083165f908152600a602090815260408083208151610120810183528154909516808652600180830154948701949094526002820154928601929092526003810154606086015260048101546080860152600581015460a0860152600681015460c08601526007015460ff808216151560e087015261010091829004161515908501529192919060145b6001600160a01b038316158015906124ae5750808211155b156125b2575f6124bd8361273b565b90505f60646124cc838a612bee565b6124d69190612c4a565b90508015612581576001600160a01b0385165f908152600a602052604090206006015484116125815760065460405163a9059cbb60e01b81526001600160a01b038781166004830152602482018490529091169063a9059cbb906044016020604051808303815f875af115801561254f573d5f5f3e3d5ffd5b505050506040513d601f19601f820116820180604052508101906125739190612c18565b5061257e8188612c05565b96505b6001600160a01b039485165f908152600a602052604090205490941693836125a881612ea4565b9450505050612496565b5050505092915050565b5f806125d06125cb8486612bee565b6127c2565b90505f61264a60065f9054906101000a90046001600160a01b03166001600160a01b0316637464fc3d6040518163ffffffff1660e01b8152600401602060405180830381865afa158015612626573d5f5f3e3d5ffd5b505050506040513d601f19601f820116820180604052508101906125cb9190612cfd565b9050808211156126a8575f61265f8284612c37565b6126699088612bee565b612674906008612bee565b90505f612682836008612bee565b61268d856011612bee565b6126979190612c05565b90506126a38183612c4a565b945050505b50509392505050565b5f8183106126bf5781610f10565b5090919050565b6126d3838383600161282f565b505050565b604080515f808252602082019092526001600160a01b0384169083906040516127019190612ebc565b5f6040518083038185875af1925050503d805f81146109c5576040519150601f19603f3d011682016040523d82523d5f602084013e6109c5565b5f8160010361274c5750600a919050565b8160020361275c57506005919050565b8160030361276c57506003919050565b6004821015801561277e575060118211155b1561278b57506001919050565b8160120361279b57506003919050565b816013036127ab57506005919050565b816014036127bb5750600a919050565b505f919050565b5f60038211156128215750805f6127da600283612c4a565b6127e5906001612c05565b90505b8181101561281b579050806002816128008186612c4a565b61280a9190612c05565b6128149190612c4a565b90506127e8565b50919050565b8115611aa357506001919050565b6001600160a01b0384166128585760405163e602df0560e01b81525f6004820152602401610104565b6001600160a01b03831661288157604051634a1406b160e11b81525f6004820152602401610104565b6001600160a01b038085165f90815260016020908152604080832093871683529290522082905580156106f457826001600160a01b0316846001600160a01b03167f8c5be1e5ebec7d5bd14f71427d1e84f3dd0314c0f7b2291e5b200ac8c7c3b925846040516128f391815260200190565b60405180910390a350505050565b6101b580616a5383390190565b6040518060c001604052806006906020820280368337509192915050565b80516001600160a01b0381168114611aa3575f5ffd5b5f5f5f60608486031215612954575f5ffd5b61295d8461292c565b925061296b6020850161292c565b91506129796040850161292c565b90509250925092565b634e487b7160e01b5f52604160045260245ffd5b600181811c908216806129aa57607f821691505b60208210810361281b57634e487b7160e01b5f52602260045260245ffd5b601f8211156126d357828211156126d357805f5260205f20601f840160051c60208510156129f357505f5b90810190601f840160051c035f5b818110156109c5575f83820155600101612a01565b81516001600160401b03811115612a2f57612a2f612982565b612a4381612a3d8454612996565b846129c8565b6020601f821160018114612a75575f8315612a5e5750848201515b5f19600385901b1c1916600184901b178455611d84565b5f84815260208120601f198516915b82811015612aa45787850151825560209485019460019092019101612a84565b5084821015612ac157868401515f19600387901b60f8161c191681555b50505050600190811b01905550565b5f60208284031215612ae0575f5ffd5b610f108261292c565b634e487b7160e01b5f52601160045260245ffd5b6001815b6001841115612b3857808504811115612b1c57612b1c612ae9565b6001841615612b2a57908102905b60019390931c928002612b01565b935093915050565b5f82612b4e57506001610ef6565b81612b5a57505f610ef6565b8160018114612b705760028114612b7a57612b96565b6001915050610ef6565b60ff841115612b8b57612b8b612ae9565b50506001821b610ef6565b5060208310610133831016604e8410600b8410161715612bb9575081810a610ef6565b612bc55f198484612afd565b805f1904821115612bd857612bd8612ae9565b029392505050565b5f610f1060ff841683612b40565b8082028115828204841417610ef657610ef6612ae9565b80820180821115610ef657610ef6612ae9565b5f60208284031215612c28575f5ffd5b81518015158114610f10575f5ffd5b81810381811115610ef657610ef6612ae9565b5f82612c6457634e487b7160e01b5f52601260045260245ffd5b500490565b80516001600160701b0381168114611aa3575f5ffd5b5f5f5f60608486031215612c91575f5ffd5b612c9a84612c69565b9250612ca860208501612c69565b9150604084015163ffffffff81168114612cc0575f5ffd5b809150509250925092565b5f60ff821660ff8103612ce057612ce0612ae9565b60010192915050565b634e487b7160e01b5f52603260045260245ffd5b5f60208284031215612d0d575f5ffd5b5051919050565b5f8151808452602084019350602083015f5b82811015612d4d5781516001600160a01b0316865260209586019590910190600101612d26565b5093949350505050565b85815284602082015260a060408201525f612d7560a0830186612d14565b6001600160a01b0394909416606083015250608001529392505050565b828152604060208201525f612daa6040830184612d14565b949350505050565b5f60208284031215612dc2575f5ffd5b81516001600160401b03811115612dd7575f5ffd5b8201601f81018413612de7575f5ffd5b80516001600160401b03811115612e0057612e00612982565b604051600582901b90603f8201601f191681016001600160401b0381118282101715612e2e57612e2e612982565b604052918252602081840181019290810187841115612e4b575f5ffd5b6020850194505b83851015612e6e57845180825260209586019590935001612e52565b509695505050505050565b5f5f5f60608486031215612e8b575f5ffd5b5050815160208301516040909301519094929350919050565b5f60018201612eb557612eb5612ae9565b5060010190565b5f82518060208501845e5f920191825250919050565b608051613b1c612f375f395f81816105a6015281816109cb01528181610a7b01528181610ad60152818161296901528181612b9f01528181612c4d01528181612df701528181612f9801528181612fd70152818161313801526132040152613b1c5ff3fe608060405260043610610220575f3560e01c806378e979251161011e578063bf151cb8116100a8578063ddbcb5fa1161006d578063ddbcb5fa14610881578063e8e8fe0414610896578063f2fde38b146108b5578063f56e9c66146108d4578063fd36e3c6146108f3575f5ffd5b8063bf151cb8146107e1578063c82c3cbf146107f5578063cca3c5ff14610809578063d12273431461081e578063dd62ed3e1461083d575f5ffd5b806395d89b41116100ee57806395d89b41146106aa578063a52ee3af146106be578063a87430ba146106e9578063a9059cbb146107ad578063b4a2e463146107cc575f5ffd5b806378e97925146106445780637f054455146106595780638da5cb5b1461066e5780638dd950021461068b575f5ffd5b80633d471d57116101aa5780634bf28fd01161016f5780634bf28fd014610576578063583e0568146105955780636d476a77146105c857806370a08231146105fc578063715018a614610630575f5ffd5b80633d471d57146104d95780633e0a322d146104f8578063440b30e71461051757806347ab459c1461054357806347ccca0214610557575f5ffd5b806318160ddd116101f057806318160ddd1461044c5780631c53c2801461046057806323b872dd1461047f5780632529d1a31461049e578063313ce567146104be575f5ffd5b806306fdde031461039a578063095ea7b3146103c457806309d46746146103f357806316f0115b14610415575f5ffd5b3661039657335f818152600a60205260409020546001600160a01b031690349032900361039457601254811015801561027557506001600160a01b03821615158061027557506014546001600160a01b031633145b1561037b57335f908152600a6020526040902060070154610100900460ff166102df57335f908152600a6020526040808220600701805461ff0019166101001790556001600160a01b038416825281206006018054600192906102d9908490613640565b90915550505b5f6102f36102ee600284613653565b61092c565b335f908152600a6020526040812060010180549293508492909190610319908490613640565b9091555050335f908152600a60205260408120600201805483929061033f908490613640565b909155505060405182815233907f5f41f00e6c90dea5837402efbf3e658a1f1df8db3b19624b133bc1df0444f7ea9060200160405180910390a2005b60405163236c6e5b60e01b815260040160405180910390fd5b005b5f5ffd5b3480156103a5575f5ffd5b506103ae610b55565b6040516103bb9190613672565b60405180910390f35b3480156103cf575f5ffd5b506103e36103de3660046136bb565b610be5565b60405190151581526020016103bb565b3480156103fe575f5ffd5b50610407610bfe565b6040519081526020016103bb565b348015610420575f5ffd5b50600e54610434906001600160a01b031681565b6040516001600160a01b0390911681526020016103bb565b348015610457575f5ffd5b50600254610407565b34801561046b575f5ffd5b5061043461047a3660046136e5565b610d02565b34801561048a575f5ffd5b506103e36104993660046136fc565b610d2a565b3480156104a9575f5ffd5b50600e546103e390600160a01b900460ff1681565b3480156104c9575f5ffd5b50604051601281526020016103bb565b3480156104e4575f5ffd5b506104076104f33660046136e5565b610d4d565b348015610503575f5ffd5b506103946105123660046136e5565b610dd4565b348015610522575f5ffd5b5061053661053136600461373a565b610de1565b6040516103bb9190613798565b34801561054e575f5ffd5b50610394610e04565b348015610562575f5ffd5b50600c54610434906001600160a01b031681565b348015610581575f5ffd5b50600654610434906001600160a01b031681565b3480156105a0575f5ffd5b506104347f000000000000000000000000000000000000000000000000000000000000000081565b3480156105d3575f5ffd5b506105dc610f84565b6040805194855260208501939093529183015260608201526080016103bb565b348015610607575f5ffd5b5061040761061636600461373a565b6001600160a01b03165f9081526020819052604090205490565b34801561063b575f5ffd5b50610394611033565b34801561064f575f5ffd5b5061040760135481565b348015610664575f5ffd5b5061040760115481565b348015610679575f5ffd5b506005546001600160a01b0316610434565b348015610696575f5ffd5b50600b54610434906001600160a01b031681565b3480156106b5575f5ffd5b506103ae611046565b3480156106c9575f5ffd5b506104076106d836600461373a565b60096020525f908152604090205481565b3480156106f4575f5ffd5b5061075b61070336600461373a565b600a6020525f9081526040902080546001820154600283015460038401546004850154600586015460068701546007909701546001600160a01b03909616969495939492939192909160ff8082169161010090041689565b604080516001600160a01b03909a168a5260208a0198909852968801959095526060870193909352608086019190915260a085015260c0840152151560e08301521515610100820152610120016103bb565b3480156107b8575f5ffd5b506103e36107c73660046136bb565b611055565b3480156107d7575f5ffd5b50610407600f5481565b3480156107ec575f5ffd5b50610407611062565b348015610800575f5ffd5b506103946110a2565b348015610814575f5ffd5b5061040760105481565b348015610829575f5ffd5b506103e36108383660046137aa565b6111ea565b348015610848575f5ffd5b506104076108573660046137aa565b6001600160a01b039182165f90815260016020908152604080832093909416825291909152205490565b34801561088c575f5ffd5b5061040760125481565b3480156108a1575f5ffd5b506104076108b036600461373a565b611326565b3480156108c0575f5ffd5b506103946108cf36600461373a565b611410565b3480156108df575f5ffd5b506103946108ee36600461373a565b611452565b3480156108fe575f5ffd5b506103e361090d3660046137aa565b600760209081525f928352604080842090915290825290205460ff1681565b6040805160028082526060820183525f92839291906020830190803683375050600b5482519293506001600160a01b0316918391505f9061096f5761096f6137f5565b60200260200101906001600160a01b031690816001600160a01b03168152505030816001815181106109a3576109a36137f5565b6001600160a01b039283166020918202929092010152600e5460405163b6f9de9560e01b81527f000000000000000000000000000000000000000000000000000000000000000083169263b6f9de95928792610a0a925f9288929116904290600401613809565b5f604051808303818588803b158015610a21575f5ffd5b505af1158015610a33573d5f5f3e3d5ffd5b5050600e546001600160a01b03165f908152602081905260408120549093509150610a5b9050565b600e54909150610a75906001600160a01b0316308361147c565b610aa0307f0000000000000000000000000000000000000000000000000000000000000000836115a2565b60405163f305d71960e01b81523060048201819052602482018390525f60448301819052606483015260848201524260a48201527f00000000000000000000000000000000000000000000000000000000000000006001600160a01b03169063f305d71990869060c40160606040518083038185885af1158015610b26573d5f5f3e3d5ffd5b50505050506040513d601f19601f82011682018060405250810190610b4b919061383d565b9695505050505050565b606060038054610b6490613868565b80601f0160208091040260200160405190810160405280929190818152602001828054610b9090613868565b8015610bdb5780601f10610bb257610100808354040283529160200191610bdb565b820191905f5260205f20905b815481529060010190602001808311610bbe57829003601f168201915b5050505050905090565b5f33610bf28185856115a2565b60019150505b92915050565b60065460408051630240bc6b60e21b815290515f926001600160a01b031691839182918491630902f1ac916004808201926060929091908290030181865afa158015610c4c573d5f5f3e3d5ffd5b505050506040513d601f19601f82011682018060405250810190610c7091906138b0565b50915091505f836001600160a01b0316630dfe16816040518163ffffffff1660e01b8152600401602060405180830381865afa158015610cb2573d5f5f3e3d5ffd5b505050506040513d601f19601f82011682018060405250810190610cd691906138fc565b90506001600160a01b0381163014610cee5781610cf0565b825b6001600160701b031694505050505090565b600d8181548110610d11575f80fd5b5f918252602090912001546001600160a01b0316905081565b5f33610d378582856115b4565b610d4285858561162a565b506001949350505050565b5f81600103610d5e5750600a919050565b81600203610d6e57506005919050565b81600303610d7e57506003919050565b60048210158015610d90575060118211155b15610d9d57506001919050565b81601203610dad57506003919050565b81601303610dbd57506005919050565b81601403610dcd5750600a919050565b505f919050565b610ddc611687565b601355565b6001600160a01b0381165f908152600860205260409020606090610bf8906116b4565b60065460408051630240bc6b60e21b815290516001600160a01b03909216915f9182918491630902f1ac9160048083019260609291908290030181865afa158015610e51573d5f5f3e3d5ffd5b505050506040513d601f19601f82011682018060405250810190610e7591906138b0565b5091509150816001600160701b03165f1480610e9857506001600160701b038116155b15610ea257505050565b5f836001600160a01b0316630dfe16816040518163ffffffff1660e01b8152600401602060405180830381865afa158015610edf573d5f5f3e3d5ffd5b505050506040513d601f19601f82011682018060405250810190610f0391906138fc565b90505f6001600160a01b0382163014610f1c5782610f1e565b835b6001600160701b03169050600f54811015610f5d57600e54600160a01b900460ff16610f5857600e805460ff60a01b1916600160a01b1790555b610f7d565b600e54600160a01b900460ff1615610f7d57600e805460ff60a01b191690555b5050505050565b5f5f5f5f5f610f91610bfe565b90506b033b2e3c9fd0803ce8000000811115610fc0576105dc6102ee61012c603c94509450945094505061102d565b6b019d971e4fe8401e74000000811115610fed576104e261027161012c603c94509450945094505061102d565b6a52b7d2dcc80cd2e4000000811115611019576103e86101f461012c603c94509450945094505061102d565b6101f460fa61012c603c9450945094509450505b90919293565b61103b611687565b6110445f6116c7565b565b606060048054610b6490613868565b5f33610bf281858561162a565b61dead5f90815260208190527f44ad89ba62b98ff34f51403ac22759b55759460c0bb5521eb4b6ee3cff49cf835460025461109d9190613917565b905090565b600b546006546040516370a0823160e01b81523060048201526001600160a01b039283169263a9059cbb92169083906370a0823190602401602060405180830381865afa1580156110f5573d5f5f3e3d5ffd5b505050506040513d601f19601f82011682018060405250810190611119919061392a565b6040516001600160e01b031960e085901b1681526001600160a01b03909216600483015260248201526044016020604051808303815f875af1158015611161573d5f5f3e3d5ffd5b505050506040513d601f19601f820116820180604052508101906111859190613941565b5060065f9054906101000a90046001600160a01b03166001600160a01b031663fff6cae96040518163ffffffff1660e01b81526004015f604051808303815f87803b1580156111d2575f5ffd5b505af11580156111e4573d5f5f3e3d5ffd5b50505050565b6001600160a01b038281165f908152600a602052604081205490911615801561122157506014546001600160a01b03848116911614155b801561123b57506006546001600160a01b03838116911614155b801561125557506006546001600160a01b03848116911614155b1561126157505f610bf8565b6001600160a01b038084165f9081526007602090815260408083209386168352929052205460ff16806112a55750816001600160a01b0316836001600160a01b0316145b156112b157505f610bf8565b815f5b6001600160a01b038216158015906112cf575060198160ff16105b15610d4257846001600160a01b0316826001600160a01b0316036112f7575f92505050610bf8565b6001600160a01b039182165f908152600a6020526040902054909116908061131e81613960565b9150506112b4565b6001600160a01b038082165f908152600a60209081526040808320815161012081018352815490951685526001810154928501929092526002820154908401526003810154606084015260048101546080840152600581015460a0840152600681015460c08401526007015460ff808216151560e0850152610100918290041615801591840191909152909190806113c057508060e00151155b806113ce5750806060015142105b156113db57505f92915050565b5f6113e4610f84565b5050506020830151909150620186a06113fd838361397e565b6114079190613653565b95945050505050565b611418611687565b6001600160a01b03811661144657604051631e4fbdf760e01b81525f60048201526024015b60405180910390fd5b61144f816116c7565b50565b61145a611687565b600c80546001600160a01b0319166001600160a01b0392909216919091179055565b6001600160a01b0383166114a6578060025f82825461149b9190613640565b909155506115169050565b6001600160a01b0383165f90815260208190526040902054818110156114f85760405163391434e360e21b81526001600160a01b0385166004820152602481018290526044810183905260640161143d565b6001600160a01b0384165f9081526020819052604090209082900390555b6001600160a01b03821661153257600280548290039055611550565b6001600160a01b0382165f9081526020819052604090208054820190555b816001600160a01b0316836001600160a01b03167fddf252ad1be2c89b69c2b068fc378daa952ba7f163c4a11628f55a4df523b3ef8360405161159591815260200190565b60405180910390a3505050565b6115af8383836001611718565b505050565b6001600160a01b038381165f908152600160209081526040808320938616835292905220545f198110156111e4578181101561161c57604051637dc7a0d960e11b81526001600160a01b0384166004820152602481018290526044810183905260640161143d565b6111e484848484035f611718565b6001600160a01b03831661165357604051634b637e8f60e11b81525f600482015260240161143d565b6001600160a01b03821661167c5760405163ec442f0560e01b81525f600482015260240161143d565b6115af8383836117ea565b6005546001600160a01b031633146110445760405163118cdaa760e01b815233600482015260240161143d565b60605f6116c0836121cc565b9392505050565b600580546001600160a01b038381166001600160a01b0319831681179093556040519116919082907f8be0079c531659141344cd1fd0a4f28419497f9722a3daafe3b4186f6b6457e0905f90a35050565b6001600160a01b0384166117415760405163e602df0560e01b81525f600482015260240161143d565b6001600160a01b03831661176a57604051634a1406b160e11b81525f600482015260240161143d565b6001600160a01b038085165f90815260016020908152604080832093871683529290522082905580156111e457826001600160a01b0316846001600160a01b03167f8c5be1e5ebec7d5bd14f71427d1e84f3dd0314c0f7b2291e5b200ac8c7c3b925846040516117dc91815260200190565b60405180910390a350505050565b671bc16d674ec800008114801561182657506001600160a01b038083165f9081526007602090815260408083209387168352929052205460ff16155b8015611837575061183783836111ea565b1561186c576001600160a01b038084165f908152600760209081526040808320938616835292905220805460ff191660011790555b670de0b6b3a7640000811480156118a757506001600160a01b038083165f9081526007602090815260408083209387168352929052205460ff165b80156118ca57506001600160a01b038381165f908152600a602052604090205416155b15611952576001600160a01b038381165f908152600a6020908152604080832080546001600160a01b031916948716948517905592825260089052206119109084612225565b50816001600160a01b0316836001600160a01b03167f8d63f2e3d39eb6cf9c80d49bc203133f6f215ce2a1a3d27a68f0167f6c045d4860405160405180910390a35b6001600160a01b038084165f908152600a6020908152604091829020825161012081018452815490941684526001810154918401919091526002810154918301919091526003810154606083015260048101546080830152600581015460a0830152600681015460c08301526007015460ff808216151560e0840152610100918290041615159082015233321480156119ed57508061010001515b80156119fc57505f8160400151115b8015611a1057506001600160a01b03831630145b15611c4557670de0b6b3a76400008203611b2c57600e54600160a01b900460ff1615611a4f57604051632f35253160e01b815260040160405180910390fd5b8060e00151611aaa576001600160a01b0384165f908152600a60205260409020600701805460ff19166001179055611a8a4262015180613640565b6001600160a01b0385165f908152600a6020526040902060030155611b2c565b8060e001518015611abf575080606001514210155b15611b1357611acd84612239565b611ada4262015180613640565b6001600160a01b0385165f908152600a6020526040902060030155611b0084848461147c565b6111e43085670de0b6b3a764000061147c565b604051632f35253160e01b815260040160405180910390fd5b678ac7230489e800008203611c3a57604081015115611bc057600654604082810151905163a9059cbb60e01b81526001600160a01b038781166004830152602482019290925291169063a9059cbb906044016020604051808303815f875af1158015611b9a573d5f5f3e3d5ffd5b505050506040513d601f19601f82011682018060405250810190611bbe9190613941565b505b6001600160a01b038085165f908152600a602052604080822060078101805460028301859055600190920184905561ffff19909116905583519092168152206006015415611c3a5780516001600160a01b03165f908152600a60205260408120600601805460019290611c34908490613917565b90915550505b6111e484848461147c565b6001600160a01b038416301480611c6457506001600160a01b03831630145b80611c7c5750600e546001600160a01b038581169116145b80611c945750600e546001600160a01b038481169116145b15611ca4576111e484848461147c565b6006546001600160a01b0390811690851603611f07574260135410611cf75760405162461bcd60e51b8152602060048201526009602482015268737461727454696d6560b81b604482015260640161143d565b325f908152600960205260408120429055611d106127c9565b1115611de6575f5f611d20610bfe565b90506b033b2e3c9fd0803ce80000008110611d5357600a611d4285600961397e565b611d4c9190613653565b9150611db5565b6b019d971e4fe8401e740000008110611d7357600a611d4285600661397e565b6a52b7d2dcc80cd2e40000008110611d9257600a611d4285600461397e565b6a0422ca8b0a00a4250000008110611db157600a611d4285600261397e565b8391505b611dc28661dead8461147c565b81841115611dde57611dde8686611dd98588613917565b61147c565b505050505050565b6064611df0611062565b611dfb90600561397e565b611e059190613653565b8210611e3f5760405162461bcd60e51b815260206004820152600960248201526836b0bc103a37b5b2b760b91b604482015260640161143d565b5f6064611e4d84600361397e565b611e579190613653565b90505f600a611e6783600761397e565b611e719190613653565b90508060105f828254611e849190613640565b909155505f9050600a611e9884600161397e565b611ea29190613653565b9050611eb18761dead8361147c565b5f81611ebd8486613917565b611ec79190613917565b90508060115f828254611eda9190613640565b90915550611eeb905088308561147c565b611ef688308361147c565b611f008487613917565b9550505050505b6006546001600160a01b03908116908416036121c457601654600160a81b900460ff16156120035760065460408051630240bc6b60e21b815290516001600160a01b03909216915f9182918491630902f1ac9160048083019260609291908290030181865afa158015611f7c573d5f5f3e3d5ffd5b505050506040513d601f19601f82011682018060405250810190611fa091906138b0565b5091509150816001600160701b03165f148015611fc457506001600160701b038116155b8015611fd95750601654600160a81b900460ff165b15611fff576016805460ff60a81b19169055611ff687878761147c565b50505050505050565b5050505b61200e600a42613917565b325f908152600960205260409020541061204f5760405162461bcd60e51b815260206004820152600260248201526118d960f21b604482015260640161143d565b5f6120598361295e565b116121c457426013541061209b5760405162461bcd60e51b8152602060048201526009602482015268737461727454696d6560b81b604482015260640161143d565b60646120a5611062565b6120b090600a61397e565b6120ba9190613653565b82106120f45760405162461bcd60e51b815260206004820152600960248201526836b0bc103a37b5b2b760b91b604482015260640161143d565b5f606461210284600461397e565b61210c9190613653565b90505f600a61211c83600761397e565b6121269190613653565b90508060105f8282546121399190613640565b909155505f9050600a61214d84600161397e565b6121579190613653565b90506121668761dead8361147c565b5f816121728486613917565b61217c9190613917565b90508060115f82825461218f9190613640565b909155506121a0905088308561147c565b6121ab88308361147c565b6121b58487613917565b95506121bf612b73565b505050505b611c3a610e04565b6060815f0180548060200260200160405190810160405280929190818152602001828054801561221957602002820191905f5260205f20905b815481526020019060010190808311612205575b50505050509050919050565b5f6116c0836001600160a01b038416612d0d565b6001600160a01b038082165f908152600a6020908152604091829020825161012081018452815490941684526001810154918401919091526002810154918301919091526003810154606083015260048101546080830152600581015460a0830152600681015460c08301526007015460ff808216151560e0840152610100918290041615159082018190526123075760405162461bcd60e51b8152602060048201526013602482015272155cd95c881a185cc81b9bdd08189bdd59da1d606a1b604482015260640161143d565b8060e001516123585760405162461bcd60e51b815260206004820152601b60248201527f53746174696320726577617264206e6f7420617661696c61626c650000000000604482015260640161143d565b80606001514210156123a15760405162461bcd60e51b815260206004820152601260248201527114995dd85c99081b9bdd081b585d1d5c995960721b604482015260640161143d565b5f6123ab83611326565b90505f81116123fc5760405162461bcd60e51b815260206004820152601a60248201527f4e6f207374617469632072657761726420617661696c61626c65000000000000604482015260640161143d565b5f5f5f612407610f84565b6020890151929650909450925090505f620186a0612425868461397e565b61242f9190613653565b90505f620186a0612440868561397e565b61244a9190613653565b90505f620186a061245b868661397e565b6124659190613653565b90505f8183612474868c613640565b61247e9190613640565b6124889190613640565b90505f61249482612d59565b905061249e61360e565b6124a782612e95565b80825283906124b7908d9061397e565b6124c19190613653565b81600160200201526006546001600160a01b031663a9059cbb8e83600160200201516040516001600160e01b031960e085901b1681526001600160a01b03909216600483015260248201526044016020604051808303815f875af115801561252b573d5f5f3e3d5ffd5b505050506040513d601f19601f8201168201806040525081019061254f9190613941565b506125618d826001602002015161327c565b60408201528051839061257590879061397e565b61257f9190613653565b60608201819052600654600c5460405163a9059cbb60e01b81526001600160a01b0391821660048201526024810193909352169063a9059cbb906044016020604051808303815f875af11580156125d8573d5f5f3e3d5ffd5b505050506040513d601f19601f820116820180604052508101906125fc9190613941565b50600c5f9054906101000a90046001600160a01b03166001600160a01b031663c33fb8776040518163ffffffff1660e01b81526004015f604051808303815f87803b158015612649575f5ffd5b505af192505050801561265a575060015b508051839061266a90869061397e565b6126749190613653565b6080820181905260065460155460405163a9059cbb60e01b81526001600160a01b0391821660048201526024810193909352169063a9059cbb906044016020604051808303815f875af11580156126cd573d5f5f3e3d5ffd5b505050506040513d601f19601f820116820180604052508101906126f19190613941565b50608081015160608201516040830151602084015184516127129190613917565b61271c9190613917565b6127269190613917565b6127309190613917565b60a08201819052156127ba5760065460155460a083015160405163a9059cbb60e01b81526001600160a01b039283166004820152602481019190915291169063a9059cbb906044016020604051808303815f875af1158015612794573d5f5f3e3d5ffd5b505050506040513d601f19601f820116820180604052508101906127b89190613941565b505b50505050505050505050505050565b5f5f60065f9054906101000a90046001600160a01b03166001600160a01b0316630902f1ac6040518163ffffffff1660e01b8152600401606060405180830381865afa15801561281b573d5f5f3e3d5ffd5b505050506040513d601f19601f8201168201806040525081019061283f91906138b0565b5050600b546006546040516370a0823160e01b81526001600160a01b0391821660048201526001600160701b039390931693505f929116906370a0823190602401602060405180830381865afa15801561289b573d5f5f3e3d5ffd5b505050506040513d601f19601f820116820180604052508101906128bf919061392a565b90508082111561295957600654604080516318160ddd60e01b815290515f926001600160a01b0316916318160ddd9160048083019260209291908290030181865afa158015612910573d5f5f3e3d5ffd5b505050506040513d601f19601f82011682018060405250810190612934919061392a565b9050816129418185613917565b61294b908361397e565b6129559190613653565b9350505b505090565b5f6001600160a01b037f0000000000000000000000000000000000000000000000000000000000000000163303612b6e575f5f60065f9054906101000a90046001600160a01b03166001600160a01b0316630902f1ac6040518163ffffffff1660e01b8152600401606060405180830381865afa1580156129e1573d5f5f3e3d5ffd5b505050506040513d601f19601f82011682018060405250810190612a0591906138b0565b50600b546006546040516370a0823160e01b81526001600160a01b0391821660048201526001600160701b0394851696509290931693505f9216906370a0823190602401602060405180830381865afa158015612a64573d5f5f3e3d5ffd5b505050506040513d601f19601f82011682018060405250810190612a88919061392a565b905082811115612b6a57600654604080516318160ddd60e01b815290515f926001600160a01b0316916318160ddd9160048083019260209291908290030181865afa158015612ad9573d5f5f3e3d5ffd5b505050506040513d601f19601f82011682018060405250810190612afd919061392a565b9050805f03612b125750600195945050505050565b612b1d818385613434565b612b279082613640565b9050612b668482612b388286613917565b612b42919061397e565b612b4c9190613653565b84612b57848a61397e565b612b619190613653565b613529565b9450505b5050505b919050565b5f601154601054612b849190613640565b9050670de0b6b3a7640000811015612b995750565b612bc4307f0000000000000000000000000000000000000000000000000000000000000000836115a2565b6040805160028082526060820183525f9260208301908036833701905050905030815f81518110612bf757612bf76137f5565b6001600160a01b039283166020918202929092010152600b54825191169082906001908110612c2857612c286137f5565b6001600160a01b03928316602091820292909201015260405163791ac94760e01b81527f00000000000000000000000000000000000000000000000000000000000000009091169063791ac94790612c8c9085905f90869030904290600401613995565b5f604051808303815f87803b158015612ca3575f5ffd5b505af1158015612cb5573d5f5f3e3d5ffd5b5050601654601154612cea93506001600160a01b0390911691508490612cdb904761397e565b612ce59190613653565b61353e565b600c54612d00906001600160a01b03164761353e565b50505f6010819055601155565b5f818152600183016020526040812054612d5257508154600181810184555f848152602080822090930184905584548482528286019093526040902091909155610bf8565b505f610bf8565b6040805160028082526060820183525f92839291906020830190803683375050600b5482519293506001600160a01b0316918391505f90612d9c57612d9c6137f5565b60200260200101906001600160a01b031690816001600160a01b0316815250503081600181518110612dd057612dd06137f5565b6001600160a01b03928316602091820292909201015260405163d06ca61f60e01b81525f917f0000000000000000000000000000000000000000000000000000000000000000169063d06ca61f90612e2e90879086906004016139d0565b5f60405180830381865afa158015612e48573d5f5f3e3d5ffd5b505050506040513d5f823e601f3d908101601f19168201604052612e6f91908101906139f0565b905080600181518110612e8457612e846137f5565b602002602001015192505050919050565b5f80612ea2600284613653565b6040805160028082526060820183529293505f92909160208301908036833701905050905030815f81518110612eda57612eda6137f5565b6001600160a01b039283166020918202929092010152600b54825191169082906001908110612f0b57612f0b6137f5565b6001600160a01b039283166020918202929092010152600654612f309116308661147c565b60065f9054906101000a90046001600160a01b03166001600160a01b031663fff6cae96040518163ffffffff1660e01b81526004015f604051808303815f87803b158015612f7c575f5ffd5b505af1158015612f8e573d5f5f3e3d5ffd5b50505050612fbd307f0000000000000000000000000000000000000000000000000000000000000000866115a2565b600e54604051635c11d79560e01b81526001600160a01b037f0000000000000000000000000000000000000000000000000000000000000000811692635c11d795926130189287925f92889291909116904290600401613995565b5f604051808303815f87803b15801561302f575f5ffd5b505af1158015613041573d5f5f3e3d5ffd5b5050600b54600e546040516370a0823160e01b81526001600160a01b0391821660048201525f9450911691506370a0823190602401602060405180830381865afa158015613091573d5f5f3e3d5ffd5b505050506040513d601f19601f820116820180604052508101906130b5919061392a565b600e54600b5460405163092dfdb360e11b81526001600160a01b03918216600482015230602482015260448101849052929350169063125bfb66906064015f604051808303815f87803b15801561310a575f5ffd5b505af115801561311c573d5f5f3e3d5ffd5b5050600b5460405163095ea7b360e01b81526001600160a01b037f00000000000000000000000000000000000000000000000000000000000000008116600483015260248201869052909116925063095ea7b391506044016020604051808303815f875af1158015613190573d5f5f3e3d5ffd5b505050506040513d601f19601f820116820180604052508101906131b49190613941565b50600b5460405162e8e33760e81b81526001600160a01b039182166004820152306024820181905260448201849052606482018690525f6084830181905260a483015260c48201524260e48201527f00000000000000000000000000000000000000000000000000000000000000009091169063e8e3370090610104016060604051808303815f875af115801561324d573d5f5f3e3d5ffd5b505050506040513d601f19601f82011682018060405250810190613271919061383d565b979650505050505050565b6001600160a01b038083165f908152600a602090815260408083208151610120810183528154909516808652600180830154948701949094526002820154928601929092526003810154606086015260048101546080860152600581015460a0860152600681015460c08601526007015460ff808216151560e087015261010091829004161515908501529192919060145b6001600160a01b038316158015906133265750808211155b1561342a575f61333583610d4d565b90505f6064613344838a61397e565b61334e9190613653565b905080156133f9576001600160a01b0385165f908152600a602052604090206006015484116133f95760065460405163a9059cbb60e01b81526001600160a01b038781166004830152602482018490529091169063a9059cbb906044016020604051808303815f875af11580156133c7573d5f5f3e3d5ffd5b505050506040513d601f19601f820116820180604052508101906133eb9190613941565b506133f68188613640565b96505b6001600160a01b039485165f908152600a6020526040902054909416938361342081613ab8565b945050505061330e565b5050505092915050565b5f80613448613443848661397e565b6135a1565b90505f6134c260065f9054906101000a90046001600160a01b03166001600160a01b0316637464fc3d6040518163ffffffff1660e01b8152600401602060405180830381865afa15801561349e573d5f5f3e3d5ffd5b505050506040513d601f19601f82011682018060405250810190613443919061392a565b905080821115613520575f6134d78284613917565b6134e1908861397e565b6134ec90600861397e565b90505f6134fa83600861397e565b61350585601161397e565b61350f9190613640565b905061351b8183613653565b945050505b50509392505050565b5f81831061353757816116c0565b5090919050565b604080515f808252602082019092526001600160a01b0384169083906040516135679190613ad0565b5f6040518083038185875af1925050503d805f8114611dde576040519150601f19603f3d011682016040523d82523d5f602084013e611dde565b5f60038211156136005750805f6135b9600283613653565b6135c4906001613640565b90505b818110156135fa579050806002816135df8186613653565b6135e99190613640565b6135f39190613653565b90506135c7565b50919050565b8115612b6e57506001919050565b6040518060c001604052806006906020820280368337509192915050565b634e487b7160e01b5f52601160045260245ffd5b80820180821115610bf857610bf861362c565b5f8261366d57634e487b7160e01b5f52601260045260245ffd5b500490565b602081525f82518060208401528060208501604085015e5f604082850101526040601f19601f83011684010191505092915050565b6001600160a01b038116811461144f575f5ffd5b5f5f604083850312156136cc575f5ffd5b82356136d7816136a7565b946020939093013593505050565b5f602082840312156136f5575f5ffd5b5035919050565b5f5f5f6060848603121561370e575f5ffd5b8335613719816136a7565b92506020840135613729816136a7565b929592945050506040919091013590565b5f6020828403121561374a575f5ffd5b81356116c0816136a7565b5f8151808452602084019350602083015f5b8281101561378e5781516001600160a01b0316865260209586019590910190600101613767565b5093949350505050565b602081525f6116c06020830184613755565b5f5f604083850312156137bb575f5ffd5b82356137c6816136a7565b915060208301356137d6816136a7565b809150509250929050565b634e487b7160e01b5f52604160045260245ffd5b634e487b7160e01b5f52603260045260245ffd5b848152608060208201525f6138216080830186613755565b6001600160a01b03949094166040830152506060015292915050565b5f5f5f6060848603121561384f575f5ffd5b5050815160208301516040909301519094929350919050565b600181811c9082168061387c57607f821691505b6020821081036135fa57634e487b7160e01b5f52602260045260245ffd5b80516001600160701b0381168114612b6e575f5ffd5b5f5f5f606084860312156138c2575f5ffd5b6138cb8461389a565b92506138d96020850161389a565b9150604084015163ffffffff811681146138f1575f5ffd5b809150509250925092565b5f6020828403121561390c575f5ffd5b81516116c0816136a7565b81810381811115610bf857610bf861362c565b5f6020828403121561393a575f5ffd5b5051919050565b5f60208284031215613951575f5ffd5b815180151581146116c0575f5ffd5b5f60ff821660ff81036139755761397561362c565b60010192915050565b8082028115828204841417610bf857610bf861362c565b85815284602082015260a060408201525f6139b360a0830186613755565b6001600160a01b0394909416606083015250608001529392505050565b828152604060208201525f6139e86040830184613755565b949350505050565b5f60208284031215613a00575f5ffd5b815167ffffffffffffffff811115613a16575f5ffd5b8201601f81018413613a26575f5ffd5b805167ffffffffffffffff811115613a4057613a406137e1565b8060051b604051601f19603f830116810181811067ffffffffffffffff82111715613a6d57613a6d6137e1565b604052918252602081840181019290810187841115613a8a575f5ffd5b6020850194505b83851015613aad57845180825260209586019590935001613a91565b509695505050505050565b5f60018201613ac957613ac961362c565b5060010190565b5f82518060208501845e5f92019182525091905056fea26469706673582212204932ffbc378392c976d77439fc2008228093a10b07573279a7b39ac628f3a1e164736f6c634300082200336080604052348015600e575f5ffd5b50335f908152602081905260409020805460ff19166001179055610180806100355f395ff3fe608060405234801561000f575f5ffd5b5060043610610029575f3560e01c8063125bfb661461002d575b5f5ffd5b61004061003b3660046100eb565b610042565b005b335f9081526020819052604090205460ff16156100cb5760405163a9059cbb60e01b81526001600160a01b0383811660048301526024820183905284169063a9059cbb906044016020604051808303815f875af11580156100a5573d5f5f3e3d5ffd5b505050506040513d601f19601f820116820180604052508101906100c99190610124565b505b505050565b80356001600160a01b03811681146100e6575f5ffd5b919050565b5f5f5f606084860312156100fd575f5ffd5b610106846100d0565b9250610114602085016100d0565b9150604084013590509250925092565b5f60208284031215610134575f5ffd5b81518015158114610143575f5ffd5b939250505056fea264697066735822122013ced6dcc42b9d2c5aafee247a3739b9673cb43b76a0376be9cb7a50bb922fa264736f6c63430008220033",
			"opcodes": "PUSH1 0xA0 PUSH1 0x40 MSTORE PUSH11 0x115EEC47F6CF7E35000000 PUSH1 0xF SSTORE PUSH8 0x16345785D8A0000 PUSH1 0x12 SSTORE PUSH1 0x14 DUP1 SLOAD PUSH1 0x1 PUSH1 0x1 PUSH1 0xA0 SHL SUB NOT AND PUSH20 0x5B6453EA3F0E6F975F7440884257037F72A7C33B OR SWAP1 SSTORE PUSH1 0x16 DUP1 SLOAD PUSH1 0xFF PUSH1 0xA8 SHL NOT AND PUSH1 0x1 PUSH1 0xA8 SHL OR SWAP1 SSTORE CALLVALUE DUP1 ISZERO PUSH2 0x63 JUMPI PUSH0 PUSH0 REVERT JUMPDEST POP PUSH1 0x40 MLOAD PUSH2 0x6C08 CODESIZE SUB DUP1 PUSH2 0x6C08 DUP4 CODECOPY DUP2 ADD PUSH1 0x40 DUP2 SWAP1 MSTORE PUSH2 0x82 SWAP2 PUSH2 0x2942 JUMP JUMPDEST CALLER PUSH1 0x40 MLOAD DUP1 PUSH1 0x40 ADD PUSH1 0x40 MSTORE DUP1 PUSH1 0x8 DUP2 MSTORE PUSH1 0x20 ADD PUSH8 0x26A7A2AA37B5B2B7 PUSH1 0xC1 SHL DUP2 MSTORE POP PUSH1 0x40 MLOAD DUP1 PUSH1 0x40 ADD PUSH1 0x40 MSTORE DUP1 PUSH1 0x3 DUP2 MSTORE PUSH1 0x20 ADD PUSH3 0x4D4F45 PUSH1 0xE8 SHL DUP2 MSTORE POP DUP2 PUSH1 0x3 SWAP1 DUP2 PUSH2 0xCF SWAP2 SWAP1 PUSH2 0x2A16 JUMP JUMPDEST POP PUSH1 0x4 PUSH2 0xDC DUP3 DUP3 PUSH2 0x2A16 JUMP JUMPDEST POP POP POP PUSH1 0x1 PUSH1 0x1 PUSH1 0xA0 SHL SUB DUP2 AND PUSH2 0x10D JUMPI PUSH1 0x40 MLOAD PUSH4 0x1E4FBDF7 PUSH1 0xE0 SHL DUP2 MSTORE PUSH0 PUSH1 0x4 DUP3 ADD MSTORE PUSH1 0x24 ADD JUMPDEST PUSH1 0x40 MLOAD DUP1 SWAP2 SUB SWAP1 REVERT JUMPDEST PUSH2 0x116 DUP2 PUSH2 0x342 JUMP JUMPDEST POP PUSH20 0xD99D1C33F9FC3444F8101754ABC46C52416550D1 PUSH1 0x80 DUP2 SWAP1 MSTORE PUSH1 0x40 DUP1 MLOAD PUSH4 0x15AB88C9 PUSH1 0xE3 SHL DUP2 MSTORE SWAP1 MLOAD PUSH4 0xAD5C4648 SWAP2 PUSH1 0x4 DUP1 DUP3 ADD SWAP3 PUSH1 0x20 SWAP3 SWAP1 SWAP2 SWAP1 DUP3 SWAP1 SUB ADD DUP2 DUP7 GAS STATICCALL ISZERO DUP1 ISZERO PUSH2 0x16A JUMPI RETURNDATASIZE PUSH0 PUSH0 RETURNDATACOPY RETURNDATASIZE PUSH0 REVERT JUMPDEST POP POP POP POP PUSH1 0x40 MLOAD RETURNDATASIZE PUSH1 0x1F NOT PUSH1 0x1F DUP3 ADD AND DUP3 ADD DUP1 PUSH1 0x40 MSTORE POP DUP2 ADD SWAP1 PUSH2 0x18E SWAP2 SWAP1 PUSH2 0x2AD0 JUMP JUMPDEST PUSH1 0xB PUSH0 PUSH2 0x100 EXP DUP2 SLOAD DUP2 PUSH1 0x1 PUSH1 0x1 PUSH1 0xA0 SHL SUB MUL NOT AND SWAP1 DUP4 PUSH1 0x1 PUSH1 0x1 PUSH1 0xA0 SHL SUB AND MUL OR SWAP1 SSTORE POP PUSH1 0x80 MLOAD PUSH1 0x1 PUSH1 0x1 PUSH1 0xA0 SHL SUB AND PUSH4 0xC45A0155 PUSH1 0x40 MLOAD DUP2 PUSH4 0xFFFFFFFF AND PUSH1 0xE0 SHL DUP2 MSTORE PUSH1 0x4 ADD PUSH1 0x20 PUSH1 0x40 MLOAD DUP1 DUP4 SUB DUP2 DUP7 GAS STATICCALL ISZERO DUP1 ISZERO PUSH2 0x1F1 JUMPI RETURNDATASIZE PUSH0 PUSH0 RETURNDATACOPY RETURNDATASIZE PUSH0 REVERT JUMPDEST POP POP POP POP PUSH1 0x40 MLOAD RETURNDATASIZE PUSH1 0x1F NOT PUSH1 0x1F DUP3 ADD AND DUP3 ADD DUP1 PUSH1 0x40 MSTORE POP DUP2 ADD SWAP1 PUSH2 0x215 SWAP2 SWAP1 PUSH2 0x2AD0 JUMP JUMPDEST PUSH1 0xB SLOAD PUSH1 0x40 MLOAD PUSH4 0x64E329CB PUSH1 0xE1 SHL DUP2 MSTORE ADDRESS PUSH1 0x4 DUP3 ADD MSTORE PUSH1 0x1 PUSH1 0x1 PUSH1 0xA0 SHL SUB SWAP2 DUP3 AND PUSH1 0x24 DUP3 ADD MSTORE SWAP2 AND SWAP1 PUSH4 0xC9C65396 SWAP1 PUSH1 0x44 ADD PUSH1 0x20 PUSH1 0x40 MLOAD DUP1 DUP4 SUB DUP2 PUSH0 DUP8 GAS CALL ISZERO DUP1 ISZERO PUSH2 0x263 JUMPI RETURNDATASIZE PUSH0 PUSH0 RETURNDATACOPY RETURNDATASIZE PUSH0 REVERT JUMPDEST POP POP POP POP PUSH1 0x40 MLOAD RETURNDATASIZE PUSH1 0x1F NOT PUSH1 0x1F DUP3 ADD AND DUP3 ADD DUP1 PUSH1 0x40 MSTORE POP DUP2 ADD SWAP1 PUSH2 0x287 SWAP2 SWAP1 PUSH2 0x2AD0 JUMP JUMPDEST PUSH1 0x6 DUP1 SLOAD PUSH1 0x1 PUSH1 0x1 PUSH1 0xA0 SHL SUB NOT SWAP1 DUP2 AND PUSH1 0x1 PUSH1 0x1 PUSH1 0xA0 SHL SUB SWAP4 DUP5 AND OR SWAP1 SWAP2 SSTORE PUSH1 0x15 DUP1 SLOAD DUP3 AND DUP6 DUP5 AND OR SWAP1 SSTORE PUSH1 0x16 DUP1 SLOAD SWAP1 SWAP2 AND SWAP2 DUP4 AND SWAP2 SWAP1 SWAP2 OR SWAP1 SSTORE PUSH1 0x40 MLOAD PUSH2 0x2CE SWAP1 PUSH2 0x2901 JUMP JUMPDEST PUSH1 0x40 MLOAD DUP1 SWAP2 SUB SWAP1 PUSH0 CREATE DUP1 ISZERO DUP1 ISZERO PUSH2 0x2E7 JUMPI RETURNDATASIZE PUSH0 PUSH0 RETURNDATACOPY RETURNDATASIZE PUSH0 REVERT JUMPDEST POP PUSH1 0xE DUP1 SLOAD PUSH1 0x1 PUSH1 0x1 PUSH1 0xA0 SHL SUB NOT AND PUSH1 0x1 PUSH1 0x1 PUSH1 0xA0 SHL SUB SWAP3 SWAP1 SWAP3 AND SWAP2 SWAP1 SWAP2 OR SWAP1 SSTORE PUSH4 0x69AABA1F PUSH1 0x13 SSTORE PUSH2 0x33A DUP4 PUSH2 0x31C PUSH1 0x12 SWAP1 JUMP JUMPDEST PUSH2 0x327 SWAP1 PUSH1 0xA PUSH2 0x2BE0 JUMP JUMPDEST PUSH2 0x335 SWAP1 PUSH4 0x7D2B7500 PUSH2 0x2BEE JUMP JUMPDEST PUSH2 0x393 JUMP JUMPDEST POP POP POP PUSH2 0x2ED2 JUMP JUMPDEST PUSH1 0x5 DUP1 SLOAD PUSH1 0x1 PUSH1 0x1 PUSH1 0xA0 SHL SUB DUP4 DUP2 AND PUSH1 0x1 PUSH1 0x1 PUSH1 0xA0 SHL SUB NOT DUP4 AND DUP2 OR SWAP1 SWAP4 SSTORE PUSH1 0x40 MLOAD SWAP2 AND SWAP2 SWAP1 DUP3 SWAP1 PUSH32 0x8BE0079C531659141344CD1FD0A4F28419497F9722A3DAAFE3B4186F6B6457E0 SWAP1 PUSH0 SWAP1 LOG3 POP POP JUMP JUMPDEST PUSH1 0x1 PUSH1 0x1 PUSH1 0xA0 SHL SUB DUP3 AND PUSH2 0x3BC JUMPI PUSH1 0x40 MLOAD PUSH4 0xEC442F05 PUSH1 0xE0 SHL DUP2 MSTORE PUSH0 PUSH1 0x4 DUP3 ADD MSTORE PUSH1 0x24 ADD PUSH2 0x104 JUMP JUMPDEST PUSH2 0x3C7 PUSH0 DUP4 DUP4 PUSH2 0x3CB JUMP JUMPDEST POP POP JUMP JUMPDEST PUSH8 0x1BC16D674EC80000 DUP2 EQ DUP1 ISZERO PUSH2 0x407 JUMPI POP PUSH1 0x1 PUSH1 0x1 PUSH1 0xA0 SHL SUB DUP1 DUP4 AND PUSH0 SWAP1 DUP2 MSTORE PUSH1 0x7 PUSH1 0x20 SWAP1 DUP2 MSTORE PUSH1 0x40 DUP1 DUP4 KECCAK256 SWAP4 DUP8 AND DUP4 MSTORE SWAP3 SWAP1 MSTORE KECCAK256 SLOAD PUSH1 0xFF AND ISZERO JUMPDEST DUP1 ISZERO PUSH2 0x418 JUMPI POP PUSH2 0x418 DUP4 DUP4 PUSH2 0xDB3 JUMP JUMPDEST ISZERO PUSH2 0x44D JUMPI PUSH1 0x1 PUSH1 0x1 PUSH1 0xA0 SHL SUB DUP1 DUP5 AND PUSH0 SWAP1 DUP2 MSTORE PUSH1 0x7 PUSH1 0x20 SWAP1 DUP2 MSTORE PUSH1 0x40 DUP1 DUP4 KECCAK256 SWAP4 DUP7 AND DUP4 MSTORE SWAP3 SWAP1 MSTORE KECCAK256 DUP1 SLOAD PUSH1 0xFF NOT AND PUSH1 0x1 OR SWAP1 SSTORE JUMPDEST PUSH8 0xDE0B6B3A7640000 DUP2 EQ DUP1 ISZERO PUSH2 0x488 JUMPI POP PUSH1 0x1 PUSH1 0x1 PUSH1 0xA0 SHL SUB DUP1 DUP4 AND PUSH0 SWAP1 DUP2 MSTORE PUSH1 0x7 PUSH1 0x20 SWAP1 DUP2 MSTORE PUSH1 0x40 DUP1 DUP4 KECCAK256 SWAP4 DUP8 AND DUP4 MSTORE SWAP3 SWAP1 MSTORE KECCAK256 SLOAD PUSH1 0xFF AND JUMPDEST DUP1 ISZERO PUSH2 0x4AB JUMPI POP PUSH1 0x1 PUSH1 0x1 PUSH1 0xA0 SHL SUB DUP4 DUP2 AND PUSH0 SWAP1 DUP2 MSTORE PUSH1 0xA PUSH1 0x20 MSTORE PUSH1 0x40 SWAP1 KECCAK256 SLOAD AND ISZERO JUMPDEST ISZERO PUSH2 0x533 JUMPI PUSH1 0x1 PUSH1 0x1 PUSH1 0xA0 SHL SUB DUP4 DUP2 AND PUSH0 SWAP1 DUP2 MSTORE PUSH1 0xA PUSH1 0x20 SWAP1 DUP2 MSTORE PUSH1 0x40 DUP1 DUP4 KECCAK256 DUP1 SLOAD PUSH1 0x1 PUSH1 0x1 PUSH1 0xA0 SHL SUB NOT AND SWAP5 DUP8 AND SWAP5 DUP6 OR SWAP1 SSTORE SWAP3 DUP3 MSTORE PUSH1 0x8 SWAP1 MSTORE KECCAK256 PUSH2 0x4F1 SWAP1 DUP5 PUSH2 0xEFC JUMP JUMPDEST POP DUP2 PUSH1 0x1 PUSH1 0x1 PUSH1 0xA0 SHL SUB AND DUP4 PUSH1 0x1 PUSH1 0x1 PUSH1 0xA0 SHL SUB AND PUSH32 0x8D63F2E3D39EB6CF9C80D49BC203133F6F215CE2A1A3D27A68F0167F6C045D48 PUSH1 0x40 MLOAD PUSH1 0x40 MLOAD DUP1 SWAP2 SUB SWAP1 LOG3 JUMPDEST PUSH1 0x1 PUSH1 0x1 PUSH1 0xA0 SHL SUB DUP1 DUP5 AND PUSH0 SWAP1 DUP2 MSTORE PUSH1 0xA PUSH1 0x20 SWAP1 DUP2 MSTORE PUSH1 0x40 SWAP2 DUP3 SWAP1 KECCAK256 DUP3 MLOAD PUSH2 0x120 DUP2 ADD DUP5 MSTORE DUP2 SLOAD SWAP1 SWAP5 AND DUP5 MSTORE PUSH1 0x1 DUP2 ADD SLOAD SWAP2 DUP5 ADD SWAP2 SWAP1 SWAP2 MSTORE PUSH1 0x2 DUP2 ADD SLOAD SWAP2 DUP4 ADD SWAP2 SWAP1 SWAP2 MSTORE PUSH1 0x3 DUP2 ADD SLOAD PUSH1 0x60 DUP4 ADD MSTORE PUSH1 0x4 DUP2 ADD SLOAD PUSH1 0x80 DUP4 ADD MSTORE PUSH1 0x5 DUP2 ADD SLOAD PUSH1 0xA0 DUP4 ADD MSTORE PUSH1 0x6 DUP2 ADD SLOAD PUSH1 0xC0 DUP4 ADD MSTORE PUSH1 0x7 ADD SLOAD PUSH1 0xFF DUP1 DUP3 AND ISZERO ISZERO PUSH1 0xE0 DUP5 ADD MSTORE PUSH2 0x100 SWAP2 DUP3 SWAP1 DIV AND ISZERO ISZERO SWAP1 DUP3 ADD MSTORE CALLER ORIGIN EQ DUP1 ISZERO PUSH2 0x5CE JUMPI POP DUP1 PUSH2 0x100 ADD MLOAD JUMPDEST DUP1 ISZERO PUSH2 0x5DD JUMPI POP PUSH0 DUP2 PUSH1 0x40 ADD MLOAD GT JUMPDEST DUP1 ISZERO PUSH2 0x5F1 JUMPI POP PUSH1 0x1 PUSH1 0x1 PUSH1 0xA0 SHL SUB DUP4 AND ADDRESS EQ JUMPDEST ISZERO PUSH2 0x82C JUMPI PUSH8 0xDE0B6B3A7640000 DUP3 SUB PUSH2 0x713 JUMPI PUSH1 0xE SLOAD PUSH1 0x1 PUSH1 0xA0 SHL SWAP1 DIV PUSH1 0xFF AND ISZERO PUSH2 0x630 JUMPI PUSH1 0x40 MLOAD PUSH4 0x2F352531 PUSH1 0xE0 SHL DUP2 MSTORE PUSH1 0x4 ADD PUSH1 0x40 MLOAD DUP1 SWAP2 SUB SWAP1 REVERT JUMPDEST DUP1 PUSH1 0xE0 ADD MLOAD PUSH2 0x68B JUMPI PUSH1 0x1 PUSH1 0x1 PUSH1 0xA0 SHL SUB DUP5 AND PUSH0 SWAP1 DUP2 MSTORE PUSH1 0xA PUSH1 0x20 MSTORE PUSH1 0x40 SWAP1 KECCAK256 PUSH1 0x7 ADD DUP1 SLOAD PUSH1 0xFF NOT AND PUSH1 0x1 OR SWAP1 SSTORE PUSH2 0x66B TIMESTAMP PUSH3 0x15180 PUSH2 0x2C05 JUMP JUMPDEST PUSH1 0x1 PUSH1 0x1 PUSH1 0xA0 SHL SUB DUP6 AND PUSH0 SWAP1 DUP2 MSTORE PUSH1 0xA PUSH1 0x20 MSTORE PUSH1 0x40 SWAP1 KECCAK256 PUSH1 0x3 ADD SSTORE PUSH2 0x713 JUMP JUMPDEST DUP1 PUSH1 0xE0 ADD MLOAD DUP1 ISZERO PUSH2 0x6A0 JUMPI POP DUP1 PUSH1 0x60 ADD MLOAD TIMESTAMP LT ISZERO JUMPDEST ISZERO PUSH2 0x6FA JUMPI PUSH2 0x6AE DUP5 PUSH2 0xF17 JUMP JUMPDEST PUSH2 0x6BB TIMESTAMP PUSH3 0x15180 PUSH2 0x2C05 JUMP JUMPDEST PUSH1 0x1 PUSH1 0x1 PUSH1 0xA0 SHL SUB DUP6 AND PUSH0 SWAP1 DUP2 MSTORE PUSH1 0xA PUSH1 0x20 MSTORE PUSH1 0x40 SWAP1 KECCAK256 PUSH1 0x3 ADD SSTORE PUSH2 0x6E1 DUP5 DUP5 DUP5 PUSH2 0x14B1 JUMP JUMPDEST PUSH2 0x6F4 ADDRESS DUP6 PUSH8 0xDE0B6B3A7640000 PUSH2 0x14B1 JUMP JUMPDEST POP POP POP POP JUMP JUMPDEST PUSH1 0x40 MLOAD PUSH4 0x2F352531 PUSH1 0xE0 SHL DUP2 MSTORE PUSH1 0x4 ADD PUSH1 0x40 MLOAD DUP1 SWAP2 SUB SWAP1 REVERT JUMPDEST PUSH8 0x8AC7230489E80000 DUP3 SUB PUSH2 0x821 JUMPI PUSH1 0x40 DUP2 ADD MLOAD ISZERO PUSH2 0x7A7 JUMPI PUSH1 0x6 SLOAD PUSH1 0x40 DUP3 DUP2 ADD MLOAD SWAP1 MLOAD PUSH4 0xA9059CBB PUSH1 0xE0 SHL DUP2 MSTORE PUSH1 0x1 PUSH1 0x1 PUSH1 0xA0 SHL SUB DUP8 DUP2 AND PUSH1 0x4 DUP4 ADD MSTORE PUSH1 0x24 DUP3 ADD SWAP3 SWAP1 SWAP3 MSTORE SWAP2 AND SWAP1 PUSH4 0xA9059CBB SWAP1 PUSH1 0x44 ADD PUSH1 0x20 PUSH1 0x40 MLOAD DUP1 DUP4 SUB DUP2 PUSH0 DUP8 GAS CALL ISZERO DUP1 ISZERO PUSH2 0x781 JUMPI RETURNDATASIZE PUSH0 PUSH0 RETURNDATACOPY RETURNDATASIZE PUSH0 REVERT JUMPDEST POP POP POP POP PUSH1 0x40 MLOAD RETURNDATASIZE PUSH1 0x1F NOT PUSH1 0x1F DUP3 ADD AND DUP3 ADD DUP1 PUSH1 0x40 MSTORE POP DUP2 ADD SWAP1 PUSH2 0x7A5 SWAP2 SWAP1 PUSH2 0x2C18 JUMP JUMPDEST POP JUMPDEST PUSH1 0x1 PUSH1 0x1 PUSH1 0xA0 SHL SUB DUP1 DUP6 AND PUSH0 SWAP1 DUP2 MSTORE PUSH1 0xA PUSH1 0x20 MSTORE PUSH1 0x40 DUP1 DUP3 KECCAK256 PUSH1 0x7 DUP2 ADD DUP1 SLOAD PUSH1 0x2 DUP4 ADD DUP6 SWAP1 SSTORE PUSH1 0x1 SWAP1 SWAP3 ADD DUP5 SWAP1 SSTORE PUSH2 0xFFFF NOT SWAP1 SWAP2 AND SWAP1 SSTORE DUP4 MLOAD SWAP1 SWAP3 AND DUP2 MSTORE KECCAK256 PUSH1 0x6 ADD SLOAD ISZERO PUSH2 0x821 JUMPI DUP1 MLOAD PUSH1 0x1 PUSH1 0x1 PUSH1 0xA0 SHL SUB AND PUSH0 SWAP1 DUP2 MSTORE PUSH1 0xA PUSH1 0x20 MSTORE PUSH1 0x40 DUP2 KECCAK256 PUSH1 0x6 ADD DUP1 SLOAD PUSH1 0x1 SWAP3 SWAP1 PUSH2 0x81B SWAP1 DUP5 SWAP1 PUSH2 0x2C37 JUMP JUMPDEST SWAP1 SWAP2 SSTORE POP POP JUMPDEST PUSH2 0x6F4 DUP5 DUP5 DUP5 PUSH2 0x14B1 JUMP JUMPDEST PUSH1 0x1 PUSH1 0x1 PUSH1 0xA0 SHL SUB DUP5 AND ADDRESS EQ DUP1 PUSH2 0x84B JUMPI POP PUSH1 0x1 PUSH1 0x1 PUSH1 0xA0 SHL SUB DUP4 AND ADDRESS EQ JUMPDEST DUP1 PUSH2 0x863 JUMPI POP PUSH1 0xE SLOAD PUSH1 0x1 PUSH1 0x1 PUSH1 0xA0 SHL SUB DUP6 DUP2 AND SWAP2 AND EQ JUMPDEST DUP1 PUSH2 0x87B JUMPI POP PUSH1 0xE SLOAD PUSH1 0x1 PUSH1 0x1 PUSH1 0xA0 SHL SUB DUP5 DUP2 AND SWAP2 AND EQ JUMPDEST ISZERO PUSH2 0x88B JUMPI PUSH2 0x6F4 DUP5 DUP5 DUP5 PUSH2 0x14B1 JUMP JUMPDEST PUSH1 0x6 SLOAD PUSH1 0x1 PUSH1 0x1 PUSH1 0xA0 SHL SUB SWAP1 DUP2 AND SWAP1 DUP6 AND SUB PUSH2 0xAEE JUMPI TIMESTAMP PUSH1 0x13 SLOAD LT PUSH2 0x8DE JUMPI PUSH1 0x40 MLOAD PUSH3 0x461BCD PUSH1 0xE5 SHL DUP2 MSTORE PUSH1 0x20 PUSH1 0x4 DUP3 ADD MSTORE PUSH1 0x9 PUSH1 0x24 DUP3 ADD MSTORE PUSH9 0x737461727454696D65 PUSH1 0xB8 SHL PUSH1 0x44 DUP3 ADD MSTORE PUSH1 0x64 ADD PUSH2 0x104 JUMP JUMPDEST ORIGIN PUSH0 SWAP1 DUP2 MSTORE PUSH1 0x9 PUSH1 0x20 MSTORE PUSH1 0x40 DUP2 KECCAK256 TIMESTAMP SWAP1 SSTORE PUSH2 0x8F7 PUSH2 0x15D7 JUMP JUMPDEST GT ISZERO PUSH2 0x9CD JUMPI PUSH0 DUP1 PUSH2 0x907 PUSH2 0x176C JUMP JUMPDEST SWAP1 POP PUSH12 0x33B2E3C9FD0803CE8000000 DUP2 LT PUSH2 0x93A JUMPI PUSH1 0xA PUSH2 0x929 DUP6 PUSH1 0x9 PUSH2 0x2BEE JUMP JUMPDEST PUSH2 0x933 SWAP2 SWAP1 PUSH2 0x2C4A JUMP JUMPDEST SWAP2 POP PUSH2 0x99C JUMP JUMPDEST PUSH12 0x19D971E4FE8401E74000000 DUP2 LT PUSH2 0x95A JUMPI PUSH1 0xA PUSH2 0x929 DUP6 PUSH1 0x6 PUSH2 0x2BEE JUMP JUMPDEST PUSH11 0x52B7D2DCC80CD2E4000000 DUP2 LT PUSH2 0x979 JUMPI PUSH1 0xA PUSH2 0x929 DUP6 PUSH1 0x4 PUSH2 0x2BEE JUMP JUMPDEST PUSH11 0x422CA8B0A00A425000000 DUP2 LT PUSH2 0x998 JUMPI PUSH1 0xA PUSH2 0x929 DUP6 PUSH1 0x2 PUSH2 0x2BEE JUMP JUMPDEST DUP4 SWAP2 POP JUMPDEST PUSH2 0x9A9 DUP7 PUSH2 0xDEAD DUP5 PUSH2 0x14B1 JUMP JUMPDEST DUP2 DUP5 GT ISZERO PUSH2 0x9C5 JUMPI PUSH2 0x9C5 DUP7 DUP7 PUSH2 0x9C0 DUP6 DUP9 PUSH2 0x2C37 JUMP JUMPDEST PUSH2 0x14B1 JUMP JUMPDEST POP POP POP POP POP POP JUMP JUMPDEST PUSH1 0x64 PUSH2 0x9D7 PUSH2 0x1870 JUMP JUMPDEST PUSH2 0x9E2 SWAP1 PUSH1 0x5 PUSH2 0x2BEE JUMP JUMPDEST PUSH2 0x9EC SWAP2 SWAP1 PUSH2 0x2C4A JUMP JUMPDEST DUP3 LT PUSH2 0xA26 JUMPI PUSH1 0x40 MLOAD PUSH3 0x461BCD PUSH1 0xE5 SHL DUP2 MSTORE PUSH1 0x20 PUSH1 0x4 DUP3 ADD MSTORE PUSH1 0x9 PUSH1 0x24 DUP3 ADD MSTORE PUSH9 0x36B0BC103A37B5B2B7 PUSH1 0xB9 SHL PUSH1 0x44 DUP3 ADD MSTORE PUSH1 0x64 ADD PUSH2 0x104 JUMP JUMPDEST PUSH0 PUSH1 0x64 PUSH2 0xA34 DUP5 PUSH1 0x3 PUSH2 0x2BEE JUMP JUMPDEST PUSH2 0xA3E SWAP2 SWAP1 PUSH2 0x2C4A JUMP JUMPDEST SWAP1 POP PUSH0 PUSH1 0xA PUSH2 0xA4E DUP4 PUSH1 0x7 PUSH2 0x2BEE JUMP JUMPDEST PUSH2 0xA58 SWAP2 SWAP1 PUSH2 0x2C4A JUMP JUMPDEST SWAP1 POP DUP1 PUSH1 0x10 PUSH0 DUP3 DUP3 SLOAD PUSH2 0xA6B SWAP2 SWAP1 PUSH2 0x2C05 JUMP JUMPDEST SWAP1 SWAP2 SSTORE POP PUSH0 SWAP1 POP PUSH1 0xA PUSH2 0xA7F DUP5 PUSH1 0x1 PUSH2 0x2BEE JUMP JUMPDEST PUSH2 0xA89 SWAP2 SWAP1 PUSH2 0x2C4A JUMP JUMPDEST SWAP1 POP PUSH2 0xA98 DUP8 PUSH2 0xDEAD DUP4 PUSH2 0x14B1 JUMP JUMPDEST PUSH0 DUP2 PUSH2 0xAA4 DUP5 DUP7 PUSH2 0x2C37 JUMP JUMPDEST PUSH2 0xAAE SWAP2 SWAP1 PUSH2 0x2C37 JUMP JUMPDEST SWAP1 POP DUP1 PUSH1 0x11 PUSH0 DUP3 DUP3 SLOAD PUSH2 0xAC1 SWAP2 SWAP1 PUSH2 0x2C05 JUMP JUMPDEST SWAP1 SWAP2 SSTORE POP PUSH2 0xAD2 SWAP1 POP DUP9 ADDRESS DUP6 PUSH2 0x14B1 JUMP JUMPDEST PUSH2 0xADD DUP9 ADDRESS DUP4 PUSH2 0x14B1 JUMP JUMPDEST PUSH2 0xAE7 DUP5 DUP8 PUSH2 0x2C37 JUMP JUMPDEST SWAP6 POP POP POP POP POP JUMPDEST PUSH1 0x6 SLOAD PUSH1 0x1 PUSH1 0x1 PUSH1 0xA0 SHL SUB SWAP1 DUP2 AND SWAP1 DUP5 AND SUB PUSH2 0xDAB JUMPI PUSH1 0x16 SLOAD PUSH1 0x1 PUSH1 0xA8 SHL SWAP1 DIV PUSH1 0xFF AND ISZERO PUSH2 0xBEA JUMPI PUSH1 0x6 SLOAD PUSH1 0x40 DUP1 MLOAD PUSH4 0x240BC6B PUSH1 0xE2 SHL DUP2 MSTORE SWAP1 MLOAD PUSH1 0x1 PUSH1 0x1 PUSH1 0xA0 SHL SUB SWAP1 SWAP3 AND SWAP2 PUSH0 SWAP2 DUP3 SWAP2 DUP5 SWAP2 PUSH4 0x902F1AC SWAP2 PUSH1 0x4 DUP1 DUP4 ADD SWAP3 PUSH1 0x60 SWAP3 SWAP2 SWAP1 DUP3 SWAP1 SUB ADD DUP2 DUP7 GAS STATICCALL ISZERO DUP1 ISZERO PUSH2 0xB63 JUMPI RETURNDATASIZE PUSH0 PUSH0 RETURNDATACOPY RETURNDATASIZE PUSH0 REVERT JUMPDEST POP POP POP POP PUSH1 0x40 MLOAD RETURNDATASIZE PUSH1 0x1F NOT PUSH1 0x1F DUP3 ADD AND DUP3 ADD DUP1 PUSH1 0x40 MSTORE POP DUP2 ADD SWAP1 PUSH2 0xB87 SWAP2 SWAP1 PUSH2 0x2C7F JUMP JUMPDEST POP SWAP2 POP SWAP2 POP DUP2 PUSH1 0x1 PUSH1 0x1 PUSH1 0x70 SHL SUB AND PUSH0 EQ DUP1 ISZERO PUSH2 0xBAB JUMPI POP PUSH1 0x1 PUSH1 0x1 PUSH1 0x70 SHL SUB DUP2 AND ISZERO JUMPDEST DUP1 ISZERO PUSH2 0xBC0 JUMPI POP PUSH1 0x16 SLOAD PUSH1 0x1 PUSH1 0xA8 SHL SWAP1 DIV PUSH1 0xFF AND JUMPDEST ISZERO PUSH2 0xBE6 JUMPI PUSH1 0x16 DUP1 SLOAD PUSH1 0xFF PUSH1 0xA8 SHL NOT AND SWAP1 SSTORE PUSH2 0xBDD DUP8 DUP8 DUP8 PUSH2 0x14B1 JUMP JUMPDEST POP POP POP POP POP POP POP JUMP JUMPDEST POP POP POP JUMPDEST PUSH2 0xBF5 PUSH1 0xA TIMESTAMP PUSH2 0x2C37 JUMP JUMPDEST ORIGIN PUSH0 SWAP1 DUP2 MSTORE PUSH1 0x9 PUSH1 0x20 MSTORE PUSH1 0x40 SWAP1 KECCAK256 SLOAD LT PUSH2 0xC36 JUMPI PUSH1 0x40 MLOAD PUSH3 0x461BCD PUSH1 0xE5 SHL DUP2 MSTORE PUSH1 0x20 PUSH1 0x4 DUP3 ADD MSTORE PUSH1 0x2 PUSH1 0x24 DUP3 ADD MSTORE PUSH2 0x18D9 PUSH1 0xF2 SHL PUSH1 0x44 DUP3 ADD MSTORE PUSH1 0x64 ADD PUSH2 0x104 JUMP JUMPDEST PUSH0 PUSH2 0xC40 DUP4 PUSH2 0x18B0 JUMP JUMPDEST GT PUSH2 0xDAB JUMPI TIMESTAMP PUSH1 0x13 SLOAD LT PUSH2 0xC82 JUMPI PUSH1 0x40 MLOAD PUSH3 0x461BCD PUSH1 0xE5 SHL DUP2 MSTORE PUSH1 0x20 PUSH1 0x4 DUP3 ADD MSTORE PUSH1 0x9 PUSH1 0x24 DUP3 ADD MSTORE PUSH9 0x737461727454696D65 PUSH1 0xB8 SHL PUSH1 0x44 DUP3 ADD MSTORE PUSH1 0x64 ADD PUSH2 0x104 JUMP JUMPDEST PUSH1 0x64 PUSH2 0xC8C PUSH2 0x1870 JUMP JUMPDEST PUSH2 0xC97 SWAP1 PUSH1 0xA PUSH2 0x2BEE JUMP JUMPDEST PUSH2 0xCA1 SWAP2 SWAP1 PUSH2 0x2C4A JUMP JUMPDEST DUP3 LT PUSH2 0xCDB JUMPI PUSH1 0x40 MLOAD PUSH3 0x461BCD PUSH1 0xE5 SHL DUP2 MSTORE PUSH1 0x20 PUSH1 0x4 DUP3 ADD MSTORE PUSH1 0x9 PUSH1 0x24 DUP3 ADD MSTORE PUSH9 0x36B0BC103A37B5B2B7 PUSH1 0xB9 SHL PUSH1 0x44 DUP3 ADD MSTORE PUSH1 0x64 ADD PUSH2 0x104 JUMP JUMPDEST PUSH0 PUSH1 0x64 PUSH2 0xCE9 DUP5 PUSH1 0x4 PUSH2 0x2BEE JUMP JUMPDEST PUSH2 0xCF3 SWAP2 SWAP1 PUSH2 0x2C4A JUMP JUMPDEST SWAP1 POP PUSH0 PUSH1 0xA PUSH2 0xD03 DUP4 PUSH1 0x7 PUSH2 0x2BEE JUMP JUMPDEST PUSH2 0xD0D SWAP2 SWAP1 PUSH2 0x2C4A JUMP JUMPDEST SWAP1 POP DUP1 PUSH1 0x10 PUSH0 DUP3 DUP3 SLOAD PUSH2 0xD20 SWAP2 SWAP1 PUSH2 0x2C05 JUMP JUMPDEST SWAP1 SWAP2 SSTORE POP PUSH0 SWAP1 POP PUSH1 0xA PUSH2 0xD34 DUP5 PUSH1 0x1 PUSH2 0x2BEE JUMP JUMPDEST PUSH2 0xD3E SWAP2 SWAP1 PUSH2 0x2C4A JUMP JUMPDEST SWAP1 POP PUSH2 0xD4D DUP8 PUSH2 0xDEAD DUP4 PUSH2 0x14B1 JUMP JUMPDEST PUSH0 DUP2 PUSH2 0xD59 DUP5 DUP7 PUSH2 0x2C37 JUMP JUMPDEST PUSH2 0xD63 SWAP2 SWAP1 PUSH2 0x2C37 JUMP JUMPDEST SWAP1 POP DUP1 PUSH1 0x11 PUSH0 DUP3 DUP3 SLOAD PUSH2 0xD76 SWAP2 SWAP1 PUSH2 0x2C05 JUMP JUMPDEST SWAP1 SWAP2 SSTORE POP PUSH2 0xD87 SWAP1 POP DUP9 ADDRESS DUP6 PUSH2 0x14B1 JUMP JUMPDEST PUSH2 0xD92 DUP9 ADDRESS DUP4 PUSH2 0x14B1 JUMP JUMPDEST PUSH2 0xD9C DUP5 DUP8 PUSH2 0x2C37 JUMP JUMPDEST SWAP6 POP PUSH2 0xDA6 PUSH2 0x1AA8 JUMP JUMPDEST POP POP POP POP JUMPDEST PUSH2 0x821 PUSH2 0x1C0B JUMP JUMPDEST PUSH1 0x1 PUSH1 0x1 PUSH1 0xA0 SHL SUB DUP3 DUP2 AND PUSH0 SWAP1 DUP2 MSTORE PUSH1 0xA PUSH1 0x20 MSTORE PUSH1 0x40 DUP2 KECCAK256 SLOAD SWAP1 SWAP2 AND ISZERO DUP1 ISZERO PUSH2 0xDEA JUMPI POP PUSH1 0x14 SLOAD PUSH1 0x1 PUSH1 0x1 PUSH1 0xA0 SHL SUB DUP5 DUP2 AND SWAP2 AND EQ ISZERO JUMPDEST DUP1 ISZERO PUSH2 0xE04 JUMPI POP PUSH1 0x6 SLOAD PUSH1 0x1 PUSH1 0x1 PUSH1 0xA0 SHL SUB DUP4 DUP2 AND SWAP2 AND EQ ISZERO JUMPDEST DUP1 ISZERO PUSH2 0xE1E JUMPI POP PUSH1 0x6 SLOAD PUSH1 0x1 PUSH1 0x1 PUSH1 0xA0 SHL SUB DUP5 DUP2 AND SWAP2 AND EQ ISZERO JUMPDEST ISZERO PUSH2 0xE2A JUMPI POP PUSH0 PUSH2 0xEF6 JUMP JUMPDEST PUSH1 0x1 PUSH1 0x1 PUSH1 0xA0 SHL SUB DUP1 DUP5 AND PUSH0 SWAP1 DUP2 MSTORE PUSH1 0x7 PUSH1 0x20 SWAP1 DUP2 MSTORE PUSH1 0x40 DUP1 DUP4 KECCAK256 SWAP4 DUP7 AND DUP4 MSTORE SWAP3 SWAP1 MSTORE KECCAK256 SLOAD PUSH1 0xFF AND DUP1 PUSH2 0xE6E JUMPI POP DUP2 PUSH1 0x1 PUSH1 0x1 PUSH1 0xA0 SHL SUB AND DUP4 PUSH1 0x1 PUSH1 0x1 PUSH1 0xA0 SHL SUB AND EQ JUMPDEST ISZERO PUSH2 0xE7A JUMPI POP PUSH0 PUSH2 0xEF6 JUMP JUMPDEST DUP2 PUSH0 JUMPDEST PUSH1 0x1 PUSH1 0x1 PUSH1 0xA0 SHL SUB DUP3 AND ISZERO DUP1 ISZERO SWAP1 PUSH2 0xE98 JUMPI POP PUSH1 0x19 DUP2 PUSH1 0xFF AND LT JUMPDEST ISZERO PUSH2 0xEEF JUMPI DUP5 PUSH1 0x1 PUSH1 0x1 PUSH1 0xA0 SHL SUB AND DUP3 PUSH1 0x1 PUSH1 0x1 PUSH1 0xA0 SHL SUB AND SUB PUSH2 0xEC0 JUMPI PUSH0 SWAP3 POP POP POP PUSH2 0xEF6 JUMP JUMPDEST PUSH1 0x1 PUSH1 0x1 PUSH1 0xA0 SHL SUB SWAP2 DUP3 AND PUSH0 SWAP1 DUP2 MSTORE PUSH1 0xA PUSH1 0x20 MSTORE PUSH1 0x40 SWAP1 KECCAK256 SLOAD SWAP1 SWAP2 AND SWAP1 DUP1 PUSH2 0xEE7 DUP2 PUSH2 0x2CCB JUMP JUMPDEST SWAP2 POP POP PUSH2 0xE7D JUMP JUMPDEST PUSH1 0x1 SWAP3 POP POP POP JUMPDEST SWAP3 SWAP2 POP POP JUMP JUMPDEST PUSH0 PUSH2 0xF10 DUP4 PUSH1 0x1 PUSH1 0x1 PUSH1 0xA0 SHL SUB DUP5 AND PUSH2 0x1D8B JUMP JUMPDEST SWAP4 SWAP3 POP POP POP JUMP JUMPDEST PUSH1 0x1 PUSH1 0x1 PUSH1 0xA0 SHL SUB DUP1 DUP3 AND PUSH0 SWAP1 DUP2 MSTORE PUSH1 0xA PUSH1 0x20 SWAP1 DUP2 MSTORE PUSH1 0x40 SWAP2 DUP3 SWAP1 KECCAK256 DUP3 MLOAD PUSH2 0x120 DUP2 ADD DUP5 MSTORE DUP2 SLOAD SWAP1 SWAP5 AND DUP5 MSTORE PUSH1 0x1 DUP2 ADD SLOAD SWAP2 DUP5 ADD SWAP2 SWAP1 SWAP2 MSTORE PUSH1 0x2 DUP2 ADD SLOAD SWAP2 DUP4 ADD SWAP2 SWAP1 SWAP2 MSTORE PUSH1 0x3 DUP2 ADD SLOAD PUSH1 0x60 DUP4 ADD MSTORE PUSH1 0x4 DUP2 ADD SLOAD PUSH1 0x80 DUP4 ADD MSTORE PUSH1 0x5 DUP2 ADD SLOAD PUSH1 0xA0 DUP4 ADD MSTORE PUSH1 0x6 DUP2 ADD SLOAD PUSH1 0xC0 DUP4 ADD MSTORE PUSH1 0x7 ADD SLOAD PUSH1 0xFF DUP1 DUP3 AND ISZERO ISZERO PUSH1 0xE0 DUP5 ADD MSTORE PUSH2 0x100 SWAP2 DUP3 SWAP1 DIV AND ISZERO ISZERO SWAP1 DUP3 ADD DUP2 SWAP1 MSTORE PUSH2 0xFEF JUMPI PUSH1 0x40 MLOAD PUSH3 0x461BCD PUSH1 0xE5 SHL DUP2 MSTORE PUSH1 0x20 PUSH1 0x4 DUP3 ADD MSTORE PUSH1 0x13 PUSH1 0x24 DUP3 ADD MSTORE PUSH32 0x5573657220686173206E6F7420626F7567687400000000000000000000000000 PUSH1 0x44 DUP3 ADD MSTORE PUSH1 0x64 ADD PUSH2 0x104 JUMP JUMPDEST DUP1 PUSH1 0xE0 ADD MLOAD PUSH2 0x1040 JUMPI PUSH1 0x40 MLOAD PUSH3 0x461BCD PUSH1 0xE5 SHL DUP2 MSTORE PUSH1 0x20 PUSH1 0x4 DUP3 ADD MSTORE PUSH1 0x1B PUSH1 0x24 DUP3 ADD MSTORE PUSH32 0x53746174696320726577617264206E6F7420617661696C61626C650000000000 PUSH1 0x44 DUP3 ADD MSTORE PUSH1 0x64 ADD PUSH2 0x104 JUMP JUMPDEST DUP1 PUSH1 0x60 ADD MLOAD TIMESTAMP LT ISZERO PUSH2 0x1089 JUMPI PUSH1 0x40 MLOAD PUSH3 0x461BCD PUSH1 0xE5 SHL DUP2 MSTORE PUSH1 0x20 PUSH1 0x4 DUP3 ADD MSTORE PUSH1 0x12 PUSH1 0x24 DUP3 ADD MSTORE PUSH18 0x14995DD85C99081B9BDD081B585D1D5C9959 PUSH1 0x72 SHL PUSH1 0x44 DUP3 ADD MSTORE PUSH1 0x64 ADD PUSH2 0x104 JUMP JUMPDEST PUSH0 PUSH2 0x1093 DUP4 PUSH2 0x1DD7 JUMP JUMPDEST SWAP1 POP PUSH0 DUP2 GT PUSH2 0x10E4 JUMPI PUSH1 0x40 MLOAD PUSH3 0x461BCD PUSH1 0xE5 SHL DUP2 MSTORE PUSH1 0x20 PUSH1 0x4 DUP3 ADD MSTORE PUSH1 0x1A PUSH1 0x24 DUP3 ADD MSTORE PUSH32 0x4E6F207374617469632072657761726420617661696C61626C65000000000000 PUSH1 0x44 DUP3 ADD MSTORE PUSH1 0x64 ADD PUSH2 0x104 JUMP JUMPDEST PUSH0 DUP1 DUP1 PUSH2 0x10EF PUSH2 0x1EC1 JUMP JUMPDEST PUSH1 0x20 DUP10 ADD MLOAD SWAP3 SWAP7 POP SWAP1 SWAP5 POP SWAP3 POP SWAP1 POP PUSH0 PUSH3 0x186A0 PUSH2 0x110D DUP7 DUP5 PUSH2 0x2BEE JUMP JUMPDEST PUSH2 0x1117 SWAP2 SWAP1 PUSH2 0x2C4A JUMP JUMPDEST SWAP1 POP PUSH0 PUSH3 0x186A0 PUSH2 0x1128 DUP7 DUP6 PUSH2 0x2BEE JUMP JUMPDEST PUSH2 0x1132 SWAP2 SWAP1 PUSH2 0x2C4A JUMP JUMPDEST SWAP1 POP PUSH0 PUSH3 0x186A0 PUSH2 0x1143 DUP7 DUP7 PUSH2 0x2BEE JUMP JUMPDEST PUSH2 0x114D SWAP2 SWAP1 PUSH2 0x2C4A JUMP JUMPDEST SWAP1 POP PUSH0 DUP2 DUP4 PUSH2 0x115C DUP7 DUP13 PUSH2 0x2C05 JUMP JUMPDEST PUSH2 0x1166 SWAP2 SWAP1 PUSH2 0x2C05 JUMP JUMPDEST PUSH2 0x1170 SWAP2 SWAP1 PUSH2 0x2C05 JUMP JUMPDEST SWAP1 POP PUSH0 PUSH2 0x117C DUP3 PUSH2 0x1F70 JUMP JUMPDEST SWAP1 POP PUSH2 0x1186 PUSH2 0x290E JUMP JUMPDEST PUSH2 0x118F DUP3 PUSH2 0x2091 JUMP JUMPDEST DUP1 DUP3 MSTORE DUP4 SWAP1 PUSH2 0x119F SWAP1 DUP14 SWAP1 PUSH2 0x2BEE JUMP JUMPDEST PUSH2 0x11A9 SWAP2 SWAP1 PUSH2 0x2C4A JUMP JUMPDEST DUP2 PUSH1 0x1 PUSH1 0x20 MUL ADD MSTORE PUSH1 0x6 SLOAD PUSH1 0x1 PUSH1 0x1 PUSH1 0xA0 SHL SUB AND PUSH4 0xA9059CBB DUP15 DUP4 PUSH1 0x1 PUSH1 0x20 MUL ADD MLOAD PUSH1 0x40 MLOAD PUSH1 0x1 PUSH1 0x1 PUSH1 0xE0 SHL SUB NOT PUSH1 0xE0 DUP6 SWAP1 SHL AND DUP2 MSTORE PUSH1 0x1 PUSH1 0x1 PUSH1 0xA0 SHL SUB SWAP1 SWAP3 AND PUSH1 0x4 DUP4 ADD MSTORE PUSH1 0x24 DUP3 ADD MSTORE PUSH1 0x44 ADD PUSH1 0x20 PUSH1 0x40 MLOAD DUP1 DUP4 SUB DUP2 PUSH0 DUP8 GAS CALL ISZERO DUP1 ISZERO PUSH2 0x1213 JUMPI RETURNDATASIZE PUSH0 PUSH0 RETURNDATACOPY RETURNDATASIZE PUSH0 REVERT JUMPDEST POP POP POP POP PUSH1 0x40 MLOAD RETURNDATASIZE PUSH1 0x1F NOT PUSH1 0x1F DUP3 ADD AND DUP3 ADD DUP1 PUSH1 0x40 MSTORE POP DUP2 ADD SWAP1 PUSH2 0x1237 SWAP2 SWAP1 PUSH2 0x2C18 JUMP JUMPDEST POP PUSH2 0x1249 DUP14 DUP3 PUSH1 0x1 PUSH1 0x20 MUL ADD MLOAD PUSH2 0x2404 JUMP JUMPDEST PUSH1 0x40 DUP3 ADD MSTORE DUP1 MLOAD DUP4 SWAP1 PUSH2 0x125D SWAP1 DUP8 SWAP1 PUSH2 0x2BEE JUMP JUMPDEST PUSH2 0x1267 SWAP2 SWAP1 PUSH2 0x2C4A JUMP JUMPDEST PUSH1 0x60 DUP3 ADD DUP2 SWAP1 MSTORE PUSH1 0x6 SLOAD PUSH1 0xC SLOAD PUSH1 0x40 MLOAD PUSH4 0xA9059CBB PUSH1 0xE0 SHL DUP2 MSTORE PUSH1 0x1 PUSH1 0x1 PUSH1 0xA0 SHL SUB SWAP2 DUP3 AND PUSH1 0x4 DUP3 ADD MSTORE PUSH1 0x24 DUP2 ADD SWAP4 SWAP1 SWAP4 MSTORE AND SWAP1 PUSH4 0xA9059CBB SWAP1 PUSH1 0x44 ADD PUSH1 0x20 PUSH1 0x40 MLOAD DUP1 DUP4 SUB DUP2 PUSH0 DUP8 GAS CALL ISZERO DUP1 ISZERO PUSH2 0x12C0 JUMPI RETURNDATASIZE PUSH0 PUSH0 RETURNDATACOPY RETURNDATASIZE PUSH0 REVERT JUMPDEST POP POP POP POP PUSH1 0x40 MLOAD RETURNDATASIZE PUSH1 0x1F NOT PUSH1 0x1F DUP3 ADD AND DUP3 ADD DUP1 PUSH1 0x40 MSTORE POP DUP2 ADD SWAP1 PUSH2 0x12E4 SWAP2 SWAP1 PUSH2 0x2C18 JUMP JUMPDEST POP PUSH1 0xC PUSH0 SWAP1 SLOAD SWAP1 PUSH2 0x100 EXP SWAP1 DIV PUSH1 0x1 PUSH1 0x1 PUSH1 0xA0 SHL SUB AND PUSH1 0x1 PUSH1 0x1 PUSH1 0xA0 SHL SUB AND PUSH4 0xC33FB877 PUSH1 0x40 MLOAD DUP2 PUSH4 0xFFFFFFFF AND PUSH1 0xE0 SHL DUP2 MSTORE PUSH1 0x4 ADD PUSH0 PUSH1 0x40 MLOAD DUP1 DUP4 SUB DUP2 PUSH0 DUP8 DUP1 EXTCODESIZE ISZERO DUP1 ISZERO PUSH2 0x1331 JUMPI PUSH0 PUSH0 REVERT JUMPDEST POP GAS CALL SWAP3 POP POP POP DUP1 ISZERO PUSH2 0x1342 JUMPI POP PUSH1 0x1 JUMPDEST POP DUP1 MLOAD DUP4 SWAP1 PUSH2 0x1352 SWAP1 DUP7 SWAP1 PUSH2 0x2BEE JUMP JUMPDEST PUSH2 0x135C SWAP2 SWAP1 PUSH2 0x2C4A JUMP JUMPDEST PUSH1 0x80 DUP3 ADD DUP2 SWAP1 MSTORE PUSH1 0x6 SLOAD PUSH1 0x15 SLOAD PUSH1 0x40 MLOAD PUSH4 0xA9059CBB PUSH1 0xE0 SHL DUP2 MSTORE PUSH1 0x1 PUSH1 0x1 PUSH1 0xA0 SHL SUB SWAP2 DUP3 AND PUSH1 0x4 DUP3 ADD MSTORE PUSH1 0x24 DUP2 ADD SWAP4 SWAP1 SWAP4 MSTORE AND SWAP1 PUSH4 0xA9059CBB SWAP1 PUSH1 0x44 ADD PUSH1 0x20 PUSH1 0x40 MLOAD DUP1 DUP4 SUB DUP2 PUSH0 DUP8 GAS CALL ISZERO DUP1 ISZERO PUSH2 0x13B5 JUMPI RETURNDATASIZE PUSH0 PUSH0 RETURNDATACOPY RETURNDATASIZE PUSH0 REVERT JUMPDEST POP POP POP POP PUSH1 0x40 MLOAD RETURNDATASIZE PUSH1 0x1F NOT PUSH1 0x1F DUP3 ADD AND DUP3 ADD DUP1 PUSH1 0x40 MSTORE POP DUP2 ADD SWAP1 PUSH2 0x13D9 SWAP2 SWAP1 PUSH2 0x2C18 JUMP JUMPDEST POP PUSH1 0x80 DUP2 ADD MLOAD PUSH1 0x60 DUP3 ADD MLOAD PUSH1 0x40 DUP4 ADD MLOAD PUSH1 0x20 DUP5 ADD MLOAD DUP5 MLOAD PUSH2 0x13FA SWAP2 SWAP1 PUSH2 0x2C37 JUMP JUMPDEST PUSH2 0x1404 SWAP2 SWAP1 PUSH2 0x2C37 JUMP JUMPDEST PUSH2 0x140E SWAP2 SWAP1 PUSH2 0x2C37 JUMP JUMPDEST PUSH2 0x1418 SWAP2 SWAP1 PUSH2 0x2C37 JUMP JUMPDEST PUSH1 0xA0 DUP3 ADD DUP2 SWAP1 MSTORE ISZERO PUSH2 0x14A2 JUMPI PUSH1 0x6 SLOAD PUSH1 0x15 SLOAD PUSH1 0xA0 DUP4 ADD MLOAD PUSH1 0x40 MLOAD PUSH4 0xA9059CBB PUSH1 0xE0 SHL DUP2 MSTORE PUSH1 0x1 PUSH1 0x1 PUSH1 0xA0 SHL SUB SWAP3 DUP4 AND PUSH1 0x4 DUP3 ADD MSTORE PUSH1 0x24 DUP2 ADD SWAP2 SWAP1 SWAP2 MSTORE SWAP2 AND SWAP1 PUSH4 0xA9059CBB SWAP1 PUSH1 0x44 ADD PUSH1 0x20 PUSH1 0x40 MLOAD DUP1 DUP4 SUB DUP2 PUSH0 DUP8 GAS CALL ISZERO DUP1 ISZERO PUSH2 0x147C JUMPI RETURNDATASIZE PUSH0 PUSH0 RETURNDATACOPY RETURNDATASIZE PUSH0 REVERT JUMPDEST POP POP POP POP PUSH1 0x40 MLOAD RETURNDATASIZE PUSH1 0x1F NOT PUSH1 0x1F DUP3 ADD AND DUP3 ADD DUP1 PUSH1 0x40 MSTORE POP DUP2 ADD SWAP1 PUSH2 0x14A0 SWAP2 SWAP1 PUSH2 0x2C18 JUMP JUMPDEST POP JUMPDEST POP POP POP POP POP POP POP POP POP POP POP POP POP JUMP JUMPDEST PUSH1 0x1 PUSH1 0x1 PUSH1 0xA0 SHL SUB DUP4 AND PUSH2 0x14DB JUMPI DUP1 PUSH1 0x2 PUSH0 DUP3 DUP3 SLOAD PUSH2 0x14D0 SWAP2 SWAP1 PUSH2 0x2C05 JUMP JUMPDEST SWAP1 SWAP2 SSTORE POP PUSH2 0x154B SWAP1 POP JUMP JUMPDEST PUSH1 0x1 PUSH1 0x1 PUSH1 0xA0 SHL SUB DUP4 AND PUSH0 SWAP1 DUP2 MSTORE PUSH1 0x20 DUP2 SWAP1 MSTORE PUSH1 0x40 SWAP1 KECCAK256 SLOAD DUP2 DUP2 LT ISZERO PUSH2 0x152D JUMPI PUSH1 0x40 MLOAD PUSH4 0x391434E3 PUSH1 0xE2 SHL DUP2 MSTORE PUSH1 0x1 PUSH1 0x1 PUSH1 0xA0 SHL SUB DUP6 AND PUSH1 0x4 DUP3 ADD MSTORE PUSH1 0x24 DUP2 ADD DUP3 SWAP1 MSTORE PUSH1 0x44 DUP2 ADD DUP4 SWAP1 MSTORE PUSH1 0x64 ADD PUSH2 0x104 JUMP JUMPDEST PUSH1 0x1 PUSH1 0x1 PUSH1 0xA0 SHL SUB DUP5 AND PUSH0 SWAP1 DUP2 MSTORE PUSH1 0x20 DUP2 SWAP1 MSTORE PUSH1 0x40 SWAP1 KECCAK256 SWAP1 DUP3 SWAP1 SUB SWAP1 SSTORE JUMPDEST PUSH1 0x1 PUSH1 0x1 PUSH1 0xA0 SHL SUB DUP3 AND PUSH2 0x1567 JUMPI PUSH1 0x2 DUP1 SLOAD DUP3 SWAP1 SUB SWAP1 SSTORE PUSH2 0x1585 JUMP JUMPDEST PUSH1 0x1 PUSH1 0x1 PUSH1 0xA0 SHL SUB DUP3 AND PUSH0 SWAP1 DUP2 MSTORE PUSH1 0x20 DUP2 SWAP1 MSTORE PUSH1 0x40 SWAP1 KECCAK256 DUP1 SLOAD DUP3 ADD SWAP1 SSTORE JUMPDEST DUP2 PUSH1 0x1 PUSH1 0x1 PUSH1 0xA0 SHL SUB AND DUP4 PUSH1 0x1 PUSH1 0x1 PUSH1 0xA0 SHL SUB AND PUSH32 0xDDF252AD1BE2C89B69C2B068FC378DAA952BA7F163C4A11628F55A4DF523B3EF DUP4 PUSH1 0x40 MLOAD PUSH2 0x15CA SWAP2 DUP2 MSTORE PUSH1 0x20 ADD SWAP1 JUMP JUMPDEST PUSH1 0x40 MLOAD DUP1 SWAP2 SUB SWAP1 LOG3 POP POP POP JUMP JUMPDEST PUSH0 PUSH0 PUSH1 0x6 PUSH0 SWAP1 SLOAD SWAP1 PUSH2 0x100 EXP SWAP1 DIV PUSH1 0x1 PUSH1 0x1 PUSH1 0xA0 SHL SUB AND PUSH1 0x1 PUSH1 0x1 PUSH1 0xA0 SHL SUB AND PUSH4 0x902F1AC PUSH1 0x40 MLOAD DUP2 PUSH4 0xFFFFFFFF AND PUSH1 0xE0 SHL DUP2 MSTORE PUSH1 0x4 ADD PUSH1 0x60 PUSH1 0x40 MLOAD DUP1 DUP4 SUB DUP2 DUP7 GAS STATICCALL ISZERO DUP1 ISZERO PUSH2 0x1629 JUMPI RETURNDATASIZE PUSH0 PUSH0 RETURNDATACOPY RETURNDATASIZE PUSH0 REVERT JUMPDEST POP POP POP POP PUSH1 0x40 MLOAD RETURNDATASIZE PUSH1 0x1F NOT PUSH1 0x1F DUP3 ADD AND DUP3 ADD DUP1 PUSH1 0x40 MSTORE POP DUP2 ADD SWAP1 PUSH2 0x164D SWAP2 SWAP1 PUSH2 0x2C7F JUMP JUMPDEST POP POP PUSH1 0xB SLOAD PUSH1 0x6 SLOAD PUSH1 0x40 MLOAD PUSH4 0x70A08231 PUSH1 0xE0 SHL DUP2 MSTORE PUSH1 0x1 PUSH1 0x1 PUSH1 0xA0 SHL SUB SWAP2 DUP3 AND PUSH1 0x4 DUP3 ADD MSTORE PUSH1 0x1 PUSH1 0x1 PUSH1 0x70 SHL SUB SWAP4 SWAP1 SWAP4 AND SWAP4 POP PUSH0 SWAP3 SWAP2 AND SWAP1 PUSH4 0x70A08231 SWAP1 PUSH1 0x24 ADD PUSH1 0x20 PUSH1 0x40 MLOAD DUP1 DUP4 SUB DUP2 DUP7 GAS STATICCALL ISZERO DUP1 ISZERO PUSH2 0x16A9 JUMPI RETURNDATASIZE PUSH0 PUSH0 RETURNDATACOPY RETURNDATASIZE PUSH0 REVERT JUMPDEST POP POP POP POP PUSH1 0x40 MLOAD RETURNDATASIZE PUSH1 0x1F NOT PUSH1 0x1F DUP3 ADD AND DUP3 ADD DUP1 PUSH1 0x40 MSTORE POP DUP2 ADD SWAP1 PUSH2 0x16CD SWAP2 SWAP1 PUSH2 0x2CFD JUMP JUMPDEST SWAP1 POP DUP1 DUP3 GT ISZERO PUSH2 0x1767 JUMPI PUSH1 0x6 SLOAD PUSH1 0x40 DUP1 MLOAD PUSH4 0x18160DDD PUSH1 0xE0 SHL DUP2 MSTORE SWAP1 MLOAD PUSH0 SWAP3 PUSH1 0x1 PUSH1 0x1 PUSH1 0xA0 SHL SUB AND SWAP2 PUSH4 0x18160DDD SWAP2 PUSH1 0x4 DUP1 DUP4 ADD SWAP3 PUSH1 0x20 SWAP3 SWAP2 SWAP1 DUP3 SWAP1 SUB ADD DUP2 DUP7 GAS STATICCALL ISZERO DUP1 ISZERO PUSH2 0x171E JUMPI RETURNDATASIZE PUSH0 PUSH0 RETURNDATACOPY RETURNDATASIZE PUSH0 REVERT JUMPDEST POP POP POP POP PUSH1 0x40 MLOAD RETURNDATASIZE PUSH1 0x1F NOT PUSH1 0x1F DUP3 ADD AND DUP3 ADD DUP1 PUSH1 0x40 MSTORE POP DUP2 ADD SWAP1 PUSH2 0x1742 SWAP2 SWAP1 PUSH2 0x2CFD JUMP JUMPDEST SWAP1 POP DUP2 PUSH2 0x174F DUP2 DUP6 PUSH2 0x2C37 JUMP JUMPDEST PUSH2 0x1759 SWAP1 DUP4 PUSH2 0x2BEE JUMP JUMPDEST PUSH2 0x1763 SWAP2 SWAP1 PUSH2 0x2C4A JUMP JUMPDEST SWAP4 POP POP JUMPDEST POP POP SWAP1 JUMP JUMPDEST PUSH1 0x6 SLOAD PUSH1 0x40 DUP1 MLOAD PUSH4 0x240BC6B PUSH1 0xE2 SHL DUP2 MSTORE SWAP1 MLOAD PUSH0 SWAP3 PUSH1 0x1 PUSH1 0x1 PUSH1 0xA0 SHL SUB AND SWAP2 DUP4 SWAP2 DUP3 SWAP2 DUP5 SWAP2 PUSH4 0x902F1AC SWAP2 PUSH1 0x4 DUP1 DUP3 ADD SWAP3 PUSH1 0x60 SWAP3 SWAP1 SWAP2 SWAP1 DUP3 SWAP1 SUB ADD DUP2 DUP7 GAS STATICCALL ISZERO DUP1 ISZERO PUSH2 0x17BA JUMPI RETURNDATASIZE PUSH0 PUSH0 RETURNDATACOPY RETURNDATASIZE PUSH0 REVERT JUMPDEST POP POP POP POP PUSH1 0x40 MLOAD RETURNDATASIZE PUSH1 0x1F NOT PUSH1 0x1F DUP3 ADD AND DUP3 ADD DUP1 PUSH1 0x40 MSTORE POP DUP2 ADD SWAP1 PUSH2 0x17DE SWAP2 SWAP1 PUSH2 0x2C7F JUMP JUMPDEST POP SWAP2 POP SWAP2 POP PUSH0 DUP4 PUSH1 0x1 PUSH1 0x1 PUSH1 0xA0 SHL SUB AND PUSH4 0xDFE1681 PUSH1 0x40 MLOAD DUP2 PUSH4 0xFFFFFFFF AND PUSH1 0xE0 SHL DUP2 MSTORE PUSH1 0x4 ADD PUSH1 0x20 PUSH1 0x40 MLOAD DUP1 DUP4 SUB DUP2 DUP7 GAS STATICCALL ISZERO DUP1 ISZERO PUSH2 0x1820 JUMPI RETURNDATASIZE PUSH0 PUSH0 RETURNDATACOPY RETURNDATASIZE PUSH0 REVERT JUMPDEST POP POP POP POP PUSH1 0x40 MLOAD RETURNDATASIZE PUSH1 0x1F NOT PUSH1 0x1F DUP3 ADD AND DUP3 ADD DUP1 PUSH1 0x40 MSTORE POP DUP2 ADD SWAP1 PUSH2 0x1844 SWAP2 SWAP1 PUSH2 0x2AD0 JUMP JUMPDEST SWAP1 POP PUSH1 0x1 PUSH1 0x1 PUSH1 0xA0 SHL SUB DUP2 AND ADDRESS EQ PUSH2 0x185C JUMPI DUP2 PUSH2 0x185E JUMP JUMPDEST DUP3 JUMPDEST PUSH1 0x1 PUSH1 0x1 PUSH1 0x70 SHL SUB AND SWAP5 POP POP POP POP POP SWAP1 JUMP JUMPDEST PUSH2 0xDEAD PUSH0 SWAP1 DUP2 MSTORE PUSH1 0x20 DUP2 SWAP1 MSTORE PUSH32 0x44AD89BA62B98FF34F51403AC22759B55759460C0BB5521EB4B6EE3CFF49CF83 SLOAD PUSH1 0x2 SLOAD PUSH2 0x18AB SWAP2 SWAP1 PUSH2 0x2C37 JUMP JUMPDEST SWAP1 POP SWAP1 JUMP JUMPDEST PUSH1 0x80 MLOAD PUSH0 SWAP1 PUSH1 0x1 PUSH1 0x1 PUSH1 0xA0 SHL SUB AND CALLER SUB PUSH2 0x1AA3 JUMPI PUSH0 PUSH0 PUSH1 0x6 PUSH0 SWAP1 SLOAD SWAP1 PUSH2 0x100 EXP SWAP1 DIV PUSH1 0x1 PUSH1 0x1 PUSH1 0xA0 SHL SUB AND PUSH1 0x1 PUSH1 0x1 PUSH1 0xA0 SHL SUB AND PUSH4 0x902F1AC PUSH1 0x40 MLOAD DUP2 PUSH4 0xFFFFFFFF AND PUSH1 0xE0 SHL DUP2 MSTORE PUSH1 0x4 ADD PUSH1 0x60 PUSH1 0x40 MLOAD DUP1 DUP4 SUB DUP2 DUP7 GAS STATICCALL ISZERO DUP1 ISZERO PUSH2 0x1916 JUMPI RETURNDATASIZE PUSH0 PUSH0 RETURNDATACOPY RETURNDATASIZE PUSH0 REVERT JUMPDEST POP POP POP POP PUSH1 0x40 MLOAD RETURNDATASIZE PUSH1 0x1F NOT PUSH1 0x1F DUP3 ADD AND DUP3 ADD DUP1 PUSH1 0x40 MSTORE POP DUP2 ADD SWAP1 PUSH2 0x193A SWAP2 SWAP1 PUSH2 0x2C7F JUMP JUMPDEST POP PUSH1 0xB SLOAD PUSH1 0x6 SLOAD PUSH1 0x40 MLOAD PUSH4 0x70A08231 PUSH1 0xE0 SHL DUP2 MSTORE PUSH1 0x1 PUSH1 0x1 PUSH1 0xA0 SHL SUB SWAP2 DUP3 AND PUSH1 0x4 DUP3 ADD MSTORE PUSH1 0x1 PUSH1 0x1 PUSH1 0x70 SHL SUB SWAP5 DUP6 AND SWAP7 POP SWAP3 SWAP1 SWAP4 AND SWAP4 POP PUSH0 SWAP3 AND SWAP1 PUSH4 0x70A08231 SWAP1 PUSH1 0x24 ADD PUSH1 0x20 PUSH1 0x40 MLOAD DUP1 DUP4 SUB DUP2 DUP7 GAS STATICCALL ISZERO DUP1 ISZERO PUSH2 0x1999 JUMPI RETURNDATASIZE PUSH0 PUSH0 RETURNDATACOPY RETURNDATASIZE PUSH0 REVERT JUMPDEST POP POP POP POP PUSH1 0x40 MLOAD RETURNDATASIZE PUSH1 0x1F NOT PUSH1 0x1F DUP3 ADD AND DUP3 ADD DUP1 PUSH1 0x40 MSTORE POP DUP2 ADD SWAP1 PUSH2 0x19BD SWAP2 SWAP1 PUSH2 0x2CFD JUMP JUMPDEST SWAP1 POP DUP3 DUP2 GT ISZERO PUSH2 0x1A9F JUMPI PUSH1 0x6 SLOAD PUSH1 0x40 DUP1 MLOAD PUSH4 0x18160DDD PUSH1 0xE0 SHL DUP2 MSTORE SWAP1 MLOAD PUSH0 SWAP3 PUSH1 0x1 PUSH1 0x1 PUSH1 0xA0 SHL SUB AND SWAP2 PUSH4 0x18160DDD SWAP2 PUSH1 0x4 DUP1 DUP4 ADD SWAP3 PUSH1 0x20 SWAP3 SWAP2 SWAP1 DUP3 SWAP1 SUB ADD DUP2 DUP7 GAS STATICCALL ISZERO DUP1 ISZERO PUSH2 0x1A0E JUMPI RETURNDATASIZE PUSH0 PUSH0 RETURNDATACOPY RETURNDATASIZE PUSH0 REVERT JUMPDEST POP POP POP POP PUSH1 0x40 MLOAD RETURNDATASIZE PUSH1 0x1F NOT PUSH1 0x1F DUP3 ADD AND DUP3 ADD DUP1 PUSH1 0x40 MSTORE POP DUP2 ADD SWAP1 PUSH2 0x1A32 SWAP2 SWAP1 PUSH2 0x2CFD JUMP JUMPDEST SWAP1 POP DUP1 PUSH0 SUB PUSH2 0x1A47 JUMPI POP PUSH1 0x1 SWAP6 SWAP5 POP POP POP POP POP JUMP JUMPDEST PUSH2 0x1A52 DUP2 DUP4 DUP6 PUSH2 0x25BC JUMP JUMPDEST PUSH2 0x1A5C SWAP1 DUP3 PUSH2 0x2C05 JUMP JUMPDEST SWAP1 POP PUSH2 0x1A9B DUP5 DUP3 PUSH2 0x1A6D DUP3 DUP7 PUSH2 0x2C37 JUMP JUMPDEST PUSH2 0x1A77 SWAP2 SWAP1 PUSH2 0x2BEE JUMP JUMPDEST PUSH2 0x1A81 SWAP2 SWAP1 PUSH2 0x2C4A JUMP JUMPDEST DUP5 PUSH2 0x1A8C DUP5 DUP11 PUSH2 0x2BEE JUMP JUMPDEST PUSH2 0x1A96 SWAP2 SWAP1 PUSH2 0x2C4A JUMP JUMPDEST PUSH2 0x26B1 JUMP JUMPDEST SWAP5 POP POP JUMPDEST POP POP POP JUMPDEST SWAP2 SWAP1 POP JUMP JUMPDEST PUSH0 PUSH1 0x11 SLOAD PUSH1 0x10 SLOAD PUSH2 0x1AB9 SWAP2 SWAP1 PUSH2 0x2C05 JUMP JUMPDEST SWAP1 POP PUSH8 0xDE0B6B3A7640000 DUP2 LT ISZERO PUSH2 0x1ACE JUMPI POP JUMP JUMPDEST PUSH2 0x1AE1 ADDRESS PUSH1 0x80 MLOAD DUP4 PUSH2 0x26C6 PUSH1 0x20 SHL PUSH1 0x20 SHR JUMP JUMPDEST PUSH1 0x40 DUP1 MLOAD PUSH1 0x2 DUP1 DUP3 MSTORE PUSH1 0x60 DUP3 ADD DUP4 MSTORE PUSH0 SWAP3 PUSH1 0x20 DUP4 ADD SWAP1 DUP1 CALLDATASIZE DUP4 CALLDATACOPY ADD SWAP1 POP POP SWAP1 POP ADDRESS DUP2 PUSH0 DUP2 MLOAD DUP2 LT PUSH2 0x1B14 JUMPI PUSH2 0x1B14 PUSH2 0x2CE9 JUMP JUMPDEST PUSH1 0x1 PUSH1 0x1 PUSH1 0xA0 SHL SUB SWAP3 DUP4 AND PUSH1 0x20 SWAP2 DUP3 MUL SWAP3 SWAP1 SWAP3 ADD ADD MSTORE PUSH1 0xB SLOAD DUP3 MLOAD SWAP2 AND SWAP1 DUP3 SWAP1 PUSH1 0x1 SWAP1 DUP2 LT PUSH2 0x1B45 JUMPI PUSH2 0x1B45 PUSH2 0x2CE9 JUMP JUMPDEST PUSH1 0x1 PUSH1 0x1 PUSH1 0xA0 SHL SUB SWAP3 DUP4 AND PUSH1 0x20 SWAP2 DUP3 MUL SWAP3 SWAP1 SWAP3 ADD ADD MSTORE PUSH1 0x80 MLOAD PUSH1 0x40 MLOAD PUSH4 0x791AC947 PUSH1 0xE0 SHL DUP2 MSTORE SWAP2 AND SWAP1 PUSH4 0x791AC947 SWAP1 PUSH2 0x1B8A SWAP1 DUP6 SWAP1 PUSH0 SWAP1 DUP7 SWAP1 ADDRESS SWAP1 TIMESTAMP SWAP1 PUSH1 0x4 ADD PUSH2 0x2D57 JUMP JUMPDEST PUSH0 PUSH1 0x40 MLOAD DUP1 DUP4 SUB DUP2 PUSH0 DUP8 DUP1 EXTCODESIZE ISZERO DUP1 ISZERO PUSH2 0x1BA1 JUMPI PUSH0 PUSH0 REVERT JUMPDEST POP GAS CALL ISZERO DUP1 ISZERO PUSH2 0x1BB3 JUMPI RETURNDATASIZE PUSH0 PUSH0 RETURNDATACOPY RETURNDATASIZE PUSH0 REVERT JUMPDEST POP POP PUSH1 0x16 SLOAD PUSH1 0x11 SLOAD PUSH2 0x1BE8 SWAP4 POP PUSH1 0x1 PUSH1 0x1 PUSH1 0xA0 SHL SUB SWAP1 SWAP2 AND SWAP2 POP DUP5 SWAP1 PUSH2 0x1BD9 SWAP1 SELFBALANCE PUSH2 0x2BEE JUMP JUMPDEST PUSH2 0x1BE3 SWAP2 SWAP1 PUSH2 0x2C4A JUMP JUMPDEST PUSH2 0x26D8 JUMP JUMPDEST PUSH1 0xC SLOAD PUSH2 0x1BFE SWAP1 PUSH1 0x1 PUSH1 0x1 PUSH1 0xA0 SHL SUB AND SELFBALANCE PUSH2 0x26D8 JUMP JUMPDEST POP POP PUSH0 PUSH1 0x10 DUP2 SWAP1 SSTORE PUSH1 0x11 SSTORE JUMP JUMPDEST PUSH1 0x6 SLOAD PUSH1 0x40 DUP1 MLOAD PUSH4 0x240BC6B PUSH1 0xE2 SHL DUP2 MSTORE SWAP1 MLOAD PUSH1 0x1 PUSH1 0x1 PUSH1 0xA0 SHL SUB SWAP1 SWAP3 AND SWAP2 PUSH0 SWAP2 DUP3 SWAP2 DUP5 SWAP2 PUSH4 0x902F1AC SWAP2 PUSH1 0x4 DUP1 DUP4 ADD SWAP3 PUSH1 0x60 SWAP3 SWAP2 SWAP1 DUP3 SWAP1 SUB ADD DUP2 DUP7 GAS STATICCALL ISZERO DUP1 ISZERO PUSH2 0x1C58 JUMPI RETURNDATASIZE PUSH0 PUSH0 RETURNDATACOPY RETURNDATASIZE PUSH0 REVERT JUMPDEST POP POP POP POP PUSH1 0x40 MLOAD RETURNDATASIZE PUSH1 0x1F NOT PUSH1 0x1F DUP3 ADD AND DUP3 ADD DUP1 PUSH1 0x40 MSTORE POP DUP2 ADD SWAP1 PUSH2 0x1C7C SWAP2 SWAP1 PUSH2 0x2C7F JUMP JUMPDEST POP SWAP2 POP SWAP2 POP DUP2 PUSH1 0x1 PUSH1 0x1 PUSH1 0x70 SHL SUB AND PUSH0 EQ DUP1 PUSH2 0x1C9F JUMPI POP PUSH1 0x1 PUSH1 0x1 PUSH1 0x70 SHL SUB DUP2 AND ISZERO JUMPDEST ISZERO PUSH2 0x1CA9 JUMPI POP POP POP JUMP JUMPDEST PUSH0 DUP4 PUSH1 0x1 PUSH1 0x1 PUSH1 0xA0 SHL SUB AND PUSH4 0xDFE1681 PUSH1 0x40 MLOAD DUP2 PUSH4 0xFFFFFFFF AND PUSH1 0xE0 SHL DUP2 MSTORE PUSH1 0x4 ADD PUSH1 0x20 PUSH1 0x40 MLOAD DUP1 DUP4 SUB DUP2 DUP7 GAS STATICCALL ISZERO DUP1 ISZERO PUSH2 0x1CE6 JUMPI RETURNDATASIZE PUSH0 PUSH0 RETURNDATACOPY RETURNDATASIZE PUSH0 REVERT JUMPDEST POP POP POP POP PUSH1 0x40 MLOAD RETURNDATASIZE PUSH1 0x1F NOT PUSH1 0x1F DUP3 ADD AND DUP3 ADD DUP1 PUSH1 0x40 MSTORE POP DUP2 ADD SWAP1 PUSH2 0x1D0A SWAP2 SWAP1 PUSH2 0x2AD0 JUMP JUMPDEST SWAP1 POP PUSH0 PUSH1 0x1 PUSH1 0x1 PUSH1 0xA0 SHL SUB DUP3 AND ADDRESS EQ PUSH2 0x1D23 JUMPI DUP3 PUSH2 0x1D25 JUMP JUMPDEST DUP4 JUMPDEST PUSH1 0x1 PUSH1 0x1 PUSH1 0x70 SHL SUB AND SWAP1 POP PUSH1 0xF SLOAD DUP2 LT ISZERO PUSH2 0x1D64 JUMPI PUSH1 0xE SLOAD PUSH1 0x1 PUSH1 0xA0 SHL SWAP1 DIV PUSH1 0xFF AND PUSH2 0x1D5F JUMPI PUSH1 0xE DUP1 SLOAD PUSH1 0xFF PUSH1 0xA0 SHL NOT AND PUSH1 0x1 PUSH1 0xA0 SHL OR SWAP1 SSTORE JUMPDEST PUSH2 0x1D84 JUMP JUMPDEST PUSH1 0xE SLOAD PUSH1 0x1 PUSH1 0xA0 SHL SWAP1 DIV PUSH1 0xFF AND ISZERO PUSH2 0x1D84 JUMPI PUSH1 0xE DUP1 SLOAD PUSH1 0xFF PUSH1 0xA0 SHL NOT AND SWAP1 SSTORE JUMPDEST POP POP POP POP POP JUMP JUMPDEST PUSH0 DUP2 DUP2 MSTORE PUSH1 0x1 DUP4 ADD PUSH1 0x20 MSTORE PUSH1 0x40 DUP2 KECCAK256 SLOAD PUSH2 0x1DD0 JUMPI POP DUP2 SLOAD PUSH1 0x1 DUP2 DUP2 ADD DUP5 SSTORE PUSH0 DUP5 DUP2 MSTORE PUSH1 0x20 DUP1 DUP3 KECCAK256 SWAP1 SWAP4 ADD DUP5 SWAP1 SSTORE DUP5 SLOAD DUP5 DUP3 MSTORE DUP3 DUP7 ADD SWAP1 SWAP4 MSTORE PUSH1 0x40 SWAP1 KECCAK256 SWAP2 SWAP1 SWAP2 SSTORE PUSH2 0xEF6 JUMP JUMPDEST POP PUSH0 PUSH2 0xEF6 JUMP JUMPDEST PUSH1 0x1 PUSH1 0x1 PUSH1 0xA0 SHL SUB DUP1 DUP3 AND PUSH0 SWAP1 DUP2 MSTORE PUSH1 0xA PUSH1 0x20 SWAP1 DUP2 MSTORE PUSH1 0x40 DUP1 DUP4 KECCAK256 DUP2 MLOAD PUSH2 0x120 DUP2 ADD DUP4 MSTORE DUP2 SLOAD SWAP1 SWAP6 AND DUP6 MSTORE PUSH1 0x1 DUP2 ADD SLOAD SWAP3 DUP6 ADD SWAP3 SWAP1 SWAP3 MSTORE PUSH1 0x2 DUP3 ADD SLOAD SWAP1 DUP5 ADD MSTORE PUSH1 0x3 DUP2 ADD SLOAD PUSH1 0x60 DUP5 ADD MSTORE PUSH1 0x4 DUP2 ADD SLOAD PUSH1 0x80 DUP5 ADD MSTORE PUSH1 0x5 DUP2 ADD SLOAD PUSH1 0xA0 DUP5 ADD MSTORE PUSH1 0x6 DUP2 ADD SLOAD PUSH1 0xC0 DUP5 ADD MSTORE PUSH1 0x7 ADD SLOAD PUSH1 0xFF DUP1 DUP3 AND ISZERO ISZERO PUSH1 0xE0 DUP6 ADD MSTORE PUSH2 0x100 SWAP2 DUP3 SWAP1 DIV AND ISZERO DUP1 ISZERO SWAP2 DUP5 ADD SWAP2 SWAP1 SWAP2 MSTORE SWAP1 SWAP2 SWAP1 DUP1 PUSH2 0x1E71 JUMPI POP DUP1 PUSH1 0xE0 ADD MLOAD ISZERO JUMPDEST DUP1 PUSH2 0x1E7F JUMPI POP DUP1 PUSH1 0x60 ADD MLOAD TIMESTAMP LT JUMPDEST ISZERO PUSH2 0x1E8C JUMPI POP PUSH0 SWAP3 SWAP2 POP POP JUMP JUMPDEST PUSH0 PUSH2 0x1E95 PUSH2 0x1EC1 JUMP JUMPDEST POP POP POP PUSH1 0x20 DUP4 ADD MLOAD SWAP1 SWAP2 POP PUSH3 0x186A0 PUSH2 0x1EAE DUP4 DUP4 PUSH2 0x2BEE JUMP JUMPDEST PUSH2 0x1EB8 SWAP2 SWAP1 PUSH2 0x2C4A JUMP JUMPDEST SWAP6 SWAP5 POP POP POP POP POP JUMP JUMPDEST PUSH0 DUP1 DUP1 DUP1 DUP1 PUSH2 0x1ECE PUSH2 0x176C JUMP JUMPDEST SWAP1 POP PUSH12 0x33B2E3C9FD0803CE8000000 DUP2 GT ISZERO PUSH2 0x1EFD JUMPI PUSH2 0x5DC PUSH2 0x2EE PUSH2 0x12C PUSH1 0x3C SWAP5 POP SWAP5 POP SWAP5 POP SWAP5 POP POP PUSH2 0x1F6A JUMP JUMPDEST PUSH12 0x19D971E4FE8401E74000000 DUP2 GT ISZERO PUSH2 0x1F2A JUMPI PUSH2 0x4E2 PUSH2 0x271 PUSH2 0x12C PUSH1 0x3C SWAP5 POP SWAP5 POP SWAP5 POP SWAP5 POP POP PUSH2 0x1F6A JUMP JUMPDEST PUSH11 0x52B7D2DCC80CD2E4000000 DUP2 GT ISZERO PUSH2 0x1F56 JUMPI PUSH2 0x3E8 PUSH2 0x1F4 PUSH2 0x12C PUSH1 0x3C SWAP5 POP SWAP5 POP SWAP5 POP SWAP5 POP POP PUSH2 0x1F6A JUMP JUMPDEST PUSH2 0x1F4 PUSH1 0xFA PUSH2 0x12C PUSH1 0x3C SWAP5 POP SWAP5 POP SWAP5 POP SWAP5 POP POP JUMPDEST SWAP1 SWAP2 SWAP3 SWAP4 JUMP JUMPDEST PUSH1 0x40 DUP1 MLOAD PUSH1 0x2 DUP1 DUP3 MSTORE PUSH1 0x60 DUP3 ADD DUP4 MSTORE PUSH0 SWAP3 DUP4 SWAP3 SWAP2 SWAP1 PUSH1 0x20 DUP4 ADD SWAP1 DUP1 CALLDATASIZE DUP4 CALLDATACOPY POP POP PUSH1 0xB SLOAD DUP3 MLOAD SWAP3 SWAP4 POP PUSH1 0x1 PUSH1 0x1 PUSH1 0xA0 SHL SUB AND SWAP2 DUP4 SWAP2 POP PUSH0 SWAP1 PUSH2 0x1FB3 JUMPI PUSH2 0x1FB3 PUSH2 0x2CE9 JUMP JUMPDEST PUSH1 0x20 MUL PUSH1 0x20 ADD ADD SWAP1 PUSH1 0x1 PUSH1 0x1 PUSH1 0xA0 SHL SUB AND SWAP1 DUP2 PUSH1 0x1 PUSH1 0x1 PUSH1 0xA0 SHL SUB AND DUP2 MSTORE POP POP ADDRESS DUP2 PUSH1 0x1 DUP2 MLOAD DUP2 LT PUSH2 0x1FE7 JUMPI PUSH2 0x1FE7 PUSH2 0x2CE9 JUMP JUMPDEST PUSH1 0x1 PUSH1 0x1 PUSH1 0xA0 SHL SUB SWAP3 DUP4 AND PUSH1 0x20 SWAP2 DUP3 MUL SWAP3 SWAP1 SWAP3 ADD ADD MSTORE PUSH1 0x80 MLOAD PUSH1 0x40 MLOAD PUSH4 0xD06CA61F PUSH1 0xE0 SHL DUP2 MSTORE PUSH0 SWAP3 SWAP2 SWAP1 SWAP2 AND SWAP1 PUSH4 0xD06CA61F SWAP1 PUSH2 0x202A SWAP1 DUP8 SWAP1 DUP7 SWAP1 PUSH1 0x4 ADD PUSH2 0x2D92 JUMP JUMPDEST PUSH0 PUSH1 0x40 MLOAD DUP1 DUP4 SUB DUP2 DUP7 GAS STATICCALL ISZERO DUP1 ISZERO PUSH2 0x2044 JUMPI RETURNDATASIZE PUSH0 PUSH0 RETURNDATACOPY RETURNDATASIZE PUSH0 REVERT JUMPDEST POP POP POP POP PUSH1 0x40 MLOAD RETURNDATASIZE PUSH0 DUP3 RETURNDATACOPY PUSH1 0x1F RETURNDATASIZE SWAP1 DUP2 ADD PUSH1 0x1F NOT AND DUP3 ADD PUSH1 0x40 MSTORE PUSH2 0x206B SWAP2 SWAP1 DUP2 ADD SWAP1 PUSH2 0x2DB2 JUMP JUMPDEST SWAP1 POP DUP1 PUSH1 0x1 DUP2 MLOAD DUP2 LT PUSH2 0x2080 JUMPI PUSH2 0x2080 PUSH2 0x2CE9 JUMP JUMPDEST PUSH1 0x20 MUL PUSH1 0x20 ADD ADD MLOAD SWAP3 POP POP POP SWAP2 SWAP1 POP JUMP JUMPDEST PUSH0 DUP1 PUSH2 0x209E PUSH1 0x2 DUP5 PUSH2 0x2C4A JUMP JUMPDEST PUSH1 0x40 DUP1 MLOAD PUSH1 0x2 DUP1 DUP3 MSTORE PUSH1 0x60 DUP3 ADD DUP4 MSTORE SWAP3 SWAP4 POP PUSH0 SWAP3 SWAP1 SWAP2 PUSH1 0x20 DUP4 ADD SWAP1 DUP1 CALLDATASIZE DUP4 CALLDATACOPY ADD SWAP1 POP POP SWAP1 POP ADDRESS DUP2 PUSH0 DUP2 MLOAD DUP2 LT PUSH2 0x20D6 JUMPI PUSH2 0x20D6 PUSH2 0x2CE9 JUMP JUMPDEST PUSH1 0x1 PUSH1 0x1 PUSH1 0xA0 SHL SUB SWAP3 DUP4 AND PUSH1 0x20 SWAP2 DUP3 MUL SWAP3 SWAP1 SWAP3 ADD ADD MSTORE PUSH1 0xB SLOAD DUP3 MLOAD SWAP2 AND SWAP1 DUP3 SWAP1 PUSH1 0x1 SWAP1 DUP2 LT PUSH2 0x2107 JUMPI PUSH2 0x2107 PUSH2 0x2CE9 JUMP JUMPDEST PUSH1 0x1 PUSH1 0x1 PUSH1 0xA0 SHL SUB SWAP3 DUP4 AND PUSH1 0x20 SWAP2 DUP3 MUL SWAP3 SWAP1 SWAP3 ADD ADD MSTORE PUSH1 0x6 SLOAD PUSH2 0x212C SWAP2 AND ADDRESS DUP7 PUSH2 0x14B1 JUMP JUMPDEST PUSH1 0x6 PUSH0 SWAP1 SLOAD SWAP1 PUSH2 0x100 EXP SWAP1 DIV PUSH1 0x1 PUSH1 0x1 PUSH1 0xA0 SHL SUB AND PUSH1 0x1 PUSH1 0x1 PUSH1 0xA0 SHL SUB AND PUSH4 0xFFF6CAE9 PUSH1 0x40 MLOAD DUP2 PUSH4 0xFFFFFFFF AND PUSH1 0xE0 SHL DUP2 MSTORE PUSH1 0x4 ADD PUSH0 PUSH1 0x40 MLOAD DUP1 DUP4 SUB DUP2 PUSH0 DUP8 DUP1 EXTCODESIZE ISZERO DUP1 ISZERO PUSH2 0x2178 JUMPI PUSH0 PUSH0 REVERT JUMPDEST POP GAS CALL ISZERO DUP1 ISZERO PUSH2 0x218A JUMPI RETURNDATASIZE PUSH0 PUSH0 RETURNDATACOPY RETURNDATASIZE PUSH0 REVERT JUMPDEST POP POP POP POP PUSH2 0x21A1 ADDRESS PUSH1 0x80 MLOAD DUP7 PUSH2 0x26C6 PUSH1 0x20 SHL PUSH1 0x20 SHR JUMP JUMPDEST PUSH1 0x80 MLOAD PUSH1 0xE SLOAD PUSH1 0x40 MLOAD PUSH4 0x5C11D795 PUSH1 0xE0 SHL DUP2 MSTORE PUSH1 0x1 PUSH1 0x1 PUSH1 0xA0 SHL SUB SWAP3 DUP4 AND SWAP3 PUSH4 0x5C11D795 SWAP3 PUSH2 0x21DD SWAP3 DUP8 SWAP3 PUSH0 SWAP3 DUP9 SWAP3 SWAP2 AND SWAP1 TIMESTAMP SWAP1 PUSH1 0x4 ADD PUSH2 0x2D57 JUMP JUMPDEST PUSH0 PUSH1 0x40 MLOAD DUP1 DUP4 SUB DUP2 PUSH0 DUP8 DUP1 EXTCODESIZE ISZERO DUP1 ISZERO PUSH2 0x21F4 JUMPI PUSH0 PUSH0 REVERT JUMPDEST POP GAS CALL ISZERO DUP1 ISZERO PUSH2 0x2206 JUMPI RETURNDATASIZE PUSH0 PUSH0 RETURNDATACOPY RETURNDATASIZE PUSH0 REVERT JUMPDEST POP POP PUSH1 0xB SLOAD PUSH1 0xE SLOAD PUSH1 0x40 MLOAD PUSH4 0x70A08231 PUSH1 0xE0 SHL DUP2 MSTORE PUSH1 0x1 PUSH1 0x1 PUSH1 0xA0 SHL SUB SWAP2 DUP3 AND PUSH1 0x4 DUP3 ADD MSTORE PUSH0 SWAP5 POP SWAP2 AND SWAP2 POP PUSH4 0x70A08231 SWAP1 PUSH1 0x24 ADD PUSH1 0x20 PUSH1 0x40 MLOAD DUP1 DUP4 SUB DUP2 DUP7 GAS STATICCALL ISZERO DUP1 ISZERO PUSH2 0x2256 JUMPI RETURNDATASIZE PUSH0 PUSH0 RETURNDATACOPY RETURNDATASIZE PUSH0 REVERT JUMPDEST POP POP POP POP PUSH1 0x40 MLOAD RETURNDATASIZE PUSH1 0x1F NOT PUSH1 0x1F DUP3 ADD AND DUP3 ADD DUP1 PUSH1 0x40 MSTORE POP DUP2 ADD SWAP1 PUSH2 0x227A SWAP2 SWAP1 PUSH2 0x2CFD JUMP JUMPDEST PUSH1 0xE SLOAD PUSH1 0xB SLOAD PUSH1 0x40 MLOAD PUSH4 0x92DFDB3 PUSH1 0xE1 SHL DUP2 MSTORE PUSH1 0x1 PUSH1 0x1 PUSH1 0xA0 SHL SUB SWAP2 DUP3 AND PUSH1 0x4 DUP3 ADD MSTORE ADDRESS PUSH1 0x24 DUP3 ADD MSTORE PUSH1 0x44 DUP2 ADD DUP5 SWAP1 MSTORE SWAP3 SWAP4 POP AND SWAP1 PUSH4 0x125BFB66 SWAP1 PUSH1 0x64 ADD PUSH0 PUSH1 0x40 MLOAD DUP1 DUP4 SUB DUP2 PUSH0 DUP8 DUP1 EXTCODESIZE ISZERO DUP1 ISZERO PUSH2 0x22CF JUMPI PUSH0 PUSH0 REVERT JUMPDEST POP GAS CALL ISZERO DUP1 ISZERO PUSH2 0x22E1 JUMPI RETURNDATASIZE PUSH0 PUSH0 RETURNDATACOPY RETURNDATASIZE PUSH0 REVERT JUMPDEST POP POP PUSH1 0xB SLOAD PUSH1 0x80 MLOAD PUSH1 0x40 MLOAD PUSH4 0x95EA7B3 PUSH1 0xE0 SHL DUP2 MSTORE PUSH1 0x1 PUSH1 0x1 PUSH1 0xA0 SHL SUB SWAP2 DUP3 AND PUSH1 0x4 DUP3 ADD MSTORE PUSH1 0x24 DUP2 ADD DUP7 SWAP1 MSTORE SWAP2 AND SWAP3 POP PUSH4 0x95EA7B3 SWAP2 POP PUSH1 0x44 ADD PUSH1 0x20 PUSH1 0x40 MLOAD DUP1 DUP4 SUB DUP2 PUSH0 DUP8 GAS CALL ISZERO DUP1 ISZERO PUSH2 0x2337 JUMPI RETURNDATASIZE PUSH0 PUSH0 RETURNDATACOPY RETURNDATASIZE PUSH0 REVERT JUMPDEST POP POP POP POP PUSH1 0x40 MLOAD RETURNDATASIZE PUSH1 0x1F NOT PUSH1 0x1F DUP3 ADD AND DUP3 ADD DUP1 PUSH1 0x40 MSTORE POP DUP2 ADD SWAP1 PUSH2 0x235B SWAP2 SWAP1 PUSH2 0x2C18 JUMP JUMPDEST POP PUSH1 0x80 MLOAD PUSH1 0xB SLOAD PUSH1 0x40 MLOAD PUSH3 0xE8E337 PUSH1 0xE8 SHL DUP2 MSTORE PUSH1 0x1 PUSH1 0x1 PUSH1 0xA0 SHL SUB SWAP2 DUP3 AND PUSH1 0x4 DUP3 ADD MSTORE ADDRESS PUSH1 0x24 DUP3 ADD DUP2 SWAP1 MSTORE PUSH1 0x44 DUP3 ADD DUP6 SWAP1 MSTORE PUSH1 0x64 DUP3 ADD DUP8 SWAP1 MSTORE PUSH0 PUSH1 0x84 DUP4 ADD DUP2 SWAP1 MSTORE PUSH1 0xA4 DUP4 ADD MSTORE PUSH1 0xC4 DUP3 ADD MSTORE TIMESTAMP PUSH1 0xE4 DUP3 ADD MSTORE SWAP2 AND SWAP1 PUSH4 0xE8E33700 SWAP1 PUSH2 0x104 ADD PUSH1 0x60 PUSH1 0x40 MLOAD DUP1 DUP4 SUB DUP2 PUSH0 DUP8 GAS CALL ISZERO DUP1 ISZERO PUSH2 0x23D5 JUMPI RETURNDATASIZE PUSH0 PUSH0 RETURNDATACOPY RETURNDATASIZE PUSH0 REVERT JUMPDEST POP POP POP POP PUSH1 0x40 MLOAD RETURNDATASIZE PUSH1 0x1F NOT PUSH1 0x1F DUP3 ADD AND DUP3 ADD DUP1 PUSH1 0x40 MSTORE POP DUP2 ADD SWAP1 PUSH2 0x23F9 SWAP2 SWAP1 PUSH2 0x2E79 JUMP JUMPDEST SWAP8 SWAP7 POP POP POP POP POP POP POP JUMP JUMPDEST PUSH1 0x1 PUSH1 0x1 PUSH1 0xA0 SHL SUB DUP1 DUP4 AND PUSH0 SWAP1 DUP2 MSTORE PUSH1 0xA PUSH1 0x20 SWAP1 DUP2 MSTORE PUSH1 0x40 DUP1 DUP4 KECCAK256 DUP2 MLOAD PUSH2 0x120 DUP2 ADD DUP4 MSTORE DUP2 SLOAD SWAP1 SWAP6 AND DUP1 DUP7 MSTORE PUSH1 0x1 DUP1 DUP4 ADD SLOAD SWAP5 DUP8 ADD SWAP5 SWAP1 SWAP5 MSTORE PUSH1 0x2 DUP3 ADD SLOAD SWAP3 DUP7 ADD SWAP3 SWAP1 SWAP3 MSTORE PUSH1 0x3 DUP2 ADD SLOAD PUSH1 0x60 DUP7 ADD MSTORE PUSH1 0x4 DUP2 ADD SLOAD PUSH1 0x80 DUP7 ADD MSTORE PUSH1 0x5 DUP2 ADD SLOAD PUSH1 0xA0 DUP7 ADD MSTORE PUSH1 0x6 DUP2 ADD SLOAD PUSH1 0xC0 DUP7 ADD MSTORE PUSH1 0x7 ADD SLOAD PUSH1 0xFF DUP1 DUP3 AND ISZERO ISZERO PUSH1 0xE0 DUP8 ADD MSTORE PUSH2 0x100 SWAP2 DUP3 SWAP1 DIV AND ISZERO ISZERO SWAP1 DUP6 ADD MSTORE SWAP2 SWAP3 SWAP2 SWAP1 PUSH1 0x14 JUMPDEST PUSH1 0x1 PUSH1 0x1 PUSH1 0xA0 SHL SUB DUP4 AND ISZERO DUP1 ISZERO SWAP1 PUSH2 0x24AE JUMPI POP DUP1 DUP3 GT ISZERO JUMPDEST ISZERO PUSH2 0x25B2 JUMPI PUSH0 PUSH2 0x24BD DUP4 PUSH2 0x273B JUMP JUMPDEST SWAP1 POP PUSH0 PUSH1 0x64 PUSH2 0x24CC DUP4 DUP11 PUSH2 0x2BEE JUMP JUMPDEST PUSH2 0x24D6 SWAP2 SWAP1 PUSH2 0x2C4A JUMP JUMPDEST SWAP1 POP DUP1 ISZERO PUSH2 0x2581 JUMPI PUSH1 0x1 PUSH1 0x1 PUSH1 0xA0 SHL SUB DUP6 AND PUSH0 SWAP1 DUP2 MSTORE PUSH1 0xA PUSH1 0x20 MSTORE PUSH1 0x40 SWAP1 KECCAK256 PUSH1 0x6 ADD SLOAD DUP5 GT PUSH2 0x2581 JUMPI PUSH1 0x6 SLOAD PUSH1 0x40 MLOAD PUSH4 0xA9059CBB PUSH1 0xE0 SHL DUP2 MSTORE PUSH1 0x1 PUSH1 0x1 PUSH1 0xA0 SHL SUB DUP8 DUP2 AND PUSH1 0x4 DUP4 ADD MSTORE PUSH1 0x24 DUP3 ADD DUP5 SWAP1 MSTORE SWAP1 SWAP2 AND SWAP1 PUSH4 0xA9059CBB SWAP1 PUSH1 0x44 ADD PUSH1 0x20 PUSH1 0x40 MLOAD DUP1 DUP4 SUB DUP2 PUSH0 DUP8 GAS CALL ISZERO DUP1 ISZERO PUSH2 0x254F JUMPI RETURNDATASIZE PUSH0 PUSH0 RETURNDATACOPY RETURNDATASIZE PUSH0 REVERT JUMPDEST POP POP POP POP PUSH1 0x40 MLOAD RETURNDATASIZE PUSH1 0x1F NOT PUSH1 0x1F DUP3 ADD AND DUP3 ADD DUP1 PUSH1 0x40 MSTORE POP DUP2 ADD SWAP1 PUSH2 0x2573 SWAP2 SWAP1 PUSH2 0x2C18 JUMP JUMPDEST POP PUSH2 0x257E DUP2 DUP9 PUSH2 0x2C05 JUMP JUMPDEST SWAP7 POP JUMPDEST PUSH1 0x1 PUSH1 0x1 PUSH1 0xA0 SHL SUB SWAP5 DUP6 AND PUSH0 SWAP1 DUP2 MSTORE PUSH1 0xA PUSH1 0x20 MSTORE PUSH1 0x40 SWAP1 KECCAK256 SLOAD SWAP1 SWAP5 AND SWAP4 DUP4 PUSH2 0x25A8 DUP2 PUSH2 0x2EA4 JUMP JUMPDEST SWAP5 POP POP POP POP PUSH2 0x2496 JUMP JUMPDEST POP POP POP POP SWAP3 SWAP2 POP POP JUMP JUMPDEST PUSH0 DUP1 PUSH2 0x25D0 PUSH2 0x25CB DUP5 DUP7 PUSH2 0x2BEE JUMP JUMPDEST PUSH2 0x27C2 JUMP JUMPDEST SWAP1 POP PUSH0 PUSH2 0x264A PUSH1 0x6 PUSH0 SWAP1 SLOAD SWAP1 PUSH2 0x100 EXP SWAP1 DIV PUSH1 0x1 PUSH1 0x1 PUSH1 0xA0 SHL SUB AND PUSH1 0x1 PUSH1 0x1 PUSH1 0xA0 SHL SUB AND PUSH4 0x7464FC3D PUSH1 0x40 MLOAD DUP2 PUSH4 0xFFFFFFFF AND PUSH1 0xE0 SHL DUP2 MSTORE PUSH1 0x4 ADD PUSH1 0x20 PUSH1 0x40 MLOAD DUP1 DUP4 SUB DUP2 DUP7 GAS STATICCALL ISZERO DUP1 ISZERO PUSH2 0x2626 JUMPI RETURNDATASIZE PUSH0 PUSH0 RETURNDATACOPY RETURNDATASIZE PUSH0 REVERT JUMPDEST POP POP POP POP PUSH1 0x40 MLOAD RETURNDATASIZE PUSH1 0x1F NOT PUSH1 0x1F DUP3 ADD AND DUP3 ADD DUP1 PUSH1 0x40 MSTORE POP DUP2 ADD SWAP1 PUSH2 0x25CB SWAP2 SWAP1 PUSH2 0x2CFD JUMP JUMPDEST SWAP1 POP DUP1 DUP3 GT ISZERO PUSH2 0x26A8 JUMPI PUSH0 PUSH2 0x265F DUP3 DUP5 PUSH2 0x2C37 JUMP JUMPDEST PUSH2 0x2669 SWAP1 DUP9 PUSH2 0x2BEE JUMP JUMPDEST PUSH2 0x2674 SWAP1 PUSH1 0x8 PUSH2 0x2BEE JUMP JUMPDEST SWAP1 POP PUSH0 PUSH2 0x2682 DUP4 PUSH1 0x8 PUSH2 0x2BEE JUMP JUMPDEST PUSH2 0x268D DUP6 PUSH1 0x11 PUSH2 0x2BEE JUMP JUMPDEST PUSH2 0x2697 SWAP2 SWAP1 PUSH2 0x2C05 JUMP JUMPDEST SWAP1 POP PUSH2 0x26A3 DUP2 DUP4 PUSH2 0x2C4A JUMP JUMPDEST SWAP5 POP POP POP JUMPDEST POP POP SWAP4 SWAP3 POP POP POP JUMP JUMPDEST PUSH0 DUP2 DUP4 LT PUSH2 0x26BF JUMPI DUP2 PUSH2 0xF10 JUMP JUMPDEST POP SWAP1 SWAP2 SWAP1 POP JUMP JUMPDEST PUSH2 0x26D3 DUP4 DUP4 DUP4 PUSH1 0x1 PUSH2 0x282F JUMP JUMPDEST POP POP POP JUMP JUMPDEST PUSH1 0x40 DUP1 MLOAD PUSH0 DUP1 DUP3 MSTORE PUSH1 0x20 DUP3 ADD SWAP1 SWAP3 MSTORE PUSH1 0x1 PUSH1 0x1 PUSH1 0xA0 SHL SUB DUP5 AND SWAP1 DUP4 SWAP1 PUSH1 0x40 MLOAD PUSH2 0x2701 SWAP2 SWAP1 PUSH2 0x2EBC JUMP JUMPDEST PUSH0 PUSH1 0x40 MLOAD DUP1 DUP4 SUB DUP2 DUP6 DUP8 GAS CALL SWAP3 POP POP POP RETURNDATASIZE DUP1 PUSH0 DUP2 EQ PUSH2 0x9C5 JUMPI PUSH1 0x40 MLOAD SWAP2 POP PUSH1 0x1F NOT PUSH1 0x3F RETURNDATASIZE ADD AND DUP3 ADD PUSH1 0x40 MSTORE RETURNDATASIZE DUP3 MSTORE RETURNDATASIZE PUSH0 PUSH1 0x20 DUP5 ADD RETURNDATACOPY PUSH2 0x9C5 JUMP JUMPDEST PUSH0 DUP2 PUSH1 0x1 SUB PUSH2 0x274C JUMPI POP PUSH1 0xA SWAP2 SWAP1 POP JUMP JUMPDEST DUP2 PUSH1 0x2 SUB PUSH2 0x275C JUMPI POP PUSH1 0x5 SWAP2 SWAP1 POP JUMP JUMPDEST DUP2 PUSH1 0x3 SUB PUSH2 0x276C JUMPI POP PUSH1 0x3 SWAP2 SWAP1 POP JUMP JUMPDEST PUSH1 0x4 DUP3 LT ISZERO DUP1 ISZERO PUSH2 0x277E JUMPI POP PUSH1 0x11 DUP3 GT ISZERO JUMPDEST ISZERO PUSH2 0x278B JUMPI POP PUSH1 0x1 SWAP2 SWAP1 POP JUMP JUMPDEST DUP2 PUSH1 0x12 SUB PUSH2 0x279B JUMPI POP PUSH1 0x3 SWAP2 SWAP1 POP JUMP JUMPDEST DUP2 PUSH1 0x13 SUB PUSH2 0x27AB JUMPI POP PUSH1 0x5 SWAP2 SWAP1 POP JUMP JUMPDEST DUP2 PUSH1 0x14 SUB PUSH2 0x27BB JUMPI POP PUSH1 0xA SWAP2 SWAP1 POP JUMP JUMPDEST POP PUSH0 SWAP2 SWAP1 POP JUMP JUMPDEST PUSH0 PUSH1 0x3 DUP3 GT ISZERO PUSH2 0x2821 JUMPI POP DUP1 PUSH0 PUSH2 0x27DA PUSH1 0x2 DUP4 PUSH2 0x2C4A JUMP JUMPDEST PUSH2 0x27E5 SWAP1 PUSH1 0x1 PUSH2 0x2C05 JUMP JUMPDEST SWAP1 POP JUMPDEST DUP2 DUP2 LT ISZERO PUSH2 0x281B JUMPI SWAP1 POP DUP1 PUSH1 0x2 DUP2 PUSH2 0x2800 DUP2 DUP7 PUSH2 0x2C4A JUMP JUMPDEST PUSH2 0x280A SWAP2 SWAP1 PUSH2 0x2C05 JUMP JUMPDEST PUSH2 0x2814 SWAP2 SWAP1 PUSH2 0x2C4A JUMP JUMPDEST SWAP1 POP PUSH2 0x27E8 JUMP JUMPDEST POP SWAP2 SWAP1 POP JUMP JUMPDEST DUP2 ISZERO PUSH2 0x1AA3 JUMPI POP PUSH1 0x1 SWAP2 SWAP1 POP JUMP JUMPDEST PUSH1 0x1 PUSH1 0x1 PUSH1 0xA0 SHL SUB DUP5 AND PUSH2 0x2858 JUMPI PUSH1 0x40 MLOAD PUSH4 0xE602DF05 PUSH1 0xE0 SHL DUP2 MSTORE PUSH0 PUSH1 0x4 DUP3 ADD MSTORE PUSH1 0x24 ADD PUSH2 0x104 JUMP JUMPDEST PUSH1 0x1 PUSH1 0x1 PUSH1 0xA0 SHL SUB DUP4 AND PUSH2 0x2881 JUMPI PUSH1 0x40 MLOAD PUSH4 0x4A1406B1 PUSH1 0xE1 SHL DUP2 MSTORE PUSH0 PUSH1 0x4 DUP3 ADD MSTORE PUSH1 0x24 ADD PUSH2 0x104 JUMP JUMPDEST PUSH1 0x1 PUSH1 0x1 PUSH1 0xA0 SHL SUB DUP1 DUP6 AND PUSH0 SWAP1 DUP2 MSTORE PUSH1 0x1 PUSH1 0x20 SWAP1 DUP2 MSTORE PUSH1 0x40 DUP1 DUP4 KECCAK256 SWAP4 DUP8 AND DUP4 MSTORE SWAP3 SWAP1 MSTORE KECCAK256 DUP3 SWAP1 SSTORE DUP1 ISZERO PUSH2 0x6F4 JUMPI DUP3 PUSH1 0x1 PUSH1 0x1 PUSH1 0xA0 SHL SUB AND DUP5 PUSH1 0x1 PUSH1 0x1 PUSH1 0xA0 SHL SUB AND PUSH32 0x8C5BE1E5EBEC7D5BD14F71427D1E84F3DD0314C0F7B2291E5B200AC8C7C3B925 DUP5 PUSH1 0x40 MLOAD PUSH2 0x28F3 SWAP2 DUP2 MSTORE PUSH1 0x20 ADD SWAP1 JUMP JUMPDEST PUSH1 0x40 MLOAD DUP1 SWAP2 SUB SWAP1 LOG3 POP POP POP POP JUMP JUMPDEST PUSH2 0x1B5 DUP1 PUSH2 0x6A53 DUP4 CODECOPY ADD SWAP1 JUMP JUMPDEST PUSH1 0x40 MLOAD DUP1 PUSH1 0xC0 ADD PUSH1 0x40 MSTORE DUP1 PUSH1 0x6 SWAP1 PUSH1 0x20 DUP3 MUL DUP1 CALLDATASIZE DUP4 CALLDATACOPY POP SWAP2 SWAP3 SWAP2 POP POP JUMP JUMPDEST DUP1 MLOAD PUSH1 0x1 PUSH1 0x1 PUSH1 0xA0 SHL SUB DUP2 AND DUP2 EQ PUSH2 0x1AA3 JUMPI PUSH0 PUSH0 REVERT JUMPDEST PUSH0 PUSH0 PUSH0 PUSH1 0x60 DUP5 DUP7 SUB SLT ISZERO PUSH2 0x2954 JUMPI PUSH0 PUSH0 REVERT JUMPDEST PUSH2 0x295D DUP5 PUSH2 0x292C JUMP JUMPDEST SWAP3 POP PUSH2 0x296B PUSH1 0x20 DUP6 ADD PUSH2 0x292C JUMP JUMPDEST SWAP2 POP PUSH2 0x2979 PUSH1 0x40 DUP6 ADD PUSH2 0x292C JUMP JUMPDEST SWAP1 POP SWAP3 POP SWAP3 POP SWAP3 JUMP JUMPDEST PUSH4 0x4E487B71 PUSH1 0xE0 SHL PUSH0 MSTORE PUSH1 0x41 PUSH1 0x4 MSTORE PUSH1 0x24 PUSH0 REVERT JUMPDEST PUSH1 0x1 DUP2 DUP2 SHR SWAP1 DUP3 AND DUP1 PUSH2 0x29AA JUMPI PUSH1 0x7F DUP3 AND SWAP2 POP JUMPDEST PUSH1 0x20 DUP3 LT DUP2 SUB PUSH2 0x281B JUMPI PUSH4 0x4E487B71 PUSH1 0xE0 SHL PUSH0 MSTORE PUSH1 0x22 PUSH1 0x4 MSTORE PUSH1 0x24 PUSH0 REVERT JUMPDEST PUSH1 0x1F DUP3 GT ISZERO PUSH2 0x26D3 JUMPI DUP3 DUP3 GT ISZERO PUSH2 0x26D3 JUMPI DUP1 PUSH0 MSTORE PUSH1 0x20 PUSH0 KECCAK256 PUSH1 0x1F DUP5 ADD PUSH1 0x5 SHR PUSH1 0x20 DUP6 LT ISZERO PUSH2 0x29F3 JUMPI POP PUSH0 JUMPDEST SWAP1 DUP2 ADD SWAP1 PUSH1 0x1F DUP5 ADD PUSH1 0x5 SHR SUB PUSH0 JUMPDEST DUP2 DUP2 LT ISZERO PUSH2 0x9C5 JUMPI PUSH0 DUP4 DUP3 ADD SSTORE PUSH1 0x1 ADD PUSH2 0x2A01 JUMP JUMPDEST DUP2 MLOAD PUSH1 0x1 PUSH1 0x1 PUSH1 0x40 SHL SUB DUP2 GT ISZERO PUSH2 0x2A2F JUMPI PUSH2 0x2A2F PUSH2 0x2982 JUMP JUMPDEST PUSH2 0x2A43 DUP2 PUSH2 0x2A3D DUP5 SLOAD PUSH2 0x2996 JUMP JUMPDEST DUP5 PUSH2 0x29C8 JUMP JUMPDEST PUSH1 0x20 PUSH1 0x1F DUP3 GT PUSH1 0x1 DUP2 EQ PUSH2 0x2A75 JUMPI PUSH0 DUP4 ISZERO PUSH2 0x2A5E JUMPI POP DUP5 DUP3 ADD MLOAD JUMPDEST PUSH0 NOT PUSH1 0x3 DUP6 SWAP1 SHL SHR NOT AND PUSH1 0x1 DUP5 SWAP1 SHL OR DUP5 SSTORE PUSH2 0x1D84 JUMP JUMPDEST PUSH0 DUP5 DUP2 MSTORE PUSH1 0x20 DUP2 KECCAK256 PUSH1 0x1F NOT DUP6 AND SWAP2 JUMPDEST DUP3 DUP2 LT ISZERO PUSH2 0x2AA4 JUMPI DUP8 DUP6 ADD MLOAD DUP3 SSTORE PUSH1 0x20 SWAP5 DUP6 ADD SWAP5 PUSH1 0x1 SWAP1 SWAP3 ADD SWAP2 ADD PUSH2 0x2A84 JUMP JUMPDEST POP DUP5 DUP3 LT ISZERO PUSH2 0x2AC1 JUMPI DUP7 DUP5 ADD MLOAD PUSH0 NOT PUSH1 0x3 DUP8 SWAP1 SHL PUSH1 0xF8 AND SHR NOT AND DUP2 SSTORE JUMPDEST POP POP POP POP PUSH1 0x1 SWAP1 DUP2 SHL ADD SWAP1 SSTORE POP JUMP JUMPDEST PUSH0 PUSH1 0x20 DUP3 DUP5 SUB SLT ISZERO PUSH2 0x2AE0 JUMPI PUSH0 PUSH0 REVERT JUMPDEST PUSH2 0xF10 DUP3 PUSH2 0x292C JUMP JUMPDEST PUSH4 0x4E487B71 PUSH1 0xE0 SHL PUSH0 MSTORE PUSH1 0x11 PUSH1 0x4 MSTORE PUSH1 0x24 PUSH0 REVERT JUMPDEST PUSH1 0x1 DUP2 JUMPDEST PUSH1 0x1 DUP5 GT ISZERO PUSH2 0x2B38 JUMPI DUP1 DUP6 DIV DUP2 GT ISZERO PUSH2 0x2B1C JUMPI PUSH2 0x2B1C PUSH2 0x2AE9 JUMP JUMPDEST PUSH1 0x1 DUP5 AND ISZERO PUSH2 0x2B2A JUMPI SWAP1 DUP2 MUL SWAP1 JUMPDEST PUSH1 0x1 SWAP4 SWAP1 SWAP4 SHR SWAP3 DUP1 MUL PUSH2 0x2B01 JUMP JUMPDEST SWAP4 POP SWAP4 SWAP2 POP POP JUMP JUMPDEST PUSH0 DUP3 PUSH2 0x2B4E JUMPI POP PUSH1 0x1 PUSH2 0xEF6 JUMP JUMPDEST DUP2 PUSH2 0x2B5A JUMPI POP PUSH0 PUSH2 0xEF6 JUMP JUMPDEST DUP2 PUSH1 0x1 DUP2 EQ PUSH2 0x2B70 JUMPI PUSH1 0x2 DUP2 EQ PUSH2 0x2B7A JUMPI PUSH2 0x2B96 JUMP JUMPDEST PUSH1 0x1 SWAP2 POP POP PUSH2 0xEF6 JUMP JUMPDEST PUSH1 0xFF DUP5 GT ISZERO PUSH2 0x2B8B JUMPI PUSH2 0x2B8B PUSH2 0x2AE9 JUMP JUMPDEST POP POP PUSH1 0x1 DUP3 SHL PUSH2 0xEF6 JUMP JUMPDEST POP PUSH1 0x20 DUP4 LT PUSH2 0x133 DUP4 LT AND PUSH1 0x4E DUP5 LT PUSH1 0xB DUP5 LT AND OR ISZERO PUSH2 0x2BB9 JUMPI POP DUP2 DUP2 EXP PUSH2 0xEF6 JUMP JUMPDEST PUSH2 0x2BC5 PUSH0 NOT DUP5 DUP5 PUSH2 0x2AFD JUMP JUMPDEST DUP1 PUSH0 NOT DIV DUP3 GT ISZERO PUSH2 0x2BD8 JUMPI PUSH2 0x2BD8 PUSH2 0x2AE9 JUMP JUMPDEST MUL SWAP4 SWAP3 POP POP POP JUMP JUMPDEST PUSH0 PUSH2 0xF10 PUSH1 0xFF DUP5 AND DUP4 PUSH2 0x2B40 JUMP JUMPDEST DUP1 DUP3 MUL DUP2 ISZERO DUP3 DUP3 DIV DUP5 EQ OR PUSH2 0xEF6 JUMPI PUSH2 0xEF6 PUSH2 0x2AE9 JUMP JUMPDEST DUP1 DUP3 ADD DUP1 DUP3 GT ISZERO PUSH2 0xEF6 JUMPI PUSH2 0xEF6 PUSH2 0x2AE9 JUMP JUMPDEST PUSH0 PUSH1 0x20 DUP3 DUP5 SUB SLT ISZERO PUSH2 0x2C28 JUMPI PUSH0 PUSH0 REVERT JUMPDEST DUP2 MLOAD DUP1 ISZERO ISZERO DUP2 EQ PUSH2 0xF10 JUMPI PUSH0 PUSH0 REVERT JUMPDEST DUP2 DUP2 SUB DUP2 DUP2 GT ISZERO PUSH2 0xEF6 JUMPI PUSH2 0xEF6 PUSH2 0x2AE9 JUMP JUMPDEST PUSH0 DUP3 PUSH2 0x2C64 JUMPI PUSH4 0x4E487B71 PUSH1 0xE0 SHL PUSH0 MSTORE PUSH1 0x12 PUSH1 0x4 MSTORE PUSH1 0x24 PUSH0 REVERT JUMPDEST POP DIV SWAP1 JUMP JUMPDEST DUP1 MLOAD PUSH1 0x1 PUSH1 0x1 PUSH1 0x70 SHL SUB DUP2 AND DUP2 EQ PUSH2 0x1AA3 JUMPI PUSH0 PUSH0 REVERT JUMPDEST PUSH0 PUSH0 PUSH0 PUSH1 0x60 DUP5 DUP7 SUB SLT ISZERO PUSH2 0x2C91 JUMPI PUSH0 PUSH0 REVERT JUMPDEST PUSH2 0x2C9A DUP5 PUSH2 0x2C69 JUMP JUMPDEST SWAP3 POP PUSH2 0x2CA8 PUSH1 0x20 DUP6 ADD PUSH2 0x2C69 JUMP JUMPDEST SWAP2 POP PUSH1 0x40 DUP5 ADD MLOAD PUSH4 0xFFFFFFFF DUP2 AND DUP2 EQ PUSH2 0x2CC0 JUMPI PUSH0 PUSH0 REVERT JUMPDEST DUP1 SWAP2 POP POP SWAP3 POP SWAP3 POP SWAP3 JUMP JUMPDEST PUSH0 PUSH1 0xFF DUP3 AND PUSH1 0xFF DUP2 SUB PUSH2 0x2CE0 JUMPI PUSH2 0x2CE0 PUSH2 0x2AE9 JUMP JUMPDEST PUSH1 0x1 ADD SWAP3 SWAP2 POP POP JUMP JUMPDEST PUSH4 0x4E487B71 PUSH1 0xE0 SHL PUSH0 MSTORE PUSH1 0x32 PUSH1 0x4 MSTORE PUSH1 0x24 PUSH0 REVERT JUMPDEST PUSH0 PUSH1 0x20 DUP3 DUP5 SUB SLT ISZERO PUSH2 0x2D0D JUMPI PUSH0 PUSH0 REVERT JUMPDEST POP MLOAD SWAP2 SWAP1 POP JUMP JUMPDEST PUSH0 DUP2 MLOAD DUP1 DUP5 MSTORE PUSH1 0x20 DUP5 ADD SWAP4 POP PUSH1 0x20 DUP4 ADD PUSH0 JUMPDEST DUP3 DUP2 LT ISZERO PUSH2 0x2D4D JUMPI DUP2 MLOAD PUSH1 0x1 PUSH1 0x1 PUSH1 0xA0 SHL SUB AND DUP7 MSTORE PUSH1 0x20 SWAP6 DUP7 ADD SWAP6 SWAP1 SWAP2 ADD SWAP1 PUSH1 0x1 ADD PUSH2 0x2D26 JUMP JUMPDEST POP SWAP4 SWAP5 SWAP4 POP POP POP POP JUMP JUMPDEST DUP6 DUP2 MSTORE DUP5 PUSH1 0x20 DUP3 ADD MSTORE PUSH1 0xA0 PUSH1 0x40 DUP3 ADD MSTORE PUSH0 PUSH2 0x2D75 PUSH1 0xA0 DUP4 ADD DUP7 PUSH2 0x2D14 JUMP JUMPDEST PUSH1 0x1 PUSH1 0x1 PUSH1 0xA0 SHL SUB SWAP5 SWAP1 SWAP5 AND PUSH1 0x60 DUP4 ADD MSTORE POP PUSH1 0x80 ADD MSTORE SWAP4 SWAP3 POP POP POP JUMP JUMPDEST DUP3 DUP2 MSTORE PUSH1 0x40 PUSH1 0x20 DUP3 ADD MSTORE PUSH0 PUSH2 0x2DAA PUSH1 0x40 DUP4 ADD DUP5 PUSH2 0x2D14 JUMP JUMPDEST SWAP5 SWAP4 POP POP POP POP JUMP JUMPDEST PUSH0 PUSH1 0x20 DUP3 DUP5 SUB SLT ISZERO PUSH2 0x2DC2 JUMPI PUSH0 PUSH0 REVERT JUMPDEST DUP2 MLOAD PUSH1 0x1 PUSH1 0x1 PUSH1 0x40 SHL SUB DUP2 GT ISZERO PUSH2 0x2DD7 JUMPI PUSH0 PUSH0 REVERT JUMPDEST DUP3 ADD PUSH1 0x1F DUP2 ADD DUP5 SGT PUSH2 0x2DE7 JUMPI PUSH0 PUSH0 REVERT JUMPDEST DUP1 MLOAD PUSH1 0x1 PUSH1 0x1 PUSH1 0x40 SHL SUB DUP2 GT ISZERO PUSH2 0x2E00 JUMPI PUSH2 0x2E00 PUSH2 0x2982 JUMP JUMPDEST PUSH1 0x40 MLOAD PUSH1 0x5 DUP3 SWAP1 SHL SWAP1 PUSH1 0x3F DUP3 ADD PUSH1 0x1F NOT AND DUP2 ADD PUSH1 0x1 PUSH1 0x1 PUSH1 0x40 SHL SUB DUP2 GT DUP3 DUP3 LT OR ISZERO PUSH2 0x2E2E JUMPI PUSH2 0x2E2E PUSH2 0x2982 JUMP JUMPDEST PUSH1 0x40 MSTORE SWAP2 DUP3 MSTORE PUSH1 0x20 DUP2 DUP5 ADD DUP2 ADD SWAP3 SWAP1 DUP2 ADD DUP8 DUP5 GT ISZERO PUSH2 0x2E4B JUMPI PUSH0 PUSH0 REVERT JUMPDEST PUSH1 0x20 DUP6 ADD SWAP5 POP JUMPDEST DUP4 DUP6 LT ISZERO PUSH2 0x2E6E JUMPI DUP5 MLOAD DUP1 DUP3 MSTORE PUSH1 0x20 SWAP6 DUP7 ADD SWAP6 SWAP1 SWAP4 POP ADD PUSH2 0x2E52 JUMP JUMPDEST POP SWAP7 SWAP6 POP POP POP POP POP POP JUMP JUMPDEST PUSH0 PUSH0 PUSH0 PUSH1 0x60 DUP5 DUP7 SUB SLT ISZERO PUSH2 0x2E8B JUMPI PUSH0 PUSH0 REVERT JUMPDEST POP POP DUP2 MLOAD PUSH1 0x20 DUP4 ADD MLOAD PUSH1 0x40 SWAP1 SWAP4 ADD MLOAD SWAP1 SWAP5 SWAP3 SWAP4 POP SWAP2 SWAP1 POP JUMP JUMPDEST PUSH0 PUSH1 0x1 DUP3 ADD PUSH2 0x2EB5 JUMPI PUSH2 0x2EB5 PUSH2 0x2AE9 JUMP JUMPDEST POP PUSH1 0x1 ADD SWAP1 JUMP JUMPDEST PUSH0 DUP3 MLOAD DUP1 PUSH1 0x20 DUP6 ADD DUP5 MCOPY PUSH0 SWAP3 ADD SWAP2 DUP3 MSTORE POP SWAP2 SWAP1 POP JUMP JUMPDEST PUSH1 0x80 MLOAD PUSH2 0x3B1C PUSH2 0x2F37 PUSH0 CODECOPY PUSH0 DUP2 DUP2 PUSH2 0x5A6 ADD MSTORE DUP2 DUP2 PUSH2 0x9CB ADD MSTORE DUP2 DUP2 PUSH2 0xA7B ADD MSTORE DUP2 DUP2 PUSH2 0xAD6 ADD MSTORE DUP2 DUP2 PUSH2 0x2969 ADD MSTORE DUP2 DUP2 PUSH2 0x2B9F ADD MSTORE DUP2 DUP2 PUSH2 0x2C4D ADD MSTORE DUP2 DUP2 PUSH2 0x2DF7 ADD MSTORE DUP2 DUP2 PUSH2 0x2F98 ADD MSTORE DUP2 DUP2 PUSH2 0x2FD7 ADD MSTORE DUP2 DUP2 PUSH2 0x3138 ADD MSTORE PUSH2 0x3204 ADD MSTORE PUSH2 0x3B1C PUSH0 RETURN INVALID PUSH1 0x80 PUSH1 0x40 MSTORE PUSH1 0x4 CALLDATASIZE LT PUSH2 0x220 JUMPI PUSH0 CALLDATALOAD PUSH1 0xE0 SHR DUP1 PUSH4 0x78E97925 GT PUSH2 0x11E JUMPI DUP1 PUSH4 0xBF151CB8 GT PUSH2 0xA8 JUMPI DUP1 PUSH4 0xDDBCB5FA GT PUSH2 0x6D JUMPI DUP1 PUSH4 0xDDBCB5FA EQ PUSH2 0x881 JUMPI DUP1 PUSH4 0xE8E8FE04 EQ PUSH2 0x896 JUMPI DUP1 PUSH4 0xF2FDE38B EQ PUSH2 0x8B5 JUMPI DUP1 PUSH4 0xF56E9C66 EQ PUSH2 0x8D4 JUMPI DUP1 PUSH4 0xFD36E3C6 EQ PUSH2 0x8F3 JUMPI PUSH0 PUSH0 REVERT JUMPDEST DUP1 PUSH4 0xBF151CB8 EQ PUSH2 0x7E1 JUMPI DUP1 PUSH4 0xC82C3CBF EQ PUSH2 0x7F5 JUMPI DUP1 PUSH4 0xCCA3C5FF EQ PUSH2 0x809 JUMPI DUP1 PUSH4 0xD1227343 EQ PUSH2 0x81E JUMPI DUP1 PUSH4 0xDD62ED3E EQ PUSH2 0x83D JUMPI PUSH0 PUSH0 REVERT JUMPDEST DUP1 PUSH4 0x95D89B41 GT PUSH2 0xEE JUMPI DUP1 PUSH4 0x95D89B41 EQ PUSH2 0x6AA JUMPI DUP1 PUSH4 0xA52EE3AF EQ PUSH2 0x6BE JUMPI DUP1 PUSH4 0xA87430BA EQ PUSH2 0x6E9 JUMPI DUP1 PUSH4 0xA9059CBB EQ PUSH2 0x7AD JUMPI DUP1 PUSH4 0xB4A2E463 EQ PUSH2 0x7CC JUMPI PUSH0 PUSH0 REVERT JUMPDEST DUP1 PUSH4 0x78E97925 EQ PUSH2 0x644 JUMPI DUP1 PUSH4 0x7F054455 EQ PUSH2 0x659 JUMPI DUP1 PUSH4 0x8DA5CB5B EQ PUSH2 0x66E JUMPI DUP1 PUSH4 0x8DD95002 EQ PUSH2 0x68B JUMPI PUSH0 PUSH0 REVERT JUMPDEST DUP1 PUSH4 0x3D471D57 GT PUSH2 0x1AA JUMPI DUP1 PUSH4 0x4BF28FD0 GT PUSH2 0x16F JUMPI DUP1 PUSH4 0x4BF28FD0 EQ PUSH2 0x576 JUMPI DUP1 PUSH4 0x583E0568 EQ PUSH2 0x595 JUMPI DUP1 PUSH4 0x6D476A77 EQ PUSH2 0x5C8 JUMPI DUP1 PUSH4 0x70A08231 EQ PUSH2 0x5FC JUMPI DUP1 PUSH4 0x715018A6 EQ PUSH2 0x630 JUMPI PUSH0 PUSH0 REVERT JUMPDEST DUP1 PUSH4 0x3D471D57 EQ PUSH2 0x4D9 JUMPI DUP1 PUSH4 0x3E0A322D EQ PUSH2 0x4F8 JUMPI DUP1 PUSH4 0x440B30E7 EQ PUSH2 0x517 JUMPI DUP1 PUSH4 0x47AB459C EQ PUSH2 0x543 JUMPI DUP1 PUSH4 0x47CCCA02 EQ PUSH2 0x557 JUMPI PUSH0 PUSH0 REVERT JUMPDEST DUP1 PUSH4 0x18160DDD GT PUSH2 0x1F0 JUMPI DUP1 PUSH4 0x18160DDD EQ PUSH2 0x44C JUMPI DUP1 PUSH4 0x1C53C280 EQ PUSH2 0x460 JUMPI DUP1 PUSH4 0x23B872DD EQ PUSH2 0x47F JUMPI DUP1 PUSH4 0x2529D1A3 EQ PUSH2 0x49E JUMPI DUP1 PUSH4 0x313CE567 EQ PUSH2 0x4BE JUMPI PUSH0 PUSH0 REVERT JUMPDEST DUP1 PUSH4 0x6FDDE03 EQ PUSH2 0x39A JUMPI DUP1 PUSH4 0x95EA7B3 EQ PUSH2 0x3C4 JUMPI DUP1 PUSH4 0x9D46746 EQ PUSH2 0x3F3 JUMPI DUP1 PUSH4 0x16F0115B EQ PUSH2 0x415 JUMPI PUSH0 PUSH0 REVERT JUMPDEST CALLDATASIZE PUSH2 0x396 JUMPI CALLER PUSH0 DUP2 DUP2 MSTORE PUSH1 0xA PUSH1 0x20 MSTORE PUSH1 0x40 SWAP1 KECCAK256 SLOAD PUSH1 0x1 PUSH1 0x1 PUSH1 0xA0 SHL SUB AND SWAP1 CALLVALUE SWAP1 ORIGIN SWAP1 SUB PUSH2 0x394 JUMPI PUSH1 0x12 SLOAD DUP2 LT ISZERO DUP1 ISZERO PUSH2 0x275 JUMPI POP PUSH1 0x1 PUSH1 0x1 PUSH1 0xA0 SHL SUB DUP3 AND ISZERO ISZERO DUP1 PUSH2 0x275 JUMPI POP PUSH1 0x14 SLOAD PUSH1 0x1 PUSH1 0x1 PUSH1 0xA0 SHL SUB AND CALLER EQ JUMPDEST ISZERO PUSH2 0x37B JUMPI CALLER PUSH0 SWAP1 DUP2 MSTORE PUSH1 0xA PUSH1 0x20 MSTORE PUSH1 0x40 SWAP1 KECCAK256 PUSH1 0x7 ADD SLOAD PUSH2 0x100 SWAP1 DIV PUSH1 0xFF AND PUSH2 0x2DF JUMPI CALLER PUSH0 SWAP1 DUP2 MSTORE PUSH1 0xA PUSH1 0x20 MSTORE PUSH1 0x40 DUP1 DUP3 KECCAK256 PUSH1 0x7 ADD DUP1 SLOAD PUSH2 0xFF00 NOT AND PUSH2 0x100 OR SWAP1 SSTORE PUSH1 0x1 PUSH1 0x1 PUSH1 0xA0 SHL SUB DUP5 AND DUP3 MSTORE DUP2 KECCAK256 PUSH1 0x6 ADD DUP1 SLOAD PUSH1 0x1 SWAP3 SWAP1 PUSH2 0x2D9 SWAP1 DUP5 SWAP1 PUSH2 0x3640 JUMP JUMPDEST SWAP1 SWAP2 SSTORE POP POP JUMPDEST PUSH0 PUSH2 0x2F3 PUSH2 0x2EE PUSH1 0x2 DUP5 PUSH2 0x3653 JUMP JUMPDEST PUSH2 0x92C JUMP JUMPDEST CALLER PUSH0 SWAP1 DUP2 MSTORE PUSH1 0xA PUSH1 0x20 MSTORE PUSH1 0x40 DUP2 KECCAK256 PUSH1 0x1 ADD DUP1 SLOAD SWAP3 SWAP4 POP DUP5 SWAP3 SWAP1 SWAP2 SWAP1 PUSH2 0x319 SWAP1 DUP5 SWAP1 PUSH2 0x3640 JUMP JUMPDEST SWAP1 SWAP2 SSTORE POP POP CALLER PUSH0 SWAP1 DUP2 MSTORE PUSH1 0xA PUSH1 0x20 MSTORE PUSH1 0x40 DUP2 KECCAK256 PUSH1 0x2 ADD DUP1 SLOAD DUP4 SWAP3 SWAP1 PUSH2 0x33F SWAP1 DUP5 SWAP1 PUSH2 0x3640 JUMP JUMPDEST SWAP1 SWAP2 SSTORE POP POP PUSH1 0x40 MLOAD DUP3 DUP2 MSTORE CALLER SWAP1 PUSH32 0x5F41F00E6C90DEA5837402EFBF3E658A1F1DF8DB3B19624B133BC1DF0444F7EA SWAP1 PUSH1 0x20 ADD PUSH1 0x40 MLOAD DUP1 SWAP2 SUB SWAP1 LOG2 STOP JUMPDEST PUSH1 0x40 MLOAD PUSH4 0x236C6E5B PUSH1 0xE0 SHL DUP2 MSTORE PUSH1 0x4 ADD PUSH1 0x40 MLOAD DUP1 SWAP2 SUB SWAP1 REVERT JUMPDEST STOP JUMPDEST PUSH0 PUSH0 REVERT JUMPDEST CALLVALUE DUP1 ISZERO PUSH2 0x3A5 JUMPI PUSH0 PUSH0 REVERT JUMPDEST POP PUSH2 0x3AE PUSH2 0xB55 JUMP JUMPDEST PUSH1 0x40 MLOAD PUSH2 0x3BB SWAP2 SWAP1 PUSH2 0x3672 JUMP JUMPDEST PUSH1 0x40 MLOAD DUP1 SWAP2 SUB SWAP1 RETURN JUMPDEST CALLVALUE DUP1 ISZERO PUSH2 0x3CF JUMPI PUSH0 PUSH0 REVERT JUMPDEST POP PUSH2 0x3E3 PUSH2 0x3DE CALLDATASIZE PUSH1 0x4 PUSH2 0x36BB JUMP JUMPDEST PUSH2 0xBE5 JUMP JUMPDEST PUSH1 0x40 MLOAD SWAP1 ISZERO ISZERO DUP2 MSTORE PUSH1 0x20 ADD PUSH2 0x3BB JUMP JUMPDEST CALLVALUE DUP1 ISZERO PUSH2 0x3FE JUMPI PUSH0 PUSH0 REVERT JUMPDEST POP PUSH2 0x407 PUSH2 0xBFE JUMP JUMPDEST PUSH1 0x40 MLOAD SWAP1 DUP2 MSTORE PUSH1 0x20 ADD PUSH2 0x3BB JUMP JUMPDEST CALLVALUE DUP1 ISZERO PUSH2 0x420 JUMPI PUSH0 PUSH0 REVERT JUMPDEST POP PUSH1 0xE SLOAD PUSH2 0x434 SWAP1 PUSH1 0x1 PUSH1 0x1 PUSH1 0xA0 SHL SUB AND DUP2 JUMP JUMPDEST PUSH1 0x40 MLOAD PUSH1 0x1 PUSH1 0x1 PUSH1 0xA0 SHL SUB SWAP1 SWAP2 AND DUP2 MSTORE PUSH1 0x20 ADD PUSH2 0x3BB JUMP JUMPDEST CALLVALUE DUP1 ISZERO PUSH2 0x457 JUMPI PUSH0 PUSH0 REVERT JUMPDEST POP PUSH1 0x2 SLOAD PUSH2 0x407 JUMP JUMPDEST CALLVALUE DUP1 ISZERO PUSH2 0x46B JUMPI PUSH0 PUSH0 REVERT JUMPDEST POP PUSH2 0x434 PUSH2 0x47A CALLDATASIZE PUSH1 0x4 PUSH2 0x36E5 JUMP JUMPDEST PUSH2 0xD02 JUMP JUMPDEST CALLVALUE DUP1 ISZERO PUSH2 0x48A JUMPI PUSH0 PUSH0 REVERT JUMPDEST POP PUSH2 0x3E3 PUSH2 0x499 CALLDATASIZE PUSH1 0x4 PUSH2 0x36FC JUMP JUMPDEST PUSH2 0xD2A JUMP JUMPDEST CALLVALUE DUP1 ISZERO PUSH2 0x4A9 JUMPI PUSH0 PUSH0 REVERT JUMPDEST POP PUSH1 0xE SLOAD PUSH2 0x3E3 SWAP1 PUSH1 0x1 PUSH1 0xA0 SHL SWAP1 DIV PUSH1 0xFF AND DUP2 JUMP JUMPDEST CALLVALUE DUP1 ISZERO PUSH2 0x4C9 JUMPI PUSH0 PUSH0 REVERT JUMPDEST POP PUSH1 0x40 MLOAD PUSH1 0x12 DUP2 MSTORE PUSH1 0x20 ADD PUSH2 0x3BB JUMP JUMPDEST CALLVALUE DUP1 ISZERO PUSH2 0x4E4 JUMPI PUSH0 PUSH0 REVERT JUMPDEST POP PUSH2 0x407 PUSH2 0x4F3 CALLDATASIZE PUSH1 0x4 PUSH2 0x36E5 JUMP JUMPDEST PUSH2 0xD4D JUMP JUMPDEST CALLVALUE DUP1 ISZERO PUSH2 0x503 JUMPI PUSH0 PUSH0 REVERT JUMPDEST POP PUSH2 0x394 PUSH2 0x512 CALLDATASIZE PUSH1 0x4 PUSH2 0x36E5 JUMP JUMPDEST PUSH2 0xDD4 JUMP JUMPDEST CALLVALUE DUP1 ISZERO PUSH2 0x522 JUMPI PUSH0 PUSH0 REVERT JUMPDEST POP PUSH2 0x536 PUSH2 0x531 CALLDATASIZE PUSH1 0x4 PUSH2 0x373A JUMP JUMPDEST PUSH2 0xDE1 JUMP JUMPDEST PUSH1 0x40 MLOAD PUSH2 0x3BB SWAP2 SWAP1 PUSH2 0x3798 JUMP JUMPDEST CALLVALUE DUP1 ISZERO PUSH2 0x54E JUMPI PUSH0 PUSH0 REVERT JUMPDEST POP PUSH2 0x394 PUSH2 0xE04 JUMP JUMPDEST CALLVALUE DUP1 ISZERO PUSH2 0x562 JUMPI PUSH0 PUSH0 REVERT JUMPDEST POP PUSH1 0xC SLOAD PUSH2 0x434 SWAP1 PUSH1 0x1 PUSH1 0x1 PUSH1 0xA0 SHL SUB AND DUP2 JUMP JUMPDEST CALLVALUE DUP1 ISZERO PUSH2 0x581 JUMPI PUSH0 PUSH0 REVERT JUMPDEST POP PUSH1 0x6 SLOAD PUSH2 0x434 SWAP1 PUSH1 0x1 PUSH1 0x1 PUSH1 0xA0 SHL SUB AND DUP2 JUMP JUMPDEST CALLVALUE DUP1 ISZERO PUSH2 0x5A0 JUMPI PUSH0 PUSH0 REVERT JUMPDEST POP PUSH2 0x434 PUSH32 0x0 DUP2 JUMP JUMPDEST CALLVALUE DUP1 ISZERO PUSH2 0x5D3 JUMPI PUSH0 PUSH0 REVERT JUMPDEST POP PUSH2 0x5DC PUSH2 0xF84 JUMP JUMPDEST PUSH1 0x40 DUP1 MLOAD SWAP5 DUP6 MSTORE PUSH1 0x20 DUP6 ADD SWAP4 SWAP1 SWAP4 MSTORE SWAP2 DUP4 ADD MSTORE PUSH1 0x60 DUP3 ADD MSTORE PUSH1 0x80 ADD PUSH2 0x3BB JUMP JUMPDEST CALLVALUE DUP1 ISZERO PUSH2 0x607 JUMPI PUSH0 PUSH0 REVERT JUMPDEST POP PUSH2 0x407 PUSH2 0x616 CALLDATASIZE PUSH1 0x4 PUSH2 0x373A JUMP JUMPDEST PUSH1 0x1 PUSH1 0x1 PUSH1 0xA0 SHL SUB AND PUSH0 SWAP1 DUP2 MSTORE PUSH1 0x20 DUP2 SWAP1 MSTORE PUSH1 0x40 SWAP1 KECCAK256 SLOAD SWAP1 JUMP JUMPDEST CALLVALUE DUP1 ISZERO PUSH2 0x63B JUMPI PUSH0 PUSH0 REVERT JUMPDEST POP PUSH2 0x394 PUSH2 0x1033 JUMP JUMPDEST CALLVALUE DUP1 ISZERO PUSH2 0x64F JUMPI PUSH0 PUSH0 REVERT JUMPDEST POP PUSH2 0x407 PUSH1 0x13 SLOAD DUP2 JUMP JUMPDEST CALLVALUE DUP1 ISZERO PUSH2 0x664 JUMPI PUSH0 PUSH0 REVERT JUMPDEST POP PUSH2 0x407 PUSH1 0x11 SLOAD DUP2 JUMP JUMPDEST CALLVALUE DUP1 ISZERO PUSH2 0x679 JUMPI PUSH0 PUSH0 REVERT JUMPDEST POP PUSH1 0x5 SLOAD PUSH1 0x1 PUSH1 0x1 PUSH1 0xA0 SHL SUB AND PUSH2 0x434 JUMP JUMPDEST CALLVALUE DUP1 ISZERO PUSH2 0x696 JUMPI PUSH0 PUSH0 REVERT JUMPDEST POP PUSH1 0xB SLOAD PUSH2 0x434 SWAP1 PUSH1 0x1 PUSH1 0x1 PUSH1 0xA0 SHL SUB AND DUP2 JUMP JUMPDEST CALLVALUE DUP1 ISZERO PUSH2 0x6B5 JUMPI PUSH0 PUSH0 REVERT JUMPDEST POP PUSH2 0x3AE PUSH2 0x1046 JUMP JUMPDEST CALLVALUE DUP1 ISZERO PUSH2 0x6C9 JUMPI PUSH0 PUSH0 REVERT JUMPDEST POP PUSH2 0x407 PUSH2 0x6D8 CALLDATASIZE PUSH1 0x4 PUSH2 0x373A JUMP JUMPDEST PUSH1 0x9 PUSH1 0x20 MSTORE PUSH0 SWAP1 DUP2 MSTORE PUSH1 0x40 SWAP1 KECCAK256 SLOAD DUP2 JUMP JUMPDEST CALLVALUE DUP1 ISZERO PUSH2 0x6F4 JUMPI PUSH0 PUSH0 REVERT JUMPDEST POP PUSH2 0x75B PUSH2 0x703 CALLDATASIZE PUSH1 0x4 PUSH2 0x373A JUMP JUMPDEST PUSH1 0xA PUSH1 0x20 MSTORE PUSH0 SWAP1 DUP2 MSTORE PUSH1 0x40 SWAP1 KECCAK256 DUP1 SLOAD PUSH1 0x1 DUP3 ADD SLOAD PUSH1 0x2 DUP4 ADD SLOAD PUSH1 0x3 DUP5 ADD SLOAD PUSH1 0x4 DUP6 ADD SLOAD PUSH1 0x5 DUP7 ADD SLOAD PUSH1 0x6 DUP8 ADD SLOAD PUSH1 0x7 SWAP1 SWAP8 ADD SLOAD PUSH1 0x1 PUSH1 0x1 PUSH1 0xA0 SHL SUB SWAP1 SWAP7 AND SWAP7 SWAP5 SWAP6 SWAP4 SWAP5 SWAP3 SWAP4 SWAP2 SWAP3 SWAP1 SWAP2 PUSH1 0xFF DUP1 DUP3 AND SWAP2 PUSH2 0x100 SWAP1 DIV AND DUP10 JUMP JUMPDEST PUSH1 0x40 DUP1 MLOAD PUSH1 0x1 PUSH1 0x1 PUSH1 0xA0 SHL SUB SWAP1 SWAP11 AND DUP11 MSTORE PUSH1 0x20 DUP11 ADD SWAP9 SWAP1 SWAP9 MSTORE SWAP7 DUP9 ADD SWAP6 SWAP1 SWAP6 MSTORE PUSH1 0x60 DUP8 ADD SWAP4 SWAP1 SWAP4 MSTORE PUSH1 0x80 DUP7 ADD SWAP2 SWAP1 SWAP2 MSTORE PUSH1 0xA0 DUP6 ADD MSTORE PUSH1 0xC0 DUP5 ADD MSTORE ISZERO ISZERO PUSH1 0xE0 DUP4 ADD MSTORE ISZERO ISZERO PUSH2 0x100 DUP3 ADD MSTORE PUSH2 0x120 ADD PUSH2 0x3BB JUMP JUMPDEST CALLVALUE DUP1 ISZERO PUSH2 0x7B8 JUMPI PUSH0 PUSH0 REVERT JUMPDEST POP PUSH2 0x3E3 PUSH2 0x7C7 CALLDATASIZE PUSH1 0x4 PUSH2 0x36BB JUMP JUMPDEST PUSH2 0x1055 JUMP JUMPDEST CALLVALUE DUP1 ISZERO PUSH2 0x7D7 JUMPI PUSH0 PUSH0 REVERT JUMPDEST POP PUSH2 0x407 PUSH1 0xF SLOAD DUP2 JUMP JUMPDEST CALLVALUE DUP1 ISZERO PUSH2 0x7EC JUMPI PUSH0 PUSH0 REVERT JUMPDEST POP PUSH2 0x407 PUSH2 0x1062 JUMP JUMPDEST CALLVALUE DUP1 ISZERO PUSH2 0x800 JUMPI PUSH0 PUSH0 REVERT JUMPDEST POP PUSH2 0x394 PUSH2 0x10A2 JUMP JUMPDEST CALLVALUE DUP1 ISZERO PUSH2 0x814 JUMPI PUSH0 PUSH0 REVERT JUMPDEST POP PUSH2 0x407 PUSH1 0x10 SLOAD DUP2 JUMP JUMPDEST CALLVALUE DUP1 ISZERO PUSH2 0x829 JUMPI PUSH0 PUSH0 REVERT JUMPDEST POP PUSH2 0x3E3 PUSH2 0x838 CALLDATASIZE PUSH1 0x4 PUSH2 0x37AA JUMP JUMPDEST PUSH2 0x11EA JUMP JUMPDEST CALLVALUE DUP1 ISZERO PUSH2 0x848 JUMPI PUSH0 PUSH0 REVERT JUMPDEST POP PUSH2 0x407 PUSH2 0x857 CALLDATASIZE PUSH1 0x4 PUSH2 0x37AA JUMP JUMPDEST PUSH1 0x1 PUSH1 0x1 PUSH1 0xA0 SHL SUB SWAP2 DUP3 AND PUSH0 SWAP1 DUP2 MSTORE PUSH1 0x1 PUSH1 0x20 SWAP1 DUP2 MSTORE PUSH1 0x40 DUP1 DUP4 KECCAK256 SWAP4 SWAP1 SWAP5 AND DUP3 MSTORE SWAP2 SWAP1 SWAP2 MSTORE KECCAK256 SLOAD SWAP1 JUMP JUMPDEST CALLVALUE DUP1 ISZERO PUSH2 0x88C JUMPI PUSH0 PUSH0 REVERT JUMPDEST POP PUSH2 0x407 PUSH1 0x12 SLOAD DUP2 JUMP JUMPDEST CALLVALUE DUP1 ISZERO PUSH2 0x8A1 JUMPI PUSH0 PUSH0 REVERT JUMPDEST POP PUSH2 0x407 PUSH2 0x8B0 CALLDATASIZE PUSH1 0x4 PUSH2 0x373A JUMP JUMPDEST PUSH2 0x1326 JUMP JUMPDEST CALLVALUE DUP1 ISZERO PUSH2 0x8C0 JUMPI PUSH0 PUSH0 REVERT JUMPDEST POP PUSH2 0x394 PUSH2 0x8CF CALLDATASIZE PUSH1 0x4 PUSH2 0x373A JUMP JUMPDEST PUSH2 0x1410 JUMP JUMPDEST CALLVALUE DUP1 ISZERO PUSH2 0x8DF JUMPI PUSH0 PUSH0 REVERT JUMPDEST POP PUSH2 0x394 PUSH2 0x8EE CALLDATASIZE PUSH1 0x4 PUSH2 0x373A JUMP JUMPDEST PUSH2 0x1452 JUMP JUMPDEST CALLVALUE DUP1 ISZERO PUSH2 0x8FE JUMPI PUSH0 PUSH0 REVERT JUMPDEST POP PUSH2 0x3E3 PUSH2 0x90D CALLDATASIZE PUSH1 0x4 PUSH2 0x37AA JUMP JUMPDEST PUSH1 0x7 PUSH1 0x20 SWAP1 DUP2 MSTORE PUSH0 SWAP3 DUP4 MSTORE PUSH1 0x40 DUP1 DUP5 KECCAK256 SWAP1 SWAP2 MSTORE SWAP1 DUP3 MSTORE SWAP1 KECCAK256 SLOAD PUSH1 0xFF AND DUP2 JUMP JUMPDEST PUSH1 0x40 DUP1 MLOAD PUSH1 0x2 DUP1 DUP3 MSTORE PUSH1 0x60 DUP3 ADD DUP4 MSTORE PUSH0 SWAP3 DUP4 SWAP3 SWAP2 SWAP1 PUSH1 0x20 DUP4 ADD SWAP1 DUP1 CALLDATASIZE DUP4 CALLDATACOPY POP POP PUSH1 0xB SLOAD DUP3 MLOAD SWAP3 SWAP4 POP PUSH1 0x1 PUSH1 0x1 PUSH1 0xA0 SHL SUB AND SWAP2 DUP4 SWAP2 POP PUSH0 SWAP1 PUSH2 0x96F JUMPI PUSH2 0x96F PUSH2 0x37F5 JUMP JUMPDEST PUSH1 0x20 MUL PUSH1 0x20 ADD ADD SWAP1 PUSH1 0x1 PUSH1 0x1 PUSH1 0xA0 SHL SUB AND SWAP1 DUP2 PUSH1 0x1 PUSH1 0x1 PUSH1 0xA0 SHL SUB AND DUP2 MSTORE POP POP ADDRESS DUP2 PUSH1 0x1 DUP2 MLOAD DUP2 LT PUSH2 0x9A3 JUMPI PUSH2 0x9A3 PUSH2 0x37F5 JUMP JUMPDEST PUSH1 0x1 PUSH1 0x1 PUSH1 0xA0 SHL SUB SWAP3 DUP4 AND PUSH1 0x20 SWAP2 DUP3 MUL SWAP3 SWAP1 SWAP3 ADD ADD MSTORE PUSH1 0xE SLOAD PUSH1 0x40 MLOAD PUSH4 0xB6F9DE95 PUSH1 0xE0 SHL DUP2 MSTORE PUSH32 0x0 DUP4 AND SWAP3 PUSH4 0xB6F9DE95 SWAP3 DUP8 SWAP3 PUSH2 0xA0A SWAP3 PUSH0 SWAP3 DUP9 SWAP3 SWAP2 AND SWAP1 TIMESTAMP SWAP1 PUSH1 0x4 ADD PUSH2 0x3809 JUMP JUMPDEST PUSH0 PUSH1 0x40 MLOAD DUP1 DUP4 SUB DUP2 DUP6 DUP9 DUP1 EXTCODESIZE ISZERO DUP1 ISZERO PUSH2 0xA21 JUMPI PUSH0 PUSH0 REVERT JUMPDEST POP GAS CALL ISZERO DUP1 ISZERO PUSH2 0xA33 JUMPI RETURNDATASIZE PUSH0 PUSH0 RETURNDATACOPY RETURNDATASIZE PUSH0 REVERT JUMPDEST POP POP PUSH1 0xE SLOAD PUSH1 0x1 PUSH1 0x1 PUSH1 0xA0 SHL SUB AND PUSH0 SWAP1 DUP2 MSTORE PUSH1 0x20 DUP2 SWAP1 MSTORE PUSH1 0x40 DUP2 KECCAK256 SLOAD SWAP1 SWAP4 POP SWAP2 POP PUSH2 0xA5B SWAP1 POP JUMP JUMPDEST PUSH1 0xE SLOAD SWAP1 SWAP2 POP PUSH2 0xA75 SWAP1 PUSH1 0x1 PUSH1 0x1 PUSH1 0xA0 SHL SUB AND ADDRESS DUP4 PUSH2 0x147C JUMP JUMPDEST PUSH2 0xAA0 ADDRESS PUSH32 0x0 DUP4 PUSH2 0x15A2 JUMP JUMPDEST PUSH1 0x40 MLOAD PUSH4 0xF305D719 PUSH1 0xE0 SHL DUP2 MSTORE ADDRESS PUSH1 0x4 DUP3 ADD DUP2 SWAP1 MSTORE PUSH1 0x24 DUP3 ADD DUP4 SWAP1 MSTORE PUSH0 PUSH1 0x44 DUP4 ADD DUP2 SWAP1 MSTORE PUSH1 0x64 DUP4 ADD MSTORE PUSH1 0x84 DUP3 ADD MSTORE TIMESTAMP PUSH1 0xA4 DUP3 ADD MSTORE PUSH32 0x0 PUSH1 0x1 PUSH1 0x1 PUSH1 0xA0 SHL SUB AND SWAP1 PUSH4 0xF305D719 SWAP1 DUP7 SWAP1 PUSH1 0xC4 ADD PUSH1 0x60 PUSH1 0x40 MLOAD DUP1 DUP4 SUB DUP2 DUP6 DUP9 GAS CALL ISZERO DUP1 ISZERO PUSH2 0xB26 JUMPI RETURNDATASIZE PUSH0 PUSH0 RETURNDATACOPY RETURNDATASIZE PUSH0 REVERT JUMPDEST POP POP POP POP POP PUSH1 0x40 MLOAD RETURNDATASIZE PUSH1 0x1F NOT PUSH1 0x1F DUP3 ADD AND DUP3 ADD DUP1 PUSH1 0x40 MSTORE POP DUP2 ADD SWAP1 PUSH2 0xB4B SWAP2 SWAP1 PUSH2 0x383D JUMP JUMPDEST SWAP7 SWAP6 POP POP POP POP POP POP JUMP JUMPDEST PUSH1 0x60 PUSH1 0x3 DUP1 SLOAD PUSH2 0xB64 SWAP1 PUSH2 0x3868 JUMP JUMPDEST DUP1 PUSH1 0x1F ADD PUSH1 0x20 DUP1 SWAP2 DIV MUL PUSH1 0x20 ADD PUSH1 0x40 MLOAD SWAP1 DUP2 ADD PUSH1 0x40 MSTORE DUP1 SWAP3 SWAP2 SWAP1 DUP2 DUP2 MSTORE PUSH1 0x20 ADD DUP3 DUP1 SLOAD PUSH2 0xB90 SWAP1 PUSH2 0x3868 JUMP JUMPDEST DUP1 ISZERO PUSH2 0xBDB JUMPI DUP1 PUSH1 0x1F LT PUSH2 0xBB2 JUMPI PUSH2 0x100 DUP1 DUP4 SLOAD DIV MUL DUP4 MSTORE SWAP2 PUSH1 0x20 ADD SWAP2 PUSH2 0xBDB JUMP JUMPDEST DUP3 ADD SWAP2 SWAP1 PUSH0 MSTORE PUSH1 0x20 PUSH0 KECCAK256 SWAP1 JUMPDEST DUP2 SLOAD DUP2 MSTORE SWAP1 PUSH1 0x1 ADD SWAP1 PUSH1 0x20 ADD DUP1 DUP4 GT PUSH2 0xBBE JUMPI DUP3 SWAP1 SUB PUSH1 0x1F AND DUP3 ADD SWAP2 JUMPDEST POP POP POP POP POP SWAP1 POP SWAP1 JUMP JUMPDEST PUSH0 CALLER PUSH2 0xBF2 DUP2 DUP6 DUP6 PUSH2 0x15A2 JUMP JUMPDEST PUSH1 0x1 SWAP2 POP POP JUMPDEST SWAP3 SWAP2 POP POP JUMP JUMPDEST PUSH1 0x6 SLOAD PUSH1 0x40 DUP1 MLOAD PUSH4 0x240BC6B PUSH1 0xE2 SHL DUP2 MSTORE SWAP1 MLOAD PUSH0 SWAP3 PUSH1 0x1 PUSH1 0x1 PUSH1 0xA0 SHL SUB AND SWAP2 DUP4 SWAP2 DUP3 SWAP2 DUP5 SWAP2 PUSH4 0x902F1AC SWAP2 PUSH1 0x4 DUP1 DUP3 ADD SWAP3 PUSH1 0x60 SWAP3 SWAP1 SWAP2 SWAP1 DUP3 SWAP1 SUB ADD DUP2 DUP7 GAS STATICCALL ISZERO DUP1 ISZERO PUSH2 0xC4C JUMPI RETURNDATASIZE PUSH0 PUSH0 RETURNDATACOPY RETURNDATASIZE PUSH0 REVERT JUMPDEST POP POP POP POP PUSH1 0x40 MLOAD RETURNDATASIZE PUSH1 0x1F NOT PUSH1 0x1F DUP3 ADD AND DUP3 ADD DUP1 PUSH1 0x40 MSTORE POP DUP2 ADD SWAP1 PUSH2 0xC70 SWAP2 SWAP1 PUSH2 0x38B0 JUMP JUMPDEST POP SWAP2 POP SWAP2 POP PUSH0 DUP4 PUSH1 0x1 PUSH1 0x1 PUSH1 0xA0 SHL SUB AND PUSH4 0xDFE1681 PUSH1 0x40 MLOAD DUP2 PUSH4 0xFFFFFFFF AND PUSH1 0xE0 SHL DUP2 MSTORE PUSH1 0x4 ADD PUSH1 0x20 PUSH1 0x40 MLOAD DUP1 DUP4 SUB DUP2 DUP7 GAS STATICCALL ISZERO DUP1 ISZERO PUSH2 0xCB2 JUMPI RETURNDATASIZE PUSH0 PUSH0 RETURNDATACOPY RETURNDATASIZE PUSH0 REVERT JUMPDEST POP POP POP POP PUSH1 0x40 MLOAD RETURNDATASIZE PUSH1 0x1F NOT PUSH1 0x1F DUP3 ADD AND DUP3 ADD DUP1 PUSH1 0x40 MSTORE POP DUP2 ADD SWAP1 PUSH2 0xCD6 SWAP2 SWAP1 PUSH2 0x38FC JUMP JUMPDEST SWAP1 POP PUSH1 0x1 PUSH1 0x1 PUSH1 0xA0 SHL SUB DUP2 AND ADDRESS EQ PUSH2 0xCEE JUMPI DUP2 PUSH2 0xCF0 JUMP JUMPDEST DUP3 JUMPDEST PUSH1 0x1 PUSH1 0x1 PUSH1 0x70 SHL SUB AND SWAP5 POP POP POP POP POP SWAP1 JUMP JUMPDEST PUSH1 0xD DUP2 DUP2 SLOAD DUP2 LT PUSH2 0xD11 JUMPI PUSH0 DUP1 REVERT JUMPDEST PUSH0 SWAP2 DUP3 MSTORE PUSH1 0x20 SWAP1 SWAP2 KECCAK256 ADD SLOAD PUSH1 0x1 PUSH1 0x1 PUSH1 0xA0 SHL SUB AND SWAP1 POP DUP2 JUMP JUMPDEST PUSH0 CALLER PUSH2 0xD37 DUP6 DUP3 DUP6 PUSH2 0x15B4 JUMP JUMPDEST PUSH2 0xD42 DUP6 DUP6 DUP6 PUSH2 0x162A JUMP JUMPDEST POP PUSH1 0x1 SWAP5 SWAP4 POP POP POP POP JUMP JUMPDEST PUSH0 DUP2 PUSH1 0x1 SUB PUSH2 0xD5E JUMPI POP PUSH1 0xA SWAP2 SWAP1 POP JUMP JUMPDEST DUP2 PUSH1 0x2 SUB PUSH2 0xD6E JUMPI POP PUSH1 0x5 SWAP2 SWAP1 POP JUMP JUMPDEST DUP2 PUSH1 0x3 SUB PUSH2 0xD7E JUMPI POP PUSH1 0x3 SWAP2 SWAP1 POP JUMP JUMPDEST PUSH1 0x4 DUP3 LT ISZERO DUP1 ISZERO PUSH2 0xD90 JUMPI POP PUSH1 0x11 DUP3 GT ISZERO JUMPDEST ISZERO PUSH2 0xD9D JUMPI POP PUSH1 0x1 SWAP2 SWAP1 POP JUMP JUMPDEST DUP2 PUSH1 0x12 SUB PUSH2 0xDAD JUMPI POP PUSH1 0x3 SWAP2 SWAP1 POP JUMP JUMPDEST DUP2 PUSH1 0x13 SUB PUSH2 0xDBD JUMPI POP PUSH1 0x5 SWAP2 SWAP1 POP JUMP JUMPDEST DUP2 PUSH1 0x14 SUB PUSH2 0xDCD JUMPI POP PUSH1 0xA SWAP2 SWAP1 POP JUMP JUMPDEST POP PUSH0 SWAP2 SWAP1 POP JUMP JUMPDEST PUSH2 0xDDC PUSH2 0x1687 JUMP JUMPDEST PUSH1 0x13 SSTORE JUMP JUMPDEST PUSH1 0x1 PUSH1 0x1 PUSH1 0xA0 SHL SUB DUP2 AND PUSH0 SWAP1 DUP2 MSTORE PUSH1 0x8 PUSH1 0x20 MSTORE PUSH1 0x40 SWAP1 KECCAK256 PUSH1 0x60 SWAP1 PUSH2 0xBF8 SWAP1 PUSH2 0x16B4 JUMP JUMPDEST PUSH1 0x6 SLOAD PUSH1 0x40 DUP1 MLOAD PUSH4 0x240BC6B PUSH1 0xE2 SHL DUP2 MSTORE SWAP1 MLOAD PUSH1 0x1 PUSH1 0x1 PUSH1 0xA0 SHL SUB SWAP1 SWAP3 AND SWAP2 PUSH0 SWAP2 DUP3 SWAP2 DUP5 SWAP2 PUSH4 0x902F1AC SWAP2 PUSH1 0x4 DUP1 DUP4 ADD SWAP3 PUSH1 0x60 SWAP3 SWAP2 SWAP1 DUP3 SWAP1 SUB ADD DUP2 DUP7 GAS STATICCALL ISZERO DUP1 ISZERO PUSH2 0xE51 JUMPI RETURNDATASIZE PUSH0 PUSH0 RETURNDATACOPY RETURNDATASIZE PUSH0 REVERT JUMPDEST POP POP POP POP PUSH1 0x40 MLOAD RETURNDATASIZE PUSH1 0x1F NOT PUSH1 0x1F DUP3 ADD AND DUP3 ADD DUP1 PUSH1 0x40 MSTORE POP DUP2 ADD SWAP1 PUSH2 0xE75 SWAP2 SWAP1 PUSH2 0x38B0 JUMP JUMPDEST POP SWAP2 POP SWAP2 POP DUP2 PUSH1 0x1 PUSH1 0x1 PUSH1 0x70 SHL SUB AND PUSH0 EQ DUP1 PUSH2 0xE98 JUMPI POP PUSH1 0x1 PUSH1 0x1 PUSH1 0x70 SHL SUB DUP2 AND ISZERO JUMPDEST ISZERO PUSH2 0xEA2 JUMPI POP POP POP JUMP JUMPDEST PUSH0 DUP4 PUSH1 0x1 PUSH1 0x1 PUSH1 0xA0 SHL SUB AND PUSH4 0xDFE1681 PUSH1 0x40 MLOAD DUP2 PUSH4 0xFFFFFFFF AND PUSH1 0xE0 SHL DUP2 MSTORE PUSH1 0x4 ADD PUSH1 0x20 PUSH1 0x40 MLOAD DUP1 DUP4 SUB DUP2 DUP7 GAS STATICCALL ISZERO DUP1 ISZERO PUSH2 0xEDF JUMPI RETURNDATASIZE PUSH0 PUSH0 RETURNDATACOPY RETURNDATASIZE PUSH0 REVERT JUMPDEST POP POP POP POP PUSH1 0x40 MLOAD RETURNDATASIZE PUSH1 0x1F NOT PUSH1 0x1F DUP3 ADD AND DUP3 ADD DUP1 PUSH1 0x40 MSTORE POP DUP2 ADD SWAP1 PUSH2 0xF03 SWAP2 SWAP1 PUSH2 0x38FC JUMP JUMPDEST SWAP1 POP PUSH0 PUSH1 0x1 PUSH1 0x1 PUSH1 0xA0 SHL SUB DUP3 AND ADDRESS EQ PUSH2 0xF1C JUMPI DUP3 PUSH2 0xF1E JUMP JUMPDEST DUP4 JUMPDEST PUSH1 0x1 PUSH1 0x1 PUSH1 0x70 SHL SUB AND SWAP1 POP PUSH1 0xF SLOAD DUP2 LT ISZERO PUSH2 0xF5D JUMPI PUSH1 0xE SLOAD PUSH1 0x1 PUSH1 0xA0 SHL SWAP1 DIV PUSH1 0xFF AND PUSH2 0xF58 JUMPI PUSH1 0xE DUP1 SLOAD PUSH1 0xFF PUSH1 0xA0 SHL NOT AND PUSH1 0x1 PUSH1 0xA0 SHL OR SWAP1 SSTORE JUMPDEST PUSH2 0xF7D JUMP JUMPDEST PUSH1 0xE SLOAD PUSH1 0x1 PUSH1 0xA0 SHL SWAP1 DIV PUSH1 0xFF AND ISZERO PUSH2 0xF7D JUMPI PUSH1 0xE DUP1 SLOAD PUSH1 0xFF PUSH1 0xA0 SHL NOT AND SWAP1 SSTORE JUMPDEST POP POP POP POP POP JUMP JUMPDEST PUSH0 PUSH0 PUSH0 PUSH0 PUSH0 PUSH2 0xF91 PUSH2 0xBFE JUMP JUMPDEST SWAP1 POP PUSH12 0x33B2E3C9FD0803CE8000000 DUP2 GT ISZERO PUSH2 0xFC0 JUMPI PUSH2 0x5DC PUSH2 0x2EE PUSH2 0x12C PUSH1 0x3C SWAP5 POP SWAP5 POP SWAP5 POP SWAP5 POP POP PUSH2 0x102D JUMP JUMPDEST PUSH12 0x19D971E4FE8401E74000000 DUP2 GT ISZERO PUSH2 0xFED JUMPI PUSH2 0x4E2 PUSH2 0x271 PUSH2 0x12C PUSH1 0x3C SWAP5 POP SWAP5 POP SWAP5 POP SWAP5 POP POP PUSH2 0x102D JUMP JUMPDEST PUSH11 0x52B7D2DCC80CD2E4000000 DUP2 GT ISZERO PUSH2 0x1019 JUMPI PUSH2 0x3E8 PUSH2 0x1F4 PUSH2 0x12C PUSH1 0x3C SWAP5 POP SWAP5 POP SWAP5 POP SWAP5 POP POP PUSH2 0x102D JUMP JUMPDEST PUSH2 0x1F4 PUSH1 0xFA PUSH2 0x12C PUSH1 0x3C SWAP5 POP SWAP5 POP SWAP5 POP SWAP5 POP POP JUMPDEST SWAP1 SWAP2 SWAP3 SWAP4 JUMP JUMPDEST PUSH2 0x103B PUSH2 0x1687 JUMP JUMPDEST PUSH2 0x1044 PUSH0 PUSH2 0x16C7 JUMP JUMPDEST JUMP JUMPDEST PUSH1 0x60 PUSH1 0x4 DUP1 SLOAD PUSH2 0xB64 SWAP1 PUSH2 0x3868 JUMP JUMPDEST PUSH0 CALLER PUSH2 0xBF2 DUP2 DUP6 DUP6 PUSH2 0x162A JUMP JUMPDEST PUSH2 0xDEAD PUSH0 SWAP1 DUP2 MSTORE PUSH1 0x20 DUP2 SWAP1 MSTORE PUSH32 0x44AD89BA62B98FF34F51403AC22759B55759460C0BB5521EB4B6EE3CFF49CF83 SLOAD PUSH1 0x2 SLOAD PUSH2 0x109D SWAP2 SWAP1 PUSH2 0x3917 JUMP JUMPDEST SWAP1 POP SWAP1 JUMP JUMPDEST PUSH1 0xB SLOAD PUSH1 0x6 SLOAD PUSH1 0x40 MLOAD PUSH4 0x70A08231 PUSH1 0xE0 SHL DUP2 MSTORE ADDRESS PUSH1 0x4 DUP3 ADD MSTORE PUSH1 0x1 PUSH1 0x1 PUSH1 0xA0 SHL SUB SWAP3 DUP4 AND SWAP3 PUSH4 0xA9059CBB SWAP3 AND SWAP1 DUP4 SWAP1 PUSH4 0x70A08231 SWAP1 PUSH1 0x24 ADD PUSH1 0x20 PUSH1 0x40 MLOAD DUP1 DUP4 SUB DUP2 DUP7 GAS STATICCALL ISZERO DUP1 ISZERO PUSH2 0x10F5 JUMPI RETURNDATASIZE PUSH0 PUSH0 RETURNDATACOPY RETURNDATASIZE PUSH0 REVERT JUMPDEST POP POP POP POP PUSH1 0x40 MLOAD RETURNDATASIZE PUSH1 0x1F NOT PUSH1 0x1F DUP3 ADD AND DUP3 ADD DUP1 PUSH1 0x40 MSTORE POP DUP2 ADD SWAP1 PUSH2 0x1119 SWAP2 SWAP1 PUSH2 0x392A JUMP JUMPDEST PUSH1 0x40 MLOAD PUSH1 0x1 PUSH1 0x1 PUSH1 0xE0 SHL SUB NOT PUSH1 0xE0 DUP6 SWAP1 SHL AND DUP2 MSTORE PUSH1 0x1 PUSH1 0x1 PUSH1 0xA0 SHL SUB SWAP1 SWAP3 AND PUSH1 0x4 DUP4 ADD MSTORE PUSH1 0x24 DUP3 ADD MSTORE PUSH1 0x44 ADD PUSH1 0x20 PUSH1 0x40 MLOAD DUP1 DUP4 SUB DUP2 PUSH0 DUP8 GAS CALL ISZERO DUP1 ISZERO PUSH2 0x1161 JUMPI RETURNDATASIZE PUSH0 PUSH0 RETURNDATACOPY RETURNDATASIZE PUSH0 REVERT JUMPDEST POP POP POP POP PUSH1 0x40 MLOAD RETURNDATASIZE PUSH1 0x1F NOT PUSH1 0x1F DUP3 ADD AND DUP3 ADD DUP1 PUSH1 0x40 MSTORE POP DUP2 ADD SWAP1 PUSH2 0x1185 SWAP2 SWAP1 PUSH2 0x3941 JUMP JUMPDEST POP PUSH1 0x6 PUSH0 SWAP1 SLOAD SWAP1 PUSH2 0x100 EXP SWAP1 DIV PUSH1 0x1 PUSH1 0x1 PUSH1 0xA0 SHL SUB AND PUSH1 0x1 PUSH1 0x1 PUSH1 0xA0 SHL SUB AND PUSH4 0xFFF6CAE9 PUSH1 0x40 MLOAD DUP2 PUSH4 0xFFFFFFFF AND PUSH1 0xE0 SHL DUP2 MSTORE PUSH1 0x4 ADD PUSH0 PUSH1 0x40 MLOAD DUP1 DUP4 SUB DUP2 PUSH0 DUP8 DUP1 EXTCODESIZE ISZERO DUP1 ISZERO PUSH2 0x11D2 JUMPI PUSH0 PUSH0 REVERT JUMPDEST POP GAS CALL ISZERO DUP1 ISZERO PUSH2 0x11E4 JUMPI RETURNDATASIZE PUSH0 PUSH0 RETURNDATACOPY RETURNDATASIZE PUSH0 REVERT JUMPDEST POP POP POP POP JUMP JUMPDEST PUSH1 0x1 PUSH1 0x1 PUSH1 0xA0 SHL SUB DUP3 DUP2 AND PUSH0 SWAP1 DUP2 MSTORE PUSH1 0xA PUSH1 0x20 MSTORE PUSH1 0x40 DUP2 KECCAK256 SLOAD SWAP1 SWAP2 AND ISZERO DUP1 ISZERO PUSH2 0x1221 JUMPI POP PUSH1 0x14 SLOAD PUSH1 0x1 PUSH1 0x1 PUSH1 0xA0 SHL SUB DUP5 DUP2 AND SWAP2 AND EQ ISZERO JUMPDEST DUP1 ISZERO PUSH2 0x123B JUMPI POP PUSH1 0x6 SLOAD PUSH1 0x1 PUSH1 0x1 PUSH1 0xA0 SHL SUB DUP4 DUP2 AND SWAP2 AND EQ ISZERO JUMPDEST DUP1 ISZERO PUSH2 0x1255 JUMPI POP PUSH1 0x6 SLOAD PUSH1 0x1 PUSH1 0x1 PUSH1 0xA0 SHL SUB DUP5 DUP2 AND SWAP2 AND EQ ISZERO JUMPDEST ISZERO PUSH2 0x1261 JUMPI POP PUSH0 PUSH2 0xBF8 JUMP JUMPDEST PUSH1 0x1 PUSH1 0x1 PUSH1 0xA0 SHL SUB DUP1 DUP5 AND PUSH0 SWAP1 DUP2 MSTORE PUSH1 0x7 PUSH1 0x20 SWAP1 DUP2 MSTORE PUSH1 0x40 DUP1 DUP4 KECCAK256 SWAP4 DUP7 AND DUP4 MSTORE SWAP3 SWAP1 MSTORE KECCAK256 SLOAD PUSH1 0xFF AND DUP1 PUSH2 0x12A5 JUMPI POP DUP2 PUSH1 0x1 PUSH1 0x1 PUSH1 0xA0 SHL SUB AND DUP4 PUSH1 0x1 PUSH1 0x1 PUSH1 0xA0 SHL SUB AND EQ JUMPDEST ISZERO PUSH2 0x12B1 JUMPI POP PUSH0 PUSH2 0xBF8 JUMP JUMPDEST DUP2 PUSH0 JUMPDEST PUSH1 0x1 PUSH1 0x1 PUSH1 0xA0 SHL SUB DUP3 AND ISZERO DUP1 ISZERO SWAP1 PUSH2 0x12CF JUMPI POP PUSH1 0x19 DUP2 PUSH1 0xFF AND LT JUMPDEST ISZERO PUSH2 0xD42 JUMPI DUP5 PUSH1 0x1 PUSH1 0x1 PUSH1 0xA0 SHL SUB AND DUP3 PUSH1 0x1 PUSH1 0x1 PUSH1 0xA0 SHL SUB AND SUB PUSH2 0x12F7 JUMPI PUSH0 SWAP3 POP POP POP PUSH2 0xBF8 JUMP JUMPDEST PUSH1 0x1 PUSH1 0x1 PUSH1 0xA0 SHL SUB SWAP2 DUP3 AND PUSH0 SWAP1 DUP2 MSTORE PUSH1 0xA PUSH1 0x20 MSTORE PUSH1 0x40 SWAP1 KECCAK256 SLOAD SWAP1 SWAP2 AND SWAP1 DUP1 PUSH2 0x131E DUP2 PUSH2 0x3960 JUMP JUMPDEST SWAP2 POP POP PUSH2 0x12B4 JUMP JUMPDEST PUSH1 0x1 PUSH1 0x1 PUSH1 0xA0 SHL SUB DUP1 DUP3 AND PUSH0 SWAP1 DUP2 MSTORE PUSH1 0xA PUSH1 0x20 SWAP1 DUP2 MSTORE PUSH1 0x40 DUP1 DUP4 KECCAK256 DUP2 MLOAD PUSH2 0x120 DUP2 ADD DUP4 MSTORE DUP2 SLOAD SWAP1 SWAP6 AND DUP6 MSTORE PUSH1 0x1 DUP2 ADD SLOAD SWAP3 DUP6 ADD SWAP3 SWAP1 SWAP3 MSTORE PUSH1 0x2 DUP3 ADD SLOAD SWAP1 DUP5 ADD MSTORE PUSH1 0x3 DUP2 ADD SLOAD PUSH1 0x60 DUP5 ADD MSTORE PUSH1 0x4 DUP2 ADD SLOAD PUSH1 0x80 DUP5 ADD MSTORE PUSH1 0x5 DUP2 ADD SLOAD PUSH1 0xA0 DUP5 ADD MSTORE PUSH1 0x6 DUP2 ADD SLOAD PUSH1 0xC0 DUP5 ADD MSTORE PUSH1 0x7 ADD SLOAD PUSH1 0xFF DUP1 DUP3 AND ISZERO ISZERO PUSH1 0xE0 DUP6 ADD MSTORE PUSH2 0x100 SWAP2 DUP3 SWAP1 DIV AND ISZERO DUP1 ISZERO SWAP2 DUP5 ADD SWAP2 SWAP1 SWAP2 MSTORE SWAP1 SWAP2 SWAP1 DUP1 PUSH2 0x13C0 JUMPI POP DUP1 PUSH1 0xE0 ADD MLOAD ISZERO JUMPDEST DUP1 PUSH2 0x13CE JUMPI POP DUP1 PUSH1 0x60 ADD MLOAD TIMESTAMP LT JUMPDEST ISZERO PUSH2 0x13DB JUMPI POP PUSH0 SWAP3 SWAP2 POP POP JUMP JUMPDEST PUSH0 PUSH2 0x13E4 PUSH2 0xF84 JUMP JUMPDEST POP POP POP PUSH1 0x20 DUP4 ADD MLOAD SWAP1 SWAP2 POP PUSH3 0x186A0 PUSH2 0x13FD DUP4 DUP4 PUSH2 0x397E JUMP JUMPDEST PUSH2 0x1407 SWAP2 SWAP1 PUSH2 0x3653 JUMP JUMPDEST SWAP6 SWAP5 POP POP POP POP POP JUMP JUMPDEST PUSH2 0x1418 PUSH2 0x1687 JUMP JUMPDEST PUSH1 0x1 PUSH1 0x1 PUSH1 0xA0 SHL SUB DUP2 AND PUSH2 0x1446 JUMPI PUSH1 0x40 MLOAD PUSH4 0x1E4FBDF7 PUSH1 0xE0 SHL DUP2 MSTORE PUSH0 PUSH1 0x4 DUP3 ADD MSTORE PUSH1 0x24 ADD JUMPDEST PUSH1 0x40 MLOAD DUP1 SWAP2 SUB SWAP1 REVERT JUMPDEST PUSH2 0x144F DUP2 PUSH2 0x16C7 JUMP JUMPDEST POP JUMP JUMPDEST PUSH2 0x145A PUSH2 0x1687 JUMP JUMPDEST PUSH1 0xC DUP1 SLOAD PUSH1 0x1 PUSH1 0x1 PUSH1 0xA0 SHL SUB NOT AND PUSH1 0x1 PUSH1 0x1 PUSH1 0xA0 SHL SUB SWAP3 SWAP1 SWAP3 AND SWAP2 SWAP1 SWAP2 OR SWAP1 SSTORE JUMP JUMPDEST PUSH1 0x1 PUSH1 0x1 PUSH1 0xA0 SHL SUB DUP4 AND PUSH2 0x14A6 JUMPI DUP1 PUSH1 0x2 PUSH0 DUP3 DUP3 SLOAD PUSH2 0x149B SWAP2 SWAP1 PUSH2 0x3640 JUMP JUMPDEST SWAP1 SWAP2 SSTORE POP PUSH2 0x1516 SWAP1 POP JUMP JUMPDEST PUSH1 0x1 PUSH1 0x1 PUSH1 0xA0 SHL SUB DUP4 AND PUSH0 SWAP1 DUP2 MSTORE PUSH1 0x20 DUP2 SWAP1 MSTORE PUSH1 0x40 SWAP1 KECCAK256 SLOAD DUP2 DUP2 LT ISZERO PUSH2 0x14F8 JUMPI PUSH1 0x40 MLOAD PUSH4 0x391434E3 PUSH1 0xE2 SHL DUP2 MSTORE PUSH1 0x1 PUSH1 0x1 PUSH1 0xA0 SHL SUB DUP6 AND PUSH1 0x4 DUP3 ADD MSTORE PUSH1 0x24 DUP2 ADD DUP3 SWAP1 MSTORE PUSH1 0x44 DUP2 ADD DUP4 SWAP1 MSTORE PUSH1 0x64 ADD PUSH2 0x143D JUMP JUMPDEST PUSH1 0x1 PUSH1 0x1 PUSH1 0xA0 SHL SUB DUP5 AND PUSH0 SWAP1 DUP2 MSTORE PUSH1 0x20 DUP2 SWAP1 MSTORE PUSH1 0x40 SWAP1 KECCAK256 SWAP1 DUP3 SWAP1 SUB SWAP1 SSTORE JUMPDEST PUSH1 0x1 PUSH1 0x1 PUSH1 0xA0 SHL SUB DUP3 AND PUSH2 0x1532 JUMPI PUSH1 0x2 DUP1 SLOAD DUP3 SWAP1 SUB SWAP1 SSTORE PUSH2 0x1550 JUMP JUMPDEST PUSH1 0x1 PUSH1 0x1 PUSH1 0xA0 SHL SUB DUP3 AND PUSH0 SWAP1 DUP2 MSTORE PUSH1 0x20 DUP2 SWAP1 MSTORE PUSH1 0x40 SWAP1 KECCAK256 DUP1 SLOAD DUP3 ADD SWAP1 SSTORE JUMPDEST DUP2 PUSH1 0x1 PUSH1 0x1 PUSH1 0xA0 SHL SUB AND DUP4 PUSH1 0x1 PUSH1 0x1 PUSH1 0xA0 SHL SUB AND PUSH32 0xDDF252AD1BE2C89B69C2B068FC378DAA952BA7F163C4A11628F55A4DF523B3EF DUP4 PUSH1 0x40 MLOAD PUSH2 0x1595 SWAP2 DUP2 MSTORE PUSH1 0x20 ADD SWAP1 JUMP JUMPDEST PUSH1 0x40 MLOAD DUP1 SWAP2 SUB SWAP1 LOG3 POP POP POP JUMP JUMPDEST PUSH2 0x15AF DUP4 DUP4 DUP4 PUSH1 0x1 PUSH2 0x1718 JUMP JUMPDEST POP POP POP JUMP JUMPDEST PUSH1 0x1 PUSH1 0x1 PUSH1 0xA0 SHL SUB DUP4 DUP2 AND PUSH0 SWAP1 DUP2 MSTORE PUSH1 0x1 PUSH1 0x20 SWAP1 DUP2 MSTORE PUSH1 0x40 DUP1 DUP4 KECCAK256 SWAP4 DUP7 AND DUP4 MSTORE SWAP3 SWAP1 MSTORE KECCAK256 SLOAD PUSH0 NOT DUP2 LT ISZERO PUSH2 0x11E4 JUMPI DUP2 DUP2 LT ISZERO PUSH2 0x161C JUMPI PUSH1 0x40 MLOAD PUSH4 0x7DC7A0D9 PUSH1 0xE1 SHL DUP2 MSTORE PUSH1 0x1 PUSH1 0x1 PUSH1 0xA0 SHL SUB DUP5 AND PUSH1 0x4 DUP3 ADD MSTORE PUSH1 0x24 DUP2 ADD DUP3 SWAP1 MSTORE PUSH1 0x44 DUP2 ADD DUP4 SWAP1 MSTORE PUSH1 0x64 ADD PUSH2 0x143D JUMP JUMPDEST PUSH2 0x11E4 DUP5 DUP5 DUP5 DUP5 SUB PUSH0 PUSH2 0x1718 JUMP JUMPDEST PUSH1 0x1 PUSH1 0x1 PUSH1 0xA0 SHL SUB DUP4 AND PUSH2 0x1653 JUMPI PUSH1 0x40 MLOAD PUSH4 0x4B637E8F PUSH1 0xE1 SHL DUP2 MSTORE PUSH0 PUSH1 0x4 DUP3 ADD MSTORE PUSH1 0x24 ADD PUSH2 0x143D JUMP JUMPDEST PUSH1 0x1 PUSH1 0x1 PUSH1 0xA0 SHL SUB DUP3 AND PUSH2 0x167C JUMPI PUSH1 0x40 MLOAD PUSH4 0xEC442F05 PUSH1 0xE0 SHL DUP2 MSTORE PUSH0 PUSH1 0x4 DUP3 ADD MSTORE PUSH1 0x24 ADD PUSH2 0x143D JUMP JUMPDEST PUSH2 0x15AF DUP4 DUP4 DUP4 PUSH2 0x17EA JUMP JUMPDEST PUSH1 0x5 SLOAD PUSH1 0x1 PUSH1 0x1 PUSH1 0xA0 SHL SUB AND CALLER EQ PUSH2 0x1044 JUMPI PUSH1 0x40 MLOAD PUSH4 0x118CDAA7 PUSH1 0xE0 SHL DUP2 MSTORE CALLER PUSH1 0x4 DUP3 ADD MSTORE PUSH1 0x24 ADD PUSH2 0x143D JUMP JUMPDEST PUSH1 0x60 PUSH0 PUSH2 0x16C0 DUP4 PUSH2 0x21CC JUMP JUMPDEST SWAP4 SWAP3 POP POP POP JUMP JUMPDEST PUSH1 0x5 DUP1 SLOAD PUSH1 0x1 PUSH1 0x1 PUSH1 0xA0 SHL SUB DUP4 DUP2 AND PUSH1 0x1 PUSH1 0x1 PUSH1 0xA0 SHL SUB NOT DUP4 AND DUP2 OR SWAP1 SWAP4 SSTORE PUSH1 0x40 MLOAD SWAP2 AND SWAP2 SWAP1 DUP3 SWAP1 PUSH32 0x8BE0079C531659141344CD1FD0A4F28419497F9722A3DAAFE3B4186F6B6457E0 SWAP1 PUSH0 SWAP1 LOG3 POP POP JUMP JUMPDEST PUSH1 0x1 PUSH1 0x1 PUSH1 0xA0 SHL SUB DUP5 AND PUSH2 0x1741 JUMPI PUSH1 0x40 MLOAD PUSH4 0xE602DF05 PUSH1 0xE0 SHL DUP2 MSTORE PUSH0 PUSH1 0x4 DUP3 ADD MSTORE PUSH1 0x24 ADD PUSH2 0x143D JUMP JUMPDEST PUSH1 0x1 PUSH1 0x1 PUSH1 0xA0 SHL SUB DUP4 AND PUSH2 0x176A JUMPI PUSH1 0x40 MLOAD PUSH4 0x4A1406B1 PUSH1 0xE1 SHL DUP2 MSTORE PUSH0 PUSH1 0x4 DUP3 ADD MSTORE PUSH1 0x24 ADD PUSH2 0x143D JUMP JUMPDEST PUSH1 0x1 PUSH1 0x1 PUSH1 0xA0 SHL SUB DUP1 DUP6 AND PUSH0 SWAP1 DUP2 MSTORE PUSH1 0x1 PUSH1 0x20 SWAP1 DUP2 MSTORE PUSH1 0x40 DUP1 DUP4 KECCAK256 SWAP4 DUP8 AND DUP4 MSTORE SWAP3 SWAP1 MSTORE KECCAK256 DUP3 SWAP1 SSTORE DUP1 ISZERO PUSH2 0x11E4 JUMPI DUP3 PUSH1 0x1 PUSH1 0x1 PUSH1 0xA0 SHL SUB AND DUP5 PUSH1 0x1 PUSH1 0x1 PUSH1 0xA0 SHL SUB AND PUSH32 0x8C5BE1E5EBEC7D5BD14F71427D1E84F3DD0314C0F7B2291E5B200AC8C7C3B925 DUP5 PUSH1 0x40 MLOAD PUSH2 0x17DC SWAP2 DUP2 MSTORE PUSH1 0x20 ADD SWAP1 JUMP JUMPDEST PUSH1 0x40 MLOAD DUP1 SWAP2 SUB SWAP1 LOG3 POP POP POP POP JUMP JUMPDEST PUSH8 0x1BC16D674EC80000 DUP2 EQ DUP1 ISZERO PUSH2 0x1826 JUMPI POP PUSH1 0x1 PUSH1 0x1 PUSH1 0xA0 SHL SUB DUP1 DUP4 AND PUSH0 SWAP1 DUP2 MSTORE PUSH1 0x7 PUSH1 0x20 SWAP1 DUP2 MSTORE PUSH1 0x40 DUP1 DUP4 KECCAK256 SWAP4 DUP8 AND DUP4 MSTORE SWAP3 SWAP1 MSTORE KECCAK256 SLOAD PUSH1 0xFF AND ISZERO JUMPDEST DUP1 ISZERO PUSH2 0x1837 JUMPI POP PUSH2 0x1837 DUP4 DUP4 PUSH2 0x11EA JUMP JUMPDEST ISZERO PUSH2 0x186C JUMPI PUSH1 0x1 PUSH1 0x1 PUSH1 0xA0 SHL SUB DUP1 DUP5 AND PUSH0 SWAP1 DUP2 MSTORE PUSH1 0x7 PUSH1 0x20 SWAP1 DUP2 MSTORE PUSH1 0x40 DUP1 DUP4 KECCAK256 SWAP4 DUP7 AND DUP4 MSTORE SWAP3 SWAP1 MSTORE KECCAK256 DUP1 SLOAD PUSH1 0xFF NOT AND PUSH1 0x1 OR SWAP1 SSTORE JUMPDEST PUSH8 0xDE0B6B3A7640000 DUP2 EQ DUP1 ISZERO PUSH2 0x18A7 JUMPI POP PUSH1 0x1 PUSH1 0x1 PUSH1 0xA0 SHL SUB DUP1 DUP4 AND PUSH0 SWAP1 DUP2 MSTORE PUSH1 0x7 PUSH1 0x20 SWAP1 DUP2 MSTORE PUSH1 0x40 DUP1 DUP4 KECCAK256 SWAP4 DUP8 AND DUP4 MSTORE SWAP3 SWAP1 MSTORE KECCAK256 SLOAD PUSH1 0xFF AND JUMPDEST DUP1 ISZERO PUSH2 0x18CA JUMPI POP PUSH1 0x1 PUSH1 0x1 PUSH1 0xA0 SHL SUB DUP4 DUP2 AND PUSH0 SWAP1 DUP2 MSTORE PUSH1 0xA PUSH1 0x20 MSTORE PUSH1 0x40 SWAP1 KECCAK256 SLOAD AND ISZERO JUMPDEST ISZERO PUSH2 0x1952 JUMPI PUSH1 0x1 PUSH1 0x1 PUSH1 0xA0 SHL SUB DUP4 DUP2 AND PUSH0 SWAP1 DUP2 MSTORE PUSH1 0xA PUSH1 0x20 SWAP1 DUP2 MSTORE PUSH1 0x40 DUP1 DUP4 KECCAK256 DUP1 SLOAD PUSH1 0x1 PUSH1 0x1 PUSH1 0xA0 SHL SUB NOT AND SWAP5 DUP8 AND SWAP5 DUP6 OR SWAP1 SSTORE SWAP3 DUP3 MSTORE PUSH1 0x8 SWAP1 MSTORE KECCAK256 PUSH2 0x1910 SWAP1 DUP5 PUSH2 0x2225 JUMP JUMPDEST POP DUP2 PUSH1 0x1 PUSH1 0x1 PUSH1 0xA0 SHL SUB AND DUP4 PUSH1 0x1 PUSH1 0x1 PUSH1 0xA0 SHL SUB AND PUSH32 0x8D63F2E3D39EB6CF9C80D49BC203133F6F215CE2A1A3D27A68F0167F6C045D48 PUSH1 0x40 MLOAD PUSH1 0x40 MLOAD DUP1 SWAP2 SUB SWAP1 LOG3 JUMPDEST PUSH1 0x1 PUSH1 0x1 PUSH1 0xA0 SHL SUB DUP1 DUP5 AND PUSH0 SWAP1 DUP2 MSTORE PUSH1 0xA PUSH1 0x20 SWAP1 DUP2 MSTORE PUSH1 0x40 SWAP2 DUP3 SWAP1 KECCAK256 DUP3 MLOAD PUSH2 0x120 DUP2 ADD DUP5 MSTORE DUP2 SLOAD SWAP1 SWAP5 AND DUP5 MSTORE PUSH1 0x1 DUP2 ADD SLOAD SWAP2 DUP5 ADD SWAP2 SWAP1 SWAP2 MSTORE PUSH1 0x2 DUP2 ADD SLOAD SWAP2 DUP4 ADD SWAP2 SWAP1 SWAP2 MSTORE PUSH1 0x3 DUP2 ADD SLOAD PUSH1 0x60 DUP4 ADD MSTORE PUSH1 0x4 DUP2 ADD SLOAD PUSH1 0x80 DUP4 ADD MSTORE PUSH1 0x5 DUP2 ADD SLOAD PUSH1 0xA0 DUP4 ADD MSTORE PUSH1 0x6 DUP2 ADD SLOAD PUSH1 0xC0 DUP4 ADD MSTORE PUSH1 0x7 ADD SLOAD PUSH1 0xFF DUP1 DUP3 AND ISZERO ISZERO PUSH1 0xE0 DUP5 ADD MSTORE PUSH2 0x100 SWAP2 DUP3 SWAP1 DIV AND ISZERO ISZERO SWAP1 DUP3 ADD MSTORE CALLER ORIGIN EQ DUP1 ISZERO PUSH2 0x19ED JUMPI POP DUP1 PUSH2 0x100 ADD MLOAD JUMPDEST DUP1 ISZERO PUSH2 0x19FC JUMPI POP PUSH0 DUP2 PUSH1 0x40 ADD MLOAD GT JUMPDEST DUP1 ISZERO PUSH2 0x1A10 JUMPI POP PUSH1 0x1 PUSH1 0x1 PUSH1 0xA0 SHL SUB DUP4 AND ADDRESS EQ JUMPDEST ISZERO PUSH2 0x1C45 JUMPI PUSH8 0xDE0B6B3A7640000 DUP3 SUB PUSH2 0x1B2C JUMPI PUSH1 0xE SLOAD PUSH1 0x1 PUSH1 0xA0 SHL SWAP1 DIV PUSH1 0xFF AND ISZERO PUSH2 0x1A4F JUMPI PUSH1 0x40 MLOAD PUSH4 0x2F352531 PUSH1 0xE0 SHL DUP2 MSTORE PUSH1 0x4 ADD PUSH1 0x40 MLOAD DUP1 SWAP2 SUB SWAP1 REVERT JUMPDEST DUP1 PUSH1 0xE0 ADD MLOAD PUSH2 0x1AAA JUMPI PUSH1 0x1 PUSH1 0x1 PUSH1 0xA0 SHL SUB DUP5 AND PUSH0 SWAP1 DUP2 MSTORE PUSH1 0xA PUSH1 0x20 MSTORE PUSH1 0x40 SWAP1 KECCAK256 PUSH1 0x7 ADD DUP1 SLOAD PUSH1 0xFF NOT AND PUSH1 0x1 OR SWAP1 SSTORE PUSH2 0x1A8A TIMESTAMP PUSH3 0x15180 PUSH2 0x3640 JUMP JUMPDEST PUSH1 0x1 PUSH1 0x1 PUSH1 0xA0 SHL SUB DUP6 AND PUSH0 SWAP1 DUP2 MSTORE PUSH1 0xA PUSH1 0x20 MSTORE PUSH1 0x40 SWAP1 KECCAK256 PUSH1 0x3 ADD SSTORE PUSH2 0x1B2C JUMP JUMPDEST DUP1 PUSH1 0xE0 ADD MLOAD DUP1 ISZERO PUSH2 0x1ABF JUMPI POP DUP1 PUSH1 0x60 ADD MLOAD TIMESTAMP LT ISZERO JUMPDEST ISZERO PUSH2 0x1B13 JUMPI PUSH2 0x1ACD DUP5 PUSH2 0x2239 JUMP JUMPDEST PUSH2 0x1ADA TIMESTAMP PUSH3 0x15180 PUSH2 0x3640 JUMP JUMPDEST PUSH1 0x1 PUSH1 0x1 PUSH1 0xA0 SHL SUB DUP6 AND PUSH0 SWAP1 DUP2 MSTORE PUSH1 0xA PUSH1 0x20 MSTORE PUSH1 0x40 SWAP1 KECCAK256 PUSH1 0x3 ADD SSTORE PUSH2 0x1B00 DUP5 DUP5 DUP5 PUSH2 0x147C JUMP JUMPDEST PUSH2 0x11E4 ADDRESS DUP6 PUSH8 0xDE0B6B3A7640000 PUSH2 0x147C JUMP JUMPDEST PUSH1 0x40 MLOAD PUSH4 0x2F352531 PUSH1 0xE0 SHL DUP2 MSTORE PUSH1 0x4 ADD PUSH1 0x40 MLOAD DUP1 SWAP2 SUB SWAP1 REVERT JUMPDEST PUSH8 0x8AC7230489E80000 DUP3 SUB PUSH2 0x1C3A JUMPI PUSH1 0x40 DUP2 ADD MLOAD ISZERO PUSH2 0x1BC0 JUMPI PUSH1 0x6 SLOAD PUSH1 0x40 DUP3 DUP2 ADD MLOAD SWAP1 MLOAD PUSH4 0xA9059CBB PUSH1 0xE0 SHL DUP2 MSTORE PUSH1 0x1 PUSH1 0x1 PUSH1 0xA0 SHL SUB DUP8 DUP2 AND PUSH1 0x4 DUP4 ADD MSTORE PUSH1 0x24 DUP3 ADD SWAP3 SWAP1 SWAP3 MSTORE SWAP2 AND SWAP1 PUSH4 0xA9059CBB SWAP1 PUSH1 0x44 ADD PUSH1 0x20 PUSH1 0x40 MLOAD DUP1 DUP4 SUB DUP2 PUSH0 DUP8 GAS CALL ISZERO DUP1 ISZERO PUSH2 0x1B9A JUMPI RETURNDATASIZE PUSH0 PUSH0 RETURNDATACOPY RETURNDATASIZE PUSH0 REVERT JUMPDEST POP POP POP POP PUSH1 0x40 MLOAD RETURNDATASIZE PUSH1 0x1F NOT PUSH1 0x1F DUP3 ADD AND DUP3 ADD DUP1 PUSH1 0x40 MSTORE POP DUP2 ADD SWAP1 PUSH2 0x1BBE SWAP2 SWAP1 PUSH2 0x3941 JUMP JUMPDEST POP JUMPDEST PUSH1 0x1 PUSH1 0x1 PUSH1 0xA0 SHL SUB DUP1 DUP6 AND PUSH0 SWAP1 DUP2 MSTORE PUSH1 0xA PUSH1 0x20 MSTORE PUSH1 0x40 DUP1 DUP3 KECCAK256 PUSH1 0x7 DUP2 ADD DUP1 SLOAD PUSH1 0x2 DUP4 ADD DUP6 SWAP1 SSTORE PUSH1 0x1 SWAP1 SWAP3 ADD DUP5 SWAP1 SSTORE PUSH2 0xFFFF NOT SWAP1 SWAP2 AND SWAP1 SSTORE DUP4 MLOAD SWAP1 SWAP3 AND DUP2 MSTORE KECCAK256 PUSH1 0x6 ADD SLOAD ISZERO PUSH2 0x1C3A JUMPI DUP1 MLOAD PUSH1 0x1 PUSH1 0x1 PUSH1 0xA0 SHL SUB AND PUSH0 SWAP1 DUP2 MSTORE PUSH1 0xA PUSH1 0x20 MSTORE PUSH1 0x40 DUP2 KECCAK256 PUSH1 0x6 ADD DUP1 SLOAD PUSH1 0x1 SWAP3 SWAP1 PUSH2 0x1C34 SWAP1 DUP5 SWAP1 PUSH2 0x3917 JUMP JUMPDEST SWAP1 SWAP2 SSTORE POP POP JUMPDEST PUSH2 0x11E4 DUP5 DUP5 DUP5 PUSH2 0x147C JUMP JUMPDEST PUSH1 0x1 PUSH1 0x1 PUSH1 0xA0 SHL SUB DUP5 AND ADDRESS EQ DUP1 PUSH2 0x1C64 JUMPI POP PUSH1 0x1 PUSH1 0x1 PUSH1 0xA0 SHL SUB DUP4 AND ADDRESS EQ JUMPDEST DUP1 PUSH2 0x1C7C JUMPI POP PUSH1 0xE SLOAD PUSH1 0x1 PUSH1 0x1 PUSH1 0xA0 SHL SUB DUP6 DUP2 AND SWAP2 AND EQ JUMPDEST DUP1 PUSH2 0x1C94 JUMPI POP PUSH1 0xE SLOAD PUSH1 0x1 PUSH1 0x1 PUSH1 0xA0 SHL SUB DUP5 DUP2 AND SWAP2 AND EQ JUMPDEST ISZERO PUSH2 0x1CA4 JUMPI PUSH2 0x11E4 DUP5 DUP5 DUP5 PUSH2 0x147C JUMP JUMPDEST PUSH1 0x6 SLOAD PUSH1 0x1 PUSH1 0x1 PUSH1 0xA0 SHL SUB SWAP1 DUP2 AND SWAP1 DUP6 AND SUB PUSH2 0x1F07 JUMPI TIMESTAMP PUSH1 0x13 SLOAD LT PUSH2 0x1CF7 JUMPI PUSH1 0x40 MLOAD PUSH3 0x461BCD PUSH1 0xE5 SHL DUP2 MSTORE PUSH1 0x20 PUSH1 0x4 DUP3 ADD MSTORE PUSH1 0x9 PUSH1 0x24 DUP3 ADD MSTORE PUSH9 0x737461727454696D65 PUSH1 0xB8 SHL PUSH1 0x44 DUP3 ADD MSTORE PUSH1 0x64 ADD PUSH2 0x143D JUMP JUMPDEST ORIGIN PUSH0 SWAP1 DUP2 MSTORE PUSH1 0x9 PUSH1 0x20 MSTORE PUSH1 0x40 DUP2 KECCAK256 TIMESTAMP SWAP1 SSTORE PUSH2 0x1D10 PUSH2 0x27C9 JUMP JUMPDEST GT ISZERO PUSH2 0x1DE6 JUMPI PUSH0 PUSH0 PUSH2 0x1D20 PUSH2 0xBFE JUMP JUMPDEST SWAP1 POP PUSH12 0x33B2E3C9FD0803CE8000000 DUP2 LT PUSH2 0x1D53 JUMPI PUSH1 0xA PUSH2 0x1D42 DUP6 PUSH1 0x9 PUSH2 0x397E JUMP JUMPDEST PUSH2 0x1D4C SWAP2 SWAP1 PUSH2 0x3653 JUMP JUMPDEST SWAP2 POP PUSH2 0x1DB5 JUMP JUMPDEST PUSH12 0x19D971E4FE8401E74000000 DUP2 LT PUSH2 0x1D73 JUMPI PUSH1 0xA PUSH2 0x1D42 DUP6 PUSH1 0x6 PUSH2 0x397E JUMP JUMPDEST PUSH11 0x52B7D2DCC80CD2E4000000 DUP2 LT PUSH2 0x1D92 JUMPI PUSH1 0xA PUSH2 0x1D42 DUP6 PUSH1 0x4 PUSH2 0x397E JUMP JUMPDEST PUSH11 0x422CA8B0A00A425000000 DUP2 LT PUSH2 0x1DB1 JUMPI PUSH1 0xA PUSH2 0x1D42 DUP6 PUSH1 0x2 PUSH2 0x397E JUMP JUMPDEST DUP4 SWAP2 POP JUMPDEST PUSH2 0x1DC2 DUP7 PUSH2 0xDEAD DUP5 PUSH2 0x147C JUMP JUMPDEST DUP2 DUP5 GT ISZERO PUSH2 0x1DDE JUMPI PUSH2 0x1DDE DUP7 DUP7 PUSH2 0x1DD9 DUP6 DUP9 PUSH2 0x3917 JUMP JUMPDEST PUSH2 0x147C JUMP JUMPDEST POP POP POP POP POP POP JUMP JUMPDEST PUSH1 0x64 PUSH2 0x1DF0 PUSH2 0x1062 JUMP JUMPDEST PUSH2 0x1DFB SWAP1 PUSH1 0x5 PUSH2 0x397E JUMP JUMPDEST PUSH2 0x1E05 SWAP2 SWAP1 PUSH2 0x3653 JUMP JUMPDEST DUP3 LT PUSH2 0x1E3F JUMPI PUSH1 0x40 MLOAD PUSH3 0x461BCD PUSH1 0xE5 SHL DUP2 MSTORE PUSH1 0x20 PUSH1 0x4 DUP3 ADD MSTORE PUSH1 0x9 PUSH1 0x24 DUP3 ADD MSTORE PUSH9 0x36B0BC103A37B5B2B7 PUSH1 0xB9 SHL PUSH1 0x44 DUP3 ADD MSTORE PUSH1 0x64 ADD PUSH2 0x143D JUMP JUMPDEST PUSH0 PUSH1 0x64 PUSH2 0x1E4D DUP5 PUSH1 0x3 PUSH2 0x397E JUMP JUMPDEST PUSH2 0x1E57 SWAP2 SWAP1 PUSH2 0x3653 JUMP JUMPDEST SWAP1 POP PUSH0 PUSH1 0xA PUSH2 0x1E67 DUP4 PUSH1 0x7 PUSH2 0x397E JUMP JUMPDEST PUSH2 0x1E71 SWAP2 SWAP1 PUSH2 0x3653 JUMP JUMPDEST SWAP1 POP DUP1 PUSH1 0x10 PUSH0 DUP3 DUP3 SLOAD PUSH2 0x1E84 SWAP2 SWAP1 PUSH2 0x3640 JUMP JUMPDEST SWAP1 SWAP2 SSTORE POP PUSH0 SWAP1 POP PUSH1 0xA PUSH2 0x1E98 DUP5 PUSH1 0x1 PUSH2 0x397E JUMP JUMPDEST PUSH2 0x1EA2 SWAP2 SWAP1 PUSH2 0x3653 JUMP JUMPDEST SWAP1 POP PUSH2 0x1EB1 DUP8 PUSH2 0xDEAD DUP4 PUSH2 0x147C JUMP JUMPDEST PUSH0 DUP2 PUSH2 0x1EBD DUP5 DUP7 PUSH2 0x3917 JUMP JUMPDEST PUSH2 0x1EC7 SWAP2 SWAP1 PUSH2 0x3917 JUMP JUMPDEST SWAP1 POP DUP1 PUSH1 0x11 PUSH0 DUP3 DUP3 SLOAD PUSH2 0x1EDA SWAP2 SWAP1 PUSH2 0x3640 JUMP JUMPDEST SWAP1 SWAP2 SSTORE POP PUSH2 0x1EEB SWAP1 POP DUP9 ADDRESS DUP6 PUSH2 0x147C JUMP JUMPDEST PUSH2 0x1EF6 DUP9 ADDRESS DUP4 PUSH2 0x147C JUMP JUMPDEST PUSH2 0x1F00 DUP5 DUP8 PUSH2 0x3917 JUMP JUMPDEST SWAP6 POP POP POP POP POP JUMPDEST PUSH1 0x6 SLOAD PUSH1 0x1 PUSH1 0x1 PUSH1 0xA0 SHL SUB SWAP1 DUP2 AND SWAP1 DUP5 AND SUB PUSH2 0x21C4 JUMPI PUSH1 0x16 SLOAD PUSH1 0x1 PUSH1 0xA8 SHL SWAP1 DIV PUSH1 0xFF AND ISZERO PUSH2 0x2003 JUMPI PUSH1 0x6 SLOAD PUSH1 0x40 DUP1 MLOAD PUSH4 0x240BC6B PUSH1 0xE2 SHL DUP2 MSTORE SWAP1 MLOAD PUSH1 0x1 PUSH1 0x1 PUSH1 0xA0 SHL SUB SWAP1 SWAP3 AND SWAP2 PUSH0 SWAP2 DUP3 SWAP2 DUP5 SWAP2 PUSH4 0x902F1AC SWAP2 PUSH1 0x4 DUP1 DUP4 ADD SWAP3 PUSH1 0x60 SWAP3 SWAP2 SWAP1 DUP3 SWAP1 SUB ADD DUP2 DUP7 GAS STATICCALL ISZERO DUP1 ISZERO PUSH2 0x1F7C JUMPI RETURNDATASIZE PUSH0 PUSH0 RETURNDATACOPY RETURNDATASIZE PUSH0 REVERT JUMPDEST POP POP POP POP PUSH1 0x40 MLOAD RETURNDATASIZE PUSH1 0x1F NOT PUSH1 0x1F DUP3 ADD AND DUP3 ADD DUP1 PUSH1 0x40 MSTORE POP DUP2 ADD SWAP1 PUSH2 0x1FA0 SWAP2 SWAP1 PUSH2 0x38B0 JUMP JUMPDEST POP SWAP2 POP SWAP2 POP DUP2 PUSH1 0x1 PUSH1 0x1 PUSH1 0x70 SHL SUB AND PUSH0 EQ DUP1 ISZERO PUSH2 0x1FC4 JUMPI POP PUSH1 0x1 PUSH1 0x1 PUSH1 0x70 SHL SUB DUP2 AND ISZERO JUMPDEST DUP1 ISZERO PUSH2 0x1FD9 JUMPI POP PUSH1 0x16 SLOAD PUSH1 0x1 PUSH1 0xA8 SHL SWAP1 DIV PUSH1 0xFF AND JUMPDEST ISZERO PUSH2 0x1FFF JUMPI PUSH1 0x16 DUP1 SLOAD PUSH1 0xFF PUSH1 0xA8 SHL NOT AND SWAP1 SSTORE PUSH2 0x1FF6 DUP8 DUP8 DUP8 PUSH2 0x147C JUMP JUMPDEST POP POP POP POP POP POP POP JUMP JUMPDEST POP POP POP JUMPDEST PUSH2 0x200E PUSH1 0xA TIMESTAMP PUSH2 0x3917 JUMP JUMPDEST ORIGIN PUSH0 SWAP1 DUP2 MSTORE PUSH1 0x9 PUSH1 0x20 MSTORE PUSH1 0x40 SWAP1 KECCAK256 SLOAD LT PUSH2 0x204F JUMPI PUSH1 0x40 MLOAD PUSH3 0x461BCD PUSH1 0xE5 SHL DUP2 MSTORE PUSH1 0x20 PUSH1 0x4 DUP3 ADD MSTORE PUSH1 0x2 PUSH1 0x24 DUP3 ADD MSTORE PUSH2 0x18D9 PUSH1 0xF2 SHL PUSH1 0x44 DUP3 ADD MSTORE PUSH1 0x64 ADD PUSH2 0x143D JUMP JUMPDEST PUSH0 PUSH2 0x2059 DUP4 PUSH2 0x295E JUMP JUMPDEST GT PUSH2 0x21C4 JUMPI TIMESTAMP PUSH1 0x13 SLOAD LT PUSH2 0x209B JUMPI PUSH1 0x40 MLOAD PUSH3 0x461BCD PUSH1 0xE5 SHL DUP2 MSTORE PUSH1 0x20 PUSH1 0x4 DUP3 ADD MSTORE PUSH1 0x9 PUSH1 0x24 DUP3 ADD MSTORE PUSH9 0x737461727454696D65 PUSH1 0xB8 SHL PUSH1 0x44 DUP3 ADD MSTORE PUSH1 0x64 ADD PUSH2 0x143D JUMP JUMPDEST PUSH1 0x64 PUSH2 0x20A5 PUSH2 0x1062 JUMP JUMPDEST PUSH2 0x20B0 SWAP1 PUSH1 0xA PUSH2 0x397E JUMP JUMPDEST PUSH2 0x20BA SWAP2 SWAP1 PUSH2 0x3653 JUMP JUMPDEST DUP3 LT PUSH2 0x20F4 JUMPI PUSH1 0x40 MLOAD PUSH3 0x461BCD PUSH1 0xE5 SHL DUP2 MSTORE PUSH1 0x20 PUSH1 0x4 DUP3 ADD MSTORE PUSH1 0x9 PUSH1 0x24 DUP3 ADD MSTORE PUSH9 0x36B0BC103A37B5B2B7 PUSH1 0xB9 SHL PUSH1 0x44 DUP3 ADD MSTORE PUSH1 0x64 ADD PUSH2 0x143D JUMP JUMPDEST PUSH0 PUSH1 0x64 PUSH2 0x2102 DUP5 PUSH1 0x4 PUSH2 0x397E JUMP JUMPDEST PUSH2 0x210C SWAP2 SWAP1 PUSH2 0x3653 JUMP JUMPDEST SWAP1 POP PUSH0 PUSH1 0xA PUSH2 0x211C DUP4 PUSH1 0x7 PUSH2 0x397E JUMP JUMPDEST PUSH2 0x2126 SWAP2 SWAP1 PUSH2 0x3653 JUMP JUMPDEST SWAP1 POP DUP1 PUSH1 0x10 PUSH0 DUP3 DUP3 SLOAD PUSH2 0x2139 SWAP2 SWAP1 PUSH2 0x3640 JUMP JUMPDEST SWAP1 SWAP2 SSTORE POP PUSH0 SWAP1 POP PUSH1 0xA PUSH2 0x214D DUP5 PUSH1 0x1 PUSH2 0x397E JUMP JUMPDEST PUSH2 0x2157 SWAP2 SWAP1 PUSH2 0x3653 JUMP JUMPDEST SWAP1 POP PUSH2 0x2166 DUP8 PUSH2 0xDEAD DUP4 PUSH2 0x147C JUMP JUMPDEST PUSH0 DUP2 PUSH2 0x2172 DUP5 DUP7 PUSH2 0x3917 JUMP JUMPDEST PUSH2 0x217C SWAP2 SWAP1 PUSH2 0x3917 JUMP JUMPDEST SWAP1 POP DUP1 PUSH1 0x11 PUSH0 DUP3 DUP3 SLOAD PUSH2 0x218F SWAP2 SWAP1 PUSH2 0x3640 JUMP JUMPDEST SWAP1 SWAP2 SSTORE POP PUSH2 0x21A0 SWAP1 POP DUP9 ADDRESS DUP6 PUSH2 0x147C JUMP JUMPDEST PUSH2 0x21AB DUP9 ADDRESS DUP4 PUSH2 0x147C JUMP JUMPDEST PUSH2 0x21B5 DUP5 DUP8 PUSH2 0x3917 JUMP JUMPDEST SWAP6 POP PUSH2 0x21BF PUSH2 0x2B73 JUMP JUMPDEST POP POP POP POP JUMPDEST PUSH2 0x1C3A PUSH2 0xE04 JUMP JUMPDEST PUSH1 0x60 DUP2 PUSH0 ADD DUP1 SLOAD DUP1 PUSH1 0x20 MUL PUSH1 0x20 ADD PUSH1 0x40 MLOAD SWAP1 DUP2 ADD PUSH1 0x40 MSTORE DUP1 SWAP3 SWAP2 SWAP1 DUP2 DUP2 MSTORE PUSH1 0x20 ADD DUP3 DUP1 SLOAD DUP1 ISZERO PUSH2 0x2219 JUMPI PUSH1 0x20 MUL DUP3 ADD SWAP2 SWAP1 PUSH0 MSTORE PUSH1 0x20 PUSH0 KECCAK256 SWAP1 JUMPDEST DUP2 SLOAD DUP2 MSTORE PUSH1 0x20 ADD SWAP1 PUSH1 0x1 ADD SWAP1 DUP1 DUP4 GT PUSH2 0x2205 JUMPI JUMPDEST POP POP POP POP POP SWAP1 POP SWAP2 SWAP1 POP JUMP JUMPDEST PUSH0 PUSH2 0x16C0 DUP4 PUSH1 0x1 PUSH1 0x1 PUSH1 0xA0 SHL SUB DUP5 AND PUSH2 0x2D0D JUMP JUMPDEST PUSH1 0x1 PUSH1 0x1 PUSH1 0xA0 SHL SUB DUP1 DUP3 AND PUSH0 SWAP1 DUP2 MSTORE PUSH1 0xA PUSH1 0x20 SWAP1 DUP2 MSTORE PUSH1 0x40 SWAP2 DUP3 SWAP1 KECCAK256 DUP3 MLOAD PUSH2 0x120 DUP2 ADD DUP5 MSTORE DUP2 SLOAD SWAP1 SWAP5 AND DUP5 MSTORE PUSH1 0x1 DUP2 ADD SLOAD SWAP2 DUP5 ADD SWAP2 SWAP1 SWAP2 MSTORE PUSH1 0x2 DUP2 ADD SLOAD SWAP2 DUP4 ADD SWAP2 SWAP1 SWAP2 MSTORE PUSH1 0x3 DUP2 ADD SLOAD PUSH1 0x60 DUP4 ADD MSTORE PUSH1 0x4 DUP2 ADD SLOAD PUSH1 0x80 DUP4 ADD MSTORE PUSH1 0x5 DUP2 ADD SLOAD PUSH1 0xA0 DUP4 ADD MSTORE PUSH1 0x6 DUP2 ADD SLOAD PUSH1 0xC0 DUP4 ADD MSTORE PUSH1 0x7 ADD SLOAD PUSH1 0xFF DUP1 DUP3 AND ISZERO ISZERO PUSH1 0xE0 DUP5 ADD MSTORE PUSH2 0x100 SWAP2 DUP3 SWAP1 DIV AND ISZERO ISZERO SWAP1 DUP3 ADD DUP2 SWAP1 MSTORE PUSH2 0x2307 JUMPI PUSH1 0x40 MLOAD PUSH3 0x461BCD PUSH1 0xE5 SHL DUP2 MSTORE PUSH1 0x20 PUSH1 0x4 DUP3 ADD MSTORE PUSH1 0x13 PUSH1 0x24 DUP3 ADD MSTORE PUSH19 0x155CD95C881A185CC81B9BDD08189BDD59DA1D PUSH1 0x6A SHL PUSH1 0x44 DUP3 ADD MSTORE PUSH1 0x64 ADD PUSH2 0x143D JUMP JUMPDEST DUP1 PUSH1 0xE0 ADD MLOAD PUSH2 0x2358 JUMPI PUSH1 0x40 MLOAD PUSH3 0x461BCD PUSH1 0xE5 SHL DUP2 MSTORE PUSH1 0x20 PUSH1 0x4 DUP3 ADD MSTORE PUSH1 0x1B PUSH1 0x24 DUP3 ADD MSTORE PUSH32 0x53746174696320726577617264206E6F7420617661696C61626C650000000000 PUSH1 0x44 DUP3 ADD MSTORE PUSH1 0x64 ADD PUSH2 0x143D JUMP JUMPDEST DUP1 PUSH1 0x60 ADD MLOAD TIMESTAMP LT ISZERO PUSH2 0x23A1 JUMPI PUSH1 0x40 MLOAD PUSH3 0x461BCD PUSH1 0xE5 SHL DUP2 MSTORE PUSH1 0x20 PUSH1 0x4 DUP3 ADD MSTORE PUSH1 0x12 PUSH1 0x24 DUP3 ADD MSTORE PUSH18 0x14995DD85C99081B9BDD081B585D1D5C9959 PUSH1 0x72 SHL PUSH1 0x44 DUP3 ADD MSTORE PUSH1 0x64 ADD PUSH2 0x143D JUMP JUMPDEST PUSH0 PUSH2 0x23AB DUP4 PUSH2 0x1326 JUMP JUMPDEST SWAP1 POP PUSH0 DUP2 GT PUSH2 0x23FC JUMPI PUSH1 0x40 MLOAD PUSH3 0x461BCD PUSH1 0xE5 SHL DUP2 MSTORE PUSH1 0x20 PUSH1 0x4 DUP3 ADD MSTORE PUSH1 0x1A PUSH1 0x24 DUP3 ADD MSTORE PUSH32 0x4E6F207374617469632072657761726420617661696C61626C65000000000000 PUSH1 0x44 DUP3 ADD MSTORE PUSH1 0x64 ADD PUSH2 0x143D JUMP JUMPDEST PUSH0 PUSH0 PUSH0 PUSH2 0x2407 PUSH2 0xF84 JUMP JUMPDEST PUSH1 0x20 DUP10 ADD MLOAD SWAP3 SWAP7 POP SWAP1 SWAP5 POP SWAP3 POP SWAP1 POP PUSH0 PUSH3 0x186A0 PUSH2 0x2425 DUP7 DUP5 PUSH2 0x397E JUMP JUMPDEST PUSH2 0x242F SWAP2 SWAP1 PUSH2 0x3653 JUMP JUMPDEST SWAP1 POP PUSH0 PUSH3 0x186A0 PUSH2 0x2440 DUP7 DUP6 PUSH2 0x397E JUMP JUMPDEST PUSH2 0x244A SWAP2 SWAP1 PUSH2 0x3653 JUMP JUMPDEST SWAP1 POP PUSH0 PUSH3 0x186A0 PUSH2 0x245B DUP7 DUP7 PUSH2 0x397E JUMP JUMPDEST PUSH2 0x2465 SWAP2 SWAP1 PUSH2 0x3653 JUMP JUMPDEST SWAP1 POP PUSH0 DUP2 DUP4 PUSH2 0x2474 DUP7 DUP13 PUSH2 0x3640 JUMP JUMPDEST PUSH2 0x247E SWAP2 SWAP1 PUSH2 0x3640 JUMP JUMPDEST PUSH2 0x2488 SWAP2 SWAP1 PUSH2 0x3640 JUMP JUMPDEST SWAP1 POP PUSH0 PUSH2 0x2494 DUP3 PUSH2 0x2D59 JUMP JUMPDEST SWAP1 POP PUSH2 0x249E PUSH2 0x360E JUMP JUMPDEST PUSH2 0x24A7 DUP3 PUSH2 0x2E95 JUMP JUMPDEST DUP1 DUP3 MSTORE DUP4 SWAP1 PUSH2 0x24B7 SWAP1 DUP14 SWAP1 PUSH2 0x397E JUMP JUMPDEST PUSH2 0x24C1 SWAP2 SWAP1 PUSH2 0x3653 JUMP JUMPDEST DUP2 PUSH1 0x1 PUSH1 0x20 MUL ADD MSTORE PUSH1 0x6 SLOAD PUSH1 0x1 PUSH1 0x1 PUSH1 0xA0 SHL SUB AND PUSH4 0xA9059CBB DUP15 DUP4 PUSH1 0x1 PUSH1 0x20 MUL ADD MLOAD PUSH1 0x40 MLOAD PUSH1 0x1 PUSH1 0x1 PUSH1 0xE0 SHL SUB NOT PUSH1 0xE0 DUP6 SWAP1 SHL AND DUP2 MSTORE PUSH1 0x1 PUSH1 0x1 PUSH1 0xA0 SHL SUB SWAP1 SWAP3 AND PUSH1 0x4 DUP4 ADD MSTORE PUSH1 0x24 DUP3 ADD MSTORE PUSH1 0x44 ADD PUSH1 0x20 PUSH1 0x40 MLOAD DUP1 DUP4 SUB DUP2 PUSH0 DUP8 GAS CALL ISZERO DUP1 ISZERO PUSH2 0x252B JUMPI RETURNDATASIZE PUSH0 PUSH0 RETURNDATACOPY RETURNDATASIZE PUSH0 REVERT JUMPDEST POP POP POP POP PUSH1 0x40 MLOAD RETURNDATASIZE PUSH1 0x1F NOT PUSH1 0x1F DUP3 ADD AND DUP3 ADD DUP1 PUSH1 0x40 MSTORE POP DUP2 ADD SWAP1 PUSH2 0x254F SWAP2 SWAP1 PUSH2 0x3941 JUMP JUMPDEST POP PUSH2 0x2561 DUP14 DUP3 PUSH1 0x1 PUSH1 0x20 MUL ADD MLOAD PUSH2 0x327C JUMP JUMPDEST PUSH1 0x40 DUP3 ADD MSTORE DUP1 MLOAD DUP4 SWAP1 PUSH2 0x2575 SWAP1 DUP8 SWAP1 PUSH2 0x397E JUMP JUMPDEST PUSH2 0x257F SWAP2 SWAP1 PUSH2 0x3653 JUMP JUMPDEST PUSH1 0x60 DUP3 ADD DUP2 SWAP1 MSTORE PUSH1 0x6 SLOAD PUSH1 0xC SLOAD PUSH1 0x40 MLOAD PUSH4 0xA9059CBB PUSH1 0xE0 SHL DUP2 MSTORE PUSH1 0x1 PUSH1 0x1 PUSH1 0xA0 SHL SUB SWAP2 DUP3 AND PUSH1 0x4 DUP3 ADD MSTORE PUSH1 0x24 DUP2 ADD SWAP4 SWAP1 SWAP4 MSTORE AND SWAP1 PUSH4 0xA9059CBB SWAP1 PUSH1 0x44 ADD PUSH1 0x20 PUSH1 0x40 MLOAD DUP1 DUP4 SUB DUP2 PUSH0 DUP8 GAS CALL ISZERO DUP1 ISZERO PUSH2 0x25D8 JUMPI RETURNDATASIZE PUSH0 PUSH0 RETURNDATACOPY RETURNDATASIZE PUSH0 REVERT JUMPDEST POP POP POP POP PUSH1 0x40 MLOAD RETURNDATASIZE PUSH1 0x1F NOT PUSH1 0x1F DUP3 ADD AND DUP3 ADD DUP1 PUSH1 0x40 MSTORE POP DUP2 ADD SWAP1 PUSH2 0x25FC SWAP2 SWAP1 PUSH2 0x3941 JUMP JUMPDEST POP PUSH1 0xC PUSH0 SWAP1 SLOAD SWAP1 PUSH2 0x100 EXP SWAP1 DIV PUSH1 0x1 PUSH1 0x1 PUSH1 0xA0 SHL SUB AND PUSH1 0x1 PUSH1 0x1 PUSH1 0xA0 SHL SUB AND PUSH4 0xC33FB877 PUSH1 0x40 MLOAD DUP2 PUSH4 0xFFFFFFFF AND PUSH1 0xE0 SHL DUP2 MSTORE PUSH1 0x4 ADD PUSH0 PUSH1 0x40 MLOAD DUP1 DUP4 SUB DUP2 PUSH0 DUP8 DUP1 EXTCODESIZE ISZERO DUP1 ISZERO PUSH2 0x2649 JUMPI PUSH0 PUSH0 REVERT JUMPDEST POP GAS CALL SWAP3 POP POP POP DUP1 ISZERO PUSH2 0x265A JUMPI POP PUSH1 0x1 JUMPDEST POP DUP1 MLOAD DUP4 SWAP1 PUSH2 0x266A SWAP1 DUP7 SWAP1 PUSH2 0x397E JUMP JUMPDEST PUSH2 0x2674 SWAP2 SWAP1 PUSH2 0x3653 JUMP JUMPDEST PUSH1 0x80 DUP3 ADD DUP2 SWAP1 MSTORE PUSH1 0x6 SLOAD PUSH1 0x15 SLOAD PUSH1 0x40 MLOAD PUSH4 0xA9059CBB PUSH1 0xE0 SHL DUP2 MSTORE PUSH1 0x1 PUSH1 0x1 PUSH1 0xA0 SHL SUB SWAP2 DUP3 AND PUSH1 0x4 DUP3 ADD MSTORE PUSH1 0x24 DUP2 ADD SWAP4 SWAP1 SWAP4 MSTORE AND SWAP1 PUSH4 0xA9059CBB SWAP1 PUSH1 0x44 ADD PUSH1 0x20 PUSH1 0x40 MLOAD DUP1 DUP4 SUB DUP2 PUSH0 DUP8 GAS CALL ISZERO DUP1 ISZERO PUSH2 0x26CD JUMPI RETURNDATASIZE PUSH0 PUSH0 RETURNDATACOPY RETURNDATASIZE PUSH0 REVERT JUMPDEST POP POP POP POP PUSH1 0x40 MLOAD RETURNDATASIZE PUSH1 0x1F NOT PUSH1 0x1F DUP3 ADD AND DUP3 ADD DUP1 PUSH1 0x40 MSTORE POP DUP2 ADD SWAP1 PUSH2 0x26F1 SWAP2 SWAP1 PUSH2 0x3941 JUMP JUMPDEST POP PUSH1 0x80 DUP2 ADD MLOAD PUSH1 0x60 DUP3 ADD MLOAD PUSH1 0x40 DUP4 ADD MLOAD PUSH1 0x20 DUP5 ADD MLOAD DUP5 MLOAD PUSH2 0x2712 SWAP2 SWAP1 PUSH2 0x3917 JUMP JUMPDEST PUSH2 0x271C SWAP2 SWAP1 PUSH2 0x3917 JUMP JUMPDEST PUSH2 0x2726 SWAP2 SWAP1 PUSH2 0x3917 JUMP JUMPDEST PUSH2 0x2730 SWAP2 SWAP1 PUSH2 0x3917 JUMP JUMPDEST PUSH1 0xA0 DUP3 ADD DUP2 SWAP1 MSTORE ISZERO PUSH2 0x27BA JUMPI PUSH1 0x6 SLOAD PUSH1 0x15 SLOAD PUSH1 0xA0 DUP4 ADD MLOAD PUSH1 0x40 MLOAD PUSH4 0xA9059CBB PUSH1 0xE0 SHL DUP2 MSTORE PUSH1 0x1 PUSH1 0x1 PUSH1 0xA0 SHL SUB SWAP3 DUP4 AND PUSH1 0x4 DUP3 ADD MSTORE PUSH1 0x24 DUP2 ADD SWAP2 SWAP1 SWAP2 MSTORE SWAP2 AND SWAP1 PUSH4 0xA9059CBB SWAP1 PUSH1 0x44 ADD PUSH1 0x20 PUSH1 0x40 MLOAD DUP1 DUP4 SUB DUP2 PUSH0 DUP8 GAS CALL ISZERO DUP1 ISZERO PUSH2 0x2794 JUMPI RETURNDATASIZE PUSH0 PUSH0 RETURNDATACOPY RETURNDATASIZE PUSH0 REVERT JUMPDEST POP POP POP POP PUSH1 0x40 MLOAD RETURNDATASIZE PUSH1 0x1F NOT PUSH1 0x1F DUP3 ADD AND DUP3 ADD DUP1 PUSH1 0x40 MSTORE POP DUP2 ADD SWAP1 PUSH2 0x27B8 SWAP2 SWAP1 PUSH2 0x3941 JUMP JUMPDEST POP JUMPDEST POP POP POP POP POP POP POP POP POP POP POP POP POP JUMP JUMPDEST PUSH0 PUSH0 PUSH1 0x6 PUSH0 SWAP1 SLOAD SWAP1 PUSH2 0x100 EXP SWAP1 DIV PUSH1 0x1 PUSH1 0x1 PUSH1 0xA0 SHL SUB AND PUSH1 0x1 PUSH1 0x1 PUSH1 0xA0 SHL SUB AND PUSH4 0x902F1AC PUSH1 0x40 MLOAD DUP2 PUSH4 0xFFFFFFFF AND PUSH1 0xE0 SHL DUP2 MSTORE PUSH1 0x4 ADD PUSH1 0x60 PUSH1 0x40 MLOAD DUP1 DUP4 SUB DUP2 DUP7 GAS STATICCALL ISZERO DUP1 ISZERO PUSH2 0x281B JUMPI RETURNDATASIZE PUSH0 PUSH0 RETURNDATACOPY RETURNDATASIZE PUSH0 REVERT JUMPDEST POP POP POP POP PUSH1 0x40 MLOAD RETURNDATASIZE PUSH1 0x1F NOT PUSH1 0x1F DUP3 ADD AND DUP3 ADD DUP1 PUSH1 0x40 MSTORE POP DUP2 ADD SWAP1 PUSH2 0x283F SWAP2 SWAP1 PUSH2 0x38B0 JUMP JUMPDEST POP POP PUSH1 0xB SLOAD PUSH1 0x6 SLOAD PUSH1 0x40 MLOAD PUSH4 0x70A08231 PUSH1 0xE0 SHL DUP2 MSTORE PUSH1 0x1 PUSH1 0x1 PUSH1 0xA0 SHL SUB SWAP2 DUP3 AND PUSH1 0x4 DUP3 ADD MSTORE PUSH1 0x1 PUSH1 0x1 PUSH1 0x70 SHL SUB SWAP4 SWAP1 SWAP4 AND SWAP4 POP PUSH0 SWAP3 SWAP2 AND SWAP1 PUSH4 0x70A08231 SWAP1 PUSH1 0x24 ADD PUSH1 0x20 PUSH1 0x40 MLOAD DUP1 DUP4 SUB DUP2 DUP7 GAS STATICCALL ISZERO DUP1 ISZERO PUSH2 0x289B JUMPI RETURNDATASIZE PUSH0 PUSH0 RETURNDATACOPY RETURNDATASIZE PUSH0 REVERT JUMPDEST POP POP POP POP PUSH1 0x40 MLOAD RETURNDATASIZE PUSH1 0x1F NOT PUSH1 0x1F DUP3 ADD AND DUP3 ADD DUP1 PUSH1 0x40 MSTORE POP DUP2 ADD SWAP1 PUSH2 0x28BF SWAP2 SWAP1 PUSH2 0x392A JUMP JUMPDEST SWAP1 POP DUP1 DUP3 GT ISZERO PUSH2 0x2959 JUMPI PUSH1 0x6 SLOAD PUSH1 0x40 DUP1 MLOAD PUSH4 0x18160DDD PUSH1 0xE0 SHL DUP2 MSTORE SWAP1 MLOAD PUSH0 SWAP3 PUSH1 0x1 PUSH1 0x1 PUSH1 0xA0 SHL SUB AND SWAP2 PUSH4 0x18160DDD SWAP2 PUSH1 0x4 DUP1 DUP4 ADD SWAP3 PUSH1 0x20 SWAP3 SWAP2 SWAP1 DUP3 SWAP1 SUB ADD DUP2 DUP7 GAS STATICCALL ISZERO DUP1 ISZERO PUSH2 0x2910 JUMPI RETURNDATASIZE PUSH0 PUSH0 RETURNDATACOPY RETURNDATASIZE PUSH0 REVERT JUMPDEST POP POP POP POP PUSH1 0x40 MLOAD RETURNDATASIZE PUSH1 0x1F NOT PUSH1 0x1F DUP3 ADD AND DUP3 ADD DUP1 PUSH1 0x40 MSTORE POP DUP2 ADD SWAP1 PUSH2 0x2934 SWAP2 SWAP1 PUSH2 0x392A JUMP JUMPDEST SWAP1 POP DUP2 PUSH2 0x2941 DUP2 DUP6 PUSH2 0x3917 JUMP JUMPDEST PUSH2 0x294B SWAP1 DUP4 PUSH2 0x397E JUMP JUMPDEST PUSH2 0x2955 SWAP2 SWAP1 PUSH2 0x3653 JUMP JUMPDEST SWAP4 POP POP JUMPDEST POP POP SWAP1 JUMP JUMPDEST PUSH0 PUSH1 0x1 PUSH1 0x1 PUSH1 0xA0 SHL SUB PUSH32 0x0 AND CALLER SUB PUSH2 0x2B6E JUMPI PUSH0 PUSH0 PUSH1 0x6 PUSH0 SWAP1 SLOAD SWAP1 PUSH2 0x100 EXP SWAP1 DIV PUSH1 0x1 PUSH1 0x1 PUSH1 0xA0 SHL SUB AND PUSH1 0x1 PUSH1 0x1 PUSH1 0xA0 SHL SUB AND PUSH4 0x902F1AC PUSH1 0x40 MLOAD DUP2 PUSH4 0xFFFFFFFF AND PUSH1 0xE0 SHL DUP2 MSTORE PUSH1 0x4 ADD PUSH1 0x60 PUSH1 0x40 MLOAD DUP1 DUP4 SUB DUP2 DUP7 GAS STATICCALL ISZERO DUP1 ISZERO PUSH2 0x29E1 JUMPI RETURNDATASIZE PUSH0 PUSH0 RETURNDATACOPY RETURNDATASIZE PUSH0 REVERT JUMPDEST POP POP POP POP PUSH1 0x40 MLOAD RETURNDATASIZE PUSH1 0x1F NOT PUSH1 0x1F DUP3 ADD AND DUP3 ADD DUP1 PUSH1 0x40 MSTORE POP DUP2 ADD SWAP1 PUSH2 0x2A05 SWAP2 SWAP1 PUSH2 0x38B0 JUMP JUMPDEST POP PUSH1 0xB SLOAD PUSH1 0x6 SLOAD PUSH1 0x40 MLOAD PUSH4 0x70A08231 PUSH1 0xE0 SHL DUP2 MSTORE PUSH1 0x1 PUSH1 0x1 PUSH1 0xA0 SHL SUB SWAP2 DUP3 AND PUSH1 0x4 DUP3 ADD MSTORE PUSH1 0x1 PUSH1 0x1 PUSH1 0x70 SHL SUB SWAP5 DUP6 AND SWAP7 POP SWAP3 SWAP1 SWAP4 AND SWAP4 POP PUSH0 SWAP3 AND SWAP1 PUSH4 0x70A08231 SWAP1 PUSH1 0x24 ADD PUSH1 0x20 PUSH1 0x40 MLOAD DUP1 DUP4 SUB DUP2 DUP7 GAS STATICCALL ISZERO DUP1 ISZERO PUSH2 0x2A64 JUMPI RETURNDATASIZE PUSH0 PUSH0 RETURNDATACOPY RETURNDATASIZE PUSH0 REVERT JUMPDEST POP POP POP POP PUSH1 0x40 MLOAD RETURNDATASIZE PUSH1 0x1F NOT PUSH1 0x1F DUP3 ADD AND DUP3 ADD DUP1 PUSH1 0x40 MSTORE POP DUP2 ADD SWAP1 PUSH2 0x2A88 SWAP2 SWAP1 PUSH2 0x392A JUMP JUMPDEST SWAP1 POP DUP3 DUP2 GT ISZERO PUSH2 0x2B6A JUMPI PUSH1 0x6 SLOAD PUSH1 0x40 DUP1 MLOAD PUSH4 0x18160DDD PUSH1 0xE0 SHL DUP2 MSTORE SWAP1 MLOAD PUSH0 SWAP3 PUSH1 0x1 PUSH1 0x1 PUSH1 0xA0 SHL SUB AND SWAP2 PUSH4 0x18160DDD SWAP2 PUSH1 0x4 DUP1 DUP4 ADD SWAP3 PUSH1 0x20 SWAP3 SWAP2 SWAP1 DUP3 SWAP1 SUB ADD DUP2 DUP7 GAS STATICCALL ISZERO DUP1 ISZERO PUSH2 0x2AD9 JUMPI RETURNDATASIZE PUSH0 PUSH0 RETURNDATACOPY RETURNDATASIZE PUSH0 REVERT JUMPDEST POP POP POP POP PUSH1 0x40 MLOAD RETURNDATASIZE PUSH1 0x1F NOT PUSH1 0x1F DUP3 ADD AND DUP3 ADD DUP1 PUSH1 0x40 MSTORE POP DUP2 ADD SWAP1 PUSH2 0x2AFD SWAP2 SWAP1 PUSH2 0x392A JUMP JUMPDEST SWAP1 POP DUP1 PUSH0 SUB PUSH2 0x2B12 JUMPI POP PUSH1 0x1 SWAP6 SWAP5 POP POP POP POP POP JUMP JUMPDEST PUSH2 0x2B1D DUP2 DUP4 DUP6 PUSH2 0x3434 JUMP JUMPDEST PUSH2 0x2B27 SWAP1 DUP3 PUSH2 0x3640 JUMP JUMPDEST SWAP1 POP PUSH2 0x2B66 DUP5 DUP3 PUSH2 0x2B38 DUP3 DUP7 PUSH2 0x3917 JUMP JUMPDEST PUSH2 0x2B42 SWAP2 SWAP1 PUSH2 0x397E JUMP JUMPDEST PUSH2 0x2B4C SWAP2 SWAP1 PUSH2 0x3653 JUMP JUMPDEST DUP5 PUSH2 0x2B57 DUP5 DUP11 PUSH2 0x397E JUMP JUMPDEST PUSH2 0x2B61 SWAP2 SWAP1 PUSH2 0x3653 JUMP JUMPDEST PUSH2 0x3529 JUMP JUMPDEST SWAP5 POP POP JUMPDEST POP POP POP JUMPDEST SWAP2 SWAP1 POP JUMP JUMPDEST PUSH0 PUSH1 0x11 SLOAD PUSH1 0x10 SLOAD PUSH2 0x2B84 SWAP2 SWAP1 PUSH2 0x3640 JUMP JUMPDEST SWAP1 POP PUSH8 0xDE0B6B3A7640000 DUP2 LT ISZERO PUSH2 0x2B99 JUMPI POP JUMP JUMPDEST PUSH2 0x2BC4 ADDRESS PUSH32 0x0 DUP4 PUSH2 0x15A2 JUMP JUMPDEST PUSH1 0x40 DUP1 MLOAD PUSH1 0x2 DUP1 DUP3 MSTORE PUSH1 0x60 DUP3 ADD DUP4 MSTORE PUSH0 SWAP3 PUSH1 0x20 DUP4 ADD SWAP1 DUP1 CALLDATASIZE DUP4 CALLDATACOPY ADD SWAP1 POP POP SWAP1 POP ADDRESS DUP2 PUSH0 DUP2 MLOAD DUP2 LT PUSH2 0x2BF7 JUMPI PUSH2 0x2BF7 PUSH2 0x37F5 JUMP JUMPDEST PUSH1 0x1 PUSH1 0x1 PUSH1 0xA0 SHL SUB SWAP3 DUP4 AND PUSH1 0x20 SWAP2 DUP3 MUL SWAP3 SWAP1 SWAP3 ADD ADD MSTORE PUSH1 0xB SLOAD DUP3 MLOAD SWAP2 AND SWAP1 DUP3 SWAP1 PUSH1 0x1 SWAP1 DUP2 LT PUSH2 0x2C28 JUMPI PUSH2 0x2C28 PUSH2 0x37F5 JUMP JUMPDEST PUSH1 0x1 PUSH1 0x1 PUSH1 0xA0 SHL SUB SWAP3 DUP4 AND PUSH1 0x20 SWAP2 DUP3 MUL SWAP3 SWAP1 SWAP3 ADD ADD MSTORE PUSH1 0x40 MLOAD PUSH4 0x791AC947 PUSH1 0xE0 SHL DUP2 MSTORE PUSH32 0x0 SWAP1 SWAP2 AND SWAP1 PUSH4 0x791AC947 SWAP1 PUSH2 0x2C8C SWAP1 DUP6 SWAP1 PUSH0 SWAP1 DUP7 SWAP1 ADDRESS SWAP1 TIMESTAMP SWAP1 PUSH1 0x4 ADD PUSH2 0x3995 JUMP JUMPDEST PUSH0 PUSH1 0x40 MLOAD DUP1 DUP4 SUB DUP2 PUSH0 DUP8 DUP1 EXTCODESIZE ISZERO DUP1 ISZERO PUSH2 0x2CA3 JUMPI PUSH0 PUSH0 REVERT JUMPDEST POP GAS CALL ISZERO DUP1 ISZERO PUSH2 0x2CB5 JUMPI RETURNDATASIZE PUSH0 PUSH0 RETURNDATACOPY RETURNDATASIZE PUSH0 REVERT JUMPDEST POP POP PUSH1 0x16 SLOAD PUSH1 0x11 SLOAD PUSH2 0x2CEA SWAP4 POP PUSH1 0x1 PUSH1 0x1 PUSH1 0xA0 SHL SUB SWAP1 SWAP2 AND SWAP2 POP DUP5 SWAP1 PUSH2 0x2CDB SWAP1 SELFBALANCE PUSH2 0x397E JUMP JUMPDEST PUSH2 0x2CE5 SWAP2 SWAP1 PUSH2 0x3653 JUMP JUMPDEST PUSH2 0x353E JUMP JUMPDEST PUSH1 0xC SLOAD PUSH2 0x2D00 SWAP1 PUSH1 0x1 PUSH1 0x1 PUSH1 0xA0 SHL SUB AND SELFBALANCE PUSH2 0x353E JUMP JUMPDEST POP POP PUSH0 PUSH1 0x10 DUP2 SWAP1 SSTORE PUSH1 0x11 SSTORE JUMP JUMPDEST PUSH0 DUP2 DUP2 MSTORE PUSH1 0x1 DUP4 ADD PUSH1 0x20 MSTORE PUSH1 0x40 DUP2 KECCAK256 SLOAD PUSH2 0x2D52 JUMPI POP DUP2 SLOAD PUSH1 0x1 DUP2 DUP2 ADD DUP5 SSTORE PUSH0 DUP5 DUP2 MSTORE PUSH1 0x20 DUP1 DUP3 KECCAK256 SWAP1 SWAP4 ADD DUP5 SWAP1 SSTORE DUP5 SLOAD DUP5 DUP3 MSTORE DUP3 DUP7 ADD SWAP1 SWAP4 MSTORE PUSH1 0x40 SWAP1 KECCAK256 SWAP2 SWAP1 SWAP2 SSTORE PUSH2 0xBF8 JUMP JUMPDEST POP PUSH0 PUSH2 0xBF8 JUMP JUMPDEST PUSH1 0x40 DUP1 MLOAD PUSH1 0x2 DUP1 DUP3 MSTORE PUSH1 0x60 DUP3 ADD DUP4 MSTORE PUSH0 SWAP3 DUP4 SWAP3 SWAP2 SWAP1 PUSH1 0x20 DUP4 ADD SWAP1 DUP1 CALLDATASIZE DUP4 CALLDATACOPY POP POP PUSH1 0xB SLOAD DUP3 MLOAD SWAP3 SWAP4 POP PUSH1 0x1 PUSH1 0x1 PUSH1 0xA0 SHL SUB AND SWAP2 DUP4 SWAP2 POP PUSH0 SWAP1 PUSH2 0x2D9C JUMPI PUSH2 0x2D9C PUSH2 0x37F5 JUMP JUMPDEST PUSH1 0x20 MUL PUSH1 0x20 ADD ADD SWAP1 PUSH1 0x1 PUSH1 0x1 PUSH1 0xA0 SHL SUB AND SWAP1 DUP2 PUSH1 0x1 PUSH1 0x1 PUSH1 0xA0 SHL SUB AND DUP2 MSTORE POP POP ADDRESS DUP2 PUSH1 0x1 DUP2 MLOAD DUP2 LT PUSH2 0x2DD0 JUMPI PUSH2 0x2DD0 PUSH2 0x37F5 JUMP JUMPDEST PUSH1 0x1 PUSH1 0x1 PUSH1 0xA0 SHL SUB SWAP3 DUP4 AND PUSH1 0x20 SWAP2 DUP3 MUL SWAP3 SWAP1 SWAP3 ADD ADD MSTORE PUSH1 0x40 MLOAD PUSH4 0xD06CA61F PUSH1 0xE0 SHL DUP2 MSTORE PUSH0 SWAP2 PUSH32 0x0 AND SWAP1 PUSH4 0xD06CA61F SWAP1 PUSH2 0x2E2E SWAP1 DUP8 SWAP1 DUP7 SWAP1 PUSH1 0x4 ADD PUSH2 0x39D0 JUMP JUMPDEST PUSH0 PUSH1 0x40 MLOAD DUP1 DUP4 SUB DUP2 DUP7 GAS STATICCALL ISZERO DUP1 ISZERO PUSH2 0x2E48 JUMPI RETURNDATASIZE PUSH0 PUSH0 RETURNDATACOPY RETURNDATASIZE PUSH0 REVERT JUMPDEST POP POP POP POP PUSH1 0x40 MLOAD RETURNDATASIZE PUSH0 DUP3 RETURNDATACOPY PUSH1 0x1F RETURNDATASIZE SWAP1 DUP2 ADD PUSH1 0x1F NOT AND DUP3 ADD PUSH1 0x40 MSTORE PUSH2 0x2E6F SWAP2 SWAP1 DUP2 ADD SWAP1 PUSH2 0x39F0 JUMP JUMPDEST SWAP1 POP DUP1 PUSH1 0x1 DUP2 MLOAD DUP2 LT PUSH2 0x2E84 JUMPI PUSH2 0x2E84 PUSH2 0x37F5 JUMP JUMPDEST PUSH1 0x20 MUL PUSH1 0x20 ADD ADD MLOAD SWAP3 POP POP POP SWAP2 SWAP1 POP JUMP JUMPDEST PUSH0 DUP1 PUSH2 0x2EA2 PUSH1 0x2 DUP5 PUSH2 0x3653 JUMP JUMPDEST PUSH1 0x40 DUP1 MLOAD PUSH1 0x2 DUP1 DUP3 MSTORE PUSH1 0x60 DUP3 ADD DUP4 MSTORE SWAP3 SWAP4 POP PUSH0 SWAP3 SWAP1 SWAP2 PUSH1 0x20 DUP4 ADD SWAP1 DUP1 CALLDATASIZE DUP4 CALLDATACOPY ADD SWAP1 POP POP SWAP1 POP ADDRESS DUP2 PUSH0 DUP2 MLOAD DUP2 LT PUSH2 0x2EDA JUMPI PUSH2 0x2EDA PUSH2 0x37F5 JUMP JUMPDEST PUSH1 0x1 PUSH1 0x1 PUSH1 0xA0 SHL SUB SWAP3 DUP4 AND PUSH1 0x20 SWAP2 DUP3 MUL SWAP3 SWAP1 SWAP3 ADD ADD MSTORE PUSH1 0xB SLOAD DUP3 MLOAD SWAP2 AND SWAP1 DUP3 SWAP1 PUSH1 0x1 SWAP1 DUP2 LT PUSH2 0x2F0B JUMPI PUSH2 0x2F0B PUSH2 0x37F5 JUMP JUMPDEST PUSH1 0x1 PUSH1 0x1 PUSH1 0xA0 SHL SUB SWAP3 DUP4 AND PUSH1 0x20 SWAP2 DUP3 MUL SWAP3 SWAP1 SWAP3 ADD ADD MSTORE PUSH1 0x6 SLOAD PUSH2 0x2F30 SWAP2 AND ADDRESS DUP7 PUSH2 0x147C JUMP JUMPDEST PUSH1 0x6 PUSH0 SWAP1 SLOAD SWAP1 PUSH2 0x100 EXP SWAP1 DIV PUSH1 0x1 PUSH1 0x1 PUSH1 0xA0 SHL SUB AND PUSH1 0x1 PUSH1 0x1 PUSH1 0xA0 SHL SUB AND PUSH4 0xFFF6CAE9 PUSH1 0x40 MLOAD DUP2 PUSH4 0xFFFFFFFF AND PUSH1 0xE0 SHL DUP2 MSTORE PUSH1 0x4 ADD PUSH0 PUSH1 0x40 MLOAD DUP1 DUP4 SUB DUP2 PUSH0 DUP8 DUP1 EXTCODESIZE ISZERO DUP1 ISZERO PUSH2 0x2F7C JUMPI PUSH0 PUSH0 REVERT JUMPDEST POP GAS CALL ISZERO DUP1 ISZERO PUSH2 0x2F8E JUMPI RETURNDATASIZE PUSH0 PUSH0 RETURNDATACOPY RETURNDATASIZE PUSH0 REVERT JUMPDEST POP POP POP POP PUSH2 0x2FBD ADDRESS PUSH32 0x0 DUP7 PUSH2 0x15A2 JUMP JUMPDEST PUSH1 0xE SLOAD PUSH1 0x40 MLOAD PUSH4 0x5C11D795 PUSH1 0xE0 SHL DUP2 MSTORE PUSH1 0x1 PUSH1 0x1 PUSH1 0xA0 SHL SUB PUSH32 0x0 DUP2 AND SWAP3 PUSH4 0x5C11D795 SWAP3 PUSH2 0x3018 SWAP3 DUP8 SWAP3 PUSH0 SWAP3 DUP9 SWAP3 SWAP2 SWAP1 SWAP2 AND SWAP1 TIMESTAMP SWAP1 PUSH1 0x4 ADD PUSH2 0x3995 JUMP JUMPDEST PUSH0 PUSH1 0x40 MLOAD DUP1 DUP4 SUB DUP2 PUSH0 DUP8 DUP1 EXTCODESIZE ISZERO DUP1 ISZERO PUSH2 0x302F JUMPI PUSH0 PUSH0 REVERT JUMPDEST POP GAS CALL ISZERO DUP1 ISZERO PUSH2 0x3041 JUMPI RETURNDATASIZE PUSH0 PUSH0 RETURNDATACOPY RETURNDATASIZE PUSH0 REVERT JUMPDEST POP POP PUSH1 0xB SLOAD PUSH1 0xE SLOAD PUSH1 0x40 MLOAD PUSH4 0x70A08231 PUSH1 0xE0 SHL DUP2 MSTORE PUSH1 0x1 PUSH1 0x1 PUSH1 0xA0 SHL SUB SWAP2 DUP3 AND PUSH1 0x4 DUP3 ADD MSTORE PUSH0 SWAP5 POP SWAP2 AND SWAP2 POP PUSH4 0x70A08231 SWAP1 PUSH1 0x24 ADD PUSH1 0x20 PUSH1 0x40 MLOAD DUP1 DUP4 SUB DUP2 DUP7 GAS STATICCALL ISZERO DUP1 ISZERO PUSH2 0x3091 JUMPI RETURNDATASIZE PUSH0 PUSH0 RETURNDATACOPY RETURNDATASIZE PUSH0 REVERT JUMPDEST POP POP POP POP PUSH1 0x40 MLOAD RETURNDATASIZE PUSH1 0x1F NOT PUSH1 0x1F DUP3 ADD AND DUP3 ADD DUP1 PUSH1 0x40 MSTORE POP DUP2 ADD SWAP1 PUSH2 0x30B5 SWAP2 SWAP1 PUSH2 0x392A JUMP JUMPDEST PUSH1 0xE SLOAD PUSH1 0xB SLOAD PUSH1 0x40 MLOAD PUSH4 0x92DFDB3 PUSH1 0xE1 SHL DUP2 MSTORE PUSH1 0x1 PUSH1 0x1 PUSH1 0xA0 SHL SUB SWAP2 DUP3 AND PUSH1 0x4 DUP3 ADD MSTORE ADDRESS PUSH1 0x24 DUP3 ADD MSTORE PUSH1 0x44 DUP2 ADD DUP5 SWAP1 MSTORE SWAP3 SWAP4 POP AND SWAP1 PUSH4 0x125BFB66 SWAP1 PUSH1 0x64 ADD PUSH0 PUSH1 0x40 MLOAD DUP1 DUP4 SUB DUP2 PUSH0 DUP8 DUP1 EXTCODESIZE ISZERO DUP1 ISZERO PUSH2 0x310A JUMPI PUSH0 PUSH0 REVERT JUMPDEST POP GAS CALL ISZERO DUP1 ISZERO PUSH2 0x311C JUMPI RETURNDATASIZE PUSH0 PUSH0 RETURNDATACOPY RETURNDATASIZE PUSH0 REVERT JUMPDEST POP POP PUSH1 0xB SLOAD PUSH1 0x40 MLOAD PUSH4 0x95EA7B3 PUSH1 0xE0 SHL DUP2 MSTORE PUSH1 0x1 PUSH1 0x1 PUSH1 0xA0 SHL SUB PUSH32 0x0 DUP2 AND PUSH1 0x4 DUP4 ADD MSTORE PUSH1 0x24 DUP3 ADD DUP7 SWAP1 MSTORE SWAP1 SWAP2 AND SWAP3 POP PUSH4 0x95EA7B3 SWAP2 POP PUSH1 0x44 ADD PUSH1 0x20 PUSH1 0x40 MLOAD DUP1 DUP4 SUB DUP2 PUSH0 DUP8 GAS CALL ISZERO DUP1 ISZERO PUSH2 0x3190 JUMPI RETURNDATASIZE PUSH0 PUSH0 RETURNDATACOPY RETURNDATASIZE PUSH0 REVERT JUMPDEST POP POP POP POP PUSH1 0x40 MLOAD RETURNDATASIZE PUSH1 0x1F NOT PUSH1 0x1F DUP3 ADD AND DUP3 ADD DUP1 PUSH1 0x40 MSTORE POP DUP2 ADD SWAP1 PUSH2 0x31B4 SWAP2 SWAP1 PUSH2 0x3941 JUMP JUMPDEST POP PUSH1 0xB SLOAD PUSH1 0x40 MLOAD PUSH3 0xE8E337 PUSH1 0xE8 SHL DUP2 MSTORE PUSH1 0x1 PUSH1 0x1 PUSH1 0xA0 SHL SUB SWAP2 DUP3 AND PUSH1 0x4 DUP3 ADD MSTORE ADDRESS PUSH1 0x24 DUP3 ADD DUP2 SWAP1 MSTORE PUSH1 0x44 DUP3 ADD DUP5 SWAP1 MSTORE PUSH1 0x64 DUP3 ADD DUP7 SWAP1 MSTORE PUSH0 PUSH1 0x84 DUP4 ADD DUP2 SWAP1 MSTORE PUSH1 0xA4 DUP4 ADD MSTORE PUSH1 0xC4 DUP3 ADD MSTORE TIMESTAMP PUSH1 0xE4 DUP3 ADD MSTORE PUSH32 0x0 SWAP1 SWAP2 AND SWAP1 PUSH4 0xE8E33700 SWAP1 PUSH2 0x104 ADD PUSH1 0x60 PUSH1 0x40 MLOAD DUP1 DUP4 SUB DUP2 PUSH0 DUP8 GAS CALL ISZERO DUP1 ISZERO PUSH2 0x324D JUMPI RETURNDATASIZE PUSH0 PUSH0 RETURNDATACOPY RETURNDATASIZE PUSH0 REVERT JUMPDEST POP POP POP POP PUSH1 0x40 MLOAD RETURNDATASIZE PUSH1 0x1F NOT PUSH1 0x1F DUP3 ADD AND DUP3 ADD DUP1 PUSH1 0x40 MSTORE POP DUP2 ADD SWAP1 PUSH2 0x3271 SWAP2 SWAP1 PUSH2 0x383D JUMP JUMPDEST SWAP8 SWAP7 POP POP POP POP POP POP POP JUMP JUMPDEST PUSH1 0x1 PUSH1 0x1 PUSH1 0xA0 SHL SUB DUP1 DUP4 AND PUSH0 SWAP1 DUP2 MSTORE PUSH1 0xA PUSH1 0x20 SWAP1 DUP2 MSTORE PUSH1 0x40 DUP1 DUP4 KECCAK256 DUP2 MLOAD PUSH2 0x120 DUP2 ADD DUP4 MSTORE DUP2 SLOAD SWAP1 SWAP6 AND DUP1 DUP7 MSTORE PUSH1 0x1 DUP1 DUP4 ADD SLOAD SWAP5 DUP8 ADD SWAP5 SWAP1 SWAP5 MSTORE PUSH1 0x2 DUP3 ADD SLOAD SWAP3 DUP7 ADD SWAP3 SWAP1 SWAP3 MSTORE PUSH1 0x3 DUP2 ADD SLOAD PUSH1 0x60 DUP7 ADD MSTORE PUSH1 0x4 DUP2 ADD SLOAD PUSH1 0x80 DUP7 ADD MSTORE PUSH1 0x5 DUP2 ADD SLOAD PUSH1 0xA0 DUP7 ADD MSTORE PUSH1 0x6 DUP2 ADD SLOAD PUSH1 0xC0 DUP7 ADD MSTORE PUSH1 0x7 ADD SLOAD PUSH1 0xFF DUP1 DUP3 AND ISZERO ISZERO PUSH1 0xE0 DUP8 ADD MSTORE PUSH2 0x100 SWAP2 DUP3 SWAP1 DIV AND ISZERO ISZERO SWAP1 DUP6 ADD MSTORE SWAP2 SWAP3 SWAP2 SWAP1 PUSH1 0x14 JUMPDEST PUSH1 0x1 PUSH1 0x1 PUSH1 0xA0 SHL SUB DUP4 AND ISZERO DUP1 ISZERO SWAP1 PUSH2 0x3326 JUMPI POP DUP1 DUP3 GT ISZERO JUMPDEST ISZERO PUSH2 0x342A JUMPI PUSH0 PUSH2 0x3335 DUP4 PUSH2 0xD4D JUMP JUMPDEST SWAP1 POP PUSH0 PUSH1 0x64 PUSH2 0x3344 DUP4 DUP11 PUSH2 0x397E JUMP JUMPDEST PUSH2 0x334E SWAP2 SWAP1 PUSH2 0x3653 JUMP JUMPDEST SWAP1 POP DUP1 ISZERO PUSH2 0x33F9 JUMPI PUSH1 0x1 PUSH1 0x1 PUSH1 0xA0 SHL SUB DUP6 AND PUSH0 SWAP1 DUP2 MSTORE PUSH1 0xA PUSH1 0x20 MSTORE PUSH1 0x40 SWAP1 KECCAK256 PUSH1 0x6 ADD SLOAD DUP5 GT PUSH2 0x33F9 JUMPI PUSH1 0x6 SLOAD PUSH1 0x40 MLOAD PUSH4 0xA9059CBB PUSH1 0xE0 SHL DUP2 MSTORE PUSH1 0x1 PUSH1 0x1 PUSH1 0xA0 SHL SUB DUP8 DUP2 AND PUSH1 0x4 DUP4 ADD MSTORE PUSH1 0x24 DUP3 ADD DUP5 SWAP1 MSTORE SWAP1 SWAP2 AND SWAP1 PUSH4 0xA9059CBB SWAP1 PUSH1 0x44 ADD PUSH1 0x20 PUSH1 0x40 MLOAD DUP1 DUP4 SUB DUP2 PUSH0 DUP8 GAS CALL ISZERO DUP1 ISZERO PUSH2 0x33C7 JUMPI RETURNDATASIZE PUSH0 PUSH0 RETURNDATACOPY RETURNDATASIZE PUSH0 REVERT JUMPDEST POP POP POP POP PUSH1 0x40 MLOAD RETURNDATASIZE PUSH1 0x1F NOT PUSH1 0x1F DUP3 ADD AND DUP3 ADD DUP1 PUSH1 0x40 MSTORE POP DUP2 ADD SWAP1 PUSH2 0x33EB SWAP2 SWAP1 PUSH2 0x3941 JUMP JUMPDEST POP PUSH2 0x33F6 DUP2 DUP9 PUSH2 0x3640 JUMP JUMPDEST SWAP7 POP JUMPDEST PUSH1 0x1 PUSH1 0x1 PUSH1 0xA0 SHL SUB SWAP5 DUP6 AND PUSH0 SWAP1 DUP2 MSTORE PUSH1 0xA PUSH1 0x20 MSTORE PUSH1 0x40 SWAP1 KECCAK256 SLOAD SWAP1 SWAP5 AND SWAP4 DUP4 PUSH2 0x3420 DUP2 PUSH2 0x3AB8 JUMP JUMPDEST SWAP5 POP POP POP POP PUSH2 0x330E JUMP JUMPDEST POP POP POP POP SWAP3 SWAP2 POP POP JUMP JUMPDEST PUSH0 DUP1 PUSH2 0x3448 PUSH2 0x3443 DUP5 DUP7 PUSH2 0x397E JUMP JUMPDEST PUSH2 0x35A1 JUMP JUMPDEST SWAP1 POP PUSH0 PUSH2 0x34C2 PUSH1 0x6 PUSH0 SWAP1 SLOAD SWAP1 PUSH2 0x100 EXP SWAP1 DIV PUSH1 0x1 PUSH1 0x1 PUSH1 0xA0 SHL SUB AND PUSH1 0x1 PUSH1 0x1 PUSH1 0xA0 SHL SUB AND PUSH4 0x7464FC3D PUSH1 0x40 MLOAD DUP2 PUSH4 0xFFFFFFFF AND PUSH1 0xE0 SHL DUP2 MSTORE PUSH1 0x4 ADD PUSH1 0x20 PUSH1 0x40 MLOAD DUP1 DUP4 SUB DUP2 DUP7 GAS STATICCALL ISZERO DUP1 ISZERO PUSH2 0x349E JUMPI RETURNDATASIZE PUSH0 PUSH0 RETURNDATACOPY RETURNDATASIZE PUSH0 REVERT JUMPDEST POP POP POP POP PUSH1 0x40 MLOAD RETURNDATASIZE PUSH1 0x1F NOT PUSH1 0x1F DUP3 ADD AND DUP3 ADD DUP1 PUSH1 0x40 MSTORE POP DUP2 ADD SWAP1 PUSH2 0x3443 SWAP2 SWAP1 PUSH2 0x392A JUMP JUMPDEST SWAP1 POP DUP1 DUP3 GT ISZERO PUSH2 0x3520 JUMPI PUSH0 PUSH2 0x34D7 DUP3 DUP5 PUSH2 0x3917 JUMP JUMPDEST PUSH2 0x34E1 SWAP1 DUP9 PUSH2 0x397E JUMP JUMPDEST PUSH2 0x34EC SWAP1 PUSH1 0x8 PUSH2 0x397E JUMP JUMPDEST SWAP1 POP PUSH0 PUSH2 0x34FA DUP4 PUSH1 0x8 PUSH2 0x397E JUMP JUMPDEST PUSH2 0x3505 DUP6 PUSH1 0x11 PUSH2 0x397E JUMP JUMPDEST PUSH2 0x350F SWAP2 SWAP1 PUSH2 0x3640 JUMP JUMPDEST SWAP1 POP PUSH2 0x351B DUP2 DUP4 PUSH2 0x3653 JUMP JUMPDEST SWAP5 POP POP POP JUMPDEST POP POP SWAP4 SWAP3 POP POP POP JUMP JUMPDEST PUSH0 DUP2 DUP4 LT PUSH2 0x3537 JUMPI DUP2 PUSH2 0x16C0 JUMP JUMPDEST POP SWAP1 SWAP2 SWAP1 POP JUMP JUMPDEST PUSH1 0x40 DUP1 MLOAD PUSH0 DUP1 DUP3 MSTORE PUSH1 0x20 DUP3 ADD SWAP1 SWAP3 MSTORE PUSH1 0x1 PUSH1 0x1 PUSH1 0xA0 SHL SUB DUP5 AND SWAP1 DUP4 SWAP1 PUSH1 0x40 MLOAD PUSH2 0x3567 SWAP2 SWAP1 PUSH2 0x3AD0 JUMP JUMPDEST PUSH0 PUSH1 0x40 MLOAD DUP1 DUP4 SUB DUP2 DUP6 DUP8 GAS CALL SWAP3 POP POP POP RETURNDATASIZE DUP1 PUSH0 DUP2 EQ PUSH2 0x1DDE JUMPI PUSH1 0x40 MLOAD SWAP2 POP PUSH1 0x1F NOT PUSH1 0x3F RETURNDATASIZE ADD AND DUP3 ADD PUSH1 0x40 MSTORE RETURNDATASIZE DUP3 MSTORE RETURNDATASIZE PUSH0 PUSH1 0x20 DUP5 ADD RETURNDATACOPY PUSH2 0x1DDE JUMP JUMPDEST PUSH0 PUSH1 0x3 DUP3 GT ISZERO PUSH2 0x3600 JUMPI POP DUP1 PUSH0 PUSH2 0x35B9 PUSH1 0x2 DUP4 PUSH2 0x3653 JUMP JUMPDEST PUSH2 0x35C4 SWAP1 PUSH1 0x1 PUSH2 0x3640 JUMP JUMPDEST SWAP1 POP JUMPDEST DUP2 DUP2 LT ISZERO PUSH2 0x35FA JUMPI SWAP1 POP DUP1 PUSH1 0x2 DUP2 PUSH2 0x35DF DUP2 DUP7 PUSH2 0x3653 JUMP JUMPDEST PUSH2 0x35E9 SWAP2 SWAP1 PUSH2 0x3640 JUMP JUMPDEST PUSH2 0x35F3 SWAP2 SWAP1 PUSH2 0x3653 JUMP JUMPDEST SWAP1 POP PUSH2 0x35C7 JUMP JUMPDEST POP SWAP2 SWAP1 POP JUMP JUMPDEST DUP2 ISZERO PUSH2 0x2B6E JUMPI POP PUSH1 0x1 SWAP2 SWAP1 POP JUMP JUMPDEST PUSH1 0x40 MLOAD DUP1 PUSH1 0xC0 ADD PUSH1 0x40 MSTORE DUP1 PUSH1 0x6 SWAP1 PUSH1 0x20 DUP3 MUL DUP1 CALLDATASIZE DUP4 CALLDATACOPY POP SWAP2 SWAP3 SWAP2 POP POP JUMP JUMPDEST PUSH4 0x4E487B71 PUSH1 0xE0 SHL PUSH0 MSTORE PUSH1 0x11 PUSH1 0x4 MSTORE PUSH1 0x24 PUSH0 REVERT JUMPDEST DUP1 DUP3 ADD DUP1 DUP3 GT ISZERO PUSH2 0xBF8 JUMPI PUSH2 0xBF8 PUSH2 0x362C JUMP JUMPDEST PUSH0 DUP3 PUSH2 0x366D JUMPI PUSH4 0x4E487B71 PUSH1 0xE0 SHL PUSH0 MSTORE PUSH1 0x12 PUSH1 0x4 MSTORE PUSH1 0x24 PUSH0 REVERT JUMPDEST POP DIV SWAP1 JUMP JUMPDEST PUSH1 0x20 DUP2 MSTORE PUSH0 DUP3 MLOAD DUP1 PUSH1 0x20 DUP5 ADD MSTORE DUP1 PUSH1 0x20 DUP6 ADD PUSH1 0x40 DUP6 ADD MCOPY PUSH0 PUSH1 0x40 DUP3 DUP6 ADD ADD MSTORE PUSH1 0x40 PUSH1 0x1F NOT PUSH1 0x1F DUP4 ADD AND DUP5 ADD ADD SWAP2 POP POP SWAP3 SWAP2 POP POP JUMP JUMPDEST PUSH1 0x1 PUSH1 0x1 PUSH1 0xA0 SHL SUB DUP2 AND DUP2 EQ PUSH2 0x144F JUMPI PUSH0 PUSH0 REVERT JUMPDEST PUSH0 PUSH0 PUSH1 0x40 DUP4 DUP6 SUB SLT ISZERO PUSH2 0x36CC JUMPI PUSH0 PUSH0 REVERT JUMPDEST DUP3 CALLDATALOAD PUSH2 0x36D7 DUP2 PUSH2 0x36A7 JUMP JUMPDEST SWAP5 PUSH1 0x20 SWAP4 SWAP1 SWAP4 ADD CALLDATALOAD SWAP4 POP POP POP JUMP JUMPDEST PUSH0 PUSH1 0x20 DUP3 DUP5 SUB SLT ISZERO PUSH2 0x36F5 JUMPI PUSH0 PUSH0 REVERT JUMPDEST POP CALLDATALOAD SWAP2 SWAP1 POP JUMP JUMPDEST PUSH0 PUSH0 PUSH0 PUSH1 0x60 DUP5 DUP7 SUB SLT ISZERO PUSH2 0x370E JUMPI PUSH0 PUSH0 REVERT JUMPDEST DUP4 CALLDATALOAD PUSH2 0x3719 DUP2 PUSH2 0x36A7 JUMP JUMPDEST SWAP3 POP PUSH1 0x20 DUP5 ADD CALLDATALOAD PUSH2 0x3729 DUP2 PUSH2 0x36A7 JUMP JUMPDEST SWAP3 SWAP6 SWAP3 SWAP5 POP POP POP PUSH1 0x40 SWAP2 SWAP1 SWAP2 ADD CALLDATALOAD SWAP1 JUMP JUMPDEST PUSH0 PUSH1 0x20 DUP3 DUP5 SUB SLT ISZERO PUSH2 0x374A JUMPI PUSH0 PUSH0 REVERT JUMPDEST DUP2 CALLDATALOAD PUSH2 0x16C0 DUP2 PUSH2 0x36A7 JUMP JUMPDEST PUSH0 DUP2 MLOAD DUP1 DUP5 MSTORE PUSH1 0x20 DUP5 ADD SWAP4 POP PUSH1 0x20 DUP4 ADD PUSH0 JUMPDEST DUP3 DUP2 LT ISZERO PUSH2 0x378E JUMPI DUP2 MLOAD PUSH1 0x1 PUSH1 0x1 PUSH1 0xA0 SHL SUB AND DUP7 MSTORE PUSH1 0x20 SWAP6 DUP7 ADD SWAP6 SWAP1 SWAP2 ADD SWAP1 PUSH1 0x1 ADD PUSH2 0x3767 JUMP JUMPDEST POP SWAP4 SWAP5 SWAP4 POP POP POP POP JUMP JUMPDEST PUSH1 0x20 DUP2 MSTORE PUSH0 PUSH2 0x16C0 PUSH1 0x20 DUP4 ADD DUP5 PUSH2 0x3755 JUMP JUMPDEST PUSH0 PUSH0 PUSH1 0x40 DUP4 DUP6 SUB SLT ISZERO PUSH2 0x37BB JUMPI PUSH0 PUSH0 REVERT JUMPDEST DUP3 CALLDATALOAD PUSH2 0x37C6 DUP2 PUSH2 0x36A7 JUMP JUMPDEST SWAP2 POP PUSH1 0x20 DUP4 ADD CALLDATALOAD PUSH2 0x37D6 DUP2 PUSH2 0x36A7 JUMP JUMPDEST DUP1 SWAP2 POP POP SWAP3 POP SWAP3 SWAP1 POP JUMP JUMPDEST PUSH4 0x4E487B71 PUSH1 0xE0 SHL PUSH0 MSTORE PUSH1 0x41 PUSH1 0x4 MSTORE PUSH1 0x24 PUSH0 REVERT JUMPDEST PUSH4 0x4E487B71 PUSH1 0xE0 SHL PUSH0 MSTORE PUSH1 0x32 PUSH1 0x4 MSTORE PUSH1 0x24 PUSH0 REVERT JUMPDEST DUP5 DUP2 MSTORE PUSH1 0x80 PUSH1 0x20 DUP3 ADD MSTORE PUSH0 PUSH2 0x3821 PUSH1 0x80 DUP4 ADD DUP7 PUSH2 0x3755 JUMP JUMPDEST PUSH1 0x1 PUSH1 0x1 PUSH1 0xA0 SHL SUB SWAP5 SWAP1 SWAP5 AND PUSH1 0x40 DUP4 ADD MSTORE POP PUSH1 0x60 ADD MSTORE SWAP3 SWAP2 POP POP JUMP JUMPDEST PUSH0 PUSH0 PUSH0 PUSH1 0x60 DUP5 DUP7 SUB SLT ISZERO PUSH2 0x384F JUMPI PUSH0 PUSH0 REVERT JUMPDEST POP POP DUP2 MLOAD PUSH1 0x20 DUP4 ADD MLOAD PUSH1 0x40 SWAP1 SWAP4 ADD MLOAD SWAP1 SWAP5 SWAP3 SWAP4 POP SWAP2 SWAP1 POP JUMP JUMPDEST PUSH1 0x1 DUP2 DUP2 SHR SWAP1 DUP3 AND DUP1 PUSH2 0x387C JUMPI PUSH1 0x7F DUP3 AND SWAP2 POP JUMPDEST PUSH1 0x20 DUP3 LT DUP2 SUB PUSH2 0x35FA JUMPI PUSH4 0x4E487B71 PUSH1 0xE0 SHL PUSH0 MSTORE PUSH1 0x22 PUSH1 0x4 MSTORE PUSH1 0x24 PUSH0 REVERT JUMPDEST DUP1 MLOAD PUSH1 0x1 PUSH1 0x1 PUSH1 0x70 SHL SUB DUP2 AND DUP2 EQ PUSH2 0x2B6E JUMPI PUSH0 PUSH0 REVERT JUMPDEST PUSH0 PUSH0 PUSH0 PUSH1 0x60 DUP5 DUP7 SUB SLT ISZERO PUSH2 0x38C2 JUMPI PUSH0 PUSH0 REVERT JUMPDEST PUSH2 0x38CB DUP5 PUSH2 0x389A JUMP JUMPDEST SWAP3 POP PUSH2 0x38D9 PUSH1 0x20 DUP6 ADD PUSH2 0x389A JUMP JUMPDEST SWAP2 POP PUSH1 0x40 DUP5 ADD MLOAD PUSH4 0xFFFFFFFF DUP2 AND DUP2 EQ PUSH2 0x38F1 JUMPI PUSH0 PUSH0 REVERT JUMPDEST DUP1 SWAP2 POP POP SWAP3 POP SWAP3 POP SWAP3 JUMP JUMPDEST PUSH0 PUSH1 0x20 DUP3 DUP5 SUB SLT ISZERO PUSH2 0x390C JUMPI PUSH0 PUSH0 REVERT JUMPDEST DUP2 MLOAD PUSH2 0x16C0 DUP2 PUSH2 0x36A7 JUMP JUMPDEST DUP2 DUP2 SUB DUP2 DUP2 GT ISZERO PUSH2 0xBF8 JUMPI PUSH2 0xBF8 PUSH2 0x362C JUMP JUMPDEST PUSH0 PUSH1 0x20 DUP3 DUP5 SUB SLT ISZERO PUSH2 0x393A JUMPI PUSH0 PUSH0 REVERT JUMPDEST POP MLOAD SWAP2 SWAP1 POP JUMP JUMPDEST PUSH0 PUSH1 0x20 DUP3 DUP5 SUB SLT ISZERO PUSH2 0x3951 JUMPI PUSH0 PUSH0 REVERT JUMPDEST DUP2 MLOAD DUP1 ISZERO ISZERO DUP2 EQ PUSH2 0x16C0 JUMPI PUSH0 PUSH0 REVERT JUMPDEST PUSH0 PUSH1 0xFF DUP3 AND PUSH1 0xFF DUP2 SUB PUSH2 0x3975 JUMPI PUSH2 0x3975 PUSH2 0x362C JUMP JUMPDEST PUSH1 0x1 ADD SWAP3 SWAP2 POP POP JUMP JUMPDEST DUP1 DUP3 MUL DUP2 ISZERO DUP3 DUP3 DIV DUP5 EQ OR PUSH2 0xBF8 JUMPI PUSH2 0xBF8 PUSH2 0x362C JUMP JUMPDEST DUP6 DUP2 MSTORE DUP5 PUSH1 0x20 DUP3 ADD MSTORE PUSH1 0xA0 PUSH1 0x40 DUP3 ADD MSTORE PUSH0 PUSH2 0x39B3 PUSH1 0xA0 DUP4 ADD DUP7 PUSH2 0x3755 JUMP JUMPDEST PUSH1 0x1 PUSH1 0x1 PUSH1 0xA0 SHL SUB SWAP5 SWAP1 SWAP5 AND PUSH1 0x60 DUP4 ADD MSTORE POP PUSH1 0x80 ADD MSTORE SWAP4 SWAP3 POP POP POP JUMP JUMPDEST DUP3 DUP2 MSTORE PUSH1 0x40 PUSH1 0x20 DUP3 ADD MSTORE PUSH0 PUSH2 0x39E8 PUSH1 0x40 DUP4 ADD DUP5 PUSH2 0x3755 JUMP JUMPDEST SWAP5 SWAP4 POP POP POP POP JUMP JUMPDEST PUSH0 PUSH1 0x20 DUP3 DUP5 SUB SLT ISZERO PUSH2 0x3A00 JUMPI PUSH0 PUSH0 REVERT JUMPDEST DUP2 MLOAD PUSH8 0xFFFFFFFFFFFFFFFF DUP2 GT ISZERO PUSH2 0x3A16 JUMPI PUSH0 PUSH0 REVERT JUMPDEST DUP3 ADD PUSH1 0x1F DUP2 ADD DUP5 SGT PUSH2 0x3A26 JUMPI PUSH0 PUSH0 REVERT JUMPDEST DUP1 MLOAD PUSH8 0xFFFFFFFFFFFFFFFF DUP2 GT ISZERO PUSH2 0x3A40 JUMPI PUSH2 0x3A40 PUSH2 0x37E1 JUMP JUMPDEST DUP1 PUSH1 0x5 SHL PUSH1 0x40 MLOAD PUSH1 0x1F NOT PUSH1 0x3F DUP4 ADD AND DUP2 ADD DUP2 DUP2 LT PUSH8 0xFFFFFFFFFFFFFFFF DUP3 GT OR ISZERO PUSH2 0x3A6D JUMPI PUSH2 0x3A6D PUSH2 0x37E1 JUMP JUMPDEST PUSH1 0x40 MSTORE SWAP2 DUP3 MSTORE PUSH1 0x20 DUP2 DUP5 ADD DUP2 ADD SWAP3 SWAP1 DUP2 ADD DUP8 DUP5 GT ISZERO PUSH2 0x3A8A JUMPI PUSH0 PUSH0 REVERT JUMPDEST PUSH1 0x20 DUP6 ADD SWAP5 POP JUMPDEST DUP4 DUP6 LT ISZERO PUSH2 0x3AAD JUMPI DUP5 MLOAD DUP1 DUP3 MSTORE PUSH1 0x20 SWAP6 DUP7 ADD SWAP6 SWAP1 SWAP4 POP ADD PUSH2 0x3A91 JUMP JUMPDEST POP SWAP7 SWAP6 POP POP POP POP POP POP JUMP JUMPDEST PUSH0 PUSH1 0x1 DUP3 ADD PUSH2 0x3AC9 JUMPI PUSH2 0x3AC9 PUSH2 0x362C JUMP JUMPDEST POP PUSH1 0x1 ADD SWAP1 JUMP JUMPDEST PUSH0 DUP3 MLOAD DUP1 PUSH1 0x20 DUP6 ADD DUP5 MCOPY PUSH0 SWAP3 ADD SWAP2 DUP3 MSTORE POP SWAP2 SWAP1 POP JUMP INVALID LOG2 PUSH5 0x6970667358 0x22 SLT KECCAK256 BLOBHASH ORIGIN SELFDESTRUCT 0xBC CALLDATACOPY DUP4 SWAP3 0xC9 PUSH23 0xD77439FC2008228093A10B07573279A7B39AC628F3A1E1 PUSH5 0x736F6C6343 STOP ADDMOD 0x22 STOP CALLER PUSH1 0x80 PUSH1 0x40 MSTORE CALLVALUE DUP1 ISZERO PUSH1 0xE JUMPI PUSH0 PUSH0 REVERT JUMPDEST POP CALLER PUSH0 SWAP1 DUP2 MSTORE PUSH1 0x20 DUP2 SWAP1 MSTORE PUSH1 0x40 SWAP1 KECCAK256 DUP1 SLOAD PUSH1 0xFF NOT AND PUSH1 0x1 OR SWAP1 SSTORE PUSH2 0x180 DUP1 PUSH2 0x35 PUSH0 CODECOPY PUSH0 RETURN INVALID PUSH1 0x80 PUSH1 0x40 MSTORE CALLVALUE DUP1 ISZERO PUSH2 0xF JUMPI PUSH0 PUSH0 REVERT JUMPDEST POP PUSH1 0x4 CALLDATASIZE LT PUSH2 0x29 JUMPI PUSH0 CALLDATALOAD PUSH1 0xE0 SHR DUP1 PUSH4 0x125BFB66 EQ PUSH2 0x2D JUMPI JUMPDEST PUSH0 PUSH0 REVERT JUMPDEST PUSH2 0x40 PUSH2 0x3B CALLDATASIZE PUSH1 0x4 PUSH2 0xEB JUMP JUMPDEST PUSH2 0x42 JUMP JUMPDEST STOP JUMPDEST CALLER PUSH0 SWAP1 DUP2 MSTORE PUSH1 0x20 DUP2 SWAP1 MSTORE PUSH1 0x40 SWAP1 KECCAK256 SLOAD PUSH1 0xFF AND ISZERO PUSH2 0xCB JUMPI PUSH1 0x40 MLOAD PUSH4 0xA9059CBB PUSH1 0xE0 SHL DUP2 MSTORE PUSH1 0x1 PUSH1 0x1 PUSH1 0xA0 SHL SUB DUP4 DUP2 AND PUSH1 0x4 DUP4 ADD MSTORE PUSH1 0x24 DUP3 ADD DUP4 SWAP1 MSTORE DUP5 AND SWAP1 PUSH4 0xA9059CBB SWAP1 PUSH1 0x44 ADD PUSH1 0x20 PUSH1 0x40 MLOAD DUP1 DUP4 SUB DUP2 PUSH0 DUP8 GAS CALL ISZERO DUP1 ISZERO PUSH2 0xA5 JUMPI RETURNDATASIZE PUSH0 PUSH0 RETURNDATACOPY RETURNDATASIZE PUSH0 REVERT JUMPDEST POP POP POP POP PUSH1 0x40 MLOAD RETURNDATASIZE PUSH1 0x1F NOT PUSH1 0x1F DUP3 ADD AND DUP3 ADD DUP1 PUSH1 0x40 MSTORE POP DUP2 ADD SWAP1 PUSH2 0xC9 SWAP2 SWAP1 PUSH2 0x124 JUMP JUMPDEST POP JUMPDEST POP POP POP JUMP JUMPDEST DUP1 CALLDATALOAD PUSH1 0x1 PUSH1 0x1 PUSH1 0xA0 SHL SUB DUP2 AND DUP2 EQ PUSH2 0xE6 JUMPI PUSH0 PUSH0 REVERT JUMPDEST SWAP2 SWAP1 POP JUMP JUMPDEST PUSH0 PUSH0 PUSH0 PUSH1 0x60 DUP5 DUP7 SUB SLT ISZERO PUSH2 0xFD JUMPI PUSH0 PUSH0 REVERT JUMPDEST PUSH2 0x106 DUP5 PUSH2 0xD0 JUMP JUMPDEST SWAP3 POP PUSH2 0x114 PUSH1 0x20 DUP6 ADD PUSH2 0xD0 JUMP JUMPDEST SWAP2 POP PUSH1 0x40 DUP5 ADD CALLDATALOAD SWAP1 POP SWAP3 POP SWAP3 POP SWAP3 JUMP JUMPDEST PUSH0 PUSH1 0x20 DUP3 DUP5 SUB SLT ISZERO PUSH2 0x134 JUMPI PUSH0 PUSH0 REVERT JUMPDEST DUP2 MLOAD DUP1 ISZERO ISZERO DUP2 EQ PUSH2 0x143 JUMPI PUSH0 PUSH0 REVERT JUMPDEST SWAP4 SWAP3 POP POP POP JUMP INVALID LOG2 PUSH5 0x6970667358 0x22 SLT KECCAK256 SGT 0xCE 0xD6 0xDC 0xC4 0x2B SWAP14 0x2C GAS 0xAF RETURNCONTRACT 0x24 PUSH27 0x3739B9673CB43B76A0376BE9CB7A50BB922FA264736F6C63430008 0x22 STOP CALLER "
		},
		"gasEstimates": {
			"creation": {
				"codeDepositCost": "3026400",
				"executionCost": "infinite",
				"totalCost": "infinite"
			},
			"external": {
				"FUSE_THRESHOLD()": "2427",
				"MIN_AMOUNT()": "2338",
				"WBNB()": "2448",
				"_uniswapPair()": "2381",
				"_uniswapV2Router()": "infinite",
				"allowance(address,address)": "infinite",
				"approve(address,uint256)": "24774",
				"balanceOf(address)": "2642",
				"calculateRewardRates()": "infinite",
				"calculateStaticReward(address)": "infinite",
				"decimals()": "310",
				"fundRewardTotal()": "2362",
				"fused()": "2438",
				"fusing()": "infinite",
				"getCirculation()": "4560",
				"getDynamicRewardRate(uint256)": "537",
				"getPoolTokenAmount()": "infinite",
				"getUpsChildList(address)": "infinite",
				"isCanBindInviter(address,address)": "infinite",
				"name()": "infinite",
				"nft()": "2470",
				"nftRewardTotal()": "2383",
				"nodes(uint256)": "4679",
				"owner()": "2420",
				"pool()": "2449",
				"preUps(address,address)": "infinite",
				"renounceOwnership()": "infinite",
				"sediment()": "infinite",
				"setNFT(address)": "26837",
				"setStartTime(uint256)": "24554",
				"startTime()": "2340",
				"symbol()": "infinite",
				"totalSupply()": "2337",
				"transfer(address,uint256)": "infinite",
				"transferFrom(address,address,uint256)": "infinite",
				"transferOwnership(address)": "infinite",
				"users(address)": "17646",
				"usersBuyTime(address)": "2577"
			},
			"internal": {
				"_update(address,address,uint256)": "infinite",
				"calculateDynamicReward(address,uint256)": "infinite",
				"distributeLPReward(uint256)": "infinite",
				"getBNBForTokenAmount(uint256)": "infinite",
				"getFeeLP(uint256,uint256,uint256)": "infinite",
				"isAddLiquidity(uint256)": "infinite",
				"isRemoveLiquidity()": "infinite",
				"min(uint256,uint256)": "60",
				"processStaticReward(address)": "infinite",
				"safeTransferETH(address,uint256)": "infinite",
				"sellFee()": "infinite",
				"sqrt(uint256)": "infinite",
				"swapAndAddLiquidity(uint256)": "infinite",
				"swapTokenAndAddLiquidity(uint256)": "infinite"
			}
		},
		"methodIdentifiers": {
			"FUSE_THRESHOLD()": "b4a2e463",
			"MIN_AMOUNT()": "ddbcb5fa",
			"WBNB()": "8dd95002",
			"_uniswapPair()": "4bf28fd0",
			"_uniswapV2Router()": "583e0568",
			"allowance(address,address)": "dd62ed3e",
			"approve(address,uint256)": "095ea7b3",
			"balanceOf(address)": "70a08231",
			"calculateRewardRates()": "6d476a77",
			"calculateStaticReward(address)": "e8e8fe04",
			"decimals()": "313ce567",
			"fundRewardTotal()": "7f054455",
			"fused()": "2529d1a3",
			"fusing()": "47ab459c",
			"getCirculation()": "bf151cb8",
			"getDynamicRewardRate(uint256)": "3d471d57",
			"getPoolTokenAmount()": "09d46746",
			"getUpsChildList(address)": "440b30e7",
			"isCanBindInviter(address,address)": "d1227343",
			"name()": "06fdde03",
			"nft()": "47ccca02",
			"nftRewardTotal()": "cca3c5ff",
			"nodes(uint256)": "1c53c280",
			"owner()": "8da5cb5b",
			"pool()": "16f0115b",
			"preUps(address,address)": "fd36e3c6",
			"renounceOwnership()": "715018a6",
			"sediment()": "c82c3cbf",
			"setNFT(address)": "f56e9c66",
			"setStartTime(uint256)": "3e0a322d",
			"startTime()": "78e97925",
			"symbol()": "95d89b41",
			"totalSupply()": "18160ddd",
			"transfer(address,uint256)": "a9059cbb",
			"transferFrom(address,address,uint256)": "23b872dd",
			"transferOwnership(address)": "f2fde38b",
			"users(address)": "a87430ba",
			"usersBuyTime(address)": "a52ee3af"
		}
	},
	"abi": [
		{
			"inputs": [
				{
					"internalType": "address",
					"name": "user_",
					"type": "address"
				},
				{
					"internalType": "address",
					"name": "fund_",
					"type": "address"
				},
				{
					"internalType": "address",
					"name": "fee_",
					"type": "address"
				}
			],
			"stateMutability": "nonpayable",
			"type": "constructor"
		},
		{
			"inputs": [
				{
					"internalType": "address",
					"name": "spender",
					"type": "address"
				},
				{
					"internalType": "uint256",
					"name": "allowance",
					"type": "uint256"
				},
				{
					"internalType": "uint256",
					"name": "needed",
					"type": "uint256"
				}
			],
			"name": "ERC20InsufficientAllowance",
			"type": "error"
		},
		{
			"inputs": [
				{
					"internalType": "address",
					"name": "sender",
					"type": "address"
				},
				{
					"internalType": "uint256",
					"name": "balance",
					"type": "uint256"
				},
				{
					"internalType": "uint256",
					"name": "needed",
					"type": "uint256"
				}
			],
			"name": "ERC20InsufficientBalance",
			"type": "error"
		},
		{
			"inputs": [
				{
					"internalType": "address",
					"name": "approver",
					"type": "address"
				}
			],
			"name": "ERC20InvalidApprover",
			"type": "error"
		},
		{
			"inputs": [
				{
					"internalType": "address",
					"name": "receiver",
					"type": "address"
				}
			],
			"name": "ERC20InvalidReceiver",
			"type": "error"
		},
		{
			"inputs": [
				{
					"internalType": "address",
					"name": "sender",
					"type": "address"
				}
			],
			"name": "ERC20InvalidSender",
			"type": "error"
		},
		{
			"inputs": [
				{
					"internalType": "address",
					"name": "spender",
					"type": "address"
				}
			],
			"name": "ERC20InvalidSpender",
			"type": "error"
		},
		{
			"inputs": [],
			"name": "InvalidTransfer",
			"type": "error"
		},
		{
			"inputs": [],
			"name": "NodeAlreadyExist",
			"type": "error"
		},
		{
			"inputs": [
				{
					"internalType": "address",
					"name": "owner",
					"type": "address"
				}
			],
			"name": "OwnableInvalidOwner",
			"type": "error"
		},
		{
			"inputs": [
				{
					"internalType": "address",
					"name": "account",
					"type": "address"
				}
			],
			"name": "OwnableUnauthorizedAccount",
			"type": "error"
		},
		{
			"anonymous": false,
			"inputs": [
				{
					"indexed": true,
					"internalType": "address",
					"name": "owner",
					"type": "address"
				},
				{
					"indexed": true,
					"internalType": "address",
					"name": "spender",
					"type": "address"
				},
				{
					"indexed": false,
					"internalType": "uint256",
					"name": "value",
					"type": "uint256"
				}
			],
			"name": "Approval",
			"type": "event"
		},
		{
			"anonymous": false,
			"inputs": [
				{
					"indexed": true,
					"internalType": "address",
					"name": "up",
					"type": "address"
				},
				{
					"indexed": true,
					"internalType": "address",
					"name": "down",
					"type": "address"
				}
			],
			"name": "BindEvent",
			"type": "event"
		},
		{
			"anonymous": false,
			"inputs": [
				{
					"indexed": true,
					"internalType": "address",
					"name": "invite",
					"type": "address"
				},
				{
					"indexed": false,
					"internalType": "uint256",
					"name": "amount",
					"type": "uint256"
				}
			],
			"name": "InvestEvent",
			"type": "event"
		},
		{
			"anonymous": false,
			"inputs": [
				{
					"indexed": true,
					"internalType": "address",
					"name": "previousOwner",
					"type": "address"
				},
				{
					"indexed": true,
					"internalType": "address",
					"name": "newOwner",
					"type": "address"
				}
			],
			"name": "OwnershipTransferred",
			"type": "event"
		},
		{
			"anonymous": false,
			"inputs": [
				{
					"indexed": true,
					"internalType": "address",
					"name": "from",
					"type": "address"
				},
				{
					"indexed": true,
					"internalType": "address",
					"name": "to",
					"type": "address"
				},
				{
					"indexed": false,
					"internalType": "uint256",
					"name": "value",
					"type": "uint256"
				}
			],
			"name": "Transfer",
			"type": "event"
		},
		{
			"inputs": [],
			"name": "FUSE_THRESHOLD",
			"outputs": [
				{
					"internalType": "uint256",
					"name": "",
					"type": "uint256"
				}
			],
			"stateMutability": "view",
			"type": "function"
		},
		{
			"inputs": [],
			"name": "MIN_AMOUNT",
			"outputs": [
				{
					"internalType": "uint256",
					"name": "",
					"type": "uint256"
				}
			],
			"stateMutability": "view",
			"type": "function"
		},
		{
			"inputs": [],
			"name": "WBNB",
			"outputs": [
				{
					"internalType": "address",
					"name": "",
					"type": "address"
				}
			],
			"stateMutability": "view",
			"type": "function"
		},
		{
			"inputs": [],
			"name": "_uniswapPair",
			"outputs": [
				{
					"internalType": "address",
					"name": "",
					"type": "address"
				}
			],
			"stateMutability": "view",
			"type": "function"
		},
		{
			"inputs": [],
			"name": "_uniswapV2Router",
			"outputs": [
				{
					"internalType": "contract IUniswapV2Router02",
					"name": "",
					"type": "address"
				}
			],
			"stateMutability": "view",
			"type": "function"
		},
		{
			"inputs": [
				{
					"internalType": "address",
					"name": "owner",
					"type": "address"
				},
				{
					"internalType": "address",
					"name": "spender",
					"type": "address"
				}
			],
			"name": "allowance",
			"outputs": [
				{
					"internalType": "uint256",
					"name": "",
					"type": "uint256"
				}
			],
			"stateMutability": "view",
			"type": "function"
		},
		{
			"inputs": [
				{
					"internalType": "address",
					"name": "spender",
					"type": "address"
				},
				{
					"internalType": "uint256",
					"name": "value",
					"type": "uint256"
				}
			],
			"name": "approve",
			"outputs": [
				{
					"internalType": "bool",
					"name": "",
					"type": "bool"
				}
			],
			"stateMutability": "nonpayable",
			"type": "function"
		},
		{
			"inputs": [
				{
					"internalType": "address",
					"name": "account",
					"type": "address"
				}
			],
			"name": "balanceOf",
			"outputs": [
				{
					"internalType": "uint256",
					"name": "",
					"type": "uint256"
				}
			],
			"stateMutability": "view",
			"type": "function"
		},
		{
			"inputs": [],
			"name": "calculateRewardRates",
			"outputs": [
				{
					"internalType": "uint256",
					"name": "staticRate",
					"type": "uint256"
				},
				{
					"internalType": "uint256",
					"name": "dynamicRate",
					"type": "uint256"
				},
				{
					"internalType": "uint256",
					"name": "nftRate",
					"type": "uint256"
				},
				{
					"internalType": "uint256",
					"name": "projectRate",
					"type": "uint256"
				}
			],
			"stateMutability": "view",
			"type": "function"
		},
		{
			"inputs": [
				{
					"internalType": "address",
					"name": "user",
					"type": "address"
				}
			],
			"name": "calculateStaticReward",
			"outputs": [
				{
					"internalType": "uint256",
					"name": "",
					"type": "uint256"
				}
			],
			"stateMutability": "view",
			"type": "function"
		},
		{
			"inputs": [],
			"name": "decimals",
			"outputs": [
				{
					"internalType": "uint8",
					"name": "",
					"type": "uint8"
				}
			],
			"stateMutability": "view",
			"type": "function"
		},
		{
			"inputs": [],
			"name": "fundRewardTotal",
			"outputs": [
				{
					"internalType": "uint256",
					"name": "",
					"type": "uint256"
				}
			],
			"stateMutability": "view",
			"type": "function"
		},
		{
			"inputs": [],
			"name": "fused",
			"outputs": [
				{
					"internalType": "bool",
					"name": "",
					"type": "bool"
				}
			],
			"stateMutability": "view",
			"type": "function"
		},
		{
			"inputs": [],
			"name": "fusing",
			"outputs": [],
			"stateMutability": "nonpayable",
			"type": "function"
		},
		{
			"inputs": [],
			"name": "getCirculation",
			"outputs": [
				{
					"internalType": "uint256",
					"name": "",
					"type": "uint256"
				}
			],
			"stateMutability": "view",
			"type": "function"
		},
		{
			"inputs": [
				{
					"internalType": "uint256",
					"name": "generation",
					"type": "uint256"
				}
			],
			"name": "getDynamicRewardRate",
			"outputs": [
				{
					"internalType": "uint256",
					"name": "",
					"type": "uint256"
				}
			],
			"stateMutability": "pure",
			"type": "function"
		},
		{
			"inputs": [],
			"name": "getPoolTokenAmount",
			"outputs": [
				{
					"internalType": "uint256",
					"name": "",
					"type": "uint256"
				}
			],
			"stateMutability": "view",
			"type": "function"
		},
		{
			"inputs": [
				{
					"internalType": "address",
					"name": "account",
					"type": "address"
				}
			],
			"name": "getUpsChildList",
			"outputs": [
				{
					"internalType": "address[]",
					"name": "",
					"type": "address[]"
				}
			],
			"stateMutability": "view",
			"type": "function"
		},
		{
			"inputs": [
				{
					"internalType": "address",
					"name": "from",
					"type": "address"
				},
				{
					"internalType": "address",
					"name": "to",
					"type": "address"
				}
			],
			"name": "isCanBindInviter",
			"outputs": [
				{
					"internalType": "bool",
					"name": "",
					"type": "bool"
				}
			],
			"stateMutability": "view",
			"type": "function"
		},
		{
			"inputs": [],
			"name": "name",
			"outputs": [
				{
					"internalType": "string",
					"name": "",
					"type": "string"
				}
			],
			"stateMutability": "view",
			"type": "function"
		},
		{
			"inputs": [],
			"name": "nft",
			"outputs": [
				{
					"internalType": "address",
					"name": "",
					"type": "address"
				}
			],
			"stateMutability": "view",
			"type": "function"
		},
		{
			"inputs": [],
			"name": "nftRewardTotal",
			"outputs": [
				{
					"internalType": "uint256",
					"name": "",
					"type": "uint256"
				}
			],
			"stateMutability": "view",
			"type": "function"
		},
		{
			"inputs": [
				{
					"internalType": "uint256",
					"name": "",
					"type": "uint256"
				}
			],
			"name": "nodes",
			"outputs": [
				{
					"internalType": "address",
					"name": "",
					"type": "address"
				}
			],
			"stateMutability": "view",
			"type": "function"
		},
		{
			"inputs": [],
			"name": "owner",
			"outputs": [
				{
					"internalType": "address",
					"name": "",
					"type": "address"
				}
			],
			"stateMutability": "view",
			"type": "function"
		},
		{
			"inputs": [],
			"name": "pool",
			"outputs": [
				{
					"internalType": "contract Pool",
					"name": "",
					"type": "address"
				}
			],
			"stateMutability": "view",
			"type": "function"
		},
		{
			"inputs": [
				{
					"internalType": "address",
					"name": "",
					"type": "address"
				},
				{
					"internalType": "address",
					"name": "",
					"type": "address"
				}
			],
			"name": "preUps",
			"outputs": [
				{
					"internalType": "bool",
					"name": "",
					"type": "bool"
				}
			],
			"stateMutability": "view",
			"type": "function"
		},
		{
			"inputs": [],
			"name": "renounceOwnership",
			"outputs": [],
			"stateMutability": "nonpayable",
			"type": "function"
		},
		{
			"inputs": [],
			"name": "sediment",
			"outputs": [],
			"stateMutability": "nonpayable",
			"type": "function"
		},
		{
			"inputs": [
				{
					"internalType": "address",
					"name": "_nft",
					"type": "address"
				}
			],
			"name": "setNFT",
			"outputs": [],
			"stateMutability": "nonpayable",
			"type": "function"
		},
		{
			"inputs": [
				{
					"internalType": "uint256",
					"name": "startTime_",
					"type": "uint256"
				}
			],
			"name": "setStartTime",
			"outputs": [],
			"stateMutability": "nonpayable",
			"type": "function"
		},
		{
			"inputs": [],
			"name": "startTime",
			"outputs": [
				{
					"internalType": "uint256",
					"name": "",
					"type": "uint256"
				}
			],
			"stateMutability": "view",
			"type": "function"
		},
		{
			"inputs": [],
			"name": "symbol",
			"outputs": [
				{
					"internalType": "string",
					"name": "",
					"type": "string"
				}
			],
			"stateMutability": "view",
			"type": "function"
		},
		{
			"inputs": [],
			"name": "totalSupply",
			"outputs": [
				{
					"internalType": "uint256",
					"name": "",
					"type": "uint256"
				}
			],
			"stateMutability": "view",
			"type": "function"
		},
		{
			"inputs": [
				{
					"internalType": "address",
					"name": "to",
					"type": "address"
				},
				{
					"internalType": "uint256",
					"name": "value",
					"type": "uint256"
				}
			],
			"name": "transfer",
			"outputs": [
				{
					"internalType": "bool",
					"name": "",
					"type": "bool"
				}
			],
			"stateMutability": "nonpayable",
			"type": "function"
		},
		{
			"inputs": [
				{
					"internalType": "address",
					"name": "from",
					"type": "address"
				},
				{
					"internalType": "address",
					"name": "to",
					"type": "address"
				},
				{
					"internalType": "uint256",
					"name": "value",
					"type": "uint256"
				}
			],
			"name": "transferFrom",
			"outputs": [
				{
					"internalType": "bool",
					"name": "",
					"type": "bool"
				}
			],
			"stateMutability": "nonpayable",
			"type": "function"
		},
		{
			"inputs": [
				{
					"internalType": "address",
					"name": "newOwner",
					"type": "address"
				}
			],
			"name": "transferOwnership",
			"outputs": [],
			"stateMutability": "nonpayable",
			"type": "function"
		},
		{
			"inputs": [
				{
					"internalType": "address",
					"name": "",
					"type": "address"
				}
			],
			"name": "users",
			"outputs": [
				{
					"internalType": "address",
					"name": "up",
					"type": "address"
				},
				{
					"internalType": "uint256",
					"name": "bnbTotal",
					"type": "uint256"
				},
				{
					"internalType": "uint256",
					"name": "lpTotal",
					"type": "uint256"
				},
				{
					"internalType": "uint256",
					"name": "staticDrawAt",
					"type": "uint256"
				},
				{
					"internalType": "uint256",
					"name": "directTotal",
					"type": "uint256"
				},
				{
					"internalType": "uint256",
					"name": "directBuyTotal",
					"type": "uint256"
				},
				{
					"internalType": "uint256",
					"name": "validTotal",
					"type": "uint256"
				},
				{
					"internalType": "bool",
					"name": "staticDrawStatus",
					"type": "bool"
				},
				{
					"internalType": "bool",
					"name": "isBuy",
					"type": "bool"
				}
			],
			"stateMutability": "view",
			"type": "function"
		},
		{
			"inputs": [
				{
					"internalType": "address",
					"name": "",
					"type": "address"
				}
			],
			"name": "usersBuyTime",
			"outputs": [
				{
					"internalType": "uint256",
					"name": "",
					"type": "uint256"
				}
			],
			"stateMutability": "view",
			"type": "function"
		},
		{
			"stateMutability": "payable",
			"type": "receive"
		}
	]
}