{
	"data": {
		"bytecode": {
			"linkReferences": {},
			"object": "60a06040526a52b7d2dcc80cd2e400000060115566071afd498d0000601455601780546001600160a01b03191673e6a45d5f3e5d38103f9b1358672ded68fdf6835f1790556019805460ff60a81b1916600160a81b179055348015610062575f5ffd5b50604051618aed380380618aed8339810160408190526100819161335f565b6040805180820182526005808252642927a6a0a760d91b6020808401829052845180860190955291845290830152339160036100bd8382613433565b5060046100ca8282613433565b5050506001600160a01b0381166100fb57604051631e4fbdf760e01b81525f60048201526024015b60405180910390fd5b6101048161033b565b5073d99d1c33f9fc3444f8101754abc46c52416550d16080819052604080516315ab88c960e31b8152905163ad5c4648916004808201926020929091908290030181865afa158015610158573d5f5f3e3d5ffd5b505050506040513d601f19601f8201168201806040525081019061017c91906134ed565b600b5f6101000a8154816001600160a01b0302191690836001600160a01b031602179055506080516001600160a01b031663c45a01556040518163ffffffff1660e01b8152600401602060405180830381865afa1580156101df573d5f5f3e3d5ffd5b505050506040513d601f19601f8201168201806040525081019061020391906134ed565b600b546040516364e329cb60e11b81523060048201526001600160a01b03918216602482015291169063c9c65396906044016020604051808303815f875af1158015610251573d5f5f3e3d5ffd5b505050506040513d601f19601f8201168201806040525081019061027591906134ed565b600680546001600160a01b03199081166001600160a01b0393841617909155601880548216858416179055601980549091169183169190911790556040516102bc9061333c565b604051809103905ff0801580156102d5573d5f5f3e3d5ffd5b50601080546001600160a01b0319166001600160a01b03929092169190911790556369aaba1f601581905561030d9062278d0061351a565b601655610333836103206012600a613610565b61032e90633b9aca0061361e565b61038c565b50505061392b565b600580546001600160a01b038381166001600160a01b0319831681179093556040519116919082907f8be0079c531659141344cd1fd0a4f28419497f9722a3daafe3b4186f6b6457e0905f90a35050565b6001600160a01b0382166103b55760405163ec442f0560e01b81525f60048201526024016100f2565b6103c05f83836103c4565b5050565b671bc16d674ec800008114801561040057506001600160a01b038083165f9081526007602090815260408083209387168352929052205460ff16155b80156104115750610411838361109a565b15610446576001600160a01b038084165f908152600760209081526040808320938616835292905220805460ff191660011790555b670de0b6b3a76400008114801561048157506001600160a01b038083165f9081526007602090815260408083209387168352929052205460ff165b80156104a457506001600160a01b038381165f908152600a602052604090205416155b1561052c576001600160a01b038381165f908152600a6020908152604080832080546001600160a01b031916948716948517905592825260089052206104ea90846111e3565b50816001600160a01b0316836001600160a01b03167f8d63f2e3d39eb6cf9c80d49bc203133f6f215ce2a1a3d27a68f0167f6c045d4860405160405180910390a35b6001600160a01b0382163014801561054357503332145b156105d6576001600160a01b0383165f908152601d602052604090205460ff16158015610579575068056bc75e2d631000008110155b801561058f575069152d02c7e14af68000008111155b801561059e5750601e5460ff16155b80156105c25750305f9081526020819052604090205469021e19e0c9bab240000011155b156105d6576105d183826111fe565b505050565b6001600160a01b038084165f908152600a6020908152604091829020825161016081018452815490941684526001810154918401919091526002810154918301919091526003810154606083015260048101546080830152600581015460a0830152600681015460c0830152600781015460e083015260088101546101008084019190915260099091015460ff8082161515610120850152919004161515610140820152333214801561068b57508061014001515b801561069a57505f8160400151115b80156106ae57506001600160a01b03831630145b156109ad57670de0b6b3a764000082036107e857601054600160a01b900460ff16156106ed57604051632f35253160e01b815260040160405180910390fd5b806101200151610754576001600160a01b0384165f908152600a60205260409020600901805460ff19166001179055610729426201518061351a565b6001600160a01b0385165f908152600a602052604090206003810191909155426004909101556107e8565b806101200151801561076a575080606001514210155b156107cf57610778846113f8565b610785426201518061351a565b6001600160a01b0385165f908152600a602052604090206003810191909155426004909101556107b6848484611723565b6107c93085670de0b6b3a7640000611723565b50505050565b604051632f35253160e01b815260040160405180910390fd5b678ac7230489e8000082036109a25742601554106108345760405162461bcd60e51b8152602060048201526009602482015268737461727454696d6560b81b60448201526064016100f2565b60408101518015610901575f610848611849565b90508015610883575f6064828560400151610863919061361e565b61086d9190613649565b905080846040015161087f919061365c565b9250505b81156108ff5760065460405163a9059cbb60e01b81526001600160a01b038881166004830152602482018590529091169063a9059cbb906044016020604051808303815f875af11580156108d9573d5f5f3e3d5ffd5b505050506040513d601f19601f820116820180604052508101906108fd919061366f565b505b505b6001600160a01b038086165f908152600a6020526040808220600981018054600283018590556001830185905561ffff1916905560048101839055600801829055845190921681522060070154156109855781516001600160a01b03165f908152600a6020526040812060070180546001929061097f90849061365c565b90915550505b610990858585611723565b61099b308685611723565b5050505050565b6107c9848484611723565b6001600160a01b0384163014806109cc57506001600160a01b03831630145b806109e457506010546001600160a01b038581169116145b806109fc57506010546001600160a01b038481169116145b15610a0c576107c9848484611723565b6006546001600160a01b0390811690851603610d22574260155410610a5f5760405162461bcd60e51b8152602060048201526009602482015268737461727454696d6560b81b60448201526064016100f2565b325f908152600960205260408120429055610a78611878565b1115610b4e575f80610a88611a0d565b90506b033b2e3c9fd0803ce80000008110610abb57600a610aaa85600961361e565b610ab49190613649565b9150610b1d565b6b019d971e4fe8401e740000008110610adb57600a610aaa85600661361e565b6a52b7d2dcc80cd2e40000008110610afa57600a610aaa85600461361e565b6a295be96e640669720000008110610b1957600a610aaa85600261361e565b8391505b610b2a8661dead84611723565b81841115610b4657610b468686610b41858861365c565b611723565b505050505050565b6064610b58611b11565b610b6390600561361e565b610b6d9190613649565b8210610ba75760405162461bcd60e51b815260206004820152600960248201526836b0bc103a37b5b2b760b91b60448201526064016100f2565b610baf611b51565b601c545f9060ff16610bc35761012c610bc7565b610b545b61ffff1690505f612710610bdb838661361e565b610be59190613649565b90505f612710610bf78661012c61361e565b610c019190613649565b601c549091505f9060ff168015610c1757508183115b15610c6757610c26828461365c565b90505f610c34600283613649565b9050610c41893083611723565b610c4b818361365c565b60125f828254610c5b919061351a565b92505081905550829350505b5f600a610c7585600761361e565b610c7f9190613649565b90508060125f828254610c92919061351a565b909155505f9050600a610ca686600161361e565b610cb09190613649565b9050610cbf8a61dead83611723565b5f81610ccb848861365c565b610cd5919061365c565b90508060135f828254610ce8919061351a565b90915550610cf990508b3085611723565b610d048b3083611723565b610d0e848761351a565b610d18908a61365c565b9850505050505050505b6006546001600160a01b039081169084160361109257601954600160a81b900460ff1615610e1e5760065460408051630240bc6b60e21b815290516001600160a01b03909216915f9182918491630902f1ac9160048083019260609291908290030181865afa158015610d97573d5f5f3e3d5ffd5b505050506040513d601f19601f82011682018060405250810190610dbb91906136a4565b5091509150816001600160701b03165f148015610ddf57506001600160701b038116155b8015610df45750601954600160a81b900460ff165b15610e1a576019805460ff60a81b19169055610e11878787611723565b50505050505050565b5050505b610e29600a4261365c565b325f9081526009602052604090205410610e6a5760405162461bcd60e51b815260206004820152600260248201526118d960f21b60448201526064016100f2565b5f610e7483611db0565b11611092574260155410610eb65760405162461bcd60e51b8152602060048201526009602482015268737461727454696d6560b81b60448201526064016100f2565b6064610ec0611b11565b610ecb90600a61361e565b610ed59190613649565b8210610f0f5760405162461bcd60e51b815260206004820152600960248201526836b0bc103a37b5b2b760b91b60448201526064016100f2565b610f17611b51565b601c545f9060ff16610f2b5761012c610f2f565b610b545b61ffff1690505f612710610f43838661361e565b610f4d9190613649565b90505f612710610f5f8661012c61361e565b610f699190613649565b601c549091505f9060ff168015610f7f57508183115b15610fcf57610f8e828461365c565b90505f610f9c600283613649565b9050610fa9893083611723565b610fb3818361365c565b60125f828254610fc3919061351a565b92505081905550829350505b5f600a610fdd85600761361e565b610fe79190613649565b90508060125f828254610ffa919061351a565b909155505f9050600a61100e86600161361e565b6110189190613649565b90506110278a61dead83611723565b5f81611033848861365c565b61103d919061365c565b90508060135f828254611050919061351a565b9091555061106190508b3085611723565b61106c8b3083611723565b611076848761351a565b611080908a61365c565b985061108a611fa8565b505050505050505b6109a26121e8565b6001600160a01b038281165f908152600a60205260408120549091161580156110d157506017546001600160a01b03848116911614155b80156110eb57506006546001600160a01b03838116911614155b801561110557506006546001600160a01b03848116911614155b1561111157505f6111dd565b6001600160a01b038084165f9081526007602090815260408083209386168352929052205460ff16806111555750816001600160a01b0316836001600160a01b0316145b1561116157505f6111dd565b815f5b6001600160a01b0382161580159061117f575060198160ff16105b156111d657846001600160a01b0316826001600160a01b0316036111a7575f925050506111dd565b6001600160a01b039182165f908152600a602052604090205490911690806111ce816136f0565b915050611164565b6001925050505b92915050565b5f6111f7836001600160a01b038416612367565b9392505050565b5f61120a600a8361370e565b90505f61121860028361370e565b1590505f61122760014361365c565b4090508061123e5761123a60024361365c565b4090505b60ff81165f61124e600a83613735565b90505f61125c600283613735565b60ff1615905084151581145f61127389600261361e565b90505f60646112838b600561361e565b61128d9190613649565b90505f61129a828c61365c565b600f549091506001600160a01b0316158015906112b657505f82115b156112d357600f546112d3908d906001600160a01b031684611723565b6112de8c3083611723565b83156113b657305f9081526020819052604090205483811061134757611305308e86611723565b600115158d6001600160a01b03165f516020618acd5f395f51905f528e8760405161133a929190918252602082015260400190565b60405180910390a36113b0565b801561135857611358308e83611723565b6001601e5f6101000a81548160ff021916908315150217905550600115158d6001600160a01b03165f516020618acd5f395f51905f528e846040516113a7929190918252602082015260400190565b60405180910390a35b506113ea565b604080518c81525f60208201819052916001600160a01b038f16915f516020618acd5f395f51905f52910160405180910390a35b505050505050505050505050565b6001600160a01b038082165f908152600a6020908152604091829020825161016081018452815490941684526001810154918401919091526002810154918301919091526003810154606083015260048101546080830152600581015460a0830152600681015460c0830152600781015460e083015260088101546101008084019190915260099091015460ff8082161515610120850152919004161580156101408301819052906114ac57508061012001515b6114f85760405162461bcd60e51b815260206004820152601b60248201527f53746174696320726577617264206e6f7420617661696c61626c65000000000060448201526064016100f2565b5f611502836123b3565b90505f811161153f5760405162461bcd60e51b8152602060048201526009602482015268139bc81c995dd85c9960ba1b60448201526064016100f2565b5f80808061154b6125de565b60208a0151939750919550935091505f620186a0611569848461361e565b6115739190613649565b620186a0611581868561361e565b61158b9190613649565b620186a0611599888661361e565b6115a39190613649565b6115ad908a61351a565b6115b7919061351a565b6115c1919061351a565b90505f6115cd82612630565b90506115db8a898484612751565b5f82620186a06115eb888761361e565b6115f59190613649565b6115ff908461361e565b6116099190613649565b9050801561161a5761161a81612841565b5f83620186a061162a888861361e565b6116349190613649565b61163e908561361e565b6116489190613649565b905080156116c85760065460185460405163a9059cbb60e01b81526001600160a01b0391821660048201526024810184905291169063a9059cbb906044016020604051808303815f875af11580156116a2573d5f5f3e3d5ffd5b505050506040513d601f19601f820116820180604052508101906116c6919061366f565b505b6001600160a01b038c165f908152600a6020526040812060080180548c92906116f290849061351a565b9091555050506001600160a01b03909a165f908152600a602052604090204260049091015550505050505050505050565b6001600160a01b03831661174d578060025f828254611742919061351a565b909155506117bd9050565b6001600160a01b0383165f908152602081905260409020548181101561179f5760405163391434e360e21b81526001600160a01b038516600482015260248101829052604481018390526064016100f2565b6001600160a01b0384165f9081526020819052604090209082900390555b6001600160a01b0382166117d9576002805482900390556117f7565b6001600160a01b0382165f9081526020819052604090208054820190555b816001600160a01b0316836001600160a01b03167fddf252ad1be2c89b69c2b068fc378daa952ba7f163c4a11628f55a4df523b3ef8360405161183c91815260200190565b60405180910390a3505050565b5f80611853611a0d565b90506a52b7d2dcc80cd2e400000081111561187057603291505090565b601491505090565b5f5f60065f9054906101000a90046001600160a01b03166001600160a01b0316630902f1ac6040518163ffffffff1660e01b8152600401606060405180830381865afa1580156118ca573d5f5f3e3d5ffd5b505050506040513d601f19601f820116820180604052508101906118ee91906136a4565b5050600b546006546040516370a0823160e01b81526001600160a01b0391821660048201526001600160701b039390931693505f929116906370a0823190602401602060405180830381865afa15801561194a573d5f5f3e3d5ffd5b505050506040513d601f19601f8201168201806040525081019061196e9190613756565b905080821115611a0857600654604080516318160ddd60e01b815290515f926001600160a01b0316916318160ddd9160048083019260209291908290030181865afa1580156119bf573d5f5f3e3d5ffd5b505050506040513d601f19601f820116820180604052508101906119e39190613756565b9050816119f0818561365c565b6119fa908361361e565b611a049190613649565b9350505b505090565b60065460408051630240bc6b60e21b815290515f926001600160a01b031691839182918491630902f1ac916004808201926060929091908290030181865afa158015611a5b573d5f5f3e3d5ffd5b505050506040513d601f19601f82011682018060405250810190611a7f91906136a4565b50915091505f836001600160a01b0316630dfe16816040518163ffffffff1660e01b8152600401602060405180830381865afa158015611ac1573d5f5f3e3d5ffd5b505050506040513d601f19601f82011682018060405250810190611ae591906134ed565b90506001600160a01b0381163014611afd5781611aff565b825b6001600160701b031694505050505090565b61dead5f90815260208190527f44ad89ba62b98ff34f51403ac22759b55759460c0bb5521eb4b6ee3cff49cf8354600254611b4c919061365c565b905090565b60065460408051630240bc6b60e21b815290516001600160a01b03909216915f9182918491630902f1ac9160048083019260609291908290030181865afa158015611b9e573d5f5f3e3d5ffd5b505050506040513d601f19601f82011682018060405250810190611bc291906136a4565b5091509150816001600160701b03165f1480611be557506001600160701b038116155b15611bef57505050565b5f836001600160a01b0316630dfe16816040518163ffffffff1660e01b8152600401602060405180830381865afa158015611c2c573d5f5f3e3d5ffd5b505050506040513d601f19601f82011682018060405250810190611c5091906134ed565b90505f6001600160a01b0382163014611c695782611c6b565b835b6001600160701b031690505f6001600160a01b0383163014611c8d5784611c8f565b835b6001600160701b03169050805f03611ca957505050505050565b5f82611cbd83670de0b6b3a764000061361e565b611cc79190613649565b90505f611cd76201518042613649565b9050601a54811115611da6575f601b54118015611d0d57506064601b54605c611d00919061361e565b611d0a9190613649565b82105b15611d9057601c805460ff19166001179055601b547f0e9560271ff9c39b91baaaafebb009e70ad170a54ab31a72f4b884680b076682908290611d50575f611d73565b601b54611d5d858261365c565b611d699061271061361e565b611d739190613649565b6040805192835260208301919091520160405180910390a1611d9b565b601c805460ff191690555b601b829055601a8190555b5050505050505050565b6080515f906001600160a01b03163303611fa3575f5f60065f9054906101000a90046001600160a01b03166001600160a01b0316630902f1ac6040518163ffffffff1660e01b8152600401606060405180830381865afa158015611e16573d5f5f3e3d5ffd5b505050506040513d601f19601f82011682018060405250810190611e3a91906136a4565b50600b546006546040516370a0823160e01b81526001600160a01b0391821660048201526001600160701b0394851696509290931693505f9216906370a0823190602401602060405180830381865afa158015611e99573d5f5f3e3d5ffd5b505050506040513d601f19601f82011682018060405250810190611ebd9190613756565b905082811115611f9f57600654604080516318160ddd60e01b815290515f926001600160a01b0316916318160ddd9160048083019260209291908290030181865afa158015611f0e573d5f5f3e3d5ffd5b505050506040513d601f19601f82011682018060405250810190611f329190613756565b9050805f03611f475750600195945050505050565b611f52818385612ab7565b611f5c908261351a565b9050611f9b8482611f6d828661365c565b611f77919061361e565b611f819190613649565b84611f8c848a61361e565b611f969190613649565b612bac565b9450505b5050505b919050565b5f601354601254611fb9919061351a565b9050670de0b6b3a7640000811015611fce5750565b611fe13060805183612bc160201b60201c565b6040805160028082526060820183525f9260208301908036833701905050905030815f8151811061201457612014613721565b6001600160a01b039283166020918202929092010152600b5482519116908290600190811061204557612045613721565b6001600160a01b03928316602091820292909201015260805160405163791ac94760e01b815291169063791ac9479061208a9085905f908690309042906004016137b0565b5f604051808303815f87803b1580156120a1575f5ffd5b505af11580156120b3573d5f5f3e3d5ffd5b50506013544792505f915084906120ca908461361e565b6120d49190613649565b6019549091506120ed906001600160a01b031682612bce565b5f6120f8828461365c565b90505f811180156121135750600f546001600160a01b031615155b156121a457600f546040515f916001600160a01b03169083908381818185875af1925050503d805f8114612162576040519150601f19603f3d011682016040523d82523d5f602084013e612167565b606091505b50509050801580156121835750600c546001600160a01b031615155b1561219e57600c5461219e906001600160a01b031683612bce565b506121d8565b5f811180156121bd5750600c546001600160a01b031615155b156121d857600c546121d8906001600160a01b031682612bce565b50505f6012819055601355505050565b60065460408051630240bc6b60e21b815290516001600160a01b03909216915f9182918491630902f1ac9160048083019260609291908290030181865afa158015612235573d5f5f3e3d5ffd5b505050506040513d601f19601f8201168201806040525081019061225991906136a4565b5091509150816001600160701b03165f148061227c57506001600160701b038116155b1561228657505050565b5f836001600160a01b0316630dfe16816040518163ffffffff1660e01b8152600401602060405180830381865afa1580156122c3573d5f5f3e3d5ffd5b505050506040513d601f19601f820116820180604052508101906122e791906134ed565b90505f6001600160a01b03821630146123005782612302565b835b6001600160701b0316905060115481101561234157601054600160a01b900460ff1661233c576010805460ff60a01b1916600160a01b1790555b61099b565b601054600160a01b900460ff161561099b576010805460ff60a01b191690555050505050565b5f8181526001830160205260408120546123ac57508154600181810184555f8481526020808220909301849055845484825282860190935260409020919091556111dd565b505f6111dd565b6001600160a01b038082165f908152600a60209081526040808320815161016081018352815490951685526001810154928501929092526002820154908401526003810154606084015260048101546080840152600581015460a0840152600681015460c0840152600781015460e084015260088101546101008085019190915260099091015460ff808216151561012086015291900416158015610140840152909190806124655750806101200151155b1561247257505f92915050565b6001600160a01b0383165f908152600960205260408120549081900361249b57505f9392505050565b5f620151806124aa834261365c565b6124b49190613649565b905060c88111156124c957505f949350505050565b5f6124d26125de565b5050509050607d8211156124e557506103e85b60208401515f620186a06124f9848461361e565b6125039190613649565b90505f61012c90505f5f88608001511161251d5786612523565b87608001515b90505f612530824261365c565b90505f61253d8483613649565b9050805f0361255757505f9b9a5050505050505050505050565b5f61256461012087613649565b90505f612571838361361e565b90505f61257f89600361361e565b905080828e6101000151612593919061351a565b11156125cc57808d6101000151106125b957505f9e9d5050505050505050505050505050565b6101008d01516125c9908261365c565b91505b509d9c50505050505050505050505050565b5f808080806125eb611a0d565b90506a52b7d2dcc80cd2e4000000811115612617576106405f61012c603c94509450945094505061262a565b6103e85f61012c603c9450945094509450505b90919293565b6040805160028082526060820183525f92839291906020830190803683375050600b5482519293506001600160a01b0316918391505f9061267357612673613721565b60200260200101906001600160a01b031690816001600160a01b03168152505030816001815181106126a7576126a7613721565b6001600160a01b03928316602091820292909201015260805160405163d06ca61f60e01b81525f92919091169063d06ca61f906126ea90879086906004016137eb565b5f60405180830381865afa158015612704573d5f5f3e3d5ffd5b505050506040513d5f823e601f3d908101601f1916820160405261272b919081019061380b565b90508060018151811061274057612740613721565b602002602001015192505050919050565b5f60028361275f868561361e565b6127699190613649565b6127739190613649565b90505f600284612783878661361e565b61278d9190613649565b6127979190613649565b905081156127aa576127aa308784611723565b8015610b46575f6127ba82612c31565b60065460405163a9059cbb60e01b81526001600160a01b038a811660048301526024820184905292935091169063a9059cbb906044016020604051808303815f875af115801561280c573d5f5f3e3d5ffd5b505050506040513d601f19601f82011682018060405250810190612830919061366f565b508015610e1157611da68782612fa4565b600d546001600160a01b0316158015906128655750600e546001600160a01b031615155b15612a2d575f600a61287883600761361e565b6128829190613649565b90505f61288f828461365c565b905060165442101561291257600654600e5460405163a9059cbb60e01b81526001600160a01b0391821660048201526024810186905291169063a9059cbb906044015b6020604051808303815f875af11580156128ee573d5f5f3e3d5ffd5b505050506040513d601f19601f820116820180604052508101906107c9919061366f565b6016546129229062278d0061351a565b42101561296457600654600e5460405163a9059cbb60e01b81526001600160a01b0391821660048201526024810186905291169063a9059cbb906044016128d2565b600654600d5460405163a9059cbb60e01b81526001600160a01b0391821660048201526024810185905291169063a9059cbb906044016020604051808303815f875af11580156129b6573d5f5f3e3d5ffd5b505050506040513d601f19601f820116820180604052508101906129da919061366f565b50600654600e5460405163a9059cbb60e01b81526001600160a01b0391821660048201526024810184905291169063a9059cbb906044016020604051808303815f875af11580156128ee573d5f5f3e3d5ffd5b600c546001600160a01b031615612ab457600654600c5460405163a9059cbb60e01b81526001600160a01b0391821660048201526024810184905291169063a9059cbb906044016020604051808303815f875af1158015612a90573d5f5f3e3d5ffd5b505050506040513d601f19601f820116820180604052508101906103c0919061366f565b50565b5f80612acb612ac6848661361e565b613176565b90505f612b4560065f9054906101000a90046001600160a01b03166001600160a01b0316637464fc3d6040518163ffffffff1660e01b8152600401602060405180830381865afa158015612b21573d5f5f3e3d5ffd5b505050506040513d601f19601f82011682018060405250810190612ac69190613756565b905080821115612ba3575f612b5a828461365c565b612b64908861361e565b612b6f90600861361e565b90505f612b7d83600861361e565b612b8885601161361e565b612b92919061351a565b9050612b9e8183613649565b945050505b50509392505050565b5f818310612bba57816111f7565b5090919050565b6105d183838360016131e3565b604080515f808252602082019092526001600160a01b038416908390604051612bf791906138d2565b5f6040518083038185875af1925050503d805f8114610b46576040519150601f19603f3d011682016040523d82523d5f602084013e610b46565b5f80612c3e600284613649565b6040805160028082526060820183529293505f92909160208301908036833701905050905030815f81518110612c7657612c76613721565b6001600160a01b039283166020918202929092010152600b54825191169082906001908110612ca757612ca7613721565b6001600160a01b039283166020918202929092010152600654612ccc91163086611723565b60065f9054906101000a90046001600160a01b03166001600160a01b031663fff6cae96040518163ffffffff1660e01b81526004015f604051808303815f87803b158015612d18575f5ffd5b505af1158015612d2a573d5f5f3e3d5ffd5b50505050612d413060805186612bc160201b60201c565b608051601054604051635c11d79560e01b81526001600160a01b0392831692635c11d79592612d7d9287925f92889291169042906004016137b0565b5f604051808303815f87803b158015612d94575f5ffd5b505af1158015612da6573d5f5f3e3d5ffd5b5050600b546010546040516370a0823160e01b81526001600160a01b0391821660048201525f9450911691506370a0823190602401602060405180830381865afa158015612df6573d5f5f3e3d5ffd5b505050506040513d601f19601f82011682018060405250810190612e1a9190613756565b601054600b5460405163092dfdb360e11b81526001600160a01b03918216600482015230602482015260448101849052929350169063125bfb66906064015f604051808303815f87803b158015612e6f575f5ffd5b505af1158015612e81573d5f5f3e3d5ffd5b5050600b5460805160405163095ea7b360e01b81526001600160a01b039182166004820152602481018690529116925063095ea7b391506044016020604051808303815f875af1158015612ed7573d5f5f3e3d5ffd5b505050506040513d601f19601f82011682018060405250810190612efb919061366f565b50608051600b5460405162e8e33760e81b81526001600160a01b039182166004820152306024820181905260448201859052606482018790525f6084830181905260a483015260c48201524260e482015291169063e8e3370090610104016060604051808303815f875af1158015612f75573d5f5f3e3d5ffd5b505050506040513d601f19601f82011682018060405250810190612f9991906138e8565b979650505050505050565b6001600160a01b038083165f908152600a602090815260408083208151610160810183528154909516808652600180830154948701949094526002820154928601929092526003810154606086015260048101546080860152600581015460a0860152600681015460c0860152600781015460e086015260088101546101008087019190915260099091015460ff80821615156101208801529190041615156101408501529192919060145b6001600160a01b038316158015906130685750808211155b1561316c575f613077836132b5565b90505f6064613086838a61361e565b6130909190613649565b9050801561313b576001600160a01b0385165f908152600a6020526040902060070154841161313b5760065460405163a9059cbb60e01b81526001600160a01b038781166004830152602482018490529091169063a9059cbb906044016020604051808303815f875af1158015613109573d5f5f3e3d5ffd5b505050506040513d601f19601f8201168201806040525081019061312d919061366f565b50613138818861351a565b96505b6001600160a01b039485165f908152600a6020526040902054909416938361316281613913565b9450505050613050565b5050505092915050565b5f60038211156131d55750805f61318e600283613649565b61319990600161351a565b90505b818110156131cf579050806002816131b48186613649565b6131be919061351a565b6131c89190613649565b905061319c565b50919050565b8115611fa357506001919050565b6001600160a01b03841661320c5760405163e602df0560e01b81525f60048201526024016100f2565b6001600160a01b03831661323557604051634a1406b160e11b81525f60048201526024016100f2565b6001600160a01b038085165f90815260016020908152604080832093871683529290522082905580156107c957826001600160a01b0316846001600160a01b03167f8c5be1e5ebec7d5bd14f71427d1e84f3dd0314c0f7b2291e5b200ac8c7c3b925846040516132a791815260200190565b60405180910390a350505050565b5f816001036132c65750600a919050565b816002036132d657506005919050565b816003036132e657506003919050565b600482101580156132f8575060118211155b1561330557506001919050565b8160120361331557506003919050565b8160130361332557506005919050565b816014036133355750600a919050565b505f919050565b610505806185c883390190565b80516001600160a01b0381168114611fa3575f5ffd5b5f5f5f60608486031215613371575f5ffd5b61337a84613349565b925061338860208501613349565b915061339660408501613349565b90509250925092565b634e487b7160e01b5f52604160045260245ffd5b600181811c908216806133c757607f821691505b6020821081036131cf57634e487b7160e01b5f52602260045260245ffd5b601f8211156105d157828211156105d157805f5260205f20601f840160051c602085101561341057505f5b90810190601f840160051c035f5b81811015610b46575f8382015560010161341e565b81516001600160401b0381111561344c5761344c61339f565b6134608161345a84546133b3565b846133e5565b6020601f821160018114613492575f831561347b5750848201515b5f19600385901b1c1916600184901b17845561099b565b5f84815260208120601f198516915b828110156134c157878501518255602094850194600190920191016134a1565b50848210156134de57868401515f19600387901b60f8161c191681555b50505050600190811b01905550565b5f602082840312156134fd575f5ffd5b6111f782613349565b634e487b7160e01b5f52601160045260245ffd5b808201808211156111dd576111dd613506565b6001815b60018411156135685780850481111561354c5761354c613506565b600184161561355a57908102905b60019390931c928002613531565b935093915050565b5f8261357e575060016111dd565b8161358a57505f6111dd565b81600181146135a057600281146135aa576135c6565b60019150506111dd565b60ff8411156135bb576135bb613506565b50506001821b6111dd565b5060208310610133831016604e8410600b84101617156135e9575081810a6111dd565b6135f55f19848461352d565b805f190482111561360857613608613506565b029392505050565b5f6111f760ff841683613570565b80820281158282048414176111dd576111dd613506565b634e487b7160e01b5f52601260045260245ffd5b5f8261365757613657613635565b500490565b818103818111156111dd576111dd613506565b5f6020828403121561367f575f5ffd5b815180151581146111f7575f5ffd5b80516001600160701b0381168114611fa3575f5ffd5b5f5f5f606084860312156136b6575f5ffd5b6136bf8461368e565b92506136cd6020850161368e565b9150604084015163ffffffff811681146136e5575f5ffd5b809150509250925092565b5f60ff821660ff810361370557613705613506565b60010192915050565b5f8261371c5761371c613635565b500690565b634e487b7160e01b5f52603260045260245ffd5b5f60ff83168061374757613747613635565b8060ff84160691505092915050565b5f60208284031215613766575f5ffd5b5051919050565b5f8151808452602084019350602083015f5b828110156137a65781516001600160a01b031686526020958601959091019060010161377f565b5093949350505050565b85815284602082015260a060408201525f6137ce60a083018661376d565b6001600160a01b0394909416606083015250608001529392505050565b828152604060208201525f613803604083018461376d565b949350505050565b5f6020828403121561381b575f5ffd5b81516001600160401b03811115613830575f5ffd5b8201601f81018413613840575f5ffd5b80516001600160401b038111156138595761385961339f565b604051600582901b90603f8201601f191681016001600160401b03811182821017156138875761388761339f565b6040529182526020818401810192908101878411156138a4575f5ffd5b6020850194505b838510156138c7578451808252602095860195909350016138ab565b509695505050505050565b5f82518060208501845e5f920191825250919050565b5f5f5f606084860312156138fa575f5ffd5b5050815160208301516040909301519094929350919050565b5f6001820161392457613924613506565b5060010190565b608051614c386139905f395f81816108ab01528181610f0601528181610fb6015281816110110152818161354a015281816137800152818161382e01528181613ab50152818161410501528181614144015281816142b5015261436f0152614c385ff3fe608060405260043610610374575f3560e01c806378e97925116101c8578063bf151cb8116100fd578063ddbcb5fa1161009d578063ea0d5dcd1161006d578063ea0d5dcd14610d0d578063f2fde38b14610df0578063f56e9c6614610e0f578063fd36e3c614610e2e575f5ffd5b8063ddbcb5fa14610c9b578063e16f3c5914610cb0578063e82bef2914610ccf578063e8e8fe0414610cee575f5ffd5b8063cca3c5ff116100d8578063cca3c5ff14610c04578063d122734314610c19578063dd62ed3e14610c38578063dd6c439814610c7c575f5ffd5b8063bf151cb814610bb5578063c54e44eb14610bc9578063c82c3cbf14610bf0575f5ffd5b80639b19251a11610168578063a87430ba11610143578063a87430ba14610a81578063a9059cbb14610b62578063b4a2e46314610b81578063bad3ea6a14610b96575f5ffd5b80639b19251a14610a09578063a095e8f914610a37578063a52ee3af14610a56575f5ffd5b80638da5cb5b116101a35780638da5cb5b146109a55780638dd95002146109c257806394a28097146109e157806395d89b41146109f5575f5ffd5b806378e979251461095e5780637c659472146109735780637f05445514610990575f5ffd5b80633d471d57116102a957806348e66c04116102495780635e2d0df1116102195780635e2d0df1146108cd5780636d476a77146108e257806370a0823114610916578063715018a61461094a575f5ffd5b806348e66c041461083d5780634bf28fd01461085c57806353d6fd591461087b578063583e05681461089a575f5ffd5b806342b10c591161028457806342b10c59146107c5578063440b30e7146107de57806347ab459c1461080a57806347ccca021461081e575f5ffd5b80633d471d57146107685780633e0a322d1461078757806341275358146107a6575f5ffd5b8063177ae044116103145780632529d1a3116102ef5780632529d1a3146106f257806327b4814214610712578063313ce5671461072e57806332516d4814610749575f5ffd5b8063177ae044146106aa57806318160ddd146106bf57806323b872dd146106d3575f5ffd5b806306fdde031161034f57806306fdde031461061f578063095ea7b31461064057806309d467461461065f57806316f0115b14610673575f5ffd5b80630430e405146105b1578063053f14da146105df578063061e431c14610602575f5ffd5b366105ad57335f818152600a60205260409020546001600160a01b03169034903290036105ab5760145481101580156103c957506001600160a01b0382161515806103c957506017546001600160a01b031633145b1561059257335f908152600a6020526040902060090154610100900460ff1661045c57335f908152600a60205260409020600901805461ff0019166101001790556001600160a01b0382161561044a576001600160a01b0382165f908152600a60205260408120600701805460019290610444908490614638565b90915550505b335f9081526009602052604090204290555b5f606461046a83600361464b565b6104749190614676565b90505f6104818284614689565b600f549091506001600160a01b03161580159061049d57505f82115b156104f657600f546040515f916001600160a01b03169084908381818185875af1925050503d805f81146104ec576040519150601f19603f3d011682016040523d82523d5f602084013e6104f1565b606091505b505050505b5f61050a610505600284614676565b610e67565b335f908152600a6020526040812060010180549293508492909190610530908490614638565b9091555050335f908152600a602052604081206002018054839290610556908490614638565b909155505060405184815233907f5f41f00e6c90dea5837402efbf3e658a1f1df8db3b19624b133bc1df0444f7ea9060200160405180910390a2005b60405163236c6e5b60e01b815260040160405180910390fd5b005b5f5ffd5b3480156105bc575f5ffd5b50601e546105ca9060ff1681565b60405190151581526020015b60405180910390f35b3480156105ea575f5ffd5b506105f4601b5481565b6040519081526020016105d6565b34801561060d575f5ffd5b506105f469021e19e0c9bab240000081565b34801561062a575f5ffd5b50610633611090565b6040516105d6919061469c565b34801561064b575f5ffd5b506105ca61065a3660046146e5565b611120565b34801561066a575f5ffd5b506105f4611139565b34801561067e575f5ffd5b50601054610692906001600160a01b031681565b6040516001600160a01b0390911681526020016105d6565b3480156106b5575f5ffd5b506105f4601a5481565b3480156106ca575f5ffd5b506002546105f4565b3480156106de575f5ffd5b506105ca6106ed36600461470f565b61123d565b3480156106fd575f5ffd5b506010546105ca90600160a01b900460ff1681565b34801561071d575f5ffd5b506105f468056bc75e2d6310000081565b348015610739575f5ffd5b50604051601281526020016105d6565b348015610754575f5ffd5b506105ab61076336600461474d565b611260565b348015610773575f5ffd5b506105f4610782366004614768565b61128a565b348015610792575f5ffd5b506105ab6107a1366004614768565b611311565b3480156107b1575f5ffd5b50601954610692906001600160a01b031681565b3480156107d0575f5ffd5b50601c546105ca9060ff1681565b3480156107e9575f5ffd5b506107fd6107f836600461474d565b611331565b6040516105d691906147c2565b348015610815575f5ffd5b506105ab611354565b348015610829575f5ffd5b50600c54610692906001600160a01b031681565b348015610848575f5ffd5b50600d54610692906001600160a01b031681565b348015610867575f5ffd5b50600654610692906001600160a01b031681565b348015610886575f5ffd5b506105ab6108953660046147e1565b6114d4565b3480156108a5575f5ffd5b506106927f000000000000000000000000000000000000000000000000000000000000000081565b3480156108d8575f5ffd5b506105f460165481565b3480156108ed575f5ffd5b506108f6611506565b6040805194855260208501939093529183015260608201526080016105d6565b348015610921575f5ffd5b506105f461093036600461474d565b6001600160a01b03165f9081526020819052604090205490565b348015610955575f5ffd5b506105ab611558565b348015610969575f5ffd5b506105f460155481565b34801561097e575f5ffd5b506105f469152d02c7e14af680000081565b34801561099b575f5ffd5b506105f460135481565b3480156109b0575f5ffd5b506005546001600160a01b0316610692565b3480156109cd575f5ffd5b50600b54610692906001600160a01b031681565b3480156109ec575f5ffd5b506105f461156b565b348015610a00575f5ffd5b5061063361159a565b348015610a14575f5ffd5b506105ca610a2336600461474d565b601d6020525f908152604090205460ff1681565b348015610a42575f5ffd5b506105ab610a51366004614818565b6115a9565b348015610a61575f5ffd5b506105f4610a7036600461474d565b60096020525f908152604090205481565b348015610a8c575f5ffd5b50610b01610a9b36600461474d565b600a6020525f908152604090208054600182015460028301546003840154600485015460058601546006870154600788015460088901546009909901546001600160a01b0390981698969795969495939492939192909160ff808216916101009004168b565b604080516001600160a01b03909c168c5260208c019a909a52988a01979097526060890195909552608088019390935260a087019190915260c086015260e085015261010084015215156101208301521515610140820152610160016105d6565b348015610b6d575f5ffd5b506105ca610b7c3660046146e5565b61161b565b348015610b8c575f5ffd5b506105f460115481565b348015610ba1575f5ffd5b50600f54610692906001600160a01b031681565b348015610bc0575f5ffd5b506105f4611628565b348015610bd4575f5ffd5b506106927355d398326f99059ff775485246999027b319795581565b348015610bfb575f5ffd5b506105ab611668565b348015610c0f575f5ffd5b506105f460125481565b348015610c24575f5ffd5b506105ca610c3336600461489a565b61179b565b348015610c43575f5ffd5b506105f4610c5236600461489a565b6001600160a01b039182165f90815260016020908152604080832093909416825291909152205490565b348015610c87575f5ffd5b50600e54610692906001600160a01b031681565b348015610ca6575f5ffd5b506105f460145481565b348015610cbb575f5ffd5b506105ab610cca36600461489a565b6118d7565b348015610cda575f5ffd5b50601854610692906001600160a01b031681565b348015610cf9575f5ffd5b506105f4610d0836600461474d565b61190d565b348015610d18575f5ffd5b50610dd3610d2736600461474d565b6001600160a01b039081165f908152600a60209081526040918290208251610160810184528154909416845260018101549184018290526002810154928401929092526003820154606084015260048201546080840152600582015460a0840152600682015460c0840152600782015460e084015260088201546101008085019190915260099092015460ff808216151561012086018190529390910416151561014090930183905292565b6040805193845291151560208401521515908201526060016105d6565b348015610dfb575f5ffd5b506105ab610e0a36600461474d565b611b38565b348015610e1a575f5ffd5b506105ab610e2936600461474d565b611b7a565b348015610e39575f5ffd5b506105ca610e4836600461489a565b600760209081525f928352604080842090915290825290205460ff1681565b6040805160028082526060820183525f92839291906020830190803683375050600b5482519293506001600160a01b0316918391505f90610eaa57610eaa6148da565b60200260200101906001600160a01b031690816001600160a01b0316815250503081600181518110610ede57610ede6148da565b6001600160a01b03928316602091820292909201015260105460405163b6f9de9560e01b81527f000000000000000000000000000000000000000000000000000000000000000083169263b6f9de95928792610f45925f92889291169042906004016148ee565b5f604051808303818588803b158015610f5c575f5ffd5b505af1158015610f6e573d5f5f3e3d5ffd5b50506010546001600160a01b03165f908152602081905260408120549093509150610f969050565b601054909150610fb0906001600160a01b03163083611ba4565b610fdb307f000000000000000000000000000000000000000000000000000000000000000083611cca565b60405163f305d71960e01b81523060048201819052602482018390525f60448301819052606483015260848201524260a48201527f00000000000000000000000000000000000000000000000000000000000000006001600160a01b03169063f305d71990869060c40160606040518083038185885af1158015611061573d5f5f3e3d5ffd5b50505050506040513d601f19601f820116820180604052508101906110869190614922565b9695505050505050565b60606003805461109f9061494d565b80601f01602080910402602001604051908101604052809291908181526020018280546110cb9061494d565b80156111165780601f106110ed57610100808354040283529160200191611116565b820191905f5260205f20905b8154815290600101906020018083116110f957829003601f168201915b5050505050905090565b5f3361112d818585611cca565b60019150505b92915050565b60065460408051630240bc6b60e21b815290515f926001600160a01b031691839182918491630902f1ac916004808201926060929091908290030181865afa158015611187573d5f5f3e3d5ffd5b505050506040513d601f19601f820116820180604052508101906111ab9190614995565b50915091505f836001600160a01b0316630dfe16816040518163ffffffff1660e01b8152600401602060405180830381865afa1580156111ed573d5f5f3e3d5ffd5b505050506040513d601f19601f8201168201806040525081019061121191906149d6565b90506001600160a01b0381163014611229578161122b565b825b6001600160701b031694505050505090565b5f3361124a858285611cdc565b611255858585611d52565b506001949350505050565b611268611daf565b600f80546001600160a01b0319166001600160a01b0392909216919091179055565b5f8160010361129b5750600a919050565b816002036112ab57506005919050565b816003036112bb57506003919050565b600482101580156112cd575060118211155b156112da57506001919050565b816012036112ea57506003919050565b816013036112fa57506005919050565b8160140361130a5750600a919050565b505f919050565b611319611daf565b601581905561132b8162278d00614638565b60165550565b6001600160a01b0381165f90815260086020526040902060609061113390611ddc565b60065460408051630240bc6b60e21b815290516001600160a01b03909216915f9182918491630902f1ac9160048083019260609291908290030181865afa1580156113a1573d5f5f3e3d5ffd5b505050506040513d601f19601f820116820180604052508101906113c59190614995565b5091509150816001600160701b03165f14806113e857506001600160701b038116155b156113f257505050565b5f836001600160a01b0316630dfe16816040518163ffffffff1660e01b8152600401602060405180830381865afa15801561142f573d5f5f3e3d5ffd5b505050506040513d601f19601f8201168201806040525081019061145391906149d6565b90505f6001600160a01b038216301461146c578261146e565b835b6001600160701b031690506011548110156114ad57601054600160a01b900460ff166114a8576010805460ff60a01b1916600160a01b1790555b6114cd565b601054600160a01b900460ff16156114cd576010805460ff60a01b191690555b5050505050565b6114dc611daf565b6001600160a01b03919091165f908152601d60205260409020805460ff1916911515919091179055565b5f5f5f5f5f611513611139565b90506a52b7d2dcc80cd2e400000081111561153f576106405f61012c603c945094509450945050611552565b6103e85f61012c603c9450945094509450505b90919293565b611560611daf565b6115695f611def565b565b5f5f611575611139565b90506a52b7d2dcc80cd2e400000081111561159257603291505090565b601491505090565b60606004805461109f9061494d565b6115b1611daf565b5f5b828110156116155781601d5f8686858181106115d1576115d16148da565b90506020020160208101906115e6919061474d565b6001600160a01b0316815260208101919091526040015f20805460ff19169115159190911790556001016115b3565b50505050565b5f3361112d818585611d52565b61dead5f90815260208190527f44ad89ba62b98ff34f51403ac22759b55759460c0bb5521eb4b6ee3cff49cf83546002546116639190614689565b905090565b600b546006546040516370a0823160e01b81523060048201526001600160a01b039283169263a9059cbb92169083906370a0823190602401602060405180830381865afa1580156116bb573d5f5f3e3d5ffd5b505050506040513d601f19601f820116820180604052508101906116df91906149f1565b6040518363ffffffff1660e01b81526004016116fc929190614a08565b6020604051808303815f875af1158015611718573d5f5f3e3d5ffd5b505050506040513d601f19601f8201168201806040525081019061173c9190614a21565b5060065f9054906101000a90046001600160a01b03166001600160a01b031663fff6cae96040518163ffffffff1660e01b81526004015f604051808303815f87803b158015611789575f5ffd5b505af1158015611615573d5f5f3e3d5ffd5b6001600160a01b038281165f908152600a60205260408120549091161580156117d257506017546001600160a01b03848116911614155b80156117ec57506006546001600160a01b03838116911614155b801561180657506006546001600160a01b03848116911614155b1561181257505f611133565b6001600160a01b038084165f9081526007602090815260408083209386168352929052205460ff16806118565750816001600160a01b0316836001600160a01b0316145b1561186257505f611133565b815f5b6001600160a01b03821615801590611880575060198160ff16105b1561125557846001600160a01b0316826001600160a01b0316036118a8575f92505050611133565b6001600160a01b039182165f908152600a602052604090205490911690806118cf81614a3c565b915050611865565b6118df611daf565b600d80546001600160a01b039384166001600160a01b031991821617909155600e8054929093169116179055565b6001600160a01b038082165f908152600a60209081526040808320815161016081018352815490951685526001810154928501929092526002820154908401526003810154606084015260048101546080840152600581015460a0840152600681015460c0840152600781015460e084015260088101546101008085019190915260099091015460ff808216151561012086015291900416158015610140840152909190806119bf5750806101200151155b156119cc57505f92915050565b6001600160a01b0383165f90815260096020526040812054908190036119f557505f9392505050565b5f62015180611a048342614689565b611a0e9190614676565b905060c8811115611a2357505f949350505050565b5f611a2c611506565b5050509050607d821115611a3f57506103e85b60208401515f620186a0611a53848461464b565b611a5d9190614676565b90505f61012c90505f5f886080015111611a775786611a7d565b87608001515b90505f611a8a8242614689565b90505f611a978483614676565b9050805f03611ab157505f9b9a5050505050505050505050565b5f611abe61012087614676565b90505f611acb838361464b565b90505f611ad989600361464b565b905080828e6101000151611aed9190614638565b1115611b2657808d610100015110611b1357505f9e9d5050505050505050505050505050565b6101008d0151611b239082614689565b91505b509d9c50505050505050505050505050565b611b40611daf565b6001600160a01b038116611b6e57604051631e4fbdf760e01b81525f60048201526024015b60405180910390fd5b611b7781611def565b50565b611b82611daf565b600c80546001600160a01b0319166001600160a01b0392909216919091179055565b6001600160a01b038316611bce578060025f828254611bc39190614638565b90915550611c3e9050565b6001600160a01b0383165f9081526020819052604090205481811015611c205760405163391434e360e21b81526001600160a01b03851660048201526024810182905260448101839052606401611b65565b6001600160a01b0384165f9081526020819052604090209082900390555b6001600160a01b038216611c5a57600280548290039055611c78565b6001600160a01b0382165f9081526020819052604090208054820190555b816001600160a01b0316836001600160a01b03167fddf252ad1be2c89b69c2b068fc378daa952ba7f163c4a11628f55a4df523b3ef83604051611cbd91815260200190565b60405180910390a3505050565b611cd78383836001611e40565b505050565b6001600160a01b038381165f908152600160209081526040808320938616835292905220545f198110156116155781811015611d4457604051637dc7a0d960e11b81526001600160a01b03841660048201526024810182905260448101839052606401611b65565b61161584848484035f611e40565b6001600160a01b038316611d7b57604051634b637e8f60e11b81525f6004820152602401611b65565b6001600160a01b038216611da45760405163ec442f0560e01b81525f6004820152602401611b65565b611cd7838383611f12565b6005546001600160a01b031633146115695760405163118cdaa760e01b8152336004820152602401611b65565b60605f611de883612b80565b9392505050565b600580546001600160a01b038381166001600160a01b0319831681179093556040519116919082907f8be0079c531659141344cd1fd0a4f28419497f9722a3daafe3b4186f6b6457e0905f90a35050565b6001600160a01b038416611e695760405163e602df0560e01b81525f6004820152602401611b65565b6001600160a01b038316611e9257604051634a1406b160e11b81525f6004820152602401611b65565b6001600160a01b038085165f908152600160209081526040808320938716835292905220829055801561161557826001600160a01b0316846001600160a01b03167f8c5be1e5ebec7d5bd14f71427d1e84f3dd0314c0f7b2291e5b200ac8c7c3b92584604051611f0491815260200190565b60405180910390a350505050565b671bc16d674ec8000081148015611f4e57506001600160a01b038083165f9081526007602090815260408083209387168352929052205460ff16155b8015611f5f5750611f5f838361179b565b15611f94576001600160a01b038084165f908152600760209081526040808320938616835292905220805460ff191660011790555b670de0b6b3a764000081148015611fcf57506001600160a01b038083165f9081526007602090815260408083209387168352929052205460ff165b8015611ff257506001600160a01b038381165f908152600a602052604090205416155b1561207a576001600160a01b038381165f908152600a6020908152604080832080546001600160a01b031916948716948517905592825260089052206120389084612bd9565b50816001600160a01b0316836001600160a01b03167f8d63f2e3d39eb6cf9c80d49bc203133f6f215ce2a1a3d27a68f0167f6c045d4860405160405180910390a35b6001600160a01b0382163014801561209157503332145b1561211f576001600160a01b0383165f908152601d602052604090205460ff161580156120c7575068056bc75e2d631000008110155b80156120dd575069152d02c7e14af68000008111155b80156120ec5750601e5460ff16155b80156121105750305f9081526020819052604090205469021e19e0c9bab240000011155b1561211f57611cd78382612bed565b6001600160a01b038084165f908152600a6020908152604091829020825161016081018452815490941684526001810154918401919091526002810154918301919091526003810154606083015260048101546080830152600581015460a0830152600681015460c0830152600781015460e083015260088101546101008084019190915260099091015460ff808216151561012085015291900416151561014082015233321480156121d457508061014001515b80156121e357505f8160400151115b80156121f757506001600160a01b03831630145b156124cb57670de0b6b3a7640000820361232b57601054600160a01b900460ff161561223657604051632f35253160e01b815260040160405180910390fd5b80610120015161229d576001600160a01b0384165f908152600a60205260409020600901805460ff191660011790556122724262015180614638565b6001600160a01b0385165f908152600a6020526040902060038101919091554260049091015561232b565b80610120015180156122b3575080606001514210155b15612312576122c184612e20565b6122ce4262015180614638565b6001600160a01b0385165f908152600a602052604090206003810191909155426004909101556122ff848484611ba4565b6116153085670de0b6b3a7640000611ba4565b604051632f35253160e01b815260040160405180910390fd5b678ac7230489e8000082036124c057426015541061235b5760405162461bcd60e51b8152600401611b6590614a5a565b60408101518015612426575f61236f61156b565b905080156123aa575f606482856040015161238a919061464b565b6123949190614676565b90508084604001516123a69190614689565b9250505b81156124245760065460405163a9059cbb60e01b81526001600160a01b039091169063a9059cbb906123e29089908690600401614a08565b6020604051808303815f875af11580156123fe573d5f5f3e3d5ffd5b505050506040513d601f19601f820116820180604052508101906124229190614a21565b505b505b6001600160a01b038086165f908152600a6020526040808220600981018054600283018590556001830185905561ffff1916905560048101839055600801829055845190921681522060070154156124aa5781516001600160a01b03165f908152600a602052604081206007018054600192906124a4908490614689565b90915550505b6124b5858585611ba4565b6114cd308685611ba4565b611615848484611ba4565b6001600160a01b0384163014806124ea57506001600160a01b03831630145b8061250257506010546001600160a01b038581169116145b8061251a57506010546001600160a01b038481169116145b1561252a57611615848484611ba4565b6006546001600160a01b03908116908516036128245742601554106125615760405162461bcd60e51b8152600401611b6590614a5a565b325f90815260096020526040812042905561257a61314b565b1115612650575f5f61258a611139565b90506b033b2e3c9fd0803ce800000081106125bd57600a6125ac85600961464b565b6125b69190614676565b915061261f565b6b019d971e4fe8401e7400000081106125dd57600a6125ac85600661464b565b6a52b7d2dcc80cd2e400000081106125fc57600a6125ac85600461464b565b6a295be96e64066972000000811061261b57600a6125ac85600261464b565b8391505b61262c8661dead84611ba4565b818411156126485761264886866126438588614689565b611ba4565b505050505050565b606461265a611628565b61266590600561464b565b61266f9190614676565b82106126a95760405162461bcd60e51b815260206004820152600960248201526836b0bc103a37b5b2b760b91b6044820152606401611b65565b6126b16132e0565b601c545f9060ff166126c55761012c6126c9565b610b545b61ffff1690505f6127106126dd838661464b565b6126e79190614676565b90505f6127106126f98661012c61464b565b6127039190614676565b601c549091505f9060ff16801561271957508183115b15612769576127288284614689565b90505f612736600283614676565b9050612743893083611ba4565b61274d8183614689565b60125f82825461275d9190614638565b92505081905550829350505b5f600a61277785600761464b565b6127819190614676565b90508060125f8282546127949190614638565b909155505f9050600a6127a886600161464b565b6127b29190614676565b90506127c18a61dead83611ba4565b5f816127cd8488614689565b6127d79190614689565b90508060135f8282546127ea9190614638565b909155506127fb90508b3085611ba4565b6128068b3083611ba4565b6128108487614638565b61281a908a614689565b9850505050505050505b6006546001600160a01b0390811690841603612b7857601954600160a81b900460ff16156129205760065460408051630240bc6b60e21b815290516001600160a01b03909216915f9182918491630902f1ac9160048083019260609291908290030181865afa158015612899573d5f5f3e3d5ffd5b505050506040513d601f19601f820116820180604052508101906128bd9190614995565b5091509150816001600160701b03165f1480156128e157506001600160701b038116155b80156128f65750601954600160a81b900460ff165b1561291c576019805460ff60a81b19169055612913878787611ba4565b50505050505050565b5050505b61292b600a42614689565b325f908152600960205260409020541061296c5760405162461bcd60e51b815260206004820152600260248201526118d960f21b6044820152606401611b65565b5f6129768361353f565b11612b7857426015541061299c5760405162461bcd60e51b8152600401611b6590614a5a565b60646129a6611628565b6129b190600a61464b565b6129bb9190614676565b82106129f55760405162461bcd60e51b815260206004820152600960248201526836b0bc103a37b5b2b760b91b6044820152606401611b65565b6129fd6132e0565b601c545f9060ff16612a115761012c612a15565b610b545b61ffff1690505f612710612a29838661464b565b612a339190614676565b90505f612710612a458661012c61464b565b612a4f9190614676565b601c549091505f9060ff168015612a6557508183115b15612ab557612a748284614689565b90505f612a82600283614676565b9050612a8f893083611ba4565b612a998183614689565b60125f828254612aa99190614638565b92505081905550829350505b5f600a612ac385600761464b565b612acd9190614676565b90508060125f828254612ae09190614638565b909155505f9050600a612af486600161464b565b612afe9190614676565b9050612b0d8a61dead83611ba4565b5f81612b198488614689565b612b239190614689565b90508060135f828254612b369190614638565b90915550612b4790508b3085611ba4565b612b528b3083611ba4565b612b5c8487614638565b612b66908a614689565b9850612b70613754565b505050505050505b6124c0611354565b6060815f01805480602002602001604051908101604052809291908181526020018280548015612bcd57602002820191905f5260205f20905b815481526020019060010190808311612bb9575b50505050509050919050565b5f611de8836001600160a01b0384166139cb565b5f612bf9600a83614a7d565b90505f612c07600283614a7d565b1590505f612c16600143614689565b40905080612c2d57612c29600243614689565b4090505b60ff81165f612c3d600a83614a90565b90505f612c4b600283614a90565b60ff1615905084151581145f612c6289600261464b565b90505f6064612c728b600561464b565b612c7c9190614676565b90505f612c89828c614689565b600f549091506001600160a01b031615801590612ca557505f82115b15612cc257600f54612cc2908d906001600160a01b031684611ba4565b612ccd8c3083611ba4565b8315612dcb57305f90815260208190526040902054838110612d4957612cf4308e86611ba4565b600115158d6001600160a01b03167f4dab1356cd0582feb480a4c99e95bb70c5d60b9b3f27d2cd27f5ccc64e6583e08e87604051612d3c929190918252602082015260400190565b60405180910390a3612dc5565b8015612d5a57612d5a308e83611ba4565b6001601e5f6101000a81548160ff021916908315150217905550600115158d6001600160a01b03167f4dab1356cd0582feb480a4c99e95bb70c5d60b9b3f27d2cd27f5ccc64e6583e08e84604051612dbc929190918252602082015260400190565b60405180910390a35b50612e12565b604080518c81525f60208201819052916001600160a01b038f16917f4dab1356cd0582feb480a4c99e95bb70c5d60b9b3f27d2cd27f5ccc64e6583e0910160405180910390a35b505050505050505050505050565b6001600160a01b038082165f908152600a6020908152604091829020825161016081018452815490941684526001810154918401919091526002810154918301919091526003810154606083015260048101546080830152600581015460a0830152600681015460c0830152600781015460e083015260088101546101008084019190915260099091015460ff808216151561012085015291900416158015610140830181905290612ed457508061012001515b612f205760405162461bcd60e51b815260206004820152601b60248201527f53746174696320726577617264206e6f7420617661696c61626c6500000000006044820152606401611b65565b5f612f2a8361190d565b90505f8111612f675760405162461bcd60e51b8152602060048201526009602482015268139bc81c995dd85c9960ba1b6044820152606401611b65565b5f5f5f5f612f73611506565b60208a0151939750919550935091505f620186a0612f91848461464b565b612f9b9190614676565b620186a0612fa9868561464b565b612fb39190614676565b620186a0612fc1888661464b565b612fcb9190614676565b612fd5908a614638565b612fdf9190614638565b612fe99190614638565b90505f612ff582613a17565b90506130038a898484613b53565b5f82620186a0613013888761464b565b61301d9190614676565b613027908461464b565b6130319190614676565b905080156130425761304281613c40565b5f83620186a0613052888861464b565b61305c9190614676565b613066908561464b565b6130709190614676565b905080156130f05760065460185460405163a9059cbb60e01b81526001600160a01b039283169263a9059cbb926130ae929116908590600401614a08565b6020604051808303815f875af11580156130ca573d5f5f3e3d5ffd5b505050506040513d601f19601f820116820180604052508101906130ee9190614a21565b505b6001600160a01b038c165f908152600a6020526040812060080180548c929061311a908490614638565b9091555050506001600160a01b03909a165f908152600a602052604090204260049091015550505050505050505050565b5f5f60065f9054906101000a90046001600160a01b03166001600160a01b0316630902f1ac6040518163ffffffff1660e01b8152600401606060405180830381865afa15801561319d573d5f5f3e3d5ffd5b505050506040513d601f19601f820116820180604052508101906131c19190614995565b5050600b546006546040516370a0823160e01b81526001600160a01b0391821660048201526001600160701b039390931693505f929116906370a0823190602401602060405180830381865afa15801561321d573d5f5f3e3d5ffd5b505050506040513d601f19601f8201168201806040525081019061324191906149f1565b9050808211156132db57600654604080516318160ddd60e01b815290515f926001600160a01b0316916318160ddd9160048083019260209291908290030181865afa158015613292573d5f5f3e3d5ffd5b505050506040513d601f19601f820116820180604052508101906132b691906149f1565b9050816132c38185614689565b6132cd908361464b565b6132d79190614676565b9350505b505090565b60065460408051630240bc6b60e21b815290516001600160a01b03909216915f9182918491630902f1ac9160048083019260609291908290030181865afa15801561332d573d5f5f3e3d5ffd5b505050506040513d601f19601f820116820180604052508101906133519190614995565b5091509150816001600160701b03165f148061337457506001600160701b038116155b1561337e57505050565b5f836001600160a01b0316630dfe16816040518163ffffffff1660e01b8152600401602060405180830381865afa1580156133bb573d5f5f3e3d5ffd5b505050506040513d601f19601f820116820180604052508101906133df91906149d6565b90505f6001600160a01b03821630146133f857826133fa565b835b6001600160701b031690505f6001600160a01b038316301461341c578461341e565b835b6001600160701b03169050805f0361343857505050505050565b5f8261344c83670de0b6b3a764000061464b565b6134569190614676565b90505f6134666201518042614676565b9050601a54811115613535575f601b5411801561349c57506064601b54605c61348f919061464b565b6134999190614676565b82105b1561351f57601c805460ff19166001179055601b547f0e9560271ff9c39b91baaaafebb009e70ad170a54ab31a72f4b884680b0766829082906134df575f613502565b601b546134ec8582614689565b6134f89061271061464b565b6135029190614676565b6040805192835260208301919091520160405180910390a161352a565b601c805460ff191690555b601b829055601a8190555b5050505050505050565b5f6001600160a01b037f000000000000000000000000000000000000000000000000000000000000000016330361374f575f5f60065f9054906101000a90046001600160a01b03166001600160a01b0316630902f1ac6040518163ffffffff1660e01b8152600401606060405180830381865afa1580156135c2573d5f5f3e3d5ffd5b505050506040513d601f19601f820116820180604052508101906135e69190614995565b50600b546006546040516370a0823160e01b81526001600160a01b0391821660048201526001600160701b0394851696509290931693505f9216906370a0823190602401602060405180830381865afa158015613645573d5f5f3e3d5ffd5b505050506040513d601f19601f8201168201806040525081019061366991906149f1565b90508281111561374b57600654604080516318160ddd60e01b815290515f926001600160a01b0316916318160ddd9160048083019260209291908290030181865afa1580156136ba573d5f5f3e3d5ffd5b505050506040513d601f19601f820116820180604052508101906136de91906149f1565b9050805f036136f35750600195945050505050565b6136fe818385613e95565b6137089082614638565b905061374784826137198286614689565b613723919061464b565b61372d9190614676565b84613738848a61464b565b6137429190614676565b613f8a565b9450505b5050505b919050565b5f6013546012546137659190614638565b9050670de0b6b3a764000081101561377a5750565b6137a5307f000000000000000000000000000000000000000000000000000000000000000083611cca565b6040805160028082526060820183525f9260208301908036833701905050905030815f815181106137d8576137d86148da565b6001600160a01b039283166020918202929092010152600b54825191169082906001908110613809576138096148da565b6001600160a01b03928316602091820292909201015260405163791ac94760e01b81527f00000000000000000000000000000000000000000000000000000000000000009091169063791ac9479061386d9085905f90869030904290600401614ab1565b5f604051808303815f87803b158015613884575f5ffd5b505af1158015613896573d5f5f3e3d5ffd5b50506013544792505f915084906138ad908461464b565b6138b79190614676565b6019549091506138d0906001600160a01b031682613f9f565b5f6138db8284614689565b90505f811180156138f65750600f546001600160a01b031615155b1561398757600f546040515f916001600160a01b03169083908381818185875af1925050503d805f8114613945576040519150601f19603f3d011682016040523d82523d5f602084013e61394a565b606091505b50509050801580156139665750600c546001600160a01b031615155b1561398157600c54613981906001600160a01b031683613f9f565b506139bb565b5f811180156139a05750600c546001600160a01b031615155b156139bb57600c546139bb906001600160a01b031682613f9f565b50505f6012819055601355505050565b5f818152600183016020526040812054613a1057508154600181810184555f848152602080822090930184905584548482528286019093526040902091909155611133565b505f611133565b6040805160028082526060820183525f92839291906020830190803683375050600b5482519293506001600160a01b0316918391505f90613a5a57613a5a6148da565b60200260200101906001600160a01b031690816001600160a01b0316815250503081600181518110613a8e57613a8e6148da565b6001600160a01b03928316602091820292909201015260405163d06ca61f60e01b81525f917f0000000000000000000000000000000000000000000000000000000000000000169063d06ca61f90613aec9087908690600401614aec565b5f60405180830381865afa158015613b06573d5f5f3e3d5ffd5b505050506040513d5f823e601f3d908101601f19168201604052613b2d9190810190614b0c565b905080600181518110613b4257613b426148da565b602002602001015192505050919050565b5f600283613b61868561464b565b613b6b9190614676565b613b759190614676565b90505f600284613b85878661464b565b613b8f9190614676565b613b999190614676565b90508115613bac57613bac308784611ba4565b8015612648575f613bbc82614002565b60065460405163a9059cbb60e01b81529192506001600160a01b03169063a9059cbb90613bef908a908590600401614a08565b6020604051808303815f875af1158015613c0b573d5f5f3e3d5ffd5b505050506040513d601f19601f82011682018060405250810190613c2f9190614a21565b5080156129135761353587826143e7565b600d546001600160a01b031615801590613c645750600e546001600160a01b031615155b15613e0a575f600a613c7783600761464b565b613c819190614676565b90505f613c8e8284614689565b9050601654421015613d1057600654600e5460405163a9059cbb60e01b81526001600160a01b039283169263a9059cbb92613cd0929116908790600401614a08565b6020604051808303815f875af1158015613cec573d5f5f3e3d5ffd5b505050506040513d601f19601f820116820180604052508101906116159190614a21565b601654613d209062278d00614638565b421015613d5d57600654600e5460405163a9059cbb60e01b81526001600160a01b039283169263a9059cbb92613cd0929116908790600401614a08565b600654600d5460405163a9059cbb60e01b81526001600160a01b039283169263a9059cbb92613d93929116908690600401614a08565b6020604051808303815f875af1158015613daf573d5f5f3e3d5ffd5b505050506040513d601f19601f82011682018060405250810190613dd39190614a21565b50600654600e5460405163a9059cbb60e01b81526001600160a01b039283169263a9059cbb92613cd0929116908590600401614a08565b600c546001600160a01b031615611b7757600654600c5460405163a9059cbb60e01b81526001600160a01b039283169263a9059cbb92613e51929116908590600401614a08565b6020604051808303815f875af1158015613e6d573d5f5f3e3d5ffd5b505050506040513d601f19601f82011682018060405250810190613e919190614a21565b5050565b5f80613ea9613ea4848661464b565b6145b7565b90505f613f2360065f9054906101000a90046001600160a01b03166001600160a01b0316637464fc3d6040518163ffffffff1660e01b8152600401602060405180830381865afa158015613eff573d5f5f3e3d5ffd5b505050506040513d601f19601f82011682018060405250810190613ea491906149f1565b905080821115613f81575f613f388284614689565b613f42908861464b565b613f4d90600861464b565b90505f613f5b83600861464b565b613f6685601161464b565b613f709190614638565b9050613f7c8183614676565b945050505b50509392505050565b5f818310613f985781611de8565b5090919050565b604080515f808252602082019092526001600160a01b038416908390604051613fc89190614bd4565b5f6040518083038185875af1925050503d805f8114612648576040519150601f19603f3d011682016040523d82523d5f602084013e612648565b5f8061400f600284614676565b6040805160028082526060820183529293505f92909160208301908036833701905050905030815f81518110614047576140476148da565b6001600160a01b039283166020918202929092010152600b54825191169082906001908110614078576140786148da565b6001600160a01b03928316602091820292909201015260065461409d91163086611ba4565b60065f9054906101000a90046001600160a01b03166001600160a01b031663fff6cae96040518163ffffffff1660e01b81526004015f604051808303815f87803b1580156140e9575f5ffd5b505af11580156140fb573d5f5f3e3d5ffd5b5050505061412a307f000000000000000000000000000000000000000000000000000000000000000086611cca565b601054604051635c11d79560e01b81526001600160a01b037f0000000000000000000000000000000000000000000000000000000000000000811692635c11d795926141859287925f92889291909116904290600401614ab1565b5f604051808303815f87803b15801561419c575f5ffd5b505af11580156141ae573d5f5f3e3d5ffd5b5050600b546010546040516370a0823160e01b81526001600160a01b0391821660048201525f9450911691506370a0823190602401602060405180830381865afa1580156141fe573d5f5f3e3d5ffd5b505050506040513d601f19601f8201168201806040525081019061422291906149f1565b601054600b5460405163092dfdb360e11b81526001600160a01b03918216600482015230602482015260448101849052929350169063125bfb66906064015f604051808303815f87803b158015614277575f5ffd5b505af1158015614289573d5f5f3e3d5ffd5b5050600b5460405163095ea7b360e01b81526001600160a01b03909116925063095ea7b391506142df907f0000000000000000000000000000000000000000000000000000000000000000908590600401614a08565b6020604051808303815f875af11580156142fb573d5f5f3e3d5ffd5b505050506040513d601f19601f8201168201806040525081019061431f9190614a21565b50600b5460405162e8e33760e81b81526001600160a01b039182166004820152306024820181905260448201849052606482018690525f6084830181905260a483015260c48201524260e48201527f00000000000000000000000000000000000000000000000000000000000000009091169063e8e3370090610104016060604051808303815f875af11580156143b8573d5f5f3e3d5ffd5b505050506040513d601f19601f820116820180604052508101906143dc9190614922565b979650505050505050565b6001600160a01b038083165f908152600a602090815260408083208151610160810183528154909516808652600180830154948701949094526002820154928601929092526003810154606086015260048101546080860152600581015460a0860152600681015460c0860152600781015460e086015260088101546101008087019190915260099091015460ff80821615156101208801529190041615156101408501529192919060145b6001600160a01b038316158015906144ab5750808211155b156145ad575f6144ba8361128a565b90505f60646144c9838a61464b565b6144d39190614676565b9050801561457c576001600160a01b0385165f908152600a6020526040902060070154841161457c5760065460405163a9059cbb60e01b81526001600160a01b039091169063a9059cbb9061452e9088908590600401614a08565b6020604051808303815f875af115801561454a573d5f5f3e3d5ffd5b505050506040513d601f19601f8201168201806040525081019061456e9190614a21565b506145798188614638565b96505b6001600160a01b039485165f908152600a602052604090205490941693836145a381614bea565b9450505050614493565b5050505092915050565b5f60038211156146165750805f6145cf600283614676565b6145da906001614638565b90505b81811015614610579050806002816145f58186614676565b6145ff9190614638565b6146099190614676565b90506145dd565b50919050565b811561374f57506001919050565b634e487b7160e01b5f52601160045260245ffd5b8082018082111561113357611133614624565b808202811582820484141761113357611133614624565b634e487b7160e01b5f52601260045260245ffd5b5f8261468457614684614662565b500490565b8181038181111561113357611133614624565b602081525f82518060208401528060208501604085015e5f604082850101526040601f19601f83011684010191505092915050565b6001600160a01b0381168114611b77575f5ffd5b5f5f604083850312156146f6575f5ffd5b8235614701816146d1565b946020939093013593505050565b5f5f5f60608486031215614721575f5ffd5b833561472c816146d1565b9250602084013561473c816146d1565b929592945050506040919091013590565b5f6020828403121561475d575f5ffd5b8135611de8816146d1565b5f60208284031215614778575f5ffd5b5035919050565b5f8151808452602084019350602083015f5b828110156147b85781516001600160a01b0316865260209586019590910190600101614791565b5093949350505050565b602081525f611de8602083018461477f565b8015158114611b77575f5ffd5b5f5f604083850312156147f2575f5ffd5b82356147fd816146d1565b9150602083013561480d816147d4565b809150509250929050565b5f5f5f6040848603121561482a575f5ffd5b833567ffffffffffffffff811115614840575f5ffd5b8401601f81018613614850575f5ffd5b803567ffffffffffffffff811115614866575f5ffd5b8660208260051b840101111561487a575f5ffd5b60209182019450925084013561488f816147d4565b809150509250925092565b5f5f604083850312156148ab575f5ffd5b82356148b6816146d1565b9150602083013561480d816146d1565b634e487b7160e01b5f52604160045260245ffd5b634e487b7160e01b5f52603260045260245ffd5b848152608060208201525f614906608083018661477f565b6001600160a01b03949094166040830152506060015292915050565b5f5f5f60608486031215614934575f5ffd5b5050815160208301516040909301519094929350919050565b600181811c9082168061496157607f821691505b60208210810361461057634e487b7160e01b5f52602260045260245ffd5b80516001600160701b038116811461374f575f5ffd5b5f5f5f606084860312156149a7575f5ffd5b6149b08461497f565b92506149be6020850161497f565b9150604084015163ffffffff8116811461488f575f5ffd5b5f602082840312156149e6575f5ffd5b8151611de8816146d1565b5f60208284031215614a01575f5ffd5b5051919050565b6001600160a01b03929092168252602082015260400190565b5f60208284031215614a31575f5ffd5b8151611de8816147d4565b5f60ff821660ff8103614a5157614a51614624565b60010192915050565b602080825260099082015268737461727454696d6560b81b604082015260600190565b5f82614a8b57614a8b614662565b500690565b5f60ff831680614aa257614aa2614662565b8060ff84160691505092915050565b85815284602082015260a060408201525f614acf60a083018661477f565b6001600160a01b0394909416606083015250608001529392505050565b828152604060208201525f614b04604083018461477f565b949350505050565b5f60208284031215614b1c575f5ffd5b815167ffffffffffffffff811115614b32575f5ffd5b8201601f81018413614b42575f5ffd5b805167ffffffffffffffff811115614b5c57614b5c6148c6565b8060051b604051601f19603f830116810181811067ffffffffffffffff82111715614b8957614b896148c6565b604052918252602081840181019290810187841115614ba6575f5ffd5b6020850194505b83851015614bc957845180825260209586019590935001614bad565b509695505050505050565b5f82518060208501845e5f920191825250919050565b5f60018201614bfb57614bfb614624565b506001019056fea2646970667358221220bece6343a0aa560f99b888d5f456799159f46e218a685e5f7e823bc6368bf9c864736f6c634300082200336080604052348015600e575f5ffd5b503380603357604051631e4fbdf760e01b81525f600482015260240160405180910390fd5b603a81605b565b50335f908152600160208190526040909120805460ff1916909117905560aa565b5f80546001600160a01b038381166001600160a01b0319831681178455604051919092169283917f8be0079c531659141344cd1fd0a4f28419497f9722a3daafe3b4186f6b6457e09190a35050565b61044e806100b75f395ff3fe608060405234801561000f575f5ffd5b5060043610610060575f3560e01c8063125bfb6614610064578063172979e414610079578063715018a6146100b05780638d14e127146100b85780638da5cb5b146100cb578063f2fde38b146100e5575b5f5ffd5b610077610072366004610362565b6100f8565b005b61009b61008736600461039b565b60016020525f908152604090205460ff1681565b60405190151581526020015b60405180910390f35b610077610216565b6100776100c63660046103c8565b610229565b5f546040516001600160a01b0390911681526020016100a7565b6100776100f336600461039b565b61028f565b335f9081526001602052604090205460ff166101535760405162461bcd60e51b8152602060048201526015602482015274141bdbdb0e881b9bdd081dda1a5d195b1a5cdd1959605a1b60448201526064015b60405180910390fd5b60405163a9059cbb60e01b81526001600160a01b0383811660048301526024820183905284169063a9059cbb906044016020604051808303815f875af115801561019f573d5f5f3e3d5ffd5b505050506040513d601f19601f820116820180604052508101906101c391906103fd565b50816001600160a01b0316836001600160a01b03167ff7a40077ff7a04c7e61f6f26fb13774259ddf1b6bce9ecf26a8276cdd39926838360405161020991815260200190565b60405180910390a3505050565b61021e6102cc565b6102275f6102f8565b565b6102316102cc565b6001600160a01b0382165f81815260016020908152604091829020805460ff191685151590811790915591519182527fb1288e9f7bae3599e10819d5553febea48e11a6f8f585b32c8abad397dd2627e910160405180910390a25050565b6102976102cc565b6001600160a01b0381166102c057604051631e4fbdf760e01b81525f600482015260240161014a565b6102c9816102f8565b50565b5f546001600160a01b031633146102275760405163118cdaa760e01b815233600482015260240161014a565b5f80546001600160a01b038381166001600160a01b0319831681178455604051919092169283917f8be0079c531659141344cd1fd0a4f28419497f9722a3daafe3b4186f6b6457e09190a35050565b80356001600160a01b038116811461035d575f5ffd5b919050565b5f5f5f60608486031215610374575f5ffd5b61037d84610347565b925061038b60208501610347565b9150604084013590509250925092565b5f602082840312156103ab575f5ffd5b6103b482610347565b9392505050565b80151581146102c9575f5ffd5b5f5f604083850312156103d9575f5ffd5b6103e283610347565b915060208301356103f2816103bb565b809150509250929050565b5f6020828403121561040d575f5ffd5b81516103b4816103bb56fea2646970667358221220177eb0ab5b21ab35515087c3f0350e4b822b01cc97bbe058eb9ab943547071bf64736f6c634300082200334dab1356cd0582feb480a4c99e95bb70c5d60b9b3f27d2cd27f5ccc64e6583e0",
			"opcodes": "PUSH1 0xA0 PUSH1 0x40 MSTORE PUSH11 0x52B7D2DCC80CD2E4000000 PUSH1 0x11 SSTORE PUSH7 0x71AFD498D0000 PUSH1 0x14 SSTORE PUSH1 0x17 DUP1 SLOAD PUSH1 0x1 PUSH1 0x1 PUSH1 0xA0 SHL SUB NOT AND PUSH20 0xE6A45D5F3E5D38103F9B1358672DED68FDF6835F OR SWAP1 SSTORE PUSH1 0x19 DUP1 SLOAD PUSH1 0xFF PUSH1 0xA8 SHL NOT AND PUSH1 0x1 PUSH1 0xA8 SHL OR SWAP1 SSTORE CALLVALUE DUP1 ISZERO PUSH2 0x62 JUMPI PUSH0 PUSH0 REVERT JUMPDEST POP PUSH1 0x40 MLOAD PUSH2 0x8AED CODESIZE SUB DUP1 PUSH2 0x8AED DUP4 CODECOPY DUP2 ADD PUSH1 0x40 DUP2 SWAP1 MSTORE PUSH2 0x81 SWAP2 PUSH2 0x335F JUMP JUMPDEST PUSH1 0x40 DUP1 MLOAD DUP1 DUP3 ADD DUP3 MSTORE PUSH1 0x5 DUP1 DUP3 MSTORE PUSH5 0x2927A6A0A7 PUSH1 0xD9 SHL PUSH1 0x20 DUP1 DUP5 ADD DUP3 SWAP1 MSTORE DUP5 MLOAD DUP1 DUP7 ADD SWAP1 SWAP6 MSTORE SWAP2 DUP5 MSTORE SWAP1 DUP4 ADD MSTORE CALLER SWAP2 PUSH1 0x3 PUSH2 0xBD DUP4 DUP3 PUSH2 0x3433 JUMP JUMPDEST POP PUSH1 0x4 PUSH2 0xCA DUP3 DUP3 PUSH2 0x3433 JUMP JUMPDEST POP POP POP PUSH1 0x1 PUSH1 0x1 PUSH1 0xA0 SHL SUB DUP2 AND PUSH2 0xFB JUMPI PUSH1 0x40 MLOAD PUSH4 0x1E4FBDF7 PUSH1 0xE0 SHL DUP2 MSTORE PUSH0 PUSH1 0x4 DUP3 ADD MSTORE PUSH1 0x24 ADD JUMPDEST PUSH1 0x40 MLOAD DUP1 SWAP2 SUB SWAP1 REVERT JUMPDEST PUSH2 0x104 DUP2 PUSH2 0x33B JUMP JUMPDEST POP PUSH20 0xD99D1C33F9FC3444F8101754ABC46C52416550D1 PUSH1 0x80 DUP2 SWAP1 MSTORE PUSH1 0x40 DUP1 MLOAD PUSH4 0x15AB88C9 PUSH1 0xE3 SHL DUP2 MSTORE SWAP1 MLOAD PUSH4 0xAD5C4648 SWAP2 PUSH1 0x4 DUP1 DUP3 ADD SWAP3 PUSH1 0x20 SWAP3 SWAP1 SWAP2 SWAP1 DUP3 SWAP1 SUB ADD DUP2 DUP7 GAS STATICCALL ISZERO DUP1 ISZERO PUSH2 0x158 JUMPI RETURNDATASIZE PUSH0 PUSH0 RETURNDATACOPY RETURNDATASIZE PUSH0 REVERT JUMPDEST POP POP POP POP PUSH1 0x40 MLOAD RETURNDATASIZE PUSH1 0x1F NOT PUSH1 0x1F DUP3 ADD AND DUP3 ADD DUP1 PUSH1 0x40 MSTORE POP DUP2 ADD SWAP1 PUSH2 0x17C SWAP2 SWAP1 PUSH2 0x34ED JUMP JUMPDEST PUSH1 0xB PUSH0 PUSH2 0x100 EXP DUP2 SLOAD DUP2 PUSH1 0x1 PUSH1 0x1 PUSH1 0xA0 SHL SUB MUL NOT AND SWAP1 DUP4 PUSH1 0x1 PUSH1 0x1 PUSH1 0xA0 SHL SUB AND MUL OR SWAP1 SSTORE POP PUSH1 0x80 MLOAD PUSH1 0x1 PUSH1 0x1 PUSH1 0xA0 SHL SUB AND PUSH4 0xC45A0155 PUSH1 0x40 MLOAD DUP2 PUSH4 0xFFFFFFFF AND PUSH1 0xE0 SHL DUP2 MSTORE PUSH1 0x4 ADD PUSH1 0x20 PUSH1 0x40 MLOAD DUP1 DUP4 SUB DUP2 DUP7 GAS STATICCALL ISZERO DUP1 ISZERO PUSH2 0x1DF JUMPI RETURNDATASIZE PUSH0 PUSH0 RETURNDATACOPY RETURNDATASIZE PUSH0 REVERT JUMPDEST POP POP POP POP PUSH1 0x40 MLOAD RETURNDATASIZE PUSH1 0x1F NOT PUSH1 0x1F DUP3 ADD AND DUP3 ADD DUP1 PUSH1 0x40 MSTORE POP DUP2 ADD SWAP1 PUSH2 0x203 SWAP2 SWAP1 PUSH2 0x34ED JUMP JUMPDEST PUSH1 0xB SLOAD PUSH1 0x40 MLOAD PUSH4 0x64E329CB PUSH1 0xE1 SHL DUP2 MSTORE ADDRESS PUSH1 0x4 DUP3 ADD MSTORE PUSH1 0x1 PUSH1 0x1 PUSH1 0xA0 SHL SUB SWAP2 DUP3 AND PUSH1 0x24 DUP3 ADD MSTORE SWAP2 AND SWAP1 PUSH4 0xC9C65396 SWAP1 PUSH1 0x44 ADD PUSH1 0x20 PUSH1 0x40 MLOAD DUP1 DUP4 SUB DUP2 PUSH0 DUP8 GAS CALL ISZERO DUP1 ISZERO PUSH2 0x251 JUMPI RETURNDATASIZE PUSH0 PUSH0 RETURNDATACOPY RETURNDATASIZE PUSH0 REVERT JUMPDEST POP POP POP POP PUSH1 0x40 MLOAD RETURNDATASIZE PUSH1 0x1F NOT PUSH1 0x1F DUP3 ADD AND DUP3 ADD DUP1 PUSH1 0x40 MSTORE POP DUP2 ADD SWAP1 PUSH2 0x275 SWAP2 SWAP1 PUSH2 0x34ED JUMP JUMPDEST PUSH1 0x6 DUP1 SLOAD PUSH1 0x1 PUSH1 0x1 PUSH1 0xA0 SHL SUB NOT SWAP1 DUP2 AND PUSH1 0x1 PUSH1 0x1 PUSH1 0xA0 SHL SUB SWAP4 DUP5 AND OR SWAP1 SWAP2 SSTORE PUSH1 0x18 DUP1 SLOAD DUP3 AND DUP6 DUP5 AND OR SWAP1 SSTORE PUSH1 0x19 DUP1 SLOAD SWAP1 SWAP2 AND SWAP2 DUP4 AND SWAP2 SWAP1 SWAP2 OR SWAP1 SSTORE PUSH1 0x40 MLOAD PUSH2 0x2BC SWAP1 PUSH2 0x333C JUMP JUMPDEST PUSH1 0x40 MLOAD DUP1 SWAP2 SUB SWAP1 PUSH0 CREATE DUP1 ISZERO DUP1 ISZERO PUSH2 0x2D5 JUMPI RETURNDATASIZE PUSH0 PUSH0 RETURNDATACOPY RETURNDATASIZE PUSH0 REVERT JUMPDEST POP PUSH1 0x10 DUP1 SLOAD PUSH1 0x1 PUSH1 0x1 PUSH1 0xA0 SHL SUB NOT AND PUSH1 0x1 PUSH1 0x1 PUSH1 0xA0 SHL SUB SWAP3 SWAP1 SWAP3 AND SWAP2 SWAP1 SWAP2 OR SWAP1 SSTORE PUSH4 0x69AABA1F PUSH1 0x15 DUP2 SWAP1 SSTORE PUSH2 0x30D SWAP1 PUSH3 0x278D00 PUSH2 0x351A JUMP JUMPDEST PUSH1 0x16 SSTORE PUSH2 0x333 DUP4 PUSH2 0x320 PUSH1 0x12 PUSH1 0xA PUSH2 0x3610 JUMP JUMPDEST PUSH2 0x32E SWAP1 PUSH4 0x3B9ACA00 PUSH2 0x361E JUMP JUMPDEST PUSH2 0x38C JUMP JUMPDEST POP POP POP PUSH2 0x392B JUMP JUMPDEST PUSH1 0x5 DUP1 SLOAD PUSH1 0x1 PUSH1 0x1 PUSH1 0xA0 SHL SUB DUP4 DUP2 AND PUSH1 0x1 PUSH1 0x1 PUSH1 0xA0 SHL SUB NOT DUP4 AND DUP2 OR SWAP1 SWAP4 SSTORE PUSH1 0x40 MLOAD SWAP2 AND SWAP2 SWAP1 DUP3 SWAP1 PUSH32 0x8BE0079C531659141344CD1FD0A4F28419497F9722A3DAAFE3B4186F6B6457E0 SWAP1 PUSH0 SWAP1 LOG3 POP POP JUMP JUMPDEST PUSH1 0x1 PUSH1 0x1 PUSH1 0xA0 SHL SUB DUP3 AND PUSH2 0x3B5 JUMPI PUSH1 0x40 MLOAD PUSH4 0xEC442F05 PUSH1 0xE0 SHL DUP2 MSTORE PUSH0 PUSH1 0x4 DUP3 ADD MSTORE PUSH1 0x24 ADD PUSH2 0xF2 JUMP JUMPDEST PUSH2 0x3C0 PUSH0 DUP4 DUP4 PUSH2 0x3C4 JUMP JUMPDEST POP POP JUMP JUMPDEST PUSH8 0x1BC16D674EC80000 DUP2 EQ DUP1 ISZERO PUSH2 0x400 JUMPI POP PUSH1 0x1 PUSH1 0x1 PUSH1 0xA0 SHL SUB DUP1 DUP4 AND PUSH0 SWAP1 DUP2 MSTORE PUSH1 0x7 PUSH1 0x20 SWAP1 DUP2 MSTORE PUSH1 0x40 DUP1 DUP4 KECCAK256 SWAP4 DUP8 AND DUP4 MSTORE SWAP3 SWAP1 MSTORE KECCAK256 SLOAD PUSH1 0xFF AND ISZERO JUMPDEST DUP1 ISZERO PUSH2 0x411 JUMPI POP PUSH2 0x411 DUP4 DUP4 PUSH2 0x109A JUMP JUMPDEST ISZERO PUSH2 0x446 JUMPI PUSH1 0x1 PUSH1 0x1 PUSH1 0xA0 SHL SUB DUP1 DUP5 AND PUSH0 SWAP1 DUP2 MSTORE PUSH1 0x7 PUSH1 0x20 SWAP1 DUP2 MSTORE PUSH1 0x40 DUP1 DUP4 KECCAK256 SWAP4 DUP7 AND DUP4 MSTORE SWAP3 SWAP1 MSTORE KECCAK256 DUP1 SLOAD PUSH1 0xFF NOT AND PUSH1 0x1 OR SWAP1 SSTORE JUMPDEST PUSH8 0xDE0B6B3A7640000 DUP2 EQ DUP1 ISZERO PUSH2 0x481 JUMPI POP PUSH1 0x1 PUSH1 0x1 PUSH1 0xA0 SHL SUB DUP1 DUP4 AND PUSH0 SWAP1 DUP2 MSTORE PUSH1 0x7 PUSH1 0x20 SWAP1 DUP2 MSTORE PUSH1 0x40 DUP1 DUP4 KECCAK256 SWAP4 DUP8 AND DUP4 MSTORE SWAP3 SWAP1 MSTORE KECCAK256 SLOAD PUSH1 0xFF AND JUMPDEST DUP1 ISZERO PUSH2 0x4A4 JUMPI POP PUSH1 0x1 PUSH1 0x1 PUSH1 0xA0 SHL SUB DUP4 DUP2 AND PUSH0 SWAP1 DUP2 MSTORE PUSH1 0xA PUSH1 0x20 MSTORE PUSH1 0x40 SWAP1 KECCAK256 SLOAD AND ISZERO JUMPDEST ISZERO PUSH2 0x52C JUMPI PUSH1 0x1 PUSH1 0x1 PUSH1 0xA0 SHL SUB DUP4 DUP2 AND PUSH0 SWAP1 DUP2 MSTORE PUSH1 0xA PUSH1 0x20 SWAP1 DUP2 MSTORE PUSH1 0x40 DUP1 DUP4 KECCAK256 DUP1 SLOAD PUSH1 0x1 PUSH1 0x1 PUSH1 0xA0 SHL SUB NOT AND SWAP5 DUP8 AND SWAP5 DUP6 OR SWAP1 SSTORE SWAP3 DUP3 MSTORE PUSH1 0x8 SWAP1 MSTORE KECCAK256 PUSH2 0x4EA SWAP1 DUP5 PUSH2 0x11E3 JUMP JUMPDEST POP DUP2 PUSH1 0x1 PUSH1 0x1 PUSH1 0xA0 SHL SUB AND DUP4 PUSH1 0x1 PUSH1 0x1 PUSH1 0xA0 SHL SUB AND PUSH32 0x8D63F2E3D39EB6CF9C80D49BC203133F6F215CE2A1A3D27A68F0167F6C045D48 PUSH1 0x40 MLOAD PUSH1 0x40 MLOAD DUP1 SWAP2 SUB SWAP1 LOG3 JUMPDEST PUSH1 0x1 PUSH1 0x1 PUSH1 0xA0 SHL SUB DUP3 AND ADDRESS EQ DUP1 ISZERO PUSH2 0x543 JUMPI POP CALLER ORIGIN EQ JUMPDEST ISZERO PUSH2 0x5D6 JUMPI PUSH1 0x1 PUSH1 0x1 PUSH1 0xA0 SHL SUB DUP4 AND PUSH0 SWAP1 DUP2 MSTORE PUSH1 0x1D PUSH1 0x20 MSTORE PUSH1 0x40 SWAP1 KECCAK256 SLOAD PUSH1 0xFF AND ISZERO DUP1 ISZERO PUSH2 0x579 JUMPI POP PUSH9 0x56BC75E2D63100000 DUP2 LT ISZERO JUMPDEST DUP1 ISZERO PUSH2 0x58F JUMPI POP PUSH10 0x152D02C7E14AF6800000 DUP2 GT ISZERO JUMPDEST DUP1 ISZERO PUSH2 0x59E JUMPI POP PUSH1 0x1E SLOAD PUSH1 0xFF AND ISZERO JUMPDEST DUP1 ISZERO PUSH2 0x5C2 JUMPI POP ADDRESS PUSH0 SWAP1 DUP2 MSTORE PUSH1 0x20 DUP2 SWAP1 MSTORE PUSH1 0x40 SWAP1 KECCAK256 SLOAD PUSH10 0x21E19E0C9BAB2400000 GT ISZERO JUMPDEST ISZERO PUSH2 0x5D6 JUMPI PUSH2 0x5D1 DUP4 DUP3 PUSH2 0x11FE JUMP JUMPDEST POP POP POP JUMP JUMPDEST PUSH1 0x1 PUSH1 0x1 PUSH1 0xA0 SHL SUB DUP1 DUP5 AND PUSH0 SWAP1 DUP2 MSTORE PUSH1 0xA PUSH1 0x20 SWAP1 DUP2 MSTORE PUSH1 0x40 SWAP2 DUP3 SWAP1 KECCAK256 DUP3 MLOAD PUSH2 0x160 DUP2 ADD DUP5 MSTORE DUP2 SLOAD SWAP1 SWAP5 AND DUP5 MSTORE PUSH1 0x1 DUP2 ADD SLOAD SWAP2 DUP5 ADD SWAP2 SWAP1 SWAP2 MSTORE PUSH1 0x2 DUP2 ADD SLOAD SWAP2 DUP4 ADD SWAP2 SWAP1 SWAP2 MSTORE PUSH1 0x3 DUP2 ADD SLOAD PUSH1 0x60 DUP4 ADD MSTORE PUSH1 0x4 DUP2 ADD SLOAD PUSH1 0x80 DUP4 ADD MSTORE PUSH1 0x5 DUP2 ADD SLOAD PUSH1 0xA0 DUP4 ADD MSTORE PUSH1 0x6 DUP2 ADD SLOAD PUSH1 0xC0 DUP4 ADD MSTORE PUSH1 0x7 DUP2 ADD SLOAD PUSH1 0xE0 DUP4 ADD MSTORE PUSH1 0x8 DUP2 ADD SLOAD PUSH2 0x100 DUP1 DUP5 ADD SWAP2 SWAP1 SWAP2 MSTORE PUSH1 0x9 SWAP1 SWAP2 ADD SLOAD PUSH1 0xFF DUP1 DUP3 AND ISZERO ISZERO PUSH2 0x120 DUP6 ADD MSTORE SWAP2 SWAP1 DIV AND ISZERO ISZERO PUSH2 0x140 DUP3 ADD MSTORE CALLER ORIGIN EQ DUP1 ISZERO PUSH2 0x68B JUMPI POP DUP1 PUSH2 0x140 ADD MLOAD JUMPDEST DUP1 ISZERO PUSH2 0x69A JUMPI POP PUSH0 DUP2 PUSH1 0x40 ADD MLOAD GT JUMPDEST DUP1 ISZERO PUSH2 0x6AE JUMPI POP PUSH1 0x1 PUSH1 0x1 PUSH1 0xA0 SHL SUB DUP4 AND ADDRESS EQ JUMPDEST ISZERO PUSH2 0x9AD JUMPI PUSH8 0xDE0B6B3A7640000 DUP3 SUB PUSH2 0x7E8 JUMPI PUSH1 0x10 SLOAD PUSH1 0x1 PUSH1 0xA0 SHL SWAP1 DIV PUSH1 0xFF AND ISZERO PUSH2 0x6ED JUMPI PUSH1 0x40 MLOAD PUSH4 0x2F352531 PUSH1 0xE0 SHL DUP2 MSTORE PUSH1 0x4 ADD PUSH1 0x40 MLOAD DUP1 SWAP2 SUB SWAP1 REVERT JUMPDEST DUP1 PUSH2 0x120 ADD MLOAD PUSH2 0x754 JUMPI PUSH1 0x1 PUSH1 0x1 PUSH1 0xA0 SHL SUB DUP5 AND PUSH0 SWAP1 DUP2 MSTORE PUSH1 0xA PUSH1 0x20 MSTORE PUSH1 0x40 SWAP1 KECCAK256 PUSH1 0x9 ADD DUP1 SLOAD PUSH1 0xFF NOT AND PUSH1 0x1 OR SWAP1 SSTORE PUSH2 0x729 TIMESTAMP PUSH3 0x15180 PUSH2 0x351A JUMP JUMPDEST PUSH1 0x1 PUSH1 0x1 PUSH1 0xA0 SHL SUB DUP6 AND PUSH0 SWAP1 DUP2 MSTORE PUSH1 0xA PUSH1 0x20 MSTORE PUSH1 0x40 SWAP1 KECCAK256 PUSH1 0x3 DUP2 ADD SWAP2 SWAP1 SWAP2 SSTORE TIMESTAMP PUSH1 0x4 SWAP1 SWAP2 ADD SSTORE PUSH2 0x7E8 JUMP JUMPDEST DUP1 PUSH2 0x120 ADD MLOAD DUP1 ISZERO PUSH2 0x76A JUMPI POP DUP1 PUSH1 0x60 ADD MLOAD TIMESTAMP LT ISZERO JUMPDEST ISZERO PUSH2 0x7CF JUMPI PUSH2 0x778 DUP5 PUSH2 0x13F8 JUMP JUMPDEST PUSH2 0x785 TIMESTAMP PUSH3 0x15180 PUSH2 0x351A JUMP JUMPDEST PUSH1 0x1 PUSH1 0x1 PUSH1 0xA0 SHL SUB DUP6 AND PUSH0 SWAP1 DUP2 MSTORE PUSH1 0xA PUSH1 0x20 MSTORE PUSH1 0x40 SWAP1 KECCAK256 PUSH1 0x3 DUP2 ADD SWAP2 SWAP1 SWAP2 SSTORE TIMESTAMP PUSH1 0x4 SWAP1 SWAP2 ADD SSTORE PUSH2 0x7B6 DUP5 DUP5 DUP5 PUSH2 0x1723 JUMP JUMPDEST PUSH2 0x7C9 ADDRESS DUP6 PUSH8 0xDE0B6B3A7640000 PUSH2 0x1723 JUMP JUMPDEST POP POP POP POP JUMP JUMPDEST PUSH1 0x40 MLOAD PUSH4 0x2F352531 PUSH1 0xE0 SHL DUP2 MSTORE PUSH1 0x4 ADD PUSH1 0x40 MLOAD DUP1 SWAP2 SUB SWAP1 REVERT JUMPDEST PUSH8 0x8AC7230489E80000 DUP3 SUB PUSH2 0x9A2 JUMPI TIMESTAMP PUSH1 0x15 SLOAD LT PUSH2 0x834 JUMPI PUSH1 0x40 MLOAD PUSH3 0x461BCD PUSH1 0xE5 SHL DUP2 MSTORE PUSH1 0x20 PUSH1 0x4 DUP3 ADD MSTORE PUSH1 0x9 PUSH1 0x24 DUP3 ADD MSTORE PUSH9 0x737461727454696D65 PUSH1 0xB8 SHL PUSH1 0x44 DUP3 ADD MSTORE PUSH1 0x64 ADD PUSH2 0xF2 JUMP JUMPDEST PUSH1 0x40 DUP2 ADD MLOAD DUP1 ISZERO PUSH2 0x901 JUMPI PUSH0 PUSH2 0x848 PUSH2 0x1849 JUMP JUMPDEST SWAP1 POP DUP1 ISZERO PUSH2 0x883 JUMPI PUSH0 PUSH1 0x64 DUP3 DUP6 PUSH1 0x40 ADD MLOAD PUSH2 0x863 SWAP2 SWAP1 PUSH2 0x361E JUMP JUMPDEST PUSH2 0x86D SWAP2 SWAP1 PUSH2 0x3649 JUMP JUMPDEST SWAP1 POP DUP1 DUP5 PUSH1 0x40 ADD MLOAD PUSH2 0x87F SWAP2 SWAP1 PUSH2 0x365C JUMP JUMPDEST SWAP3 POP POP JUMPDEST DUP2 ISZERO PUSH2 0x8FF JUMPI PUSH1 0x6 SLOAD PUSH1 0x40 MLOAD PUSH4 0xA9059CBB PUSH1 0xE0 SHL DUP2 MSTORE PUSH1 0x1 PUSH1 0x1 PUSH1 0xA0 SHL SUB DUP9 DUP2 AND PUSH1 0x4 DUP4 ADD MSTORE PUSH1 0x24 DUP3 ADD DUP6 SWAP1 MSTORE SWAP1 SWAP2 AND SWAP1 PUSH4 0xA9059CBB SWAP1 PUSH1 0x44 ADD PUSH1 0x20 PUSH1 0x40 MLOAD DUP1 DUP4 SUB DUP2 PUSH0 DUP8 GAS CALL ISZERO DUP1 ISZERO PUSH2 0x8D9 JUMPI RETURNDATASIZE PUSH0 PUSH0 RETURNDATACOPY RETURNDATASIZE PUSH0 REVERT JUMPDEST POP POP POP POP PUSH1 0x40 MLOAD RETURNDATASIZE PUSH1 0x1F NOT PUSH1 0x1F DUP3 ADD AND DUP3 ADD DUP1 PUSH1 0x40 MSTORE POP DUP2 ADD SWAP1 PUSH2 0x8FD SWAP2 SWAP1 PUSH2 0x366F JUMP JUMPDEST POP JUMPDEST POP JUMPDEST PUSH1 0x1 PUSH1 0x1 PUSH1 0xA0 SHL SUB DUP1 DUP7 AND PUSH0 SWAP1 DUP2 MSTORE PUSH1 0xA PUSH1 0x20 MSTORE PUSH1 0x40 DUP1 DUP3 KECCAK256 PUSH1 0x9 DUP2 ADD DUP1 SLOAD PUSH1 0x2 DUP4 ADD DUP6 SWAP1 SSTORE PUSH1 0x1 DUP4 ADD DUP6 SWAP1 SSTORE PUSH2 0xFFFF NOT AND SWAP1 SSTORE PUSH1 0x4 DUP2 ADD DUP4 SWAP1 SSTORE PUSH1 0x8 ADD DUP3 SWAP1 SSTORE DUP5 MLOAD SWAP1 SWAP3 AND DUP2 MSTORE KECCAK256 PUSH1 0x7 ADD SLOAD ISZERO PUSH2 0x985 JUMPI DUP2 MLOAD PUSH1 0x1 PUSH1 0x1 PUSH1 0xA0 SHL SUB AND PUSH0 SWAP1 DUP2 MSTORE PUSH1 0xA PUSH1 0x20 MSTORE PUSH1 0x40 DUP2 KECCAK256 PUSH1 0x7 ADD DUP1 SLOAD PUSH1 0x1 SWAP3 SWAP1 PUSH2 0x97F SWAP1 DUP5 SWAP1 PUSH2 0x365C JUMP JUMPDEST SWAP1 SWAP2 SSTORE POP POP JUMPDEST PUSH2 0x990 DUP6 DUP6 DUP6 PUSH2 0x1723 JUMP JUMPDEST PUSH2 0x99B ADDRESS DUP7 DUP6 PUSH2 0x1723 JUMP JUMPDEST POP POP POP POP POP JUMP JUMPDEST PUSH2 0x7C9 DUP5 DUP5 DUP5 PUSH2 0x1723 JUMP JUMPDEST PUSH1 0x1 PUSH1 0x1 PUSH1 0xA0 SHL SUB DUP5 AND ADDRESS EQ DUP1 PUSH2 0x9CC JUMPI POP PUSH1 0x1 PUSH1 0x1 PUSH1 0xA0 SHL SUB DUP4 AND ADDRESS EQ JUMPDEST DUP1 PUSH2 0x9E4 JUMPI POP PUSH1 0x10 SLOAD PUSH1 0x1 PUSH1 0x1 PUSH1 0xA0 SHL SUB DUP6 DUP2 AND SWAP2 AND EQ JUMPDEST DUP1 PUSH2 0x9FC JUMPI POP PUSH1 0x10 SLOAD PUSH1 0x1 PUSH1 0x1 PUSH1 0xA0 SHL SUB DUP5 DUP2 AND SWAP2 AND EQ JUMPDEST ISZERO PUSH2 0xA0C JUMPI PUSH2 0x7C9 DUP5 DUP5 DUP5 PUSH2 0x1723 JUMP JUMPDEST PUSH1 0x6 SLOAD PUSH1 0x1 PUSH1 0x1 PUSH1 0xA0 SHL SUB SWAP1 DUP2 AND SWAP1 DUP6 AND SUB PUSH2 0xD22 JUMPI TIMESTAMP PUSH1 0x15 SLOAD LT PUSH2 0xA5F JUMPI PUSH1 0x40 MLOAD PUSH3 0x461BCD PUSH1 0xE5 SHL DUP2 MSTORE PUSH1 0x20 PUSH1 0x4 DUP3 ADD MSTORE PUSH1 0x9 PUSH1 0x24 DUP3 ADD MSTORE PUSH9 0x737461727454696D65 PUSH1 0xB8 SHL PUSH1 0x44 DUP3 ADD MSTORE PUSH1 0x64 ADD PUSH2 0xF2 JUMP JUMPDEST ORIGIN PUSH0 SWAP1 DUP2 MSTORE PUSH1 0x9 PUSH1 0x20 MSTORE PUSH1 0x40 DUP2 KECCAK256 TIMESTAMP SWAP1 SSTORE PUSH2 0xA78 PUSH2 0x1878 JUMP JUMPDEST GT ISZERO PUSH2 0xB4E JUMPI PUSH0 DUP1 PUSH2 0xA88 PUSH2 0x1A0D JUMP JUMPDEST SWAP1 POP PUSH12 0x33B2E3C9FD0803CE8000000 DUP2 LT PUSH2 0xABB JUMPI PUSH1 0xA PUSH2 0xAAA DUP6 PUSH1 0x9 PUSH2 0x361E JUMP JUMPDEST PUSH2 0xAB4 SWAP2 SWAP1 PUSH2 0x3649 JUMP JUMPDEST SWAP2 POP PUSH2 0xB1D JUMP JUMPDEST PUSH12 0x19D971E4FE8401E74000000 DUP2 LT PUSH2 0xADB JUMPI PUSH1 0xA PUSH2 0xAAA DUP6 PUSH1 0x6 PUSH2 0x361E JUMP JUMPDEST PUSH11 0x52B7D2DCC80CD2E4000000 DUP2 LT PUSH2 0xAFA JUMPI PUSH1 0xA PUSH2 0xAAA DUP6 PUSH1 0x4 PUSH2 0x361E JUMP JUMPDEST PUSH11 0x295BE96E64066972000000 DUP2 LT PUSH2 0xB19 JUMPI PUSH1 0xA PUSH2 0xAAA DUP6 PUSH1 0x2 PUSH2 0x361E JUMP JUMPDEST DUP4 SWAP2 POP JUMPDEST PUSH2 0xB2A DUP7 PUSH2 0xDEAD DUP5 PUSH2 0x1723 JUMP JUMPDEST DUP2 DUP5 GT ISZERO PUSH2 0xB46 JUMPI PUSH2 0xB46 DUP7 DUP7 PUSH2 0xB41 DUP6 DUP9 PUSH2 0x365C JUMP JUMPDEST PUSH2 0x1723 JUMP JUMPDEST POP POP POP POP POP POP JUMP JUMPDEST PUSH1 0x64 PUSH2 0xB58 PUSH2 0x1B11 JUMP JUMPDEST PUSH2 0xB63 SWAP1 PUSH1 0x5 PUSH2 0x361E JUMP JUMPDEST PUSH2 0xB6D SWAP2 SWAP1 PUSH2 0x3649 JUMP JUMPDEST DUP3 LT PUSH2 0xBA7 JUMPI PUSH1 0x40 MLOAD PUSH3 0x461BCD PUSH1 0xE5 SHL DUP2 MSTORE PUSH1 0x20 PUSH1 0x4 DUP3 ADD MSTORE PUSH1 0x9 PUSH1 0x24 DUP3 ADD MSTORE PUSH9 0x36B0BC103A37B5B2B7 PUSH1 0xB9 SHL PUSH1 0x44 DUP3 ADD MSTORE PUSH1 0x64 ADD PUSH2 0xF2 JUMP JUMPDEST PUSH2 0xBAF PUSH2 0x1B51 JUMP JUMPDEST PUSH1 0x1C SLOAD PUSH0 SWAP1 PUSH1 0xFF AND PUSH2 0xBC3 JUMPI PUSH2 0x12C PUSH2 0xBC7 JUMP JUMPDEST PUSH2 0xB54 JUMPDEST PUSH2 0xFFFF AND SWAP1 POP PUSH0 PUSH2 0x2710 PUSH2 0xBDB DUP4 DUP7 PUSH2 0x361E JUMP JUMPDEST PUSH2 0xBE5 SWAP2 SWAP1 PUSH2 0x3649 JUMP JUMPDEST SWAP1 POP PUSH0 PUSH2 0x2710 PUSH2 0xBF7 DUP7 PUSH2 0x12C PUSH2 0x361E JUMP JUMPDEST PUSH2 0xC01 SWAP2 SWAP1 PUSH2 0x3649 JUMP JUMPDEST PUSH1 0x1C SLOAD SWAP1 SWAP2 POP PUSH0 SWAP1 PUSH1 0xFF AND DUP1 ISZERO PUSH2 0xC17 JUMPI POP DUP2 DUP4 GT JUMPDEST ISZERO PUSH2 0xC67 JUMPI PUSH2 0xC26 DUP3 DUP5 PUSH2 0x365C JUMP JUMPDEST SWAP1 POP PUSH0 PUSH2 0xC34 PUSH1 0x2 DUP4 PUSH2 0x3649 JUMP JUMPDEST SWAP1 POP PUSH2 0xC41 DUP10 ADDRESS DUP4 PUSH2 0x1723 JUMP JUMPDEST PUSH2 0xC4B DUP2 DUP4 PUSH2 0x365C JUMP JUMPDEST PUSH1 0x12 PUSH0 DUP3 DUP3 SLOAD PUSH2 0xC5B SWAP2 SWAP1 PUSH2 0x351A JUMP JUMPDEST SWAP3 POP POP DUP2 SWAP1 SSTORE POP DUP3 SWAP4 POP POP JUMPDEST PUSH0 PUSH1 0xA PUSH2 0xC75 DUP6 PUSH1 0x7 PUSH2 0x361E JUMP JUMPDEST PUSH2 0xC7F SWAP2 SWAP1 PUSH2 0x3649 JUMP JUMPDEST SWAP1 POP DUP1 PUSH1 0x12 PUSH0 DUP3 DUP3 SLOAD PUSH2 0xC92 SWAP2 SWAP1 PUSH2 0x351A JUMP JUMPDEST SWAP1 SWAP2 SSTORE POP PUSH0 SWAP1 POP PUSH1 0xA PUSH2 0xCA6 DUP7 PUSH1 0x1 PUSH2 0x361E JUMP JUMPDEST PUSH2 0xCB0 SWAP2 SWAP1 PUSH2 0x3649 JUMP JUMPDEST SWAP1 POP PUSH2 0xCBF DUP11 PUSH2 0xDEAD DUP4 PUSH2 0x1723 JUMP JUMPDEST PUSH0 DUP2 PUSH2 0xCCB DUP5 DUP9 PUSH2 0x365C JUMP JUMPDEST PUSH2 0xCD5 SWAP2 SWAP1 PUSH2 0x365C JUMP JUMPDEST SWAP1 POP DUP1 PUSH1 0x13 PUSH0 DUP3 DUP3 SLOAD PUSH2 0xCE8 SWAP2 SWAP1 PUSH2 0x351A JUMP JUMPDEST SWAP1 SWAP2 SSTORE POP PUSH2 0xCF9 SWAP1 POP DUP12 ADDRESS DUP6 PUSH2 0x1723 JUMP JUMPDEST PUSH2 0xD04 DUP12 ADDRESS DUP4 PUSH2 0x1723 JUMP JUMPDEST PUSH2 0xD0E DUP5 DUP8 PUSH2 0x351A JUMP JUMPDEST PUSH2 0xD18 SWAP1 DUP11 PUSH2 0x365C JUMP JUMPDEST SWAP9 POP POP POP POP POP POP POP POP JUMPDEST PUSH1 0x6 SLOAD PUSH1 0x1 PUSH1 0x1 PUSH1 0xA0 SHL SUB SWAP1 DUP2 AND SWAP1 DUP5 AND SUB PUSH2 0x1092 JUMPI PUSH1 0x19 SLOAD PUSH1 0x1 PUSH1 0xA8 SHL SWAP1 DIV PUSH1 0xFF AND ISZERO PUSH2 0xE1E JUMPI PUSH1 0x6 SLOAD PUSH1 0x40 DUP1 MLOAD PUSH4 0x240BC6B PUSH1 0xE2 SHL DUP2 MSTORE SWAP1 MLOAD PUSH1 0x1 PUSH1 0x1 PUSH1 0xA0 SHL SUB SWAP1 SWAP3 AND SWAP2 PUSH0 SWAP2 DUP3 SWAP2 DUP5 SWAP2 PUSH4 0x902F1AC SWAP2 PUSH1 0x4 DUP1 DUP4 ADD SWAP3 PUSH1 0x60 SWAP3 SWAP2 SWAP1 DUP3 SWAP1 SUB ADD DUP2 DUP7 GAS STATICCALL ISZERO DUP1 ISZERO PUSH2 0xD97 JUMPI RETURNDATASIZE PUSH0 PUSH0 RETURNDATACOPY RETURNDATASIZE PUSH0 REVERT JUMPDEST POP POP POP POP PUSH1 0x40 MLOAD RETURNDATASIZE PUSH1 0x1F NOT PUSH1 0x1F DUP3 ADD AND DUP3 ADD DUP1 PUSH1 0x40 MSTORE POP DUP2 ADD SWAP1 PUSH2 0xDBB SWAP2 SWAP1 PUSH2 0x36A4 JUMP JUMPDEST POP SWAP2 POP SWAP2 POP DUP2 PUSH1 0x1 PUSH1 0x1 PUSH1 0x70 SHL SUB AND PUSH0 EQ DUP1 ISZERO PUSH2 0xDDF JUMPI POP PUSH1 0x1 PUSH1 0x1 PUSH1 0x70 SHL SUB DUP2 AND ISZERO JUMPDEST DUP1 ISZERO PUSH2 0xDF4 JUMPI POP PUSH1 0x19 SLOAD PUSH1 0x1 PUSH1 0xA8 SHL SWAP1 DIV PUSH1 0xFF AND JUMPDEST ISZERO PUSH2 0xE1A JUMPI PUSH1 0x19 DUP1 SLOAD PUSH1 0xFF PUSH1 0xA8 SHL NOT AND SWAP1 SSTORE PUSH2 0xE11 DUP8 DUP8 DUP8 PUSH2 0x1723 JUMP JUMPDEST POP POP POP POP POP POP POP JUMP JUMPDEST POP POP POP JUMPDEST PUSH2 0xE29 PUSH1 0xA TIMESTAMP PUSH2 0x365C JUMP JUMPDEST ORIGIN PUSH0 SWAP1 DUP2 MSTORE PUSH1 0x9 PUSH1 0x20 MSTORE PUSH1 0x40 SWAP1 KECCAK256 SLOAD LT PUSH2 0xE6A JUMPI PUSH1 0x40 MLOAD PUSH3 0x461BCD PUSH1 0xE5 SHL DUP2 MSTORE PUSH1 0x20 PUSH1 0x4 DUP3 ADD MSTORE PUSH1 0x2 PUSH1 0x24 DUP3 ADD MSTORE PUSH2 0x18D9 PUSH1 0xF2 SHL PUSH1 0x44 DUP3 ADD MSTORE PUSH1 0x64 ADD PUSH2 0xF2 JUMP JUMPDEST PUSH0 PUSH2 0xE74 DUP4 PUSH2 0x1DB0 JUMP JUMPDEST GT PUSH2 0x1092 JUMPI TIMESTAMP PUSH1 0x15 SLOAD LT PUSH2 0xEB6 JUMPI PUSH1 0x40 MLOAD PUSH3 0x461BCD PUSH1 0xE5 SHL DUP2 MSTORE PUSH1 0x20 PUSH1 0x4 DUP3 ADD MSTORE PUSH1 0x9 PUSH1 0x24 DUP3 ADD MSTORE PUSH9 0x737461727454696D65 PUSH1 0xB8 SHL PUSH1 0x44 DUP3 ADD MSTORE PUSH1 0x64 ADD PUSH2 0xF2 JUMP JUMPDEST PUSH1 0x64 PUSH2 0xEC0 PUSH2 0x1B11 JUMP JUMPDEST PUSH2 0xECB SWAP1 PUSH1 0xA PUSH2 0x361E JUMP JUMPDEST PUSH2 0xED5 SWAP2 SWAP1 PUSH2 0x3649 JUMP JUMPDEST DUP3 LT PUSH2 0xF0F JUMPI PUSH1 0x40 MLOAD PUSH3 0x461BCD PUSH1 0xE5 SHL DUP2 MSTORE PUSH1 0x20 PUSH1 0x4 DUP3 ADD MSTORE PUSH1 0x9 PUSH1 0x24 DUP3 ADD MSTORE PUSH9 0x36B0BC103A37B5B2B7 PUSH1 0xB9 SHL PUSH1 0x44 DUP3 ADD MSTORE PUSH1 0x64 ADD PUSH2 0xF2 JUMP JUMPDEST PUSH2 0xF17 PUSH2 0x1B51 JUMP JUMPDEST PUSH1 0x1C SLOAD PUSH0 SWAP1 PUSH1 0xFF AND PUSH2 0xF2B JUMPI PUSH2 0x12C PUSH2 0xF2F JUMP JUMPDEST PUSH2 0xB54 JUMPDEST PUSH2 0xFFFF AND SWAP1 POP PUSH0 PUSH2 0x2710 PUSH2 0xF43 DUP4 DUP7 PUSH2 0x361E JUMP JUMPDEST PUSH2 0xF4D SWAP2 SWAP1 PUSH2 0x3649 JUMP JUMPDEST SWAP1 POP PUSH0 PUSH2 0x2710 PUSH2 0xF5F DUP7 PUSH2 0x12C PUSH2 0x361E JUMP JUMPDEST PUSH2 0xF69 SWAP2 SWAP1 PUSH2 0x3649 JUMP JUMPDEST PUSH1 0x1C SLOAD SWAP1 SWAP2 POP PUSH0 SWAP1 PUSH1 0xFF AND DUP1 ISZERO PUSH2 0xF7F JUMPI POP DUP2 DUP4 GT JUMPDEST ISZERO PUSH2 0xFCF JUMPI PUSH2 0xF8E DUP3 DUP5 PUSH2 0x365C JUMP JUMPDEST SWAP1 POP PUSH0 PUSH2 0xF9C PUSH1 0x2 DUP4 PUSH2 0x3649 JUMP JUMPDEST SWAP1 POP PUSH2 0xFA9 DUP10 ADDRESS DUP4 PUSH2 0x1723 JUMP JUMPDEST PUSH2 0xFB3 DUP2 DUP4 PUSH2 0x365C JUMP JUMPDEST PUSH1 0x12 PUSH0 DUP3 DUP3 SLOAD PUSH2 0xFC3 SWAP2 SWAP1 PUSH2 0x351A JUMP JUMPDEST SWAP3 POP POP DUP2 SWAP1 SSTORE POP DUP3 SWAP4 POP POP JUMPDEST PUSH0 PUSH1 0xA PUSH2 0xFDD DUP6 PUSH1 0x7 PUSH2 0x361E JUMP JUMPDEST PUSH2 0xFE7 SWAP2 SWAP1 PUSH2 0x3649 JUMP JUMPDEST SWAP1 POP DUP1 PUSH1 0x12 PUSH0 DUP3 DUP3 SLOAD PUSH2 0xFFA SWAP2 SWAP1 PUSH2 0x351A JUMP JUMPDEST SWAP1 SWAP2 SSTORE POP PUSH0 SWAP1 POP PUSH1 0xA PUSH2 0x100E DUP7 PUSH1 0x1 PUSH2 0x361E JUMP JUMPDEST PUSH2 0x1018 SWAP2 SWAP1 PUSH2 0x3649 JUMP JUMPDEST SWAP1 POP PUSH2 0x1027 DUP11 PUSH2 0xDEAD DUP4 PUSH2 0x1723 JUMP JUMPDEST PUSH0 DUP2 PUSH2 0x1033 DUP5 DUP9 PUSH2 0x365C JUMP JUMPDEST PUSH2 0x103D SWAP2 SWAP1 PUSH2 0x365C JUMP JUMPDEST SWAP1 POP DUP1 PUSH1 0x13 PUSH0 DUP3 DUP3 SLOAD PUSH2 0x1050 SWAP2 SWAP1 PUSH2 0x351A JUMP JUMPDEST SWAP1 SWAP2 SSTORE POP PUSH2 0x1061 SWAP1 POP DUP12 ADDRESS DUP6 PUSH2 0x1723 JUMP JUMPDEST PUSH2 0x106C DUP12 ADDRESS DUP4 PUSH2 0x1723 JUMP JUMPDEST PUSH2 0x1076 DUP5 DUP8 PUSH2 0x351A JUMP JUMPDEST PUSH2 0x1080 SWAP1 DUP11 PUSH2 0x365C JUMP JUMPDEST SWAP9 POP PUSH2 0x108A PUSH2 0x1FA8 JUMP JUMPDEST POP POP POP POP POP POP POP JUMPDEST PUSH2 0x9A2 PUSH2 0x21E8 JUMP JUMPDEST PUSH1 0x1 PUSH1 0x1 PUSH1 0xA0 SHL SUB DUP3 DUP2 AND PUSH0 SWAP1 DUP2 MSTORE PUSH1 0xA PUSH1 0x20 MSTORE PUSH1 0x40 DUP2 KECCAK256 SLOAD SWAP1 SWAP2 AND ISZERO DUP1 ISZERO PUSH2 0x10D1 JUMPI POP PUSH1 0x17 SLOAD PUSH1 0x1 PUSH1 0x1 PUSH1 0xA0 SHL SUB DUP5 DUP2 AND SWAP2 AND EQ ISZERO JUMPDEST DUP1 ISZERO PUSH2 0x10EB JUMPI POP PUSH1 0x6 SLOAD PUSH1 0x1 PUSH1 0x1 PUSH1 0xA0 SHL SUB DUP4 DUP2 AND SWAP2 AND EQ ISZERO JUMPDEST DUP1 ISZERO PUSH2 0x1105 JUMPI POP PUSH1 0x6 SLOAD PUSH1 0x1 PUSH1 0x1 PUSH1 0xA0 SHL SUB DUP5 DUP2 AND SWAP2 AND EQ ISZERO JUMPDEST ISZERO PUSH2 0x1111 JUMPI POP PUSH0 PUSH2 0x11DD JUMP JUMPDEST PUSH1 0x1 PUSH1 0x1 PUSH1 0xA0 SHL SUB DUP1 DUP5 AND PUSH0 SWAP1 DUP2 MSTORE PUSH1 0x7 PUSH1 0x20 SWAP1 DUP2 MSTORE PUSH1 0x40 DUP1 DUP4 KECCAK256 SWAP4 DUP7 AND DUP4 MSTORE SWAP3 SWAP1 MSTORE KECCAK256 SLOAD PUSH1 0xFF AND DUP1 PUSH2 0x1155 JUMPI POP DUP2 PUSH1 0x1 PUSH1 0x1 PUSH1 0xA0 SHL SUB AND DUP4 PUSH1 0x1 PUSH1 0x1 PUSH1 0xA0 SHL SUB AND EQ JUMPDEST ISZERO PUSH2 0x1161 JUMPI POP PUSH0 PUSH2 0x11DD JUMP JUMPDEST DUP2 PUSH0 JUMPDEST PUSH1 0x1 PUSH1 0x1 PUSH1 0xA0 SHL SUB DUP3 AND ISZERO DUP1 ISZERO SWAP1 PUSH2 0x117F JUMPI POP PUSH1 0x19 DUP2 PUSH1 0xFF AND LT JUMPDEST ISZERO PUSH2 0x11D6 JUMPI DUP5 PUSH1 0x1 PUSH1 0x1 PUSH1 0xA0 SHL SUB AND DUP3 PUSH1 0x1 PUSH1 0x1 PUSH1 0xA0 SHL SUB AND SUB PUSH2 0x11A7 JUMPI PUSH0 SWAP3 POP POP POP PUSH2 0x11DD JUMP JUMPDEST PUSH1 0x1 PUSH1 0x1 PUSH1 0xA0 SHL SUB SWAP2 DUP3 AND PUSH0 SWAP1 DUP2 MSTORE PUSH1 0xA PUSH1 0x20 MSTORE PUSH1 0x40 SWAP1 KECCAK256 SLOAD SWAP1 SWAP2 AND SWAP1 DUP1 PUSH2 0x11CE DUP2 PUSH2 0x36F0 JUMP JUMPDEST SWAP2 POP POP PUSH2 0x1164 JUMP JUMPDEST PUSH1 0x1 SWAP3 POP POP POP JUMPDEST SWAP3 SWAP2 POP POP JUMP JUMPDEST PUSH0 PUSH2 0x11F7 DUP4 PUSH1 0x1 PUSH1 0x1 PUSH1 0xA0 SHL SUB DUP5 AND PUSH2 0x2367 JUMP JUMPDEST SWAP4 SWAP3 POP POP POP JUMP JUMPDEST PUSH0 PUSH2 0x120A PUSH1 0xA DUP4 PUSH2 0x370E JUMP JUMPDEST SWAP1 POP PUSH0 PUSH2 0x1218 PUSH1 0x2 DUP4 PUSH2 0x370E JUMP JUMPDEST ISZERO SWAP1 POP PUSH0 PUSH2 0x1227 PUSH1 0x1 NUMBER PUSH2 0x365C JUMP JUMPDEST BLOCKHASH SWAP1 POP DUP1 PUSH2 0x123E JUMPI PUSH2 0x123A PUSH1 0x2 NUMBER PUSH2 0x365C JUMP JUMPDEST BLOCKHASH SWAP1 POP JUMPDEST PUSH1 0xFF DUP2 AND PUSH0 PUSH2 0x124E PUSH1 0xA DUP4 PUSH2 0x3735 JUMP JUMPDEST SWAP1 POP PUSH0 PUSH2 0x125C PUSH1 0x2 DUP4 PUSH2 0x3735 JUMP JUMPDEST PUSH1 0xFF AND ISZERO SWAP1 POP DUP5 ISZERO ISZERO DUP2 EQ PUSH0 PUSH2 0x1273 DUP10 PUSH1 0x2 PUSH2 0x361E JUMP JUMPDEST SWAP1 POP PUSH0 PUSH1 0x64 PUSH2 0x1283 DUP12 PUSH1 0x5 PUSH2 0x361E JUMP JUMPDEST PUSH2 0x128D SWAP2 SWAP1 PUSH2 0x3649 JUMP JUMPDEST SWAP1 POP PUSH0 PUSH2 0x129A DUP3 DUP13 PUSH2 0x365C JUMP JUMPDEST PUSH1 0xF SLOAD SWAP1 SWAP2 POP PUSH1 0x1 PUSH1 0x1 PUSH1 0xA0 SHL SUB AND ISZERO DUP1 ISZERO SWAP1 PUSH2 0x12B6 JUMPI POP PUSH0 DUP3 GT JUMPDEST ISZERO PUSH2 0x12D3 JUMPI PUSH1 0xF SLOAD PUSH2 0x12D3 SWAP1 DUP14 SWAP1 PUSH1 0x1 PUSH1 0x1 PUSH1 0xA0 SHL SUB AND DUP5 PUSH2 0x1723 JUMP JUMPDEST PUSH2 0x12DE DUP13 ADDRESS DUP4 PUSH2 0x1723 JUMP JUMPDEST DUP4 ISZERO PUSH2 0x13B6 JUMPI ADDRESS PUSH0 SWAP1 DUP2 MSTORE PUSH1 0x20 DUP2 SWAP1 MSTORE PUSH1 0x40 SWAP1 KECCAK256 SLOAD DUP4 DUP2 LT PUSH2 0x1347 JUMPI PUSH2 0x1305 ADDRESS DUP15 DUP7 PUSH2 0x1723 JUMP JUMPDEST PUSH1 0x1 ISZERO ISZERO DUP14 PUSH1 0x1 PUSH1 0x1 PUSH1 0xA0 SHL SUB AND PUSH0 MLOAD PUSH1 0x20 PUSH2 0x8ACD PUSH0 CODECOPY PUSH0 MLOAD SWAP1 PUSH0 MSTORE DUP15 DUP8 PUSH1 0x40 MLOAD PUSH2 0x133A SWAP3 SWAP2 SWAP1 SWAP2 DUP3 MSTORE PUSH1 0x20 DUP3 ADD MSTORE PUSH1 0x40 ADD SWAP1 JUMP JUMPDEST PUSH1 0x40 MLOAD DUP1 SWAP2 SUB SWAP1 LOG3 PUSH2 0x13B0 JUMP JUMPDEST DUP1 ISZERO PUSH2 0x1358 JUMPI PUSH2 0x1358 ADDRESS DUP15 DUP4 PUSH2 0x1723 JUMP JUMPDEST PUSH1 0x1 PUSH1 0x1E PUSH0 PUSH2 0x100 EXP DUP2 SLOAD DUP2 PUSH1 0xFF MUL NOT AND SWAP1 DUP4 ISZERO ISZERO MUL OR SWAP1 SSTORE POP PUSH1 0x1 ISZERO ISZERO DUP14 PUSH1 0x1 PUSH1 0x1 PUSH1 0xA0 SHL SUB AND PUSH0 MLOAD PUSH1 0x20 PUSH2 0x8ACD PUSH0 CODECOPY PUSH0 MLOAD SWAP1 PUSH0 MSTORE DUP15 DUP5 PUSH1 0x40 MLOAD PUSH2 0x13A7 SWAP3 SWAP2 SWAP1 SWAP2 DUP3 MSTORE PUSH1 0x20 DUP3 ADD MSTORE PUSH1 0x40 ADD SWAP1 JUMP JUMPDEST PUSH1 0x40 MLOAD DUP1 SWAP2 SUB SWAP1 LOG3 JUMPDEST POP PUSH2 0x13EA JUMP JUMPDEST PUSH1 0x40 DUP1 MLOAD DUP13 DUP2 MSTORE PUSH0 PUSH1 0x20 DUP3 ADD DUP2 SWAP1 MSTORE SWAP2 PUSH1 0x1 PUSH1 0x1 PUSH1 0xA0 SHL SUB DUP16 AND SWAP2 PUSH0 MLOAD PUSH1 0x20 PUSH2 0x8ACD PUSH0 CODECOPY PUSH0 MLOAD SWAP1 PUSH0 MSTORE SWAP2 ADD PUSH1 0x40 MLOAD DUP1 SWAP2 SUB SWAP1 LOG3 JUMPDEST POP POP POP POP POP POP POP POP POP POP POP POP JUMP JUMPDEST PUSH1 0x1 PUSH1 0x1 PUSH1 0xA0 SHL SUB DUP1 DUP3 AND PUSH0 SWAP1 DUP2 MSTORE PUSH1 0xA PUSH1 0x20 SWAP1 DUP2 MSTORE PUSH1 0x40 SWAP2 DUP3 SWAP1 KECCAK256 DUP3 MLOAD PUSH2 0x160 DUP2 ADD DUP5 MSTORE DUP2 SLOAD SWAP1 SWAP5 AND DUP5 MSTORE PUSH1 0x1 DUP2 ADD SLOAD SWAP2 DUP5 ADD SWAP2 SWAP1 SWAP2 MSTORE PUSH1 0x2 DUP2 ADD SLOAD SWAP2 DUP4 ADD SWAP2 SWAP1 SWAP2 MSTORE PUSH1 0x3 DUP2 ADD SLOAD PUSH1 0x60 DUP4 ADD MSTORE PUSH1 0x4 DUP2 ADD SLOAD PUSH1 0x80 DUP4 ADD MSTORE PUSH1 0x5 DUP2 ADD SLOAD PUSH1 0xA0 DUP4 ADD MSTORE PUSH1 0x6 DUP2 ADD SLOAD PUSH1 0xC0 DUP4 ADD MSTORE PUSH1 0x7 DUP2 ADD SLOAD PUSH1 0xE0 DUP4 ADD MSTORE PUSH1 0x8 DUP2 ADD SLOAD PUSH2 0x100 DUP1 DUP5 ADD SWAP2 SWAP1 SWAP2 MSTORE PUSH1 0x9 SWAP1 SWAP2 ADD SLOAD PUSH1 0xFF DUP1 DUP3 AND ISZERO ISZERO PUSH2 0x120 DUP6 ADD MSTORE SWAP2 SWAP1 DIV AND ISZERO DUP1 ISZERO PUSH2 0x140 DUP4 ADD DUP2 SWAP1 MSTORE SWAP1 PUSH2 0x14AC JUMPI POP DUP1 PUSH2 0x120 ADD MLOAD JUMPDEST PUSH2 0x14F8 JUMPI PUSH1 0x40 MLOAD PUSH3 0x461BCD PUSH1 0xE5 SHL DUP2 MSTORE PUSH1 0x20 PUSH1 0x4 DUP3 ADD MSTORE PUSH1 0x1B PUSH1 0x24 DUP3 ADD MSTORE PUSH32 0x53746174696320726577617264206E6F7420617661696C61626C650000000000 PUSH1 0x44 DUP3 ADD MSTORE PUSH1 0x64 ADD PUSH2 0xF2 JUMP JUMPDEST PUSH0 PUSH2 0x1502 DUP4 PUSH2 0x23B3 JUMP JUMPDEST SWAP1 POP PUSH0 DUP2 GT PUSH2 0x153F JUMPI PUSH1 0x40 MLOAD PUSH3 0x461BCD PUSH1 0xE5 SHL DUP2 MSTORE PUSH1 0x20 PUSH1 0x4 DUP3 ADD MSTORE PUSH1 0x9 PUSH1 0x24 DUP3 ADD MSTORE PUSH9 0x139BC81C995DD85C99 PUSH1 0xBA SHL PUSH1 0x44 DUP3 ADD MSTORE PUSH1 0x64 ADD PUSH2 0xF2 JUMP JUMPDEST PUSH0 DUP1 DUP1 DUP1 PUSH2 0x154B PUSH2 0x25DE JUMP JUMPDEST PUSH1 0x20 DUP11 ADD MLOAD SWAP4 SWAP8 POP SWAP2 SWAP6 POP SWAP4 POP SWAP2 POP PUSH0 PUSH3 0x186A0 PUSH2 0x1569 DUP5 DUP5 PUSH2 0x361E JUMP JUMPDEST PUSH2 0x1573 SWAP2 SWAP1 PUSH2 0x3649 JUMP JUMPDEST PUSH3 0x186A0 PUSH2 0x1581 DUP7 DUP6 PUSH2 0x361E JUMP JUMPDEST PUSH2 0x158B SWAP2 SWAP1 PUSH2 0x3649 JUMP JUMPDEST PUSH3 0x186A0 PUSH2 0x1599 DUP9 DUP7 PUSH2 0x361E JUMP JUMPDEST PUSH2 0x15A3 SWAP2 SWAP1 PUSH2 0x3649 JUMP JUMPDEST PUSH2 0x15AD SWAP1 DUP11 PUSH2 0x351A JUMP JUMPDEST PUSH2 0x15B7 SWAP2 SWAP1 PUSH2 0x351A JUMP JUMPDEST PUSH2 0x15C1 SWAP2 SWAP1 PUSH2 0x351A JUMP JUMPDEST SWAP1 POP PUSH0 PUSH2 0x15CD DUP3 PUSH2 0x2630 JUMP JUMPDEST SWAP1 POP PUSH2 0x15DB DUP11 DUP10 DUP5 DUP5 PUSH2 0x2751 JUMP JUMPDEST PUSH0 DUP3 PUSH3 0x186A0 PUSH2 0x15EB DUP9 DUP8 PUSH2 0x361E JUMP JUMPDEST PUSH2 0x15F5 SWAP2 SWAP1 PUSH2 0x3649 JUMP JUMPDEST PUSH2 0x15FF SWAP1 DUP5 PUSH2 0x361E JUMP JUMPDEST PUSH2 0x1609 SWAP2 SWAP1 PUSH2 0x3649 JUMP JUMPDEST SWAP1 POP DUP1 ISZERO PUSH2 0x161A JUMPI PUSH2 0x161A DUP2 PUSH2 0x2841 JUMP JUMPDEST PUSH0 DUP4 PUSH3 0x186A0 PUSH2 0x162A DUP9 DUP9 PUSH2 0x361E JUMP JUMPDEST PUSH2 0x1634 SWAP2 SWAP1 PUSH2 0x3649 JUMP JUMPDEST PUSH2 0x163E SWAP1 DUP6 PUSH2 0x361E JUMP JUMPDEST PUSH2 0x1648 SWAP2 SWAP1 PUSH2 0x3649 JUMP JUMPDEST SWAP1 POP DUP1 ISZERO PUSH2 0x16C8 JUMPI PUSH1 0x6 SLOAD PUSH1 0x18 SLOAD PUSH1 0x40 MLOAD PUSH4 0xA9059CBB PUSH1 0xE0 SHL DUP2 MSTORE PUSH1 0x1 PUSH1 0x1 PUSH1 0xA0 SHL SUB SWAP2 DUP3 AND PUSH1 0x4 DUP3 ADD MSTORE PUSH1 0x24 DUP2 ADD DUP5 SWAP1 MSTORE SWAP2 AND SWAP1 PUSH4 0xA9059CBB SWAP1 PUSH1 0x44 ADD PUSH1 0x20 PUSH1 0x40 MLOAD DUP1 DUP4 SUB DUP2 PUSH0 DUP8 GAS CALL ISZERO DUP1 ISZERO PUSH2 0x16A2 JUMPI RETURNDATASIZE PUSH0 PUSH0 RETURNDATACOPY RETURNDATASIZE PUSH0 REVERT JUMPDEST POP POP POP POP PUSH1 0x40 MLOAD RETURNDATASIZE PUSH1 0x1F NOT PUSH1 0x1F DUP3 ADD AND DUP3 ADD DUP1 PUSH1 0x40 MSTORE POP DUP2 ADD SWAP1 PUSH2 0x16C6 SWAP2 SWAP1 PUSH2 0x366F JUMP JUMPDEST POP JUMPDEST PUSH1 0x1 PUSH1 0x1 PUSH1 0xA0 SHL SUB DUP13 AND PUSH0 SWAP1 DUP2 MSTORE PUSH1 0xA PUSH1 0x20 MSTORE PUSH1 0x40 DUP2 KECCAK256 PUSH1 0x8 ADD DUP1 SLOAD DUP13 SWAP3 SWAP1 PUSH2 0x16F2 SWAP1 DUP5 SWAP1 PUSH2 0x351A JUMP JUMPDEST SWAP1 SWAP2 SSTORE POP POP POP PUSH1 0x1 PUSH1 0x1 PUSH1 0xA0 SHL SUB SWAP1 SWAP11 AND PUSH0 SWAP1 DUP2 MSTORE PUSH1 0xA PUSH1 0x20 MSTORE PUSH1 0x40 SWAP1 KECCAK256 TIMESTAMP PUSH1 0x4 SWAP1 SWAP2 ADD SSTORE POP POP POP POP POP POP POP POP POP POP JUMP JUMPDEST PUSH1 0x1 PUSH1 0x1 PUSH1 0xA0 SHL SUB DUP4 AND PUSH2 0x174D JUMPI DUP1 PUSH1 0x2 PUSH0 DUP3 DUP3 SLOAD PUSH2 0x1742 SWAP2 SWAP1 PUSH2 0x351A JUMP JUMPDEST SWAP1 SWAP2 SSTORE POP PUSH2 0x17BD SWAP1 POP JUMP JUMPDEST PUSH1 0x1 PUSH1 0x1 PUSH1 0xA0 SHL SUB DUP4 AND PUSH0 SWAP1 DUP2 MSTORE PUSH1 0x20 DUP2 SWAP1 MSTORE PUSH1 0x40 SWAP1 KECCAK256 SLOAD DUP2 DUP2 LT ISZERO PUSH2 0x179F JUMPI PUSH1 0x40 MLOAD PUSH4 0x391434E3 PUSH1 0xE2 SHL DUP2 MSTORE PUSH1 0x1 PUSH1 0x1 PUSH1 0xA0 SHL SUB DUP6 AND PUSH1 0x4 DUP3 ADD MSTORE PUSH1 0x24 DUP2 ADD DUP3 SWAP1 MSTORE PUSH1 0x44 DUP2 ADD DUP4 SWAP1 MSTORE PUSH1 0x64 ADD PUSH2 0xF2 JUMP JUMPDEST PUSH1 0x1 PUSH1 0x1 PUSH1 0xA0 SHL SUB DUP5 AND PUSH0 SWAP1 DUP2 MSTORE PUSH1 0x20 DUP2 SWAP1 MSTORE PUSH1 0x40 SWAP1 KECCAK256 SWAP1 DUP3 SWAP1 SUB SWAP1 SSTORE JUMPDEST PUSH1 0x1 PUSH1 0x1 PUSH1 0xA0 SHL SUB DUP3 AND PUSH2 0x17D9 JUMPI PUSH1 0x2 DUP1 SLOAD DUP3 SWAP1 SUB SWAP1 SSTORE PUSH2 0x17F7 JUMP JUMPDEST PUSH1 0x1 PUSH1 0x1 PUSH1 0xA0 SHL SUB DUP3 AND PUSH0 SWAP1 DUP2 MSTORE PUSH1 0x20 DUP2 SWAP1 MSTORE PUSH1 0x40 SWAP1 KECCAK256 DUP1 SLOAD DUP3 ADD SWAP1 SSTORE JUMPDEST DUP2 PUSH1 0x1 PUSH1 0x1 PUSH1 0xA0 SHL SUB AND DUP4 PUSH1 0x1 PUSH1 0x1 PUSH1 0xA0 SHL SUB AND PUSH32 0xDDF252AD1BE2C89B69C2B068FC378DAA952BA7F163C4A11628F55A4DF523B3EF DUP4 PUSH1 0x40 MLOAD PUSH2 0x183C SWAP2 DUP2 MSTORE PUSH1 0x20 ADD SWAP1 JUMP JUMPDEST PUSH1 0x40 MLOAD DUP1 SWAP2 SUB SWAP1 LOG3 POP POP POP JUMP JUMPDEST PUSH0 DUP1 PUSH2 0x1853 PUSH2 0x1A0D JUMP JUMPDEST SWAP1 POP PUSH11 0x52B7D2DCC80CD2E4000000 DUP2 GT ISZERO PUSH2 0x1870 JUMPI PUSH1 0x32 SWAP2 POP POP SWAP1 JUMP JUMPDEST PUSH1 0x14 SWAP2 POP POP SWAP1 JUMP JUMPDEST PUSH0 PUSH0 PUSH1 0x6 PUSH0 SWAP1 SLOAD SWAP1 PUSH2 0x100 EXP SWAP1 DIV PUSH1 0x1 PUSH1 0x1 PUSH1 0xA0 SHL SUB AND PUSH1 0x1 PUSH1 0x1 PUSH1 0xA0 SHL SUB AND PUSH4 0x902F1AC PUSH1 0x40 MLOAD DUP2 PUSH4 0xFFFFFFFF AND PUSH1 0xE0 SHL DUP2 MSTORE PUSH1 0x4 ADD PUSH1 0x60 PUSH1 0x40 MLOAD DUP1 DUP4 SUB DUP2 DUP7 GAS STATICCALL ISZERO DUP1 ISZERO PUSH2 0x18CA JUMPI RETURNDATASIZE PUSH0 PUSH0 RETURNDATACOPY RETURNDATASIZE PUSH0 REVERT JUMPDEST POP POP POP POP PUSH1 0x40 MLOAD RETURNDATASIZE PUSH1 0x1F NOT PUSH1 0x1F DUP3 ADD AND DUP3 ADD DUP1 PUSH1 0x40 MSTORE POP DUP2 ADD SWAP1 PUSH2 0x18EE SWAP2 SWAP1 PUSH2 0x36A4 JUMP JUMPDEST POP POP PUSH1 0xB SLOAD PUSH1 0x6 SLOAD PUSH1 0x40 MLOAD PUSH4 0x70A08231 PUSH1 0xE0 SHL DUP2 MSTORE PUSH1 0x1 PUSH1 0x1 PUSH1 0xA0 SHL SUB SWAP2 DUP3 AND PUSH1 0x4 DUP3 ADD MSTORE PUSH1 0x1 PUSH1 0x1 PUSH1 0x70 SHL SUB SWAP4 SWAP1 SWAP4 AND SWAP4 POP PUSH0 SWAP3 SWAP2 AND SWAP1 PUSH4 0x70A08231 SWAP1 PUSH1 0x24 ADD PUSH1 0x20 PUSH1 0x40 MLOAD DUP1 DUP4 SUB DUP2 DUP7 GAS STATICCALL ISZERO DUP1 ISZERO PUSH2 0x194A JUMPI RETURNDATASIZE PUSH0 PUSH0 RETURNDATACOPY RETURNDATASIZE PUSH0 REVERT JUMPDEST POP POP POP POP PUSH1 0x40 MLOAD RETURNDATASIZE PUSH1 0x1F NOT PUSH1 0x1F DUP3 ADD AND DUP3 ADD DUP1 PUSH1 0x40 MSTORE POP DUP2 ADD SWAP1 PUSH2 0x196E SWAP2 SWAP1 PUSH2 0x3756 JUMP JUMPDEST SWAP1 POP DUP1 DUP3 GT ISZERO PUSH2 0x1A08 JUMPI PUSH1 0x6 SLOAD PUSH1 0x40 DUP1 MLOAD PUSH4 0x18160DDD PUSH1 0xE0 SHL DUP2 MSTORE SWAP1 MLOAD PUSH0 SWAP3 PUSH1 0x1 PUSH1 0x1 PUSH1 0xA0 SHL SUB AND SWAP2 PUSH4 0x18160DDD SWAP2 PUSH1 0x4 DUP1 DUP4 ADD SWAP3 PUSH1 0x20 SWAP3 SWAP2 SWAP1 DUP3 SWAP1 SUB ADD DUP2 DUP7 GAS STATICCALL ISZERO DUP1 ISZERO PUSH2 0x19BF JUMPI RETURNDATASIZE PUSH0 PUSH0 RETURNDATACOPY RETURNDATASIZE PUSH0 REVERT JUMPDEST POP POP POP POP PUSH1 0x40 MLOAD RETURNDATASIZE PUSH1 0x1F NOT PUSH1 0x1F DUP3 ADD AND DUP3 ADD DUP1 PUSH1 0x40 MSTORE POP DUP2 ADD SWAP1 PUSH2 0x19E3 SWAP2 SWAP1 PUSH2 0x3756 JUMP JUMPDEST SWAP1 POP DUP2 PUSH2 0x19F0 DUP2 DUP6 PUSH2 0x365C JUMP JUMPDEST PUSH2 0x19FA SWAP1 DUP4 PUSH2 0x361E JUMP JUMPDEST PUSH2 0x1A04 SWAP2 SWAP1 PUSH2 0x3649 JUMP JUMPDEST SWAP4 POP POP JUMPDEST POP POP SWAP1 JUMP JUMPDEST PUSH1 0x6 SLOAD PUSH1 0x40 DUP1 MLOAD PUSH4 0x240BC6B PUSH1 0xE2 SHL DUP2 MSTORE SWAP1 MLOAD PUSH0 SWAP3 PUSH1 0x1 PUSH1 0x1 PUSH1 0xA0 SHL SUB AND SWAP2 DUP4 SWAP2 DUP3 SWAP2 DUP5 SWAP2 PUSH4 0x902F1AC SWAP2 PUSH1 0x4 DUP1 DUP3 ADD SWAP3 PUSH1 0x60 SWAP3 SWAP1 SWAP2 SWAP1 DUP3 SWAP1 SUB ADD DUP2 DUP7 GAS STATICCALL ISZERO DUP1 ISZERO PUSH2 0x1A5B JUMPI RETURNDATASIZE PUSH0 PUSH0 RETURNDATACOPY RETURNDATASIZE PUSH0 REVERT JUMPDEST POP POP POP POP PUSH1 0x40 MLOAD RETURNDATASIZE PUSH1 0x1F NOT PUSH1 0x1F DUP3 ADD AND DUP3 ADD DUP1 PUSH1 0x40 MSTORE POP DUP2 ADD SWAP1 PUSH2 0x1A7F SWAP2 SWAP1 PUSH2 0x36A4 JUMP JUMPDEST POP SWAP2 POP SWAP2 POP PUSH0 DUP4 PUSH1 0x1 PUSH1 0x1 PUSH1 0xA0 SHL SUB AND PUSH4 0xDFE1681 PUSH1 0x40 MLOAD DUP2 PUSH4 0xFFFFFFFF AND PUSH1 0xE0 SHL DUP2 MSTORE PUSH1 0x4 ADD PUSH1 0x20 PUSH1 0x40 MLOAD DUP1 DUP4 SUB DUP2 DUP7 GAS STATICCALL ISZERO DUP1 ISZERO PUSH2 0x1AC1 JUMPI RETURNDATASIZE PUSH0 PUSH0 RETURNDATACOPY RETURNDATASIZE PUSH0 REVERT JUMPDEST POP POP POP POP PUSH1 0x40 MLOAD RETURNDATASIZE PUSH1 0x1F NOT PUSH1 0x1F DUP3 ADD AND DUP3 ADD DUP1 PUSH1 0x40 MSTORE POP DUP2 ADD SWAP1 PUSH2 0x1AE5 SWAP2 SWAP1 PUSH2 0x34ED JUMP JUMPDEST SWAP1 POP PUSH1 0x1 PUSH1 0x1 PUSH1 0xA0 SHL SUB DUP2 AND ADDRESS EQ PUSH2 0x1AFD JUMPI DUP2 PUSH2 0x1AFF JUMP JUMPDEST DUP3 JUMPDEST PUSH1 0x1 PUSH1 0x1 PUSH1 0x70 SHL SUB AND SWAP5 POP POP POP POP POP SWAP1 JUMP JUMPDEST PUSH2 0xDEAD PUSH0 SWAP1 DUP2 MSTORE PUSH1 0x20 DUP2 SWAP1 MSTORE PUSH32 0x44AD89BA62B98FF34F51403AC22759B55759460C0BB5521EB4B6EE3CFF49CF83 SLOAD PUSH1 0x2 SLOAD PUSH2 0x1B4C SWAP2 SWAP1 PUSH2 0x365C JUMP JUMPDEST SWAP1 POP SWAP1 JUMP JUMPDEST PUSH1 0x6 SLOAD PUSH1 0x40 DUP1 MLOAD PUSH4 0x240BC6B PUSH1 0xE2 SHL DUP2 MSTORE SWAP1 MLOAD PUSH1 0x1 PUSH1 0x1 PUSH1 0xA0 SHL SUB SWAP1 SWAP3 AND SWAP2 PUSH0 SWAP2 DUP3 SWAP2 DUP5 SWAP2 PUSH4 0x902F1AC SWAP2 PUSH1 0x4 DUP1 DUP4 ADD SWAP3 PUSH1 0x60 SWAP3 SWAP2 SWAP1 DUP3 SWAP1 SUB ADD DUP2 DUP7 GAS STATICCALL ISZERO DUP1 ISZERO PUSH2 0x1B9E JUMPI RETURNDATASIZE PUSH0 PUSH0 RETURNDATACOPY RETURNDATASIZE PUSH0 REVERT JUMPDEST POP POP POP POP PUSH1 0x40 MLOAD RETURNDATASIZE PUSH1 0x1F NOT PUSH1 0x1F DUP3 ADD AND DUP3 ADD DUP1 PUSH1 0x40 MSTORE POP DUP2 ADD SWAP1 PUSH2 0x1BC2 SWAP2 SWAP1 PUSH2 0x36A4 JUMP JUMPDEST POP SWAP2 POP SWAP2 POP DUP2 PUSH1 0x1 PUSH1 0x1 PUSH1 0x70 SHL SUB AND PUSH0 EQ DUP1 PUSH2 0x1BE5 JUMPI POP PUSH1 0x1 PUSH1 0x1 PUSH1 0x70 SHL SUB DUP2 AND ISZERO JUMPDEST ISZERO PUSH2 0x1BEF JUMPI POP POP POP JUMP JUMPDEST PUSH0 DUP4 PUSH1 0x1 PUSH1 0x1 PUSH1 0xA0 SHL SUB AND PUSH4 0xDFE1681 PUSH1 0x40 MLOAD DUP2 PUSH4 0xFFFFFFFF AND PUSH1 0xE0 SHL DUP2 MSTORE PUSH1 0x4 ADD PUSH1 0x20 PUSH1 0x40 MLOAD DUP1 DUP4 SUB DUP2 DUP7 GAS STATICCALL ISZERO DUP1 ISZERO PUSH2 0x1C2C JUMPI RETURNDATASIZE PUSH0 PUSH0 RETURNDATACOPY RETURNDATASIZE PUSH0 REVERT JUMPDEST POP POP POP POP PUSH1 0x40 MLOAD RETURNDATASIZE PUSH1 0x1F NOT PUSH1 0x1F DUP3 ADD AND DUP3 ADD DUP1 PUSH1 0x40 MSTORE POP DUP2 ADD SWAP1 PUSH2 0x1C50 SWAP2 SWAP1 PUSH2 0x34ED JUMP JUMPDEST SWAP1 POP PUSH0 PUSH1 0x1 PUSH1 0x1 PUSH1 0xA0 SHL SUB DUP3 AND ADDRESS EQ PUSH2 0x1C69 JUMPI DUP3 PUSH2 0x1C6B JUMP JUMPDEST DUP4 JUMPDEST PUSH1 0x1 PUSH1 0x1 PUSH1 0x70 SHL SUB AND SWAP1 POP PUSH0 PUSH1 0x1 PUSH1 0x1 PUSH1 0xA0 SHL SUB DUP4 AND ADDRESS EQ PUSH2 0x1C8D JUMPI DUP5 PUSH2 0x1C8F JUMP JUMPDEST DUP4 JUMPDEST PUSH1 0x1 PUSH1 0x1 PUSH1 0x70 SHL SUB AND SWAP1 POP DUP1 PUSH0 SUB PUSH2 0x1CA9 JUMPI POP POP POP POP POP POP JUMP JUMPDEST PUSH0 DUP3 PUSH2 0x1CBD DUP4 PUSH8 0xDE0B6B3A7640000 PUSH2 0x361E JUMP JUMPDEST PUSH2 0x1CC7 SWAP2 SWAP1 PUSH2 0x3649 JUMP JUMPDEST SWAP1 POP PUSH0 PUSH2 0x1CD7 PUSH3 0x15180 TIMESTAMP PUSH2 0x3649 JUMP JUMPDEST SWAP1 POP PUSH1 0x1A SLOAD DUP2 GT ISZERO PUSH2 0x1DA6 JUMPI PUSH0 PUSH1 0x1B SLOAD GT DUP1 ISZERO PUSH2 0x1D0D JUMPI POP PUSH1 0x64 PUSH1 0x1B SLOAD PUSH1 0x5C PUSH2 0x1D00 SWAP2 SWAP1 PUSH2 0x361E JUMP JUMPDEST PUSH2 0x1D0A SWAP2 SWAP1 PUSH2 0x3649 JUMP JUMPDEST DUP3 LT JUMPDEST ISZERO PUSH2 0x1D90 JUMPI PUSH1 0x1C DUP1 SLOAD PUSH1 0xFF NOT AND PUSH1 0x1 OR SWAP1 SSTORE PUSH1 0x1B SLOAD PUSH32 0xE9560271FF9C39B91BAAAAFEBB009E70AD170A54AB31A72F4B884680B076682 SWAP1 DUP3 SWAP1 PUSH2 0x1D50 JUMPI PUSH0 PUSH2 0x1D73 JUMP JUMPDEST PUSH1 0x1B SLOAD PUSH2 0x1D5D DUP6 DUP3 PUSH2 0x365C JUMP JUMPDEST PUSH2 0x1D69 SWAP1 PUSH2 0x2710 PUSH2 0x361E JUMP JUMPDEST PUSH2 0x1D73 SWAP2 SWAP1 PUSH2 0x3649 JUMP JUMPDEST PUSH1 0x40 DUP1 MLOAD SWAP3 DUP4 MSTORE PUSH1 0x20 DUP4 ADD SWAP2 SWAP1 SWAP2 MSTORE ADD PUSH1 0x40 MLOAD DUP1 SWAP2 SUB SWAP1 LOG1 PUSH2 0x1D9B JUMP JUMPDEST PUSH1 0x1C DUP1 SLOAD PUSH1 0xFF NOT AND SWAP1 SSTORE JUMPDEST PUSH1 0x1B DUP3 SWAP1 SSTORE PUSH1 0x1A DUP2 SWAP1 SSTORE JUMPDEST POP POP POP POP POP POP POP POP JUMP JUMPDEST PUSH1 0x80 MLOAD PUSH0 SWAP1 PUSH1 0x1 PUSH1 0x1 PUSH1 0xA0 SHL SUB AND CALLER SUB PUSH2 0x1FA3 JUMPI PUSH0 PUSH0 PUSH1 0x6 PUSH0 SWAP1 SLOAD SWAP1 PUSH2 0x100 EXP SWAP1 DIV PUSH1 0x1 PUSH1 0x1 PUSH1 0xA0 SHL SUB AND PUSH1 0x1 PUSH1 0x1 PUSH1 0xA0 SHL SUB AND PUSH4 0x902F1AC PUSH1 0x40 MLOAD DUP2 PUSH4 0xFFFFFFFF AND PUSH1 0xE0 SHL DUP2 MSTORE PUSH1 0x4 ADD PUSH1 0x60 PUSH1 0x40 MLOAD DUP1 DUP4 SUB DUP2 DUP7 GAS STATICCALL ISZERO DUP1 ISZERO PUSH2 0x1E16 JUMPI RETURNDATASIZE PUSH0 PUSH0 RETURNDATACOPY RETURNDATASIZE PUSH0 REVERT JUMPDEST POP POP POP POP PUSH1 0x40 MLOAD RETURNDATASIZE PUSH1 0x1F NOT PUSH1 0x1F DUP3 ADD AND DUP3 ADD DUP1 PUSH1 0x40 MSTORE POP DUP2 ADD SWAP1 PUSH2 0x1E3A SWAP2 SWAP1 PUSH2 0x36A4 JUMP JUMPDEST POP PUSH1 0xB SLOAD PUSH1 0x6 SLOAD PUSH1 0x40 MLOAD PUSH4 0x70A08231 PUSH1 0xE0 SHL DUP2 MSTORE PUSH1 0x1 PUSH1 0x1 PUSH1 0xA0 SHL SUB SWAP2 DUP3 AND PUSH1 0x4 DUP3 ADD MSTORE PUSH1 0x1 PUSH1 0x1 PUSH1 0x70 SHL SUB SWAP5 DUP6 AND SWAP7 POP SWAP3 SWAP1 SWAP4 AND SWAP4 POP PUSH0 SWAP3 AND SWAP1 PUSH4 0x70A08231 SWAP1 PUSH1 0x24 ADD PUSH1 0x20 PUSH1 0x40 MLOAD DUP1 DUP4 SUB DUP2 DUP7 GAS STATICCALL ISZERO DUP1 ISZERO PUSH2 0x1E99 JUMPI RETURNDATASIZE PUSH0 PUSH0 RETURNDATACOPY RETURNDATASIZE PUSH0 REVERT JUMPDEST POP POP POP POP PUSH1 0x40 MLOAD RETURNDATASIZE PUSH1 0x1F NOT PUSH1 0x1F DUP3 ADD AND DUP3 ADD DUP1 PUSH1 0x40 MSTORE POP DUP2 ADD SWAP1 PUSH2 0x1EBD SWAP2 SWAP1 PUSH2 0x3756 JUMP JUMPDEST SWAP1 POP DUP3 DUP2 GT ISZERO PUSH2 0x1F9F JUMPI PUSH1 0x6 SLOAD PUSH1 0x40 DUP1 MLOAD PUSH4 0x18160DDD PUSH1 0xE0 SHL DUP2 MSTORE SWAP1 MLOAD PUSH0 SWAP3 PUSH1 0x1 PUSH1 0x1 PUSH1 0xA0 SHL SUB AND SWAP2 PUSH4 0x18160DDD SWAP2 PUSH1 0x4 DUP1 DUP4 ADD SWAP3 PUSH1 0x20 SWAP3 SWAP2 SWAP1 DUP3 SWAP1 SUB ADD DUP2 DUP7 GAS STATICCALL ISZERO DUP1 ISZERO PUSH2 0x1F0E JUMPI RETURNDATASIZE PUSH0 PUSH0 RETURNDATACOPY RETURNDATASIZE PUSH0 REVERT JUMPDEST POP POP POP POP PUSH1 0x40 MLOAD RETURNDATASIZE PUSH1 0x1F NOT PUSH1 0x1F DUP3 ADD AND DUP3 ADD DUP1 PUSH1 0x40 MSTORE POP DUP2 ADD SWAP1 PUSH2 0x1F32 SWAP2 SWAP1 PUSH2 0x3756 JUMP JUMPDEST SWAP1 POP DUP1 PUSH0 SUB PUSH2 0x1F47 JUMPI POP PUSH1 0x1 SWAP6 SWAP5 POP POP POP POP POP JUMP JUMPDEST PUSH2 0x1F52 DUP2 DUP4 DUP6 PUSH2 0x2AB7 JUMP JUMPDEST PUSH2 0x1F5C SWAP1 DUP3 PUSH2 0x351A JUMP JUMPDEST SWAP1 POP PUSH2 0x1F9B DUP5 DUP3 PUSH2 0x1F6D DUP3 DUP7 PUSH2 0x365C JUMP JUMPDEST PUSH2 0x1F77 SWAP2 SWAP1 PUSH2 0x361E JUMP JUMPDEST PUSH2 0x1F81 SWAP2 SWAP1 PUSH2 0x3649 JUMP JUMPDEST DUP5 PUSH2 0x1F8C DUP5 DUP11 PUSH2 0x361E JUMP JUMPDEST PUSH2 0x1F96 SWAP2 SWAP1 PUSH2 0x3649 JUMP JUMPDEST PUSH2 0x2BAC JUMP JUMPDEST SWAP5 POP POP JUMPDEST POP POP POP JUMPDEST SWAP2 SWAP1 POP JUMP JUMPDEST PUSH0 PUSH1 0x13 SLOAD PUSH1 0x12 SLOAD PUSH2 0x1FB9 SWAP2 SWAP1 PUSH2 0x351A JUMP JUMPDEST SWAP1 POP PUSH8 0xDE0B6B3A7640000 DUP2 LT ISZERO PUSH2 0x1FCE JUMPI POP JUMP JUMPDEST PUSH2 0x1FE1 ADDRESS PUSH1 0x80 MLOAD DUP4 PUSH2 0x2BC1 PUSH1 0x20 SHL PUSH1 0x20 SHR JUMP JUMPDEST PUSH1 0x40 DUP1 MLOAD PUSH1 0x2 DUP1 DUP3 MSTORE PUSH1 0x60 DUP3 ADD DUP4 MSTORE PUSH0 SWAP3 PUSH1 0x20 DUP4 ADD SWAP1 DUP1 CALLDATASIZE DUP4 CALLDATACOPY ADD SWAP1 POP POP SWAP1 POP ADDRESS DUP2 PUSH0 DUP2 MLOAD DUP2 LT PUSH2 0x2014 JUMPI PUSH2 0x2014 PUSH2 0x3721 JUMP JUMPDEST PUSH1 0x1 PUSH1 0x1 PUSH1 0xA0 SHL SUB SWAP3 DUP4 AND PUSH1 0x20 SWAP2 DUP3 MUL SWAP3 SWAP1 SWAP3 ADD ADD MSTORE PUSH1 0xB SLOAD DUP3 MLOAD SWAP2 AND SWAP1 DUP3 SWAP1 PUSH1 0x1 SWAP1 DUP2 LT PUSH2 0x2045 JUMPI PUSH2 0x2045 PUSH2 0x3721 JUMP JUMPDEST PUSH1 0x1 PUSH1 0x1 PUSH1 0xA0 SHL SUB SWAP3 DUP4 AND PUSH1 0x20 SWAP2 DUP3 MUL SWAP3 SWAP1 SWAP3 ADD ADD MSTORE PUSH1 0x80 MLOAD PUSH1 0x40 MLOAD PUSH4 0x791AC947 PUSH1 0xE0 SHL DUP2 MSTORE SWAP2 AND SWAP1 PUSH4 0x791AC947 SWAP1 PUSH2 0x208A SWAP1 DUP6 SWAP1 PUSH0 SWAP1 DUP7 SWAP1 ADDRESS SWAP1 TIMESTAMP SWAP1 PUSH1 0x4 ADD PUSH2 0x37B0 JUMP JUMPDEST PUSH0 PUSH1 0x40 MLOAD DUP1 DUP4 SUB DUP2 PUSH0 DUP8 DUP1 EXTCODESIZE ISZERO DUP1 ISZERO PUSH2 0x20A1 JUMPI PUSH0 PUSH0 REVERT JUMPDEST POP GAS CALL ISZERO DUP1 ISZERO PUSH2 0x20B3 JUMPI RETURNDATASIZE PUSH0 PUSH0 RETURNDATACOPY RETURNDATASIZE PUSH0 REVERT JUMPDEST POP POP PUSH1 0x13 SLOAD SELFBALANCE SWAP3 POP PUSH0 SWAP2 POP DUP5 SWAP1 PUSH2 0x20CA SWAP1 DUP5 PUSH2 0x361E JUMP JUMPDEST PUSH2 0x20D4 SWAP2 SWAP1 PUSH2 0x3649 JUMP JUMPDEST PUSH1 0x19 SLOAD SWAP1 SWAP2 POP PUSH2 0x20ED SWAP1 PUSH1 0x1 PUSH1 0x1 PUSH1 0xA0 SHL SUB AND DUP3 PUSH2 0x2BCE JUMP JUMPDEST PUSH0 PUSH2 0x20F8 DUP3 DUP5 PUSH2 0x365C JUMP JUMPDEST SWAP1 POP PUSH0 DUP2 GT DUP1 ISZERO PUSH2 0x2113 JUMPI POP PUSH1 0xF SLOAD PUSH1 0x1 PUSH1 0x1 PUSH1 0xA0 SHL SUB AND ISZERO ISZERO JUMPDEST ISZERO PUSH2 0x21A4 JUMPI PUSH1 0xF SLOAD PUSH1 0x40 MLOAD PUSH0 SWAP2 PUSH1 0x1 PUSH1 0x1 PUSH1 0xA0 SHL SUB AND SWAP1 DUP4 SWAP1 DUP4 DUP2 DUP2 DUP2 DUP6 DUP8 GAS CALL SWAP3 POP POP POP RETURNDATASIZE DUP1 PUSH0 DUP2 EQ PUSH2 0x2162 JUMPI PUSH1 0x40 MLOAD SWAP2 POP PUSH1 0x1F NOT PUSH1 0x3F RETURNDATASIZE ADD AND DUP3 ADD PUSH1 0x40 MSTORE RETURNDATASIZE DUP3 MSTORE RETURNDATASIZE PUSH0 PUSH1 0x20 DUP5 ADD RETURNDATACOPY PUSH2 0x2167 JUMP JUMPDEST PUSH1 0x60 SWAP2 POP JUMPDEST POP POP SWAP1 POP DUP1 ISZERO DUP1 ISZERO PUSH2 0x2183 JUMPI POP PUSH1 0xC SLOAD PUSH1 0x1 PUSH1 0x1 PUSH1 0xA0 SHL SUB AND ISZERO ISZERO JUMPDEST ISZERO PUSH2 0x219E JUMPI PUSH1 0xC SLOAD PUSH2 0x219E SWAP1 PUSH1 0x1 PUSH1 0x1 PUSH1 0xA0 SHL SUB AND DUP4 PUSH2 0x2BCE JUMP JUMPDEST POP PUSH2 0x21D8 JUMP JUMPDEST PUSH0 DUP2 GT DUP1 ISZERO PUSH2 0x21BD JUMPI POP PUSH1 0xC SLOAD PUSH1 0x1 PUSH1 0x1 PUSH1 0xA0 SHL SUB AND ISZERO ISZERO JUMPDEST ISZERO PUSH2 0x21D8 JUMPI PUSH1 0xC SLOAD PUSH2 0x21D8 SWAP1 PUSH1 0x1 PUSH1 0x1 PUSH1 0xA0 SHL SUB AND DUP3 PUSH2 0x2BCE JUMP JUMPDEST POP POP PUSH0 PUSH1 0x12 DUP2 SWAP1 SSTORE PUSH1 0x13 SSTORE POP POP POP JUMP JUMPDEST PUSH1 0x6 SLOAD PUSH1 0x40 DUP1 MLOAD PUSH4 0x240BC6B PUSH1 0xE2 SHL DUP2 MSTORE SWAP1 MLOAD PUSH1 0x1 PUSH1 0x1 PUSH1 0xA0 SHL SUB SWAP1 SWAP3 AND SWAP2 PUSH0 SWAP2 DUP3 SWAP2 DUP5 SWAP2 PUSH4 0x902F1AC SWAP2 PUSH1 0x4 DUP1 DUP4 ADD SWAP3 PUSH1 0x60 SWAP3 SWAP2 SWAP1 DUP3 SWAP1 SUB ADD DUP2 DUP7 GAS STATICCALL ISZERO DUP1 ISZERO PUSH2 0x2235 JUMPI RETURNDATASIZE PUSH0 PUSH0 RETURNDATACOPY RETURNDATASIZE PUSH0 REVERT JUMPDEST POP POP POP POP PUSH1 0x40 MLOAD RETURNDATASIZE PUSH1 0x1F NOT PUSH1 0x1F DUP3 ADD AND DUP3 ADD DUP1 PUSH1 0x40 MSTORE POP DUP2 ADD SWAP1 PUSH2 0x2259 SWAP2 SWAP1 PUSH2 0x36A4 JUMP JUMPDEST POP SWAP2 POP SWAP2 POP DUP2 PUSH1 0x1 PUSH1 0x1 PUSH1 0x70 SHL SUB AND PUSH0 EQ DUP1 PUSH2 0x227C JUMPI POP PUSH1 0x1 PUSH1 0x1 PUSH1 0x70 SHL SUB DUP2 AND ISZERO JUMPDEST ISZERO PUSH2 0x2286 JUMPI POP POP POP JUMP JUMPDEST PUSH0 DUP4 PUSH1 0x1 PUSH1 0x1 PUSH1 0xA0 SHL SUB AND PUSH4 0xDFE1681 PUSH1 0x40 MLOAD DUP2 PUSH4 0xFFFFFFFF AND PUSH1 0xE0 SHL DUP2 MSTORE PUSH1 0x4 ADD PUSH1 0x20 PUSH1 0x40 MLOAD DUP1 DUP4 SUB DUP2 DUP7 GAS STATICCALL ISZERO DUP1 ISZERO PUSH2 0x22C3 JUMPI RETURNDATASIZE PUSH0 PUSH0 RETURNDATACOPY RETURNDATASIZE PUSH0 REVERT JUMPDEST POP POP POP POP PUSH1 0x40 MLOAD RETURNDATASIZE PUSH1 0x1F NOT PUSH1 0x1F DUP3 ADD AND DUP3 ADD DUP1 PUSH1 0x40 MSTORE POP DUP2 ADD SWAP1 PUSH2 0x22E7 SWAP2 SWAP1 PUSH2 0x34ED JUMP JUMPDEST SWAP1 POP PUSH0 PUSH1 0x1 PUSH1 0x1 PUSH1 0xA0 SHL SUB DUP3 AND ADDRESS EQ PUSH2 0x2300 JUMPI DUP3 PUSH2 0x2302 JUMP JUMPDEST DUP4 JUMPDEST PUSH1 0x1 PUSH1 0x1 PUSH1 0x70 SHL SUB AND SWAP1 POP PUSH1 0x11 SLOAD DUP2 LT ISZERO PUSH2 0x2341 JUMPI PUSH1 0x10 SLOAD PUSH1 0x1 PUSH1 0xA0 SHL SWAP1 DIV PUSH1 0xFF AND PUSH2 0x233C JUMPI PUSH1 0x10 DUP1 SLOAD PUSH1 0xFF PUSH1 0xA0 SHL NOT AND PUSH1 0x1 PUSH1 0xA0 SHL OR SWAP1 SSTORE JUMPDEST PUSH2 0x99B JUMP JUMPDEST PUSH1 0x10 SLOAD PUSH1 0x1 PUSH1 0xA0 SHL SWAP1 DIV PUSH1 0xFF AND ISZERO PUSH2 0x99B JUMPI PUSH1 0x10 DUP1 SLOAD PUSH1 0xFF PUSH1 0xA0 SHL NOT AND SWAP1 SSTORE POP POP POP POP POP JUMP JUMPDEST PUSH0 DUP2 DUP2 MSTORE PUSH1 0x1 DUP4 ADD PUSH1 0x20 MSTORE PUSH1 0x40 DUP2 KECCAK256 SLOAD PUSH2 0x23AC JUMPI POP DUP2 SLOAD PUSH1 0x1 DUP2 DUP2 ADD DUP5 SSTORE PUSH0 DUP5 DUP2 MSTORE PUSH1 0x20 DUP1 DUP3 KECCAK256 SWAP1 SWAP4 ADD DUP5 SWAP1 SSTORE DUP5 SLOAD DUP5 DUP3 MSTORE DUP3 DUP7 ADD SWAP1 SWAP4 MSTORE PUSH1 0x40 SWAP1 KECCAK256 SWAP2 SWAP1 SWAP2 SSTORE PUSH2 0x11DD JUMP JUMPDEST POP PUSH0 PUSH2 0x11DD JUMP JUMPDEST PUSH1 0x1 PUSH1 0x1 PUSH1 0xA0 SHL SUB DUP1 DUP3 AND PUSH0 SWAP1 DUP2 MSTORE PUSH1 0xA PUSH1 0x20 SWAP1 DUP2 MSTORE PUSH1 0x40 DUP1 DUP4 KECCAK256 DUP2 MLOAD PUSH2 0x160 DUP2 ADD DUP4 MSTORE DUP2 SLOAD SWAP1 SWAP6 AND DUP6 MSTORE PUSH1 0x1 DUP2 ADD SLOAD SWAP3 DUP6 ADD SWAP3 SWAP1 SWAP3 MSTORE PUSH1 0x2 DUP3 ADD SLOAD SWAP1 DUP5 ADD MSTORE PUSH1 0x3 DUP2 ADD SLOAD PUSH1 0x60 DUP5 ADD MSTORE PUSH1 0x4 DUP2 ADD SLOAD PUSH1 0x80 DUP5 ADD MSTORE PUSH1 0x5 DUP2 ADD SLOAD PUSH1 0xA0 DUP5 ADD MSTORE PUSH1 0x6 DUP2 ADD SLOAD PUSH1 0xC0 DUP5 ADD MSTORE PUSH1 0x7 DUP2 ADD SLOAD PUSH1 0xE0 DUP5 ADD MSTORE PUSH1 0x8 DUP2 ADD SLOAD PUSH2 0x100 DUP1 DUP6 ADD SWAP2 SWAP1 SWAP2 MSTORE PUSH1 0x9 SWAP1 SWAP2 ADD SLOAD PUSH1 0xFF DUP1 DUP3 AND ISZERO ISZERO PUSH2 0x120 DUP7 ADD MSTORE SWAP2 SWAP1 DIV AND ISZERO DUP1 ISZERO PUSH2 0x140 DUP5 ADD MSTORE SWAP1 SWAP2 SWAP1 DUP1 PUSH2 0x2465 JUMPI POP DUP1 PUSH2 0x120 ADD MLOAD ISZERO JUMPDEST ISZERO PUSH2 0x2472 JUMPI POP PUSH0 SWAP3 SWAP2 POP POP JUMP JUMPDEST PUSH1 0x1 PUSH1 0x1 PUSH1 0xA0 SHL SUB DUP4 AND PUSH0 SWAP1 DUP2 MSTORE PUSH1 0x9 PUSH1 0x20 MSTORE PUSH1 0x40 DUP2 KECCAK256 SLOAD SWAP1 DUP2 SWAP1 SUB PUSH2 0x249B JUMPI POP PUSH0 SWAP4 SWAP3 POP POP POP JUMP JUMPDEST PUSH0 PUSH3 0x15180 PUSH2 0x24AA DUP4 TIMESTAMP PUSH2 0x365C JUMP JUMPDEST PUSH2 0x24B4 SWAP2 SWAP1 PUSH2 0x3649 JUMP JUMPDEST SWAP1 POP PUSH1 0xC8 DUP2 GT ISZERO PUSH2 0x24C9 JUMPI POP PUSH0 SWAP5 SWAP4 POP POP POP POP JUMP JUMPDEST PUSH0 PUSH2 0x24D2 PUSH2 0x25DE JUMP JUMPDEST POP POP POP SWAP1 POP PUSH1 0x7D DUP3 GT ISZERO PUSH2 0x24E5 JUMPI POP PUSH2 0x3E8 JUMPDEST PUSH1 0x20 DUP5 ADD MLOAD PUSH0 PUSH3 0x186A0 PUSH2 0x24F9 DUP5 DUP5 PUSH2 0x361E JUMP JUMPDEST PUSH2 0x2503 SWAP2 SWAP1 PUSH2 0x3649 JUMP JUMPDEST SWAP1 POP PUSH0 PUSH2 0x12C SWAP1 POP PUSH0 PUSH0 DUP9 PUSH1 0x80 ADD MLOAD GT PUSH2 0x251D JUMPI DUP7 PUSH2 0x2523 JUMP JUMPDEST DUP8 PUSH1 0x80 ADD MLOAD JUMPDEST SWAP1 POP PUSH0 PUSH2 0x2530 DUP3 TIMESTAMP PUSH2 0x365C JUMP JUMPDEST SWAP1 POP PUSH0 PUSH2 0x253D DUP5 DUP4 PUSH2 0x3649 JUMP JUMPDEST SWAP1 POP DUP1 PUSH0 SUB PUSH2 0x2557 JUMPI POP PUSH0 SWAP12 SWAP11 POP POP POP POP POP POP POP POP POP POP POP JUMP JUMPDEST PUSH0 PUSH2 0x2564 PUSH2 0x120 DUP8 PUSH2 0x3649 JUMP JUMPDEST SWAP1 POP PUSH0 PUSH2 0x2571 DUP4 DUP4 PUSH2 0x361E JUMP JUMPDEST SWAP1 POP PUSH0 PUSH2 0x257F DUP10 PUSH1 0x3 PUSH2 0x361E JUMP JUMPDEST SWAP1 POP DUP1 DUP3 DUP15 PUSH2 0x100 ADD MLOAD PUSH2 0x2593 SWAP2 SWAP1 PUSH2 0x351A JUMP JUMPDEST GT ISZERO PUSH2 0x25CC JUMPI DUP1 DUP14 PUSH2 0x100 ADD MLOAD LT PUSH2 0x25B9 JUMPI POP PUSH0 SWAP15 SWAP14 POP POP POP POP POP POP POP POP POP POP POP POP POP POP JUMP JUMPDEST PUSH2 0x100 DUP14 ADD MLOAD PUSH2 0x25C9 SWAP1 DUP3 PUSH2 0x365C JUMP JUMPDEST SWAP2 POP JUMPDEST POP SWAP14 SWAP13 POP POP POP POP POP POP POP POP POP POP POP POP POP JUMP JUMPDEST PUSH0 DUP1 DUP1 DUP1 DUP1 PUSH2 0x25EB PUSH2 0x1A0D JUMP JUMPDEST SWAP1 POP PUSH11 0x52B7D2DCC80CD2E4000000 DUP2 GT ISZERO PUSH2 0x2617 JUMPI PUSH2 0x640 PUSH0 PUSH2 0x12C PUSH1 0x3C SWAP5 POP SWAP5 POP SWAP5 POP SWAP5 POP POP PUSH2 0x262A JUMP JUMPDEST PUSH2 0x3E8 PUSH0 PUSH2 0x12C PUSH1 0x3C SWAP5 POP SWAP5 POP SWAP5 POP SWAP5 POP POP JUMPDEST SWAP1 SWAP2 SWAP3 SWAP4 JUMP JUMPDEST PUSH1 0x40 DUP1 MLOAD PUSH1 0x2 DUP1 DUP3 MSTORE PUSH1 0x60 DUP3 ADD DUP4 MSTORE PUSH0 SWAP3 DUP4 SWAP3 SWAP2 SWAP1 PUSH1 0x20 DUP4 ADD SWAP1 DUP1 CALLDATASIZE DUP4 CALLDATACOPY POP POP PUSH1 0xB SLOAD DUP3 MLOAD SWAP3 SWAP4 POP PUSH1 0x1 PUSH1 0x1 PUSH1 0xA0 SHL SUB AND SWAP2 DUP4 SWAP2 POP PUSH0 SWAP1 PUSH2 0x2673 JUMPI PUSH2 0x2673 PUSH2 0x3721 JUMP JUMPDEST PUSH1 0x20 MUL PUSH1 0x20 ADD ADD SWAP1 PUSH1 0x1 PUSH1 0x1 PUSH1 0xA0 SHL SUB AND SWAP1 DUP2 PUSH1 0x1 PUSH1 0x1 PUSH1 0xA0 SHL SUB AND DUP2 MSTORE POP POP ADDRESS DUP2 PUSH1 0x1 DUP2 MLOAD DUP2 LT PUSH2 0x26A7 JUMPI PUSH2 0x26A7 PUSH2 0x3721 JUMP JUMPDEST PUSH1 0x1 PUSH1 0x1 PUSH1 0xA0 SHL SUB SWAP3 DUP4 AND PUSH1 0x20 SWAP2 DUP3 MUL SWAP3 SWAP1 SWAP3 ADD ADD MSTORE PUSH1 0x80 MLOAD PUSH1 0x40 MLOAD PUSH4 0xD06CA61F PUSH1 0xE0 SHL DUP2 MSTORE PUSH0 SWAP3 SWAP2 SWAP1 SWAP2 AND SWAP1 PUSH4 0xD06CA61F SWAP1 PUSH2 0x26EA SWAP1 DUP8 SWAP1 DUP7 SWAP1 PUSH1 0x4 ADD PUSH2 0x37EB JUMP JUMPDEST PUSH0 PUSH1 0x40 MLOAD DUP1 DUP4 SUB DUP2 DUP7 GAS STATICCALL ISZERO DUP1 ISZERO PUSH2 0x2704 JUMPI RETURNDATASIZE PUSH0 PUSH0 RETURNDATACOPY RETURNDATASIZE PUSH0 REVERT JUMPDEST POP POP POP POP PUSH1 0x40 MLOAD RETURNDATASIZE PUSH0 DUP3 RETURNDATACOPY PUSH1 0x1F RETURNDATASIZE SWAP1 DUP2 ADD PUSH1 0x1F NOT AND DUP3 ADD PUSH1 0x40 MSTORE PUSH2 0x272B SWAP2 SWAP1 DUP2 ADD SWAP1 PUSH2 0x380B JUMP JUMPDEST SWAP1 POP DUP1 PUSH1 0x1 DUP2 MLOAD DUP2 LT PUSH2 0x2740 JUMPI PUSH2 0x2740 PUSH2 0x3721 JUMP JUMPDEST PUSH1 0x20 MUL PUSH1 0x20 ADD ADD MLOAD SWAP3 POP POP POP SWAP2 SWAP1 POP JUMP JUMPDEST PUSH0 PUSH1 0x2 DUP4 PUSH2 0x275F DUP7 DUP6 PUSH2 0x361E JUMP JUMPDEST PUSH2 0x2769 SWAP2 SWAP1 PUSH2 0x3649 JUMP JUMPDEST PUSH2 0x2773 SWAP2 SWAP1 PUSH2 0x3649 JUMP JUMPDEST SWAP1 POP PUSH0 PUSH1 0x2 DUP5 PUSH2 0x2783 DUP8 DUP7 PUSH2 0x361E JUMP JUMPDEST PUSH2 0x278D SWAP2 SWAP1 PUSH2 0x3649 JUMP JUMPDEST PUSH2 0x2797 SWAP2 SWAP1 PUSH2 0x3649 JUMP JUMPDEST SWAP1 POP DUP2 ISZERO PUSH2 0x27AA JUMPI PUSH2 0x27AA ADDRESS DUP8 DUP5 PUSH2 0x1723 JUMP JUMPDEST DUP1 ISZERO PUSH2 0xB46 JUMPI PUSH0 PUSH2 0x27BA DUP3 PUSH2 0x2C31 JUMP JUMPDEST PUSH1 0x6 SLOAD PUSH1 0x40 MLOAD PUSH4 0xA9059CBB PUSH1 0xE0 SHL DUP2 MSTORE PUSH1 0x1 PUSH1 0x1 PUSH1 0xA0 SHL SUB DUP11 DUP2 AND PUSH1 0x4 DUP4 ADD MSTORE PUSH1 0x24 DUP3 ADD DUP5 SWAP1 MSTORE SWAP3 SWAP4 POP SWAP2 AND SWAP1 PUSH4 0xA9059CBB SWAP1 PUSH1 0x44 ADD PUSH1 0x20 PUSH1 0x40 MLOAD DUP1 DUP4 SUB DUP2 PUSH0 DUP8 GAS CALL ISZERO DUP1 ISZERO PUSH2 0x280C JUMPI RETURNDATASIZE PUSH0 PUSH0 RETURNDATACOPY RETURNDATASIZE PUSH0 REVERT JUMPDEST POP POP POP POP PUSH1 0x40 MLOAD RETURNDATASIZE PUSH1 0x1F NOT PUSH1 0x1F DUP3 ADD AND DUP3 ADD DUP1 PUSH1 0x40 MSTORE POP DUP2 ADD SWAP1 PUSH2 0x2830 SWAP2 SWAP1 PUSH2 0x366F JUMP JUMPDEST POP DUP1 ISZERO PUSH2 0xE11 JUMPI PUSH2 0x1DA6 DUP8 DUP3 PUSH2 0x2FA4 JUMP JUMPDEST PUSH1 0xD SLOAD PUSH1 0x1 PUSH1 0x1 PUSH1 0xA0 SHL SUB AND ISZERO DUP1 ISZERO SWAP1 PUSH2 0x2865 JUMPI POP PUSH1 0xE SLOAD PUSH1 0x1 PUSH1 0x1 PUSH1 0xA0 SHL SUB AND ISZERO ISZERO JUMPDEST ISZERO PUSH2 0x2A2D JUMPI PUSH0 PUSH1 0xA PUSH2 0x2878 DUP4 PUSH1 0x7 PUSH2 0x361E JUMP JUMPDEST PUSH2 0x2882 SWAP2 SWAP1 PUSH2 0x3649 JUMP JUMPDEST SWAP1 POP PUSH0 PUSH2 0x288F DUP3 DUP5 PUSH2 0x365C JUMP JUMPDEST SWAP1 POP PUSH1 0x16 SLOAD TIMESTAMP LT ISZERO PUSH2 0x2912 JUMPI PUSH1 0x6 SLOAD PUSH1 0xE SLOAD PUSH1 0x40 MLOAD PUSH4 0xA9059CBB PUSH1 0xE0 SHL DUP2 MSTORE PUSH1 0x1 PUSH1 0x1 PUSH1 0xA0 SHL SUB SWAP2 DUP3 AND PUSH1 0x4 DUP3 ADD MSTORE PUSH1 0x24 DUP2 ADD DUP7 SWAP1 MSTORE SWAP2 AND SWAP1 PUSH4 0xA9059CBB SWAP1 PUSH1 0x44 ADD JUMPDEST PUSH1 0x20 PUSH1 0x40 MLOAD DUP1 DUP4 SUB DUP2 PUSH0 DUP8 GAS CALL ISZERO DUP1 ISZERO PUSH2 0x28EE JUMPI RETURNDATASIZE PUSH0 PUSH0 RETURNDATACOPY RETURNDATASIZE PUSH0 REVERT JUMPDEST POP POP POP POP PUSH1 0x40 MLOAD RETURNDATASIZE PUSH1 0x1F NOT PUSH1 0x1F DUP3 ADD AND DUP3 ADD DUP1 PUSH1 0x40 MSTORE POP DUP2 ADD SWAP1 PUSH2 0x7C9 SWAP2 SWAP1 PUSH2 0x366F JUMP JUMPDEST PUSH1 0x16 SLOAD PUSH2 0x2922 SWAP1 PUSH3 0x278D00 PUSH2 0x351A JUMP JUMPDEST TIMESTAMP LT ISZERO PUSH2 0x2964 JUMPI PUSH1 0x6 SLOAD PUSH1 0xE SLOAD PUSH1 0x40 MLOAD PUSH4 0xA9059CBB PUSH1 0xE0 SHL DUP2 MSTORE PUSH1 0x1 PUSH1 0x1 PUSH1 0xA0 SHL SUB SWAP2 DUP3 AND PUSH1 0x4 DUP3 ADD MSTORE PUSH1 0x24 DUP2 ADD DUP7 SWAP1 MSTORE SWAP2 AND SWAP1 PUSH4 0xA9059CBB SWAP1 PUSH1 0x44 ADD PUSH2 0x28D2 JUMP JUMPDEST PUSH1 0x6 SLOAD PUSH1 0xD SLOAD PUSH1 0x40 MLOAD PUSH4 0xA9059CBB PUSH1 0xE0 SHL DUP2 MSTORE PUSH1 0x1 PUSH1 0x1 PUSH1 0xA0 SHL SUB SWAP2 DUP3 AND PUSH1 0x4 DUP3 ADD MSTORE PUSH1 0x24 DUP2 ADD DUP6 SWAP1 MSTORE SWAP2 AND SWAP1 PUSH4 0xA9059CBB SWAP1 PUSH1 0x44 ADD PUSH1 0x20 PUSH1 0x40 MLOAD DUP1 DUP4 SUB DUP2 PUSH0 DUP8 GAS CALL ISZERO DUP1 ISZERO PUSH2 0x29B6 JUMPI RETURNDATASIZE PUSH0 PUSH0 RETURNDATACOPY RETURNDATASIZE PUSH0 REVERT JUMPDEST POP POP POP POP PUSH1 0x40 MLOAD RETURNDATASIZE PUSH1 0x1F NOT PUSH1 0x1F DUP3 ADD AND DUP3 ADD DUP1 PUSH1 0x40 MSTORE POP DUP2 ADD SWAP1 PUSH2 0x29DA SWAP2 SWAP1 PUSH2 0x366F JUMP JUMPDEST POP PUSH1 0x6 SLOAD PUSH1 0xE SLOAD PUSH1 0x40 MLOAD PUSH4 0xA9059CBB PUSH1 0xE0 SHL DUP2 MSTORE PUSH1 0x1 PUSH1 0x1 PUSH1 0xA0 SHL SUB SWAP2 DUP3 AND PUSH1 0x4 DUP3 ADD MSTORE PUSH1 0x24 DUP2 ADD DUP5 SWAP1 MSTORE SWAP2 AND SWAP1 PUSH4 0xA9059CBB SWAP1 PUSH1 0x44 ADD PUSH1 0x20 PUSH1 0x40 MLOAD DUP1 DUP4 SUB DUP2 PUSH0 DUP8 GAS CALL ISZERO DUP1 ISZERO PUSH2 0x28EE JUMPI RETURNDATASIZE PUSH0 PUSH0 RETURNDATACOPY RETURNDATASIZE PUSH0 REVERT JUMPDEST PUSH1 0xC SLOAD PUSH1 0x1 PUSH1 0x1 PUSH1 0xA0 SHL SUB AND ISZERO PUSH2 0x2AB4 JUMPI PUSH1 0x6 SLOAD PUSH1 0xC SLOAD PUSH1 0x40 MLOAD PUSH4 0xA9059CBB PUSH1 0xE0 SHL DUP2 MSTORE PUSH1 0x1 PUSH1 0x1 PUSH1 0xA0 SHL SUB SWAP2 DUP3 AND PUSH1 0x4 DUP3 ADD MSTORE PUSH1 0x24 DUP2 ADD DUP5 SWAP1 MSTORE SWAP2 AND SWAP1 PUSH4 0xA9059CBB SWAP1 PUSH1 0x44 ADD PUSH1 0x20 PUSH1 0x40 MLOAD DUP1 DUP4 SUB DUP2 PUSH0 DUP8 GAS CALL ISZERO DUP1 ISZERO PUSH2 0x2A90 JUMPI RETURNDATASIZE PUSH0 PUSH0 RETURNDATACOPY RETURNDATASIZE PUSH0 REVERT JUMPDEST POP POP POP POP PUSH1 0x40 MLOAD RETURNDATASIZE PUSH1 0x1F NOT PUSH1 0x1F DUP3 ADD AND DUP3 ADD DUP1 PUSH1 0x40 MSTORE POP DUP2 ADD SWAP1 PUSH2 0x3C0 SWAP2 SWAP1 PUSH2 0x366F JUMP JUMPDEST POP JUMP JUMPDEST PUSH0 DUP1 PUSH2 0x2ACB PUSH2 0x2AC6 DUP5 DUP7 PUSH2 0x361E JUMP JUMPDEST PUSH2 0x3176 JUMP JUMPDEST SWAP1 POP PUSH0 PUSH2 0x2B45 PUSH1 0x6 PUSH0 SWAP1 SLOAD SWAP1 PUSH2 0x100 EXP SWAP1 DIV PUSH1 0x1 PUSH1 0x1 PUSH1 0xA0 SHL SUB AND PUSH1 0x1 PUSH1 0x1 PUSH1 0xA0 SHL SUB AND PUSH4 0x7464FC3D PUSH1 0x40 MLOAD DUP2 PUSH4 0xFFFFFFFF AND PUSH1 0xE0 SHL DUP2 MSTORE PUSH1 0x4 ADD PUSH1 0x20 PUSH1 0x40 MLOAD DUP1 DUP4 SUB DUP2 DUP7 GAS STATICCALL ISZERO DUP1 ISZERO PUSH2 0x2B21 JUMPI RETURNDATASIZE PUSH0 PUSH0 RETURNDATACOPY RETURNDATASIZE PUSH0 REVERT JUMPDEST POP POP POP POP PUSH1 0x40 MLOAD RETURNDATASIZE PUSH1 0x1F NOT PUSH1 0x1F DUP3 ADD AND DUP3 ADD DUP1 PUSH1 0x40 MSTORE POP DUP2 ADD SWAP1 PUSH2 0x2AC6 SWAP2 SWAP1 PUSH2 0x3756 JUMP JUMPDEST SWAP1 POP DUP1 DUP3 GT ISZERO PUSH2 0x2BA3 JUMPI PUSH0 PUSH2 0x2B5A DUP3 DUP5 PUSH2 0x365C JUMP JUMPDEST PUSH2 0x2B64 SWAP1 DUP9 PUSH2 0x361E JUMP JUMPDEST PUSH2 0x2B6F SWAP1 PUSH1 0x8 PUSH2 0x361E JUMP JUMPDEST SWAP1 POP PUSH0 PUSH2 0x2B7D DUP4 PUSH1 0x8 PUSH2 0x361E JUMP JUMPDEST PUSH2 0x2B88 DUP6 PUSH1 0x11 PUSH2 0x361E JUMP JUMPDEST PUSH2 0x2B92 SWAP2 SWAP1 PUSH2 0x351A JUMP JUMPDEST SWAP1 POP PUSH2 0x2B9E DUP2 DUP4 PUSH2 0x3649 JUMP JUMPDEST SWAP5 POP POP POP JUMPDEST POP POP SWAP4 SWAP3 POP POP POP JUMP JUMPDEST PUSH0 DUP2 DUP4 LT PUSH2 0x2BBA JUMPI DUP2 PUSH2 0x11F7 JUMP JUMPDEST POP SWAP1 SWAP2 SWAP1 POP JUMP JUMPDEST PUSH2 0x5D1 DUP4 DUP4 DUP4 PUSH1 0x1 PUSH2 0x31E3 JUMP JUMPDEST PUSH1 0x40 DUP1 MLOAD PUSH0 DUP1 DUP3 MSTORE PUSH1 0x20 DUP3 ADD SWAP1 SWAP3 MSTORE PUSH1 0x1 PUSH1 0x1 PUSH1 0xA0 SHL SUB DUP5 AND SWAP1 DUP4 SWAP1 PUSH1 0x40 MLOAD PUSH2 0x2BF7 SWAP2 SWAP1 PUSH2 0x38D2 JUMP JUMPDEST PUSH0 PUSH1 0x40 MLOAD DUP1 DUP4 SUB DUP2 DUP6 DUP8 GAS CALL SWAP3 POP POP POP RETURNDATASIZE DUP1 PUSH0 DUP2 EQ PUSH2 0xB46 JUMPI PUSH1 0x40 MLOAD SWAP2 POP PUSH1 0x1F NOT PUSH1 0x3F RETURNDATASIZE ADD AND DUP3 ADD PUSH1 0x40 MSTORE RETURNDATASIZE DUP3 MSTORE RETURNDATASIZE PUSH0 PUSH1 0x20 DUP5 ADD RETURNDATACOPY PUSH2 0xB46 JUMP JUMPDEST PUSH0 DUP1 PUSH2 0x2C3E PUSH1 0x2 DUP5 PUSH2 0x3649 JUMP JUMPDEST PUSH1 0x40 DUP1 MLOAD PUSH1 0x2 DUP1 DUP3 MSTORE PUSH1 0x60 DUP3 ADD DUP4 MSTORE SWAP3 SWAP4 POP PUSH0 SWAP3 SWAP1 SWAP2 PUSH1 0x20 DUP4 ADD SWAP1 DUP1 CALLDATASIZE DUP4 CALLDATACOPY ADD SWAP1 POP POP SWAP1 POP ADDRESS DUP2 PUSH0 DUP2 MLOAD DUP2 LT PUSH2 0x2C76 JUMPI PUSH2 0x2C76 PUSH2 0x3721 JUMP JUMPDEST PUSH1 0x1 PUSH1 0x1 PUSH1 0xA0 SHL SUB SWAP3 DUP4 AND PUSH1 0x20 SWAP2 DUP3 MUL SWAP3 SWAP1 SWAP3 ADD ADD MSTORE PUSH1 0xB SLOAD DUP3 MLOAD SWAP2 AND SWAP1 DUP3 SWAP1 PUSH1 0x1 SWAP1 DUP2 LT PUSH2 0x2CA7 JUMPI PUSH2 0x2CA7 PUSH2 0x3721 JUMP JUMPDEST PUSH1 0x1 PUSH1 0x1 PUSH1 0xA0 SHL SUB SWAP3 DUP4 AND PUSH1 0x20 SWAP2 DUP3 MUL SWAP3 SWAP1 SWAP3 ADD ADD MSTORE PUSH1 0x6 SLOAD PUSH2 0x2CCC SWAP2 AND ADDRESS DUP7 PUSH2 0x1723 JUMP JUMPDEST PUSH1 0x6 PUSH0 SWAP1 SLOAD SWAP1 PUSH2 0x100 EXP SWAP1 DIV PUSH1 0x1 PUSH1 0x1 PUSH1 0xA0 SHL SUB AND PUSH1 0x1 PUSH1 0x1 PUSH1 0xA0 SHL SUB AND PUSH4 0xFFF6CAE9 PUSH1 0x40 MLOAD DUP2 PUSH4 0xFFFFFFFF AND PUSH1 0xE0 SHL DUP2 MSTORE PUSH1 0x4 ADD PUSH0 PUSH1 0x40 MLOAD DUP1 DUP4 SUB DUP2 PUSH0 DUP8 DUP1 EXTCODESIZE ISZERO DUP1 ISZERO PUSH2 0x2D18 JUMPI PUSH0 PUSH0 REVERT JUMPDEST POP GAS CALL ISZERO DUP1 ISZERO PUSH2 0x2D2A JUMPI RETURNDATASIZE PUSH0 PUSH0 RETURNDATACOPY RETURNDATASIZE PUSH0 REVERT JUMPDEST POP POP POP POP PUSH2 0x2D41 ADDRESS PUSH1 0x80 MLOAD DUP7 PUSH2 0x2BC1 PUSH1 0x20 SHL PUSH1 0x20 SHR JUMP JUMPDEST PUSH1 0x80 MLOAD PUSH1 0x10 SLOAD PUSH1 0x40 MLOAD PUSH4 0x5C11D795 PUSH1 0xE0 SHL DUP2 MSTORE PUSH1 0x1 PUSH1 0x1 PUSH1 0xA0 SHL SUB SWAP3 DUP4 AND SWAP3 PUSH4 0x5C11D795 SWAP3 PUSH2 0x2D7D SWAP3 DUP8 SWAP3 PUSH0 SWAP3 DUP9 SWAP3 SWAP2 AND SWAP1 TIMESTAMP SWAP1 PUSH1 0x4 ADD PUSH2 0x37B0 JUMP JUMPDEST PUSH0 PUSH1 0x40 MLOAD DUP1 DUP4 SUB DUP2 PUSH0 DUP8 DUP1 EXTCODESIZE ISZERO DUP1 ISZERO PUSH2 0x2D94 JUMPI PUSH0 PUSH0 REVERT JUMPDEST POP GAS CALL ISZERO DUP1 ISZERO PUSH2 0x2DA6 JUMPI RETURNDATASIZE PUSH0 PUSH0 RETURNDATACOPY RETURNDATASIZE PUSH0 REVERT JUMPDEST POP POP PUSH1 0xB SLOAD PUSH1 0x10 SLOAD PUSH1 0x40 MLOAD PUSH4 0x70A08231 PUSH1 0xE0 SHL DUP2 MSTORE PUSH1 0x1 PUSH1 0x1 PUSH1 0xA0 SHL SUB SWAP2 DUP3 AND PUSH1 0x4 DUP3 ADD MSTORE PUSH0 SWAP5 POP SWAP2 AND SWAP2 POP PUSH4 0x70A08231 SWAP1 PUSH1 0x24 ADD PUSH1 0x20 PUSH1 0x40 MLOAD DUP1 DUP4 SUB DUP2 DUP7 GAS STATICCALL ISZERO DUP1 ISZERO PUSH2 0x2DF6 JUMPI RETURNDATASIZE PUSH0 PUSH0 RETURNDATACOPY RETURNDATASIZE PUSH0 REVERT JUMPDEST POP POP POP POP PUSH1 0x40 MLOAD RETURNDATASIZE PUSH1 0x1F NOT PUSH1 0x1F DUP3 ADD AND DUP3 ADD DUP1 PUSH1 0x40 MSTORE POP DUP2 ADD SWAP1 PUSH2 0x2E1A SWAP2 SWAP1 PUSH2 0x3756 JUMP JUMPDEST PUSH1 0x10 SLOAD PUSH1 0xB SLOAD PUSH1 0x40 MLOAD PUSH4 0x92DFDB3 PUSH1 0xE1 SHL DUP2 MSTORE PUSH1 0x1 PUSH1 0x1 PUSH1 0xA0 SHL SUB SWAP2 DUP3 AND PUSH1 0x4 DUP3 ADD MSTORE ADDRESS PUSH1 0x24 DUP3 ADD MSTORE PUSH1 0x44 DUP2 ADD DUP5 SWAP1 MSTORE SWAP3 SWAP4 POP AND SWAP1 PUSH4 0x125BFB66 SWAP1 PUSH1 0x64 ADD PUSH0 PUSH1 0x40 MLOAD DUP1 DUP4 SUB DUP2 PUSH0 DUP8 DUP1 EXTCODESIZE ISZERO DUP1 ISZERO PUSH2 0x2E6F JUMPI PUSH0 PUSH0 REVERT JUMPDEST POP GAS CALL ISZERO DUP1 ISZERO PUSH2 0x2E81 JUMPI RETURNDATASIZE PUSH0 PUSH0 RETURNDATACOPY RETURNDATASIZE PUSH0 REVERT JUMPDEST POP POP PUSH1 0xB SLOAD PUSH1 0x80 MLOAD PUSH1 0x40 MLOAD PUSH4 0x95EA7B3 PUSH1 0xE0 SHL DUP2 MSTORE PUSH1 0x1 PUSH1 0x1 PUSH1 0xA0 SHL SUB SWAP2 DUP3 AND PUSH1 0x4 DUP3 ADD MSTORE PUSH1 0x24 DUP2 ADD DUP7 SWAP1 MSTORE SWAP2 AND SWAP3 POP PUSH4 0x95EA7B3 SWAP2 POP PUSH1 0x44 ADD PUSH1 0x20 PUSH1 0x40 MLOAD DUP1 DUP4 SUB DUP2 PUSH0 DUP8 GAS CALL ISZERO DUP1 ISZERO PUSH2 0x2ED7 JUMPI RETURNDATASIZE PUSH0 PUSH0 RETURNDATACOPY RETURNDATASIZE PUSH0 REVERT JUMPDEST POP POP POP POP PUSH1 0x40 MLOAD RETURNDATASIZE PUSH1 0x1F NOT PUSH1 0x1F DUP3 ADD AND DUP3 ADD DUP1 PUSH1 0x40 MSTORE POP DUP2 ADD SWAP1 PUSH2 0x2EFB SWAP2 SWAP1 PUSH2 0x366F JUMP JUMPDEST POP PUSH1 0x80 MLOAD PUSH1 0xB SLOAD PUSH1 0x40 MLOAD PUSH3 0xE8E337 PUSH1 0xE8 SHL DUP2 MSTORE PUSH1 0x1 PUSH1 0x1 PUSH1 0xA0 SHL SUB SWAP2 DUP3 AND PUSH1 0x4 DUP3 ADD MSTORE ADDRESS PUSH1 0x24 DUP3 ADD DUP2 SWAP1 MSTORE PUSH1 0x44 DUP3 ADD DUP6 SWAP1 MSTORE PUSH1 0x64 DUP3 ADD DUP8 SWAP1 MSTORE PUSH0 PUSH1 0x84 DUP4 ADD DUP2 SWAP1 MSTORE PUSH1 0xA4 DUP4 ADD MSTORE PUSH1 0xC4 DUP3 ADD MSTORE TIMESTAMP PUSH1 0xE4 DUP3 ADD MSTORE SWAP2 AND SWAP1 PUSH4 0xE8E33700 SWAP1 PUSH2 0x104 ADD PUSH1 0x60 PUSH1 0x40 MLOAD DUP1 DUP4 SUB DUP2 PUSH0 DUP8 GAS CALL ISZERO DUP1 ISZERO PUSH2 0x2F75 JUMPI RETURNDATASIZE PUSH0 PUSH0 RETURNDATACOPY RETURNDATASIZE PUSH0 REVERT JUMPDEST POP POP POP POP PUSH1 0x40 MLOAD RETURNDATASIZE PUSH1 0x1F NOT PUSH1 0x1F DUP3 ADD AND DUP3 ADD DUP1 PUSH1 0x40 MSTORE POP DUP2 ADD SWAP1 PUSH2 0x2F99 SWAP2 SWAP1 PUSH2 0x38E8 JUMP JUMPDEST SWAP8 SWAP7 POP POP POP POP POP POP POP JUMP JUMPDEST PUSH1 0x1 PUSH1 0x1 PUSH1 0xA0 SHL SUB DUP1 DUP4 AND PUSH0 SWAP1 DUP2 MSTORE PUSH1 0xA PUSH1 0x20 SWAP1 DUP2 MSTORE PUSH1 0x40 DUP1 DUP4 KECCAK256 DUP2 MLOAD PUSH2 0x160 DUP2 ADD DUP4 MSTORE DUP2 SLOAD SWAP1 SWAP6 AND DUP1 DUP7 MSTORE PUSH1 0x1 DUP1 DUP4 ADD SLOAD SWAP5 DUP8 ADD SWAP5 SWAP1 SWAP5 MSTORE PUSH1 0x2 DUP3 ADD SLOAD SWAP3 DUP7 ADD SWAP3 SWAP1 SWAP3 MSTORE PUSH1 0x3 DUP2 ADD SLOAD PUSH1 0x60 DUP7 ADD MSTORE PUSH1 0x4 DUP2 ADD SLOAD PUSH1 0x80 DUP7 ADD MSTORE PUSH1 0x5 DUP2 ADD SLOAD PUSH1 0xA0 DUP7 ADD MSTORE PUSH1 0x6 DUP2 ADD SLOAD PUSH1 0xC0 DUP7 ADD MSTORE PUSH1 0x7 DUP2 ADD SLOAD PUSH1 0xE0 DUP7 ADD MSTORE PUSH1 0x8 DUP2 ADD SLOAD PUSH2 0x100 DUP1 DUP8 ADD SWAP2 SWAP1 SWAP2 MSTORE PUSH1 0x9 SWAP1 SWAP2 ADD SLOAD PUSH1 0xFF DUP1 DUP3 AND ISZERO ISZERO PUSH2 0x120 DUP9 ADD MSTORE SWAP2 SWAP1 DIV AND ISZERO ISZERO PUSH2 0x140 DUP6 ADD MSTORE SWAP2 SWAP3 SWAP2 SWAP1 PUSH1 0x14 JUMPDEST PUSH1 0x1 PUSH1 0x1 PUSH1 0xA0 SHL SUB DUP4 AND ISZERO DUP1 ISZERO SWAP1 PUSH2 0x3068 JUMPI POP DUP1 DUP3 GT ISZERO JUMPDEST ISZERO PUSH2 0x316C JUMPI PUSH0 PUSH2 0x3077 DUP4 PUSH2 0x32B5 JUMP JUMPDEST SWAP1 POP PUSH0 PUSH1 0x64 PUSH2 0x3086 DUP4 DUP11 PUSH2 0x361E JUMP JUMPDEST PUSH2 0x3090 SWAP2 SWAP1 PUSH2 0x3649 JUMP JUMPDEST SWAP1 POP DUP1 ISZERO PUSH2 0x313B JUMPI PUSH1 0x1 PUSH1 0x1 PUSH1 0xA0 SHL SUB DUP6 AND PUSH0 SWAP1 DUP2 MSTORE PUSH1 0xA PUSH1 0x20 MSTORE PUSH1 0x40 SWAP1 KECCAK256 PUSH1 0x7 ADD SLOAD DUP5 GT PUSH2 0x313B JUMPI PUSH1 0x6 SLOAD PUSH1 0x40 MLOAD PUSH4 0xA9059CBB PUSH1 0xE0 SHL DUP2 MSTORE PUSH1 0x1 PUSH1 0x1 PUSH1 0xA0 SHL SUB DUP8 DUP2 AND PUSH1 0x4 DUP4 ADD MSTORE PUSH1 0x24 DUP3 ADD DUP5 SWAP1 MSTORE SWAP1 SWAP2 AND SWAP1 PUSH4 0xA9059CBB SWAP1 PUSH1 0x44 ADD PUSH1 0x20 PUSH1 0x40 MLOAD DUP1 DUP4 SUB DUP2 PUSH0 DUP8 GAS CALL ISZERO DUP1 ISZERO PUSH2 0x3109 JUMPI RETURNDATASIZE PUSH0 PUSH0 RETURNDATACOPY RETURNDATASIZE PUSH0 REVERT JUMPDEST POP POP POP POP PUSH1 0x40 MLOAD RETURNDATASIZE PUSH1 0x1F NOT PUSH1 0x1F DUP3 ADD AND DUP3 ADD DUP1 PUSH1 0x40 MSTORE POP DUP2 ADD SWAP1 PUSH2 0x312D SWAP2 SWAP1 PUSH2 0x366F JUMP JUMPDEST POP PUSH2 0x3138 DUP2 DUP9 PUSH2 0x351A JUMP JUMPDEST SWAP7 POP JUMPDEST PUSH1 0x1 PUSH1 0x1 PUSH1 0xA0 SHL SUB SWAP5 DUP6 AND PUSH0 SWAP1 DUP2 MSTORE PUSH1 0xA PUSH1 0x20 MSTORE PUSH1 0x40 SWAP1 KECCAK256 SLOAD SWAP1 SWAP5 AND SWAP4 DUP4 PUSH2 0x3162 DUP2 PUSH2 0x3913 JUMP JUMPDEST SWAP5 POP POP POP POP PUSH2 0x3050 JUMP JUMPDEST POP POP POP POP SWAP3 SWAP2 POP POP JUMP JUMPDEST PUSH0 PUSH1 0x3 DUP3 GT ISZERO PUSH2 0x31D5 JUMPI POP DUP1 PUSH0 PUSH2 0x318E PUSH1 0x2 DUP4 PUSH2 0x3649 JUMP JUMPDEST PUSH2 0x3199 SWAP1 PUSH1 0x1 PUSH2 0x351A JUMP JUMPDEST SWAP1 POP JUMPDEST DUP2 DUP2 LT ISZERO PUSH2 0x31CF JUMPI SWAP1 POP DUP1 PUSH1 0x2 DUP2 PUSH2 0x31B4 DUP2 DUP7 PUSH2 0x3649 JUMP JUMPDEST PUSH2 0x31BE SWAP2 SWAP1 PUSH2 0x351A JUMP JUMPDEST PUSH2 0x31C8 SWAP2 SWAP1 PUSH2 0x3649 JUMP JUMPDEST SWAP1 POP PUSH2 0x319C JUMP JUMPDEST POP SWAP2 SWAP1 POP JUMP JUMPDEST DUP2 ISZERO PUSH2 0x1FA3 JUMPI POP PUSH1 0x1 SWAP2 SWAP1 POP JUMP JUMPDEST PUSH1 0x1 PUSH1 0x1 PUSH1 0xA0 SHL SUB DUP5 AND PUSH2 0x320C JUMPI PUSH1 0x40 MLOAD PUSH4 0xE602DF05 PUSH1 0xE0 SHL DUP2 MSTORE PUSH0 PUSH1 0x4 DUP3 ADD MSTORE PUSH1 0x24 ADD PUSH2 0xF2 JUMP JUMPDEST PUSH1 0x1 PUSH1 0x1 PUSH1 0xA0 SHL SUB DUP4 AND PUSH2 0x3235 JUMPI PUSH1 0x40 MLOAD PUSH4 0x4A1406B1 PUSH1 0xE1 SHL DUP2 MSTORE PUSH0 PUSH1 0x4 DUP3 ADD MSTORE PUSH1 0x24 ADD PUSH2 0xF2 JUMP JUMPDEST PUSH1 0x1 PUSH1 0x1 PUSH1 0xA0 SHL SUB DUP1 DUP6 AND PUSH0 SWAP1 DUP2 MSTORE PUSH1 0x1 PUSH1 0x20 SWAP1 DUP2 MSTORE PUSH1 0x40 DUP1 DUP4 KECCAK256 SWAP4 DUP8 AND DUP4 MSTORE SWAP3 SWAP1 MSTORE KECCAK256 DUP3 SWAP1 SSTORE DUP1 ISZERO PUSH2 0x7C9 JUMPI DUP3 PUSH1 0x1 PUSH1 0x1 PUSH1 0xA0 SHL SUB AND DUP5 PUSH1 0x1 PUSH1 0x1 PUSH1 0xA0 SHL SUB AND PUSH32 0x8C5BE1E5EBEC7D5BD14F71427D1E84F3DD0314C0F7B2291E5B200AC8C7C3B925 DUP5 PUSH1 0x40 MLOAD PUSH2 0x32A7 SWAP2 DUP2 MSTORE PUSH1 0x20 ADD SWAP1 JUMP JUMPDEST PUSH1 0x40 MLOAD DUP1 SWAP2 SUB SWAP1 LOG3 POP POP POP POP JUMP JUMPDEST PUSH0 DUP2 PUSH1 0x1 SUB PUSH2 0x32C6 JUMPI POP PUSH1 0xA SWAP2 SWAP1 POP JUMP JUMPDEST DUP2 PUSH1 0x2 SUB PUSH2 0x32D6 JUMPI POP PUSH1 0x5 SWAP2 SWAP1 POP JUMP JUMPDEST DUP2 PUSH1 0x3 SUB PUSH2 0x32E6 JUMPI POP PUSH1 0x3 SWAP2 SWAP1 POP JUMP JUMPDEST PUSH1 0x4 DUP3 LT ISZERO DUP1 ISZERO PUSH2 0x32F8 JUMPI POP PUSH1 0x11 DUP3 GT ISZERO JUMPDEST ISZERO PUSH2 0x3305 JUMPI POP PUSH1 0x1 SWAP2 SWAP1 POP JUMP JUMPDEST DUP2 PUSH1 0x12 SUB PUSH2 0x3315 JUMPI POP PUSH1 0x3 SWAP2 SWAP1 POP JUMP JUMPDEST DUP2 PUSH1 0x13 SUB PUSH2 0x3325 JUMPI POP PUSH1 0x5 SWAP2 SWAP1 POP JUMP JUMPDEST DUP2 PUSH1 0x14 SUB PUSH2 0x3335 JUMPI POP PUSH1 0xA SWAP2 SWAP1 POP JUMP JUMPDEST POP PUSH0 SWAP2 SWAP1 POP JUMP JUMPDEST PUSH2 0x505 DUP1 PUSH2 0x85C8 DUP4 CODECOPY ADD SWAP1 JUMP JUMPDEST DUP1 MLOAD PUSH1 0x1 PUSH1 0x1 PUSH1 0xA0 SHL SUB DUP2 AND DUP2 EQ PUSH2 0x1FA3 JUMPI PUSH0 PUSH0 REVERT JUMPDEST PUSH0 PUSH0 PUSH0 PUSH1 0x60 DUP5 DUP7 SUB SLT ISZERO PUSH2 0x3371 JUMPI PUSH0 PUSH0 REVERT JUMPDEST PUSH2 0x337A DUP5 PUSH2 0x3349 JUMP JUMPDEST SWAP3 POP PUSH2 0x3388 PUSH1 0x20 DUP6 ADD PUSH2 0x3349 JUMP JUMPDEST SWAP2 POP PUSH2 0x3396 PUSH1 0x40 DUP6 ADD PUSH2 0x3349 JUMP JUMPDEST SWAP1 POP SWAP3 POP SWAP3 POP SWAP3 JUMP JUMPDEST PUSH4 0x4E487B71 PUSH1 0xE0 SHL PUSH0 MSTORE PUSH1 0x41 PUSH1 0x4 MSTORE PUSH1 0x24 PUSH0 REVERT JUMPDEST PUSH1 0x1 DUP2 DUP2 SHR SWAP1 DUP3 AND DUP1 PUSH2 0x33C7 JUMPI PUSH1 0x7F DUP3 AND SWAP2 POP JUMPDEST PUSH1 0x20 DUP3 LT DUP2 SUB PUSH2 0x31CF JUMPI PUSH4 0x4E487B71 PUSH1 0xE0 SHL PUSH0 MSTORE PUSH1 0x22 PUSH1 0x4 MSTORE PUSH1 0x24 PUSH0 REVERT JUMPDEST PUSH1 0x1F DUP3 GT ISZERO PUSH2 0x5D1 JUMPI DUP3 DUP3 GT ISZERO PUSH2 0x5D1 JUMPI DUP1 PUSH0 MSTORE PUSH1 0x20 PUSH0 KECCAK256 PUSH1 0x1F DUP5 ADD PUSH1 0x5 SHR PUSH1 0x20 DUP6 LT ISZERO PUSH2 0x3410 JUMPI POP PUSH0 JUMPDEST SWAP1 DUP2 ADD SWAP1 PUSH1 0x1F DUP5 ADD PUSH1 0x5 SHR SUB PUSH0 JUMPDEST DUP2 DUP2 LT ISZERO PUSH2 0xB46 JUMPI PUSH0 DUP4 DUP3 ADD SSTORE PUSH1 0x1 ADD PUSH2 0x341E JUMP JUMPDEST DUP2 MLOAD PUSH1 0x1 PUSH1 0x1 PUSH1 0x40 SHL SUB DUP2 GT ISZERO PUSH2 0x344C JUMPI PUSH2 0x344C PUSH2 0x339F JUMP JUMPDEST PUSH2 0x3460 DUP2 PUSH2 0x345A DUP5 SLOAD PUSH2 0x33B3 JUMP JUMPDEST DUP5 PUSH2 0x33E5 JUMP JUMPDEST PUSH1 0x20 PUSH1 0x1F DUP3 GT PUSH1 0x1 DUP2 EQ PUSH2 0x3492 JUMPI PUSH0 DUP4 ISZERO PUSH2 0x347B JUMPI POP DUP5 DUP3 ADD MLOAD JUMPDEST PUSH0 NOT PUSH1 0x3 DUP6 SWAP1 SHL SHR NOT AND PUSH1 0x1 DUP5 SWAP1 SHL OR DUP5 SSTORE PUSH2 0x99B JUMP JUMPDEST PUSH0 DUP5 DUP2 MSTORE PUSH1 0x20 DUP2 KECCAK256 PUSH1 0x1F NOT DUP6 AND SWAP2 JUMPDEST DUP3 DUP2 LT ISZERO PUSH2 0x34C1 JUMPI DUP8 DUP6 ADD MLOAD DUP3 SSTORE PUSH1 0x20 SWAP5 DUP6 ADD SWAP5 PUSH1 0x1 SWAP1 SWAP3 ADD SWAP2 ADD PUSH2 0x34A1 JUMP JUMPDEST POP DUP5 DUP3 LT ISZERO PUSH2 0x34DE JUMPI DUP7 DUP5 ADD MLOAD PUSH0 NOT PUSH1 0x3 DUP8 SWAP1 SHL PUSH1 0xF8 AND SHR NOT AND DUP2 SSTORE JUMPDEST POP POP POP POP PUSH1 0x1 SWAP1 DUP2 SHL ADD SWAP1 SSTORE POP JUMP JUMPDEST PUSH0 PUSH1 0x20 DUP3 DUP5 SUB SLT ISZERO PUSH2 0x34FD JUMPI PUSH0 PUSH0 REVERT JUMPDEST PUSH2 0x11F7 DUP3 PUSH2 0x3349 JUMP JUMPDEST PUSH4 0x4E487B71 PUSH1 0xE0 SHL PUSH0 MSTORE PUSH1 0x11 PUSH1 0x4 MSTORE PUSH1 0x24 PUSH0 REVERT JUMPDEST DUP1 DUP3 ADD DUP1 DUP3 GT ISZERO PUSH2 0x11DD JUMPI PUSH2 0x11DD PUSH2 0x3506 JUMP JUMPDEST PUSH1 0x1 DUP2 JUMPDEST PUSH1 0x1 DUP5 GT ISZERO PUSH2 0x3568 JUMPI DUP1 DUP6 DIV DUP2 GT ISZERO PUSH2 0x354C JUMPI PUSH2 0x354C PUSH2 0x3506 JUMP JUMPDEST PUSH1 0x1 DUP5 AND ISZERO PUSH2 0x355A JUMPI SWAP1 DUP2 MUL SWAP1 JUMPDEST PUSH1 0x1 SWAP4 SWAP1 SWAP4 SHR SWAP3 DUP1 MUL PUSH2 0x3531 JUMP JUMPDEST SWAP4 POP SWAP4 SWAP2 POP POP JUMP JUMPDEST PUSH0 DUP3 PUSH2 0x357E JUMPI POP PUSH1 0x1 PUSH2 0x11DD JUMP JUMPDEST DUP2 PUSH2 0x358A JUMPI POP PUSH0 PUSH2 0x11DD JUMP JUMPDEST DUP2 PUSH1 0x1 DUP2 EQ PUSH2 0x35A0 JUMPI PUSH1 0x2 DUP2 EQ PUSH2 0x35AA JUMPI PUSH2 0x35C6 JUMP JUMPDEST PUSH1 0x1 SWAP2 POP POP PUSH2 0x11DD JUMP JUMPDEST PUSH1 0xFF DUP5 GT ISZERO PUSH2 0x35BB JUMPI PUSH2 0x35BB PUSH2 0x3506 JUMP JUMPDEST POP POP PUSH1 0x1 DUP3 SHL PUSH2 0x11DD JUMP JUMPDEST POP PUSH1 0x20 DUP4 LT PUSH2 0x133 DUP4 LT AND PUSH1 0x4E DUP5 LT PUSH1 0xB DUP5 LT AND OR ISZERO PUSH2 0x35E9 JUMPI POP DUP2 DUP2 EXP PUSH2 0x11DD JUMP JUMPDEST PUSH2 0x35F5 PUSH0 NOT DUP5 DUP5 PUSH2 0x352D JUMP JUMPDEST DUP1 PUSH0 NOT DIV DUP3 GT ISZERO PUSH2 0x3608 JUMPI PUSH2 0x3608 PUSH2 0x3506 JUMP JUMPDEST MUL SWAP4 SWAP3 POP POP POP JUMP JUMPDEST PUSH0 PUSH2 0x11F7 PUSH1 0xFF DUP5 AND DUP4 PUSH2 0x3570 JUMP JUMPDEST DUP1 DUP3 MUL DUP2 ISZERO DUP3 DUP3 DIV DUP5 EQ OR PUSH2 0x11DD JUMPI PUSH2 0x11DD PUSH2 0x3506 JUMP JUMPDEST PUSH4 0x4E487B71 PUSH1 0xE0 SHL PUSH0 MSTORE PUSH1 0x12 PUSH1 0x4 MSTORE PUSH1 0x24 PUSH0 REVERT JUMPDEST PUSH0 DUP3 PUSH2 0x3657 JUMPI PUSH2 0x3657 PUSH2 0x3635 JUMP JUMPDEST POP DIV SWAP1 JUMP JUMPDEST DUP2 DUP2 SUB DUP2 DUP2 GT ISZERO PUSH2 0x11DD JUMPI PUSH2 0x11DD PUSH2 0x3506 JUMP JUMPDEST PUSH0 PUSH1 0x20 DUP3 DUP5 SUB SLT ISZERO PUSH2 0x367F JUMPI PUSH0 PUSH0 REVERT JUMPDEST DUP2 MLOAD DUP1 ISZERO ISZERO DUP2 EQ PUSH2 0x11F7 JUMPI PUSH0 PUSH0 REVERT JUMPDEST DUP1 MLOAD PUSH1 0x1 PUSH1 0x1 PUSH1 0x70 SHL SUB DUP2 AND DUP2 EQ PUSH2 0x1FA3 JUMPI PUSH0 PUSH0 REVERT JUMPDEST PUSH0 PUSH0 PUSH0 PUSH1 0x60 DUP5 DUP7 SUB SLT ISZERO PUSH2 0x36B6 JUMPI PUSH0 PUSH0 REVERT JUMPDEST PUSH2 0x36BF DUP5 PUSH2 0x368E JUMP JUMPDEST SWAP3 POP PUSH2 0x36CD PUSH1 0x20 DUP6 ADD PUSH2 0x368E JUMP JUMPDEST SWAP2 POP PUSH1 0x40 DUP5 ADD MLOAD PUSH4 0xFFFFFFFF DUP2 AND DUP2 EQ PUSH2 0x36E5 JUMPI PUSH0 PUSH0 REVERT JUMPDEST DUP1 SWAP2 POP POP SWAP3 POP SWAP3 POP SWAP3 JUMP JUMPDEST PUSH0 PUSH1 0xFF DUP3 AND PUSH1 0xFF DUP2 SUB PUSH2 0x3705 JUMPI PUSH2 0x3705 PUSH2 0x3506 JUMP JUMPDEST PUSH1 0x1 ADD SWAP3 SWAP2 POP POP JUMP JUMPDEST PUSH0 DUP3 PUSH2 0x371C JUMPI PUSH2 0x371C PUSH2 0x3635 JUMP JUMPDEST POP MOD SWAP1 JUMP JUMPDEST PUSH4 0x4E487B71 PUSH1 0xE0 SHL PUSH0 MSTORE PUSH1 0x32 PUSH1 0x4 MSTORE PUSH1 0x24 PUSH0 REVERT JUMPDEST PUSH0 PUSH1 0xFF DUP4 AND DUP1 PUSH2 0x3747 JUMPI PUSH2 0x3747 PUSH2 0x3635 JUMP JUMPDEST DUP1 PUSH1 0xFF DUP5 AND MOD SWAP2 POP POP SWAP3 SWAP2 POP POP JUMP JUMPDEST PUSH0 PUSH1 0x20 DUP3 DUP5 SUB SLT ISZERO PUSH2 0x3766 JUMPI PUSH0 PUSH0 REVERT JUMPDEST POP MLOAD SWAP2 SWAP1 POP JUMP JUMPDEST PUSH0 DUP2 MLOAD DUP1 DUP5 MSTORE PUSH1 0x20 DUP5 ADD SWAP4 POP PUSH1 0x20 DUP4 ADD PUSH0 JUMPDEST DUP3 DUP2 LT ISZERO PUSH2 0x37A6 JUMPI DUP2 MLOAD PUSH1 0x1 PUSH1 0x1 PUSH1 0xA0 SHL SUB AND DUP7 MSTORE PUSH1 0x20 SWAP6 DUP7 ADD SWAP6 SWAP1 SWAP2 ADD SWAP1 PUSH1 0x1 ADD PUSH2 0x377F JUMP JUMPDEST POP SWAP4 SWAP5 SWAP4 POP POP POP POP JUMP JUMPDEST DUP6 DUP2 MSTORE DUP5 PUSH1 0x20 DUP3 ADD MSTORE PUSH1 0xA0 PUSH1 0x40 DUP3 ADD MSTORE PUSH0 PUSH2 0x37CE PUSH1 0xA0 DUP4 ADD DUP7 PUSH2 0x376D JUMP JUMPDEST PUSH1 0x1 PUSH1 0x1 PUSH1 0xA0 SHL SUB SWAP5 SWAP1 SWAP5 AND PUSH1 0x60 DUP4 ADD MSTORE POP PUSH1 0x80 ADD MSTORE SWAP4 SWAP3 POP POP POP JUMP JUMPDEST DUP3 DUP2 MSTORE PUSH1 0x40 PUSH1 0x20 DUP3 ADD MSTORE PUSH0 PUSH2 0x3803 PUSH1 0x40 DUP4 ADD DUP5 PUSH2 0x376D JUMP JUMPDEST SWAP5 SWAP4 POP POP POP POP JUMP JUMPDEST PUSH0 PUSH1 0x20 DUP3 DUP5 SUB SLT ISZERO PUSH2 0x381B JUMPI PUSH0 PUSH0 REVERT JUMPDEST DUP2 MLOAD PUSH1 0x1 PUSH1 0x1 PUSH1 0x40 SHL SUB DUP2 GT ISZERO PUSH2 0x3830 JUMPI PUSH0 PUSH0 REVERT JUMPDEST DUP3 ADD PUSH1 0x1F DUP2 ADD DUP5 SGT PUSH2 0x3840 JUMPI PUSH0 PUSH0 REVERT JUMPDEST DUP1 MLOAD PUSH1 0x1 PUSH1 0x1 PUSH1 0x40 SHL SUB DUP2 GT ISZERO PUSH2 0x3859 JUMPI PUSH2 0x3859 PUSH2 0x339F JUMP JUMPDEST PUSH1 0x40 MLOAD PUSH1 0x5 DUP3 SWAP1 SHL SWAP1 PUSH1 0x3F DUP3 ADD PUSH1 0x1F NOT AND DUP2 ADD PUSH1 0x1 PUSH1 0x1 PUSH1 0x40 SHL SUB DUP2 GT DUP3 DUP3 LT OR ISZERO PUSH2 0x3887 JUMPI PUSH2 0x3887 PUSH2 0x339F JUMP JUMPDEST PUSH1 0x40 MSTORE SWAP2 DUP3 MSTORE PUSH1 0x20 DUP2 DUP5 ADD DUP2 ADD SWAP3 SWAP1 DUP2 ADD DUP8 DUP5 GT ISZERO PUSH2 0x38A4 JUMPI PUSH0 PUSH0 REVERT JUMPDEST PUSH1 0x20 DUP6 ADD SWAP5 POP JUMPDEST DUP4 DUP6 LT ISZERO PUSH2 0x38C7 JUMPI DUP5 MLOAD DUP1 DUP3 MSTORE PUSH1 0x20 SWAP6 DUP7 ADD SWAP6 SWAP1 SWAP4 POP ADD PUSH2 0x38AB JUMP JUMPDEST POP SWAP7 SWAP6 POP POP POP POP POP POP JUMP JUMPDEST PUSH0 DUP3 MLOAD DUP1 PUSH1 0x20 DUP6 ADD DUP5 MCOPY PUSH0 SWAP3 ADD SWAP2 DUP3 MSTORE POP SWAP2 SWAP1 POP JUMP JUMPDEST PUSH0 PUSH0 PUSH0 PUSH1 0x60 DUP5 DUP7 SUB SLT ISZERO PUSH2 0x38FA JUMPI PUSH0 PUSH0 REVERT JUMPDEST POP POP DUP2 MLOAD PUSH1 0x20 DUP4 ADD MLOAD PUSH1 0x40 SWAP1 SWAP4 ADD MLOAD SWAP1 SWAP5 SWAP3 SWAP4 POP SWAP2 SWAP1 POP JUMP JUMPDEST PUSH0 PUSH1 0x1 DUP3 ADD PUSH2 0x3924 JUMPI PUSH2 0x3924 PUSH2 0x3506 JUMP JUMPDEST POP PUSH1 0x1 ADD SWAP1 JUMP JUMPDEST PUSH1 0x80 MLOAD PUSH2 0x4C38 PUSH2 0x3990 PUSH0 CODECOPY PUSH0 DUP2 DUP2 PUSH2 0x8AB ADD MSTORE DUP2 DUP2 PUSH2 0xF06 ADD MSTORE DUP2 DUP2 PUSH2 0xFB6 ADD MSTORE DUP2 DUP2 PUSH2 0x1011 ADD MSTORE DUP2 DUP2 PUSH2 0x354A ADD MSTORE DUP2 DUP2 PUSH2 0x3780 ADD MSTORE DUP2 DUP2 PUSH2 0x382E ADD MSTORE DUP2 DUP2 PUSH2 0x3AB5 ADD MSTORE DUP2 DUP2 PUSH2 0x4105 ADD MSTORE DUP2 DUP2 PUSH2 0x4144 ADD MSTORE DUP2 DUP2 PUSH2 0x42B5 ADD MSTORE PUSH2 0x436F ADD MSTORE PUSH2 0x4C38 PUSH0 RETURN INVALID PUSH1 0x80 PUSH1 0x40 MSTORE PUSH1 0x4 CALLDATASIZE LT PUSH2 0x374 JUMPI PUSH0 CALLDATALOAD PUSH1 0xE0 SHR DUP1 PUSH4 0x78E97925 GT PUSH2 0x1C8 JUMPI DUP1 PUSH4 0xBF151CB8 GT PUSH2 0xFD JUMPI DUP1 PUSH4 0xDDBCB5FA GT PUSH2 0x9D JUMPI DUP1 PUSH4 0xEA0D5DCD GT PUSH2 0x6D JUMPI DUP1 PUSH4 0xEA0D5DCD EQ PUSH2 0xD0D JUMPI DUP1 PUSH4 0xF2FDE38B EQ PUSH2 0xDF0 JUMPI DUP1 PUSH4 0xF56E9C66 EQ PUSH2 0xE0F JUMPI DUP1 PUSH4 0xFD36E3C6 EQ PUSH2 0xE2E JUMPI PUSH0 PUSH0 REVERT JUMPDEST DUP1 PUSH4 0xDDBCB5FA EQ PUSH2 0xC9B JUMPI DUP1 PUSH4 0xE16F3C59 EQ PUSH2 0xCB0 JUMPI DUP1 PUSH4 0xE82BEF29 EQ PUSH2 0xCCF JUMPI DUP1 PUSH4 0xE8E8FE04 EQ PUSH2 0xCEE JUMPI PUSH0 PUSH0 REVERT JUMPDEST DUP1 PUSH4 0xCCA3C5FF GT PUSH2 0xD8 JUMPI DUP1 PUSH4 0xCCA3C5FF EQ PUSH2 0xC04 JUMPI DUP1 PUSH4 0xD1227343 EQ PUSH2 0xC19 JUMPI DUP1 PUSH4 0xDD62ED3E EQ PUSH2 0xC38 JUMPI DUP1 PUSH4 0xDD6C4398 EQ PUSH2 0xC7C JUMPI PUSH0 PUSH0 REVERT JUMPDEST DUP1 PUSH4 0xBF151CB8 EQ PUSH2 0xBB5 JUMPI DUP1 PUSH4 0xC54E44EB EQ PUSH2 0xBC9 JUMPI DUP1 PUSH4 0xC82C3CBF EQ PUSH2 0xBF0 JUMPI PUSH0 PUSH0 REVERT JUMPDEST DUP1 PUSH4 0x9B19251A GT PUSH2 0x168 JUMPI DUP1 PUSH4 0xA87430BA GT PUSH2 0x143 JUMPI DUP1 PUSH4 0xA87430BA EQ PUSH2 0xA81 JUMPI DUP1 PUSH4 0xA9059CBB EQ PUSH2 0xB62 JUMPI DUP1 PUSH4 0xB4A2E463 EQ PUSH2 0xB81 JUMPI DUP1 PUSH4 0xBAD3EA6A EQ PUSH2 0xB96 JUMPI PUSH0 PUSH0 REVERT JUMPDEST DUP1 PUSH4 0x9B19251A EQ PUSH2 0xA09 JUMPI DUP1 PUSH4 0xA095E8F9 EQ PUSH2 0xA37 JUMPI DUP1 PUSH4 0xA52EE3AF EQ PUSH2 0xA56 JUMPI PUSH0 PUSH0 REVERT JUMPDEST DUP1 PUSH4 0x8DA5CB5B GT PUSH2 0x1A3 JUMPI DUP1 PUSH4 0x8DA5CB5B EQ PUSH2 0x9A5 JUMPI DUP1 PUSH4 0x8DD95002 EQ PUSH2 0x9C2 JUMPI DUP1 PUSH4 0x94A28097 EQ PUSH2 0x9E1 JUMPI DUP1 PUSH4 0x95D89B41 EQ PUSH2 0x9F5 JUMPI PUSH0 PUSH0 REVERT JUMPDEST DUP1 PUSH4 0x78E97925 EQ PUSH2 0x95E JUMPI DUP1 PUSH4 0x7C659472 EQ PUSH2 0x973 JUMPI DUP1 PUSH4 0x7F054455 EQ PUSH2 0x990 JUMPI PUSH0 PUSH0 REVERT JUMPDEST DUP1 PUSH4 0x3D471D57 GT PUSH2 0x2A9 JUMPI DUP1 PUSH4 0x48E66C04 GT PUSH2 0x249 JUMPI DUP1 PUSH4 0x5E2D0DF1 GT PUSH2 0x219 JUMPI DUP1 PUSH4 0x5E2D0DF1 EQ PUSH2 0x8CD JUMPI DUP1 PUSH4 0x6D476A77 EQ PUSH2 0x8E2 JUMPI DUP1 PUSH4 0x70A08231 EQ PUSH2 0x916 JUMPI DUP1 PUSH4 0x715018A6 EQ PUSH2 0x94A JUMPI PUSH0 PUSH0 REVERT JUMPDEST DUP1 PUSH4 0x48E66C04 EQ PUSH2 0x83D JUMPI DUP1 PUSH4 0x4BF28FD0 EQ PUSH2 0x85C JUMPI DUP1 PUSH4 0x53D6FD59 EQ PUSH2 0x87B JUMPI DUP1 PUSH4 0x583E0568 EQ PUSH2 0x89A JUMPI PUSH0 PUSH0 REVERT JUMPDEST DUP1 PUSH4 0x42B10C59 GT PUSH2 0x284 JUMPI DUP1 PUSH4 0x42B10C59 EQ PUSH2 0x7C5 JUMPI DUP1 PUSH4 0x440B30E7 EQ PUSH2 0x7DE JUMPI DUP1 PUSH4 0x47AB459C EQ PUSH2 0x80A JUMPI DUP1 PUSH4 0x47CCCA02 EQ PUSH2 0x81E JUMPI PUSH0 PUSH0 REVERT JUMPDEST DUP1 PUSH4 0x3D471D57 EQ PUSH2 0x768 JUMPI DUP1 PUSH4 0x3E0A322D EQ PUSH2 0x787 JUMPI DUP1 PUSH4 0x41275358 EQ PUSH2 0x7A6 JUMPI PUSH0 PUSH0 REVERT JUMPDEST DUP1 PUSH4 0x177AE044 GT PUSH2 0x314 JUMPI DUP1 PUSH4 0x2529D1A3 GT PUSH2 0x2EF JUMPI DUP1 PUSH4 0x2529D1A3 EQ PUSH2 0x6F2 JUMPI DUP1 PUSH4 0x27B48142 EQ PUSH2 0x712 JUMPI DUP1 PUSH4 0x313CE567 EQ PUSH2 0x72E JUMPI DUP1 PUSH4 0x32516D48 EQ PUSH2 0x749 JUMPI PUSH0 PUSH0 REVERT JUMPDEST DUP1 PUSH4 0x177AE044 EQ PUSH2 0x6AA JUMPI DUP1 PUSH4 0x18160DDD EQ PUSH2 0x6BF JUMPI DUP1 PUSH4 0x23B872DD EQ PUSH2 0x6D3 JUMPI PUSH0 PUSH0 REVERT JUMPDEST DUP1 PUSH4 0x6FDDE03 GT PUSH2 0x34F JUMPI DUP1 PUSH4 0x6FDDE03 EQ PUSH2 0x61F JUMPI DUP1 PUSH4 0x95EA7B3 EQ PUSH2 0x640 JUMPI DUP1 PUSH4 0x9D46746 EQ PUSH2 0x65F JUMPI DUP1 PUSH4 0x16F0115B EQ PUSH2 0x673 JUMPI PUSH0 PUSH0 REVERT JUMPDEST DUP1 PUSH4 0x430E405 EQ PUSH2 0x5B1 JUMPI DUP1 PUSH4 0x53F14DA EQ PUSH2 0x5DF JUMPI DUP1 PUSH4 0x61E431C EQ PUSH2 0x602 JUMPI PUSH0 PUSH0 REVERT JUMPDEST CALLDATASIZE PUSH2 0x5AD JUMPI CALLER PUSH0 DUP2 DUP2 MSTORE PUSH1 0xA PUSH1 0x20 MSTORE PUSH1 0x40 SWAP1 KECCAK256 SLOAD PUSH1 0x1 PUSH1 0x1 PUSH1 0xA0 SHL SUB AND SWAP1 CALLVALUE SWAP1 ORIGIN SWAP1 SUB PUSH2 0x5AB JUMPI PUSH1 0x14 SLOAD DUP2 LT ISZERO DUP1 ISZERO PUSH2 0x3C9 JUMPI POP PUSH1 0x1 PUSH1 0x1 PUSH1 0xA0 SHL SUB DUP3 AND ISZERO ISZERO DUP1 PUSH2 0x3C9 JUMPI POP PUSH1 0x17 SLOAD PUSH1 0x1 PUSH1 0x1 PUSH1 0xA0 SHL SUB AND CALLER EQ JUMPDEST ISZERO PUSH2 0x592 JUMPI CALLER PUSH0 SWAP1 DUP2 MSTORE PUSH1 0xA PUSH1 0x20 MSTORE PUSH1 0x40 SWAP1 KECCAK256 PUSH1 0x9 ADD SLOAD PUSH2 0x100 SWAP1 DIV PUSH1 0xFF AND PUSH2 0x45C JUMPI CALLER PUSH0 SWAP1 DUP2 MSTORE PUSH1 0xA PUSH1 0x20 MSTORE PUSH1 0x40 SWAP1 KECCAK256 PUSH1 0x9 ADD DUP1 SLOAD PUSH2 0xFF00 NOT AND PUSH2 0x100 OR SWAP1 SSTORE PUSH1 0x1 PUSH1 0x1 PUSH1 0xA0 SHL SUB DUP3 AND ISZERO PUSH2 0x44A JUMPI PUSH1 0x1 PUSH1 0x1 PUSH1 0xA0 SHL SUB DUP3 AND PUSH0 SWAP1 DUP2 MSTORE PUSH1 0xA PUSH1 0x20 MSTORE PUSH1 0x40 DUP2 KECCAK256 PUSH1 0x7 ADD DUP1 SLOAD PUSH1 0x1 SWAP3 SWAP1 PUSH2 0x444 SWAP1 DUP5 SWAP1 PUSH2 0x4638 JUMP JUMPDEST SWAP1 SWAP2 SSTORE POP POP JUMPDEST CALLER PUSH0 SWAP1 DUP2 MSTORE PUSH1 0x9 PUSH1 0x20 MSTORE PUSH1 0x40 SWAP1 KECCAK256 TIMESTAMP SWAP1 SSTORE JUMPDEST PUSH0 PUSH1 0x64 PUSH2 0x46A DUP4 PUSH1 0x3 PUSH2 0x464B JUMP JUMPDEST PUSH2 0x474 SWAP2 SWAP1 PUSH2 0x4676 JUMP JUMPDEST SWAP1 POP PUSH0 PUSH2 0x481 DUP3 DUP5 PUSH2 0x4689 JUMP JUMPDEST PUSH1 0xF SLOAD SWAP1 SWAP2 POP PUSH1 0x1 PUSH1 0x1 PUSH1 0xA0 SHL SUB AND ISZERO DUP1 ISZERO SWAP1 PUSH2 0x49D JUMPI POP PUSH0 DUP3 GT JUMPDEST ISZERO PUSH2 0x4F6 JUMPI PUSH1 0xF SLOAD PUSH1 0x40 MLOAD PUSH0 SWAP2 PUSH1 0x1 PUSH1 0x1 PUSH1 0xA0 SHL SUB AND SWAP1 DUP5 SWAP1 DUP4 DUP2 DUP2 DUP2 DUP6 DUP8 GAS CALL SWAP3 POP POP POP RETURNDATASIZE DUP1 PUSH0 DUP2 EQ PUSH2 0x4EC JUMPI PUSH1 0x40 MLOAD SWAP2 POP PUSH1 0x1F NOT PUSH1 0x3F RETURNDATASIZE ADD AND DUP3 ADD PUSH1 0x40 MSTORE RETURNDATASIZE DUP3 MSTORE RETURNDATASIZE PUSH0 PUSH1 0x20 DUP5 ADD RETURNDATACOPY PUSH2 0x4F1 JUMP JUMPDEST PUSH1 0x60 SWAP2 POP JUMPDEST POP POP POP POP JUMPDEST PUSH0 PUSH2 0x50A PUSH2 0x505 PUSH1 0x2 DUP5 PUSH2 0x4676 JUMP JUMPDEST PUSH2 0xE67 JUMP JUMPDEST CALLER PUSH0 SWAP1 DUP2 MSTORE PUSH1 0xA PUSH1 0x20 MSTORE PUSH1 0x40 DUP2 KECCAK256 PUSH1 0x1 ADD DUP1 SLOAD SWAP3 SWAP4 POP DUP5 SWAP3 SWAP1 SWAP2 SWAP1 PUSH2 0x530 SWAP1 DUP5 SWAP1 PUSH2 0x4638 JUMP JUMPDEST SWAP1 SWAP2 SSTORE POP POP CALLER PUSH0 SWAP1 DUP2 MSTORE PUSH1 0xA PUSH1 0x20 MSTORE PUSH1 0x40 DUP2 KECCAK256 PUSH1 0x2 ADD DUP1 SLOAD DUP4 SWAP3 SWAP1 PUSH2 0x556 SWAP1 DUP5 SWAP1 PUSH2 0x4638 JUMP JUMPDEST SWAP1 SWAP2 SSTORE POP POP PUSH1 0x40 MLOAD DUP5 DUP2 MSTORE CALLER SWAP1 PUSH32 0x5F41F00E6C90DEA5837402EFBF3E658A1F1DF8DB3B19624B133BC1DF0444F7EA SWAP1 PUSH1 0x20 ADD PUSH1 0x40 MLOAD DUP1 SWAP2 SUB SWAP1 LOG2 STOP JUMPDEST PUSH1 0x40 MLOAD PUSH4 0x236C6E5B PUSH1 0xE0 SHL DUP2 MSTORE PUSH1 0x4 ADD PUSH1 0x40 MLOAD DUP1 SWAP2 SUB SWAP1 REVERT JUMPDEST STOP JUMPDEST PUSH0 PUSH0 REVERT JUMPDEST CALLVALUE DUP1 ISZERO PUSH2 0x5BC JUMPI PUSH0 PUSH0 REVERT JUMPDEST POP PUSH1 0x1E SLOAD PUSH2 0x5CA SWAP1 PUSH1 0xFF AND DUP2 JUMP JUMPDEST PUSH1 0x40 MLOAD SWAP1 ISZERO ISZERO DUP2 MSTORE PUSH1 0x20 ADD JUMPDEST PUSH1 0x40 MLOAD DUP1 SWAP2 SUB SWAP1 RETURN JUMPDEST CALLVALUE DUP1 ISZERO PUSH2 0x5EA JUMPI PUSH0 PUSH0 REVERT JUMPDEST POP PUSH2 0x5F4 PUSH1 0x1B SLOAD DUP2 JUMP JUMPDEST PUSH1 0x40 MLOAD SWAP1 DUP2 MSTORE PUSH1 0x20 ADD PUSH2 0x5D6 JUMP JUMPDEST CALLVALUE DUP1 ISZERO PUSH2 0x60D JUMPI PUSH0 PUSH0 REVERT JUMPDEST POP PUSH2 0x5F4 PUSH10 0x21E19E0C9BAB2400000 DUP2 JUMP JUMPDEST CALLVALUE DUP1 ISZERO PUSH2 0x62A JUMPI PUSH0 PUSH0 REVERT JUMPDEST POP PUSH2 0x633 PUSH2 0x1090 JUMP JUMPDEST PUSH1 0x40 MLOAD PUSH2 0x5D6 SWAP2 SWAP1 PUSH2 0x469C JUMP JUMPDEST CALLVALUE DUP1 ISZERO PUSH2 0x64B JUMPI PUSH0 PUSH0 REVERT JUMPDEST POP PUSH2 0x5CA PUSH2 0x65A CALLDATASIZE PUSH1 0x4 PUSH2 0x46E5 JUMP JUMPDEST PUSH2 0x1120 JUMP JUMPDEST CALLVALUE DUP1 ISZERO PUSH2 0x66A JUMPI PUSH0 PUSH0 REVERT JUMPDEST POP PUSH2 0x5F4 PUSH2 0x1139 JUMP JUMPDEST CALLVALUE DUP1 ISZERO PUSH2 0x67E JUMPI PUSH0 PUSH0 REVERT JUMPDEST POP PUSH1 0x10 SLOAD PUSH2 0x692 SWAP1 PUSH1 0x1 PUSH1 0x1 PUSH1 0xA0 SHL SUB AND DUP2 JUMP JUMPDEST PUSH1 0x40 MLOAD PUSH1 0x1 PUSH1 0x1 PUSH1 0xA0 SHL SUB SWAP1 SWAP2 AND DUP2 MSTORE PUSH1 0x20 ADD PUSH2 0x5D6 JUMP JUMPDEST CALLVALUE DUP1 ISZERO PUSH2 0x6B5 JUMPI PUSH0 PUSH0 REVERT JUMPDEST POP PUSH2 0x5F4 PUSH1 0x1A SLOAD DUP2 JUMP JUMPDEST CALLVALUE DUP1 ISZERO PUSH2 0x6CA JUMPI PUSH0 PUSH0 REVERT JUMPDEST POP PUSH1 0x2 SLOAD PUSH2 0x5F4 JUMP JUMPDEST CALLVALUE DUP1 ISZERO PUSH2 0x6DE JUMPI PUSH0 PUSH0 REVERT JUMPDEST POP PUSH2 0x5CA PUSH2 0x6ED CALLDATASIZE PUSH1 0x4 PUSH2 0x470F JUMP JUMPDEST PUSH2 0x123D JUMP JUMPDEST CALLVALUE DUP1 ISZERO PUSH2 0x6FD JUMPI PUSH0 PUSH0 REVERT JUMPDEST POP PUSH1 0x10 SLOAD PUSH2 0x5CA SWAP1 PUSH1 0x1 PUSH1 0xA0 SHL SWAP1 DIV PUSH1 0xFF AND DUP2 JUMP JUMPDEST CALLVALUE DUP1 ISZERO PUSH2 0x71D JUMPI PUSH0 PUSH0 REVERT JUMPDEST POP PUSH2 0x5F4 PUSH9 0x56BC75E2D63100000 DUP2 JUMP JUMPDEST CALLVALUE DUP1 ISZERO PUSH2 0x739 JUMPI PUSH0 PUSH0 REVERT JUMPDEST POP PUSH1 0x40 MLOAD PUSH1 0x12 DUP2 MSTORE PUSH1 0x20 ADD PUSH2 0x5D6 JUMP JUMPDEST CALLVALUE DUP1 ISZERO PUSH2 0x754 JUMPI PUSH0 PUSH0 REVERT JUMPDEST POP PUSH2 0x5AB PUSH2 0x763 CALLDATASIZE PUSH1 0x4 PUSH2 0x474D JUMP JUMPDEST PUSH2 0x1260 JUMP JUMPDEST CALLVALUE DUP1 ISZERO PUSH2 0x773 JUMPI PUSH0 PUSH0 REVERT JUMPDEST POP PUSH2 0x5F4 PUSH2 0x782 CALLDATASIZE PUSH1 0x4 PUSH2 0x4768 JUMP JUMPDEST PUSH2 0x128A JUMP JUMPDEST CALLVALUE DUP1 ISZERO PUSH2 0x792 JUMPI PUSH0 PUSH0 REVERT JUMPDEST POP PUSH2 0x5AB PUSH2 0x7A1 CALLDATASIZE PUSH1 0x4 PUSH2 0x4768 JUMP JUMPDEST PUSH2 0x1311 JUMP JUMPDEST CALLVALUE DUP1 ISZERO PUSH2 0x7B1 JUMPI PUSH0 PUSH0 REVERT JUMPDEST POP PUSH1 0x19 SLOAD PUSH2 0x692 SWAP1 PUSH1 0x1 PUSH1 0x1 PUSH1 0xA0 SHL SUB AND DUP2 JUMP JUMPDEST CALLVALUE DUP1 ISZERO PUSH2 0x7D0 JUMPI PUSH0 PUSH0 REVERT JUMPDEST POP PUSH1 0x1C SLOAD PUSH2 0x5CA SWAP1 PUSH1 0xFF AND DUP2 JUMP JUMPDEST CALLVALUE DUP1 ISZERO PUSH2 0x7E9 JUMPI PUSH0 PUSH0 REVERT JUMPDEST POP PUSH2 0x7FD PUSH2 0x7F8 CALLDATASIZE PUSH1 0x4 PUSH2 0x474D JUMP JUMPDEST PUSH2 0x1331 JUMP JUMPDEST PUSH1 0x40 MLOAD PUSH2 0x5D6 SWAP2 SWAP1 PUSH2 0x47C2 JUMP JUMPDEST CALLVALUE DUP1 ISZERO PUSH2 0x815 JUMPI PUSH0 PUSH0 REVERT JUMPDEST POP PUSH2 0x5AB PUSH2 0x1354 JUMP JUMPDEST CALLVALUE DUP1 ISZERO PUSH2 0x829 JUMPI PUSH0 PUSH0 REVERT JUMPDEST POP PUSH1 0xC SLOAD PUSH2 0x692 SWAP1 PUSH1 0x1 PUSH1 0x1 PUSH1 0xA0 SHL SUB AND DUP2 JUMP JUMPDEST CALLVALUE DUP1 ISZERO PUSH2 0x848 JUMPI PUSH0 PUSH0 REVERT JUMPDEST POP PUSH1 0xD SLOAD PUSH2 0x692 SWAP1 PUSH1 0x1 PUSH1 0x1 PUSH1 0xA0 SHL SUB AND DUP2 JUMP JUMPDEST CALLVALUE DUP1 ISZERO PUSH2 0x867 JUMPI PUSH0 PUSH0 REVERT JUMPDEST POP PUSH1 0x6 SLOAD PUSH2 0x692 SWAP1 PUSH1 0x1 PUSH1 0x1 PUSH1 0xA0 SHL SUB AND DUP2 JUMP JUMPDEST CALLVALUE DUP1 ISZERO PUSH2 0x886 JUMPI PUSH0 PUSH0 REVERT JUMPDEST POP PUSH2 0x5AB PUSH2 0x895 CALLDATASIZE PUSH1 0x4 PUSH2 0x47E1 JUMP JUMPDEST PUSH2 0x14D4 JUMP JUMPDEST CALLVALUE DUP1 ISZERO PUSH2 0x8A5 JUMPI PUSH0 PUSH0 REVERT JUMPDEST POP PUSH2 0x692 PUSH32 0x0 DUP2 JUMP JUMPDEST CALLVALUE DUP1 ISZERO PUSH2 0x8D8 JUMPI PUSH0 PUSH0 REVERT JUMPDEST POP PUSH2 0x5F4 PUSH1 0x16 SLOAD DUP2 JUMP JUMPDEST CALLVALUE DUP1 ISZERO PUSH2 0x8ED JUMPI PUSH0 PUSH0 REVERT JUMPDEST POP PUSH2 0x8F6 PUSH2 0x1506 JUMP JUMPDEST PUSH1 0x40 DUP1 MLOAD SWAP5 DUP6 MSTORE PUSH1 0x20 DUP6 ADD SWAP4 SWAP1 SWAP4 MSTORE SWAP2 DUP4 ADD MSTORE PUSH1 0x60 DUP3 ADD MSTORE PUSH1 0x80 ADD PUSH2 0x5D6 JUMP JUMPDEST CALLVALUE DUP1 ISZERO PUSH2 0x921 JUMPI PUSH0 PUSH0 REVERT JUMPDEST POP PUSH2 0x5F4 PUSH2 0x930 CALLDATASIZE PUSH1 0x4 PUSH2 0x474D JUMP JUMPDEST PUSH1 0x1 PUSH1 0x1 PUSH1 0xA0 SHL SUB AND PUSH0 SWAP1 DUP2 MSTORE PUSH1 0x20 DUP2 SWAP1 MSTORE PUSH1 0x40 SWAP1 KECCAK256 SLOAD SWAP1 JUMP JUMPDEST CALLVALUE DUP1 ISZERO PUSH2 0x955 JUMPI PUSH0 PUSH0 REVERT JUMPDEST POP PUSH2 0x5AB PUSH2 0x1558 JUMP JUMPDEST CALLVALUE DUP1 ISZERO PUSH2 0x969 JUMPI PUSH0 PUSH0 REVERT JUMPDEST POP PUSH2 0x5F4 PUSH1 0x15 SLOAD DUP2 JUMP JUMPDEST CALLVALUE DUP1 ISZERO PUSH2 0x97E JUMPI PUSH0 PUSH0 REVERT JUMPDEST POP PUSH2 0x5F4 PUSH10 0x152D02C7E14AF6800000 DUP2 JUMP JUMPDEST CALLVALUE DUP1 ISZERO PUSH2 0x99B JUMPI PUSH0 PUSH0 REVERT JUMPDEST POP PUSH2 0x5F4 PUSH1 0x13 SLOAD DUP2 JUMP JUMPDEST CALLVALUE DUP1 ISZERO PUSH2 0x9B0 JUMPI PUSH0 PUSH0 REVERT JUMPDEST POP PUSH1 0x5 SLOAD PUSH1 0x1 PUSH1 0x1 PUSH1 0xA0 SHL SUB AND PUSH2 0x692 JUMP JUMPDEST CALLVALUE DUP1 ISZERO PUSH2 0x9CD JUMPI PUSH0 PUSH0 REVERT JUMPDEST POP PUSH1 0xB SLOAD PUSH2 0x692 SWAP1 PUSH1 0x1 PUSH1 0x1 PUSH1 0xA0 SHL SUB AND DUP2 JUMP JUMPDEST CALLVALUE DUP1 ISZERO PUSH2 0x9EC JUMPI PUSH0 PUSH0 REVERT JUMPDEST POP PUSH2 0x5F4 PUSH2 0x156B JUMP JUMPDEST CALLVALUE DUP1 ISZERO PUSH2 0xA00 JUMPI PUSH0 PUSH0 REVERT JUMPDEST POP PUSH2 0x633 PUSH2 0x159A JUMP JUMPDEST CALLVALUE DUP1 ISZERO PUSH2 0xA14 JUMPI PUSH0 PUSH0 REVERT JUMPDEST POP PUSH2 0x5CA PUSH2 0xA23 CALLDATASIZE PUSH1 0x4 PUSH2 0x474D JUMP JUMPDEST PUSH1 0x1D PUSH1 0x20 MSTORE PUSH0 SWAP1 DUP2 MSTORE PUSH1 0x40 SWAP1 KECCAK256 SLOAD PUSH1 0xFF AND DUP2 JUMP JUMPDEST CALLVALUE DUP1 ISZERO PUSH2 0xA42 JUMPI PUSH0 PUSH0 REVERT JUMPDEST POP PUSH2 0x5AB PUSH2 0xA51 CALLDATASIZE PUSH1 0x4 PUSH2 0x4818 JUMP JUMPDEST PUSH2 0x15A9 JUMP JUMPDEST CALLVALUE DUP1 ISZERO PUSH2 0xA61 JUMPI PUSH0 PUSH0 REVERT JUMPDEST POP PUSH2 0x5F4 PUSH2 0xA70 CALLDATASIZE PUSH1 0x4 PUSH2 0x474D JUMP JUMPDEST PUSH1 0x9 PUSH1 0x20 MSTORE PUSH0 SWAP1 DUP2 MSTORE PUSH1 0x40 SWAP1 KECCAK256 SLOAD DUP2 JUMP JUMPDEST CALLVALUE DUP1 ISZERO PUSH2 0xA8C JUMPI PUSH0 PUSH0 REVERT JUMPDEST POP PUSH2 0xB01 PUSH2 0xA9B CALLDATASIZE PUSH1 0x4 PUSH2 0x474D JUMP JUMPDEST PUSH1 0xA PUSH1 0x20 MSTORE PUSH0 SWAP1 DUP2 MSTORE PUSH1 0x40 SWAP1 KECCAK256 DUP1 SLOAD PUSH1 0x1 DUP3 ADD SLOAD PUSH1 0x2 DUP4 ADD SLOAD PUSH1 0x3 DUP5 ADD SLOAD PUSH1 0x4 DUP6 ADD SLOAD PUSH1 0x5 DUP7 ADD SLOAD PUSH1 0x6 DUP8 ADD SLOAD PUSH1 0x7 DUP9 ADD SLOAD PUSH1 0x8 DUP10 ADD SLOAD PUSH1 0x9 SWAP1 SWAP10 ADD SLOAD PUSH1 0x1 PUSH1 0x1 PUSH1 0xA0 SHL SUB SWAP1 SWAP9 AND SWAP9 SWAP7 SWAP8 SWAP6 SWAP7 SWAP5 SWAP6 SWAP4 SWAP5 SWAP3 SWAP4 SWAP2 SWAP3 SWAP1 SWAP2 PUSH1 0xFF DUP1 DUP3 AND SWAP2 PUSH2 0x100 SWAP1 DIV AND DUP12 JUMP JUMPDEST PUSH1 0x40 DUP1 MLOAD PUSH1 0x1 PUSH1 0x1 PUSH1 0xA0 SHL SUB SWAP1 SWAP13 AND DUP13 MSTORE PUSH1 0x20 DUP13 ADD SWAP11 SWAP1 SWAP11 MSTORE SWAP9 DUP11 ADD SWAP8 SWAP1 SWAP8 MSTORE PUSH1 0x60 DUP10 ADD SWAP6 SWAP1 SWAP6 MSTORE PUSH1 0x80 DUP9 ADD SWAP4 SWAP1 SWAP4 MSTORE PUSH1 0xA0 DUP8 ADD SWAP2 SWAP1 SWAP2 MSTORE PUSH1 0xC0 DUP7 ADD MSTORE PUSH1 0xE0 DUP6 ADD MSTORE PUSH2 0x100 DUP5 ADD MSTORE ISZERO ISZERO PUSH2 0x120 DUP4 ADD MSTORE ISZERO ISZERO PUSH2 0x140 DUP3 ADD MSTORE PUSH2 0x160 ADD PUSH2 0x5D6 JUMP JUMPDEST CALLVALUE DUP1 ISZERO PUSH2 0xB6D JUMPI PUSH0 PUSH0 REVERT JUMPDEST POP PUSH2 0x5CA PUSH2 0xB7C CALLDATASIZE PUSH1 0x4 PUSH2 0x46E5 JUMP JUMPDEST PUSH2 0x161B JUMP JUMPDEST CALLVALUE DUP1 ISZERO PUSH2 0xB8C JUMPI PUSH0 PUSH0 REVERT JUMPDEST POP PUSH2 0x5F4 PUSH1 0x11 SLOAD DUP2 JUMP JUMPDEST CALLVALUE DUP1 ISZERO PUSH2 0xBA1 JUMPI PUSH0 PUSH0 REVERT JUMPDEST POP PUSH1 0xF SLOAD PUSH2 0x692 SWAP1 PUSH1 0x1 PUSH1 0x1 PUSH1 0xA0 SHL SUB AND DUP2 JUMP JUMPDEST CALLVALUE DUP1 ISZERO PUSH2 0xBC0 JUMPI PUSH0 PUSH0 REVERT JUMPDEST POP PUSH2 0x5F4 PUSH2 0x1628 JUMP JUMPDEST CALLVALUE DUP1 ISZERO PUSH2 0xBD4 JUMPI PUSH0 PUSH0 REVERT JUMPDEST POP PUSH2 0x692 PUSH20 0x55D398326F99059FF775485246999027B3197955 DUP2 JUMP JUMPDEST CALLVALUE DUP1 ISZERO PUSH2 0xBFB JUMPI PUSH0 PUSH0 REVERT JUMPDEST POP PUSH2 0x5AB PUSH2 0x1668 JUMP JUMPDEST CALLVALUE DUP1 ISZERO PUSH2 0xC0F JUMPI PUSH0 PUSH0 REVERT JUMPDEST POP PUSH2 0x5F4 PUSH1 0x12 SLOAD DUP2 JUMP JUMPDEST CALLVALUE DUP1 ISZERO PUSH2 0xC24 JUMPI PUSH0 PUSH0 REVERT JUMPDEST POP PUSH2 0x5CA PUSH2 0xC33 CALLDATASIZE PUSH1 0x4 PUSH2 0x489A JUMP JUMPDEST PUSH2 0x179B JUMP JUMPDEST CALLVALUE DUP1 ISZERO PUSH2 0xC43 JUMPI PUSH0 PUSH0 REVERT JUMPDEST POP PUSH2 0x5F4 PUSH2 0xC52 CALLDATASIZE PUSH1 0x4 PUSH2 0x489A JUMP JUMPDEST PUSH1 0x1 PUSH1 0x1 PUSH1 0xA0 SHL SUB SWAP2 DUP3 AND PUSH0 SWAP1 DUP2 MSTORE PUSH1 0x1 PUSH1 0x20 SWAP1 DUP2 MSTORE PUSH1 0x40 DUP1 DUP4 KECCAK256 SWAP4 SWAP1 SWAP5 AND DUP3 MSTORE SWAP2 SWAP1 SWAP2 MSTORE KECCAK256 SLOAD SWAP1 JUMP JUMPDEST CALLVALUE DUP1 ISZERO PUSH2 0xC87 JUMPI PUSH0 PUSH0 REVERT JUMPDEST POP PUSH1 0xE SLOAD PUSH2 0x692 SWAP1 PUSH1 0x1 PUSH1 0x1 PUSH1 0xA0 SHL SUB AND DUP2 JUMP JUMPDEST CALLVALUE DUP1 ISZERO PUSH2 0xCA6 JUMPI PUSH0 PUSH0 REVERT JUMPDEST POP PUSH2 0x5F4 PUSH1 0x14 SLOAD DUP2 JUMP JUMPDEST CALLVALUE DUP1 ISZERO PUSH2 0xCBB JUMPI PUSH0 PUSH0 REVERT JUMPDEST POP PUSH2 0x5AB PUSH2 0xCCA CALLDATASIZE PUSH1 0x4 PUSH2 0x489A JUMP JUMPDEST PUSH2 0x18D7 JUMP JUMPDEST CALLVALUE DUP1 ISZERO PUSH2 0xCDA JUMPI PUSH0 PUSH0 REVERT JUMPDEST POP PUSH1 0x18 SLOAD PUSH2 0x692 SWAP1 PUSH1 0x1 PUSH1 0x1 PUSH1 0xA0 SHL SUB AND DUP2 JUMP JUMPDEST CALLVALUE DUP1 ISZERO PUSH2 0xCF9 JUMPI PUSH0 PUSH0 REVERT JUMPDEST POP PUSH2 0x5F4 PUSH2 0xD08 CALLDATASIZE PUSH1 0x4 PUSH2 0x474D JUMP JUMPDEST PUSH2 0x190D JUMP JUMPDEST CALLVALUE DUP1 ISZERO PUSH2 0xD18 JUMPI PUSH0 PUSH0 REVERT JUMPDEST POP PUSH2 0xDD3 PUSH2 0xD27 CALLDATASIZE PUSH1 0x4 PUSH2 0x474D JUMP JUMPDEST PUSH1 0x1 PUSH1 0x1 PUSH1 0xA0 SHL SUB SWAP1 DUP2 AND PUSH0 SWAP1 DUP2 MSTORE PUSH1 0xA PUSH1 0x20 SWAP1 DUP2 MSTORE PUSH1 0x40 SWAP2 DUP3 SWAP1 KECCAK256 DUP3 MLOAD PUSH2 0x160 DUP2 ADD DUP5 MSTORE DUP2 SLOAD SWAP1 SWAP5 AND DUP5 MSTORE PUSH1 0x1 DUP2 ADD SLOAD SWAP2 DUP5 ADD DUP3 SWAP1 MSTORE PUSH1 0x2 DUP2 ADD SLOAD SWAP3 DUP5 ADD SWAP3 SWAP1 SWAP3 MSTORE PUSH1 0x3 DUP3 ADD SLOAD PUSH1 0x60 DUP5 ADD MSTORE PUSH1 0x4 DUP3 ADD SLOAD PUSH1 0x80 DUP5 ADD MSTORE PUSH1 0x5 DUP3 ADD SLOAD PUSH1 0xA0 DUP5 ADD MSTORE PUSH1 0x6 DUP3 ADD SLOAD PUSH1 0xC0 DUP5 ADD MSTORE PUSH1 0x7 DUP3 ADD SLOAD PUSH1 0xE0 DUP5 ADD MSTORE PUSH1 0x8 DUP3 ADD SLOAD PUSH2 0x100 DUP1 DUP6 ADD SWAP2 SWAP1 SWAP2 MSTORE PUSH1 0x9 SWAP1 SWAP3 ADD SLOAD PUSH1 0xFF DUP1 DUP3 AND ISZERO ISZERO PUSH2 0x120 DUP7 ADD DUP2 SWAP1 MSTORE SWAP4 SWAP1 SWAP2 DIV AND ISZERO ISZERO PUSH2 0x140 SWAP1 SWAP4 ADD DUP4 SWAP1 MSTORE SWAP3 JUMP JUMPDEST PUSH1 0x40 DUP1 MLOAD SWAP4 DUP5 MSTORE SWAP2 ISZERO ISZERO PUSH1 0x20 DUP5 ADD MSTORE ISZERO ISZERO SWAP1 DUP3 ADD MSTORE PUSH1 0x60 ADD PUSH2 0x5D6 JUMP JUMPDEST CALLVALUE DUP1 ISZERO PUSH2 0xDFB JUMPI PUSH0 PUSH0 REVERT JUMPDEST POP PUSH2 0x5AB PUSH2 0xE0A CALLDATASIZE PUSH1 0x4 PUSH2 0x474D JUMP JUMPDEST PUSH2 0x1B38 JUMP JUMPDEST CALLVALUE DUP1 ISZERO PUSH2 0xE1A JUMPI PUSH0 PUSH0 REVERT JUMPDEST POP PUSH2 0x5AB PUSH2 0xE29 CALLDATASIZE PUSH1 0x4 PUSH2 0x474D JUMP JUMPDEST PUSH2 0x1B7A JUMP JUMPDEST CALLVALUE DUP1 ISZERO PUSH2 0xE39 JUMPI PUSH0 PUSH0 REVERT JUMPDEST POP PUSH2 0x5CA PUSH2 0xE48 CALLDATASIZE PUSH1 0x4 PUSH2 0x489A JUMP JUMPDEST PUSH1 0x7 PUSH1 0x20 SWAP1 DUP2 MSTORE PUSH0 SWAP3 DUP4 MSTORE PUSH1 0x40 DUP1 DUP5 KECCAK256 SWAP1 SWAP2 MSTORE SWAP1 DUP3 MSTORE SWAP1 KECCAK256 SLOAD PUSH1 0xFF AND DUP2 JUMP JUMPDEST PUSH1 0x40 DUP1 MLOAD PUSH1 0x2 DUP1 DUP3 MSTORE PUSH1 0x60 DUP3 ADD DUP4 MSTORE PUSH0 SWAP3 DUP4 SWAP3 SWAP2 SWAP1 PUSH1 0x20 DUP4 ADD SWAP1 DUP1 CALLDATASIZE DUP4 CALLDATACOPY POP POP PUSH1 0xB SLOAD DUP3 MLOAD SWAP3 SWAP4 POP PUSH1 0x1 PUSH1 0x1 PUSH1 0xA0 SHL SUB AND SWAP2 DUP4 SWAP2 POP PUSH0 SWAP1 PUSH2 0xEAA JUMPI PUSH2 0xEAA PUSH2 0x48DA JUMP JUMPDEST PUSH1 0x20 MUL PUSH1 0x20 ADD ADD SWAP1 PUSH1 0x1 PUSH1 0x1 PUSH1 0xA0 SHL SUB AND SWAP1 DUP2 PUSH1 0x1 PUSH1 0x1 PUSH1 0xA0 SHL SUB AND DUP2 MSTORE POP POP ADDRESS DUP2 PUSH1 0x1 DUP2 MLOAD DUP2 LT PUSH2 0xEDE JUMPI PUSH2 0xEDE PUSH2 0x48DA JUMP JUMPDEST PUSH1 0x1 PUSH1 0x1 PUSH1 0xA0 SHL SUB SWAP3 DUP4 AND PUSH1 0x20 SWAP2 DUP3 MUL SWAP3 SWAP1 SWAP3 ADD ADD MSTORE PUSH1 0x10 SLOAD PUSH1 0x40 MLOAD PUSH4 0xB6F9DE95 PUSH1 0xE0 SHL DUP2 MSTORE PUSH32 0x0 DUP4 AND SWAP3 PUSH4 0xB6F9DE95 SWAP3 DUP8 SWAP3 PUSH2 0xF45 SWAP3 PUSH0 SWAP3 DUP9 SWAP3 SWAP2 AND SWAP1 TIMESTAMP SWAP1 PUSH1 0x4 ADD PUSH2 0x48EE JUMP JUMPDEST PUSH0 PUSH1 0x40 MLOAD DUP1 DUP4 SUB DUP2 DUP6 DUP9 DUP1 EXTCODESIZE ISZERO DUP1 ISZERO PUSH2 0xF5C JUMPI PUSH0 PUSH0 REVERT JUMPDEST POP GAS CALL ISZERO DUP1 ISZERO PUSH2 0xF6E JUMPI RETURNDATASIZE PUSH0 PUSH0 RETURNDATACOPY RETURNDATASIZE PUSH0 REVERT JUMPDEST POP POP PUSH1 0x10 SLOAD PUSH1 0x1 PUSH1 0x1 PUSH1 0xA0 SHL SUB AND PUSH0 SWAP1 DUP2 MSTORE PUSH1 0x20 DUP2 SWAP1 MSTORE PUSH1 0x40 DUP2 KECCAK256 SLOAD SWAP1 SWAP4 POP SWAP2 POP PUSH2 0xF96 SWAP1 POP JUMP JUMPDEST PUSH1 0x10 SLOAD SWAP1 SWAP2 POP PUSH2 0xFB0 SWAP1 PUSH1 0x1 PUSH1 0x1 PUSH1 0xA0 SHL SUB AND ADDRESS DUP4 PUSH2 0x1BA4 JUMP JUMPDEST PUSH2 0xFDB ADDRESS PUSH32 0x0 DUP4 PUSH2 0x1CCA JUMP JUMPDEST PUSH1 0x40 MLOAD PUSH4 0xF305D719 PUSH1 0xE0 SHL DUP2 MSTORE ADDRESS PUSH1 0x4 DUP3 ADD DUP2 SWAP1 MSTORE PUSH1 0x24 DUP3 ADD DUP4 SWAP1 MSTORE PUSH0 PUSH1 0x44 DUP4 ADD DUP2 SWAP1 MSTORE PUSH1 0x64 DUP4 ADD MSTORE PUSH1 0x84 DUP3 ADD MSTORE TIMESTAMP PUSH1 0xA4 DUP3 ADD MSTORE PUSH32 0x0 PUSH1 0x1 PUSH1 0x1 PUSH1 0xA0 SHL SUB AND SWAP1 PUSH4 0xF305D719 SWAP1 DUP7 SWAP1 PUSH1 0xC4 ADD PUSH1 0x60 PUSH1 0x40 MLOAD DUP1 DUP4 SUB DUP2 DUP6 DUP9 GAS CALL ISZERO DUP1 ISZERO PUSH2 0x1061 JUMPI RETURNDATASIZE PUSH0 PUSH0 RETURNDATACOPY RETURNDATASIZE PUSH0 REVERT JUMPDEST POP POP POP POP POP PUSH1 0x40 MLOAD RETURNDATASIZE PUSH1 0x1F NOT PUSH1 0x1F DUP3 ADD AND DUP3 ADD DUP1 PUSH1 0x40 MSTORE POP DUP2 ADD SWAP1 PUSH2 0x1086 SWAP2 SWAP1 PUSH2 0x4922 JUMP JUMPDEST SWAP7 SWAP6 POP POP POP POP POP POP JUMP JUMPDEST PUSH1 0x60 PUSH1 0x3 DUP1 SLOAD PUSH2 0x109F SWAP1 PUSH2 0x494D JUMP JUMPDEST DUP1 PUSH1 0x1F ADD PUSH1 0x20 DUP1 SWAP2 DIV MUL PUSH1 0x20 ADD PUSH1 0x40 MLOAD SWAP1 DUP2 ADD PUSH1 0x40 MSTORE DUP1 SWAP3 SWAP2 SWAP1 DUP2 DUP2 MSTORE PUSH1 0x20 ADD DUP3 DUP1 SLOAD PUSH2 0x10CB SWAP1 PUSH2 0x494D JUMP JUMPDEST DUP1 ISZERO PUSH2 0x1116 JUMPI DUP1 PUSH1 0x1F LT PUSH2 0x10ED JUMPI PUSH2 0x100 DUP1 DUP4 SLOAD DIV MUL DUP4 MSTORE SWAP2 PUSH1 0x20 ADD SWAP2 PUSH2 0x1116 JUMP JUMPDEST DUP3 ADD SWAP2 SWAP1 PUSH0 MSTORE PUSH1 0x20 PUSH0 KECCAK256 SWAP1 JUMPDEST DUP2 SLOAD DUP2 MSTORE SWAP1 PUSH1 0x1 ADD SWAP1 PUSH1 0x20 ADD DUP1 DUP4 GT PUSH2 0x10F9 JUMPI DUP3 SWAP1 SUB PUSH1 0x1F AND DUP3 ADD SWAP2 JUMPDEST POP POP POP POP POP SWAP1 POP SWAP1 JUMP JUMPDEST PUSH0 CALLER PUSH2 0x112D DUP2 DUP6 DUP6 PUSH2 0x1CCA JUMP JUMPDEST PUSH1 0x1 SWAP2 POP POP JUMPDEST SWAP3 SWAP2 POP POP JUMP JUMPDEST PUSH1 0x6 SLOAD PUSH1 0x40 DUP1 MLOAD PUSH4 0x240BC6B PUSH1 0xE2 SHL DUP2 MSTORE SWAP1 MLOAD PUSH0 SWAP3 PUSH1 0x1 PUSH1 0x1 PUSH1 0xA0 SHL SUB AND SWAP2 DUP4 SWAP2 DUP3 SWAP2 DUP5 SWAP2 PUSH4 0x902F1AC SWAP2 PUSH1 0x4 DUP1 DUP3 ADD SWAP3 PUSH1 0x60 SWAP3 SWAP1 SWAP2 SWAP1 DUP3 SWAP1 SUB ADD DUP2 DUP7 GAS STATICCALL ISZERO DUP1 ISZERO PUSH2 0x1187 JUMPI RETURNDATASIZE PUSH0 PUSH0 RETURNDATACOPY RETURNDATASIZE PUSH0 REVERT JUMPDEST POP POP POP POP PUSH1 0x40 MLOAD RETURNDATASIZE PUSH1 0x1F NOT PUSH1 0x1F DUP3 ADD AND DUP3 ADD DUP1 PUSH1 0x40 MSTORE POP DUP2 ADD SWAP1 PUSH2 0x11AB SWAP2 SWAP1 PUSH2 0x4995 JUMP JUMPDEST POP SWAP2 POP SWAP2 POP PUSH0 DUP4 PUSH1 0x1 PUSH1 0x1 PUSH1 0xA0 SHL SUB AND PUSH4 0xDFE1681 PUSH1 0x40 MLOAD DUP2 PUSH4 0xFFFFFFFF AND PUSH1 0xE0 SHL DUP2 MSTORE PUSH1 0x4 ADD PUSH1 0x20 PUSH1 0x40 MLOAD DUP1 DUP4 SUB DUP2 DUP7 GAS STATICCALL ISZERO DUP1 ISZERO PUSH2 0x11ED JUMPI RETURNDATASIZE PUSH0 PUSH0 RETURNDATACOPY RETURNDATASIZE PUSH0 REVERT JUMPDEST POP POP POP POP PUSH1 0x40 MLOAD RETURNDATASIZE PUSH1 0x1F NOT PUSH1 0x1F DUP3 ADD AND DUP3 ADD DUP1 PUSH1 0x40 MSTORE POP DUP2 ADD SWAP1 PUSH2 0x1211 SWAP2 SWAP1 PUSH2 0x49D6 JUMP JUMPDEST SWAP1 POP PUSH1 0x1 PUSH1 0x1 PUSH1 0xA0 SHL SUB DUP2 AND ADDRESS EQ PUSH2 0x1229 JUMPI DUP2 PUSH2 0x122B JUMP JUMPDEST DUP3 JUMPDEST PUSH1 0x1 PUSH1 0x1 PUSH1 0x70 SHL SUB AND SWAP5 POP POP POP POP POP SWAP1 JUMP JUMPDEST PUSH0 CALLER PUSH2 0x124A DUP6 DUP3 DUP6 PUSH2 0x1CDC JUMP JUMPDEST PUSH2 0x1255 DUP6 DUP6 DUP6 PUSH2 0x1D52 JUMP JUMPDEST POP PUSH1 0x1 SWAP5 SWAP4 POP POP POP POP JUMP JUMPDEST PUSH2 0x1268 PUSH2 0x1DAF JUMP JUMPDEST PUSH1 0xF DUP1 SLOAD PUSH1 0x1 PUSH1 0x1 PUSH1 0xA0 SHL SUB NOT AND PUSH1 0x1 PUSH1 0x1 PUSH1 0xA0 SHL SUB SWAP3 SWAP1 SWAP3 AND SWAP2 SWAP1 SWAP2 OR SWAP1 SSTORE JUMP JUMPDEST PUSH0 DUP2 PUSH1 0x1 SUB PUSH2 0x129B JUMPI POP PUSH1 0xA SWAP2 SWAP1 POP JUMP JUMPDEST DUP2 PUSH1 0x2 SUB PUSH2 0x12AB JUMPI POP PUSH1 0x5 SWAP2 SWAP1 POP JUMP JUMPDEST DUP2 PUSH1 0x3 SUB PUSH2 0x12BB JUMPI POP PUSH1 0x3 SWAP2 SWAP1 POP JUMP JUMPDEST PUSH1 0x4 DUP3 LT ISZERO DUP1 ISZERO PUSH2 0x12CD JUMPI POP PUSH1 0x11 DUP3 GT ISZERO JUMPDEST ISZERO PUSH2 0x12DA JUMPI POP PUSH1 0x1 SWAP2 SWAP1 POP JUMP JUMPDEST DUP2 PUSH1 0x12 SUB PUSH2 0x12EA JUMPI POP PUSH1 0x3 SWAP2 SWAP1 POP JUMP JUMPDEST DUP2 PUSH1 0x13 SUB PUSH2 0x12FA JUMPI POP PUSH1 0x5 SWAP2 SWAP1 POP JUMP JUMPDEST DUP2 PUSH1 0x14 SUB PUSH2 0x130A JUMPI POP PUSH1 0xA SWAP2 SWAP1 POP JUMP JUMPDEST POP PUSH0 SWAP2 SWAP1 POP JUMP JUMPDEST PUSH2 0x1319 PUSH2 0x1DAF JUMP JUMPDEST PUSH1 0x15 DUP2 SWAP1 SSTORE PUSH2 0x132B DUP2 PUSH3 0x278D00 PUSH2 0x4638 JUMP JUMPDEST PUSH1 0x16 SSTORE POP JUMP JUMPDEST PUSH1 0x1 PUSH1 0x1 PUSH1 0xA0 SHL SUB DUP2 AND PUSH0 SWAP1 DUP2 MSTORE PUSH1 0x8 PUSH1 0x20 MSTORE PUSH1 0x40 SWAP1 KECCAK256 PUSH1 0x60 SWAP1 PUSH2 0x1133 SWAP1 PUSH2 0x1DDC JUMP JUMPDEST PUSH1 0x6 SLOAD PUSH1 0x40 DUP1 MLOAD PUSH4 0x240BC6B PUSH1 0xE2 SHL DUP2 MSTORE SWAP1 MLOAD PUSH1 0x1 PUSH1 0x1 PUSH1 0xA0 SHL SUB SWAP1 SWAP3 AND SWAP2 PUSH0 SWAP2 DUP3 SWAP2 DUP5 SWAP2 PUSH4 0x902F1AC SWAP2 PUSH1 0x4 DUP1 DUP4 ADD SWAP3 PUSH1 0x60 SWAP3 SWAP2 SWAP1 DUP3 SWAP1 SUB ADD DUP2 DUP7 GAS STATICCALL ISZERO DUP1 ISZERO PUSH2 0x13A1 JUMPI RETURNDATASIZE PUSH0 PUSH0 RETURNDATACOPY RETURNDATASIZE PUSH0 REVERT JUMPDEST POP POP POP POP PUSH1 0x40 MLOAD RETURNDATASIZE PUSH1 0x1F NOT PUSH1 0x1F DUP3 ADD AND DUP3 ADD DUP1 PUSH1 0x40 MSTORE POP DUP2 ADD SWAP1 PUSH2 0x13C5 SWAP2 SWAP1 PUSH2 0x4995 JUMP JUMPDEST POP SWAP2 POP SWAP2 POP DUP2 PUSH1 0x1 PUSH1 0x1 PUSH1 0x70 SHL SUB AND PUSH0 EQ DUP1 PUSH2 0x13E8 JUMPI POP PUSH1 0x1 PUSH1 0x1 PUSH1 0x70 SHL SUB DUP2 AND ISZERO JUMPDEST ISZERO PUSH2 0x13F2 JUMPI POP POP POP JUMP JUMPDEST PUSH0 DUP4 PUSH1 0x1 PUSH1 0x1 PUSH1 0xA0 SHL SUB AND PUSH4 0xDFE1681 PUSH1 0x40 MLOAD DUP2 PUSH4 0xFFFFFFFF AND PUSH1 0xE0 SHL DUP2 MSTORE PUSH1 0x4 ADD PUSH1 0x20 PUSH1 0x40 MLOAD DUP1 DUP4 SUB DUP2 DUP7 GAS STATICCALL ISZERO DUP1 ISZERO PUSH2 0x142F JUMPI RETURNDATASIZE PUSH0 PUSH0 RETURNDATACOPY RETURNDATASIZE PUSH0 REVERT JUMPDEST POP POP POP POP PUSH1 0x40 MLOAD RETURNDATASIZE PUSH1 0x1F NOT PUSH1 0x1F DUP3 ADD AND DUP3 ADD DUP1 PUSH1 0x40 MSTORE POP DUP2 ADD SWAP1 PUSH2 0x1453 SWAP2 SWAP1 PUSH2 0x49D6 JUMP JUMPDEST SWAP1 POP PUSH0 PUSH1 0x1 PUSH1 0x1 PUSH1 0xA0 SHL SUB DUP3 AND ADDRESS EQ PUSH2 0x146C JUMPI DUP3 PUSH2 0x146E JUMP JUMPDEST DUP4 JUMPDEST PUSH1 0x1 PUSH1 0x1 PUSH1 0x70 SHL SUB AND SWAP1 POP PUSH1 0x11 SLOAD DUP2 LT ISZERO PUSH2 0x14AD JUMPI PUSH1 0x10 SLOAD PUSH1 0x1 PUSH1 0xA0 SHL SWAP1 DIV PUSH1 0xFF AND PUSH2 0x14A8 JUMPI PUSH1 0x10 DUP1 SLOAD PUSH1 0xFF PUSH1 0xA0 SHL NOT AND PUSH1 0x1 PUSH1 0xA0 SHL OR SWAP1 SSTORE JUMPDEST PUSH2 0x14CD JUMP JUMPDEST PUSH1 0x10 SLOAD PUSH1 0x1 PUSH1 0xA0 SHL SWAP1 DIV PUSH1 0xFF AND ISZERO PUSH2 0x14CD JUMPI PUSH1 0x10 DUP1 SLOAD PUSH1 0xFF PUSH1 0xA0 SHL NOT AND SWAP1 SSTORE JUMPDEST POP POP POP POP POP JUMP JUMPDEST PUSH2 0x14DC PUSH2 0x1DAF JUMP JUMPDEST PUSH1 0x1 PUSH1 0x1 PUSH1 0xA0 SHL SUB SWAP2 SWAP1 SWAP2 AND PUSH0 SWAP1 DUP2 MSTORE PUSH1 0x1D PUSH1 0x20 MSTORE PUSH1 0x40 SWAP1 KECCAK256 DUP1 SLOAD PUSH1 0xFF NOT AND SWAP2 ISZERO ISZERO SWAP2 SWAP1 SWAP2 OR SWAP1 SSTORE JUMP JUMPDEST PUSH0 PUSH0 PUSH0 PUSH0 PUSH0 PUSH2 0x1513 PUSH2 0x1139 JUMP JUMPDEST SWAP1 POP PUSH11 0x52B7D2DCC80CD2E4000000 DUP2 GT ISZERO PUSH2 0x153F JUMPI PUSH2 0x640 PUSH0 PUSH2 0x12C PUSH1 0x3C SWAP5 POP SWAP5 POP SWAP5 POP SWAP5 POP POP PUSH2 0x1552 JUMP JUMPDEST PUSH2 0x3E8 PUSH0 PUSH2 0x12C PUSH1 0x3C SWAP5 POP SWAP5 POP SWAP5 POP SWAP5 POP POP JUMPDEST SWAP1 SWAP2 SWAP3 SWAP4 JUMP JUMPDEST PUSH2 0x1560 PUSH2 0x1DAF JUMP JUMPDEST PUSH2 0x1569 PUSH0 PUSH2 0x1DEF JUMP JUMPDEST JUMP JUMPDEST PUSH0 PUSH0 PUSH2 0x1575 PUSH2 0x1139 JUMP JUMPDEST SWAP1 POP PUSH11 0x52B7D2DCC80CD2E4000000 DUP2 GT ISZERO PUSH2 0x1592 JUMPI PUSH1 0x32 SWAP2 POP POP SWAP1 JUMP JUMPDEST PUSH1 0x14 SWAP2 POP POP SWAP1 JUMP JUMPDEST PUSH1 0x60 PUSH1 0x4 DUP1 SLOAD PUSH2 0x109F SWAP1 PUSH2 0x494D JUMP JUMPDEST PUSH2 0x15B1 PUSH2 0x1DAF JUMP JUMPDEST PUSH0 JUMPDEST DUP3 DUP2 LT ISZERO PUSH2 0x1615 JUMPI DUP2 PUSH1 0x1D PUSH0 DUP7 DUP7 DUP6 DUP2 DUP2 LT PUSH2 0x15D1 JUMPI PUSH2 0x15D1 PUSH2 0x48DA JUMP JUMPDEST SWAP1 POP PUSH1 0x20 MUL ADD PUSH1 0x20 DUP2 ADD SWAP1 PUSH2 0x15E6 SWAP2 SWAP1 PUSH2 0x474D JUMP JUMPDEST PUSH1 0x1 PUSH1 0x1 PUSH1 0xA0 SHL SUB AND DUP2 MSTORE PUSH1 0x20 DUP2 ADD SWAP2 SWAP1 SWAP2 MSTORE PUSH1 0x40 ADD PUSH0 KECCAK256 DUP1 SLOAD PUSH1 0xFF NOT AND SWAP2 ISZERO ISZERO SWAP2 SWAP1 SWAP2 OR SWAP1 SSTORE PUSH1 0x1 ADD PUSH2 0x15B3 JUMP JUMPDEST POP POP POP POP JUMP JUMPDEST PUSH0 CALLER PUSH2 0x112D DUP2 DUP6 DUP6 PUSH2 0x1D52 JUMP JUMPDEST PUSH2 0xDEAD PUSH0 SWAP1 DUP2 MSTORE PUSH1 0x20 DUP2 SWAP1 MSTORE PUSH32 0x44AD89BA62B98FF34F51403AC22759B55759460C0BB5521EB4B6EE3CFF49CF83 SLOAD PUSH1 0x2 SLOAD PUSH2 0x1663 SWAP2 SWAP1 PUSH2 0x4689 JUMP JUMPDEST SWAP1 POP SWAP1 JUMP JUMPDEST PUSH1 0xB SLOAD PUSH1 0x6 SLOAD PUSH1 0x40 MLOAD PUSH4 0x70A08231 PUSH1 0xE0 SHL DUP2 MSTORE ADDRESS PUSH1 0x4 DUP3 ADD MSTORE PUSH1 0x1 PUSH1 0x1 PUSH1 0xA0 SHL SUB SWAP3 DUP4 AND SWAP3 PUSH4 0xA9059CBB SWAP3 AND SWAP1 DUP4 SWAP1 PUSH4 0x70A08231 SWAP1 PUSH1 0x24 ADD PUSH1 0x20 PUSH1 0x40 MLOAD DUP1 DUP4 SUB DUP2 DUP7 GAS STATICCALL ISZERO DUP1 ISZERO PUSH2 0x16BB JUMPI RETURNDATASIZE PUSH0 PUSH0 RETURNDATACOPY RETURNDATASIZE PUSH0 REVERT JUMPDEST POP POP POP POP PUSH1 0x40 MLOAD RETURNDATASIZE PUSH1 0x1F NOT PUSH1 0x1F DUP3 ADD AND DUP3 ADD DUP1 PUSH1 0x40 MSTORE POP DUP2 ADD SWAP1 PUSH2 0x16DF SWAP2 SWAP1 PUSH2 0x49F1 JUMP JUMPDEST PUSH1 0x40 MLOAD DUP4 PUSH4 0xFFFFFFFF AND PUSH1 0xE0 SHL DUP2 MSTORE PUSH1 0x4 ADD PUSH2 0x16FC SWAP3 SWAP2 SWAP1 PUSH2 0x4A08 JUMP JUMPDEST PUSH1 0x20 PUSH1 0x40 MLOAD DUP1 DUP4 SUB DUP2 PUSH0 DUP8 GAS CALL ISZERO DUP1 ISZERO PUSH2 0x1718 JUMPI RETURNDATASIZE PUSH0 PUSH0 RETURNDATACOPY RETURNDATASIZE PUSH0 REVERT JUMPDEST POP POP POP POP PUSH1 0x40 MLOAD RETURNDATASIZE PUSH1 0x1F NOT PUSH1 0x1F DUP3 ADD AND DUP3 ADD DUP1 PUSH1 0x40 MSTORE POP DUP2 ADD SWAP1 PUSH2 0x173C SWAP2 SWAP1 PUSH2 0x4A21 JUMP JUMPDEST POP PUSH1 0x6 PUSH0 SWAP1 SLOAD SWAP1 PUSH2 0x100 EXP SWAP1 DIV PUSH1 0x1 PUSH1 0x1 PUSH1 0xA0 SHL SUB AND PUSH1 0x1 PUSH1 0x1 PUSH1 0xA0 SHL SUB AND PUSH4 0xFFF6CAE9 PUSH1 0x40 MLOAD DUP2 PUSH4 0xFFFFFFFF AND PUSH1 0xE0 SHL DUP2 MSTORE PUSH1 0x4 ADD PUSH0 PUSH1 0x40 MLOAD DUP1 DUP4 SUB DUP2 PUSH0 DUP8 DUP1 EXTCODESIZE ISZERO DUP1 ISZERO PUSH2 0x1789 JUMPI PUSH0 PUSH0 REVERT JUMPDEST POP GAS CALL ISZERO DUP1 ISZERO PUSH2 0x1615 JUMPI RETURNDATASIZE PUSH0 PUSH0 RETURNDATACOPY RETURNDATASIZE PUSH0 REVERT JUMPDEST PUSH1 0x1 PUSH1 0x1 PUSH1 0xA0 SHL SUB DUP3 DUP2 AND PUSH0 SWAP1 DUP2 MSTORE PUSH1 0xA PUSH1 0x20 MSTORE PUSH1 0x40 DUP2 KECCAK256 SLOAD SWAP1 SWAP2 AND ISZERO DUP1 ISZERO PUSH2 0x17D2 JUMPI POP PUSH1 0x17 SLOAD PUSH1 0x1 PUSH1 0x1 PUSH1 0xA0 SHL SUB DUP5 DUP2 AND SWAP2 AND EQ ISZERO JUMPDEST DUP1 ISZERO PUSH2 0x17EC JUMPI POP PUSH1 0x6 SLOAD PUSH1 0x1 PUSH1 0x1 PUSH1 0xA0 SHL SUB DUP4 DUP2 AND SWAP2 AND EQ ISZERO JUMPDEST DUP1 ISZERO PUSH2 0x1806 JUMPI POP PUSH1 0x6 SLOAD PUSH1 0x1 PUSH1 0x1 PUSH1 0xA0 SHL SUB DUP5 DUP2 AND SWAP2 AND EQ ISZERO JUMPDEST ISZERO PUSH2 0x1812 JUMPI POP PUSH0 PUSH2 0x1133 JUMP JUMPDEST PUSH1 0x1 PUSH1 0x1 PUSH1 0xA0 SHL SUB DUP1 DUP5 AND PUSH0 SWAP1 DUP2 MSTORE PUSH1 0x7 PUSH1 0x20 SWAP1 DUP2 MSTORE PUSH1 0x40 DUP1 DUP4 KECCAK256 SWAP4 DUP7 AND DUP4 MSTORE SWAP3 SWAP1 MSTORE KECCAK256 SLOAD PUSH1 0xFF AND DUP1 PUSH2 0x1856 JUMPI POP DUP2 PUSH1 0x1 PUSH1 0x1 PUSH1 0xA0 SHL SUB AND DUP4 PUSH1 0x1 PUSH1 0x1 PUSH1 0xA0 SHL SUB AND EQ JUMPDEST ISZERO PUSH2 0x1862 JUMPI POP PUSH0 PUSH2 0x1133 JUMP JUMPDEST DUP2 PUSH0 JUMPDEST PUSH1 0x1 PUSH1 0x1 PUSH1 0xA0 SHL SUB DUP3 AND ISZERO DUP1 ISZERO SWAP1 PUSH2 0x1880 JUMPI POP PUSH1 0x19 DUP2 PUSH1 0xFF AND LT JUMPDEST ISZERO PUSH2 0x1255 JUMPI DUP5 PUSH1 0x1 PUSH1 0x1 PUSH1 0xA0 SHL SUB AND DUP3 PUSH1 0x1 PUSH1 0x1 PUSH1 0xA0 SHL SUB AND SUB PUSH2 0x18A8 JUMPI PUSH0 SWAP3 POP POP POP PUSH2 0x1133 JUMP JUMPDEST PUSH1 0x1 PUSH1 0x1 PUSH1 0xA0 SHL SUB SWAP2 DUP3 AND PUSH0 SWAP1 DUP2 MSTORE PUSH1 0xA PUSH1 0x20 MSTORE PUSH1 0x40 SWAP1 KECCAK256 SLOAD SWAP1 SWAP2 AND SWAP1 DUP1 PUSH2 0x18CF DUP2 PUSH2 0x4A3C JUMP JUMPDEST SWAP2 POP POP PUSH2 0x1865 JUMP JUMPDEST PUSH2 0x18DF PUSH2 0x1DAF JUMP JUMPDEST PUSH1 0xD DUP1 SLOAD PUSH1 0x1 PUSH1 0x1 PUSH1 0xA0 SHL SUB SWAP4 DUP5 AND PUSH1 0x1 PUSH1 0x1 PUSH1 0xA0 SHL SUB NOT SWAP2 DUP3 AND OR SWAP1 SWAP2 SSTORE PUSH1 0xE DUP1 SLOAD SWAP3 SWAP1 SWAP4 AND SWAP2 AND OR SWAP1 SSTORE JUMP JUMPDEST PUSH1 0x1 PUSH1 0x1 PUSH1 0xA0 SHL SUB DUP1 DUP3 AND PUSH0 SWAP1 DUP2 MSTORE PUSH1 0xA PUSH1 0x20 SWAP1 DUP2 MSTORE PUSH1 0x40 DUP1 DUP4 KECCAK256 DUP2 MLOAD PUSH2 0x160 DUP2 ADD DUP4 MSTORE DUP2 SLOAD SWAP1 SWAP6 AND DUP6 MSTORE PUSH1 0x1 DUP2 ADD SLOAD SWAP3 DUP6 ADD SWAP3 SWAP1 SWAP3 MSTORE PUSH1 0x2 DUP3 ADD SLOAD SWAP1 DUP5 ADD MSTORE PUSH1 0x3 DUP2 ADD SLOAD PUSH1 0x60 DUP5 ADD MSTORE PUSH1 0x4 DUP2 ADD SLOAD PUSH1 0x80 DUP5 ADD MSTORE PUSH1 0x5 DUP2 ADD SLOAD PUSH1 0xA0 DUP5 ADD MSTORE PUSH1 0x6 DUP2 ADD SLOAD PUSH1 0xC0 DUP5 ADD MSTORE PUSH1 0x7 DUP2 ADD SLOAD PUSH1 0xE0 DUP5 ADD MSTORE PUSH1 0x8 DUP2 ADD SLOAD PUSH2 0x100 DUP1 DUP6 ADD SWAP2 SWAP1 SWAP2 MSTORE PUSH1 0x9 SWAP1 SWAP2 ADD SLOAD PUSH1 0xFF DUP1 DUP3 AND ISZERO ISZERO PUSH2 0x120 DUP7 ADD MSTORE SWAP2 SWAP1 DIV AND ISZERO DUP1 ISZERO PUSH2 0x140 DUP5 ADD MSTORE SWAP1 SWAP2 SWAP1 DUP1 PUSH2 0x19BF JUMPI POP DUP1 PUSH2 0x120 ADD MLOAD ISZERO JUMPDEST ISZERO PUSH2 0x19CC JUMPI POP PUSH0 SWAP3 SWAP2 POP POP JUMP JUMPDEST PUSH1 0x1 PUSH1 0x1 PUSH1 0xA0 SHL SUB DUP4 AND PUSH0 SWAP1 DUP2 MSTORE PUSH1 0x9 PUSH1 0x20 MSTORE PUSH1 0x40 DUP2 KECCAK256 SLOAD SWAP1 DUP2 SWAP1 SUB PUSH2 0x19F5 JUMPI POP PUSH0 SWAP4 SWAP3 POP POP POP JUMP JUMPDEST PUSH0 PUSH3 0x15180 PUSH2 0x1A04 DUP4 TIMESTAMP PUSH2 0x4689 JUMP JUMPDEST PUSH2 0x1A0E SWAP2 SWAP1 PUSH2 0x4676 JUMP JUMPDEST SWAP1 POP PUSH1 0xC8 DUP2 GT ISZERO PUSH2 0x1A23 JUMPI POP PUSH0 SWAP5 SWAP4 POP POP POP POP JUMP JUMPDEST PUSH0 PUSH2 0x1A2C PUSH2 0x1506 JUMP JUMPDEST POP POP POP SWAP1 POP PUSH1 0x7D DUP3 GT ISZERO PUSH2 0x1A3F JUMPI POP PUSH2 0x3E8 JUMPDEST PUSH1 0x20 DUP5 ADD MLOAD PUSH0 PUSH3 0x186A0 PUSH2 0x1A53 DUP5 DUP5 PUSH2 0x464B JUMP JUMPDEST PUSH2 0x1A5D SWAP2 SWAP1 PUSH2 0x4676 JUMP JUMPDEST SWAP1 POP PUSH0 PUSH2 0x12C SWAP1 POP PUSH0 PUSH0 DUP9 PUSH1 0x80 ADD MLOAD GT PUSH2 0x1A77 JUMPI DUP7 PUSH2 0x1A7D JUMP JUMPDEST DUP8 PUSH1 0x80 ADD MLOAD JUMPDEST SWAP1 POP PUSH0 PUSH2 0x1A8A DUP3 TIMESTAMP PUSH2 0x4689 JUMP JUMPDEST SWAP1 POP PUSH0 PUSH2 0x1A97 DUP5 DUP4 PUSH2 0x4676 JUMP JUMPDEST SWAP1 POP DUP1 PUSH0 SUB PUSH2 0x1AB1 JUMPI POP PUSH0 SWAP12 SWAP11 POP POP POP POP POP POP POP POP POP POP POP JUMP JUMPDEST PUSH0 PUSH2 0x1ABE PUSH2 0x120 DUP8 PUSH2 0x4676 JUMP JUMPDEST SWAP1 POP PUSH0 PUSH2 0x1ACB DUP4 DUP4 PUSH2 0x464B JUMP JUMPDEST SWAP1 POP PUSH0 PUSH2 0x1AD9 DUP10 PUSH1 0x3 PUSH2 0x464B JUMP JUMPDEST SWAP1 POP DUP1 DUP3 DUP15 PUSH2 0x100 ADD MLOAD PUSH2 0x1AED SWAP2 SWAP1 PUSH2 0x4638 JUMP JUMPDEST GT ISZERO PUSH2 0x1B26 JUMPI DUP1 DUP14 PUSH2 0x100 ADD MLOAD LT PUSH2 0x1B13 JUMPI POP PUSH0 SWAP15 SWAP14 POP POP POP POP POP POP POP POP POP POP POP POP POP POP JUMP JUMPDEST PUSH2 0x100 DUP14 ADD MLOAD PUSH2 0x1B23 SWAP1 DUP3 PUSH2 0x4689 JUMP JUMPDEST SWAP2 POP JUMPDEST POP SWAP14 SWAP13 POP POP POP POP POP POP POP POP POP POP POP POP POP JUMP JUMPDEST PUSH2 0x1B40 PUSH2 0x1DAF JUMP JUMPDEST PUSH1 0x1 PUSH1 0x1 PUSH1 0xA0 SHL SUB DUP2 AND PUSH2 0x1B6E JUMPI PUSH1 0x40 MLOAD PUSH4 0x1E4FBDF7 PUSH1 0xE0 SHL DUP2 MSTORE PUSH0 PUSH1 0x4 DUP3 ADD MSTORE PUSH1 0x24 ADD JUMPDEST PUSH1 0x40 MLOAD DUP1 SWAP2 SUB SWAP1 REVERT JUMPDEST PUSH2 0x1B77 DUP2 PUSH2 0x1DEF JUMP JUMPDEST POP JUMP JUMPDEST PUSH2 0x1B82 PUSH2 0x1DAF JUMP JUMPDEST PUSH1 0xC DUP1 SLOAD PUSH1 0x1 PUSH1 0x1 PUSH1 0xA0 SHL SUB NOT AND PUSH1 0x1 PUSH1 0x1 PUSH1 0xA0 SHL SUB SWAP3 SWAP1 SWAP3 AND SWAP2 SWAP1 SWAP2 OR SWAP1 SSTORE JUMP JUMPDEST PUSH1 0x1 PUSH1 0x1 PUSH1 0xA0 SHL SUB DUP4 AND PUSH2 0x1BCE JUMPI DUP1 PUSH1 0x2 PUSH0 DUP3 DUP3 SLOAD PUSH2 0x1BC3 SWAP2 SWAP1 PUSH2 0x4638 JUMP JUMPDEST SWAP1 SWAP2 SSTORE POP PUSH2 0x1C3E SWAP1 POP JUMP JUMPDEST PUSH1 0x1 PUSH1 0x1 PUSH1 0xA0 SHL SUB DUP4 AND PUSH0 SWAP1 DUP2 MSTORE PUSH1 0x20 DUP2 SWAP1 MSTORE PUSH1 0x40 SWAP1 KECCAK256 SLOAD DUP2 DUP2 LT ISZERO PUSH2 0x1C20 JUMPI PUSH1 0x40 MLOAD PUSH4 0x391434E3 PUSH1 0xE2 SHL DUP2 MSTORE PUSH1 0x1 PUSH1 0x1 PUSH1 0xA0 SHL SUB DUP6 AND PUSH1 0x4 DUP3 ADD MSTORE PUSH1 0x24 DUP2 ADD DUP3 SWAP1 MSTORE PUSH1 0x44 DUP2 ADD DUP4 SWAP1 MSTORE PUSH1 0x64 ADD PUSH2 0x1B65 JUMP JUMPDEST PUSH1 0x1 PUSH1 0x1 PUSH1 0xA0 SHL SUB DUP5 AND PUSH0 SWAP1 DUP2 MSTORE PUSH1 0x20 DUP2 SWAP1 MSTORE PUSH1 0x40 SWAP1 KECCAK256 SWAP1 DUP3 SWAP1 SUB SWAP1 SSTORE JUMPDEST PUSH1 0x1 PUSH1 0x1 PUSH1 0xA0 SHL SUB DUP3 AND PUSH2 0x1C5A JUMPI PUSH1 0x2 DUP1 SLOAD DUP3 SWAP1 SUB SWAP1 SSTORE PUSH2 0x1C78 JUMP JUMPDEST PUSH1 0x1 PUSH1 0x1 PUSH1 0xA0 SHL SUB DUP3 AND PUSH0 SWAP1 DUP2 MSTORE PUSH1 0x20 DUP2 SWAP1 MSTORE PUSH1 0x40 SWAP1 KECCAK256 DUP1 SLOAD DUP3 ADD SWAP1 SSTORE JUMPDEST DUP2 PUSH1 0x1 PUSH1 0x1 PUSH1 0xA0 SHL SUB AND DUP4 PUSH1 0x1 PUSH1 0x1 PUSH1 0xA0 SHL SUB AND PUSH32 0xDDF252AD1BE2C89B69C2B068FC378DAA952BA7F163C4A11628F55A4DF523B3EF DUP4 PUSH1 0x40 MLOAD PUSH2 0x1CBD SWAP2 DUP2 MSTORE PUSH1 0x20 ADD SWAP1 JUMP JUMPDEST PUSH1 0x40 MLOAD DUP1 SWAP2 SUB SWAP1 LOG3 POP POP POP JUMP JUMPDEST PUSH2 0x1CD7 DUP4 DUP4 DUP4 PUSH1 0x1 PUSH2 0x1E40 JUMP JUMPDEST POP POP POP JUMP JUMPDEST PUSH1 0x1 PUSH1 0x1 PUSH1 0xA0 SHL SUB DUP4 DUP2 AND PUSH0 SWAP1 DUP2 MSTORE PUSH1 0x1 PUSH1 0x20 SWAP1 DUP2 MSTORE PUSH1 0x40 DUP1 DUP4 KECCAK256 SWAP4 DUP7 AND DUP4 MSTORE SWAP3 SWAP1 MSTORE KECCAK256 SLOAD PUSH0 NOT DUP2 LT ISZERO PUSH2 0x1615 JUMPI DUP2 DUP2 LT ISZERO PUSH2 0x1D44 JUMPI PUSH1 0x40 MLOAD PUSH4 0x7DC7A0D9 PUSH1 0xE1 SHL DUP2 MSTORE PUSH1 0x1 PUSH1 0x1 PUSH1 0xA0 SHL SUB DUP5 AND PUSH1 0x4 DUP3 ADD MSTORE PUSH1 0x24 DUP2 ADD DUP3 SWAP1 MSTORE PUSH1 0x44 DUP2 ADD DUP4 SWAP1 MSTORE PUSH1 0x64 ADD PUSH2 0x1B65 JUMP JUMPDEST PUSH2 0x1615 DUP5 DUP5 DUP5 DUP5 SUB PUSH0 PUSH2 0x1E40 JUMP JUMPDEST PUSH1 0x1 PUSH1 0x1 PUSH1 0xA0 SHL SUB DUP4 AND PUSH2 0x1D7B JUMPI PUSH1 0x40 MLOAD PUSH4 0x4B637E8F PUSH1 0xE1 SHL DUP2 MSTORE PUSH0 PUSH1 0x4 DUP3 ADD MSTORE PUSH1 0x24 ADD PUSH2 0x1B65 JUMP JUMPDEST PUSH1 0x1 PUSH1 0x1 PUSH1 0xA0 SHL SUB DUP3 AND PUSH2 0x1DA4 JUMPI PUSH1 0x40 MLOAD PUSH4 0xEC442F05 PUSH1 0xE0 SHL DUP2 MSTORE PUSH0 PUSH1 0x4 DUP3 ADD MSTORE PUSH1 0x24 ADD PUSH2 0x1B65 JUMP JUMPDEST PUSH2 0x1CD7 DUP4 DUP4 DUP4 PUSH2 0x1F12 JUMP JUMPDEST PUSH1 0x5 SLOAD PUSH1 0x1 PUSH1 0x1 PUSH1 0xA0 SHL SUB AND CALLER EQ PUSH2 0x1569 JUMPI PUSH1 0x40 MLOAD PUSH4 0x118CDAA7 PUSH1 0xE0 SHL DUP2 MSTORE CALLER PUSH1 0x4 DUP3 ADD MSTORE PUSH1 0x24 ADD PUSH2 0x1B65 JUMP JUMPDEST PUSH1 0x60 PUSH0 PUSH2 0x1DE8 DUP4 PUSH2 0x2B80 JUMP JUMPDEST SWAP4 SWAP3 POP POP POP JUMP JUMPDEST PUSH1 0x5 DUP1 SLOAD PUSH1 0x1 PUSH1 0x1 PUSH1 0xA0 SHL SUB DUP4 DUP2 AND PUSH1 0x1 PUSH1 0x1 PUSH1 0xA0 SHL SUB NOT DUP4 AND DUP2 OR SWAP1 SWAP4 SSTORE PUSH1 0x40 MLOAD SWAP2 AND SWAP2 SWAP1 DUP3 SWAP1 PUSH32 0x8BE0079C531659141344CD1FD0A4F28419497F9722A3DAAFE3B4186F6B6457E0 SWAP1 PUSH0 SWAP1 LOG3 POP POP JUMP JUMPDEST PUSH1 0x1 PUSH1 0x1 PUSH1 0xA0 SHL SUB DUP5 AND PUSH2 0x1E69 JUMPI PUSH1 0x40 MLOAD PUSH4 0xE602DF05 PUSH1 0xE0 SHL DUP2 MSTORE PUSH0 PUSH1 0x4 DUP3 ADD MSTORE PUSH1 0x24 ADD PUSH2 0x1B65 JUMP JUMPDEST PUSH1 0x1 PUSH1 0x1 PUSH1 0xA0 SHL SUB DUP4 AND PUSH2 0x1E92 JUMPI PUSH1 0x40 MLOAD PUSH4 0x4A1406B1 PUSH1 0xE1 SHL DUP2 MSTORE PUSH0 PUSH1 0x4 DUP3 ADD MSTORE PUSH1 0x24 ADD PUSH2 0x1B65 JUMP JUMPDEST PUSH1 0x1 PUSH1 0x1 PUSH1 0xA0 SHL SUB DUP1 DUP6 AND PUSH0 SWAP1 DUP2 MSTORE PUSH1 0x1 PUSH1 0x20 SWAP1 DUP2 MSTORE PUSH1 0x40 DUP1 DUP4 KECCAK256 SWAP4 DUP8 AND DUP4 MSTORE SWAP3 SWAP1 MSTORE KECCAK256 DUP3 SWAP1 SSTORE DUP1 ISZERO PUSH2 0x1615 JUMPI DUP3 PUSH1 0x1 PUSH1 0x1 PUSH1 0xA0 SHL SUB AND DUP5 PUSH1 0x1 PUSH1 0x1 PUSH1 0xA0 SHL SUB AND PUSH32 0x8C5BE1E5EBEC7D5BD14F71427D1E84F3DD0314C0F7B2291E5B200AC8C7C3B925 DUP5 PUSH1 0x40 MLOAD PUSH2 0x1F04 SWAP2 DUP2 MSTORE PUSH1 0x20 ADD SWAP1 JUMP JUMPDEST PUSH1 0x40 MLOAD DUP1 SWAP2 SUB SWAP1 LOG3 POP POP POP POP JUMP JUMPDEST PUSH8 0x1BC16D674EC80000 DUP2 EQ DUP1 ISZERO PUSH2 0x1F4E JUMPI POP PUSH1 0x1 PUSH1 0x1 PUSH1 0xA0 SHL SUB DUP1 DUP4 AND PUSH0 SWAP1 DUP2 MSTORE PUSH1 0x7 PUSH1 0x20 SWAP1 DUP2 MSTORE PUSH1 0x40 DUP1 DUP4 KECCAK256 SWAP4 DUP8 AND DUP4 MSTORE SWAP3 SWAP1 MSTORE KECCAK256 SLOAD PUSH1 0xFF AND ISZERO JUMPDEST DUP1 ISZERO PUSH2 0x1F5F JUMPI POP PUSH2 0x1F5F DUP4 DUP4 PUSH2 0x179B JUMP JUMPDEST ISZERO PUSH2 0x1F94 JUMPI PUSH1 0x1 PUSH1 0x1 PUSH1 0xA0 SHL SUB DUP1 DUP5 AND PUSH0 SWAP1 DUP2 MSTORE PUSH1 0x7 PUSH1 0x20 SWAP1 DUP2 MSTORE PUSH1 0x40 DUP1 DUP4 KECCAK256 SWAP4 DUP7 AND DUP4 MSTORE SWAP3 SWAP1 MSTORE KECCAK256 DUP1 SLOAD PUSH1 0xFF NOT AND PUSH1 0x1 OR SWAP1 SSTORE JUMPDEST PUSH8 0xDE0B6B3A7640000 DUP2 EQ DUP1 ISZERO PUSH2 0x1FCF JUMPI POP PUSH1 0x1 PUSH1 0x1 PUSH1 0xA0 SHL SUB DUP1 DUP4 AND PUSH0 SWAP1 DUP2 MSTORE PUSH1 0x7 PUSH1 0x20 SWAP1 DUP2 MSTORE PUSH1 0x40 DUP1 DUP4 KECCAK256 SWAP4 DUP8 AND DUP4 MSTORE SWAP3 SWAP1 MSTORE KECCAK256 SLOAD PUSH1 0xFF AND JUMPDEST DUP1 ISZERO PUSH2 0x1FF2 JUMPI POP PUSH1 0x1 PUSH1 0x1 PUSH1 0xA0 SHL SUB DUP4 DUP2 AND PUSH0 SWAP1 DUP2 MSTORE PUSH1 0xA PUSH1 0x20 MSTORE PUSH1 0x40 SWAP1 KECCAK256 SLOAD AND ISZERO JUMPDEST ISZERO PUSH2 0x207A JUMPI PUSH1 0x1 PUSH1 0x1 PUSH1 0xA0 SHL SUB DUP4 DUP2 AND PUSH0 SWAP1 DUP2 MSTORE PUSH1 0xA PUSH1 0x20 SWAP1 DUP2 MSTORE PUSH1 0x40 DUP1 DUP4 KECCAK256 DUP1 SLOAD PUSH1 0x1 PUSH1 0x1 PUSH1 0xA0 SHL SUB NOT AND SWAP5 DUP8 AND SWAP5 DUP6 OR SWAP1 SSTORE SWAP3 DUP3 MSTORE PUSH1 0x8 SWAP1 MSTORE KECCAK256 PUSH2 0x2038 SWAP1 DUP5 PUSH2 0x2BD9 JUMP JUMPDEST POP DUP2 PUSH1 0x1 PUSH1 0x1 PUSH1 0xA0 SHL SUB AND DUP4 PUSH1 0x1 PUSH1 0x1 PUSH1 0xA0 SHL SUB AND PUSH32 0x8D63F2E3D39EB6CF9C80D49BC203133F6F215CE2A1A3D27A68F0167F6C045D48 PUSH1 0x40 MLOAD PUSH1 0x40 MLOAD DUP1 SWAP2 SUB SWAP1 LOG3 JUMPDEST PUSH1 0x1 PUSH1 0x1 PUSH1 0xA0 SHL SUB DUP3 AND ADDRESS EQ DUP1 ISZERO PUSH2 0x2091 JUMPI POP CALLER ORIGIN EQ JUMPDEST ISZERO PUSH2 0x211F JUMPI PUSH1 0x1 PUSH1 0x1 PUSH1 0xA0 SHL SUB DUP4 AND PUSH0 SWAP1 DUP2 MSTORE PUSH1 0x1D PUSH1 0x20 MSTORE PUSH1 0x40 SWAP1 KECCAK256 SLOAD PUSH1 0xFF AND ISZERO DUP1 ISZERO PUSH2 0x20C7 JUMPI POP PUSH9 0x56BC75E2D63100000 DUP2 LT ISZERO JUMPDEST DUP1 ISZERO PUSH2 0x20DD JUMPI POP PUSH10 0x152D02C7E14AF6800000 DUP2 GT ISZERO JUMPDEST DUP1 ISZERO PUSH2 0x20EC JUMPI POP PUSH1 0x1E SLOAD PUSH1 0xFF AND ISZERO JUMPDEST DUP1 ISZERO PUSH2 0x2110 JUMPI POP ADDRESS PUSH0 SWAP1 DUP2 MSTORE PUSH1 0x20 DUP2 SWAP1 MSTORE PUSH1 0x40 SWAP1 KECCAK256 SLOAD PUSH10 0x21E19E0C9BAB2400000 GT ISZERO JUMPDEST ISZERO PUSH2 0x211F JUMPI PUSH2 0x1CD7 DUP4 DUP3 PUSH2 0x2BED JUMP JUMPDEST PUSH1 0x1 PUSH1 0x1 PUSH1 0xA0 SHL SUB DUP1 DUP5 AND PUSH0 SWAP1 DUP2 MSTORE PUSH1 0xA PUSH1 0x20 SWAP1 DUP2 MSTORE PUSH1 0x40 SWAP2 DUP3 SWAP1 KECCAK256 DUP3 MLOAD PUSH2 0x160 DUP2 ADD DUP5 MSTORE DUP2 SLOAD SWAP1 SWAP5 AND DUP5 MSTORE PUSH1 0x1 DUP2 ADD SLOAD SWAP2 DUP5 ADD SWAP2 SWAP1 SWAP2 MSTORE PUSH1 0x2 DUP2 ADD SLOAD SWAP2 DUP4 ADD SWAP2 SWAP1 SWAP2 MSTORE PUSH1 0x3 DUP2 ADD SLOAD PUSH1 0x60 DUP4 ADD MSTORE PUSH1 0x4 DUP2 ADD SLOAD PUSH1 0x80 DUP4 ADD MSTORE PUSH1 0x5 DUP2 ADD SLOAD PUSH1 0xA0 DUP4 ADD MSTORE PUSH1 0x6 DUP2 ADD SLOAD PUSH1 0xC0 DUP4 ADD MSTORE PUSH1 0x7 DUP2 ADD SLOAD PUSH1 0xE0 DUP4 ADD MSTORE PUSH1 0x8 DUP2 ADD SLOAD PUSH2 0x100 DUP1 DUP5 ADD SWAP2 SWAP1 SWAP2 MSTORE PUSH1 0x9 SWAP1 SWAP2 ADD SLOAD PUSH1 0xFF DUP1 DUP3 AND ISZERO ISZERO PUSH2 0x120 DUP6 ADD MSTORE SWAP2 SWAP1 DIV AND ISZERO ISZERO PUSH2 0x140 DUP3 ADD MSTORE CALLER ORIGIN EQ DUP1 ISZERO PUSH2 0x21D4 JUMPI POP DUP1 PUSH2 0x140 ADD MLOAD JUMPDEST DUP1 ISZERO PUSH2 0x21E3 JUMPI POP PUSH0 DUP2 PUSH1 0x40 ADD MLOAD GT JUMPDEST DUP1 ISZERO PUSH2 0x21F7 JUMPI POP PUSH1 0x1 PUSH1 0x1 PUSH1 0xA0 SHL SUB DUP4 AND ADDRESS EQ JUMPDEST ISZERO PUSH2 0x24CB JUMPI PUSH8 0xDE0B6B3A7640000 DUP3 SUB PUSH2 0x232B JUMPI PUSH1 0x10 SLOAD PUSH1 0x1 PUSH1 0xA0 SHL SWAP1 DIV PUSH1 0xFF AND ISZERO PUSH2 0x2236 JUMPI PUSH1 0x40 MLOAD PUSH4 0x2F352531 PUSH1 0xE0 SHL DUP2 MSTORE PUSH1 0x4 ADD PUSH1 0x40 MLOAD DUP1 SWAP2 SUB SWAP1 REVERT JUMPDEST DUP1 PUSH2 0x120 ADD MLOAD PUSH2 0x229D JUMPI PUSH1 0x1 PUSH1 0x1 PUSH1 0xA0 SHL SUB DUP5 AND PUSH0 SWAP1 DUP2 MSTORE PUSH1 0xA PUSH1 0x20 MSTORE PUSH1 0x40 SWAP1 KECCAK256 PUSH1 0x9 ADD DUP1 SLOAD PUSH1 0xFF NOT AND PUSH1 0x1 OR SWAP1 SSTORE PUSH2 0x2272 TIMESTAMP PUSH3 0x15180 PUSH2 0x4638 JUMP JUMPDEST PUSH1 0x1 PUSH1 0x1 PUSH1 0xA0 SHL SUB DUP6 AND PUSH0 SWAP1 DUP2 MSTORE PUSH1 0xA PUSH1 0x20 MSTORE PUSH1 0x40 SWAP1 KECCAK256 PUSH1 0x3 DUP2 ADD SWAP2 SWAP1 SWAP2 SSTORE TIMESTAMP PUSH1 0x4 SWAP1 SWAP2 ADD SSTORE PUSH2 0x232B JUMP JUMPDEST DUP1 PUSH2 0x120 ADD MLOAD DUP1 ISZERO PUSH2 0x22B3 JUMPI POP DUP1 PUSH1 0x60 ADD MLOAD TIMESTAMP LT ISZERO JUMPDEST ISZERO PUSH2 0x2312 JUMPI PUSH2 0x22C1 DUP5 PUSH2 0x2E20 JUMP JUMPDEST PUSH2 0x22CE TIMESTAMP PUSH3 0x15180 PUSH2 0x4638 JUMP JUMPDEST PUSH1 0x1 PUSH1 0x1 PUSH1 0xA0 SHL SUB DUP6 AND PUSH0 SWAP1 DUP2 MSTORE PUSH1 0xA PUSH1 0x20 MSTORE PUSH1 0x40 SWAP1 KECCAK256 PUSH1 0x3 DUP2 ADD SWAP2 SWAP1 SWAP2 SSTORE TIMESTAMP PUSH1 0x4 SWAP1 SWAP2 ADD SSTORE PUSH2 0x22FF DUP5 DUP5 DUP5 PUSH2 0x1BA4 JUMP JUMPDEST PUSH2 0x1615 ADDRESS DUP6 PUSH8 0xDE0B6B3A7640000 PUSH2 0x1BA4 JUMP JUMPDEST PUSH1 0x40 MLOAD PUSH4 0x2F352531 PUSH1 0xE0 SHL DUP2 MSTORE PUSH1 0x4 ADD PUSH1 0x40 MLOAD DUP1 SWAP2 SUB SWAP1 REVERT JUMPDEST PUSH8 0x8AC7230489E80000 DUP3 SUB PUSH2 0x24C0 JUMPI TIMESTAMP PUSH1 0x15 SLOAD LT PUSH2 0x235B JUMPI PUSH1 0x40 MLOAD PUSH3 0x461BCD PUSH1 0xE5 SHL DUP2 MSTORE PUSH1 0x4 ADD PUSH2 0x1B65 SWAP1 PUSH2 0x4A5A JUMP JUMPDEST PUSH1 0x40 DUP2 ADD MLOAD DUP1 ISZERO PUSH2 0x2426 JUMPI PUSH0 PUSH2 0x236F PUSH2 0x156B JUMP JUMPDEST SWAP1 POP DUP1 ISZERO PUSH2 0x23AA JUMPI PUSH0 PUSH1 0x64 DUP3 DUP6 PUSH1 0x40 ADD MLOAD PUSH2 0x238A SWAP2 SWAP1 PUSH2 0x464B JUMP JUMPDEST PUSH2 0x2394 SWAP2 SWAP1 PUSH2 0x4676 JUMP JUMPDEST SWAP1 POP DUP1 DUP5 PUSH1 0x40 ADD MLOAD PUSH2 0x23A6 SWAP2 SWAP1 PUSH2 0x4689 JUMP JUMPDEST SWAP3 POP POP JUMPDEST DUP2 ISZERO PUSH2 0x2424 JUMPI PUSH1 0x6 SLOAD PUSH1 0x40 MLOAD PUSH4 0xA9059CBB PUSH1 0xE0 SHL DUP2 MSTORE PUSH1 0x1 PUSH1 0x1 PUSH1 0xA0 SHL SUB SWAP1 SWAP2 AND SWAP1 PUSH4 0xA9059CBB SWAP1 PUSH2 0x23E2 SWAP1 DUP10 SWAP1 DUP7 SWAP1 PUSH1 0x4 ADD PUSH2 0x4A08 JUMP JUMPDEST PUSH1 0x20 PUSH1 0x40 MLOAD DUP1 DUP4 SUB DUP2 PUSH0 DUP8 GAS CALL ISZERO DUP1 ISZERO PUSH2 0x23FE JUMPI RETURNDATASIZE PUSH0 PUSH0 RETURNDATACOPY RETURNDATASIZE PUSH0 REVERT JUMPDEST POP POP POP POP PUSH1 0x40 MLOAD RETURNDATASIZE PUSH1 0x1F NOT PUSH1 0x1F DUP3 ADD AND DUP3 ADD DUP1 PUSH1 0x40 MSTORE POP DUP2 ADD SWAP1 PUSH2 0x2422 SWAP2 SWAP1 PUSH2 0x4A21 JUMP JUMPDEST POP JUMPDEST POP JUMPDEST PUSH1 0x1 PUSH1 0x1 PUSH1 0xA0 SHL SUB DUP1 DUP7 AND PUSH0 SWAP1 DUP2 MSTORE PUSH1 0xA PUSH1 0x20 MSTORE PUSH1 0x40 DUP1 DUP3 KECCAK256 PUSH1 0x9 DUP2 ADD DUP1 SLOAD PUSH1 0x2 DUP4 ADD DUP6 SWAP1 SSTORE PUSH1 0x1 DUP4 ADD DUP6 SWAP1 SSTORE PUSH2 0xFFFF NOT AND SWAP1 SSTORE PUSH1 0x4 DUP2 ADD DUP4 SWAP1 SSTORE PUSH1 0x8 ADD DUP3 SWAP1 SSTORE DUP5 MLOAD SWAP1 SWAP3 AND DUP2 MSTORE KECCAK256 PUSH1 0x7 ADD SLOAD ISZERO PUSH2 0x24AA JUMPI DUP2 MLOAD PUSH1 0x1 PUSH1 0x1 PUSH1 0xA0 SHL SUB AND PUSH0 SWAP1 DUP2 MSTORE PUSH1 0xA PUSH1 0x20 MSTORE PUSH1 0x40 DUP2 KECCAK256 PUSH1 0x7 ADD DUP1 SLOAD PUSH1 0x1 SWAP3 SWAP1 PUSH2 0x24A4 SWAP1 DUP5 SWAP1 PUSH2 0x4689 JUMP JUMPDEST SWAP1 SWAP2 SSTORE POP POP JUMPDEST PUSH2 0x24B5 DUP6 DUP6 DUP6 PUSH2 0x1BA4 JUMP JUMPDEST PUSH2 0x14CD ADDRESS DUP7 DUP6 PUSH2 0x1BA4 JUMP JUMPDEST PUSH2 0x1615 DUP5 DUP5 DUP5 PUSH2 0x1BA4 JUMP JUMPDEST PUSH1 0x1 PUSH1 0x1 PUSH1 0xA0 SHL SUB DUP5 AND ADDRESS EQ DUP1 PUSH2 0x24EA JUMPI POP PUSH1 0x1 PUSH1 0x1 PUSH1 0xA0 SHL SUB DUP4 AND ADDRESS EQ JUMPDEST DUP1 PUSH2 0x2502 JUMPI POP PUSH1 0x10 SLOAD PUSH1 0x1 PUSH1 0x1 PUSH1 0xA0 SHL SUB DUP6 DUP2 AND SWAP2 AND EQ JUMPDEST DUP1 PUSH2 0x251A JUMPI POP PUSH1 0x10 SLOAD PUSH1 0x1 PUSH1 0x1 PUSH1 0xA0 SHL SUB DUP5 DUP2 AND SWAP2 AND EQ JUMPDEST ISZERO PUSH2 0x252A JUMPI PUSH2 0x1615 DUP5 DUP5 DUP5 PUSH2 0x1BA4 JUMP JUMPDEST PUSH1 0x6 SLOAD PUSH1 0x1 PUSH1 0x1 PUSH1 0xA0 SHL SUB SWAP1 DUP2 AND SWAP1 DUP6 AND SUB PUSH2 0x2824 JUMPI TIMESTAMP PUSH1 0x15 SLOAD LT PUSH2 0x2561 JUMPI PUSH1 0x40 MLOAD PUSH3 0x461BCD PUSH1 0xE5 SHL DUP2 MSTORE PUSH1 0x4 ADD PUSH2 0x1B65 SWAP1 PUSH2 0x4A5A JUMP JUMPDEST ORIGIN PUSH0 SWAP1 DUP2 MSTORE PUSH1 0x9 PUSH1 0x20 MSTORE PUSH1 0x40 DUP2 KECCAK256 TIMESTAMP SWAP1 SSTORE PUSH2 0x257A PUSH2 0x314B JUMP JUMPDEST GT ISZERO PUSH2 0x2650 JUMPI PUSH0 PUSH0 PUSH2 0x258A PUSH2 0x1139 JUMP JUMPDEST SWAP1 POP PUSH12 0x33B2E3C9FD0803CE8000000 DUP2 LT PUSH2 0x25BD JUMPI PUSH1 0xA PUSH2 0x25AC DUP6 PUSH1 0x9 PUSH2 0x464B JUMP JUMPDEST PUSH2 0x25B6 SWAP2 SWAP1 PUSH2 0x4676 JUMP JUMPDEST SWAP2 POP PUSH2 0x261F JUMP JUMPDEST PUSH12 0x19D971E4FE8401E74000000 DUP2 LT PUSH2 0x25DD JUMPI PUSH1 0xA PUSH2 0x25AC DUP6 PUSH1 0x6 PUSH2 0x464B JUMP JUMPDEST PUSH11 0x52B7D2DCC80CD2E4000000 DUP2 LT PUSH2 0x25FC JUMPI PUSH1 0xA PUSH2 0x25AC DUP6 PUSH1 0x4 PUSH2 0x464B JUMP JUMPDEST PUSH11 0x295BE96E64066972000000 DUP2 LT PUSH2 0x261B JUMPI PUSH1 0xA PUSH2 0x25AC DUP6 PUSH1 0x2 PUSH2 0x464B JUMP JUMPDEST DUP4 SWAP2 POP JUMPDEST PUSH2 0x262C DUP7 PUSH2 0xDEAD DUP5 PUSH2 0x1BA4 JUMP JUMPDEST DUP2 DUP5 GT ISZERO PUSH2 0x2648 JUMPI PUSH2 0x2648 DUP7 DUP7 PUSH2 0x2643 DUP6 DUP9 PUSH2 0x4689 JUMP JUMPDEST PUSH2 0x1BA4 JUMP JUMPDEST POP POP POP POP POP POP JUMP JUMPDEST PUSH1 0x64 PUSH2 0x265A PUSH2 0x1628 JUMP JUMPDEST PUSH2 0x2665 SWAP1 PUSH1 0x5 PUSH2 0x464B JUMP JUMPDEST PUSH2 0x266F SWAP2 SWAP1 PUSH2 0x4676 JUMP JUMPDEST DUP3 LT PUSH2 0x26A9 JUMPI PUSH1 0x40 MLOAD PUSH3 0x461BCD PUSH1 0xE5 SHL DUP2 MSTORE PUSH1 0x20 PUSH1 0x4 DUP3 ADD MSTORE PUSH1 0x9 PUSH1 0x24 DUP3 ADD MSTORE PUSH9 0x36B0BC103A37B5B2B7 PUSH1 0xB9 SHL PUSH1 0x44 DUP3 ADD MSTORE PUSH1 0x64 ADD PUSH2 0x1B65 JUMP JUMPDEST PUSH2 0x26B1 PUSH2 0x32E0 JUMP JUMPDEST PUSH1 0x1C SLOAD PUSH0 SWAP1 PUSH1 0xFF AND PUSH2 0x26C5 JUMPI PUSH2 0x12C PUSH2 0x26C9 JUMP JUMPDEST PUSH2 0xB54 JUMPDEST PUSH2 0xFFFF AND SWAP1 POP PUSH0 PUSH2 0x2710 PUSH2 0x26DD DUP4 DUP7 PUSH2 0x464B JUMP JUMPDEST PUSH2 0x26E7 SWAP2 SWAP1 PUSH2 0x4676 JUMP JUMPDEST SWAP1 POP PUSH0 PUSH2 0x2710 PUSH2 0x26F9 DUP7 PUSH2 0x12C PUSH2 0x464B JUMP JUMPDEST PUSH2 0x2703 SWAP2 SWAP1 PUSH2 0x4676 JUMP JUMPDEST PUSH1 0x1C SLOAD SWAP1 SWAP2 POP PUSH0 SWAP1 PUSH1 0xFF AND DUP1 ISZERO PUSH2 0x2719 JUMPI POP DUP2 DUP4 GT JUMPDEST ISZERO PUSH2 0x2769 JUMPI PUSH2 0x2728 DUP3 DUP5 PUSH2 0x4689 JUMP JUMPDEST SWAP1 POP PUSH0 PUSH2 0x2736 PUSH1 0x2 DUP4 PUSH2 0x4676 JUMP JUMPDEST SWAP1 POP PUSH2 0x2743 DUP10 ADDRESS DUP4 PUSH2 0x1BA4 JUMP JUMPDEST PUSH2 0x274D DUP2 DUP4 PUSH2 0x4689 JUMP JUMPDEST PUSH1 0x12 PUSH0 DUP3 DUP3 SLOAD PUSH2 0x275D SWAP2 SWAP1 PUSH2 0x4638 JUMP JUMPDEST SWAP3 POP POP DUP2 SWAP1 SSTORE POP DUP3 SWAP4 POP POP JUMPDEST PUSH0 PUSH1 0xA PUSH2 0x2777 DUP6 PUSH1 0x7 PUSH2 0x464B JUMP JUMPDEST PUSH2 0x2781 SWAP2 SWAP1 PUSH2 0x4676 JUMP JUMPDEST SWAP1 POP DUP1 PUSH1 0x12 PUSH0 DUP3 DUP3 SLOAD PUSH2 0x2794 SWAP2 SWAP1 PUSH2 0x4638 JUMP JUMPDEST SWAP1 SWAP2 SSTORE POP PUSH0 SWAP1 POP PUSH1 0xA PUSH2 0x27A8 DUP7 PUSH1 0x1 PUSH2 0x464B JUMP JUMPDEST PUSH2 0x27B2 SWAP2 SWAP1 PUSH2 0x4676 JUMP JUMPDEST SWAP1 POP PUSH2 0x27C1 DUP11 PUSH2 0xDEAD DUP4 PUSH2 0x1BA4 JUMP JUMPDEST PUSH0 DUP2 PUSH2 0x27CD DUP5 DUP9 PUSH2 0x4689 JUMP JUMPDEST PUSH2 0x27D7 SWAP2 SWAP1 PUSH2 0x4689 JUMP JUMPDEST SWAP1 POP DUP1 PUSH1 0x13 PUSH0 DUP3 DUP3 SLOAD PUSH2 0x27EA SWAP2 SWAP1 PUSH2 0x4638 JUMP JUMPDEST SWAP1 SWAP2 SSTORE POP PUSH2 0x27FB SWAP1 POP DUP12 ADDRESS DUP6 PUSH2 0x1BA4 JUMP JUMPDEST PUSH2 0x2806 DUP12 ADDRESS DUP4 PUSH2 0x1BA4 JUMP JUMPDEST PUSH2 0x2810 DUP5 DUP8 PUSH2 0x4638 JUMP JUMPDEST PUSH2 0x281A SWAP1 DUP11 PUSH2 0x4689 JUMP JUMPDEST SWAP9 POP POP POP POP POP POP POP POP JUMPDEST PUSH1 0x6 SLOAD PUSH1 0x1 PUSH1 0x1 PUSH1 0xA0 SHL SUB SWAP1 DUP2 AND SWAP1 DUP5 AND SUB PUSH2 0x2B78 JUMPI PUSH1 0x19 SLOAD PUSH1 0x1 PUSH1 0xA8 SHL SWAP1 DIV PUSH1 0xFF AND ISZERO PUSH2 0x2920 JUMPI PUSH1 0x6 SLOAD PUSH1 0x40 DUP1 MLOAD PUSH4 0x240BC6B PUSH1 0xE2 SHL DUP2 MSTORE SWAP1 MLOAD PUSH1 0x1 PUSH1 0x1 PUSH1 0xA0 SHL SUB SWAP1 SWAP3 AND SWAP2 PUSH0 SWAP2 DUP3 SWAP2 DUP5 SWAP2 PUSH4 0x902F1AC SWAP2 PUSH1 0x4 DUP1 DUP4 ADD SWAP3 PUSH1 0x60 SWAP3 SWAP2 SWAP1 DUP3 SWAP1 SUB ADD DUP2 DUP7 GAS STATICCALL ISZERO DUP1 ISZERO PUSH2 0x2899 JUMPI RETURNDATASIZE PUSH0 PUSH0 RETURNDATACOPY RETURNDATASIZE PUSH0 REVERT JUMPDEST POP POP POP POP PUSH1 0x40 MLOAD RETURNDATASIZE PUSH1 0x1F NOT PUSH1 0x1F DUP3 ADD AND DUP3 ADD DUP1 PUSH1 0x40 MSTORE POP DUP2 ADD SWAP1 PUSH2 0x28BD SWAP2 SWAP1 PUSH2 0x4995 JUMP JUMPDEST POP SWAP2 POP SWAP2 POP DUP2 PUSH1 0x1 PUSH1 0x1 PUSH1 0x70 SHL SUB AND PUSH0 EQ DUP1 ISZERO PUSH2 0x28E1 JUMPI POP PUSH1 0x1 PUSH1 0x1 PUSH1 0x70 SHL SUB DUP2 AND ISZERO JUMPDEST DUP1 ISZERO PUSH2 0x28F6 JUMPI POP PUSH1 0x19 SLOAD PUSH1 0x1 PUSH1 0xA8 SHL SWAP1 DIV PUSH1 0xFF AND JUMPDEST ISZERO PUSH2 0x291C JUMPI PUSH1 0x19 DUP1 SLOAD PUSH1 0xFF PUSH1 0xA8 SHL NOT AND SWAP1 SSTORE PUSH2 0x2913 DUP8 DUP8 DUP8 PUSH2 0x1BA4 JUMP JUMPDEST POP POP POP POP POP POP POP JUMP JUMPDEST POP POP POP JUMPDEST PUSH2 0x292B PUSH1 0xA TIMESTAMP PUSH2 0x4689 JUMP JUMPDEST ORIGIN PUSH0 SWAP1 DUP2 MSTORE PUSH1 0x9 PUSH1 0x20 MSTORE PUSH1 0x40 SWAP1 KECCAK256 SLOAD LT PUSH2 0x296C JUMPI PUSH1 0x40 MLOAD PUSH3 0x461BCD PUSH1 0xE5 SHL DUP2 MSTORE PUSH1 0x20 PUSH1 0x4 DUP3 ADD MSTORE PUSH1 0x2 PUSH1 0x24 DUP3 ADD MSTORE PUSH2 0x18D9 PUSH1 0xF2 SHL PUSH1 0x44 DUP3 ADD MSTORE PUSH1 0x64 ADD PUSH2 0x1B65 JUMP JUMPDEST PUSH0 PUSH2 0x2976 DUP4 PUSH2 0x353F JUMP JUMPDEST GT PUSH2 0x2B78 JUMPI TIMESTAMP PUSH1 0x15 SLOAD LT PUSH2 0x299C JUMPI PUSH1 0x40 MLOAD PUSH3 0x461BCD PUSH1 0xE5 SHL DUP2 MSTORE PUSH1 0x4 ADD PUSH2 0x1B65 SWAP1 PUSH2 0x4A5A JUMP JUMPDEST PUSH1 0x64 PUSH2 0x29A6 PUSH2 0x1628 JUMP JUMPDEST PUSH2 0x29B1 SWAP1 PUSH1 0xA PUSH2 0x464B JUMP JUMPDEST PUSH2 0x29BB SWAP2 SWAP1 PUSH2 0x4676 JUMP JUMPDEST DUP3 LT PUSH2 0x29F5 JUMPI PUSH1 0x40 MLOAD PUSH3 0x461BCD PUSH1 0xE5 SHL DUP2 MSTORE PUSH1 0x20 PUSH1 0x4 DUP3 ADD MSTORE PUSH1 0x9 PUSH1 0x24 DUP3 ADD MSTORE PUSH9 0x36B0BC103A37B5B2B7 PUSH1 0xB9 SHL PUSH1 0x44 DUP3 ADD MSTORE PUSH1 0x64 ADD PUSH2 0x1B65 JUMP JUMPDEST PUSH2 0x29FD PUSH2 0x32E0 JUMP JUMPDEST PUSH1 0x1C SLOAD PUSH0 SWAP1 PUSH1 0xFF AND PUSH2 0x2A11 JUMPI PUSH2 0x12C PUSH2 0x2A15 JUMP JUMPDEST PUSH2 0xB54 JUMPDEST PUSH2 0xFFFF AND SWAP1 POP PUSH0 PUSH2 0x2710 PUSH2 0x2A29 DUP4 DUP7 PUSH2 0x464B JUMP JUMPDEST PUSH2 0x2A33 SWAP2 SWAP1 PUSH2 0x4676 JUMP JUMPDEST SWAP1 POP PUSH0 PUSH2 0x2710 PUSH2 0x2A45 DUP7 PUSH2 0x12C PUSH2 0x464B JUMP JUMPDEST PUSH2 0x2A4F SWAP2 SWAP1 PUSH2 0x4676 JUMP JUMPDEST PUSH1 0x1C SLOAD SWAP1 SWAP2 POP PUSH0 SWAP1 PUSH1 0xFF AND DUP1 ISZERO PUSH2 0x2A65 JUMPI POP DUP2 DUP4 GT JUMPDEST ISZERO PUSH2 0x2AB5 JUMPI PUSH2 0x2A74 DUP3 DUP5 PUSH2 0x4689 JUMP JUMPDEST SWAP1 POP PUSH0 PUSH2 0x2A82 PUSH1 0x2 DUP4 PUSH2 0x4676 JUMP JUMPDEST SWAP1 POP PUSH2 0x2A8F DUP10 ADDRESS DUP4 PUSH2 0x1BA4 JUMP JUMPDEST PUSH2 0x2A99 DUP2 DUP4 PUSH2 0x4689 JUMP JUMPDEST PUSH1 0x12 PUSH0 DUP3 DUP3 SLOAD PUSH2 0x2AA9 SWAP2 SWAP1 PUSH2 0x4638 JUMP JUMPDEST SWAP3 POP POP DUP2 SWAP1 SSTORE POP DUP3 SWAP4 POP POP JUMPDEST PUSH0 PUSH1 0xA PUSH2 0x2AC3 DUP6 PUSH1 0x7 PUSH2 0x464B JUMP JUMPDEST PUSH2 0x2ACD SWAP2 SWAP1 PUSH2 0x4676 JUMP JUMPDEST SWAP1 POP DUP1 PUSH1 0x12 PUSH0 DUP3 DUP3 SLOAD PUSH2 0x2AE0 SWAP2 SWAP1 PUSH2 0x4638 JUMP JUMPDEST SWAP1 SWAP2 SSTORE POP PUSH0 SWAP1 POP PUSH1 0xA PUSH2 0x2AF4 DUP7 PUSH1 0x1 PUSH2 0x464B JUMP JUMPDEST PUSH2 0x2AFE SWAP2 SWAP1 PUSH2 0x4676 JUMP JUMPDEST SWAP1 POP PUSH2 0x2B0D DUP11 PUSH2 0xDEAD DUP4 PUSH2 0x1BA4 JUMP JUMPDEST PUSH0 DUP2 PUSH2 0x2B19 DUP5 DUP9 PUSH2 0x4689 JUMP JUMPDEST PUSH2 0x2B23 SWAP2 SWAP1 PUSH2 0x4689 JUMP JUMPDEST SWAP1 POP DUP1 PUSH1 0x13 PUSH0 DUP3 DUP3 SLOAD PUSH2 0x2B36 SWAP2 SWAP1 PUSH2 0x4638 JUMP JUMPDEST SWAP1 SWAP2 SSTORE POP PUSH2 0x2B47 SWAP1 POP DUP12 ADDRESS DUP6 PUSH2 0x1BA4 JUMP JUMPDEST PUSH2 0x2B52 DUP12 ADDRESS DUP4 PUSH2 0x1BA4 JUMP JUMPDEST PUSH2 0x2B5C DUP5 DUP8 PUSH2 0x4638 JUMP JUMPDEST PUSH2 0x2B66 SWAP1 DUP11 PUSH2 0x4689 JUMP JUMPDEST SWAP9 POP PUSH2 0x2B70 PUSH2 0x3754 JUMP JUMPDEST POP POP POP POP POP POP POP JUMPDEST PUSH2 0x24C0 PUSH2 0x1354 JUMP JUMPDEST PUSH1 0x60 DUP2 PUSH0 ADD DUP1 SLOAD DUP1 PUSH1 0x20 MUL PUSH1 0x20 ADD PUSH1 0x40 MLOAD SWAP1 DUP2 ADD PUSH1 0x40 MSTORE DUP1 SWAP3 SWAP2 SWAP1 DUP2 DUP2 MSTORE PUSH1 0x20 ADD DUP3 DUP1 SLOAD DUP1 ISZERO PUSH2 0x2BCD JUMPI PUSH1 0x20 MUL DUP3 ADD SWAP2 SWAP1 PUSH0 MSTORE PUSH1 0x20 PUSH0 KECCAK256 SWAP1 JUMPDEST DUP2 SLOAD DUP2 MSTORE PUSH1 0x20 ADD SWAP1 PUSH1 0x1 ADD SWAP1 DUP1 DUP4 GT PUSH2 0x2BB9 JUMPI JUMPDEST POP POP POP POP POP SWAP1 POP SWAP2 SWAP1 POP JUMP JUMPDEST PUSH0 PUSH2 0x1DE8 DUP4 PUSH1 0x1 PUSH1 0x1 PUSH1 0xA0 SHL SUB DUP5 AND PUSH2 0x39CB JUMP JUMPDEST PUSH0 PUSH2 0x2BF9 PUSH1 0xA DUP4 PUSH2 0x4A7D JUMP JUMPDEST SWAP1 POP PUSH0 PUSH2 0x2C07 PUSH1 0x2 DUP4 PUSH2 0x4A7D JUMP JUMPDEST ISZERO SWAP1 POP PUSH0 PUSH2 0x2C16 PUSH1 0x1 NUMBER PUSH2 0x4689 JUMP JUMPDEST BLOCKHASH SWAP1 POP DUP1 PUSH2 0x2C2D JUMPI PUSH2 0x2C29 PUSH1 0x2 NUMBER PUSH2 0x4689 JUMP JUMPDEST BLOCKHASH SWAP1 POP JUMPDEST PUSH1 0xFF DUP2 AND PUSH0 PUSH2 0x2C3D PUSH1 0xA DUP4 PUSH2 0x4A90 JUMP JUMPDEST SWAP1 POP PUSH0 PUSH2 0x2C4B PUSH1 0x2 DUP4 PUSH2 0x4A90 JUMP JUMPDEST PUSH1 0xFF AND ISZERO SWAP1 POP DUP5 ISZERO ISZERO DUP2 EQ PUSH0 PUSH2 0x2C62 DUP10 PUSH1 0x2 PUSH2 0x464B JUMP JUMPDEST SWAP1 POP PUSH0 PUSH1 0x64 PUSH2 0x2C72 DUP12 PUSH1 0x5 PUSH2 0x464B JUMP JUMPDEST PUSH2 0x2C7C SWAP2 SWAP1 PUSH2 0x4676 JUMP JUMPDEST SWAP1 POP PUSH0 PUSH2 0x2C89 DUP3 DUP13 PUSH2 0x4689 JUMP JUMPDEST PUSH1 0xF SLOAD SWAP1 SWAP2 POP PUSH1 0x1 PUSH1 0x1 PUSH1 0xA0 SHL SUB AND ISZERO DUP1 ISZERO SWAP1 PUSH2 0x2CA5 JUMPI POP PUSH0 DUP3 GT JUMPDEST ISZERO PUSH2 0x2CC2 JUMPI PUSH1 0xF SLOAD PUSH2 0x2CC2 SWAP1 DUP14 SWAP1 PUSH1 0x1 PUSH1 0x1 PUSH1 0xA0 SHL SUB AND DUP5 PUSH2 0x1BA4 JUMP JUMPDEST PUSH2 0x2CCD DUP13 ADDRESS DUP4 PUSH2 0x1BA4 JUMP JUMPDEST DUP4 ISZERO PUSH2 0x2DCB JUMPI ADDRESS PUSH0 SWAP1 DUP2 MSTORE PUSH1 0x20 DUP2 SWAP1 MSTORE PUSH1 0x40 SWAP1 KECCAK256 SLOAD DUP4 DUP2 LT PUSH2 0x2D49 JUMPI PUSH2 0x2CF4 ADDRESS DUP15 DUP7 PUSH2 0x1BA4 JUMP JUMPDEST PUSH1 0x1 ISZERO ISZERO DUP14 PUSH1 0x1 PUSH1 0x1 PUSH1 0xA0 SHL SUB AND PUSH32 0x4DAB1356CD0582FEB480A4C99E95BB70C5D60B9B3F27D2CD27F5CCC64E6583E0 DUP15 DUP8 PUSH1 0x40 MLOAD PUSH2 0x2D3C SWAP3 SWAP2 SWAP1 SWAP2 DUP3 MSTORE PUSH1 0x20 DUP3 ADD MSTORE PUSH1 0x40 ADD SWAP1 JUMP JUMPDEST PUSH1 0x40 MLOAD DUP1 SWAP2 SUB SWAP1 LOG3 PUSH2 0x2DC5 JUMP JUMPDEST DUP1 ISZERO PUSH2 0x2D5A JUMPI PUSH2 0x2D5A ADDRESS DUP15 DUP4 PUSH2 0x1BA4 JUMP JUMPDEST PUSH1 0x1 PUSH1 0x1E PUSH0 PUSH2 0x100 EXP DUP2 SLOAD DUP2 PUSH1 0xFF MUL NOT AND SWAP1 DUP4 ISZERO ISZERO MUL OR SWAP1 SSTORE POP PUSH1 0x1 ISZERO ISZERO DUP14 PUSH1 0x1 PUSH1 0x1 PUSH1 0xA0 SHL SUB AND PUSH32 0x4DAB1356CD0582FEB480A4C99E95BB70C5D60B9B3F27D2CD27F5CCC64E6583E0 DUP15 DUP5 PUSH1 0x40 MLOAD PUSH2 0x2DBC SWAP3 SWAP2 SWAP1 SWAP2 DUP3 MSTORE PUSH1 0x20 DUP3 ADD MSTORE PUSH1 0x40 ADD SWAP1 JUMP JUMPDEST PUSH1 0x40 MLOAD DUP1 SWAP2 SUB SWAP1 LOG3 JUMPDEST POP PUSH2 0x2E12 JUMP JUMPDEST PUSH1 0x40 DUP1 MLOAD DUP13 DUP2 MSTORE PUSH0 PUSH1 0x20 DUP3 ADD DUP2 SWAP1 MSTORE SWAP2 PUSH1 0x1 PUSH1 0x1 PUSH1 0xA0 SHL SUB DUP16 AND SWAP2 PUSH32 0x4DAB1356CD0582FEB480A4C99E95BB70C5D60B9B3F27D2CD27F5CCC64E6583E0 SWAP2 ADD PUSH1 0x40 MLOAD DUP1 SWAP2 SUB SWAP1 LOG3 JUMPDEST POP POP POP POP POP POP POP POP POP POP POP POP JUMP JUMPDEST PUSH1 0x1 PUSH1 0x1 PUSH1 0xA0 SHL SUB DUP1 DUP3 AND PUSH0 SWAP1 DUP2 MSTORE PUSH1 0xA PUSH1 0x20 SWAP1 DUP2 MSTORE PUSH1 0x40 SWAP2 DUP3 SWAP1 KECCAK256 DUP3 MLOAD PUSH2 0x160 DUP2 ADD DUP5 MSTORE DUP2 SLOAD SWAP1 SWAP5 AND DUP5 MSTORE PUSH1 0x1 DUP2 ADD SLOAD SWAP2 DUP5 ADD SWAP2 SWAP1 SWAP2 MSTORE PUSH1 0x2 DUP2 ADD SLOAD SWAP2 DUP4 ADD SWAP2 SWAP1 SWAP2 MSTORE PUSH1 0x3 DUP2 ADD SLOAD PUSH1 0x60 DUP4 ADD MSTORE PUSH1 0x4 DUP2 ADD SLOAD PUSH1 0x80 DUP4 ADD MSTORE PUSH1 0x5 DUP2 ADD SLOAD PUSH1 0xA0 DUP4 ADD MSTORE PUSH1 0x6 DUP2 ADD SLOAD PUSH1 0xC0 DUP4 ADD MSTORE PUSH1 0x7 DUP2 ADD SLOAD PUSH1 0xE0 DUP4 ADD MSTORE PUSH1 0x8 DUP2 ADD SLOAD PUSH2 0x100 DUP1 DUP5 ADD SWAP2 SWAP1 SWAP2 MSTORE PUSH1 0x9 SWAP1 SWAP2 ADD SLOAD PUSH1 0xFF DUP1 DUP3 AND ISZERO ISZERO PUSH2 0x120 DUP6 ADD MSTORE SWAP2 SWAP1 DIV AND ISZERO DUP1 ISZERO PUSH2 0x140 DUP4 ADD DUP2 SWAP1 MSTORE SWAP1 PUSH2 0x2ED4 JUMPI POP DUP1 PUSH2 0x120 ADD MLOAD JUMPDEST PUSH2 0x2F20 JUMPI PUSH1 0x40 MLOAD PUSH3 0x461BCD PUSH1 0xE5 SHL DUP2 MSTORE PUSH1 0x20 PUSH1 0x4 DUP3 ADD MSTORE PUSH1 0x1B PUSH1 0x24 DUP3 ADD MSTORE PUSH32 0x53746174696320726577617264206E6F7420617661696C61626C650000000000 PUSH1 0x44 DUP3 ADD MSTORE PUSH1 0x64 ADD PUSH2 0x1B65 JUMP JUMPDEST PUSH0 PUSH2 0x2F2A DUP4 PUSH2 0x190D JUMP JUMPDEST SWAP1 POP PUSH0 DUP2 GT PUSH2 0x2F67 JUMPI PUSH1 0x40 MLOAD PUSH3 0x461BCD PUSH1 0xE5 SHL DUP2 MSTORE PUSH1 0x20 PUSH1 0x4 DUP3 ADD MSTORE PUSH1 0x9 PUSH1 0x24 DUP3 ADD MSTORE PUSH9 0x139BC81C995DD85C99 PUSH1 0xBA SHL PUSH1 0x44 DUP3 ADD MSTORE PUSH1 0x64 ADD PUSH2 0x1B65 JUMP JUMPDEST PUSH0 PUSH0 PUSH0 PUSH0 PUSH2 0x2F73 PUSH2 0x1506 JUMP JUMPDEST PUSH1 0x20 DUP11 ADD MLOAD SWAP4 SWAP8 POP SWAP2 SWAP6 POP SWAP4 POP SWAP2 POP PUSH0 PUSH3 0x186A0 PUSH2 0x2F91 DUP5 DUP5 PUSH2 0x464B JUMP JUMPDEST PUSH2 0x2F9B SWAP2 SWAP1 PUSH2 0x4676 JUMP JUMPDEST PUSH3 0x186A0 PUSH2 0x2FA9 DUP7 DUP6 PUSH2 0x464B JUMP JUMPDEST PUSH2 0x2FB3 SWAP2 SWAP1 PUSH2 0x4676 JUMP JUMPDEST PUSH3 0x186A0 PUSH2 0x2FC1 DUP9 DUP7 PUSH2 0x464B JUMP JUMPDEST PUSH2 0x2FCB SWAP2 SWAP1 PUSH2 0x4676 JUMP JUMPDEST PUSH2 0x2FD5 SWAP1 DUP11 PUSH2 0x4638 JUMP JUMPDEST PUSH2 0x2FDF SWAP2 SWAP1 PUSH2 0x4638 JUMP JUMPDEST PUSH2 0x2FE9 SWAP2 SWAP1 PUSH2 0x4638 JUMP JUMPDEST SWAP1 POP PUSH0 PUSH2 0x2FF5 DUP3 PUSH2 0x3A17 JUMP JUMPDEST SWAP1 POP PUSH2 0x3003 DUP11 DUP10 DUP5 DUP5 PUSH2 0x3B53 JUMP JUMPDEST PUSH0 DUP3 PUSH3 0x186A0 PUSH2 0x3013 DUP9 DUP8 PUSH2 0x464B JUMP JUMPDEST PUSH2 0x301D SWAP2 SWAP1 PUSH2 0x4676 JUMP JUMPDEST PUSH2 0x3027 SWAP1 DUP5 PUSH2 0x464B JUMP JUMPDEST PUSH2 0x3031 SWAP2 SWAP1 PUSH2 0x4676 JUMP JUMPDEST SWAP1 POP DUP1 ISZERO PUSH2 0x3042 JUMPI PUSH2 0x3042 DUP2 PUSH2 0x3C40 JUMP JUMPDEST PUSH0 DUP4 PUSH3 0x186A0 PUSH2 0x3052 DUP9 DUP9 PUSH2 0x464B JUMP JUMPDEST PUSH2 0x305C SWAP2 SWAP1 PUSH2 0x4676 JUMP JUMPDEST PUSH2 0x3066 SWAP1 DUP6 PUSH2 0x464B JUMP JUMPDEST PUSH2 0x3070 SWAP2 SWAP1 PUSH2 0x4676 JUMP JUMPDEST SWAP1 POP DUP1 ISZERO PUSH2 0x30F0 JUMPI PUSH1 0x6 SLOAD PUSH1 0x18 SLOAD PUSH1 0x40 MLOAD PUSH4 0xA9059CBB PUSH1 0xE0 SHL DUP2 MSTORE PUSH1 0x1 PUSH1 0x1 PUSH1 0xA0 SHL SUB SWAP3 DUP4 AND SWAP3 PUSH4 0xA9059CBB SWAP3 PUSH2 0x30AE SWAP3 SWAP2 AND SWAP1 DUP6 SWAP1 PUSH1 0x4 ADD PUSH2 0x4A08 JUMP JUMPDEST PUSH1 0x20 PUSH1 0x40 MLOAD DUP1 DUP4 SUB DUP2 PUSH0 DUP8 GAS CALL ISZERO DUP1 ISZERO PUSH2 0x30CA JUMPI RETURNDATASIZE PUSH0 PUSH0 RETURNDATACOPY RETURNDATASIZE PUSH0 REVERT JUMPDEST POP POP POP POP PUSH1 0x40 MLOAD RETURNDATASIZE PUSH1 0x1F NOT PUSH1 0x1F DUP3 ADD AND DUP3 ADD DUP1 PUSH1 0x40 MSTORE POP DUP2 ADD SWAP1 PUSH2 0x30EE SWAP2 SWAP1 PUSH2 0x4A21 JUMP JUMPDEST POP JUMPDEST PUSH1 0x1 PUSH1 0x1 PUSH1 0xA0 SHL SUB DUP13 AND PUSH0 SWAP1 DUP2 MSTORE PUSH1 0xA PUSH1 0x20 MSTORE PUSH1 0x40 DUP2 KECCAK256 PUSH1 0x8 ADD DUP1 SLOAD DUP13 SWAP3 SWAP1 PUSH2 0x311A SWAP1 DUP5 SWAP1 PUSH2 0x4638 JUMP JUMPDEST SWAP1 SWAP2 SSTORE POP POP POP PUSH1 0x1 PUSH1 0x1 PUSH1 0xA0 SHL SUB SWAP1 SWAP11 AND PUSH0 SWAP1 DUP2 MSTORE PUSH1 0xA PUSH1 0x20 MSTORE PUSH1 0x40 SWAP1 KECCAK256 TIMESTAMP PUSH1 0x4 SWAP1 SWAP2 ADD SSTORE POP POP POP POP POP POP POP POP POP POP JUMP JUMPDEST PUSH0 PUSH0 PUSH1 0x6 PUSH0 SWAP1 SLOAD SWAP1 PUSH2 0x100 EXP SWAP1 DIV PUSH1 0x1 PUSH1 0x1 PUSH1 0xA0 SHL SUB AND PUSH1 0x1 PUSH1 0x1 PUSH1 0xA0 SHL SUB AND PUSH4 0x902F1AC PUSH1 0x40 MLOAD DUP2 PUSH4 0xFFFFFFFF AND PUSH1 0xE0 SHL DUP2 MSTORE PUSH1 0x4 ADD PUSH1 0x60 PUSH1 0x40 MLOAD DUP1 DUP4 SUB DUP2 DUP7 GAS STATICCALL ISZERO DUP1 ISZERO PUSH2 0x319D JUMPI RETURNDATASIZE PUSH0 PUSH0 RETURNDATACOPY RETURNDATASIZE PUSH0 REVERT JUMPDEST POP POP POP POP PUSH1 0x40 MLOAD RETURNDATASIZE PUSH1 0x1F NOT PUSH1 0x1F DUP3 ADD AND DUP3 ADD DUP1 PUSH1 0x40 MSTORE POP DUP2 ADD SWAP1 PUSH2 0x31C1 SWAP2 SWAP1 PUSH2 0x4995 JUMP JUMPDEST POP POP PUSH1 0xB SLOAD PUSH1 0x6 SLOAD PUSH1 0x40 MLOAD PUSH4 0x70A08231 PUSH1 0xE0 SHL DUP2 MSTORE PUSH1 0x1 PUSH1 0x1 PUSH1 0xA0 SHL SUB SWAP2 DUP3 AND PUSH1 0x4 DUP3 ADD MSTORE PUSH1 0x1 PUSH1 0x1 PUSH1 0x70 SHL SUB SWAP4 SWAP1 SWAP4 AND SWAP4 POP PUSH0 SWAP3 SWAP2 AND SWAP1 PUSH4 0x70A08231 SWAP1 PUSH1 0x24 ADD PUSH1 0x20 PUSH1 0x40 MLOAD DUP1 DUP4 SUB DUP2 DUP7 GAS STATICCALL ISZERO DUP1 ISZERO PUSH2 0x321D JUMPI RETURNDATASIZE PUSH0 PUSH0 RETURNDATACOPY RETURNDATASIZE PUSH0 REVERT JUMPDEST POP POP POP POP PUSH1 0x40 MLOAD RETURNDATASIZE PUSH1 0x1F NOT PUSH1 0x1F DUP3 ADD AND DUP3 ADD DUP1 PUSH1 0x40 MSTORE POP DUP2 ADD SWAP1 PUSH2 0x3241 SWAP2 SWAP1 PUSH2 0x49F1 JUMP JUMPDEST SWAP1 POP DUP1 DUP3 GT ISZERO PUSH2 0x32DB JUMPI PUSH1 0x6 SLOAD PUSH1 0x40 DUP1 MLOAD PUSH4 0x18160DDD PUSH1 0xE0 SHL DUP2 MSTORE SWAP1 MLOAD PUSH0 SWAP3 PUSH1 0x1 PUSH1 0x1 PUSH1 0xA0 SHL SUB AND SWAP2 PUSH4 0x18160DDD SWAP2 PUSH1 0x4 DUP1 DUP4 ADD SWAP3 PUSH1 0x20 SWAP3 SWAP2 SWAP1 DUP3 SWAP1 SUB ADD DUP2 DUP7 GAS STATICCALL ISZERO DUP1 ISZERO PUSH2 0x3292 JUMPI RETURNDATASIZE PUSH0 PUSH0 RETURNDATACOPY RETURNDATASIZE PUSH0 REVERT JUMPDEST POP POP POP POP PUSH1 0x40 MLOAD RETURNDATASIZE PUSH1 0x1F NOT PUSH1 0x1F DUP3 ADD AND DUP3 ADD DUP1 PUSH1 0x40 MSTORE POP DUP2 ADD SWAP1 PUSH2 0x32B6 SWAP2 SWAP1 PUSH2 0x49F1 JUMP JUMPDEST SWAP1 POP DUP2 PUSH2 0x32C3 DUP2 DUP6 PUSH2 0x4689 JUMP JUMPDEST PUSH2 0x32CD SWAP1 DUP4 PUSH2 0x464B JUMP JUMPDEST PUSH2 0x32D7 SWAP2 SWAP1 PUSH2 0x4676 JUMP JUMPDEST SWAP4 POP POP JUMPDEST POP POP SWAP1 JUMP JUMPDEST PUSH1 0x6 SLOAD PUSH1 0x40 DUP1 MLOAD PUSH4 0x240BC6B PUSH1 0xE2 SHL DUP2 MSTORE SWAP1 MLOAD PUSH1 0x1 PUSH1 0x1 PUSH1 0xA0 SHL SUB SWAP1 SWAP3 AND SWAP2 PUSH0 SWAP2 DUP3 SWAP2 DUP5 SWAP2 PUSH4 0x902F1AC SWAP2 PUSH1 0x4 DUP1 DUP4 ADD SWAP3 PUSH1 0x60 SWAP3 SWAP2 SWAP1 DUP3 SWAP1 SUB ADD DUP2 DUP7 GAS STATICCALL ISZERO DUP1 ISZERO PUSH2 0x332D JUMPI RETURNDATASIZE PUSH0 PUSH0 RETURNDATACOPY RETURNDATASIZE PUSH0 REVERT JUMPDEST POP POP POP POP PUSH1 0x40 MLOAD RETURNDATASIZE PUSH1 0x1F NOT PUSH1 0x1F DUP3 ADD AND DUP3 ADD DUP1 PUSH1 0x40 MSTORE POP DUP2 ADD SWAP1 PUSH2 0x3351 SWAP2 SWAP1 PUSH2 0x4995 JUMP JUMPDEST POP SWAP2 POP SWAP2 POP DUP2 PUSH1 0x1 PUSH1 0x1 PUSH1 0x70 SHL SUB AND PUSH0 EQ DUP1 PUSH2 0x3374 JUMPI POP PUSH1 0x1 PUSH1 0x1 PUSH1 0x70 SHL SUB DUP2 AND ISZERO JUMPDEST ISZERO PUSH2 0x337E JUMPI POP POP POP JUMP JUMPDEST PUSH0 DUP4 PUSH1 0x1 PUSH1 0x1 PUSH1 0xA0 SHL SUB AND PUSH4 0xDFE1681 PUSH1 0x40 MLOAD DUP2 PUSH4 0xFFFFFFFF AND PUSH1 0xE0 SHL DUP2 MSTORE PUSH1 0x4 ADD PUSH1 0x20 PUSH1 0x40 MLOAD DUP1 DUP4 SUB DUP2 DUP7 GAS STATICCALL ISZERO DUP1 ISZERO PUSH2 0x33BB JUMPI RETURNDATASIZE PUSH0 PUSH0 RETURNDATACOPY RETURNDATASIZE PUSH0 REVERT JUMPDEST POP POP POP POP PUSH1 0x40 MLOAD RETURNDATASIZE PUSH1 0x1F NOT PUSH1 0x1F DUP3 ADD AND DUP3 ADD DUP1 PUSH1 0x40 MSTORE POP DUP2 ADD SWAP1 PUSH2 0x33DF SWAP2 SWAP1 PUSH2 0x49D6 JUMP JUMPDEST SWAP1 POP PUSH0 PUSH1 0x1 PUSH1 0x1 PUSH1 0xA0 SHL SUB DUP3 AND ADDRESS EQ PUSH2 0x33F8 JUMPI DUP3 PUSH2 0x33FA JUMP JUMPDEST DUP4 JUMPDEST PUSH1 0x1 PUSH1 0x1 PUSH1 0x70 SHL SUB AND SWAP1 POP PUSH0 PUSH1 0x1 PUSH1 0x1 PUSH1 0xA0 SHL SUB DUP4 AND ADDRESS EQ PUSH2 0x341C JUMPI DUP5 PUSH2 0x341E JUMP JUMPDEST DUP4 JUMPDEST PUSH1 0x1 PUSH1 0x1 PUSH1 0x70 SHL SUB AND SWAP1 POP DUP1 PUSH0 SUB PUSH2 0x3438 JUMPI POP POP POP POP POP POP JUMP JUMPDEST PUSH0 DUP3 PUSH2 0x344C DUP4 PUSH8 0xDE0B6B3A7640000 PUSH2 0x464B JUMP JUMPDEST PUSH2 0x3456 SWAP2 SWAP1 PUSH2 0x4676 JUMP JUMPDEST SWAP1 POP PUSH0 PUSH2 0x3466 PUSH3 0x15180 TIMESTAMP PUSH2 0x4676 JUMP JUMPDEST SWAP1 POP PUSH1 0x1A SLOAD DUP2 GT ISZERO PUSH2 0x3535 JUMPI PUSH0 PUSH1 0x1B SLOAD GT DUP1 ISZERO PUSH2 0x349C JUMPI POP PUSH1 0x64 PUSH1 0x1B SLOAD PUSH1 0x5C PUSH2 0x348F SWAP2 SWAP1 PUSH2 0x464B JUMP JUMPDEST PUSH2 0x3499 SWAP2 SWAP1 PUSH2 0x4676 JUMP JUMPDEST DUP3 LT JUMPDEST ISZERO PUSH2 0x351F JUMPI PUSH1 0x1C DUP1 SLOAD PUSH1 0xFF NOT AND PUSH1 0x1 OR SWAP1 SSTORE PUSH1 0x1B SLOAD PUSH32 0xE9560271FF9C39B91BAAAAFEBB009E70AD170A54AB31A72F4B884680B076682 SWAP1 DUP3 SWAP1 PUSH2 0x34DF JUMPI PUSH0 PUSH2 0x3502 JUMP JUMPDEST PUSH1 0x1B SLOAD PUSH2 0x34EC DUP6 DUP3 PUSH2 0x4689 JUMP JUMPDEST PUSH2 0x34F8 SWAP1 PUSH2 0x2710 PUSH2 0x464B JUMP JUMPDEST PUSH2 0x3502 SWAP2 SWAP1 PUSH2 0x4676 JUMP JUMPDEST PUSH1 0x40 DUP1 MLOAD SWAP3 DUP4 MSTORE PUSH1 0x20 DUP4 ADD SWAP2 SWAP1 SWAP2 MSTORE ADD PUSH1 0x40 MLOAD DUP1 SWAP2 SUB SWAP1 LOG1 PUSH2 0x352A JUMP JUMPDEST PUSH1 0x1C DUP1 SLOAD PUSH1 0xFF NOT AND SWAP1 SSTORE JUMPDEST PUSH1 0x1B DUP3 SWAP1 SSTORE PUSH1 0x1A DUP2 SWAP1 SSTORE JUMPDEST POP POP POP POP POP POP POP POP JUMP JUMPDEST PUSH0 PUSH1 0x1 PUSH1 0x1 PUSH1 0xA0 SHL SUB PUSH32 0x0 AND CALLER SUB PUSH2 0x374F JUMPI PUSH0 PUSH0 PUSH1 0x6 PUSH0 SWAP1 SLOAD SWAP1 PUSH2 0x100 EXP SWAP1 DIV PUSH1 0x1 PUSH1 0x1 PUSH1 0xA0 SHL SUB AND PUSH1 0x1 PUSH1 0x1 PUSH1 0xA0 SHL SUB AND PUSH4 0x902F1AC PUSH1 0x40 MLOAD DUP2 PUSH4 0xFFFFFFFF AND PUSH1 0xE0 SHL DUP2 MSTORE PUSH1 0x4 ADD PUSH1 0x60 PUSH1 0x40 MLOAD DUP1 DUP4 SUB DUP2 DUP7 GAS STATICCALL ISZERO DUP1 ISZERO PUSH2 0x35C2 JUMPI RETURNDATASIZE PUSH0 PUSH0 RETURNDATACOPY RETURNDATASIZE PUSH0 REVERT JUMPDEST POP POP POP POP PUSH1 0x40 MLOAD RETURNDATASIZE PUSH1 0x1F NOT PUSH1 0x1F DUP3 ADD AND DUP3 ADD DUP1 PUSH1 0x40 MSTORE POP DUP2 ADD SWAP1 PUSH2 0x35E6 SWAP2 SWAP1 PUSH2 0x4995 JUMP JUMPDEST POP PUSH1 0xB SLOAD PUSH1 0x6 SLOAD PUSH1 0x40 MLOAD PUSH4 0x70A08231 PUSH1 0xE0 SHL DUP2 MSTORE PUSH1 0x1 PUSH1 0x1 PUSH1 0xA0 SHL SUB SWAP2 DUP3 AND PUSH1 0x4 DUP3 ADD MSTORE PUSH1 0x1 PUSH1 0x1 PUSH1 0x70 SHL SUB SWAP5 DUP6 AND SWAP7 POP SWAP3 SWAP1 SWAP4 AND SWAP4 POP PUSH0 SWAP3 AND SWAP1 PUSH4 0x70A08231 SWAP1 PUSH1 0x24 ADD PUSH1 0x20 PUSH1 0x40 MLOAD DUP1 DUP4 SUB DUP2 DUP7 GAS STATICCALL ISZERO DUP1 ISZERO PUSH2 0x3645 JUMPI RETURNDATASIZE PUSH0 PUSH0 RETURNDATACOPY RETURNDATASIZE PUSH0 REVERT JUMPDEST POP POP POP POP PUSH1 0x40 MLOAD RETURNDATASIZE PUSH1 0x1F NOT PUSH1 0x1F DUP3 ADD AND DUP3 ADD DUP1 PUSH1 0x40 MSTORE POP DUP2 ADD SWAP1 PUSH2 0x3669 SWAP2 SWAP1 PUSH2 0x49F1 JUMP JUMPDEST SWAP1 POP DUP3 DUP2 GT ISZERO PUSH2 0x374B JUMPI PUSH1 0x6 SLOAD PUSH1 0x40 DUP1 MLOAD PUSH4 0x18160DDD PUSH1 0xE0 SHL DUP2 MSTORE SWAP1 MLOAD PUSH0 SWAP3 PUSH1 0x1 PUSH1 0x1 PUSH1 0xA0 SHL SUB AND SWAP2 PUSH4 0x18160DDD SWAP2 PUSH1 0x4 DUP1 DUP4 ADD SWAP3 PUSH1 0x20 SWAP3 SWAP2 SWAP1 DUP3 SWAP1 SUB ADD DUP2 DUP7 GAS STATICCALL ISZERO DUP1 ISZERO PUSH2 0x36BA JUMPI RETURNDATASIZE PUSH0 PUSH0 RETURNDATACOPY RETURNDATASIZE PUSH0 REVERT JUMPDEST POP POP POP POP PUSH1 0x40 MLOAD RETURNDATASIZE PUSH1 0x1F NOT PUSH1 0x1F DUP3 ADD AND DUP3 ADD DUP1 PUSH1 0x40 MSTORE POP DUP2 ADD SWAP1 PUSH2 0x36DE SWAP2 SWAP1 PUSH2 0x49F1 JUMP JUMPDEST SWAP1 POP DUP1 PUSH0 SUB PUSH2 0x36F3 JUMPI POP PUSH1 0x1 SWAP6 SWAP5 POP POP POP POP POP JUMP JUMPDEST PUSH2 0x36FE DUP2 DUP4 DUP6 PUSH2 0x3E95 JUMP JUMPDEST PUSH2 0x3708 SWAP1 DUP3 PUSH2 0x4638 JUMP JUMPDEST SWAP1 POP PUSH2 0x3747 DUP5 DUP3 PUSH2 0x3719 DUP3 DUP7 PUSH2 0x4689 JUMP JUMPDEST PUSH2 0x3723 SWAP2 SWAP1 PUSH2 0x464B JUMP JUMPDEST PUSH2 0x372D SWAP2 SWAP1 PUSH2 0x4676 JUMP JUMPDEST DUP5 PUSH2 0x3738 DUP5 DUP11 PUSH2 0x464B JUMP JUMPDEST PUSH2 0x3742 SWAP2 SWAP1 PUSH2 0x4676 JUMP JUMPDEST PUSH2 0x3F8A JUMP JUMPDEST SWAP5 POP POP JUMPDEST POP POP POP JUMPDEST SWAP2 SWAP1 POP JUMP JUMPDEST PUSH0 PUSH1 0x13 SLOAD PUSH1 0x12 SLOAD PUSH2 0x3765 SWAP2 SWAP1 PUSH2 0x4638 JUMP JUMPDEST SWAP1 POP PUSH8 0xDE0B6B3A7640000 DUP2 LT ISZERO PUSH2 0x377A JUMPI POP JUMP JUMPDEST PUSH2 0x37A5 ADDRESS PUSH32 0x0 DUP4 PUSH2 0x1CCA JUMP JUMPDEST PUSH1 0x40 DUP1 MLOAD PUSH1 0x2 DUP1 DUP3 MSTORE PUSH1 0x60 DUP3 ADD DUP4 MSTORE PUSH0 SWAP3 PUSH1 0x20 DUP4 ADD SWAP1 DUP1 CALLDATASIZE DUP4 CALLDATACOPY ADD SWAP1 POP POP SWAP1 POP ADDRESS DUP2 PUSH0 DUP2 MLOAD DUP2 LT PUSH2 0x37D8 JUMPI PUSH2 0x37D8 PUSH2 0x48DA JUMP JUMPDEST PUSH1 0x1 PUSH1 0x1 PUSH1 0xA0 SHL SUB SWAP3 DUP4 AND PUSH1 0x20 SWAP2 DUP3 MUL SWAP3 SWAP1 SWAP3 ADD ADD MSTORE PUSH1 0xB SLOAD DUP3 MLOAD SWAP2 AND SWAP1 DUP3 SWAP1 PUSH1 0x1 SWAP1 DUP2 LT PUSH2 0x3809 JUMPI PUSH2 0x3809 PUSH2 0x48DA JUMP JUMPDEST PUSH1 0x1 PUSH1 0x1 PUSH1 0xA0 SHL SUB SWAP3 DUP4 AND PUSH1 0x20 SWAP2 DUP3 MUL SWAP3 SWAP1 SWAP3 ADD ADD MSTORE PUSH1 0x40 MLOAD PUSH4 0x791AC947 PUSH1 0xE0 SHL DUP2 MSTORE PUSH32 0x0 SWAP1 SWAP2 AND SWAP1 PUSH4 0x791AC947 SWAP1 PUSH2 0x386D SWAP1 DUP6 SWAP1 PUSH0 SWAP1 DUP7 SWAP1 ADDRESS SWAP1 TIMESTAMP SWAP1 PUSH1 0x4 ADD PUSH2 0x4AB1 JUMP JUMPDEST PUSH0 PUSH1 0x40 MLOAD DUP1 DUP4 SUB DUP2 PUSH0 DUP8 DUP1 EXTCODESIZE ISZERO DUP1 ISZERO PUSH2 0x3884 JUMPI PUSH0 PUSH0 REVERT JUMPDEST POP GAS CALL ISZERO DUP1 ISZERO PUSH2 0x3896 JUMPI RETURNDATASIZE PUSH0 PUSH0 RETURNDATACOPY RETURNDATASIZE PUSH0 REVERT JUMPDEST POP POP PUSH1 0x13 SLOAD SELFBALANCE SWAP3 POP PUSH0 SWAP2 POP DUP5 SWAP1 PUSH2 0x38AD SWAP1 DUP5 PUSH2 0x464B JUMP JUMPDEST PUSH2 0x38B7 SWAP2 SWAP1 PUSH2 0x4676 JUMP JUMPDEST PUSH1 0x19 SLOAD SWAP1 SWAP2 POP PUSH2 0x38D0 SWAP1 PUSH1 0x1 PUSH1 0x1 PUSH1 0xA0 SHL SUB AND DUP3 PUSH2 0x3F9F JUMP JUMPDEST PUSH0 PUSH2 0x38DB DUP3 DUP5 PUSH2 0x4689 JUMP JUMPDEST SWAP1 POP PUSH0 DUP2 GT DUP1 ISZERO PUSH2 0x38F6 JUMPI POP PUSH1 0xF SLOAD PUSH1 0x1 PUSH1 0x1 PUSH1 0xA0 SHL SUB AND ISZERO ISZERO JUMPDEST ISZERO PUSH2 0x3987 JUMPI PUSH1 0xF SLOAD PUSH1 0x40 MLOAD PUSH0 SWAP2 PUSH1 0x1 PUSH1 0x1 PUSH1 0xA0 SHL SUB AND SWAP1 DUP4 SWAP1 DUP4 DUP2 DUP2 DUP2 DUP6 DUP8 GAS CALL SWAP3 POP POP POP RETURNDATASIZE DUP1 PUSH0 DUP2 EQ PUSH2 0x3945 JUMPI PUSH1 0x40 MLOAD SWAP2 POP PUSH1 0x1F NOT PUSH1 0x3F RETURNDATASIZE ADD AND DUP3 ADD PUSH1 0x40 MSTORE RETURNDATASIZE DUP3 MSTORE RETURNDATASIZE PUSH0 PUSH1 0x20 DUP5 ADD RETURNDATACOPY PUSH2 0x394A JUMP JUMPDEST PUSH1 0x60 SWAP2 POP JUMPDEST POP POP SWAP1 POP DUP1 ISZERO DUP1 ISZERO PUSH2 0x3966 JUMPI POP PUSH1 0xC SLOAD PUSH1 0x1 PUSH1 0x1 PUSH1 0xA0 SHL SUB AND ISZERO ISZERO JUMPDEST ISZERO PUSH2 0x3981 JUMPI PUSH1 0xC SLOAD PUSH2 0x3981 SWAP1 PUSH1 0x1 PUSH1 0x1 PUSH1 0xA0 SHL SUB AND DUP4 PUSH2 0x3F9F JUMP JUMPDEST POP PUSH2 0x39BB JUMP JUMPDEST PUSH0 DUP2 GT DUP1 ISZERO PUSH2 0x39A0 JUMPI POP PUSH1 0xC SLOAD PUSH1 0x1 PUSH1 0x1 PUSH1 0xA0 SHL SUB AND ISZERO ISZERO JUMPDEST ISZERO PUSH2 0x39BB JUMPI PUSH1 0xC SLOAD PUSH2 0x39BB SWAP1 PUSH1 0x1 PUSH1 0x1 PUSH1 0xA0 SHL SUB AND DUP3 PUSH2 0x3F9F JUMP JUMPDEST POP POP PUSH0 PUSH1 0x12 DUP2 SWAP1 SSTORE PUSH1 0x13 SSTORE POP POP POP JUMP JUMPDEST PUSH0 DUP2 DUP2 MSTORE PUSH1 0x1 DUP4 ADD PUSH1 0x20 MSTORE PUSH1 0x40 DUP2 KECCAK256 SLOAD PUSH2 0x3A10 JUMPI POP DUP2 SLOAD PUSH1 0x1 DUP2 DUP2 ADD DUP5 SSTORE PUSH0 DUP5 DUP2 MSTORE PUSH1 0x20 DUP1 DUP3 KECCAK256 SWAP1 SWAP4 ADD DUP5 SWAP1 SSTORE DUP5 SLOAD DUP5 DUP3 MSTORE DUP3 DUP7 ADD SWAP1 SWAP4 MSTORE PUSH1 0x40 SWAP1 KECCAK256 SWAP2 SWAP1 SWAP2 SSTORE PUSH2 0x1133 JUMP JUMPDEST POP PUSH0 PUSH2 0x1133 JUMP JUMPDEST PUSH1 0x40 DUP1 MLOAD PUSH1 0x2 DUP1 DUP3 MSTORE PUSH1 0x60 DUP3 ADD DUP4 MSTORE PUSH0 SWAP3 DUP4 SWAP3 SWAP2 SWAP1 PUSH1 0x20 DUP4 ADD SWAP1 DUP1 CALLDATASIZE DUP4 CALLDATACOPY POP POP PUSH1 0xB SLOAD DUP3 MLOAD SWAP3 SWAP4 POP PUSH1 0x1 PUSH1 0x1 PUSH1 0xA0 SHL SUB AND SWAP2 DUP4 SWAP2 POP PUSH0 SWAP1 PUSH2 0x3A5A JUMPI PUSH2 0x3A5A PUSH2 0x48DA JUMP JUMPDEST PUSH1 0x20 MUL PUSH1 0x20 ADD ADD SWAP1 PUSH1 0x1 PUSH1 0x1 PUSH1 0xA0 SHL SUB AND SWAP1 DUP2 PUSH1 0x1 PUSH1 0x1 PUSH1 0xA0 SHL SUB AND DUP2 MSTORE POP POP ADDRESS DUP2 PUSH1 0x1 DUP2 MLOAD DUP2 LT PUSH2 0x3A8E JUMPI PUSH2 0x3A8E PUSH2 0x48DA JUMP JUMPDEST PUSH1 0x1 PUSH1 0x1 PUSH1 0xA0 SHL SUB SWAP3 DUP4 AND PUSH1 0x20 SWAP2 DUP3 MUL SWAP3 SWAP1 SWAP3 ADD ADD MSTORE PUSH1 0x40 MLOAD PUSH4 0xD06CA61F PUSH1 0xE0 SHL DUP2 MSTORE PUSH0 SWAP2 PUSH32 0x0 AND SWAP1 PUSH4 0xD06CA61F SWAP1 PUSH2 0x3AEC SWAP1 DUP8 SWAP1 DUP7 SWAP1 PUSH1 0x4 ADD PUSH2 0x4AEC JUMP JUMPDEST PUSH0 PUSH1 0x40 MLOAD DUP1 DUP4 SUB DUP2 DUP7 GAS STATICCALL ISZERO DUP1 ISZERO PUSH2 0x3B06 JUMPI RETURNDATASIZE PUSH0 PUSH0 RETURNDATACOPY RETURNDATASIZE PUSH0 REVERT JUMPDEST POP POP POP POP PUSH1 0x40 MLOAD RETURNDATASIZE PUSH0 DUP3 RETURNDATACOPY PUSH1 0x1F RETURNDATASIZE SWAP1 DUP2 ADD PUSH1 0x1F NOT AND DUP3 ADD PUSH1 0x40 MSTORE PUSH2 0x3B2D SWAP2 SWAP1 DUP2 ADD SWAP1 PUSH2 0x4B0C JUMP JUMPDEST SWAP1 POP DUP1 PUSH1 0x1 DUP2 MLOAD DUP2 LT PUSH2 0x3B42 JUMPI PUSH2 0x3B42 PUSH2 0x48DA JUMP JUMPDEST PUSH1 0x20 MUL PUSH1 0x20 ADD ADD MLOAD SWAP3 POP POP POP SWAP2 SWAP1 POP JUMP JUMPDEST PUSH0 PUSH1 0x2 DUP4 PUSH2 0x3B61 DUP7 DUP6 PUSH2 0x464B JUMP JUMPDEST PUSH2 0x3B6B SWAP2 SWAP1 PUSH2 0x4676 JUMP JUMPDEST PUSH2 0x3B75 SWAP2 SWAP1 PUSH2 0x4676 JUMP JUMPDEST SWAP1 POP PUSH0 PUSH1 0x2 DUP5 PUSH2 0x3B85 DUP8 DUP7 PUSH2 0x464B JUMP JUMPDEST PUSH2 0x3B8F SWAP2 SWAP1 PUSH2 0x4676 JUMP JUMPDEST PUSH2 0x3B99 SWAP2 SWAP1 PUSH2 0x4676 JUMP JUMPDEST SWAP1 POP DUP2 ISZERO PUSH2 0x3BAC JUMPI PUSH2 0x3BAC ADDRESS DUP8 DUP5 PUSH2 0x1BA4 JUMP JUMPDEST DUP1 ISZERO PUSH2 0x2648 JUMPI PUSH0 PUSH2 0x3BBC DUP3 PUSH2 0x4002 JUMP JUMPDEST PUSH1 0x6 SLOAD PUSH1 0x40 MLOAD PUSH4 0xA9059CBB PUSH1 0xE0 SHL DUP2 MSTORE SWAP2 SWAP3 POP PUSH1 0x1 PUSH1 0x1 PUSH1 0xA0 SHL SUB AND SWAP1 PUSH4 0xA9059CBB SWAP1 PUSH2 0x3BEF SWAP1 DUP11 SWAP1 DUP6 SWAP1 PUSH1 0x4 ADD PUSH2 0x4A08 JUMP JUMPDEST PUSH1 0x20 PUSH1 0x40 MLOAD DUP1 DUP4 SUB DUP2 PUSH0 DUP8 GAS CALL ISZERO DUP1 ISZERO PUSH2 0x3C0B JUMPI RETURNDATASIZE PUSH0 PUSH0 RETURNDATACOPY RETURNDATASIZE PUSH0 REVERT JUMPDEST POP POP POP POP PUSH1 0x40 MLOAD RETURNDATASIZE PUSH1 0x1F NOT PUSH1 0x1F DUP3 ADD AND DUP3 ADD DUP1 PUSH1 0x40 MSTORE POP DUP2 ADD SWAP1 PUSH2 0x3C2F SWAP2 SWAP1 PUSH2 0x4A21 JUMP JUMPDEST POP DUP1 ISZERO PUSH2 0x2913 JUMPI PUSH2 0x3535 DUP8 DUP3 PUSH2 0x43E7 JUMP JUMPDEST PUSH1 0xD SLOAD PUSH1 0x1 PUSH1 0x1 PUSH1 0xA0 SHL SUB AND ISZERO DUP1 ISZERO SWAP1 PUSH2 0x3C64 JUMPI POP PUSH1 0xE SLOAD PUSH1 0x1 PUSH1 0x1 PUSH1 0xA0 SHL SUB AND ISZERO ISZERO JUMPDEST ISZERO PUSH2 0x3E0A JUMPI PUSH0 PUSH1 0xA PUSH2 0x3C77 DUP4 PUSH1 0x7 PUSH2 0x464B JUMP JUMPDEST PUSH2 0x3C81 SWAP2 SWAP1 PUSH2 0x4676 JUMP JUMPDEST SWAP1 POP PUSH0 PUSH2 0x3C8E DUP3 DUP5 PUSH2 0x4689 JUMP JUMPDEST SWAP1 POP PUSH1 0x16 SLOAD TIMESTAMP LT ISZERO PUSH2 0x3D10 JUMPI PUSH1 0x6 SLOAD PUSH1 0xE SLOAD PUSH1 0x40 MLOAD PUSH4 0xA9059CBB PUSH1 0xE0 SHL DUP2 MSTORE PUSH1 0x1 PUSH1 0x1 PUSH1 0xA0 SHL SUB SWAP3 DUP4 AND SWAP3 PUSH4 0xA9059CBB SWAP3 PUSH2 0x3CD0 SWAP3 SWAP2 AND SWAP1 DUP8 SWAP1 PUSH1 0x4 ADD PUSH2 0x4A08 JUMP JUMPDEST PUSH1 0x20 PUSH1 0x40 MLOAD DUP1 DUP4 SUB DUP2 PUSH0 DUP8 GAS CALL ISZERO DUP1 ISZERO PUSH2 0x3CEC JUMPI RETURNDATASIZE PUSH0 PUSH0 RETURNDATACOPY RETURNDATASIZE PUSH0 REVERT JUMPDEST POP POP POP POP PUSH1 0x40 MLOAD RETURNDATASIZE PUSH1 0x1F NOT PUSH1 0x1F DUP3 ADD AND DUP3 ADD DUP1 PUSH1 0x40 MSTORE POP DUP2 ADD SWAP1 PUSH2 0x1615 SWAP2 SWAP1 PUSH2 0x4A21 JUMP JUMPDEST PUSH1 0x16 SLOAD PUSH2 0x3D20 SWAP1 PUSH3 0x278D00 PUSH2 0x4638 JUMP JUMPDEST TIMESTAMP LT ISZERO PUSH2 0x3D5D JUMPI PUSH1 0x6 SLOAD PUSH1 0xE SLOAD PUSH1 0x40 MLOAD PUSH4 0xA9059CBB PUSH1 0xE0 SHL DUP2 MSTORE PUSH1 0x1 PUSH1 0x1 PUSH1 0xA0 SHL SUB SWAP3 DUP4 AND SWAP3 PUSH4 0xA9059CBB SWAP3 PUSH2 0x3CD0 SWAP3 SWAP2 AND SWAP1 DUP8 SWAP1 PUSH1 0x4 ADD PUSH2 0x4A08 JUMP JUMPDEST PUSH1 0x6 SLOAD PUSH1 0xD SLOAD PUSH1 0x40 MLOAD PUSH4 0xA9059CBB PUSH1 0xE0 SHL DUP2 MSTORE PUSH1 0x1 PUSH1 0x1 PUSH1 0xA0 SHL SUB SWAP3 DUP4 AND SWAP3 PUSH4 0xA9059CBB SWAP3 PUSH2 0x3D93 SWAP3 SWAP2 AND SWAP1 DUP7 SWAP1 PUSH1 0x4 ADD PUSH2 0x4A08 JUMP JUMPDEST PUSH1 0x20 PUSH1 0x40 MLOAD DUP1 DUP4 SUB DUP2 PUSH0 DUP8 GAS CALL ISZERO DUP1 ISZERO PUSH2 0x3DAF JUMPI RETURNDATASIZE PUSH0 PUSH0 RETURNDATACOPY RETURNDATASIZE PUSH0 REVERT JUMPDEST POP POP POP POP PUSH1 0x40 MLOAD RETURNDATASIZE PUSH1 0x1F NOT PUSH1 0x1F DUP3 ADD AND DUP3 ADD DUP1 PUSH1 0x40 MSTORE POP DUP2 ADD SWAP1 PUSH2 0x3DD3 SWAP2 SWAP1 PUSH2 0x4A21 JUMP JUMPDEST POP PUSH1 0x6 SLOAD PUSH1 0xE SLOAD PUSH1 0x40 MLOAD PUSH4 0xA9059CBB PUSH1 0xE0 SHL DUP2 MSTORE PUSH1 0x1 PUSH1 0x1 PUSH1 0xA0 SHL SUB SWAP3 DUP4 AND SWAP3 PUSH4 0xA9059CBB SWAP3 PUSH2 0x3CD0 SWAP3 SWAP2 AND SWAP1 DUP6 SWAP1 PUSH1 0x4 ADD PUSH2 0x4A08 JUMP JUMPDEST PUSH1 0xC SLOAD PUSH1 0x1 PUSH1 0x1 PUSH1 0xA0 SHL SUB AND ISZERO PUSH2 0x1B77 JUMPI PUSH1 0x6 SLOAD PUSH1 0xC SLOAD PUSH1 0x40 MLOAD PUSH4 0xA9059CBB PUSH1 0xE0 SHL DUP2 MSTORE PUSH1 0x1 PUSH1 0x1 PUSH1 0xA0 SHL SUB SWAP3 DUP4 AND SWAP3 PUSH4 0xA9059CBB SWAP3 PUSH2 0x3E51 SWAP3 SWAP2 AND SWAP1 DUP6 SWAP1 PUSH1 0x4 ADD PUSH2 0x4A08 JUMP JUMPDEST PUSH1 0x20 PUSH1 0x40 MLOAD DUP1 DUP4 SUB DUP2 PUSH0 DUP8 GAS CALL ISZERO DUP1 ISZERO PUSH2 0x3E6D JUMPI RETURNDATASIZE PUSH0 PUSH0 RETURNDATACOPY RETURNDATASIZE PUSH0 REVERT JUMPDEST POP POP POP POP PUSH1 0x40 MLOAD RETURNDATASIZE PUSH1 0x1F NOT PUSH1 0x1F DUP3 ADD AND DUP3 ADD DUP1 PUSH1 0x40 MSTORE POP DUP2 ADD SWAP1 PUSH2 0x3E91 SWAP2 SWAP1 PUSH2 0x4A21 JUMP JUMPDEST POP POP JUMP JUMPDEST PUSH0 DUP1 PUSH2 0x3EA9 PUSH2 0x3EA4 DUP5 DUP7 PUSH2 0x464B JUMP JUMPDEST PUSH2 0x45B7 JUMP JUMPDEST SWAP1 POP PUSH0 PUSH2 0x3F23 PUSH1 0x6 PUSH0 SWAP1 SLOAD SWAP1 PUSH2 0x100 EXP SWAP1 DIV PUSH1 0x1 PUSH1 0x1 PUSH1 0xA0 SHL SUB AND PUSH1 0x1 PUSH1 0x1 PUSH1 0xA0 SHL SUB AND PUSH4 0x7464FC3D PUSH1 0x40 MLOAD DUP2 PUSH4 0xFFFFFFFF AND PUSH1 0xE0 SHL DUP2 MSTORE PUSH1 0x4 ADD PUSH1 0x20 PUSH1 0x40 MLOAD DUP1 DUP4 SUB DUP2 DUP7 GAS STATICCALL ISZERO DUP1 ISZERO PUSH2 0x3EFF JUMPI RETURNDATASIZE PUSH0 PUSH0 RETURNDATACOPY RETURNDATASIZE PUSH0 REVERT JUMPDEST POP POP POP POP PUSH1 0x40 MLOAD RETURNDATASIZE PUSH1 0x1F NOT PUSH1 0x1F DUP3 ADD AND DUP3 ADD DUP1 PUSH1 0x40 MSTORE POP DUP2 ADD SWAP1 PUSH2 0x3EA4 SWAP2 SWAP1 PUSH2 0x49F1 JUMP JUMPDEST SWAP1 POP DUP1 DUP3 GT ISZERO PUSH2 0x3F81 JUMPI PUSH0 PUSH2 0x3F38 DUP3 DUP5 PUSH2 0x4689 JUMP JUMPDEST PUSH2 0x3F42 SWAP1 DUP9 PUSH2 0x464B JUMP JUMPDEST PUSH2 0x3F4D SWAP1 PUSH1 0x8 PUSH2 0x464B JUMP JUMPDEST SWAP1 POP PUSH0 PUSH2 0x3F5B DUP4 PUSH1 0x8 PUSH2 0x464B JUMP JUMPDEST PUSH2 0x3F66 DUP6 PUSH1 0x11 PUSH2 0x464B JUMP JUMPDEST PUSH2 0x3F70 SWAP2 SWAP1 PUSH2 0x4638 JUMP JUMPDEST SWAP1 POP PUSH2 0x3F7C DUP2 DUP4 PUSH2 0x4676 JUMP JUMPDEST SWAP5 POP POP POP JUMPDEST POP POP SWAP4 SWAP3 POP POP POP JUMP JUMPDEST PUSH0 DUP2 DUP4 LT PUSH2 0x3F98 JUMPI DUP2 PUSH2 0x1DE8 JUMP JUMPDEST POP SWAP1 SWAP2 SWAP1 POP JUMP JUMPDEST PUSH1 0x40 DUP1 MLOAD PUSH0 DUP1 DUP3 MSTORE PUSH1 0x20 DUP3 ADD SWAP1 SWAP3 MSTORE PUSH1 0x1 PUSH1 0x1 PUSH1 0xA0 SHL SUB DUP5 AND SWAP1 DUP4 SWAP1 PUSH1 0x40 MLOAD PUSH2 0x3FC8 SWAP2 SWAP1 PUSH2 0x4BD4 JUMP JUMPDEST PUSH0 PUSH1 0x40 MLOAD DUP1 DUP4 SUB DUP2 DUP6 DUP8 GAS CALL SWAP3 POP POP POP RETURNDATASIZE DUP1 PUSH0 DUP2 EQ PUSH2 0x2648 JUMPI PUSH1 0x40 MLOAD SWAP2 POP PUSH1 0x1F NOT PUSH1 0x3F RETURNDATASIZE ADD AND DUP3 ADD PUSH1 0x40 MSTORE RETURNDATASIZE DUP3 MSTORE RETURNDATASIZE PUSH0 PUSH1 0x20 DUP5 ADD RETURNDATACOPY PUSH2 0x2648 JUMP JUMPDEST PUSH0 DUP1 PUSH2 0x400F PUSH1 0x2 DUP5 PUSH2 0x4676 JUMP JUMPDEST PUSH1 0x40 DUP1 MLOAD PUSH1 0x2 DUP1 DUP3 MSTORE PUSH1 0x60 DUP3 ADD DUP4 MSTORE SWAP3 SWAP4 POP PUSH0 SWAP3 SWAP1 SWAP2 PUSH1 0x20 DUP4 ADD SWAP1 DUP1 CALLDATASIZE DUP4 CALLDATACOPY ADD SWAP1 POP POP SWAP1 POP ADDRESS DUP2 PUSH0 DUP2 MLOAD DUP2 LT PUSH2 0x4047 JUMPI PUSH2 0x4047 PUSH2 0x48DA JUMP JUMPDEST PUSH1 0x1 PUSH1 0x1 PUSH1 0xA0 SHL SUB SWAP3 DUP4 AND PUSH1 0x20 SWAP2 DUP3 MUL SWAP3 SWAP1 SWAP3 ADD ADD MSTORE PUSH1 0xB SLOAD DUP3 MLOAD SWAP2 AND SWAP1 DUP3 SWAP1 PUSH1 0x1 SWAP1 DUP2 LT PUSH2 0x4078 JUMPI PUSH2 0x4078 PUSH2 0x48DA JUMP JUMPDEST PUSH1 0x1 PUSH1 0x1 PUSH1 0xA0 SHL SUB SWAP3 DUP4 AND PUSH1 0x20 SWAP2 DUP3 MUL SWAP3 SWAP1 SWAP3 ADD ADD MSTORE PUSH1 0x6 SLOAD PUSH2 0x409D SWAP2 AND ADDRESS DUP7 PUSH2 0x1BA4 JUMP JUMPDEST PUSH1 0x6 PUSH0 SWAP1 SLOAD SWAP1 PUSH2 0x100 EXP SWAP1 DIV PUSH1 0x1 PUSH1 0x1 PUSH1 0xA0 SHL SUB AND PUSH1 0x1 PUSH1 0x1 PUSH1 0xA0 SHL SUB AND PUSH4 0xFFF6CAE9 PUSH1 0x40 MLOAD DUP2 PUSH4 0xFFFFFFFF AND PUSH1 0xE0 SHL DUP2 MSTORE PUSH1 0x4 ADD PUSH0 PUSH1 0x40 MLOAD DUP1 DUP4 SUB DUP2 PUSH0 DUP8 DUP1 EXTCODESIZE ISZERO DUP1 ISZERO PUSH2 0x40E9 JUMPI PUSH0 PUSH0 REVERT JUMPDEST POP GAS CALL ISZERO DUP1 ISZERO PUSH2 0x40FB JUMPI RETURNDATASIZE PUSH0 PUSH0 RETURNDATACOPY RETURNDATASIZE PUSH0 REVERT JUMPDEST POP POP POP POP PUSH2 0x412A ADDRESS PUSH32 0x0 DUP7 PUSH2 0x1CCA JUMP JUMPDEST PUSH1 0x10 SLOAD PUSH1 0x40 MLOAD PUSH4 0x5C11D795 PUSH1 0xE0 SHL DUP2 MSTORE PUSH1 0x1 PUSH1 0x1 PUSH1 0xA0 SHL SUB PUSH32 0x0 DUP2 AND SWAP3 PUSH4 0x5C11D795 SWAP3 PUSH2 0x4185 SWAP3 DUP8 SWAP3 PUSH0 SWAP3 DUP9 SWAP3 SWAP2 SWAP1 SWAP2 AND SWAP1 TIMESTAMP SWAP1 PUSH1 0x4 ADD PUSH2 0x4AB1 JUMP JUMPDEST PUSH0 PUSH1 0x40 MLOAD DUP1 DUP4 SUB DUP2 PUSH0 DUP8 DUP1 EXTCODESIZE ISZERO DUP1 ISZERO PUSH2 0x419C JUMPI PUSH0 PUSH0 REVERT JUMPDEST POP GAS CALL ISZERO DUP1 ISZERO PUSH2 0x41AE JUMPI RETURNDATASIZE PUSH0 PUSH0 RETURNDATACOPY RETURNDATASIZE PUSH0 REVERT JUMPDEST POP POP PUSH1 0xB SLOAD PUSH1 0x10 SLOAD PUSH1 0x40 MLOAD PUSH4 0x70A08231 PUSH1 0xE0 SHL DUP2 MSTORE PUSH1 0x1 PUSH1 0x1 PUSH1 0xA0 SHL SUB SWAP2 DUP3 AND PUSH1 0x4 DUP3 ADD MSTORE PUSH0 SWAP5 POP SWAP2 AND SWAP2 POP PUSH4 0x70A08231 SWAP1 PUSH1 0x24 ADD PUSH1 0x20 PUSH1 0x40 MLOAD DUP1 DUP4 SUB DUP2 DUP7 GAS STATICCALL ISZERO DUP1 ISZERO PUSH2 0x41FE JUMPI RETURNDATASIZE PUSH0 PUSH0 RETURNDATACOPY RETURNDATASIZE PUSH0 REVERT JUMPDEST POP POP POP POP PUSH1 0x40 MLOAD RETURNDATASIZE PUSH1 0x1F NOT PUSH1 0x1F DUP3 ADD AND DUP3 ADD DUP1 PUSH1 0x40 MSTORE POP DUP2 ADD SWAP1 PUSH2 0x4222 SWAP2 SWAP1 PUSH2 0x49F1 JUMP JUMPDEST PUSH1 0x10 SLOAD PUSH1 0xB SLOAD PUSH1 0x40 MLOAD PUSH4 0x92DFDB3 PUSH1 0xE1 SHL DUP2 MSTORE PUSH1 0x1 PUSH1 0x1 PUSH1 0xA0 SHL SUB SWAP2 DUP3 AND PUSH1 0x4 DUP3 ADD MSTORE ADDRESS PUSH1 0x24 DUP3 ADD MSTORE PUSH1 0x44 DUP2 ADD DUP5 SWAP1 MSTORE SWAP3 SWAP4 POP AND SWAP1 PUSH4 0x125BFB66 SWAP1 PUSH1 0x64 ADD PUSH0 PUSH1 0x40 MLOAD DUP1 DUP4 SUB DUP2 PUSH0 DUP8 DUP1 EXTCODESIZE ISZERO DUP1 ISZERO PUSH2 0x4277 JUMPI PUSH0 PUSH0 REVERT JUMPDEST POP GAS CALL ISZERO DUP1 ISZERO PUSH2 0x4289 JUMPI RETURNDATASIZE PUSH0 PUSH0 RETURNDATACOPY RETURNDATASIZE PUSH0 REVERT JUMPDEST POP POP PUSH1 0xB SLOAD PUSH1 0x40 MLOAD PUSH4 0x95EA7B3 PUSH1 0xE0 SHL DUP2 MSTORE PUSH1 0x1 PUSH1 0x1 PUSH1 0xA0 SHL SUB SWAP1 SWAP2 AND SWAP3 POP PUSH4 0x95EA7B3 SWAP2 POP PUSH2 0x42DF SWAP1 PUSH32 0x0 SWAP1 DUP6 SWAP1 PUSH1 0x4 ADD PUSH2 0x4A08 JUMP JUMPDEST PUSH1 0x20 PUSH1 0x40 MLOAD DUP1 DUP4 SUB DUP2 PUSH0 DUP8 GAS CALL ISZERO DUP1 ISZERO PUSH2 0x42FB JUMPI RETURNDATASIZE PUSH0 PUSH0 RETURNDATACOPY RETURNDATASIZE PUSH0 REVERT JUMPDEST POP POP POP POP PUSH1 0x40 MLOAD RETURNDATASIZE PUSH1 0x1F NOT PUSH1 0x1F DUP3 ADD AND DUP3 ADD DUP1 PUSH1 0x40 MSTORE POP DUP2 ADD SWAP1 PUSH2 0x431F SWAP2 SWAP1 PUSH2 0x4A21 JUMP JUMPDEST POP PUSH1 0xB SLOAD PUSH1 0x40 MLOAD PUSH3 0xE8E337 PUSH1 0xE8 SHL DUP2 MSTORE PUSH1 0x1 PUSH1 0x1 PUSH1 0xA0 SHL SUB SWAP2 DUP3 AND PUSH1 0x4 DUP3 ADD MSTORE ADDRESS PUSH1 0x24 DUP3 ADD DUP2 SWAP1 MSTORE PUSH1 0x44 DUP3 ADD DUP5 SWAP1 MSTORE PUSH1 0x64 DUP3 ADD DUP7 SWAP1 MSTORE PUSH0 PUSH1 0x84 DUP4 ADD DUP2 SWAP1 MSTORE PUSH1 0xA4 DUP4 ADD MSTORE PUSH1 0xC4 DUP3 ADD MSTORE TIMESTAMP PUSH1 0xE4 DUP3 ADD MSTORE PUSH32 0x0 SWAP1 SWAP2 AND SWAP1 PUSH4 0xE8E33700 SWAP1 PUSH2 0x104 ADD PUSH1 0x60 PUSH1 0x40 MLOAD DUP1 DUP4 SUB DUP2 PUSH0 DUP8 GAS CALL ISZERO DUP1 ISZERO PUSH2 0x43B8 JUMPI RETURNDATASIZE PUSH0 PUSH0 RETURNDATACOPY RETURNDATASIZE PUSH0 REVERT JUMPDEST POP POP POP POP PUSH1 0x40 MLOAD RETURNDATASIZE PUSH1 0x1F NOT PUSH1 0x1F DUP3 ADD AND DUP3 ADD DUP1 PUSH1 0x40 MSTORE POP DUP2 ADD SWAP1 PUSH2 0x43DC SWAP2 SWAP1 PUSH2 0x4922 JUMP JUMPDEST SWAP8 SWAP7 POP POP POP POP POP POP POP JUMP JUMPDEST PUSH1 0x1 PUSH1 0x1 PUSH1 0xA0 SHL SUB DUP1 DUP4 AND PUSH0 SWAP1 DUP2 MSTORE PUSH1 0xA PUSH1 0x20 SWAP1 DUP2 MSTORE PUSH1 0x40 DUP1 DUP4 KECCAK256 DUP2 MLOAD PUSH2 0x160 DUP2 ADD DUP4 MSTORE DUP2 SLOAD SWAP1 SWAP6 AND DUP1 DUP7 MSTORE PUSH1 0x1 DUP1 DUP4 ADD SLOAD SWAP5 DUP8 ADD SWAP5 SWAP1 SWAP5 MSTORE PUSH1 0x2 DUP3 ADD SLOAD SWAP3 DUP7 ADD SWAP3 SWAP1 SWAP3 MSTORE PUSH1 0x3 DUP2 ADD SLOAD PUSH1 0x60 DUP7 ADD MSTORE PUSH1 0x4 DUP2 ADD SLOAD PUSH1 0x80 DUP7 ADD MSTORE PUSH1 0x5 DUP2 ADD SLOAD PUSH1 0xA0 DUP7 ADD MSTORE PUSH1 0x6 DUP2 ADD SLOAD PUSH1 0xC0 DUP7 ADD MSTORE PUSH1 0x7 DUP2 ADD SLOAD PUSH1 0xE0 DUP7 ADD MSTORE PUSH1 0x8 DUP2 ADD SLOAD PUSH2 0x100 DUP1 DUP8 ADD SWAP2 SWAP1 SWAP2 MSTORE PUSH1 0x9 SWAP1 SWAP2 ADD SLOAD PUSH1 0xFF DUP1 DUP3 AND ISZERO ISZERO PUSH2 0x120 DUP9 ADD MSTORE SWAP2 SWAP1 DIV AND ISZERO ISZERO PUSH2 0x140 DUP6 ADD MSTORE SWAP2 SWAP3 SWAP2 SWAP1 PUSH1 0x14 JUMPDEST PUSH1 0x1 PUSH1 0x1 PUSH1 0xA0 SHL SUB DUP4 AND ISZERO DUP1 ISZERO SWAP1 PUSH2 0x44AB JUMPI POP DUP1 DUP3 GT ISZERO JUMPDEST ISZERO PUSH2 0x45AD JUMPI PUSH0 PUSH2 0x44BA DUP4 PUSH2 0x128A JUMP JUMPDEST SWAP1 POP PUSH0 PUSH1 0x64 PUSH2 0x44C9 DUP4 DUP11 PUSH2 0x464B JUMP JUMPDEST PUSH2 0x44D3 SWAP2 SWAP1 PUSH2 0x4676 JUMP JUMPDEST SWAP1 POP DUP1 ISZERO PUSH2 0x457C JUMPI PUSH1 0x1 PUSH1 0x1 PUSH1 0xA0 SHL SUB DUP6 AND PUSH0 SWAP1 DUP2 MSTORE PUSH1 0xA PUSH1 0x20 MSTORE PUSH1 0x40 SWAP1 KECCAK256 PUSH1 0x7 ADD SLOAD DUP5 GT PUSH2 0x457C JUMPI PUSH1 0x6 SLOAD PUSH1 0x40 MLOAD PUSH4 0xA9059CBB PUSH1 0xE0 SHL DUP2 MSTORE PUSH1 0x1 PUSH1 0x1 PUSH1 0xA0 SHL SUB SWAP1 SWAP2 AND SWAP1 PUSH4 0xA9059CBB SWAP1 PUSH2 0x452E SWAP1 DUP9 SWAP1 DUP6 SWAP1 PUSH1 0x4 ADD PUSH2 0x4A08 JUMP JUMPDEST PUSH1 0x20 PUSH1 0x40 MLOAD DUP1 DUP4 SUB DUP2 PUSH0 DUP8 GAS CALL ISZERO DUP1 ISZERO PUSH2 0x454A JUMPI RETURNDATASIZE PUSH0 PUSH0 RETURNDATACOPY RETURNDATASIZE PUSH0 REVERT JUMPDEST POP POP POP POP PUSH1 0x40 MLOAD RETURNDATASIZE PUSH1 0x1F NOT PUSH1 0x1F DUP3 ADD AND DUP3 ADD DUP1 PUSH1 0x40 MSTORE POP DUP2 ADD SWAP1 PUSH2 0x456E SWAP2 SWAP1 PUSH2 0x4A21 JUMP JUMPDEST POP PUSH2 0x4579 DUP2 DUP9 PUSH2 0x4638 JUMP JUMPDEST SWAP7 POP JUMPDEST PUSH1 0x1 PUSH1 0x1 PUSH1 0xA0 SHL SUB SWAP5 DUP6 AND PUSH0 SWAP1 DUP2 MSTORE PUSH1 0xA PUSH1 0x20 MSTORE PUSH1 0x40 SWAP1 KECCAK256 SLOAD SWAP1 SWAP5 AND SWAP4 DUP4 PUSH2 0x45A3 DUP2 PUSH2 0x4BEA JUMP JUMPDEST SWAP5 POP POP POP POP PUSH2 0x4493 JUMP JUMPDEST POP POP POP POP SWAP3 SWAP2 POP POP JUMP JUMPDEST PUSH0 PUSH1 0x3 DUP3 GT ISZERO PUSH2 0x4616 JUMPI POP DUP1 PUSH0 PUSH2 0x45CF PUSH1 0x2 DUP4 PUSH2 0x4676 JUMP JUMPDEST PUSH2 0x45DA SWAP1 PUSH1 0x1 PUSH2 0x4638 JUMP JUMPDEST SWAP1 POP JUMPDEST DUP2 DUP2 LT ISZERO PUSH2 0x4610 JUMPI SWAP1 POP DUP1 PUSH1 0x2 DUP2 PUSH2 0x45F5 DUP2 DUP7 PUSH2 0x4676 JUMP JUMPDEST PUSH2 0x45FF SWAP2 SWAP1 PUSH2 0x4638 JUMP JUMPDEST PUSH2 0x4609 SWAP2 SWAP1 PUSH2 0x4676 JUMP JUMPDEST SWAP1 POP PUSH2 0x45DD JUMP JUMPDEST POP SWAP2 SWAP1 POP JUMP JUMPDEST DUP2 ISZERO PUSH2 0x374F JUMPI POP PUSH1 0x1 SWAP2 SWAP1 POP JUMP JUMPDEST PUSH4 0x4E487B71 PUSH1 0xE0 SHL PUSH0 MSTORE PUSH1 0x11 PUSH1 0x4 MSTORE PUSH1 0x24 PUSH0 REVERT JUMPDEST DUP1 DUP3 ADD DUP1 DUP3 GT ISZERO PUSH2 0x1133 JUMPI PUSH2 0x1133 PUSH2 0x4624 JUMP JUMPDEST DUP1 DUP3 MUL DUP2 ISZERO DUP3 DUP3 DIV DUP5 EQ OR PUSH2 0x1133 JUMPI PUSH2 0x1133 PUSH2 0x4624 JUMP JUMPDEST PUSH4 0x4E487B71 PUSH1 0xE0 SHL PUSH0 MSTORE PUSH1 0x12 PUSH1 0x4 MSTORE PUSH1 0x24 PUSH0 REVERT JUMPDEST PUSH0 DUP3 PUSH2 0x4684 JUMPI PUSH2 0x4684 PUSH2 0x4662 JUMP JUMPDEST POP DIV SWAP1 JUMP JUMPDEST DUP2 DUP2 SUB DUP2 DUP2 GT ISZERO PUSH2 0x1133 JUMPI PUSH2 0x1133 PUSH2 0x4624 JUMP JUMPDEST PUSH1 0x20 DUP2 MSTORE PUSH0 DUP3 MLOAD DUP1 PUSH1 0x20 DUP5 ADD MSTORE DUP1 PUSH1 0x20 DUP6 ADD PUSH1 0x40 DUP6 ADD MCOPY PUSH0 PUSH1 0x40 DUP3 DUP6 ADD ADD MSTORE PUSH1 0x40 PUSH1 0x1F NOT PUSH1 0x1F DUP4 ADD AND DUP5 ADD ADD SWAP2 POP POP SWAP3 SWAP2 POP POP JUMP JUMPDEST PUSH1 0x1 PUSH1 0x1 PUSH1 0xA0 SHL SUB DUP2 AND DUP2 EQ PUSH2 0x1B77 JUMPI PUSH0 PUSH0 REVERT JUMPDEST PUSH0 PUSH0 PUSH1 0x40 DUP4 DUP6 SUB SLT ISZERO PUSH2 0x46F6 JUMPI PUSH0 PUSH0 REVERT JUMPDEST DUP3 CALLDATALOAD PUSH2 0x4701 DUP2 PUSH2 0x46D1 JUMP JUMPDEST SWAP5 PUSH1 0x20 SWAP4 SWAP1 SWAP4 ADD CALLDATALOAD SWAP4 POP POP POP JUMP JUMPDEST PUSH0 PUSH0 PUSH0 PUSH1 0x60 DUP5 DUP7 SUB SLT ISZERO PUSH2 0x4721 JUMPI PUSH0 PUSH0 REVERT JUMPDEST DUP4 CALLDATALOAD PUSH2 0x472C DUP2 PUSH2 0x46D1 JUMP JUMPDEST SWAP3 POP PUSH1 0x20 DUP5 ADD CALLDATALOAD PUSH2 0x473C DUP2 PUSH2 0x46D1 JUMP JUMPDEST SWAP3 SWAP6 SWAP3 SWAP5 POP POP POP PUSH1 0x40 SWAP2 SWAP1 SWAP2 ADD CALLDATALOAD SWAP1 JUMP JUMPDEST PUSH0 PUSH1 0x20 DUP3 DUP5 SUB SLT ISZERO PUSH2 0x475D JUMPI PUSH0 PUSH0 REVERT JUMPDEST DUP2 CALLDATALOAD PUSH2 0x1DE8 DUP2 PUSH2 0x46D1 JUMP JUMPDEST PUSH0 PUSH1 0x20 DUP3 DUP5 SUB SLT ISZERO PUSH2 0x4778 JUMPI PUSH0 PUSH0 REVERT JUMPDEST POP CALLDATALOAD SWAP2 SWAP1 POP JUMP JUMPDEST PUSH0 DUP2 MLOAD DUP1 DUP5 MSTORE PUSH1 0x20 DUP5 ADD SWAP4 POP PUSH1 0x20 DUP4 ADD PUSH0 JUMPDEST DUP3 DUP2 LT ISZERO PUSH2 0x47B8 JUMPI DUP2 MLOAD PUSH1 0x1 PUSH1 0x1 PUSH1 0xA0 SHL SUB AND DUP7 MSTORE PUSH1 0x20 SWAP6 DUP7 ADD SWAP6 SWAP1 SWAP2 ADD SWAP1 PUSH1 0x1 ADD PUSH2 0x4791 JUMP JUMPDEST POP SWAP4 SWAP5 SWAP4 POP POP POP POP JUMP JUMPDEST PUSH1 0x20 DUP2 MSTORE PUSH0 PUSH2 0x1DE8 PUSH1 0x20 DUP4 ADD DUP5 PUSH2 0x477F JUMP JUMPDEST DUP1 ISZERO ISZERO DUP2 EQ PUSH2 0x1B77 JUMPI PUSH0 PUSH0 REVERT JUMPDEST PUSH0 PUSH0 PUSH1 0x40 DUP4 DUP6 SUB SLT ISZERO PUSH2 0x47F2 JUMPI PUSH0 PUSH0 REVERT JUMPDEST DUP3 CALLDATALOAD PUSH2 0x47FD DUP2 PUSH2 0x46D1 JUMP JUMPDEST SWAP2 POP PUSH1 0x20 DUP4 ADD CALLDATALOAD PUSH2 0x480D DUP2 PUSH2 0x47D4 JUMP JUMPDEST DUP1 SWAP2 POP POP SWAP3 POP SWAP3 SWAP1 POP JUMP JUMPDEST PUSH0 PUSH0 PUSH0 PUSH1 0x40 DUP5 DUP7 SUB SLT ISZERO PUSH2 0x482A JUMPI PUSH0 PUSH0 REVERT JUMPDEST DUP4 CALLDATALOAD PUSH8 0xFFFFFFFFFFFFFFFF DUP2 GT ISZERO PUSH2 0x4840 JUMPI PUSH0 PUSH0 REVERT JUMPDEST DUP5 ADD PUSH1 0x1F DUP2 ADD DUP7 SGT PUSH2 0x4850 JUMPI PUSH0 PUSH0 REVERT JUMPDEST DUP1 CALLDATALOAD PUSH8 0xFFFFFFFFFFFFFFFF DUP2 GT ISZERO PUSH2 0x4866 JUMPI PUSH0 PUSH0 REVERT JUMPDEST DUP7 PUSH1 0x20 DUP3 PUSH1 0x5 SHL DUP5 ADD ADD GT ISZERO PUSH2 0x487A JUMPI PUSH0 PUSH0 REVERT JUMPDEST PUSH1 0x20 SWAP2 DUP3 ADD SWAP5 POP SWAP3 POP DUP5 ADD CALLDATALOAD PUSH2 0x488F DUP2 PUSH2 0x47D4 JUMP JUMPDEST DUP1 SWAP2 POP POP SWAP3 POP SWAP3 POP SWAP3 JUMP JUMPDEST PUSH0 PUSH0 PUSH1 0x40 DUP4 DUP6 SUB SLT ISZERO PUSH2 0x48AB JUMPI PUSH0 PUSH0 REVERT JUMPDEST DUP3 CALLDATALOAD PUSH2 0x48B6 DUP2 PUSH2 0x46D1 JUMP JUMPDEST SWAP2 POP PUSH1 0x20 DUP4 ADD CALLDATALOAD PUSH2 0x480D DUP2 PUSH2 0x46D1 JUMP JUMPDEST PUSH4 0x4E487B71 PUSH1 0xE0 SHL PUSH0 MSTORE PUSH1 0x41 PUSH1 0x4 MSTORE PUSH1 0x24 PUSH0 REVERT JUMPDEST PUSH4 0x4E487B71 PUSH1 0xE0 SHL PUSH0 MSTORE PUSH1 0x32 PUSH1 0x4 MSTORE PUSH1 0x24 PUSH0 REVERT JUMPDEST DUP5 DUP2 MSTORE PUSH1 0x80 PUSH1 0x20 DUP3 ADD MSTORE PUSH0 PUSH2 0x4906 PUSH1 0x80 DUP4 ADD DUP7 PUSH2 0x477F JUMP JUMPDEST PUSH1 0x1 PUSH1 0x1 PUSH1 0xA0 SHL SUB SWAP5 SWAP1 SWAP5 AND PUSH1 0x40 DUP4 ADD MSTORE POP PUSH1 0x60 ADD MSTORE SWAP3 SWAP2 POP POP JUMP JUMPDEST PUSH0 PUSH0 PUSH0 PUSH1 0x60 DUP5 DUP7 SUB SLT ISZERO PUSH2 0x4934 JUMPI PUSH0 PUSH0 REVERT JUMPDEST POP POP DUP2 MLOAD PUSH1 0x20 DUP4 ADD MLOAD PUSH1 0x40 SWAP1 SWAP4 ADD MLOAD SWAP1 SWAP5 SWAP3 SWAP4 POP SWAP2 SWAP1 POP JUMP JUMPDEST PUSH1 0x1 DUP2 DUP2 SHR SWAP1 DUP3 AND DUP1 PUSH2 0x4961 JUMPI PUSH1 0x7F DUP3 AND SWAP2 POP JUMPDEST PUSH1 0x20 DUP3 LT DUP2 SUB PUSH2 0x4610 JUMPI PUSH4 0x4E487B71 PUSH1 0xE0 SHL PUSH0 MSTORE PUSH1 0x22 PUSH1 0x4 MSTORE PUSH1 0x24 PUSH0 REVERT JUMPDEST DUP1 MLOAD PUSH1 0x1 PUSH1 0x1 PUSH1 0x70 SHL SUB DUP2 AND DUP2 EQ PUSH2 0x374F JUMPI PUSH0 PUSH0 REVERT JUMPDEST PUSH0 PUSH0 PUSH0 PUSH1 0x60 DUP5 DUP7 SUB SLT ISZERO PUSH2 0x49A7 JUMPI PUSH0 PUSH0 REVERT JUMPDEST PUSH2 0x49B0 DUP5 PUSH2 0x497F JUMP JUMPDEST SWAP3 POP PUSH2 0x49BE PUSH1 0x20 DUP6 ADD PUSH2 0x497F JUMP JUMPDEST SWAP2 POP PUSH1 0x40 DUP5 ADD MLOAD PUSH4 0xFFFFFFFF DUP2 AND DUP2 EQ PUSH2 0x488F JUMPI PUSH0 PUSH0 REVERT JUMPDEST PUSH0 PUSH1 0x20 DUP3 DUP5 SUB SLT ISZERO PUSH2 0x49E6 JUMPI PUSH0 PUSH0 REVERT JUMPDEST DUP2 MLOAD PUSH2 0x1DE8 DUP2 PUSH2 0x46D1 JUMP JUMPDEST PUSH0 PUSH1 0x20 DUP3 DUP5 SUB SLT ISZERO PUSH2 0x4A01 JUMPI PUSH0 PUSH0 REVERT JUMPDEST POP MLOAD SWAP2 SWAP1 POP JUMP JUMPDEST PUSH1 0x1 PUSH1 0x1 PUSH1 0xA0 SHL SUB SWAP3 SWAP1 SWAP3 AND DUP3 MSTORE PUSH1 0x20 DUP3 ADD MSTORE PUSH1 0x40 ADD SWAP1 JUMP JUMPDEST PUSH0 PUSH1 0x20 DUP3 DUP5 SUB SLT ISZERO PUSH2 0x4A31 JUMPI PUSH0 PUSH0 REVERT JUMPDEST DUP2 MLOAD PUSH2 0x1DE8 DUP2 PUSH2 0x47D4 JUMP JUMPDEST PUSH0 PUSH1 0xFF DUP3 AND PUSH1 0xFF DUP2 SUB PUSH2 0x4A51 JUMPI PUSH2 0x4A51 PUSH2 0x4624 JUMP JUMPDEST PUSH1 0x1 ADD SWAP3 SWAP2 POP POP JUMP JUMPDEST PUSH1 0x20 DUP1 DUP3 MSTORE PUSH1 0x9 SWAP1 DUP3 ADD MSTORE PUSH9 0x737461727454696D65 PUSH1 0xB8 SHL PUSH1 0x40 DUP3 ADD MSTORE PUSH1 0x60 ADD SWAP1 JUMP JUMPDEST PUSH0 DUP3 PUSH2 0x4A8B JUMPI PUSH2 0x4A8B PUSH2 0x4662 JUMP JUMPDEST POP MOD SWAP1 JUMP JUMPDEST PUSH0 PUSH1 0xFF DUP4 AND DUP1 PUSH2 0x4AA2 JUMPI PUSH2 0x4AA2 PUSH2 0x4662 JUMP JUMPDEST DUP1 PUSH1 0xFF DUP5 AND MOD SWAP2 POP POP SWAP3 SWAP2 POP POP JUMP JUMPDEST DUP6 DUP2 MSTORE DUP5 PUSH1 0x20 DUP3 ADD MSTORE PUSH1 0xA0 PUSH1 0x40 DUP3 ADD MSTORE PUSH0 PUSH2 0x4ACF PUSH1 0xA0 DUP4 ADD DUP7 PUSH2 0x477F JUMP JUMPDEST PUSH1 0x1 PUSH1 0x1 PUSH1 0xA0 SHL SUB SWAP5 SWAP1 SWAP5 AND PUSH1 0x60 DUP4 ADD MSTORE POP PUSH1 0x80 ADD MSTORE SWAP4 SWAP3 POP POP POP JUMP JUMPDEST DUP3 DUP2 MSTORE PUSH1 0x40 PUSH1 0x20 DUP3 ADD MSTORE PUSH0 PUSH2 0x4B04 PUSH1 0x40 DUP4 ADD DUP5 PUSH2 0x477F JUMP JUMPDEST SWAP5 SWAP4 POP POP POP POP JUMP JUMPDEST PUSH0 PUSH1 0x20 DUP3 DUP5 SUB SLT ISZERO PUSH2 0x4B1C JUMPI PUSH0 PUSH0 REVERT JUMPDEST DUP2 MLOAD PUSH8 0xFFFFFFFFFFFFFFFF DUP2 GT ISZERO PUSH2 0x4B32 JUMPI PUSH0 PUSH0 REVERT JUMPDEST DUP3 ADD PUSH1 0x1F DUP2 ADD DUP5 SGT PUSH2 0x4B42 JUMPI PUSH0 PUSH0 REVERT JUMPDEST DUP1 MLOAD PUSH8 0xFFFFFFFFFFFFFFFF DUP2 GT ISZERO PUSH2 0x4B5C JUMPI PUSH2 0x4B5C PUSH2 0x48C6 JUMP JUMPDEST DUP1 PUSH1 0x5 SHL PUSH1 0x40 MLOAD PUSH1 0x1F NOT PUSH1 0x3F DUP4 ADD AND DUP2 ADD DUP2 DUP2 LT PUSH8 0xFFFFFFFFFFFFFFFF DUP3 GT OR ISZERO PUSH2 0x4B89 JUMPI PUSH2 0x4B89 PUSH2 0x48C6 JUMP JUMPDEST PUSH1 0x40 MSTORE SWAP2 DUP3 MSTORE PUSH1 0x20 DUP2 DUP5 ADD DUP2 ADD SWAP3 SWAP1 DUP2 ADD DUP8 DUP5 GT ISZERO PUSH2 0x4BA6 JUMPI PUSH0 PUSH0 REVERT JUMPDEST PUSH1 0x20 DUP6 ADD SWAP5 POP JUMPDEST DUP4 DUP6 LT ISZERO PUSH2 0x4BC9 JUMPI DUP5 MLOAD DUP1 DUP3 MSTORE PUSH1 0x20 SWAP6 DUP7 ADD SWAP6 SWAP1 SWAP4 POP ADD PUSH2 0x4BAD JUMP JUMPDEST POP SWAP7 SWAP6 POP POP POP POP POP POP JUMP JUMPDEST PUSH0 DUP3 MLOAD DUP1 PUSH1 0x20 DUP6 ADD DUP5 MCOPY PUSH0 SWAP3 ADD SWAP2 DUP3 MSTORE POP SWAP2 SWAP1 POP JUMP JUMPDEST PUSH0 PUSH1 0x1 DUP3 ADD PUSH2 0x4BFB JUMPI PUSH2 0x4BFB PUSH2 0x4624 JUMP JUMPDEST POP PUSH1 0x1 ADD SWAP1 JUMP INVALID LOG2 PUSH5 0x6970667358 0x22 SLT KECCAK256 0xBE 0xCE PUSH4 0x43A0AA56 0xF SWAP10 0xB8 DUP9 0xD5 DELEGATECALL JUMP PUSH26 0x9159F46E218A685E5F7E823BC6368BF9C864736F6C6343000822 STOP CALLER PUSH1 0x80 PUSH1 0x40 MSTORE CALLVALUE DUP1 ISZERO PUSH1 0xE JUMPI PUSH0 PUSH0 REVERT JUMPDEST POP CALLER DUP1 PUSH1 0x33 JUMPI PUSH1 0x40 MLOAD PUSH4 0x1E4FBDF7 PUSH1 0xE0 SHL DUP2 MSTORE PUSH0 PUSH1 0x4 DUP3 ADD MSTORE PUSH1 0x24 ADD PUSH1 0x40 MLOAD DUP1 SWAP2 SUB SWAP1 REVERT JUMPDEST PUSH1 0x3A DUP2 PUSH1 0x5B JUMP JUMPDEST POP CALLER PUSH0 SWAP1 DUP2 MSTORE PUSH1 0x1 PUSH1 0x20 DUP2 SWAP1 MSTORE PUSH1 0x40 SWAP1 SWAP2 KECCAK256 DUP1 SLOAD PUSH1 0xFF NOT AND SWAP1 SWAP2 OR SWAP1 SSTORE PUSH1 0xAA JUMP JUMPDEST PUSH0 DUP1 SLOAD PUSH1 0x1 PUSH1 0x1 PUSH1 0xA0 SHL SUB DUP4 DUP2 AND PUSH1 0x1 PUSH1 0x1 PUSH1 0xA0 SHL SUB NOT DUP4 AND DUP2 OR DUP5 SSTORE PUSH1 0x40 MLOAD SWAP2 SWAP1 SWAP3 AND SWAP3 DUP4 SWAP2 PUSH32 0x8BE0079C531659141344CD1FD0A4F28419497F9722A3DAAFE3B4186F6B6457E0 SWAP2 SWAP1 LOG3 POP POP JUMP JUMPDEST PUSH2 0x44E DUP1 PUSH2 0xB7 PUSH0 CODECOPY PUSH0 RETURN INVALID PUSH1 0x80 PUSH1 0x40 MSTORE CALLVALUE DUP1 ISZERO PUSH2 0xF JUMPI PUSH0 PUSH0 REVERT JUMPDEST POP PUSH1 0x4 CALLDATASIZE LT PUSH2 0x60 JUMPI PUSH0 CALLDATALOAD PUSH1 0xE0 SHR DUP1 PUSH4 0x125BFB66 EQ PUSH2 0x64 JUMPI DUP1 PUSH4 0x172979E4 EQ PUSH2 0x79 JUMPI DUP1 PUSH4 0x715018A6 EQ PUSH2 0xB0 JUMPI DUP1 PUSH4 0x8D14E127 EQ PUSH2 0xB8 JUMPI DUP1 PUSH4 0x8DA5CB5B EQ PUSH2 0xCB JUMPI DUP1 PUSH4 0xF2FDE38B EQ PUSH2 0xE5 JUMPI JUMPDEST PUSH0 PUSH0 REVERT JUMPDEST PUSH2 0x77 PUSH2 0x72 CALLDATASIZE PUSH1 0x4 PUSH2 0x362 JUMP JUMPDEST PUSH2 0xF8 JUMP JUMPDEST STOP JUMPDEST PUSH2 0x9B PUSH2 0x87 CALLDATASIZE PUSH1 0x4 PUSH2 0x39B JUMP JUMPDEST PUSH1 0x1 PUSH1 0x20 MSTORE PUSH0 SWAP1 DUP2 MSTORE PUSH1 0x40 SWAP1 KECCAK256 SLOAD PUSH1 0xFF AND DUP2 JUMP JUMPDEST PUSH1 0x40 MLOAD SWAP1 ISZERO ISZERO DUP2 MSTORE PUSH1 0x20 ADD JUMPDEST PUSH1 0x40 MLOAD DUP1 SWAP2 SUB SWAP1 RETURN JUMPDEST PUSH2 0x77 PUSH2 0x216 JUMP JUMPDEST PUSH2 0x77 PUSH2 0xC6 CALLDATASIZE PUSH1 0x4 PUSH2 0x3C8 JUMP JUMPDEST PUSH2 0x229 JUMP JUMPDEST PUSH0 SLOAD PUSH1 0x40 MLOAD PUSH1 0x1 PUSH1 0x1 PUSH1 0xA0 SHL SUB SWAP1 SWAP2 AND DUP2 MSTORE PUSH1 0x20 ADD PUSH2 0xA7 JUMP JUMPDEST PUSH2 0x77 PUSH2 0xF3 CALLDATASIZE PUSH1 0x4 PUSH2 0x39B JUMP JUMPDEST PUSH2 0x28F JUMP JUMPDEST CALLER PUSH0 SWAP1 DUP2 MSTORE PUSH1 0x1 PUSH1 0x20 MSTORE PUSH1 0x40 SWAP1 KECCAK256 SLOAD PUSH1 0xFF AND PUSH2 0x153 JUMPI PUSH1 0x40 MLOAD PUSH3 0x461BCD PUSH1 0xE5 SHL DUP2 MSTORE PUSH1 0x20 PUSH1 0x4 DUP3 ADD MSTORE PUSH1 0x15 PUSH1 0x24 DUP3 ADD MSTORE PUSH21 0x141BDBDB0E881B9BDD081DDA1A5D195B1A5CDD1959 PUSH1 0x5A SHL PUSH1 0x44 DUP3 ADD MSTORE PUSH1 0x64 ADD JUMPDEST PUSH1 0x40 MLOAD DUP1 SWAP2 SUB SWAP1 REVERT JUMPDEST PUSH1 0x40 MLOAD PUSH4 0xA9059CBB PUSH1 0xE0 SHL DUP2 MSTORE PUSH1 0x1 PUSH1 0x1 PUSH1 0xA0 SHL SUB DUP4 DUP2 AND PUSH1 0x4 DUP4 ADD MSTORE PUSH1 0x24 DUP3 ADD DUP4 SWAP1 MSTORE DUP5 AND SWAP1 PUSH4 0xA9059CBB SWAP1 PUSH1 0x44 ADD PUSH1 0x20 PUSH1 0x40 MLOAD DUP1 DUP4 SUB DUP2 PUSH0 DUP8 GAS CALL ISZERO DUP1 ISZERO PUSH2 0x19F JUMPI RETURNDATASIZE PUSH0 PUSH0 RETURNDATACOPY RETURNDATASIZE PUSH0 REVERT JUMPDEST POP POP POP POP PUSH1 0x40 MLOAD RETURNDATASIZE PUSH1 0x1F NOT PUSH1 0x1F DUP3 ADD AND DUP3 ADD DUP1 PUSH1 0x40 MSTORE POP DUP2 ADD SWAP1 PUSH2 0x1C3 SWAP2 SWAP1 PUSH2 0x3FD JUMP JUMPDEST POP DUP2 PUSH1 0x1 PUSH1 0x1 PUSH1 0xA0 SHL SUB AND DUP4 PUSH1 0x1 PUSH1 0x1 PUSH1 0xA0 SHL SUB AND PUSH32 0xF7A40077FF7A04C7E61F6F26FB13774259DDF1B6BCE9ECF26A8276CDD3992683 DUP4 PUSH1 0x40 MLOAD PUSH2 0x209 SWAP2 DUP2 MSTORE PUSH1 0x20 ADD SWAP1 JUMP JUMPDEST PUSH1 0x40 MLOAD DUP1 SWAP2 SUB SWAP1 LOG3 POP POP POP JUMP JUMPDEST PUSH2 0x21E PUSH2 0x2CC JUMP JUMPDEST PUSH2 0x227 PUSH0 PUSH2 0x2F8 JUMP JUMPDEST JUMP JUMPDEST PUSH2 0x231 PUSH2 0x2CC JUMP JUMPDEST PUSH1 0x1 PUSH1 0x1 PUSH1 0xA0 SHL SUB DUP3 AND PUSH0 DUP2 DUP2 MSTORE PUSH1 0x1 PUSH1 0x20 SWAP1 DUP2 MSTORE PUSH1 0x40 SWAP2 DUP3 SWAP1 KECCAK256 DUP1 SLOAD PUSH1 0xFF NOT AND DUP6 ISZERO ISZERO SWAP1 DUP2 OR SWAP1 SWAP2 SSTORE SWAP2 MLOAD SWAP2 DUP3 MSTORE PUSH32 0xB1288E9F7BAE3599E10819D5553FEBEA48E11A6F8F585B32C8ABAD397DD2627E SWAP2 ADD PUSH1 0x40 MLOAD DUP1 SWAP2 SUB SWAP1 LOG2 POP POP JUMP JUMPDEST PUSH2 0x297 PUSH2 0x2CC JUMP JUMPDEST PUSH1 0x1 PUSH1 0x1 PUSH1 0xA0 SHL SUB DUP2 AND PUSH2 0x2C0 JUMPI PUSH1 0x40 MLOAD PUSH4 0x1E4FBDF7 PUSH1 0xE0 SHL DUP2 MSTORE PUSH0 PUSH1 0x4 DUP3 ADD MSTORE PUSH1 0x24 ADD PUSH2 0x14A JUMP JUMPDEST PUSH2 0x2C9 DUP2 PUSH2 0x2F8 JUMP JUMPDEST POP JUMP JUMPDEST PUSH0 SLOAD PUSH1 0x1 PUSH1 0x1 PUSH1 0xA0 SHL SUB AND CALLER EQ PUSH2 0x227 JUMPI PUSH1 0x40 MLOAD PUSH4 0x118CDAA7 PUSH1 0xE0 SHL DUP2 MSTORE CALLER PUSH1 0x4 DUP3 ADD MSTORE PUSH1 0x24 ADD PUSH2 0x14A JUMP JUMPDEST PUSH0 DUP1 SLOAD PUSH1 0x1 PUSH1 0x1 PUSH1 0xA0 SHL SUB DUP4 DUP2 AND PUSH1 0x1 PUSH1 0x1 PUSH1 0xA0 SHL SUB NOT DUP4 AND DUP2 OR DUP5 SSTORE PUSH1 0x40 MLOAD SWAP2 SWAP1 SWAP3 AND SWAP3 DUP4 SWAP2 PUSH32 0x8BE0079C531659141344CD1FD0A4F28419497F9722A3DAAFE3B4186F6B6457E0 SWAP2 SWAP1 LOG3 POP POP JUMP JUMPDEST DUP1 CALLDATALOAD PUSH1 0x1 PUSH1 0x1 PUSH1 0xA0 SHL SUB DUP2 AND DUP2 EQ PUSH2 0x35D JUMPI PUSH0 PUSH0 REVERT JUMPDEST SWAP2 SWAP1 POP JUMP JUMPDEST PUSH0 PUSH0 PUSH0 PUSH1 0x60 DUP5 DUP7 SUB SLT ISZERO PUSH2 0x374 JUMPI PUSH0 PUSH0 REVERT JUMPDEST PUSH2 0x37D DUP5 PUSH2 0x347 JUMP JUMPDEST SWAP3 POP PUSH2 0x38B PUSH1 0x20 DUP6 ADD PUSH2 0x347 JUMP JUMPDEST SWAP2 POP PUSH1 0x40 DUP5 ADD CALLDATALOAD SWAP1 POP SWAP3 POP SWAP3 POP SWAP3 JUMP JUMPDEST PUSH0 PUSH1 0x20 DUP3 DUP5 SUB SLT ISZERO PUSH2 0x3AB JUMPI PUSH0 PUSH0 REVERT JUMPDEST PUSH2 0x3B4 DUP3 PUSH2 0x347 JUMP JUMPDEST SWAP4 SWAP3 POP POP POP JUMP JUMPDEST DUP1 ISZERO ISZERO DUP2 EQ PUSH2 0x2C9 JUMPI PUSH0 PUSH0 REVERT JUMPDEST PUSH0 PUSH0 PUSH1 0x40 DUP4 DUP6 SUB SLT ISZERO PUSH2 0x3D9 JUMPI PUSH0 PUSH0 REVERT JUMPDEST PUSH2 0x3E2 DUP4 PUSH2 0x347 JUMP JUMPDEST SWAP2 POP PUSH1 0x20 DUP4 ADD CALLDATALOAD PUSH2 0x3F2 DUP2 PUSH2 0x3BB JUMP JUMPDEST DUP1 SWAP2 POP POP SWAP3 POP SWAP3 SWAP1 POP JUMP JUMPDEST PUSH0 PUSH1 0x20 DUP3 DUP5 SUB SLT ISZERO PUSH2 0x40D JUMPI PUSH0 PUSH0 REVERT JUMPDEST DUP2 MLOAD PUSH2 0x3B4 DUP2 PUSH2 0x3BB JUMP INVALID LOG2 PUSH5 0x6970667358 0x22 SLT KECCAK256 OR PUSH31 0xB0AB5B21AB35515087C3F0350E4B822B01CC97BBE058EB9AB943547071BF64 PUSH20 0x6F6C634300082200334DAB1356CD0582FEB480A4 0xC9 SWAP15 SWAP6 0xBB PUSH17 0xC5D60B9B3F27D2CD27F5CCC64E6583E000 "
		},
		"gasEstimates": {
			"creation": {
				"codeDepositCost": "3902400",
				"executionCost": "infinite",
				"totalCost": "infinite"
			},
			"external": {
				"FUSE_THRESHOLD()": "2405",
				"GAME_STOP_THRESHOLD()": "308",
				"HASH_GAME_MAX()": "285",
				"HASH_GAME_MIN()": "284",
				"MIN_AMOUNT()": "2361",
				"USDT()": "305",
				"WBNB()": "2426",
				"_uniswapPair()": "2426",
				"_uniswapV2Router()": "infinite",
				"allowance(address,address)": "infinite",
				"antiDumpMode()": "2366",
				"approve(address,uint256)": "24785",
				"balanceOf(address)": "2642",
				"batchSetWhitelist(address[],bool)": "infinite",
				"calculateRewardRates()": "infinite",
				"calculateStaticReward(address)": "infinite",
				"decimals()": "288",
				"dividendDistributor()": "2469",
				"feeAddress()": "2449",
				"fundAddress()": "2447",
				"fundRewardTotal()": "2407",
				"fused()": "2383",
				"fusing()": "infinite",
				"gameStopped()": "2368",
				"getCirculation()": "4583",
				"getDynamicRewardRate(uint256)": "560",
				"getPoolTokenAmount()": "infinite",
				"getUpsChildList(address)": "infinite",
				"getUserStatus(address)": "21919",
				"getWithdrawPenaltyRate()": "infinite",
				"isCanBindInviter(address,address)": "infinite",
				"lastPrice()": "2386",
				"lastPriceUpdateDay()": "2363",
				"mainNFT()": "2404",
				"name()": "infinite",
				"nft()": "2470",
				"nftRewardTotal()": "2361",
				"owner()": "2398",
				"pool()": "2471",
				"preUps(address,address)": "infinite",
				"renounceOwnership()": "infinite",
				"sediment()": "infinite",
				"setDividendDistributor(address)": "26861",
				"setMainSubNFT(address,address)": "infinite",
				"setNFT(address)": "26837",
				"setStartTime(uint256)": "46763",
				"setWhitelist(address,bool)": "infinite",
				"startTime()": "2363",
				"subNFT()": "2469",
				"symbol()": "infinite",
				"totalSupply()": "2382",
				"tradingOpenTime()": "2361",
				"transfer(address,uint256)": "infinite",
				"transferFrom(address,address,uint256)": "infinite",
				"transferOwnership(address)": "infinite",
				"users(address)": "21893",
				"usersBuyTime(address)": "2622",
				"whitelist(address)": "2579"
			},
			"internal": {
				"_distributeStaticReward(address,uint256,uint256,uint256)": "infinite",
				"_distributeToNFT(uint256)": "infinite",
				"_playHashGame(address,uint256)": "infinite",
				"_update(address,address,uint256)": "infinite",
				"_updateAntiDumpMode()": "infinite",
				"calculateDynamicReward(address,uint256)": "infinite",
				"distributeLPReward(uint256)": "infinite",
				"getBNBForTokenAmount(uint256)": "infinite",
				"getFeeLP(uint256,uint256,uint256)": "infinite",
				"isAddLiquidity(uint256)": "infinite",
				"isRemoveLiquidity()": "infinite",
				"min(uint256,uint256)": "60",
				"processStaticReward(address)": "infinite",
				"safeTransferETH(address,uint256)": "infinite",
				"sellFee()": "infinite",
				"sqrt(uint256)": "infinite",
				"swapAndAddLiquidity(uint256)": "infinite",
				"swapTokenAndAddLiquidity(uint256)": "infinite"
			}
		},
		"methodIdentifiers": {
			"FUSE_THRESHOLD()": "b4a2e463",
			"GAME_STOP_THRESHOLD()": "061e431c",
			"HASH_GAME_MAX()": "7c659472",
			"HASH_GAME_MIN()": "27b48142",
			"MIN_AMOUNT()": "ddbcb5fa",
			"USDT()": "c54e44eb",
			"WBNB()": "8dd95002",
			"_uniswapPair()": "4bf28fd0",
			"_uniswapV2Router()": "583e0568",
			"allowance(address,address)": "dd62ed3e",
			"antiDumpMode()": "42b10c59",
			"approve(address,uint256)": "095ea7b3",
			"balanceOf(address)": "70a08231",
			"batchSetWhitelist(address[],bool)": "a095e8f9",
			"calculateRewardRates()": "6d476a77",
			"calculateStaticReward(address)": "e8e8fe04",
			"decimals()": "313ce567",
			"dividendDistributor()": "bad3ea6a",
			"feeAddress()": "41275358",
			"fundAddress()": "e82bef29",
			"fundRewardTotal()": "7f054455",
			"fused()": "2529d1a3",
			"fusing()": "47ab459c",
			"gameStopped()": "0430e405",
			"getCirculation()": "bf151cb8",
			"getDynamicRewardRate(uint256)": "3d471d57",
			"getPoolTokenAmount()": "09d46746",
			"getUpsChildList(address)": "440b30e7",
			"getUserStatus(address)": "ea0d5dcd",
			"getWithdrawPenaltyRate()": "94a28097",
			"isCanBindInviter(address,address)": "d1227343",
			"lastPrice()": "053f14da",
			"lastPriceUpdateDay()": "177ae044",
			"mainNFT()": "48e66c04",
			"name()": "06fdde03",
			"nft()": "47ccca02",
			"nftRewardTotal()": "cca3c5ff",
			"owner()": "8da5cb5b",
			"pool()": "16f0115b",
			"preUps(address,address)": "fd36e3c6",
			"renounceOwnership()": "715018a6",
			"sediment()": "c82c3cbf",
			"setDividendDistributor(address)": "32516d48",
			"setMainSubNFT(address,address)": "e16f3c59",
			"setNFT(address)": "f56e9c66",
			"setStartTime(uint256)": "3e0a322d",
			"setWhitelist(address,bool)": "53d6fd59",
			"startTime()": "78e97925",
			"subNFT()": "dd6c4398",
			"symbol()": "95d89b41",
			"totalSupply()": "18160ddd",
			"tradingOpenTime()": "5e2d0df1",
			"transfer(address,uint256)": "a9059cbb",
			"transferFrom(address,address,uint256)": "23b872dd",
			"transferOwnership(address)": "f2fde38b",
			"users(address)": "a87430ba",
			"usersBuyTime(address)": "a52ee3af",
			"whitelist(address)": "9b19251a"
		}
	},
	"abi": [
		{
			"inputs": [
				{
					"internalType": "address",
					"name": "user_",
					"type": "address"
				},
				{
					"internalType": "address",
					"name": "fund_",
					"type": "address"
				},
				{
					"internalType": "address",
					"name": "fee_",
					"type": "address"
				}
			],
			"stateMutability": "nonpayable",
			"type": "constructor"
		},
		{
			"inputs": [
				{
					"internalType": "address",
					"name": "spender",
					"type": "address"
				},
				{
					"internalType": "uint256",
					"name": "allowance",
					"type": "uint256"
				},
				{
					"internalType": "uint256",
					"name": "needed",
					"type": "uint256"
				}
			],
			"name": "ERC20InsufficientAllowance",
			"type": "error"
		},
		{
			"inputs": [
				{
					"internalType": "address",
					"name": "sender",
					"type": "address"
				},
				{
					"internalType": "uint256",
					"name": "balance",
					"type": "uint256"
				},
				{
					"internalType": "uint256",
					"name": "needed",
					"type": "uint256"
				}
			],
			"name": "ERC20InsufficientBalance",
			"type": "error"
		},
		{
			"inputs": [
				{
					"internalType": "address",
					"name": "approver",
					"type": "address"
				}
			],
			"name": "ERC20InvalidApprover",
			"type": "error"
		},
		{
			"inputs": [
				{
					"internalType": "address",
					"name": "receiver",
					"type": "address"
				}
			],
			"name": "ERC20InvalidReceiver",
			"type": "error"
		},
		{
			"inputs": [
				{
					"internalType": "address",
					"name": "sender",
					"type": "address"
				}
			],
			"name": "ERC20InvalidSender",
			"type": "error"
		},
		{
			"inputs": [
				{
					"internalType": "address",
					"name": "spender",
					"type": "address"
				}
			],
			"name": "ERC20InvalidSpender",
			"type": "error"
		},
		{
			"inputs": [],
			"name": "GameStopped",
			"type": "error"
		},
		{
			"inputs": [],
			"name": "InvalidTransfer",
			"type": "error"
		},
		{
			"inputs": [],
			"name": "NodeAlreadyExist",
			"type": "error"
		},
		{
			"inputs": [
				{
					"internalType": "address",
					"name": "owner",
					"type": "address"
				}
			],
			"name": "OwnableInvalidOwner",
			"type": "error"
		},
		{
			"inputs": [
				{
					"internalType": "address",
					"name": "account",
					"type": "address"
				}
			],
			"name": "OwnableUnauthorizedAccount",
			"type": "error"
		},
		{
			"anonymous": false,
			"inputs": [
				{
					"indexed": false,
					"internalType": "uint256",
					"name": "day",
					"type": "uint256"
				},
				{
					"indexed": false,
					"internalType": "uint256",
					"name": "priceDrop",
					"type": "uint256"
				}
			],
			"name": "AntiDumpTriggered",
			"type": "event"
		},
		{
			"anonymous": false,
			"inputs": [
				{
					"indexed": true,
					"internalType": "address",
					"name": "owner",
					"type": "address"
				},
				{
					"indexed": true,
					"internalType": "address",
					"name": "spender",
					"type": "address"
				},
				{
					"indexed": false,
					"internalType": "uint256",
					"name": "value",
					"type": "uint256"
				}
			],
			"name": "Approval",
			"type": "event"
		},
		{
			"anonymous": false,
			"inputs": [
				{
					"indexed": true,
					"internalType": "address",
					"name": "up",
					"type": "address"
				},
				{
					"indexed": true,
					"internalType": "address",
					"name": "down",
					"type": "address"
				}
			],
			"name": "BindEvent",
			"type": "event"
		},
		{
			"anonymous": false,
			"inputs": [
				{
					"indexed": true,
					"internalType": "address",
					"name": "player",
					"type": "address"
				},
				{
					"indexed": false,
					"internalType": "uint256",
					"name": "amount",
					"type": "uint256"
				},
				{
					"indexed": true,
					"internalType": "bool",
					"name": "win",
					"type": "bool"
				},
				{
					"indexed": false,
					"internalType": "uint256",
					"name": "payout",
					"type": "uint256"
				}
			],
			"name": "HashGamePlayed",
			"type": "event"
		},
		{
			"anonymous": false,
			"inputs": [
				{
					"indexed": true,
					"internalType": "address",
					"name": "invite",
					"type": "address"
				},
				{
					"indexed": false,
					"internalType": "uint256",
					"name": "amount",
					"type": "uint256"
				}
			],
			"name": "InvestEvent",
			"type": "event"
		},
		{
			"anonymous": false,
			"inputs": [
				{
					"indexed": true,
					"internalType": "address",
					"name": "previousOwner",
					"type": "address"
				},
				{
					"indexed": true,
					"internalType": "address",
					"name": "newOwner",
					"type": "address"
				}
			],
			"name": "OwnershipTransferred",
			"type": "event"
		},
		{
			"anonymous": false,
			"inputs": [
				{
					"indexed": true,
					"internalType": "address",
					"name": "from",
					"type": "address"
				},
				{
					"indexed": true,
					"internalType": "address",
					"name": "to",
					"type": "address"
				},
				{
					"indexed": false,
					"internalType": "uint256",
					"name": "value",
					"type": "uint256"
				}
			],
			"name": "Transfer",
			"type": "event"
		},
		{
			"inputs": [],
			"name": "FUSE_THRESHOLD",
			"outputs": [
				{
					"internalType": "uint256",
					"name": "",
					"type": "uint256"
				}
			],
			"stateMutability": "view",
			"type": "function"
		},
		{
			"inputs": [],
			"name": "GAME_STOP_THRESHOLD",
			"outputs": [
				{
					"internalType": "uint256",
					"name": "",
					"type": "uint256"
				}
			],
			"stateMutability": "view",
			"type": "function"
		},
		{
			"inputs": [],
			"name": "HASH_GAME_MAX",
			"outputs": [
				{
					"internalType": "uint256",
					"name": "",
					"type": "uint256"
				}
			],
			"stateMutability": "view",
			"type": "function"
		},
		{
			"inputs": [],
			"name": "HASH_GAME_MIN",
			"outputs": [
				{
					"internalType": "uint256",
					"name": "",
					"type": "uint256"
				}
			],
			"stateMutability": "view",
			"type": "function"
		},
		{
			"inputs": [],
			"name": "MIN_AMOUNT",
			"outputs": [
				{
					"internalType": "uint256",
					"name": "",
					"type": "uint256"
				}
			],
			"stateMutability": "view",
			"type": "function"
		},
		{
			"inputs": [],
			"name": "USDT",
			"outputs": [
				{
					"internalType": "address",
					"name": "",
					"type": "address"
				}
			],
			"stateMutability": "view",
			"type": "function"
		},
		{
			"inputs": [],
			"name": "WBNB",
			"outputs": [
				{
					"internalType": "address",
					"name": "",
					"type": "address"
				}
			],
			"stateMutability": "view",
			"type": "function"
		},
		{
			"inputs": [],
			"name": "_uniswapPair",
			"outputs": [
				{
					"internalType": "address",
					"name": "",
					"type": "address"
				}
			],
			"stateMutability": "view",
			"type": "function"
		},
		{
			"inputs": [],
			"name": "_uniswapV2Router",
			"outputs": [
				{
					"internalType": "contract IUniswapV2Router02",
					"name": "",
					"type": "address"
				}
			],
			"stateMutability": "view",
			"type": "function"
		},
		{
			"inputs": [
				{
					"internalType": "address",
					"name": "owner",
					"type": "address"
				},
				{
					"internalType": "address",
					"name": "spender",
					"type": "address"
				}
			],
			"name": "allowance",
			"outputs": [
				{
					"internalType": "uint256",
					"name": "",
					"type": "uint256"
				}
			],
			"stateMutability": "view",
			"type": "function"
		},
		{
			"inputs": [],
			"name": "antiDumpMode",
			"outputs": [
				{
					"internalType": "bool",
					"name": "",
					"type": "bool"
				}
			],
			"stateMutability": "view",
			"type": "function"
		},
		{
			"inputs": [
				{
					"internalType": "address",
					"name": "spender",
					"type": "address"
				},
				{
					"internalType": "uint256",
					"name": "value",
					"type": "uint256"
				}
			],
			"name": "approve",
			"outputs": [
				{
					"internalType": "bool",
					"name": "",
					"type": "bool"
				}
			],
			"stateMutability": "nonpayable",
			"type": "function"
		},
		{
			"inputs": [
				{
					"internalType": "address",
					"name": "account",
					"type": "address"
				}
			],
			"name": "balanceOf",
			"outputs": [
				{
					"internalType": "uint256",
					"name": "",
					"type": "uint256"
				}
			],
			"stateMutability": "view",
			"type": "function"
		},
		{
			"inputs": [
				{
					"internalType": "address[]",
					"name": "accounts",
					"type": "address[]"
				},
				{
					"internalType": "bool",
					"name": "status",
					"type": "bool"
				}
			],
			"name": "batchSetWhitelist",
			"outputs": [],
			"stateMutability": "nonpayable",
			"type": "function"
		},
		{
			"inputs": [],
			"name": "calculateRewardRates",
			"outputs": [
				{
					"internalType": "uint256",
					"name": "staticRate",
					"type": "uint256"
				},
				{
					"internalType": "uint256",
					"name": "dynamicRate",
					"type": "uint256"
				},
				{
					"internalType": "uint256",
					"name": "nftRate",
					"type": "uint256"
				},
				{
					"internalType": "uint256",
					"name": "projectRate",
					"type": "uint256"
				}
			],
			"stateMutability": "view",
			"type": "function"
		},
		{
			"inputs": [
				{
					"internalType": "address",
					"name": "user",
					"type": "address"
				}
			],
			"name": "calculateStaticReward",
			"outputs": [
				{
					"internalType": "uint256",
					"name": "",
					"type": "uint256"
				}
			],
			"stateMutability": "view",
			"type": "function"
		},
		{
			"inputs": [],
			"name": "decimals",
			"outputs": [
				{
					"internalType": "uint8",
					"name": "",
					"type": "uint8"
				}
			],
			"stateMutability": "view",
			"type": "function"
		},
		{
			"inputs": [],
			"name": "dividendDistributor",
			"outputs": [
				{
					"internalType": "address",
					"name": "",
					"type": "address"
				}
			],
			"stateMutability": "view",
			"type": "function"
		},
		{
			"inputs": [],
			"name": "feeAddress",
			"outputs": [
				{
					"internalType": "address",
					"name": "",
					"type": "address"
				}
			],
			"stateMutability": "view",
			"type": "function"
		},
		{
			"inputs": [],
			"name": "fundAddress",
			"outputs": [
				{
					"internalType": "address",
					"name": "",
					"type": "address"
				}
			],
			"stateMutability": "view",
			"type": "function"
		},
		{
			"inputs": [],
			"name": "fundRewardTotal",
			"outputs": [
				{
					"internalType": "uint256",
					"name": "",
					"type": "uint256"
				}
			],
			"stateMutability": "view",
			"type": "function"
		},
		{
			"inputs": [],
			"name": "fused",
			"outputs": [
				{
					"internalType": "bool",
					"name": "",
					"type": "bool"
				}
			],
			"stateMutability": "view",
			"type": "function"
		},
		{
			"inputs": [],
			"name": "fusing",
			"outputs": [],
			"stateMutability": "nonpayable",
			"type": "function"
		},
		{
			"inputs": [],
			"name": "gameStopped",
			"outputs": [
				{
					"internalType": "bool",
					"name": "",
					"type": "bool"
				}
			],
			"stateMutability": "view",
			"type": "function"
		},
		{
			"inputs": [],
			"name": "getCirculation",
			"outputs": [
				{
					"internalType": "uint256",
					"name": "",
					"type": "uint256"
				}
			],
			"stateMutability": "view",
			"type": "function"
		},
		{
			"inputs": [
				{
					"internalType": "uint256",
					"name": "generation",
					"type": "uint256"
				}
			],
			"name": "getDynamicRewardRate",
			"outputs": [
				{
					"internalType": "uint256",
					"name": "",
					"type": "uint256"
				}
			],
			"stateMutability": "pure",
			"type": "function"
		},
		{
			"inputs": [],
			"name": "getPoolTokenAmount",
			"outputs": [
				{
					"internalType": "uint256",
					"name": "",
					"type": "uint256"
				}
			],
			"stateMutability": "view",
			"type": "function"
		},
		{
			"inputs": [
				{
					"internalType": "address",
					"name": "account",
					"type": "address"
				}
			],
			"name": "getUpsChildList",
			"outputs": [
				{
					"internalType": "address[]",
					"name": "",
					"type": "address[]"
				}
			],
			"stateMutability": "view",
			"type": "function"
		},
		{
			"inputs": [
				{
					"internalType": "address",
					"name": "user",
					"type": "address"
				}
			],
			"name": "getUserStatus",
			"outputs": [
				{
					"internalType": "uint256",
					"name": "bnbTotal",
					"type": "uint256"
				},
				{
					"internalType": "bool",
					"name": "isBuy",
					"type": "bool"
				},
				{
					"internalType": "bool",
					"name": "staticDrawStatus",
					"type": "bool"
				}
			],
			"stateMutability": "view",
			"type": "function"
		},
		{
			"inputs": [],
			"name": "getWithdrawPenaltyRate",
			"outputs": [
				{
					"internalType": "uint256",
					"name": "",
					"type": "uint256"
				}
			],
			"stateMutability": "view",
			"type": "function"
		},
		{
			"inputs": [
				{
					"internalType": "address",
					"name": "from",
					"type": "address"
				},
				{
					"internalType": "address",
					"name": "to",
					"type": "address"
				}
			],
			"name": "isCanBindInviter",
			"outputs": [
				{
					"internalType": "bool",
					"name": "",
					"type": "bool"
				}
			],
			"stateMutability": "view",
			"type": "function"
		},
		{
			"inputs": [],
			"name": "lastPrice",
			"outputs": [
				{
					"internalType": "uint256",
					"name": "",
					"type": "uint256"
				}
			],
			"stateMutability": "view",
			"type": "function"
		},
		{
			"inputs": [],
			"name": "lastPriceUpdateDay",
			"outputs": [
				{
					"internalType": "uint256",
					"name": "",
					"type": "uint256"
				}
			],
			"stateMutability": "view",
			"type": "function"
		},
		{
			"inputs": [],
			"name": "mainNFT",
			"outputs": [
				{
					"internalType": "address",
					"name": "",
					"type": "address"
				}
			],
			"stateMutability": "view",
			"type": "function"
		},
		{
			"inputs": [],
			"name": "name",
			"outputs": [
				{
					"internalType": "string",
					"name": "",
					"type": "string"
				}
			],
			"stateMutability": "view",
			"type": "function"
		},
		{
			"inputs": [],
			"name": "nft",
			"outputs": [
				{
					"internalType": "address",
					"name": "",
					"type": "address"
				}
			],
			"stateMutability": "view",
			"type": "function"
		},
		{
			"inputs": [],
			"name": "nftRewardTotal",
			"outputs": [
				{
					"internalType": "uint256",
					"name": "",
					"type": "uint256"
				}
			],
			"stateMutability": "view",
			"type": "function"
		},
		{
			"inputs": [],
			"name": "owner",
			"outputs": [
				{
					"internalType": "address",
					"name": "",
					"type": "address"
				}
			],
			"stateMutability": "view",
			"type": "function"
		},
		{
			"inputs": [],
			"name": "pool",
			"outputs": [
				{
					"internalType": "contract Pool",
					"name": "",
					"type": "address"
				}
			],
			"stateMutability": "view",
			"type": "function"
		},
		{
			"inputs": [
				{
					"internalType": "address",
					"name": "",
					"type": "address"
				},
				{
					"internalType": "address",
					"name": "",
					"type": "address"
				}
			],
			"name": "preUps",
			"outputs": [
				{
					"internalType": "bool",
					"name": "",
					"type": "bool"
				}
			],
			"stateMutability": "view",
			"type": "function"
		},
		{
			"inputs": [],
			"name": "renounceOwnership",
			"outputs": [],
			"stateMutability": "nonpayable",
			"type": "function"
		},
		{
			"inputs": [],
			"name": "sediment",
			"outputs": [],
			"stateMutability": "nonpayable",
			"type": "function"
		},
		{
			"inputs": [
				{
					"internalType": "address",
					"name": "_distributor",
					"type": "address"
				}
			],
			"name": "setDividendDistributor",
			"outputs": [],
			"stateMutability": "nonpayable",
			"type": "function"
		},
		{
			"inputs": [
				{
					"internalType": "address",
					"name": "_main",
					"type": "address"
				},
				{
					"internalType": "address",
					"name": "_sub",
					"type": "address"
				}
			],
			"name": "setMainSubNFT",
			"outputs": [],
			"stateMutability": "nonpayable",
			"type": "function"
		},
		{
			"inputs": [
				{
					"internalType": "address",
					"name": "_nft",
					"type": "address"
				}
			],
			"name": "setNFT",
			"outputs": [],
			"stateMutability": "nonpayable",
			"type": "function"
		},
		{
			"inputs": [
				{
					"internalType": "uint256",
					"name": "startTime_",
					"type": "uint256"
				}
			],
			"name": "setStartTime",
			"outputs": [],
			"stateMutability": "nonpayable",
			"type": "function"
		},
		{
			"inputs": [
				{
					"internalType": "address",
					"name": "account",
					"type": "address"
				},
				{
					"internalType": "bool",
					"name": "status",
					"type": "bool"
				}
			],
			"name": "setWhitelist",
			"outputs": [],
			"stateMutability": "nonpayable",
			"type": "function"
		},
		{
			"inputs": [],
			"name": "startTime",
			"outputs": [
				{
					"internalType": "uint256",
					"name": "",
					"type": "uint256"
				}
			],
			"stateMutability": "view",
			"type": "function"
		},
		{
			"inputs": [],
			"name": "subNFT",
			"outputs": [
				{
					"internalType": "address",
					"name": "",
					"type": "address"
				}
			],
			"stateMutability": "view",
			"type": "function"
		},
		{
			"inputs": [],
			"name": "symbol",
			"outputs": [
				{
					"internalType": "string",
					"name": "",
					"type": "string"
				}
			],
			"stateMutability": "view",
			"type": "function"
		},
		{
			"inputs": [],
			"name": "totalSupply",
			"outputs": [
				{
					"internalType": "uint256",
					"name": "",
					"type": "uint256"
				}
			],
			"stateMutability": "view",
			"type": "function"
		},
		{
			"inputs": [],
			"name": "tradingOpenTime",
			"outputs": [
				{
					"internalType": "uint256",
					"name": "",
					"type": "uint256"
				}
			],
			"stateMutability": "view",
			"type": "function"
		},
		{
			"inputs": [
				{
					"internalType": "address",
					"name": "to",
					"type": "address"
				},
				{
					"internalType": "uint256",
					"name": "value",
					"type": "uint256"
				}
			],
			"name": "transfer",
			"outputs": [
				{
					"internalType": "bool",
					"name": "",
					"type": "bool"
				}
			],
			"stateMutability": "nonpayable",
			"type": "function"
		},
		{
			"inputs": [
				{
					"internalType": "address",
					"name": "from",
					"type": "address"
				},
				{
					"internalType": "address",
					"name": "to",
					"type": "address"
				},
				{
					"internalType": "uint256",
					"name": "value",
					"type": "uint256"
				}
			],
			"name": "transferFrom",
			"outputs": [
				{
					"internalType": "bool",
					"name": "",
					"type": "bool"
				}
			],
			"stateMutability": "nonpayable",
			"type": "function"
		},
		{
			"inputs": [
				{
					"internalType": "address",
					"name": "newOwner",
					"type": "address"
				}
			],
			"name": "transferOwnership",
			"outputs": [],
			"stateMutability": "nonpayable",
			"type": "function"
		},
		{
			"inputs": [
				{
					"internalType": "address",
					"name": "",
					"type": "address"
				}
			],
			"name": "users",
			"outputs": [
				{
					"internalType": "address",
					"name": "up",
					"type": "address"
				},
				{
					"internalType": "uint256",
					"name": "bnbTotal",
					"type": "uint256"
				},
				{
					"internalType": "uint256",
					"name": "lpTotal",
					"type": "uint256"
				},
				{
					"internalType": "uint256",
					"name": "staticDrawAt",
					"type": "uint256"
				},
				{
					"internalType": "uint256",
					"name": "lastClaimTime",
					"type": "uint256"
				},
				{
					"internalType": "uint256",
					"name": "directTotal",
					"type": "uint256"
				},
				{
					"internalType": "uint256",
					"name": "directBuyTotal",
					"type": "uint256"
				},
				{
					"internalType": "uint256",
					"name": "validTotal",
					"type": "uint256"
				},
				{
					"internalType": "uint256",
					"name": "totalStaticClaimed",
					"type": "uint256"
				},
				{
					"internalType": "bool",
					"name": "staticDrawStatus",
					"type": "bool"
				},
				{
					"internalType": "bool",
					"name": "isBuy",
					"type": "bool"
				}
			],
			"stateMutability": "view",
			"type": "function"
		},
		{
			"inputs": [
				{
					"internalType": "address",
					"name": "",
					"type": "address"
				}
			],
			"name": "usersBuyTime",
			"outputs": [
				{
					"internalType": "uint256",
					"name": "",
					"type": "uint256"
				}
			],
			"stateMutability": "view",
			"type": "function"
		},
		{
			"inputs": [
				{
					"internalType": "address",
					"name": "",
					"type": "address"
				}
			],
			"name": "whitelist",
			"outputs": [
				{
					"internalType": "bool",
					"name": "",
					"type": "bool"
				}
			],
			"stateMutability": "view",
			"type": "function"
		},
		{
			"stateMutability": "payable",
			"type": "receive"
		}
	]
}