{
	"data": {
		"bytecode": {
			"linkReferences": {},
			"object": "60a06040526a52b7d2dcc80cd2e400000060115566071afd498d0000601455601780546001600160a01b03191673e6a45d5f3e5d38103f9b1358672ded68fdf6835f1790556019805460ff60a81b1916600160a81b179055348015610062575f5ffd5b50604051618a73380380618a7383398101604081905261008191613322565b6040805180820182526005808252642927a6a0a760d91b6020808401829052845180860190955291845290830152339160036100bd83826133f6565b5060046100ca82826133f6565b5050506001600160a01b0381166100fb57604051631e4fbdf760e01b81525f60048201526024015b60405180910390fd5b6101048161033b565b5073d99d1c33f9fc3444f8101754abc46c52416550d16080819052604080516315ab88c960e31b8152905163ad5c4648916004808201926020929091908290030181865afa158015610158573d5f5f3e3d5ffd5b505050506040513d601f19601f8201168201806040525081019061017c91906134b0565b600b5f6101000a8154816001600160a01b0302191690836001600160a01b031602179055506080516001600160a01b031663c45a01556040518163ffffffff1660e01b8152600401602060405180830381865afa1580156101df573d5f5f3e3d5ffd5b505050506040513d601f19601f8201168201806040525081019061020391906134b0565b600b546040516364e329cb60e11b81523060048201526001600160a01b03918216602482015291169063c9c65396906044016020604051808303815f875af1158015610251573d5f5f3e3d5ffd5b505050506040513d601f19601f8201168201806040525081019061027591906134b0565b600680546001600160a01b03199081166001600160a01b0393841617909155601880548216858416179055601980549091169183169190911790556040516102bc906132ff565b604051809103905ff0801580156102d5573d5f5f3e3d5ffd5b50601080546001600160a01b0319166001600160a01b03929092169190911790556369aaba1f601581905561030d9062278d006134dd565b601655610333836103206012600a6135d3565b61032e90633b9aca006135e1565b61038c565b5050506138ee565b600580546001600160a01b038381166001600160a01b0319831681179093556040519116919082907f8be0079c531659141344cd1fd0a4f28419497f9722a3daafe3b4186f6b6457e0905f90a35050565b6001600160a01b0382166103b55760405163ec442f0560e01b81525f60048201526024016100f2565b6103c05f83836103c4565b5050565b671bc16d674ec800008114801561040057506001600160a01b038083165f9081526007602090815260408083209387168352929052205460ff16155b80156104115750610411838361106b565b15610446576001600160a01b038084165f908152600760209081526040808320938616835292905220805460ff191660011790555b670de0b6b3a76400008114801561048157506001600160a01b038083165f9081526007602090815260408083209387168352929052205460ff165b80156104a457506001600160a01b038381165f908152600a602052604090205416155b1561052c576001600160a01b038381165f908152600a6020908152604080832080546001600160a01b031916948716948517905592825260089052206104ea90846111b4565b50816001600160a01b0316836001600160a01b03167f8d63f2e3d39eb6cf9c80d49bc203133f6f215ce2a1a3d27a68f0167f6c045d4860405160405180910390a35b6001600160a01b0382163014801561054357503332145b156105d6576001600160a01b0383165f908152601d602052604090205460ff16158015610579575068056bc75e2d631000008110155b801561058f575069152d02c7e14af68000008111155b801561059e5750601e5460ff16155b80156105c25750305f9081526020819052604090205469021e19e0c9bab240000011155b156105d6576105d183826111cf565b505050565b6001600160a01b038084165f908152600a6020908152604091829020825161016081018452815490941684526001810154918401919091526002810154918301919091526003810154606083015260048101546080830152600581015460a0830152600681015460c0830152600781015460e083015260088101546101008084019190915260099091015460ff8082161515610120850152919004161515610140820152333214801561068b57508061014001515b801561069a57505f8160400151115b80156106ae57506001600160a01b03831630145b1561097e57670de0b6b3a764000082036107b957806101200151610727576001600160a01b0384165f908152600a60205260409020600901805460ff191660011790556106fc42603c6134dd565b6001600160a01b0385165f908152600a602052604090206003810191909155426004909101556107b9565b806101200151801561073d575080606001514210155b156107a05761074b846113c9565b61075642603c6134dd565b6001600160a01b0385165f908152600a602052604090206003810191909155426004909101556107878484846116f4565b61079a3085670de0b6b3a76400006116f4565b50505050565b604051632f35253160e01b815260040160405180910390fd5b678ac7230489e8000082036109735742601554106108055760405162461bcd60e51b8152602060048201526009602482015268737461727454696d6560b81b60448201526064016100f2565b604081015180156108d2575f61081961181a565b90508015610854575f606482856040015161083491906135e1565b61083e919061360c565b9050808460400151610850919061361f565b9250505b81156108d05760065460405163a9059cbb60e01b81526001600160a01b038881166004830152602482018590529091169063a9059cbb906044016020604051808303815f875af11580156108aa573d5f5f3e3d5ffd5b505050506040513d601f19601f820116820180604052508101906108ce9190613632565b505b505b6001600160a01b038086165f908152600a6020526040808220600981018054600283018590556001830185905561ffff1916905560048101839055600801829055845190921681522060070154156109565781516001600160a01b03165f908152600a6020526040812060070180546001929061095090849061361f565b90915550505b6109618585856116f4565b61096c3086856116f4565b5050505050565b61079a8484846116f4565b6001600160a01b03841630148061099d57506001600160a01b03831630145b806109b557506010546001600160a01b038581169116145b806109cd57506010546001600160a01b038481169116145b156109dd5761079a8484846116f4565b6006546001600160a01b0390811690851603610cf3574260155410610a305760405162461bcd60e51b8152602060048201526009602482015268737461727454696d6560b81b60448201526064016100f2565b325f908152600960205260408120429055610a49611849565b1115610b1f575f80610a596119de565b90506b033b2e3c9fd0803ce80000008110610a8c57600a610a7b8560096135e1565b610a85919061360c565b9150610aee565b6b019d971e4fe8401e740000008110610aac57600a610a7b8560066135e1565b6a52b7d2dcc80cd2e40000008110610acb57600a610a7b8560046135e1565b6a295be96e640669720000008110610aea57600a610a7b8560026135e1565b8391505b610afb8661dead846116f4565b81841115610b1757610b178686610b12858861361f565b6116f4565b505050505050565b6064610b29611ae2565b610b349060056135e1565b610b3e919061360c565b8210610b785760405162461bcd60e51b815260206004820152600960248201526836b0bc103a37b5b2b760b91b60448201526064016100f2565b610b80611b22565b601c545f9060ff16610b945761012c610b98565b610b545b61ffff1690505f612710610bac83866135e1565b610bb6919061360c565b90505f612710610bc88661012c6135e1565b610bd2919061360c565b601c549091505f9060ff168015610be857508183115b15610c3857610bf7828461361f565b90505f610c0560028361360c565b9050610c128930836116f4565b610c1c818361361f565b60125f828254610c2c91906134dd565b92505081905550829350505b5f600a610c468560076135e1565b610c50919061360c565b90508060125f828254610c6391906134dd565b909155505f9050600a610c778660016135e1565b610c81919061360c565b9050610c908a61dead836116f4565b5f81610c9c848861361f565b610ca6919061361f565b90508060135f828254610cb991906134dd565b90915550610cca90508b30856116f4565b610cd58b30836116f4565b610cdf84876134dd565b610ce9908a61361f565b9850505050505050505b6006546001600160a01b039081169084160361106357601954600160a81b900460ff1615610def5760065460408051630240bc6b60e21b815290516001600160a01b03909216915f9182918491630902f1ac9160048083019260609291908290030181865afa158015610d68573d5f5f3e3d5ffd5b505050506040513d601f19601f82011682018060405250810190610d8c9190613667565b5091509150816001600160701b03165f148015610db057506001600160701b038116155b8015610dc55750601954600160a81b900460ff165b15610deb576019805460ff60a81b19169055610de28787876116f4565b50505050505050565b5050505b610dfa600a4261361f565b325f9081526009602052604090205410610e3b5760405162461bcd60e51b815260206004820152600260248201526118d960f21b60448201526064016100f2565b5f610e4583611d81565b11611063574260155410610e875760405162461bcd60e51b8152602060048201526009602482015268737461727454696d6560b81b60448201526064016100f2565b6064610e91611ae2565b610e9c90600a6135e1565b610ea6919061360c565b8210610ee05760405162461bcd60e51b815260206004820152600960248201526836b0bc103a37b5b2b760b91b60448201526064016100f2565b610ee8611b22565b601c545f9060ff16610efc5761012c610f00565b610b545b61ffff1690505f612710610f1483866135e1565b610f1e919061360c565b90505f612710610f308661012c6135e1565b610f3a919061360c565b601c549091505f9060ff168015610f5057508183115b15610fa057610f5f828461361f565b90505f610f6d60028361360c565b9050610f7a8930836116f4565b610f84818361361f565b60125f828254610f9491906134dd565b92505081905550829350505b5f600a610fae8560076135e1565b610fb8919061360c565b90508060125f828254610fcb91906134dd565b909155505f9050600a610fdf8660016135e1565b610fe9919061360c565b9050610ff88a61dead836116f4565b5f81611004848861361f565b61100e919061361f565b90508060135f82825461102191906134dd565b9091555061103290508b30856116f4565b61103d8b30836116f4565b61104784876134dd565b611051908a61361f565b985061105b611f79565b505050505050505b6109736121b9565b6001600160a01b038281165f908152600a60205260408120549091161580156110a257506017546001600160a01b03848116911614155b80156110bc57506006546001600160a01b03838116911614155b80156110d657506006546001600160a01b03848116911614155b156110e257505f6111ae565b6001600160a01b038084165f9081526007602090815260408083209386168352929052205460ff16806111265750816001600160a01b0316836001600160a01b0316145b1561113257505f6111ae565b815f5b6001600160a01b03821615801590611150575060198160ff16105b156111a757846001600160a01b0316826001600160a01b031603611178575f925050506111ae565b6001600160a01b039182165f908152600a6020526040902054909116908061119f816136b3565b915050611135565b6001925050505b92915050565b5f6111c8836001600160a01b038416612338565b9392505050565b5f6111db600a836136d1565b90505f6111e96002836136d1565b1590505f6111f860014361361f565b4090508061120f5761120b60024361361f565b4090505b60ff81165f61121f600a836136f8565b90505f61122d6002836136f8565b60ff1615905084151581145f6112448960026135e1565b90505f60646112548b60056135e1565b61125e919061360c565b90505f61126b828c61361f565b600f549091506001600160a01b03161580159061128757505f82115b156112a457600f546112a4908d906001600160a01b0316846116f4565b6112af8c30836116f4565b831561138757305f90815260208190526040902054838110611318576112d6308e866116f4565b600115158d6001600160a01b03165f516020618a535f395f51905f528e8760405161130b929190918252602082015260400190565b60405180910390a3611381565b801561132957611329308e836116f4565b6001601e5f6101000a81548160ff021916908315150217905550600115158d6001600160a01b03165f516020618a535f395f51905f528e84604051611378929190918252602082015260400190565b60405180910390a35b506113bb565b604080518c81525f60208201819052916001600160a01b038f16915f516020618a535f395f51905f52910160405180910390a35b505050505050505050505050565b6001600160a01b038082165f908152600a6020908152604091829020825161016081018452815490941684526001810154918401919091526002810154918301919091526003810154606083015260048101546080830152600581015460a0830152600681015460c0830152600781015460e083015260088101546101008084019190915260099091015460ff80821615156101208501529190041615801561014083018190529061147d57508061012001515b6114c95760405162461bcd60e51b815260206004820152601b60248201527f53746174696320726577617264206e6f7420617661696c61626c65000000000060448201526064016100f2565b5f6114d383612384565b90505f81116115105760405162461bcd60e51b8152602060048201526009602482015268139bc81c995dd85c9960ba1b60448201526064016100f2565b5f80808061151c6125a1565b60208a0151939750919550935091505f620186a061153a84846135e1565b611544919061360c565b620186a061155286856135e1565b61155c919061360c565b620186a061156a88866135e1565b611574919061360c565b61157e908a6134dd565b61158891906134dd565b61159291906134dd565b90505f61159e826125f3565b90506115ac8a898484612714565b5f82620186a06115bc88876135e1565b6115c6919061360c565b6115d090846135e1565b6115da919061360c565b905080156115eb576115eb81612804565b5f83620186a06115fb88886135e1565b611605919061360c565b61160f90856135e1565b611619919061360c565b905080156116995760065460185460405163a9059cbb60e01b81526001600160a01b0391821660048201526024810184905291169063a9059cbb906044016020604051808303815f875af1158015611673573d5f5f3e3d5ffd5b505050506040513d601f19601f820116820180604052508101906116979190613632565b505b6001600160a01b038c165f908152600a6020526040812060080180548c92906116c39084906134dd565b9091555050506001600160a01b03909a165f908152600a602052604090204260049091015550505050505050505050565b6001600160a01b03831661171e578060025f82825461171391906134dd565b9091555061178e9050565b6001600160a01b0383165f90815260208190526040902054818110156117705760405163391434e360e21b81526001600160a01b038516600482015260248101829052604481018390526064016100f2565b6001600160a01b0384165f9081526020819052604090209082900390555b6001600160a01b0382166117aa576002805482900390556117c8565b6001600160a01b0382165f9081526020819052604090208054820190555b816001600160a01b0316836001600160a01b03167fddf252ad1be2c89b69c2b068fc378daa952ba7f163c4a11628f55a4df523b3ef8360405161180d91815260200190565b60405180910390a3505050565b5f806118246119de565b90506a52b7d2dcc80cd2e400000081111561184157603291505090565b601491505090565b5f5f60065f9054906101000a90046001600160a01b03166001600160a01b0316630902f1ac6040518163ffffffff1660e01b8152600401606060405180830381865afa15801561189b573d5f5f3e3d5ffd5b505050506040513d601f19601f820116820180604052508101906118bf9190613667565b5050600b546006546040516370a0823160e01b81526001600160a01b0391821660048201526001600160701b039390931693505f929116906370a0823190602401602060405180830381865afa15801561191b573d5f5f3e3d5ffd5b505050506040513d601f19601f8201168201806040525081019061193f9190613719565b9050808211156119d957600654604080516318160ddd60e01b815290515f926001600160a01b0316916318160ddd9160048083019260209291908290030181865afa158015611990573d5f5f3e3d5ffd5b505050506040513d601f19601f820116820180604052508101906119b49190613719565b9050816119c1818561361f565b6119cb90836135e1565b6119d5919061360c565b9350505b505090565b60065460408051630240bc6b60e21b815290515f926001600160a01b031691839182918491630902f1ac916004808201926060929091908290030181865afa158015611a2c573d5f5f3e3d5ffd5b505050506040513d601f19601f82011682018060405250810190611a509190613667565b50915091505f836001600160a01b0316630dfe16816040518163ffffffff1660e01b8152600401602060405180830381865afa158015611a92573d5f5f3e3d5ffd5b505050506040513d601f19601f82011682018060405250810190611ab691906134b0565b90506001600160a01b0381163014611ace5781611ad0565b825b6001600160701b031694505050505090565b61dead5f90815260208190527f44ad89ba62b98ff34f51403ac22759b55759460c0bb5521eb4b6ee3cff49cf8354600254611b1d919061361f565b905090565b60065460408051630240bc6b60e21b815290516001600160a01b03909216915f9182918491630902f1ac9160048083019260609291908290030181865afa158015611b6f573d5f5f3e3d5ffd5b505050506040513d601f19601f82011682018060405250810190611b939190613667565b5091509150816001600160701b03165f1480611bb657506001600160701b038116155b15611bc057505050565b5f836001600160a01b0316630dfe16816040518163ffffffff1660e01b8152600401602060405180830381865afa158015611bfd573d5f5f3e3d5ffd5b505050506040513d601f19601f82011682018060405250810190611c2191906134b0565b90505f6001600160a01b0382163014611c3a5782611c3c565b835b6001600160701b031690505f6001600160a01b0383163014611c5e5784611c60565b835b6001600160701b03169050805f03611c7a57505050505050565b5f82611c8e83670de0b6b3a76400006135e1565b611c98919061360c565b90505f611ca8620151804261360c565b9050601a54811115611d77575f601b54118015611cde57506064601b54605c611cd191906135e1565b611cdb919061360c565b82105b15611d6157601c805460ff19166001179055601b547f0e9560271ff9c39b91baaaafebb009e70ad170a54ab31a72f4b884680b076682908290611d21575f611d44565b601b54611d2e858261361f565b611d3a906127106135e1565b611d44919061360c565b6040805192835260208301919091520160405180910390a1611d6c565b601c805460ff191690555b601b829055601a8190555b5050505050505050565b6080515f906001600160a01b03163303611f74575f5f60065f9054906101000a90046001600160a01b03166001600160a01b0316630902f1ac6040518163ffffffff1660e01b8152600401606060405180830381865afa158015611de7573d5f5f3e3d5ffd5b505050506040513d601f19601f82011682018060405250810190611e0b9190613667565b50600b546006546040516370a0823160e01b81526001600160a01b0391821660048201526001600160701b0394851696509290931693505f9216906370a0823190602401602060405180830381865afa158015611e6a573d5f5f3e3d5ffd5b505050506040513d601f19601f82011682018060405250810190611e8e9190613719565b905082811115611f7057600654604080516318160ddd60e01b815290515f926001600160a01b0316916318160ddd9160048083019260209291908290030181865afa158015611edf573d5f5f3e3d5ffd5b505050506040513d601f19601f82011682018060405250810190611f039190613719565b9050805f03611f185750600195945050505050565b611f23818385612a7a565b611f2d90826134dd565b9050611f6c8482611f3e828661361f565b611f4891906135e1565b611f52919061360c565b84611f5d848a6135e1565b611f67919061360c565b612b6f565b9450505b5050505b919050565b5f601354601254611f8a91906134dd565b9050670de0b6b3a7640000811015611f9f5750565b611fb23060805183612b8460201b60201c565b6040805160028082526060820183525f9260208301908036833701905050905030815f81518110611fe557611fe56136e4565b6001600160a01b039283166020918202929092010152600b54825191169082906001908110612016576120166136e4565b6001600160a01b03928316602091820292909201015260805160405163791ac94760e01b815291169063791ac9479061205b9085905f90869030904290600401613773565b5f604051808303815f87803b158015612072575f5ffd5b505af1158015612084573d5f5f3e3d5ffd5b50506013544792505f9150849061209b90846135e1565b6120a5919061360c565b6019549091506120be906001600160a01b031682612b91565b5f6120c9828461361f565b90505f811180156120e45750600f546001600160a01b031615155b1561217557600f546040515f916001600160a01b03169083908381818185875af1925050503d805f8114612133576040519150601f19603f3d011682016040523d82523d5f602084013e612138565b606091505b50509050801580156121545750600c546001600160a01b031615155b1561216f57600c5461216f906001600160a01b031683612b91565b506121a9565b5f8111801561218e5750600c546001600160a01b031615155b156121a957600c546121a9906001600160a01b031682612b91565b50505f6012819055601355505050565b60065460408051630240bc6b60e21b815290516001600160a01b03909216915f9182918491630902f1ac9160048083019260609291908290030181865afa158015612206573d5f5f3e3d5ffd5b505050506040513d601f19601f8201168201806040525081019061222a9190613667565b5091509150816001600160701b03165f148061224d57506001600160701b038116155b1561225757505050565b5f836001600160a01b0316630dfe16816040518163ffffffff1660e01b8152600401602060405180830381865afa158015612294573d5f5f3e3d5ffd5b505050506040513d601f19601f820116820180604052508101906122b891906134b0565b90505f6001600160a01b03821630146122d157826122d3565b835b6001600160701b0316905060115481101561231257601054600160a01b900460ff1661230d576010805460ff60a01b1916600160a01b1790555b61096c565b601054600160a01b900460ff161561096c576010805460ff60a01b191690555050505050565b5f81815260018301602052604081205461237d57508154600181810184555f8481526020808220909301849055845484825282860190935260409020919091556111ae565b505f6111ae565b6001600160a01b038082165f908152600a60209081526040808320815161016081018352815490951685526001810154928501929092526002820154908401526003810154606084015260048101546080840152600581015460a0840152600681015460c0840152600781015460e084015260088101546101008085019190915260099091015460ff808216151561012086015291900416158015610140840152909190806124365750806101200151155b1561244357505f92915050565b6001600160a01b0383165f908152600960205260408120549081900361246c57505f9392505050565b5f6201518061247b834261361f565b612485919061360c565b905060c881111561249a57505f949350505050565b5f6124a36125a1565b5050509050607d8211156124b657506103e85b60208401515f620186a06124ca84846135e1565b6124d4919061360c565b90505f61012c90505f5f8860800151116124ee57866124f4565b87608001515b90505f612501824261361f565b90505f61250e848361360c565b9050805f0361252857505f9b9a5050505050505050505050565b845f61253483836135e1565b90505f6125428960036135e1565b905080828e610100015161255691906134dd565b111561258f57808d61010001511061257c57505f9e9d5050505050505050505050505050565b6101008d015161258c908261361f565b91505b509d9c50505050505050505050505050565b5f808080806125ae6119de565b90506a52b7d2dcc80cd2e40000008111156125da576106405f61012c603c9450945094509450506125ed565b6103e85f61012c603c9450945094509450505b90919293565b6040805160028082526060820183525f92839291906020830190803683375050600b5482519293506001600160a01b0316918391505f90612636576126366136e4565b60200260200101906001600160a01b031690816001600160a01b031681525050308160018151811061266a5761266a6136e4565b6001600160a01b03928316602091820292909201015260805160405163d06ca61f60e01b81525f92919091169063d06ca61f906126ad90879086906004016137ae565b5f60405180830381865afa1580156126c7573d5f5f3e3d5ffd5b505050506040513d5f823e601f3d908101601f191682016040526126ee91908101906137ce565b905080600181518110612703576127036136e4565b602002602001015192505050919050565b5f60028361272286856135e1565b61272c919061360c565b612736919061360c565b90505f60028461274687866135e1565b612750919061360c565b61275a919061360c565b9050811561276d5761276d3087846116f4565b8015610b17575f61277d82612bf4565b60065460405163a9059cbb60e01b81526001600160a01b038a811660048301526024820184905292935091169063a9059cbb906044016020604051808303815f875af11580156127cf573d5f5f3e3d5ffd5b505050506040513d601f19601f820116820180604052508101906127f39190613632565b508015610de257611d778782612f67565b600d546001600160a01b0316158015906128285750600e546001600160a01b031615155b156129f0575f600a61283b8360076135e1565b612845919061360c565b90505f612852828461361f565b90506016544210156128d557600654600e5460405163a9059cbb60e01b81526001600160a01b0391821660048201526024810186905291169063a9059cbb906044015b6020604051808303815f875af11580156128b1573d5f5f3e3d5ffd5b505050506040513d601f19601f8201168201806040525081019061079a9190613632565b6016546128e59062278d006134dd565b42101561292757600654600e5460405163a9059cbb60e01b81526001600160a01b0391821660048201526024810186905291169063a9059cbb90604401612895565b600654600d5460405163a9059cbb60e01b81526001600160a01b0391821660048201526024810185905291169063a9059cbb906044016020604051808303815f875af1158015612979573d5f5f3e3d5ffd5b505050506040513d601f19601f8201168201806040525081019061299d9190613632565b50600654600e5460405163a9059cbb60e01b81526001600160a01b0391821660048201526024810184905291169063a9059cbb906044016020604051808303815f875af11580156128b1573d5f5f3e3d5ffd5b600c546001600160a01b031615612a7757600654600c5460405163a9059cbb60e01b81526001600160a01b0391821660048201526024810184905291169063a9059cbb906044016020604051808303815f875af1158015612a53573d5f5f3e3d5ffd5b505050506040513d601f19601f820116820180604052508101906103c09190613632565b50565b5f80612a8e612a8984866135e1565b613139565b90505f612b0860065f9054906101000a90046001600160a01b03166001600160a01b0316637464fc3d6040518163ffffffff1660e01b8152600401602060405180830381865afa158015612ae4573d5f5f3e3d5ffd5b505050506040513d601f19601f82011682018060405250810190612a899190613719565b905080821115612b66575f612b1d828461361f565b612b2790886135e1565b612b329060086135e1565b90505f612b408360086135e1565b612b4b8560116135e1565b612b5591906134dd565b9050612b61818361360c565b945050505b50509392505050565b5f818310612b7d57816111c8565b5090919050565b6105d183838360016131a6565b604080515f808252602082019092526001600160a01b038416908390604051612bba9190613895565b5f6040518083038185875af1925050503d805f8114610b17576040519150601f19603f3d011682016040523d82523d5f602084013e610b17565b5f80612c0160028461360c565b6040805160028082526060820183529293505f92909160208301908036833701905050905030815f81518110612c3957612c396136e4565b6001600160a01b039283166020918202929092010152600b54825191169082906001908110612c6a57612c6a6136e4565b6001600160a01b039283166020918202929092010152600654612c8f911630866116f4565b60065f9054906101000a90046001600160a01b03166001600160a01b031663fff6cae96040518163ffffffff1660e01b81526004015f604051808303815f87803b158015612cdb575f5ffd5b505af1158015612ced573d5f5f3e3d5ffd5b50505050612d043060805186612b8460201b60201c565b608051601054604051635c11d79560e01b81526001600160a01b0392831692635c11d79592612d409287925f9288929116904290600401613773565b5f604051808303815f87803b158015612d57575f5ffd5b505af1158015612d69573d5f5f3e3d5ffd5b5050600b546010546040516370a0823160e01b81526001600160a01b0391821660048201525f9450911691506370a0823190602401602060405180830381865afa158015612db9573d5f5f3e3d5ffd5b505050506040513d601f19601f82011682018060405250810190612ddd9190613719565b601054600b5460405163092dfdb360e11b81526001600160a01b03918216600482015230602482015260448101849052929350169063125bfb66906064015f604051808303815f87803b158015612e32575f5ffd5b505af1158015612e44573d5f5f3e3d5ffd5b5050600b5460805160405163095ea7b360e01b81526001600160a01b039182166004820152602481018690529116925063095ea7b391506044016020604051808303815f875af1158015612e9a573d5f5f3e3d5ffd5b505050506040513d601f19601f82011682018060405250810190612ebe9190613632565b50608051600b5460405162e8e33760e81b81526001600160a01b039182166004820152306024820181905260448201859052606482018790525f6084830181905260a483015260c48201524260e482015291169063e8e3370090610104016060604051808303815f875af1158015612f38573d5f5f3e3d5ffd5b505050506040513d601f19601f82011682018060405250810190612f5c91906138ab565b979650505050505050565b6001600160a01b038083165f908152600a602090815260408083208151610160810183528154909516808652600180830154948701949094526002820154928601929092526003810154606086015260048101546080860152600581015460a0860152600681015460c0860152600781015460e086015260088101546101008087019190915260099091015460ff80821615156101208801529190041615156101408501529192919060145b6001600160a01b0383161580159061302b5750808211155b1561312f575f61303a83613278565b90505f6064613049838a6135e1565b613053919061360c565b905080156130fe576001600160a01b0385165f908152600a602052604090206007015484116130fe5760065460405163a9059cbb60e01b81526001600160a01b038781166004830152602482018490529091169063a9059cbb906044016020604051808303815f875af11580156130cc573d5f5f3e3d5ffd5b505050506040513d601f19601f820116820180604052508101906130f09190613632565b506130fb81886134dd565b96505b6001600160a01b039485165f908152600a60205260409020549094169383613125816138d6565b9450505050613013565b5050505092915050565b5f60038211156131985750805f61315160028361360c565b61315c9060016134dd565b90505b8181101561319257905080600281613177818661360c565b61318191906134dd565b61318b919061360c565b905061315f565b50919050565b8115611f7457506001919050565b6001600160a01b0384166131cf5760405163e602df0560e01b81525f60048201526024016100f2565b6001600160a01b0383166131f857604051634a1406b160e11b81525f60048201526024016100f2565b6001600160a01b038085165f908152600160209081526040808320938716835292905220829055801561079a57826001600160a01b0316846001600160a01b03167f8c5be1e5ebec7d5bd14f71427d1e84f3dd0314c0f7b2291e5b200ac8c7c3b9258460405161326a91815260200190565b60405180910390a350505050565b5f816001036132895750600a919050565b8160020361329957506005919050565b816003036132a957506003919050565b600482101580156132bb575060118211155b156132c857506001919050565b816012036132d857506003919050565b816013036132e857506005919050565b816014036132f85750600a919050565b505f919050565b6105058061854e83390190565b80516001600160a01b0381168114611f74575f5ffd5b5f5f5f60608486031215613334575f5ffd5b61333d8461330c565b925061334b6020850161330c565b91506133596040850161330c565b90509250925092565b634e487b7160e01b5f52604160045260245ffd5b600181811c9082168061338a57607f821691505b60208210810361319257634e487b7160e01b5f52602260045260245ffd5b601f8211156105d157828211156105d157805f5260205f20601f840160051c60208510156133d357505f5b90810190601f840160051c035f5b81811015610b17575f838201556001016133e1565b81516001600160401b0381111561340f5761340f613362565b6134238161341d8454613376565b846133a8565b6020601f821160018114613455575f831561343e5750848201515b5f19600385901b1c1916600184901b17845561096c565b5f84815260208120601f198516915b828110156134845787850151825560209485019460019092019101613464565b50848210156134a157868401515f19600387901b60f8161c191681555b50505050600190811b01905550565b5f602082840312156134c0575f5ffd5b6111c88261330c565b634e487b7160e01b5f52601160045260245ffd5b808201808211156111ae576111ae6134c9565b6001815b600184111561352b5780850481111561350f5761350f6134c9565b600184161561351d57908102905b60019390931c9280026134f4565b935093915050565b5f82613541575060016111ae565b8161354d57505f6111ae565b8160018114613563576002811461356d57613589565b60019150506111ae565b60ff84111561357e5761357e6134c9565b50506001821b6111ae565b5060208310610133831016604e8410600b84101617156135ac575081810a6111ae565b6135b85f1984846134f0565b805f19048211156135cb576135cb6134c9565b029392505050565b5f6111c860ff841683613533565b80820281158282048414176111ae576111ae6134c9565b634e487b7160e01b5f52601260045260245ffd5b5f8261361a5761361a6135f8565b500490565b818103818111156111ae576111ae6134c9565b5f60208284031215613642575f5ffd5b815180151581146111c8575f5ffd5b80516001600160701b0381168114611f74575f5ffd5b5f5f5f60608486031215613679575f5ffd5b61368284613651565b925061369060208501613651565b9150604084015163ffffffff811681146136a8575f5ffd5b809150509250925092565b5f60ff821660ff81036136c8576136c86134c9565b60010192915050565b5f826136df576136df6135f8565b500690565b634e487b7160e01b5f52603260045260245ffd5b5f60ff83168061370a5761370a6135f8565b8060ff84160691505092915050565b5f60208284031215613729575f5ffd5b5051919050565b5f8151808452602084019350602083015f5b828110156137695781516001600160a01b0316865260209586019590910190600101613742565b5093949350505050565b85815284602082015260a060408201525f61379160a0830186613730565b6001600160a01b0394909416606083015250608001529392505050565b828152604060208201525f6137c66040830184613730565b949350505050565b5f602082840312156137de575f5ffd5b81516001600160401b038111156137f3575f5ffd5b8201601f81018413613803575f5ffd5b80516001600160401b0381111561381c5761381c613362565b604051600582901b90603f8201601f191681016001600160401b038111828210171561384a5761384a613362565b604052918252602081840181019290810187841115613867575f5ffd5b6020850194505b8385101561388a5784518082526020958601959093500161386e565b509695505050505050565b5f82518060208501845e5f920191825250919050565b5f5f5f606084860312156138bd575f5ffd5b5050815160208301516040909301519094929350919050565b5f600182016138e7576138e76134c9565b5060010190565b608051614bfb6139535f395f81816108ab01528181610f0601528181610fb6015281816110110152818161350d01528181613743015281816137f101528181613a78015281816140c8015281816141070152818161427801526143320152614bfb5ff3fe608060405260043610610374575f3560e01c806378e97925116101c8578063bf151cb8116100fd578063ddbcb5fa1161009d578063ea0d5dcd1161006d578063ea0d5dcd14610d0d578063f2fde38b14610df0578063f56e9c6614610e0f578063fd36e3c614610e2e575f5ffd5b8063ddbcb5fa14610c9b578063e16f3c5914610cb0578063e82bef2914610ccf578063e8e8fe0414610cee575f5ffd5b8063cca3c5ff116100d8578063cca3c5ff14610c04578063d122734314610c19578063dd62ed3e14610c38578063dd6c439814610c7c575f5ffd5b8063bf151cb814610bb5578063c54e44eb14610bc9578063c82c3cbf14610bf0575f5ffd5b80639b19251a11610168578063a87430ba11610143578063a87430ba14610a81578063a9059cbb14610b62578063b4a2e46314610b81578063bad3ea6a14610b96575f5ffd5b80639b19251a14610a09578063a095e8f914610a37578063a52ee3af14610a56575f5ffd5b80638da5cb5b116101a35780638da5cb5b146109a55780638dd95002146109c257806394a28097146109e157806395d89b41146109f5575f5ffd5b806378e979251461095e5780637c659472146109735780637f05445514610990575f5ffd5b80633d471d57116102a957806348e66c04116102495780635e2d0df1116102195780635e2d0df1146108cd5780636d476a77146108e257806370a0823114610916578063715018a61461094a575f5ffd5b806348e66c041461083d5780634bf28fd01461085c57806353d6fd591461087b578063583e05681461089a575f5ffd5b806342b10c591161028457806342b10c59146107c5578063440b30e7146107de57806347ab459c1461080a57806347ccca021461081e575f5ffd5b80633d471d57146107685780633e0a322d1461078757806341275358146107a6575f5ffd5b8063177ae044116103145780632529d1a3116102ef5780632529d1a3146106f257806327b4814214610712578063313ce5671461072e57806332516d4814610749575f5ffd5b8063177ae044146106aa57806318160ddd146106bf57806323b872dd146106d3575f5ffd5b806306fdde031161034f57806306fdde031461061f578063095ea7b31461064057806309d467461461065f57806316f0115b14610673575f5ffd5b80630430e405146105b1578063053f14da146105df578063061e431c14610602575f5ffd5b366105ad57335f818152600a60205260409020546001600160a01b03169034903290036105ab5760145481101580156103c957506001600160a01b0382161515806103c957506017546001600160a01b031633145b1561059257335f908152600a6020526040902060090154610100900460ff1661045c57335f908152600a60205260409020600901805461ff0019166101001790556001600160a01b0382161561044a576001600160a01b0382165f908152600a602052604081206007018054600192906104449084906145fb565b90915550505b335f9081526009602052604090204290555b5f606461046a83600361460e565b6104749190614639565b90505f610481828461464c565b600f549091506001600160a01b03161580159061049d57505f82115b156104f657600f546040515f916001600160a01b03169084908381818185875af1925050503d805f81146104ec576040519150601f19603f3d011682016040523d82523d5f602084013e6104f1565b606091505b505050505b5f61050a610505600284614639565b610e67565b335f908152600a60205260408120600101805492935084929091906105309084906145fb565b9091555050335f908152600a6020526040812060020180548392906105569084906145fb565b909155505060405184815233907f5f41f00e6c90dea5837402efbf3e658a1f1df8db3b19624b133bc1df0444f7ea9060200160405180910390a2005b60405163236c6e5b60e01b815260040160405180910390fd5b005b5f5ffd5b3480156105bc575f5ffd5b50601e546105ca9060ff1681565b60405190151581526020015b60405180910390f35b3480156105ea575f5ffd5b506105f4601b5481565b6040519081526020016105d6565b34801561060d575f5ffd5b506105f469021e19e0c9bab240000081565b34801561062a575f5ffd5b50610633611090565b6040516105d6919061465f565b34801561064b575f5ffd5b506105ca61065a3660046146a8565b611120565b34801561066a575f5ffd5b506105f4611139565b34801561067e575f5ffd5b50601054610692906001600160a01b031681565b6040516001600160a01b0390911681526020016105d6565b3480156106b5575f5ffd5b506105f4601a5481565b3480156106ca575f5ffd5b506002546105f4565b3480156106de575f5ffd5b506105ca6106ed3660046146d2565b61123d565b3480156106fd575f5ffd5b506010546105ca90600160a01b900460ff1681565b34801561071d575f5ffd5b506105f468056bc75e2d6310000081565b348015610739575f5ffd5b50604051601281526020016105d6565b348015610754575f5ffd5b506105ab610763366004614710565b611260565b348015610773575f5ffd5b506105f461078236600461472b565b61128a565b348015610792575f5ffd5b506105ab6107a136600461472b565b611311565b3480156107b1575f5ffd5b50601954610692906001600160a01b031681565b3480156107d0575f5ffd5b50601c546105ca9060ff1681565b3480156107e9575f5ffd5b506107fd6107f8366004614710565b611331565b6040516105d69190614785565b348015610815575f5ffd5b506105ab611354565b348015610829575f5ffd5b50600c54610692906001600160a01b031681565b348015610848575f5ffd5b50600d54610692906001600160a01b031681565b348015610867575f5ffd5b50600654610692906001600160a01b031681565b348015610886575f5ffd5b506105ab6108953660046147a4565b6114d4565b3480156108a5575f5ffd5b506106927f000000000000000000000000000000000000000000000000000000000000000081565b3480156108d8575f5ffd5b506105f460165481565b3480156108ed575f5ffd5b506108f6611506565b6040805194855260208501939093529183015260608201526080016105d6565b348015610921575f5ffd5b506105f4610930366004614710565b6001600160a01b03165f9081526020819052604090205490565b348015610955575f5ffd5b506105ab611558565b348015610969575f5ffd5b506105f460155481565b34801561097e575f5ffd5b506105f469152d02c7e14af680000081565b34801561099b575f5ffd5b506105f460135481565b3480156109b0575f5ffd5b506005546001600160a01b0316610692565b3480156109cd575f5ffd5b50600b54610692906001600160a01b031681565b3480156109ec575f5ffd5b506105f461156b565b348015610a00575f5ffd5b5061063361159a565b348015610a14575f5ffd5b506105ca610a23366004614710565b601d6020525f908152604090205460ff1681565b348015610a42575f5ffd5b506105ab610a513660046147db565b6115a9565b348015610a61575f5ffd5b506105f4610a70366004614710565b60096020525f908152604090205481565b348015610a8c575f5ffd5b50610b01610a9b366004614710565b600a6020525f908152604090208054600182015460028301546003840154600485015460058601546006870154600788015460088901546009909901546001600160a01b0390981698969795969495939492939192909160ff808216916101009004168b565b604080516001600160a01b03909c168c5260208c019a909a52988a01979097526060890195909552608088019390935260a087019190915260c086015260e085015261010084015215156101208301521515610140820152610160016105d6565b348015610b6d575f5ffd5b506105ca610b7c3660046146a8565b61161b565b348015610b8c575f5ffd5b506105f460115481565b348015610ba1575f5ffd5b50600f54610692906001600160a01b031681565b348015610bc0575f5ffd5b506105f4611628565b348015610bd4575f5ffd5b506106927355d398326f99059ff775485246999027b319795581565b348015610bfb575f5ffd5b506105ab611668565b348015610c0f575f5ffd5b506105f460125481565b348015610c24575f5ffd5b506105ca610c3336600461485d565b61179b565b348015610c43575f5ffd5b506105f4610c5236600461485d565b6001600160a01b039182165f90815260016020908152604080832093909416825291909152205490565b348015610c87575f5ffd5b50600e54610692906001600160a01b031681565b348015610ca6575f5ffd5b506105f460145481565b348015610cbb575f5ffd5b506105ab610cca36600461485d565b6118d7565b348015610cda575f5ffd5b50601854610692906001600160a01b031681565b348015610cf9575f5ffd5b506105f4610d08366004614710565b61190d565b348015610d18575f5ffd5b50610dd3610d27366004614710565b6001600160a01b039081165f908152600a60209081526040918290208251610160810184528154909416845260018101549184018290526002810154928401929092526003820154606084015260048201546080840152600582015460a0840152600682015460c0840152600782015460e084015260088201546101008085019190915260099092015460ff808216151561012086018190529390910416151561014090930183905292565b6040805193845291151560208401521515908201526060016105d6565b348015610dfb575f5ffd5b506105ab610e0a366004614710565b611b2a565b348015610e1a575f5ffd5b506105ab610e29366004614710565b611b6c565b348015610e39575f5ffd5b506105ca610e4836600461485d565b600760209081525f928352604080842090915290825290205460ff1681565b6040805160028082526060820183525f92839291906020830190803683375050600b5482519293506001600160a01b0316918391505f90610eaa57610eaa61489d565b60200260200101906001600160a01b031690816001600160a01b0316815250503081600181518110610ede57610ede61489d565b6001600160a01b03928316602091820292909201015260105460405163b6f9de9560e01b81527f000000000000000000000000000000000000000000000000000000000000000083169263b6f9de95928792610f45925f92889291169042906004016148b1565b5f604051808303818588803b158015610f5c575f5ffd5b505af1158015610f6e573d5f5f3e3d5ffd5b50506010546001600160a01b03165f908152602081905260408120549093509150610f969050565b601054909150610fb0906001600160a01b03163083611b96565b610fdb307f000000000000000000000000000000000000000000000000000000000000000083611cbc565b60405163f305d71960e01b81523060048201819052602482018390525f60448301819052606483015260848201524260a48201527f00000000000000000000000000000000000000000000000000000000000000006001600160a01b03169063f305d71990869060c40160606040518083038185885af1158015611061573d5f5f3e3d5ffd5b50505050506040513d601f19601f8201168201806040525081019061108691906148e5565b9695505050505050565b60606003805461109f90614910565b80601f01602080910402602001604051908101604052809291908181526020018280546110cb90614910565b80156111165780601f106110ed57610100808354040283529160200191611116565b820191905f5260205f20905b8154815290600101906020018083116110f957829003601f168201915b5050505050905090565b5f3361112d818585611cbc565b60019150505b92915050565b60065460408051630240bc6b60e21b815290515f926001600160a01b031691839182918491630902f1ac916004808201926060929091908290030181865afa158015611187573d5f5f3e3d5ffd5b505050506040513d601f19601f820116820180604052508101906111ab9190614958565b50915091505f836001600160a01b0316630dfe16816040518163ffffffff1660e01b8152600401602060405180830381865afa1580156111ed573d5f5f3e3d5ffd5b505050506040513d601f19601f820116820180604052508101906112119190614999565b90506001600160a01b0381163014611229578161122b565b825b6001600160701b031694505050505090565b5f3361124a858285611cce565b611255858585611d44565b506001949350505050565b611268611da1565b600f80546001600160a01b0319166001600160a01b0392909216919091179055565b5f8160010361129b5750600a919050565b816002036112ab57506005919050565b816003036112bb57506003919050565b600482101580156112cd575060118211155b156112da57506001919050565b816012036112ea57506003919050565b816013036112fa57506005919050565b8160140361130a5750600a919050565b505f919050565b611319611da1565b601581905561132b8162278d006145fb565b60165550565b6001600160a01b0381165f90815260086020526040902060609061113390611dce565b60065460408051630240bc6b60e21b815290516001600160a01b03909216915f9182918491630902f1ac9160048083019260609291908290030181865afa1580156113a1573d5f5f3e3d5ffd5b505050506040513d601f19601f820116820180604052508101906113c59190614958565b5091509150816001600160701b03165f14806113e857506001600160701b038116155b156113f257505050565b5f836001600160a01b0316630dfe16816040518163ffffffff1660e01b8152600401602060405180830381865afa15801561142f573d5f5f3e3d5ffd5b505050506040513d601f19601f820116820180604052508101906114539190614999565b90505f6001600160a01b038216301461146c578261146e565b835b6001600160701b031690506011548110156114ad57601054600160a01b900460ff166114a8576010805460ff60a01b1916600160a01b1790555b6114cd565b601054600160a01b900460ff16156114cd576010805460ff60a01b191690555b5050505050565b6114dc611da1565b6001600160a01b03919091165f908152601d60205260409020805460ff1916911515919091179055565b5f5f5f5f5f611513611139565b90506a52b7d2dcc80cd2e400000081111561153f576106405f61012c603c945094509450945050611552565b6103e85f61012c603c9450945094509450505b90919293565b611560611da1565b6115695f611de1565b565b5f5f611575611139565b90506a52b7d2dcc80cd2e400000081111561159257603291505090565b601491505090565b60606004805461109f90614910565b6115b1611da1565b5f5b828110156116155781601d5f8686858181106115d1576115d161489d565b90506020020160208101906115e69190614710565b6001600160a01b0316815260208101919091526040015f20805460ff19169115159190911790556001016115b3565b50505050565b5f3361112d818585611d44565b61dead5f90815260208190527f44ad89ba62b98ff34f51403ac22759b55759460c0bb5521eb4b6ee3cff49cf8354600254611663919061464c565b905090565b600b546006546040516370a0823160e01b81523060048201526001600160a01b039283169263a9059cbb92169083906370a0823190602401602060405180830381865afa1580156116bb573d5f5f3e3d5ffd5b505050506040513d601f19601f820116820180604052508101906116df91906149b4565b6040518363ffffffff1660e01b81526004016116fc9291906149cb565b6020604051808303815f875af1158015611718573d5f5f3e3d5ffd5b505050506040513d601f19601f8201168201806040525081019061173c91906149e4565b5060065f9054906101000a90046001600160a01b03166001600160a01b031663fff6cae96040518163ffffffff1660e01b81526004015f604051808303815f87803b158015611789575f5ffd5b505af1158015611615573d5f5f3e3d5ffd5b6001600160a01b038281165f908152600a60205260408120549091161580156117d257506017546001600160a01b03848116911614155b80156117ec57506006546001600160a01b03838116911614155b801561180657506006546001600160a01b03848116911614155b1561181257505f611133565b6001600160a01b038084165f9081526007602090815260408083209386168352929052205460ff16806118565750816001600160a01b0316836001600160a01b0316145b1561186257505f611133565b815f5b6001600160a01b03821615801590611880575060198160ff16105b1561125557846001600160a01b0316826001600160a01b0316036118a8575f92505050611133565b6001600160a01b039182165f908152600a602052604090205490911690806118cf816149ff565b915050611865565b6118df611da1565b600d80546001600160a01b039384166001600160a01b031991821617909155600e8054929093169116179055565b6001600160a01b038082165f908152600a60209081526040808320815161016081018352815490951685526001810154928501929092526002820154908401526003810154606084015260048101546080840152600581015460a0840152600681015460c0840152600781015460e084015260088101546101008085019190915260099091015460ff808216151561012086015291900416158015610140840152909190806119bf5750806101200151155b156119cc57505f92915050565b6001600160a01b0383165f90815260096020526040812054908190036119f557505f9392505050565b5f62015180611a04834261464c565b611a0e9190614639565b905060c8811115611a2357505f949350505050565b5f611a2c611506565b5050509050607d821115611a3f57506103e85b60208401515f620186a0611a53848461460e565b611a5d9190614639565b90505f61012c90505f5f886080015111611a775786611a7d565b87608001515b90505f611a8a824261464c565b90505f611a978483614639565b9050805f03611ab157505f9b9a5050505050505050505050565b845f611abd838361460e565b90505f611acb89600361460e565b905080828e6101000151611adf91906145fb565b1115611b1857808d610100015110611b0557505f9e9d5050505050505050505050505050565b6101008d0151611b15908261464c565b91505b509d9c50505050505050505050505050565b611b32611da1565b6001600160a01b038116611b6057604051631e4fbdf760e01b81525f60048201526024015b60405180910390fd5b611b6981611de1565b50565b611b74611da1565b600c80546001600160a01b0319166001600160a01b0392909216919091179055565b6001600160a01b038316611bc0578060025f828254611bb591906145fb565b90915550611c309050565b6001600160a01b0383165f9081526020819052604090205481811015611c125760405163391434e360e21b81526001600160a01b03851660048201526024810182905260448101839052606401611b57565b6001600160a01b0384165f9081526020819052604090209082900390555b6001600160a01b038216611c4c57600280548290039055611c6a565b6001600160a01b0382165f9081526020819052604090208054820190555b816001600160a01b0316836001600160a01b03167fddf252ad1be2c89b69c2b068fc378daa952ba7f163c4a11628f55a4df523b3ef83604051611caf91815260200190565b60405180910390a3505050565b611cc98383836001611e32565b505050565b6001600160a01b038381165f908152600160209081526040808320938616835292905220545f198110156116155781811015611d3657604051637dc7a0d960e11b81526001600160a01b03841660048201526024810182905260448101839052606401611b57565b61161584848484035f611e32565b6001600160a01b038316611d6d57604051634b637e8f60e11b81525f6004820152602401611b57565b6001600160a01b038216611d965760405163ec442f0560e01b81525f6004820152602401611b57565b611cc9838383611f04565b6005546001600160a01b031633146115695760405163118cdaa760e01b8152336004820152602401611b57565b60605f611dda83612b43565b9392505050565b600580546001600160a01b038381166001600160a01b0319831681179093556040519116919082907f8be0079c531659141344cd1fd0a4f28419497f9722a3daafe3b4186f6b6457e0905f90a35050565b6001600160a01b038416611e5b5760405163e602df0560e01b81525f6004820152602401611b57565b6001600160a01b038316611e8457604051634a1406b160e11b81525f6004820152602401611b57565b6001600160a01b038085165f908152600160209081526040808320938716835292905220829055801561161557826001600160a01b0316846001600160a01b03167f8c5be1e5ebec7d5bd14f71427d1e84f3dd0314c0f7b2291e5b200ac8c7c3b92584604051611ef691815260200190565b60405180910390a350505050565b671bc16d674ec8000081148015611f4057506001600160a01b038083165f9081526007602090815260408083209387168352929052205460ff16155b8015611f515750611f51838361179b565b15611f86576001600160a01b038084165f908152600760209081526040808320938616835292905220805460ff191660011790555b670de0b6b3a764000081148015611fc157506001600160a01b038083165f9081526007602090815260408083209387168352929052205460ff165b8015611fe457506001600160a01b038381165f908152600a602052604090205416155b1561206c576001600160a01b038381165f908152600a6020908152604080832080546001600160a01b0319169487169485179055928252600890522061202a9084612b9c565b50816001600160a01b0316836001600160a01b03167f8d63f2e3d39eb6cf9c80d49bc203133f6f215ce2a1a3d27a68f0167f6c045d4860405160405180910390a35b6001600160a01b0382163014801561208357503332145b15612111576001600160a01b0383165f908152601d602052604090205460ff161580156120b9575068056bc75e2d631000008110155b80156120cf575069152d02c7e14af68000008111155b80156120de5750601e5460ff16155b80156121025750305f9081526020819052604090205469021e19e0c9bab240000011155b1561211157611cc98382612bb0565b6001600160a01b038084165f908152600a6020908152604091829020825161016081018452815490941684526001810154918401919091526002810154918301919091526003810154606083015260048101546080830152600581015460a0830152600681015460c0830152600781015460e083015260088101546101008084019190915260099091015460ff808216151561012085015291900416151561014082015233321480156121c657508061014001515b80156121d557505f8160400151115b80156121e957506001600160a01b03831630145b1561248e57670de0b6b3a764000082036122ee57806101200151612262576001600160a01b0384165f908152600a60205260409020600901805460ff1916600117905561223742603c6145fb565b6001600160a01b0385165f908152600a602052604090206003810191909155426004909101556122ee565b8061012001518015612278575080606001514210155b156122d55761228684612de3565b61229142603c6145fb565b6001600160a01b0385165f908152600a602052604090206003810191909155426004909101556122c2848484611b96565b6116153085670de0b6b3a7640000611b96565b604051632f35253160e01b815260040160405180910390fd5b678ac7230489e80000820361248357426015541061231e5760405162461bcd60e51b8152600401611b5790614a1d565b604081015180156123e9575f61233261156b565b9050801561236d575f606482856040015161234d919061460e565b6123579190614639565b9050808460400151612369919061464c565b9250505b81156123e75760065460405163a9059cbb60e01b81526001600160a01b039091169063a9059cbb906123a590899086906004016149cb565b6020604051808303815f875af11580156123c1573d5f5f3e3d5ffd5b505050506040513d601f19601f820116820180604052508101906123e591906149e4565b505b505b6001600160a01b038086165f908152600a6020526040808220600981018054600283018590556001830185905561ffff19169055600481018390556008018290558451909216815220600701541561246d5781516001600160a01b03165f908152600a6020526040812060070180546001929061246790849061464c565b90915550505b612478858585611b96565b6114cd308685611b96565b611615848484611b96565b6001600160a01b0384163014806124ad57506001600160a01b03831630145b806124c557506010546001600160a01b038581169116145b806124dd57506010546001600160a01b038481169116145b156124ed57611615848484611b96565b6006546001600160a01b03908116908516036127e75742601554106125245760405162461bcd60e51b8152600401611b5790614a1d565b325f90815260096020526040812042905561253d61310e565b1115612613575f5f61254d611139565b90506b033b2e3c9fd0803ce8000000811061258057600a61256f85600961460e565b6125799190614639565b91506125e2565b6b019d971e4fe8401e7400000081106125a057600a61256f85600661460e565b6a52b7d2dcc80cd2e400000081106125bf57600a61256f85600461460e565b6a295be96e6406697200000081106125de57600a61256f85600261460e565b8391505b6125ef8661dead84611b96565b8184111561260b5761260b8686612606858861464c565b611b96565b505050505050565b606461261d611628565b61262890600561460e565b6126329190614639565b821061266c5760405162461bcd60e51b815260206004820152600960248201526836b0bc103a37b5b2b760b91b6044820152606401611b57565b6126746132a3565b601c545f9060ff166126885761012c61268c565b610b545b61ffff1690505f6127106126a0838661460e565b6126aa9190614639565b90505f6127106126bc8661012c61460e565b6126c69190614639565b601c549091505f9060ff1680156126dc57508183115b1561272c576126eb828461464c565b90505f6126f9600283614639565b9050612706893083611b96565b612710818361464c565b60125f82825461272091906145fb565b92505081905550829350505b5f600a61273a85600761460e565b6127449190614639565b90508060125f82825461275791906145fb565b909155505f9050600a61276b86600161460e565b6127759190614639565b90506127848a61dead83611b96565b5f81612790848861464c565b61279a919061464c565b90508060135f8282546127ad91906145fb565b909155506127be90508b3085611b96565b6127c98b3083611b96565b6127d384876145fb565b6127dd908a61464c565b9850505050505050505b6006546001600160a01b0390811690841603612b3b57601954600160a81b900460ff16156128e35760065460408051630240bc6b60e21b815290516001600160a01b03909216915f9182918491630902f1ac9160048083019260609291908290030181865afa15801561285c573d5f5f3e3d5ffd5b505050506040513d601f19601f820116820180604052508101906128809190614958565b5091509150816001600160701b03165f1480156128a457506001600160701b038116155b80156128b95750601954600160a81b900460ff165b156128df576019805460ff60a81b191690556128d6878787611b96565b50505050505050565b5050505b6128ee600a4261464c565b325f908152600960205260409020541061292f5760405162461bcd60e51b815260206004820152600260248201526118d960f21b6044820152606401611b57565b5f61293983613502565b11612b3b57426015541061295f5760405162461bcd60e51b8152600401611b5790614a1d565b6064612969611628565b61297490600a61460e565b61297e9190614639565b82106129b85760405162461bcd60e51b815260206004820152600960248201526836b0bc103a37b5b2b760b91b6044820152606401611b57565b6129c06132a3565b601c545f9060ff166129d45761012c6129d8565b610b545b61ffff1690505f6127106129ec838661460e565b6129f69190614639565b90505f612710612a088661012c61460e565b612a129190614639565b601c549091505f9060ff168015612a2857508183115b15612a7857612a37828461464c565b90505f612a45600283614639565b9050612a52893083611b96565b612a5c818361464c565b60125f828254612a6c91906145fb565b92505081905550829350505b5f600a612a8685600761460e565b612a909190614639565b90508060125f828254612aa391906145fb565b909155505f9050600a612ab786600161460e565b612ac19190614639565b9050612ad08a61dead83611b96565b5f81612adc848861464c565b612ae6919061464c565b90508060135f828254612af991906145fb565b90915550612b0a90508b3085611b96565b612b158b3083611b96565b612b1f84876145fb565b612b29908a61464c565b9850612b33613717565b505050505050505b612483611354565b6060815f01805480602002602001604051908101604052809291908181526020018280548015612b9057602002820191905f5260205f20905b815481526020019060010190808311612b7c575b50505050509050919050565b5f611dda836001600160a01b03841661398e565b5f612bbc600a83614a40565b90505f612bca600283614a40565b1590505f612bd960014361464c565b40905080612bf057612bec60024361464c565b4090505b60ff81165f612c00600a83614a53565b90505f612c0e600283614a53565b60ff1615905084151581145f612c2589600261460e565b90505f6064612c358b600561460e565b612c3f9190614639565b90505f612c4c828c61464c565b600f549091506001600160a01b031615801590612c6857505f82115b15612c8557600f54612c85908d906001600160a01b031684611b96565b612c908c3083611b96565b8315612d8e57305f90815260208190526040902054838110612d0c57612cb7308e86611b96565b600115158d6001600160a01b03167f4dab1356cd0582feb480a4c99e95bb70c5d60b9b3f27d2cd27f5ccc64e6583e08e87604051612cff929190918252602082015260400190565b60405180910390a3612d88565b8015612d1d57612d1d308e83611b96565b6001601e5f6101000a81548160ff021916908315150217905550600115158d6001600160a01b03167f4dab1356cd0582feb480a4c99e95bb70c5d60b9b3f27d2cd27f5ccc64e6583e08e84604051612d7f929190918252602082015260400190565b60405180910390a35b50612dd5565b604080518c81525f60208201819052916001600160a01b038f16917f4dab1356cd0582feb480a4c99e95bb70c5d60b9b3f27d2cd27f5ccc64e6583e0910160405180910390a35b505050505050505050505050565b6001600160a01b038082165f908152600a6020908152604091829020825161016081018452815490941684526001810154918401919091526002810154918301919091526003810154606083015260048101546080830152600581015460a0830152600681015460c0830152600781015460e083015260088101546101008084019190915260099091015460ff808216151561012085015291900416158015610140830181905290612e9757508061012001515b612ee35760405162461bcd60e51b815260206004820152601b60248201527f53746174696320726577617264206e6f7420617661696c61626c6500000000006044820152606401611b57565b5f612eed8361190d565b90505f8111612f2a5760405162461bcd60e51b8152602060048201526009602482015268139bc81c995dd85c9960ba1b6044820152606401611b57565b5f5f5f5f612f36611506565b60208a0151939750919550935091505f620186a0612f54848461460e565b612f5e9190614639565b620186a0612f6c868561460e565b612f769190614639565b620186a0612f84888661460e565b612f8e9190614639565b612f98908a6145fb565b612fa291906145fb565b612fac91906145fb565b90505f612fb8826139da565b9050612fc68a898484613b16565b5f82620186a0612fd6888761460e565b612fe09190614639565b612fea908461460e565b612ff49190614639565b905080156130055761300581613c03565b5f83620186a0613015888861460e565b61301f9190614639565b613029908561460e565b6130339190614639565b905080156130b35760065460185460405163a9059cbb60e01b81526001600160a01b039283169263a9059cbb926130719291169085906004016149cb565b6020604051808303815f875af115801561308d573d5f5f3e3d5ffd5b505050506040513d601f19601f820116820180604052508101906130b191906149e4565b505b6001600160a01b038c165f908152600a6020526040812060080180548c92906130dd9084906145fb565b9091555050506001600160a01b03909a165f908152600a602052604090204260049091015550505050505050505050565b5f5f60065f9054906101000a90046001600160a01b03166001600160a01b0316630902f1ac6040518163ffffffff1660e01b8152600401606060405180830381865afa158015613160573d5f5f3e3d5ffd5b505050506040513d601f19601f820116820180604052508101906131849190614958565b5050600b546006546040516370a0823160e01b81526001600160a01b0391821660048201526001600160701b039390931693505f929116906370a0823190602401602060405180830381865afa1580156131e0573d5f5f3e3d5ffd5b505050506040513d601f19601f8201168201806040525081019061320491906149b4565b90508082111561329e57600654604080516318160ddd60e01b815290515f926001600160a01b0316916318160ddd9160048083019260209291908290030181865afa158015613255573d5f5f3e3d5ffd5b505050506040513d601f19601f8201168201806040525081019061327991906149b4565b905081613286818561464c565b613290908361460e565b61329a9190614639565b9350505b505090565b60065460408051630240bc6b60e21b815290516001600160a01b03909216915f9182918491630902f1ac9160048083019260609291908290030181865afa1580156132f0573d5f5f3e3d5ffd5b505050506040513d601f19601f820116820180604052508101906133149190614958565b5091509150816001600160701b03165f148061333757506001600160701b038116155b1561334157505050565b5f836001600160a01b0316630dfe16816040518163ffffffff1660e01b8152600401602060405180830381865afa15801561337e573d5f5f3e3d5ffd5b505050506040513d601f19601f820116820180604052508101906133a29190614999565b90505f6001600160a01b03821630146133bb57826133bd565b835b6001600160701b031690505f6001600160a01b03831630146133df57846133e1565b835b6001600160701b03169050805f036133fb57505050505050565b5f8261340f83670de0b6b3a764000061460e565b6134199190614639565b90505f6134296201518042614639565b9050601a548111156134f8575f601b5411801561345f57506064601b54605c613452919061460e565b61345c9190614639565b82105b156134e257601c805460ff19166001179055601b547f0e9560271ff9c39b91baaaafebb009e70ad170a54ab31a72f4b884680b0766829082906134a2575f6134c5565b601b546134af858261464c565b6134bb9061271061460e565b6134c59190614639565b6040805192835260208301919091520160405180910390a16134ed565b601c805460ff191690555b601b829055601a8190555b5050505050505050565b5f6001600160a01b037f0000000000000000000000000000000000000000000000000000000000000000163303613712575f5f60065f9054906101000a90046001600160a01b03166001600160a01b0316630902f1ac6040518163ffffffff1660e01b8152600401606060405180830381865afa158015613585573d5f5f3e3d5ffd5b505050506040513d601f19601f820116820180604052508101906135a99190614958565b50600b546006546040516370a0823160e01b81526001600160a01b0391821660048201526001600160701b0394851696509290931693505f9216906370a0823190602401602060405180830381865afa158015613608573d5f5f3e3d5ffd5b505050506040513d601f19601f8201168201806040525081019061362c91906149b4565b90508281111561370e57600654604080516318160ddd60e01b815290515f926001600160a01b0316916318160ddd9160048083019260209291908290030181865afa15801561367d573d5f5f3e3d5ffd5b505050506040513d601f19601f820116820180604052508101906136a191906149b4565b9050805f036136b65750600195945050505050565b6136c1818385613e58565b6136cb90826145fb565b905061370a84826136dc828661464c565b6136e6919061460e565b6136f09190614639565b846136fb848a61460e565b6137059190614639565b613f4d565b9450505b5050505b919050565b5f60135460125461372891906145fb565b9050670de0b6b3a764000081101561373d5750565b613768307f000000000000000000000000000000000000000000000000000000000000000083611cbc565b6040805160028082526060820183525f9260208301908036833701905050905030815f8151811061379b5761379b61489d565b6001600160a01b039283166020918202929092010152600b548251911690829060019081106137cc576137cc61489d565b6001600160a01b03928316602091820292909201015260405163791ac94760e01b81527f00000000000000000000000000000000000000000000000000000000000000009091169063791ac947906138309085905f90869030904290600401614a74565b5f604051808303815f87803b158015613847575f5ffd5b505af1158015613859573d5f5f3e3d5ffd5b50506013544792505f91508490613870908461460e565b61387a9190614639565b601954909150613893906001600160a01b031682613f62565b5f61389e828461464c565b90505f811180156138b95750600f546001600160a01b031615155b1561394a57600f546040515f916001600160a01b03169083908381818185875af1925050503d805f8114613908576040519150601f19603f3d011682016040523d82523d5f602084013e61390d565b606091505b50509050801580156139295750600c546001600160a01b031615155b1561394457600c54613944906001600160a01b031683613f62565b5061397e565b5f811180156139635750600c546001600160a01b031615155b1561397e57600c5461397e906001600160a01b031682613f62565b50505f6012819055601355505050565b5f8181526001830160205260408120546139d357508154600181810184555f848152602080822090930184905584548482528286019093526040902091909155611133565b505f611133565b6040805160028082526060820183525f92839291906020830190803683375050600b5482519293506001600160a01b0316918391505f90613a1d57613a1d61489d565b60200260200101906001600160a01b031690816001600160a01b0316815250503081600181518110613a5157613a5161489d565b6001600160a01b03928316602091820292909201015260405163d06ca61f60e01b81525f917f0000000000000000000000000000000000000000000000000000000000000000169063d06ca61f90613aaf9087908690600401614aaf565b5f60405180830381865afa158015613ac9573d5f5f3e3d5ffd5b505050506040513d5f823e601f3d908101601f19168201604052613af09190810190614acf565b905080600181518110613b0557613b0561489d565b602002602001015192505050919050565b5f600283613b24868561460e565b613b2e9190614639565b613b389190614639565b90505f600284613b48878661460e565b613b529190614639565b613b5c9190614639565b90508115613b6f57613b6f308784611b96565b801561260b575f613b7f82613fc5565b60065460405163a9059cbb60e01b81529192506001600160a01b03169063a9059cbb90613bb2908a9085906004016149cb565b6020604051808303815f875af1158015613bce573d5f5f3e3d5ffd5b505050506040513d601f19601f82011682018060405250810190613bf291906149e4565b5080156128d6576134f887826143aa565b600d546001600160a01b031615801590613c275750600e546001600160a01b031615155b15613dcd575f600a613c3a83600761460e565b613c449190614639565b90505f613c51828461464c565b9050601654421015613cd357600654600e5460405163a9059cbb60e01b81526001600160a01b039283169263a9059cbb92613c939291169087906004016149cb565b6020604051808303815f875af1158015613caf573d5f5f3e3d5ffd5b505050506040513d601f19601f8201168201806040525081019061161591906149e4565b601654613ce39062278d006145fb565b421015613d2057600654600e5460405163a9059cbb60e01b81526001600160a01b039283169263a9059cbb92613c939291169087906004016149cb565b600654600d5460405163a9059cbb60e01b81526001600160a01b039283169263a9059cbb92613d569291169086906004016149cb565b6020604051808303815f875af1158015613d72573d5f5f3e3d5ffd5b505050506040513d601f19601f82011682018060405250810190613d9691906149e4565b50600654600e5460405163a9059cbb60e01b81526001600160a01b039283169263a9059cbb92613c939291169085906004016149cb565b600c546001600160a01b031615611b6957600654600c5460405163a9059cbb60e01b81526001600160a01b039283169263a9059cbb92613e149291169085906004016149cb565b6020604051808303815f875af1158015613e30573d5f5f3e3d5ffd5b505050506040513d601f19601f82011682018060405250810190613e5491906149e4565b5050565b5f80613e6c613e67848661460e565b61457a565b90505f613ee660065f9054906101000a90046001600160a01b03166001600160a01b0316637464fc3d6040518163ffffffff1660e01b8152600401602060405180830381865afa158015613ec2573d5f5f3e3d5ffd5b505050506040513d601f19601f82011682018060405250810190613e6791906149b4565b905080821115613f44575f613efb828461464c565b613f05908861460e565b613f1090600861460e565b90505f613f1e83600861460e565b613f2985601161460e565b613f3391906145fb565b9050613f3f8183614639565b945050505b50509392505050565b5f818310613f5b5781611dda565b5090919050565b604080515f808252602082019092526001600160a01b038416908390604051613f8b9190614b97565b5f6040518083038185875af1925050503d805f811461260b576040519150601f19603f3d011682016040523d82523d5f602084013e61260b565b5f80613fd2600284614639565b6040805160028082526060820183529293505f92909160208301908036833701905050905030815f8151811061400a5761400a61489d565b6001600160a01b039283166020918202929092010152600b5482519116908290600190811061403b5761403b61489d565b6001600160a01b03928316602091820292909201015260065461406091163086611b96565b60065f9054906101000a90046001600160a01b03166001600160a01b031663fff6cae96040518163ffffffff1660e01b81526004015f604051808303815f87803b1580156140ac575f5ffd5b505af11580156140be573d5f5f3e3d5ffd5b505050506140ed307f000000000000000000000000000000000000000000000000000000000000000086611cbc565b601054604051635c11d79560e01b81526001600160a01b037f0000000000000000000000000000000000000000000000000000000000000000811692635c11d795926141489287925f92889291909116904290600401614a74565b5f604051808303815f87803b15801561415f575f5ffd5b505af1158015614171573d5f5f3e3d5ffd5b5050600b546010546040516370a0823160e01b81526001600160a01b0391821660048201525f9450911691506370a0823190602401602060405180830381865afa1580156141c1573d5f5f3e3d5ffd5b505050506040513d601f19601f820116820180604052508101906141e591906149b4565b601054600b5460405163092dfdb360e11b81526001600160a01b03918216600482015230602482015260448101849052929350169063125bfb66906064015f604051808303815f87803b15801561423a575f5ffd5b505af115801561424c573d5f5f3e3d5ffd5b5050600b5460405163095ea7b360e01b81526001600160a01b03909116925063095ea7b391506142a2907f00000000000000000000000000000000000000000000000000000000000000009085906004016149cb565b6020604051808303815f875af11580156142be573d5f5f3e3d5ffd5b505050506040513d601f19601f820116820180604052508101906142e291906149e4565b50600b5460405162e8e33760e81b81526001600160a01b039182166004820152306024820181905260448201849052606482018690525f6084830181905260a483015260c48201524260e48201527f00000000000000000000000000000000000000000000000000000000000000009091169063e8e3370090610104016060604051808303815f875af115801561437b573d5f5f3e3d5ffd5b505050506040513d601f19601f8201168201806040525081019061439f91906148e5565b979650505050505050565b6001600160a01b038083165f908152600a602090815260408083208151610160810183528154909516808652600180830154948701949094526002820154928601929092526003810154606086015260048101546080860152600581015460a0860152600681015460c0860152600781015460e086015260088101546101008087019190915260099091015460ff80821615156101208801529190041615156101408501529192919060145b6001600160a01b0383161580159061446e5750808211155b15614570575f61447d8361128a565b90505f606461448c838a61460e565b6144969190614639565b9050801561453f576001600160a01b0385165f908152600a6020526040902060070154841161453f5760065460405163a9059cbb60e01b81526001600160a01b039091169063a9059cbb906144f190889085906004016149cb565b6020604051808303815f875af115801561450d573d5f5f3e3d5ffd5b505050506040513d601f19601f8201168201806040525081019061453191906149e4565b5061453c81886145fb565b96505b6001600160a01b039485165f908152600a6020526040902054909416938361456681614bad565b9450505050614456565b5050505092915050565b5f60038211156145d95750805f614592600283614639565b61459d9060016145fb565b90505b818110156145d3579050806002816145b88186614639565b6145c291906145fb565b6145cc9190614639565b90506145a0565b50919050565b811561371257506001919050565b634e487b7160e01b5f52601160045260245ffd5b80820180821115611133576111336145e7565b8082028115828204841417611133576111336145e7565b634e487b7160e01b5f52601260045260245ffd5b5f8261464757614647614625565b500490565b81810381811115611133576111336145e7565b602081525f82518060208401528060208501604085015e5f604082850101526040601f19601f83011684010191505092915050565b6001600160a01b0381168114611b69575f5ffd5b5f5f604083850312156146b9575f5ffd5b82356146c481614694565b946020939093013593505050565b5f5f5f606084860312156146e4575f5ffd5b83356146ef81614694565b925060208401356146ff81614694565b929592945050506040919091013590565b5f60208284031215614720575f5ffd5b8135611dda81614694565b5f6020828403121561473b575f5ffd5b5035919050565b5f8151808452602084019350602083015f5b8281101561477b5781516001600160a01b0316865260209586019590910190600101614754565b5093949350505050565b602081525f611dda6020830184614742565b8015158114611b69575f5ffd5b5f5f604083850312156147b5575f5ffd5b82356147c081614694565b915060208301356147d081614797565b809150509250929050565b5f5f5f604084860312156147ed575f5ffd5b833567ffffffffffffffff811115614803575f5ffd5b8401601f81018613614813575f5ffd5b803567ffffffffffffffff811115614829575f5ffd5b8660208260051b840101111561483d575f5ffd5b60209182019450925084013561485281614797565b809150509250925092565b5f5f6040838503121561486e575f5ffd5b823561487981614694565b915060208301356147d081614694565b634e487b7160e01b5f52604160045260245ffd5b634e487b7160e01b5f52603260045260245ffd5b848152608060208201525f6148c96080830186614742565b6001600160a01b03949094166040830152506060015292915050565b5f5f5f606084860312156148f7575f5ffd5b5050815160208301516040909301519094929350919050565b600181811c9082168061492457607f821691505b6020821081036145d357634e487b7160e01b5f52602260045260245ffd5b80516001600160701b0381168114613712575f5ffd5b5f5f5f6060848603121561496a575f5ffd5b61497384614942565b925061498160208501614942565b9150604084015163ffffffff81168114614852575f5ffd5b5f602082840312156149a9575f5ffd5b8151611dda81614694565b5f602082840312156149c4575f5ffd5b5051919050565b6001600160a01b03929092168252602082015260400190565b5f602082840312156149f4575f5ffd5b8151611dda81614797565b5f60ff821660ff8103614a1457614a146145e7565b60010192915050565b602080825260099082015268737461727454696d6560b81b604082015260600190565b5f82614a4e57614a4e614625565b500690565b5f60ff831680614a6557614a65614625565b8060ff84160691505092915050565b85815284602082015260a060408201525f614a9260a0830186614742565b6001600160a01b0394909416606083015250608001529392505050565b828152604060208201525f614ac76040830184614742565b949350505050565b5f60208284031215614adf575f5ffd5b815167ffffffffffffffff811115614af5575f5ffd5b8201601f81018413614b05575f5ffd5b805167ffffffffffffffff811115614b1f57614b1f614889565b8060051b604051601f19603f830116810181811067ffffffffffffffff82111715614b4c57614b4c614889565b604052918252602081840181019290810187841115614b69575f5ffd5b6020850194505b83851015614b8c57845180825260209586019590935001614b70565b509695505050505050565b5f82518060208501845e5f920191825250919050565b5f60018201614bbe57614bbe6145e7565b506001019056fea2646970667358221220fac4b9e64dee71a3461a3aff45407838607b927c3bb203259c77e499ddd4177f64736f6c634300082200336080604052348015600e575f5ffd5b503380603357604051631e4fbdf760e01b81525f600482015260240160405180910390fd5b603a81605b565b50335f908152600160208190526040909120805460ff1916909117905560aa565b5f80546001600160a01b038381166001600160a01b0319831681178455604051919092169283917f8be0079c531659141344cd1fd0a4f28419497f9722a3daafe3b4186f6b6457e09190a35050565b61044e806100b75f395ff3fe608060405234801561000f575f5ffd5b5060043610610060575f3560e01c8063125bfb6614610064578063172979e414610079578063715018a6146100b05780638d14e127146100b85780638da5cb5b146100cb578063f2fde38b146100e5575b5f5ffd5b610077610072366004610362565b6100f8565b005b61009b61008736600461039b565b60016020525f908152604090205460ff1681565b60405190151581526020015b60405180910390f35b610077610216565b6100776100c63660046103c8565b610229565b5f546040516001600160a01b0390911681526020016100a7565b6100776100f336600461039b565b61028f565b335f9081526001602052604090205460ff166101535760405162461bcd60e51b8152602060048201526015602482015274141bdbdb0e881b9bdd081dda1a5d195b1a5cdd1959605a1b60448201526064015b60405180910390fd5b60405163a9059cbb60e01b81526001600160a01b0383811660048301526024820183905284169063a9059cbb906044016020604051808303815f875af115801561019f573d5f5f3e3d5ffd5b505050506040513d601f19601f820116820180604052508101906101c391906103fd565b50816001600160a01b0316836001600160a01b03167ff7a40077ff7a04c7e61f6f26fb13774259ddf1b6bce9ecf26a8276cdd39926838360405161020991815260200190565b60405180910390a3505050565b61021e6102cc565b6102275f6102f8565b565b6102316102cc565b6001600160a01b0382165f81815260016020908152604091829020805460ff191685151590811790915591519182527fb1288e9f7bae3599e10819d5553febea48e11a6f8f585b32c8abad397dd2627e910160405180910390a25050565b6102976102cc565b6001600160a01b0381166102c057604051631e4fbdf760e01b81525f600482015260240161014a565b6102c9816102f8565b50565b5f546001600160a01b031633146102275760405163118cdaa760e01b815233600482015260240161014a565b5f80546001600160a01b038381166001600160a01b0319831681178455604051919092169283917f8be0079c531659141344cd1fd0a4f28419497f9722a3daafe3b4186f6b6457e09190a35050565b80356001600160a01b038116811461035d575f5ffd5b919050565b5f5f5f60608486031215610374575f5ffd5b61037d84610347565b925061038b60208501610347565b9150604084013590509250925092565b5f602082840312156103ab575f5ffd5b6103b482610347565b9392505050565b80151581146102c9575f5ffd5b5f5f604083850312156103d9575f5ffd5b6103e283610347565b915060208301356103f2816103bb565b809150509250929050565b5f6020828403121561040d575f5ffd5b81516103b4816103bb56fea2646970667358221220177eb0ab5b21ab35515087c3f0350e4b822b01cc97bbe058eb9ab943547071bf64736f6c634300082200334dab1356cd0582feb480a4c99e95bb70c5d60b9b3f27d2cd27f5ccc64e6583e0",
			"opcodes": "PUSH1 0xA0 PUSH1 0x40 MSTORE PUSH11 0x52B7D2DCC80CD2E4000000 PUSH1 0x11 SSTORE PUSH7 0x71AFD498D0000 PUSH1 0x14 SSTORE PUSH1 0x17 DUP1 SLOAD PUSH1 0x1 PUSH1 0x1 PUSH1 0xA0 SHL SUB NOT AND PUSH20 0xE6A45D5F3E5D38103F9B1358672DED68FDF6835F OR SWAP1 SSTORE PUSH1 0x19 DUP1 SLOAD PUSH1 0xFF PUSH1 0xA8 SHL NOT AND PUSH1 0x1 PUSH1 0xA8 SHL OR SWAP1 SSTORE CALLVALUE DUP1 ISZERO PUSH2 0x62 JUMPI PUSH0 PUSH0 REVERT JUMPDEST POP PUSH1 0x40 MLOAD PUSH2 0x8A73 CODESIZE SUB DUP1 PUSH2 0x8A73 DUP4 CODECOPY DUP2 ADD PUSH1 0x40 DUP2 SWAP1 MSTORE PUSH2 0x81 SWAP2 PUSH2 0x3322 JUMP JUMPDEST PUSH1 0x40 DUP1 MLOAD DUP1 DUP3 ADD DUP3 MSTORE PUSH1 0x5 DUP1 DUP3 MSTORE PUSH5 0x2927A6A0A7 PUSH1 0xD9 SHL PUSH1 0x20 DUP1 DUP5 ADD DUP3 SWAP1 MSTORE DUP5 MLOAD DUP1 DUP7 ADD SWAP1 SWAP6 MSTORE SWAP2 DUP5 MSTORE SWAP1 DUP4 ADD MSTORE CALLER SWAP2 PUSH1 0x3 PUSH2 0xBD DUP4 DUP3 PUSH2 0x33F6 JUMP JUMPDEST POP PUSH1 0x4 PUSH2 0xCA DUP3 DUP3 PUSH2 0x33F6 JUMP JUMPDEST POP POP POP PUSH1 0x1 PUSH1 0x1 PUSH1 0xA0 SHL SUB DUP2 AND PUSH2 0xFB JUMPI PUSH1 0x40 MLOAD PUSH4 0x1E4FBDF7 PUSH1 0xE0 SHL DUP2 MSTORE PUSH0 PUSH1 0x4 DUP3 ADD MSTORE PUSH1 0x24 ADD JUMPDEST PUSH1 0x40 MLOAD DUP1 SWAP2 SUB SWAP1 REVERT JUMPDEST PUSH2 0x104 DUP2 PUSH2 0x33B JUMP JUMPDEST POP PUSH20 0xD99D1C33F9FC3444F8101754ABC46C52416550D1 PUSH1 0x80 DUP2 SWAP1 MSTORE PUSH1 0x40 DUP1 MLOAD PUSH4 0x15AB88C9 PUSH1 0xE3 SHL DUP2 MSTORE SWAP1 MLOAD PUSH4 0xAD5C4648 SWAP2 PUSH1 0x4 DUP1 DUP3 ADD SWAP3 PUSH1 0x20 SWAP3 SWAP1 SWAP2 SWAP1 DUP3 SWAP1 SUB ADD DUP2 DUP7 GAS STATICCALL ISZERO DUP1 ISZERO PUSH2 0x158 JUMPI RETURNDATASIZE PUSH0 PUSH0 RETURNDATACOPY RETURNDATASIZE PUSH0 REVERT JUMPDEST POP POP POP POP PUSH1 0x40 MLOAD RETURNDATASIZE PUSH1 0x1F NOT PUSH1 0x1F DUP3 ADD AND DUP3 ADD DUP1 PUSH1 0x40 MSTORE POP DUP2 ADD SWAP1 PUSH2 0x17C SWAP2 SWAP1 PUSH2 0x34B0 JUMP JUMPDEST PUSH1 0xB PUSH0 PUSH2 0x100 EXP DUP2 SLOAD DUP2 PUSH1 0x1 PUSH1 0x1 PUSH1 0xA0 SHL SUB MUL NOT AND SWAP1 DUP4 PUSH1 0x1 PUSH1 0x1 PUSH1 0xA0 SHL SUB AND MUL OR SWAP1 SSTORE POP PUSH1 0x80 MLOAD PUSH1 0x1 PUSH1 0x1 PUSH1 0xA0 SHL SUB AND PUSH4 0xC45A0155 PUSH1 0x40 MLOAD DUP2 PUSH4 0xFFFFFFFF AND PUSH1 0xE0 SHL DUP2 MSTORE PUSH1 0x4 ADD PUSH1 0x20 PUSH1 0x40 MLOAD DUP1 DUP4 SUB DUP2 DUP7 GAS STATICCALL ISZERO DUP1 ISZERO PUSH2 0x1DF JUMPI RETURNDATASIZE PUSH0 PUSH0 RETURNDATACOPY RETURNDATASIZE PUSH0 REVERT JUMPDEST POP POP POP POP PUSH1 0x40 MLOAD RETURNDATASIZE PUSH1 0x1F NOT PUSH1 0x1F DUP3 ADD AND DUP3 ADD DUP1 PUSH1 0x40 MSTORE POP DUP2 ADD SWAP1 PUSH2 0x203 SWAP2 SWAP1 PUSH2 0x34B0 JUMP JUMPDEST PUSH1 0xB SLOAD PUSH1 0x40 MLOAD PUSH4 0x64E329CB PUSH1 0xE1 SHL DUP2 MSTORE ADDRESS PUSH1 0x4 DUP3 ADD MSTORE PUSH1 0x1 PUSH1 0x1 PUSH1 0xA0 SHL SUB SWAP2 DUP3 AND PUSH1 0x24 DUP3 ADD MSTORE SWAP2 AND SWAP1 PUSH4 0xC9C65396 SWAP1 PUSH1 0x44 ADD PUSH1 0x20 PUSH1 0x40 MLOAD DUP1 DUP4 SUB DUP2 PUSH0 DUP8 GAS CALL ISZERO DUP1 ISZERO PUSH2 0x251 JUMPI RETURNDATASIZE PUSH0 PUSH0 RETURNDATACOPY RETURNDATASIZE PUSH0 REVERT JUMPDEST POP POP POP POP PUSH1 0x40 MLOAD RETURNDATASIZE PUSH1 0x1F NOT PUSH1 0x1F DUP3 ADD AND DUP3 ADD DUP1 PUSH1 0x40 MSTORE POP DUP2 ADD SWAP1 PUSH2 0x275 SWAP2 SWAP1 PUSH2 0x34B0 JUMP JUMPDEST PUSH1 0x6 DUP1 SLOAD PUSH1 0x1 PUSH1 0x1 PUSH1 0xA0 SHL SUB NOT SWAP1 DUP2 AND PUSH1 0x1 PUSH1 0x1 PUSH1 0xA0 SHL SUB SWAP4 DUP5 AND OR SWAP1 SWAP2 SSTORE PUSH1 0x18 DUP1 SLOAD DUP3 AND DUP6 DUP5 AND OR SWAP1 SSTORE PUSH1 0x19 DUP1 SLOAD SWAP1 SWAP2 AND SWAP2 DUP4 AND SWAP2 SWAP1 SWAP2 OR SWAP1 SSTORE PUSH1 0x40 MLOAD PUSH2 0x2BC SWAP1 PUSH2 0x32FF JUMP JUMPDEST PUSH1 0x40 MLOAD DUP1 SWAP2 SUB SWAP1 PUSH0 CREATE DUP1 ISZERO DUP1 ISZERO PUSH2 0x2D5 JUMPI RETURNDATASIZE PUSH0 PUSH0 RETURNDATACOPY RETURNDATASIZE PUSH0 REVERT JUMPDEST POP PUSH1 0x10 DUP1 SLOAD PUSH1 0x1 PUSH1 0x1 PUSH1 0xA0 SHL SUB NOT AND PUSH1 0x1 PUSH1 0x1 PUSH1 0xA0 SHL SUB SWAP3 SWAP1 SWAP3 AND SWAP2 SWAP1 SWAP2 OR SWAP1 SSTORE PUSH4 0x69AABA1F PUSH1 0x15 DUP2 SWAP1 SSTORE PUSH2 0x30D SWAP1 PUSH3 0x278D00 PUSH2 0x34DD JUMP JUMPDEST PUSH1 0x16 SSTORE PUSH2 0x333 DUP4 PUSH2 0x320 PUSH1 0x12 PUSH1 0xA PUSH2 0x35D3 JUMP JUMPDEST PUSH2 0x32E SWAP1 PUSH4 0x3B9ACA00 PUSH2 0x35E1 JUMP JUMPDEST PUSH2 0x38C JUMP JUMPDEST POP POP POP PUSH2 0x38EE JUMP JUMPDEST PUSH1 0x5 DUP1 SLOAD PUSH1 0x1 PUSH1 0x1 PUSH1 0xA0 SHL SUB DUP4 DUP2 AND PUSH1 0x1 PUSH1 0x1 PUSH1 0xA0 SHL SUB NOT DUP4 AND DUP2 OR SWAP1 SWAP4 SSTORE PUSH1 0x40 MLOAD SWAP2 AND SWAP2 SWAP1 DUP3 SWAP1 PUSH32 0x8BE0079C531659141344CD1FD0A4F28419497F9722A3DAAFE3B4186F6B6457E0 SWAP1 PUSH0 SWAP1 LOG3 POP POP JUMP JUMPDEST PUSH1 0x1 PUSH1 0x1 PUSH1 0xA0 SHL SUB DUP3 AND PUSH2 0x3B5 JUMPI PUSH1 0x40 MLOAD PUSH4 0xEC442F05 PUSH1 0xE0 SHL DUP2 MSTORE PUSH0 PUSH1 0x4 DUP3 ADD MSTORE PUSH1 0x24 ADD PUSH2 0xF2 JUMP JUMPDEST PUSH2 0x3C0 PUSH0 DUP4 DUP4 PUSH2 0x3C4 JUMP JUMPDEST POP POP JUMP JUMPDEST PUSH8 0x1BC16D674EC80000 DUP2 EQ DUP1 ISZERO PUSH2 0x400 JUMPI POP PUSH1 0x1 PUSH1 0x1 PUSH1 0xA0 SHL SUB DUP1 DUP4 AND PUSH0 SWAP1 DUP2 MSTORE PUSH1 0x7 PUSH1 0x20 SWAP1 DUP2 MSTORE PUSH1 0x40 DUP1 DUP4 KECCAK256 SWAP4 DUP8 AND DUP4 MSTORE SWAP3 SWAP1 MSTORE KECCAK256 SLOAD PUSH1 0xFF AND ISZERO JUMPDEST DUP1 ISZERO PUSH2 0x411 JUMPI POP PUSH2 0x411 DUP4 DUP4 PUSH2 0x106B JUMP JUMPDEST ISZERO PUSH2 0x446 JUMPI PUSH1 0x1 PUSH1 0x1 PUSH1 0xA0 SHL SUB DUP1 DUP5 AND PUSH0 SWAP1 DUP2 MSTORE PUSH1 0x7 PUSH1 0x20 SWAP1 DUP2 MSTORE PUSH1 0x40 DUP1 DUP4 KECCAK256 SWAP4 DUP7 AND DUP4 MSTORE SWAP3 SWAP1 MSTORE KECCAK256 DUP1 SLOAD PUSH1 0xFF NOT AND PUSH1 0x1 OR SWAP1 SSTORE JUMPDEST PUSH8 0xDE0B6B3A7640000 DUP2 EQ DUP1 ISZERO PUSH2 0x481 JUMPI POP PUSH1 0x1 PUSH1 0x1 PUSH1 0xA0 SHL SUB DUP1 DUP4 AND PUSH0 SWAP1 DUP2 MSTORE PUSH1 0x7 PUSH1 0x20 SWAP1 DUP2 MSTORE PUSH1 0x40 DUP1 DUP4 KECCAK256 SWAP4 DUP8 AND DUP4 MSTORE SWAP3 SWAP1 MSTORE KECCAK256 SLOAD PUSH1 0xFF AND JUMPDEST DUP1 ISZERO PUSH2 0x4A4 JUMPI POP PUSH1 0x1 PUSH1 0x1 PUSH1 0xA0 SHL SUB DUP4 DUP2 AND PUSH0 SWAP1 DUP2 MSTORE PUSH1 0xA PUSH1 0x20 MSTORE PUSH1 0x40 SWAP1 KECCAK256 SLOAD AND ISZERO JUMPDEST ISZERO PUSH2 0x52C JUMPI PUSH1 0x1 PUSH1 0x1 PUSH1 0xA0 SHL SUB DUP4 DUP2 AND PUSH0 SWAP1 DUP2 MSTORE PUSH1 0xA PUSH1 0x20 SWAP1 DUP2 MSTORE PUSH1 0x40 DUP1 DUP4 KECCAK256 DUP1 SLOAD PUSH1 0x1 PUSH1 0x1 PUSH1 0xA0 SHL SUB NOT AND SWAP5 DUP8 AND SWAP5 DUP6 OR SWAP1 SSTORE SWAP3 DUP3 MSTORE PUSH1 0x8 SWAP1 MSTORE KECCAK256 PUSH2 0x4EA SWAP1 DUP5 PUSH2 0x11B4 JUMP JUMPDEST POP DUP2 PUSH1 0x1 PUSH1 0x1 PUSH1 0xA0 SHL SUB AND DUP4 PUSH1 0x1 PUSH1 0x1 PUSH1 0xA0 SHL SUB AND PUSH32 0x8D63F2E3D39EB6CF9C80D49BC203133F6F215CE2A1A3D27A68F0167F6C045D48 PUSH1 0x40 MLOAD PUSH1 0x40 MLOAD DUP1 SWAP2 SUB SWAP1 LOG3 JUMPDEST PUSH1 0x1 PUSH1 0x1 PUSH1 0xA0 SHL SUB DUP3 AND ADDRESS EQ DUP1 ISZERO PUSH2 0x543 JUMPI POP CALLER ORIGIN EQ JUMPDEST ISZERO PUSH2 0x5D6 JUMPI PUSH1 0x1 PUSH1 0x1 PUSH1 0xA0 SHL SUB DUP4 AND PUSH0 SWAP1 DUP2 MSTORE PUSH1 0x1D PUSH1 0x20 MSTORE PUSH1 0x40 SWAP1 KECCAK256 SLOAD PUSH1 0xFF AND ISZERO DUP1 ISZERO PUSH2 0x579 JUMPI POP PUSH9 0x56BC75E2D63100000 DUP2 LT ISZERO JUMPDEST DUP1 ISZERO PUSH2 0x58F JUMPI POP PUSH10 0x152D02C7E14AF6800000 DUP2 GT ISZERO JUMPDEST DUP1 ISZERO PUSH2 0x59E JUMPI POP PUSH1 0x1E SLOAD PUSH1 0xFF AND ISZERO JUMPDEST DUP1 ISZERO PUSH2 0x5C2 JUMPI POP ADDRESS PUSH0 SWAP1 DUP2 MSTORE PUSH1 0x20 DUP2 SWAP1 MSTORE PUSH1 0x40 SWAP1 KECCAK256 SLOAD PUSH10 0x21E19E0C9BAB2400000 GT ISZERO JUMPDEST ISZERO PUSH2 0x5D6 JUMPI PUSH2 0x5D1 DUP4 DUP3 PUSH2 0x11CF JUMP JUMPDEST POP POP POP JUMP JUMPDEST PUSH1 0x1 PUSH1 0x1 PUSH1 0xA0 SHL SUB DUP1 DUP5 AND PUSH0 SWAP1 DUP2 MSTORE PUSH1 0xA PUSH1 0x20 SWAP1 DUP2 MSTORE PUSH1 0x40 SWAP2 DUP3 SWAP1 KECCAK256 DUP3 MLOAD PUSH2 0x160 DUP2 ADD DUP5 MSTORE DUP2 SLOAD SWAP1 SWAP5 AND DUP5 MSTORE PUSH1 0x1 DUP2 ADD SLOAD SWAP2 DUP5 ADD SWAP2 SWAP1 SWAP2 MSTORE PUSH1 0x2 DUP2 ADD SLOAD SWAP2 DUP4 ADD SWAP2 SWAP1 SWAP2 MSTORE PUSH1 0x3 DUP2 ADD SLOAD PUSH1 0x60 DUP4 ADD MSTORE PUSH1 0x4 DUP2 ADD SLOAD PUSH1 0x80 DUP4 ADD MSTORE PUSH1 0x5 DUP2 ADD SLOAD PUSH1 0xA0 DUP4 ADD MSTORE PUSH1 0x6 DUP2 ADD SLOAD PUSH1 0xC0 DUP4 ADD MSTORE PUSH1 0x7 DUP2 ADD SLOAD PUSH1 0xE0 DUP4 ADD MSTORE PUSH1 0x8 DUP2 ADD SLOAD PUSH2 0x100 DUP1 DUP5 ADD SWAP2 SWAP1 SWAP2 MSTORE PUSH1 0x9 SWAP1 SWAP2 ADD SLOAD PUSH1 0xFF DUP1 DUP3 AND ISZERO ISZERO PUSH2 0x120 DUP6 ADD MSTORE SWAP2 SWAP1 DIV AND ISZERO ISZERO PUSH2 0x140 DUP3 ADD MSTORE CALLER ORIGIN EQ DUP1 ISZERO PUSH2 0x68B JUMPI POP DUP1 PUSH2 0x140 ADD MLOAD JUMPDEST DUP1 ISZERO PUSH2 0x69A JUMPI POP PUSH0 DUP2 PUSH1 0x40 ADD MLOAD GT JUMPDEST DUP1 ISZERO PUSH2 0x6AE JUMPI POP PUSH1 0x1 PUSH1 0x1 PUSH1 0xA0 SHL SUB DUP4 AND ADDRESS EQ JUMPDEST ISZERO PUSH2 0x97E JUMPI PUSH8 0xDE0B6B3A7640000 DUP3 SUB PUSH2 0x7B9 JUMPI DUP1 PUSH2 0x120 ADD MLOAD PUSH2 0x727 JUMPI PUSH1 0x1 PUSH1 0x1 PUSH1 0xA0 SHL SUB DUP5 AND PUSH0 SWAP1 DUP2 MSTORE PUSH1 0xA PUSH1 0x20 MSTORE PUSH1 0x40 SWAP1 KECCAK256 PUSH1 0x9 ADD DUP1 SLOAD PUSH1 0xFF NOT AND PUSH1 0x1 OR SWAP1 SSTORE PUSH2 0x6FC TIMESTAMP PUSH1 0x3C PUSH2 0x34DD JUMP JUMPDEST PUSH1 0x1 PUSH1 0x1 PUSH1 0xA0 SHL SUB DUP6 AND PUSH0 SWAP1 DUP2 MSTORE PUSH1 0xA PUSH1 0x20 MSTORE PUSH1 0x40 SWAP1 KECCAK256 PUSH1 0x3 DUP2 ADD SWAP2 SWAP1 SWAP2 SSTORE TIMESTAMP PUSH1 0x4 SWAP1 SWAP2 ADD SSTORE PUSH2 0x7B9 JUMP JUMPDEST DUP1 PUSH2 0x120 ADD MLOAD DUP1 ISZERO PUSH2 0x73D JUMPI POP DUP1 PUSH1 0x60 ADD MLOAD TIMESTAMP LT ISZERO JUMPDEST ISZERO PUSH2 0x7A0 JUMPI PUSH2 0x74B DUP5 PUSH2 0x13C9 JUMP JUMPDEST PUSH2 0x756 TIMESTAMP PUSH1 0x3C PUSH2 0x34DD JUMP JUMPDEST PUSH1 0x1 PUSH1 0x1 PUSH1 0xA0 SHL SUB DUP6 AND PUSH0 SWAP1 DUP2 MSTORE PUSH1 0xA PUSH1 0x20 MSTORE PUSH1 0x40 SWAP1 KECCAK256 PUSH1 0x3 DUP2 ADD SWAP2 SWAP1 SWAP2 SSTORE TIMESTAMP PUSH1 0x4 SWAP1 SWAP2 ADD SSTORE PUSH2 0x787 DUP5 DUP5 DUP5 PUSH2 0x16F4 JUMP JUMPDEST PUSH2 0x79A ADDRESS DUP6 PUSH8 0xDE0B6B3A7640000 PUSH2 0x16F4 JUMP JUMPDEST POP POP POP POP JUMP JUMPDEST PUSH1 0x40 MLOAD PUSH4 0x2F352531 PUSH1 0xE0 SHL DUP2 MSTORE PUSH1 0x4 ADD PUSH1 0x40 MLOAD DUP1 SWAP2 SUB SWAP1 REVERT JUMPDEST PUSH8 0x8AC7230489E80000 DUP3 SUB PUSH2 0x973 JUMPI TIMESTAMP PUSH1 0x15 SLOAD LT PUSH2 0x805 JUMPI PUSH1 0x40 MLOAD PUSH3 0x461BCD PUSH1 0xE5 SHL DUP2 MSTORE PUSH1 0x20 PUSH1 0x4 DUP3 ADD MSTORE PUSH1 0x9 PUSH1 0x24 DUP3 ADD MSTORE PUSH9 0x737461727454696D65 PUSH1 0xB8 SHL PUSH1 0x44 DUP3 ADD MSTORE PUSH1 0x64 ADD PUSH2 0xF2 JUMP JUMPDEST PUSH1 0x40 DUP2 ADD MLOAD DUP1 ISZERO PUSH2 0x8D2 JUMPI PUSH0 PUSH2 0x819 PUSH2 0x181A JUMP JUMPDEST SWAP1 POP DUP1 ISZERO PUSH2 0x854 JUMPI PUSH0 PUSH1 0x64 DUP3 DUP6 PUSH1 0x40 ADD MLOAD PUSH2 0x834 SWAP2 SWAP1 PUSH2 0x35E1 JUMP JUMPDEST PUSH2 0x83E SWAP2 SWAP1 PUSH2 0x360C JUMP JUMPDEST SWAP1 POP DUP1 DUP5 PUSH1 0x40 ADD MLOAD PUSH2 0x850 SWAP2 SWAP1 PUSH2 0x361F JUMP JUMPDEST SWAP3 POP POP JUMPDEST DUP2 ISZERO PUSH2 0x8D0 JUMPI PUSH1 0x6 SLOAD PUSH1 0x40 MLOAD PUSH4 0xA9059CBB PUSH1 0xE0 SHL DUP2 MSTORE PUSH1 0x1 PUSH1 0x1 PUSH1 0xA0 SHL SUB DUP9 DUP2 AND PUSH1 0x4 DUP4 ADD MSTORE PUSH1 0x24 DUP3 ADD DUP6 SWAP1 MSTORE SWAP1 SWAP2 AND SWAP1 PUSH4 0xA9059CBB SWAP1 PUSH1 0x44 ADD PUSH1 0x20 PUSH1 0x40 MLOAD DUP1 DUP4 SUB DUP2 PUSH0 DUP8 GAS CALL ISZERO DUP1 ISZERO PUSH2 0x8AA JUMPI RETURNDATASIZE PUSH0 PUSH0 RETURNDATACOPY RETURNDATASIZE PUSH0 REVERT JUMPDEST POP POP POP POP PUSH1 0x40 MLOAD RETURNDATASIZE PUSH1 0x1F NOT PUSH1 0x1F DUP3 ADD AND DUP3 ADD DUP1 PUSH1 0x40 MSTORE POP DUP2 ADD SWAP1 PUSH2 0x8CE SWAP2 SWAP1 PUSH2 0x3632 JUMP JUMPDEST POP JUMPDEST POP JUMPDEST PUSH1 0x1 PUSH1 0x1 PUSH1 0xA0 SHL SUB DUP1 DUP7 AND PUSH0 SWAP1 DUP2 MSTORE PUSH1 0xA PUSH1 0x20 MSTORE PUSH1 0x40 DUP1 DUP3 KECCAK256 PUSH1 0x9 DUP2 ADD DUP1 SLOAD PUSH1 0x2 DUP4 ADD DUP6 SWAP1 SSTORE PUSH1 0x1 DUP4 ADD DUP6 SWAP1 SSTORE PUSH2 0xFFFF NOT AND SWAP1 SSTORE PUSH1 0x4 DUP2 ADD DUP4 SWAP1 SSTORE PUSH1 0x8 ADD DUP3 SWAP1 SSTORE DUP5 MLOAD SWAP1 SWAP3 AND DUP2 MSTORE KECCAK256 PUSH1 0x7 ADD SLOAD ISZERO PUSH2 0x956 JUMPI DUP2 MLOAD PUSH1 0x1 PUSH1 0x1 PUSH1 0xA0 SHL SUB AND PUSH0 SWAP1 DUP2 MSTORE PUSH1 0xA PUSH1 0x20 MSTORE PUSH1 0x40 DUP2 KECCAK256 PUSH1 0x7 ADD DUP1 SLOAD PUSH1 0x1 SWAP3 SWAP1 PUSH2 0x950 SWAP1 DUP5 SWAP1 PUSH2 0x361F JUMP JUMPDEST SWAP1 SWAP2 SSTORE POP POP JUMPDEST PUSH2 0x961 DUP6 DUP6 DUP6 PUSH2 0x16F4 JUMP JUMPDEST PUSH2 0x96C ADDRESS DUP7 DUP6 PUSH2 0x16F4 JUMP JUMPDEST POP POP POP POP POP JUMP JUMPDEST PUSH2 0x79A DUP5 DUP5 DUP5 PUSH2 0x16F4 JUMP JUMPDEST PUSH1 0x1 PUSH1 0x1 PUSH1 0xA0 SHL SUB DUP5 AND ADDRESS EQ DUP1 PUSH2 0x99D JUMPI POP PUSH1 0x1 PUSH1 0x1 PUSH1 0xA0 SHL SUB DUP4 AND ADDRESS EQ JUMPDEST DUP1 PUSH2 0x9B5 JUMPI POP PUSH1 0x10 SLOAD PUSH1 0x1 PUSH1 0x1 PUSH1 0xA0 SHL SUB DUP6 DUP2 AND SWAP2 AND EQ JUMPDEST DUP1 PUSH2 0x9CD JUMPI POP PUSH1 0x10 SLOAD PUSH1 0x1 PUSH1 0x1 PUSH1 0xA0 SHL SUB DUP5 DUP2 AND SWAP2 AND EQ JUMPDEST ISZERO PUSH2 0x9DD JUMPI PUSH2 0x79A DUP5 DUP5 DUP5 PUSH2 0x16F4 JUMP JUMPDEST PUSH1 0x6 SLOAD PUSH1 0x1 PUSH1 0x1 PUSH1 0xA0 SHL SUB SWAP1 DUP2 AND SWAP1 DUP6 AND SUB PUSH2 0xCF3 JUMPI TIMESTAMP PUSH1 0x15 SLOAD LT PUSH2 0xA30 JUMPI PUSH1 0x40 MLOAD PUSH3 0x461BCD PUSH1 0xE5 SHL DUP2 MSTORE PUSH1 0x20 PUSH1 0x4 DUP3 ADD MSTORE PUSH1 0x9 PUSH1 0x24 DUP3 ADD MSTORE PUSH9 0x737461727454696D65 PUSH1 0xB8 SHL PUSH1 0x44 DUP3 ADD MSTORE PUSH1 0x64 ADD PUSH2 0xF2 JUMP JUMPDEST ORIGIN PUSH0 SWAP1 DUP2 MSTORE PUSH1 0x9 PUSH1 0x20 MSTORE PUSH1 0x40 DUP2 KECCAK256 TIMESTAMP SWAP1 SSTORE PUSH2 0xA49 PUSH2 0x1849 JUMP JUMPDEST GT ISZERO PUSH2 0xB1F JUMPI PUSH0 DUP1 PUSH2 0xA59 PUSH2 0x19DE JUMP JUMPDEST SWAP1 POP PUSH12 0x33B2E3C9FD0803CE8000000 DUP2 LT PUSH2 0xA8C JUMPI PUSH1 0xA PUSH2 0xA7B DUP6 PUSH1 0x9 PUSH2 0x35E1 JUMP JUMPDEST PUSH2 0xA85 SWAP2 SWAP1 PUSH2 0x360C JUMP JUMPDEST SWAP2 POP PUSH2 0xAEE JUMP JUMPDEST PUSH12 0x19D971E4FE8401E74000000 DUP2 LT PUSH2 0xAAC JUMPI PUSH1 0xA PUSH2 0xA7B DUP6 PUSH1 0x6 PUSH2 0x35E1 JUMP JUMPDEST PUSH11 0x52B7D2DCC80CD2E4000000 DUP2 LT PUSH2 0xACB JUMPI PUSH1 0xA PUSH2 0xA7B DUP6 PUSH1 0x4 PUSH2 0x35E1 JUMP JUMPDEST PUSH11 0x295BE96E64066972000000 DUP2 LT PUSH2 0xAEA JUMPI PUSH1 0xA PUSH2 0xA7B DUP6 PUSH1 0x2 PUSH2 0x35E1 JUMP JUMPDEST DUP4 SWAP2 POP JUMPDEST PUSH2 0xAFB DUP7 PUSH2 0xDEAD DUP5 PUSH2 0x16F4 JUMP JUMPDEST DUP2 DUP5 GT ISZERO PUSH2 0xB17 JUMPI PUSH2 0xB17 DUP7 DUP7 PUSH2 0xB12 DUP6 DUP9 PUSH2 0x361F JUMP JUMPDEST PUSH2 0x16F4 JUMP JUMPDEST POP POP POP POP POP POP JUMP JUMPDEST PUSH1 0x64 PUSH2 0xB29 PUSH2 0x1AE2 JUMP JUMPDEST PUSH2 0xB34 SWAP1 PUSH1 0x5 PUSH2 0x35E1 JUMP JUMPDEST PUSH2 0xB3E SWAP2 SWAP1 PUSH2 0x360C JUMP JUMPDEST DUP3 LT PUSH2 0xB78 JUMPI PUSH1 0x40 MLOAD PUSH3 0x461BCD PUSH1 0xE5 SHL DUP2 MSTORE PUSH1 0x20 PUSH1 0x4 DUP3 ADD MSTORE PUSH1 0x9 PUSH1 0x24 DUP3 ADD MSTORE PUSH9 0x36B0BC103A37B5B2B7 PUSH1 0xB9 SHL PUSH1 0x44 DUP3 ADD MSTORE PUSH1 0x64 ADD PUSH2 0xF2 JUMP JUMPDEST PUSH2 0xB80 PUSH2 0x1B22 JUMP JUMPDEST PUSH1 0x1C SLOAD PUSH0 SWAP1 PUSH1 0xFF AND PUSH2 0xB94 JUMPI PUSH2 0x12C PUSH2 0xB98 JUMP JUMPDEST PUSH2 0xB54 JUMPDEST PUSH2 0xFFFF AND SWAP1 POP PUSH0 PUSH2 0x2710 PUSH2 0xBAC DUP4 DUP7 PUSH2 0x35E1 JUMP JUMPDEST PUSH2 0xBB6 SWAP2 SWAP1 PUSH2 0x360C JUMP JUMPDEST SWAP1 POP PUSH0 PUSH2 0x2710 PUSH2 0xBC8 DUP7 PUSH2 0x12C PUSH2 0x35E1 JUMP JUMPDEST PUSH2 0xBD2 SWAP2 SWAP1 PUSH2 0x360C JUMP JUMPDEST PUSH1 0x1C SLOAD SWAP1 SWAP2 POP PUSH0 SWAP1 PUSH1 0xFF AND DUP1 ISZERO PUSH2 0xBE8 JUMPI POP DUP2 DUP4 GT JUMPDEST ISZERO PUSH2 0xC38 JUMPI PUSH2 0xBF7 DUP3 DUP5 PUSH2 0x361F JUMP JUMPDEST SWAP1 POP PUSH0 PUSH2 0xC05 PUSH1 0x2 DUP4 PUSH2 0x360C JUMP JUMPDEST SWAP1 POP PUSH2 0xC12 DUP10 ADDRESS DUP4 PUSH2 0x16F4 JUMP JUMPDEST PUSH2 0xC1C DUP2 DUP4 PUSH2 0x361F JUMP JUMPDEST PUSH1 0x12 PUSH0 DUP3 DUP3 SLOAD PUSH2 0xC2C SWAP2 SWAP1 PUSH2 0x34DD JUMP JUMPDEST SWAP3 POP POP DUP2 SWAP1 SSTORE POP DUP3 SWAP4 POP POP JUMPDEST PUSH0 PUSH1 0xA PUSH2 0xC46 DUP6 PUSH1 0x7 PUSH2 0x35E1 JUMP JUMPDEST PUSH2 0xC50 SWAP2 SWAP1 PUSH2 0x360C JUMP JUMPDEST SWAP1 POP DUP1 PUSH1 0x12 PUSH0 DUP3 DUP3 SLOAD PUSH2 0xC63 SWAP2 SWAP1 PUSH2 0x34DD JUMP JUMPDEST SWAP1 SWAP2 SSTORE POP PUSH0 SWAP1 POP PUSH1 0xA PUSH2 0xC77 DUP7 PUSH1 0x1 PUSH2 0x35E1 JUMP JUMPDEST PUSH2 0xC81 SWAP2 SWAP1 PUSH2 0x360C JUMP JUMPDEST SWAP1 POP PUSH2 0xC90 DUP11 PUSH2 0xDEAD DUP4 PUSH2 0x16F4 JUMP JUMPDEST PUSH0 DUP2 PUSH2 0xC9C DUP5 DUP9 PUSH2 0x361F JUMP JUMPDEST PUSH2 0xCA6 SWAP2 SWAP1 PUSH2 0x361F JUMP JUMPDEST SWAP1 POP DUP1 PUSH1 0x13 PUSH0 DUP3 DUP3 SLOAD PUSH2 0xCB9 SWAP2 SWAP1 PUSH2 0x34DD JUMP JUMPDEST SWAP1 SWAP2 SSTORE POP PUSH2 0xCCA SWAP1 POP DUP12 ADDRESS DUP6 PUSH2 0x16F4 JUMP JUMPDEST PUSH2 0xCD5 DUP12 ADDRESS DUP4 PUSH2 0x16F4 JUMP JUMPDEST PUSH2 0xCDF DUP5 DUP8 PUSH2 0x34DD JUMP JUMPDEST PUSH2 0xCE9 SWAP1 DUP11 PUSH2 0x361F JUMP JUMPDEST SWAP9 POP POP POP POP POP POP POP POP JUMPDEST PUSH1 0x6 SLOAD PUSH1 0x1 PUSH1 0x1 PUSH1 0xA0 SHL SUB SWAP1 DUP2 AND SWAP1 DUP5 AND SUB PUSH2 0x1063 JUMPI PUSH1 0x19 SLOAD PUSH1 0x1 PUSH1 0xA8 SHL SWAP1 DIV PUSH1 0xFF AND ISZERO PUSH2 0xDEF JUMPI PUSH1 0x6 SLOAD PUSH1 0x40 DUP1 MLOAD PUSH4 0x240BC6B PUSH1 0xE2 SHL DUP2 MSTORE SWAP1 MLOAD PUSH1 0x1 PUSH1 0x1 PUSH1 0xA0 SHL SUB SWAP1 SWAP3 AND SWAP2 PUSH0 SWAP2 DUP3 SWAP2 DUP5 SWAP2 PUSH4 0x902F1AC SWAP2 PUSH1 0x4 DUP1 DUP4 ADD SWAP3 PUSH1 0x60 SWAP3 SWAP2 SWAP1 DUP3 SWAP1 SUB ADD DUP2 DUP7 GAS STATICCALL ISZERO DUP1 ISZERO PUSH2 0xD68 JUMPI RETURNDATASIZE PUSH0 PUSH0 RETURNDATACOPY RETURNDATASIZE PUSH0 REVERT JUMPDEST POP POP POP POP PUSH1 0x40 MLOAD RETURNDATASIZE PUSH1 0x1F NOT PUSH1 0x1F DUP3 ADD AND DUP3 ADD DUP1 PUSH1 0x40 MSTORE POP DUP2 ADD SWAP1 PUSH2 0xD8C SWAP2 SWAP1 PUSH2 0x3667 JUMP JUMPDEST POP SWAP2 POP SWAP2 POP DUP2 PUSH1 0x1 PUSH1 0x1 PUSH1 0x70 SHL SUB AND PUSH0 EQ DUP1 ISZERO PUSH2 0xDB0 JUMPI POP PUSH1 0x1 PUSH1 0x1 PUSH1 0x70 SHL SUB DUP2 AND ISZERO JUMPDEST DUP1 ISZERO PUSH2 0xDC5 JUMPI POP PUSH1 0x19 SLOAD PUSH1 0x1 PUSH1 0xA8 SHL SWAP1 DIV PUSH1 0xFF AND JUMPDEST ISZERO PUSH2 0xDEB JUMPI PUSH1 0x19 DUP1 SLOAD PUSH1 0xFF PUSH1 0xA8 SHL NOT AND SWAP1 SSTORE PUSH2 0xDE2 DUP8 DUP8 DUP8 PUSH2 0x16F4 JUMP JUMPDEST POP POP POP POP POP POP POP JUMP JUMPDEST POP POP POP JUMPDEST PUSH2 0xDFA PUSH1 0xA TIMESTAMP PUSH2 0x361F JUMP JUMPDEST ORIGIN PUSH0 SWAP1 DUP2 MSTORE PUSH1 0x9 PUSH1 0x20 MSTORE PUSH1 0x40 SWAP1 KECCAK256 SLOAD LT PUSH2 0xE3B JUMPI PUSH1 0x40 MLOAD PUSH3 0x461BCD PUSH1 0xE5 SHL DUP2 MSTORE PUSH1 0x20 PUSH1 0x4 DUP3 ADD MSTORE PUSH1 0x2 PUSH1 0x24 DUP3 ADD MSTORE PUSH2 0x18D9 PUSH1 0xF2 SHL PUSH1 0x44 DUP3 ADD MSTORE PUSH1 0x64 ADD PUSH2 0xF2 JUMP JUMPDEST PUSH0 PUSH2 0xE45 DUP4 PUSH2 0x1D81 JUMP JUMPDEST GT PUSH2 0x1063 JUMPI TIMESTAMP PUSH1 0x15 SLOAD LT PUSH2 0xE87 JUMPI PUSH1 0x40 MLOAD PUSH3 0x461BCD PUSH1 0xE5 SHL DUP2 MSTORE PUSH1 0x20 PUSH1 0x4 DUP3 ADD MSTORE PUSH1 0x9 PUSH1 0x24 DUP3 ADD MSTORE PUSH9 0x737461727454696D65 PUSH1 0xB8 SHL PUSH1 0x44 DUP3 ADD MSTORE PUSH1 0x64 ADD PUSH2 0xF2 JUMP JUMPDEST PUSH1 0x64 PUSH2 0xE91 PUSH2 0x1AE2 JUMP JUMPDEST PUSH2 0xE9C SWAP1 PUSH1 0xA PUSH2 0x35E1 JUMP JUMPDEST PUSH2 0xEA6 SWAP2 SWAP1 PUSH2 0x360C JUMP JUMPDEST DUP3 LT PUSH2 0xEE0 JUMPI PUSH1 0x40 MLOAD PUSH3 0x461BCD PUSH1 0xE5 SHL DUP2 MSTORE PUSH1 0x20 PUSH1 0x4 DUP3 ADD MSTORE PUSH1 0x9 PUSH1 0x24 DUP3 ADD MSTORE PUSH9 0x36B0BC103A37B5B2B7 PUSH1 0xB9 SHL PUSH1 0x44 DUP3 ADD MSTORE PUSH1 0x64 ADD PUSH2 0xF2 JUMP JUMPDEST PUSH2 0xEE8 PUSH2 0x1B22 JUMP JUMPDEST PUSH1 0x1C SLOAD PUSH0 SWAP1 PUSH1 0xFF AND PUSH2 0xEFC JUMPI PUSH2 0x12C PUSH2 0xF00 JUMP JUMPDEST PUSH2 0xB54 JUMPDEST PUSH2 0xFFFF AND SWAP1 POP PUSH0 PUSH2 0x2710 PUSH2 0xF14 DUP4 DUP7 PUSH2 0x35E1 JUMP JUMPDEST PUSH2 0xF1E SWAP2 SWAP1 PUSH2 0x360C JUMP JUMPDEST SWAP1 POP PUSH0 PUSH2 0x2710 PUSH2 0xF30 DUP7 PUSH2 0x12C PUSH2 0x35E1 JUMP JUMPDEST PUSH2 0xF3A SWAP2 SWAP1 PUSH2 0x360C JUMP JUMPDEST PUSH1 0x1C SLOAD SWAP1 SWAP2 POP PUSH0 SWAP1 PUSH1 0xFF AND DUP1 ISZERO PUSH2 0xF50 JUMPI POP DUP2 DUP4 GT JUMPDEST ISZERO PUSH2 0xFA0 JUMPI PUSH2 0xF5F DUP3 DUP5 PUSH2 0x361F JUMP JUMPDEST SWAP1 POP PUSH0 PUSH2 0xF6D PUSH1 0x2 DUP4 PUSH2 0x360C JUMP JUMPDEST SWAP1 POP PUSH2 0xF7A DUP10 ADDRESS DUP4 PUSH2 0x16F4 JUMP JUMPDEST PUSH2 0xF84 DUP2 DUP4 PUSH2 0x361F JUMP JUMPDEST PUSH1 0x12 PUSH0 DUP3 DUP3 SLOAD PUSH2 0xF94 SWAP2 SWAP1 PUSH2 0x34DD JUMP JUMPDEST SWAP3 POP POP DUP2 SWAP1 SSTORE POP DUP3 SWAP4 POP POP JUMPDEST PUSH0 PUSH1 0xA PUSH2 0xFAE DUP6 PUSH1 0x7 PUSH2 0x35E1 JUMP JUMPDEST PUSH2 0xFB8 SWAP2 SWAP1 PUSH2 0x360C JUMP JUMPDEST SWAP1 POP DUP1 PUSH1 0x12 PUSH0 DUP3 DUP3 SLOAD PUSH2 0xFCB SWAP2 SWAP1 PUSH2 0x34DD JUMP JUMPDEST SWAP1 SWAP2 SSTORE POP PUSH0 SWAP1 POP PUSH1 0xA PUSH2 0xFDF DUP7 PUSH1 0x1 PUSH2 0x35E1 JUMP JUMPDEST PUSH2 0xFE9 SWAP2 SWAP1 PUSH2 0x360C JUMP JUMPDEST SWAP1 POP PUSH2 0xFF8 DUP11 PUSH2 0xDEAD DUP4 PUSH2 0x16F4 JUMP JUMPDEST PUSH0 DUP2 PUSH2 0x1004 DUP5 DUP9 PUSH2 0x361F JUMP JUMPDEST PUSH2 0x100E SWAP2 SWAP1 PUSH2 0x361F JUMP JUMPDEST SWAP1 POP DUP1 PUSH1 0x13 PUSH0 DUP3 DUP3 SLOAD PUSH2 0x1021 SWAP2 SWAP1 PUSH2 0x34DD JUMP JUMPDEST SWAP1 SWAP2 SSTORE POP PUSH2 0x1032 SWAP1 POP DUP12 ADDRESS DUP6 PUSH2 0x16F4 JUMP JUMPDEST PUSH2 0x103D DUP12 ADDRESS DUP4 PUSH2 0x16F4 JUMP JUMPDEST PUSH2 0x1047 DUP5 DUP8 PUSH2 0x34DD JUMP JUMPDEST PUSH2 0x1051 SWAP1 DUP11 PUSH2 0x361F JUMP JUMPDEST SWAP9 POP PUSH2 0x105B PUSH2 0x1F79 JUMP JUMPDEST POP POP POP POP POP POP POP JUMPDEST PUSH2 0x973 PUSH2 0x21B9 JUMP JUMPDEST PUSH1 0x1 PUSH1 0x1 PUSH1 0xA0 SHL SUB DUP3 DUP2 AND PUSH0 SWAP1 DUP2 MSTORE PUSH1 0xA PUSH1 0x20 MSTORE PUSH1 0x40 DUP2 KECCAK256 SLOAD SWAP1 SWAP2 AND ISZERO DUP1 ISZERO PUSH2 0x10A2 JUMPI POP PUSH1 0x17 SLOAD PUSH1 0x1 PUSH1 0x1 PUSH1 0xA0 SHL SUB DUP5 DUP2 AND SWAP2 AND EQ ISZERO JUMPDEST DUP1 ISZERO PUSH2 0x10BC JUMPI POP PUSH1 0x6 SLOAD PUSH1 0x1 PUSH1 0x1 PUSH1 0xA0 SHL SUB DUP4 DUP2 AND SWAP2 AND EQ ISZERO JUMPDEST DUP1 ISZERO PUSH2 0x10D6 JUMPI POP PUSH1 0x6 SLOAD PUSH1 0x1 PUSH1 0x1 PUSH1 0xA0 SHL SUB DUP5 DUP2 AND SWAP2 AND EQ ISZERO JUMPDEST ISZERO PUSH2 0x10E2 JUMPI POP PUSH0 PUSH2 0x11AE JUMP JUMPDEST PUSH1 0x1 PUSH1 0x1 PUSH1 0xA0 SHL SUB DUP1 DUP5 AND PUSH0 SWAP1 DUP2 MSTORE PUSH1 0x7 PUSH1 0x20 SWAP1 DUP2 MSTORE PUSH1 0x40 DUP1 DUP4 KECCAK256 SWAP4 DUP7 AND DUP4 MSTORE SWAP3 SWAP1 MSTORE KECCAK256 SLOAD PUSH1 0xFF AND DUP1 PUSH2 0x1126 JUMPI POP DUP2 PUSH1 0x1 PUSH1 0x1 PUSH1 0xA0 SHL SUB AND DUP4 PUSH1 0x1 PUSH1 0x1 PUSH1 0xA0 SHL SUB AND EQ JUMPDEST ISZERO PUSH2 0x1132 JUMPI POP PUSH0 PUSH2 0x11AE JUMP JUMPDEST DUP2 PUSH0 JUMPDEST PUSH1 0x1 PUSH1 0x1 PUSH1 0xA0 SHL SUB DUP3 AND ISZERO DUP1 ISZERO SWAP1 PUSH2 0x1150 JUMPI POP PUSH1 0x19 DUP2 PUSH1 0xFF AND LT JUMPDEST ISZERO PUSH2 0x11A7 JUMPI DUP5 PUSH1 0x1 PUSH1 0x1 PUSH1 0xA0 SHL SUB AND DUP3 PUSH1 0x1 PUSH1 0x1 PUSH1 0xA0 SHL SUB AND SUB PUSH2 0x1178 JUMPI PUSH0 SWAP3 POP POP POP PUSH2 0x11AE JUMP JUMPDEST PUSH1 0x1 PUSH1 0x1 PUSH1 0xA0 SHL SUB SWAP2 DUP3 AND PUSH0 SWAP1 DUP2 MSTORE PUSH1 0xA PUSH1 0x20 MSTORE PUSH1 0x40 SWAP1 KECCAK256 SLOAD SWAP1 SWAP2 AND SWAP1 DUP1 PUSH2 0x119F DUP2 PUSH2 0x36B3 JUMP JUMPDEST SWAP2 POP POP PUSH2 0x1135 JUMP JUMPDEST PUSH1 0x1 SWAP3 POP POP POP JUMPDEST SWAP3 SWAP2 POP POP JUMP JUMPDEST PUSH0 PUSH2 0x11C8 DUP4 PUSH1 0x1 PUSH1 0x1 PUSH1 0xA0 SHL SUB DUP5 AND PUSH2 0x2338 JUMP JUMPDEST SWAP4 SWAP3 POP POP POP JUMP JUMPDEST PUSH0 PUSH2 0x11DB PUSH1 0xA DUP4 PUSH2 0x36D1 JUMP JUMPDEST SWAP1 POP PUSH0 PUSH2 0x11E9 PUSH1 0x2 DUP4 PUSH2 0x36D1 JUMP JUMPDEST ISZERO SWAP1 POP PUSH0 PUSH2 0x11F8 PUSH1 0x1 NUMBER PUSH2 0x361F JUMP JUMPDEST BLOCKHASH SWAP1 POP DUP1 PUSH2 0x120F JUMPI PUSH2 0x120B PUSH1 0x2 NUMBER PUSH2 0x361F JUMP JUMPDEST BLOCKHASH SWAP1 POP JUMPDEST PUSH1 0xFF DUP2 AND PUSH0 PUSH2 0x121F PUSH1 0xA DUP4 PUSH2 0x36F8 JUMP JUMPDEST SWAP1 POP PUSH0 PUSH2 0x122D PUSH1 0x2 DUP4 PUSH2 0x36F8 JUMP JUMPDEST PUSH1 0xFF AND ISZERO SWAP1 POP DUP5 ISZERO ISZERO DUP2 EQ PUSH0 PUSH2 0x1244 DUP10 PUSH1 0x2 PUSH2 0x35E1 JUMP JUMPDEST SWAP1 POP PUSH0 PUSH1 0x64 PUSH2 0x1254 DUP12 PUSH1 0x5 PUSH2 0x35E1 JUMP JUMPDEST PUSH2 0x125E SWAP2 SWAP1 PUSH2 0x360C JUMP JUMPDEST SWAP1 POP PUSH0 PUSH2 0x126B DUP3 DUP13 PUSH2 0x361F JUMP JUMPDEST PUSH1 0xF SLOAD SWAP1 SWAP2 POP PUSH1 0x1 PUSH1 0x1 PUSH1 0xA0 SHL SUB AND ISZERO DUP1 ISZERO SWAP1 PUSH2 0x1287 JUMPI POP PUSH0 DUP3 GT JUMPDEST ISZERO PUSH2 0x12A4 JUMPI PUSH1 0xF SLOAD PUSH2 0x12A4 SWAP1 DUP14 SWAP1 PUSH1 0x1 PUSH1 0x1 PUSH1 0xA0 SHL SUB AND DUP5 PUSH2 0x16F4 JUMP JUMPDEST PUSH2 0x12AF DUP13 ADDRESS DUP4 PUSH2 0x16F4 JUMP JUMPDEST DUP4 ISZERO PUSH2 0x1387 JUMPI ADDRESS PUSH0 SWAP1 DUP2 MSTORE PUSH1 0x20 DUP2 SWAP1 MSTORE PUSH1 0x40 SWAP1 KECCAK256 SLOAD DUP4 DUP2 LT PUSH2 0x1318 JUMPI PUSH2 0x12D6 ADDRESS DUP15 DUP7 PUSH2 0x16F4 JUMP JUMPDEST PUSH1 0x1 ISZERO ISZERO DUP14 PUSH1 0x1 PUSH1 0x1 PUSH1 0xA0 SHL SUB AND PUSH0 MLOAD PUSH1 0x20 PUSH2 0x8A53 PUSH0 CODECOPY PUSH0 MLOAD SWAP1 PUSH0 MSTORE DUP15 DUP8 PUSH1 0x40 MLOAD PUSH2 0x130B SWAP3 SWAP2 SWAP1 SWAP2 DUP3 MSTORE PUSH1 0x20 DUP3 ADD MSTORE PUSH1 0x40 ADD SWAP1 JUMP JUMPDEST PUSH1 0x40 MLOAD DUP1 SWAP2 SUB SWAP1 LOG3 PUSH2 0x1381 JUMP JUMPDEST DUP1 ISZERO PUSH2 0x1329 JUMPI PUSH2 0x1329 ADDRESS DUP15 DUP4 PUSH2 0x16F4 JUMP JUMPDEST PUSH1 0x1 PUSH1 0x1E PUSH0 PUSH2 0x100 EXP DUP2 SLOAD DUP2 PUSH1 0xFF MUL NOT AND SWAP1 DUP4 ISZERO ISZERO MUL OR SWAP1 SSTORE POP PUSH1 0x1 ISZERO ISZERO DUP14 PUSH1 0x1 PUSH1 0x1 PUSH1 0xA0 SHL SUB AND PUSH0 MLOAD PUSH1 0x20 PUSH2 0x8A53 PUSH0 CODECOPY PUSH0 MLOAD SWAP1 PUSH0 MSTORE DUP15 DUP5 PUSH1 0x40 MLOAD PUSH2 0x1378 SWAP3 SWAP2 SWAP1 SWAP2 DUP3 MSTORE PUSH1 0x20 DUP3 ADD MSTORE PUSH1 0x40 ADD SWAP1 JUMP JUMPDEST PUSH1 0x40 MLOAD DUP1 SWAP2 SUB SWAP1 LOG3 JUMPDEST POP PUSH2 0x13BB JUMP JUMPDEST PUSH1 0x40 DUP1 MLOAD DUP13 DUP2 MSTORE PUSH0 PUSH1 0x20 DUP3 ADD DUP2 SWAP1 MSTORE SWAP2 PUSH1 0x1 PUSH1 0x1 PUSH1 0xA0 SHL SUB DUP16 AND SWAP2 PUSH0 MLOAD PUSH1 0x20 PUSH2 0x8A53 PUSH0 CODECOPY PUSH0 MLOAD SWAP1 PUSH0 MSTORE SWAP2 ADD PUSH1 0x40 MLOAD DUP1 SWAP2 SUB SWAP1 LOG3 JUMPDEST POP POP POP POP POP POP POP POP POP POP POP POP JUMP JUMPDEST PUSH1 0x1 PUSH1 0x1 PUSH1 0xA0 SHL SUB DUP1 DUP3 AND PUSH0 SWAP1 DUP2 MSTORE PUSH1 0xA PUSH1 0x20 SWAP1 DUP2 MSTORE PUSH1 0x40 SWAP2 DUP3 SWAP1 KECCAK256 DUP3 MLOAD PUSH2 0x160 DUP2 ADD DUP5 MSTORE DUP2 SLOAD SWAP1 SWAP5 AND DUP5 MSTORE PUSH1 0x1 DUP2 ADD SLOAD SWAP2 DUP5 ADD SWAP2 SWAP1 SWAP2 MSTORE PUSH1 0x2 DUP2 ADD SLOAD SWAP2 DUP4 ADD SWAP2 SWAP1 SWAP2 MSTORE PUSH1 0x3 DUP2 ADD SLOAD PUSH1 0x60 DUP4 ADD MSTORE PUSH1 0x4 DUP2 ADD SLOAD PUSH1 0x80 DUP4 ADD MSTORE PUSH1 0x5 DUP2 ADD SLOAD PUSH1 0xA0 DUP4 ADD MSTORE PUSH1 0x6 DUP2 ADD SLOAD PUSH1 0xC0 DUP4 ADD MSTORE PUSH1 0x7 DUP2 ADD SLOAD PUSH1 0xE0 DUP4 ADD MSTORE PUSH1 0x8 DUP2 ADD SLOAD PUSH2 0x100 DUP1 DUP5 ADD SWAP2 SWAP1 SWAP2 MSTORE PUSH1 0x9 SWAP1 SWAP2 ADD SLOAD PUSH1 0xFF DUP1 DUP3 AND ISZERO ISZERO PUSH2 0x120 DUP6 ADD MSTORE SWAP2 SWAP1 DIV AND ISZERO DUP1 ISZERO PUSH2 0x140 DUP4 ADD DUP2 SWAP1 MSTORE SWAP1 PUSH2 0x147D JUMPI POP DUP1 PUSH2 0x120 ADD MLOAD JUMPDEST PUSH2 0x14C9 JUMPI PUSH1 0x40 MLOAD PUSH3 0x461BCD PUSH1 0xE5 SHL DUP2 MSTORE PUSH1 0x20 PUSH1 0x4 DUP3 ADD MSTORE PUSH1 0x1B PUSH1 0x24 DUP3 ADD MSTORE PUSH32 0x53746174696320726577617264206E6F7420617661696C61626C650000000000 PUSH1 0x44 DUP3 ADD MSTORE PUSH1 0x64 ADD PUSH2 0xF2 JUMP JUMPDEST PUSH0 PUSH2 0x14D3 DUP4 PUSH2 0x2384 JUMP JUMPDEST SWAP1 POP PUSH0 DUP2 GT PUSH2 0x1510 JUMPI PUSH1 0x40 MLOAD PUSH3 0x461BCD PUSH1 0xE5 SHL DUP2 MSTORE PUSH1 0x20 PUSH1 0x4 DUP3 ADD MSTORE PUSH1 0x9 PUSH1 0x24 DUP3 ADD MSTORE PUSH9 0x139BC81C995DD85C99 PUSH1 0xBA SHL PUSH1 0x44 DUP3 ADD MSTORE PUSH1 0x64 ADD PUSH2 0xF2 JUMP JUMPDEST PUSH0 DUP1 DUP1 DUP1 PUSH2 0x151C PUSH2 0x25A1 JUMP JUMPDEST PUSH1 0x20 DUP11 ADD MLOAD SWAP4 SWAP8 POP SWAP2 SWAP6 POP SWAP4 POP SWAP2 POP PUSH0 PUSH3 0x186A0 PUSH2 0x153A DUP5 DUP5 PUSH2 0x35E1 JUMP JUMPDEST PUSH2 0x1544 SWAP2 SWAP1 PUSH2 0x360C JUMP JUMPDEST PUSH3 0x186A0 PUSH2 0x1552 DUP7 DUP6 PUSH2 0x35E1 JUMP JUMPDEST PUSH2 0x155C SWAP2 SWAP1 PUSH2 0x360C JUMP JUMPDEST PUSH3 0x186A0 PUSH2 0x156A DUP9 DUP7 PUSH2 0x35E1 JUMP JUMPDEST PUSH2 0x1574 SWAP2 SWAP1 PUSH2 0x360C JUMP JUMPDEST PUSH2 0x157E SWAP1 DUP11 PUSH2 0x34DD JUMP JUMPDEST PUSH2 0x1588 SWAP2 SWAP1 PUSH2 0x34DD JUMP JUMPDEST PUSH2 0x1592 SWAP2 SWAP1 PUSH2 0x34DD JUMP JUMPDEST SWAP1 POP PUSH0 PUSH2 0x159E DUP3 PUSH2 0x25F3 JUMP JUMPDEST SWAP1 POP PUSH2 0x15AC DUP11 DUP10 DUP5 DUP5 PUSH2 0x2714 JUMP JUMPDEST PUSH0 DUP3 PUSH3 0x186A0 PUSH2 0x15BC DUP9 DUP8 PUSH2 0x35E1 JUMP JUMPDEST PUSH2 0x15C6 SWAP2 SWAP1 PUSH2 0x360C JUMP JUMPDEST PUSH2 0x15D0 SWAP1 DUP5 PUSH2 0x35E1 JUMP JUMPDEST PUSH2 0x15DA SWAP2 SWAP1 PUSH2 0x360C JUMP JUMPDEST SWAP1 POP DUP1 ISZERO PUSH2 0x15EB JUMPI PUSH2 0x15EB DUP2 PUSH2 0x2804 JUMP JUMPDEST PUSH0 DUP4 PUSH3 0x186A0 PUSH2 0x15FB DUP9 DUP9 PUSH2 0x35E1 JUMP JUMPDEST PUSH2 0x1605 SWAP2 SWAP1 PUSH2 0x360C JUMP JUMPDEST PUSH2 0x160F SWAP1 DUP6 PUSH2 0x35E1 JUMP JUMPDEST PUSH2 0x1619 SWAP2 SWAP1 PUSH2 0x360C JUMP JUMPDEST SWAP1 POP DUP1 ISZERO PUSH2 0x1699 JUMPI PUSH1 0x6 SLOAD PUSH1 0x18 SLOAD PUSH1 0x40 MLOAD PUSH4 0xA9059CBB PUSH1 0xE0 SHL DUP2 MSTORE PUSH1 0x1 PUSH1 0x1 PUSH1 0xA0 SHL SUB SWAP2 DUP3 AND PUSH1 0x4 DUP3 ADD MSTORE PUSH1 0x24 DUP2 ADD DUP5 SWAP1 MSTORE SWAP2 AND SWAP1 PUSH4 0xA9059CBB SWAP1 PUSH1 0x44 ADD PUSH1 0x20 PUSH1 0x40 MLOAD DUP1 DUP4 SUB DUP2 PUSH0 DUP8 GAS CALL ISZERO DUP1 ISZERO PUSH2 0x1673 JUMPI RETURNDATASIZE PUSH0 PUSH0 RETURNDATACOPY RETURNDATASIZE PUSH0 REVERT JUMPDEST POP POP POP POP PUSH1 0x40 MLOAD RETURNDATASIZE PUSH1 0x1F NOT PUSH1 0x1F DUP3 ADD AND DUP3 ADD DUP1 PUSH1 0x40 MSTORE POP DUP2 ADD SWAP1 PUSH2 0x1697 SWAP2 SWAP1 PUSH2 0x3632 JUMP JUMPDEST POP JUMPDEST PUSH1 0x1 PUSH1 0x1 PUSH1 0xA0 SHL SUB DUP13 AND PUSH0 SWAP1 DUP2 MSTORE PUSH1 0xA PUSH1 0x20 MSTORE PUSH1 0x40 DUP2 KECCAK256 PUSH1 0x8 ADD DUP1 SLOAD DUP13 SWAP3 SWAP1 PUSH2 0x16C3 SWAP1 DUP5 SWAP1 PUSH2 0x34DD JUMP JUMPDEST SWAP1 SWAP2 SSTORE POP POP POP PUSH1 0x1 PUSH1 0x1 PUSH1 0xA0 SHL SUB SWAP1 SWAP11 AND PUSH0 SWAP1 DUP2 MSTORE PUSH1 0xA PUSH1 0x20 MSTORE PUSH1 0x40 SWAP1 KECCAK256 TIMESTAMP PUSH1 0x4 SWAP1 SWAP2 ADD SSTORE POP POP POP POP POP POP POP POP POP POP JUMP JUMPDEST PUSH1 0x1 PUSH1 0x1 PUSH1 0xA0 SHL SUB DUP4 AND PUSH2 0x171E JUMPI DUP1 PUSH1 0x2 PUSH0 DUP3 DUP3 SLOAD PUSH2 0x1713 SWAP2 SWAP1 PUSH2 0x34DD JUMP JUMPDEST SWAP1 SWAP2 SSTORE POP PUSH2 0x178E SWAP1 POP JUMP JUMPDEST PUSH1 0x1 PUSH1 0x1 PUSH1 0xA0 SHL SUB DUP4 AND PUSH0 SWAP1 DUP2 MSTORE PUSH1 0x20 DUP2 SWAP1 MSTORE PUSH1 0x40 SWAP1 KECCAK256 SLOAD DUP2 DUP2 LT ISZERO PUSH2 0x1770 JUMPI PUSH1 0x40 MLOAD PUSH4 0x391434E3 PUSH1 0xE2 SHL DUP2 MSTORE PUSH1 0x1 PUSH1 0x1 PUSH1 0xA0 SHL SUB DUP6 AND PUSH1 0x4 DUP3 ADD MSTORE PUSH1 0x24 DUP2 ADD DUP3 SWAP1 MSTORE PUSH1 0x44 DUP2 ADD DUP4 SWAP1 MSTORE PUSH1 0x64 ADD PUSH2 0xF2 JUMP JUMPDEST PUSH1 0x1 PUSH1 0x1 PUSH1 0xA0 SHL SUB DUP5 AND PUSH0 SWAP1 DUP2 MSTORE PUSH1 0x20 DUP2 SWAP1 MSTORE PUSH1 0x40 SWAP1 KECCAK256 SWAP1 DUP3 SWAP1 SUB SWAP1 SSTORE JUMPDEST PUSH1 0x1 PUSH1 0x1 PUSH1 0xA0 SHL SUB DUP3 AND PUSH2 0x17AA JUMPI PUSH1 0x2 DUP1 SLOAD DUP3 SWAP1 SUB SWAP1 SSTORE PUSH2 0x17C8 JUMP JUMPDEST PUSH1 0x1 PUSH1 0x1 PUSH1 0xA0 SHL SUB DUP3 AND PUSH0 SWAP1 DUP2 MSTORE PUSH1 0x20 DUP2 SWAP1 MSTORE PUSH1 0x40 SWAP1 KECCAK256 DUP1 SLOAD DUP3 ADD SWAP1 SSTORE JUMPDEST DUP2 PUSH1 0x1 PUSH1 0x1 PUSH1 0xA0 SHL SUB AND DUP4 PUSH1 0x1 PUSH1 0x1 PUSH1 0xA0 SHL SUB AND PUSH32 0xDDF252AD1BE2C89B69C2B068FC378DAA952BA7F163C4A11628F55A4DF523B3EF DUP4 PUSH1 0x40 MLOAD PUSH2 0x180D SWAP2 DUP2 MSTORE PUSH1 0x20 ADD SWAP1 JUMP JUMPDEST PUSH1 0x40 MLOAD DUP1 SWAP2 SUB SWAP1 LOG3 POP POP POP JUMP JUMPDEST PUSH0 DUP1 PUSH2 0x1824 PUSH2 0x19DE JUMP JUMPDEST SWAP1 POP PUSH11 0x52B7D2DCC80CD2E4000000 DUP2 GT ISZERO PUSH2 0x1841 JUMPI PUSH1 0x32 SWAP2 POP POP SWAP1 JUMP JUMPDEST PUSH1 0x14 SWAP2 POP POP SWAP1 JUMP JUMPDEST PUSH0 PUSH0 PUSH1 0x6 PUSH0 SWAP1 SLOAD SWAP1 PUSH2 0x100 EXP SWAP1 DIV PUSH1 0x1 PUSH1 0x1 PUSH1 0xA0 SHL SUB AND PUSH1 0x1 PUSH1 0x1 PUSH1 0xA0 SHL SUB AND PUSH4 0x902F1AC PUSH1 0x40 MLOAD DUP2 PUSH4 0xFFFFFFFF AND PUSH1 0xE0 SHL DUP2 MSTORE PUSH1 0x4 ADD PUSH1 0x60 PUSH1 0x40 MLOAD DUP1 DUP4 SUB DUP2 DUP7 GAS STATICCALL ISZERO DUP1 ISZERO PUSH2 0x189B JUMPI RETURNDATASIZE PUSH0 PUSH0 RETURNDATACOPY RETURNDATASIZE PUSH0 REVERT JUMPDEST POP POP POP POP PUSH1 0x40 MLOAD RETURNDATASIZE PUSH1 0x1F NOT PUSH1 0x1F DUP3 ADD AND DUP3 ADD DUP1 PUSH1 0x40 MSTORE POP DUP2 ADD SWAP1 PUSH2 0x18BF SWAP2 SWAP1 PUSH2 0x3667 JUMP JUMPDEST POP POP PUSH1 0xB SLOAD PUSH1 0x6 SLOAD PUSH1 0x40 MLOAD PUSH4 0x70A08231 PUSH1 0xE0 SHL DUP2 MSTORE PUSH1 0x1 PUSH1 0x1 PUSH1 0xA0 SHL SUB SWAP2 DUP3 AND PUSH1 0x4 DUP3 ADD MSTORE PUSH1 0x1 PUSH1 0x1 PUSH1 0x70 SHL SUB SWAP4 SWAP1 SWAP4 AND SWAP4 POP PUSH0 SWAP3 SWAP2 AND SWAP1 PUSH4 0x70A08231 SWAP1 PUSH1 0x24 ADD PUSH1 0x20 PUSH1 0x40 MLOAD DUP1 DUP4 SUB DUP2 DUP7 GAS STATICCALL ISZERO DUP1 ISZERO PUSH2 0x191B JUMPI RETURNDATASIZE PUSH0 PUSH0 RETURNDATACOPY RETURNDATASIZE PUSH0 REVERT JUMPDEST POP POP POP POP PUSH1 0x40 MLOAD RETURNDATASIZE PUSH1 0x1F NOT PUSH1 0x1F DUP3 ADD AND DUP3 ADD DUP1 PUSH1 0x40 MSTORE POP DUP2 ADD SWAP1 PUSH2 0x193F SWAP2 SWAP1 PUSH2 0x3719 JUMP JUMPDEST SWAP1 POP DUP1 DUP3 GT ISZERO PUSH2 0x19D9 JUMPI PUSH1 0x6 SLOAD PUSH1 0x40 DUP1 MLOAD PUSH4 0x18160DDD PUSH1 0xE0 SHL DUP2 MSTORE SWAP1 MLOAD PUSH0 SWAP3 PUSH1 0x1 PUSH1 0x1 PUSH1 0xA0 SHL SUB AND SWAP2 PUSH4 0x18160DDD SWAP2 PUSH1 0x4 DUP1 DUP4 ADD SWAP3 PUSH1 0x20 SWAP3 SWAP2 SWAP1 DUP3 SWAP1 SUB ADD DUP2 DUP7 GAS STATICCALL ISZERO DUP1 ISZERO PUSH2 0x1990 JUMPI RETURNDATASIZE PUSH0 PUSH0 RETURNDATACOPY RETURNDATASIZE PUSH0 REVERT JUMPDEST POP POP POP POP PUSH1 0x40 MLOAD RETURNDATASIZE PUSH1 0x1F NOT PUSH1 0x1F DUP3 ADD AND DUP3 ADD DUP1 PUSH1 0x40 MSTORE POP DUP2 ADD SWAP1 PUSH2 0x19B4 SWAP2 SWAP1 PUSH2 0x3719 JUMP JUMPDEST SWAP1 POP DUP2 PUSH2 0x19C1 DUP2 DUP6 PUSH2 0x361F JUMP JUMPDEST PUSH2 0x19CB SWAP1 DUP4 PUSH2 0x35E1 JUMP JUMPDEST PUSH2 0x19D5 SWAP2 SWAP1 PUSH2 0x360C JUMP JUMPDEST SWAP4 POP POP JUMPDEST POP POP SWAP1 JUMP JUMPDEST PUSH1 0x6 SLOAD PUSH1 0x40 DUP1 MLOAD PUSH4 0x240BC6B PUSH1 0xE2 SHL DUP2 MSTORE SWAP1 MLOAD PUSH0 SWAP3 PUSH1 0x1 PUSH1 0x1 PUSH1 0xA0 SHL SUB AND SWAP2 DUP4 SWAP2 DUP3 SWAP2 DUP5 SWAP2 PUSH4 0x902F1AC SWAP2 PUSH1 0x4 DUP1 DUP3 ADD SWAP3 PUSH1 0x60 SWAP3 SWAP1 SWAP2 SWAP1 DUP3 SWAP1 SUB ADD DUP2 DUP7 GAS STATICCALL ISZERO DUP1 ISZERO PUSH2 0x1A2C JUMPI RETURNDATASIZE PUSH0 PUSH0 RETURNDATACOPY RETURNDATASIZE PUSH0 REVERT JUMPDEST POP POP POP POP PUSH1 0x40 MLOAD RETURNDATASIZE PUSH1 0x1F NOT PUSH1 0x1F DUP3 ADD AND DUP3 ADD DUP1 PUSH1 0x40 MSTORE POP DUP2 ADD SWAP1 PUSH2 0x1A50 SWAP2 SWAP1 PUSH2 0x3667 JUMP JUMPDEST POP SWAP2 POP SWAP2 POP PUSH0 DUP4 PUSH1 0x1 PUSH1 0x1 PUSH1 0xA0 SHL SUB AND PUSH4 0xDFE1681 PUSH1 0x40 MLOAD DUP2 PUSH4 0xFFFFFFFF AND PUSH1 0xE0 SHL DUP2 MSTORE PUSH1 0x4 ADD PUSH1 0x20 PUSH1 0x40 MLOAD DUP1 DUP4 SUB DUP2 DUP7 GAS STATICCALL ISZERO DUP1 ISZERO PUSH2 0x1A92 JUMPI RETURNDATASIZE PUSH0 PUSH0 RETURNDATACOPY RETURNDATASIZE PUSH0 REVERT JUMPDEST POP POP POP POP PUSH1 0x40 MLOAD RETURNDATASIZE PUSH1 0x1F NOT PUSH1 0x1F DUP3 ADD AND DUP3 ADD DUP1 PUSH1 0x40 MSTORE POP DUP2 ADD SWAP1 PUSH2 0x1AB6 SWAP2 SWAP1 PUSH2 0x34B0 JUMP JUMPDEST SWAP1 POP PUSH1 0x1 PUSH1 0x1 PUSH1 0xA0 SHL SUB DUP2 AND ADDRESS EQ PUSH2 0x1ACE JUMPI DUP2 PUSH2 0x1AD0 JUMP JUMPDEST DUP3 JUMPDEST PUSH1 0x1 PUSH1 0x1 PUSH1 0x70 SHL SUB AND SWAP5 POP POP POP POP POP SWAP1 JUMP JUMPDEST PUSH2 0xDEAD PUSH0 SWAP1 DUP2 MSTORE PUSH1 0x20 DUP2 SWAP1 MSTORE PUSH32 0x44AD89BA62B98FF34F51403AC22759B55759460C0BB5521EB4B6EE3CFF49CF83 SLOAD PUSH1 0x2 SLOAD PUSH2 0x1B1D SWAP2 SWAP1 PUSH2 0x361F JUMP JUMPDEST SWAP1 POP SWAP1 JUMP JUMPDEST PUSH1 0x6 SLOAD PUSH1 0x40 DUP1 MLOAD PUSH4 0x240BC6B PUSH1 0xE2 SHL DUP2 MSTORE SWAP1 MLOAD PUSH1 0x1 PUSH1 0x1 PUSH1 0xA0 SHL SUB SWAP1 SWAP3 AND SWAP2 PUSH0 SWAP2 DUP3 SWAP2 DUP5 SWAP2 PUSH4 0x902F1AC SWAP2 PUSH1 0x4 DUP1 DUP4 ADD SWAP3 PUSH1 0x60 SWAP3 SWAP2 SWAP1 DUP3 SWAP1 SUB ADD DUP2 DUP7 GAS STATICCALL ISZERO DUP1 ISZERO PUSH2 0x1B6F JUMPI RETURNDATASIZE PUSH0 PUSH0 RETURNDATACOPY RETURNDATASIZE PUSH0 REVERT JUMPDEST POP POP POP POP PUSH1 0x40 MLOAD RETURNDATASIZE PUSH1 0x1F NOT PUSH1 0x1F DUP3 ADD AND DUP3 ADD DUP1 PUSH1 0x40 MSTORE POP DUP2 ADD SWAP1 PUSH2 0x1B93 SWAP2 SWAP1 PUSH2 0x3667 JUMP JUMPDEST POP SWAP2 POP SWAP2 POP DUP2 PUSH1 0x1 PUSH1 0x1 PUSH1 0x70 SHL SUB AND PUSH0 EQ DUP1 PUSH2 0x1BB6 JUMPI POP PUSH1 0x1 PUSH1 0x1 PUSH1 0x70 SHL SUB DUP2 AND ISZERO JUMPDEST ISZERO PUSH2 0x1BC0 JUMPI POP POP POP JUMP JUMPDEST PUSH0 DUP4 PUSH1 0x1 PUSH1 0x1 PUSH1 0xA0 SHL SUB AND PUSH4 0xDFE1681 PUSH1 0x40 MLOAD DUP2 PUSH4 0xFFFFFFFF AND PUSH1 0xE0 SHL DUP2 MSTORE PUSH1 0x4 ADD PUSH1 0x20 PUSH1 0x40 MLOAD DUP1 DUP4 SUB DUP2 DUP7 GAS STATICCALL ISZERO DUP1 ISZERO PUSH2 0x1BFD JUMPI RETURNDATASIZE PUSH0 PUSH0 RETURNDATACOPY RETURNDATASIZE PUSH0 REVERT JUMPDEST POP POP POP POP PUSH1 0x40 MLOAD RETURNDATASIZE PUSH1 0x1F NOT PUSH1 0x1F DUP3 ADD AND DUP3 ADD DUP1 PUSH1 0x40 MSTORE POP DUP2 ADD SWAP1 PUSH2 0x1C21 SWAP2 SWAP1 PUSH2 0x34B0 JUMP JUMPDEST SWAP1 POP PUSH0 PUSH1 0x1 PUSH1 0x1 PUSH1 0xA0 SHL SUB DUP3 AND ADDRESS EQ PUSH2 0x1C3A JUMPI DUP3 PUSH2 0x1C3C JUMP JUMPDEST DUP4 JUMPDEST PUSH1 0x1 PUSH1 0x1 PUSH1 0x70 SHL SUB AND SWAP1 POP PUSH0 PUSH1 0x1 PUSH1 0x1 PUSH1 0xA0 SHL SUB DUP4 AND ADDRESS EQ PUSH2 0x1C5E JUMPI DUP5 PUSH2 0x1C60 JUMP JUMPDEST DUP4 JUMPDEST PUSH1 0x1 PUSH1 0x1 PUSH1 0x70 SHL SUB AND SWAP1 POP DUP1 PUSH0 SUB PUSH2 0x1C7A JUMPI POP POP POP POP POP POP JUMP JUMPDEST PUSH0 DUP3 PUSH2 0x1C8E DUP4 PUSH8 0xDE0B6B3A7640000 PUSH2 0x35E1 JUMP JUMPDEST PUSH2 0x1C98 SWAP2 SWAP1 PUSH2 0x360C JUMP JUMPDEST SWAP1 POP PUSH0 PUSH2 0x1CA8 PUSH3 0x15180 TIMESTAMP PUSH2 0x360C JUMP JUMPDEST SWAP1 POP PUSH1 0x1A SLOAD DUP2 GT ISZERO PUSH2 0x1D77 JUMPI PUSH0 PUSH1 0x1B SLOAD GT DUP1 ISZERO PUSH2 0x1CDE JUMPI POP PUSH1 0x64 PUSH1 0x1B SLOAD PUSH1 0x5C PUSH2 0x1CD1 SWAP2 SWAP1 PUSH2 0x35E1 JUMP JUMPDEST PUSH2 0x1CDB SWAP2 SWAP1 PUSH2 0x360C JUMP JUMPDEST DUP3 LT JUMPDEST ISZERO PUSH2 0x1D61 JUMPI PUSH1 0x1C DUP1 SLOAD PUSH1 0xFF NOT AND PUSH1 0x1 OR SWAP1 SSTORE PUSH1 0x1B SLOAD PUSH32 0xE9560271FF9C39B91BAAAAFEBB009E70AD170A54AB31A72F4B884680B076682 SWAP1 DUP3 SWAP1 PUSH2 0x1D21 JUMPI PUSH0 PUSH2 0x1D44 JUMP JUMPDEST PUSH1 0x1B SLOAD PUSH2 0x1D2E DUP6 DUP3 PUSH2 0x361F JUMP JUMPDEST PUSH2 0x1D3A SWAP1 PUSH2 0x2710 PUSH2 0x35E1 JUMP JUMPDEST PUSH2 0x1D44 SWAP2 SWAP1 PUSH2 0x360C JUMP JUMPDEST PUSH1 0x40 DUP1 MLOAD SWAP3 DUP4 MSTORE PUSH1 0x20 DUP4 ADD SWAP2 SWAP1 SWAP2 MSTORE ADD PUSH1 0x40 MLOAD DUP1 SWAP2 SUB SWAP1 LOG1 PUSH2 0x1D6C JUMP JUMPDEST PUSH1 0x1C DUP1 SLOAD PUSH1 0xFF NOT AND SWAP1 SSTORE JUMPDEST PUSH1 0x1B DUP3 SWAP1 SSTORE PUSH1 0x1A DUP2 SWAP1 SSTORE JUMPDEST POP POP POP POP POP POP POP POP JUMP JUMPDEST PUSH1 0x80 MLOAD PUSH0 SWAP1 PUSH1 0x1 PUSH1 0x1 PUSH1 0xA0 SHL SUB AND CALLER SUB PUSH2 0x1F74 JUMPI PUSH0 PUSH0 PUSH1 0x6 PUSH0 SWAP1 SLOAD SWAP1 PUSH2 0x100 EXP SWAP1 DIV PUSH1 0x1 PUSH1 0x1 PUSH1 0xA0 SHL SUB AND PUSH1 0x1 PUSH1 0x1 PUSH1 0xA0 SHL SUB AND PUSH4 0x902F1AC PUSH1 0x40 MLOAD DUP2 PUSH4 0xFFFFFFFF AND PUSH1 0xE0 SHL DUP2 MSTORE PUSH1 0x4 ADD PUSH1 0x60 PUSH1 0x40 MLOAD DUP1 DUP4 SUB DUP2 DUP7 GAS STATICCALL ISZERO DUP1 ISZERO PUSH2 0x1DE7 JUMPI RETURNDATASIZE PUSH0 PUSH0 RETURNDATACOPY RETURNDATASIZE PUSH0 REVERT JUMPDEST POP POP POP POP PUSH1 0x40 MLOAD RETURNDATASIZE PUSH1 0x1F NOT PUSH1 0x1F DUP3 ADD AND DUP3 ADD DUP1 PUSH1 0x40 MSTORE POP DUP2 ADD SWAP1 PUSH2 0x1E0B SWAP2 SWAP1 PUSH2 0x3667 JUMP JUMPDEST POP PUSH1 0xB SLOAD PUSH1 0x6 SLOAD PUSH1 0x40 MLOAD PUSH4 0x70A08231 PUSH1 0xE0 SHL DUP2 MSTORE PUSH1 0x1 PUSH1 0x1 PUSH1 0xA0 SHL SUB SWAP2 DUP3 AND PUSH1 0x4 DUP3 ADD MSTORE PUSH1 0x1 PUSH1 0x1 PUSH1 0x70 SHL SUB SWAP5 DUP6 AND SWAP7 POP SWAP3 SWAP1 SWAP4 AND SWAP4 POP PUSH0 SWAP3 AND SWAP1 PUSH4 0x70A08231 SWAP1 PUSH1 0x24 ADD PUSH1 0x20 PUSH1 0x40 MLOAD DUP1 DUP4 SUB DUP2 DUP7 GAS STATICCALL ISZERO DUP1 ISZERO PUSH2 0x1E6A JUMPI RETURNDATASIZE PUSH0 PUSH0 RETURNDATACOPY RETURNDATASIZE PUSH0 REVERT JUMPDEST POP POP POP POP PUSH1 0x40 MLOAD RETURNDATASIZE PUSH1 0x1F NOT PUSH1 0x1F DUP3 ADD AND DUP3 ADD DUP1 PUSH1 0x40 MSTORE POP DUP2 ADD SWAP1 PUSH2 0x1E8E SWAP2 SWAP1 PUSH2 0x3719 JUMP JUMPDEST SWAP1 POP DUP3 DUP2 GT ISZERO PUSH2 0x1F70 JUMPI PUSH1 0x6 SLOAD PUSH1 0x40 DUP1 MLOAD PUSH4 0x18160DDD PUSH1 0xE0 SHL DUP2 MSTORE SWAP1 MLOAD PUSH0 SWAP3 PUSH1 0x1 PUSH1 0x1 PUSH1 0xA0 SHL SUB AND SWAP2 PUSH4 0x18160DDD SWAP2 PUSH1 0x4 DUP1 DUP4 ADD SWAP3 PUSH1 0x20 SWAP3 SWAP2 SWAP1 DUP3 SWAP1 SUB ADD DUP2 DUP7 GAS STATICCALL ISZERO DUP1 ISZERO PUSH2 0x1EDF JUMPI RETURNDATASIZE PUSH0 PUSH0 RETURNDATACOPY RETURNDATASIZE PUSH0 REVERT JUMPDEST POP POP POP POP PUSH1 0x40 MLOAD RETURNDATASIZE PUSH1 0x1F NOT PUSH1 0x1F DUP3 ADD AND DUP3 ADD DUP1 PUSH1 0x40 MSTORE POP DUP2 ADD SWAP1 PUSH2 0x1F03 SWAP2 SWAP1 PUSH2 0x3719 JUMP JUMPDEST SWAP1 POP DUP1 PUSH0 SUB PUSH2 0x1F18 JUMPI POP PUSH1 0x1 SWAP6 SWAP5 POP POP POP POP POP JUMP JUMPDEST PUSH2 0x1F23 DUP2 DUP4 DUP6 PUSH2 0x2A7A JUMP JUMPDEST PUSH2 0x1F2D SWAP1 DUP3 PUSH2 0x34DD JUMP JUMPDEST SWAP1 POP PUSH2 0x1F6C DUP5 DUP3 PUSH2 0x1F3E DUP3 DUP7 PUSH2 0x361F JUMP JUMPDEST PUSH2 0x1F48 SWAP2 SWAP1 PUSH2 0x35E1 JUMP JUMPDEST PUSH2 0x1F52 SWAP2 SWAP1 PUSH2 0x360C JUMP JUMPDEST DUP5 PUSH2 0x1F5D DUP5 DUP11 PUSH2 0x35E1 JUMP JUMPDEST PUSH2 0x1F67 SWAP2 SWAP1 PUSH2 0x360C JUMP JUMPDEST PUSH2 0x2B6F JUMP JUMPDEST SWAP5 POP POP JUMPDEST POP POP POP JUMPDEST SWAP2 SWAP1 POP JUMP JUMPDEST PUSH0 PUSH1 0x13 SLOAD PUSH1 0x12 SLOAD PUSH2 0x1F8A SWAP2 SWAP1 PUSH2 0x34DD JUMP JUMPDEST SWAP1 POP PUSH8 0xDE0B6B3A7640000 DUP2 LT ISZERO PUSH2 0x1F9F JUMPI POP JUMP JUMPDEST PUSH2 0x1FB2 ADDRESS PUSH1 0x80 MLOAD DUP4 PUSH2 0x2B84 PUSH1 0x20 SHL PUSH1 0x20 SHR JUMP JUMPDEST PUSH1 0x40 DUP1 MLOAD PUSH1 0x2 DUP1 DUP3 MSTORE PUSH1 0x60 DUP3 ADD DUP4 MSTORE PUSH0 SWAP3 PUSH1 0x20 DUP4 ADD SWAP1 DUP1 CALLDATASIZE DUP4 CALLDATACOPY ADD SWAP1 POP POP SWAP1 POP ADDRESS DUP2 PUSH0 DUP2 MLOAD DUP2 LT PUSH2 0x1FE5 JUMPI PUSH2 0x1FE5 PUSH2 0x36E4 JUMP JUMPDEST PUSH1 0x1 PUSH1 0x1 PUSH1 0xA0 SHL SUB SWAP3 DUP4 AND PUSH1 0x20 SWAP2 DUP3 MUL SWAP3 SWAP1 SWAP3 ADD ADD MSTORE PUSH1 0xB SLOAD DUP3 MLOAD SWAP2 AND SWAP1 DUP3 SWAP1 PUSH1 0x1 SWAP1 DUP2 LT PUSH2 0x2016 JUMPI PUSH2 0x2016 PUSH2 0x36E4 JUMP JUMPDEST PUSH1 0x1 PUSH1 0x1 PUSH1 0xA0 SHL SUB SWAP3 DUP4 AND PUSH1 0x20 SWAP2 DUP3 MUL SWAP3 SWAP1 SWAP3 ADD ADD MSTORE PUSH1 0x80 MLOAD PUSH1 0x40 MLOAD PUSH4 0x791AC947 PUSH1 0xE0 SHL DUP2 MSTORE SWAP2 AND SWAP1 PUSH4 0x791AC947 SWAP1 PUSH2 0x205B SWAP1 DUP6 SWAP1 PUSH0 SWAP1 DUP7 SWAP1 ADDRESS SWAP1 TIMESTAMP SWAP1 PUSH1 0x4 ADD PUSH2 0x3773 JUMP JUMPDEST PUSH0 PUSH1 0x40 MLOAD DUP1 DUP4 SUB DUP2 PUSH0 DUP8 DUP1 EXTCODESIZE ISZERO DUP1 ISZERO PUSH2 0x2072 JUMPI PUSH0 PUSH0 REVERT JUMPDEST POP GAS CALL ISZERO DUP1 ISZERO PUSH2 0x2084 JUMPI RETURNDATASIZE PUSH0 PUSH0 RETURNDATACOPY RETURNDATASIZE PUSH0 REVERT JUMPDEST POP POP PUSH1 0x13 SLOAD SELFBALANCE SWAP3 POP PUSH0 SWAP2 POP DUP5 SWAP1 PUSH2 0x209B SWAP1 DUP5 PUSH2 0x35E1 JUMP JUMPDEST PUSH2 0x20A5 SWAP2 SWAP1 PUSH2 0x360C JUMP JUMPDEST PUSH1 0x19 SLOAD SWAP1 SWAP2 POP PUSH2 0x20BE SWAP1 PUSH1 0x1 PUSH1 0x1 PUSH1 0xA0 SHL SUB AND DUP3 PUSH2 0x2B91 JUMP JUMPDEST PUSH0 PUSH2 0x20C9 DUP3 DUP5 PUSH2 0x361F JUMP JUMPDEST SWAP1 POP PUSH0 DUP2 GT DUP1 ISZERO PUSH2 0x20E4 JUMPI POP PUSH1 0xF SLOAD PUSH1 0x1 PUSH1 0x1 PUSH1 0xA0 SHL SUB AND ISZERO ISZERO JUMPDEST ISZERO PUSH2 0x2175 JUMPI PUSH1 0xF SLOAD PUSH1 0x40 MLOAD PUSH0 SWAP2 PUSH1 0x1 PUSH1 0x1 PUSH1 0xA0 SHL SUB AND SWAP1 DUP4 SWAP1 DUP4 DUP2 DUP2 DUP2 DUP6 DUP8 GAS CALL SWAP3 POP POP POP RETURNDATASIZE DUP1 PUSH0 DUP2 EQ PUSH2 0x2133 JUMPI PUSH1 0x40 MLOAD SWAP2 POP PUSH1 0x1F NOT PUSH1 0x3F RETURNDATASIZE ADD AND DUP3 ADD PUSH1 0x40 MSTORE RETURNDATASIZE DUP3 MSTORE RETURNDATASIZE PUSH0 PUSH1 0x20 DUP5 ADD RETURNDATACOPY PUSH2 0x2138 JUMP JUMPDEST PUSH1 0x60 SWAP2 POP JUMPDEST POP POP SWAP1 POP DUP1 ISZERO DUP1 ISZERO PUSH2 0x2154 JUMPI POP PUSH1 0xC SLOAD PUSH1 0x1 PUSH1 0x1 PUSH1 0xA0 SHL SUB AND ISZERO ISZERO JUMPDEST ISZERO PUSH2 0x216F JUMPI PUSH1 0xC SLOAD PUSH2 0x216F SWAP1 PUSH1 0x1 PUSH1 0x1 PUSH1 0xA0 SHL SUB AND DUP4 PUSH2 0x2B91 JUMP JUMPDEST POP PUSH2 0x21A9 JUMP JUMPDEST PUSH0 DUP2 GT DUP1 ISZERO PUSH2 0x218E JUMPI POP PUSH1 0xC SLOAD PUSH1 0x1 PUSH1 0x1 PUSH1 0xA0 SHL SUB AND ISZERO ISZERO JUMPDEST ISZERO PUSH2 0x21A9 JUMPI PUSH1 0xC SLOAD PUSH2 0x21A9 SWAP1 PUSH1 0x1 PUSH1 0x1 PUSH1 0xA0 SHL SUB AND DUP3 PUSH2 0x2B91 JUMP JUMPDEST POP POP PUSH0 PUSH1 0x12 DUP2 SWAP1 SSTORE PUSH1 0x13 SSTORE POP POP POP JUMP JUMPDEST PUSH1 0x6 SLOAD PUSH1 0x40 DUP1 MLOAD PUSH4 0x240BC6B PUSH1 0xE2 SHL DUP2 MSTORE SWAP1 MLOAD PUSH1 0x1 PUSH1 0x1 PUSH1 0xA0 SHL SUB SWAP1 SWAP3 AND SWAP2 PUSH0 SWAP2 DUP3 SWAP2 DUP5 SWAP2 PUSH4 0x902F1AC SWAP2 PUSH1 0x4 DUP1 DUP4 ADD SWAP3 PUSH1 0x60 SWAP3 SWAP2 SWAP1 DUP3 SWAP1 SUB ADD DUP2 DUP7 GAS STATICCALL ISZERO DUP1 ISZERO PUSH2 0x2206 JUMPI RETURNDATASIZE PUSH0 PUSH0 RETURNDATACOPY RETURNDATASIZE PUSH0 REVERT JUMPDEST POP POP POP POP PUSH1 0x40 MLOAD RETURNDATASIZE PUSH1 0x1F NOT PUSH1 0x1F DUP3 ADD AND DUP3 ADD DUP1 PUSH1 0x40 MSTORE POP DUP2 ADD SWAP1 PUSH2 0x222A SWAP2 SWAP1 PUSH2 0x3667 JUMP JUMPDEST POP SWAP2 POP SWAP2 POP DUP2 PUSH1 0x1 PUSH1 0x1 PUSH1 0x70 SHL SUB AND PUSH0 EQ DUP1 PUSH2 0x224D JUMPI POP PUSH1 0x1 PUSH1 0x1 PUSH1 0x70 SHL SUB DUP2 AND ISZERO JUMPDEST ISZERO PUSH2 0x2257 JUMPI POP POP POP JUMP JUMPDEST PUSH0 DUP4 PUSH1 0x1 PUSH1 0x1 PUSH1 0xA0 SHL SUB AND PUSH4 0xDFE1681 PUSH1 0x40 MLOAD DUP2 PUSH4 0xFFFFFFFF AND PUSH1 0xE0 SHL DUP2 MSTORE PUSH1 0x4 ADD PUSH1 0x20 PUSH1 0x40 MLOAD DUP1 DUP4 SUB DUP2 DUP7 GAS STATICCALL ISZERO DUP1 ISZERO PUSH2 0x2294 JUMPI RETURNDATASIZE PUSH0 PUSH0 RETURNDATACOPY RETURNDATASIZE PUSH0 REVERT JUMPDEST POP POP POP POP PUSH1 0x40 MLOAD RETURNDATASIZE PUSH1 0x1F NOT PUSH1 0x1F DUP3 ADD AND DUP3 ADD DUP1 PUSH1 0x40 MSTORE POP DUP2 ADD SWAP1 PUSH2 0x22B8 SWAP2 SWAP1 PUSH2 0x34B0 JUMP JUMPDEST SWAP1 POP PUSH0 PUSH1 0x1 PUSH1 0x1 PUSH1 0xA0 SHL SUB DUP3 AND ADDRESS EQ PUSH2 0x22D1 JUMPI DUP3 PUSH2 0x22D3 JUMP JUMPDEST DUP4 JUMPDEST PUSH1 0x1 PUSH1 0x1 PUSH1 0x70 SHL SUB AND SWAP1 POP PUSH1 0x11 SLOAD DUP2 LT ISZERO PUSH2 0x2312 JUMPI PUSH1 0x10 SLOAD PUSH1 0x1 PUSH1 0xA0 SHL SWAP1 DIV PUSH1 0xFF AND PUSH2 0x230D JUMPI PUSH1 0x10 DUP1 SLOAD PUSH1 0xFF PUSH1 0xA0 SHL NOT AND PUSH1 0x1 PUSH1 0xA0 SHL OR SWAP1 SSTORE JUMPDEST PUSH2 0x96C JUMP JUMPDEST PUSH1 0x10 SLOAD PUSH1 0x1 PUSH1 0xA0 SHL SWAP1 DIV PUSH1 0xFF AND ISZERO PUSH2 0x96C JUMPI PUSH1 0x10 DUP1 SLOAD PUSH1 0xFF PUSH1 0xA0 SHL NOT AND SWAP1 SSTORE POP POP POP POP POP JUMP JUMPDEST PUSH0 DUP2 DUP2 MSTORE PUSH1 0x1 DUP4 ADD PUSH1 0x20 MSTORE PUSH1 0x40 DUP2 KECCAK256 SLOAD PUSH2 0x237D JUMPI POP DUP2 SLOAD PUSH1 0x1 DUP2 DUP2 ADD DUP5 SSTORE PUSH0 DUP5 DUP2 MSTORE PUSH1 0x20 DUP1 DUP3 KECCAK256 SWAP1 SWAP4 ADD DUP5 SWAP1 SSTORE DUP5 SLOAD DUP5 DUP3 MSTORE DUP3 DUP7 ADD SWAP1 SWAP4 MSTORE PUSH1 0x40 SWAP1 KECCAK256 SWAP2 SWAP1 SWAP2 SSTORE PUSH2 0x11AE JUMP JUMPDEST POP PUSH0 PUSH2 0x11AE JUMP JUMPDEST PUSH1 0x1 PUSH1 0x1 PUSH1 0xA0 SHL SUB DUP1 DUP3 AND PUSH0 SWAP1 DUP2 MSTORE PUSH1 0xA PUSH1 0x20 SWAP1 DUP2 MSTORE PUSH1 0x40 DUP1 DUP4 KECCAK256 DUP2 MLOAD PUSH2 0x160 DUP2 ADD DUP4 MSTORE DUP2 SLOAD SWAP1 SWAP6 AND DUP6 MSTORE PUSH1 0x1 DUP2 ADD SLOAD SWAP3 DUP6 ADD SWAP3 SWAP1 SWAP3 MSTORE PUSH1 0x2 DUP3 ADD SLOAD SWAP1 DUP5 ADD MSTORE PUSH1 0x3 DUP2 ADD SLOAD PUSH1 0x60 DUP5 ADD MSTORE PUSH1 0x4 DUP2 ADD SLOAD PUSH1 0x80 DUP5 ADD MSTORE PUSH1 0x5 DUP2 ADD SLOAD PUSH1 0xA0 DUP5 ADD MSTORE PUSH1 0x6 DUP2 ADD SLOAD PUSH1 0xC0 DUP5 ADD MSTORE PUSH1 0x7 DUP2 ADD SLOAD PUSH1 0xE0 DUP5 ADD MSTORE PUSH1 0x8 DUP2 ADD SLOAD PUSH2 0x100 DUP1 DUP6 ADD SWAP2 SWAP1 SWAP2 MSTORE PUSH1 0x9 SWAP1 SWAP2 ADD SLOAD PUSH1 0xFF DUP1 DUP3 AND ISZERO ISZERO PUSH2 0x120 DUP7 ADD MSTORE SWAP2 SWAP1 DIV AND ISZERO DUP1 ISZERO PUSH2 0x140 DUP5 ADD MSTORE SWAP1 SWAP2 SWAP1 DUP1 PUSH2 0x2436 JUMPI POP DUP1 PUSH2 0x120 ADD MLOAD ISZERO JUMPDEST ISZERO PUSH2 0x2443 JUMPI POP PUSH0 SWAP3 SWAP2 POP POP JUMP JUMPDEST PUSH1 0x1 PUSH1 0x1 PUSH1 0xA0 SHL SUB DUP4 AND PUSH0 SWAP1 DUP2 MSTORE PUSH1 0x9 PUSH1 0x20 MSTORE PUSH1 0x40 DUP2 KECCAK256 SLOAD SWAP1 DUP2 SWAP1 SUB PUSH2 0x246C JUMPI POP PUSH0 SWAP4 SWAP3 POP POP POP JUMP JUMPDEST PUSH0 PUSH3 0x15180 PUSH2 0x247B DUP4 TIMESTAMP PUSH2 0x361F JUMP JUMPDEST PUSH2 0x2485 SWAP2 SWAP1 PUSH2 0x360C JUMP JUMPDEST SWAP1 POP PUSH1 0xC8 DUP2 GT ISZERO PUSH2 0x249A JUMPI POP PUSH0 SWAP5 SWAP4 POP POP POP POP JUMP JUMPDEST PUSH0 PUSH2 0x24A3 PUSH2 0x25A1 JUMP JUMPDEST POP POP POP SWAP1 POP PUSH1 0x7D DUP3 GT ISZERO PUSH2 0x24B6 JUMPI POP PUSH2 0x3E8 JUMPDEST PUSH1 0x20 DUP5 ADD MLOAD PUSH0 PUSH3 0x186A0 PUSH2 0x24CA DUP5 DUP5 PUSH2 0x35E1 JUMP JUMPDEST PUSH2 0x24D4 SWAP2 SWAP1 PUSH2 0x360C JUMP JUMPDEST SWAP1 POP PUSH0 PUSH2 0x12C SWAP1 POP PUSH0 PUSH0 DUP9 PUSH1 0x80 ADD MLOAD GT PUSH2 0x24EE JUMPI DUP7 PUSH2 0x24F4 JUMP JUMPDEST DUP8 PUSH1 0x80 ADD MLOAD JUMPDEST SWAP1 POP PUSH0 PUSH2 0x2501 DUP3 TIMESTAMP PUSH2 0x361F JUMP JUMPDEST SWAP1 POP PUSH0 PUSH2 0x250E DUP5 DUP4 PUSH2 0x360C JUMP JUMPDEST SWAP1 POP DUP1 PUSH0 SUB PUSH2 0x2528 JUMPI POP PUSH0 SWAP12 SWAP11 POP POP POP POP POP POP POP POP POP POP POP JUMP JUMPDEST DUP5 PUSH0 PUSH2 0x2534 DUP4 DUP4 PUSH2 0x35E1 JUMP JUMPDEST SWAP1 POP PUSH0 PUSH2 0x2542 DUP10 PUSH1 0x3 PUSH2 0x35E1 JUMP JUMPDEST SWAP1 POP DUP1 DUP3 DUP15 PUSH2 0x100 ADD MLOAD PUSH2 0x2556 SWAP2 SWAP1 PUSH2 0x34DD JUMP JUMPDEST GT ISZERO PUSH2 0x258F JUMPI DUP1 DUP14 PUSH2 0x100 ADD MLOAD LT PUSH2 0x257C JUMPI POP PUSH0 SWAP15 SWAP14 POP POP POP POP POP POP POP POP POP POP POP POP POP POP JUMP JUMPDEST PUSH2 0x100 DUP14 ADD MLOAD PUSH2 0x258C SWAP1 DUP3 PUSH2 0x361F JUMP JUMPDEST SWAP2 POP JUMPDEST POP SWAP14 SWAP13 POP POP POP POP POP POP POP POP POP POP POP POP POP JUMP JUMPDEST PUSH0 DUP1 DUP1 DUP1 DUP1 PUSH2 0x25AE PUSH2 0x19DE JUMP JUMPDEST SWAP1 POP PUSH11 0x52B7D2DCC80CD2E4000000 DUP2 GT ISZERO PUSH2 0x25DA JUMPI PUSH2 0x640 PUSH0 PUSH2 0x12C PUSH1 0x3C SWAP5 POP SWAP5 POP SWAP5 POP SWAP5 POP POP PUSH2 0x25ED JUMP JUMPDEST PUSH2 0x3E8 PUSH0 PUSH2 0x12C PUSH1 0x3C SWAP5 POP SWAP5 POP SWAP5 POP SWAP5 POP POP JUMPDEST SWAP1 SWAP2 SWAP3 SWAP4 JUMP JUMPDEST PUSH1 0x40 DUP1 MLOAD PUSH1 0x2 DUP1 DUP3 MSTORE PUSH1 0x60 DUP3 ADD DUP4 MSTORE PUSH0 SWAP3 DUP4 SWAP3 SWAP2 SWAP1 PUSH1 0x20 DUP4 ADD SWAP1 DUP1 CALLDATASIZE DUP4 CALLDATACOPY POP POP PUSH1 0xB SLOAD DUP3 MLOAD SWAP3 SWAP4 POP PUSH1 0x1 PUSH1 0x1 PUSH1 0xA0 SHL SUB AND SWAP2 DUP4 SWAP2 POP PUSH0 SWAP1 PUSH2 0x2636 JUMPI PUSH2 0x2636 PUSH2 0x36E4 JUMP JUMPDEST PUSH1 0x20 MUL PUSH1 0x20 ADD ADD SWAP1 PUSH1 0x1 PUSH1 0x1 PUSH1 0xA0 SHL SUB AND SWAP1 DUP2 PUSH1 0x1 PUSH1 0x1 PUSH1 0xA0 SHL SUB AND DUP2 MSTORE POP POP ADDRESS DUP2 PUSH1 0x1 DUP2 MLOAD DUP2 LT PUSH2 0x266A JUMPI PUSH2 0x266A PUSH2 0x36E4 JUMP JUMPDEST PUSH1 0x1 PUSH1 0x1 PUSH1 0xA0 SHL SUB SWAP3 DUP4 AND PUSH1 0x20 SWAP2 DUP3 MUL SWAP3 SWAP1 SWAP3 ADD ADD MSTORE PUSH1 0x80 MLOAD PUSH1 0x40 MLOAD PUSH4 0xD06CA61F PUSH1 0xE0 SHL DUP2 MSTORE PUSH0 SWAP3 SWAP2 SWAP1 SWAP2 AND SWAP1 PUSH4 0xD06CA61F SWAP1 PUSH2 0x26AD SWAP1 DUP8 SWAP1 DUP7 SWAP1 PUSH1 0x4 ADD PUSH2 0x37AE JUMP JUMPDEST PUSH0 PUSH1 0x40 MLOAD DUP1 DUP4 SUB DUP2 DUP7 GAS STATICCALL ISZERO DUP1 ISZERO PUSH2 0x26C7 JUMPI RETURNDATASIZE PUSH0 PUSH0 RETURNDATACOPY RETURNDATASIZE PUSH0 REVERT JUMPDEST POP POP POP POP PUSH1 0x40 MLOAD RETURNDATASIZE PUSH0 DUP3 RETURNDATACOPY PUSH1 0x1F RETURNDATASIZE SWAP1 DUP2 ADD PUSH1 0x1F NOT AND DUP3 ADD PUSH1 0x40 MSTORE PUSH2 0x26EE SWAP2 SWAP1 DUP2 ADD SWAP1 PUSH2 0x37CE JUMP JUMPDEST SWAP1 POP DUP1 PUSH1 0x1 DUP2 MLOAD DUP2 LT PUSH2 0x2703 JUMPI PUSH2 0x2703 PUSH2 0x36E4 JUMP JUMPDEST PUSH1 0x20 MUL PUSH1 0x20 ADD ADD MLOAD SWAP3 POP POP POP SWAP2 SWAP1 POP JUMP JUMPDEST PUSH0 PUSH1 0x2 DUP4 PUSH2 0x2722 DUP7 DUP6 PUSH2 0x35E1 JUMP JUMPDEST PUSH2 0x272C SWAP2 SWAP1 PUSH2 0x360C JUMP JUMPDEST PUSH2 0x2736 SWAP2 SWAP1 PUSH2 0x360C JUMP JUMPDEST SWAP1 POP PUSH0 PUSH1 0x2 DUP5 PUSH2 0x2746 DUP8 DUP7 PUSH2 0x35E1 JUMP JUMPDEST PUSH2 0x2750 SWAP2 SWAP1 PUSH2 0x360C JUMP JUMPDEST PUSH2 0x275A SWAP2 SWAP1 PUSH2 0x360C JUMP JUMPDEST SWAP1 POP DUP2 ISZERO PUSH2 0x276D JUMPI PUSH2 0x276D ADDRESS DUP8 DUP5 PUSH2 0x16F4 JUMP JUMPDEST DUP1 ISZERO PUSH2 0xB17 JUMPI PUSH0 PUSH2 0x277D DUP3 PUSH2 0x2BF4 JUMP JUMPDEST PUSH1 0x6 SLOAD PUSH1 0x40 MLOAD PUSH4 0xA9059CBB PUSH1 0xE0 SHL DUP2 MSTORE PUSH1 0x1 PUSH1 0x1 PUSH1 0xA0 SHL SUB DUP11 DUP2 AND PUSH1 0x4 DUP4 ADD MSTORE PUSH1 0x24 DUP3 ADD DUP5 SWAP1 MSTORE SWAP3 SWAP4 POP SWAP2 AND SWAP1 PUSH4 0xA9059CBB SWAP1 PUSH1 0x44 ADD PUSH1 0x20 PUSH1 0x40 MLOAD DUP1 DUP4 SUB DUP2 PUSH0 DUP8 GAS CALL ISZERO DUP1 ISZERO PUSH2 0x27CF JUMPI RETURNDATASIZE PUSH0 PUSH0 RETURNDATACOPY RETURNDATASIZE PUSH0 REVERT JUMPDEST POP POP POP POP PUSH1 0x40 MLOAD RETURNDATASIZE PUSH1 0x1F NOT PUSH1 0x1F DUP3 ADD AND DUP3 ADD DUP1 PUSH1 0x40 MSTORE POP DUP2 ADD SWAP1 PUSH2 0x27F3 SWAP2 SWAP1 PUSH2 0x3632 JUMP JUMPDEST POP DUP1 ISZERO PUSH2 0xDE2 JUMPI PUSH2 0x1D77 DUP8 DUP3 PUSH2 0x2F67 JUMP JUMPDEST PUSH1 0xD SLOAD PUSH1 0x1 PUSH1 0x1 PUSH1 0xA0 SHL SUB AND ISZERO DUP1 ISZERO SWAP1 PUSH2 0x2828 JUMPI POP PUSH1 0xE SLOAD PUSH1 0x1 PUSH1 0x1 PUSH1 0xA0 SHL SUB AND ISZERO ISZERO JUMPDEST ISZERO PUSH2 0x29F0 JUMPI PUSH0 PUSH1 0xA PUSH2 0x283B DUP4 PUSH1 0x7 PUSH2 0x35E1 JUMP JUMPDEST PUSH2 0x2845 SWAP2 SWAP1 PUSH2 0x360C JUMP JUMPDEST SWAP1 POP PUSH0 PUSH2 0x2852 DUP3 DUP5 PUSH2 0x361F JUMP JUMPDEST SWAP1 POP PUSH1 0x16 SLOAD TIMESTAMP LT ISZERO PUSH2 0x28D5 JUMPI PUSH1 0x6 SLOAD PUSH1 0xE SLOAD PUSH1 0x40 MLOAD PUSH4 0xA9059CBB PUSH1 0xE0 SHL DUP2 MSTORE PUSH1 0x1 PUSH1 0x1 PUSH1 0xA0 SHL SUB SWAP2 DUP3 AND PUSH1 0x4 DUP3 ADD MSTORE PUSH1 0x24 DUP2 ADD DUP7 SWAP1 MSTORE SWAP2 AND SWAP1 PUSH4 0xA9059CBB SWAP1 PUSH1 0x44 ADD JUMPDEST PUSH1 0x20 PUSH1 0x40 MLOAD DUP1 DUP4 SUB DUP2 PUSH0 DUP8 GAS CALL ISZERO DUP1 ISZERO PUSH2 0x28B1 JUMPI RETURNDATASIZE PUSH0 PUSH0 RETURNDATACOPY RETURNDATASIZE PUSH0 REVERT JUMPDEST POP POP POP POP PUSH1 0x40 MLOAD RETURNDATASIZE PUSH1 0x1F NOT PUSH1 0x1F DUP3 ADD AND DUP3 ADD DUP1 PUSH1 0x40 MSTORE POP DUP2 ADD SWAP1 PUSH2 0x79A SWAP2 SWAP1 PUSH2 0x3632 JUMP JUMPDEST PUSH1 0x16 SLOAD PUSH2 0x28E5 SWAP1 PUSH3 0x278D00 PUSH2 0x34DD JUMP JUMPDEST TIMESTAMP LT ISZERO PUSH2 0x2927 JUMPI PUSH1 0x6 SLOAD PUSH1 0xE SLOAD PUSH1 0x40 MLOAD PUSH4 0xA9059CBB PUSH1 0xE0 SHL DUP2 MSTORE PUSH1 0x1 PUSH1 0x1 PUSH1 0xA0 SHL SUB SWAP2 DUP3 AND PUSH1 0x4 DUP3 ADD MSTORE PUSH1 0x24 DUP2 ADD DUP7 SWAP1 MSTORE SWAP2 AND SWAP1 PUSH4 0xA9059CBB SWAP1 PUSH1 0x44 ADD PUSH2 0x2895 JUMP JUMPDEST PUSH1 0x6 SLOAD PUSH1 0xD SLOAD PUSH1 0x40 MLOAD PUSH4 0xA9059CBB PUSH1 0xE0 SHL DUP2 MSTORE PUSH1 0x1 PUSH1 0x1 PUSH1 0xA0 SHL SUB SWAP2 DUP3 AND PUSH1 0x4 DUP3 ADD MSTORE PUSH1 0x24 DUP2 ADD DUP6 SWAP1 MSTORE SWAP2 AND SWAP1 PUSH4 0xA9059CBB SWAP1 PUSH1 0x44 ADD PUSH1 0x20 PUSH1 0x40 MLOAD DUP1 DUP4 SUB DUP2 PUSH0 DUP8 GAS CALL ISZERO DUP1 ISZERO PUSH2 0x2979 JUMPI RETURNDATASIZE PUSH0 PUSH0 RETURNDATACOPY RETURNDATASIZE PUSH0 REVERT JUMPDEST POP POP POP POP PUSH1 0x40 MLOAD RETURNDATASIZE PUSH1 0x1F NOT PUSH1 0x1F DUP3 ADD AND DUP3 ADD DUP1 PUSH1 0x40 MSTORE POP DUP2 ADD SWAP1 PUSH2 0x299D SWAP2 SWAP1 PUSH2 0x3632 JUMP JUMPDEST POP PUSH1 0x6 SLOAD PUSH1 0xE SLOAD PUSH1 0x40 MLOAD PUSH4 0xA9059CBB PUSH1 0xE0 SHL DUP2 MSTORE PUSH1 0x1 PUSH1 0x1 PUSH1 0xA0 SHL SUB SWAP2 DUP3 AND PUSH1 0x4 DUP3 ADD MSTORE PUSH1 0x24 DUP2 ADD DUP5 SWAP1 MSTORE SWAP2 AND SWAP1 PUSH4 0xA9059CBB SWAP1 PUSH1 0x44 ADD PUSH1 0x20 PUSH1 0x40 MLOAD DUP1 DUP4 SUB DUP2 PUSH0 DUP8 GAS CALL ISZERO DUP1 ISZERO PUSH2 0x28B1 JUMPI RETURNDATASIZE PUSH0 PUSH0 RETURNDATACOPY RETURNDATASIZE PUSH0 REVERT JUMPDEST PUSH1 0xC SLOAD PUSH1 0x1 PUSH1 0x1 PUSH1 0xA0 SHL SUB AND ISZERO PUSH2 0x2A77 JUMPI PUSH1 0x6 SLOAD PUSH1 0xC SLOAD PUSH1 0x40 MLOAD PUSH4 0xA9059CBB PUSH1 0xE0 SHL DUP2 MSTORE PUSH1 0x1 PUSH1 0x1 PUSH1 0xA0 SHL SUB SWAP2 DUP3 AND PUSH1 0x4 DUP3 ADD MSTORE PUSH1 0x24 DUP2 ADD DUP5 SWAP1 MSTORE SWAP2 AND SWAP1 PUSH4 0xA9059CBB SWAP1 PUSH1 0x44 ADD PUSH1 0x20 PUSH1 0x40 MLOAD DUP1 DUP4 SUB DUP2 PUSH0 DUP8 GAS CALL ISZERO DUP1 ISZERO PUSH2 0x2A53 JUMPI RETURNDATASIZE PUSH0 PUSH0 RETURNDATACOPY RETURNDATASIZE PUSH0 REVERT JUMPDEST POP POP POP POP PUSH1 0x40 MLOAD RETURNDATASIZE PUSH1 0x1F NOT PUSH1 0x1F DUP3 ADD AND DUP3 ADD DUP1 PUSH1 0x40 MSTORE POP DUP2 ADD SWAP1 PUSH2 0x3C0 SWAP2 SWAP1 PUSH2 0x3632 JUMP JUMPDEST POP JUMP JUMPDEST PUSH0 DUP1 PUSH2 0x2A8E PUSH2 0x2A89 DUP5 DUP7 PUSH2 0x35E1 JUMP JUMPDEST PUSH2 0x3139 JUMP JUMPDEST SWAP1 POP PUSH0 PUSH2 0x2B08 PUSH1 0x6 PUSH0 SWAP1 SLOAD SWAP1 PUSH2 0x100 EXP SWAP1 DIV PUSH1 0x1 PUSH1 0x1 PUSH1 0xA0 SHL SUB AND PUSH1 0x1 PUSH1 0x1 PUSH1 0xA0 SHL SUB AND PUSH4 0x7464FC3D PUSH1 0x40 MLOAD DUP2 PUSH4 0xFFFFFFFF AND PUSH1 0xE0 SHL DUP2 MSTORE PUSH1 0x4 ADD PUSH1 0x20 PUSH1 0x40 MLOAD DUP1 DUP4 SUB DUP2 DUP7 GAS STATICCALL ISZERO DUP1 ISZERO PUSH2 0x2AE4 JUMPI RETURNDATASIZE PUSH0 PUSH0 RETURNDATACOPY RETURNDATASIZE PUSH0 REVERT JUMPDEST POP POP POP POP PUSH1 0x40 MLOAD RETURNDATASIZE PUSH1 0x1F NOT PUSH1 0x1F DUP3 ADD AND DUP3 ADD DUP1 PUSH1 0x40 MSTORE POP DUP2 ADD SWAP1 PUSH2 0x2A89 SWAP2 SWAP1 PUSH2 0x3719 JUMP JUMPDEST SWAP1 POP DUP1 DUP3 GT ISZERO PUSH2 0x2B66 JUMPI PUSH0 PUSH2 0x2B1D DUP3 DUP5 PUSH2 0x361F JUMP JUMPDEST PUSH2 0x2B27 SWAP1 DUP9 PUSH2 0x35E1 JUMP JUMPDEST PUSH2 0x2B32 SWAP1 PUSH1 0x8 PUSH2 0x35E1 JUMP JUMPDEST SWAP1 POP PUSH0 PUSH2 0x2B40 DUP4 PUSH1 0x8 PUSH2 0x35E1 JUMP JUMPDEST PUSH2 0x2B4B DUP6 PUSH1 0x11 PUSH2 0x35E1 JUMP JUMPDEST PUSH2 0x2B55 SWAP2 SWAP1 PUSH2 0x34DD JUMP JUMPDEST SWAP1 POP PUSH2 0x2B61 DUP2 DUP4 PUSH2 0x360C JUMP JUMPDEST SWAP5 POP POP POP JUMPDEST POP POP SWAP4 SWAP3 POP POP POP JUMP JUMPDEST PUSH0 DUP2 DUP4 LT PUSH2 0x2B7D JUMPI DUP2 PUSH2 0x11C8 JUMP JUMPDEST POP SWAP1 SWAP2 SWAP1 POP JUMP JUMPDEST PUSH2 0x5D1 DUP4 DUP4 DUP4 PUSH1 0x1 PUSH2 0x31A6 JUMP JUMPDEST PUSH1 0x40 DUP1 MLOAD PUSH0 DUP1 DUP3 MSTORE PUSH1 0x20 DUP3 ADD SWAP1 SWAP3 MSTORE PUSH1 0x1 PUSH1 0x1 PUSH1 0xA0 SHL SUB DUP5 AND SWAP1 DUP4 SWAP1 PUSH1 0x40 MLOAD PUSH2 0x2BBA SWAP2 SWAP1 PUSH2 0x3895 JUMP JUMPDEST PUSH0 PUSH1 0x40 MLOAD DUP1 DUP4 SUB DUP2 DUP6 DUP8 GAS CALL SWAP3 POP POP POP RETURNDATASIZE DUP1 PUSH0 DUP2 EQ PUSH2 0xB17 JUMPI PUSH1 0x40 MLOAD SWAP2 POP PUSH1 0x1F NOT PUSH1 0x3F RETURNDATASIZE ADD AND DUP3 ADD PUSH1 0x40 MSTORE RETURNDATASIZE DUP3 MSTORE RETURNDATASIZE PUSH0 PUSH1 0x20 DUP5 ADD RETURNDATACOPY PUSH2 0xB17 JUMP JUMPDEST PUSH0 DUP1 PUSH2 0x2C01 PUSH1 0x2 DUP5 PUSH2 0x360C JUMP JUMPDEST PUSH1 0x40 DUP1 MLOAD PUSH1 0x2 DUP1 DUP3 MSTORE PUSH1 0x60 DUP3 ADD DUP4 MSTORE SWAP3 SWAP4 POP PUSH0 SWAP3 SWAP1 SWAP2 PUSH1 0x20 DUP4 ADD SWAP1 DUP1 CALLDATASIZE DUP4 CALLDATACOPY ADD SWAP1 POP POP SWAP1 POP ADDRESS DUP2 PUSH0 DUP2 MLOAD DUP2 LT PUSH2 0x2C39 JUMPI PUSH2 0x2C39 PUSH2 0x36E4 JUMP JUMPDEST PUSH1 0x1 PUSH1 0x1 PUSH1 0xA0 SHL SUB SWAP3 DUP4 AND PUSH1 0x20 SWAP2 DUP3 MUL SWAP3 SWAP1 SWAP3 ADD ADD MSTORE PUSH1 0xB SLOAD DUP3 MLOAD SWAP2 AND SWAP1 DUP3 SWAP1 PUSH1 0x1 SWAP1 DUP2 LT PUSH2 0x2C6A JUMPI PUSH2 0x2C6A PUSH2 0x36E4 JUMP JUMPDEST PUSH1 0x1 PUSH1 0x1 PUSH1 0xA0 SHL SUB SWAP3 DUP4 AND PUSH1 0x20 SWAP2 DUP3 MUL SWAP3 SWAP1 SWAP3 ADD ADD MSTORE PUSH1 0x6 SLOAD PUSH2 0x2C8F SWAP2 AND ADDRESS DUP7 PUSH2 0x16F4 JUMP JUMPDEST PUSH1 0x6 PUSH0 SWAP1 SLOAD SWAP1 PUSH2 0x100 EXP SWAP1 DIV PUSH1 0x1 PUSH1 0x1 PUSH1 0xA0 SHL SUB AND PUSH1 0x1 PUSH1 0x1 PUSH1 0xA0 SHL SUB AND PUSH4 0xFFF6CAE9 PUSH1 0x40 MLOAD DUP2 PUSH4 0xFFFFFFFF AND PUSH1 0xE0 SHL DUP2 MSTORE PUSH1 0x4 ADD PUSH0 PUSH1 0x40 MLOAD DUP1 DUP4 SUB DUP2 PUSH0 DUP8 DUP1 EXTCODESIZE ISZERO DUP1 ISZERO PUSH2 0x2CDB JUMPI PUSH0 PUSH0 REVERT JUMPDEST POP GAS CALL ISZERO DUP1 ISZERO PUSH2 0x2CED JUMPI RETURNDATASIZE PUSH0 PUSH0 RETURNDATACOPY RETURNDATASIZE PUSH0 REVERT JUMPDEST POP POP POP POP PUSH2 0x2D04 ADDRESS PUSH1 0x80 MLOAD DUP7 PUSH2 0x2B84 PUSH1 0x20 SHL PUSH1 0x20 SHR JUMP JUMPDEST PUSH1 0x80 MLOAD PUSH1 0x10 SLOAD PUSH1 0x40 MLOAD PUSH4 0x5C11D795 PUSH1 0xE0 SHL DUP2 MSTORE PUSH1 0x1 PUSH1 0x1 PUSH1 0xA0 SHL SUB SWAP3 DUP4 AND SWAP3 PUSH4 0x5C11D795 SWAP3 PUSH2 0x2D40 SWAP3 DUP8 SWAP3 PUSH0 SWAP3 DUP9 SWAP3 SWAP2 AND SWAP1 TIMESTAMP SWAP1 PUSH1 0x4 ADD PUSH2 0x3773 JUMP JUMPDEST PUSH0 PUSH1 0x40 MLOAD DUP1 DUP4 SUB DUP2 PUSH0 DUP8 DUP1 EXTCODESIZE ISZERO DUP1 ISZERO PUSH2 0x2D57 JUMPI PUSH0 PUSH0 REVERT JUMPDEST POP GAS CALL ISZERO DUP1 ISZERO PUSH2 0x2D69 JUMPI RETURNDATASIZE PUSH0 PUSH0 RETURNDATACOPY RETURNDATASIZE PUSH0 REVERT JUMPDEST POP POP PUSH1 0xB SLOAD PUSH1 0x10 SLOAD PUSH1 0x40 MLOAD PUSH4 0x70A08231 PUSH1 0xE0 SHL DUP2 MSTORE PUSH1 0x1 PUSH1 0x1 PUSH1 0xA0 SHL SUB SWAP2 DUP3 AND PUSH1 0x4 DUP3 ADD MSTORE PUSH0 SWAP5 POP SWAP2 AND SWAP2 POP PUSH4 0x70A08231 SWAP1 PUSH1 0x24 ADD PUSH1 0x20 PUSH1 0x40 MLOAD DUP1 DUP4 SUB DUP2 DUP7 GAS STATICCALL ISZERO DUP1 ISZERO PUSH2 0x2DB9 JUMPI RETURNDATASIZE PUSH0 PUSH0 RETURNDATACOPY RETURNDATASIZE PUSH0 REVERT JUMPDEST POP POP POP POP PUSH1 0x40 MLOAD RETURNDATASIZE PUSH1 0x1F NOT PUSH1 0x1F DUP3 ADD AND DUP3 ADD DUP1 PUSH1 0x40 MSTORE POP DUP2 ADD SWAP1 PUSH2 0x2DDD SWAP2 SWAP1 PUSH2 0x3719 JUMP JUMPDEST PUSH1 0x10 SLOAD PUSH1 0xB SLOAD PUSH1 0x40 MLOAD PUSH4 0x92DFDB3 PUSH1 0xE1 SHL DUP2 MSTORE PUSH1 0x1 PUSH1 0x1 PUSH1 0xA0 SHL SUB SWAP2 DUP3 AND PUSH1 0x4 DUP3 ADD MSTORE ADDRESS PUSH1 0x24 DUP3 ADD MSTORE PUSH1 0x44 DUP2 ADD DUP5 SWAP1 MSTORE SWAP3 SWAP4 POP AND SWAP1 PUSH4 0x125BFB66 SWAP1 PUSH1 0x64 ADD PUSH0 PUSH1 0x40 MLOAD DUP1 DUP4 SUB DUP2 PUSH0 DUP8 DUP1 EXTCODESIZE ISZERO DUP1 ISZERO PUSH2 0x2E32 JUMPI PUSH0 PUSH0 REVERT JUMPDEST POP GAS CALL ISZERO DUP1 ISZERO PUSH2 0x2E44 JUMPI RETURNDATASIZE PUSH0 PUSH0 RETURNDATACOPY RETURNDATASIZE PUSH0 REVERT JUMPDEST POP POP PUSH1 0xB SLOAD PUSH1 0x80 MLOAD PUSH1 0x40 MLOAD PUSH4 0x95EA7B3 PUSH1 0xE0 SHL DUP2 MSTORE PUSH1 0x1 PUSH1 0x1 PUSH1 0xA0 SHL SUB SWAP2 DUP3 AND PUSH1 0x4 DUP3 ADD MSTORE PUSH1 0x24 DUP2 ADD DUP7 SWAP1 MSTORE SWAP2 AND SWAP3 POP PUSH4 0x95EA7B3 SWAP2 POP PUSH1 0x44 ADD PUSH1 0x20 PUSH1 0x40 MLOAD DUP1 DUP4 SUB DUP2 PUSH0 DUP8 GAS CALL ISZERO DUP1 ISZERO PUSH2 0x2E9A JUMPI RETURNDATASIZE PUSH0 PUSH0 RETURNDATACOPY RETURNDATASIZE PUSH0 REVERT JUMPDEST POP POP POP POP PUSH1 0x40 MLOAD RETURNDATASIZE PUSH1 0x1F NOT PUSH1 0x1F DUP3 ADD AND DUP3 ADD DUP1 PUSH1 0x40 MSTORE POP DUP2 ADD SWAP1 PUSH2 0x2EBE SWAP2 SWAP1 PUSH2 0x3632 JUMP JUMPDEST POP PUSH1 0x80 MLOAD PUSH1 0xB SLOAD PUSH1 0x40 MLOAD PUSH3 0xE8E337 PUSH1 0xE8 SHL DUP2 MSTORE PUSH1 0x1 PUSH1 0x1 PUSH1 0xA0 SHL SUB SWAP2 DUP3 AND PUSH1 0x4 DUP3 ADD MSTORE ADDRESS PUSH1 0x24 DUP3 ADD DUP2 SWAP1 MSTORE PUSH1 0x44 DUP3 ADD DUP6 SWAP1 MSTORE PUSH1 0x64 DUP3 ADD DUP8 SWAP1 MSTORE PUSH0 PUSH1 0x84 DUP4 ADD DUP2 SWAP1 MSTORE PUSH1 0xA4 DUP4 ADD MSTORE PUSH1 0xC4 DUP3 ADD MSTORE TIMESTAMP PUSH1 0xE4 DUP3 ADD MSTORE SWAP2 AND SWAP1 PUSH4 0xE8E33700 SWAP1 PUSH2 0x104 ADD PUSH1 0x60 PUSH1 0x40 MLOAD DUP1 DUP4 SUB DUP2 PUSH0 DUP8 GAS CALL ISZERO DUP1 ISZERO PUSH2 0x2F38 JUMPI RETURNDATASIZE PUSH0 PUSH0 RETURNDATACOPY RETURNDATASIZE PUSH0 REVERT JUMPDEST POP POP POP POP PUSH1 0x40 MLOAD RETURNDATASIZE PUSH1 0x1F NOT PUSH1 0x1F DUP3 ADD AND DUP3 ADD DUP1 PUSH1 0x40 MSTORE POP DUP2 ADD SWAP1 PUSH2 0x2F5C SWAP2 SWAP1 PUSH2 0x38AB JUMP JUMPDEST SWAP8 SWAP7 POP POP POP POP POP POP POP JUMP JUMPDEST PUSH1 0x1 PUSH1 0x1 PUSH1 0xA0 SHL SUB DUP1 DUP4 AND PUSH0 SWAP1 DUP2 MSTORE PUSH1 0xA PUSH1 0x20 SWAP1 DUP2 MSTORE PUSH1 0x40 DUP1 DUP4 KECCAK256 DUP2 MLOAD PUSH2 0x160 DUP2 ADD DUP4 MSTORE DUP2 SLOAD SWAP1 SWAP6 AND DUP1 DUP7 MSTORE PUSH1 0x1 DUP1 DUP4 ADD SLOAD SWAP5 DUP8 ADD SWAP5 SWAP1 SWAP5 MSTORE PUSH1 0x2 DUP3 ADD SLOAD SWAP3 DUP7 ADD SWAP3 SWAP1 SWAP3 MSTORE PUSH1 0x3 DUP2 ADD SLOAD PUSH1 0x60 DUP7 ADD MSTORE PUSH1 0x4 DUP2 ADD SLOAD PUSH1 0x80 DUP7 ADD MSTORE PUSH1 0x5 DUP2 ADD SLOAD PUSH1 0xA0 DUP7 ADD MSTORE PUSH1 0x6 DUP2 ADD SLOAD PUSH1 0xC0 DUP7 ADD MSTORE PUSH1 0x7 DUP2 ADD SLOAD PUSH1 0xE0 DUP7 ADD MSTORE PUSH1 0x8 DUP2 ADD SLOAD PUSH2 0x100 DUP1 DUP8 ADD SWAP2 SWAP1 SWAP2 MSTORE PUSH1 0x9 SWAP1 SWAP2 ADD SLOAD PUSH1 0xFF DUP1 DUP3 AND ISZERO ISZERO PUSH2 0x120 DUP9 ADD MSTORE SWAP2 SWAP1 DIV AND ISZERO ISZERO PUSH2 0x140 DUP6 ADD MSTORE SWAP2 SWAP3 SWAP2 SWAP1 PUSH1 0x14 JUMPDEST PUSH1 0x1 PUSH1 0x1 PUSH1 0xA0 SHL SUB DUP4 AND ISZERO DUP1 ISZERO SWAP1 PUSH2 0x302B JUMPI POP DUP1 DUP3 GT ISZERO JUMPDEST ISZERO PUSH2 0x312F JUMPI PUSH0 PUSH2 0x303A DUP4 PUSH2 0x3278 JUMP JUMPDEST SWAP1 POP PUSH0 PUSH1 0x64 PUSH2 0x3049 DUP4 DUP11 PUSH2 0x35E1 JUMP JUMPDEST PUSH2 0x3053 SWAP2 SWAP1 PUSH2 0x360C JUMP JUMPDEST SWAP1 POP DUP1 ISZERO PUSH2 0x30FE JUMPI PUSH1 0x1 PUSH1 0x1 PUSH1 0xA0 SHL SUB DUP6 AND PUSH0 SWAP1 DUP2 MSTORE PUSH1 0xA PUSH1 0x20 MSTORE PUSH1 0x40 SWAP1 KECCAK256 PUSH1 0x7 ADD SLOAD DUP5 GT PUSH2 0x30FE JUMPI PUSH1 0x6 SLOAD PUSH1 0x40 MLOAD PUSH4 0xA9059CBB PUSH1 0xE0 SHL DUP2 MSTORE PUSH1 0x1 PUSH1 0x1 PUSH1 0xA0 SHL SUB DUP8 DUP2 AND PUSH1 0x4 DUP4 ADD MSTORE PUSH1 0x24 DUP3 ADD DUP5 SWAP1 MSTORE SWAP1 SWAP2 AND SWAP1 PUSH4 0xA9059CBB SWAP1 PUSH1 0x44 ADD PUSH1 0x20 PUSH1 0x40 MLOAD DUP1 DUP4 SUB DUP2 PUSH0 DUP8 GAS CALL ISZERO DUP1 ISZERO PUSH2 0x30CC JUMPI RETURNDATASIZE PUSH0 PUSH0 RETURNDATACOPY RETURNDATASIZE PUSH0 REVERT JUMPDEST POP POP POP POP PUSH1 0x40 MLOAD RETURNDATASIZE PUSH1 0x1F NOT PUSH1 0x1F DUP3 ADD AND DUP3 ADD DUP1 PUSH1 0x40 MSTORE POP DUP2 ADD SWAP1 PUSH2 0x30F0 SWAP2 SWAP1 PUSH2 0x3632 JUMP JUMPDEST POP PUSH2 0x30FB DUP2 DUP9 PUSH2 0x34DD JUMP JUMPDEST SWAP7 POP JUMPDEST PUSH1 0x1 PUSH1 0x1 PUSH1 0xA0 SHL SUB SWAP5 DUP6 AND PUSH0 SWAP1 DUP2 MSTORE PUSH1 0xA PUSH1 0x20 MSTORE PUSH1 0x40 SWAP1 KECCAK256 SLOAD SWAP1 SWAP5 AND SWAP4 DUP4 PUSH2 0x3125 DUP2 PUSH2 0x38D6 JUMP JUMPDEST SWAP5 POP POP POP POP PUSH2 0x3013 JUMP JUMPDEST POP POP POP POP SWAP3 SWAP2 POP POP JUMP JUMPDEST PUSH0 PUSH1 0x3 DUP3 GT ISZERO PUSH2 0x3198 JUMPI POP DUP1 PUSH0 PUSH2 0x3151 PUSH1 0x2 DUP4 PUSH2 0x360C JUMP JUMPDEST PUSH2 0x315C SWAP1 PUSH1 0x1 PUSH2 0x34DD JUMP JUMPDEST SWAP1 POP JUMPDEST DUP2 DUP2 LT ISZERO PUSH2 0x3192 JUMPI SWAP1 POP DUP1 PUSH1 0x2 DUP2 PUSH2 0x3177 DUP2 DUP7 PUSH2 0x360C JUMP JUMPDEST PUSH2 0x3181 SWAP2 SWAP1 PUSH2 0x34DD JUMP JUMPDEST PUSH2 0x318B SWAP2 SWAP1 PUSH2 0x360C JUMP JUMPDEST SWAP1 POP PUSH2 0x315F JUMP JUMPDEST POP SWAP2 SWAP1 POP JUMP JUMPDEST DUP2 ISZERO PUSH2 0x1F74 JUMPI POP PUSH1 0x1 SWAP2 SWAP1 POP JUMP JUMPDEST PUSH1 0x1 PUSH1 0x1 PUSH1 0xA0 SHL SUB DUP5 AND PUSH2 0x31CF JUMPI PUSH1 0x40 MLOAD PUSH4 0xE602DF05 PUSH1 0xE0 SHL DUP2 MSTORE PUSH0 PUSH1 0x4 DUP3 ADD MSTORE PUSH1 0x24 ADD PUSH2 0xF2 JUMP JUMPDEST PUSH1 0x1 PUSH1 0x1 PUSH1 0xA0 SHL SUB DUP4 AND PUSH2 0x31F8 JUMPI PUSH1 0x40 MLOAD PUSH4 0x4A1406B1 PUSH1 0xE1 SHL DUP2 MSTORE PUSH0 PUSH1 0x4 DUP3 ADD MSTORE PUSH1 0x24 ADD PUSH2 0xF2 JUMP JUMPDEST PUSH1 0x1 PUSH1 0x1 PUSH1 0xA0 SHL SUB DUP1 DUP6 AND PUSH0 SWAP1 DUP2 MSTORE PUSH1 0x1 PUSH1 0x20 SWAP1 DUP2 MSTORE PUSH1 0x40 DUP1 DUP4 KECCAK256 SWAP4 DUP8 AND DUP4 MSTORE SWAP3 SWAP1 MSTORE KECCAK256 DUP3 SWAP1 SSTORE DUP1 ISZERO PUSH2 0x79A JUMPI DUP3 PUSH1 0x1 PUSH1 0x1 PUSH1 0xA0 SHL SUB AND DUP5 PUSH1 0x1 PUSH1 0x1 PUSH1 0xA0 SHL SUB AND PUSH32 0x8C5BE1E5EBEC7D5BD14F71427D1E84F3DD0314C0F7B2291E5B200AC8C7C3B925 DUP5 PUSH1 0x40 MLOAD PUSH2 0x326A SWAP2 DUP2 MSTORE PUSH1 0x20 ADD SWAP1 JUMP JUMPDEST PUSH1 0x40 MLOAD DUP1 SWAP2 SUB SWAP1 LOG3 POP POP POP POP JUMP JUMPDEST PUSH0 DUP2 PUSH1 0x1 SUB PUSH2 0x3289 JUMPI POP PUSH1 0xA SWAP2 SWAP1 POP JUMP JUMPDEST DUP2 PUSH1 0x2 SUB PUSH2 0x3299 JUMPI POP PUSH1 0x5 SWAP2 SWAP1 POP JUMP JUMPDEST DUP2 PUSH1 0x3 SUB PUSH2 0x32A9 JUMPI POP PUSH1 0x3 SWAP2 SWAP1 POP JUMP JUMPDEST PUSH1 0x4 DUP3 LT ISZERO DUP1 ISZERO PUSH2 0x32BB JUMPI POP PUSH1 0x11 DUP3 GT ISZERO JUMPDEST ISZERO PUSH2 0x32C8 JUMPI POP PUSH1 0x1 SWAP2 SWAP1 POP JUMP JUMPDEST DUP2 PUSH1 0x12 SUB PUSH2 0x32D8 JUMPI POP PUSH1 0x3 SWAP2 SWAP1 POP JUMP JUMPDEST DUP2 PUSH1 0x13 SUB PUSH2 0x32E8 JUMPI POP PUSH1 0x5 SWAP2 SWAP1 POP JUMP JUMPDEST DUP2 PUSH1 0x14 SUB PUSH2 0x32F8 JUMPI POP PUSH1 0xA SWAP2 SWAP1 POP JUMP JUMPDEST POP PUSH0 SWAP2 SWAP1 POP JUMP JUMPDEST PUSH2 0x505 DUP1 PUSH2 0x854E DUP4 CODECOPY ADD SWAP1 JUMP JUMPDEST DUP1 MLOAD PUSH1 0x1 PUSH1 0x1 PUSH1 0xA0 SHL SUB DUP2 AND DUP2 EQ PUSH2 0x1F74 JUMPI PUSH0 PUSH0 REVERT JUMPDEST PUSH0 PUSH0 PUSH0 PUSH1 0x60 DUP5 DUP7 SUB SLT ISZERO PUSH2 0x3334 JUMPI PUSH0 PUSH0 REVERT JUMPDEST PUSH2 0x333D DUP5 PUSH2 0x330C JUMP JUMPDEST SWAP3 POP PUSH2 0x334B PUSH1 0x20 DUP6 ADD PUSH2 0x330C JUMP JUMPDEST SWAP2 POP PUSH2 0x3359 PUSH1 0x40 DUP6 ADD PUSH2 0x330C JUMP JUMPDEST SWAP1 POP SWAP3 POP SWAP3 POP SWAP3 JUMP JUMPDEST PUSH4 0x4E487B71 PUSH1 0xE0 SHL PUSH0 MSTORE PUSH1 0x41 PUSH1 0x4 MSTORE PUSH1 0x24 PUSH0 REVERT JUMPDEST PUSH1 0x1 DUP2 DUP2 SHR SWAP1 DUP3 AND DUP1 PUSH2 0x338A JUMPI PUSH1 0x7F DUP3 AND SWAP2 POP JUMPDEST PUSH1 0x20 DUP3 LT DUP2 SUB PUSH2 0x3192 JUMPI PUSH4 0x4E487B71 PUSH1 0xE0 SHL PUSH0 MSTORE PUSH1 0x22 PUSH1 0x4 MSTORE PUSH1 0x24 PUSH0 REVERT JUMPDEST PUSH1 0x1F DUP3 GT ISZERO PUSH2 0x5D1 JUMPI DUP3 DUP3 GT ISZERO PUSH2 0x5D1 JUMPI DUP1 PUSH0 MSTORE PUSH1 0x20 PUSH0 KECCAK256 PUSH1 0x1F DUP5 ADD PUSH1 0x5 SHR PUSH1 0x20 DUP6 LT ISZERO PUSH2 0x33D3 JUMPI POP PUSH0 JUMPDEST SWAP1 DUP2 ADD SWAP1 PUSH1 0x1F DUP5 ADD PUSH1 0x5 SHR SUB PUSH0 JUMPDEST DUP2 DUP2 LT ISZERO PUSH2 0xB17 JUMPI PUSH0 DUP4 DUP3 ADD SSTORE PUSH1 0x1 ADD PUSH2 0x33E1 JUMP JUMPDEST DUP2 MLOAD PUSH1 0x1 PUSH1 0x1 PUSH1 0x40 SHL SUB DUP2 GT ISZERO PUSH2 0x340F JUMPI PUSH2 0x340F PUSH2 0x3362 JUMP JUMPDEST PUSH2 0x3423 DUP2 PUSH2 0x341D DUP5 SLOAD PUSH2 0x3376 JUMP JUMPDEST DUP5 PUSH2 0x33A8 JUMP JUMPDEST PUSH1 0x20 PUSH1 0x1F DUP3 GT PUSH1 0x1 DUP2 EQ PUSH2 0x3455 JUMPI PUSH0 DUP4 ISZERO PUSH2 0x343E JUMPI POP DUP5 DUP3 ADD MLOAD JUMPDEST PUSH0 NOT PUSH1 0x3 DUP6 SWAP1 SHL SHR NOT AND PUSH1 0x1 DUP5 SWAP1 SHL OR DUP5 SSTORE PUSH2 0x96C JUMP JUMPDEST PUSH0 DUP5 DUP2 MSTORE PUSH1 0x20 DUP2 KECCAK256 PUSH1 0x1F NOT DUP6 AND SWAP2 JUMPDEST DUP3 DUP2 LT ISZERO PUSH2 0x3484 JUMPI DUP8 DUP6 ADD MLOAD DUP3 SSTORE PUSH1 0x20 SWAP5 DUP6 ADD SWAP5 PUSH1 0x1 SWAP1 SWAP3 ADD SWAP2 ADD PUSH2 0x3464 JUMP JUMPDEST POP DUP5 DUP3 LT ISZERO PUSH2 0x34A1 JUMPI DUP7 DUP5 ADD MLOAD PUSH0 NOT PUSH1 0x3 DUP8 SWAP1 SHL PUSH1 0xF8 AND SHR NOT AND DUP2 SSTORE JUMPDEST POP POP POP POP PUSH1 0x1 SWAP1 DUP2 SHL ADD SWAP1 SSTORE POP JUMP JUMPDEST PUSH0 PUSH1 0x20 DUP3 DUP5 SUB SLT ISZERO PUSH2 0x34C0 JUMPI PUSH0 PUSH0 REVERT JUMPDEST PUSH2 0x11C8 DUP3 PUSH2 0x330C JUMP JUMPDEST PUSH4 0x4E487B71 PUSH1 0xE0 SHL PUSH0 MSTORE PUSH1 0x11 PUSH1 0x4 MSTORE PUSH1 0x24 PUSH0 REVERT JUMPDEST DUP1 DUP3 ADD DUP1 DUP3 GT ISZERO PUSH2 0x11AE JUMPI PUSH2 0x11AE PUSH2 0x34C9 JUMP JUMPDEST PUSH1 0x1 DUP2 JUMPDEST PUSH1 0x1 DUP5 GT ISZERO PUSH2 0x352B JUMPI DUP1 DUP6 DIV DUP2 GT ISZERO PUSH2 0x350F JUMPI PUSH2 0x350F PUSH2 0x34C9 JUMP JUMPDEST PUSH1 0x1 DUP5 AND ISZERO PUSH2 0x351D JUMPI SWAP1 DUP2 MUL SWAP1 JUMPDEST PUSH1 0x1 SWAP4 SWAP1 SWAP4 SHR SWAP3 DUP1 MUL PUSH2 0x34F4 JUMP JUMPDEST SWAP4 POP SWAP4 SWAP2 POP POP JUMP JUMPDEST PUSH0 DUP3 PUSH2 0x3541 JUMPI POP PUSH1 0x1 PUSH2 0x11AE JUMP JUMPDEST DUP2 PUSH2 0x354D JUMPI POP PUSH0 PUSH2 0x11AE JUMP JUMPDEST DUP2 PUSH1 0x1 DUP2 EQ PUSH2 0x3563 JUMPI PUSH1 0x2 DUP2 EQ PUSH2 0x356D JUMPI PUSH2 0x3589 JUMP JUMPDEST PUSH1 0x1 SWAP2 POP POP PUSH2 0x11AE JUMP JUMPDEST PUSH1 0xFF DUP5 GT ISZERO PUSH2 0x357E JUMPI PUSH2 0x357E PUSH2 0x34C9 JUMP JUMPDEST POP POP PUSH1 0x1 DUP3 SHL PUSH2 0x11AE JUMP JUMPDEST POP PUSH1 0x20 DUP4 LT PUSH2 0x133 DUP4 LT AND PUSH1 0x4E DUP5 LT PUSH1 0xB DUP5 LT AND OR ISZERO PUSH2 0x35AC JUMPI POP DUP2 DUP2 EXP PUSH2 0x11AE JUMP JUMPDEST PUSH2 0x35B8 PUSH0 NOT DUP5 DUP5 PUSH2 0x34F0 JUMP JUMPDEST DUP1 PUSH0 NOT DIV DUP3 GT ISZERO PUSH2 0x35CB JUMPI PUSH2 0x35CB PUSH2 0x34C9 JUMP JUMPDEST MUL SWAP4 SWAP3 POP POP POP JUMP JUMPDEST PUSH0 PUSH2 0x11C8 PUSH1 0xFF DUP5 AND DUP4 PUSH2 0x3533 JUMP JUMPDEST DUP1 DUP3 MUL DUP2 ISZERO DUP3 DUP3 DIV DUP5 EQ OR PUSH2 0x11AE JUMPI PUSH2 0x11AE PUSH2 0x34C9 JUMP JUMPDEST PUSH4 0x4E487B71 PUSH1 0xE0 SHL PUSH0 MSTORE PUSH1 0x12 PUSH1 0x4 MSTORE PUSH1 0x24 PUSH0 REVERT JUMPDEST PUSH0 DUP3 PUSH2 0x361A JUMPI PUSH2 0x361A PUSH2 0x35F8 JUMP JUMPDEST POP DIV SWAP1 JUMP JUMPDEST DUP2 DUP2 SUB DUP2 DUP2 GT ISZERO PUSH2 0x11AE JUMPI PUSH2 0x11AE PUSH2 0x34C9 JUMP JUMPDEST PUSH0 PUSH1 0x20 DUP3 DUP5 SUB SLT ISZERO PUSH2 0x3642 JUMPI PUSH0 PUSH0 REVERT JUMPDEST DUP2 MLOAD DUP1 ISZERO ISZERO DUP2 EQ PUSH2 0x11C8 JUMPI PUSH0 PUSH0 REVERT JUMPDEST DUP1 MLOAD PUSH1 0x1 PUSH1 0x1 PUSH1 0x70 SHL SUB DUP2 AND DUP2 EQ PUSH2 0x1F74 JUMPI PUSH0 PUSH0 REVERT JUMPDEST PUSH0 PUSH0 PUSH0 PUSH1 0x60 DUP5 DUP7 SUB SLT ISZERO PUSH2 0x3679 JUMPI PUSH0 PUSH0 REVERT JUMPDEST PUSH2 0x3682 DUP5 PUSH2 0x3651 JUMP JUMPDEST SWAP3 POP PUSH2 0x3690 PUSH1 0x20 DUP6 ADD PUSH2 0x3651 JUMP JUMPDEST SWAP2 POP PUSH1 0x40 DUP5 ADD MLOAD PUSH4 0xFFFFFFFF DUP2 AND DUP2 EQ PUSH2 0x36A8 JUMPI PUSH0 PUSH0 REVERT JUMPDEST DUP1 SWAP2 POP POP SWAP3 POP SWAP3 POP SWAP3 JUMP JUMPDEST PUSH0 PUSH1 0xFF DUP3 AND PUSH1 0xFF DUP2 SUB PUSH2 0x36C8 JUMPI PUSH2 0x36C8 PUSH2 0x34C9 JUMP JUMPDEST PUSH1 0x1 ADD SWAP3 SWAP2 POP POP JUMP JUMPDEST PUSH0 DUP3 PUSH2 0x36DF JUMPI PUSH2 0x36DF PUSH2 0x35F8 JUMP JUMPDEST POP MOD SWAP1 JUMP JUMPDEST PUSH4 0x4E487B71 PUSH1 0xE0 SHL PUSH0 MSTORE PUSH1 0x32 PUSH1 0x4 MSTORE PUSH1 0x24 PUSH0 REVERT JUMPDEST PUSH0 PUSH1 0xFF DUP4 AND DUP1 PUSH2 0x370A JUMPI PUSH2 0x370A PUSH2 0x35F8 JUMP JUMPDEST DUP1 PUSH1 0xFF DUP5 AND MOD SWAP2 POP POP SWAP3 SWAP2 POP POP JUMP JUMPDEST PUSH0 PUSH1 0x20 DUP3 DUP5 SUB SLT ISZERO PUSH2 0x3729 JUMPI PUSH0 PUSH0 REVERT JUMPDEST POP MLOAD SWAP2 SWAP1 POP JUMP JUMPDEST PUSH0 DUP2 MLOAD DUP1 DUP5 MSTORE PUSH1 0x20 DUP5 ADD SWAP4 POP PUSH1 0x20 DUP4 ADD PUSH0 JUMPDEST DUP3 DUP2 LT ISZERO PUSH2 0x3769 JUMPI DUP2 MLOAD PUSH1 0x1 PUSH1 0x1 PUSH1 0xA0 SHL SUB AND DUP7 MSTORE PUSH1 0x20 SWAP6 DUP7 ADD SWAP6 SWAP1 SWAP2 ADD SWAP1 PUSH1 0x1 ADD PUSH2 0x3742 JUMP JUMPDEST POP SWAP4 SWAP5 SWAP4 POP POP POP POP JUMP JUMPDEST DUP6 DUP2 MSTORE DUP5 PUSH1 0x20 DUP3 ADD MSTORE PUSH1 0xA0 PUSH1 0x40 DUP3 ADD MSTORE PUSH0 PUSH2 0x3791 PUSH1 0xA0 DUP4 ADD DUP7 PUSH2 0x3730 JUMP JUMPDEST PUSH1 0x1 PUSH1 0x1 PUSH1 0xA0 SHL SUB SWAP5 SWAP1 SWAP5 AND PUSH1 0x60 DUP4 ADD MSTORE POP PUSH1 0x80 ADD MSTORE SWAP4 SWAP3 POP POP POP JUMP JUMPDEST DUP3 DUP2 MSTORE PUSH1 0x40 PUSH1 0x20 DUP3 ADD MSTORE PUSH0 PUSH2 0x37C6 PUSH1 0x40 DUP4 ADD DUP5 PUSH2 0x3730 JUMP JUMPDEST SWAP5 SWAP4 POP POP POP POP JUMP JUMPDEST PUSH0 PUSH1 0x20 DUP3 DUP5 SUB SLT ISZERO PUSH2 0x37DE JUMPI PUSH0 PUSH0 REVERT JUMPDEST DUP2 MLOAD PUSH1 0x1 PUSH1 0x1 PUSH1 0x40 SHL SUB DUP2 GT ISZERO PUSH2 0x37F3 JUMPI PUSH0 PUSH0 REVERT JUMPDEST DUP3 ADD PUSH1 0x1F DUP2 ADD DUP5 SGT PUSH2 0x3803 JUMPI PUSH0 PUSH0 REVERT JUMPDEST DUP1 MLOAD PUSH1 0x1 PUSH1 0x1 PUSH1 0x40 SHL SUB DUP2 GT ISZERO PUSH2 0x381C JUMPI PUSH2 0x381C PUSH2 0x3362 JUMP JUMPDEST PUSH1 0x40 MLOAD PUSH1 0x5 DUP3 SWAP1 SHL SWAP1 PUSH1 0x3F DUP3 ADD PUSH1 0x1F NOT AND DUP2 ADD PUSH1 0x1 PUSH1 0x1 PUSH1 0x40 SHL SUB DUP2 GT DUP3 DUP3 LT OR ISZERO PUSH2 0x384A JUMPI PUSH2 0x384A PUSH2 0x3362 JUMP JUMPDEST PUSH1 0x40 MSTORE SWAP2 DUP3 MSTORE PUSH1 0x20 DUP2 DUP5 ADD DUP2 ADD SWAP3 SWAP1 DUP2 ADD DUP8 DUP5 GT ISZERO PUSH2 0x3867 JUMPI PUSH0 PUSH0 REVERT JUMPDEST PUSH1 0x20 DUP6 ADD SWAP5 POP JUMPDEST DUP4 DUP6 LT ISZERO PUSH2 0x388A JUMPI DUP5 MLOAD DUP1 DUP3 MSTORE PUSH1 0x20 SWAP6 DUP7 ADD SWAP6 SWAP1 SWAP4 POP ADD PUSH2 0x386E JUMP JUMPDEST POP SWAP7 SWAP6 POP POP POP POP POP POP JUMP JUMPDEST PUSH0 DUP3 MLOAD DUP1 PUSH1 0x20 DUP6 ADD DUP5 MCOPY PUSH0 SWAP3 ADD SWAP2 DUP3 MSTORE POP SWAP2 SWAP1 POP JUMP JUMPDEST PUSH0 PUSH0 PUSH0 PUSH1 0x60 DUP5 DUP7 SUB SLT ISZERO PUSH2 0x38BD JUMPI PUSH0 PUSH0 REVERT JUMPDEST POP POP DUP2 MLOAD PUSH1 0x20 DUP4 ADD MLOAD PUSH1 0x40 SWAP1 SWAP4 ADD MLOAD SWAP1 SWAP5 SWAP3 SWAP4 POP SWAP2 SWAP1 POP JUMP JUMPDEST PUSH0 PUSH1 0x1 DUP3 ADD PUSH2 0x38E7 JUMPI PUSH2 0x38E7 PUSH2 0x34C9 JUMP JUMPDEST POP PUSH1 0x1 ADD SWAP1 JUMP JUMPDEST PUSH1 0x80 MLOAD PUSH2 0x4BFB PUSH2 0x3953 PUSH0 CODECOPY PUSH0 DUP2 DUP2 PUSH2 0x8AB ADD MSTORE DUP2 DUP2 PUSH2 0xF06 ADD MSTORE DUP2 DUP2 PUSH2 0xFB6 ADD MSTORE DUP2 DUP2 PUSH2 0x1011 ADD MSTORE DUP2 DUP2 PUSH2 0x350D ADD MSTORE DUP2 DUP2 PUSH2 0x3743 ADD MSTORE DUP2 DUP2 PUSH2 0x37F1 ADD MSTORE DUP2 DUP2 PUSH2 0x3A78 ADD MSTORE DUP2 DUP2 PUSH2 0x40C8 ADD MSTORE DUP2 DUP2 PUSH2 0x4107 ADD MSTORE DUP2 DUP2 PUSH2 0x4278 ADD MSTORE PUSH2 0x4332 ADD MSTORE PUSH2 0x4BFB PUSH0 RETURN INVALID PUSH1 0x80 PUSH1 0x40 MSTORE PUSH1 0x4 CALLDATASIZE LT PUSH2 0x374 JUMPI PUSH0 CALLDATALOAD PUSH1 0xE0 SHR DUP1 PUSH4 0x78E97925 GT PUSH2 0x1C8 JUMPI DUP1 PUSH4 0xBF151CB8 GT PUSH2 0xFD JUMPI DUP1 PUSH4 0xDDBCB5FA GT PUSH2 0x9D JUMPI DUP1 PUSH4 0xEA0D5DCD GT PUSH2 0x6D JUMPI DUP1 PUSH4 0xEA0D5DCD EQ PUSH2 0xD0D JUMPI DUP1 PUSH4 0xF2FDE38B EQ PUSH2 0xDF0 JUMPI DUP1 PUSH4 0xF56E9C66 EQ PUSH2 0xE0F JUMPI DUP1 PUSH4 0xFD36E3C6 EQ PUSH2 0xE2E JUMPI PUSH0 PUSH0 REVERT JUMPDEST DUP1 PUSH4 0xDDBCB5FA EQ PUSH2 0xC9B JUMPI DUP1 PUSH4 0xE16F3C59 EQ PUSH2 0xCB0 JUMPI DUP1 PUSH4 0xE82BEF29 EQ PUSH2 0xCCF JUMPI DUP1 PUSH4 0xE8E8FE04 EQ PUSH2 0xCEE JUMPI PUSH0 PUSH0 REVERT JUMPDEST DUP1 PUSH4 0xCCA3C5FF GT PUSH2 0xD8 JUMPI DUP1 PUSH4 0xCCA3C5FF EQ PUSH2 0xC04 JUMPI DUP1 PUSH4 0xD1227343 EQ PUSH2 0xC19 JUMPI DUP1 PUSH4 0xDD62ED3E EQ PUSH2 0xC38 JUMPI DUP1 PUSH4 0xDD6C4398 EQ PUSH2 0xC7C JUMPI PUSH0 PUSH0 REVERT JUMPDEST DUP1 PUSH4 0xBF151CB8 EQ PUSH2 0xBB5 JUMPI DUP1 PUSH4 0xC54E44EB EQ PUSH2 0xBC9 JUMPI DUP1 PUSH4 0xC82C3CBF EQ PUSH2 0xBF0 JUMPI PUSH0 PUSH0 REVERT JUMPDEST DUP1 PUSH4 0x9B19251A GT PUSH2 0x168 JUMPI DUP1 PUSH4 0xA87430BA GT PUSH2 0x143 JUMPI DUP1 PUSH4 0xA87430BA EQ PUSH2 0xA81 JUMPI DUP1 PUSH4 0xA9059CBB EQ PUSH2 0xB62 JUMPI DUP1 PUSH4 0xB4A2E463 EQ PUSH2 0xB81 JUMPI DUP1 PUSH4 0xBAD3EA6A EQ PUSH2 0xB96 JUMPI PUSH0 PUSH0 REVERT JUMPDEST DUP1 PUSH4 0x9B19251A EQ PUSH2 0xA09 JUMPI DUP1 PUSH4 0xA095E8F9 EQ PUSH2 0xA37 JUMPI DUP1 PUSH4 0xA52EE3AF EQ PUSH2 0xA56 JUMPI PUSH0 PUSH0 REVERT JUMPDEST DUP1 PUSH4 0x8DA5CB5B GT PUSH2 0x1A3 JUMPI DUP1 PUSH4 0x8DA5CB5B EQ PUSH2 0x9A5 JUMPI DUP1 PUSH4 0x8DD95002 EQ PUSH2 0x9C2 JUMPI DUP1 PUSH4 0x94A28097 EQ PUSH2 0x9E1 JUMPI DUP1 PUSH4 0x95D89B41 EQ PUSH2 0x9F5 JUMPI PUSH0 PUSH0 REVERT JUMPDEST DUP1 PUSH4 0x78E97925 EQ PUSH2 0x95E JUMPI DUP1 PUSH4 0x7C659472 EQ PUSH2 0x973 JUMPI DUP1 PUSH4 0x7F054455 EQ PUSH2 0x990 JUMPI PUSH0 PUSH0 REVERT JUMPDEST DUP1 PUSH4 0x3D471D57 GT PUSH2 0x2A9 JUMPI DUP1 PUSH4 0x48E66C04 GT PUSH2 0x249 JUMPI DUP1 PUSH4 0x5E2D0DF1 GT PUSH2 0x219 JUMPI DUP1 PUSH4 0x5E2D0DF1 EQ PUSH2 0x8CD JUMPI DUP1 PUSH4 0x6D476A77 EQ PUSH2 0x8E2 JUMPI DUP1 PUSH4 0x70A08231 EQ PUSH2 0x916 JUMPI DUP1 PUSH4 0x715018A6 EQ PUSH2 0x94A JUMPI PUSH0 PUSH0 REVERT JUMPDEST DUP1 PUSH4 0x48E66C04 EQ PUSH2 0x83D JUMPI DUP1 PUSH4 0x4BF28FD0 EQ PUSH2 0x85C JUMPI DUP1 PUSH4 0x53D6FD59 EQ PUSH2 0x87B JUMPI DUP1 PUSH4 0x583E0568 EQ PUSH2 0x89A JUMPI PUSH0 PUSH0 REVERT JUMPDEST DUP1 PUSH4 0x42B10C59 GT PUSH2 0x284 JUMPI DUP1 PUSH4 0x42B10C59 EQ PUSH2 0x7C5 JUMPI DUP1 PUSH4 0x440B30E7 EQ PUSH2 0x7DE JUMPI DUP1 PUSH4 0x47AB459C EQ PUSH2 0x80A JUMPI DUP1 PUSH4 0x47CCCA02 EQ PUSH2 0x81E JUMPI PUSH0 PUSH0 REVERT JUMPDEST DUP1 PUSH4 0x3D471D57 EQ PUSH2 0x768 JUMPI DUP1 PUSH4 0x3E0A322D EQ PUSH2 0x787 JUMPI DUP1 PUSH4 0x41275358 EQ PUSH2 0x7A6 JUMPI PUSH0 PUSH0 REVERT JUMPDEST DUP1 PUSH4 0x177AE044 GT PUSH2 0x314 JUMPI DUP1 PUSH4 0x2529D1A3 GT PUSH2 0x2EF JUMPI DUP1 PUSH4 0x2529D1A3 EQ PUSH2 0x6F2 JUMPI DUP1 PUSH4 0x27B48142 EQ PUSH2 0x712 JUMPI DUP1 PUSH4 0x313CE567 EQ PUSH2 0x72E JUMPI DUP1 PUSH4 0x32516D48 EQ PUSH2 0x749 JUMPI PUSH0 PUSH0 REVERT JUMPDEST DUP1 PUSH4 0x177AE044 EQ PUSH2 0x6AA JUMPI DUP1 PUSH4 0x18160DDD EQ PUSH2 0x6BF JUMPI DUP1 PUSH4 0x23B872DD EQ PUSH2 0x6D3 JUMPI PUSH0 PUSH0 REVERT JUMPDEST DUP1 PUSH4 0x6FDDE03 GT PUSH2 0x34F JUMPI DUP1 PUSH4 0x6FDDE03 EQ PUSH2 0x61F JUMPI DUP1 PUSH4 0x95EA7B3 EQ PUSH2 0x640 JUMPI DUP1 PUSH4 0x9D46746 EQ PUSH2 0x65F JUMPI DUP1 PUSH4 0x16F0115B EQ PUSH2 0x673 JUMPI PUSH0 PUSH0 REVERT JUMPDEST DUP1 PUSH4 0x430E405 EQ PUSH2 0x5B1 JUMPI DUP1 PUSH4 0x53F14DA EQ PUSH2 0x5DF JUMPI DUP1 PUSH4 0x61E431C EQ PUSH2 0x602 JUMPI PUSH0 PUSH0 REVERT JUMPDEST CALLDATASIZE PUSH2 0x5AD JUMPI CALLER PUSH0 DUP2 DUP2 MSTORE PUSH1 0xA PUSH1 0x20 MSTORE PUSH1 0x40 SWAP1 KECCAK256 SLOAD PUSH1 0x1 PUSH1 0x1 PUSH1 0xA0 SHL SUB AND SWAP1 CALLVALUE SWAP1 ORIGIN SWAP1 SUB PUSH2 0x5AB JUMPI PUSH1 0x14 SLOAD DUP2 LT ISZERO DUP1 ISZERO PUSH2 0x3C9 JUMPI POP PUSH1 0x1 PUSH1 0x1 PUSH1 0xA0 SHL SUB DUP3 AND ISZERO ISZERO DUP1 PUSH2 0x3C9 JUMPI POP PUSH1 0x17 SLOAD PUSH1 0x1 PUSH1 0x1 PUSH1 0xA0 SHL SUB AND CALLER EQ JUMPDEST ISZERO PUSH2 0x592 JUMPI CALLER PUSH0 SWAP1 DUP2 MSTORE PUSH1 0xA PUSH1 0x20 MSTORE PUSH1 0x40 SWAP1 KECCAK256 PUSH1 0x9 ADD SLOAD PUSH2 0x100 SWAP1 DIV PUSH1 0xFF AND PUSH2 0x45C JUMPI CALLER PUSH0 SWAP1 DUP2 MSTORE PUSH1 0xA PUSH1 0x20 MSTORE PUSH1 0x40 SWAP1 KECCAK256 PUSH1 0x9 ADD DUP1 SLOAD PUSH2 0xFF00 NOT AND PUSH2 0x100 OR SWAP1 SSTORE PUSH1 0x1 PUSH1 0x1 PUSH1 0xA0 SHL SUB DUP3 AND ISZERO PUSH2 0x44A JUMPI PUSH1 0x1 PUSH1 0x1 PUSH1 0xA0 SHL SUB DUP3 AND PUSH0 SWAP1 DUP2 MSTORE PUSH1 0xA PUSH1 0x20 MSTORE PUSH1 0x40 DUP2 KECCAK256 PUSH1 0x7 ADD DUP1 SLOAD PUSH1 0x1 SWAP3 SWAP1 PUSH2 0x444 SWAP1 DUP5 SWAP1 PUSH2 0x45FB JUMP JUMPDEST SWAP1 SWAP2 SSTORE POP POP JUMPDEST CALLER PUSH0 SWAP1 DUP2 MSTORE PUSH1 0x9 PUSH1 0x20 MSTORE PUSH1 0x40 SWAP1 KECCAK256 TIMESTAMP SWAP1 SSTORE JUMPDEST PUSH0 PUSH1 0x64 PUSH2 0x46A DUP4 PUSH1 0x3 PUSH2 0x460E JUMP JUMPDEST PUSH2 0x474 SWAP2 SWAP1 PUSH2 0x4639 JUMP JUMPDEST SWAP1 POP PUSH0 PUSH2 0x481 DUP3 DUP5 PUSH2 0x464C JUMP JUMPDEST PUSH1 0xF SLOAD SWAP1 SWAP2 POP PUSH1 0x1 PUSH1 0x1 PUSH1 0xA0 SHL SUB AND ISZERO DUP1 ISZERO SWAP1 PUSH2 0x49D JUMPI POP PUSH0 DUP3 GT JUMPDEST ISZERO PUSH2 0x4F6 JUMPI PUSH1 0xF SLOAD PUSH1 0x40 MLOAD PUSH0 SWAP2 PUSH1 0x1 PUSH1 0x1 PUSH1 0xA0 SHL SUB AND SWAP1 DUP5 SWAP1 DUP4 DUP2 DUP2 DUP2 DUP6 DUP8 GAS CALL SWAP3 POP POP POP RETURNDATASIZE DUP1 PUSH0 DUP2 EQ PUSH2 0x4EC JUMPI PUSH1 0x40 MLOAD SWAP2 POP PUSH1 0x1F NOT PUSH1 0x3F RETURNDATASIZE ADD AND DUP3 ADD PUSH1 0x40 MSTORE RETURNDATASIZE DUP3 MSTORE RETURNDATASIZE PUSH0 PUSH1 0x20 DUP5 ADD RETURNDATACOPY PUSH2 0x4F1 JUMP JUMPDEST PUSH1 0x60 SWAP2 POP JUMPDEST POP POP POP POP JUMPDEST PUSH0 PUSH2 0x50A PUSH2 0x505 PUSH1 0x2 DUP5 PUSH2 0x4639 JUMP JUMPDEST PUSH2 0xE67 JUMP JUMPDEST CALLER PUSH0 SWAP1 DUP2 MSTORE PUSH1 0xA PUSH1 0x20 MSTORE PUSH1 0x40 DUP2 KECCAK256 PUSH1 0x1 ADD DUP1 SLOAD SWAP3 SWAP4 POP DUP5 SWAP3 SWAP1 SWAP2 SWAP1 PUSH2 0x530 SWAP1 DUP5 SWAP1 PUSH2 0x45FB JUMP JUMPDEST SWAP1 SWAP2 SSTORE POP POP CALLER PUSH0 SWAP1 DUP2 MSTORE PUSH1 0xA PUSH1 0x20 MSTORE PUSH1 0x40 DUP2 KECCAK256 PUSH1 0x2 ADD DUP1 SLOAD DUP4 SWAP3 SWAP1 PUSH2 0x556 SWAP1 DUP5 SWAP1 PUSH2 0x45FB JUMP JUMPDEST SWAP1 SWAP2 SSTORE POP POP PUSH1 0x40 MLOAD DUP5 DUP2 MSTORE CALLER SWAP1 PUSH32 0x5F41F00E6C90DEA5837402EFBF3E658A1F1DF8DB3B19624B133BC1DF0444F7EA SWAP1 PUSH1 0x20 ADD PUSH1 0x40 MLOAD DUP1 SWAP2 SUB SWAP1 LOG2 STOP JUMPDEST PUSH1 0x40 MLOAD PUSH4 0x236C6E5B PUSH1 0xE0 SHL DUP2 MSTORE PUSH1 0x4 ADD PUSH1 0x40 MLOAD DUP1 SWAP2 SUB SWAP1 REVERT JUMPDEST STOP JUMPDEST PUSH0 PUSH0 REVERT JUMPDEST CALLVALUE DUP1 ISZERO PUSH2 0x5BC JUMPI PUSH0 PUSH0 REVERT JUMPDEST POP PUSH1 0x1E SLOAD PUSH2 0x5CA SWAP1 PUSH1 0xFF AND DUP2 JUMP JUMPDEST PUSH1 0x40 MLOAD SWAP1 ISZERO ISZERO DUP2 MSTORE PUSH1 0x20 ADD JUMPDEST PUSH1 0x40 MLOAD DUP1 SWAP2 SUB SWAP1 RETURN JUMPDEST CALLVALUE DUP1 ISZERO PUSH2 0x5EA JUMPI PUSH0 PUSH0 REVERT JUMPDEST POP PUSH2 0x5F4 PUSH1 0x1B SLOAD DUP2 JUMP JUMPDEST PUSH1 0x40 MLOAD SWAP1 DUP2 MSTORE PUSH1 0x20 ADD PUSH2 0x5D6 JUMP JUMPDEST CALLVALUE DUP1 ISZERO PUSH2 0x60D JUMPI PUSH0 PUSH0 REVERT JUMPDEST POP PUSH2 0x5F4 PUSH10 0x21E19E0C9BAB2400000 DUP2 JUMP JUMPDEST CALLVALUE DUP1 ISZERO PUSH2 0x62A JUMPI PUSH0 PUSH0 REVERT JUMPDEST POP PUSH2 0x633 PUSH2 0x1090 JUMP JUMPDEST PUSH1 0x40 MLOAD PUSH2 0x5D6 SWAP2 SWAP1 PUSH2 0x465F JUMP JUMPDEST CALLVALUE DUP1 ISZERO PUSH2 0x64B JUMPI PUSH0 PUSH0 REVERT JUMPDEST POP PUSH2 0x5CA PUSH2 0x65A CALLDATASIZE PUSH1 0x4 PUSH2 0x46A8 JUMP JUMPDEST PUSH2 0x1120 JUMP JUMPDEST CALLVALUE DUP1 ISZERO PUSH2 0x66A JUMPI PUSH0 PUSH0 REVERT JUMPDEST POP PUSH2 0x5F4 PUSH2 0x1139 JUMP JUMPDEST CALLVALUE DUP1 ISZERO PUSH2 0x67E JUMPI PUSH0 PUSH0 REVERT JUMPDEST POP PUSH1 0x10 SLOAD PUSH2 0x692 SWAP1 PUSH1 0x1 PUSH1 0x1 PUSH1 0xA0 SHL SUB AND DUP2 JUMP JUMPDEST PUSH1 0x40 MLOAD PUSH1 0x1 PUSH1 0x1 PUSH1 0xA0 SHL SUB SWAP1 SWAP2 AND DUP2 MSTORE PUSH1 0x20 ADD PUSH2 0x5D6 JUMP JUMPDEST CALLVALUE DUP1 ISZERO PUSH2 0x6B5 JUMPI PUSH0 PUSH0 REVERT JUMPDEST POP PUSH2 0x5F4 PUSH1 0x1A SLOAD DUP2 JUMP JUMPDEST CALLVALUE DUP1 ISZERO PUSH2 0x6CA JUMPI PUSH0 PUSH0 REVERT JUMPDEST POP PUSH1 0x2 SLOAD PUSH2 0x5F4 JUMP JUMPDEST CALLVALUE DUP1 ISZERO PUSH2 0x6DE JUMPI PUSH0 PUSH0 REVERT JUMPDEST POP PUSH2 0x5CA PUSH2 0x6ED CALLDATASIZE PUSH1 0x4 PUSH2 0x46D2 JUMP JUMPDEST PUSH2 0x123D JUMP JUMPDEST CALLVALUE DUP1 ISZERO PUSH2 0x6FD JUMPI PUSH0 PUSH0 REVERT JUMPDEST POP PUSH1 0x10 SLOAD PUSH2 0x5CA SWAP1 PUSH1 0x1 PUSH1 0xA0 SHL SWAP1 DIV PUSH1 0xFF AND DUP2 JUMP JUMPDEST CALLVALUE DUP1 ISZERO PUSH2 0x71D JUMPI PUSH0 PUSH0 REVERT JUMPDEST POP PUSH2 0x5F4 PUSH9 0x56BC75E2D63100000 DUP2 JUMP JUMPDEST CALLVALUE DUP1 ISZERO PUSH2 0x739 JUMPI PUSH0 PUSH0 REVERT JUMPDEST POP PUSH1 0x40 MLOAD PUSH1 0x12 DUP2 MSTORE PUSH1 0x20 ADD PUSH2 0x5D6 JUMP JUMPDEST CALLVALUE DUP1 ISZERO PUSH2 0x754 JUMPI PUSH0 PUSH0 REVERT JUMPDEST POP PUSH2 0x5AB PUSH2 0x763 CALLDATASIZE PUSH1 0x4 PUSH2 0x4710 JUMP JUMPDEST PUSH2 0x1260 JUMP JUMPDEST CALLVALUE DUP1 ISZERO PUSH2 0x773 JUMPI PUSH0 PUSH0 REVERT JUMPDEST POP PUSH2 0x5F4 PUSH2 0x782 CALLDATASIZE PUSH1 0x4 PUSH2 0x472B JUMP JUMPDEST PUSH2 0x128A JUMP JUMPDEST CALLVALUE DUP1 ISZERO PUSH2 0x792 JUMPI PUSH0 PUSH0 REVERT JUMPDEST POP PUSH2 0x5AB PUSH2 0x7A1 CALLDATASIZE PUSH1 0x4 PUSH2 0x472B JUMP JUMPDEST PUSH2 0x1311 JUMP JUMPDEST CALLVALUE DUP1 ISZERO PUSH2 0x7B1 JUMPI PUSH0 PUSH0 REVERT JUMPDEST POP PUSH1 0x19 SLOAD PUSH2 0x692 SWAP1 PUSH1 0x1 PUSH1 0x1 PUSH1 0xA0 SHL SUB AND DUP2 JUMP JUMPDEST CALLVALUE DUP1 ISZERO PUSH2 0x7D0 JUMPI PUSH0 PUSH0 REVERT JUMPDEST POP PUSH1 0x1C SLOAD PUSH2 0x5CA SWAP1 PUSH1 0xFF AND DUP2 JUMP JUMPDEST CALLVALUE DUP1 ISZERO PUSH2 0x7E9 JUMPI PUSH0 PUSH0 REVERT JUMPDEST POP PUSH2 0x7FD PUSH2 0x7F8 CALLDATASIZE PUSH1 0x4 PUSH2 0x4710 JUMP JUMPDEST PUSH2 0x1331 JUMP JUMPDEST PUSH1 0x40 MLOAD PUSH2 0x5D6 SWAP2 SWAP1 PUSH2 0x4785 JUMP JUMPDEST CALLVALUE DUP1 ISZERO PUSH2 0x815 JUMPI PUSH0 PUSH0 REVERT JUMPDEST POP PUSH2 0x5AB PUSH2 0x1354 JUMP JUMPDEST CALLVALUE DUP1 ISZERO PUSH2 0x829 JUMPI PUSH0 PUSH0 REVERT JUMPDEST POP PUSH1 0xC SLOAD PUSH2 0x692 SWAP1 PUSH1 0x1 PUSH1 0x1 PUSH1 0xA0 SHL SUB AND DUP2 JUMP JUMPDEST CALLVALUE DUP1 ISZERO PUSH2 0x848 JUMPI PUSH0 PUSH0 REVERT JUMPDEST POP PUSH1 0xD SLOAD PUSH2 0x692 SWAP1 PUSH1 0x1 PUSH1 0x1 PUSH1 0xA0 SHL SUB AND DUP2 JUMP JUMPDEST CALLVALUE DUP1 ISZERO PUSH2 0x867 JUMPI PUSH0 PUSH0 REVERT JUMPDEST POP PUSH1 0x6 SLOAD PUSH2 0x692 SWAP1 PUSH1 0x1 PUSH1 0x1 PUSH1 0xA0 SHL SUB AND DUP2 JUMP JUMPDEST CALLVALUE DUP1 ISZERO PUSH2 0x886 JUMPI PUSH0 PUSH0 REVERT JUMPDEST POP PUSH2 0x5AB PUSH2 0x895 CALLDATASIZE PUSH1 0x4 PUSH2 0x47A4 JUMP JUMPDEST PUSH2 0x14D4 JUMP JUMPDEST CALLVALUE DUP1 ISZERO PUSH2 0x8A5 JUMPI PUSH0 PUSH0 REVERT JUMPDEST POP PUSH2 0x692 PUSH32 0x0 DUP2 JUMP JUMPDEST CALLVALUE DUP1 ISZERO PUSH2 0x8D8 JUMPI PUSH0 PUSH0 REVERT JUMPDEST POP PUSH2 0x5F4 PUSH1 0x16 SLOAD DUP2 JUMP JUMPDEST CALLVALUE DUP1 ISZERO PUSH2 0x8ED JUMPI PUSH0 PUSH0 REVERT JUMPDEST POP PUSH2 0x8F6 PUSH2 0x1506 JUMP JUMPDEST PUSH1 0x40 DUP1 MLOAD SWAP5 DUP6 MSTORE PUSH1 0x20 DUP6 ADD SWAP4 SWAP1 SWAP4 MSTORE SWAP2 DUP4 ADD MSTORE PUSH1 0x60 DUP3 ADD MSTORE PUSH1 0x80 ADD PUSH2 0x5D6 JUMP JUMPDEST CALLVALUE DUP1 ISZERO PUSH2 0x921 JUMPI PUSH0 PUSH0 REVERT JUMPDEST POP PUSH2 0x5F4 PUSH2 0x930 CALLDATASIZE PUSH1 0x4 PUSH2 0x4710 JUMP JUMPDEST PUSH1 0x1 PUSH1 0x1 PUSH1 0xA0 SHL SUB AND PUSH0 SWAP1 DUP2 MSTORE PUSH1 0x20 DUP2 SWAP1 MSTORE PUSH1 0x40 SWAP1 KECCAK256 SLOAD SWAP1 JUMP JUMPDEST CALLVALUE DUP1 ISZERO PUSH2 0x955 JUMPI PUSH0 PUSH0 REVERT JUMPDEST POP PUSH2 0x5AB PUSH2 0x1558 JUMP JUMPDEST CALLVALUE DUP1 ISZERO PUSH2 0x969 JUMPI PUSH0 PUSH0 REVERT JUMPDEST POP PUSH2 0x5F4 PUSH1 0x15 SLOAD DUP2 JUMP JUMPDEST CALLVALUE DUP1 ISZERO PUSH2 0x97E JUMPI PUSH0 PUSH0 REVERT JUMPDEST POP PUSH2 0x5F4 PUSH10 0x152D02C7E14AF6800000 DUP2 JUMP JUMPDEST CALLVALUE DUP1 ISZERO PUSH2 0x99B JUMPI PUSH0 PUSH0 REVERT JUMPDEST POP PUSH2 0x5F4 PUSH1 0x13 SLOAD DUP2 JUMP JUMPDEST CALLVALUE DUP1 ISZERO PUSH2 0x9B0 JUMPI PUSH0 PUSH0 REVERT JUMPDEST POP PUSH1 0x5 SLOAD PUSH1 0x1 PUSH1 0x1 PUSH1 0xA0 SHL SUB AND PUSH2 0x692 JUMP JUMPDEST CALLVALUE DUP1 ISZERO PUSH2 0x9CD JUMPI PUSH0 PUSH0 REVERT JUMPDEST POP PUSH1 0xB SLOAD PUSH2 0x692 SWAP1 PUSH1 0x1 PUSH1 0x1 PUSH1 0xA0 SHL SUB AND DUP2 JUMP JUMPDEST CALLVALUE DUP1 ISZERO PUSH2 0x9EC JUMPI PUSH0 PUSH0 REVERT JUMPDEST POP PUSH2 0x5F4 PUSH2 0x156B JUMP JUMPDEST CALLVALUE DUP1 ISZERO PUSH2 0xA00 JUMPI PUSH0 PUSH0 REVERT JUMPDEST POP PUSH2 0x633 PUSH2 0x159A JUMP JUMPDEST CALLVALUE DUP1 ISZERO PUSH2 0xA14 JUMPI PUSH0 PUSH0 REVERT JUMPDEST POP PUSH2 0x5CA PUSH2 0xA23 CALLDATASIZE PUSH1 0x4 PUSH2 0x4710 JUMP JUMPDEST PUSH1 0x1D PUSH1 0x20 MSTORE PUSH0 SWAP1 DUP2 MSTORE PUSH1 0x40 SWAP1 KECCAK256 SLOAD PUSH1 0xFF AND DUP2 JUMP JUMPDEST CALLVALUE DUP1 ISZERO PUSH2 0xA42 JUMPI PUSH0 PUSH0 REVERT JUMPDEST POP PUSH2 0x5AB PUSH2 0xA51 CALLDATASIZE PUSH1 0x4 PUSH2 0x47DB JUMP JUMPDEST PUSH2 0x15A9 JUMP JUMPDEST CALLVALUE DUP1 ISZERO PUSH2 0xA61 JUMPI PUSH0 PUSH0 REVERT JUMPDEST POP PUSH2 0x5F4 PUSH2 0xA70 CALLDATASIZE PUSH1 0x4 PUSH2 0x4710 JUMP JUMPDEST PUSH1 0x9 PUSH1 0x20 MSTORE PUSH0 SWAP1 DUP2 MSTORE PUSH1 0x40 SWAP1 KECCAK256 SLOAD DUP2 JUMP JUMPDEST CALLVALUE DUP1 ISZERO PUSH2 0xA8C JUMPI PUSH0 PUSH0 REVERT JUMPDEST POP PUSH2 0xB01 PUSH2 0xA9B CALLDATASIZE PUSH1 0x4 PUSH2 0x4710 JUMP JUMPDEST PUSH1 0xA PUSH1 0x20 MSTORE PUSH0 SWAP1 DUP2 MSTORE PUSH1 0x40 SWAP1 KECCAK256 DUP1 SLOAD PUSH1 0x1 DUP3 ADD SLOAD PUSH1 0x2 DUP4 ADD SLOAD PUSH1 0x3 DUP5 ADD SLOAD PUSH1 0x4 DUP6 ADD SLOAD PUSH1 0x5 DUP7 ADD SLOAD PUSH1 0x6 DUP8 ADD SLOAD PUSH1 0x7 DUP9 ADD SLOAD PUSH1 0x8 DUP10 ADD SLOAD PUSH1 0x9 SWAP1 SWAP10 ADD SLOAD PUSH1 0x1 PUSH1 0x1 PUSH1 0xA0 SHL SUB SWAP1 SWAP9 AND SWAP9 SWAP7 SWAP8 SWAP6 SWAP7 SWAP5 SWAP6 SWAP4 SWAP5 SWAP3 SWAP4 SWAP2 SWAP3 SWAP1 SWAP2 PUSH1 0xFF DUP1 DUP3 AND SWAP2 PUSH2 0x100 SWAP1 DIV AND DUP12 JUMP JUMPDEST PUSH1 0x40 DUP1 MLOAD PUSH1 0x1 PUSH1 0x1 PUSH1 0xA0 SHL SUB SWAP1 SWAP13 AND DUP13 MSTORE PUSH1 0x20 DUP13 ADD SWAP11 SWAP1 SWAP11 MSTORE SWAP9 DUP11 ADD SWAP8 SWAP1 SWAP8 MSTORE PUSH1 0x60 DUP10 ADD SWAP6 SWAP1 SWAP6 MSTORE PUSH1 0x80 DUP9 ADD SWAP4 SWAP1 SWAP4 MSTORE PUSH1 0xA0 DUP8 ADD SWAP2 SWAP1 SWAP2 MSTORE PUSH1 0xC0 DUP7 ADD MSTORE PUSH1 0xE0 DUP6 ADD MSTORE PUSH2 0x100 DUP5 ADD MSTORE ISZERO ISZERO PUSH2 0x120 DUP4 ADD MSTORE ISZERO ISZERO PUSH2 0x140 DUP3 ADD MSTORE PUSH2 0x160 ADD PUSH2 0x5D6 JUMP JUMPDEST CALLVALUE DUP1 ISZERO PUSH2 0xB6D JUMPI PUSH0 PUSH0 REVERT JUMPDEST POP PUSH2 0x5CA PUSH2 0xB7C CALLDATASIZE PUSH1 0x4 PUSH2 0x46A8 JUMP JUMPDEST PUSH2 0x161B JUMP JUMPDEST CALLVALUE DUP1 ISZERO PUSH2 0xB8C JUMPI PUSH0 PUSH0 REVERT JUMPDEST POP PUSH2 0x5F4 PUSH1 0x11 SLOAD DUP2 JUMP JUMPDEST CALLVALUE DUP1 ISZERO PUSH2 0xBA1 JUMPI PUSH0 PUSH0 REVERT JUMPDEST POP PUSH1 0xF SLOAD PUSH2 0x692 SWAP1 PUSH1 0x1 PUSH1 0x1 PUSH1 0xA0 SHL SUB AND DUP2 JUMP JUMPDEST CALLVALUE DUP1 ISZERO PUSH2 0xBC0 JUMPI PUSH0 PUSH0 REVERT JUMPDEST POP PUSH2 0x5F4 PUSH2 0x1628 JUMP JUMPDEST CALLVALUE DUP1 ISZERO PUSH2 0xBD4 JUMPI PUSH0 PUSH0 REVERT JUMPDEST POP PUSH2 0x692 PUSH20 0x55D398326F99059FF775485246999027B3197955 DUP2 JUMP JUMPDEST CALLVALUE DUP1 ISZERO PUSH2 0xBFB JUMPI PUSH0 PUSH0 REVERT JUMPDEST POP PUSH2 0x5AB PUSH2 0x1668 JUMP JUMPDEST CALLVALUE DUP1 ISZERO PUSH2 0xC0F JUMPI PUSH0 PUSH0 REVERT JUMPDEST POP PUSH2 0x5F4 PUSH1 0x12 SLOAD DUP2 JUMP JUMPDEST CALLVALUE DUP1 ISZERO PUSH2 0xC24 JUMPI PUSH0 PUSH0 REVERT JUMPDEST POP PUSH2 0x5CA PUSH2 0xC33 CALLDATASIZE PUSH1 0x4 PUSH2 0x485D JUMP JUMPDEST PUSH2 0x179B JUMP JUMPDEST CALLVALUE DUP1 ISZERO PUSH2 0xC43 JUMPI PUSH0 PUSH0 REVERT JUMPDEST POP PUSH2 0x5F4 PUSH2 0xC52 CALLDATASIZE PUSH1 0x4 PUSH2 0x485D JUMP JUMPDEST PUSH1 0x1 PUSH1 0x1 PUSH1 0xA0 SHL SUB SWAP2 DUP3 AND PUSH0 SWAP1 DUP2 MSTORE PUSH1 0x1 PUSH1 0x20 SWAP1 DUP2 MSTORE PUSH1 0x40 DUP1 DUP4 KECCAK256 SWAP4 SWAP1 SWAP5 AND DUP3 MSTORE SWAP2 SWAP1 SWAP2 MSTORE KECCAK256 SLOAD SWAP1 JUMP JUMPDEST CALLVALUE DUP1 ISZERO PUSH2 0xC87 JUMPI PUSH0 PUSH0 REVERT JUMPDEST POP PUSH1 0xE SLOAD PUSH2 0x692 SWAP1 PUSH1 0x1 PUSH1 0x1 PUSH1 0xA0 SHL SUB AND DUP2 JUMP JUMPDEST CALLVALUE DUP1 ISZERO PUSH2 0xCA6 JUMPI PUSH0 PUSH0 REVERT JUMPDEST POP PUSH2 0x5F4 PUSH1 0x14 SLOAD DUP2 JUMP JUMPDEST CALLVALUE DUP1 ISZERO PUSH2 0xCBB JUMPI PUSH0 PUSH0 REVERT JUMPDEST POP PUSH2 0x5AB PUSH2 0xCCA CALLDATASIZE PUSH1 0x4 PUSH2 0x485D JUMP JUMPDEST PUSH2 0x18D7 JUMP JUMPDEST CALLVALUE DUP1 ISZERO PUSH2 0xCDA JUMPI PUSH0 PUSH0 REVERT JUMPDEST POP PUSH1 0x18 SLOAD PUSH2 0x692 SWAP1 PUSH1 0x1 PUSH1 0x1 PUSH1 0xA0 SHL SUB AND DUP2 JUMP JUMPDEST CALLVALUE DUP1 ISZERO PUSH2 0xCF9 JUMPI PUSH0 PUSH0 REVERT JUMPDEST POP PUSH2 0x5F4 PUSH2 0xD08 CALLDATASIZE PUSH1 0x4 PUSH2 0x4710 JUMP JUMPDEST PUSH2 0x190D JUMP JUMPDEST CALLVALUE DUP1 ISZERO PUSH2 0xD18 JUMPI PUSH0 PUSH0 REVERT JUMPDEST POP PUSH2 0xDD3 PUSH2 0xD27 CALLDATASIZE PUSH1 0x4 PUSH2 0x4710 JUMP JUMPDEST PUSH1 0x1 PUSH1 0x1 PUSH1 0xA0 SHL SUB SWAP1 DUP2 AND PUSH0 SWAP1 DUP2 MSTORE PUSH1 0xA PUSH1 0x20 SWAP1 DUP2 MSTORE PUSH1 0x40 SWAP2 DUP3 SWAP1 KECCAK256 DUP3 MLOAD PUSH2 0x160 DUP2 ADD DUP5 MSTORE DUP2 SLOAD SWAP1 SWAP5 AND DUP5 MSTORE PUSH1 0x1 DUP2 ADD SLOAD SWAP2 DUP5 ADD DUP3 SWAP1 MSTORE PUSH1 0x2 DUP2 ADD SLOAD SWAP3 DUP5 ADD SWAP3 SWAP1 SWAP3 MSTORE PUSH1 0x3 DUP3 ADD SLOAD PUSH1 0x60 DUP5 ADD MSTORE PUSH1 0x4 DUP3 ADD SLOAD PUSH1 0x80 DUP5 ADD MSTORE PUSH1 0x5 DUP3 ADD SLOAD PUSH1 0xA0 DUP5 ADD MSTORE PUSH1 0x6 DUP3 ADD SLOAD PUSH1 0xC0 DUP5 ADD MSTORE PUSH1 0x7 DUP3 ADD SLOAD PUSH1 0xE0 DUP5 ADD MSTORE PUSH1 0x8 DUP3 ADD SLOAD PUSH2 0x100 DUP1 DUP6 ADD SWAP2 SWAP1 SWAP2 MSTORE PUSH1 0x9 SWAP1 SWAP3 ADD SLOAD PUSH1 0xFF DUP1 DUP3 AND ISZERO ISZERO PUSH2 0x120 DUP7 ADD DUP2 SWAP1 MSTORE SWAP4 SWAP1 SWAP2 DIV AND ISZERO ISZERO PUSH2 0x140 SWAP1 SWAP4 ADD DUP4 SWAP1 MSTORE SWAP3 JUMP JUMPDEST PUSH1 0x40 DUP1 MLOAD SWAP4 DUP5 MSTORE SWAP2 ISZERO ISZERO PUSH1 0x20 DUP5 ADD MSTORE ISZERO ISZERO SWAP1 DUP3 ADD MSTORE PUSH1 0x60 ADD PUSH2 0x5D6 JUMP JUMPDEST CALLVALUE DUP1 ISZERO PUSH2 0xDFB JUMPI PUSH0 PUSH0 REVERT JUMPDEST POP PUSH2 0x5AB PUSH2 0xE0A CALLDATASIZE PUSH1 0x4 PUSH2 0x4710 JUMP JUMPDEST PUSH2 0x1B2A JUMP JUMPDEST CALLVALUE DUP1 ISZERO PUSH2 0xE1A JUMPI PUSH0 PUSH0 REVERT JUMPDEST POP PUSH2 0x5AB PUSH2 0xE29 CALLDATASIZE PUSH1 0x4 PUSH2 0x4710 JUMP JUMPDEST PUSH2 0x1B6C JUMP JUMPDEST CALLVALUE DUP1 ISZERO PUSH2 0xE39 JUMPI PUSH0 PUSH0 REVERT JUMPDEST POP PUSH2 0x5CA PUSH2 0xE48 CALLDATASIZE PUSH1 0x4 PUSH2 0x485D JUMP JUMPDEST PUSH1 0x7 PUSH1 0x20 SWAP1 DUP2 MSTORE PUSH0 SWAP3 DUP4 MSTORE PUSH1 0x40 DUP1 DUP5 KECCAK256 SWAP1 SWAP2 MSTORE SWAP1 DUP3 MSTORE SWAP1 KECCAK256 SLOAD PUSH1 0xFF AND DUP2 JUMP JUMPDEST PUSH1 0x40 DUP1 MLOAD PUSH1 0x2 DUP1 DUP3 MSTORE PUSH1 0x60 DUP3 ADD DUP4 MSTORE PUSH0 SWAP3 DUP4 SWAP3 SWAP2 SWAP1 PUSH1 0x20 DUP4 ADD SWAP1 DUP1 CALLDATASIZE DUP4 CALLDATACOPY POP POP PUSH1 0xB SLOAD DUP3 MLOAD SWAP3 SWAP4 POP PUSH1 0x1 PUSH1 0x1 PUSH1 0xA0 SHL SUB AND SWAP2 DUP4 SWAP2 POP PUSH0 SWAP1 PUSH2 0xEAA JUMPI PUSH2 0xEAA PUSH2 0x489D JUMP JUMPDEST PUSH1 0x20 MUL PUSH1 0x20 ADD ADD SWAP1 PUSH1 0x1 PUSH1 0x1 PUSH1 0xA0 SHL SUB AND SWAP1 DUP2 PUSH1 0x1 PUSH1 0x1 PUSH1 0xA0 SHL SUB AND DUP2 MSTORE POP POP ADDRESS DUP2 PUSH1 0x1 DUP2 MLOAD DUP2 LT PUSH2 0xEDE JUMPI PUSH2 0xEDE PUSH2 0x489D JUMP JUMPDEST PUSH1 0x1 PUSH1 0x1 PUSH1 0xA0 SHL SUB SWAP3 DUP4 AND PUSH1 0x20 SWAP2 DUP3 MUL SWAP3 SWAP1 SWAP3 ADD ADD MSTORE PUSH1 0x10 SLOAD PUSH1 0x40 MLOAD PUSH4 0xB6F9DE95 PUSH1 0xE0 SHL DUP2 MSTORE PUSH32 0x0 DUP4 AND SWAP3 PUSH4 0xB6F9DE95 SWAP3 DUP8 SWAP3 PUSH2 0xF45 SWAP3 PUSH0 SWAP3 DUP9 SWAP3 SWAP2 AND SWAP1 TIMESTAMP SWAP1 PUSH1 0x4 ADD PUSH2 0x48B1 JUMP JUMPDEST PUSH0 PUSH1 0x40 MLOAD DUP1 DUP4 SUB DUP2 DUP6 DUP9 DUP1 EXTCODESIZE ISZERO DUP1 ISZERO PUSH2 0xF5C JUMPI PUSH0 PUSH0 REVERT JUMPDEST POP GAS CALL ISZERO DUP1 ISZERO PUSH2 0xF6E JUMPI RETURNDATASIZE PUSH0 PUSH0 RETURNDATACOPY RETURNDATASIZE PUSH0 REVERT JUMPDEST POP POP PUSH1 0x10 SLOAD PUSH1 0x1 PUSH1 0x1 PUSH1 0xA0 SHL SUB AND PUSH0 SWAP1 DUP2 MSTORE PUSH1 0x20 DUP2 SWAP1 MSTORE PUSH1 0x40 DUP2 KECCAK256 SLOAD SWAP1 SWAP4 POP SWAP2 POP PUSH2 0xF96 SWAP1 POP JUMP JUMPDEST PUSH1 0x10 SLOAD SWAP1 SWAP2 POP PUSH2 0xFB0 SWAP1 PUSH1 0x1 PUSH1 0x1 PUSH1 0xA0 SHL SUB AND ADDRESS DUP4 PUSH2 0x1B96 JUMP JUMPDEST PUSH2 0xFDB ADDRESS PUSH32 0x0 DUP4 PUSH2 0x1CBC JUMP JUMPDEST PUSH1 0x40 MLOAD PUSH4 0xF305D719 PUSH1 0xE0 SHL DUP2 MSTORE ADDRESS PUSH1 0x4 DUP3 ADD DUP2 SWAP1 MSTORE PUSH1 0x24 DUP3 ADD DUP4 SWAP1 MSTORE PUSH0 PUSH1 0x44 DUP4 ADD DUP2 SWAP1 MSTORE PUSH1 0x64 DUP4 ADD MSTORE PUSH1 0x84 DUP3 ADD MSTORE TIMESTAMP PUSH1 0xA4 DUP3 ADD MSTORE PUSH32 0x0 PUSH1 0x1 PUSH1 0x1 PUSH1 0xA0 SHL SUB AND SWAP1 PUSH4 0xF305D719 SWAP1 DUP7 SWAP1 PUSH1 0xC4 ADD PUSH1 0x60 PUSH1 0x40 MLOAD DUP1 DUP4 SUB DUP2 DUP6 DUP9 GAS CALL ISZERO DUP1 ISZERO PUSH2 0x1061 JUMPI RETURNDATASIZE PUSH0 PUSH0 RETURNDATACOPY RETURNDATASIZE PUSH0 REVERT JUMPDEST POP POP POP POP POP PUSH1 0x40 MLOAD RETURNDATASIZE PUSH1 0x1F NOT PUSH1 0x1F DUP3 ADD AND DUP3 ADD DUP1 PUSH1 0x40 MSTORE POP DUP2 ADD SWAP1 PUSH2 0x1086 SWAP2 SWAP1 PUSH2 0x48E5 JUMP JUMPDEST SWAP7 SWAP6 POP POP POP POP POP POP JUMP JUMPDEST PUSH1 0x60 PUSH1 0x3 DUP1 SLOAD PUSH2 0x109F SWAP1 PUSH2 0x4910 JUMP JUMPDEST DUP1 PUSH1 0x1F ADD PUSH1 0x20 DUP1 SWAP2 DIV MUL PUSH1 0x20 ADD PUSH1 0x40 MLOAD SWAP1 DUP2 ADD PUSH1 0x40 MSTORE DUP1 SWAP3 SWAP2 SWAP1 DUP2 DUP2 MSTORE PUSH1 0x20 ADD DUP3 DUP1 SLOAD PUSH2 0x10CB SWAP1 PUSH2 0x4910 JUMP JUMPDEST DUP1 ISZERO PUSH2 0x1116 JUMPI DUP1 PUSH1 0x1F LT PUSH2 0x10ED JUMPI PUSH2 0x100 DUP1 DUP4 SLOAD DIV MUL DUP4 MSTORE SWAP2 PUSH1 0x20 ADD SWAP2 PUSH2 0x1116 JUMP JUMPDEST DUP3 ADD SWAP2 SWAP1 PUSH0 MSTORE PUSH1 0x20 PUSH0 KECCAK256 SWAP1 JUMPDEST DUP2 SLOAD DUP2 MSTORE SWAP1 PUSH1 0x1 ADD SWAP1 PUSH1 0x20 ADD DUP1 DUP4 GT PUSH2 0x10F9 JUMPI DUP3 SWAP1 SUB PUSH1 0x1F AND DUP3 ADD SWAP2 JUMPDEST POP POP POP POP POP SWAP1 POP SWAP1 JUMP JUMPDEST PUSH0 CALLER PUSH2 0x112D DUP2 DUP6 DUP6 PUSH2 0x1CBC JUMP JUMPDEST PUSH1 0x1 SWAP2 POP POP JUMPDEST SWAP3 SWAP2 POP POP JUMP JUMPDEST PUSH1 0x6 SLOAD PUSH1 0x40 DUP1 MLOAD PUSH4 0x240BC6B PUSH1 0xE2 SHL DUP2 MSTORE SWAP1 MLOAD PUSH0 SWAP3 PUSH1 0x1 PUSH1 0x1 PUSH1 0xA0 SHL SUB AND SWAP2 DUP4 SWAP2 DUP3 SWAP2 DUP5 SWAP2 PUSH4 0x902F1AC SWAP2 PUSH1 0x4 DUP1 DUP3 ADD SWAP3 PUSH1 0x60 SWAP3 SWAP1 SWAP2 SWAP1 DUP3 SWAP1 SUB ADD DUP2 DUP7 GAS STATICCALL ISZERO DUP1 ISZERO PUSH2 0x1187 JUMPI RETURNDATASIZE PUSH0 PUSH0 RETURNDATACOPY RETURNDATASIZE PUSH0 REVERT JUMPDEST POP POP POP POP PUSH1 0x40 MLOAD RETURNDATASIZE PUSH1 0x1F NOT PUSH1 0x1F DUP3 ADD AND DUP3 ADD DUP1 PUSH1 0x40 MSTORE POP DUP2 ADD SWAP1 PUSH2 0x11AB SWAP2 SWAP1 PUSH2 0x4958 JUMP JUMPDEST POP SWAP2 POP SWAP2 POP PUSH0 DUP4 PUSH1 0x1 PUSH1 0x1 PUSH1 0xA0 SHL SUB AND PUSH4 0xDFE1681 PUSH1 0x40 MLOAD DUP2 PUSH4 0xFFFFFFFF AND PUSH1 0xE0 SHL DUP2 MSTORE PUSH1 0x4 ADD PUSH1 0x20 PUSH1 0x40 MLOAD DUP1 DUP4 SUB DUP2 DUP7 GAS STATICCALL ISZERO DUP1 ISZERO PUSH2 0x11ED JUMPI RETURNDATASIZE PUSH0 PUSH0 RETURNDATACOPY RETURNDATASIZE PUSH0 REVERT JUMPDEST POP POP POP POP PUSH1 0x40 MLOAD RETURNDATASIZE PUSH1 0x1F NOT PUSH1 0x1F DUP3 ADD AND DUP3 ADD DUP1 PUSH1 0x40 MSTORE POP DUP2 ADD SWAP1 PUSH2 0x1211 SWAP2 SWAP1 PUSH2 0x4999 JUMP JUMPDEST SWAP1 POP PUSH1 0x1 PUSH1 0x1 PUSH1 0xA0 SHL SUB DUP2 AND ADDRESS EQ PUSH2 0x1229 JUMPI DUP2 PUSH2 0x122B JUMP JUMPDEST DUP3 JUMPDEST PUSH1 0x1 PUSH1 0x1 PUSH1 0x70 SHL SUB AND SWAP5 POP POP POP POP POP SWAP1 JUMP JUMPDEST PUSH0 CALLER PUSH2 0x124A DUP6 DUP3 DUP6 PUSH2 0x1CCE JUMP JUMPDEST PUSH2 0x1255 DUP6 DUP6 DUP6 PUSH2 0x1D44 JUMP JUMPDEST POP PUSH1 0x1 SWAP5 SWAP4 POP POP POP POP JUMP JUMPDEST PUSH2 0x1268 PUSH2 0x1DA1 JUMP JUMPDEST PUSH1 0xF DUP1 SLOAD PUSH1 0x1 PUSH1 0x1 PUSH1 0xA0 SHL SUB NOT AND PUSH1 0x1 PUSH1 0x1 PUSH1 0xA0 SHL SUB SWAP3 SWAP1 SWAP3 AND SWAP2 SWAP1 SWAP2 OR SWAP1 SSTORE JUMP JUMPDEST PUSH0 DUP2 PUSH1 0x1 SUB PUSH2 0x129B JUMPI POP PUSH1 0xA SWAP2 SWAP1 POP JUMP JUMPDEST DUP2 PUSH1 0x2 SUB PUSH2 0x12AB JUMPI POP PUSH1 0x5 SWAP2 SWAP1 POP JUMP JUMPDEST DUP2 PUSH1 0x3 SUB PUSH2 0x12BB JUMPI POP PUSH1 0x3 SWAP2 SWAP1 POP JUMP JUMPDEST PUSH1 0x4 DUP3 LT ISZERO DUP1 ISZERO PUSH2 0x12CD JUMPI POP PUSH1 0x11 DUP3 GT ISZERO JUMPDEST ISZERO PUSH2 0x12DA JUMPI POP PUSH1 0x1 SWAP2 SWAP1 POP JUMP JUMPDEST DUP2 PUSH1 0x12 SUB PUSH2 0x12EA JUMPI POP PUSH1 0x3 SWAP2 SWAP1 POP JUMP JUMPDEST DUP2 PUSH1 0x13 SUB PUSH2 0x12FA JUMPI POP PUSH1 0x5 SWAP2 SWAP1 POP JUMP JUMPDEST DUP2 PUSH1 0x14 SUB PUSH2 0x130A JUMPI POP PUSH1 0xA SWAP2 SWAP1 POP JUMP JUMPDEST POP PUSH0 SWAP2 SWAP1 POP JUMP JUMPDEST PUSH2 0x1319 PUSH2 0x1DA1 JUMP JUMPDEST PUSH1 0x15 DUP2 SWAP1 SSTORE PUSH2 0x132B DUP2 PUSH3 0x278D00 PUSH2 0x45FB JUMP JUMPDEST PUSH1 0x16 SSTORE POP JUMP JUMPDEST PUSH1 0x1 PUSH1 0x1 PUSH1 0xA0 SHL SUB DUP2 AND PUSH0 SWAP1 DUP2 MSTORE PUSH1 0x8 PUSH1 0x20 MSTORE PUSH1 0x40 SWAP1 KECCAK256 PUSH1 0x60 SWAP1 PUSH2 0x1133 SWAP1 PUSH2 0x1DCE JUMP JUMPDEST PUSH1 0x6 SLOAD PUSH1 0x40 DUP1 MLOAD PUSH4 0x240BC6B PUSH1 0xE2 SHL DUP2 MSTORE SWAP1 MLOAD PUSH1 0x1 PUSH1 0x1 PUSH1 0xA0 SHL SUB SWAP1 SWAP3 AND SWAP2 PUSH0 SWAP2 DUP3 SWAP2 DUP5 SWAP2 PUSH4 0x902F1AC SWAP2 PUSH1 0x4 DUP1 DUP4 ADD SWAP3 PUSH1 0x60 SWAP3 SWAP2 SWAP1 DUP3 SWAP1 SUB ADD DUP2 DUP7 GAS STATICCALL ISZERO DUP1 ISZERO PUSH2 0x13A1 JUMPI RETURNDATASIZE PUSH0 PUSH0 RETURNDATACOPY RETURNDATASIZE PUSH0 REVERT JUMPDEST POP POP POP POP PUSH1 0x40 MLOAD RETURNDATASIZE PUSH1 0x1F NOT PUSH1 0x1F DUP3 ADD AND DUP3 ADD DUP1 PUSH1 0x40 MSTORE POP DUP2 ADD SWAP1 PUSH2 0x13C5 SWAP2 SWAP1 PUSH2 0x4958 JUMP JUMPDEST POP SWAP2 POP SWAP2 POP DUP2 PUSH1 0x1 PUSH1 0x1 PUSH1 0x70 SHL SUB AND PUSH0 EQ DUP1 PUSH2 0x13E8 JUMPI POP PUSH1 0x1 PUSH1 0x1 PUSH1 0x70 SHL SUB DUP2 AND ISZERO JUMPDEST ISZERO PUSH2 0x13F2 JUMPI POP POP POP JUMP JUMPDEST PUSH0 DUP4 PUSH1 0x1 PUSH1 0x1 PUSH1 0xA0 SHL SUB AND PUSH4 0xDFE1681 PUSH1 0x40 MLOAD DUP2 PUSH4 0xFFFFFFFF AND PUSH1 0xE0 SHL DUP2 MSTORE PUSH1 0x4 ADD PUSH1 0x20 PUSH1 0x40 MLOAD DUP1 DUP4 SUB DUP2 DUP7 GAS STATICCALL ISZERO DUP1 ISZERO PUSH2 0x142F JUMPI RETURNDATASIZE PUSH0 PUSH0 RETURNDATACOPY RETURNDATASIZE PUSH0 REVERT JUMPDEST POP POP POP POP PUSH1 0x40 MLOAD RETURNDATASIZE PUSH1 0x1F NOT PUSH1 0x1F DUP3 ADD AND DUP3 ADD DUP1 PUSH1 0x40 MSTORE POP DUP2 ADD SWAP1 PUSH2 0x1453 SWAP2 SWAP1 PUSH2 0x4999 JUMP JUMPDEST SWAP1 POP PUSH0 PUSH1 0x1 PUSH1 0x1 PUSH1 0xA0 SHL SUB DUP3 AND ADDRESS EQ PUSH2 0x146C JUMPI DUP3 PUSH2 0x146E JUMP JUMPDEST DUP4 JUMPDEST PUSH1 0x1 PUSH1 0x1 PUSH1 0x70 SHL SUB AND SWAP1 POP PUSH1 0x11 SLOAD DUP2 LT ISZERO PUSH2 0x14AD JUMPI PUSH1 0x10 SLOAD PUSH1 0x1 PUSH1 0xA0 SHL SWAP1 DIV PUSH1 0xFF AND PUSH2 0x14A8 JUMPI PUSH1 0x10 DUP1 SLOAD PUSH1 0xFF PUSH1 0xA0 SHL NOT AND PUSH1 0x1 PUSH1 0xA0 SHL OR SWAP1 SSTORE JUMPDEST PUSH2 0x14CD JUMP JUMPDEST PUSH1 0x10 SLOAD PUSH1 0x1 PUSH1 0xA0 SHL SWAP1 DIV PUSH1 0xFF AND ISZERO PUSH2 0x14CD JUMPI PUSH1 0x10 DUP1 SLOAD PUSH1 0xFF PUSH1 0xA0 SHL NOT AND SWAP1 SSTORE JUMPDEST POP POP POP POP POP JUMP JUMPDEST PUSH2 0x14DC PUSH2 0x1DA1 JUMP JUMPDEST PUSH1 0x1 PUSH1 0x1 PUSH1 0xA0 SHL SUB SWAP2 SWAP1 SWAP2 AND PUSH0 SWAP1 DUP2 MSTORE PUSH1 0x1D PUSH1 0x20 MSTORE PUSH1 0x40 SWAP1 KECCAK256 DUP1 SLOAD PUSH1 0xFF NOT AND SWAP2 ISZERO ISZERO SWAP2 SWAP1 SWAP2 OR SWAP1 SSTORE JUMP JUMPDEST PUSH0 PUSH0 PUSH0 PUSH0 PUSH0 PUSH2 0x1513 PUSH2 0x1139 JUMP JUMPDEST SWAP1 POP PUSH11 0x52B7D2DCC80CD2E4000000 DUP2 GT ISZERO PUSH2 0x153F JUMPI PUSH2 0x640 PUSH0 PUSH2 0x12C PUSH1 0x3C SWAP5 POP SWAP5 POP SWAP5 POP SWAP5 POP POP PUSH2 0x1552 JUMP JUMPDEST PUSH2 0x3E8 PUSH0 PUSH2 0x12C PUSH1 0x3C SWAP5 POP SWAP5 POP SWAP5 POP SWAP5 POP POP JUMPDEST SWAP1 SWAP2 SWAP3 SWAP4 JUMP JUMPDEST PUSH2 0x1560 PUSH2 0x1DA1 JUMP JUMPDEST PUSH2 0x1569 PUSH0 PUSH2 0x1DE1 JUMP JUMPDEST JUMP JUMPDEST PUSH0 PUSH0 PUSH2 0x1575 PUSH2 0x1139 JUMP JUMPDEST SWAP1 POP PUSH11 0x52B7D2DCC80CD2E4000000 DUP2 GT ISZERO PUSH2 0x1592 JUMPI PUSH1 0x32 SWAP2 POP POP SWAP1 JUMP JUMPDEST PUSH1 0x14 SWAP2 POP POP SWAP1 JUMP JUMPDEST PUSH1 0x60 PUSH1 0x4 DUP1 SLOAD PUSH2 0x109F SWAP1 PUSH2 0x4910 JUMP JUMPDEST PUSH2 0x15B1 PUSH2 0x1DA1 JUMP JUMPDEST PUSH0 JUMPDEST DUP3 DUP2 LT ISZERO PUSH2 0x1615 JUMPI DUP2 PUSH1 0x1D PUSH0 DUP7 DUP7 DUP6 DUP2 DUP2 LT PUSH2 0x15D1 JUMPI PUSH2 0x15D1 PUSH2 0x489D JUMP JUMPDEST SWAP1 POP PUSH1 0x20 MUL ADD PUSH1 0x20 DUP2 ADD SWAP1 PUSH2 0x15E6 SWAP2 SWAP1 PUSH2 0x4710 JUMP JUMPDEST PUSH1 0x1 PUSH1 0x1 PUSH1 0xA0 SHL SUB AND DUP2 MSTORE PUSH1 0x20 DUP2 ADD SWAP2 SWAP1 SWAP2 MSTORE PUSH1 0x40 ADD PUSH0 KECCAK256 DUP1 SLOAD PUSH1 0xFF NOT AND SWAP2 ISZERO ISZERO SWAP2 SWAP1 SWAP2 OR SWAP1 SSTORE PUSH1 0x1 ADD PUSH2 0x15B3 JUMP JUMPDEST POP POP POP POP JUMP JUMPDEST PUSH0 CALLER PUSH2 0x112D DUP2 DUP6 DUP6 PUSH2 0x1D44 JUMP JUMPDEST PUSH2 0xDEAD PUSH0 SWAP1 DUP2 MSTORE PUSH1 0x20 DUP2 SWAP1 MSTORE PUSH32 0x44AD89BA62B98FF34F51403AC22759B55759460C0BB5521EB4B6EE3CFF49CF83 SLOAD PUSH1 0x2 SLOAD PUSH2 0x1663 SWAP2 SWAP1 PUSH2 0x464C JUMP JUMPDEST SWAP1 POP SWAP1 JUMP JUMPDEST PUSH1 0xB SLOAD PUSH1 0x6 SLOAD PUSH1 0x40 MLOAD PUSH4 0x70A08231 PUSH1 0xE0 SHL DUP2 MSTORE ADDRESS PUSH1 0x4 DUP3 ADD MSTORE PUSH1 0x1 PUSH1 0x1 PUSH1 0xA0 SHL SUB SWAP3 DUP4 AND SWAP3 PUSH4 0xA9059CBB SWAP3 AND SWAP1 DUP4 SWAP1 PUSH4 0x70A08231 SWAP1 PUSH1 0x24 ADD PUSH1 0x20 PUSH1 0x40 MLOAD DUP1 DUP4 SUB DUP2 DUP7 GAS STATICCALL ISZERO DUP1 ISZERO PUSH2 0x16BB JUMPI RETURNDATASIZE PUSH0 PUSH0 RETURNDATACOPY RETURNDATASIZE PUSH0 REVERT JUMPDEST POP POP POP POP PUSH1 0x40 MLOAD RETURNDATASIZE PUSH1 0x1F NOT PUSH1 0x1F DUP3 ADD AND DUP3 ADD DUP1 PUSH1 0x40 MSTORE POP DUP2 ADD SWAP1 PUSH2 0x16DF SWAP2 SWAP1 PUSH2 0x49B4 JUMP JUMPDEST PUSH1 0x40 MLOAD DUP4 PUSH4 0xFFFFFFFF AND PUSH1 0xE0 SHL DUP2 MSTORE PUSH1 0x4 ADD PUSH2 0x16FC SWAP3 SWAP2 SWAP1 PUSH2 0x49CB JUMP JUMPDEST PUSH1 0x20 PUSH1 0x40 MLOAD DUP1 DUP4 SUB DUP2 PUSH0 DUP8 GAS CALL ISZERO DUP1 ISZERO PUSH2 0x1718 JUMPI RETURNDATASIZE PUSH0 PUSH0 RETURNDATACOPY RETURNDATASIZE PUSH0 REVERT JUMPDEST POP POP POP POP PUSH1 0x40 MLOAD RETURNDATASIZE PUSH1 0x1F NOT PUSH1 0x1F DUP3 ADD AND DUP3 ADD DUP1 PUSH1 0x40 MSTORE POP DUP2 ADD SWAP1 PUSH2 0x173C SWAP2 SWAP1 PUSH2 0x49E4 JUMP JUMPDEST POP PUSH1 0x6 PUSH0 SWAP1 SLOAD SWAP1 PUSH2 0x100 EXP SWAP1 DIV PUSH1 0x1 PUSH1 0x1 PUSH1 0xA0 SHL SUB AND PUSH1 0x1 PUSH1 0x1 PUSH1 0xA0 SHL SUB AND PUSH4 0xFFF6CAE9 PUSH1 0x40 MLOAD DUP2 PUSH4 0xFFFFFFFF AND PUSH1 0xE0 SHL DUP2 MSTORE PUSH1 0x4 ADD PUSH0 PUSH1 0x40 MLOAD DUP1 DUP4 SUB DUP2 PUSH0 DUP8 DUP1 EXTCODESIZE ISZERO DUP1 ISZERO PUSH2 0x1789 JUMPI PUSH0 PUSH0 REVERT JUMPDEST POP GAS CALL ISZERO DUP1 ISZERO PUSH2 0x1615 JUMPI RETURNDATASIZE PUSH0 PUSH0 RETURNDATACOPY RETURNDATASIZE PUSH0 REVERT JUMPDEST PUSH1 0x1 PUSH1 0x1 PUSH1 0xA0 SHL SUB DUP3 DUP2 AND PUSH0 SWAP1 DUP2 MSTORE PUSH1 0xA PUSH1 0x20 MSTORE PUSH1 0x40 DUP2 KECCAK256 SLOAD SWAP1 SWAP2 AND ISZERO DUP1 ISZERO PUSH2 0x17D2 JUMPI POP PUSH1 0x17 SLOAD PUSH1 0x1 PUSH1 0x1 PUSH1 0xA0 SHL SUB DUP5 DUP2 AND SWAP2 AND EQ ISZERO JUMPDEST DUP1 ISZERO PUSH2 0x17EC JUMPI POP PUSH1 0x6 SLOAD PUSH1 0x1 PUSH1 0x1 PUSH1 0xA0 SHL SUB DUP4 DUP2 AND SWAP2 AND EQ ISZERO JUMPDEST DUP1 ISZERO PUSH2 0x1806 JUMPI POP PUSH1 0x6 SLOAD PUSH1 0x1 PUSH1 0x1 PUSH1 0xA0 SHL SUB DUP5 DUP2 AND SWAP2 AND EQ ISZERO JUMPDEST ISZERO PUSH2 0x1812 JUMPI POP PUSH0 PUSH2 0x1133 JUMP JUMPDEST PUSH1 0x1 PUSH1 0x1 PUSH1 0xA0 SHL SUB DUP1 DUP5 AND PUSH0 SWAP1 DUP2 MSTORE PUSH1 0x7 PUSH1 0x20 SWAP1 DUP2 MSTORE PUSH1 0x40 DUP1 DUP4 KECCAK256 SWAP4 DUP7 AND DUP4 MSTORE SWAP3 SWAP1 MSTORE KECCAK256 SLOAD PUSH1 0xFF AND DUP1 PUSH2 0x1856 JUMPI POP DUP2 PUSH1 0x1 PUSH1 0x1 PUSH1 0xA0 SHL SUB AND DUP4 PUSH1 0x1 PUSH1 0x1 PUSH1 0xA0 SHL SUB AND EQ JUMPDEST ISZERO PUSH2 0x1862 JUMPI POP PUSH0 PUSH2 0x1133 JUMP JUMPDEST DUP2 PUSH0 JUMPDEST PUSH1 0x1 PUSH1 0x1 PUSH1 0xA0 SHL SUB DUP3 AND ISZERO DUP1 ISZERO SWAP1 PUSH2 0x1880 JUMPI POP PUSH1 0x19 DUP2 PUSH1 0xFF AND LT JUMPDEST ISZERO PUSH2 0x1255 JUMPI DUP5 PUSH1 0x1 PUSH1 0x1 PUSH1 0xA0 SHL SUB AND DUP3 PUSH1 0x1 PUSH1 0x1 PUSH1 0xA0 SHL SUB AND SUB PUSH2 0x18A8 JUMPI PUSH0 SWAP3 POP POP POP PUSH2 0x1133 JUMP JUMPDEST PUSH1 0x1 PUSH1 0x1 PUSH1 0xA0 SHL SUB SWAP2 DUP3 AND PUSH0 SWAP1 DUP2 MSTORE PUSH1 0xA PUSH1 0x20 MSTORE PUSH1 0x40 SWAP1 KECCAK256 SLOAD SWAP1 SWAP2 AND SWAP1 DUP1 PUSH2 0x18CF DUP2 PUSH2 0x49FF JUMP JUMPDEST SWAP2 POP POP PUSH2 0x1865 JUMP JUMPDEST PUSH2 0x18DF PUSH2 0x1DA1 JUMP JUMPDEST PUSH1 0xD DUP1 SLOAD PUSH1 0x1 PUSH1 0x1 PUSH1 0xA0 SHL SUB SWAP4 DUP5 AND PUSH1 0x1 PUSH1 0x1 PUSH1 0xA0 SHL SUB NOT SWAP2 DUP3 AND OR SWAP1 SWAP2 SSTORE PUSH1 0xE DUP1 SLOAD SWAP3 SWAP1 SWAP4 AND SWAP2 AND OR SWAP1 SSTORE JUMP JUMPDEST PUSH1 0x1 PUSH1 0x1 PUSH1 0xA0 SHL SUB DUP1 DUP3 AND PUSH0 SWAP1 DUP2 MSTORE PUSH1 0xA PUSH1 0x20 SWAP1 DUP2 MSTORE PUSH1 0x40 DUP1 DUP4 KECCAK256 DUP2 MLOAD PUSH2 0x160 DUP2 ADD DUP4 MSTORE DUP2 SLOAD SWAP1 SWAP6 AND DUP6 MSTORE PUSH1 0x1 DUP2 ADD SLOAD SWAP3 DUP6 ADD SWAP3 SWAP1 SWAP3 MSTORE PUSH1 0x2 DUP3 ADD SLOAD SWAP1 DUP5 ADD MSTORE PUSH1 0x3 DUP2 ADD SLOAD PUSH1 0x60 DUP5 ADD MSTORE PUSH1 0x4 DUP2 ADD SLOAD PUSH1 0x80 DUP5 ADD MSTORE PUSH1 0x5 DUP2 ADD SLOAD PUSH1 0xA0 DUP5 ADD MSTORE PUSH1 0x6 DUP2 ADD SLOAD PUSH1 0xC0 DUP5 ADD MSTORE PUSH1 0x7 DUP2 ADD SLOAD PUSH1 0xE0 DUP5 ADD MSTORE PUSH1 0x8 DUP2 ADD SLOAD PUSH2 0x100 DUP1 DUP6 ADD SWAP2 SWAP1 SWAP2 MSTORE PUSH1 0x9 SWAP1 SWAP2 ADD SLOAD PUSH1 0xFF DUP1 DUP3 AND ISZERO ISZERO PUSH2 0x120 DUP7 ADD MSTORE SWAP2 SWAP1 DIV AND ISZERO DUP1 ISZERO PUSH2 0x140 DUP5 ADD MSTORE SWAP1 SWAP2 SWAP1 DUP1 PUSH2 0x19BF JUMPI POP DUP1 PUSH2 0x120 ADD MLOAD ISZERO JUMPDEST ISZERO PUSH2 0x19CC JUMPI POP PUSH0 SWAP3 SWAP2 POP POP JUMP JUMPDEST PUSH1 0x1 PUSH1 0x1 PUSH1 0xA0 SHL SUB DUP4 AND PUSH0 SWAP1 DUP2 MSTORE PUSH1 0x9 PUSH1 0x20 MSTORE PUSH1 0x40 DUP2 KECCAK256 SLOAD SWAP1 DUP2 SWAP1 SUB PUSH2 0x19F5 JUMPI POP PUSH0 SWAP4 SWAP3 POP POP POP JUMP JUMPDEST PUSH0 PUSH3 0x15180 PUSH2 0x1A04 DUP4 TIMESTAMP PUSH2 0x464C JUMP JUMPDEST PUSH2 0x1A0E SWAP2 SWAP1 PUSH2 0x4639 JUMP JUMPDEST SWAP1 POP PUSH1 0xC8 DUP2 GT ISZERO PUSH2 0x1A23 JUMPI POP PUSH0 SWAP5 SWAP4 POP POP POP POP JUMP JUMPDEST PUSH0 PUSH2 0x1A2C PUSH2 0x1506 JUMP JUMPDEST POP POP POP SWAP1 POP PUSH1 0x7D DUP3 GT ISZERO PUSH2 0x1A3F JUMPI POP PUSH2 0x3E8 JUMPDEST PUSH1 0x20 DUP5 ADD MLOAD PUSH0 PUSH3 0x186A0 PUSH2 0x1A53 DUP5 DUP5 PUSH2 0x460E JUMP JUMPDEST PUSH2 0x1A5D SWAP2 SWAP1 PUSH2 0x4639 JUMP JUMPDEST SWAP1 POP PUSH0 PUSH2 0x12C SWAP1 POP PUSH0 PUSH0 DUP9 PUSH1 0x80 ADD MLOAD GT PUSH2 0x1A77 JUMPI DUP7 PUSH2 0x1A7D JUMP JUMPDEST DUP8 PUSH1 0x80 ADD MLOAD JUMPDEST SWAP1 POP PUSH0 PUSH2 0x1A8A DUP3 TIMESTAMP PUSH2 0x464C JUMP JUMPDEST SWAP1 POP PUSH0 PUSH2 0x1A97 DUP5 DUP4 PUSH2 0x4639 JUMP JUMPDEST SWAP1 POP DUP1 PUSH0 SUB PUSH2 0x1AB1 JUMPI POP PUSH0 SWAP12 SWAP11 POP POP POP POP POP POP POP POP POP POP POP JUMP JUMPDEST DUP5 PUSH0 PUSH2 0x1ABD DUP4 DUP4 PUSH2 0x460E JUMP JUMPDEST SWAP1 POP PUSH0 PUSH2 0x1ACB DUP10 PUSH1 0x3 PUSH2 0x460E JUMP JUMPDEST SWAP1 POP DUP1 DUP3 DUP15 PUSH2 0x100 ADD MLOAD PUSH2 0x1ADF SWAP2 SWAP1 PUSH2 0x45FB JUMP JUMPDEST GT ISZERO PUSH2 0x1B18 JUMPI DUP1 DUP14 PUSH2 0x100 ADD MLOAD LT PUSH2 0x1B05 JUMPI POP PUSH0 SWAP15 SWAP14 POP POP POP POP POP POP POP POP POP POP POP POP POP POP JUMP JUMPDEST PUSH2 0x100 DUP14 ADD MLOAD PUSH2 0x1B15 SWAP1 DUP3 PUSH2 0x464C JUMP JUMPDEST SWAP2 POP JUMPDEST POP SWAP14 SWAP13 POP POP POP POP POP POP POP POP POP POP POP POP POP JUMP JUMPDEST PUSH2 0x1B32 PUSH2 0x1DA1 JUMP JUMPDEST PUSH1 0x1 PUSH1 0x1 PUSH1 0xA0 SHL SUB DUP2 AND PUSH2 0x1B60 JUMPI PUSH1 0x40 MLOAD PUSH4 0x1E4FBDF7 PUSH1 0xE0 SHL DUP2 MSTORE PUSH0 PUSH1 0x4 DUP3 ADD MSTORE PUSH1 0x24 ADD JUMPDEST PUSH1 0x40 MLOAD DUP1 SWAP2 SUB SWAP1 REVERT JUMPDEST PUSH2 0x1B69 DUP2 PUSH2 0x1DE1 JUMP JUMPDEST POP JUMP JUMPDEST PUSH2 0x1B74 PUSH2 0x1DA1 JUMP JUMPDEST PUSH1 0xC DUP1 SLOAD PUSH1 0x1 PUSH1 0x1 PUSH1 0xA0 SHL SUB NOT AND PUSH1 0x1 PUSH1 0x1 PUSH1 0xA0 SHL SUB SWAP3 SWAP1 SWAP3 AND SWAP2 SWAP1 SWAP2 OR SWAP1 SSTORE JUMP JUMPDEST PUSH1 0x1 PUSH1 0x1 PUSH1 0xA0 SHL SUB DUP4 AND PUSH2 0x1BC0 JUMPI DUP1 PUSH1 0x2 PUSH0 DUP3 DUP3 SLOAD PUSH2 0x1BB5 SWAP2 SWAP1 PUSH2 0x45FB JUMP JUMPDEST SWAP1 SWAP2 SSTORE POP PUSH2 0x1C30 SWAP1 POP JUMP JUMPDEST PUSH1 0x1 PUSH1 0x1 PUSH1 0xA0 SHL SUB DUP4 AND PUSH0 SWAP1 DUP2 MSTORE PUSH1 0x20 DUP2 SWAP1 MSTORE PUSH1 0x40 SWAP1 KECCAK256 SLOAD DUP2 DUP2 LT ISZERO PUSH2 0x1C12 JUMPI PUSH1 0x40 MLOAD PUSH4 0x391434E3 PUSH1 0xE2 SHL DUP2 MSTORE PUSH1 0x1 PUSH1 0x1 PUSH1 0xA0 SHL SUB DUP6 AND PUSH1 0x4 DUP3 ADD MSTORE PUSH1 0x24 DUP2 ADD DUP3 SWAP1 MSTORE PUSH1 0x44 DUP2 ADD DUP4 SWAP1 MSTORE PUSH1 0x64 ADD PUSH2 0x1B57 JUMP JUMPDEST PUSH1 0x1 PUSH1 0x1 PUSH1 0xA0 SHL SUB DUP5 AND PUSH0 SWAP1 DUP2 MSTORE PUSH1 0x20 DUP2 SWAP1 MSTORE PUSH1 0x40 SWAP1 KECCAK256 SWAP1 DUP3 SWAP1 SUB SWAP1 SSTORE JUMPDEST PUSH1 0x1 PUSH1 0x1 PUSH1 0xA0 SHL SUB DUP3 AND PUSH2 0x1C4C JUMPI PUSH1 0x2 DUP1 SLOAD DUP3 SWAP1 SUB SWAP1 SSTORE PUSH2 0x1C6A JUMP JUMPDEST PUSH1 0x1 PUSH1 0x1 PUSH1 0xA0 SHL SUB DUP3 AND PUSH0 SWAP1 DUP2 MSTORE PUSH1 0x20 DUP2 SWAP1 MSTORE PUSH1 0x40 SWAP1 KECCAK256 DUP1 SLOAD DUP3 ADD SWAP1 SSTORE JUMPDEST DUP2 PUSH1 0x1 PUSH1 0x1 PUSH1 0xA0 SHL SUB AND DUP4 PUSH1 0x1 PUSH1 0x1 PUSH1 0xA0 SHL SUB AND PUSH32 0xDDF252AD1BE2C89B69C2B068FC378DAA952BA7F163C4A11628F55A4DF523B3EF DUP4 PUSH1 0x40 MLOAD PUSH2 0x1CAF SWAP2 DUP2 MSTORE PUSH1 0x20 ADD SWAP1 JUMP JUMPDEST PUSH1 0x40 MLOAD DUP1 SWAP2 SUB SWAP1 LOG3 POP POP POP JUMP JUMPDEST PUSH2 0x1CC9 DUP4 DUP4 DUP4 PUSH1 0x1 PUSH2 0x1E32 JUMP JUMPDEST POP POP POP JUMP JUMPDEST PUSH1 0x1 PUSH1 0x1 PUSH1 0xA0 SHL SUB DUP4 DUP2 AND PUSH0 SWAP1 DUP2 MSTORE PUSH1 0x1 PUSH1 0x20 SWAP1 DUP2 MSTORE PUSH1 0x40 DUP1 DUP4 KECCAK256 SWAP4 DUP7 AND DUP4 MSTORE SWAP3 SWAP1 MSTORE KECCAK256 SLOAD PUSH0 NOT DUP2 LT ISZERO PUSH2 0x1615 JUMPI DUP2 DUP2 LT ISZERO PUSH2 0x1D36 JUMPI PUSH1 0x40 MLOAD PUSH4 0x7DC7A0D9 PUSH1 0xE1 SHL DUP2 MSTORE PUSH1 0x1 PUSH1 0x1 PUSH1 0xA0 SHL SUB DUP5 AND PUSH1 0x4 DUP3 ADD MSTORE PUSH1 0x24 DUP2 ADD DUP3 SWAP1 MSTORE PUSH1 0x44 DUP2 ADD DUP4 SWAP1 MSTORE PUSH1 0x64 ADD PUSH2 0x1B57 JUMP JUMPDEST PUSH2 0x1615 DUP5 DUP5 DUP5 DUP5 SUB PUSH0 PUSH2 0x1E32 JUMP JUMPDEST PUSH1 0x1 PUSH1 0x1 PUSH1 0xA0 SHL SUB DUP4 AND PUSH2 0x1D6D JUMPI PUSH1 0x40 MLOAD PUSH4 0x4B637E8F PUSH1 0xE1 SHL DUP2 MSTORE PUSH0 PUSH1 0x4 DUP3 ADD MSTORE PUSH1 0x24 ADD PUSH2 0x1B57 JUMP JUMPDEST PUSH1 0x1 PUSH1 0x1 PUSH1 0xA0 SHL SUB DUP3 AND PUSH2 0x1D96 JUMPI PUSH1 0x40 MLOAD PUSH4 0xEC442F05 PUSH1 0xE0 SHL DUP2 MSTORE PUSH0 PUSH1 0x4 DUP3 ADD MSTORE PUSH1 0x24 ADD PUSH2 0x1B57 JUMP JUMPDEST PUSH2 0x1CC9 DUP4 DUP4 DUP4 PUSH2 0x1F04 JUMP JUMPDEST PUSH1 0x5 SLOAD PUSH1 0x1 PUSH1 0x1 PUSH1 0xA0 SHL SUB AND CALLER EQ PUSH2 0x1569 JUMPI PUSH1 0x40 MLOAD PUSH4 0x118CDAA7 PUSH1 0xE0 SHL DUP2 MSTORE CALLER PUSH1 0x4 DUP3 ADD MSTORE PUSH1 0x24 ADD PUSH2 0x1B57 JUMP JUMPDEST PUSH1 0x60 PUSH0 PUSH2 0x1DDA DUP4 PUSH2 0x2B43 JUMP JUMPDEST SWAP4 SWAP3 POP POP POP JUMP JUMPDEST PUSH1 0x5 DUP1 SLOAD PUSH1 0x1 PUSH1 0x1 PUSH1 0xA0 SHL SUB DUP4 DUP2 AND PUSH1 0x1 PUSH1 0x1 PUSH1 0xA0 SHL SUB NOT DUP4 AND DUP2 OR SWAP1 SWAP4 SSTORE PUSH1 0x40 MLOAD SWAP2 AND SWAP2 SWAP1 DUP3 SWAP1 PUSH32 0x8BE0079C531659141344CD1FD0A4F28419497F9722A3DAAFE3B4186F6B6457E0 SWAP1 PUSH0 SWAP1 LOG3 POP POP JUMP JUMPDEST PUSH1 0x1 PUSH1 0x1 PUSH1 0xA0 SHL SUB DUP5 AND PUSH2 0x1E5B JUMPI PUSH1 0x40 MLOAD PUSH4 0xE602DF05 PUSH1 0xE0 SHL DUP2 MSTORE PUSH0 PUSH1 0x4 DUP3 ADD MSTORE PUSH1 0x24 ADD PUSH2 0x1B57 JUMP JUMPDEST PUSH1 0x1 PUSH1 0x1 PUSH1 0xA0 SHL SUB DUP4 AND PUSH2 0x1E84 JUMPI PUSH1 0x40 MLOAD PUSH4 0x4A1406B1 PUSH1 0xE1 SHL DUP2 MSTORE PUSH0 PUSH1 0x4 DUP3 ADD MSTORE PUSH1 0x24 ADD PUSH2 0x1B57 JUMP JUMPDEST PUSH1 0x1 PUSH1 0x1 PUSH1 0xA0 SHL SUB DUP1 DUP6 AND PUSH0 SWAP1 DUP2 MSTORE PUSH1 0x1 PUSH1 0x20 SWAP1 DUP2 MSTORE PUSH1 0x40 DUP1 DUP4 KECCAK256 SWAP4 DUP8 AND DUP4 MSTORE SWAP3 SWAP1 MSTORE KECCAK256 DUP3 SWAP1 SSTORE DUP1 ISZERO PUSH2 0x1615 JUMPI DUP3 PUSH1 0x1 PUSH1 0x1 PUSH1 0xA0 SHL SUB AND DUP5 PUSH1 0x1 PUSH1 0x1 PUSH1 0xA0 SHL SUB AND PUSH32 0x8C5BE1E5EBEC7D5BD14F71427D1E84F3DD0314C0F7B2291E5B200AC8C7C3B925 DUP5 PUSH1 0x40 MLOAD PUSH2 0x1EF6 SWAP2 DUP2 MSTORE PUSH1 0x20 ADD SWAP1 JUMP JUMPDEST PUSH1 0x40 MLOAD DUP1 SWAP2 SUB SWAP1 LOG3 POP POP POP POP JUMP JUMPDEST PUSH8 0x1BC16D674EC80000 DUP2 EQ DUP1 ISZERO PUSH2 0x1F40 JUMPI POP PUSH1 0x1 PUSH1 0x1 PUSH1 0xA0 SHL SUB DUP1 DUP4 AND PUSH0 SWAP1 DUP2 MSTORE PUSH1 0x7 PUSH1 0x20 SWAP1 DUP2 MSTORE PUSH1 0x40 DUP1 DUP4 KECCAK256 SWAP4 DUP8 AND DUP4 MSTORE SWAP3 SWAP1 MSTORE KECCAK256 SLOAD PUSH1 0xFF AND ISZERO JUMPDEST DUP1 ISZERO PUSH2 0x1F51 JUMPI POP PUSH2 0x1F51 DUP4 DUP4 PUSH2 0x179B JUMP JUMPDEST ISZERO PUSH2 0x1F86 JUMPI PUSH1 0x1 PUSH1 0x1 PUSH1 0xA0 SHL SUB DUP1 DUP5 AND PUSH0 SWAP1 DUP2 MSTORE PUSH1 0x7 PUSH1 0x20 SWAP1 DUP2 MSTORE PUSH1 0x40 DUP1 DUP4 KECCAK256 SWAP4 DUP7 AND DUP4 MSTORE SWAP3 SWAP1 MSTORE KECCAK256 DUP1 SLOAD PUSH1 0xFF NOT AND PUSH1 0x1 OR SWAP1 SSTORE JUMPDEST PUSH8 0xDE0B6B3A7640000 DUP2 EQ DUP1 ISZERO PUSH2 0x1FC1 JUMPI POP PUSH1 0x1 PUSH1 0x1 PUSH1 0xA0 SHL SUB DUP1 DUP4 AND PUSH0 SWAP1 DUP2 MSTORE PUSH1 0x7 PUSH1 0x20 SWAP1 DUP2 MSTORE PUSH1 0x40 DUP1 DUP4 KECCAK256 SWAP4 DUP8 AND DUP4 MSTORE SWAP3 SWAP1 MSTORE KECCAK256 SLOAD PUSH1 0xFF AND JUMPDEST DUP1 ISZERO PUSH2 0x1FE4 JUMPI POP PUSH1 0x1 PUSH1 0x1 PUSH1 0xA0 SHL SUB DUP4 DUP2 AND PUSH0 SWAP1 DUP2 MSTORE PUSH1 0xA PUSH1 0x20 MSTORE PUSH1 0x40 SWAP1 KECCAK256 SLOAD AND ISZERO JUMPDEST ISZERO PUSH2 0x206C JUMPI PUSH1 0x1 PUSH1 0x1 PUSH1 0xA0 SHL SUB DUP4 DUP2 AND PUSH0 SWAP1 DUP2 MSTORE PUSH1 0xA PUSH1 0x20 SWAP1 DUP2 MSTORE PUSH1 0x40 DUP1 DUP4 KECCAK256 DUP1 SLOAD PUSH1 0x1 PUSH1 0x1 PUSH1 0xA0 SHL SUB NOT AND SWAP5 DUP8 AND SWAP5 DUP6 OR SWAP1 SSTORE SWAP3 DUP3 MSTORE PUSH1 0x8 SWAP1 MSTORE KECCAK256 PUSH2 0x202A SWAP1 DUP5 PUSH2 0x2B9C JUMP JUMPDEST POP DUP2 PUSH1 0x1 PUSH1 0x1 PUSH1 0xA0 SHL SUB AND DUP4 PUSH1 0x1 PUSH1 0x1 PUSH1 0xA0 SHL SUB AND PUSH32 0x8D63F2E3D39EB6CF9C80D49BC203133F6F215CE2A1A3D27A68F0167F6C045D48 PUSH1 0x40 MLOAD PUSH1 0x40 MLOAD DUP1 SWAP2 SUB SWAP1 LOG3 JUMPDEST PUSH1 0x1 PUSH1 0x1 PUSH1 0xA0 SHL SUB DUP3 AND ADDRESS EQ DUP1 ISZERO PUSH2 0x2083 JUMPI POP CALLER ORIGIN EQ JUMPDEST ISZERO PUSH2 0x2111 JUMPI PUSH1 0x1 PUSH1 0x1 PUSH1 0xA0 SHL SUB DUP4 AND PUSH0 SWAP1 DUP2 MSTORE PUSH1 0x1D PUSH1 0x20 MSTORE PUSH1 0x40 SWAP1 KECCAK256 SLOAD PUSH1 0xFF AND ISZERO DUP1 ISZERO PUSH2 0x20B9 JUMPI POP PUSH9 0x56BC75E2D63100000 DUP2 LT ISZERO JUMPDEST DUP1 ISZERO PUSH2 0x20CF JUMPI POP PUSH10 0x152D02C7E14AF6800000 DUP2 GT ISZERO JUMPDEST DUP1 ISZERO PUSH2 0x20DE JUMPI POP PUSH1 0x1E SLOAD PUSH1 0xFF AND ISZERO JUMPDEST DUP1 ISZERO PUSH2 0x2102 JUMPI POP ADDRESS PUSH0 SWAP1 DUP2 MSTORE PUSH1 0x20 DUP2 SWAP1 MSTORE PUSH1 0x40 SWAP1 KECCAK256 SLOAD PUSH10 0x21E19E0C9BAB2400000 GT ISZERO JUMPDEST ISZERO PUSH2 0x2111 JUMPI PUSH2 0x1CC9 DUP4 DUP3 PUSH2 0x2BB0 JUMP JUMPDEST PUSH1 0x1 PUSH1 0x1 PUSH1 0xA0 SHL SUB DUP1 DUP5 AND PUSH0 SWAP1 DUP2 MSTORE PUSH1 0xA PUSH1 0x20 SWAP1 DUP2 MSTORE PUSH1 0x40 SWAP2 DUP3 SWAP1 KECCAK256 DUP3 MLOAD PUSH2 0x160 DUP2 ADD DUP5 MSTORE DUP2 SLOAD SWAP1 SWAP5 AND DUP5 MSTORE PUSH1 0x1 DUP2 ADD SLOAD SWAP2 DUP5 ADD SWAP2 SWAP1 SWAP2 MSTORE PUSH1 0x2 DUP2 ADD SLOAD SWAP2 DUP4 ADD SWAP2 SWAP1 SWAP2 MSTORE PUSH1 0x3 DUP2 ADD SLOAD PUSH1 0x60 DUP4 ADD MSTORE PUSH1 0x4 DUP2 ADD SLOAD PUSH1 0x80 DUP4 ADD MSTORE PUSH1 0x5 DUP2 ADD SLOAD PUSH1 0xA0 DUP4 ADD MSTORE PUSH1 0x6 DUP2 ADD SLOAD PUSH1 0xC0 DUP4 ADD MSTORE PUSH1 0x7 DUP2 ADD SLOAD PUSH1 0xE0 DUP4 ADD MSTORE PUSH1 0x8 DUP2 ADD SLOAD PUSH2 0x100 DUP1 DUP5 ADD SWAP2 SWAP1 SWAP2 MSTORE PUSH1 0x9 SWAP1 SWAP2 ADD SLOAD PUSH1 0xFF DUP1 DUP3 AND ISZERO ISZERO PUSH2 0x120 DUP6 ADD MSTORE SWAP2 SWAP1 DIV AND ISZERO ISZERO PUSH2 0x140 DUP3 ADD MSTORE CALLER ORIGIN EQ DUP1 ISZERO PUSH2 0x21C6 JUMPI POP DUP1 PUSH2 0x140 ADD MLOAD JUMPDEST DUP1 ISZERO PUSH2 0x21D5 JUMPI POP PUSH0 DUP2 PUSH1 0x40 ADD MLOAD GT JUMPDEST DUP1 ISZERO PUSH2 0x21E9 JUMPI POP PUSH1 0x1 PUSH1 0x1 PUSH1 0xA0 SHL SUB DUP4 AND ADDRESS EQ JUMPDEST ISZERO PUSH2 0x248E JUMPI PUSH8 0xDE0B6B3A7640000 DUP3 SUB PUSH2 0x22EE JUMPI DUP1 PUSH2 0x120 ADD MLOAD PUSH2 0x2262 JUMPI PUSH1 0x1 PUSH1 0x1 PUSH1 0xA0 SHL SUB DUP5 AND PUSH0 SWAP1 DUP2 MSTORE PUSH1 0xA PUSH1 0x20 MSTORE PUSH1 0x40 SWAP1 KECCAK256 PUSH1 0x9 ADD DUP1 SLOAD PUSH1 0xFF NOT AND PUSH1 0x1 OR SWAP1 SSTORE PUSH2 0x2237 TIMESTAMP PUSH1 0x3C PUSH2 0x45FB JUMP JUMPDEST PUSH1 0x1 PUSH1 0x1 PUSH1 0xA0 SHL SUB DUP6 AND PUSH0 SWAP1 DUP2 MSTORE PUSH1 0xA PUSH1 0x20 MSTORE PUSH1 0x40 SWAP1 KECCAK256 PUSH1 0x3 DUP2 ADD SWAP2 SWAP1 SWAP2 SSTORE TIMESTAMP PUSH1 0x4 SWAP1 SWAP2 ADD SSTORE PUSH2 0x22EE JUMP JUMPDEST DUP1 PUSH2 0x120 ADD MLOAD DUP1 ISZERO PUSH2 0x2278 JUMPI POP DUP1 PUSH1 0x60 ADD MLOAD TIMESTAMP LT ISZERO JUMPDEST ISZERO PUSH2 0x22D5 JUMPI PUSH2 0x2286 DUP5 PUSH2 0x2DE3 JUMP JUMPDEST PUSH2 0x2291 TIMESTAMP PUSH1 0x3C PUSH2 0x45FB JUMP JUMPDEST PUSH1 0x1 PUSH1 0x1 PUSH1 0xA0 SHL SUB DUP6 AND PUSH0 SWAP1 DUP2 MSTORE PUSH1 0xA PUSH1 0x20 MSTORE PUSH1 0x40 SWAP1 KECCAK256 PUSH1 0x3 DUP2 ADD SWAP2 SWAP1 SWAP2 SSTORE TIMESTAMP PUSH1 0x4 SWAP1 SWAP2 ADD SSTORE PUSH2 0x22C2 DUP5 DUP5 DUP5 PUSH2 0x1B96 JUMP JUMPDEST PUSH2 0x1615 ADDRESS DUP6 PUSH8 0xDE0B6B3A7640000 PUSH2 0x1B96 JUMP JUMPDEST PUSH1 0x40 MLOAD PUSH4 0x2F352531 PUSH1 0xE0 SHL DUP2 MSTORE PUSH1 0x4 ADD PUSH1 0x40 MLOAD DUP1 SWAP2 SUB SWAP1 REVERT JUMPDEST PUSH8 0x8AC7230489E80000 DUP3 SUB PUSH2 0x2483 JUMPI TIMESTAMP PUSH1 0x15 SLOAD LT PUSH2 0x231E JUMPI PUSH1 0x40 MLOAD PUSH3 0x461BCD PUSH1 0xE5 SHL DUP2 MSTORE PUSH1 0x4 ADD PUSH2 0x1B57 SWAP1 PUSH2 0x4A1D JUMP JUMPDEST PUSH1 0x40 DUP2 ADD MLOAD DUP1 ISZERO PUSH2 0x23E9 JUMPI PUSH0 PUSH2 0x2332 PUSH2 0x156B JUMP JUMPDEST SWAP1 POP DUP1 ISZERO PUSH2 0x236D JUMPI PUSH0 PUSH1 0x64 DUP3 DUP6 PUSH1 0x40 ADD MLOAD PUSH2 0x234D SWAP2 SWAP1 PUSH2 0x460E JUMP JUMPDEST PUSH2 0x2357 SWAP2 SWAP1 PUSH2 0x4639 JUMP JUMPDEST SWAP1 POP DUP1 DUP5 PUSH1 0x40 ADD MLOAD PUSH2 0x2369 SWAP2 SWAP1 PUSH2 0x464C JUMP JUMPDEST SWAP3 POP POP JUMPDEST DUP2 ISZERO PUSH2 0x23E7 JUMPI PUSH1 0x6 SLOAD PUSH1 0x40 MLOAD PUSH4 0xA9059CBB PUSH1 0xE0 SHL DUP2 MSTORE PUSH1 0x1 PUSH1 0x1 PUSH1 0xA0 SHL SUB SWAP1 SWAP2 AND SWAP1 PUSH4 0xA9059CBB SWAP1 PUSH2 0x23A5 SWAP1 DUP10 SWAP1 DUP7 SWAP1 PUSH1 0x4 ADD PUSH2 0x49CB JUMP JUMPDEST PUSH1 0x20 PUSH1 0x40 MLOAD DUP1 DUP4 SUB DUP2 PUSH0 DUP8 GAS CALL ISZERO DUP1 ISZERO PUSH2 0x23C1 JUMPI RETURNDATASIZE PUSH0 PUSH0 RETURNDATACOPY RETURNDATASIZE PUSH0 REVERT JUMPDEST POP POP POP POP PUSH1 0x40 MLOAD RETURNDATASIZE PUSH1 0x1F NOT PUSH1 0x1F DUP3 ADD AND DUP3 ADD DUP1 PUSH1 0x40 MSTORE POP DUP2 ADD SWAP1 PUSH2 0x23E5 SWAP2 SWAP1 PUSH2 0x49E4 JUMP JUMPDEST POP JUMPDEST POP JUMPDEST PUSH1 0x1 PUSH1 0x1 PUSH1 0xA0 SHL SUB DUP1 DUP7 AND PUSH0 SWAP1 DUP2 MSTORE PUSH1 0xA PUSH1 0x20 MSTORE PUSH1 0x40 DUP1 DUP3 KECCAK256 PUSH1 0x9 DUP2 ADD DUP1 SLOAD PUSH1 0x2 DUP4 ADD DUP6 SWAP1 SSTORE PUSH1 0x1 DUP4 ADD DUP6 SWAP1 SSTORE PUSH2 0xFFFF NOT AND SWAP1 SSTORE PUSH1 0x4 DUP2 ADD DUP4 SWAP1 SSTORE PUSH1 0x8 ADD DUP3 SWAP1 SSTORE DUP5 MLOAD SWAP1 SWAP3 AND DUP2 MSTORE KECCAK256 PUSH1 0x7 ADD SLOAD ISZERO PUSH2 0x246D JUMPI DUP2 MLOAD PUSH1 0x1 PUSH1 0x1 PUSH1 0xA0 SHL SUB AND PUSH0 SWAP1 DUP2 MSTORE PUSH1 0xA PUSH1 0x20 MSTORE PUSH1 0x40 DUP2 KECCAK256 PUSH1 0x7 ADD DUP1 SLOAD PUSH1 0x1 SWAP3 SWAP1 PUSH2 0x2467 SWAP1 DUP5 SWAP1 PUSH2 0x464C JUMP JUMPDEST SWAP1 SWAP2 SSTORE POP POP JUMPDEST PUSH2 0x2478 DUP6 DUP6 DUP6 PUSH2 0x1B96 JUMP JUMPDEST PUSH2 0x14CD ADDRESS DUP7 DUP6 PUSH2 0x1B96 JUMP JUMPDEST PUSH2 0x1615 DUP5 DUP5 DUP5 PUSH2 0x1B96 JUMP JUMPDEST PUSH1 0x1 PUSH1 0x1 PUSH1 0xA0 SHL SUB DUP5 AND ADDRESS EQ DUP1 PUSH2 0x24AD JUMPI POP PUSH1 0x1 PUSH1 0x1 PUSH1 0xA0 SHL SUB DUP4 AND ADDRESS EQ JUMPDEST DUP1 PUSH2 0x24C5 JUMPI POP PUSH1 0x10 SLOAD PUSH1 0x1 PUSH1 0x1 PUSH1 0xA0 SHL SUB DUP6 DUP2 AND SWAP2 AND EQ JUMPDEST DUP1 PUSH2 0x24DD JUMPI POP PUSH1 0x10 SLOAD PUSH1 0x1 PUSH1 0x1 PUSH1 0xA0 SHL SUB DUP5 DUP2 AND SWAP2 AND EQ JUMPDEST ISZERO PUSH2 0x24ED JUMPI PUSH2 0x1615 DUP5 DUP5 DUP5 PUSH2 0x1B96 JUMP JUMPDEST PUSH1 0x6 SLOAD PUSH1 0x1 PUSH1 0x1 PUSH1 0xA0 SHL SUB SWAP1 DUP2 AND SWAP1 DUP6 AND SUB PUSH2 0x27E7 JUMPI TIMESTAMP PUSH1 0x15 SLOAD LT PUSH2 0x2524 JUMPI PUSH1 0x40 MLOAD PUSH3 0x461BCD PUSH1 0xE5 SHL DUP2 MSTORE PUSH1 0x4 ADD PUSH2 0x1B57 SWAP1 PUSH2 0x4A1D JUMP JUMPDEST ORIGIN PUSH0 SWAP1 DUP2 MSTORE PUSH1 0x9 PUSH1 0x20 MSTORE PUSH1 0x40 DUP2 KECCAK256 TIMESTAMP SWAP1 SSTORE PUSH2 0x253D PUSH2 0x310E JUMP JUMPDEST GT ISZERO PUSH2 0x2613 JUMPI PUSH0 PUSH0 PUSH2 0x254D PUSH2 0x1139 JUMP JUMPDEST SWAP1 POP PUSH12 0x33B2E3C9FD0803CE8000000 DUP2 LT PUSH2 0x2580 JUMPI PUSH1 0xA PUSH2 0x256F DUP6 PUSH1 0x9 PUSH2 0x460E JUMP JUMPDEST PUSH2 0x2579 SWAP2 SWAP1 PUSH2 0x4639 JUMP JUMPDEST SWAP2 POP PUSH2 0x25E2 JUMP JUMPDEST PUSH12 0x19D971E4FE8401E74000000 DUP2 LT PUSH2 0x25A0 JUMPI PUSH1 0xA PUSH2 0x256F DUP6 PUSH1 0x6 PUSH2 0x460E JUMP JUMPDEST PUSH11 0x52B7D2DCC80CD2E4000000 DUP2 LT PUSH2 0x25BF JUMPI PUSH1 0xA PUSH2 0x256F DUP6 PUSH1 0x4 PUSH2 0x460E JUMP JUMPDEST PUSH11 0x295BE96E64066972000000 DUP2 LT PUSH2 0x25DE JUMPI PUSH1 0xA PUSH2 0x256F DUP6 PUSH1 0x2 PUSH2 0x460E JUMP JUMPDEST DUP4 SWAP2 POP JUMPDEST PUSH2 0x25EF DUP7 PUSH2 0xDEAD DUP5 PUSH2 0x1B96 JUMP JUMPDEST DUP2 DUP5 GT ISZERO PUSH2 0x260B JUMPI PUSH2 0x260B DUP7 DUP7 PUSH2 0x2606 DUP6 DUP9 PUSH2 0x464C JUMP JUMPDEST PUSH2 0x1B96 JUMP JUMPDEST POP POP POP POP POP POP JUMP JUMPDEST PUSH1 0x64 PUSH2 0x261D PUSH2 0x1628 JUMP JUMPDEST PUSH2 0x2628 SWAP1 PUSH1 0x5 PUSH2 0x460E JUMP JUMPDEST PUSH2 0x2632 SWAP2 SWAP1 PUSH2 0x4639 JUMP JUMPDEST DUP3 LT PUSH2 0x266C JUMPI PUSH1 0x40 MLOAD PUSH3 0x461BCD PUSH1 0xE5 SHL DUP2 MSTORE PUSH1 0x20 PUSH1 0x4 DUP3 ADD MSTORE PUSH1 0x9 PUSH1 0x24 DUP3 ADD MSTORE PUSH9 0x36B0BC103A37B5B2B7 PUSH1 0xB9 SHL PUSH1 0x44 DUP3 ADD MSTORE PUSH1 0x64 ADD PUSH2 0x1B57 JUMP JUMPDEST PUSH2 0x2674 PUSH2 0x32A3 JUMP JUMPDEST PUSH1 0x1C SLOAD PUSH0 SWAP1 PUSH1 0xFF AND PUSH2 0x2688 JUMPI PUSH2 0x12C PUSH2 0x268C JUMP JUMPDEST PUSH2 0xB54 JUMPDEST PUSH2 0xFFFF AND SWAP1 POP PUSH0 PUSH2 0x2710 PUSH2 0x26A0 DUP4 DUP7 PUSH2 0x460E JUMP JUMPDEST PUSH2 0x26AA SWAP2 SWAP1 PUSH2 0x4639 JUMP JUMPDEST SWAP1 POP PUSH0 PUSH2 0x2710 PUSH2 0x26BC DUP7 PUSH2 0x12C PUSH2 0x460E JUMP JUMPDEST PUSH2 0x26C6 SWAP2 SWAP1 PUSH2 0x4639 JUMP JUMPDEST PUSH1 0x1C SLOAD SWAP1 SWAP2 POP PUSH0 SWAP1 PUSH1 0xFF AND DUP1 ISZERO PUSH2 0x26DC JUMPI POP DUP2 DUP4 GT JUMPDEST ISZERO PUSH2 0x272C JUMPI PUSH2 0x26EB DUP3 DUP5 PUSH2 0x464C JUMP JUMPDEST SWAP1 POP PUSH0 PUSH2 0x26F9 PUSH1 0x2 DUP4 PUSH2 0x4639 JUMP JUMPDEST SWAP1 POP PUSH2 0x2706 DUP10 ADDRESS DUP4 PUSH2 0x1B96 JUMP JUMPDEST PUSH2 0x2710 DUP2 DUP4 PUSH2 0x464C JUMP JUMPDEST PUSH1 0x12 PUSH0 DUP3 DUP3 SLOAD PUSH2 0x2720 SWAP2 SWAP1 PUSH2 0x45FB JUMP JUMPDEST SWAP3 POP POP DUP2 SWAP1 SSTORE POP DUP3 SWAP4 POP POP JUMPDEST PUSH0 PUSH1 0xA PUSH2 0x273A DUP6 PUSH1 0x7 PUSH2 0x460E JUMP JUMPDEST PUSH2 0x2744 SWAP2 SWAP1 PUSH2 0x4639 JUMP JUMPDEST SWAP1 POP DUP1 PUSH1 0x12 PUSH0 DUP3 DUP3 SLOAD PUSH2 0x2757 SWAP2 SWAP1 PUSH2 0x45FB JUMP JUMPDEST SWAP1 SWAP2 SSTORE POP PUSH0 SWAP1 POP PUSH1 0xA PUSH2 0x276B DUP7 PUSH1 0x1 PUSH2 0x460E JUMP JUMPDEST PUSH2 0x2775 SWAP2 SWAP1 PUSH2 0x4639 JUMP JUMPDEST SWAP1 POP PUSH2 0x2784 DUP11 PUSH2 0xDEAD DUP4 PUSH2 0x1B96 JUMP JUMPDEST PUSH0 DUP2 PUSH2 0x2790 DUP5 DUP9 PUSH2 0x464C JUMP JUMPDEST PUSH2 0x279A SWAP2 SWAP1 PUSH2 0x464C JUMP JUMPDEST SWAP1 POP DUP1 PUSH1 0x13 PUSH0 DUP3 DUP3 SLOAD PUSH2 0x27AD SWAP2 SWAP1 PUSH2 0x45FB JUMP JUMPDEST SWAP1 SWAP2 SSTORE POP PUSH2 0x27BE SWAP1 POP DUP12 ADDRESS DUP6 PUSH2 0x1B96 JUMP JUMPDEST PUSH2 0x27C9 DUP12 ADDRESS DUP4 PUSH2 0x1B96 JUMP JUMPDEST PUSH2 0x27D3 DUP5 DUP8 PUSH2 0x45FB JUMP JUMPDEST PUSH2 0x27DD SWAP1 DUP11 PUSH2 0x464C JUMP JUMPDEST SWAP9 POP POP POP POP POP POP POP POP JUMPDEST PUSH1 0x6 SLOAD PUSH1 0x1 PUSH1 0x1 PUSH1 0xA0 SHL SUB SWAP1 DUP2 AND SWAP1 DUP5 AND SUB PUSH2 0x2B3B JUMPI PUSH1 0x19 SLOAD PUSH1 0x1 PUSH1 0xA8 SHL SWAP1 DIV PUSH1 0xFF AND ISZERO PUSH2 0x28E3 JUMPI PUSH1 0x6 SLOAD PUSH1 0x40 DUP1 MLOAD PUSH4 0x240BC6B PUSH1 0xE2 SHL DUP2 MSTORE SWAP1 MLOAD PUSH1 0x1 PUSH1 0x1 PUSH1 0xA0 SHL SUB SWAP1 SWAP3 AND SWAP2 PUSH0 SWAP2 DUP3 SWAP2 DUP5 SWAP2 PUSH4 0x902F1AC SWAP2 PUSH1 0x4 DUP1 DUP4 ADD SWAP3 PUSH1 0x60 SWAP3 SWAP2 SWAP1 DUP3 SWAP1 SUB ADD DUP2 DUP7 GAS STATICCALL ISZERO DUP1 ISZERO PUSH2 0x285C JUMPI RETURNDATASIZE PUSH0 PUSH0 RETURNDATACOPY RETURNDATASIZE PUSH0 REVERT JUMPDEST POP POP POP POP PUSH1 0x40 MLOAD RETURNDATASIZE PUSH1 0x1F NOT PUSH1 0x1F DUP3 ADD AND DUP3 ADD DUP1 PUSH1 0x40 MSTORE POP DUP2 ADD SWAP1 PUSH2 0x2880 SWAP2 SWAP1 PUSH2 0x4958 JUMP JUMPDEST POP SWAP2 POP SWAP2 POP DUP2 PUSH1 0x1 PUSH1 0x1 PUSH1 0x70 SHL SUB AND PUSH0 EQ DUP1 ISZERO PUSH2 0x28A4 JUMPI POP PUSH1 0x1 PUSH1 0x1 PUSH1 0x70 SHL SUB DUP2 AND ISZERO JUMPDEST DUP1 ISZERO PUSH2 0x28B9 JUMPI POP PUSH1 0x19 SLOAD PUSH1 0x1 PUSH1 0xA8 SHL SWAP1 DIV PUSH1 0xFF AND JUMPDEST ISZERO PUSH2 0x28DF JUMPI PUSH1 0x19 DUP1 SLOAD PUSH1 0xFF PUSH1 0xA8 SHL NOT AND SWAP1 SSTORE PUSH2 0x28D6 DUP8 DUP8 DUP8 PUSH2 0x1B96 JUMP JUMPDEST POP POP POP POP POP POP POP JUMP JUMPDEST POP POP POP JUMPDEST PUSH2 0x28EE PUSH1 0xA TIMESTAMP PUSH2 0x464C JUMP JUMPDEST ORIGIN PUSH0 SWAP1 DUP2 MSTORE PUSH1 0x9 PUSH1 0x20 MSTORE PUSH1 0x40 SWAP1 KECCAK256 SLOAD LT PUSH2 0x292F JUMPI PUSH1 0x40 MLOAD PUSH3 0x461BCD PUSH1 0xE5 SHL DUP2 MSTORE PUSH1 0x20 PUSH1 0x4 DUP3 ADD MSTORE PUSH1 0x2 PUSH1 0x24 DUP3 ADD MSTORE PUSH2 0x18D9 PUSH1 0xF2 SHL PUSH1 0x44 DUP3 ADD MSTORE PUSH1 0x64 ADD PUSH2 0x1B57 JUMP JUMPDEST PUSH0 PUSH2 0x2939 DUP4 PUSH2 0x3502 JUMP JUMPDEST GT PUSH2 0x2B3B JUMPI TIMESTAMP PUSH1 0x15 SLOAD LT PUSH2 0x295F JUMPI PUSH1 0x40 MLOAD PUSH3 0x461BCD PUSH1 0xE5 SHL DUP2 MSTORE PUSH1 0x4 ADD PUSH2 0x1B57 SWAP1 PUSH2 0x4A1D JUMP JUMPDEST PUSH1 0x64 PUSH2 0x2969 PUSH2 0x1628 JUMP JUMPDEST PUSH2 0x2974 SWAP1 PUSH1 0xA PUSH2 0x460E JUMP JUMPDEST PUSH2 0x297E SWAP2 SWAP1 PUSH2 0x4639 JUMP JUMPDEST DUP3 LT PUSH2 0x29B8 JUMPI PUSH1 0x40 MLOAD PUSH3 0x461BCD PUSH1 0xE5 SHL DUP2 MSTORE PUSH1 0x20 PUSH1 0x4 DUP3 ADD MSTORE PUSH1 0x9 PUSH1 0x24 DUP3 ADD MSTORE PUSH9 0x36B0BC103A37B5B2B7 PUSH1 0xB9 SHL PUSH1 0x44 DUP3 ADD MSTORE PUSH1 0x64 ADD PUSH2 0x1B57 JUMP JUMPDEST PUSH2 0x29C0 PUSH2 0x32A3 JUMP JUMPDEST PUSH1 0x1C SLOAD PUSH0 SWAP1 PUSH1 0xFF AND PUSH2 0x29D4 JUMPI PUSH2 0x12C PUSH2 0x29D8 JUMP JUMPDEST PUSH2 0xB54 JUMPDEST PUSH2 0xFFFF AND SWAP1 POP PUSH0 PUSH2 0x2710 PUSH2 0x29EC DUP4 DUP7 PUSH2 0x460E JUMP JUMPDEST PUSH2 0x29F6 SWAP2 SWAP1 PUSH2 0x4639 JUMP JUMPDEST SWAP1 POP PUSH0 PUSH2 0x2710 PUSH2 0x2A08 DUP7 PUSH2 0x12C PUSH2 0x460E JUMP JUMPDEST PUSH2 0x2A12 SWAP2 SWAP1 PUSH2 0x4639 JUMP JUMPDEST PUSH1 0x1C SLOAD SWAP1 SWAP2 POP PUSH0 SWAP1 PUSH1 0xFF AND DUP1 ISZERO PUSH2 0x2A28 JUMPI POP DUP2 DUP4 GT JUMPDEST ISZERO PUSH2 0x2A78 JUMPI PUSH2 0x2A37 DUP3 DUP5 PUSH2 0x464C JUMP JUMPDEST SWAP1 POP PUSH0 PUSH2 0x2A45 PUSH1 0x2 DUP4 PUSH2 0x4639 JUMP JUMPDEST SWAP1 POP PUSH2 0x2A52 DUP10 ADDRESS DUP4 PUSH2 0x1B96 JUMP JUMPDEST PUSH2 0x2A5C DUP2 DUP4 PUSH2 0x464C JUMP JUMPDEST PUSH1 0x12 PUSH0 DUP3 DUP3 SLOAD PUSH2 0x2A6C SWAP2 SWAP1 PUSH2 0x45FB JUMP JUMPDEST SWAP3 POP POP DUP2 SWAP1 SSTORE POP DUP3 SWAP4 POP POP JUMPDEST PUSH0 PUSH1 0xA PUSH2 0x2A86 DUP6 PUSH1 0x7 PUSH2 0x460E JUMP JUMPDEST PUSH2 0x2A90 SWAP2 SWAP1 PUSH2 0x4639 JUMP JUMPDEST SWAP1 POP DUP1 PUSH1 0x12 PUSH0 DUP3 DUP3 SLOAD PUSH2 0x2AA3 SWAP2 SWAP1 PUSH2 0x45FB JUMP JUMPDEST SWAP1 SWAP2 SSTORE POP PUSH0 SWAP1 POP PUSH1 0xA PUSH2 0x2AB7 DUP7 PUSH1 0x1 PUSH2 0x460E JUMP JUMPDEST PUSH2 0x2AC1 SWAP2 SWAP1 PUSH2 0x4639 JUMP JUMPDEST SWAP1 POP PUSH2 0x2AD0 DUP11 PUSH2 0xDEAD DUP4 PUSH2 0x1B96 JUMP JUMPDEST PUSH0 DUP2 PUSH2 0x2ADC DUP5 DUP9 PUSH2 0x464C JUMP JUMPDEST PUSH2 0x2AE6 SWAP2 SWAP1 PUSH2 0x464C JUMP JUMPDEST SWAP1 POP DUP1 PUSH1 0x13 PUSH0 DUP3 DUP3 SLOAD PUSH2 0x2AF9 SWAP2 SWAP1 PUSH2 0x45FB JUMP JUMPDEST SWAP1 SWAP2 SSTORE POP PUSH2 0x2B0A SWAP1 POP DUP12 ADDRESS DUP6 PUSH2 0x1B96 JUMP JUMPDEST PUSH2 0x2B15 DUP12 ADDRESS DUP4 PUSH2 0x1B96 JUMP JUMPDEST PUSH2 0x2B1F DUP5 DUP8 PUSH2 0x45FB JUMP JUMPDEST PUSH2 0x2B29 SWAP1 DUP11 PUSH2 0x464C JUMP JUMPDEST SWAP9 POP PUSH2 0x2B33 PUSH2 0x3717 JUMP JUMPDEST POP POP POP POP POP POP POP JUMPDEST PUSH2 0x2483 PUSH2 0x1354 JUMP JUMPDEST PUSH1 0x60 DUP2 PUSH0 ADD DUP1 SLOAD DUP1 PUSH1 0x20 MUL PUSH1 0x20 ADD PUSH1 0x40 MLOAD SWAP1 DUP2 ADD PUSH1 0x40 MSTORE DUP1 SWAP3 SWAP2 SWAP1 DUP2 DUP2 MSTORE PUSH1 0x20 ADD DUP3 DUP1 SLOAD DUP1 ISZERO PUSH2 0x2B90 JUMPI PUSH1 0x20 MUL DUP3 ADD SWAP2 SWAP1 PUSH0 MSTORE PUSH1 0x20 PUSH0 KECCAK256 SWAP1 JUMPDEST DUP2 SLOAD DUP2 MSTORE PUSH1 0x20 ADD SWAP1 PUSH1 0x1 ADD SWAP1 DUP1 DUP4 GT PUSH2 0x2B7C JUMPI JUMPDEST POP POP POP POP POP SWAP1 POP SWAP2 SWAP1 POP JUMP JUMPDEST PUSH0 PUSH2 0x1DDA DUP4 PUSH1 0x1 PUSH1 0x1 PUSH1 0xA0 SHL SUB DUP5 AND PUSH2 0x398E JUMP JUMPDEST PUSH0 PUSH2 0x2BBC PUSH1 0xA DUP4 PUSH2 0x4A40 JUMP JUMPDEST SWAP1 POP PUSH0 PUSH2 0x2BCA PUSH1 0x2 DUP4 PUSH2 0x4A40 JUMP JUMPDEST ISZERO SWAP1 POP PUSH0 PUSH2 0x2BD9 PUSH1 0x1 NUMBER PUSH2 0x464C JUMP JUMPDEST BLOCKHASH SWAP1 POP DUP1 PUSH2 0x2BF0 JUMPI PUSH2 0x2BEC PUSH1 0x2 NUMBER PUSH2 0x464C JUMP JUMPDEST BLOCKHASH SWAP1 POP JUMPDEST PUSH1 0xFF DUP2 AND PUSH0 PUSH2 0x2C00 PUSH1 0xA DUP4 PUSH2 0x4A53 JUMP JUMPDEST SWAP1 POP PUSH0 PUSH2 0x2C0E PUSH1 0x2 DUP4 PUSH2 0x4A53 JUMP JUMPDEST PUSH1 0xFF AND ISZERO SWAP1 POP DUP5 ISZERO ISZERO DUP2 EQ PUSH0 PUSH2 0x2C25 DUP10 PUSH1 0x2 PUSH2 0x460E JUMP JUMPDEST SWAP1 POP PUSH0 PUSH1 0x64 PUSH2 0x2C35 DUP12 PUSH1 0x5 PUSH2 0x460E JUMP JUMPDEST PUSH2 0x2C3F SWAP2 SWAP1 PUSH2 0x4639 JUMP JUMPDEST SWAP1 POP PUSH0 PUSH2 0x2C4C DUP3 DUP13 PUSH2 0x464C JUMP JUMPDEST PUSH1 0xF SLOAD SWAP1 SWAP2 POP PUSH1 0x1 PUSH1 0x1 PUSH1 0xA0 SHL SUB AND ISZERO DUP1 ISZERO SWAP1 PUSH2 0x2C68 JUMPI POP PUSH0 DUP3 GT JUMPDEST ISZERO PUSH2 0x2C85 JUMPI PUSH1 0xF SLOAD PUSH2 0x2C85 SWAP1 DUP14 SWAP1 PUSH1 0x1 PUSH1 0x1 PUSH1 0xA0 SHL SUB AND DUP5 PUSH2 0x1B96 JUMP JUMPDEST PUSH2 0x2C90 DUP13 ADDRESS DUP4 PUSH2 0x1B96 JUMP JUMPDEST DUP4 ISZERO PUSH2 0x2D8E JUMPI ADDRESS PUSH0 SWAP1 DUP2 MSTORE PUSH1 0x20 DUP2 SWAP1 MSTORE PUSH1 0x40 SWAP1 KECCAK256 SLOAD DUP4 DUP2 LT PUSH2 0x2D0C JUMPI PUSH2 0x2CB7 ADDRESS DUP15 DUP7 PUSH2 0x1B96 JUMP JUMPDEST PUSH1 0x1 ISZERO ISZERO DUP14 PUSH1 0x1 PUSH1 0x1 PUSH1 0xA0 SHL SUB AND PUSH32 0x4DAB1356CD0582FEB480A4C99E95BB70C5D60B9B3F27D2CD27F5CCC64E6583E0 DUP15 DUP8 PUSH1 0x40 MLOAD PUSH2 0x2CFF SWAP3 SWAP2 SWAP1 SWAP2 DUP3 MSTORE PUSH1 0x20 DUP3 ADD MSTORE PUSH1 0x40 ADD SWAP1 JUMP JUMPDEST PUSH1 0x40 MLOAD DUP1 SWAP2 SUB SWAP1 LOG3 PUSH2 0x2D88 JUMP JUMPDEST DUP1 ISZERO PUSH2 0x2D1D JUMPI PUSH2 0x2D1D ADDRESS DUP15 DUP4 PUSH2 0x1B96 JUMP JUMPDEST PUSH1 0x1 PUSH1 0x1E PUSH0 PUSH2 0x100 EXP DUP2 SLOAD DUP2 PUSH1 0xFF MUL NOT AND SWAP1 DUP4 ISZERO ISZERO MUL OR SWAP1 SSTORE POP PUSH1 0x1 ISZERO ISZERO DUP14 PUSH1 0x1 PUSH1 0x1 PUSH1 0xA0 SHL SUB AND PUSH32 0x4DAB1356CD0582FEB480A4C99E95BB70C5D60B9B3F27D2CD27F5CCC64E6583E0 DUP15 DUP5 PUSH1 0x40 MLOAD PUSH2 0x2D7F SWAP3 SWAP2 SWAP1 SWAP2 DUP3 MSTORE PUSH1 0x20 DUP3 ADD MSTORE PUSH1 0x40 ADD SWAP1 JUMP JUMPDEST PUSH1 0x40 MLOAD DUP1 SWAP2 SUB SWAP1 LOG3 JUMPDEST POP PUSH2 0x2DD5 JUMP JUMPDEST PUSH1 0x40 DUP1 MLOAD DUP13 DUP2 MSTORE PUSH0 PUSH1 0x20 DUP3 ADD DUP2 SWAP1 MSTORE SWAP2 PUSH1 0x1 PUSH1 0x1 PUSH1 0xA0 SHL SUB DUP16 AND SWAP2 PUSH32 0x4DAB1356CD0582FEB480A4C99E95BB70C5D60B9B3F27D2CD27F5CCC64E6583E0 SWAP2 ADD PUSH1 0x40 MLOAD DUP1 SWAP2 SUB SWAP1 LOG3 JUMPDEST POP POP POP POP POP POP POP POP POP POP POP POP JUMP JUMPDEST PUSH1 0x1 PUSH1 0x1 PUSH1 0xA0 SHL SUB DUP1 DUP3 AND PUSH0 SWAP1 DUP2 MSTORE PUSH1 0xA PUSH1 0x20 SWAP1 DUP2 MSTORE PUSH1 0x40 SWAP2 DUP3 SWAP1 KECCAK256 DUP3 MLOAD PUSH2 0x160 DUP2 ADD DUP5 MSTORE DUP2 SLOAD SWAP1 SWAP5 AND DUP5 MSTORE PUSH1 0x1 DUP2 ADD SLOAD SWAP2 DUP5 ADD SWAP2 SWAP1 SWAP2 MSTORE PUSH1 0x2 DUP2 ADD SLOAD SWAP2 DUP4 ADD SWAP2 SWAP1 SWAP2 MSTORE PUSH1 0x3 DUP2 ADD SLOAD PUSH1 0x60 DUP4 ADD MSTORE PUSH1 0x4 DUP2 ADD SLOAD PUSH1 0x80 DUP4 ADD MSTORE PUSH1 0x5 DUP2 ADD SLOAD PUSH1 0xA0 DUP4 ADD MSTORE PUSH1 0x6 DUP2 ADD SLOAD PUSH1 0xC0 DUP4 ADD MSTORE PUSH1 0x7 DUP2 ADD SLOAD PUSH1 0xE0 DUP4 ADD MSTORE PUSH1 0x8 DUP2 ADD SLOAD PUSH2 0x100 DUP1 DUP5 ADD SWAP2 SWAP1 SWAP2 MSTORE PUSH1 0x9 SWAP1 SWAP2 ADD SLOAD PUSH1 0xFF DUP1 DUP3 AND ISZERO ISZERO PUSH2 0x120 DUP6 ADD MSTORE SWAP2 SWAP1 DIV AND ISZERO DUP1 ISZERO PUSH2 0x140 DUP4 ADD DUP2 SWAP1 MSTORE SWAP1 PUSH2 0x2E97 JUMPI POP DUP1 PUSH2 0x120 ADD MLOAD JUMPDEST PUSH2 0x2EE3 JUMPI PUSH1 0x40 MLOAD PUSH3 0x461BCD PUSH1 0xE5 SHL DUP2 MSTORE PUSH1 0x20 PUSH1 0x4 DUP3 ADD MSTORE PUSH1 0x1B PUSH1 0x24 DUP3 ADD MSTORE PUSH32 0x53746174696320726577617264206E6F7420617661696C61626C650000000000 PUSH1 0x44 DUP3 ADD MSTORE PUSH1 0x64 ADD PUSH2 0x1B57 JUMP JUMPDEST PUSH0 PUSH2 0x2EED DUP4 PUSH2 0x190D JUMP JUMPDEST SWAP1 POP PUSH0 DUP2 GT PUSH2 0x2F2A JUMPI PUSH1 0x40 MLOAD PUSH3 0x461BCD PUSH1 0xE5 SHL DUP2 MSTORE PUSH1 0x20 PUSH1 0x4 DUP3 ADD MSTORE PUSH1 0x9 PUSH1 0x24 DUP3 ADD MSTORE PUSH9 0x139BC81C995DD85C99 PUSH1 0xBA SHL PUSH1 0x44 DUP3 ADD MSTORE PUSH1 0x64 ADD PUSH2 0x1B57 JUMP JUMPDEST PUSH0 PUSH0 PUSH0 PUSH0 PUSH2 0x2F36 PUSH2 0x1506 JUMP JUMPDEST PUSH1 0x20 DUP11 ADD MLOAD SWAP4 SWAP8 POP SWAP2 SWAP6 POP SWAP4 POP SWAP2 POP PUSH0 PUSH3 0x186A0 PUSH2 0x2F54 DUP5 DUP5 PUSH2 0x460E JUMP JUMPDEST PUSH2 0x2F5E SWAP2 SWAP1 PUSH2 0x4639 JUMP JUMPDEST PUSH3 0x186A0 PUSH2 0x2F6C DUP7 DUP6 PUSH2 0x460E JUMP JUMPDEST PUSH2 0x2F76 SWAP2 SWAP1 PUSH2 0x4639 JUMP JUMPDEST PUSH3 0x186A0 PUSH2 0x2F84 DUP9 DUP7 PUSH2 0x460E JUMP JUMPDEST PUSH2 0x2F8E SWAP2 SWAP1 PUSH2 0x4639 JUMP JUMPDEST PUSH2 0x2F98 SWAP1 DUP11 PUSH2 0x45FB JUMP JUMPDEST PUSH2 0x2FA2 SWAP2 SWAP1 PUSH2 0x45FB JUMP JUMPDEST PUSH2 0x2FAC SWAP2 SWAP1 PUSH2 0x45FB JUMP JUMPDEST SWAP1 POP PUSH0 PUSH2 0x2FB8 DUP3 PUSH2 0x39DA JUMP JUMPDEST SWAP1 POP PUSH2 0x2FC6 DUP11 DUP10 DUP5 DUP5 PUSH2 0x3B16 JUMP JUMPDEST PUSH0 DUP3 PUSH3 0x186A0 PUSH2 0x2FD6 DUP9 DUP8 PUSH2 0x460E JUMP JUMPDEST PUSH2 0x2FE0 SWAP2 SWAP1 PUSH2 0x4639 JUMP JUMPDEST PUSH2 0x2FEA SWAP1 DUP5 PUSH2 0x460E JUMP JUMPDEST PUSH2 0x2FF4 SWAP2 SWAP1 PUSH2 0x4639 JUMP JUMPDEST SWAP1 POP DUP1 ISZERO PUSH2 0x3005 JUMPI PUSH2 0x3005 DUP2 PUSH2 0x3C03 JUMP JUMPDEST PUSH0 DUP4 PUSH3 0x186A0 PUSH2 0x3015 DUP9 DUP9 PUSH2 0x460E JUMP JUMPDEST PUSH2 0x301F SWAP2 SWAP1 PUSH2 0x4639 JUMP JUMPDEST PUSH2 0x3029 SWAP1 DUP6 PUSH2 0x460E JUMP JUMPDEST PUSH2 0x3033 SWAP2 SWAP1 PUSH2 0x4639 JUMP JUMPDEST SWAP1 POP DUP1 ISZERO PUSH2 0x30B3 JUMPI PUSH1 0x6 SLOAD PUSH1 0x18 SLOAD PUSH1 0x40 MLOAD PUSH4 0xA9059CBB PUSH1 0xE0 SHL DUP2 MSTORE PUSH1 0x1 PUSH1 0x1 PUSH1 0xA0 SHL SUB SWAP3 DUP4 AND SWAP3 PUSH4 0xA9059CBB SWAP3 PUSH2 0x3071 SWAP3 SWAP2 AND SWAP1 DUP6 SWAP1 PUSH1 0x4 ADD PUSH2 0x49CB JUMP JUMPDEST PUSH1 0x20 PUSH1 0x40 MLOAD DUP1 DUP4 SUB DUP2 PUSH0 DUP8 GAS CALL ISZERO DUP1 ISZERO PUSH2 0x308D JUMPI RETURNDATASIZE PUSH0 PUSH0 RETURNDATACOPY RETURNDATASIZE PUSH0 REVERT JUMPDEST POP POP POP POP PUSH1 0x40 MLOAD RETURNDATASIZE PUSH1 0x1F NOT PUSH1 0x1F DUP3 ADD AND DUP3 ADD DUP1 PUSH1 0x40 MSTORE POP DUP2 ADD SWAP1 PUSH2 0x30B1 SWAP2 SWAP1 PUSH2 0x49E4 JUMP JUMPDEST POP JUMPDEST PUSH1 0x1 PUSH1 0x1 PUSH1 0xA0 SHL SUB DUP13 AND PUSH0 SWAP1 DUP2 MSTORE PUSH1 0xA PUSH1 0x20 MSTORE PUSH1 0x40 DUP2 KECCAK256 PUSH1 0x8 ADD DUP1 SLOAD DUP13 SWAP3 SWAP1 PUSH2 0x30DD SWAP1 DUP5 SWAP1 PUSH2 0x45FB JUMP JUMPDEST SWAP1 SWAP2 SSTORE POP POP POP PUSH1 0x1 PUSH1 0x1 PUSH1 0xA0 SHL SUB SWAP1 SWAP11 AND PUSH0 SWAP1 DUP2 MSTORE PUSH1 0xA PUSH1 0x20 MSTORE PUSH1 0x40 SWAP1 KECCAK256 TIMESTAMP PUSH1 0x4 SWAP1 SWAP2 ADD SSTORE POP POP POP POP POP POP POP POP POP POP JUMP JUMPDEST PUSH0 PUSH0 PUSH1 0x6 PUSH0 SWAP1 SLOAD SWAP1 PUSH2 0x100 EXP SWAP1 DIV PUSH1 0x1 PUSH1 0x1 PUSH1 0xA0 SHL SUB AND PUSH1 0x1 PUSH1 0x1 PUSH1 0xA0 SHL SUB AND PUSH4 0x902F1AC PUSH1 0x40 MLOAD DUP2 PUSH4 0xFFFFFFFF AND PUSH1 0xE0 SHL DUP2 MSTORE PUSH1 0x4 ADD PUSH1 0x60 PUSH1 0x40 MLOAD DUP1 DUP4 SUB DUP2 DUP7 GAS STATICCALL ISZERO DUP1 ISZERO PUSH2 0x3160 JUMPI RETURNDATASIZE PUSH0 PUSH0 RETURNDATACOPY RETURNDATASIZE PUSH0 REVERT JUMPDEST POP POP POP POP PUSH1 0x40 MLOAD RETURNDATASIZE PUSH1 0x1F NOT PUSH1 0x1F DUP3 ADD AND DUP3 ADD DUP1 PUSH1 0x40 MSTORE POP DUP2 ADD SWAP1 PUSH2 0x3184 SWAP2 SWAP1 PUSH2 0x4958 JUMP JUMPDEST POP POP PUSH1 0xB SLOAD PUSH1 0x6 SLOAD PUSH1 0x40 MLOAD PUSH4 0x70A08231 PUSH1 0xE0 SHL DUP2 MSTORE PUSH1 0x1 PUSH1 0x1 PUSH1 0xA0 SHL SUB SWAP2 DUP3 AND PUSH1 0x4 DUP3 ADD MSTORE PUSH1 0x1 PUSH1 0x1 PUSH1 0x70 SHL SUB SWAP4 SWAP1 SWAP4 AND SWAP4 POP PUSH0 SWAP3 SWAP2 AND SWAP1 PUSH4 0x70A08231 SWAP1 PUSH1 0x24 ADD PUSH1 0x20 PUSH1 0x40 MLOAD DUP1 DUP4 SUB DUP2 DUP7 GAS STATICCALL ISZERO DUP1 ISZERO PUSH2 0x31E0 JUMPI RETURNDATASIZE PUSH0 PUSH0 RETURNDATACOPY RETURNDATASIZE PUSH0 REVERT JUMPDEST POP POP POP POP PUSH1 0x40 MLOAD RETURNDATASIZE PUSH1 0x1F NOT PUSH1 0x1F DUP3 ADD AND DUP3 ADD DUP1 PUSH1 0x40 MSTORE POP DUP2 ADD SWAP1 PUSH2 0x3204 SWAP2 SWAP1 PUSH2 0x49B4 JUMP JUMPDEST SWAP1 POP DUP1 DUP3 GT ISZERO PUSH2 0x329E JUMPI PUSH1 0x6 SLOAD PUSH1 0x40 DUP1 MLOAD PUSH4 0x18160DDD PUSH1 0xE0 SHL DUP2 MSTORE SWAP1 MLOAD PUSH0 SWAP3 PUSH1 0x1 PUSH1 0x1 PUSH1 0xA0 SHL SUB AND SWAP2 PUSH4 0x18160DDD SWAP2 PUSH1 0x4 DUP1 DUP4 ADD SWAP3 PUSH1 0x20 SWAP3 SWAP2 SWAP1 DUP3 SWAP1 SUB ADD DUP2 DUP7 GAS STATICCALL ISZERO DUP1 ISZERO PUSH2 0x3255 JUMPI RETURNDATASIZE PUSH0 PUSH0 RETURNDATACOPY RETURNDATASIZE PUSH0 REVERT JUMPDEST POP POP POP POP PUSH1 0x40 MLOAD RETURNDATASIZE PUSH1 0x1F NOT PUSH1 0x1F DUP3 ADD AND DUP3 ADD DUP1 PUSH1 0x40 MSTORE POP DUP2 ADD SWAP1 PUSH2 0x3279 SWAP2 SWAP1 PUSH2 0x49B4 JUMP JUMPDEST SWAP1 POP DUP2 PUSH2 0x3286 DUP2 DUP6 PUSH2 0x464C JUMP JUMPDEST PUSH2 0x3290 SWAP1 DUP4 PUSH2 0x460E JUMP JUMPDEST PUSH2 0x329A SWAP2 SWAP1 PUSH2 0x4639 JUMP JUMPDEST SWAP4 POP POP JUMPDEST POP POP SWAP1 JUMP JUMPDEST PUSH1 0x6 SLOAD PUSH1 0x40 DUP1 MLOAD PUSH4 0x240BC6B PUSH1 0xE2 SHL DUP2 MSTORE SWAP1 MLOAD PUSH1 0x1 PUSH1 0x1 PUSH1 0xA0 SHL SUB SWAP1 SWAP3 AND SWAP2 PUSH0 SWAP2 DUP3 SWAP2 DUP5 SWAP2 PUSH4 0x902F1AC SWAP2 PUSH1 0x4 DUP1 DUP4 ADD SWAP3 PUSH1 0x60 SWAP3 SWAP2 SWAP1 DUP3 SWAP1 SUB ADD DUP2 DUP7 GAS STATICCALL ISZERO DUP1 ISZERO PUSH2 0x32F0 JUMPI RETURNDATASIZE PUSH0 PUSH0 RETURNDATACOPY RETURNDATASIZE PUSH0 REVERT JUMPDEST POP POP POP POP PUSH1 0x40 MLOAD RETURNDATASIZE PUSH1 0x1F NOT PUSH1 0x1F DUP3 ADD AND DUP3 ADD DUP1 PUSH1 0x40 MSTORE POP DUP2 ADD SWAP1 PUSH2 0x3314 SWAP2 SWAP1 PUSH2 0x4958 JUMP JUMPDEST POP SWAP2 POP SWAP2 POP DUP2 PUSH1 0x1 PUSH1 0x1 PUSH1 0x70 SHL SUB AND PUSH0 EQ DUP1 PUSH2 0x3337 JUMPI POP PUSH1 0x1 PUSH1 0x1 PUSH1 0x70 SHL SUB DUP2 AND ISZERO JUMPDEST ISZERO PUSH2 0x3341 JUMPI POP POP POP JUMP JUMPDEST PUSH0 DUP4 PUSH1 0x1 PUSH1 0x1 PUSH1 0xA0 SHL SUB AND PUSH4 0xDFE1681 PUSH1 0x40 MLOAD DUP2 PUSH4 0xFFFFFFFF AND PUSH1 0xE0 SHL DUP2 MSTORE PUSH1 0x4 ADD PUSH1 0x20 PUSH1 0x40 MLOAD DUP1 DUP4 SUB DUP2 DUP7 GAS STATICCALL ISZERO DUP1 ISZERO PUSH2 0x337E JUMPI RETURNDATASIZE PUSH0 PUSH0 RETURNDATACOPY RETURNDATASIZE PUSH0 REVERT JUMPDEST POP POP POP POP PUSH1 0x40 MLOAD RETURNDATASIZE PUSH1 0x1F NOT PUSH1 0x1F DUP3 ADD AND DUP3 ADD DUP1 PUSH1 0x40 MSTORE POP DUP2 ADD SWAP1 PUSH2 0x33A2 SWAP2 SWAP1 PUSH2 0x4999 JUMP JUMPDEST SWAP1 POP PUSH0 PUSH1 0x1 PUSH1 0x1 PUSH1 0xA0 SHL SUB DUP3 AND ADDRESS EQ PUSH2 0x33BB JUMPI DUP3 PUSH2 0x33BD JUMP JUMPDEST DUP4 JUMPDEST PUSH1 0x1 PUSH1 0x1 PUSH1 0x70 SHL SUB AND SWAP1 POP PUSH0 PUSH1 0x1 PUSH1 0x1 PUSH1 0xA0 SHL SUB DUP4 AND ADDRESS EQ PUSH2 0x33DF JUMPI DUP5 PUSH2 0x33E1 JUMP JUMPDEST DUP4 JUMPDEST PUSH1 0x1 PUSH1 0x1 PUSH1 0x70 SHL SUB AND SWAP1 POP DUP1 PUSH0 SUB PUSH2 0x33FB JUMPI POP POP POP POP POP POP JUMP JUMPDEST PUSH0 DUP3 PUSH2 0x340F DUP4 PUSH8 0xDE0B6B3A7640000 PUSH2 0x460E JUMP JUMPDEST PUSH2 0x3419 SWAP2 SWAP1 PUSH2 0x4639 JUMP JUMPDEST SWAP1 POP PUSH0 PUSH2 0x3429 PUSH3 0x15180 TIMESTAMP PUSH2 0x4639 JUMP JUMPDEST SWAP1 POP PUSH1 0x1A SLOAD DUP2 GT ISZERO PUSH2 0x34F8 JUMPI PUSH0 PUSH1 0x1B SLOAD GT DUP1 ISZERO PUSH2 0x345F JUMPI POP PUSH1 0x64 PUSH1 0x1B SLOAD PUSH1 0x5C PUSH2 0x3452 SWAP2 SWAP1 PUSH2 0x460E JUMP JUMPDEST PUSH2 0x345C SWAP2 SWAP1 PUSH2 0x4639 JUMP JUMPDEST DUP3 LT JUMPDEST ISZERO PUSH2 0x34E2 JUMPI PUSH1 0x1C DUP1 SLOAD PUSH1 0xFF NOT AND PUSH1 0x1 OR SWAP1 SSTORE PUSH1 0x1B SLOAD PUSH32 0xE9560271FF9C39B91BAAAAFEBB009E70AD170A54AB31A72F4B884680B076682 SWAP1 DUP3 SWAP1 PUSH2 0x34A2 JUMPI PUSH0 PUSH2 0x34C5 JUMP JUMPDEST PUSH1 0x1B SLOAD PUSH2 0x34AF DUP6 DUP3 PUSH2 0x464C JUMP JUMPDEST PUSH2 0x34BB SWAP1 PUSH2 0x2710 PUSH2 0x460E JUMP JUMPDEST PUSH2 0x34C5 SWAP2 SWAP1 PUSH2 0x4639 JUMP JUMPDEST PUSH1 0x40 DUP1 MLOAD SWAP3 DUP4 MSTORE PUSH1 0x20 DUP4 ADD SWAP2 SWAP1 SWAP2 MSTORE ADD PUSH1 0x40 MLOAD DUP1 SWAP2 SUB SWAP1 LOG1 PUSH2 0x34ED JUMP JUMPDEST PUSH1 0x1C DUP1 SLOAD PUSH1 0xFF NOT AND SWAP1 SSTORE JUMPDEST PUSH1 0x1B DUP3 SWAP1 SSTORE PUSH1 0x1A DUP2 SWAP1 SSTORE JUMPDEST POP POP POP POP POP POP POP POP JUMP JUMPDEST PUSH0 PUSH1 0x1 PUSH1 0x1 PUSH1 0xA0 SHL SUB PUSH32 0x0 AND CALLER SUB PUSH2 0x3712 JUMPI PUSH0 PUSH0 PUSH1 0x6 PUSH0 SWAP1 SLOAD SWAP1 PUSH2 0x100 EXP SWAP1 DIV PUSH1 0x1 PUSH1 0x1 PUSH1 0xA0 SHL SUB AND PUSH1 0x1 PUSH1 0x1 PUSH1 0xA0 SHL SUB AND PUSH4 0x902F1AC PUSH1 0x40 MLOAD DUP2 PUSH4 0xFFFFFFFF AND PUSH1 0xE0 SHL DUP2 MSTORE PUSH1 0x4 ADD PUSH1 0x60 PUSH1 0x40 MLOAD DUP1 DUP4 SUB DUP2 DUP7 GAS STATICCALL ISZERO DUP1 ISZERO PUSH2 0x3585 JUMPI RETURNDATASIZE PUSH0 PUSH0 RETURNDATACOPY RETURNDATASIZE PUSH0 REVERT JUMPDEST POP POP POP POP PUSH1 0x40 MLOAD RETURNDATASIZE PUSH1 0x1F NOT PUSH1 0x1F DUP3 ADD AND DUP3 ADD DUP1 PUSH1 0x40 MSTORE POP DUP2 ADD SWAP1 PUSH2 0x35A9 SWAP2 SWAP1 PUSH2 0x4958 JUMP JUMPDEST POP PUSH1 0xB SLOAD PUSH1 0x6 SLOAD PUSH1 0x40 MLOAD PUSH4 0x70A08231 PUSH1 0xE0 SHL DUP2 MSTORE PUSH1 0x1 PUSH1 0x1 PUSH1 0xA0 SHL SUB SWAP2 DUP3 AND PUSH1 0x4 DUP3 ADD MSTORE PUSH1 0x1 PUSH1 0x1 PUSH1 0x70 SHL SUB SWAP5 DUP6 AND SWAP7 POP SWAP3 SWAP1 SWAP4 AND SWAP4 POP PUSH0 SWAP3 AND SWAP1 PUSH4 0x70A08231 SWAP1 PUSH1 0x24 ADD PUSH1 0x20 PUSH1 0x40 MLOAD DUP1 DUP4 SUB DUP2 DUP7 GAS STATICCALL ISZERO DUP1 ISZERO PUSH2 0x3608 JUMPI RETURNDATASIZE PUSH0 PUSH0 RETURNDATACOPY RETURNDATASIZE PUSH0 REVERT JUMPDEST POP POP POP POP PUSH1 0x40 MLOAD RETURNDATASIZE PUSH1 0x1F NOT PUSH1 0x1F DUP3 ADD AND DUP3 ADD DUP1 PUSH1 0x40 MSTORE POP DUP2 ADD SWAP1 PUSH2 0x362C SWAP2 SWAP1 PUSH2 0x49B4 JUMP JUMPDEST SWAP1 POP DUP3 DUP2 GT ISZERO PUSH2 0x370E JUMPI PUSH1 0x6 SLOAD PUSH1 0x40 DUP1 MLOAD PUSH4 0x18160DDD PUSH1 0xE0 SHL DUP2 MSTORE SWAP1 MLOAD PUSH0 SWAP3 PUSH1 0x1 PUSH1 0x1 PUSH1 0xA0 SHL SUB AND SWAP2 PUSH4 0x18160DDD SWAP2 PUSH1 0x4 DUP1 DUP4 ADD SWAP3 PUSH1 0x20 SWAP3 SWAP2 SWAP1 DUP3 SWAP1 SUB ADD DUP2 DUP7 GAS STATICCALL ISZERO DUP1 ISZERO PUSH2 0x367D JUMPI RETURNDATASIZE PUSH0 PUSH0 RETURNDATACOPY RETURNDATASIZE PUSH0 REVERT JUMPDEST POP POP POP POP PUSH1 0x40 MLOAD RETURNDATASIZE PUSH1 0x1F NOT PUSH1 0x1F DUP3 ADD AND DUP3 ADD DUP1 PUSH1 0x40 MSTORE POP DUP2 ADD SWAP1 PUSH2 0x36A1 SWAP2 SWAP1 PUSH2 0x49B4 JUMP JUMPDEST SWAP1 POP DUP1 PUSH0 SUB PUSH2 0x36B6 JUMPI POP PUSH1 0x1 SWAP6 SWAP5 POP POP POP POP POP JUMP JUMPDEST PUSH2 0x36C1 DUP2 DUP4 DUP6 PUSH2 0x3E58 JUMP JUMPDEST PUSH2 0x36CB SWAP1 DUP3 PUSH2 0x45FB JUMP JUMPDEST SWAP1 POP PUSH2 0x370A DUP5 DUP3 PUSH2 0x36DC DUP3 DUP7 PUSH2 0x464C JUMP JUMPDEST PUSH2 0x36E6 SWAP2 SWAP1 PUSH2 0x460E JUMP JUMPDEST PUSH2 0x36F0 SWAP2 SWAP1 PUSH2 0x4639 JUMP JUMPDEST DUP5 PUSH2 0x36FB DUP5 DUP11 PUSH2 0x460E JUMP JUMPDEST PUSH2 0x3705 SWAP2 SWAP1 PUSH2 0x4639 JUMP JUMPDEST PUSH2 0x3F4D JUMP JUMPDEST SWAP5 POP POP JUMPDEST POP POP POP JUMPDEST SWAP2 SWAP1 POP JUMP JUMPDEST PUSH0 PUSH1 0x13 SLOAD PUSH1 0x12 SLOAD PUSH2 0x3728 SWAP2 SWAP1 PUSH2 0x45FB JUMP JUMPDEST SWAP1 POP PUSH8 0xDE0B6B3A7640000 DUP2 LT ISZERO PUSH2 0x373D JUMPI POP JUMP JUMPDEST PUSH2 0x3768 ADDRESS PUSH32 0x0 DUP4 PUSH2 0x1CBC JUMP JUMPDEST PUSH1 0x40 DUP1 MLOAD PUSH1 0x2 DUP1 DUP3 MSTORE PUSH1 0x60 DUP3 ADD DUP4 MSTORE PUSH0 SWAP3 PUSH1 0x20 DUP4 ADD SWAP1 DUP1 CALLDATASIZE DUP4 CALLDATACOPY ADD SWAP1 POP POP SWAP1 POP ADDRESS DUP2 PUSH0 DUP2 MLOAD DUP2 LT PUSH2 0x379B JUMPI PUSH2 0x379B PUSH2 0x489D JUMP JUMPDEST PUSH1 0x1 PUSH1 0x1 PUSH1 0xA0 SHL SUB SWAP3 DUP4 AND PUSH1 0x20 SWAP2 DUP3 MUL SWAP3 SWAP1 SWAP3 ADD ADD MSTORE PUSH1 0xB SLOAD DUP3 MLOAD SWAP2 AND SWAP1 DUP3 SWAP1 PUSH1 0x1 SWAP1 DUP2 LT PUSH2 0x37CC JUMPI PUSH2 0x37CC PUSH2 0x489D JUMP JUMPDEST PUSH1 0x1 PUSH1 0x1 PUSH1 0xA0 SHL SUB SWAP3 DUP4 AND PUSH1 0x20 SWAP2 DUP3 MUL SWAP3 SWAP1 SWAP3 ADD ADD MSTORE PUSH1 0x40 MLOAD PUSH4 0x791AC947 PUSH1 0xE0 SHL DUP2 MSTORE PUSH32 0x0 SWAP1 SWAP2 AND SWAP1 PUSH4 0x791AC947 SWAP1 PUSH2 0x3830 SWAP1 DUP6 SWAP1 PUSH0 SWAP1 DUP7 SWAP1 ADDRESS SWAP1 TIMESTAMP SWAP1 PUSH1 0x4 ADD PUSH2 0x4A74 JUMP JUMPDEST PUSH0 PUSH1 0x40 MLOAD DUP1 DUP4 SUB DUP2 PUSH0 DUP8 DUP1 EXTCODESIZE ISZERO DUP1 ISZERO PUSH2 0x3847 JUMPI PUSH0 PUSH0 REVERT JUMPDEST POP GAS CALL ISZERO DUP1 ISZERO PUSH2 0x3859 JUMPI RETURNDATASIZE PUSH0 PUSH0 RETURNDATACOPY RETURNDATASIZE PUSH0 REVERT JUMPDEST POP POP PUSH1 0x13 SLOAD SELFBALANCE SWAP3 POP PUSH0 SWAP2 POP DUP5 SWAP1 PUSH2 0x3870 SWAP1 DUP5 PUSH2 0x460E JUMP JUMPDEST PUSH2 0x387A SWAP2 SWAP1 PUSH2 0x4639 JUMP JUMPDEST PUSH1 0x19 SLOAD SWAP1 SWAP2 POP PUSH2 0x3893 SWAP1 PUSH1 0x1 PUSH1 0x1 PUSH1 0xA0 SHL SUB AND DUP3 PUSH2 0x3F62 JUMP JUMPDEST PUSH0 PUSH2 0x389E DUP3 DUP5 PUSH2 0x464C JUMP JUMPDEST SWAP1 POP PUSH0 DUP2 GT DUP1 ISZERO PUSH2 0x38B9 JUMPI POP PUSH1 0xF SLOAD PUSH1 0x1 PUSH1 0x1 PUSH1 0xA0 SHL SUB AND ISZERO ISZERO JUMPDEST ISZERO PUSH2 0x394A JUMPI PUSH1 0xF SLOAD PUSH1 0x40 MLOAD PUSH0 SWAP2 PUSH1 0x1 PUSH1 0x1 PUSH1 0xA0 SHL SUB AND SWAP1 DUP4 SWAP1 DUP4 DUP2 DUP2 DUP2 DUP6 DUP8 GAS CALL SWAP3 POP POP POP RETURNDATASIZE DUP1 PUSH0 DUP2 EQ PUSH2 0x3908 JUMPI PUSH1 0x40 MLOAD SWAP2 POP PUSH1 0x1F NOT PUSH1 0x3F RETURNDATASIZE ADD AND DUP3 ADD PUSH1 0x40 MSTORE RETURNDATASIZE DUP3 MSTORE RETURNDATASIZE PUSH0 PUSH1 0x20 DUP5 ADD RETURNDATACOPY PUSH2 0x390D JUMP JUMPDEST PUSH1 0x60 SWAP2 POP JUMPDEST POP POP SWAP1 POP DUP1 ISZERO DUP1 ISZERO PUSH2 0x3929 JUMPI POP PUSH1 0xC SLOAD PUSH1 0x1 PUSH1 0x1 PUSH1 0xA0 SHL SUB AND ISZERO ISZERO JUMPDEST ISZERO PUSH2 0x3944 JUMPI PUSH1 0xC SLOAD PUSH2 0x3944 SWAP1 PUSH1 0x1 PUSH1 0x1 PUSH1 0xA0 SHL SUB AND DUP4 PUSH2 0x3F62 JUMP JUMPDEST POP PUSH2 0x397E JUMP JUMPDEST PUSH0 DUP2 GT DUP1 ISZERO PUSH2 0x3963 JUMPI POP PUSH1 0xC SLOAD PUSH1 0x1 PUSH1 0x1 PUSH1 0xA0 SHL SUB AND ISZERO ISZERO JUMPDEST ISZERO PUSH2 0x397E JUMPI PUSH1 0xC SLOAD PUSH2 0x397E SWAP1 PUSH1 0x1 PUSH1 0x1 PUSH1 0xA0 SHL SUB AND DUP3 PUSH2 0x3F62 JUMP JUMPDEST POP POP PUSH0 PUSH1 0x12 DUP2 SWAP1 SSTORE PUSH1 0x13 SSTORE POP POP POP JUMP JUMPDEST PUSH0 DUP2 DUP2 MSTORE PUSH1 0x1 DUP4 ADD PUSH1 0x20 MSTORE PUSH1 0x40 DUP2 KECCAK256 SLOAD PUSH2 0x39D3 JUMPI POP DUP2 SLOAD PUSH1 0x1 DUP2 DUP2 ADD DUP5 SSTORE PUSH0 DUP5 DUP2 MSTORE PUSH1 0x20 DUP1 DUP3 KECCAK256 SWAP1 SWAP4 ADD DUP5 SWAP1 SSTORE DUP5 SLOAD DUP5 DUP3 MSTORE DUP3 DUP7 ADD SWAP1 SWAP4 MSTORE PUSH1 0x40 SWAP1 KECCAK256 SWAP2 SWAP1 SWAP2 SSTORE PUSH2 0x1133 JUMP JUMPDEST POP PUSH0 PUSH2 0x1133 JUMP JUMPDEST PUSH1 0x40 DUP1 MLOAD PUSH1 0x2 DUP1 DUP3 MSTORE PUSH1 0x60 DUP3 ADD DUP4 MSTORE PUSH0 SWAP3 DUP4 SWAP3 SWAP2 SWAP1 PUSH1 0x20 DUP4 ADD SWAP1 DUP1 CALLDATASIZE DUP4 CALLDATACOPY POP POP PUSH1 0xB SLOAD DUP3 MLOAD SWAP3 SWAP4 POP PUSH1 0x1 PUSH1 0x1 PUSH1 0xA0 SHL SUB AND SWAP2 DUP4 SWAP2 POP PUSH0 SWAP1 PUSH2 0x3A1D JUMPI PUSH2 0x3A1D PUSH2 0x489D JUMP JUMPDEST PUSH1 0x20 MUL PUSH1 0x20 ADD ADD SWAP1 PUSH1 0x1 PUSH1 0x1 PUSH1 0xA0 SHL SUB AND SWAP1 DUP2 PUSH1 0x1 PUSH1 0x1 PUSH1 0xA0 SHL SUB AND DUP2 MSTORE POP POP ADDRESS DUP2 PUSH1 0x1 DUP2 MLOAD DUP2 LT PUSH2 0x3A51 JUMPI PUSH2 0x3A51 PUSH2 0x489D JUMP JUMPDEST PUSH1 0x1 PUSH1 0x1 PUSH1 0xA0 SHL SUB SWAP3 DUP4 AND PUSH1 0x20 SWAP2 DUP3 MUL SWAP3 SWAP1 SWAP3 ADD ADD MSTORE PUSH1 0x40 MLOAD PUSH4 0xD06CA61F PUSH1 0xE0 SHL DUP2 MSTORE PUSH0 SWAP2 PUSH32 0x0 AND SWAP1 PUSH4 0xD06CA61F SWAP1 PUSH2 0x3AAF SWAP1 DUP8 SWAP1 DUP7 SWAP1 PUSH1 0x4 ADD PUSH2 0x4AAF JUMP JUMPDEST PUSH0 PUSH1 0x40 MLOAD DUP1 DUP4 SUB DUP2 DUP7 GAS STATICCALL ISZERO DUP1 ISZERO PUSH2 0x3AC9 JUMPI RETURNDATASIZE PUSH0 PUSH0 RETURNDATACOPY RETURNDATASIZE PUSH0 REVERT JUMPDEST POP POP POP POP PUSH1 0x40 MLOAD RETURNDATASIZE PUSH0 DUP3 RETURNDATACOPY PUSH1 0x1F RETURNDATASIZE SWAP1 DUP2 ADD PUSH1 0x1F NOT AND DUP3 ADD PUSH1 0x40 MSTORE PUSH2 0x3AF0 SWAP2 SWAP1 DUP2 ADD SWAP1 PUSH2 0x4ACF JUMP JUMPDEST SWAP1 POP DUP1 PUSH1 0x1 DUP2 MLOAD DUP2 LT PUSH2 0x3B05 JUMPI PUSH2 0x3B05 PUSH2 0x489D JUMP JUMPDEST PUSH1 0x20 MUL PUSH1 0x20 ADD ADD MLOAD SWAP3 POP POP POP SWAP2 SWAP1 POP JUMP JUMPDEST PUSH0 PUSH1 0x2 DUP4 PUSH2 0x3B24 DUP7 DUP6 PUSH2 0x460E JUMP JUMPDEST PUSH2 0x3B2E SWAP2 SWAP1 PUSH2 0x4639 JUMP JUMPDEST PUSH2 0x3B38 SWAP2 SWAP1 PUSH2 0x4639 JUMP JUMPDEST SWAP1 POP PUSH0 PUSH1 0x2 DUP5 PUSH2 0x3B48 DUP8 DUP7 PUSH2 0x460E JUMP JUMPDEST PUSH2 0x3B52 SWAP2 SWAP1 PUSH2 0x4639 JUMP JUMPDEST PUSH2 0x3B5C SWAP2 SWAP1 PUSH2 0x4639 JUMP JUMPDEST SWAP1 POP DUP2 ISZERO PUSH2 0x3B6F JUMPI PUSH2 0x3B6F ADDRESS DUP8 DUP5 PUSH2 0x1B96 JUMP JUMPDEST DUP1 ISZERO PUSH2 0x260B JUMPI PUSH0 PUSH2 0x3B7F DUP3 PUSH2 0x3FC5 JUMP JUMPDEST PUSH1 0x6 SLOAD PUSH1 0x40 MLOAD PUSH4 0xA9059CBB PUSH1 0xE0 SHL DUP2 MSTORE SWAP2 SWAP3 POP PUSH1 0x1 PUSH1 0x1 PUSH1 0xA0 SHL SUB AND SWAP1 PUSH4 0xA9059CBB SWAP1 PUSH2 0x3BB2 SWAP1 DUP11 SWAP1 DUP6 SWAP1 PUSH1 0x4 ADD PUSH2 0x49CB JUMP JUMPDEST PUSH1 0x20 PUSH1 0x40 MLOAD DUP1 DUP4 SUB DUP2 PUSH0 DUP8 GAS CALL ISZERO DUP1 ISZERO PUSH2 0x3BCE JUMPI RETURNDATASIZE PUSH0 PUSH0 RETURNDATACOPY RETURNDATASIZE PUSH0 REVERT JUMPDEST POP POP POP POP PUSH1 0x40 MLOAD RETURNDATASIZE PUSH1 0x1F NOT PUSH1 0x1F DUP3 ADD AND DUP3 ADD DUP1 PUSH1 0x40 MSTORE POP DUP2 ADD SWAP1 PUSH2 0x3BF2 SWAP2 SWAP1 PUSH2 0x49E4 JUMP JUMPDEST POP DUP1 ISZERO PUSH2 0x28D6 JUMPI PUSH2 0x34F8 DUP8 DUP3 PUSH2 0x43AA JUMP JUMPDEST PUSH1 0xD SLOAD PUSH1 0x1 PUSH1 0x1 PUSH1 0xA0 SHL SUB AND ISZERO DUP1 ISZERO SWAP1 PUSH2 0x3C27 JUMPI POP PUSH1 0xE SLOAD PUSH1 0x1 PUSH1 0x1 PUSH1 0xA0 SHL SUB AND ISZERO ISZERO JUMPDEST ISZERO PUSH2 0x3DCD JUMPI PUSH0 PUSH1 0xA PUSH2 0x3C3A DUP4 PUSH1 0x7 PUSH2 0x460E JUMP JUMPDEST PUSH2 0x3C44 SWAP2 SWAP1 PUSH2 0x4639 JUMP JUMPDEST SWAP1 POP PUSH0 PUSH2 0x3C51 DUP3 DUP5 PUSH2 0x464C JUMP JUMPDEST SWAP1 POP PUSH1 0x16 SLOAD TIMESTAMP LT ISZERO PUSH2 0x3CD3 JUMPI PUSH1 0x6 SLOAD PUSH1 0xE SLOAD PUSH1 0x40 MLOAD PUSH4 0xA9059CBB PUSH1 0xE0 SHL DUP2 MSTORE PUSH1 0x1 PUSH1 0x1 PUSH1 0xA0 SHL SUB SWAP3 DUP4 AND SWAP3 PUSH4 0xA9059CBB SWAP3 PUSH2 0x3C93 SWAP3 SWAP2 AND SWAP1 DUP8 SWAP1 PUSH1 0x4 ADD PUSH2 0x49CB JUMP JUMPDEST PUSH1 0x20 PUSH1 0x40 MLOAD DUP1 DUP4 SUB DUP2 PUSH0 DUP8 GAS CALL ISZERO DUP1 ISZERO PUSH2 0x3CAF JUMPI RETURNDATASIZE PUSH0 PUSH0 RETURNDATACOPY RETURNDATASIZE PUSH0 REVERT JUMPDEST POP POP POP POP PUSH1 0x40 MLOAD RETURNDATASIZE PUSH1 0x1F NOT PUSH1 0x1F DUP3 ADD AND DUP3 ADD DUP1 PUSH1 0x40 MSTORE POP DUP2 ADD SWAP1 PUSH2 0x1615 SWAP2 SWAP1 PUSH2 0x49E4 JUMP JUMPDEST PUSH1 0x16 SLOAD PUSH2 0x3CE3 SWAP1 PUSH3 0x278D00 PUSH2 0x45FB JUMP JUMPDEST TIMESTAMP LT ISZERO PUSH2 0x3D20 JUMPI PUSH1 0x6 SLOAD PUSH1 0xE SLOAD PUSH1 0x40 MLOAD PUSH4 0xA9059CBB PUSH1 0xE0 SHL DUP2 MSTORE PUSH1 0x1 PUSH1 0x1 PUSH1 0xA0 SHL SUB SWAP3 DUP4 AND SWAP3 PUSH4 0xA9059CBB SWAP3 PUSH2 0x3C93 SWAP3 SWAP2 AND SWAP1 DUP8 SWAP1 PUSH1 0x4 ADD PUSH2 0x49CB JUMP JUMPDEST PUSH1 0x6 SLOAD PUSH1 0xD SLOAD PUSH1 0x40 MLOAD PUSH4 0xA9059CBB PUSH1 0xE0 SHL DUP2 MSTORE PUSH1 0x1 PUSH1 0x1 PUSH1 0xA0 SHL SUB SWAP3 DUP4 AND SWAP3 PUSH4 0xA9059CBB SWAP3 PUSH2 0x3D56 SWAP3 SWAP2 AND SWAP1 DUP7 SWAP1 PUSH1 0x4 ADD PUSH2 0x49CB JUMP JUMPDEST PUSH1 0x20 PUSH1 0x40 MLOAD DUP1 DUP4 SUB DUP2 PUSH0 DUP8 GAS CALL ISZERO DUP1 ISZERO PUSH2 0x3D72 JUMPI RETURNDATASIZE PUSH0 PUSH0 RETURNDATACOPY RETURNDATASIZE PUSH0 REVERT JUMPDEST POP POP POP POP PUSH1 0x40 MLOAD RETURNDATASIZE PUSH1 0x1F NOT PUSH1 0x1F DUP3 ADD AND DUP3 ADD DUP1 PUSH1 0x40 MSTORE POP DUP2 ADD SWAP1 PUSH2 0x3D96 SWAP2 SWAP1 PUSH2 0x49E4 JUMP JUMPDEST POP PUSH1 0x6 SLOAD PUSH1 0xE SLOAD PUSH1 0x40 MLOAD PUSH4 0xA9059CBB PUSH1 0xE0 SHL DUP2 MSTORE PUSH1 0x1 PUSH1 0x1 PUSH1 0xA0 SHL SUB SWAP3 DUP4 AND SWAP3 PUSH4 0xA9059CBB SWAP3 PUSH2 0x3C93 SWAP3 SWAP2 AND SWAP1 DUP6 SWAP1 PUSH1 0x4 ADD PUSH2 0x49CB JUMP JUMPDEST PUSH1 0xC SLOAD PUSH1 0x1 PUSH1 0x1 PUSH1 0xA0 SHL SUB AND ISZERO PUSH2 0x1B69 JUMPI PUSH1 0x6 SLOAD PUSH1 0xC SLOAD PUSH1 0x40 MLOAD PUSH4 0xA9059CBB PUSH1 0xE0 SHL DUP2 MSTORE PUSH1 0x1 PUSH1 0x1 PUSH1 0xA0 SHL SUB SWAP3 DUP4 AND SWAP3 PUSH4 0xA9059CBB SWAP3 PUSH2 0x3E14 SWAP3 SWAP2 AND SWAP1 DUP6 SWAP1 PUSH1 0x4 ADD PUSH2 0x49CB JUMP JUMPDEST PUSH1 0x20 PUSH1 0x40 MLOAD DUP1 DUP4 SUB DUP2 PUSH0 DUP8 GAS CALL ISZERO DUP1 ISZERO PUSH2 0x3E30 JUMPI RETURNDATASIZE PUSH0 PUSH0 RETURNDATACOPY RETURNDATASIZE PUSH0 REVERT JUMPDEST POP POP POP POP PUSH1 0x40 MLOAD RETURNDATASIZE PUSH1 0x1F NOT PUSH1 0x1F DUP3 ADD AND DUP3 ADD DUP1 PUSH1 0x40 MSTORE POP DUP2 ADD SWAP1 PUSH2 0x3E54 SWAP2 SWAP1 PUSH2 0x49E4 JUMP JUMPDEST POP POP JUMP JUMPDEST PUSH0 DUP1 PUSH2 0x3E6C PUSH2 0x3E67 DUP5 DUP7 PUSH2 0x460E JUMP JUMPDEST PUSH2 0x457A JUMP JUMPDEST SWAP1 POP PUSH0 PUSH2 0x3EE6 PUSH1 0x6 PUSH0 SWAP1 SLOAD SWAP1 PUSH2 0x100 EXP SWAP1 DIV PUSH1 0x1 PUSH1 0x1 PUSH1 0xA0 SHL SUB AND PUSH1 0x1 PUSH1 0x1 PUSH1 0xA0 SHL SUB AND PUSH4 0x7464FC3D PUSH1 0x40 MLOAD DUP2 PUSH4 0xFFFFFFFF AND PUSH1 0xE0 SHL DUP2 MSTORE PUSH1 0x4 ADD PUSH1 0x20 PUSH1 0x40 MLOAD DUP1 DUP4 SUB DUP2 DUP7 GAS STATICCALL ISZERO DUP1 ISZERO PUSH2 0x3EC2 JUMPI RETURNDATASIZE PUSH0 PUSH0 RETURNDATACOPY RETURNDATASIZE PUSH0 REVERT JUMPDEST POP POP POP POP PUSH1 0x40 MLOAD RETURNDATASIZE PUSH1 0x1F NOT PUSH1 0x1F DUP3 ADD AND DUP3 ADD DUP1 PUSH1 0x40 MSTORE POP DUP2 ADD SWAP1 PUSH2 0x3E67 SWAP2 SWAP1 PUSH2 0x49B4 JUMP JUMPDEST SWAP1 POP DUP1 DUP3 GT ISZERO PUSH2 0x3F44 JUMPI PUSH0 PUSH2 0x3EFB DUP3 DUP5 PUSH2 0x464C JUMP JUMPDEST PUSH2 0x3F05 SWAP1 DUP9 PUSH2 0x460E JUMP JUMPDEST PUSH2 0x3F10 SWAP1 PUSH1 0x8 PUSH2 0x460E JUMP JUMPDEST SWAP1 POP PUSH0 PUSH2 0x3F1E DUP4 PUSH1 0x8 PUSH2 0x460E JUMP JUMPDEST PUSH2 0x3F29 DUP6 PUSH1 0x11 PUSH2 0x460E JUMP JUMPDEST PUSH2 0x3F33 SWAP2 SWAP1 PUSH2 0x45FB JUMP JUMPDEST SWAP1 POP PUSH2 0x3F3F DUP2 DUP4 PUSH2 0x4639 JUMP JUMPDEST SWAP5 POP POP POP JUMPDEST POP POP SWAP4 SWAP3 POP POP POP JUMP JUMPDEST PUSH0 DUP2 DUP4 LT PUSH2 0x3F5B JUMPI DUP2 PUSH2 0x1DDA JUMP JUMPDEST POP SWAP1 SWAP2 SWAP1 POP JUMP JUMPDEST PUSH1 0x40 DUP1 MLOAD PUSH0 DUP1 DUP3 MSTORE PUSH1 0x20 DUP3 ADD SWAP1 SWAP3 MSTORE PUSH1 0x1 PUSH1 0x1 PUSH1 0xA0 SHL SUB DUP5 AND SWAP1 DUP4 SWAP1 PUSH1 0x40 MLOAD PUSH2 0x3F8B SWAP2 SWAP1 PUSH2 0x4B97 JUMP JUMPDEST PUSH0 PUSH1 0x40 MLOAD DUP1 DUP4 SUB DUP2 DUP6 DUP8 GAS CALL SWAP3 POP POP POP RETURNDATASIZE DUP1 PUSH0 DUP2 EQ PUSH2 0x260B JUMPI PUSH1 0x40 MLOAD SWAP2 POP PUSH1 0x1F NOT PUSH1 0x3F RETURNDATASIZE ADD AND DUP3 ADD PUSH1 0x40 MSTORE RETURNDATASIZE DUP3 MSTORE RETURNDATASIZE PUSH0 PUSH1 0x20 DUP5 ADD RETURNDATACOPY PUSH2 0x260B JUMP JUMPDEST PUSH0 DUP1 PUSH2 0x3FD2 PUSH1 0x2 DUP5 PUSH2 0x4639 JUMP JUMPDEST PUSH1 0x40 DUP1 MLOAD PUSH1 0x2 DUP1 DUP3 MSTORE PUSH1 0x60 DUP3 ADD DUP4 MSTORE SWAP3 SWAP4 POP PUSH0 SWAP3 SWAP1 SWAP2 PUSH1 0x20 DUP4 ADD SWAP1 DUP1 CALLDATASIZE DUP4 CALLDATACOPY ADD SWAP1 POP POP SWAP1 POP ADDRESS DUP2 PUSH0 DUP2 MLOAD DUP2 LT PUSH2 0x400A JUMPI PUSH2 0x400A PUSH2 0x489D JUMP JUMPDEST PUSH1 0x1 PUSH1 0x1 PUSH1 0xA0 SHL SUB SWAP3 DUP4 AND PUSH1 0x20 SWAP2 DUP3 MUL SWAP3 SWAP1 SWAP3 ADD ADD MSTORE PUSH1 0xB SLOAD DUP3 MLOAD SWAP2 AND SWAP1 DUP3 SWAP1 PUSH1 0x1 SWAP1 DUP2 LT PUSH2 0x403B JUMPI PUSH2 0x403B PUSH2 0x489D JUMP JUMPDEST PUSH1 0x1 PUSH1 0x1 PUSH1 0xA0 SHL SUB SWAP3 DUP4 AND PUSH1 0x20 SWAP2 DUP3 MUL SWAP3 SWAP1 SWAP3 ADD ADD MSTORE PUSH1 0x6 SLOAD PUSH2 0x4060 SWAP2 AND ADDRESS DUP7 PUSH2 0x1B96 JUMP JUMPDEST PUSH1 0x6 PUSH0 SWAP1 SLOAD SWAP1 PUSH2 0x100 EXP SWAP1 DIV PUSH1 0x1 PUSH1 0x1 PUSH1 0xA0 SHL SUB AND PUSH1 0x1 PUSH1 0x1 PUSH1 0xA0 SHL SUB AND PUSH4 0xFFF6CAE9 PUSH1 0x40 MLOAD DUP2 PUSH4 0xFFFFFFFF AND PUSH1 0xE0 SHL DUP2 MSTORE PUSH1 0x4 ADD PUSH0 PUSH1 0x40 MLOAD DUP1 DUP4 SUB DUP2 PUSH0 DUP8 DUP1 EXTCODESIZE ISZERO DUP1 ISZERO PUSH2 0x40AC JUMPI PUSH0 PUSH0 REVERT JUMPDEST POP GAS CALL ISZERO DUP1 ISZERO PUSH2 0x40BE JUMPI RETURNDATASIZE PUSH0 PUSH0 RETURNDATACOPY RETURNDATASIZE PUSH0 REVERT JUMPDEST POP POP POP POP PUSH2 0x40ED ADDRESS PUSH32 0x0 DUP7 PUSH2 0x1CBC JUMP JUMPDEST PUSH1 0x10 SLOAD PUSH1 0x40 MLOAD PUSH4 0x5C11D795 PUSH1 0xE0 SHL DUP2 MSTORE PUSH1 0x1 PUSH1 0x1 PUSH1 0xA0 SHL SUB PUSH32 0x0 DUP2 AND SWAP3 PUSH4 0x5C11D795 SWAP3 PUSH2 0x4148 SWAP3 DUP8 SWAP3 PUSH0 SWAP3 DUP9 SWAP3 SWAP2 SWAP1 SWAP2 AND SWAP1 TIMESTAMP SWAP1 PUSH1 0x4 ADD PUSH2 0x4A74 JUMP JUMPDEST PUSH0 PUSH1 0x40 MLOAD DUP1 DUP4 SUB DUP2 PUSH0 DUP8 DUP1 EXTCODESIZE ISZERO DUP1 ISZERO PUSH2 0x415F JUMPI PUSH0 PUSH0 REVERT JUMPDEST POP GAS CALL ISZERO DUP1 ISZERO PUSH2 0x4171 JUMPI RETURNDATASIZE PUSH0 PUSH0 RETURNDATACOPY RETURNDATASIZE PUSH0 REVERT JUMPDEST POP POP PUSH1 0xB SLOAD PUSH1 0x10 SLOAD PUSH1 0x40 MLOAD PUSH4 0x70A08231 PUSH1 0xE0 SHL DUP2 MSTORE PUSH1 0x1 PUSH1 0x1 PUSH1 0xA0 SHL SUB SWAP2 DUP3 AND PUSH1 0x4 DUP3 ADD MSTORE PUSH0 SWAP5 POP SWAP2 AND SWAP2 POP PUSH4 0x70A08231 SWAP1 PUSH1 0x24 ADD PUSH1 0x20 PUSH1 0x40 MLOAD DUP1 DUP4 SUB DUP2 DUP7 GAS STATICCALL ISZERO DUP1 ISZERO PUSH2 0x41C1 JUMPI RETURNDATASIZE PUSH0 PUSH0 RETURNDATACOPY RETURNDATASIZE PUSH0 REVERT JUMPDEST POP POP POP POP PUSH1 0x40 MLOAD RETURNDATASIZE PUSH1 0x1F NOT PUSH1 0x1F DUP3 ADD AND DUP3 ADD DUP1 PUSH1 0x40 MSTORE POP DUP2 ADD SWAP1 PUSH2 0x41E5 SWAP2 SWAP1 PUSH2 0x49B4 JUMP JUMPDEST PUSH1 0x10 SLOAD PUSH1 0xB SLOAD PUSH1 0x40 MLOAD PUSH4 0x92DFDB3 PUSH1 0xE1 SHL DUP2 MSTORE PUSH1 0x1 PUSH1 0x1 PUSH1 0xA0 SHL SUB SWAP2 DUP3 AND PUSH1 0x4 DUP3 ADD MSTORE ADDRESS PUSH1 0x24 DUP3 ADD MSTORE PUSH1 0x44 DUP2 ADD DUP5 SWAP1 MSTORE SWAP3 SWAP4 POP AND SWAP1 PUSH4 0x125BFB66 SWAP1 PUSH1 0x64 ADD PUSH0 PUSH1 0x40 MLOAD DUP1 DUP4 SUB DUP2 PUSH0 DUP8 DUP1 EXTCODESIZE ISZERO DUP1 ISZERO PUSH2 0x423A JUMPI PUSH0 PUSH0 REVERT JUMPDEST POP GAS CALL ISZERO DUP1 ISZERO PUSH2 0x424C JUMPI RETURNDATASIZE PUSH0 PUSH0 RETURNDATACOPY RETURNDATASIZE PUSH0 REVERT JUMPDEST POP POP PUSH1 0xB SLOAD PUSH1 0x40 MLOAD PUSH4 0x95EA7B3 PUSH1 0xE0 SHL DUP2 MSTORE PUSH1 0x1 PUSH1 0x1 PUSH1 0xA0 SHL SUB SWAP1 SWAP2 AND SWAP3 POP PUSH4 0x95EA7B3 SWAP2 POP PUSH2 0x42A2 SWAP1 PUSH32 0x0 SWAP1 DUP6 SWAP1 PUSH1 0x4 ADD PUSH2 0x49CB JUMP JUMPDEST PUSH1 0x20 PUSH1 0x40 MLOAD DUP1 DUP4 SUB DUP2 PUSH0 DUP8 GAS CALL ISZERO DUP1 ISZERO PUSH2 0x42BE JUMPI RETURNDATASIZE PUSH0 PUSH0 RETURNDATACOPY RETURNDATASIZE PUSH0 REVERT JUMPDEST POP POP POP POP PUSH1 0x40 MLOAD RETURNDATASIZE PUSH1 0x1F NOT PUSH1 0x1F DUP3 ADD AND DUP3 ADD DUP1 PUSH1 0x40 MSTORE POP DUP2 ADD SWAP1 PUSH2 0x42E2 SWAP2 SWAP1 PUSH2 0x49E4 JUMP JUMPDEST POP PUSH1 0xB SLOAD PUSH1 0x40 MLOAD PUSH3 0xE8E337 PUSH1 0xE8 SHL DUP2 MSTORE PUSH1 0x1 PUSH1 0x1 PUSH1 0xA0 SHL SUB SWAP2 DUP3 AND PUSH1 0x4 DUP3 ADD MSTORE ADDRESS PUSH1 0x24 DUP3 ADD DUP2 SWAP1 MSTORE PUSH1 0x44 DUP3 ADD DUP5 SWAP1 MSTORE PUSH1 0x64 DUP3 ADD DUP7 SWAP1 MSTORE PUSH0 PUSH1 0x84 DUP4 ADD DUP2 SWAP1 MSTORE PUSH1 0xA4 DUP4 ADD MSTORE PUSH1 0xC4 DUP3 ADD MSTORE TIMESTAMP PUSH1 0xE4 DUP3 ADD MSTORE PUSH32 0x0 SWAP1 SWAP2 AND SWAP1 PUSH4 0xE8E33700 SWAP1 PUSH2 0x104 ADD PUSH1 0x60 PUSH1 0x40 MLOAD DUP1 DUP4 SUB DUP2 PUSH0 DUP8 GAS CALL ISZERO DUP1 ISZERO PUSH2 0x437B JUMPI RETURNDATASIZE PUSH0 PUSH0 RETURNDATACOPY RETURNDATASIZE PUSH0 REVERT JUMPDEST POP POP POP POP PUSH1 0x40 MLOAD RETURNDATASIZE PUSH1 0x1F NOT PUSH1 0x1F DUP3 ADD AND DUP3 ADD DUP1 PUSH1 0x40 MSTORE POP DUP2 ADD SWAP1 PUSH2 0x439F SWAP2 SWAP1 PUSH2 0x48E5 JUMP JUMPDEST SWAP8 SWAP7 POP POP POP POP POP POP POP JUMP JUMPDEST PUSH1 0x1 PUSH1 0x1 PUSH1 0xA0 SHL SUB DUP1 DUP4 AND PUSH0 SWAP1 DUP2 MSTORE PUSH1 0xA PUSH1 0x20 SWAP1 DUP2 MSTORE PUSH1 0x40 DUP1 DUP4 KECCAK256 DUP2 MLOAD PUSH2 0x160 DUP2 ADD DUP4 MSTORE DUP2 SLOAD SWAP1 SWAP6 AND DUP1 DUP7 MSTORE PUSH1 0x1 DUP1 DUP4 ADD SLOAD SWAP5 DUP8 ADD SWAP5 SWAP1 SWAP5 MSTORE PUSH1 0x2 DUP3 ADD SLOAD SWAP3 DUP7 ADD SWAP3 SWAP1 SWAP3 MSTORE PUSH1 0x3 DUP2 ADD SLOAD PUSH1 0x60 DUP7 ADD MSTORE PUSH1 0x4 DUP2 ADD SLOAD PUSH1 0x80 DUP7 ADD MSTORE PUSH1 0x5 DUP2 ADD SLOAD PUSH1 0xA0 DUP7 ADD MSTORE PUSH1 0x6 DUP2 ADD SLOAD PUSH1 0xC0 DUP7 ADD MSTORE PUSH1 0x7 DUP2 ADD SLOAD PUSH1 0xE0 DUP7 ADD MSTORE PUSH1 0x8 DUP2 ADD SLOAD PUSH2 0x100 DUP1 DUP8 ADD SWAP2 SWAP1 SWAP2 MSTORE PUSH1 0x9 SWAP1 SWAP2 ADD SLOAD PUSH1 0xFF DUP1 DUP3 AND ISZERO ISZERO PUSH2 0x120 DUP9 ADD MSTORE SWAP2 SWAP1 DIV AND ISZERO ISZERO PUSH2 0x140 DUP6 ADD MSTORE SWAP2 SWAP3 SWAP2 SWAP1 PUSH1 0x14 JUMPDEST PUSH1 0x1 PUSH1 0x1 PUSH1 0xA0 SHL SUB DUP4 AND ISZERO DUP1 ISZERO SWAP1 PUSH2 0x446E JUMPI POP DUP1 DUP3 GT ISZERO JUMPDEST ISZERO PUSH2 0x4570 JUMPI PUSH0 PUSH2 0x447D DUP4 PUSH2 0x128A JUMP JUMPDEST SWAP1 POP PUSH0 PUSH1 0x64 PUSH2 0x448C DUP4 DUP11 PUSH2 0x460E JUMP JUMPDEST PUSH2 0x4496 SWAP2 SWAP1 PUSH2 0x4639 JUMP JUMPDEST SWAP1 POP DUP1 ISZERO PUSH2 0x453F JUMPI PUSH1 0x1 PUSH1 0x1 PUSH1 0xA0 SHL SUB DUP6 AND PUSH0 SWAP1 DUP2 MSTORE PUSH1 0xA PUSH1 0x20 MSTORE PUSH1 0x40 SWAP1 KECCAK256 PUSH1 0x7 ADD SLOAD DUP5 GT PUSH2 0x453F JUMPI PUSH1 0x6 SLOAD PUSH1 0x40 MLOAD PUSH4 0xA9059CBB PUSH1 0xE0 SHL DUP2 MSTORE PUSH1 0x1 PUSH1 0x1 PUSH1 0xA0 SHL SUB SWAP1 SWAP2 AND SWAP1 PUSH4 0xA9059CBB SWAP1 PUSH2 0x44F1 SWAP1 DUP9 SWAP1 DUP6 SWAP1 PUSH1 0x4 ADD PUSH2 0x49CB JUMP JUMPDEST PUSH1 0x20 PUSH1 0x40 MLOAD DUP1 DUP4 SUB DUP2 PUSH0 DUP8 GAS CALL ISZERO DUP1 ISZERO PUSH2 0x450D JUMPI RETURNDATASIZE PUSH0 PUSH0 RETURNDATACOPY RETURNDATASIZE PUSH0 REVERT JUMPDEST POP POP POP POP PUSH1 0x40 MLOAD RETURNDATASIZE PUSH1 0x1F NOT PUSH1 0x1F DUP3 ADD AND DUP3 ADD DUP1 PUSH1 0x40 MSTORE POP DUP2 ADD SWAP1 PUSH2 0x4531 SWAP2 SWAP1 PUSH2 0x49E4 JUMP JUMPDEST POP PUSH2 0x453C DUP2 DUP9 PUSH2 0x45FB JUMP JUMPDEST SWAP7 POP JUMPDEST PUSH1 0x1 PUSH1 0x1 PUSH1 0xA0 SHL SUB SWAP5 DUP6 AND PUSH0 SWAP1 DUP2 MSTORE PUSH1 0xA PUSH1 0x20 MSTORE PUSH1 0x40 SWAP1 KECCAK256 SLOAD SWAP1 SWAP5 AND SWAP4 DUP4 PUSH2 0x4566 DUP2 PUSH2 0x4BAD JUMP JUMPDEST SWAP5 POP POP POP POP PUSH2 0x4456 JUMP JUMPDEST POP POP POP POP SWAP3 SWAP2 POP POP JUMP JUMPDEST PUSH0 PUSH1 0x3 DUP3 GT ISZERO PUSH2 0x45D9 JUMPI POP DUP1 PUSH0 PUSH2 0x4592 PUSH1 0x2 DUP4 PUSH2 0x4639 JUMP JUMPDEST PUSH2 0x459D SWAP1 PUSH1 0x1 PUSH2 0x45FB JUMP JUMPDEST SWAP1 POP JUMPDEST DUP2 DUP2 LT ISZERO PUSH2 0x45D3 JUMPI SWAP1 POP DUP1 PUSH1 0x2 DUP2 PUSH2 0x45B8 DUP2 DUP7 PUSH2 0x4639 JUMP JUMPDEST PUSH2 0x45C2 SWAP2 SWAP1 PUSH2 0x45FB JUMP JUMPDEST PUSH2 0x45CC SWAP2 SWAP1 PUSH2 0x4639 JUMP JUMPDEST SWAP1 POP PUSH2 0x45A0 JUMP JUMPDEST POP SWAP2 SWAP1 POP JUMP JUMPDEST DUP2 ISZERO PUSH2 0x3712 JUMPI POP PUSH1 0x1 SWAP2 SWAP1 POP JUMP JUMPDEST PUSH4 0x4E487B71 PUSH1 0xE0 SHL PUSH0 MSTORE PUSH1 0x11 PUSH1 0x4 MSTORE PUSH1 0x24 PUSH0 REVERT JUMPDEST DUP1 DUP3 ADD DUP1 DUP3 GT ISZERO PUSH2 0x1133 JUMPI PUSH2 0x1133 PUSH2 0x45E7 JUMP JUMPDEST DUP1 DUP3 MUL DUP2 ISZERO DUP3 DUP3 DIV DUP5 EQ OR PUSH2 0x1133 JUMPI PUSH2 0x1133 PUSH2 0x45E7 JUMP JUMPDEST PUSH4 0x4E487B71 PUSH1 0xE0 SHL PUSH0 MSTORE PUSH1 0x12 PUSH1 0x4 MSTORE PUSH1 0x24 PUSH0 REVERT JUMPDEST PUSH0 DUP3 PUSH2 0x4647 JUMPI PUSH2 0x4647 PUSH2 0x4625 JUMP JUMPDEST POP DIV SWAP1 JUMP JUMPDEST DUP2 DUP2 SUB DUP2 DUP2 GT ISZERO PUSH2 0x1133 JUMPI PUSH2 0x1133 PUSH2 0x45E7 JUMP JUMPDEST PUSH1 0x20 DUP2 MSTORE PUSH0 DUP3 MLOAD DUP1 PUSH1 0x20 DUP5 ADD MSTORE DUP1 PUSH1 0x20 DUP6 ADD PUSH1 0x40 DUP6 ADD MCOPY PUSH0 PUSH1 0x40 DUP3 DUP6 ADD ADD MSTORE PUSH1 0x40 PUSH1 0x1F NOT PUSH1 0x1F DUP4 ADD AND DUP5 ADD ADD SWAP2 POP POP SWAP3 SWAP2 POP POP JUMP JUMPDEST PUSH1 0x1 PUSH1 0x1 PUSH1 0xA0 SHL SUB DUP2 AND DUP2 EQ PUSH2 0x1B69 JUMPI PUSH0 PUSH0 REVERT JUMPDEST PUSH0 PUSH0 PUSH1 0x40 DUP4 DUP6 SUB SLT ISZERO PUSH2 0x46B9 JUMPI PUSH0 PUSH0 REVERT JUMPDEST DUP3 CALLDATALOAD PUSH2 0x46C4 DUP2 PUSH2 0x4694 JUMP JUMPDEST SWAP5 PUSH1 0x20 SWAP4 SWAP1 SWAP4 ADD CALLDATALOAD SWAP4 POP POP POP JUMP JUMPDEST PUSH0 PUSH0 PUSH0 PUSH1 0x60 DUP5 DUP7 SUB SLT ISZERO PUSH2 0x46E4 JUMPI PUSH0 PUSH0 REVERT JUMPDEST DUP4 CALLDATALOAD PUSH2 0x46EF DUP2 PUSH2 0x4694 JUMP JUMPDEST SWAP3 POP PUSH1 0x20 DUP5 ADD CALLDATALOAD PUSH2 0x46FF DUP2 PUSH2 0x4694 JUMP JUMPDEST SWAP3 SWAP6 SWAP3 SWAP5 POP POP POP PUSH1 0x40 SWAP2 SWAP1 SWAP2 ADD CALLDATALOAD SWAP1 JUMP JUMPDEST PUSH0 PUSH1 0x20 DUP3 DUP5 SUB SLT ISZERO PUSH2 0x4720 JUMPI PUSH0 PUSH0 REVERT JUMPDEST DUP2 CALLDATALOAD PUSH2 0x1DDA DUP2 PUSH2 0x4694 JUMP JUMPDEST PUSH0 PUSH1 0x20 DUP3 DUP5 SUB SLT ISZERO PUSH2 0x473B JUMPI PUSH0 PUSH0 REVERT JUMPDEST POP CALLDATALOAD SWAP2 SWAP1 POP JUMP JUMPDEST PUSH0 DUP2 MLOAD DUP1 DUP5 MSTORE PUSH1 0x20 DUP5 ADD SWAP4 POP PUSH1 0x20 DUP4 ADD PUSH0 JUMPDEST DUP3 DUP2 LT ISZERO PUSH2 0x477B JUMPI DUP2 MLOAD PUSH1 0x1 PUSH1 0x1 PUSH1 0xA0 SHL SUB AND DUP7 MSTORE PUSH1 0x20 SWAP6 DUP7 ADD SWAP6 SWAP1 SWAP2 ADD SWAP1 PUSH1 0x1 ADD PUSH2 0x4754 JUMP JUMPDEST POP SWAP4 SWAP5 SWAP4 POP POP POP POP JUMP JUMPDEST PUSH1 0x20 DUP2 MSTORE PUSH0 PUSH2 0x1DDA PUSH1 0x20 DUP4 ADD DUP5 PUSH2 0x4742 JUMP JUMPDEST DUP1 ISZERO ISZERO DUP2 EQ PUSH2 0x1B69 JUMPI PUSH0 PUSH0 REVERT JUMPDEST PUSH0 PUSH0 PUSH1 0x40 DUP4 DUP6 SUB SLT ISZERO PUSH2 0x47B5 JUMPI PUSH0 PUSH0 REVERT JUMPDEST DUP3 CALLDATALOAD PUSH2 0x47C0 DUP2 PUSH2 0x4694 JUMP JUMPDEST SWAP2 POP PUSH1 0x20 DUP4 ADD CALLDATALOAD PUSH2 0x47D0 DUP2 PUSH2 0x4797 JUMP JUMPDEST DUP1 SWAP2 POP POP SWAP3 POP SWAP3 SWAP1 POP JUMP JUMPDEST PUSH0 PUSH0 PUSH0 PUSH1 0x40 DUP5 DUP7 SUB SLT ISZERO PUSH2 0x47ED JUMPI PUSH0 PUSH0 REVERT JUMPDEST DUP4 CALLDATALOAD PUSH8 0xFFFFFFFFFFFFFFFF DUP2 GT ISZERO PUSH2 0x4803 JUMPI PUSH0 PUSH0 REVERT JUMPDEST DUP5 ADD PUSH1 0x1F DUP2 ADD DUP7 SGT PUSH2 0x4813 JUMPI PUSH0 PUSH0 REVERT JUMPDEST DUP1 CALLDATALOAD PUSH8 0xFFFFFFFFFFFFFFFF DUP2 GT ISZERO PUSH2 0x4829 JUMPI PUSH0 PUSH0 REVERT JUMPDEST DUP7 PUSH1 0x20 DUP3 PUSH1 0x5 SHL DUP5 ADD ADD GT ISZERO PUSH2 0x483D JUMPI PUSH0 PUSH0 REVERT JUMPDEST PUSH1 0x20 SWAP2 DUP3 ADD SWAP5 POP SWAP3 POP DUP5 ADD CALLDATALOAD PUSH2 0x4852 DUP2 PUSH2 0x4797 JUMP JUMPDEST DUP1 SWAP2 POP POP SWAP3 POP SWAP3 POP SWAP3 JUMP JUMPDEST PUSH0 PUSH0 PUSH1 0x40 DUP4 DUP6 SUB SLT ISZERO PUSH2 0x486E JUMPI PUSH0 PUSH0 REVERT JUMPDEST DUP3 CALLDATALOAD PUSH2 0x4879 DUP2 PUSH2 0x4694 JUMP JUMPDEST SWAP2 POP PUSH1 0x20 DUP4 ADD CALLDATALOAD PUSH2 0x47D0 DUP2 PUSH2 0x4694 JUMP JUMPDEST PUSH4 0x4E487B71 PUSH1 0xE0 SHL PUSH0 MSTORE PUSH1 0x41 PUSH1 0x4 MSTORE PUSH1 0x24 PUSH0 REVERT JUMPDEST PUSH4 0x4E487B71 PUSH1 0xE0 SHL PUSH0 MSTORE PUSH1 0x32 PUSH1 0x4 MSTORE PUSH1 0x24 PUSH0 REVERT JUMPDEST DUP5 DUP2 MSTORE PUSH1 0x80 PUSH1 0x20 DUP3 ADD MSTORE PUSH0 PUSH2 0x48C9 PUSH1 0x80 DUP4 ADD DUP7 PUSH2 0x4742 JUMP JUMPDEST PUSH1 0x1 PUSH1 0x1 PUSH1 0xA0 SHL SUB SWAP5 SWAP1 SWAP5 AND PUSH1 0x40 DUP4 ADD MSTORE POP PUSH1 0x60 ADD MSTORE SWAP3 SWAP2 POP POP JUMP JUMPDEST PUSH0 PUSH0 PUSH0 PUSH1 0x60 DUP5 DUP7 SUB SLT ISZERO PUSH2 0x48F7 JUMPI PUSH0 PUSH0 REVERT JUMPDEST POP POP DUP2 MLOAD PUSH1 0x20 DUP4 ADD MLOAD PUSH1 0x40 SWAP1 SWAP4 ADD MLOAD SWAP1 SWAP5 SWAP3 SWAP4 POP SWAP2 SWAP1 POP JUMP JUMPDEST PUSH1 0x1 DUP2 DUP2 SHR SWAP1 DUP3 AND DUP1 PUSH2 0x4924 JUMPI PUSH1 0x7F DUP3 AND SWAP2 POP JUMPDEST PUSH1 0x20 DUP3 LT DUP2 SUB PUSH2 0x45D3 JUMPI PUSH4 0x4E487B71 PUSH1 0xE0 SHL PUSH0 MSTORE PUSH1 0x22 PUSH1 0x4 MSTORE PUSH1 0x24 PUSH0 REVERT JUMPDEST DUP1 MLOAD PUSH1 0x1 PUSH1 0x1 PUSH1 0x70 SHL SUB DUP2 AND DUP2 EQ PUSH2 0x3712 JUMPI PUSH0 PUSH0 REVERT JUMPDEST PUSH0 PUSH0 PUSH0 PUSH1 0x60 DUP5 DUP7 SUB SLT ISZERO PUSH2 0x496A JUMPI PUSH0 PUSH0 REVERT JUMPDEST PUSH2 0x4973 DUP5 PUSH2 0x4942 JUMP JUMPDEST SWAP3 POP PUSH2 0x4981 PUSH1 0x20 DUP6 ADD PUSH2 0x4942 JUMP JUMPDEST SWAP2 POP PUSH1 0x40 DUP5 ADD MLOAD PUSH4 0xFFFFFFFF DUP2 AND DUP2 EQ PUSH2 0x4852 JUMPI PUSH0 PUSH0 REVERT JUMPDEST PUSH0 PUSH1 0x20 DUP3 DUP5 SUB SLT ISZERO PUSH2 0x49A9 JUMPI PUSH0 PUSH0 REVERT JUMPDEST DUP2 MLOAD PUSH2 0x1DDA DUP2 PUSH2 0x4694 JUMP JUMPDEST PUSH0 PUSH1 0x20 DUP3 DUP5 SUB SLT ISZERO PUSH2 0x49C4 JUMPI PUSH0 PUSH0 REVERT JUMPDEST POP MLOAD SWAP2 SWAP1 POP JUMP JUMPDEST PUSH1 0x1 PUSH1 0x1 PUSH1 0xA0 SHL SUB SWAP3 SWAP1 SWAP3 AND DUP3 MSTORE PUSH1 0x20 DUP3 ADD MSTORE PUSH1 0x40 ADD SWAP1 JUMP JUMPDEST PUSH0 PUSH1 0x20 DUP3 DUP5 SUB SLT ISZERO PUSH2 0x49F4 JUMPI PUSH0 PUSH0 REVERT JUMPDEST DUP2 MLOAD PUSH2 0x1DDA DUP2 PUSH2 0x4797 JUMP JUMPDEST PUSH0 PUSH1 0xFF DUP3 AND PUSH1 0xFF DUP2 SUB PUSH2 0x4A14 JUMPI PUSH2 0x4A14 PUSH2 0x45E7 JUMP JUMPDEST PUSH1 0x1 ADD SWAP3 SWAP2 POP POP JUMP JUMPDEST PUSH1 0x20 DUP1 DUP3 MSTORE PUSH1 0x9 SWAP1 DUP3 ADD MSTORE PUSH9 0x737461727454696D65 PUSH1 0xB8 SHL PUSH1 0x40 DUP3 ADD MSTORE PUSH1 0x60 ADD SWAP1 JUMP JUMPDEST PUSH0 DUP3 PUSH2 0x4A4E JUMPI PUSH2 0x4A4E PUSH2 0x4625 JUMP JUMPDEST POP MOD SWAP1 JUMP JUMPDEST PUSH0 PUSH1 0xFF DUP4 AND DUP1 PUSH2 0x4A65 JUMPI PUSH2 0x4A65 PUSH2 0x4625 JUMP JUMPDEST DUP1 PUSH1 0xFF DUP5 AND MOD SWAP2 POP POP SWAP3 SWAP2 POP POP JUMP JUMPDEST DUP6 DUP2 MSTORE DUP5 PUSH1 0x20 DUP3 ADD MSTORE PUSH1 0xA0 PUSH1 0x40 DUP3 ADD MSTORE PUSH0 PUSH2 0x4A92 PUSH1 0xA0 DUP4 ADD DUP7 PUSH2 0x4742 JUMP JUMPDEST PUSH1 0x1 PUSH1 0x1 PUSH1 0xA0 SHL SUB SWAP5 SWAP1 SWAP5 AND PUSH1 0x60 DUP4 ADD MSTORE POP PUSH1 0x80 ADD MSTORE SWAP4 SWAP3 POP POP POP JUMP JUMPDEST DUP3 DUP2 MSTORE PUSH1 0x40 PUSH1 0x20 DUP3 ADD MSTORE PUSH0 PUSH2 0x4AC7 PUSH1 0x40 DUP4 ADD DUP5 PUSH2 0x4742 JUMP JUMPDEST SWAP5 SWAP4 POP POP POP POP JUMP JUMPDEST PUSH0 PUSH1 0x20 DUP3 DUP5 SUB SLT ISZERO PUSH2 0x4ADF JUMPI PUSH0 PUSH0 REVERT JUMPDEST DUP2 MLOAD PUSH8 0xFFFFFFFFFFFFFFFF DUP2 GT ISZERO PUSH2 0x4AF5 JUMPI PUSH0 PUSH0 REVERT JUMPDEST DUP3 ADD PUSH1 0x1F DUP2 ADD DUP5 SGT PUSH2 0x4B05 JUMPI PUSH0 PUSH0 REVERT JUMPDEST DUP1 MLOAD PUSH8 0xFFFFFFFFFFFFFFFF DUP2 GT ISZERO PUSH2 0x4B1F JUMPI PUSH2 0x4B1F PUSH2 0x4889 JUMP JUMPDEST DUP1 PUSH1 0x5 SHL PUSH1 0x40 MLOAD PUSH1 0x1F NOT PUSH1 0x3F DUP4 ADD AND DUP2 ADD DUP2 DUP2 LT PUSH8 0xFFFFFFFFFFFFFFFF DUP3 GT OR ISZERO PUSH2 0x4B4C JUMPI PUSH2 0x4B4C PUSH2 0x4889 JUMP JUMPDEST PUSH1 0x40 MSTORE SWAP2 DUP3 MSTORE PUSH1 0x20 DUP2 DUP5 ADD DUP2 ADD SWAP3 SWAP1 DUP2 ADD DUP8 DUP5 GT ISZERO PUSH2 0x4B69 JUMPI PUSH0 PUSH0 REVERT JUMPDEST PUSH1 0x20 DUP6 ADD SWAP5 POP JUMPDEST DUP4 DUP6 LT ISZERO PUSH2 0x4B8C JUMPI DUP5 MLOAD DUP1 DUP3 MSTORE PUSH1 0x20 SWAP6 DUP7 ADD SWAP6 SWAP1 SWAP4 POP ADD PUSH2 0x4B70 JUMP JUMPDEST POP SWAP7 SWAP6 POP POP POP POP POP POP JUMP JUMPDEST PUSH0 DUP3 MLOAD DUP1 PUSH1 0x20 DUP6 ADD DUP5 MCOPY PUSH0 SWAP3 ADD SWAP2 DUP3 MSTORE POP SWAP2 SWAP1 POP JUMP JUMPDEST PUSH0 PUSH1 0x1 DUP3 ADD PUSH2 0x4BBE JUMPI PUSH2 0x4BBE PUSH2 0x45E7 JUMP JUMPDEST POP PUSH1 0x1 ADD SWAP1 JUMP INVALID LOG2 PUSH5 0x6970667358 0x22 SLT KECCAK256 STATICCALL 0xC4 0xB9 DUPN 0x4D RETURNCONTRACT 0x71 LOG3 CHAINID BYTE GASPRICE SELFDESTRUCT GASLIMIT BLOCKHASH PUSH25 0x38607B927C3BB203259C77E499DDD4177F64736F6C63430008 0x22 STOP CALLER PUSH1 0x80 PUSH1 0x40 MSTORE CALLVALUE DUP1 ISZERO PUSH1 0xE JUMPI PUSH0 PUSH0 REVERT JUMPDEST POP CALLER DUP1 PUSH1 0x33 JUMPI PUSH1 0x40 MLOAD PUSH4 0x1E4FBDF7 PUSH1 0xE0 SHL DUP2 MSTORE PUSH0 PUSH1 0x4 DUP3 ADD MSTORE PUSH1 0x24 ADD PUSH1 0x40 MLOAD DUP1 SWAP2 SUB SWAP1 REVERT JUMPDEST PUSH1 0x3A DUP2 PUSH1 0x5B JUMP JUMPDEST POP CALLER PUSH0 SWAP1 DUP2 MSTORE PUSH1 0x1 PUSH1 0x20 DUP2 SWAP1 MSTORE PUSH1 0x40 SWAP1 SWAP2 KECCAK256 DUP1 SLOAD PUSH1 0xFF NOT AND SWAP1 SWAP2 OR SWAP1 SSTORE PUSH1 0xAA JUMP JUMPDEST PUSH0 DUP1 SLOAD PUSH1 0x1 PUSH1 0x1 PUSH1 0xA0 SHL SUB DUP4 DUP2 AND PUSH1 0x1 PUSH1 0x1 PUSH1 0xA0 SHL SUB NOT DUP4 AND DUP2 OR DUP5 SSTORE PUSH1 0x40 MLOAD SWAP2 SWAP1 SWAP3 AND SWAP3 DUP4 SWAP2 PUSH32 0x8BE0079C531659141344CD1FD0A4F28419497F9722A3DAAFE3B4186F6B6457E0 SWAP2 SWAP1 LOG3 POP POP JUMP JUMPDEST PUSH2 0x44E DUP1 PUSH2 0xB7 PUSH0 CODECOPY PUSH0 RETURN INVALID PUSH1 0x80 PUSH1 0x40 MSTORE CALLVALUE DUP1 ISZERO PUSH2 0xF JUMPI PUSH0 PUSH0 REVERT JUMPDEST POP PUSH1 0x4 CALLDATASIZE LT PUSH2 0x60 JUMPI PUSH0 CALLDATALOAD PUSH1 0xE0 SHR DUP1 PUSH4 0x125BFB66 EQ PUSH2 0x64 JUMPI DUP1 PUSH4 0x172979E4 EQ PUSH2 0x79 JUMPI DUP1 PUSH4 0x715018A6 EQ PUSH2 0xB0 JUMPI DUP1 PUSH4 0x8D14E127 EQ PUSH2 0xB8 JUMPI DUP1 PUSH4 0x8DA5CB5B EQ PUSH2 0xCB JUMPI DUP1 PUSH4 0xF2FDE38B EQ PUSH2 0xE5 JUMPI JUMPDEST PUSH0 PUSH0 REVERT JUMPDEST PUSH2 0x77 PUSH2 0x72 CALLDATASIZE PUSH1 0x4 PUSH2 0x362 JUMP JUMPDEST PUSH2 0xF8 JUMP JUMPDEST STOP JUMPDEST PUSH2 0x9B PUSH2 0x87 CALLDATASIZE PUSH1 0x4 PUSH2 0x39B JUMP JUMPDEST PUSH1 0x1 PUSH1 0x20 MSTORE PUSH0 SWAP1 DUP2 MSTORE PUSH1 0x40 SWAP1 KECCAK256 SLOAD PUSH1 0xFF AND DUP2 JUMP JUMPDEST PUSH1 0x40 MLOAD SWAP1 ISZERO ISZERO DUP2 MSTORE PUSH1 0x20 ADD JUMPDEST PUSH1 0x40 MLOAD DUP1 SWAP2 SUB SWAP1 RETURN JUMPDEST PUSH2 0x77 PUSH2 0x216 JUMP JUMPDEST PUSH2 0x77 PUSH2 0xC6 CALLDATASIZE PUSH1 0x4 PUSH2 0x3C8 JUMP JUMPDEST PUSH2 0x229 JUMP JUMPDEST PUSH0 SLOAD PUSH1 0x40 MLOAD PUSH1 0x1 PUSH1 0x1 PUSH1 0xA0 SHL SUB SWAP1 SWAP2 AND DUP2 MSTORE PUSH1 0x20 ADD PUSH2 0xA7 JUMP JUMPDEST PUSH2 0x77 PUSH2 0xF3 CALLDATASIZE PUSH1 0x4 PUSH2 0x39B JUMP JUMPDEST PUSH2 0x28F JUMP JUMPDEST CALLER PUSH0 SWAP1 DUP2 MSTORE PUSH1 0x1 PUSH1 0x20 MSTORE PUSH1 0x40 SWAP1 KECCAK256 SLOAD PUSH1 0xFF AND PUSH2 0x153 JUMPI PUSH1 0x40 MLOAD PUSH3 0x461BCD PUSH1 0xE5 SHL DUP2 MSTORE PUSH1 0x20 PUSH1 0x4 DUP3 ADD MSTORE PUSH1 0x15 PUSH1 0x24 DUP3 ADD MSTORE PUSH21 0x141BDBDB0E881B9BDD081DDA1A5D195B1A5CDD1959 PUSH1 0x5A SHL PUSH1 0x44 DUP3 ADD MSTORE PUSH1 0x64 ADD JUMPDEST PUSH1 0x40 MLOAD DUP1 SWAP2 SUB SWAP1 REVERT JUMPDEST PUSH1 0x40 MLOAD PUSH4 0xA9059CBB PUSH1 0xE0 SHL DUP2 MSTORE PUSH1 0x1 PUSH1 0x1 PUSH1 0xA0 SHL SUB DUP4 DUP2 AND PUSH1 0x4 DUP4 ADD MSTORE PUSH1 0x24 DUP3 ADD DUP4 SWAP1 MSTORE DUP5 AND SWAP1 PUSH4 0xA9059CBB SWAP1 PUSH1 0x44 ADD PUSH1 0x20 PUSH1 0x40 MLOAD DUP1 DUP4 SUB DUP2 PUSH0 DUP8 GAS CALL ISZERO DUP1 ISZERO PUSH2 0x19F JUMPI RETURNDATASIZE PUSH0 PUSH0 RETURNDATACOPY RETURNDATASIZE PUSH0 REVERT JUMPDEST POP POP POP POP PUSH1 0x40 MLOAD RETURNDATASIZE PUSH1 0x1F NOT PUSH1 0x1F DUP3 ADD AND DUP3 ADD DUP1 PUSH1 0x40 MSTORE POP DUP2 ADD SWAP1 PUSH2 0x1C3 SWAP2 SWAP1 PUSH2 0x3FD JUMP JUMPDEST POP DUP2 PUSH1 0x1 PUSH1 0x1 PUSH1 0xA0 SHL SUB AND DUP4 PUSH1 0x1 PUSH1 0x1 PUSH1 0xA0 SHL SUB AND PUSH32 0xF7A40077FF7A04C7E61F6F26FB13774259DDF1B6BCE9ECF26A8276CDD3992683 DUP4 PUSH1 0x40 MLOAD PUSH2 0x209 SWAP2 DUP2 MSTORE PUSH1 0x20 ADD SWAP1 JUMP JUMPDEST PUSH1 0x40 MLOAD DUP1 SWAP2 SUB SWAP1 LOG3 POP POP POP JUMP JUMPDEST PUSH2 0x21E PUSH2 0x2CC JUMP JUMPDEST PUSH2 0x227 PUSH0 PUSH2 0x2F8 JUMP JUMPDEST JUMP JUMPDEST PUSH2 0x231 PUSH2 0x2CC JUMP JUMPDEST PUSH1 0x1 PUSH1 0x1 PUSH1 0xA0 SHL SUB DUP3 AND PUSH0 DUP2 DUP2 MSTORE PUSH1 0x1 PUSH1 0x20 SWAP1 DUP2 MSTORE PUSH1 0x40 SWAP2 DUP3 SWAP1 KECCAK256 DUP1 SLOAD PUSH1 0xFF NOT AND DUP6 ISZERO ISZERO SWAP1 DUP2 OR SWAP1 SWAP2 SSTORE SWAP2 MLOAD SWAP2 DUP3 MSTORE PUSH32 0xB1288E9F7BAE3599E10819D5553FEBEA48E11A6F8F585B32C8ABAD397DD2627E SWAP2 ADD PUSH1 0x40 MLOAD DUP1 SWAP2 SUB SWAP1 LOG2 POP POP JUMP JUMPDEST PUSH2 0x297 PUSH2 0x2CC JUMP JUMPDEST PUSH1 0x1 PUSH1 0x1 PUSH1 0xA0 SHL SUB DUP2 AND PUSH2 0x2C0 JUMPI PUSH1 0x40 MLOAD PUSH4 0x1E4FBDF7 PUSH1 0xE0 SHL DUP2 MSTORE PUSH0 PUSH1 0x4 DUP3 ADD MSTORE PUSH1 0x24 ADD PUSH2 0x14A JUMP JUMPDEST PUSH2 0x2C9 DUP2 PUSH2 0x2F8 JUMP JUMPDEST POP JUMP JUMPDEST PUSH0 SLOAD PUSH1 0x1 PUSH1 0x1 PUSH1 0xA0 SHL SUB AND CALLER EQ PUSH2 0x227 JUMPI PUSH1 0x40 MLOAD PUSH4 0x118CDAA7 PUSH1 0xE0 SHL DUP2 MSTORE CALLER PUSH1 0x4 DUP3 ADD MSTORE PUSH1 0x24 ADD PUSH2 0x14A JUMP JUMPDEST PUSH0 DUP1 SLOAD PUSH1 0x1 PUSH1 0x1 PUSH1 0xA0 SHL SUB DUP4 DUP2 AND PUSH1 0x1 PUSH1 0x1 PUSH1 0xA0 SHL SUB NOT DUP4 AND DUP2 OR DUP5 SSTORE PUSH1 0x40 MLOAD SWAP2 SWAP1 SWAP3 AND SWAP3 DUP4 SWAP2 PUSH32 0x8BE0079C531659141344CD1FD0A4F28419497F9722A3DAAFE3B4186F6B6457E0 SWAP2 SWAP1 LOG3 POP POP JUMP JUMPDEST DUP1 CALLDATALOAD PUSH1 0x1 PUSH1 0x1 PUSH1 0xA0 SHL SUB DUP2 AND DUP2 EQ PUSH2 0x35D JUMPI PUSH0 PUSH0 REVERT JUMPDEST SWAP2 SWAP1 POP JUMP JUMPDEST PUSH0 PUSH0 PUSH0 PUSH1 0x60 DUP5 DUP7 SUB SLT ISZERO PUSH2 0x374 JUMPI PUSH0 PUSH0 REVERT JUMPDEST PUSH2 0x37D DUP5 PUSH2 0x347 JUMP JUMPDEST SWAP3 POP PUSH2 0x38B PUSH1 0x20 DUP6 ADD PUSH2 0x347 JUMP JUMPDEST SWAP2 POP PUSH1 0x40 DUP5 ADD CALLDATALOAD SWAP1 POP SWAP3 POP SWAP3 POP SWAP3 JUMP JUMPDEST PUSH0 PUSH1 0x20 DUP3 DUP5 SUB SLT ISZERO PUSH2 0x3AB JUMPI PUSH0 PUSH0 REVERT JUMPDEST PUSH2 0x3B4 DUP3 PUSH2 0x347 JUMP JUMPDEST SWAP4 SWAP3 POP POP POP JUMP JUMPDEST DUP1 ISZERO ISZERO DUP2 EQ PUSH2 0x2C9 JUMPI PUSH0 PUSH0 REVERT JUMPDEST PUSH0 PUSH0 PUSH1 0x40 DUP4 DUP6 SUB SLT ISZERO PUSH2 0x3D9 JUMPI PUSH0 PUSH0 REVERT JUMPDEST PUSH2 0x3E2 DUP4 PUSH2 0x347 JUMP JUMPDEST SWAP2 POP PUSH1 0x20 DUP4 ADD CALLDATALOAD PUSH2 0x3F2 DUP2 PUSH2 0x3BB JUMP JUMPDEST DUP1 SWAP2 POP POP SWAP3 POP SWAP3 SWAP1 POP JUMP JUMPDEST PUSH0 PUSH1 0x20 DUP3 DUP5 SUB SLT ISZERO PUSH2 0x40D JUMPI PUSH0 PUSH0 REVERT JUMPDEST DUP2 MLOAD PUSH2 0x3B4 DUP2 PUSH2 0x3BB JUMP INVALID LOG2 PUSH5 0x6970667358 0x22 SLT KECCAK256 OR PUSH31 0xB0AB5B21AB35515087C3F0350E4B822B01CC97BBE058EB9AB943547071BF64 PUSH20 0x6F6C634300082200334DAB1356CD0582FEB480A4 0xC9 SWAP15 SWAP6 0xBB PUSH17 0xC5D60B9B3F27D2CD27F5CCC64E6583E000 "
		},
		"gasEstimates": {
			"creation": {
				"codeDepositCost": "3890200",
				"executionCost": "infinite",
				"totalCost": "infinite"
			},
			"external": {
				"FUSE_THRESHOLD()": "2405",
				"GAME_STOP_THRESHOLD()": "308",
				"HASH_GAME_MAX()": "285",
				"HASH_GAME_MIN()": "284",
				"MIN_AMOUNT()": "2361",
				"USDT()": "305",
				"WBNB()": "2426",
				"_uniswapPair()": "2426",
				"_uniswapV2Router()": "infinite",
				"allowance(address,address)": "infinite",
				"antiDumpMode()": "2366",
				"approve(address,uint256)": "24785",
				"balanceOf(address)": "2642",
				"batchSetWhitelist(address[],bool)": "infinite",
				"calculateRewardRates()": "infinite",
				"calculateStaticReward(address)": "infinite",
				"decimals()": "288",
				"dividendDistributor()": "2469",
				"feeAddress()": "2449",
				"fundAddress()": "2447",
				"fundRewardTotal()": "2407",
				"fused()": "2383",
				"fusing()": "infinite",
				"gameStopped()": "2368",
				"getCirculation()": "4583",
				"getDynamicRewardRate(uint256)": "560",
				"getPoolTokenAmount()": "infinite",
				"getUpsChildList(address)": "infinite",
				"getUserStatus(address)": "21919",
				"getWithdrawPenaltyRate()": "infinite",
				"isCanBindInviter(address,address)": "infinite",
				"lastPrice()": "2386",
				"lastPriceUpdateDay()": "2363",
				"mainNFT()": "2404",
				"name()": "infinite",
				"nft()": "2470",
				"nftRewardTotal()": "2361",
				"owner()": "2398",
				"pool()": "2471",
				"preUps(address,address)": "infinite",
				"renounceOwnership()": "infinite",
				"sediment()": "infinite",
				"setDividendDistributor(address)": "26861",
				"setMainSubNFT(address,address)": "infinite",
				"setNFT(address)": "26837",
				"setStartTime(uint256)": "46763",
				"setWhitelist(address,bool)": "infinite",
				"startTime()": "2363",
				"subNFT()": "2469",
				"symbol()": "infinite",
				"totalSupply()": "2382",
				"tradingOpenTime()": "2361",
				"transfer(address,uint256)": "infinite",
				"transferFrom(address,address,uint256)": "infinite",
				"transferOwnership(address)": "infinite",
				"users(address)": "21893",
				"usersBuyTime(address)": "2622",
				"whitelist(address)": "2579"
			},
			"internal": {
				"_distributeStaticReward(address,uint256,uint256,uint256)": "infinite",
				"_distributeToNFT(uint256)": "infinite",
				"_playHashGame(address,uint256)": "infinite",
				"_update(address,address,uint256)": "infinite",
				"_updateAntiDumpMode()": "infinite",
				"calculateDynamicReward(address,uint256)": "infinite",
				"distributeLPReward(uint256)": "infinite",
				"getBNBForTokenAmount(uint256)": "infinite",
				"getFeeLP(uint256,uint256,uint256)": "infinite",
				"isAddLiquidity(uint256)": "infinite",
				"isRemoveLiquidity()": "infinite",
				"min(uint256,uint256)": "60",
				"processStaticReward(address)": "infinite",
				"safeTransferETH(address,uint256)": "infinite",
				"sellFee()": "infinite",
				"sqrt(uint256)": "infinite",
				"swapAndAddLiquidity(uint256)": "infinite",
				"swapTokenAndAddLiquidity(uint256)": "infinite"
			}
		},
		"methodIdentifiers": {
			"FUSE_THRESHOLD()": "b4a2e463",
			"GAME_STOP_THRESHOLD()": "061e431c",
			"HASH_GAME_MAX()": "7c659472",
			"HASH_GAME_MIN()": "27b48142",
			"MIN_AMOUNT()": "ddbcb5fa",
			"USDT()": "c54e44eb",
			"WBNB()": "8dd95002",
			"_uniswapPair()": "4bf28fd0",
			"_uniswapV2Router()": "583e0568",
			"allowance(address,address)": "dd62ed3e",
			"antiDumpMode()": "42b10c59",
			"approve(address,uint256)": "095ea7b3",
			"balanceOf(address)": "70a08231",
			"batchSetWhitelist(address[],bool)": "a095e8f9",
			"calculateRewardRates()": "6d476a77",
			"calculateStaticReward(address)": "e8e8fe04",
			"decimals()": "313ce567",
			"dividendDistributor()": "bad3ea6a",
			"feeAddress()": "41275358",
			"fundAddress()": "e82bef29",
			"fundRewardTotal()": "7f054455",
			"fused()": "2529d1a3",
			"fusing()": "47ab459c",
			"gameStopped()": "0430e405",
			"getCirculation()": "bf151cb8",
			"getDynamicRewardRate(uint256)": "3d471d57",
			"getPoolTokenAmount()": "09d46746",
			"getUpsChildList(address)": "440b30e7",
			"getUserStatus(address)": "ea0d5dcd",
			"getWithdrawPenaltyRate()": "94a28097",
			"isCanBindInviter(address,address)": "d1227343",
			"lastPrice()": "053f14da",
			"lastPriceUpdateDay()": "177ae044",
			"mainNFT()": "48e66c04",
			"name()": "06fdde03",
			"nft()": "47ccca02",
			"nftRewardTotal()": "cca3c5ff",
			"owner()": "8da5cb5b",
			"pool()": "16f0115b",
			"preUps(address,address)": "fd36e3c6",
			"renounceOwnership()": "715018a6",
			"sediment()": "c82c3cbf",
			"setDividendDistributor(address)": "32516d48",
			"setMainSubNFT(address,address)": "e16f3c59",
			"setNFT(address)": "f56e9c66",
			"setStartTime(uint256)": "3e0a322d",
			"setWhitelist(address,bool)": "53d6fd59",
			"startTime()": "78e97925",
			"subNFT()": "dd6c4398",
			"symbol()": "95d89b41",
			"totalSupply()": "18160ddd",
			"tradingOpenTime()": "5e2d0df1",
			"transfer(address,uint256)": "a9059cbb",
			"transferFrom(address,address,uint256)": "23b872dd",
			"transferOwnership(address)": "f2fde38b",
			"users(address)": "a87430ba",
			"usersBuyTime(address)": "a52ee3af",
			"whitelist(address)": "9b19251a"
		}
	},
	"abi": [
		{
			"inputs": [
				{
					"internalType": "address",
					"name": "user_",
					"type": "address"
				},
				{
					"internalType": "address",
					"name": "fund_",
					"type": "address"
				},
				{
					"internalType": "address",
					"name": "fee_",
					"type": "address"
				}
			],
			"stateMutability": "nonpayable",
			"type": "constructor"
		},
		{
			"inputs": [
				{
					"internalType": "address",
					"name": "spender",
					"type": "address"
				},
				{
					"internalType": "uint256",
					"name": "allowance",
					"type": "uint256"
				},
				{
					"internalType": "uint256",
					"name": "needed",
					"type": "uint256"
				}
			],
			"name": "ERC20InsufficientAllowance",
			"type": "error"
		},
		{
			"inputs": [
				{
					"internalType": "address",
					"name": "sender",
					"type": "address"
				},
				{
					"internalType": "uint256",
					"name": "balance",
					"type": "uint256"
				},
				{
					"internalType": "uint256",
					"name": "needed",
					"type": "uint256"
				}
			],
			"name": "ERC20InsufficientBalance",
			"type": "error"
		},
		{
			"inputs": [
				{
					"internalType": "address",
					"name": "approver",
					"type": "address"
				}
			],
			"name": "ERC20InvalidApprover",
			"type": "error"
		},
		{
			"inputs": [
				{
					"internalType": "address",
					"name": "receiver",
					"type": "address"
				}
			],
			"name": "ERC20InvalidReceiver",
			"type": "error"
		},
		{
			"inputs": [
				{
					"internalType": "address",
					"name": "sender",
					"type": "address"
				}
			],
			"name": "ERC20InvalidSender",
			"type": "error"
		},
		{
			"inputs": [
				{
					"internalType": "address",
					"name": "spender",
					"type": "address"
				}
			],
			"name": "ERC20InvalidSpender",
			"type": "error"
		},
		{
			"inputs": [],
			"name": "GameStopped",
			"type": "error"
		},
		{
			"inputs": [],
			"name": "InvalidTransfer",
			"type": "error"
		},
		{
			"inputs": [],
			"name": "NodeAlreadyExist",
			"type": "error"
		},
		{
			"inputs": [
				{
					"internalType": "address",
					"name": "owner",
					"type": "address"
				}
			],
			"name": "OwnableInvalidOwner",
			"type": "error"
		},
		{
			"inputs": [
				{
					"internalType": "address",
					"name": "account",
					"type": "address"
				}
			],
			"name": "OwnableUnauthorizedAccount",
			"type": "error"
		},
		{
			"anonymous": false,
			"inputs": [
				{
					"indexed": false,
					"internalType": "uint256",
					"name": "day",
					"type": "uint256"
				},
				{
					"indexed": false,
					"internalType": "uint256",
					"name": "priceDrop",
					"type": "uint256"
				}
			],
			"name": "AntiDumpTriggered",
			"type": "event"
		},
		{
			"anonymous": false,
			"inputs": [
				{
					"indexed": true,
					"internalType": "address",
					"name": "owner",
					"type": "address"
				},
				{
					"indexed": true,
					"internalType": "address",
					"name": "spender",
					"type": "address"
				},
				{
					"indexed": false,
					"internalType": "uint256",
					"name": "value",
					"type": "uint256"
				}
			],
			"name": "Approval",
			"type": "event"
		},
		{
			"anonymous": false,
			"inputs": [
				{
					"indexed": true,
					"internalType": "address",
					"name": "up",
					"type": "address"
				},
				{
					"indexed": true,
					"internalType": "address",
					"name": "down",
					"type": "address"
				}
			],
			"name": "BindEvent",
			"type": "event"
		},
		{
			"anonymous": false,
			"inputs": [
				{
					"indexed": true,
					"internalType": "address",
					"name": "player",
					"type": "address"
				},
				{
					"indexed": false,
					"internalType": "uint256",
					"name": "amount",
					"type": "uint256"
				},
				{
					"indexed": true,
					"internalType": "bool",
					"name": "win",
					"type": "bool"
				},
				{
					"indexed": false,
					"internalType": "uint256",
					"name": "payout",
					"type": "uint256"
				}
			],
			"name": "HashGamePlayed",
			"type": "event"
		},
		{
			"anonymous": false,
			"inputs": [
				{
					"indexed": true,
					"internalType": "address",
					"name": "invite",
					"type": "address"
				},
				{
					"indexed": false,
					"internalType": "uint256",
					"name": "amount",
					"type": "uint256"
				}
			],
			"name": "InvestEvent",
			"type": "event"
		},
		{
			"anonymous": false,
			"inputs": [
				{
					"indexed": true,
					"internalType": "address",
					"name": "previousOwner",
					"type": "address"
				},
				{
					"indexed": true,
					"internalType": "address",
					"name": "newOwner",
					"type": "address"
				}
			],
			"name": "OwnershipTransferred",
			"type": "event"
		},
		{
			"anonymous": false,
			"inputs": [
				{
					"indexed": true,
					"internalType": "address",
					"name": "from",
					"type": "address"
				},
				{
					"indexed": true,
					"internalType": "address",
					"name": "to",
					"type": "address"
				},
				{
					"indexed": false,
					"internalType": "uint256",
					"name": "value",
					"type": "uint256"
				}
			],
			"name": "Transfer",
			"type": "event"
		},
		{
			"inputs": [],
			"name": "FUSE_THRESHOLD",
			"outputs": [
				{
					"internalType": "uint256",
					"name": "",
					"type": "uint256"
				}
			],
			"stateMutability": "view",
			"type": "function"
		},
		{
			"inputs": [],
			"name": "GAME_STOP_THRESHOLD",
			"outputs": [
				{
					"internalType": "uint256",
					"name": "",
					"type": "uint256"
				}
			],
			"stateMutability": "view",
			"type": "function"
		},
		{
			"inputs": [],
			"name": "HASH_GAME_MAX",
			"outputs": [
				{
					"internalType": "uint256",
					"name": "",
					"type": "uint256"
				}
			],
			"stateMutability": "view",
			"type": "function"
		},
		{
			"inputs": [],
			"name": "HASH_GAME_MIN",
			"outputs": [
				{
					"internalType": "uint256",
					"name": "",
					"type": "uint256"
				}
			],
			"stateMutability": "view",
			"type": "function"
		},
		{
			"inputs": [],
			"name": "MIN_AMOUNT",
			"outputs": [
				{
					"internalType": "uint256",
					"name": "",
					"type": "uint256"
				}
			],
			"stateMutability": "view",
			"type": "function"
		},
		{
			"inputs": [],
			"name": "USDT",
			"outputs": [
				{
					"internalType": "address",
					"name": "",
					"type": "address"
				}
			],
			"stateMutability": "view",
			"type": "function"
		},
		{
			"inputs": [],
			"name": "WBNB",
			"outputs": [
				{
					"internalType": "address",
					"name": "",
					"type": "address"
				}
			],
			"stateMutability": "view",
			"type": "function"
		},
		{
			"inputs": [],
			"name": "_uniswapPair",
			"outputs": [
				{
					"internalType": "address",
					"name": "",
					"type": "address"
				}
			],
			"stateMutability": "view",
			"type": "function"
		},
		{
			"inputs": [],
			"name": "_uniswapV2Router",
			"outputs": [
				{
					"internalType": "contract IUniswapV2Router02",
					"name": "",
					"type": "address"
				}
			],
			"stateMutability": "view",
			"type": "function"
		},
		{
			"inputs": [
				{
					"internalType": "address",
					"name": "owner",
					"type": "address"
				},
				{
					"internalType": "address",
					"name": "spender",
					"type": "address"
				}
			],
			"name": "allowance",
			"outputs": [
				{
					"internalType": "uint256",
					"name": "",
					"type": "uint256"
				}
			],
			"stateMutability": "view",
			"type": "function"
		},
		{
			"inputs": [],
			"name": "antiDumpMode",
			"outputs": [
				{
					"internalType": "bool",
					"name": "",
					"type": "bool"
				}
			],
			"stateMutability": "view",
			"type": "function"
		},
		{
			"inputs": [
				{
					"internalType": "address",
					"name": "spender",
					"type": "address"
				},
				{
					"internalType": "uint256",
					"name": "value",
					"type": "uint256"
				}
			],
			"name": "approve",
			"outputs": [
				{
					"internalType": "bool",
					"name": "",
					"type": "bool"
				}
			],
			"stateMutability": "nonpayable",
			"type": "function"
		},
		{
			"inputs": [
				{
					"internalType": "address",
					"name": "account",
					"type": "address"
				}
			],
			"name": "balanceOf",
			"outputs": [
				{
					"internalType": "uint256",
					"name": "",
					"type": "uint256"
				}
			],
			"stateMutability": "view",
			"type": "function"
		},
		{
			"inputs": [
				{
					"internalType": "address[]",
					"name": "accounts",
					"type": "address[]"
				},
				{
					"internalType": "bool",
					"name": "status",
					"type": "bool"
				}
			],
			"name": "batchSetWhitelist",
			"outputs": [],
			"stateMutability": "nonpayable",
			"type": "function"
		},
		{
			"inputs": [],
			"name": "calculateRewardRates",
			"outputs": [
				{
					"internalType": "uint256",
					"name": "staticRate",
					"type": "uint256"
				},
				{
					"internalType": "uint256",
					"name": "dynamicRate",
					"type": "uint256"
				},
				{
					"internalType": "uint256",
					"name": "nftRate",
					"type": "uint256"
				},
				{
					"internalType": "uint256",
					"name": "projectRate",
					"type": "uint256"
				}
			],
			"stateMutability": "view",
			"type": "function"
		},
		{
			"inputs": [
				{
					"internalType": "address",
					"name": "user",
					"type": "address"
				}
			],
			"name": "calculateStaticReward",
			"outputs": [
				{
					"internalType": "uint256",
					"name": "",
					"type": "uint256"
				}
			],
			"stateMutability": "view",
			"type": "function"
		},
		{
			"inputs": [],
			"name": "decimals",
			"outputs": [
				{
					"internalType": "uint8",
					"name": "",
					"type": "uint8"
				}
			],
			"stateMutability": "view",
			"type": "function"
		},
		{
			"inputs": [],
			"name": "dividendDistributor",
			"outputs": [
				{
					"internalType": "address",
					"name": "",
					"type": "address"
				}
			],
			"stateMutability": "view",
			"type": "function"
		},
		{
			"inputs": [],
			"name": "feeAddress",
			"outputs": [
				{
					"internalType": "address",
					"name": "",
					"type": "address"
				}
			],
			"stateMutability": "view",
			"type": "function"
		},
		{
			"inputs": [],
			"name": "fundAddress",
			"outputs": [
				{
					"internalType": "address",
					"name": "",
					"type": "address"
				}
			],
			"stateMutability": "view",
			"type": "function"
		},
		{
			"inputs": [],
			"name": "fundRewardTotal",
			"outputs": [
				{
					"internalType": "uint256",
					"name": "",
					"type": "uint256"
				}
			],
			"stateMutability": "view",
			"type": "function"
		},
		{
			"inputs": [],
			"name": "fused",
			"outputs": [
				{
					"internalType": "bool",
					"name": "",
					"type": "bool"
				}
			],
			"stateMutability": "view",
			"type": "function"
		},
		{
			"inputs": [],
			"name": "fusing",
			"outputs": [],
			"stateMutability": "nonpayable",
			"type": "function"
		},
		{
			"inputs": [],
			"name": "gameStopped",
			"outputs": [
				{
					"internalType": "bool",
					"name": "",
					"type": "bool"
				}
			],
			"stateMutability": "view",
			"type": "function"
		},
		{
			"inputs": [],
			"name": "getCirculation",
			"outputs": [
				{
					"internalType": "uint256",
					"name": "",
					"type": "uint256"
				}
			],
			"stateMutability": "view",
			"type": "function"
		},
		{
			"inputs": [
				{
					"internalType": "uint256",
					"name": "generation",
					"type": "uint256"
				}
			],
			"name": "getDynamicRewardRate",
			"outputs": [
				{
					"internalType": "uint256",
					"name": "",
					"type": "uint256"
				}
			],
			"stateMutability": "pure",
			"type": "function"
		},
		{
			"inputs": [],
			"name": "getPoolTokenAmount",
			"outputs": [
				{
					"internalType": "uint256",
					"name": "",
					"type": "uint256"
				}
			],
			"stateMutability": "view",
			"type": "function"
		},
		{
			"inputs": [
				{
					"internalType": "address",
					"name": "account",
					"type": "address"
				}
			],
			"name": "getUpsChildList",
			"outputs": [
				{
					"internalType": "address[]",
					"name": "",
					"type": "address[]"
				}
			],
			"stateMutability": "view",
			"type": "function"
		},
		{
			"inputs": [
				{
					"internalType": "address",
					"name": "user",
					"type": "address"
				}
			],
			"name": "getUserStatus",
			"outputs": [
				{
					"internalType": "uint256",
					"name": "bnbTotal",
					"type": "uint256"
				},
				{
					"internalType": "bool",
					"name": "isBuy",
					"type": "bool"
				},
				{
					"internalType": "bool",
					"name": "staticDrawStatus",
					"type": "bool"
				}
			],
			"stateMutability": "view",
			"type": "function"
		},
		{
			"inputs": [],
			"name": "getWithdrawPenaltyRate",
			"outputs": [
				{
					"internalType": "uint256",
					"name": "",
					"type": "uint256"
				}
			],
			"stateMutability": "view",
			"type": "function"
		},
		{
			"inputs": [
				{
					"internalType": "address",
					"name": "from",
					"type": "address"
				},
				{
					"internalType": "address",
					"name": "to",
					"type": "address"
				}
			],
			"name": "isCanBindInviter",
			"outputs": [
				{
					"internalType": "bool",
					"name": "",
					"type": "bool"
				}
			],
			"stateMutability": "view",
			"type": "function"
		},
		{
			"inputs": [],
			"name": "lastPrice",
			"outputs": [
				{
					"internalType": "uint256",
					"name": "",
					"type": "uint256"
				}
			],
			"stateMutability": "view",
			"type": "function"
		},
		{
			"inputs": [],
			"name": "lastPriceUpdateDay",
			"outputs": [
				{
					"internalType": "uint256",
					"name": "",
					"type": "uint256"
				}
			],
			"stateMutability": "view",
			"type": "function"
		},
		{
			"inputs": [],
			"name": "mainNFT",
			"outputs": [
				{
					"internalType": "address",
					"name": "",
					"type": "address"
				}
			],
			"stateMutability": "view",
			"type": "function"
		},
		{
			"inputs": [],
			"name": "name",
			"outputs": [
				{
					"internalType": "string",
					"name": "",
					"type": "string"
				}
			],
			"stateMutability": "view",
			"type": "function"
		},
		{
			"inputs": [],
			"name": "nft",
			"outputs": [
				{
					"internalType": "address",
					"name": "",
					"type": "address"
				}
			],
			"stateMutability": "view",
			"type": "function"
		},
		{
			"inputs": [],
			"name": "nftRewardTotal",
			"outputs": [
				{
					"internalType": "uint256",
					"name": "",
					"type": "uint256"
				}
			],
			"stateMutability": "view",
			"type": "function"
		},
		{
			"inputs": [],
			"name": "owner",
			"outputs": [
				{
					"internalType": "address",
					"name": "",
					"type": "address"
				}
			],
			"stateMutability": "view",
			"type": "function"
		},
		{
			"inputs": [],
			"name": "pool",
			"outputs": [
				{
					"internalType": "contract Pool",
					"name": "",
					"type": "address"
				}
			],
			"stateMutability": "view",
			"type": "function"
		},
		{
			"inputs": [
				{
					"internalType": "address",
					"name": "",
					"type": "address"
				},
				{
					"internalType": "address",
					"name": "",
					"type": "address"
				}
			],
			"name": "preUps",
			"outputs": [
				{
					"internalType": "bool",
					"name": "",
					"type": "bool"
				}
			],
			"stateMutability": "view",
			"type": "function"
		},
		{
			"inputs": [],
			"name": "renounceOwnership",
			"outputs": [],
			"stateMutability": "nonpayable",
			"type": "function"
		},
		{
			"inputs": [],
			"name": "sediment",
			"outputs": [],
			"stateMutability": "nonpayable",
			"type": "function"
		},
		{
			"inputs": [
				{
					"internalType": "address",
					"name": "_distributor",
					"type": "address"
				}
			],
			"name": "setDividendDistributor",
			"outputs": [],
			"stateMutability": "nonpayable",
			"type": "function"
		},
		{
			"inputs": [
				{
					"internalType": "address",
					"name": "_main",
					"type": "address"
				},
				{
					"internalType": "address",
					"name": "_sub",
					"type": "address"
				}
			],
			"name": "setMainSubNFT",
			"outputs": [],
			"stateMutability": "nonpayable",
			"type": "function"
		},
		{
			"inputs": [
				{
					"internalType": "address",
					"name": "_nft",
					"type": "address"
				}
			],
			"name": "setNFT",
			"outputs": [],
			"stateMutability": "nonpayable",
			"type": "function"
		},
		{
			"inputs": [
				{
					"internalType": "uint256",
					"name": "startTime_",
					"type": "uint256"
				}
			],
			"name": "setStartTime",
			"outputs": [],
			"stateMutability": "nonpayable",
			"type": "function"
		},
		{
			"inputs": [
				{
					"internalType": "address",
					"name": "account",
					"type": "address"
				},
				{
					"internalType": "bool",
					"name": "status",
					"type": "bool"
				}
			],
			"name": "setWhitelist",
			"outputs": [],
			"stateMutability": "nonpayable",
			"type": "function"
		},
		{
			"inputs": [],
			"name": "startTime",
			"outputs": [
				{
					"internalType": "uint256",
					"name": "",
					"type": "uint256"
				}
			],
			"stateMutability": "view",
			"type": "function"
		},
		{
			"inputs": [],
			"name": "subNFT",
			"outputs": [
				{
					"internalType": "address",
					"name": "",
					"type": "address"
				}
			],
			"stateMutability": "view",
			"type": "function"
		},
		{
			"inputs": [],
			"name": "symbol",
			"outputs": [
				{
					"internalType": "string",
					"name": "",
					"type": "string"
				}
			],
			"stateMutability": "view",
			"type": "function"
		},
		{
			"inputs": [],
			"name": "totalSupply",
			"outputs": [
				{
					"internalType": "uint256",
					"name": "",
					"type": "uint256"
				}
			],
			"stateMutability": "view",
			"type": "function"
		},
		{
			"inputs": [],
			"name": "tradingOpenTime",
			"outputs": [
				{
					"internalType": "uint256",
					"name": "",
					"type": "uint256"
				}
			],
			"stateMutability": "view",
			"type": "function"
		},
		{
			"inputs": [
				{
					"internalType": "address",
					"name": "to",
					"type": "address"
				},
				{
					"internalType": "uint256",
					"name": "value",
					"type": "uint256"
				}
			],
			"name": "transfer",
			"outputs": [
				{
					"internalType": "bool",
					"name": "",
					"type": "bool"
				}
			],
			"stateMutability": "nonpayable",
			"type": "function"
		},
		{
			"inputs": [
				{
					"internalType": "address",
					"name": "from",
					"type": "address"
				},
				{
					"internalType": "address",
					"name": "to",
					"type": "address"
				},
				{
					"internalType": "uint256",
					"name": "value",
					"type": "uint256"
				}
			],
			"name": "transferFrom",
			"outputs": [
				{
					"internalType": "bool",
					"name": "",
					"type": "bool"
				}
			],
			"stateMutability": "nonpayable",
			"type": "function"
		},
		{
			"inputs": [
				{
					"internalType": "address",
					"name": "newOwner",
					"type": "address"
				}
			],
			"name": "transferOwnership",
			"outputs": [],
			"stateMutability": "nonpayable",
			"type": "function"
		},
		{
			"inputs": [
				{
					"internalType": "address",
					"name": "",
					"type": "address"
				}
			],
			"name": "users",
			"outputs": [
				{
					"internalType": "address",
					"name": "up",
					"type": "address"
				},
				{
					"internalType": "uint256",
					"name": "bnbTotal",
					"type": "uint256"
				},
				{
					"internalType": "uint256",
					"name": "lpTotal",
					"type": "uint256"
				},
				{
					"internalType": "uint256",
					"name": "staticDrawAt",
					"type": "uint256"
				},
				{
					"internalType": "uint256",
					"name": "lastClaimTime",
					"type": "uint256"
				},
				{
					"internalType": "uint256",
					"name": "directTotal",
					"type": "uint256"
				},
				{
					"internalType": "uint256",
					"name": "directBuyTotal",
					"type": "uint256"
				},
				{
					"internalType": "uint256",
					"name": "validTotal",
					"type": "uint256"
				},
				{
					"internalType": "uint256",
					"name": "totalStaticClaimed",
					"type": "uint256"
				},
				{
					"internalType": "bool",
					"name": "staticDrawStatus",
					"type": "bool"
				},
				{
					"internalType": "bool",
					"name": "isBuy",
					"type": "bool"
				}
			],
			"stateMutability": "view",
			"type": "function"
		},
		{
			"inputs": [
				{
					"internalType": "address",
					"name": "",
					"type": "address"
				}
			],
			"name": "usersBuyTime",
			"outputs": [
				{
					"internalType": "uint256",
					"name": "",
					"type": "uint256"
				}
			],
			"stateMutability": "view",
			"type": "function"
		},
		{
			"inputs": [
				{
					"internalType": "address",
					"name": "",
					"type": "address"
				}
			],
			"name": "whitelist",
			"outputs": [
				{
					"internalType": "bool",
					"name": "",
					"type": "bool"
				}
			],
			"stateMutability": "view",
			"type": "function"
		},
		{
			"stateMutability": "payable",
			"type": "receive"
		}
	]
}