{
	"data": {
		"bytecode": {
			"linkReferences": {},
			"object": "60a06040526a52b7d2dcc80cd2e400000060125566071afd498d0000601555601880546001600160a01b03191673e6a45d5f3e5d38103f9b1358672ded68fdf6835f179055601a805460ff60a81b1916600160a81b179055348015610062575f5ffd5b50604051618e03380380618e03833981016040819052610081916134d9565b6040805180820182526005808252642927a6a0a760d91b6020808401829052845180860190955291845290830152339160036100bd83826135ad565b5060046100ca82826135ad565b5050506001600160a01b0381166100fb57604051631e4fbdf760e01b81525f60048201526024015b60405180910390fd5b6101048161033b565b5073d99d1c33f9fc3444f8101754abc46c52416550d16080819052604080516315ab88c960e31b8152905163ad5c4648916004808201926020929091908290030181865afa158015610158573d5f5f3e3d5ffd5b505050506040513d601f19601f8201168201806040525081019061017c9190613667565b600b5f6101000a8154816001600160a01b0302191690836001600160a01b031602179055506080516001600160a01b031663c45a01556040518163ffffffff1660e01b8152600401602060405180830381865afa1580156101df573d5f5f3e3d5ffd5b505050506040513d601f19601f820116820180604052508101906102039190613667565b600b546040516364e329cb60e11b81523060048201526001600160a01b03918216602482015291169063c9c65396906044016020604051808303815f875af1158015610251573d5f5f3e3d5ffd5b505050506040513d601f19601f820116820180604052508101906102759190613667565b600680546001600160a01b03199081166001600160a01b0393841617909155601980548216858416179055601a80549091169183169190911790556040516102bc90613498565b604051809103905ff0801580156102d5573d5f5f3e3d5ffd5b50601180546001600160a01b0319166001600160a01b03929092169190911790556369aaba1f601681905561030d9062278d00613694565b601755610333836103206012600a61378a565b61032e90633b9aca00613798565b61038c565b505050613ad9565b600580546001600160a01b038381166001600160a01b0319831681179093556040519116919082907f8be0079c531659141344cd1fd0a4f28419497f9722a3daafe3b4186f6b6457e0905f90a35050565b6001600160a01b0382166103b55760405163ec442f0560e01b81525f60048201526024016100f2565b6103c05f83836103c4565b5050565b671bc16d674ec800008114801561040057506001600160a01b038083165f9081526007602090815260408083209387168352929052205460ff16155b80156104115750610411838361109a565b15610446576001600160a01b038084165f908152600760209081526040808320938616835292905220805460ff191660011790555b670de0b6b3a76400008114801561048157506001600160a01b038083165f9081526007602090815260408083209387168352929052205460ff165b80156104a457506001600160a01b038381165f908152600a602052604090205416155b1561052c576001600160a01b038381165f908152600a6020908152604080832080546001600160a01b031916948716948517905592825260089052206104ea90846111e3565b50816001600160a01b0316836001600160a01b03167f8d63f2e3d39eb6cf9c80d49bc203133f6f215ce2a1a3d27a68f0167f6c045d4860405160405180910390a35b6001600160a01b0382163014801561054357503332145b156105d6576001600160a01b0383165f908152601e602052604090205460ff16158015610579575068056bc75e2d631000008110155b801561058f575069152d02c7e14af68000008111155b801561059e5750601f5460ff16155b80156105c25750305f9081526020819052604090205469021e19e0c9bab240000011155b156105d6576105d183826111fe565b505050565b6001600160a01b038084165f908152600a6020908152604091829020825161016081018452815490941684526001810154918401919091526002810154918301919091526003810154606083015260048101546080830152600581015460a0830152600681015460c0830152600781015460e083015260088101546101008084019190915260099091015460ff8082161515610120850152919004161515610140820152333214801561068b57508061014001515b801561069a57505f8160400151115b80156106ae57506001600160a01b03831630145b156109ad57670de0b6b3a764000082036107e857601154600160a01b900460ff16156106ed57604051632f35253160e01b815260040160405180910390fd5b806101200151610754576001600160a01b0384165f908152600a60205260409020600901805460ff191660011790556107294262015180613694565b6001600160a01b0385165f908152600a602052604090206003810191909155426004909101556107e8565b806101200151801561076a575080606001514210155b156107cf5761077884611379565b6107854262015180613694565b6001600160a01b0385165f908152600a602052604090206003810191909155426004909101556107b6848484611b8a565b6107c93085670de0b6b3a7640000611b8a565b50505050565b604051632f35253160e01b815260040160405180910390fd5b678ac7230489e8000082036109a25742601654106108345760405162461bcd60e51b8152602060048201526009602482015268737461727454696d6560b81b60448201526064016100f2565b60408101518015610901575f610848611cb0565b90508015610883575f60648285604001516108639190613798565b61086d91906137c3565b905080846040015161087f91906137d6565b9250505b81156108ff5760065460405163a9059cbb60e01b81526001600160a01b038881166004830152602482018590529091169063a9059cbb906044016020604051808303815f875af11580156108d9573d5f5f3e3d5ffd5b505050506040513d601f19601f820116820180604052508101906108fd91906137e9565b505b505b6001600160a01b038086165f908152600a6020526040808220600981018054600283018590556001830185905561ffff1916905560048101839055600801829055845190921681522060070154156109855781516001600160a01b03165f908152600a6020526040812060070180546001929061097f9084906137d6565b90915550505b610990858585611b8a565b61099b308685611b8a565b5050505050565b6107c9848484611b8a565b6001600160a01b0384163014806109cc57506001600160a01b03831630145b806109e457506011546001600160a01b038581169116145b806109fc57506011546001600160a01b038481169116145b15610a0c576107c9848484611b8a565b6006546001600160a01b0390811690851603610d22574260165410610a5f5760405162461bcd60e51b8152602060048201526009602482015268737461727454696d6560b81b60448201526064016100f2565b325f908152600960205260408120429055610a78611cdf565b1115610b4e575f80610a88611e74565b90506b033b2e3c9fd0803ce80000008110610abb57600a610aaa856009613798565b610ab491906137c3565b9150610b1d565b6b019d971e4fe8401e740000008110610adb57600a610aaa856006613798565b6a52b7d2dcc80cd2e40000008110610afa57600a610aaa856004613798565b6a295be96e640669720000008110610b1957600a610aaa856002613798565b8391505b610b2a8661dead84611b8a565b81841115610b4657610b468686610b4185886137d6565b611b8a565b505050505050565b6064610b58611f78565b610b63906005613798565b610b6d91906137c3565b8210610ba75760405162461bcd60e51b815260206004820152600960248201526836b0bc103a37b5b2b760b91b60448201526064016100f2565b610baf611fb8565b601d545f9060ff16610bc35761012c610bc7565b610b545b61ffff1690505f612710610bdb8386613798565b610be591906137c3565b90505f612710610bf78661012c613798565b610c0191906137c3565b601d549091505f9060ff168015610c1757508183115b15610c6757610c2682846137d6565b90505f610c346002836137c3565b9050610c41893083611b8a565b610c4b81836137d6565b60135f828254610c5b9190613694565b92505081905550829350505b5f600a610c75856007613798565b610c7f91906137c3565b90508060135f828254610c929190613694565b909155505f9050600a610ca6866001613798565b610cb091906137c3565b9050610cbf8a61dead83611b8a565b5f81610ccb84886137d6565b610cd591906137d6565b90508060145f828254610ce89190613694565b90915550610cf990508b3085611b8a565b610d048b3083611b8a565b610d0e8487613694565b610d18908a6137d6565b9850505050505050505b6006546001600160a01b039081169084160361109257601a54600160a81b900460ff1615610e1e5760065460408051630240bc6b60e21b815290516001600160a01b03909216915f9182918491630902f1ac9160048083019260609291908290030181865afa158015610d97573d5f5f3e3d5ffd5b505050506040513d601f19601f82011682018060405250810190610dbb919061381e565b5091509150816001600160701b03165f148015610ddf57506001600160701b038116155b8015610df45750601a54600160a81b900460ff165b15610e1a57601a805460ff60a81b19169055610e11878787611b8a565b50505050505050565b5050505b610e29600a426137d6565b325f9081526009602052604090205410610e6a5760405162461bcd60e51b815260206004820152600260248201526118d960f21b60448201526064016100f2565b5f610e7483612217565b11611092574260165410610eb65760405162461bcd60e51b8152602060048201526009602482015268737461727454696d6560b81b60448201526064016100f2565b6064610ec0611f78565b610ecb90600a613798565b610ed591906137c3565b8210610f0f5760405162461bcd60e51b815260206004820152600960248201526836b0bc103a37b5b2b760b91b60448201526064016100f2565b610f17611fb8565b601d545f9060ff16610f2b5761012c610f2f565b610b545b61ffff1690505f612710610f438386613798565b610f4d91906137c3565b90505f612710610f5f8661012c613798565b610f6991906137c3565b601d549091505f9060ff168015610f7f57508183115b15610fcf57610f8e82846137d6565b90505f610f9c6002836137c3565b9050610fa9893083611b8a565b610fb381836137d6565b60135f828254610fc39190613694565b92505081905550829350505b5f600a610fdd856007613798565b610fe791906137c3565b90508060135f828254610ffa9190613694565b909155505f9050600a61100e866001613798565b61101891906137c3565b90506110278a61dead83611b8a565b5f8161103384886137d6565b61103d91906137d6565b90508060145f8282546110509190613694565b9091555061106190508b3085611b8a565b61106c8b3083611b8a565b6110768487613694565b611080908a6137d6565b985061108a61240f565b505050505050505b6109a26126c6565b6001600160a01b038281165f908152600a60205260408120549091161580156110d157506018546001600160a01b03848116911614155b80156110eb57506006546001600160a01b03838116911614155b801561110557506006546001600160a01b03848116911614155b1561111157505f6111dd565b6001600160a01b038084165f9081526007602090815260408083209386168352929052205460ff16806111555750816001600160a01b0316836001600160a01b0316145b1561116157505f6111dd565b815f5b6001600160a01b0382161580159061117f575060198160ff16105b156111d657846001600160a01b0316826001600160a01b0316036111a7575f925050506111dd565b6001600160a01b039182165f908152600a602052604090205490911690806111ce8161386a565b915050611164565b6001925050505b92915050565b5f6111f7836001600160a01b038416612845565b9392505050565b5f61120a600a83613888565b90505f611218600283613888565b1590505f6112276001436137d6565b4090508061123e5761123a6002436137d6565b4090505b60ff81165f61124e600a836138af565b90505f61125c6002836138af565b60ff1615905084151581145f611273896002613798565b90506112808a308b611b8a565b811561133957305f908152602081905260409020548181106112e0576112a7308c84611b8a565b604080518b8152602081018490526001916001600160a01b038e16915f516020618de35f395f51905f52910160405180910390a3611333565b80156112f1576112f1308c83611b8a565b601f805460ff19166001908117909155604080518c8152602081018490526001600160a01b038e16915f516020618de35f395f51905f52910160405180910390a35b5061136d565b604080518a81525f60208201819052916001600160a01b038d16915f516020618de35f395f51905f52910160405180910390a35b50505050505050505050565b6001600160a01b038082165f908152600a6020908152604091829020825161016081018452815490941684526001810154918401919091526002810154918301919091526003810154606083015260048101546080830152600581015460a0830152600681015460c0830152600781015460e083015260088101546101008084019190915260099091015460ff8082161515610120850152919004161515610140820181905261146b5760405162461bcd60e51b815260206004820152601360248201527f5573657220686173206e6f7420626f756768740000000000000000000000000060448201526064016100f2565b8061012001516114bd5760405162461bcd60e51b815260206004820152601b60248201527f53746174696320726577617264206e6f7420617661696c61626c65000000000060448201526064016100f2565b5f6114c783612891565b90505f811161153e5760405162461bcd60e51b815260206004820152603960248201527f4e6f207374617469632072657761726420617661696c61626c65206f7220636160448201527f702072656163686564206f722074696d6520657870697265640000000000000060648201526084016100f2565b5f8080611549612aa0565b6020890151929650909450925090505f620186a06115678684613798565b61157191906137c3565b90505f620186a06115828685613798565b61158c91906137c3565b90505f620186a061159d8686613798565b6115a791906137c3565b90505f81836115b6868c613694565b6115c09190613694565b6115ca9190613694565b90505f6115d682612af2565b90506115e06134a5565b6115e982612c13565b80825283906115f9908d90613798565b61160391906137c3565b81600160200201526006546001600160a01b031663a9059cbb8e83600160200201516040516001600160e01b031960e085901b1681526001600160a01b03909216600483015260248201526044016020604051808303815f875af115801561166d573d5f5f3e3d5ffd5b505050506040513d601f19601f8201168201806040525081019061169191906137e9565b506116a38d8260016020020151612f86565b6040820152805183906116b7908790613798565b6116c191906137c3565b6060820152600d546001600160a01b0316158015906116ea5750600e546001600160a01b031615155b156118f3575f600a8260036020020151611705906007613798565b61170f91906137c3565b90505f81836003602002015161172591906137d6565b90506017544210156117c557600654600e546001600160a01b039182169163a9059cbb91168560035b60200201516040516001600160e01b031960e085901b1681526001600160a01b03909216600483015260248201526044016020604051808303815f875af115801561179b573d5f5f3e3d5ffd5b505050506040513d601f19601f820116820180604052508101906117bf91906137e9565b506118ec565b6017546117d59062278d00613694565b4210156117fd57600654600e546001600160a01b039182169163a9059cbb911685600361174e565b600654600d5460405163a9059cbb60e01b81526001600160a01b0391821660048201526024810185905291169063a9059cbb906044016020604051808303815f875af115801561184f573d5f5f3e3d5ffd5b505050506040513d601f19601f8201168201806040525081019061187391906137e9565b50600654600e5460405163a9059cbb60e01b81526001600160a01b0391821660048201526024810184905291169063a9059cbb906044016020604051808303815f875af11580156118c6573d5f5f3e3d5ffd5b505050506040513d601f19601f820116820180604052508101906118ea91906137e9565b505b5050611971565b600654600c54606083015160405163a9059cbb60e01b81526001600160a01b039283166004820152602481019190915291169063a9059cbb906044016020604051808303815f875af115801561194b573d5f5f3e3d5ffd5b505050506040513d601f19601f8201168201806040525081019061196f91906137e9565b505b600c5f9054906101000a90046001600160a01b03166001600160a01b031663c33fb8776040518163ffffffff1660e01b81526004015f604051808303815f87803b1580156119bd575f5ffd5b505af19250505080156119ce575060015b50805183906119de908690613798565b6119e891906137c3565b6080820181905260065460195460405163a9059cbb60e01b81526001600160a01b0391821660048201526024810193909352169063a9059cbb906044016020604051808303815f875af1158015611a41573d5f5f3e3d5ffd5b505050506040513d601f19601f82011682018060405250810190611a6591906137e9565b5060808101516060820151604083015160208401518451611a8691906137d6565b611a9091906137d6565b611a9a91906137d6565b611aa491906137d6565b60a0820181905215611b2e5760065460195460a083015160405163a9059cbb60e01b81526001600160a01b039283166004820152602481019190915291169063a9059cbb906044016020604051808303815f875af1158015611b08573d5f5f3e3d5ffd5b505050506040513d601f19601f82011682018060405250810190611b2c91906137e9565b505b6001600160a01b038d165f908152600a6020526040812060080180548d9290611b58908490613694565b9091555050506001600160a01b03909b165f908152600a60205260409020426004909101555050505050505050505050565b6001600160a01b038316611bb4578060025f828254611ba99190613694565b90915550611c249050565b6001600160a01b0383165f9081526020819052604090205481811015611c065760405163391434e360e21b81526001600160a01b038516600482015260248101829052604481018390526064016100f2565b6001600160a01b0384165f9081526020819052604090209082900390555b6001600160a01b038216611c4057600280548290039055611c5e565b6001600160a01b0382165f9081526020819052604090208054820190555b816001600160a01b0316836001600160a01b03167fddf252ad1be2c89b69c2b068fc378daa952ba7f163c4a11628f55a4df523b3ef83604051611ca391815260200190565b60405180910390a3505050565b5f80611cba611e74565b90506a52b7d2dcc80cd2e4000000811115611cd757603291505090565b601491505090565b5f5f60065f9054906101000a90046001600160a01b03166001600160a01b0316630902f1ac6040518163ffffffff1660e01b8152600401606060405180830381865afa158015611d31573d5f5f3e3d5ffd5b505050506040513d601f19601f82011682018060405250810190611d55919061381e565b5050600b546006546040516370a0823160e01b81526001600160a01b0391821660048201526001600160701b039390931693505f929116906370a0823190602401602060405180830381865afa158015611db1573d5f5f3e3d5ffd5b505050506040513d601f19601f82011682018060405250810190611dd591906138d0565b905080821115611e6f57600654604080516318160ddd60e01b815290515f926001600160a01b0316916318160ddd9160048083019260209291908290030181865afa158015611e26573d5f5f3e3d5ffd5b505050506040513d601f19601f82011682018060405250810190611e4a91906138d0565b905081611e5781856137d6565b611e619083613798565b611e6b91906137c3565b9350505b505090565b60065460408051630240bc6b60e21b815290515f926001600160a01b031691839182918491630902f1ac916004808201926060929091908290030181865afa158015611ec2573d5f5f3e3d5ffd5b505050506040513d601f19601f82011682018060405250810190611ee6919061381e565b50915091505f836001600160a01b0316630dfe16816040518163ffffffff1660e01b8152600401602060405180830381865afa158015611f28573d5f5f3e3d5ffd5b505050506040513d601f19601f82011682018060405250810190611f4c9190613667565b90506001600160a01b0381163014611f645781611f66565b825b6001600160701b031694505050505090565b61dead5f90815260208190527f44ad89ba62b98ff34f51403ac22759b55759460c0bb5521eb4b6ee3cff49cf8354600254611fb391906137d6565b905090565b60065460408051630240bc6b60e21b815290516001600160a01b03909216915f9182918491630902f1ac9160048083019260609291908290030181865afa158015612005573d5f5f3e3d5ffd5b505050506040513d601f19601f82011682018060405250810190612029919061381e565b5091509150816001600160701b03165f148061204c57506001600160701b038116155b1561205657505050565b5f836001600160a01b0316630dfe16816040518163ffffffff1660e01b8152600401602060405180830381865afa158015612093573d5f5f3e3d5ffd5b505050506040513d601f19601f820116820180604052508101906120b79190613667565b90505f6001600160a01b03821630146120d057826120d2565b835b6001600160701b031690505f6001600160a01b03831630146120f457846120f6565b835b6001600160701b03169050805f0361211057505050505050565b5f8261212483670de0b6b3a7640000613798565b61212e91906137c3565b90505f61213e62015180426137c3565b9050601b5481111561220d575f601c5411801561217457506064601c54605c6121679190613798565b61217191906137c3565b82105b156121f757601d805460ff19166001179055601c547f0e9560271ff9c39b91baaaafebb009e70ad170a54ab31a72f4b884680b0766829082906121b7575f6121da565b601c546121c485826137d6565b6121d090612710613798565b6121da91906137c3565b6040805192835260208301919091520160405180910390a1612202565b601d805460ff191690555b601c829055601b8190555b5050505050505050565b6080515f906001600160a01b0316330361240a575f5f60065f9054906101000a90046001600160a01b03166001600160a01b0316630902f1ac6040518163ffffffff1660e01b8152600401606060405180830381865afa15801561227d573d5f5f3e3d5ffd5b505050506040513d601f19601f820116820180604052508101906122a1919061381e565b50600b546006546040516370a0823160e01b81526001600160a01b0391821660048201526001600160701b0394851696509290931693505f9216906370a0823190602401602060405180830381865afa158015612300573d5f5f3e3d5ffd5b505050506040513d601f19601f8201168201806040525081019061232491906138d0565b90508281111561240657600654604080516318160ddd60e01b815290515f926001600160a01b0316916318160ddd9160048083019260209291908290030181865afa158015612375573d5f5f3e3d5ffd5b505050506040513d601f19601f8201168201806040525081019061239991906138d0565b9050805f036123ae5750600195945050505050565b6123b9818385613158565b6123c39082613694565b905061240284826123d482866137d6565b6123de9190613798565b6123e891906137c3565b846123f3848a613798565b6123fd91906137c3565b61324d565b9450505b5050505b919050565b5f6014546013546124209190613694565b9050670de0b6b3a76400008110156124355750565b612448306080518361326260201b60201c565b6040805160028082526060820183525f9260208301908036833701905050905030815f8151811061247b5761247b61389b565b6001600160a01b039283166020918202929092010152600b548251911690829060019081106124ac576124ac61389b565b6001600160a01b03928316602091820292909201015260805160405163791ac94760e01b815291169063791ac947906124f19085905f9086903090429060040161392a565b5f604051808303815f87803b158015612508575f5ffd5b505af115801561251a573d5f5f3e3d5ffd5b50506014544792505f915084906125319084613798565b61253b91906137c3565b601a54909150612554906001600160a01b03168261326f565b5f61255f82846137d6565b90505f8111801561257a5750600c546001600160a01b031615155b1561269a576040805160028082526060820183525f926020830190803683375050600b5482519293506001600160a01b0316918391505f906125be576125be61389b565b60200260200101906001600160a01b031690816001600160a01b0316815250507355d398326f99059ff775485246999027b3197955816001815181106126065761260661389b565b6001600160a01b039283166020918202929092010152608051600c5460405163b6f9de9560e01b81529183169263b6f9de95928692612651925f928892909116904290600401613965565b5f604051808303818588803b158015612668575f5ffd5b505af19350505050801561267a575060015b61269457600c54612694906001600160a01b03168361326f565b506126b6565b80156126b657600c546126b6906001600160a01b03168261326f565b50505f6013819055601455505050565b60065460408051630240bc6b60e21b815290516001600160a01b03909216915f9182918491630902f1ac9160048083019260609291908290030181865afa158015612713573d5f5f3e3d5ffd5b505050506040513d601f19601f82011682018060405250810190612737919061381e565b5091509150816001600160701b03165f148061275a57506001600160701b038116155b1561276457505050565b5f836001600160a01b0316630dfe16816040518163ffffffff1660e01b8152600401602060405180830381865afa1580156127a1573d5f5f3e3d5ffd5b505050506040513d601f19601f820116820180604052508101906127c59190613667565b90505f6001600160a01b03821630146127de57826127e0565b835b6001600160701b0316905060125481101561281f57601154600160a01b900460ff1661281a576011805460ff60a01b1916600160a01b1790555b61099b565b601154600160a01b900460ff161561099b576011805460ff60a01b191690555050505050565b5f81815260018301602052604081205461288a57508154600181810184555f8481526020808220909301849055845484825282860190935260409020919091556111dd565b505f6111dd565b6001600160a01b038082165f908152600a60209081526040808320815161016081018352815490951685526001810154928501929092526002820154908401526003810154606084015260048101546080840152600581015460a0840152600681015460c0840152600781015460e084015260088101546101008085019190915260099091015460ff808216151561012086015291900416158015610140840152909190806129435750806101200151155b1561295057505f92915050565b6001600160a01b0383165f908152600960205260408120549081900361297957505f9392505050565b5f6201518061298883426137d6565b61299291906137c3565b905060c88111156129a757505f949350505050565b5f6129b0612aa0565b5050509050607d8211156129c357506103e85b60208401515f620186a06129d78484613798565b6129e191906137c3565b90505f5f8760800151116129f557856129fb565b86608001515b90505f62015180612a0c83426137d6565b612a1691906137c3565b9050805f03612a2e57505f9998505050505050505050565b5f612a398285613798565b90505f612a47866003613798565b905080828b6101000151612a5b9190613694565b1115612a9157808a610100015110612a7e57505f9b9a5050505050505050505050565b6101008a0151612a8e90826137d6565b91505b509a9950505050505050505050565b5f80808080612aad611e74565b90506a52b7d2dcc80cd2e4000000811115612ad9576106405f61012c603c945094509450945050612aec565b6103e85f61012c603c9450945094509450505b90919293565b6040805160028082526060820183525f92839291906020830190803683375050600b5482519293506001600160a01b0316918391505f90612b3557612b3561389b565b60200260200101906001600160a01b031690816001600160a01b0316815250503081600181518110612b6957612b6961389b565b6001600160a01b03928316602091820292909201015260805160405163d06ca61f60e01b81525f92919091169063d06ca61f90612bac9087908690600401613999565b5f60405180830381865afa158015612bc6573d5f5f3e3d5ffd5b505050506040513d5f823e601f3d908101601f19168201604052612bed91908101906139b9565b905080600181518110612c0257612c0261389b565b602002602001015192505050919050565b5f80612c206002846137c3565b6040805160028082526060820183529293505f92909160208301908036833701905050905030815f81518110612c5857612c5861389b565b6001600160a01b039283166020918202929092010152600b54825191169082906001908110612c8957612c8961389b565b6001600160a01b039283166020918202929092010152600654612cae91163086611b8a565b60065f9054906101000a90046001600160a01b03166001600160a01b031663fff6cae96040518163ffffffff1660e01b81526004015f604051808303815f87803b158015612cfa575f5ffd5b505af1158015612d0c573d5f5f3e3d5ffd5b50505050612d23306080518661326260201b60201c565b608051601154604051635c11d79560e01b81526001600160a01b0392831692635c11d79592612d5f9287925f928892911690429060040161392a565b5f604051808303815f87803b158015612d76575f5ffd5b505af1158015612d88573d5f5f3e3d5ffd5b5050600b546011546040516370a0823160e01b81526001600160a01b0391821660048201525f9450911691506370a0823190602401602060405180830381865afa158015612dd8573d5f5f3e3d5ffd5b505050506040513d601f19601f82011682018060405250810190612dfc91906138d0565b601154600b5460405163092dfdb360e11b81526001600160a01b03918216600482015230602482015260448101849052929350169063125bfb66906064015f604051808303815f87803b158015612e51575f5ffd5b505af1158015612e63573d5f5f3e3d5ffd5b5050600b5460805160405163095ea7b360e01b81526001600160a01b039182166004820152602481018690529116925063095ea7b391506044016020604051808303815f875af1158015612eb9573d5f5f3e3d5ffd5b505050506040513d601f19601f82011682018060405250810190612edd91906137e9565b50608051600b5460405162e8e33760e81b81526001600160a01b039182166004820152306024820181905260448201859052606482018790525f6084830181905260a483015260c48201524260e482015291169063e8e3370090610104016060604051808303815f875af1158015612f57573d5f5f3e3d5ffd5b505050506040513d601f19601f82011682018060405250810190612f7b9190613a80565b979650505050505050565b6001600160a01b038083165f908152600a602090815260408083208151610160810183528154909516808652600180830154948701949094526002820154928601929092526003810154606086015260048101546080860152600581015460a0860152600681015460c0860152600781015460e086015260088101546101008087019190915260099091015460ff80821615156101208801529190041615156101408501529192919060145b6001600160a01b0383161580159061304a5750808211155b1561314e575f613059836132d2565b90505f6064613068838a613798565b61307291906137c3565b9050801561311d576001600160a01b0385165f908152600a6020526040902060070154841161311d5760065460405163a9059cbb60e01b81526001600160a01b038781166004830152602482018490529091169063a9059cbb906044016020604051808303815f875af11580156130eb573d5f5f3e3d5ffd5b505050506040513d601f19601f8201168201806040525081019061310f91906137e9565b5061311a8188613694565b96505b6001600160a01b039485165f908152600a6020526040902054909416938361314481613aab565b9450505050613032565b5050505092915050565b5f8061316c6131678486613798565b613359565b90505f6131e660065f9054906101000a90046001600160a01b03166001600160a01b0316637464fc3d6040518163ffffffff1660e01b8152600401602060405180830381865afa1580156131c2573d5f5f3e3d5ffd5b505050506040513d601f19601f8201168201806040525081019061316791906138d0565b905080821115613244575f6131fb82846137d6565b6132059088613798565b613210906008613798565b90505f61321e836008613798565b613229856011613798565b6132339190613694565b905061323f81836137c3565b945050505b50509392505050565b5f81831061325b57816111f7565b5090919050565b6105d183838360016133c6565b604080515f808252602082019092526001600160a01b0384169083906040516132989190613ac3565b5f6040518083038185875af1925050503d805f8114610b46576040519150601f19603f3d011682016040523d82523d5f602084013e610b46565b5f816001036132e35750600a919050565b816002036132f357506005919050565b8160030361330357506003919050565b60048210158015613315575060118211155b1561332257506001919050565b8160120361333257506003919050565b8160130361334257506005919050565b816014036133525750600a919050565b505f919050565b5f60038211156133b85750805f6133716002836137c3565b61337c906001613694565b90505b818110156133b25790508060028161339781866137c3565b6133a19190613694565b6133ab91906137c3565b905061337f565b50919050565b811561240a57506001919050565b6001600160a01b0384166133ef5760405163e602df0560e01b81525f60048201526024016100f2565b6001600160a01b03831661341857604051634a1406b160e11b81525f60048201526024016100f2565b6001600160a01b038085165f90815260016020908152604080832093871683529290522082905580156107c957826001600160a01b0316846001600160a01b03167f8c5be1e5ebec7d5bd14f71427d1e84f3dd0314c0f7b2291e5b200ac8c7c3b9258460405161348a91815260200190565b60405180910390a350505050565b610505806188de83390190565b6040518060c001604052806006906020820280368337509192915050565b80516001600160a01b038116811461240a575f5ffd5b5f5f5f606084860312156134eb575f5ffd5b6134f4846134c3565b9250613502602085016134c3565b9150613510604085016134c3565b90509250925092565b634e487b7160e01b5f52604160045260245ffd5b600181811c9082168061354157607f821691505b6020821081036133b257634e487b7160e01b5f52602260045260245ffd5b601f8211156105d157828211156105d157805f5260205f20601f840160051c602085101561358a57505f5b90810190601f840160051c035f5b81811015610b46575f83820155600101613598565b81516001600160401b038111156135c6576135c6613519565b6135da816135d4845461352d565b8461355f565b6020601f82116001811461360c575f83156135f55750848201515b5f19600385901b1c1916600184901b17845561099b565b5f84815260208120601f198516915b8281101561363b578785015182556020948501946001909201910161361b565b508482101561365857868401515f19600387901b60f8161c191681555b50505050600190811b01905550565b5f60208284031215613677575f5ffd5b6111f7826134c3565b634e487b7160e01b5f52601160045260245ffd5b808201808211156111dd576111dd613680565b6001815b60018411156136e2578085048111156136c6576136c6613680565b60018416156136d457908102905b60019390931c9280026136ab565b935093915050565b5f826136f8575060016111dd565b8161370457505f6111dd565b816001811461371a576002811461372457613740565b60019150506111dd565b60ff84111561373557613735613680565b50506001821b6111dd565b5060208310610133831016604e8410600b8410161715613763575081810a6111dd565b61376f5f1984846136a7565b805f190482111561378257613782613680565b029392505050565b5f6111f760ff8416836136ea565b80820281158282048414176111dd576111dd613680565b634e487b7160e01b5f52601260045260245ffd5b5f826137d1576137d16137af565b500490565b818103818111156111dd576111dd613680565b5f602082840312156137f9575f5ffd5b815180151581146111f7575f5ffd5b80516001600160701b038116811461240a575f5ffd5b5f5f5f60608486031215613830575f5ffd5b61383984613808565b925061384760208501613808565b9150604084015163ffffffff8116811461385f575f5ffd5b809150509250925092565b5f60ff821660ff810361387f5761387f613680565b60010192915050565b5f82613896576138966137af565b500690565b634e487b7160e01b5f52603260045260245ffd5b5f60ff8316806138c1576138c16137af565b8060ff84160691505092915050565b5f602082840312156138e0575f5ffd5b5051919050565b5f8151808452602084019350602083015f5b828110156139205781516001600160a01b03168652602095860195909101906001016138f9565b5093949350505050565b85815284602082015260a060408201525f61394860a08301866138e7565b6001600160a01b0394909416606083015250608001529392505050565b848152608060208201525f61397d60808301866138e7565b6001600160a01b03949094166040830152506060015292915050565b828152604060208201525f6139b160408301846138e7565b949350505050565b5f602082840312156139c9575f5ffd5b81516001600160401b038111156139de575f5ffd5b8201601f810184136139ee575f5ffd5b80516001600160401b03811115613a0757613a07613519565b604051600582901b90603f8201601f191681016001600160401b0381118282101715613a3557613a35613519565b604052918252602081840181019290810187841115613a52575f5ffd5b6020850194505b83851015613a7557845180825260209586019590935001613a59565b509695505050505050565b5f5f5f60608486031215613a92575f5ffd5b5050815160208301516040909301519094929350919050565b5f60018201613abc57613abc613680565b5060010190565b5f82518060208501845e5f920191825250919050565b608051614d99613b455f395f818161085b01528181610eb601528181610f6601528181610fc10152818161393c01528181613b7201528181613c2001528181613d9c01528181613f3a015281816140db0152818161411a0152818161428b01526143450152614d995ff3fe60806040526004361061038a575f3560e01c8063715018a6116101d3578063bf151cb8116100fd578063ddbcb5fa1161009d578063ea0d5dcd1161006d578063ea0d5dcd14610cbd578063f2fde38b14610da0578063f56e9c6614610dbf578063fd36e3c614610dde575f5ffd5b8063ddbcb5fa14610c4b578063e16f3c5914610c60578063e82bef2914610c7f578063e8e8fe0414610c9e575f5ffd5b8063cca3c5ff116100d8578063cca3c5ff14610bb4578063d122734314610bc9578063dd62ed3e14610be8578063dd6c439814610c2c575f5ffd5b8063bf151cb814610b65578063c54e44eb14610b79578063c82c3cbf14610ba0575f5ffd5b806395d89b4111610173578063a87430ba11610143578063a87430ba14610a31578063a9059cbb14610b12578063b4a2e46314610b31578063bad3ea6a14610b46575f5ffd5b806395d89b41146109a55780639b19251a146109b9578063a095e8f9146109e7578063a52ee3af14610a06575f5ffd5b80637f054455116101ae5780637f054455146109405780638da5cb5b146109555780638dd950021461097257806394a2809714610991575f5ffd5b8063715018a6146108fa57806378e979251461090e5780637c65947214610923575f5ffd5b80633d471d57116102b457806348e66c0411610254578063583e056811610224578063583e05681461084a5780635e2d0df11461087d5780636d476a771461089257806370a08231146108c6575f5ffd5b806348e66c04146107d85780634bf28fd0146107f757806353d6fd591461081657806354ef6ad514610835575f5ffd5b806342b10c591161028f57806342b10c5914610760578063440b30e71461077957806347ab459c146107a557806347ccca02146107b9575f5ffd5b80633d471d57146107035780633e0a322d146107225780634127535814610741575f5ffd5b8063177ae0441161032a5780632529d1a3116102fa5780632529d1a31461068d57806327b48142146106ad578063313ce567146106c957806332516d48146106e4575f5ffd5b8063177ae0441461062657806318160ddd1461063b5780631c53c2801461064f57806323b872dd1461066e575f5ffd5b806306fdde031161036557806306fdde031461059b578063095ea7b3146105bc57806309d46746146105db57806316f0115b146105ef575f5ffd5b80630430e4051461052d578063053f14da1461055b578063061e431c1461057e575f5ffd5b3661052957335f818152600a60205260409020546001600160a01b03169034903290036105275760155481101580156103df57506001600160a01b0382161515806103df57506018546001600160a01b031633145b1561050e57335f908152600a6020526040902060090154610100900460ff1661047257335f908152600a60205260409020600901805461ff0019166101001790556001600160a01b03821615610460576001600160a01b0382165f908152600a6020526040812060070180546001929061045a908490614799565b90915550505b335f9081526009602052604090204290555b5f6104866104816002846147c0565b610e17565b335f908152600a60205260408120600101805492935084929091906104ac908490614799565b9091555050335f908152600a6020526040812060020180548392906104d2908490614799565b909155505060405182815233907f5f41f00e6c90dea5837402efbf3e658a1f1df8db3b19624b133bc1df0444f7ea9060200160405180910390a2005b60405163236c6e5b60e01b815260040160405180910390fd5b005b5f5ffd5b348015610538575f5ffd5b50601f546105469060ff1681565b60405190151581526020015b60405180910390f35b348015610566575f5ffd5b50610570601c5481565b604051908152602001610552565b348015610589575f5ffd5b5061057069021e19e0c9bab240000081565b3480156105a6575f5ffd5b506105af611040565b60405161055291906147d3565b3480156105c7575f5ffd5b506105466105d636600461481c565b6110d0565b3480156105e6575f5ffd5b506105706110e9565b3480156105fa575f5ffd5b5060115461060e906001600160a01b031681565b6040516001600160a01b039091168152602001610552565b348015610631575f5ffd5b50610570601b5481565b348015610646575f5ffd5b50600254610570565b34801561065a575f5ffd5b5061060e610669366004614846565b6111ed565b348015610679575f5ffd5b5061054661068836600461485d565b611215565b348015610698575f5ffd5b5060115461054690600160a01b900460ff1681565b3480156106b8575f5ffd5b5061057068056bc75e2d6310000081565b3480156106d4575f5ffd5b5060405160128152602001610552565b3480156106ef575f5ffd5b506105276106fe36600461489b565b611238565b34801561070e575f5ffd5b5061057061071d366004614846565b611262565b34801561072d575f5ffd5b5061052761073c366004614846565b6112e9565b34801561074c575f5ffd5b50601a5461060e906001600160a01b031681565b34801561076b575f5ffd5b50601d546105469060ff1681565b348015610784575f5ffd5b5061079861079336600461489b565b611309565b60405161055291906148f9565b3480156107b0575f5ffd5b5061052761132c565b3480156107c4575f5ffd5b50600c5461060e906001600160a01b031681565b3480156107e3575f5ffd5b50600d5461060e906001600160a01b031681565b348015610802575f5ffd5b5060065461060e906001600160a01b031681565b348015610821575f5ffd5b50610527610830366004614918565b6114ac565b348015610840575f5ffd5b5061057060205481565b348015610855575f5ffd5b5061060e7f000000000000000000000000000000000000000000000000000000000000000081565b348015610888575f5ffd5b5061057060175481565b34801561089d575f5ffd5b506108a66114de565b604080519485526020850193909352918301526060820152608001610552565b3480156108d1575f5ffd5b506105706108e036600461489b565b6001600160a01b03165f9081526020819052604090205490565b348015610905575f5ffd5b50610527611530565b348015610919575f5ffd5b5061057060165481565b34801561092e575f5ffd5b5061057069152d02c7e14af680000081565b34801561094b575f5ffd5b5061057060145481565b348015610960575f5ffd5b506005546001600160a01b031661060e565b34801561097d575f5ffd5b50600b5461060e906001600160a01b031681565b34801561099c575f5ffd5b50610570611543565b3480156109b0575f5ffd5b506105af611572565b3480156109c4575f5ffd5b506105466109d336600461489b565b601e6020525f908152604090205460ff1681565b3480156109f2575f5ffd5b50610527610a0136600461494f565b611581565b348015610a11575f5ffd5b50610570610a2036600461489b565b60096020525f908152604090205481565b348015610a3c575f5ffd5b50610ab1610a4b36600461489b565b600a6020525f908152604090208054600182015460028301546003840154600485015460058601546006870154600788015460088901546009909901546001600160a01b0390981698969795969495939492939192909160ff808216916101009004168b565b604080516001600160a01b03909c168c5260208c019a909a52988a01979097526060890195909552608088019390935260a087019190915260c086015260e08501526101008401521515610120830152151561014082015261016001610552565b348015610b1d575f5ffd5b50610546610b2c36600461481c565b6115f3565b348015610b3c575f5ffd5b5061057060125481565b348015610b51575f5ffd5b5060105461060e906001600160a01b031681565b348015610b70575f5ffd5b50610570611600565b348015610b84575f5ffd5b5061060e7355d398326f99059ff775485246999027b319795581565b348015610bab575f5ffd5b50610527611640565b348015610bbf575f5ffd5b5061057060135481565b348015610bd4575f5ffd5b50610546610be33660046149d1565b611773565b348015610bf3575f5ffd5b50610570610c023660046149d1565b6001600160a01b039182165f90815260016020908152604080832093909416825291909152205490565b348015610c37575f5ffd5b50600e5461060e906001600160a01b031681565b348015610c56575f5ffd5b5061057060155481565b348015610c6b575f5ffd5b50610527610c7a3660046149d1565b6118af565b348015610c8a575f5ffd5b5060195461060e906001600160a01b031681565b348015610ca9575f5ffd5b50610570610cb836600461489b565b6118e5565b348015610cc8575f5ffd5b50610d83610cd736600461489b565b6001600160a01b039081165f908152600a60209081526040918290208251610160810184528154909416845260018101549184018290526002810154928401929092526003820154606084015260048201546080840152600582015460a0840152600682015460c0840152600782015460e084015260088201546101008085019190915260099092015460ff808216151561012086018190529390910416151561014090930183905292565b604080519384529115156020840152151590820152606001610552565b348015610dab575f5ffd5b50610527610dba36600461489b565b611af4565b348015610dca575f5ffd5b50610527610dd936600461489b565b611b36565b348015610de9575f5ffd5b50610546610df83660046149d1565b600760209081525f928352604080842090915290825290205460ff1681565b6040805160028082526060820183525f92839291906020830190803683375050600b5482519293506001600160a01b0316918391505f90610e5a57610e5a614a11565b60200260200101906001600160a01b031690816001600160a01b0316815250503081600181518110610e8e57610e8e614a11565b6001600160a01b03928316602091820292909201015260115460405163b6f9de9560e01b81527f000000000000000000000000000000000000000000000000000000000000000083169263b6f9de95928792610ef5925f9288929116904290600401614a25565b5f604051808303818588803b158015610f0c575f5ffd5b505af1158015610f1e573d5f5f3e3d5ffd5b50506011546001600160a01b03165f908152602081905260408120549093509150610f469050565b601154909150610f60906001600160a01b03163083611b60565b610f8b307f000000000000000000000000000000000000000000000000000000000000000083611c86565b60405163f305d71960e01b81523060048201819052602482018390525f60448301819052606483015260848201524260a48201527f00000000000000000000000000000000000000000000000000000000000000006001600160a01b03169063f305d71990869060c40160606040518083038185885af1158015611011573d5f5f3e3d5ffd5b50505050506040513d601f19601f820116820180604052508101906110369190614a59565b9695505050505050565b60606003805461104f90614a84565b80601f016020809104026020016040519081016040528092919081815260200182805461107b90614a84565b80156110c65780601f1061109d576101008083540402835291602001916110c6565b820191905f5260205f20905b8154815290600101906020018083116110a957829003601f168201915b5050505050905090565b5f336110dd818585611c86565b60019150505b92915050565b60065460408051630240bc6b60e21b815290515f926001600160a01b031691839182918491630902f1ac916004808201926060929091908290030181865afa158015611137573d5f5f3e3d5ffd5b505050506040513d601f19601f8201168201806040525081019061115b9190614acc565b50915091505f836001600160a01b0316630dfe16816040518163ffffffff1660e01b8152600401602060405180830381865afa15801561119d573d5f5f3e3d5ffd5b505050506040513d601f19601f820116820180604052508101906111c19190614b0d565b90506001600160a01b03811630146111d957816111db565b825b6001600160701b031694505050505090565b600f81815481106111fc575f80fd5b5f918252602090912001546001600160a01b0316905081565b5f33611222858285611c98565b61122d858585611d0e565b506001949350505050565b611240611d6b565b601080546001600160a01b0319166001600160a01b0392909216919091179055565b5f816001036112735750600a919050565b8160020361128357506005919050565b8160030361129357506003919050565b600482101580156112a5575060118211155b156112b257506001919050565b816012036112c257506003919050565b816013036112d257506005919050565b816014036112e25750600a919050565b505f919050565b6112f1611d6b565b60168190556113038162278d00614799565b60175550565b6001600160a01b0381165f9081526008602052604090206060906110e390611d98565b60065460408051630240bc6b60e21b815290516001600160a01b03909216915f9182918491630902f1ac9160048083019260609291908290030181865afa158015611379573d5f5f3e3d5ffd5b505050506040513d601f19601f8201168201806040525081019061139d9190614acc565b5091509150816001600160701b03165f14806113c057506001600160701b038116155b156113ca57505050565b5f836001600160a01b0316630dfe16816040518163ffffffff1660e01b8152600401602060405180830381865afa158015611407573d5f5f3e3d5ffd5b505050506040513d601f19601f8201168201806040525081019061142b9190614b0d565b90505f6001600160a01b03821630146114445782611446565b835b6001600160701b0316905060125481101561148557601154600160a01b900460ff16611480576011805460ff60a01b1916600160a01b1790555b6114a5565b601154600160a01b900460ff16156114a5576011805460ff60a01b191690555b5050505050565b6114b4611d6b565b6001600160a01b03919091165f908152601e60205260409020805460ff1916911515919091179055565b5f5f5f5f5f6114eb6110e9565b90506a52b7d2dcc80cd2e4000000811115611517576106405f61012c603c94509450945094505061152a565b6103e85f61012c603c9450945094509450505b90919293565b611538611d6b565b6115415f611dab565b565b5f5f61154d6110e9565b90506a52b7d2dcc80cd2e400000081111561156a57603291505090565b601491505090565b60606004805461104f90614a84565b611589611d6b565b5f5b828110156115ed5781601e5f8686858181106115a9576115a9614a11565b90506020020160208101906115be919061489b565b6001600160a01b0316815260208101919091526040015f20805460ff191691151591909117905560010161158b565b50505050565b5f336110dd818585611d0e565b61dead5f90815260208190527f44ad89ba62b98ff34f51403ac22759b55759460c0bb5521eb4b6ee3cff49cf835460025461163b9190614b28565b905090565b600b546006546040516370a0823160e01b81523060048201526001600160a01b039283169263a9059cbb92169083906370a0823190602401602060405180830381865afa158015611693573d5f5f3e3d5ffd5b505050506040513d601f19601f820116820180604052508101906116b79190614b3b565b6040518363ffffffff1660e01b81526004016116d4929190614b52565b6020604051808303815f875af11580156116f0573d5f5f3e3d5ffd5b505050506040513d601f19601f820116820180604052508101906117149190614b6b565b5060065f9054906101000a90046001600160a01b03166001600160a01b031663fff6cae96040518163ffffffff1660e01b81526004015f604051808303815f87803b158015611761575f5ffd5b505af11580156115ed573d5f5f3e3d5ffd5b6001600160a01b038281165f908152600a60205260408120549091161580156117aa57506018546001600160a01b03848116911614155b80156117c457506006546001600160a01b03838116911614155b80156117de57506006546001600160a01b03848116911614155b156117ea57505f6110e3565b6001600160a01b038084165f9081526007602090815260408083209386168352929052205460ff168061182e5750816001600160a01b0316836001600160a01b0316145b1561183a57505f6110e3565b815f5b6001600160a01b03821615801590611858575060198160ff16105b1561122d57846001600160a01b0316826001600160a01b031603611880575f925050506110e3565b6001600160a01b039182165f908152600a602052604090205490911690806118a781614b86565b91505061183d565b6118b7611d6b565b600d80546001600160a01b039384166001600160a01b031991821617909155600e8054929093169116179055565b6001600160a01b038082165f908152600a60209081526040808320815161016081018352815490951685526001810154928501929092526002820154908401526003810154606084015260048101546080840152600581015460a0840152600681015460c0840152600781015460e084015260088101546101008085019190915260099091015460ff808216151561012086015291900416158015610140840152909190806119975750806101200151155b156119a457505f92915050565b6001600160a01b0383165f90815260096020526040812054908190036119cd57505f9392505050565b5f620151806119dc8342614b28565b6119e691906147c0565b905060c88111156119fb57505f949350505050565b5f611a046114de565b5050509050607d821115611a1757506103e85b60208401515f620186a0611a2b8484614ba4565b611a3591906147c0565b90505f5f876080015111611a495785611a4f565b86608001515b90505f62015180611a608342614b28565b611a6a91906147c0565b9050805f03611a8257505f9998505050505050505050565b5f611a8d8285614ba4565b90505f611a9b866003614ba4565b905080828b6101000151611aaf9190614799565b1115611ae557808a610100015110611ad257505f9b9a5050505050505050505050565b6101008a0151611ae29082614b28565b91505b509a9950505050505050505050565b611afc611d6b565b6001600160a01b038116611b2a57604051631e4fbdf760e01b81525f60048201526024015b60405180910390fd5b611b3381611dab565b50565b611b3e611d6b565b600c80546001600160a01b0319166001600160a01b0392909216919091179055565b6001600160a01b038316611b8a578060025f828254611b7f9190614799565b90915550611bfa9050565b6001600160a01b0383165f9081526020819052604090205481811015611bdc5760405163391434e360e21b81526001600160a01b03851660048201526024810182905260448101839052606401611b21565b6001600160a01b0384165f9081526020819052604090209082900390555b6001600160a01b038216611c1657600280548290039055611c34565b6001600160a01b0382165f9081526020819052604090208054820190555b816001600160a01b0316836001600160a01b03167fddf252ad1be2c89b69c2b068fc378daa952ba7f163c4a11628f55a4df523b3ef83604051611c7991815260200190565b60405180910390a3505050565b611c938383836001611dfc565b505050565b6001600160a01b038381165f908152600160209081526040808320938616835292905220545f198110156115ed5781811015611d0057604051637dc7a0d960e11b81526001600160a01b03841660048201526024810182905260448101839052606401611b21565b6115ed84848484035f611dfc565b6001600160a01b038316611d3757604051634b637e8f60e11b81525f6004820152602401611b21565b6001600160a01b038216611d605760405163ec442f0560e01b81525f6004820152602401611b21565b611c93838383611ece565b6005546001600160a01b031633146115415760405163118cdaa760e01b8152336004820152602401611b21565b60605f611da483612b3c565b9392505050565b600580546001600160a01b038381166001600160a01b0319831681179093556040519116919082907f8be0079c531659141344cd1fd0a4f28419497f9722a3daafe3b4186f6b6457e0905f90a35050565b6001600160a01b038416611e255760405163e602df0560e01b81525f6004820152602401611b21565b6001600160a01b038316611e4e57604051634a1406b160e11b81525f6004820152602401611b21565b6001600160a01b038085165f90815260016020908152604080832093871683529290522082905580156115ed57826001600160a01b0316846001600160a01b03167f8c5be1e5ebec7d5bd14f71427d1e84f3dd0314c0f7b2291e5b200ac8c7c3b92584604051611ec091815260200190565b60405180910390a350505050565b671bc16d674ec8000081148015611f0a57506001600160a01b038083165f9081526007602090815260408083209387168352929052205460ff16155b8015611f1b5750611f1b8383611773565b15611f50576001600160a01b038084165f908152600760209081526040808320938616835292905220805460ff191660011790555b670de0b6b3a764000081148015611f8b57506001600160a01b038083165f9081526007602090815260408083209387168352929052205460ff165b8015611fae57506001600160a01b038381165f908152600a602052604090205416155b15612036576001600160a01b038381165f908152600a6020908152604080832080546001600160a01b03191694871694851790559282526008905220611ff49084612b95565b50816001600160a01b0316836001600160a01b03167f8d63f2e3d39eb6cf9c80d49bc203133f6f215ce2a1a3d27a68f0167f6c045d4860405160405180910390a35b6001600160a01b0382163014801561204d57503332145b156120db576001600160a01b0383165f908152601e602052604090205460ff16158015612083575068056bc75e2d631000008110155b8015612099575069152d02c7e14af68000008111155b80156120a85750601f5460ff16155b80156120cc5750305f9081526020819052604090205469021e19e0c9bab240000011155b156120db57611c938382612ba9565b6001600160a01b038084165f908152600a6020908152604091829020825161016081018452815490941684526001810154918401919091526002810154918301919091526003810154606083015260048101546080830152600581015460a0830152600681015460c0830152600781015460e083015260088101546101008084019190915260099091015460ff8082161515610120850152919004161515610140820152333214801561219057508061014001515b801561219f57505f8160400151115b80156121b357506001600160a01b03831630145b1561248757670de0b6b3a764000082036122e757601154600160a01b900460ff16156121f257604051632f35253160e01b815260040160405180910390fd5b806101200151612259576001600160a01b0384165f908152600a60205260409020600901805460ff1916600117905561222e4262015180614799565b6001600160a01b0385165f908152600a602052604090206003810191909155426004909101556122e7565b806101200151801561226f575080606001514210155b156122ce5761227d84612d5d565b61228a4262015180614799565b6001600160a01b0385165f908152600a602052604090206003810191909155426004909101556122bb848484611b60565b6115ed3085670de0b6b3a7640000611b60565b604051632f35253160e01b815260040160405180910390fd5b678ac7230489e80000820361247c5742601654106123175760405162461bcd60e51b8152600401611b2190614bbb565b604081015180156123e2575f61232b611543565b90508015612366575f60648285604001516123469190614ba4565b61235091906147c0565b90508084604001516123629190614b28565b9250505b81156123e05760065460405163a9059cbb60e01b81526001600160a01b039091169063a9059cbb9061239e9089908690600401614b52565b6020604051808303815f875af11580156123ba573d5f5f3e3d5ffd5b505050506040513d601f19601f820116820180604052508101906123de9190614b6b565b505b505b6001600160a01b038086165f908152600a6020526040808220600981018054600283018590556001830185905561ffff1916905560048101839055600801829055845190921681522060070154156124665781516001600160a01b03165f908152600a60205260408120600701805460019290612460908490614b28565b90915550505b612471858585611b60565b6114a5308685611b60565b6115ed848484611b60565b6001600160a01b0384163014806124a657506001600160a01b03831630145b806124be57506011546001600160a01b038581169116145b806124d657506011546001600160a01b038481169116145b156124e6576115ed848484611b60565b6006546001600160a01b03908116908516036127e057426016541061251d5760405162461bcd60e51b8152600401611b2190614bbb565b325f90815260096020526040812042905561253661353d565b111561260c575f5f6125466110e9565b90506b033b2e3c9fd0803ce8000000811061257957600a612568856009614ba4565b61257291906147c0565b91506125db565b6b019d971e4fe8401e74000000811061259957600a612568856006614ba4565b6a52b7d2dcc80cd2e400000081106125b857600a612568856004614ba4565b6a295be96e6406697200000081106125d757600a612568856002614ba4565b8391505b6125e88661dead84611b60565b818411156126045761260486866125ff8588614b28565b611b60565b505050505050565b6064612616611600565b612621906005614ba4565b61262b91906147c0565b82106126655760405162461bcd60e51b815260206004820152600960248201526836b0bc103a37b5b2b760b91b6044820152606401611b21565b61266d6136d2565b601d545f9060ff166126815761012c612685565b610b545b61ffff1690505f6127106126998386614ba4565b6126a391906147c0565b90505f6127106126b58661012c614ba4565b6126bf91906147c0565b601d549091505f9060ff1680156126d557508183115b15612725576126e48284614b28565b90505f6126f26002836147c0565b90506126ff893083611b60565b6127098183614b28565b60135f8282546127199190614799565b92505081905550829350505b5f600a612733856007614ba4565b61273d91906147c0565b90508060135f8282546127509190614799565b909155505f9050600a612764866001614ba4565b61276e91906147c0565b905061277d8a61dead83611b60565b5f816127898488614b28565b6127939190614b28565b90508060145f8282546127a69190614799565b909155506127b790508b3085611b60565b6127c28b3083611b60565b6127cc8487614799565b6127d6908a614b28565b9850505050505050505b6006546001600160a01b0390811690841603612b3457601a54600160a81b900460ff16156128dc5760065460408051630240bc6b60e21b815290516001600160a01b03909216915f9182918491630902f1ac9160048083019260609291908290030181865afa158015612855573d5f5f3e3d5ffd5b505050506040513d601f19601f820116820180604052508101906128799190614acc565b5091509150816001600160701b03165f14801561289d57506001600160701b038116155b80156128b25750601a54600160a81b900460ff165b156128d857601a805460ff60a81b191690556128cf878787611b60565b50505050505050565b5050505b6128e7600a42614b28565b325f90815260096020526040902054106129285760405162461bcd60e51b815260206004820152600260248201526118d960f21b6044820152606401611b21565b5f61293283613931565b11612b345742601654106129585760405162461bcd60e51b8152600401611b2190614bbb565b6064612962611600565b61296d90600a614ba4565b61297791906147c0565b82106129b15760405162461bcd60e51b815260206004820152600960248201526836b0bc103a37b5b2b760b91b6044820152606401611b21565b6129b96136d2565b601d545f9060ff166129cd5761012c6129d1565b610b545b61ffff1690505f6127106129e58386614ba4565b6129ef91906147c0565b90505f612710612a018661012c614ba4565b612a0b91906147c0565b601d549091505f9060ff168015612a2157508183115b15612a7157612a308284614b28565b90505f612a3e6002836147c0565b9050612a4b893083611b60565b612a558183614b28565b60135f828254612a659190614799565b92505081905550829350505b5f600a612a7f856007614ba4565b612a8991906147c0565b90508060135f828254612a9c9190614799565b909155505f9050600a612ab0866001614ba4565b612aba91906147c0565b9050612ac98a61dead83611b60565b5f81612ad58488614b28565b612adf9190614b28565b90508060145f828254612af29190614799565b90915550612b0390508b3085611b60565b612b0e8b3083611b60565b612b188487614799565b612b22908a614b28565b9850612b2c613b46565b505050505050505b61247c61132c565b6060815f01805480602002602001604051908101604052809291908181526020018280548015612b8957602002820191905f5260205f20905b815481526020019060010190808311612b75575b50505050509050919050565b5f611da4836001600160a01b038416613e50565b5f612bb5600a83614bde565b90505f612bc3600283614bde565b1590505f612bd2600143614b28565b40905080612be957612be5600243614b28565b4090505b60ff81165f612bf9600a83614bf1565b90505f612c07600283614bf1565b60ff1615905084151581145f612c1e896002614ba4565b9050612c2b8a308b611b60565b8115612d0a57305f90815260208190526040902054818110612c9e57612c52308c84611b60565b604080518b8152602081018490526001916001600160a01b038e16917f4dab1356cd0582feb480a4c99e95bb70c5d60b9b3f27d2cd27f5ccc64e6583e0910160405180910390a3612d04565b8015612caf57612caf308c83611b60565b601f805460ff19166001908117909155604080518c8152602081018490526001600160a01b038e16917f4dab1356cd0582feb480a4c99e95bb70c5d60b9b3f27d2cd27f5ccc64e6583e0910160405180910390a35b50612d51565b604080518a81525f60208201819052916001600160a01b038d16917f4dab1356cd0582feb480a4c99e95bb70c5d60b9b3f27d2cd27f5ccc64e6583e0910160405180910390a35b50505050505050505050565b6001600160a01b038082165f908152600a6020908152604091829020825161016081018452815490941684526001810154918401919091526002810154918301919091526003810154606083015260048101546080830152600581015460a0830152600681015460c0830152600781015460e083015260088101546101008084019190915260099091015460ff80821615156101208501529190041615156101408201819052612e455760405162461bcd60e51b8152602060048201526013602482015272155cd95c881a185cc81b9bdd08189bdd59da1d606a1b6044820152606401611b21565b806101200151612e975760405162461bcd60e51b815260206004820152601b60248201527f53746174696320726577617264206e6f7420617661696c61626c6500000000006044820152606401611b21565b5f612ea1836118e5565b90505f8111612f185760405162461bcd60e51b815260206004820152603960248201527f4e6f207374617469632072657761726420617661696c61626c65206f7220636160448201527f702072656163686564206f722074696d652065787069726564000000000000006064820152608401611b21565b5f5f5f612f236114de565b6020890151929650909450925090505f620186a0612f418684614ba4565b612f4b91906147c0565b90505f620186a0612f5c8685614ba4565b612f6691906147c0565b90505f620186a0612f778686614ba4565b612f8191906147c0565b90505f8183612f90868c614799565b612f9a9190614799565b612fa49190614799565b90505f612fb082613e9c565b9050612fba614767565b612fc382613fd8565b8082528390612fd3908d90614ba4565b612fdd91906147c0565b81600160200201526006546001600160a01b031663a9059cbb8e83600160200201516040518363ffffffff1660e01b815260040161301c929190614b52565b6020604051808303815f875af1158015613038573d5f5f3e3d5ffd5b505050506040513d601f19601f8201168201806040525081019061305c9190614b6b565b5061306e8d82600160200201516143bd565b604082015280518390613082908790614ba4565b61308c91906147c0565b6060820152600d546001600160a01b0316158015906130b55750600e546001600160a01b031615155b156132af575f600a82600360200201516130d0906007614ba4565b6130da91906147c0565b90505f8183600360200201516130f09190614b28565b905060175442101561318157600654600e546001600160a01b039182169163a9059cbb91168560035b60200201516040518363ffffffff1660e01b815260040161313b929190614b52565b6020604051808303815f875af1158015613157573d5f5f3e3d5ffd5b505050506040513d601f19601f8201168201806040525081019061317b9190614b6b565b506132a8565b6017546131919062278d00614799565b4210156131b957600654600e546001600160a01b039182169163a9059cbb9116856003613119565b600654600d5460405163a9059cbb60e01b81526001600160a01b039283169263a9059cbb926131ef929116908690600401614b52565b6020604051808303815f875af115801561320b573d5f5f3e3d5ffd5b505050506040513d601f19601f8201168201806040525081019061322f9190614b6b565b50600654600e5460405163a9059cbb60e01b81526001600160a01b039283169263a9059cbb92613266929116908590600401614b52565b6020604051808303815f875af1158015613282573d5f5f3e3d5ffd5b505050506040513d601f19601f820116820180604052508101906132a69190614b6b565b505b505061332a565b600654600c54606083015160405163a9059cbb60e01b81526001600160a01b039384169363a9059cbb936132e893911691600401614b52565b6020604051808303815f875af1158015613304573d5f5f3e3d5ffd5b505050506040513d601f19601f820116820180604052508101906133289190614b6b565b505b600c5f9054906101000a90046001600160a01b03166001600160a01b031663c33fb8776040518163ffffffff1660e01b81526004015f604051808303815f87803b158015613376575f5ffd5b505af1925050508015613387575060015b5080518390613397908690614ba4565b6133a191906147c0565b6080820181905260065460195460405163a9059cbb60e01b81526001600160a01b039283169363a9059cbb936133db931691600401614b52565b6020604051808303815f875af11580156133f7573d5f5f3e3d5ffd5b505050506040513d601f19601f8201168201806040525081019061341b9190614b6b565b506080810151606082015160408301516020840151845161343c9190614b28565b6134469190614b28565b6134509190614b28565b61345a9190614b28565b60a08201819052156134e15760065460195460a083015160405163a9059cbb60e01b81526001600160a01b039384169363a9059cbb9361349f93911691600401614b52565b6020604051808303815f875af11580156134bb573d5f5f3e3d5ffd5b505050506040513d601f19601f820116820180604052508101906134df9190614b6b565b505b6001600160a01b038d165f908152600a6020526040812060080180548d929061350b908490614799565b9091555050506001600160a01b03909b165f908152600a60205260409020426004909101555050505050505050505050565b5f5f60065f9054906101000a90046001600160a01b03166001600160a01b0316630902f1ac6040518163ffffffff1660e01b8152600401606060405180830381865afa15801561358f573d5f5f3e3d5ffd5b505050506040513d601f19601f820116820180604052508101906135b39190614acc565b5050600b546006546040516370a0823160e01b81526001600160a01b0391821660048201526001600160701b039390931693505f929116906370a0823190602401602060405180830381865afa15801561360f573d5f5f3e3d5ffd5b505050506040513d601f19601f820116820180604052508101906136339190614b3b565b9050808211156136cd57600654604080516318160ddd60e01b815290515f926001600160a01b0316916318160ddd9160048083019260209291908290030181865afa158015613684573d5f5f3e3d5ffd5b505050506040513d601f19601f820116820180604052508101906136a89190614b3b565b9050816136b58185614b28565b6136bf9083614ba4565b6136c991906147c0565b9350505b505090565b60065460408051630240bc6b60e21b815290516001600160a01b03909216915f9182918491630902f1ac9160048083019260609291908290030181865afa15801561371f573d5f5f3e3d5ffd5b505050506040513d601f19601f820116820180604052508101906137439190614acc565b5091509150816001600160701b03165f148061376657506001600160701b038116155b1561377057505050565b5f836001600160a01b0316630dfe16816040518163ffffffff1660e01b8152600401602060405180830381865afa1580156137ad573d5f5f3e3d5ffd5b505050506040513d601f19601f820116820180604052508101906137d19190614b0d565b90505f6001600160a01b03821630146137ea57826137ec565b835b6001600160701b031690505f6001600160a01b038316301461380e5784613810565b835b6001600160701b03169050805f0361382a57505050505050565b5f8261383e83670de0b6b3a7640000614ba4565b61384891906147c0565b90505f61385862015180426147c0565b9050601b54811115613927575f601c5411801561388e57506064601c54605c6138819190614ba4565b61388b91906147c0565b82105b1561391157601d805460ff19166001179055601c547f0e9560271ff9c39b91baaaafebb009e70ad170a54ab31a72f4b884680b0766829082906138d1575f6138f4565b601c546138de8582614b28565b6138ea90612710614ba4565b6138f491906147c0565b6040805192835260208301919091520160405180910390a161391c565b601d805460ff191690555b601c829055601b8190555b5050505050505050565b5f6001600160a01b037f0000000000000000000000000000000000000000000000000000000000000000163303613b41575f5f60065f9054906101000a90046001600160a01b03166001600160a01b0316630902f1ac6040518163ffffffff1660e01b8152600401606060405180830381865afa1580156139b4573d5f5f3e3d5ffd5b505050506040513d601f19601f820116820180604052508101906139d89190614acc565b50600b546006546040516370a0823160e01b81526001600160a01b0391821660048201526001600160701b0394851696509290931693505f9216906370a0823190602401602060405180830381865afa158015613a37573d5f5f3e3d5ffd5b505050506040513d601f19601f82011682018060405250810190613a5b9190614b3b565b905082811115613b3d57600654604080516318160ddd60e01b815290515f926001600160a01b0316916318160ddd9160048083019260209291908290030181865afa158015613aac573d5f5f3e3d5ffd5b505050506040513d601f19601f82011682018060405250810190613ad09190614b3b565b9050805f03613ae55750600195945050505050565b613af081838561458d565b613afa9082614799565b9050613b398482613b0b8286614b28565b613b159190614ba4565b613b1f91906147c0565b84613b2a848a614ba4565b613b3491906147c0565b614682565b9450505b5050505b919050565b5f601454601354613b579190614799565b9050670de0b6b3a7640000811015613b6c5750565b613b97307f000000000000000000000000000000000000000000000000000000000000000083611c86565b6040805160028082526060820183525f9260208301908036833701905050905030815f81518110613bca57613bca614a11565b6001600160a01b039283166020918202929092010152600b54825191169082906001908110613bfb57613bfb614a11565b6001600160a01b03928316602091820292909201015260405163791ac94760e01b81527f00000000000000000000000000000000000000000000000000000000000000009091169063791ac94790613c5f9085905f90869030904290600401614c12565b5f604051808303815f87803b158015613c76575f5ffd5b505af1158015613c88573d5f5f3e3d5ffd5b50506014544792505f91508490613c9f9084614ba4565b613ca991906147c0565b601a54909150613cc2906001600160a01b031682614697565b5f613ccd8284614b28565b90505f81118015613ce85750600c546001600160a01b031615155b15613e24576040805160028082526060820183525f926020830190803683375050600b5482519293506001600160a01b0316918391505f90613d2c57613d2c614a11565b60200260200101906001600160a01b031690816001600160a01b0316815250507355d398326f99059ff775485246999027b319795581600181518110613d7457613d74614a11565b6001600160a01b039283166020918202929092010152600c5460405163b6f9de9560e01b81527f000000000000000000000000000000000000000000000000000000000000000083169263b6f9de95928692613ddb925f9288929116904290600401614a25565b5f604051808303818588803b158015613df2575f5ffd5b505af193505050508015613e04575060015b613e1e57600c54613e1e906001600160a01b031683614697565b50613e40565b8015613e4057600c54613e40906001600160a01b031682614697565b50505f6013819055601455505050565b5f818152600183016020526040812054613e9557508154600181810184555f8481526020808220909301849055845484825282860190935260409020919091556110e3565b505f6110e3565b6040805160028082526060820183525f92839291906020830190803683375050600b5482519293506001600160a01b0316918391505f90613edf57613edf614a11565b60200260200101906001600160a01b031690816001600160a01b0316815250503081600181518110613f1357613f13614a11565b6001600160a01b03928316602091820292909201015260405163d06ca61f60e01b81525f917f0000000000000000000000000000000000000000000000000000000000000000169063d06ca61f90613f719087908690600401614c4d565b5f60405180830381865afa158015613f8b573d5f5f3e3d5ffd5b505050506040513d5f823e601f3d908101601f19168201604052613fb29190810190614c6d565b905080600181518110613fc757613fc7614a11565b602002602001015192505050919050565b5f80613fe56002846147c0565b6040805160028082526060820183529293505f92909160208301908036833701905050905030815f8151811061401d5761401d614a11565b6001600160a01b039283166020918202929092010152600b5482519116908290600190811061404e5761404e614a11565b6001600160a01b03928316602091820292909201015260065461407391163086611b60565b60065f9054906101000a90046001600160a01b03166001600160a01b031663fff6cae96040518163ffffffff1660e01b81526004015f604051808303815f87803b1580156140bf575f5ffd5b505af11580156140d1573d5f5f3e3d5ffd5b50505050614100307f000000000000000000000000000000000000000000000000000000000000000086611c86565b601154604051635c11d79560e01b81526001600160a01b037f0000000000000000000000000000000000000000000000000000000000000000811692635c11d7959261415b9287925f92889291909116904290600401614c12565b5f604051808303815f87803b158015614172575f5ffd5b505af1158015614184573d5f5f3e3d5ffd5b5050600b546011546040516370a0823160e01b81526001600160a01b0391821660048201525f9450911691506370a0823190602401602060405180830381865afa1580156141d4573d5f5f3e3d5ffd5b505050506040513d601f19601f820116820180604052508101906141f89190614b3b565b601154600b5460405163092dfdb360e11b81526001600160a01b03918216600482015230602482015260448101849052929350169063125bfb66906064015f604051808303815f87803b15801561424d575f5ffd5b505af115801561425f573d5f5f3e3d5ffd5b5050600b5460405163095ea7b360e01b81526001600160a01b03909116925063095ea7b391506142b5907f0000000000000000000000000000000000000000000000000000000000000000908590600401614b52565b6020604051808303815f875af11580156142d1573d5f5f3e3d5ffd5b505050506040513d601f19601f820116820180604052508101906142f59190614b6b565b50600b5460405162e8e33760e81b81526001600160a01b039182166004820152306024820181905260448201849052606482018690525f6084830181905260a483015260c48201524260e48201527f00000000000000000000000000000000000000000000000000000000000000009091169063e8e3370090610104016060604051808303815f875af115801561438e573d5f5f3e3d5ffd5b505050506040513d601f19601f820116820180604052508101906143b29190614a59565b979650505050505050565b6001600160a01b038083165f908152600a602090815260408083208151610160810183528154909516808652600180830154948701949094526002820154928601929092526003810154606086015260048101546080860152600581015460a0860152600681015460c0860152600781015460e086015260088101546101008087019190915260099091015460ff80821615156101208801529190041615156101408501529192919060145b6001600160a01b038316158015906144815750808211155b15614583575f61449083611262565b90505f606461449f838a614ba4565b6144a991906147c0565b90508015614552576001600160a01b0385165f908152600a602052604090206007015484116145525760065460405163a9059cbb60e01b81526001600160a01b039091169063a9059cbb906145049088908590600401614b52565b6020604051808303815f875af1158015614520573d5f5f3e3d5ffd5b505050506040513d601f19601f820116820180604052508101906145449190614b6b565b5061454f8188614799565b96505b6001600160a01b039485165f908152600a6020526040902054909416938361457981614d35565b9450505050614469565b5050505092915050565b5f806145a161459c8486614ba4565b6146fa565b90505f61461b60065f9054906101000a90046001600160a01b03166001600160a01b0316637464fc3d6040518163ffffffff1660e01b8152600401602060405180830381865afa1580156145f7573d5f5f3e3d5ffd5b505050506040513d601f19601f8201168201806040525081019061459c9190614b3b565b905080821115614679575f6146308284614b28565b61463a9088614ba4565b614645906008614ba4565b90505f614653836008614ba4565b61465e856011614ba4565b6146689190614799565b905061467481836147c0565b945050505b50509392505050565b5f8183106146905781611da4565b5090919050565b604080515f808252602082019092526001600160a01b0384169083906040516146c09190614d4d565b5f6040518083038185875af1925050503d805f8114612604576040519150601f19603f3d011682016040523d82523d5f602084013e612604565b5f60038211156147595750805f6147126002836147c0565b61471d906001614799565b90505b818110156147535790508060028161473881866147c0565b6147429190614799565b61474c91906147c0565b9050614720565b50919050565b8115613b4157506001919050565b6040518060c001604052806006906020820280368337509192915050565b634e487b7160e01b5f52601160045260245ffd5b808201808211156110e3576110e3614785565b634e487b7160e01b5f52601260045260245ffd5b5f826147ce576147ce6147ac565b500490565b602081525f82518060208401528060208501604085015e5f604082850101526040601f19601f83011684010191505092915050565b6001600160a01b0381168114611b33575f5ffd5b5f5f6040838503121561482d575f5ffd5b823561483881614808565b946020939093013593505050565b5f60208284031215614856575f5ffd5b5035919050565b5f5f5f6060848603121561486f575f5ffd5b833561487a81614808565b9250602084013561488a81614808565b929592945050506040919091013590565b5f602082840312156148ab575f5ffd5b8135611da481614808565b5f8151808452602084019350602083015f5b828110156148ef5781516001600160a01b03168652602095860195909101906001016148c8565b5093949350505050565b602081525f611da460208301846148b6565b8015158114611b33575f5ffd5b5f5f60408385031215614929575f5ffd5b823561493481614808565b915060208301356149448161490b565b809150509250929050565b5f5f5f60408486031215614961575f5ffd5b833567ffffffffffffffff811115614977575f5ffd5b8401601f81018613614987575f5ffd5b803567ffffffffffffffff81111561499d575f5ffd5b8660208260051b84010111156149b1575f5ffd5b6020918201945092508401356149c68161490b565b809150509250925092565b5f5f604083850312156149e2575f5ffd5b82356149ed81614808565b9150602083013561494481614808565b634e487b7160e01b5f52604160045260245ffd5b634e487b7160e01b5f52603260045260245ffd5b848152608060208201525f614a3d60808301866148b6565b6001600160a01b03949094166040830152506060015292915050565b5f5f5f60608486031215614a6b575f5ffd5b5050815160208301516040909301519094929350919050565b600181811c90821680614a9857607f821691505b60208210810361475357634e487b7160e01b5f52602260045260245ffd5b80516001600160701b0381168114613b41575f5ffd5b5f5f5f60608486031215614ade575f5ffd5b614ae784614ab6565b9250614af560208501614ab6565b9150604084015163ffffffff811681146149c6575f5ffd5b5f60208284031215614b1d575f5ffd5b8151611da481614808565b818103818111156110e3576110e3614785565b5f60208284031215614b4b575f5ffd5b5051919050565b6001600160a01b03929092168252602082015260400190565b5f60208284031215614b7b575f5ffd5b8151611da48161490b565b5f60ff821660ff8103614b9b57614b9b614785565b60010192915050565b80820281158282048414176110e3576110e3614785565b602080825260099082015268737461727454696d6560b81b604082015260600190565b5f82614bec57614bec6147ac565b500690565b5f60ff831680614c0357614c036147ac565b8060ff84160691505092915050565b85815284602082015260a060408201525f614c3060a08301866148b6565b6001600160a01b0394909416606083015250608001529392505050565b828152604060208201525f614c6560408301846148b6565b949350505050565b5f60208284031215614c7d575f5ffd5b815167ffffffffffffffff811115614c93575f5ffd5b8201601f81018413614ca3575f5ffd5b805167ffffffffffffffff811115614cbd57614cbd6149fd565b8060051b604051601f19603f830116810181811067ffffffffffffffff82111715614cea57614cea6149fd565b604052918252602081840181019290810187841115614d07575f5ffd5b6020850194505b83851015614d2a57845180825260209586019590935001614d0e565b509695505050505050565b5f60018201614d4657614d46614785565b5060010190565b5f82518060208501845e5f92019182525091905056fea264697066735822122010654277f6835de102e92455aed6825bf3ab3b25cbee78f4fced6c754fe3dee464736f6c634300082200336080604052348015600e575f5ffd5b503380603357604051631e4fbdf760e01b81525f600482015260240160405180910390fd5b603a81605b565b50335f908152600160208190526040909120805460ff1916909117905560aa565b5f80546001600160a01b038381166001600160a01b0319831681178455604051919092169283917f8be0079c531659141344cd1fd0a4f28419497f9722a3daafe3b4186f6b6457e09190a35050565b61044e806100b75f395ff3fe608060405234801561000f575f5ffd5b5060043610610060575f3560e01c8063125bfb6614610064578063172979e414610079578063715018a6146100b05780638d14e127146100b85780638da5cb5b146100cb578063f2fde38b146100e5575b5f5ffd5b610077610072366004610362565b6100f8565b005b61009b61008736600461039b565b60016020525f908152604090205460ff1681565b60405190151581526020015b60405180910390f35b610077610216565b6100776100c63660046103c8565b610229565b5f546040516001600160a01b0390911681526020016100a7565b6100776100f336600461039b565b61028f565b335f9081526001602052604090205460ff166101535760405162461bcd60e51b8152602060048201526015602482015274141bdbdb0e881b9bdd081dda1a5d195b1a5cdd1959605a1b60448201526064015b60405180910390fd5b60405163a9059cbb60e01b81526001600160a01b0383811660048301526024820183905284169063a9059cbb906044016020604051808303815f875af115801561019f573d5f5f3e3d5ffd5b505050506040513d601f19601f820116820180604052508101906101c391906103fd565b50816001600160a01b0316836001600160a01b03167ff7a40077ff7a04c7e61f6f26fb13774259ddf1b6bce9ecf26a8276cdd39926838360405161020991815260200190565b60405180910390a3505050565b61021e6102cc565b6102275f6102f8565b565b6102316102cc565b6001600160a01b0382165f81815260016020908152604091829020805460ff191685151590811790915591519182527fb1288e9f7bae3599e10819d5553febea48e11a6f8f585b32c8abad397dd2627e910160405180910390a25050565b6102976102cc565b6001600160a01b0381166102c057604051631e4fbdf760e01b81525f600482015260240161014a565b6102c9816102f8565b50565b5f546001600160a01b031633146102275760405163118cdaa760e01b815233600482015260240161014a565b5f80546001600160a01b038381166001600160a01b0319831681178455604051919092169283917f8be0079c531659141344cd1fd0a4f28419497f9722a3daafe3b4186f6b6457e09190a35050565b80356001600160a01b038116811461035d575f5ffd5b919050565b5f5f5f60608486031215610374575f5ffd5b61037d84610347565b925061038b60208501610347565b9150604084013590509250925092565b5f602082840312156103ab575f5ffd5b6103b482610347565b9392505050565b80151581146102c9575f5ffd5b5f5f604083850312156103d9575f5ffd5b6103e283610347565b915060208301356103f2816103bb565b809150509250929050565b5f6020828403121561040d575f5ffd5b81516103b4816103bb56fea2646970667358221220177eb0ab5b21ab35515087c3f0350e4b822b01cc97bbe058eb9ab943547071bf64736f6c634300082200334dab1356cd0582feb480a4c99e95bb70c5d60b9b3f27d2cd27f5ccc64e6583e0",
			"opcodes": "PUSH1 0xA0 PUSH1 0x40 MSTORE PUSH11 0x52B7D2DCC80CD2E4000000 PUSH1 0x12 SSTORE PUSH7 0x71AFD498D0000 PUSH1 0x15 SSTORE PUSH1 0x18 DUP1 SLOAD PUSH1 0x1 PUSH1 0x1 PUSH1 0xA0 SHL SUB NOT AND PUSH20 0xE6A45D5F3E5D38103F9B1358672DED68FDF6835F OR SWAP1 SSTORE PUSH1 0x1A DUP1 SLOAD PUSH1 0xFF PUSH1 0xA8 SHL NOT AND PUSH1 0x1 PUSH1 0xA8 SHL OR SWAP1 SSTORE CALLVALUE DUP1 ISZERO PUSH2 0x62 JUMPI PUSH0 PUSH0 REVERT JUMPDEST POP PUSH1 0x40 MLOAD PUSH2 0x8E03 CODESIZE SUB DUP1 PUSH2 0x8E03 DUP4 CODECOPY DUP2 ADD PUSH1 0x40 DUP2 SWAP1 MSTORE PUSH2 0x81 SWAP2 PUSH2 0x34D9 JUMP JUMPDEST PUSH1 0x40 DUP1 MLOAD DUP1 DUP3 ADD DUP3 MSTORE PUSH1 0x5 DUP1 DUP3 MSTORE PUSH5 0x2927A6A0A7 PUSH1 0xD9 SHL PUSH1 0x20 DUP1 DUP5 ADD DUP3 SWAP1 MSTORE DUP5 MLOAD DUP1 DUP7 ADD SWAP1 SWAP6 MSTORE SWAP2 DUP5 MSTORE SWAP1 DUP4 ADD MSTORE CALLER SWAP2 PUSH1 0x3 PUSH2 0xBD DUP4 DUP3 PUSH2 0x35AD JUMP JUMPDEST POP PUSH1 0x4 PUSH2 0xCA DUP3 DUP3 PUSH2 0x35AD JUMP JUMPDEST POP POP POP PUSH1 0x1 PUSH1 0x1 PUSH1 0xA0 SHL SUB DUP2 AND PUSH2 0xFB JUMPI PUSH1 0x40 MLOAD PUSH4 0x1E4FBDF7 PUSH1 0xE0 SHL DUP2 MSTORE PUSH0 PUSH1 0x4 DUP3 ADD MSTORE PUSH1 0x24 ADD JUMPDEST PUSH1 0x40 MLOAD DUP1 SWAP2 SUB SWAP1 REVERT JUMPDEST PUSH2 0x104 DUP2 PUSH2 0x33B JUMP JUMPDEST POP PUSH20 0xD99D1C33F9FC3444F8101754ABC46C52416550D1 PUSH1 0x80 DUP2 SWAP1 MSTORE PUSH1 0x40 DUP1 MLOAD PUSH4 0x15AB88C9 PUSH1 0xE3 SHL DUP2 MSTORE SWAP1 MLOAD PUSH4 0xAD5C4648 SWAP2 PUSH1 0x4 DUP1 DUP3 ADD SWAP3 PUSH1 0x20 SWAP3 SWAP1 SWAP2 SWAP1 DUP3 SWAP1 SUB ADD DUP2 DUP7 GAS STATICCALL ISZERO DUP1 ISZERO PUSH2 0x158 JUMPI RETURNDATASIZE PUSH0 PUSH0 RETURNDATACOPY RETURNDATASIZE PUSH0 REVERT JUMPDEST POP POP POP POP PUSH1 0x40 MLOAD RETURNDATASIZE PUSH1 0x1F NOT PUSH1 0x1F DUP3 ADD AND DUP3 ADD DUP1 PUSH1 0x40 MSTORE POP DUP2 ADD SWAP1 PUSH2 0x17C SWAP2 SWAP1 PUSH2 0x3667 JUMP JUMPDEST PUSH1 0xB PUSH0 PUSH2 0x100 EXP DUP2 SLOAD DUP2 PUSH1 0x1 PUSH1 0x1 PUSH1 0xA0 SHL SUB MUL NOT AND SWAP1 DUP4 PUSH1 0x1 PUSH1 0x1 PUSH1 0xA0 SHL SUB AND MUL OR SWAP1 SSTORE POP PUSH1 0x80 MLOAD PUSH1 0x1 PUSH1 0x1 PUSH1 0xA0 SHL SUB AND PUSH4 0xC45A0155 PUSH1 0x40 MLOAD DUP2 PUSH4 0xFFFFFFFF AND PUSH1 0xE0 SHL DUP2 MSTORE PUSH1 0x4 ADD PUSH1 0x20 PUSH1 0x40 MLOAD DUP1 DUP4 SUB DUP2 DUP7 GAS STATICCALL ISZERO DUP1 ISZERO PUSH2 0x1DF JUMPI RETURNDATASIZE PUSH0 PUSH0 RETURNDATACOPY RETURNDATASIZE PUSH0 REVERT JUMPDEST POP POP POP POP PUSH1 0x40 MLOAD RETURNDATASIZE PUSH1 0x1F NOT PUSH1 0x1F DUP3 ADD AND DUP3 ADD DUP1 PUSH1 0x40 MSTORE POP DUP2 ADD SWAP1 PUSH2 0x203 SWAP2 SWAP1 PUSH2 0x3667 JUMP JUMPDEST PUSH1 0xB SLOAD PUSH1 0x40 MLOAD PUSH4 0x64E329CB PUSH1 0xE1 SHL DUP2 MSTORE ADDRESS PUSH1 0x4 DUP3 ADD MSTORE PUSH1 0x1 PUSH1 0x1 PUSH1 0xA0 SHL SUB SWAP2 DUP3 AND PUSH1 0x24 DUP3 ADD MSTORE SWAP2 AND SWAP1 PUSH4 0xC9C65396 SWAP1 PUSH1 0x44 ADD PUSH1 0x20 PUSH1 0x40 MLOAD DUP1 DUP4 SUB DUP2 PUSH0 DUP8 GAS CALL ISZERO DUP1 ISZERO PUSH2 0x251 JUMPI RETURNDATASIZE PUSH0 PUSH0 RETURNDATACOPY RETURNDATASIZE PUSH0 REVERT JUMPDEST POP POP POP POP PUSH1 0x40 MLOAD RETURNDATASIZE PUSH1 0x1F NOT PUSH1 0x1F DUP3 ADD AND DUP3 ADD DUP1 PUSH1 0x40 MSTORE POP DUP2 ADD SWAP1 PUSH2 0x275 SWAP2 SWAP1 PUSH2 0x3667 JUMP JUMPDEST PUSH1 0x6 DUP1 SLOAD PUSH1 0x1 PUSH1 0x1 PUSH1 0xA0 SHL SUB NOT SWAP1 DUP2 AND PUSH1 0x1 PUSH1 0x1 PUSH1 0xA0 SHL SUB SWAP4 DUP5 AND OR SWAP1 SWAP2 SSTORE PUSH1 0x19 DUP1 SLOAD DUP3 AND DUP6 DUP5 AND OR SWAP1 SSTORE PUSH1 0x1A DUP1 SLOAD SWAP1 SWAP2 AND SWAP2 DUP4 AND SWAP2 SWAP1 SWAP2 OR SWAP1 SSTORE PUSH1 0x40 MLOAD PUSH2 0x2BC SWAP1 PUSH2 0x3498 JUMP JUMPDEST PUSH1 0x40 MLOAD DUP1 SWAP2 SUB SWAP1 PUSH0 CREATE DUP1 ISZERO DUP1 ISZERO PUSH2 0x2D5 JUMPI RETURNDATASIZE PUSH0 PUSH0 RETURNDATACOPY RETURNDATASIZE PUSH0 REVERT JUMPDEST POP PUSH1 0x11 DUP1 SLOAD PUSH1 0x1 PUSH1 0x1 PUSH1 0xA0 SHL SUB NOT AND PUSH1 0x1 PUSH1 0x1 PUSH1 0xA0 SHL SUB SWAP3 SWAP1 SWAP3 AND SWAP2 SWAP1 SWAP2 OR SWAP1 SSTORE PUSH4 0x69AABA1F PUSH1 0x16 DUP2 SWAP1 SSTORE PUSH2 0x30D SWAP1 PUSH3 0x278D00 PUSH2 0x3694 JUMP JUMPDEST PUSH1 0x17 SSTORE PUSH2 0x333 DUP4 PUSH2 0x320 PUSH1 0x12 PUSH1 0xA PUSH2 0x378A JUMP JUMPDEST PUSH2 0x32E SWAP1 PUSH4 0x3B9ACA00 PUSH2 0x3798 JUMP JUMPDEST PUSH2 0x38C JUMP JUMPDEST POP POP POP PUSH2 0x3AD9 JUMP JUMPDEST PUSH1 0x5 DUP1 SLOAD PUSH1 0x1 PUSH1 0x1 PUSH1 0xA0 SHL SUB DUP4 DUP2 AND PUSH1 0x1 PUSH1 0x1 PUSH1 0xA0 SHL SUB NOT DUP4 AND DUP2 OR SWAP1 SWAP4 SSTORE PUSH1 0x40 MLOAD SWAP2 AND SWAP2 SWAP1 DUP3 SWAP1 PUSH32 0x8BE0079C531659141344CD1FD0A4F28419497F9722A3DAAFE3B4186F6B6457E0 SWAP1 PUSH0 SWAP1 LOG3 POP POP JUMP JUMPDEST PUSH1 0x1 PUSH1 0x1 PUSH1 0xA0 SHL SUB DUP3 AND PUSH2 0x3B5 JUMPI PUSH1 0x40 MLOAD PUSH4 0xEC442F05 PUSH1 0xE0 SHL DUP2 MSTORE PUSH0 PUSH1 0x4 DUP3 ADD MSTORE PUSH1 0x24 ADD PUSH2 0xF2 JUMP JUMPDEST PUSH2 0x3C0 PUSH0 DUP4 DUP4 PUSH2 0x3C4 JUMP JUMPDEST POP POP JUMP JUMPDEST PUSH8 0x1BC16D674EC80000 DUP2 EQ DUP1 ISZERO PUSH2 0x400 JUMPI POP PUSH1 0x1 PUSH1 0x1 PUSH1 0xA0 SHL SUB DUP1 DUP4 AND PUSH0 SWAP1 DUP2 MSTORE PUSH1 0x7 PUSH1 0x20 SWAP1 DUP2 MSTORE PUSH1 0x40 DUP1 DUP4 KECCAK256 SWAP4 DUP8 AND DUP4 MSTORE SWAP3 SWAP1 MSTORE KECCAK256 SLOAD PUSH1 0xFF AND ISZERO JUMPDEST DUP1 ISZERO PUSH2 0x411 JUMPI POP PUSH2 0x411 DUP4 DUP4 PUSH2 0x109A JUMP JUMPDEST ISZERO PUSH2 0x446 JUMPI PUSH1 0x1 PUSH1 0x1 PUSH1 0xA0 SHL SUB DUP1 DUP5 AND PUSH0 SWAP1 DUP2 MSTORE PUSH1 0x7 PUSH1 0x20 SWAP1 DUP2 MSTORE PUSH1 0x40 DUP1 DUP4 KECCAK256 SWAP4 DUP7 AND DUP4 MSTORE SWAP3 SWAP1 MSTORE KECCAK256 DUP1 SLOAD PUSH1 0xFF NOT AND PUSH1 0x1 OR SWAP1 SSTORE JUMPDEST PUSH8 0xDE0B6B3A7640000 DUP2 EQ DUP1 ISZERO PUSH2 0x481 JUMPI POP PUSH1 0x1 PUSH1 0x1 PUSH1 0xA0 SHL SUB DUP1 DUP4 AND PUSH0 SWAP1 DUP2 MSTORE PUSH1 0x7 PUSH1 0x20 SWAP1 DUP2 MSTORE PUSH1 0x40 DUP1 DUP4 KECCAK256 SWAP4 DUP8 AND DUP4 MSTORE SWAP3 SWAP1 MSTORE KECCAK256 SLOAD PUSH1 0xFF AND JUMPDEST DUP1 ISZERO PUSH2 0x4A4 JUMPI POP PUSH1 0x1 PUSH1 0x1 PUSH1 0xA0 SHL SUB DUP4 DUP2 AND PUSH0 SWAP1 DUP2 MSTORE PUSH1 0xA PUSH1 0x20 MSTORE PUSH1 0x40 SWAP1 KECCAK256 SLOAD AND ISZERO JUMPDEST ISZERO PUSH2 0x52C JUMPI PUSH1 0x1 PUSH1 0x1 PUSH1 0xA0 SHL SUB DUP4 DUP2 AND PUSH0 SWAP1 DUP2 MSTORE PUSH1 0xA PUSH1 0x20 SWAP1 DUP2 MSTORE PUSH1 0x40 DUP1 DUP4 KECCAK256 DUP1 SLOAD PUSH1 0x1 PUSH1 0x1 PUSH1 0xA0 SHL SUB NOT AND SWAP5 DUP8 AND SWAP5 DUP6 OR SWAP1 SSTORE SWAP3 DUP3 MSTORE PUSH1 0x8 SWAP1 MSTORE KECCAK256 PUSH2 0x4EA SWAP1 DUP5 PUSH2 0x11E3 JUMP JUMPDEST POP DUP2 PUSH1 0x1 PUSH1 0x1 PUSH1 0xA0 SHL SUB AND DUP4 PUSH1 0x1 PUSH1 0x1 PUSH1 0xA0 SHL SUB AND PUSH32 0x8D63F2E3D39EB6CF9C80D49BC203133F6F215CE2A1A3D27A68F0167F6C045D48 PUSH1 0x40 MLOAD PUSH1 0x40 MLOAD DUP1 SWAP2 SUB SWAP1 LOG3 JUMPDEST PUSH1 0x1 PUSH1 0x1 PUSH1 0xA0 SHL SUB DUP3 AND ADDRESS EQ DUP1 ISZERO PUSH2 0x543 JUMPI POP CALLER ORIGIN EQ JUMPDEST ISZERO PUSH2 0x5D6 JUMPI PUSH1 0x1 PUSH1 0x1 PUSH1 0xA0 SHL SUB DUP4 AND PUSH0 SWAP1 DUP2 MSTORE PUSH1 0x1E PUSH1 0x20 MSTORE PUSH1 0x40 SWAP1 KECCAK256 SLOAD PUSH1 0xFF AND ISZERO DUP1 ISZERO PUSH2 0x579 JUMPI POP PUSH9 0x56BC75E2D63100000 DUP2 LT ISZERO JUMPDEST DUP1 ISZERO PUSH2 0x58F JUMPI POP PUSH10 0x152D02C7E14AF6800000 DUP2 GT ISZERO JUMPDEST DUP1 ISZERO PUSH2 0x59E JUMPI POP PUSH1 0x1F SLOAD PUSH1 0xFF AND ISZERO JUMPDEST DUP1 ISZERO PUSH2 0x5C2 JUMPI POP ADDRESS PUSH0 SWAP1 DUP2 MSTORE PUSH1 0x20 DUP2 SWAP1 MSTORE PUSH1 0x40 SWAP1 KECCAK256 SLOAD PUSH10 0x21E19E0C9BAB2400000 GT ISZERO JUMPDEST ISZERO PUSH2 0x5D6 JUMPI PUSH2 0x5D1 DUP4 DUP3 PUSH2 0x11FE JUMP JUMPDEST POP POP POP JUMP JUMPDEST PUSH1 0x1 PUSH1 0x1 PUSH1 0xA0 SHL SUB DUP1 DUP5 AND PUSH0 SWAP1 DUP2 MSTORE PUSH1 0xA PUSH1 0x20 SWAP1 DUP2 MSTORE PUSH1 0x40 SWAP2 DUP3 SWAP1 KECCAK256 DUP3 MLOAD PUSH2 0x160 DUP2 ADD DUP5 MSTORE DUP2 SLOAD SWAP1 SWAP5 AND DUP5 MSTORE PUSH1 0x1 DUP2 ADD SLOAD SWAP2 DUP5 ADD SWAP2 SWAP1 SWAP2 MSTORE PUSH1 0x2 DUP2 ADD SLOAD SWAP2 DUP4 ADD SWAP2 SWAP1 SWAP2 MSTORE PUSH1 0x3 DUP2 ADD SLOAD PUSH1 0x60 DUP4 ADD MSTORE PUSH1 0x4 DUP2 ADD SLOAD PUSH1 0x80 DUP4 ADD MSTORE PUSH1 0x5 DUP2 ADD SLOAD PUSH1 0xA0 DUP4 ADD MSTORE PUSH1 0x6 DUP2 ADD SLOAD PUSH1 0xC0 DUP4 ADD MSTORE PUSH1 0x7 DUP2 ADD SLOAD PUSH1 0xE0 DUP4 ADD MSTORE PUSH1 0x8 DUP2 ADD SLOAD PUSH2 0x100 DUP1 DUP5 ADD SWAP2 SWAP1 SWAP2 MSTORE PUSH1 0x9 SWAP1 SWAP2 ADD SLOAD PUSH1 0xFF DUP1 DUP3 AND ISZERO ISZERO PUSH2 0x120 DUP6 ADD MSTORE SWAP2 SWAP1 DIV AND ISZERO ISZERO PUSH2 0x140 DUP3 ADD MSTORE CALLER ORIGIN EQ DUP1 ISZERO PUSH2 0x68B JUMPI POP DUP1 PUSH2 0x140 ADD MLOAD JUMPDEST DUP1 ISZERO PUSH2 0x69A JUMPI POP PUSH0 DUP2 PUSH1 0x40 ADD MLOAD GT JUMPDEST DUP1 ISZERO PUSH2 0x6AE JUMPI POP PUSH1 0x1 PUSH1 0x1 PUSH1 0xA0 SHL SUB DUP4 AND ADDRESS EQ JUMPDEST ISZERO PUSH2 0x9AD JUMPI PUSH8 0xDE0B6B3A7640000 DUP3 SUB PUSH2 0x7E8 JUMPI PUSH1 0x11 SLOAD PUSH1 0x1 PUSH1 0xA0 SHL SWAP1 DIV PUSH1 0xFF AND ISZERO PUSH2 0x6ED JUMPI PUSH1 0x40 MLOAD PUSH4 0x2F352531 PUSH1 0xE0 SHL DUP2 MSTORE PUSH1 0x4 ADD PUSH1 0x40 MLOAD DUP1 SWAP2 SUB SWAP1 REVERT JUMPDEST DUP1 PUSH2 0x120 ADD MLOAD PUSH2 0x754 JUMPI PUSH1 0x1 PUSH1 0x1 PUSH1 0xA0 SHL SUB DUP5 AND PUSH0 SWAP1 DUP2 MSTORE PUSH1 0xA PUSH1 0x20 MSTORE PUSH1 0x40 SWAP1 KECCAK256 PUSH1 0x9 ADD DUP1 SLOAD PUSH1 0xFF NOT AND PUSH1 0x1 OR SWAP1 SSTORE PUSH2 0x729 TIMESTAMP PUSH3 0x15180 PUSH2 0x3694 JUMP JUMPDEST PUSH1 0x1 PUSH1 0x1 PUSH1 0xA0 SHL SUB DUP6 AND PUSH0 SWAP1 DUP2 MSTORE PUSH1 0xA PUSH1 0x20 MSTORE PUSH1 0x40 SWAP1 KECCAK256 PUSH1 0x3 DUP2 ADD SWAP2 SWAP1 SWAP2 SSTORE TIMESTAMP PUSH1 0x4 SWAP1 SWAP2 ADD SSTORE PUSH2 0x7E8 JUMP JUMPDEST DUP1 PUSH2 0x120 ADD MLOAD DUP1 ISZERO PUSH2 0x76A JUMPI POP DUP1 PUSH1 0x60 ADD MLOAD TIMESTAMP LT ISZERO JUMPDEST ISZERO PUSH2 0x7CF JUMPI PUSH2 0x778 DUP5 PUSH2 0x1379 JUMP JUMPDEST PUSH2 0x785 TIMESTAMP PUSH3 0x15180 PUSH2 0x3694 JUMP JUMPDEST PUSH1 0x1 PUSH1 0x1 PUSH1 0xA0 SHL SUB DUP6 AND PUSH0 SWAP1 DUP2 MSTORE PUSH1 0xA PUSH1 0x20 MSTORE PUSH1 0x40 SWAP1 KECCAK256 PUSH1 0x3 DUP2 ADD SWAP2 SWAP1 SWAP2 SSTORE TIMESTAMP PUSH1 0x4 SWAP1 SWAP2 ADD SSTORE PUSH2 0x7B6 DUP5 DUP5 DUP5 PUSH2 0x1B8A JUMP JUMPDEST PUSH2 0x7C9 ADDRESS DUP6 PUSH8 0xDE0B6B3A7640000 PUSH2 0x1B8A JUMP JUMPDEST POP POP POP POP JUMP JUMPDEST PUSH1 0x40 MLOAD PUSH4 0x2F352531 PUSH1 0xE0 SHL DUP2 MSTORE PUSH1 0x4 ADD PUSH1 0x40 MLOAD DUP1 SWAP2 SUB SWAP1 REVERT JUMPDEST PUSH8 0x8AC7230489E80000 DUP3 SUB PUSH2 0x9A2 JUMPI TIMESTAMP PUSH1 0x16 SLOAD LT PUSH2 0x834 JUMPI PUSH1 0x40 MLOAD PUSH3 0x461BCD PUSH1 0xE5 SHL DUP2 MSTORE PUSH1 0x20 PUSH1 0x4 DUP3 ADD MSTORE PUSH1 0x9 PUSH1 0x24 DUP3 ADD MSTORE PUSH9 0x737461727454696D65 PUSH1 0xB8 SHL PUSH1 0x44 DUP3 ADD MSTORE PUSH1 0x64 ADD PUSH2 0xF2 JUMP JUMPDEST PUSH1 0x40 DUP2 ADD MLOAD DUP1 ISZERO PUSH2 0x901 JUMPI PUSH0 PUSH2 0x848 PUSH2 0x1CB0 JUMP JUMPDEST SWAP1 POP DUP1 ISZERO PUSH2 0x883 JUMPI PUSH0 PUSH1 0x64 DUP3 DUP6 PUSH1 0x40 ADD MLOAD PUSH2 0x863 SWAP2 SWAP1 PUSH2 0x3798 JUMP JUMPDEST PUSH2 0x86D SWAP2 SWAP1 PUSH2 0x37C3 JUMP JUMPDEST SWAP1 POP DUP1 DUP5 PUSH1 0x40 ADD MLOAD PUSH2 0x87F SWAP2 SWAP1 PUSH2 0x37D6 JUMP JUMPDEST SWAP3 POP POP JUMPDEST DUP2 ISZERO PUSH2 0x8FF JUMPI PUSH1 0x6 SLOAD PUSH1 0x40 MLOAD PUSH4 0xA9059CBB PUSH1 0xE0 SHL DUP2 MSTORE PUSH1 0x1 PUSH1 0x1 PUSH1 0xA0 SHL SUB DUP9 DUP2 AND PUSH1 0x4 DUP4 ADD MSTORE PUSH1 0x24 DUP3 ADD DUP6 SWAP1 MSTORE SWAP1 SWAP2 AND SWAP1 PUSH4 0xA9059CBB SWAP1 PUSH1 0x44 ADD PUSH1 0x20 PUSH1 0x40 MLOAD DUP1 DUP4 SUB DUP2 PUSH0 DUP8 GAS CALL ISZERO DUP1 ISZERO PUSH2 0x8D9 JUMPI RETURNDATASIZE PUSH0 PUSH0 RETURNDATACOPY RETURNDATASIZE PUSH0 REVERT JUMPDEST POP POP POP POP PUSH1 0x40 MLOAD RETURNDATASIZE PUSH1 0x1F NOT PUSH1 0x1F DUP3 ADD AND DUP3 ADD DUP1 PUSH1 0x40 MSTORE POP DUP2 ADD SWAP1 PUSH2 0x8FD SWAP2 SWAP1 PUSH2 0x37E9 JUMP JUMPDEST POP JUMPDEST POP JUMPDEST PUSH1 0x1 PUSH1 0x1 PUSH1 0xA0 SHL SUB DUP1 DUP7 AND PUSH0 SWAP1 DUP2 MSTORE PUSH1 0xA PUSH1 0x20 MSTORE PUSH1 0x40 DUP1 DUP3 KECCAK256 PUSH1 0x9 DUP2 ADD DUP1 SLOAD PUSH1 0x2 DUP4 ADD DUP6 SWAP1 SSTORE PUSH1 0x1 DUP4 ADD DUP6 SWAP1 SSTORE PUSH2 0xFFFF NOT AND SWAP1 SSTORE PUSH1 0x4 DUP2 ADD DUP4 SWAP1 SSTORE PUSH1 0x8 ADD DUP3 SWAP1 SSTORE DUP5 MLOAD SWAP1 SWAP3 AND DUP2 MSTORE KECCAK256 PUSH1 0x7 ADD SLOAD ISZERO PUSH2 0x985 JUMPI DUP2 MLOAD PUSH1 0x1 PUSH1 0x1 PUSH1 0xA0 SHL SUB AND PUSH0 SWAP1 DUP2 MSTORE PUSH1 0xA PUSH1 0x20 MSTORE PUSH1 0x40 DUP2 KECCAK256 PUSH1 0x7 ADD DUP1 SLOAD PUSH1 0x1 SWAP3 SWAP1 PUSH2 0x97F SWAP1 DUP5 SWAP1 PUSH2 0x37D6 JUMP JUMPDEST SWAP1 SWAP2 SSTORE POP POP JUMPDEST PUSH2 0x990 DUP6 DUP6 DUP6 PUSH2 0x1B8A JUMP JUMPDEST PUSH2 0x99B ADDRESS DUP7 DUP6 PUSH2 0x1B8A JUMP JUMPDEST POP POP POP POP POP JUMP JUMPDEST PUSH2 0x7C9 DUP5 DUP5 DUP5 PUSH2 0x1B8A JUMP JUMPDEST PUSH1 0x1 PUSH1 0x1 PUSH1 0xA0 SHL SUB DUP5 AND ADDRESS EQ DUP1 PUSH2 0x9CC JUMPI POP PUSH1 0x1 PUSH1 0x1 PUSH1 0xA0 SHL SUB DUP4 AND ADDRESS EQ JUMPDEST DUP1 PUSH2 0x9E4 JUMPI POP PUSH1 0x11 SLOAD PUSH1 0x1 PUSH1 0x1 PUSH1 0xA0 SHL SUB DUP6 DUP2 AND SWAP2 AND EQ JUMPDEST DUP1 PUSH2 0x9FC JUMPI POP PUSH1 0x11 SLOAD PUSH1 0x1 PUSH1 0x1 PUSH1 0xA0 SHL SUB DUP5 DUP2 AND SWAP2 AND EQ JUMPDEST ISZERO PUSH2 0xA0C JUMPI PUSH2 0x7C9 DUP5 DUP5 DUP5 PUSH2 0x1B8A JUMP JUMPDEST PUSH1 0x6 SLOAD PUSH1 0x1 PUSH1 0x1 PUSH1 0xA0 SHL SUB SWAP1 DUP2 AND SWAP1 DUP6 AND SUB PUSH2 0xD22 JUMPI TIMESTAMP PUSH1 0x16 SLOAD LT PUSH2 0xA5F JUMPI PUSH1 0x40 MLOAD PUSH3 0x461BCD PUSH1 0xE5 SHL DUP2 MSTORE PUSH1 0x20 PUSH1 0x4 DUP3 ADD MSTORE PUSH1 0x9 PUSH1 0x24 DUP3 ADD MSTORE PUSH9 0x737461727454696D65 PUSH1 0xB8 SHL PUSH1 0x44 DUP3 ADD MSTORE PUSH1 0x64 ADD PUSH2 0xF2 JUMP JUMPDEST ORIGIN PUSH0 SWAP1 DUP2 MSTORE PUSH1 0x9 PUSH1 0x20 MSTORE PUSH1 0x40 DUP2 KECCAK256 TIMESTAMP SWAP1 SSTORE PUSH2 0xA78 PUSH2 0x1CDF JUMP JUMPDEST GT ISZERO PUSH2 0xB4E JUMPI PUSH0 DUP1 PUSH2 0xA88 PUSH2 0x1E74 JUMP JUMPDEST SWAP1 POP PUSH12 0x33B2E3C9FD0803CE8000000 DUP2 LT PUSH2 0xABB JUMPI PUSH1 0xA PUSH2 0xAAA DUP6 PUSH1 0x9 PUSH2 0x3798 JUMP JUMPDEST PUSH2 0xAB4 SWAP2 SWAP1 PUSH2 0x37C3 JUMP JUMPDEST SWAP2 POP PUSH2 0xB1D JUMP JUMPDEST PUSH12 0x19D971E4FE8401E74000000 DUP2 LT PUSH2 0xADB JUMPI PUSH1 0xA PUSH2 0xAAA DUP6 PUSH1 0x6 PUSH2 0x3798 JUMP JUMPDEST PUSH11 0x52B7D2DCC80CD2E4000000 DUP2 LT PUSH2 0xAFA JUMPI PUSH1 0xA PUSH2 0xAAA DUP6 PUSH1 0x4 PUSH2 0x3798 JUMP JUMPDEST PUSH11 0x295BE96E64066972000000 DUP2 LT PUSH2 0xB19 JUMPI PUSH1 0xA PUSH2 0xAAA DUP6 PUSH1 0x2 PUSH2 0x3798 JUMP JUMPDEST DUP4 SWAP2 POP JUMPDEST PUSH2 0xB2A DUP7 PUSH2 0xDEAD DUP5 PUSH2 0x1B8A JUMP JUMPDEST DUP2 DUP5 GT ISZERO PUSH2 0xB46 JUMPI PUSH2 0xB46 DUP7 DUP7 PUSH2 0xB41 DUP6 DUP9 PUSH2 0x37D6 JUMP JUMPDEST PUSH2 0x1B8A JUMP JUMPDEST POP POP POP POP POP POP JUMP JUMPDEST PUSH1 0x64 PUSH2 0xB58 PUSH2 0x1F78 JUMP JUMPDEST PUSH2 0xB63 SWAP1 PUSH1 0x5 PUSH2 0x3798 JUMP JUMPDEST PUSH2 0xB6D SWAP2 SWAP1 PUSH2 0x37C3 JUMP JUMPDEST DUP3 LT PUSH2 0xBA7 JUMPI PUSH1 0x40 MLOAD PUSH3 0x461BCD PUSH1 0xE5 SHL DUP2 MSTORE PUSH1 0x20 PUSH1 0x4 DUP3 ADD MSTORE PUSH1 0x9 PUSH1 0x24 DUP3 ADD MSTORE PUSH9 0x36B0BC103A37B5B2B7 PUSH1 0xB9 SHL PUSH1 0x44 DUP3 ADD MSTORE PUSH1 0x64 ADD PUSH2 0xF2 JUMP JUMPDEST PUSH2 0xBAF PUSH2 0x1FB8 JUMP JUMPDEST PUSH1 0x1D SLOAD PUSH0 SWAP1 PUSH1 0xFF AND PUSH2 0xBC3 JUMPI PUSH2 0x12C PUSH2 0xBC7 JUMP JUMPDEST PUSH2 0xB54 JUMPDEST PUSH2 0xFFFF AND SWAP1 POP PUSH0 PUSH2 0x2710 PUSH2 0xBDB DUP4 DUP7 PUSH2 0x3798 JUMP JUMPDEST PUSH2 0xBE5 SWAP2 SWAP1 PUSH2 0x37C3 JUMP JUMPDEST SWAP1 POP PUSH0 PUSH2 0x2710 PUSH2 0xBF7 DUP7 PUSH2 0x12C PUSH2 0x3798 JUMP JUMPDEST PUSH2 0xC01 SWAP2 SWAP1 PUSH2 0x37C3 JUMP JUMPDEST PUSH1 0x1D SLOAD SWAP1 SWAP2 POP PUSH0 SWAP1 PUSH1 0xFF AND DUP1 ISZERO PUSH2 0xC17 JUMPI POP DUP2 DUP4 GT JUMPDEST ISZERO PUSH2 0xC67 JUMPI PUSH2 0xC26 DUP3 DUP5 PUSH2 0x37D6 JUMP JUMPDEST SWAP1 POP PUSH0 PUSH2 0xC34 PUSH1 0x2 DUP4 PUSH2 0x37C3 JUMP JUMPDEST SWAP1 POP PUSH2 0xC41 DUP10 ADDRESS DUP4 PUSH2 0x1B8A JUMP JUMPDEST PUSH2 0xC4B DUP2 DUP4 PUSH2 0x37D6 JUMP JUMPDEST PUSH1 0x13 PUSH0 DUP3 DUP3 SLOAD PUSH2 0xC5B SWAP2 SWAP1 PUSH2 0x3694 JUMP JUMPDEST SWAP3 POP POP DUP2 SWAP1 SSTORE POP DUP3 SWAP4 POP POP JUMPDEST PUSH0 PUSH1 0xA PUSH2 0xC75 DUP6 PUSH1 0x7 PUSH2 0x3798 JUMP JUMPDEST PUSH2 0xC7F SWAP2 SWAP1 PUSH2 0x37C3 JUMP JUMPDEST SWAP1 POP DUP1 PUSH1 0x13 PUSH0 DUP3 DUP3 SLOAD PUSH2 0xC92 SWAP2 SWAP1 PUSH2 0x3694 JUMP JUMPDEST SWAP1 SWAP2 SSTORE POP PUSH0 SWAP1 POP PUSH1 0xA PUSH2 0xCA6 DUP7 PUSH1 0x1 PUSH2 0x3798 JUMP JUMPDEST PUSH2 0xCB0 SWAP2 SWAP1 PUSH2 0x37C3 JUMP JUMPDEST SWAP1 POP PUSH2 0xCBF DUP11 PUSH2 0xDEAD DUP4 PUSH2 0x1B8A JUMP JUMPDEST PUSH0 DUP2 PUSH2 0xCCB DUP5 DUP9 PUSH2 0x37D6 JUMP JUMPDEST PUSH2 0xCD5 SWAP2 SWAP1 PUSH2 0x37D6 JUMP JUMPDEST SWAP1 POP DUP1 PUSH1 0x14 PUSH0 DUP3 DUP3 SLOAD PUSH2 0xCE8 SWAP2 SWAP1 PUSH2 0x3694 JUMP JUMPDEST SWAP1 SWAP2 SSTORE POP PUSH2 0xCF9 SWAP1 POP DUP12 ADDRESS DUP6 PUSH2 0x1B8A JUMP JUMPDEST PUSH2 0xD04 DUP12 ADDRESS DUP4 PUSH2 0x1B8A JUMP JUMPDEST PUSH2 0xD0E DUP5 DUP8 PUSH2 0x3694 JUMP JUMPDEST PUSH2 0xD18 SWAP1 DUP11 PUSH2 0x37D6 JUMP JUMPDEST SWAP9 POP POP POP POP POP POP POP POP JUMPDEST PUSH1 0x6 SLOAD PUSH1 0x1 PUSH1 0x1 PUSH1 0xA0 SHL SUB SWAP1 DUP2 AND SWAP1 DUP5 AND SUB PUSH2 0x1092 JUMPI PUSH1 0x1A SLOAD PUSH1 0x1 PUSH1 0xA8 SHL SWAP1 DIV PUSH1 0xFF AND ISZERO PUSH2 0xE1E JUMPI PUSH1 0x6 SLOAD PUSH1 0x40 DUP1 MLOAD PUSH4 0x240BC6B PUSH1 0xE2 SHL DUP2 MSTORE SWAP1 MLOAD PUSH1 0x1 PUSH1 0x1 PUSH1 0xA0 SHL SUB SWAP1 SWAP3 AND SWAP2 PUSH0 SWAP2 DUP3 SWAP2 DUP5 SWAP2 PUSH4 0x902F1AC SWAP2 PUSH1 0x4 DUP1 DUP4 ADD SWAP3 PUSH1 0x60 SWAP3 SWAP2 SWAP1 DUP3 SWAP1 SUB ADD DUP2 DUP7 GAS STATICCALL ISZERO DUP1 ISZERO PUSH2 0xD97 JUMPI RETURNDATASIZE PUSH0 PUSH0 RETURNDATACOPY RETURNDATASIZE PUSH0 REVERT JUMPDEST POP POP POP POP PUSH1 0x40 MLOAD RETURNDATASIZE PUSH1 0x1F NOT PUSH1 0x1F DUP3 ADD AND DUP3 ADD DUP1 PUSH1 0x40 MSTORE POP DUP2 ADD SWAP1 PUSH2 0xDBB SWAP2 SWAP1 PUSH2 0x381E JUMP JUMPDEST POP SWAP2 POP SWAP2 POP DUP2 PUSH1 0x1 PUSH1 0x1 PUSH1 0x70 SHL SUB AND PUSH0 EQ DUP1 ISZERO PUSH2 0xDDF JUMPI POP PUSH1 0x1 PUSH1 0x1 PUSH1 0x70 SHL SUB DUP2 AND ISZERO JUMPDEST DUP1 ISZERO PUSH2 0xDF4 JUMPI POP PUSH1 0x1A SLOAD PUSH1 0x1 PUSH1 0xA8 SHL SWAP1 DIV PUSH1 0xFF AND JUMPDEST ISZERO PUSH2 0xE1A JUMPI PUSH1 0x1A DUP1 SLOAD PUSH1 0xFF PUSH1 0xA8 SHL NOT AND SWAP1 SSTORE PUSH2 0xE11 DUP8 DUP8 DUP8 PUSH2 0x1B8A JUMP JUMPDEST POP POP POP POP POP POP POP JUMP JUMPDEST POP POP POP JUMPDEST PUSH2 0xE29 PUSH1 0xA TIMESTAMP PUSH2 0x37D6 JUMP JUMPDEST ORIGIN PUSH0 SWAP1 DUP2 MSTORE PUSH1 0x9 PUSH1 0x20 MSTORE PUSH1 0x40 SWAP1 KECCAK256 SLOAD LT PUSH2 0xE6A JUMPI PUSH1 0x40 MLOAD PUSH3 0x461BCD PUSH1 0xE5 SHL DUP2 MSTORE PUSH1 0x20 PUSH1 0x4 DUP3 ADD MSTORE PUSH1 0x2 PUSH1 0x24 DUP3 ADD MSTORE PUSH2 0x18D9 PUSH1 0xF2 SHL PUSH1 0x44 DUP3 ADD MSTORE PUSH1 0x64 ADD PUSH2 0xF2 JUMP JUMPDEST PUSH0 PUSH2 0xE74 DUP4 PUSH2 0x2217 JUMP JUMPDEST GT PUSH2 0x1092 JUMPI TIMESTAMP PUSH1 0x16 SLOAD LT PUSH2 0xEB6 JUMPI PUSH1 0x40 MLOAD PUSH3 0x461BCD PUSH1 0xE5 SHL DUP2 MSTORE PUSH1 0x20 PUSH1 0x4 DUP3 ADD MSTORE PUSH1 0x9 PUSH1 0x24 DUP3 ADD MSTORE PUSH9 0x737461727454696D65 PUSH1 0xB8 SHL PUSH1 0x44 DUP3 ADD MSTORE PUSH1 0x64 ADD PUSH2 0xF2 JUMP JUMPDEST PUSH1 0x64 PUSH2 0xEC0 PUSH2 0x1F78 JUMP JUMPDEST PUSH2 0xECB SWAP1 PUSH1 0xA PUSH2 0x3798 JUMP JUMPDEST PUSH2 0xED5 SWAP2 SWAP1 PUSH2 0x37C3 JUMP JUMPDEST DUP3 LT PUSH2 0xF0F JUMPI PUSH1 0x40 MLOAD PUSH3 0x461BCD PUSH1 0xE5 SHL DUP2 MSTORE PUSH1 0x20 PUSH1 0x4 DUP3 ADD MSTORE PUSH1 0x9 PUSH1 0x24 DUP3 ADD MSTORE PUSH9 0x36B0BC103A37B5B2B7 PUSH1 0xB9 SHL PUSH1 0x44 DUP3 ADD MSTORE PUSH1 0x64 ADD PUSH2 0xF2 JUMP JUMPDEST PUSH2 0xF17 PUSH2 0x1FB8 JUMP JUMPDEST PUSH1 0x1D SLOAD PUSH0 SWAP1 PUSH1 0xFF AND PUSH2 0xF2B JUMPI PUSH2 0x12C PUSH2 0xF2F JUMP JUMPDEST PUSH2 0xB54 JUMPDEST PUSH2 0xFFFF AND SWAP1 POP PUSH0 PUSH2 0x2710 PUSH2 0xF43 DUP4 DUP7 PUSH2 0x3798 JUMP JUMPDEST PUSH2 0xF4D SWAP2 SWAP1 PUSH2 0x37C3 JUMP JUMPDEST SWAP1 POP PUSH0 PUSH2 0x2710 PUSH2 0xF5F DUP7 PUSH2 0x12C PUSH2 0x3798 JUMP JUMPDEST PUSH2 0xF69 SWAP2 SWAP1 PUSH2 0x37C3 JUMP JUMPDEST PUSH1 0x1D SLOAD SWAP1 SWAP2 POP PUSH0 SWAP1 PUSH1 0xFF AND DUP1 ISZERO PUSH2 0xF7F JUMPI POP DUP2 DUP4 GT JUMPDEST ISZERO PUSH2 0xFCF JUMPI PUSH2 0xF8E DUP3 DUP5 PUSH2 0x37D6 JUMP JUMPDEST SWAP1 POP PUSH0 PUSH2 0xF9C PUSH1 0x2 DUP4 PUSH2 0x37C3 JUMP JUMPDEST SWAP1 POP PUSH2 0xFA9 DUP10 ADDRESS DUP4 PUSH2 0x1B8A JUMP JUMPDEST PUSH2 0xFB3 DUP2 DUP4 PUSH2 0x37D6 JUMP JUMPDEST PUSH1 0x13 PUSH0 DUP3 DUP3 SLOAD PUSH2 0xFC3 SWAP2 SWAP1 PUSH2 0x3694 JUMP JUMPDEST SWAP3 POP POP DUP2 SWAP1 SSTORE POP DUP3 SWAP4 POP POP JUMPDEST PUSH0 PUSH1 0xA PUSH2 0xFDD DUP6 PUSH1 0x7 PUSH2 0x3798 JUMP JUMPDEST PUSH2 0xFE7 SWAP2 SWAP1 PUSH2 0x37C3 JUMP JUMPDEST SWAP1 POP DUP1 PUSH1 0x13 PUSH0 DUP3 DUP3 SLOAD PUSH2 0xFFA SWAP2 SWAP1 PUSH2 0x3694 JUMP JUMPDEST SWAP1 SWAP2 SSTORE POP PUSH0 SWAP1 POP PUSH1 0xA PUSH2 0x100E DUP7 PUSH1 0x1 PUSH2 0x3798 JUMP JUMPDEST PUSH2 0x1018 SWAP2 SWAP1 PUSH2 0x37C3 JUMP JUMPDEST SWAP1 POP PUSH2 0x1027 DUP11 PUSH2 0xDEAD DUP4 PUSH2 0x1B8A JUMP JUMPDEST PUSH0 DUP2 PUSH2 0x1033 DUP5 DUP9 PUSH2 0x37D6 JUMP JUMPDEST PUSH2 0x103D SWAP2 SWAP1 PUSH2 0x37D6 JUMP JUMPDEST SWAP1 POP DUP1 PUSH1 0x14 PUSH0 DUP3 DUP3 SLOAD PUSH2 0x1050 SWAP2 SWAP1 PUSH2 0x3694 JUMP JUMPDEST SWAP1 SWAP2 SSTORE POP PUSH2 0x1061 SWAP1 POP DUP12 ADDRESS DUP6 PUSH2 0x1B8A JUMP JUMPDEST PUSH2 0x106C DUP12 ADDRESS DUP4 PUSH2 0x1B8A JUMP JUMPDEST PUSH2 0x1076 DUP5 DUP8 PUSH2 0x3694 JUMP JUMPDEST PUSH2 0x1080 SWAP1 DUP11 PUSH2 0x37D6 JUMP JUMPDEST SWAP9 POP PUSH2 0x108A PUSH2 0x240F JUMP JUMPDEST POP POP POP POP POP POP POP JUMPDEST PUSH2 0x9A2 PUSH2 0x26C6 JUMP JUMPDEST PUSH1 0x1 PUSH1 0x1 PUSH1 0xA0 SHL SUB DUP3 DUP2 AND PUSH0 SWAP1 DUP2 MSTORE PUSH1 0xA PUSH1 0x20 MSTORE PUSH1 0x40 DUP2 KECCAK256 SLOAD SWAP1 SWAP2 AND ISZERO DUP1 ISZERO PUSH2 0x10D1 JUMPI POP PUSH1 0x18 SLOAD PUSH1 0x1 PUSH1 0x1 PUSH1 0xA0 SHL SUB DUP5 DUP2 AND SWAP2 AND EQ ISZERO JUMPDEST DUP1 ISZERO PUSH2 0x10EB JUMPI POP PUSH1 0x6 SLOAD PUSH1 0x1 PUSH1 0x1 PUSH1 0xA0 SHL SUB DUP4 DUP2 AND SWAP2 AND EQ ISZERO JUMPDEST DUP1 ISZERO PUSH2 0x1105 JUMPI POP PUSH1 0x6 SLOAD PUSH1 0x1 PUSH1 0x1 PUSH1 0xA0 SHL SUB DUP5 DUP2 AND SWAP2 AND EQ ISZERO JUMPDEST ISZERO PUSH2 0x1111 JUMPI POP PUSH0 PUSH2 0x11DD JUMP JUMPDEST PUSH1 0x1 PUSH1 0x1 PUSH1 0xA0 SHL SUB DUP1 DUP5 AND PUSH0 SWAP1 DUP2 MSTORE PUSH1 0x7 PUSH1 0x20 SWAP1 DUP2 MSTORE PUSH1 0x40 DUP1 DUP4 KECCAK256 SWAP4 DUP7 AND DUP4 MSTORE SWAP3 SWAP1 MSTORE KECCAK256 SLOAD PUSH1 0xFF AND DUP1 PUSH2 0x1155 JUMPI POP DUP2 PUSH1 0x1 PUSH1 0x1 PUSH1 0xA0 SHL SUB AND DUP4 PUSH1 0x1 PUSH1 0x1 PUSH1 0xA0 SHL SUB AND EQ JUMPDEST ISZERO PUSH2 0x1161 JUMPI POP PUSH0 PUSH2 0x11DD JUMP JUMPDEST DUP2 PUSH0 JUMPDEST PUSH1 0x1 PUSH1 0x1 PUSH1 0xA0 SHL SUB DUP3 AND ISZERO DUP1 ISZERO SWAP1 PUSH2 0x117F JUMPI POP PUSH1 0x19 DUP2 PUSH1 0xFF AND LT JUMPDEST ISZERO PUSH2 0x11D6 JUMPI DUP5 PUSH1 0x1 PUSH1 0x1 PUSH1 0xA0 SHL SUB AND DUP3 PUSH1 0x1 PUSH1 0x1 PUSH1 0xA0 SHL SUB AND SUB PUSH2 0x11A7 JUMPI PUSH0 SWAP3 POP POP POP PUSH2 0x11DD JUMP JUMPDEST PUSH1 0x1 PUSH1 0x1 PUSH1 0xA0 SHL SUB SWAP2 DUP3 AND PUSH0 SWAP1 DUP2 MSTORE PUSH1 0xA PUSH1 0x20 MSTORE PUSH1 0x40 SWAP1 KECCAK256 SLOAD SWAP1 SWAP2 AND SWAP1 DUP1 PUSH2 0x11CE DUP2 PUSH2 0x386A JUMP JUMPDEST SWAP2 POP POP PUSH2 0x1164 JUMP JUMPDEST PUSH1 0x1 SWAP3 POP POP POP JUMPDEST SWAP3 SWAP2 POP POP JUMP JUMPDEST PUSH0 PUSH2 0x11F7 DUP4 PUSH1 0x1 PUSH1 0x1 PUSH1 0xA0 SHL SUB DUP5 AND PUSH2 0x2845 JUMP JUMPDEST SWAP4 SWAP3 POP POP POP JUMP JUMPDEST PUSH0 PUSH2 0x120A PUSH1 0xA DUP4 PUSH2 0x3888 JUMP JUMPDEST SWAP1 POP PUSH0 PUSH2 0x1218 PUSH1 0x2 DUP4 PUSH2 0x3888 JUMP JUMPDEST ISZERO SWAP1 POP PUSH0 PUSH2 0x1227 PUSH1 0x1 NUMBER PUSH2 0x37D6 JUMP JUMPDEST BLOCKHASH SWAP1 POP DUP1 PUSH2 0x123E JUMPI PUSH2 0x123A PUSH1 0x2 NUMBER PUSH2 0x37D6 JUMP JUMPDEST BLOCKHASH SWAP1 POP JUMPDEST PUSH1 0xFF DUP2 AND PUSH0 PUSH2 0x124E PUSH1 0xA DUP4 PUSH2 0x38AF JUMP JUMPDEST SWAP1 POP PUSH0 PUSH2 0x125C PUSH1 0x2 DUP4 PUSH2 0x38AF JUMP JUMPDEST PUSH1 0xFF AND ISZERO SWAP1 POP DUP5 ISZERO ISZERO DUP2 EQ PUSH0 PUSH2 0x1273 DUP10 PUSH1 0x2 PUSH2 0x3798 JUMP JUMPDEST SWAP1 POP PUSH2 0x1280 DUP11 ADDRESS DUP12 PUSH2 0x1B8A JUMP JUMPDEST DUP2 ISZERO PUSH2 0x1339 JUMPI ADDRESS PUSH0 SWAP1 DUP2 MSTORE PUSH1 0x20 DUP2 SWAP1 MSTORE PUSH1 0x40 SWAP1 KECCAK256 SLOAD DUP2 DUP2 LT PUSH2 0x12E0 JUMPI PUSH2 0x12A7 ADDRESS DUP13 DUP5 PUSH2 0x1B8A JUMP JUMPDEST PUSH1 0x40 DUP1 MLOAD DUP12 DUP2 MSTORE PUSH1 0x20 DUP2 ADD DUP5 SWAP1 MSTORE PUSH1 0x1 SWAP2 PUSH1 0x1 PUSH1 0x1 PUSH1 0xA0 SHL SUB DUP15 AND SWAP2 PUSH0 MLOAD PUSH1 0x20 PUSH2 0x8DE3 PUSH0 CODECOPY PUSH0 MLOAD SWAP1 PUSH0 MSTORE SWAP2 ADD PUSH1 0x40 MLOAD DUP1 SWAP2 SUB SWAP1 LOG3 PUSH2 0x1333 JUMP JUMPDEST DUP1 ISZERO PUSH2 0x12F1 JUMPI PUSH2 0x12F1 ADDRESS DUP13 DUP4 PUSH2 0x1B8A JUMP JUMPDEST PUSH1 0x1F DUP1 SLOAD PUSH1 0xFF NOT AND PUSH1 0x1 SWAP1 DUP2 OR SWAP1 SWAP2 SSTORE PUSH1 0x40 DUP1 MLOAD DUP13 DUP2 MSTORE PUSH1 0x20 DUP2 ADD DUP5 SWAP1 MSTORE PUSH1 0x1 PUSH1 0x1 PUSH1 0xA0 SHL SUB DUP15 AND SWAP2 PUSH0 MLOAD PUSH1 0x20 PUSH2 0x8DE3 PUSH0 CODECOPY PUSH0 MLOAD SWAP1 PUSH0 MSTORE SWAP2 ADD PUSH1 0x40 MLOAD DUP1 SWAP2 SUB SWAP1 LOG3 JUMPDEST POP PUSH2 0x136D JUMP JUMPDEST PUSH1 0x40 DUP1 MLOAD DUP11 DUP2 MSTORE PUSH0 PUSH1 0x20 DUP3 ADD DUP2 SWAP1 MSTORE SWAP2 PUSH1 0x1 PUSH1 0x1 PUSH1 0xA0 SHL SUB DUP14 AND SWAP2 PUSH0 MLOAD PUSH1 0x20 PUSH2 0x8DE3 PUSH0 CODECOPY PUSH0 MLOAD SWAP1 PUSH0 MSTORE SWAP2 ADD PUSH1 0x40 MLOAD DUP1 SWAP2 SUB SWAP1 LOG3 JUMPDEST POP POP POP POP POP POP POP POP POP POP JUMP JUMPDEST PUSH1 0x1 PUSH1 0x1 PUSH1 0xA0 SHL SUB DUP1 DUP3 AND PUSH0 SWAP1 DUP2 MSTORE PUSH1 0xA PUSH1 0x20 SWAP1 DUP2 MSTORE PUSH1 0x40 SWAP2 DUP3 SWAP1 KECCAK256 DUP3 MLOAD PUSH2 0x160 DUP2 ADD DUP5 MSTORE DUP2 SLOAD SWAP1 SWAP5 AND DUP5 MSTORE PUSH1 0x1 DUP2 ADD SLOAD SWAP2 DUP5 ADD SWAP2 SWAP1 SWAP2 MSTORE PUSH1 0x2 DUP2 ADD SLOAD SWAP2 DUP4 ADD SWAP2 SWAP1 SWAP2 MSTORE PUSH1 0x3 DUP2 ADD SLOAD PUSH1 0x60 DUP4 ADD MSTORE PUSH1 0x4 DUP2 ADD SLOAD PUSH1 0x80 DUP4 ADD MSTORE PUSH1 0x5 DUP2 ADD SLOAD PUSH1 0xA0 DUP4 ADD MSTORE PUSH1 0x6 DUP2 ADD SLOAD PUSH1 0xC0 DUP4 ADD MSTORE PUSH1 0x7 DUP2 ADD SLOAD PUSH1 0xE0 DUP4 ADD MSTORE PUSH1 0x8 DUP2 ADD SLOAD PUSH2 0x100 DUP1 DUP5 ADD SWAP2 SWAP1 SWAP2 MSTORE PUSH1 0x9 SWAP1 SWAP2 ADD SLOAD PUSH1 0xFF DUP1 DUP3 AND ISZERO ISZERO PUSH2 0x120 DUP6 ADD MSTORE SWAP2 SWAP1 DIV AND ISZERO ISZERO PUSH2 0x140 DUP3 ADD DUP2 SWAP1 MSTORE PUSH2 0x146B JUMPI PUSH1 0x40 MLOAD PUSH3 0x461BCD PUSH1 0xE5 SHL DUP2 MSTORE PUSH1 0x20 PUSH1 0x4 DUP3 ADD MSTORE PUSH1 0x13 PUSH1 0x24 DUP3 ADD MSTORE PUSH32 0x5573657220686173206E6F7420626F7567687400000000000000000000000000 PUSH1 0x44 DUP3 ADD MSTORE PUSH1 0x64 ADD PUSH2 0xF2 JUMP JUMPDEST DUP1 PUSH2 0x120 ADD MLOAD PUSH2 0x14BD JUMPI PUSH1 0x40 MLOAD PUSH3 0x461BCD PUSH1 0xE5 SHL DUP2 MSTORE PUSH1 0x20 PUSH1 0x4 DUP3 ADD MSTORE PUSH1 0x1B PUSH1 0x24 DUP3 ADD MSTORE PUSH32 0x53746174696320726577617264206E6F7420617661696C61626C650000000000 PUSH1 0x44 DUP3 ADD MSTORE PUSH1 0x64 ADD PUSH2 0xF2 JUMP JUMPDEST PUSH0 PUSH2 0x14C7 DUP4 PUSH2 0x2891 JUMP JUMPDEST SWAP1 POP PUSH0 DUP2 GT PUSH2 0x153E JUMPI PUSH1 0x40 MLOAD PUSH3 0x461BCD PUSH1 0xE5 SHL DUP2 MSTORE PUSH1 0x20 PUSH1 0x4 DUP3 ADD MSTORE PUSH1 0x39 PUSH1 0x24 DUP3 ADD MSTORE PUSH32 0x4E6F207374617469632072657761726420617661696C61626C65206F72206361 PUSH1 0x44 DUP3 ADD MSTORE PUSH32 0x702072656163686564206F722074696D65206578706972656400000000000000 PUSH1 0x64 DUP3 ADD MSTORE PUSH1 0x84 ADD PUSH2 0xF2 JUMP JUMPDEST PUSH0 DUP1 DUP1 PUSH2 0x1549 PUSH2 0x2AA0 JUMP JUMPDEST PUSH1 0x20 DUP10 ADD MLOAD SWAP3 SWAP7 POP SWAP1 SWAP5 POP SWAP3 POP SWAP1 POP PUSH0 PUSH3 0x186A0 PUSH2 0x1567 DUP7 DUP5 PUSH2 0x3798 JUMP JUMPDEST PUSH2 0x1571 SWAP2 SWAP1 PUSH2 0x37C3 JUMP JUMPDEST SWAP1 POP PUSH0 PUSH3 0x186A0 PUSH2 0x1582 DUP7 DUP6 PUSH2 0x3798 JUMP JUMPDEST PUSH2 0x158C SWAP2 SWAP1 PUSH2 0x37C3 JUMP JUMPDEST SWAP1 POP PUSH0 PUSH3 0x186A0 PUSH2 0x159D DUP7 DUP7 PUSH2 0x3798 JUMP JUMPDEST PUSH2 0x15A7 SWAP2 SWAP1 PUSH2 0x37C3 JUMP JUMPDEST SWAP1 POP PUSH0 DUP2 DUP4 PUSH2 0x15B6 DUP7 DUP13 PUSH2 0x3694 JUMP JUMPDEST PUSH2 0x15C0 SWAP2 SWAP1 PUSH2 0x3694 JUMP JUMPDEST PUSH2 0x15CA SWAP2 SWAP1 PUSH2 0x3694 JUMP JUMPDEST SWAP1 POP PUSH0 PUSH2 0x15D6 DUP3 PUSH2 0x2AF2 JUMP JUMPDEST SWAP1 POP PUSH2 0x15E0 PUSH2 0x34A5 JUMP JUMPDEST PUSH2 0x15E9 DUP3 PUSH2 0x2C13 JUMP JUMPDEST DUP1 DUP3 MSTORE DUP4 SWAP1 PUSH2 0x15F9 SWAP1 DUP14 SWAP1 PUSH2 0x3798 JUMP JUMPDEST PUSH2 0x1603 SWAP2 SWAP1 PUSH2 0x37C3 JUMP JUMPDEST DUP2 PUSH1 0x1 PUSH1 0x20 MUL ADD MSTORE PUSH1 0x6 SLOAD PUSH1 0x1 PUSH1 0x1 PUSH1 0xA0 SHL SUB AND PUSH4 0xA9059CBB DUP15 DUP4 PUSH1 0x1 PUSH1 0x20 MUL ADD MLOAD PUSH1 0x40 MLOAD PUSH1 0x1 PUSH1 0x1 PUSH1 0xE0 SHL SUB NOT PUSH1 0xE0 DUP6 SWAP1 SHL AND DUP2 MSTORE PUSH1 0x1 PUSH1 0x1 PUSH1 0xA0 SHL SUB SWAP1 SWAP3 AND PUSH1 0x4 DUP4 ADD MSTORE PUSH1 0x24 DUP3 ADD MSTORE PUSH1 0x44 ADD PUSH1 0x20 PUSH1 0x40 MLOAD DUP1 DUP4 SUB DUP2 PUSH0 DUP8 GAS CALL ISZERO DUP1 ISZERO PUSH2 0x166D JUMPI RETURNDATASIZE PUSH0 PUSH0 RETURNDATACOPY RETURNDATASIZE PUSH0 REVERT JUMPDEST POP POP POP POP PUSH1 0x40 MLOAD RETURNDATASIZE PUSH1 0x1F NOT PUSH1 0x1F DUP3 ADD AND DUP3 ADD DUP1 PUSH1 0x40 MSTORE POP DUP2 ADD SWAP1 PUSH2 0x1691 SWAP2 SWAP1 PUSH2 0x37E9 JUMP JUMPDEST POP PUSH2 0x16A3 DUP14 DUP3 PUSH1 0x1 PUSH1 0x20 MUL ADD MLOAD PUSH2 0x2F86 JUMP JUMPDEST PUSH1 0x40 DUP3 ADD MSTORE DUP1 MLOAD DUP4 SWAP1 PUSH2 0x16B7 SWAP1 DUP8 SWAP1 PUSH2 0x3798 JUMP JUMPDEST PUSH2 0x16C1 SWAP2 SWAP1 PUSH2 0x37C3 JUMP JUMPDEST PUSH1 0x60 DUP3 ADD MSTORE PUSH1 0xD SLOAD PUSH1 0x1 PUSH1 0x1 PUSH1 0xA0 SHL SUB AND ISZERO DUP1 ISZERO SWAP1 PUSH2 0x16EA JUMPI POP PUSH1 0xE SLOAD PUSH1 0x1 PUSH1 0x1 PUSH1 0xA0 SHL SUB AND ISZERO ISZERO JUMPDEST ISZERO PUSH2 0x18F3 JUMPI PUSH0 PUSH1 0xA DUP3 PUSH1 0x3 PUSH1 0x20 MUL ADD MLOAD PUSH2 0x1705 SWAP1 PUSH1 0x7 PUSH2 0x3798 JUMP JUMPDEST PUSH2 0x170F SWAP2 SWAP1 PUSH2 0x37C3 JUMP JUMPDEST SWAP1 POP PUSH0 DUP2 DUP4 PUSH1 0x3 PUSH1 0x20 MUL ADD MLOAD PUSH2 0x1725 SWAP2 SWAP1 PUSH2 0x37D6 JUMP JUMPDEST SWAP1 POP PUSH1 0x17 SLOAD TIMESTAMP LT ISZERO PUSH2 0x17C5 JUMPI PUSH1 0x6 SLOAD PUSH1 0xE SLOAD PUSH1 0x1 PUSH1 0x1 PUSH1 0xA0 SHL SUB SWAP2 DUP3 AND SWAP2 PUSH4 0xA9059CBB SWAP2 AND DUP6 PUSH1 0x3 JUMPDEST PUSH1 0x20 MUL ADD MLOAD PUSH1 0x40 MLOAD PUSH1 0x1 PUSH1 0x1 PUSH1 0xE0 SHL SUB NOT PUSH1 0xE0 DUP6 SWAP1 SHL AND DUP2 MSTORE PUSH1 0x1 PUSH1 0x1 PUSH1 0xA0 SHL SUB SWAP1 SWAP3 AND PUSH1 0x4 DUP4 ADD MSTORE PUSH1 0x24 DUP3 ADD MSTORE PUSH1 0x44 ADD PUSH1 0x20 PUSH1 0x40 MLOAD DUP1 DUP4 SUB DUP2 PUSH0 DUP8 GAS CALL ISZERO DUP1 ISZERO PUSH2 0x179B JUMPI RETURNDATASIZE PUSH0 PUSH0 RETURNDATACOPY RETURNDATASIZE PUSH0 REVERT JUMPDEST POP POP POP POP PUSH1 0x40 MLOAD RETURNDATASIZE PUSH1 0x1F NOT PUSH1 0x1F DUP3 ADD AND DUP3 ADD DUP1 PUSH1 0x40 MSTORE POP DUP2 ADD SWAP1 PUSH2 0x17BF SWAP2 SWAP1 PUSH2 0x37E9 JUMP JUMPDEST POP PUSH2 0x18EC JUMP JUMPDEST PUSH1 0x17 SLOAD PUSH2 0x17D5 SWAP1 PUSH3 0x278D00 PUSH2 0x3694 JUMP JUMPDEST TIMESTAMP LT ISZERO PUSH2 0x17FD JUMPI PUSH1 0x6 SLOAD PUSH1 0xE SLOAD PUSH1 0x1 PUSH1 0x1 PUSH1 0xA0 SHL SUB SWAP2 DUP3 AND SWAP2 PUSH4 0xA9059CBB SWAP2 AND DUP6 PUSH1 0x3 PUSH2 0x174E JUMP JUMPDEST PUSH1 0x6 SLOAD PUSH1 0xD SLOAD PUSH1 0x40 MLOAD PUSH4 0xA9059CBB PUSH1 0xE0 SHL DUP2 MSTORE PUSH1 0x1 PUSH1 0x1 PUSH1 0xA0 SHL SUB SWAP2 DUP3 AND PUSH1 0x4 DUP3 ADD MSTORE PUSH1 0x24 DUP2 ADD DUP6 SWAP1 MSTORE SWAP2 AND SWAP1 PUSH4 0xA9059CBB SWAP1 PUSH1 0x44 ADD PUSH1 0x20 PUSH1 0x40 MLOAD DUP1 DUP4 SUB DUP2 PUSH0 DUP8 GAS CALL ISZERO DUP1 ISZERO PUSH2 0x184F JUMPI RETURNDATASIZE PUSH0 PUSH0 RETURNDATACOPY RETURNDATASIZE PUSH0 REVERT JUMPDEST POP POP POP POP PUSH1 0x40 MLOAD RETURNDATASIZE PUSH1 0x1F NOT PUSH1 0x1F DUP3 ADD AND DUP3 ADD DUP1 PUSH1 0x40 MSTORE POP DUP2 ADD SWAP1 PUSH2 0x1873 SWAP2 SWAP1 PUSH2 0x37E9 JUMP JUMPDEST POP PUSH1 0x6 SLOAD PUSH1 0xE SLOAD PUSH1 0x40 MLOAD PUSH4 0xA9059CBB PUSH1 0xE0 SHL DUP2 MSTORE PUSH1 0x1 PUSH1 0x1 PUSH1 0xA0 SHL SUB SWAP2 DUP3 AND PUSH1 0x4 DUP3 ADD MSTORE PUSH1 0x24 DUP2 ADD DUP5 SWAP1 MSTORE SWAP2 AND SWAP1 PUSH4 0xA9059CBB SWAP1 PUSH1 0x44 ADD PUSH1 0x20 PUSH1 0x40 MLOAD DUP1 DUP4 SUB DUP2 PUSH0 DUP8 GAS CALL ISZERO DUP1 ISZERO PUSH2 0x18C6 JUMPI RETURNDATASIZE PUSH0 PUSH0 RETURNDATACOPY RETURNDATASIZE PUSH0 REVERT JUMPDEST POP POP POP POP PUSH1 0x40 MLOAD RETURNDATASIZE PUSH1 0x1F NOT PUSH1 0x1F DUP3 ADD AND DUP3 ADD DUP1 PUSH1 0x40 MSTORE POP DUP2 ADD SWAP1 PUSH2 0x18EA SWAP2 SWAP1 PUSH2 0x37E9 JUMP JUMPDEST POP JUMPDEST POP POP PUSH2 0x1971 JUMP JUMPDEST PUSH1 0x6 SLOAD PUSH1 0xC SLOAD PUSH1 0x60 DUP4 ADD MLOAD PUSH1 0x40 MLOAD PUSH4 0xA9059CBB PUSH1 0xE0 SHL DUP2 MSTORE PUSH1 0x1 PUSH1 0x1 PUSH1 0xA0 SHL SUB SWAP3 DUP4 AND PUSH1 0x4 DUP3 ADD MSTORE PUSH1 0x24 DUP2 ADD SWAP2 SWAP1 SWAP2 MSTORE SWAP2 AND SWAP1 PUSH4 0xA9059CBB SWAP1 PUSH1 0x44 ADD PUSH1 0x20 PUSH1 0x40 MLOAD DUP1 DUP4 SUB DUP2 PUSH0 DUP8 GAS CALL ISZERO DUP1 ISZERO PUSH2 0x194B JUMPI RETURNDATASIZE PUSH0 PUSH0 RETURNDATACOPY RETURNDATASIZE PUSH0 REVERT JUMPDEST POP POP POP POP PUSH1 0x40 MLOAD RETURNDATASIZE PUSH1 0x1F NOT PUSH1 0x1F DUP3 ADD AND DUP3 ADD DUP1 PUSH1 0x40 MSTORE POP DUP2 ADD SWAP1 PUSH2 0x196F SWAP2 SWAP1 PUSH2 0x37E9 JUMP JUMPDEST POP JUMPDEST PUSH1 0xC PUSH0 SWAP1 SLOAD SWAP1 PUSH2 0x100 EXP SWAP1 DIV PUSH1 0x1 PUSH1 0x1 PUSH1 0xA0 SHL SUB AND PUSH1 0x1 PUSH1 0x1 PUSH1 0xA0 SHL SUB AND PUSH4 0xC33FB877 PUSH1 0x40 MLOAD DUP2 PUSH4 0xFFFFFFFF AND PUSH1 0xE0 SHL DUP2 MSTORE PUSH1 0x4 ADD PUSH0 PUSH1 0x40 MLOAD DUP1 DUP4 SUB DUP2 PUSH0 DUP8 DUP1 EXTCODESIZE ISZERO DUP1 ISZERO PUSH2 0x19BD JUMPI PUSH0 PUSH0 REVERT JUMPDEST POP GAS CALL SWAP3 POP POP POP DUP1 ISZERO PUSH2 0x19CE JUMPI POP PUSH1 0x1 JUMPDEST POP DUP1 MLOAD DUP4 SWAP1 PUSH2 0x19DE SWAP1 DUP7 SWAP1 PUSH2 0x3798 JUMP JUMPDEST PUSH2 0x19E8 SWAP2 SWAP1 PUSH2 0x37C3 JUMP JUMPDEST PUSH1 0x80 DUP3 ADD DUP2 SWAP1 MSTORE PUSH1 0x6 SLOAD PUSH1 0x19 SLOAD PUSH1 0x40 MLOAD PUSH4 0xA9059CBB PUSH1 0xE0 SHL DUP2 MSTORE PUSH1 0x1 PUSH1 0x1 PUSH1 0xA0 SHL SUB SWAP2 DUP3 AND PUSH1 0x4 DUP3 ADD MSTORE PUSH1 0x24 DUP2 ADD SWAP4 SWAP1 SWAP4 MSTORE AND SWAP1 PUSH4 0xA9059CBB SWAP1 PUSH1 0x44 ADD PUSH1 0x20 PUSH1 0x40 MLOAD DUP1 DUP4 SUB DUP2 PUSH0 DUP8 GAS CALL ISZERO DUP1 ISZERO PUSH2 0x1A41 JUMPI RETURNDATASIZE PUSH0 PUSH0 RETURNDATACOPY RETURNDATASIZE PUSH0 REVERT JUMPDEST POP POP POP POP PUSH1 0x40 MLOAD RETURNDATASIZE PUSH1 0x1F NOT PUSH1 0x1F DUP3 ADD AND DUP3 ADD DUP1 PUSH1 0x40 MSTORE POP DUP2 ADD SWAP1 PUSH2 0x1A65 SWAP2 SWAP1 PUSH2 0x37E9 JUMP JUMPDEST POP PUSH1 0x80 DUP2 ADD MLOAD PUSH1 0x60 DUP3 ADD MLOAD PUSH1 0x40 DUP4 ADD MLOAD PUSH1 0x20 DUP5 ADD MLOAD DUP5 MLOAD PUSH2 0x1A86 SWAP2 SWAP1 PUSH2 0x37D6 JUMP JUMPDEST PUSH2 0x1A90 SWAP2 SWAP1 PUSH2 0x37D6 JUMP JUMPDEST PUSH2 0x1A9A SWAP2 SWAP1 PUSH2 0x37D6 JUMP JUMPDEST PUSH2 0x1AA4 SWAP2 SWAP1 PUSH2 0x37D6 JUMP JUMPDEST PUSH1 0xA0 DUP3 ADD DUP2 SWAP1 MSTORE ISZERO PUSH2 0x1B2E JUMPI PUSH1 0x6 SLOAD PUSH1 0x19 SLOAD PUSH1 0xA0 DUP4 ADD MLOAD PUSH1 0x40 MLOAD PUSH4 0xA9059CBB PUSH1 0xE0 SHL DUP2 MSTORE PUSH1 0x1 PUSH1 0x1 PUSH1 0xA0 SHL SUB SWAP3 DUP4 AND PUSH1 0x4 DUP3 ADD MSTORE PUSH1 0x24 DUP2 ADD SWAP2 SWAP1 SWAP2 MSTORE SWAP2 AND SWAP1 PUSH4 0xA9059CBB SWAP1 PUSH1 0x44 ADD PUSH1 0x20 PUSH1 0x40 MLOAD DUP1 DUP4 SUB DUP2 PUSH0 DUP8 GAS CALL ISZERO DUP1 ISZERO PUSH2 0x1B08 JUMPI RETURNDATASIZE PUSH0 PUSH0 RETURNDATACOPY RETURNDATASIZE PUSH0 REVERT JUMPDEST POP POP POP POP PUSH1 0x40 MLOAD RETURNDATASIZE PUSH1 0x1F NOT PUSH1 0x1F DUP3 ADD AND DUP3 ADD DUP1 PUSH1 0x40 MSTORE POP DUP2 ADD SWAP1 PUSH2 0x1B2C SWAP2 SWAP1 PUSH2 0x37E9 JUMP JUMPDEST POP JUMPDEST PUSH1 0x1 PUSH1 0x1 PUSH1 0xA0 SHL SUB DUP14 AND PUSH0 SWAP1 DUP2 MSTORE PUSH1 0xA PUSH1 0x20 MSTORE PUSH1 0x40 DUP2 KECCAK256 PUSH1 0x8 ADD DUP1 SLOAD DUP14 SWAP3 SWAP1 PUSH2 0x1B58 SWAP1 DUP5 SWAP1 PUSH2 0x3694 JUMP JUMPDEST SWAP1 SWAP2 SSTORE POP POP POP PUSH1 0x1 PUSH1 0x1 PUSH1 0xA0 SHL SUB SWAP1 SWAP12 AND PUSH0 SWAP1 DUP2 MSTORE PUSH1 0xA PUSH1 0x20 MSTORE PUSH1 0x40 SWAP1 KECCAK256 TIMESTAMP PUSH1 0x4 SWAP1 SWAP2 ADD SSTORE POP POP POP POP POP POP POP POP POP POP POP JUMP JUMPDEST PUSH1 0x1 PUSH1 0x1 PUSH1 0xA0 SHL SUB DUP4 AND PUSH2 0x1BB4 JUMPI DUP1 PUSH1 0x2 PUSH0 DUP3 DUP3 SLOAD PUSH2 0x1BA9 SWAP2 SWAP1 PUSH2 0x3694 JUMP JUMPDEST SWAP1 SWAP2 SSTORE POP PUSH2 0x1C24 SWAP1 POP JUMP JUMPDEST PUSH1 0x1 PUSH1 0x1 PUSH1 0xA0 SHL SUB DUP4 AND PUSH0 SWAP1 DUP2 MSTORE PUSH1 0x20 DUP2 SWAP1 MSTORE PUSH1 0x40 SWAP1 KECCAK256 SLOAD DUP2 DUP2 LT ISZERO PUSH2 0x1C06 JUMPI PUSH1 0x40 MLOAD PUSH4 0x391434E3 PUSH1 0xE2 SHL DUP2 MSTORE PUSH1 0x1 PUSH1 0x1 PUSH1 0xA0 SHL SUB DUP6 AND PUSH1 0x4 DUP3 ADD MSTORE PUSH1 0x24 DUP2 ADD DUP3 SWAP1 MSTORE PUSH1 0x44 DUP2 ADD DUP4 SWAP1 MSTORE PUSH1 0x64 ADD PUSH2 0xF2 JUMP JUMPDEST PUSH1 0x1 PUSH1 0x1 PUSH1 0xA0 SHL SUB DUP5 AND PUSH0 SWAP1 DUP2 MSTORE PUSH1 0x20 DUP2 SWAP1 MSTORE PUSH1 0x40 SWAP1 KECCAK256 SWAP1 DUP3 SWAP1 SUB SWAP1 SSTORE JUMPDEST PUSH1 0x1 PUSH1 0x1 PUSH1 0xA0 SHL SUB DUP3 AND PUSH2 0x1C40 JUMPI PUSH1 0x2 DUP1 SLOAD DUP3 SWAP1 SUB SWAP1 SSTORE PUSH2 0x1C5E JUMP JUMPDEST PUSH1 0x1 PUSH1 0x1 PUSH1 0xA0 SHL SUB DUP3 AND PUSH0 SWAP1 DUP2 MSTORE PUSH1 0x20 DUP2 SWAP1 MSTORE PUSH1 0x40 SWAP1 KECCAK256 DUP1 SLOAD DUP3 ADD SWAP1 SSTORE JUMPDEST DUP2 PUSH1 0x1 PUSH1 0x1 PUSH1 0xA0 SHL SUB AND DUP4 PUSH1 0x1 PUSH1 0x1 PUSH1 0xA0 SHL SUB AND PUSH32 0xDDF252AD1BE2C89B69C2B068FC378DAA952BA7F163C4A11628F55A4DF523B3EF DUP4 PUSH1 0x40 MLOAD PUSH2 0x1CA3 SWAP2 DUP2 MSTORE PUSH1 0x20 ADD SWAP1 JUMP JUMPDEST PUSH1 0x40 MLOAD DUP1 SWAP2 SUB SWAP1 LOG3 POP POP POP JUMP JUMPDEST PUSH0 DUP1 PUSH2 0x1CBA PUSH2 0x1E74 JUMP JUMPDEST SWAP1 POP PUSH11 0x52B7D2DCC80CD2E4000000 DUP2 GT ISZERO PUSH2 0x1CD7 JUMPI PUSH1 0x32 SWAP2 POP POP SWAP1 JUMP JUMPDEST PUSH1 0x14 SWAP2 POP POP SWAP1 JUMP JUMPDEST PUSH0 PUSH0 PUSH1 0x6 PUSH0 SWAP1 SLOAD SWAP1 PUSH2 0x100 EXP SWAP1 DIV PUSH1 0x1 PUSH1 0x1 PUSH1 0xA0 SHL SUB AND PUSH1 0x1 PUSH1 0x1 PUSH1 0xA0 SHL SUB AND PUSH4 0x902F1AC PUSH1 0x40 MLOAD DUP2 PUSH4 0xFFFFFFFF AND PUSH1 0xE0 SHL DUP2 MSTORE PUSH1 0x4 ADD PUSH1 0x60 PUSH1 0x40 MLOAD DUP1 DUP4 SUB DUP2 DUP7 GAS STATICCALL ISZERO DUP1 ISZERO PUSH2 0x1D31 JUMPI RETURNDATASIZE PUSH0 PUSH0 RETURNDATACOPY RETURNDATASIZE PUSH0 REVERT JUMPDEST POP POP POP POP PUSH1 0x40 MLOAD RETURNDATASIZE PUSH1 0x1F NOT PUSH1 0x1F DUP3 ADD AND DUP3 ADD DUP1 PUSH1 0x40 MSTORE POP DUP2 ADD SWAP1 PUSH2 0x1D55 SWAP2 SWAP1 PUSH2 0x381E JUMP JUMPDEST POP POP PUSH1 0xB SLOAD PUSH1 0x6 SLOAD PUSH1 0x40 MLOAD PUSH4 0x70A08231 PUSH1 0xE0 SHL DUP2 MSTORE PUSH1 0x1 PUSH1 0x1 PUSH1 0xA0 SHL SUB SWAP2 DUP3 AND PUSH1 0x4 DUP3 ADD MSTORE PUSH1 0x1 PUSH1 0x1 PUSH1 0x70 SHL SUB SWAP4 SWAP1 SWAP4 AND SWAP4 POP PUSH0 SWAP3 SWAP2 AND SWAP1 PUSH4 0x70A08231 SWAP1 PUSH1 0x24 ADD PUSH1 0x20 PUSH1 0x40 MLOAD DUP1 DUP4 SUB DUP2 DUP7 GAS STATICCALL ISZERO DUP1 ISZERO PUSH2 0x1DB1 JUMPI RETURNDATASIZE PUSH0 PUSH0 RETURNDATACOPY RETURNDATASIZE PUSH0 REVERT JUMPDEST POP POP POP POP PUSH1 0x40 MLOAD RETURNDATASIZE PUSH1 0x1F NOT PUSH1 0x1F DUP3 ADD AND DUP3 ADD DUP1 PUSH1 0x40 MSTORE POP DUP2 ADD SWAP1 PUSH2 0x1DD5 SWAP2 SWAP1 PUSH2 0x38D0 JUMP JUMPDEST SWAP1 POP DUP1 DUP3 GT ISZERO PUSH2 0x1E6F JUMPI PUSH1 0x6 SLOAD PUSH1 0x40 DUP1 MLOAD PUSH4 0x18160DDD PUSH1 0xE0 SHL DUP2 MSTORE SWAP1 MLOAD PUSH0 SWAP3 PUSH1 0x1 PUSH1 0x1 PUSH1 0xA0 SHL SUB AND SWAP2 PUSH4 0x18160DDD SWAP2 PUSH1 0x4 DUP1 DUP4 ADD SWAP3 PUSH1 0x20 SWAP3 SWAP2 SWAP1 DUP3 SWAP1 SUB ADD DUP2 DUP7 GAS STATICCALL ISZERO DUP1 ISZERO PUSH2 0x1E26 JUMPI RETURNDATASIZE PUSH0 PUSH0 RETURNDATACOPY RETURNDATASIZE PUSH0 REVERT JUMPDEST POP POP POP POP PUSH1 0x40 MLOAD RETURNDATASIZE PUSH1 0x1F NOT PUSH1 0x1F DUP3 ADD AND DUP3 ADD DUP1 PUSH1 0x40 MSTORE POP DUP2 ADD SWAP1 PUSH2 0x1E4A SWAP2 SWAP1 PUSH2 0x38D0 JUMP JUMPDEST SWAP1 POP DUP2 PUSH2 0x1E57 DUP2 DUP6 PUSH2 0x37D6 JUMP JUMPDEST PUSH2 0x1E61 SWAP1 DUP4 PUSH2 0x3798 JUMP JUMPDEST PUSH2 0x1E6B SWAP2 SWAP1 PUSH2 0x37C3 JUMP JUMPDEST SWAP4 POP POP JUMPDEST POP POP SWAP1 JUMP JUMPDEST PUSH1 0x6 SLOAD PUSH1 0x40 DUP1 MLOAD PUSH4 0x240BC6B PUSH1 0xE2 SHL DUP2 MSTORE SWAP1 MLOAD PUSH0 SWAP3 PUSH1 0x1 PUSH1 0x1 PUSH1 0xA0 SHL SUB AND SWAP2 DUP4 SWAP2 DUP3 SWAP2 DUP5 SWAP2 PUSH4 0x902F1AC SWAP2 PUSH1 0x4 DUP1 DUP3 ADD SWAP3 PUSH1 0x60 SWAP3 SWAP1 SWAP2 SWAP1 DUP3 SWAP1 SUB ADD DUP2 DUP7 GAS STATICCALL ISZERO DUP1 ISZERO PUSH2 0x1EC2 JUMPI RETURNDATASIZE PUSH0 PUSH0 RETURNDATACOPY RETURNDATASIZE PUSH0 REVERT JUMPDEST POP POP POP POP PUSH1 0x40 MLOAD RETURNDATASIZE PUSH1 0x1F NOT PUSH1 0x1F DUP3 ADD AND DUP3 ADD DUP1 PUSH1 0x40 MSTORE POP DUP2 ADD SWAP1 PUSH2 0x1EE6 SWAP2 SWAP1 PUSH2 0x381E JUMP JUMPDEST POP SWAP2 POP SWAP2 POP PUSH0 DUP4 PUSH1 0x1 PUSH1 0x1 PUSH1 0xA0 SHL SUB AND PUSH4 0xDFE1681 PUSH1 0x40 MLOAD DUP2 PUSH4 0xFFFFFFFF AND PUSH1 0xE0 SHL DUP2 MSTORE PUSH1 0x4 ADD PUSH1 0x20 PUSH1 0x40 MLOAD DUP1 DUP4 SUB DUP2 DUP7 GAS STATICCALL ISZERO DUP1 ISZERO PUSH2 0x1F28 JUMPI RETURNDATASIZE PUSH0 PUSH0 RETURNDATACOPY RETURNDATASIZE PUSH0 REVERT JUMPDEST POP POP POP POP PUSH1 0x40 MLOAD RETURNDATASIZE PUSH1 0x1F NOT PUSH1 0x1F DUP3 ADD AND DUP3 ADD DUP1 PUSH1 0x40 MSTORE POP DUP2 ADD SWAP1 PUSH2 0x1F4C SWAP2 SWAP1 PUSH2 0x3667 JUMP JUMPDEST SWAP1 POP PUSH1 0x1 PUSH1 0x1 PUSH1 0xA0 SHL SUB DUP2 AND ADDRESS EQ PUSH2 0x1F64 JUMPI DUP2 PUSH2 0x1F66 JUMP JUMPDEST DUP3 JUMPDEST PUSH1 0x1 PUSH1 0x1 PUSH1 0x70 SHL SUB AND SWAP5 POP POP POP POP POP SWAP1 JUMP JUMPDEST PUSH2 0xDEAD PUSH0 SWAP1 DUP2 MSTORE PUSH1 0x20 DUP2 SWAP1 MSTORE PUSH32 0x44AD89BA62B98FF34F51403AC22759B55759460C0BB5521EB4B6EE3CFF49CF83 SLOAD PUSH1 0x2 SLOAD PUSH2 0x1FB3 SWAP2 SWAP1 PUSH2 0x37D6 JUMP JUMPDEST SWAP1 POP SWAP1 JUMP JUMPDEST PUSH1 0x6 SLOAD PUSH1 0x40 DUP1 MLOAD PUSH4 0x240BC6B PUSH1 0xE2 SHL DUP2 MSTORE SWAP1 MLOAD PUSH1 0x1 PUSH1 0x1 PUSH1 0xA0 SHL SUB SWAP1 SWAP3 AND SWAP2 PUSH0 SWAP2 DUP3 SWAP2 DUP5 SWAP2 PUSH4 0x902F1AC SWAP2 PUSH1 0x4 DUP1 DUP4 ADD SWAP3 PUSH1 0x60 SWAP3 SWAP2 SWAP1 DUP3 SWAP1 SUB ADD DUP2 DUP7 GAS STATICCALL ISZERO DUP1 ISZERO PUSH2 0x2005 JUMPI RETURNDATASIZE PUSH0 PUSH0 RETURNDATACOPY RETURNDATASIZE PUSH0 REVERT JUMPDEST POP POP POP POP PUSH1 0x40 MLOAD RETURNDATASIZE PUSH1 0x1F NOT PUSH1 0x1F DUP3 ADD AND DUP3 ADD DUP1 PUSH1 0x40 MSTORE POP DUP2 ADD SWAP1 PUSH2 0x2029 SWAP2 SWAP1 PUSH2 0x381E JUMP JUMPDEST POP SWAP2 POP SWAP2 POP DUP2 PUSH1 0x1 PUSH1 0x1 PUSH1 0x70 SHL SUB AND PUSH0 EQ DUP1 PUSH2 0x204C JUMPI POP PUSH1 0x1 PUSH1 0x1 PUSH1 0x70 SHL SUB DUP2 AND ISZERO JUMPDEST ISZERO PUSH2 0x2056 JUMPI POP POP POP JUMP JUMPDEST PUSH0 DUP4 PUSH1 0x1 PUSH1 0x1 PUSH1 0xA0 SHL SUB AND PUSH4 0xDFE1681 PUSH1 0x40 MLOAD DUP2 PUSH4 0xFFFFFFFF AND PUSH1 0xE0 SHL DUP2 MSTORE PUSH1 0x4 ADD PUSH1 0x20 PUSH1 0x40 MLOAD DUP1 DUP4 SUB DUP2 DUP7 GAS STATICCALL ISZERO DUP1 ISZERO PUSH2 0x2093 JUMPI RETURNDATASIZE PUSH0 PUSH0 RETURNDATACOPY RETURNDATASIZE PUSH0 REVERT JUMPDEST POP POP POP POP PUSH1 0x40 MLOAD RETURNDATASIZE PUSH1 0x1F NOT PUSH1 0x1F DUP3 ADD AND DUP3 ADD DUP1 PUSH1 0x40 MSTORE POP DUP2 ADD SWAP1 PUSH2 0x20B7 SWAP2 SWAP1 PUSH2 0x3667 JUMP JUMPDEST SWAP1 POP PUSH0 PUSH1 0x1 PUSH1 0x1 PUSH1 0xA0 SHL SUB DUP3 AND ADDRESS EQ PUSH2 0x20D0 JUMPI DUP3 PUSH2 0x20D2 JUMP JUMPDEST DUP4 JUMPDEST PUSH1 0x1 PUSH1 0x1 PUSH1 0x70 SHL SUB AND SWAP1 POP PUSH0 PUSH1 0x1 PUSH1 0x1 PUSH1 0xA0 SHL SUB DUP4 AND ADDRESS EQ PUSH2 0x20F4 JUMPI DUP5 PUSH2 0x20F6 JUMP JUMPDEST DUP4 JUMPDEST PUSH1 0x1 PUSH1 0x1 PUSH1 0x70 SHL SUB AND SWAP1 POP DUP1 PUSH0 SUB PUSH2 0x2110 JUMPI POP POP POP POP POP POP JUMP JUMPDEST PUSH0 DUP3 PUSH2 0x2124 DUP4 PUSH8 0xDE0B6B3A7640000 PUSH2 0x3798 JUMP JUMPDEST PUSH2 0x212E SWAP2 SWAP1 PUSH2 0x37C3 JUMP JUMPDEST SWAP1 POP PUSH0 PUSH2 0x213E PUSH3 0x15180 TIMESTAMP PUSH2 0x37C3 JUMP JUMPDEST SWAP1 POP PUSH1 0x1B SLOAD DUP2 GT ISZERO PUSH2 0x220D JUMPI PUSH0 PUSH1 0x1C SLOAD GT DUP1 ISZERO PUSH2 0x2174 JUMPI POP PUSH1 0x64 PUSH1 0x1C SLOAD PUSH1 0x5C PUSH2 0x2167 SWAP2 SWAP1 PUSH2 0x3798 JUMP JUMPDEST PUSH2 0x2171 SWAP2 SWAP1 PUSH2 0x37C3 JUMP JUMPDEST DUP3 LT JUMPDEST ISZERO PUSH2 0x21F7 JUMPI PUSH1 0x1D DUP1 SLOAD PUSH1 0xFF NOT AND PUSH1 0x1 OR SWAP1 SSTORE PUSH1 0x1C SLOAD PUSH32 0xE9560271FF9C39B91BAAAAFEBB009E70AD170A54AB31A72F4B884680B076682 SWAP1 DUP3 SWAP1 PUSH2 0x21B7 JUMPI PUSH0 PUSH2 0x21DA JUMP JUMPDEST PUSH1 0x1C SLOAD PUSH2 0x21C4 DUP6 DUP3 PUSH2 0x37D6 JUMP JUMPDEST PUSH2 0x21D0 SWAP1 PUSH2 0x2710 PUSH2 0x3798 JUMP JUMPDEST PUSH2 0x21DA SWAP2 SWAP1 PUSH2 0x37C3 JUMP JUMPDEST PUSH1 0x40 DUP1 MLOAD SWAP3 DUP4 MSTORE PUSH1 0x20 DUP4 ADD SWAP2 SWAP1 SWAP2 MSTORE ADD PUSH1 0x40 MLOAD DUP1 SWAP2 SUB SWAP1 LOG1 PUSH2 0x2202 JUMP JUMPDEST PUSH1 0x1D DUP1 SLOAD PUSH1 0xFF NOT AND SWAP1 SSTORE JUMPDEST PUSH1 0x1C DUP3 SWAP1 SSTORE PUSH1 0x1B DUP2 SWAP1 SSTORE JUMPDEST POP POP POP POP POP POP POP POP JUMP JUMPDEST PUSH1 0x80 MLOAD PUSH0 SWAP1 PUSH1 0x1 PUSH1 0x1 PUSH1 0xA0 SHL SUB AND CALLER SUB PUSH2 0x240A JUMPI PUSH0 PUSH0 PUSH1 0x6 PUSH0 SWAP1 SLOAD SWAP1 PUSH2 0x100 EXP SWAP1 DIV PUSH1 0x1 PUSH1 0x1 PUSH1 0xA0 SHL SUB AND PUSH1 0x1 PUSH1 0x1 PUSH1 0xA0 SHL SUB AND PUSH4 0x902F1AC PUSH1 0x40 MLOAD DUP2 PUSH4 0xFFFFFFFF AND PUSH1 0xE0 SHL DUP2 MSTORE PUSH1 0x4 ADD PUSH1 0x60 PUSH1 0x40 MLOAD DUP1 DUP4 SUB DUP2 DUP7 GAS STATICCALL ISZERO DUP1 ISZERO PUSH2 0x227D JUMPI RETURNDATASIZE PUSH0 PUSH0 RETURNDATACOPY RETURNDATASIZE PUSH0 REVERT JUMPDEST POP POP POP POP PUSH1 0x40 MLOAD RETURNDATASIZE PUSH1 0x1F NOT PUSH1 0x1F DUP3 ADD AND DUP3 ADD DUP1 PUSH1 0x40 MSTORE POP DUP2 ADD SWAP1 PUSH2 0x22A1 SWAP2 SWAP1 PUSH2 0x381E JUMP JUMPDEST POP PUSH1 0xB SLOAD PUSH1 0x6 SLOAD PUSH1 0x40 MLOAD PUSH4 0x70A08231 PUSH1 0xE0 SHL DUP2 MSTORE PUSH1 0x1 PUSH1 0x1 PUSH1 0xA0 SHL SUB SWAP2 DUP3 AND PUSH1 0x4 DUP3 ADD MSTORE PUSH1 0x1 PUSH1 0x1 PUSH1 0x70 SHL SUB SWAP5 DUP6 AND SWAP7 POP SWAP3 SWAP1 SWAP4 AND SWAP4 POP PUSH0 SWAP3 AND SWAP1 PUSH4 0x70A08231 SWAP1 PUSH1 0x24 ADD PUSH1 0x20 PUSH1 0x40 MLOAD DUP1 DUP4 SUB DUP2 DUP7 GAS STATICCALL ISZERO DUP1 ISZERO PUSH2 0x2300 JUMPI RETURNDATASIZE PUSH0 PUSH0 RETURNDATACOPY RETURNDATASIZE PUSH0 REVERT JUMPDEST POP POP POP POP PUSH1 0x40 MLOAD RETURNDATASIZE PUSH1 0x1F NOT PUSH1 0x1F DUP3 ADD AND DUP3 ADD DUP1 PUSH1 0x40 MSTORE POP DUP2 ADD SWAP1 PUSH2 0x2324 SWAP2 SWAP1 PUSH2 0x38D0 JUMP JUMPDEST SWAP1 POP DUP3 DUP2 GT ISZERO PUSH2 0x2406 JUMPI PUSH1 0x6 SLOAD PUSH1 0x40 DUP1 MLOAD PUSH4 0x18160DDD PUSH1 0xE0 SHL DUP2 MSTORE SWAP1 MLOAD PUSH0 SWAP3 PUSH1 0x1 PUSH1 0x1 PUSH1 0xA0 SHL SUB AND SWAP2 PUSH4 0x18160DDD SWAP2 PUSH1 0x4 DUP1 DUP4 ADD SWAP3 PUSH1 0x20 SWAP3 SWAP2 SWAP1 DUP3 SWAP1 SUB ADD DUP2 DUP7 GAS STATICCALL ISZERO DUP1 ISZERO PUSH2 0x2375 JUMPI RETURNDATASIZE PUSH0 PUSH0 RETURNDATACOPY RETURNDATASIZE PUSH0 REVERT JUMPDEST POP POP POP POP PUSH1 0x40 MLOAD RETURNDATASIZE PUSH1 0x1F NOT PUSH1 0x1F DUP3 ADD AND DUP3 ADD DUP1 PUSH1 0x40 MSTORE POP DUP2 ADD SWAP1 PUSH2 0x2399 SWAP2 SWAP1 PUSH2 0x38D0 JUMP JUMPDEST SWAP1 POP DUP1 PUSH0 SUB PUSH2 0x23AE JUMPI POP PUSH1 0x1 SWAP6 SWAP5 POP POP POP POP POP JUMP JUMPDEST PUSH2 0x23B9 DUP2 DUP4 DUP6 PUSH2 0x3158 JUMP JUMPDEST PUSH2 0x23C3 SWAP1 DUP3 PUSH2 0x3694 JUMP JUMPDEST SWAP1 POP PUSH2 0x2402 DUP5 DUP3 PUSH2 0x23D4 DUP3 DUP7 PUSH2 0x37D6 JUMP JUMPDEST PUSH2 0x23DE SWAP2 SWAP1 PUSH2 0x3798 JUMP JUMPDEST PUSH2 0x23E8 SWAP2 SWAP1 PUSH2 0x37C3 JUMP JUMPDEST DUP5 PUSH2 0x23F3 DUP5 DUP11 PUSH2 0x3798 JUMP JUMPDEST PUSH2 0x23FD SWAP2 SWAP1 PUSH2 0x37C3 JUMP JUMPDEST PUSH2 0x324D JUMP JUMPDEST SWAP5 POP POP JUMPDEST POP POP POP JUMPDEST SWAP2 SWAP1 POP JUMP JUMPDEST PUSH0 PUSH1 0x14 SLOAD PUSH1 0x13 SLOAD PUSH2 0x2420 SWAP2 SWAP1 PUSH2 0x3694 JUMP JUMPDEST SWAP1 POP PUSH8 0xDE0B6B3A7640000 DUP2 LT ISZERO PUSH2 0x2435 JUMPI POP JUMP JUMPDEST PUSH2 0x2448 ADDRESS PUSH1 0x80 MLOAD DUP4 PUSH2 0x3262 PUSH1 0x20 SHL PUSH1 0x20 SHR JUMP JUMPDEST PUSH1 0x40 DUP1 MLOAD PUSH1 0x2 DUP1 DUP3 MSTORE PUSH1 0x60 DUP3 ADD DUP4 MSTORE PUSH0 SWAP3 PUSH1 0x20 DUP4 ADD SWAP1 DUP1 CALLDATASIZE DUP4 CALLDATACOPY ADD SWAP1 POP POP SWAP1 POP ADDRESS DUP2 PUSH0 DUP2 MLOAD DUP2 LT PUSH2 0x247B JUMPI PUSH2 0x247B PUSH2 0x389B JUMP JUMPDEST PUSH1 0x1 PUSH1 0x1 PUSH1 0xA0 SHL SUB SWAP3 DUP4 AND PUSH1 0x20 SWAP2 DUP3 MUL SWAP3 SWAP1 SWAP3 ADD ADD MSTORE PUSH1 0xB SLOAD DUP3 MLOAD SWAP2 AND SWAP1 DUP3 SWAP1 PUSH1 0x1 SWAP1 DUP2 LT PUSH2 0x24AC JUMPI PUSH2 0x24AC PUSH2 0x389B JUMP JUMPDEST PUSH1 0x1 PUSH1 0x1 PUSH1 0xA0 SHL SUB SWAP3 DUP4 AND PUSH1 0x20 SWAP2 DUP3 MUL SWAP3 SWAP1 SWAP3 ADD ADD MSTORE PUSH1 0x80 MLOAD PUSH1 0x40 MLOAD PUSH4 0x791AC947 PUSH1 0xE0 SHL DUP2 MSTORE SWAP2 AND SWAP1 PUSH4 0x791AC947 SWAP1 PUSH2 0x24F1 SWAP1 DUP6 SWAP1 PUSH0 SWAP1 DUP7 SWAP1 ADDRESS SWAP1 TIMESTAMP SWAP1 PUSH1 0x4 ADD PUSH2 0x392A JUMP JUMPDEST PUSH0 PUSH1 0x40 MLOAD DUP1 DUP4 SUB DUP2 PUSH0 DUP8 DUP1 EXTCODESIZE ISZERO DUP1 ISZERO PUSH2 0x2508 JUMPI PUSH0 PUSH0 REVERT JUMPDEST POP GAS CALL ISZERO DUP1 ISZERO PUSH2 0x251A JUMPI RETURNDATASIZE PUSH0 PUSH0 RETURNDATACOPY RETURNDATASIZE PUSH0 REVERT JUMPDEST POP POP PUSH1 0x14 SLOAD SELFBALANCE SWAP3 POP PUSH0 SWAP2 POP DUP5 SWAP1 PUSH2 0x2531 SWAP1 DUP5 PUSH2 0x3798 JUMP JUMPDEST PUSH2 0x253B SWAP2 SWAP1 PUSH2 0x37C3 JUMP JUMPDEST PUSH1 0x1A SLOAD SWAP1 SWAP2 POP PUSH2 0x2554 SWAP1 PUSH1 0x1 PUSH1 0x1 PUSH1 0xA0 SHL SUB AND DUP3 PUSH2 0x326F JUMP JUMPDEST PUSH0 PUSH2 0x255F DUP3 DUP5 PUSH2 0x37D6 JUMP JUMPDEST SWAP1 POP PUSH0 DUP2 GT DUP1 ISZERO PUSH2 0x257A JUMPI POP PUSH1 0xC SLOAD PUSH1 0x1 PUSH1 0x1 PUSH1 0xA0 SHL SUB AND ISZERO ISZERO JUMPDEST ISZERO PUSH2 0x269A JUMPI PUSH1 0x40 DUP1 MLOAD PUSH1 0x2 DUP1 DUP3 MSTORE PUSH1 0x60 DUP3 ADD DUP4 MSTORE PUSH0 SWAP3 PUSH1 0x20 DUP4 ADD SWAP1 DUP1 CALLDATASIZE DUP4 CALLDATACOPY POP POP PUSH1 0xB SLOAD DUP3 MLOAD SWAP3 SWAP4 POP PUSH1 0x1 PUSH1 0x1 PUSH1 0xA0 SHL SUB AND SWAP2 DUP4 SWAP2 POP PUSH0 SWAP1 PUSH2 0x25BE JUMPI PUSH2 0x25BE PUSH2 0x389B JUMP JUMPDEST PUSH1 0x20 MUL PUSH1 0x20 ADD ADD SWAP1 PUSH1 0x1 PUSH1 0x1 PUSH1 0xA0 SHL SUB AND SWAP1 DUP2 PUSH1 0x1 PUSH1 0x1 PUSH1 0xA0 SHL SUB AND DUP2 MSTORE POP POP PUSH20 0x55D398326F99059FF775485246999027B3197955 DUP2 PUSH1 0x1 DUP2 MLOAD DUP2 LT PUSH2 0x2606 JUMPI PUSH2 0x2606 PUSH2 0x389B JUMP JUMPDEST PUSH1 0x1 PUSH1 0x1 PUSH1 0xA0 SHL SUB SWAP3 DUP4 AND PUSH1 0x20 SWAP2 DUP3 MUL SWAP3 SWAP1 SWAP3 ADD ADD MSTORE PUSH1 0x80 MLOAD PUSH1 0xC SLOAD PUSH1 0x40 MLOAD PUSH4 0xB6F9DE95 PUSH1 0xE0 SHL DUP2 MSTORE SWAP2 DUP4 AND SWAP3 PUSH4 0xB6F9DE95 SWAP3 DUP7 SWAP3 PUSH2 0x2651 SWAP3 PUSH0 SWAP3 DUP9 SWAP3 SWAP1 SWAP2 AND SWAP1 TIMESTAMP SWAP1 PUSH1 0x4 ADD PUSH2 0x3965 JUMP JUMPDEST PUSH0 PUSH1 0x40 MLOAD DUP1 DUP4 SUB DUP2 DUP6 DUP9 DUP1 EXTCODESIZE ISZERO DUP1 ISZERO PUSH2 0x2668 JUMPI PUSH0 PUSH0 REVERT JUMPDEST POP GAS CALL SWAP4 POP POP POP POP DUP1 ISZERO PUSH2 0x267A JUMPI POP PUSH1 0x1 JUMPDEST PUSH2 0x2694 JUMPI PUSH1 0xC SLOAD PUSH2 0x2694 SWAP1 PUSH1 0x1 PUSH1 0x1 PUSH1 0xA0 SHL SUB AND DUP4 PUSH2 0x326F JUMP JUMPDEST POP PUSH2 0x26B6 JUMP JUMPDEST DUP1 ISZERO PUSH2 0x26B6 JUMPI PUSH1 0xC SLOAD PUSH2 0x26B6 SWAP1 PUSH1 0x1 PUSH1 0x1 PUSH1 0xA0 SHL SUB AND DUP3 PUSH2 0x326F JUMP JUMPDEST POP POP PUSH0 PUSH1 0x13 DUP2 SWAP1 SSTORE PUSH1 0x14 SSTORE POP POP POP JUMP JUMPDEST PUSH1 0x6 SLOAD PUSH1 0x40 DUP1 MLOAD PUSH4 0x240BC6B PUSH1 0xE2 SHL DUP2 MSTORE SWAP1 MLOAD PUSH1 0x1 PUSH1 0x1 PUSH1 0xA0 SHL SUB SWAP1 SWAP3 AND SWAP2 PUSH0 SWAP2 DUP3 SWAP2 DUP5 SWAP2 PUSH4 0x902F1AC SWAP2 PUSH1 0x4 DUP1 DUP4 ADD SWAP3 PUSH1 0x60 SWAP3 SWAP2 SWAP1 DUP3 SWAP1 SUB ADD DUP2 DUP7 GAS STATICCALL ISZERO DUP1 ISZERO PUSH2 0x2713 JUMPI RETURNDATASIZE PUSH0 PUSH0 RETURNDATACOPY RETURNDATASIZE PUSH0 REVERT JUMPDEST POP POP POP POP PUSH1 0x40 MLOAD RETURNDATASIZE PUSH1 0x1F NOT PUSH1 0x1F DUP3 ADD AND DUP3 ADD DUP1 PUSH1 0x40 MSTORE POP DUP2 ADD SWAP1 PUSH2 0x2737 SWAP2 SWAP1 PUSH2 0x381E JUMP JUMPDEST POP SWAP2 POP SWAP2 POP DUP2 PUSH1 0x1 PUSH1 0x1 PUSH1 0x70 SHL SUB AND PUSH0 EQ DUP1 PUSH2 0x275A JUMPI POP PUSH1 0x1 PUSH1 0x1 PUSH1 0x70 SHL SUB DUP2 AND ISZERO JUMPDEST ISZERO PUSH2 0x2764 JUMPI POP POP POP JUMP JUMPDEST PUSH0 DUP4 PUSH1 0x1 PUSH1 0x1 PUSH1 0xA0 SHL SUB AND PUSH4 0xDFE1681 PUSH1 0x40 MLOAD DUP2 PUSH4 0xFFFFFFFF AND PUSH1 0xE0 SHL DUP2 MSTORE PUSH1 0x4 ADD PUSH1 0x20 PUSH1 0x40 MLOAD DUP1 DUP4 SUB DUP2 DUP7 GAS STATICCALL ISZERO DUP1 ISZERO PUSH2 0x27A1 JUMPI RETURNDATASIZE PUSH0 PUSH0 RETURNDATACOPY RETURNDATASIZE PUSH0 REVERT JUMPDEST POP POP POP POP PUSH1 0x40 MLOAD RETURNDATASIZE PUSH1 0x1F NOT PUSH1 0x1F DUP3 ADD AND DUP3 ADD DUP1 PUSH1 0x40 MSTORE POP DUP2 ADD SWAP1 PUSH2 0x27C5 SWAP2 SWAP1 PUSH2 0x3667 JUMP JUMPDEST SWAP1 POP PUSH0 PUSH1 0x1 PUSH1 0x1 PUSH1 0xA0 SHL SUB DUP3 AND ADDRESS EQ PUSH2 0x27DE JUMPI DUP3 PUSH2 0x27E0 JUMP JUMPDEST DUP4 JUMPDEST PUSH1 0x1 PUSH1 0x1 PUSH1 0x70 SHL SUB AND SWAP1 POP PUSH1 0x12 SLOAD DUP2 LT ISZERO PUSH2 0x281F JUMPI PUSH1 0x11 SLOAD PUSH1 0x1 PUSH1 0xA0 SHL SWAP1 DIV PUSH1 0xFF AND PUSH2 0x281A JUMPI PUSH1 0x11 DUP1 SLOAD PUSH1 0xFF PUSH1 0xA0 SHL NOT AND PUSH1 0x1 PUSH1 0xA0 SHL OR SWAP1 SSTORE JUMPDEST PUSH2 0x99B JUMP JUMPDEST PUSH1 0x11 SLOAD PUSH1 0x1 PUSH1 0xA0 SHL SWAP1 DIV PUSH1 0xFF AND ISZERO PUSH2 0x99B JUMPI PUSH1 0x11 DUP1 SLOAD PUSH1 0xFF PUSH1 0xA0 SHL NOT AND SWAP1 SSTORE POP POP POP POP POP JUMP JUMPDEST PUSH0 DUP2 DUP2 MSTORE PUSH1 0x1 DUP4 ADD PUSH1 0x20 MSTORE PUSH1 0x40 DUP2 KECCAK256 SLOAD PUSH2 0x288A JUMPI POP DUP2 SLOAD PUSH1 0x1 DUP2 DUP2 ADD DUP5 SSTORE PUSH0 DUP5 DUP2 MSTORE PUSH1 0x20 DUP1 DUP3 KECCAK256 SWAP1 SWAP4 ADD DUP5 SWAP1 SSTORE DUP5 SLOAD DUP5 DUP3 MSTORE DUP3 DUP7 ADD SWAP1 SWAP4 MSTORE PUSH1 0x40 SWAP1 KECCAK256 SWAP2 SWAP1 SWAP2 SSTORE PUSH2 0x11DD JUMP JUMPDEST POP PUSH0 PUSH2 0x11DD JUMP JUMPDEST PUSH1 0x1 PUSH1 0x1 PUSH1 0xA0 SHL SUB DUP1 DUP3 AND PUSH0 SWAP1 DUP2 MSTORE PUSH1 0xA PUSH1 0x20 SWAP1 DUP2 MSTORE PUSH1 0x40 DUP1 DUP4 KECCAK256 DUP2 MLOAD PUSH2 0x160 DUP2 ADD DUP4 MSTORE DUP2 SLOAD SWAP1 SWAP6 AND DUP6 MSTORE PUSH1 0x1 DUP2 ADD SLOAD SWAP3 DUP6 ADD SWAP3 SWAP1 SWAP3 MSTORE PUSH1 0x2 DUP3 ADD SLOAD SWAP1 DUP5 ADD MSTORE PUSH1 0x3 DUP2 ADD SLOAD PUSH1 0x60 DUP5 ADD MSTORE PUSH1 0x4 DUP2 ADD SLOAD PUSH1 0x80 DUP5 ADD MSTORE PUSH1 0x5 DUP2 ADD SLOAD PUSH1 0xA0 DUP5 ADD MSTORE PUSH1 0x6 DUP2 ADD SLOAD PUSH1 0xC0 DUP5 ADD MSTORE PUSH1 0x7 DUP2 ADD SLOAD PUSH1 0xE0 DUP5 ADD MSTORE PUSH1 0x8 DUP2 ADD SLOAD PUSH2 0x100 DUP1 DUP6 ADD SWAP2 SWAP1 SWAP2 MSTORE PUSH1 0x9 SWAP1 SWAP2 ADD SLOAD PUSH1 0xFF DUP1 DUP3 AND ISZERO ISZERO PUSH2 0x120 DUP7 ADD MSTORE SWAP2 SWAP1 DIV AND ISZERO DUP1 ISZERO PUSH2 0x140 DUP5 ADD MSTORE SWAP1 SWAP2 SWAP1 DUP1 PUSH2 0x2943 JUMPI POP DUP1 PUSH2 0x120 ADD MLOAD ISZERO JUMPDEST ISZERO PUSH2 0x2950 JUMPI POP PUSH0 SWAP3 SWAP2 POP POP JUMP JUMPDEST PUSH1 0x1 PUSH1 0x1 PUSH1 0xA0 SHL SUB DUP4 AND PUSH0 SWAP1 DUP2 MSTORE PUSH1 0x9 PUSH1 0x20 MSTORE PUSH1 0x40 DUP2 KECCAK256 SLOAD SWAP1 DUP2 SWAP1 SUB PUSH2 0x2979 JUMPI POP PUSH0 SWAP4 SWAP3 POP POP POP JUMP JUMPDEST PUSH0 PUSH3 0x15180 PUSH2 0x2988 DUP4 TIMESTAMP PUSH2 0x37D6 JUMP JUMPDEST PUSH2 0x2992 SWAP2 SWAP1 PUSH2 0x37C3 JUMP JUMPDEST SWAP1 POP PUSH1 0xC8 DUP2 GT ISZERO PUSH2 0x29A7 JUMPI POP PUSH0 SWAP5 SWAP4 POP POP POP POP JUMP JUMPDEST PUSH0 PUSH2 0x29B0 PUSH2 0x2AA0 JUMP JUMPDEST POP POP POP SWAP1 POP PUSH1 0x7D DUP3 GT ISZERO PUSH2 0x29C3 JUMPI POP PUSH2 0x3E8 JUMPDEST PUSH1 0x20 DUP5 ADD MLOAD PUSH0 PUSH3 0x186A0 PUSH2 0x29D7 DUP5 DUP5 PUSH2 0x3798 JUMP JUMPDEST PUSH2 0x29E1 SWAP2 SWAP1 PUSH2 0x37C3 JUMP JUMPDEST SWAP1 POP PUSH0 PUSH0 DUP8 PUSH1 0x80 ADD MLOAD GT PUSH2 0x29F5 JUMPI DUP6 PUSH2 0x29FB JUMP JUMPDEST DUP7 PUSH1 0x80 ADD MLOAD JUMPDEST SWAP1 POP PUSH0 PUSH3 0x15180 PUSH2 0x2A0C DUP4 TIMESTAMP PUSH2 0x37D6 JUMP JUMPDEST PUSH2 0x2A16 SWAP2 SWAP1 PUSH2 0x37C3 JUMP JUMPDEST SWAP1 POP DUP1 PUSH0 SUB PUSH2 0x2A2E JUMPI POP PUSH0 SWAP10 SWAP9 POP POP POP POP POP POP POP POP POP JUMP JUMPDEST PUSH0 PUSH2 0x2A39 DUP3 DUP6 PUSH2 0x3798 JUMP JUMPDEST SWAP1 POP PUSH0 PUSH2 0x2A47 DUP7 PUSH1 0x3 PUSH2 0x3798 JUMP JUMPDEST SWAP1 POP DUP1 DUP3 DUP12 PUSH2 0x100 ADD MLOAD PUSH2 0x2A5B SWAP2 SWAP1 PUSH2 0x3694 JUMP JUMPDEST GT ISZERO PUSH2 0x2A91 JUMPI DUP1 DUP11 PUSH2 0x100 ADD MLOAD LT PUSH2 0x2A7E JUMPI POP PUSH0 SWAP12 SWAP11 POP POP POP POP POP POP POP POP POP POP POP JUMP JUMPDEST PUSH2 0x100 DUP11 ADD MLOAD PUSH2 0x2A8E SWAP1 DUP3 PUSH2 0x37D6 JUMP JUMPDEST SWAP2 POP JUMPDEST POP SWAP11 SWAP10 POP POP POP POP POP POP POP POP POP POP JUMP JUMPDEST PUSH0 DUP1 DUP1 DUP1 DUP1 PUSH2 0x2AAD PUSH2 0x1E74 JUMP JUMPDEST SWAP1 POP PUSH11 0x52B7D2DCC80CD2E4000000 DUP2 GT ISZERO PUSH2 0x2AD9 JUMPI PUSH2 0x640 PUSH0 PUSH2 0x12C PUSH1 0x3C SWAP5 POP SWAP5 POP SWAP5 POP SWAP5 POP POP PUSH2 0x2AEC JUMP JUMPDEST PUSH2 0x3E8 PUSH0 PUSH2 0x12C PUSH1 0x3C SWAP5 POP SWAP5 POP SWAP5 POP SWAP5 POP POP JUMPDEST SWAP1 SWAP2 SWAP3 SWAP4 JUMP JUMPDEST PUSH1 0x40 DUP1 MLOAD PUSH1 0x2 DUP1 DUP3 MSTORE PUSH1 0x60 DUP3 ADD DUP4 MSTORE PUSH0 SWAP3 DUP4 SWAP3 SWAP2 SWAP1 PUSH1 0x20 DUP4 ADD SWAP1 DUP1 CALLDATASIZE DUP4 CALLDATACOPY POP POP PUSH1 0xB SLOAD DUP3 MLOAD SWAP3 SWAP4 POP PUSH1 0x1 PUSH1 0x1 PUSH1 0xA0 SHL SUB AND SWAP2 DUP4 SWAP2 POP PUSH0 SWAP1 PUSH2 0x2B35 JUMPI PUSH2 0x2B35 PUSH2 0x389B JUMP JUMPDEST PUSH1 0x20 MUL PUSH1 0x20 ADD ADD SWAP1 PUSH1 0x1 PUSH1 0x1 PUSH1 0xA0 SHL SUB AND SWAP1 DUP2 PUSH1 0x1 PUSH1 0x1 PUSH1 0xA0 SHL SUB AND DUP2 MSTORE POP POP ADDRESS DUP2 PUSH1 0x1 DUP2 MLOAD DUP2 LT PUSH2 0x2B69 JUMPI PUSH2 0x2B69 PUSH2 0x389B JUMP JUMPDEST PUSH1 0x1 PUSH1 0x1 PUSH1 0xA0 SHL SUB SWAP3 DUP4 AND PUSH1 0x20 SWAP2 DUP3 MUL SWAP3 SWAP1 SWAP3 ADD ADD MSTORE PUSH1 0x80 MLOAD PUSH1 0x40 MLOAD PUSH4 0xD06CA61F PUSH1 0xE0 SHL DUP2 MSTORE PUSH0 SWAP3 SWAP2 SWAP1 SWAP2 AND SWAP1 PUSH4 0xD06CA61F SWAP1 PUSH2 0x2BAC SWAP1 DUP8 SWAP1 DUP7 SWAP1 PUSH1 0x4 ADD PUSH2 0x3999 JUMP JUMPDEST PUSH0 PUSH1 0x40 MLOAD DUP1 DUP4 SUB DUP2 DUP7 GAS STATICCALL ISZERO DUP1 ISZERO PUSH2 0x2BC6 JUMPI RETURNDATASIZE PUSH0 PUSH0 RETURNDATACOPY RETURNDATASIZE PUSH0 REVERT JUMPDEST POP POP POP POP PUSH1 0x40 MLOAD RETURNDATASIZE PUSH0 DUP3 RETURNDATACOPY PUSH1 0x1F RETURNDATASIZE SWAP1 DUP2 ADD PUSH1 0x1F NOT AND DUP3 ADD PUSH1 0x40 MSTORE PUSH2 0x2BED SWAP2 SWAP1 DUP2 ADD SWAP1 PUSH2 0x39B9 JUMP JUMPDEST SWAP1 POP DUP1 PUSH1 0x1 DUP2 MLOAD DUP2 LT PUSH2 0x2C02 JUMPI PUSH2 0x2C02 PUSH2 0x389B JUMP JUMPDEST PUSH1 0x20 MUL PUSH1 0x20 ADD ADD MLOAD SWAP3 POP POP POP SWAP2 SWAP1 POP JUMP JUMPDEST PUSH0 DUP1 PUSH2 0x2C20 PUSH1 0x2 DUP5 PUSH2 0x37C3 JUMP JUMPDEST PUSH1 0x40 DUP1 MLOAD PUSH1 0x2 DUP1 DUP3 MSTORE PUSH1 0x60 DUP3 ADD DUP4 MSTORE SWAP3 SWAP4 POP PUSH0 SWAP3 SWAP1 SWAP2 PUSH1 0x20 DUP4 ADD SWAP1 DUP1 CALLDATASIZE DUP4 CALLDATACOPY ADD SWAP1 POP POP SWAP1 POP ADDRESS DUP2 PUSH0 DUP2 MLOAD DUP2 LT PUSH2 0x2C58 JUMPI PUSH2 0x2C58 PUSH2 0x389B JUMP JUMPDEST PUSH1 0x1 PUSH1 0x1 PUSH1 0xA0 SHL SUB SWAP3 DUP4 AND PUSH1 0x20 SWAP2 DUP3 MUL SWAP3 SWAP1 SWAP3 ADD ADD MSTORE PUSH1 0xB SLOAD DUP3 MLOAD SWAP2 AND SWAP1 DUP3 SWAP1 PUSH1 0x1 SWAP1 DUP2 LT PUSH2 0x2C89 JUMPI PUSH2 0x2C89 PUSH2 0x389B JUMP JUMPDEST PUSH1 0x1 PUSH1 0x1 PUSH1 0xA0 SHL SUB SWAP3 DUP4 AND PUSH1 0x20 SWAP2 DUP3 MUL SWAP3 SWAP1 SWAP3 ADD ADD MSTORE PUSH1 0x6 SLOAD PUSH2 0x2CAE SWAP2 AND ADDRESS DUP7 PUSH2 0x1B8A JUMP JUMPDEST PUSH1 0x6 PUSH0 SWAP1 SLOAD SWAP1 PUSH2 0x100 EXP SWAP1 DIV PUSH1 0x1 PUSH1 0x1 PUSH1 0xA0 SHL SUB AND PUSH1 0x1 PUSH1 0x1 PUSH1 0xA0 SHL SUB AND PUSH4 0xFFF6CAE9 PUSH1 0x40 MLOAD DUP2 PUSH4 0xFFFFFFFF AND PUSH1 0xE0 SHL DUP2 MSTORE PUSH1 0x4 ADD PUSH0 PUSH1 0x40 MLOAD DUP1 DUP4 SUB DUP2 PUSH0 DUP8 DUP1 EXTCODESIZE ISZERO DUP1 ISZERO PUSH2 0x2CFA JUMPI PUSH0 PUSH0 REVERT JUMPDEST POP GAS CALL ISZERO DUP1 ISZERO PUSH2 0x2D0C JUMPI RETURNDATASIZE PUSH0 PUSH0 RETURNDATACOPY RETURNDATASIZE PUSH0 REVERT JUMPDEST POP POP POP POP PUSH2 0x2D23 ADDRESS PUSH1 0x80 MLOAD DUP7 PUSH2 0x3262 PUSH1 0x20 SHL PUSH1 0x20 SHR JUMP JUMPDEST PUSH1 0x80 MLOAD PUSH1 0x11 SLOAD PUSH1 0x40 MLOAD PUSH4 0x5C11D795 PUSH1 0xE0 SHL DUP2 MSTORE PUSH1 0x1 PUSH1 0x1 PUSH1 0xA0 SHL SUB SWAP3 DUP4 AND SWAP3 PUSH4 0x5C11D795 SWAP3 PUSH2 0x2D5F SWAP3 DUP8 SWAP3 PUSH0 SWAP3 DUP9 SWAP3 SWAP2 AND SWAP1 TIMESTAMP SWAP1 PUSH1 0x4 ADD PUSH2 0x392A JUMP JUMPDEST PUSH0 PUSH1 0x40 MLOAD DUP1 DUP4 SUB DUP2 PUSH0 DUP8 DUP1 EXTCODESIZE ISZERO DUP1 ISZERO PUSH2 0x2D76 JUMPI PUSH0 PUSH0 REVERT JUMPDEST POP GAS CALL ISZERO DUP1 ISZERO PUSH2 0x2D88 JUMPI RETURNDATASIZE PUSH0 PUSH0 RETURNDATACOPY RETURNDATASIZE PUSH0 REVERT JUMPDEST POP POP PUSH1 0xB SLOAD PUSH1 0x11 SLOAD PUSH1 0x40 MLOAD PUSH4 0x70A08231 PUSH1 0xE0 SHL DUP2 MSTORE PUSH1 0x1 PUSH1 0x1 PUSH1 0xA0 SHL SUB SWAP2 DUP3 AND PUSH1 0x4 DUP3 ADD MSTORE PUSH0 SWAP5 POP SWAP2 AND SWAP2 POP PUSH4 0x70A08231 SWAP1 PUSH1 0x24 ADD PUSH1 0x20 PUSH1 0x40 MLOAD DUP1 DUP4 SUB DUP2 DUP7 GAS STATICCALL ISZERO DUP1 ISZERO PUSH2 0x2DD8 JUMPI RETURNDATASIZE PUSH0 PUSH0 RETURNDATACOPY RETURNDATASIZE PUSH0 REVERT JUMPDEST POP POP POP POP PUSH1 0x40 MLOAD RETURNDATASIZE PUSH1 0x1F NOT PUSH1 0x1F DUP3 ADD AND DUP3 ADD DUP1 PUSH1 0x40 MSTORE POP DUP2 ADD SWAP1 PUSH2 0x2DFC SWAP2 SWAP1 PUSH2 0x38D0 JUMP JUMPDEST PUSH1 0x11 SLOAD PUSH1 0xB SLOAD PUSH1 0x40 MLOAD PUSH4 0x92DFDB3 PUSH1 0xE1 SHL DUP2 MSTORE PUSH1 0x1 PUSH1 0x1 PUSH1 0xA0 SHL SUB SWAP2 DUP3 AND PUSH1 0x4 DUP3 ADD MSTORE ADDRESS PUSH1 0x24 DUP3 ADD MSTORE PUSH1 0x44 DUP2 ADD DUP5 SWAP1 MSTORE SWAP3 SWAP4 POP AND SWAP1 PUSH4 0x125BFB66 SWAP1 PUSH1 0x64 ADD PUSH0 PUSH1 0x40 MLOAD DUP1 DUP4 SUB DUP2 PUSH0 DUP8 DUP1 EXTCODESIZE ISZERO DUP1 ISZERO PUSH2 0x2E51 JUMPI PUSH0 PUSH0 REVERT JUMPDEST POP GAS CALL ISZERO DUP1 ISZERO PUSH2 0x2E63 JUMPI RETURNDATASIZE PUSH0 PUSH0 RETURNDATACOPY RETURNDATASIZE PUSH0 REVERT JUMPDEST POP POP PUSH1 0xB SLOAD PUSH1 0x80 MLOAD PUSH1 0x40 MLOAD PUSH4 0x95EA7B3 PUSH1 0xE0 SHL DUP2 MSTORE PUSH1 0x1 PUSH1 0x1 PUSH1 0xA0 SHL SUB SWAP2 DUP3 AND PUSH1 0x4 DUP3 ADD MSTORE PUSH1 0x24 DUP2 ADD DUP7 SWAP1 MSTORE SWAP2 AND SWAP3 POP PUSH4 0x95EA7B3 SWAP2 POP PUSH1 0x44 ADD PUSH1 0x20 PUSH1 0x40 MLOAD DUP1 DUP4 SUB DUP2 PUSH0 DUP8 GAS CALL ISZERO DUP1 ISZERO PUSH2 0x2EB9 JUMPI RETURNDATASIZE PUSH0 PUSH0 RETURNDATACOPY RETURNDATASIZE PUSH0 REVERT JUMPDEST POP POP POP POP PUSH1 0x40 MLOAD RETURNDATASIZE PUSH1 0x1F NOT PUSH1 0x1F DUP3 ADD AND DUP3 ADD DUP1 PUSH1 0x40 MSTORE POP DUP2 ADD SWAP1 PUSH2 0x2EDD SWAP2 SWAP1 PUSH2 0x37E9 JUMP JUMPDEST POP PUSH1 0x80 MLOAD PUSH1 0xB SLOAD PUSH1 0x40 MLOAD PUSH3 0xE8E337 PUSH1 0xE8 SHL DUP2 MSTORE PUSH1 0x1 PUSH1 0x1 PUSH1 0xA0 SHL SUB SWAP2 DUP3 AND PUSH1 0x4 DUP3 ADD MSTORE ADDRESS PUSH1 0x24 DUP3 ADD DUP2 SWAP1 MSTORE PUSH1 0x44 DUP3 ADD DUP6 SWAP1 MSTORE PUSH1 0x64 DUP3 ADD DUP8 SWAP1 MSTORE PUSH0 PUSH1 0x84 DUP4 ADD DUP2 SWAP1 MSTORE PUSH1 0xA4 DUP4 ADD MSTORE PUSH1 0xC4 DUP3 ADD MSTORE TIMESTAMP PUSH1 0xE4 DUP3 ADD MSTORE SWAP2 AND SWAP1 PUSH4 0xE8E33700 SWAP1 PUSH2 0x104 ADD PUSH1 0x60 PUSH1 0x40 MLOAD DUP1 DUP4 SUB DUP2 PUSH0 DUP8 GAS CALL ISZERO DUP1 ISZERO PUSH2 0x2F57 JUMPI RETURNDATASIZE PUSH0 PUSH0 RETURNDATACOPY RETURNDATASIZE PUSH0 REVERT JUMPDEST POP POP POP POP PUSH1 0x40 MLOAD RETURNDATASIZE PUSH1 0x1F NOT PUSH1 0x1F DUP3 ADD AND DUP3 ADD DUP1 PUSH1 0x40 MSTORE POP DUP2 ADD SWAP1 PUSH2 0x2F7B SWAP2 SWAP1 PUSH2 0x3A80 JUMP JUMPDEST SWAP8 SWAP7 POP POP POP POP POP POP POP JUMP JUMPDEST PUSH1 0x1 PUSH1 0x1 PUSH1 0xA0 SHL SUB DUP1 DUP4 AND PUSH0 SWAP1 DUP2 MSTORE PUSH1 0xA PUSH1 0x20 SWAP1 DUP2 MSTORE PUSH1 0x40 DUP1 DUP4 KECCAK256 DUP2 MLOAD PUSH2 0x160 DUP2 ADD DUP4 MSTORE DUP2 SLOAD SWAP1 SWAP6 AND DUP1 DUP7 MSTORE PUSH1 0x1 DUP1 DUP4 ADD SLOAD SWAP5 DUP8 ADD SWAP5 SWAP1 SWAP5 MSTORE PUSH1 0x2 DUP3 ADD SLOAD SWAP3 DUP7 ADD SWAP3 SWAP1 SWAP3 MSTORE PUSH1 0x3 DUP2 ADD SLOAD PUSH1 0x60 DUP7 ADD MSTORE PUSH1 0x4 DUP2 ADD SLOAD PUSH1 0x80 DUP7 ADD MSTORE PUSH1 0x5 DUP2 ADD SLOAD PUSH1 0xA0 DUP7 ADD MSTORE PUSH1 0x6 DUP2 ADD SLOAD PUSH1 0xC0 DUP7 ADD MSTORE PUSH1 0x7 DUP2 ADD SLOAD PUSH1 0xE0 DUP7 ADD MSTORE PUSH1 0x8 DUP2 ADD SLOAD PUSH2 0x100 DUP1 DUP8 ADD SWAP2 SWAP1 SWAP2 MSTORE PUSH1 0x9 SWAP1 SWAP2 ADD SLOAD PUSH1 0xFF DUP1 DUP3 AND ISZERO ISZERO PUSH2 0x120 DUP9 ADD MSTORE SWAP2 SWAP1 DIV AND ISZERO ISZERO PUSH2 0x140 DUP6 ADD MSTORE SWAP2 SWAP3 SWAP2 SWAP1 PUSH1 0x14 JUMPDEST PUSH1 0x1 PUSH1 0x1 PUSH1 0xA0 SHL SUB DUP4 AND ISZERO DUP1 ISZERO SWAP1 PUSH2 0x304A JUMPI POP DUP1 DUP3 GT ISZERO JUMPDEST ISZERO PUSH2 0x314E JUMPI PUSH0 PUSH2 0x3059 DUP4 PUSH2 0x32D2 JUMP JUMPDEST SWAP1 POP PUSH0 PUSH1 0x64 PUSH2 0x3068 DUP4 DUP11 PUSH2 0x3798 JUMP JUMPDEST PUSH2 0x3072 SWAP2 SWAP1 PUSH2 0x37C3 JUMP JUMPDEST SWAP1 POP DUP1 ISZERO PUSH2 0x311D JUMPI PUSH1 0x1 PUSH1 0x1 PUSH1 0xA0 SHL SUB DUP6 AND PUSH0 SWAP1 DUP2 MSTORE PUSH1 0xA PUSH1 0x20 MSTORE PUSH1 0x40 SWAP1 KECCAK256 PUSH1 0x7 ADD SLOAD DUP5 GT PUSH2 0x311D JUMPI PUSH1 0x6 SLOAD PUSH1 0x40 MLOAD PUSH4 0xA9059CBB PUSH1 0xE0 SHL DUP2 MSTORE PUSH1 0x1 PUSH1 0x1 PUSH1 0xA0 SHL SUB DUP8 DUP2 AND PUSH1 0x4 DUP4 ADD MSTORE PUSH1 0x24 DUP3 ADD DUP5 SWAP1 MSTORE SWAP1 SWAP2 AND SWAP1 PUSH4 0xA9059CBB SWAP1 PUSH1 0x44 ADD PUSH1 0x20 PUSH1 0x40 MLOAD DUP1 DUP4 SUB DUP2 PUSH0 DUP8 GAS CALL ISZERO DUP1 ISZERO PUSH2 0x30EB JUMPI RETURNDATASIZE PUSH0 PUSH0 RETURNDATACOPY RETURNDATASIZE PUSH0 REVERT JUMPDEST POP POP POP POP PUSH1 0x40 MLOAD RETURNDATASIZE PUSH1 0x1F NOT PUSH1 0x1F DUP3 ADD AND DUP3 ADD DUP1 PUSH1 0x40 MSTORE POP DUP2 ADD SWAP1 PUSH2 0x310F SWAP2 SWAP1 PUSH2 0x37E9 JUMP JUMPDEST POP PUSH2 0x311A DUP2 DUP9 PUSH2 0x3694 JUMP JUMPDEST SWAP7 POP JUMPDEST PUSH1 0x1 PUSH1 0x1 PUSH1 0xA0 SHL SUB SWAP5 DUP6 AND PUSH0 SWAP1 DUP2 MSTORE PUSH1 0xA PUSH1 0x20 MSTORE PUSH1 0x40 SWAP1 KECCAK256 SLOAD SWAP1 SWAP5 AND SWAP4 DUP4 PUSH2 0x3144 DUP2 PUSH2 0x3AAB JUMP JUMPDEST SWAP5 POP POP POP POP PUSH2 0x3032 JUMP JUMPDEST POP POP POP POP SWAP3 SWAP2 POP POP JUMP JUMPDEST PUSH0 DUP1 PUSH2 0x316C PUSH2 0x3167 DUP5 DUP7 PUSH2 0x3798 JUMP JUMPDEST PUSH2 0x3359 JUMP JUMPDEST SWAP1 POP PUSH0 PUSH2 0x31E6 PUSH1 0x6 PUSH0 SWAP1 SLOAD SWAP1 PUSH2 0x100 EXP SWAP1 DIV PUSH1 0x1 PUSH1 0x1 PUSH1 0xA0 SHL SUB AND PUSH1 0x1 PUSH1 0x1 PUSH1 0xA0 SHL SUB AND PUSH4 0x7464FC3D PUSH1 0x40 MLOAD DUP2 PUSH4 0xFFFFFFFF AND PUSH1 0xE0 SHL DUP2 MSTORE PUSH1 0x4 ADD PUSH1 0x20 PUSH1 0x40 MLOAD DUP1 DUP4 SUB DUP2 DUP7 GAS STATICCALL ISZERO DUP1 ISZERO PUSH2 0x31C2 JUMPI RETURNDATASIZE PUSH0 PUSH0 RETURNDATACOPY RETURNDATASIZE PUSH0 REVERT JUMPDEST POP POP POP POP PUSH1 0x40 MLOAD RETURNDATASIZE PUSH1 0x1F NOT PUSH1 0x1F DUP3 ADD AND DUP3 ADD DUP1 PUSH1 0x40 MSTORE POP DUP2 ADD SWAP1 PUSH2 0x3167 SWAP2 SWAP1 PUSH2 0x38D0 JUMP JUMPDEST SWAP1 POP DUP1 DUP3 GT ISZERO PUSH2 0x3244 JUMPI PUSH0 PUSH2 0x31FB DUP3 DUP5 PUSH2 0x37D6 JUMP JUMPDEST PUSH2 0x3205 SWAP1 DUP9 PUSH2 0x3798 JUMP JUMPDEST PUSH2 0x3210 SWAP1 PUSH1 0x8 PUSH2 0x3798 JUMP JUMPDEST SWAP1 POP PUSH0 PUSH2 0x321E DUP4 PUSH1 0x8 PUSH2 0x3798 JUMP JUMPDEST PUSH2 0x3229 DUP6 PUSH1 0x11 PUSH2 0x3798 JUMP JUMPDEST PUSH2 0x3233 SWAP2 SWAP1 PUSH2 0x3694 JUMP JUMPDEST SWAP1 POP PUSH2 0x323F DUP2 DUP4 PUSH2 0x37C3 JUMP JUMPDEST SWAP5 POP POP POP JUMPDEST POP POP SWAP4 SWAP3 POP POP POP JUMP JUMPDEST PUSH0 DUP2 DUP4 LT PUSH2 0x325B JUMPI DUP2 PUSH2 0x11F7 JUMP JUMPDEST POP SWAP1 SWAP2 SWAP1 POP JUMP JUMPDEST PUSH2 0x5D1 DUP4 DUP4 DUP4 PUSH1 0x1 PUSH2 0x33C6 JUMP JUMPDEST PUSH1 0x40 DUP1 MLOAD PUSH0 DUP1 DUP3 MSTORE PUSH1 0x20 DUP3 ADD SWAP1 SWAP3 MSTORE PUSH1 0x1 PUSH1 0x1 PUSH1 0xA0 SHL SUB DUP5 AND SWAP1 DUP4 SWAP1 PUSH1 0x40 MLOAD PUSH2 0x3298 SWAP2 SWAP1 PUSH2 0x3AC3 JUMP JUMPDEST PUSH0 PUSH1 0x40 MLOAD DUP1 DUP4 SUB DUP2 DUP6 DUP8 GAS CALL SWAP3 POP POP POP RETURNDATASIZE DUP1 PUSH0 DUP2 EQ PUSH2 0xB46 JUMPI PUSH1 0x40 MLOAD SWAP2 POP PUSH1 0x1F NOT PUSH1 0x3F RETURNDATASIZE ADD AND DUP3 ADD PUSH1 0x40 MSTORE RETURNDATASIZE DUP3 MSTORE RETURNDATASIZE PUSH0 PUSH1 0x20 DUP5 ADD RETURNDATACOPY PUSH2 0xB46 JUMP JUMPDEST PUSH0 DUP2 PUSH1 0x1 SUB PUSH2 0x32E3 JUMPI POP PUSH1 0xA SWAP2 SWAP1 POP JUMP JUMPDEST DUP2 PUSH1 0x2 SUB PUSH2 0x32F3 JUMPI POP PUSH1 0x5 SWAP2 SWAP1 POP JUMP JUMPDEST DUP2 PUSH1 0x3 SUB PUSH2 0x3303 JUMPI POP PUSH1 0x3 SWAP2 SWAP1 POP JUMP JUMPDEST PUSH1 0x4 DUP3 LT ISZERO DUP1 ISZERO PUSH2 0x3315 JUMPI POP PUSH1 0x11 DUP3 GT ISZERO JUMPDEST ISZERO PUSH2 0x3322 JUMPI POP PUSH1 0x1 SWAP2 SWAP1 POP JUMP JUMPDEST DUP2 PUSH1 0x12 SUB PUSH2 0x3332 JUMPI POP PUSH1 0x3 SWAP2 SWAP1 POP JUMP JUMPDEST DUP2 PUSH1 0x13 SUB PUSH2 0x3342 JUMPI POP PUSH1 0x5 SWAP2 SWAP1 POP JUMP JUMPDEST DUP2 PUSH1 0x14 SUB PUSH2 0x3352 JUMPI POP PUSH1 0xA SWAP2 SWAP1 POP JUMP JUMPDEST POP PUSH0 SWAP2 SWAP1 POP JUMP JUMPDEST PUSH0 PUSH1 0x3 DUP3 GT ISZERO PUSH2 0x33B8 JUMPI POP DUP1 PUSH0 PUSH2 0x3371 PUSH1 0x2 DUP4 PUSH2 0x37C3 JUMP JUMPDEST PUSH2 0x337C SWAP1 PUSH1 0x1 PUSH2 0x3694 JUMP JUMPDEST SWAP1 POP JUMPDEST DUP2 DUP2 LT ISZERO PUSH2 0x33B2 JUMPI SWAP1 POP DUP1 PUSH1 0x2 DUP2 PUSH2 0x3397 DUP2 DUP7 PUSH2 0x37C3 JUMP JUMPDEST PUSH2 0x33A1 SWAP2 SWAP1 PUSH2 0x3694 JUMP JUMPDEST PUSH2 0x33AB SWAP2 SWAP1 PUSH2 0x37C3 JUMP JUMPDEST SWAP1 POP PUSH2 0x337F JUMP JUMPDEST POP SWAP2 SWAP1 POP JUMP JUMPDEST DUP2 ISZERO PUSH2 0x240A JUMPI POP PUSH1 0x1 SWAP2 SWAP1 POP JUMP JUMPDEST PUSH1 0x1 PUSH1 0x1 PUSH1 0xA0 SHL SUB DUP5 AND PUSH2 0x33EF JUMPI PUSH1 0x40 MLOAD PUSH4 0xE602DF05 PUSH1 0xE0 SHL DUP2 MSTORE PUSH0 PUSH1 0x4 DUP3 ADD MSTORE PUSH1 0x24 ADD PUSH2 0xF2 JUMP JUMPDEST PUSH1 0x1 PUSH1 0x1 PUSH1 0xA0 SHL SUB DUP4 AND PUSH2 0x3418 JUMPI PUSH1 0x40 MLOAD PUSH4 0x4A1406B1 PUSH1 0xE1 SHL DUP2 MSTORE PUSH0 PUSH1 0x4 DUP3 ADD MSTORE PUSH1 0x24 ADD PUSH2 0xF2 JUMP JUMPDEST PUSH1 0x1 PUSH1 0x1 PUSH1 0xA0 SHL SUB DUP1 DUP6 AND PUSH0 SWAP1 DUP2 MSTORE PUSH1 0x1 PUSH1 0x20 SWAP1 DUP2 MSTORE PUSH1 0x40 DUP1 DUP4 KECCAK256 SWAP4 DUP8 AND DUP4 MSTORE SWAP3 SWAP1 MSTORE KECCAK256 DUP3 SWAP1 SSTORE DUP1 ISZERO PUSH2 0x7C9 JUMPI DUP3 PUSH1 0x1 PUSH1 0x1 PUSH1 0xA0 SHL SUB AND DUP5 PUSH1 0x1 PUSH1 0x1 PUSH1 0xA0 SHL SUB AND PUSH32 0x8C5BE1E5EBEC7D5BD14F71427D1E84F3DD0314C0F7B2291E5B200AC8C7C3B925 DUP5 PUSH1 0x40 MLOAD PUSH2 0x348A SWAP2 DUP2 MSTORE PUSH1 0x20 ADD SWAP1 JUMP JUMPDEST PUSH1 0x40 MLOAD DUP1 SWAP2 SUB SWAP1 LOG3 POP POP POP POP JUMP JUMPDEST PUSH2 0x505 DUP1 PUSH2 0x88DE DUP4 CODECOPY ADD SWAP1 JUMP JUMPDEST PUSH1 0x40 MLOAD DUP1 PUSH1 0xC0 ADD PUSH1 0x40 MSTORE DUP1 PUSH1 0x6 SWAP1 PUSH1 0x20 DUP3 MUL DUP1 CALLDATASIZE DUP4 CALLDATACOPY POP SWAP2 SWAP3 SWAP2 POP POP JUMP JUMPDEST DUP1 MLOAD PUSH1 0x1 PUSH1 0x1 PUSH1 0xA0 SHL SUB DUP2 AND DUP2 EQ PUSH2 0x240A JUMPI PUSH0 PUSH0 REVERT JUMPDEST PUSH0 PUSH0 PUSH0 PUSH1 0x60 DUP5 DUP7 SUB SLT ISZERO PUSH2 0x34EB JUMPI PUSH0 PUSH0 REVERT JUMPDEST PUSH2 0x34F4 DUP5 PUSH2 0x34C3 JUMP JUMPDEST SWAP3 POP PUSH2 0x3502 PUSH1 0x20 DUP6 ADD PUSH2 0x34C3 JUMP JUMPDEST SWAP2 POP PUSH2 0x3510 PUSH1 0x40 DUP6 ADD PUSH2 0x34C3 JUMP JUMPDEST SWAP1 POP SWAP3 POP SWAP3 POP SWAP3 JUMP JUMPDEST PUSH4 0x4E487B71 PUSH1 0xE0 SHL PUSH0 MSTORE PUSH1 0x41 PUSH1 0x4 MSTORE PUSH1 0x24 PUSH0 REVERT JUMPDEST PUSH1 0x1 DUP2 DUP2 SHR SWAP1 DUP3 AND DUP1 PUSH2 0x3541 JUMPI PUSH1 0x7F DUP3 AND SWAP2 POP JUMPDEST PUSH1 0x20 DUP3 LT DUP2 SUB PUSH2 0x33B2 JUMPI PUSH4 0x4E487B71 PUSH1 0xE0 SHL PUSH0 MSTORE PUSH1 0x22 PUSH1 0x4 MSTORE PUSH1 0x24 PUSH0 REVERT JUMPDEST PUSH1 0x1F DUP3 GT ISZERO PUSH2 0x5D1 JUMPI DUP3 DUP3 GT ISZERO PUSH2 0x5D1 JUMPI DUP1 PUSH0 MSTORE PUSH1 0x20 PUSH0 KECCAK256 PUSH1 0x1F DUP5 ADD PUSH1 0x5 SHR PUSH1 0x20 DUP6 LT ISZERO PUSH2 0x358A JUMPI POP PUSH0 JUMPDEST SWAP1 DUP2 ADD SWAP1 PUSH1 0x1F DUP5 ADD PUSH1 0x5 SHR SUB PUSH0 JUMPDEST DUP2 DUP2 LT ISZERO PUSH2 0xB46 JUMPI PUSH0 DUP4 DUP3 ADD SSTORE PUSH1 0x1 ADD PUSH2 0x3598 JUMP JUMPDEST DUP2 MLOAD PUSH1 0x1 PUSH1 0x1 PUSH1 0x40 SHL SUB DUP2 GT ISZERO PUSH2 0x35C6 JUMPI PUSH2 0x35C6 PUSH2 0x3519 JUMP JUMPDEST PUSH2 0x35DA DUP2 PUSH2 0x35D4 DUP5 SLOAD PUSH2 0x352D JUMP JUMPDEST DUP5 PUSH2 0x355F JUMP JUMPDEST PUSH1 0x20 PUSH1 0x1F DUP3 GT PUSH1 0x1 DUP2 EQ PUSH2 0x360C JUMPI PUSH0 DUP4 ISZERO PUSH2 0x35F5 JUMPI POP DUP5 DUP3 ADD MLOAD JUMPDEST PUSH0 NOT PUSH1 0x3 DUP6 SWAP1 SHL SHR NOT AND PUSH1 0x1 DUP5 SWAP1 SHL OR DUP5 SSTORE PUSH2 0x99B JUMP JUMPDEST PUSH0 DUP5 DUP2 MSTORE PUSH1 0x20 DUP2 KECCAK256 PUSH1 0x1F NOT DUP6 AND SWAP2 JUMPDEST DUP3 DUP2 LT ISZERO PUSH2 0x363B JUMPI DUP8 DUP6 ADD MLOAD DUP3 SSTORE PUSH1 0x20 SWAP5 DUP6 ADD SWAP5 PUSH1 0x1 SWAP1 SWAP3 ADD SWAP2 ADD PUSH2 0x361B JUMP JUMPDEST POP DUP5 DUP3 LT ISZERO PUSH2 0x3658 JUMPI DUP7 DUP5 ADD MLOAD PUSH0 NOT PUSH1 0x3 DUP8 SWAP1 SHL PUSH1 0xF8 AND SHR NOT AND DUP2 SSTORE JUMPDEST POP POP POP POP PUSH1 0x1 SWAP1 DUP2 SHL ADD SWAP1 SSTORE POP JUMP JUMPDEST PUSH0 PUSH1 0x20 DUP3 DUP5 SUB SLT ISZERO PUSH2 0x3677 JUMPI PUSH0 PUSH0 REVERT JUMPDEST PUSH2 0x11F7 DUP3 PUSH2 0x34C3 JUMP JUMPDEST PUSH4 0x4E487B71 PUSH1 0xE0 SHL PUSH0 MSTORE PUSH1 0x11 PUSH1 0x4 MSTORE PUSH1 0x24 PUSH0 REVERT JUMPDEST DUP1 DUP3 ADD DUP1 DUP3 GT ISZERO PUSH2 0x11DD JUMPI PUSH2 0x11DD PUSH2 0x3680 JUMP JUMPDEST PUSH1 0x1 DUP2 JUMPDEST PUSH1 0x1 DUP5 GT ISZERO PUSH2 0x36E2 JUMPI DUP1 DUP6 DIV DUP2 GT ISZERO PUSH2 0x36C6 JUMPI PUSH2 0x36C6 PUSH2 0x3680 JUMP JUMPDEST PUSH1 0x1 DUP5 AND ISZERO PUSH2 0x36D4 JUMPI SWAP1 DUP2 MUL SWAP1 JUMPDEST PUSH1 0x1 SWAP4 SWAP1 SWAP4 SHR SWAP3 DUP1 MUL PUSH2 0x36AB JUMP JUMPDEST SWAP4 POP SWAP4 SWAP2 POP POP JUMP JUMPDEST PUSH0 DUP3 PUSH2 0x36F8 JUMPI POP PUSH1 0x1 PUSH2 0x11DD JUMP JUMPDEST DUP2 PUSH2 0x3704 JUMPI POP PUSH0 PUSH2 0x11DD JUMP JUMPDEST DUP2 PUSH1 0x1 DUP2 EQ PUSH2 0x371A JUMPI PUSH1 0x2 DUP2 EQ PUSH2 0x3724 JUMPI PUSH2 0x3740 JUMP JUMPDEST PUSH1 0x1 SWAP2 POP POP PUSH2 0x11DD JUMP JUMPDEST PUSH1 0xFF DUP5 GT ISZERO PUSH2 0x3735 JUMPI PUSH2 0x3735 PUSH2 0x3680 JUMP JUMPDEST POP POP PUSH1 0x1 DUP3 SHL PUSH2 0x11DD JUMP JUMPDEST POP PUSH1 0x20 DUP4 LT PUSH2 0x133 DUP4 LT AND PUSH1 0x4E DUP5 LT PUSH1 0xB DUP5 LT AND OR ISZERO PUSH2 0x3763 JUMPI POP DUP2 DUP2 EXP PUSH2 0x11DD JUMP JUMPDEST PUSH2 0x376F PUSH0 NOT DUP5 DUP5 PUSH2 0x36A7 JUMP JUMPDEST DUP1 PUSH0 NOT DIV DUP3 GT ISZERO PUSH2 0x3782 JUMPI PUSH2 0x3782 PUSH2 0x3680 JUMP JUMPDEST MUL SWAP4 SWAP3 POP POP POP JUMP JUMPDEST PUSH0 PUSH2 0x11F7 PUSH1 0xFF DUP5 AND DUP4 PUSH2 0x36EA JUMP JUMPDEST DUP1 DUP3 MUL DUP2 ISZERO DUP3 DUP3 DIV DUP5 EQ OR PUSH2 0x11DD JUMPI PUSH2 0x11DD PUSH2 0x3680 JUMP JUMPDEST PUSH4 0x4E487B71 PUSH1 0xE0 SHL PUSH0 MSTORE PUSH1 0x12 PUSH1 0x4 MSTORE PUSH1 0x24 PUSH0 REVERT JUMPDEST PUSH0 DUP3 PUSH2 0x37D1 JUMPI PUSH2 0x37D1 PUSH2 0x37AF JUMP JUMPDEST POP DIV SWAP1 JUMP JUMPDEST DUP2 DUP2 SUB DUP2 DUP2 GT ISZERO PUSH2 0x11DD JUMPI PUSH2 0x11DD PUSH2 0x3680 JUMP JUMPDEST PUSH0 PUSH1 0x20 DUP3 DUP5 SUB SLT ISZERO PUSH2 0x37F9 JUMPI PUSH0 PUSH0 REVERT JUMPDEST DUP2 MLOAD DUP1 ISZERO ISZERO DUP2 EQ PUSH2 0x11F7 JUMPI PUSH0 PUSH0 REVERT JUMPDEST DUP1 MLOAD PUSH1 0x1 PUSH1 0x1 PUSH1 0x70 SHL SUB DUP2 AND DUP2 EQ PUSH2 0x240A JUMPI PUSH0 PUSH0 REVERT JUMPDEST PUSH0 PUSH0 PUSH0 PUSH1 0x60 DUP5 DUP7 SUB SLT ISZERO PUSH2 0x3830 JUMPI PUSH0 PUSH0 REVERT JUMPDEST PUSH2 0x3839 DUP5 PUSH2 0x3808 JUMP JUMPDEST SWAP3 POP PUSH2 0x3847 PUSH1 0x20 DUP6 ADD PUSH2 0x3808 JUMP JUMPDEST SWAP2 POP PUSH1 0x40 DUP5 ADD MLOAD PUSH4 0xFFFFFFFF DUP2 AND DUP2 EQ PUSH2 0x385F JUMPI PUSH0 PUSH0 REVERT JUMPDEST DUP1 SWAP2 POP POP SWAP3 POP SWAP3 POP SWAP3 JUMP JUMPDEST PUSH0 PUSH1 0xFF DUP3 AND PUSH1 0xFF DUP2 SUB PUSH2 0x387F JUMPI PUSH2 0x387F PUSH2 0x3680 JUMP JUMPDEST PUSH1 0x1 ADD SWAP3 SWAP2 POP POP JUMP JUMPDEST PUSH0 DUP3 PUSH2 0x3896 JUMPI PUSH2 0x3896 PUSH2 0x37AF JUMP JUMPDEST POP MOD SWAP1 JUMP JUMPDEST PUSH4 0x4E487B71 PUSH1 0xE0 SHL PUSH0 MSTORE PUSH1 0x32 PUSH1 0x4 MSTORE PUSH1 0x24 PUSH0 REVERT JUMPDEST PUSH0 PUSH1 0xFF DUP4 AND DUP1 PUSH2 0x38C1 JUMPI PUSH2 0x38C1 PUSH2 0x37AF JUMP JUMPDEST DUP1 PUSH1 0xFF DUP5 AND MOD SWAP2 POP POP SWAP3 SWAP2 POP POP JUMP JUMPDEST PUSH0 PUSH1 0x20 DUP3 DUP5 SUB SLT ISZERO PUSH2 0x38E0 JUMPI PUSH0 PUSH0 REVERT JUMPDEST POP MLOAD SWAP2 SWAP1 POP JUMP JUMPDEST PUSH0 DUP2 MLOAD DUP1 DUP5 MSTORE PUSH1 0x20 DUP5 ADD SWAP4 POP PUSH1 0x20 DUP4 ADD PUSH0 JUMPDEST DUP3 DUP2 LT ISZERO PUSH2 0x3920 JUMPI DUP2 MLOAD PUSH1 0x1 PUSH1 0x1 PUSH1 0xA0 SHL SUB AND DUP7 MSTORE PUSH1 0x20 SWAP6 DUP7 ADD SWAP6 SWAP1 SWAP2 ADD SWAP1 PUSH1 0x1 ADD PUSH2 0x38F9 JUMP JUMPDEST POP SWAP4 SWAP5 SWAP4 POP POP POP POP JUMP JUMPDEST DUP6 DUP2 MSTORE DUP5 PUSH1 0x20 DUP3 ADD MSTORE PUSH1 0xA0 PUSH1 0x40 DUP3 ADD MSTORE PUSH0 PUSH2 0x3948 PUSH1 0xA0 DUP4 ADD DUP7 PUSH2 0x38E7 JUMP JUMPDEST PUSH1 0x1 PUSH1 0x1 PUSH1 0xA0 SHL SUB SWAP5 SWAP1 SWAP5 AND PUSH1 0x60 DUP4 ADD MSTORE POP PUSH1 0x80 ADD MSTORE SWAP4 SWAP3 POP POP POP JUMP JUMPDEST DUP5 DUP2 MSTORE PUSH1 0x80 PUSH1 0x20 DUP3 ADD MSTORE PUSH0 PUSH2 0x397D PUSH1 0x80 DUP4 ADD DUP7 PUSH2 0x38E7 JUMP JUMPDEST PUSH1 0x1 PUSH1 0x1 PUSH1 0xA0 SHL SUB SWAP5 SWAP1 SWAP5 AND PUSH1 0x40 DUP4 ADD MSTORE POP PUSH1 0x60 ADD MSTORE SWAP3 SWAP2 POP POP JUMP JUMPDEST DUP3 DUP2 MSTORE PUSH1 0x40 PUSH1 0x20 DUP3 ADD MSTORE PUSH0 PUSH2 0x39B1 PUSH1 0x40 DUP4 ADD DUP5 PUSH2 0x38E7 JUMP JUMPDEST SWAP5 SWAP4 POP POP POP POP JUMP JUMPDEST PUSH0 PUSH1 0x20 DUP3 DUP5 SUB SLT ISZERO PUSH2 0x39C9 JUMPI PUSH0 PUSH0 REVERT JUMPDEST DUP2 MLOAD PUSH1 0x1 PUSH1 0x1 PUSH1 0x40 SHL SUB DUP2 GT ISZERO PUSH2 0x39DE JUMPI PUSH0 PUSH0 REVERT JUMPDEST DUP3 ADD PUSH1 0x1F DUP2 ADD DUP5 SGT PUSH2 0x39EE JUMPI PUSH0 PUSH0 REVERT JUMPDEST DUP1 MLOAD PUSH1 0x1 PUSH1 0x1 PUSH1 0x40 SHL SUB DUP2 GT ISZERO PUSH2 0x3A07 JUMPI PUSH2 0x3A07 PUSH2 0x3519 JUMP JUMPDEST PUSH1 0x40 MLOAD PUSH1 0x5 DUP3 SWAP1 SHL SWAP1 PUSH1 0x3F DUP3 ADD PUSH1 0x1F NOT AND DUP2 ADD PUSH1 0x1 PUSH1 0x1 PUSH1 0x40 SHL SUB DUP2 GT DUP3 DUP3 LT OR ISZERO PUSH2 0x3A35 JUMPI PUSH2 0x3A35 PUSH2 0x3519 JUMP JUMPDEST PUSH1 0x40 MSTORE SWAP2 DUP3 MSTORE PUSH1 0x20 DUP2 DUP5 ADD DUP2 ADD SWAP3 SWAP1 DUP2 ADD DUP8 DUP5 GT ISZERO PUSH2 0x3A52 JUMPI PUSH0 PUSH0 REVERT JUMPDEST PUSH1 0x20 DUP6 ADD SWAP5 POP JUMPDEST DUP4 DUP6 LT ISZERO PUSH2 0x3A75 JUMPI DUP5 MLOAD DUP1 DUP3 MSTORE PUSH1 0x20 SWAP6 DUP7 ADD SWAP6 SWAP1 SWAP4 POP ADD PUSH2 0x3A59 JUMP JUMPDEST POP SWAP7 SWAP6 POP POP POP POP POP POP JUMP JUMPDEST PUSH0 PUSH0 PUSH0 PUSH1 0x60 DUP5 DUP7 SUB SLT ISZERO PUSH2 0x3A92 JUMPI PUSH0 PUSH0 REVERT JUMPDEST POP POP DUP2 MLOAD PUSH1 0x20 DUP4 ADD MLOAD PUSH1 0x40 SWAP1 SWAP4 ADD MLOAD SWAP1 SWAP5 SWAP3 SWAP4 POP SWAP2 SWAP1 POP JUMP JUMPDEST PUSH0 PUSH1 0x1 DUP3 ADD PUSH2 0x3ABC JUMPI PUSH2 0x3ABC PUSH2 0x3680 JUMP JUMPDEST POP PUSH1 0x1 ADD SWAP1 JUMP JUMPDEST PUSH0 DUP3 MLOAD DUP1 PUSH1 0x20 DUP6 ADD DUP5 MCOPY PUSH0 SWAP3 ADD SWAP2 DUP3 MSTORE POP SWAP2 SWAP1 POP JUMP JUMPDEST PUSH1 0x80 MLOAD PUSH2 0x4D99 PUSH2 0x3B45 PUSH0 CODECOPY PUSH0 DUP2 DUP2 PUSH2 0x85B ADD MSTORE DUP2 DUP2 PUSH2 0xEB6 ADD MSTORE DUP2 DUP2 PUSH2 0xF66 ADD MSTORE DUP2 DUP2 PUSH2 0xFC1 ADD MSTORE DUP2 DUP2 PUSH2 0x393C ADD MSTORE DUP2 DUP2 PUSH2 0x3B72 ADD MSTORE DUP2 DUP2 PUSH2 0x3C20 ADD MSTORE DUP2 DUP2 PUSH2 0x3D9C ADD MSTORE DUP2 DUP2 PUSH2 0x3F3A ADD MSTORE DUP2 DUP2 PUSH2 0x40DB ADD MSTORE DUP2 DUP2 PUSH2 0x411A ADD MSTORE DUP2 DUP2 PUSH2 0x428B ADD MSTORE PUSH2 0x4345 ADD MSTORE PUSH2 0x4D99 PUSH0 RETURN INVALID PUSH1 0x80 PUSH1 0x40 MSTORE PUSH1 0x4 CALLDATASIZE LT PUSH2 0x38A JUMPI PUSH0 CALLDATALOAD PUSH1 0xE0 SHR DUP1 PUSH4 0x715018A6 GT PUSH2 0x1D3 JUMPI DUP1 PUSH4 0xBF151CB8 GT PUSH2 0xFD JUMPI DUP1 PUSH4 0xDDBCB5FA GT PUSH2 0x9D JUMPI DUP1 PUSH4 0xEA0D5DCD GT PUSH2 0x6D JUMPI DUP1 PUSH4 0xEA0D5DCD EQ PUSH2 0xCBD JUMPI DUP1 PUSH4 0xF2FDE38B EQ PUSH2 0xDA0 JUMPI DUP1 PUSH4 0xF56E9C66 EQ PUSH2 0xDBF JUMPI DUP1 PUSH4 0xFD36E3C6 EQ PUSH2 0xDDE JUMPI PUSH0 PUSH0 REVERT JUMPDEST DUP1 PUSH4 0xDDBCB5FA EQ PUSH2 0xC4B JUMPI DUP1 PUSH4 0xE16F3C59 EQ PUSH2 0xC60 JUMPI DUP1 PUSH4 0xE82BEF29 EQ PUSH2 0xC7F JUMPI DUP1 PUSH4 0xE8E8FE04 EQ PUSH2 0xC9E JUMPI PUSH0 PUSH0 REVERT JUMPDEST DUP1 PUSH4 0xCCA3C5FF GT PUSH2 0xD8 JUMPI DUP1 PUSH4 0xCCA3C5FF EQ PUSH2 0xBB4 JUMPI DUP1 PUSH4 0xD1227343 EQ PUSH2 0xBC9 JUMPI DUP1 PUSH4 0xDD62ED3E EQ PUSH2 0xBE8 JUMPI DUP1 PUSH4 0xDD6C4398 EQ PUSH2 0xC2C JUMPI PUSH0 PUSH0 REVERT JUMPDEST DUP1 PUSH4 0xBF151CB8 EQ PUSH2 0xB65 JUMPI DUP1 PUSH4 0xC54E44EB EQ PUSH2 0xB79 JUMPI DUP1 PUSH4 0xC82C3CBF EQ PUSH2 0xBA0 JUMPI PUSH0 PUSH0 REVERT JUMPDEST DUP1 PUSH4 0x95D89B41 GT PUSH2 0x173 JUMPI DUP1 PUSH4 0xA87430BA GT PUSH2 0x143 JUMPI DUP1 PUSH4 0xA87430BA EQ PUSH2 0xA31 JUMPI DUP1 PUSH4 0xA9059CBB EQ PUSH2 0xB12 JUMPI DUP1 PUSH4 0xB4A2E463 EQ PUSH2 0xB31 JUMPI DUP1 PUSH4 0xBAD3EA6A EQ PUSH2 0xB46 JUMPI PUSH0 PUSH0 REVERT JUMPDEST DUP1 PUSH4 0x95D89B41 EQ PUSH2 0x9A5 JUMPI DUP1 PUSH4 0x9B19251A EQ PUSH2 0x9B9 JUMPI DUP1 PUSH4 0xA095E8F9 EQ PUSH2 0x9E7 JUMPI DUP1 PUSH4 0xA52EE3AF EQ PUSH2 0xA06 JUMPI PUSH0 PUSH0 REVERT JUMPDEST DUP1 PUSH4 0x7F054455 GT PUSH2 0x1AE JUMPI DUP1 PUSH4 0x7F054455 EQ PUSH2 0x940 JUMPI DUP1 PUSH4 0x8DA5CB5B EQ PUSH2 0x955 JUMPI DUP1 PUSH4 0x8DD95002 EQ PUSH2 0x972 JUMPI DUP1 PUSH4 0x94A28097 EQ PUSH2 0x991 JUMPI PUSH0 PUSH0 REVERT JUMPDEST DUP1 PUSH4 0x715018A6 EQ PUSH2 0x8FA JUMPI DUP1 PUSH4 0x78E97925 EQ PUSH2 0x90E JUMPI DUP1 PUSH4 0x7C659472 EQ PUSH2 0x923 JUMPI PUSH0 PUSH0 REVERT JUMPDEST DUP1 PUSH4 0x3D471D57 GT PUSH2 0x2B4 JUMPI DUP1 PUSH4 0x48E66C04 GT PUSH2 0x254 JUMPI DUP1 PUSH4 0x583E0568 GT PUSH2 0x224 JUMPI DUP1 PUSH4 0x583E0568 EQ PUSH2 0x84A JUMPI DUP1 PUSH4 0x5E2D0DF1 EQ PUSH2 0x87D JUMPI DUP1 PUSH4 0x6D476A77 EQ PUSH2 0x892 JUMPI DUP1 PUSH4 0x70A08231 EQ PUSH2 0x8C6 JUMPI PUSH0 PUSH0 REVERT JUMPDEST DUP1 PUSH4 0x48E66C04 EQ PUSH2 0x7D8 JUMPI DUP1 PUSH4 0x4BF28FD0 EQ PUSH2 0x7F7 JUMPI DUP1 PUSH4 0x53D6FD59 EQ PUSH2 0x816 JUMPI DUP1 PUSH4 0x54EF6AD5 EQ PUSH2 0x835 JUMPI PUSH0 PUSH0 REVERT JUMPDEST DUP1 PUSH4 0x42B10C59 GT PUSH2 0x28F JUMPI DUP1 PUSH4 0x42B10C59 EQ PUSH2 0x760 JUMPI DUP1 PUSH4 0x440B30E7 EQ PUSH2 0x779 JUMPI DUP1 PUSH4 0x47AB459C EQ PUSH2 0x7A5 JUMPI DUP1 PUSH4 0x47CCCA02 EQ PUSH2 0x7B9 JUMPI PUSH0 PUSH0 REVERT JUMPDEST DUP1 PUSH4 0x3D471D57 EQ PUSH2 0x703 JUMPI DUP1 PUSH4 0x3E0A322D EQ PUSH2 0x722 JUMPI DUP1 PUSH4 0x41275358 EQ PUSH2 0x741 JUMPI PUSH0 PUSH0 REVERT JUMPDEST DUP1 PUSH4 0x177AE044 GT PUSH2 0x32A JUMPI DUP1 PUSH4 0x2529D1A3 GT PUSH2 0x2FA JUMPI DUP1 PUSH4 0x2529D1A3 EQ PUSH2 0x68D JUMPI DUP1 PUSH4 0x27B48142 EQ PUSH2 0x6AD JUMPI DUP1 PUSH4 0x313CE567 EQ PUSH2 0x6C9 JUMPI DUP1 PUSH4 0x32516D48 EQ PUSH2 0x6E4 JUMPI PUSH0 PUSH0 REVERT JUMPDEST DUP1 PUSH4 0x177AE044 EQ PUSH2 0x626 JUMPI DUP1 PUSH4 0x18160DDD EQ PUSH2 0x63B JUMPI DUP1 PUSH4 0x1C53C280 EQ PUSH2 0x64F JUMPI DUP1 PUSH4 0x23B872DD EQ PUSH2 0x66E JUMPI PUSH0 PUSH0 REVERT JUMPDEST DUP1 PUSH4 0x6FDDE03 GT PUSH2 0x365 JUMPI DUP1 PUSH4 0x6FDDE03 EQ PUSH2 0x59B JUMPI DUP1 PUSH4 0x95EA7B3 EQ PUSH2 0x5BC JUMPI DUP1 PUSH4 0x9D46746 EQ PUSH2 0x5DB JUMPI DUP1 PUSH4 0x16F0115B EQ PUSH2 0x5EF JUMPI PUSH0 PUSH0 REVERT JUMPDEST DUP1 PUSH4 0x430E405 EQ PUSH2 0x52D JUMPI DUP1 PUSH4 0x53F14DA EQ PUSH2 0x55B JUMPI DUP1 PUSH4 0x61E431C EQ PUSH2 0x57E JUMPI PUSH0 PUSH0 REVERT JUMPDEST CALLDATASIZE PUSH2 0x529 JUMPI CALLER PUSH0 DUP2 DUP2 MSTORE PUSH1 0xA PUSH1 0x20 MSTORE PUSH1 0x40 SWAP1 KECCAK256 SLOAD PUSH1 0x1 PUSH1 0x1 PUSH1 0xA0 SHL SUB AND SWAP1 CALLVALUE SWAP1 ORIGIN SWAP1 SUB PUSH2 0x527 JUMPI PUSH1 0x15 SLOAD DUP2 LT ISZERO DUP1 ISZERO PUSH2 0x3DF JUMPI POP PUSH1 0x1 PUSH1 0x1 PUSH1 0xA0 SHL SUB DUP3 AND ISZERO ISZERO DUP1 PUSH2 0x3DF JUMPI POP PUSH1 0x18 SLOAD PUSH1 0x1 PUSH1 0x1 PUSH1 0xA0 SHL SUB AND CALLER EQ JUMPDEST ISZERO PUSH2 0x50E JUMPI CALLER PUSH0 SWAP1 DUP2 MSTORE PUSH1 0xA PUSH1 0x20 MSTORE PUSH1 0x40 SWAP1 KECCAK256 PUSH1 0x9 ADD SLOAD PUSH2 0x100 SWAP1 DIV PUSH1 0xFF AND PUSH2 0x472 JUMPI CALLER PUSH0 SWAP1 DUP2 MSTORE PUSH1 0xA PUSH1 0x20 MSTORE PUSH1 0x40 SWAP1 KECCAK256 PUSH1 0x9 ADD DUP1 SLOAD PUSH2 0xFF00 NOT AND PUSH2 0x100 OR SWAP1 SSTORE PUSH1 0x1 PUSH1 0x1 PUSH1 0xA0 SHL SUB DUP3 AND ISZERO PUSH2 0x460 JUMPI PUSH1 0x1 PUSH1 0x1 PUSH1 0xA0 SHL SUB DUP3 AND PUSH0 SWAP1 DUP2 MSTORE PUSH1 0xA PUSH1 0x20 MSTORE PUSH1 0x40 DUP2 KECCAK256 PUSH1 0x7 ADD DUP1 SLOAD PUSH1 0x1 SWAP3 SWAP1 PUSH2 0x45A SWAP1 DUP5 SWAP1 PUSH2 0x4799 JUMP JUMPDEST SWAP1 SWAP2 SSTORE POP POP JUMPDEST CALLER PUSH0 SWAP1 DUP2 MSTORE PUSH1 0x9 PUSH1 0x20 MSTORE PUSH1 0x40 SWAP1 KECCAK256 TIMESTAMP SWAP1 SSTORE JUMPDEST PUSH0 PUSH2 0x486 PUSH2 0x481 PUSH1 0x2 DUP5 PUSH2 0x47C0 JUMP JUMPDEST PUSH2 0xE17 JUMP JUMPDEST CALLER PUSH0 SWAP1 DUP2 MSTORE PUSH1 0xA PUSH1 0x20 MSTORE PUSH1 0x40 DUP2 KECCAK256 PUSH1 0x1 ADD DUP1 SLOAD SWAP3 SWAP4 POP DUP5 SWAP3 SWAP1 SWAP2 SWAP1 PUSH2 0x4AC SWAP1 DUP5 SWAP1 PUSH2 0x4799 JUMP JUMPDEST SWAP1 SWAP2 SSTORE POP POP CALLER PUSH0 SWAP1 DUP2 MSTORE PUSH1 0xA PUSH1 0x20 MSTORE PUSH1 0x40 DUP2 KECCAK256 PUSH1 0x2 ADD DUP1 SLOAD DUP4 SWAP3 SWAP1 PUSH2 0x4D2 SWAP1 DUP5 SWAP1 PUSH2 0x4799 JUMP JUMPDEST SWAP1 SWAP2 SSTORE POP POP PUSH1 0x40 MLOAD DUP3 DUP2 MSTORE CALLER SWAP1 PUSH32 0x5F41F00E6C90DEA5837402EFBF3E658A1F1DF8DB3B19624B133BC1DF0444F7EA SWAP1 PUSH1 0x20 ADD PUSH1 0x40 MLOAD DUP1 SWAP2 SUB SWAP1 LOG2 STOP JUMPDEST PUSH1 0x40 MLOAD PUSH4 0x236C6E5B PUSH1 0xE0 SHL DUP2 MSTORE PUSH1 0x4 ADD PUSH1 0x40 MLOAD DUP1 SWAP2 SUB SWAP1 REVERT JUMPDEST STOP JUMPDEST PUSH0 PUSH0 REVERT JUMPDEST CALLVALUE DUP1 ISZERO PUSH2 0x538 JUMPI PUSH0 PUSH0 REVERT JUMPDEST POP PUSH1 0x1F SLOAD PUSH2 0x546 SWAP1 PUSH1 0xFF AND DUP2 JUMP JUMPDEST PUSH1 0x40 MLOAD SWAP1 ISZERO ISZERO DUP2 MSTORE PUSH1 0x20 ADD JUMPDEST PUSH1 0x40 MLOAD DUP1 SWAP2 SUB SWAP1 RETURN JUMPDEST CALLVALUE DUP1 ISZERO PUSH2 0x566 JUMPI PUSH0 PUSH0 REVERT JUMPDEST POP PUSH2 0x570 PUSH1 0x1C SLOAD DUP2 JUMP JUMPDEST PUSH1 0x40 MLOAD SWAP1 DUP2 MSTORE PUSH1 0x20 ADD PUSH2 0x552 JUMP JUMPDEST CALLVALUE DUP1 ISZERO PUSH2 0x589 JUMPI PUSH0 PUSH0 REVERT JUMPDEST POP PUSH2 0x570 PUSH10 0x21E19E0C9BAB2400000 DUP2 JUMP JUMPDEST CALLVALUE DUP1 ISZERO PUSH2 0x5A6 JUMPI PUSH0 PUSH0 REVERT JUMPDEST POP PUSH2 0x5AF PUSH2 0x1040 JUMP JUMPDEST PUSH1 0x40 MLOAD PUSH2 0x552 SWAP2 SWAP1 PUSH2 0x47D3 JUMP JUMPDEST CALLVALUE DUP1 ISZERO PUSH2 0x5C7 JUMPI PUSH0 PUSH0 REVERT JUMPDEST POP PUSH2 0x546 PUSH2 0x5D6 CALLDATASIZE PUSH1 0x4 PUSH2 0x481C JUMP JUMPDEST PUSH2 0x10D0 JUMP JUMPDEST CALLVALUE DUP1 ISZERO PUSH2 0x5E6 JUMPI PUSH0 PUSH0 REVERT JUMPDEST POP PUSH2 0x570 PUSH2 0x10E9 JUMP JUMPDEST CALLVALUE DUP1 ISZERO PUSH2 0x5FA JUMPI PUSH0 PUSH0 REVERT JUMPDEST POP PUSH1 0x11 SLOAD PUSH2 0x60E SWAP1 PUSH1 0x1 PUSH1 0x1 PUSH1 0xA0 SHL SUB AND DUP2 JUMP JUMPDEST PUSH1 0x40 MLOAD PUSH1 0x1 PUSH1 0x1 PUSH1 0xA0 SHL SUB SWAP1 SWAP2 AND DUP2 MSTORE PUSH1 0x20 ADD PUSH2 0x552 JUMP JUMPDEST CALLVALUE DUP1 ISZERO PUSH2 0x631 JUMPI PUSH0 PUSH0 REVERT JUMPDEST POP PUSH2 0x570 PUSH1 0x1B SLOAD DUP2 JUMP JUMPDEST CALLVALUE DUP1 ISZERO PUSH2 0x646 JUMPI PUSH0 PUSH0 REVERT JUMPDEST POP PUSH1 0x2 SLOAD PUSH2 0x570 JUMP JUMPDEST CALLVALUE DUP1 ISZERO PUSH2 0x65A JUMPI PUSH0 PUSH0 REVERT JUMPDEST POP PUSH2 0x60E PUSH2 0x669 CALLDATASIZE PUSH1 0x4 PUSH2 0x4846 JUMP JUMPDEST PUSH2 0x11ED JUMP JUMPDEST CALLVALUE DUP1 ISZERO PUSH2 0x679 JUMPI PUSH0 PUSH0 REVERT JUMPDEST POP PUSH2 0x546 PUSH2 0x688 CALLDATASIZE PUSH1 0x4 PUSH2 0x485D JUMP JUMPDEST PUSH2 0x1215 JUMP JUMPDEST CALLVALUE DUP1 ISZERO PUSH2 0x698 JUMPI PUSH0 PUSH0 REVERT JUMPDEST POP PUSH1 0x11 SLOAD PUSH2 0x546 SWAP1 PUSH1 0x1 PUSH1 0xA0 SHL SWAP1 DIV PUSH1 0xFF AND DUP2 JUMP JUMPDEST CALLVALUE DUP1 ISZERO PUSH2 0x6B8 JUMPI PUSH0 PUSH0 REVERT JUMPDEST POP PUSH2 0x570 PUSH9 0x56BC75E2D63100000 DUP2 JUMP JUMPDEST CALLVALUE DUP1 ISZERO PUSH2 0x6D4 JUMPI PUSH0 PUSH0 REVERT JUMPDEST POP PUSH1 0x40 MLOAD PUSH1 0x12 DUP2 MSTORE PUSH1 0x20 ADD PUSH2 0x552 JUMP JUMPDEST CALLVALUE DUP1 ISZERO PUSH2 0x6EF JUMPI PUSH0 PUSH0 REVERT JUMPDEST POP PUSH2 0x527 PUSH2 0x6FE CALLDATASIZE PUSH1 0x4 PUSH2 0x489B JUMP JUMPDEST PUSH2 0x1238 JUMP JUMPDEST CALLVALUE DUP1 ISZERO PUSH2 0x70E JUMPI PUSH0 PUSH0 REVERT JUMPDEST POP PUSH2 0x570 PUSH2 0x71D CALLDATASIZE PUSH1 0x4 PUSH2 0x4846 JUMP JUMPDEST PUSH2 0x1262 JUMP JUMPDEST CALLVALUE DUP1 ISZERO PUSH2 0x72D JUMPI PUSH0 PUSH0 REVERT JUMPDEST POP PUSH2 0x527 PUSH2 0x73C CALLDATASIZE PUSH1 0x4 PUSH2 0x4846 JUMP JUMPDEST PUSH2 0x12E9 JUMP JUMPDEST CALLVALUE DUP1 ISZERO PUSH2 0x74C JUMPI PUSH0 PUSH0 REVERT JUMPDEST POP PUSH1 0x1A SLOAD PUSH2 0x60E SWAP1 PUSH1 0x1 PUSH1 0x1 PUSH1 0xA0 SHL SUB AND DUP2 JUMP JUMPDEST CALLVALUE DUP1 ISZERO PUSH2 0x76B JUMPI PUSH0 PUSH0 REVERT JUMPDEST POP PUSH1 0x1D SLOAD PUSH2 0x546 SWAP1 PUSH1 0xFF AND DUP2 JUMP JUMPDEST CALLVALUE DUP1 ISZERO PUSH2 0x784 JUMPI PUSH0 PUSH0 REVERT JUMPDEST POP PUSH2 0x798 PUSH2 0x793 CALLDATASIZE PUSH1 0x4 PUSH2 0x489B JUMP JUMPDEST PUSH2 0x1309 JUMP JUMPDEST PUSH1 0x40 MLOAD PUSH2 0x552 SWAP2 SWAP1 PUSH2 0x48F9 JUMP JUMPDEST CALLVALUE DUP1 ISZERO PUSH2 0x7B0 JUMPI PUSH0 PUSH0 REVERT JUMPDEST POP PUSH2 0x527 PUSH2 0x132C JUMP JUMPDEST CALLVALUE DUP1 ISZERO PUSH2 0x7C4 JUMPI PUSH0 PUSH0 REVERT JUMPDEST POP PUSH1 0xC SLOAD PUSH2 0x60E SWAP1 PUSH1 0x1 PUSH1 0x1 PUSH1 0xA0 SHL SUB AND DUP2 JUMP JUMPDEST CALLVALUE DUP1 ISZERO PUSH2 0x7E3 JUMPI PUSH0 PUSH0 REVERT JUMPDEST POP PUSH1 0xD SLOAD PUSH2 0x60E SWAP1 PUSH1 0x1 PUSH1 0x1 PUSH1 0xA0 SHL SUB AND DUP2 JUMP JUMPDEST CALLVALUE DUP1 ISZERO PUSH2 0x802 JUMPI PUSH0 PUSH0 REVERT JUMPDEST POP PUSH1 0x6 SLOAD PUSH2 0x60E SWAP1 PUSH1 0x1 PUSH1 0x1 PUSH1 0xA0 SHL SUB AND DUP2 JUMP JUMPDEST CALLVALUE DUP1 ISZERO PUSH2 0x821 JUMPI PUSH0 PUSH0 REVERT JUMPDEST POP PUSH2 0x527 PUSH2 0x830 CALLDATASIZE PUSH1 0x4 PUSH2 0x4918 JUMP JUMPDEST PUSH2 0x14AC JUMP JUMPDEST CALLVALUE DUP1 ISZERO PUSH2 0x840 JUMPI PUSH0 PUSH0 REVERT JUMPDEST POP PUSH2 0x570 PUSH1 0x20 SLOAD DUP2 JUMP JUMPDEST CALLVALUE DUP1 ISZERO PUSH2 0x855 JUMPI PUSH0 PUSH0 REVERT JUMPDEST POP PUSH2 0x60E PUSH32 0x0 DUP2 JUMP JUMPDEST CALLVALUE DUP1 ISZERO PUSH2 0x888 JUMPI PUSH0 PUSH0 REVERT JUMPDEST POP PUSH2 0x570 PUSH1 0x17 SLOAD DUP2 JUMP JUMPDEST CALLVALUE DUP1 ISZERO PUSH2 0x89D JUMPI PUSH0 PUSH0 REVERT JUMPDEST POP PUSH2 0x8A6 PUSH2 0x14DE JUMP JUMPDEST PUSH1 0x40 DUP1 MLOAD SWAP5 DUP6 MSTORE PUSH1 0x20 DUP6 ADD SWAP4 SWAP1 SWAP4 MSTORE SWAP2 DUP4 ADD MSTORE PUSH1 0x60 DUP3 ADD MSTORE PUSH1 0x80 ADD PUSH2 0x552 JUMP JUMPDEST CALLVALUE DUP1 ISZERO PUSH2 0x8D1 JUMPI PUSH0 PUSH0 REVERT JUMPDEST POP PUSH2 0x570 PUSH2 0x8E0 CALLDATASIZE PUSH1 0x4 PUSH2 0x489B JUMP JUMPDEST PUSH1 0x1 PUSH1 0x1 PUSH1 0xA0 SHL SUB AND PUSH0 SWAP1 DUP2 MSTORE PUSH1 0x20 DUP2 SWAP1 MSTORE PUSH1 0x40 SWAP1 KECCAK256 SLOAD SWAP1 JUMP JUMPDEST CALLVALUE DUP1 ISZERO PUSH2 0x905 JUMPI PUSH0 PUSH0 REVERT JUMPDEST POP PUSH2 0x527 PUSH2 0x1530 JUMP JUMPDEST CALLVALUE DUP1 ISZERO PUSH2 0x919 JUMPI PUSH0 PUSH0 REVERT JUMPDEST POP PUSH2 0x570 PUSH1 0x16 SLOAD DUP2 JUMP JUMPDEST CALLVALUE DUP1 ISZERO PUSH2 0x92E JUMPI PUSH0 PUSH0 REVERT JUMPDEST POP PUSH2 0x570 PUSH10 0x152D02C7E14AF6800000 DUP2 JUMP JUMPDEST CALLVALUE DUP1 ISZERO PUSH2 0x94B JUMPI PUSH0 PUSH0 REVERT JUMPDEST POP PUSH2 0x570 PUSH1 0x14 SLOAD DUP2 JUMP JUMPDEST CALLVALUE DUP1 ISZERO PUSH2 0x960 JUMPI PUSH0 PUSH0 REVERT JUMPDEST POP PUSH1 0x5 SLOAD PUSH1 0x1 PUSH1 0x1 PUSH1 0xA0 SHL SUB AND PUSH2 0x60E JUMP JUMPDEST CALLVALUE DUP1 ISZERO PUSH2 0x97D JUMPI PUSH0 PUSH0 REVERT JUMPDEST POP PUSH1 0xB SLOAD PUSH2 0x60E SWAP1 PUSH1 0x1 PUSH1 0x1 PUSH1 0xA0 SHL SUB AND DUP2 JUMP JUMPDEST CALLVALUE DUP1 ISZERO PUSH2 0x99C JUMPI PUSH0 PUSH0 REVERT JUMPDEST POP PUSH2 0x570 PUSH2 0x1543 JUMP JUMPDEST CALLVALUE DUP1 ISZERO PUSH2 0x9B0 JUMPI PUSH0 PUSH0 REVERT JUMPDEST POP PUSH2 0x5AF PUSH2 0x1572 JUMP JUMPDEST CALLVALUE DUP1 ISZERO PUSH2 0x9C4 JUMPI PUSH0 PUSH0 REVERT JUMPDEST POP PUSH2 0x546 PUSH2 0x9D3 CALLDATASIZE PUSH1 0x4 PUSH2 0x489B JUMP JUMPDEST PUSH1 0x1E PUSH1 0x20 MSTORE PUSH0 SWAP1 DUP2 MSTORE PUSH1 0x40 SWAP1 KECCAK256 SLOAD PUSH1 0xFF AND DUP2 JUMP JUMPDEST CALLVALUE DUP1 ISZERO PUSH2 0x9F2 JUMPI PUSH0 PUSH0 REVERT JUMPDEST POP PUSH2 0x527 PUSH2 0xA01 CALLDATASIZE PUSH1 0x4 PUSH2 0x494F JUMP JUMPDEST PUSH2 0x1581 JUMP JUMPDEST CALLVALUE DUP1 ISZERO PUSH2 0xA11 JUMPI PUSH0 PUSH0 REVERT JUMPDEST POP PUSH2 0x570 PUSH2 0xA20 CALLDATASIZE PUSH1 0x4 PUSH2 0x489B JUMP JUMPDEST PUSH1 0x9 PUSH1 0x20 MSTORE PUSH0 SWAP1 DUP2 MSTORE PUSH1 0x40 SWAP1 KECCAK256 SLOAD DUP2 JUMP JUMPDEST CALLVALUE DUP1 ISZERO PUSH2 0xA3C JUMPI PUSH0 PUSH0 REVERT JUMPDEST POP PUSH2 0xAB1 PUSH2 0xA4B CALLDATASIZE PUSH1 0x4 PUSH2 0x489B JUMP JUMPDEST PUSH1 0xA PUSH1 0x20 MSTORE PUSH0 SWAP1 DUP2 MSTORE PUSH1 0x40 SWAP1 KECCAK256 DUP1 SLOAD PUSH1 0x1 DUP3 ADD SLOAD PUSH1 0x2 DUP4 ADD SLOAD PUSH1 0x3 DUP5 ADD SLOAD PUSH1 0x4 DUP6 ADD SLOAD PUSH1 0x5 DUP7 ADD SLOAD PUSH1 0x6 DUP8 ADD SLOAD PUSH1 0x7 DUP9 ADD SLOAD PUSH1 0x8 DUP10 ADD SLOAD PUSH1 0x9 SWAP1 SWAP10 ADD SLOAD PUSH1 0x1 PUSH1 0x1 PUSH1 0xA0 SHL SUB SWAP1 SWAP9 AND SWAP9 SWAP7 SWAP8 SWAP6 SWAP7 SWAP5 SWAP6 SWAP4 SWAP5 SWAP3 SWAP4 SWAP2 SWAP3 SWAP1 SWAP2 PUSH1 0xFF DUP1 DUP3 AND SWAP2 PUSH2 0x100 SWAP1 DIV AND DUP12 JUMP JUMPDEST PUSH1 0x40 DUP1 MLOAD PUSH1 0x1 PUSH1 0x1 PUSH1 0xA0 SHL SUB SWAP1 SWAP13 AND DUP13 MSTORE PUSH1 0x20 DUP13 ADD SWAP11 SWAP1 SWAP11 MSTORE SWAP9 DUP11 ADD SWAP8 SWAP1 SWAP8 MSTORE PUSH1 0x60 DUP10 ADD SWAP6 SWAP1 SWAP6 MSTORE PUSH1 0x80 DUP9 ADD SWAP4 SWAP1 SWAP4 MSTORE PUSH1 0xA0 DUP8 ADD SWAP2 SWAP1 SWAP2 MSTORE PUSH1 0xC0 DUP7 ADD MSTORE PUSH1 0xE0 DUP6 ADD MSTORE PUSH2 0x100 DUP5 ADD MSTORE ISZERO ISZERO PUSH2 0x120 DUP4 ADD MSTORE ISZERO ISZERO PUSH2 0x140 DUP3 ADD MSTORE PUSH2 0x160 ADD PUSH2 0x552 JUMP JUMPDEST CALLVALUE DUP1 ISZERO PUSH2 0xB1D JUMPI PUSH0 PUSH0 REVERT JUMPDEST POP PUSH2 0x546 PUSH2 0xB2C CALLDATASIZE PUSH1 0x4 PUSH2 0x481C JUMP JUMPDEST PUSH2 0x15F3 JUMP JUMPDEST CALLVALUE DUP1 ISZERO PUSH2 0xB3C JUMPI PUSH0 PUSH0 REVERT JUMPDEST POP PUSH2 0x570 PUSH1 0x12 SLOAD DUP2 JUMP JUMPDEST CALLVALUE DUP1 ISZERO PUSH2 0xB51 JUMPI PUSH0 PUSH0 REVERT JUMPDEST POP PUSH1 0x10 SLOAD PUSH2 0x60E SWAP1 PUSH1 0x1 PUSH1 0x1 PUSH1 0xA0 SHL SUB AND DUP2 JUMP JUMPDEST CALLVALUE DUP1 ISZERO PUSH2 0xB70 JUMPI PUSH0 PUSH0 REVERT JUMPDEST POP PUSH2 0x570 PUSH2 0x1600 JUMP JUMPDEST CALLVALUE DUP1 ISZERO PUSH2 0xB84 JUMPI PUSH0 PUSH0 REVERT JUMPDEST POP PUSH2 0x60E PUSH20 0x55D398326F99059FF775485246999027B3197955 DUP2 JUMP JUMPDEST CALLVALUE DUP1 ISZERO PUSH2 0xBAB JUMPI PUSH0 PUSH0 REVERT JUMPDEST POP PUSH2 0x527 PUSH2 0x1640 JUMP JUMPDEST CALLVALUE DUP1 ISZERO PUSH2 0xBBF JUMPI PUSH0 PUSH0 REVERT JUMPDEST POP PUSH2 0x570 PUSH1 0x13 SLOAD DUP2 JUMP JUMPDEST CALLVALUE DUP1 ISZERO PUSH2 0xBD4 JUMPI PUSH0 PUSH0 REVERT JUMPDEST POP PUSH2 0x546 PUSH2 0xBE3 CALLDATASIZE PUSH1 0x4 PUSH2 0x49D1 JUMP JUMPDEST PUSH2 0x1773 JUMP JUMPDEST CALLVALUE DUP1 ISZERO PUSH2 0xBF3 JUMPI PUSH0 PUSH0 REVERT JUMPDEST POP PUSH2 0x570 PUSH2 0xC02 CALLDATASIZE PUSH1 0x4 PUSH2 0x49D1 JUMP JUMPDEST PUSH1 0x1 PUSH1 0x1 PUSH1 0xA0 SHL SUB SWAP2 DUP3 AND PUSH0 SWAP1 DUP2 MSTORE PUSH1 0x1 PUSH1 0x20 SWAP1 DUP2 MSTORE PUSH1 0x40 DUP1 DUP4 KECCAK256 SWAP4 SWAP1 SWAP5 AND DUP3 MSTORE SWAP2 SWAP1 SWAP2 MSTORE KECCAK256 SLOAD SWAP1 JUMP JUMPDEST CALLVALUE DUP1 ISZERO PUSH2 0xC37 JUMPI PUSH0 PUSH0 REVERT JUMPDEST POP PUSH1 0xE SLOAD PUSH2 0x60E SWAP1 PUSH1 0x1 PUSH1 0x1 PUSH1 0xA0 SHL SUB AND DUP2 JUMP JUMPDEST CALLVALUE DUP1 ISZERO PUSH2 0xC56 JUMPI PUSH0 PUSH0 REVERT JUMPDEST POP PUSH2 0x570 PUSH1 0x15 SLOAD DUP2 JUMP JUMPDEST CALLVALUE DUP1 ISZERO PUSH2 0xC6B JUMPI PUSH0 PUSH0 REVERT JUMPDEST POP PUSH2 0x527 PUSH2 0xC7A CALLDATASIZE PUSH1 0x4 PUSH2 0x49D1 JUMP JUMPDEST PUSH2 0x18AF JUMP JUMPDEST CALLVALUE DUP1 ISZERO PUSH2 0xC8A JUMPI PUSH0 PUSH0 REVERT JUMPDEST POP PUSH1 0x19 SLOAD PUSH2 0x60E SWAP1 PUSH1 0x1 PUSH1 0x1 PUSH1 0xA0 SHL SUB AND DUP2 JUMP JUMPDEST CALLVALUE DUP1 ISZERO PUSH2 0xCA9 JUMPI PUSH0 PUSH0 REVERT JUMPDEST POP PUSH2 0x570 PUSH2 0xCB8 CALLDATASIZE PUSH1 0x4 PUSH2 0x489B JUMP JUMPDEST PUSH2 0x18E5 JUMP JUMPDEST CALLVALUE DUP1 ISZERO PUSH2 0xCC8 JUMPI PUSH0 PUSH0 REVERT JUMPDEST POP PUSH2 0xD83 PUSH2 0xCD7 CALLDATASIZE PUSH1 0x4 PUSH2 0x489B JUMP JUMPDEST PUSH1 0x1 PUSH1 0x1 PUSH1 0xA0 SHL SUB SWAP1 DUP2 AND PUSH0 SWAP1 DUP2 MSTORE PUSH1 0xA PUSH1 0x20 SWAP1 DUP2 MSTORE PUSH1 0x40 SWAP2 DUP3 SWAP1 KECCAK256 DUP3 MLOAD PUSH2 0x160 DUP2 ADD DUP5 MSTORE DUP2 SLOAD SWAP1 SWAP5 AND DUP5 MSTORE PUSH1 0x1 DUP2 ADD SLOAD SWAP2 DUP5 ADD DUP3 SWAP1 MSTORE PUSH1 0x2 DUP2 ADD SLOAD SWAP3 DUP5 ADD SWAP3 SWAP1 SWAP3 MSTORE PUSH1 0x3 DUP3 ADD SLOAD PUSH1 0x60 DUP5 ADD MSTORE PUSH1 0x4 DUP3 ADD SLOAD PUSH1 0x80 DUP5 ADD MSTORE PUSH1 0x5 DUP3 ADD SLOAD PUSH1 0xA0 DUP5 ADD MSTORE PUSH1 0x6 DUP3 ADD SLOAD PUSH1 0xC0 DUP5 ADD MSTORE PUSH1 0x7 DUP3 ADD SLOAD PUSH1 0xE0 DUP5 ADD MSTORE PUSH1 0x8 DUP3 ADD SLOAD PUSH2 0x100 DUP1 DUP6 ADD SWAP2 SWAP1 SWAP2 MSTORE PUSH1 0x9 SWAP1 SWAP3 ADD SLOAD PUSH1 0xFF DUP1 DUP3 AND ISZERO ISZERO PUSH2 0x120 DUP7 ADD DUP2 SWAP1 MSTORE SWAP4 SWAP1 SWAP2 DIV AND ISZERO ISZERO PUSH2 0x140 SWAP1 SWAP4 ADD DUP4 SWAP1 MSTORE SWAP3 JUMP JUMPDEST PUSH1 0x40 DUP1 MLOAD SWAP4 DUP5 MSTORE SWAP2 ISZERO ISZERO PUSH1 0x20 DUP5 ADD MSTORE ISZERO ISZERO SWAP1 DUP3 ADD MSTORE PUSH1 0x60 ADD PUSH2 0x552 JUMP JUMPDEST CALLVALUE DUP1 ISZERO PUSH2 0xDAB JUMPI PUSH0 PUSH0 REVERT JUMPDEST POP PUSH2 0x527 PUSH2 0xDBA CALLDATASIZE PUSH1 0x4 PUSH2 0x489B JUMP JUMPDEST PUSH2 0x1AF4 JUMP JUMPDEST CALLVALUE DUP1 ISZERO PUSH2 0xDCA JUMPI PUSH0 PUSH0 REVERT JUMPDEST POP PUSH2 0x527 PUSH2 0xDD9 CALLDATASIZE PUSH1 0x4 PUSH2 0x489B JUMP JUMPDEST PUSH2 0x1B36 JUMP JUMPDEST CALLVALUE DUP1 ISZERO PUSH2 0xDE9 JUMPI PUSH0 PUSH0 REVERT JUMPDEST POP PUSH2 0x546 PUSH2 0xDF8 CALLDATASIZE PUSH1 0x4 PUSH2 0x49D1 JUMP JUMPDEST PUSH1 0x7 PUSH1 0x20 SWAP1 DUP2 MSTORE PUSH0 SWAP3 DUP4 MSTORE PUSH1 0x40 DUP1 DUP5 KECCAK256 SWAP1 SWAP2 MSTORE SWAP1 DUP3 MSTORE SWAP1 KECCAK256 SLOAD PUSH1 0xFF AND DUP2 JUMP JUMPDEST PUSH1 0x40 DUP1 MLOAD PUSH1 0x2 DUP1 DUP3 MSTORE PUSH1 0x60 DUP3 ADD DUP4 MSTORE PUSH0 SWAP3 DUP4 SWAP3 SWAP2 SWAP1 PUSH1 0x20 DUP4 ADD SWAP1 DUP1 CALLDATASIZE DUP4 CALLDATACOPY POP POP PUSH1 0xB SLOAD DUP3 MLOAD SWAP3 SWAP4 POP PUSH1 0x1 PUSH1 0x1 PUSH1 0xA0 SHL SUB AND SWAP2 DUP4 SWAP2 POP PUSH0 SWAP1 PUSH2 0xE5A JUMPI PUSH2 0xE5A PUSH2 0x4A11 JUMP JUMPDEST PUSH1 0x20 MUL PUSH1 0x20 ADD ADD SWAP1 PUSH1 0x1 PUSH1 0x1 PUSH1 0xA0 SHL SUB AND SWAP1 DUP2 PUSH1 0x1 PUSH1 0x1 PUSH1 0xA0 SHL SUB AND DUP2 MSTORE POP POP ADDRESS DUP2 PUSH1 0x1 DUP2 MLOAD DUP2 LT PUSH2 0xE8E JUMPI PUSH2 0xE8E PUSH2 0x4A11 JUMP JUMPDEST PUSH1 0x1 PUSH1 0x1 PUSH1 0xA0 SHL SUB SWAP3 DUP4 AND PUSH1 0x20 SWAP2 DUP3 MUL SWAP3 SWAP1 SWAP3 ADD ADD MSTORE PUSH1 0x11 SLOAD PUSH1 0x40 MLOAD PUSH4 0xB6F9DE95 PUSH1 0xE0 SHL DUP2 MSTORE PUSH32 0x0 DUP4 AND SWAP3 PUSH4 0xB6F9DE95 SWAP3 DUP8 SWAP3 PUSH2 0xEF5 SWAP3 PUSH0 SWAP3 DUP9 SWAP3 SWAP2 AND SWAP1 TIMESTAMP SWAP1 PUSH1 0x4 ADD PUSH2 0x4A25 JUMP JUMPDEST PUSH0 PUSH1 0x40 MLOAD DUP1 DUP4 SUB DUP2 DUP6 DUP9 DUP1 EXTCODESIZE ISZERO DUP1 ISZERO PUSH2 0xF0C JUMPI PUSH0 PUSH0 REVERT JUMPDEST POP GAS CALL ISZERO DUP1 ISZERO PUSH2 0xF1E JUMPI RETURNDATASIZE PUSH0 PUSH0 RETURNDATACOPY RETURNDATASIZE PUSH0 REVERT JUMPDEST POP POP PUSH1 0x11 SLOAD PUSH1 0x1 PUSH1 0x1 PUSH1 0xA0 SHL SUB AND PUSH0 SWAP1 DUP2 MSTORE PUSH1 0x20 DUP2 SWAP1 MSTORE PUSH1 0x40 DUP2 KECCAK256 SLOAD SWAP1 SWAP4 POP SWAP2 POP PUSH2 0xF46 SWAP1 POP JUMP JUMPDEST PUSH1 0x11 SLOAD SWAP1 SWAP2 POP PUSH2 0xF60 SWAP1 PUSH1 0x1 PUSH1 0x1 PUSH1 0xA0 SHL SUB AND ADDRESS DUP4 PUSH2 0x1B60 JUMP JUMPDEST PUSH2 0xF8B ADDRESS PUSH32 0x0 DUP4 PUSH2 0x1C86 JUMP JUMPDEST PUSH1 0x40 MLOAD PUSH4 0xF305D719 PUSH1 0xE0 SHL DUP2 MSTORE ADDRESS PUSH1 0x4 DUP3 ADD DUP2 SWAP1 MSTORE PUSH1 0x24 DUP3 ADD DUP4 SWAP1 MSTORE PUSH0 PUSH1 0x44 DUP4 ADD DUP2 SWAP1 MSTORE PUSH1 0x64 DUP4 ADD MSTORE PUSH1 0x84 DUP3 ADD MSTORE TIMESTAMP PUSH1 0xA4 DUP3 ADD MSTORE PUSH32 0x0 PUSH1 0x1 PUSH1 0x1 PUSH1 0xA0 SHL SUB AND SWAP1 PUSH4 0xF305D719 SWAP1 DUP7 SWAP1 PUSH1 0xC4 ADD PUSH1 0x60 PUSH1 0x40 MLOAD DUP1 DUP4 SUB DUP2 DUP6 DUP9 GAS CALL ISZERO DUP1 ISZERO PUSH2 0x1011 JUMPI RETURNDATASIZE PUSH0 PUSH0 RETURNDATACOPY RETURNDATASIZE PUSH0 REVERT JUMPDEST POP POP POP POP POP PUSH1 0x40 MLOAD RETURNDATASIZE PUSH1 0x1F NOT PUSH1 0x1F DUP3 ADD AND DUP3 ADD DUP1 PUSH1 0x40 MSTORE POP DUP2 ADD SWAP1 PUSH2 0x1036 SWAP2 SWAP1 PUSH2 0x4A59 JUMP JUMPDEST SWAP7 SWAP6 POP POP POP POP POP POP JUMP JUMPDEST PUSH1 0x60 PUSH1 0x3 DUP1 SLOAD PUSH2 0x104F SWAP1 PUSH2 0x4A84 JUMP JUMPDEST DUP1 PUSH1 0x1F ADD PUSH1 0x20 DUP1 SWAP2 DIV MUL PUSH1 0x20 ADD PUSH1 0x40 MLOAD SWAP1 DUP2 ADD PUSH1 0x40 MSTORE DUP1 SWAP3 SWAP2 SWAP1 DUP2 DUP2 MSTORE PUSH1 0x20 ADD DUP3 DUP1 SLOAD PUSH2 0x107B SWAP1 PUSH2 0x4A84 JUMP JUMPDEST DUP1 ISZERO PUSH2 0x10C6 JUMPI DUP1 PUSH1 0x1F LT PUSH2 0x109D JUMPI PUSH2 0x100 DUP1 DUP4 SLOAD DIV MUL DUP4 MSTORE SWAP2 PUSH1 0x20 ADD SWAP2 PUSH2 0x10C6 JUMP JUMPDEST DUP3 ADD SWAP2 SWAP1 PUSH0 MSTORE PUSH1 0x20 PUSH0 KECCAK256 SWAP1 JUMPDEST DUP2 SLOAD DUP2 MSTORE SWAP1 PUSH1 0x1 ADD SWAP1 PUSH1 0x20 ADD DUP1 DUP4 GT PUSH2 0x10A9 JUMPI DUP3 SWAP1 SUB PUSH1 0x1F AND DUP3 ADD SWAP2 JUMPDEST POP POP POP POP POP SWAP1 POP SWAP1 JUMP JUMPDEST PUSH0 CALLER PUSH2 0x10DD DUP2 DUP6 DUP6 PUSH2 0x1C86 JUMP JUMPDEST PUSH1 0x1 SWAP2 POP POP JUMPDEST SWAP3 SWAP2 POP POP JUMP JUMPDEST PUSH1 0x6 SLOAD PUSH1 0x40 DUP1 MLOAD PUSH4 0x240BC6B PUSH1 0xE2 SHL DUP2 MSTORE SWAP1 MLOAD PUSH0 SWAP3 PUSH1 0x1 PUSH1 0x1 PUSH1 0xA0 SHL SUB AND SWAP2 DUP4 SWAP2 DUP3 SWAP2 DUP5 SWAP2 PUSH4 0x902F1AC SWAP2 PUSH1 0x4 DUP1 DUP3 ADD SWAP3 PUSH1 0x60 SWAP3 SWAP1 SWAP2 SWAP1 DUP3 SWAP1 SUB ADD DUP2 DUP7 GAS STATICCALL ISZERO DUP1 ISZERO PUSH2 0x1137 JUMPI RETURNDATASIZE PUSH0 PUSH0 RETURNDATACOPY RETURNDATASIZE PUSH0 REVERT JUMPDEST POP POP POP POP PUSH1 0x40 MLOAD RETURNDATASIZE PUSH1 0x1F NOT PUSH1 0x1F DUP3 ADD AND DUP3 ADD DUP1 PUSH1 0x40 MSTORE POP DUP2 ADD SWAP1 PUSH2 0x115B SWAP2 SWAP1 PUSH2 0x4ACC JUMP JUMPDEST POP SWAP2 POP SWAP2 POP PUSH0 DUP4 PUSH1 0x1 PUSH1 0x1 PUSH1 0xA0 SHL SUB AND PUSH4 0xDFE1681 PUSH1 0x40 MLOAD DUP2 PUSH4 0xFFFFFFFF AND PUSH1 0xE0 SHL DUP2 MSTORE PUSH1 0x4 ADD PUSH1 0x20 PUSH1 0x40 MLOAD DUP1 DUP4 SUB DUP2 DUP7 GAS STATICCALL ISZERO DUP1 ISZERO PUSH2 0x119D JUMPI RETURNDATASIZE PUSH0 PUSH0 RETURNDATACOPY RETURNDATASIZE PUSH0 REVERT JUMPDEST POP POP POP POP PUSH1 0x40 MLOAD RETURNDATASIZE PUSH1 0x1F NOT PUSH1 0x1F DUP3 ADD AND DUP3 ADD DUP1 PUSH1 0x40 MSTORE POP DUP2 ADD SWAP1 PUSH2 0x11C1 SWAP2 SWAP1 PUSH2 0x4B0D JUMP JUMPDEST SWAP1 POP PUSH1 0x1 PUSH1 0x1 PUSH1 0xA0 SHL SUB DUP2 AND ADDRESS EQ PUSH2 0x11D9 JUMPI DUP2 PUSH2 0x11DB JUMP JUMPDEST DUP3 JUMPDEST PUSH1 0x1 PUSH1 0x1 PUSH1 0x70 SHL SUB AND SWAP5 POP POP POP POP POP SWAP1 JUMP JUMPDEST PUSH1 0xF DUP2 DUP2 SLOAD DUP2 LT PUSH2 0x11FC JUMPI PUSH0 DUP1 REVERT JUMPDEST PUSH0 SWAP2 DUP3 MSTORE PUSH1 0x20 SWAP1 SWAP2 KECCAK256 ADD SLOAD PUSH1 0x1 PUSH1 0x1 PUSH1 0xA0 SHL SUB AND SWAP1 POP DUP2 JUMP JUMPDEST PUSH0 CALLER PUSH2 0x1222 DUP6 DUP3 DUP6 PUSH2 0x1C98 JUMP JUMPDEST PUSH2 0x122D DUP6 DUP6 DUP6 PUSH2 0x1D0E JUMP JUMPDEST POP PUSH1 0x1 SWAP5 SWAP4 POP POP POP POP JUMP JUMPDEST PUSH2 0x1240 PUSH2 0x1D6B JUMP JUMPDEST PUSH1 0x10 DUP1 SLOAD PUSH1 0x1 PUSH1 0x1 PUSH1 0xA0 SHL SUB NOT AND PUSH1 0x1 PUSH1 0x1 PUSH1 0xA0 SHL SUB SWAP3 SWAP1 SWAP3 AND SWAP2 SWAP1 SWAP2 OR SWAP1 SSTORE JUMP JUMPDEST PUSH0 DUP2 PUSH1 0x1 SUB PUSH2 0x1273 JUMPI POP PUSH1 0xA SWAP2 SWAP1 POP JUMP JUMPDEST DUP2 PUSH1 0x2 SUB PUSH2 0x1283 JUMPI POP PUSH1 0x5 SWAP2 SWAP1 POP JUMP JUMPDEST DUP2 PUSH1 0x3 SUB PUSH2 0x1293 JUMPI POP PUSH1 0x3 SWAP2 SWAP1 POP JUMP JUMPDEST PUSH1 0x4 DUP3 LT ISZERO DUP1 ISZERO PUSH2 0x12A5 JUMPI POP PUSH1 0x11 DUP3 GT ISZERO JUMPDEST ISZERO PUSH2 0x12B2 JUMPI POP PUSH1 0x1 SWAP2 SWAP1 POP JUMP JUMPDEST DUP2 PUSH1 0x12 SUB PUSH2 0x12C2 JUMPI POP PUSH1 0x3 SWAP2 SWAP1 POP JUMP JUMPDEST DUP2 PUSH1 0x13 SUB PUSH2 0x12D2 JUMPI POP PUSH1 0x5 SWAP2 SWAP1 POP JUMP JUMPDEST DUP2 PUSH1 0x14 SUB PUSH2 0x12E2 JUMPI POP PUSH1 0xA SWAP2 SWAP1 POP JUMP JUMPDEST POP PUSH0 SWAP2 SWAP1 POP JUMP JUMPDEST PUSH2 0x12F1 PUSH2 0x1D6B JUMP JUMPDEST PUSH1 0x16 DUP2 SWAP1 SSTORE PUSH2 0x1303 DUP2 PUSH3 0x278D00 PUSH2 0x4799 JUMP JUMPDEST PUSH1 0x17 SSTORE POP JUMP JUMPDEST PUSH1 0x1 PUSH1 0x1 PUSH1 0xA0 SHL SUB DUP2 AND PUSH0 SWAP1 DUP2 MSTORE PUSH1 0x8 PUSH1 0x20 MSTORE PUSH1 0x40 SWAP1 KECCAK256 PUSH1 0x60 SWAP1 PUSH2 0x10E3 SWAP1 PUSH2 0x1D98 JUMP JUMPDEST PUSH1 0x6 SLOAD PUSH1 0x40 DUP1 MLOAD PUSH4 0x240BC6B PUSH1 0xE2 SHL DUP2 MSTORE SWAP1 MLOAD PUSH1 0x1 PUSH1 0x1 PUSH1 0xA0 SHL SUB SWAP1 SWAP3 AND SWAP2 PUSH0 SWAP2 DUP3 SWAP2 DUP5 SWAP2 PUSH4 0x902F1AC SWAP2 PUSH1 0x4 DUP1 DUP4 ADD SWAP3 PUSH1 0x60 SWAP3 SWAP2 SWAP1 DUP3 SWAP1 SUB ADD DUP2 DUP7 GAS STATICCALL ISZERO DUP1 ISZERO PUSH2 0x1379 JUMPI RETURNDATASIZE PUSH0 PUSH0 RETURNDATACOPY RETURNDATASIZE PUSH0 REVERT JUMPDEST POP POP POP POP PUSH1 0x40 MLOAD RETURNDATASIZE PUSH1 0x1F NOT PUSH1 0x1F DUP3 ADD AND DUP3 ADD DUP1 PUSH1 0x40 MSTORE POP DUP2 ADD SWAP1 PUSH2 0x139D SWAP2 SWAP1 PUSH2 0x4ACC JUMP JUMPDEST POP SWAP2 POP SWAP2 POP DUP2 PUSH1 0x1 PUSH1 0x1 PUSH1 0x70 SHL SUB AND PUSH0 EQ DUP1 PUSH2 0x13C0 JUMPI POP PUSH1 0x1 PUSH1 0x1 PUSH1 0x70 SHL SUB DUP2 AND ISZERO JUMPDEST ISZERO PUSH2 0x13CA JUMPI POP POP POP JUMP JUMPDEST PUSH0 DUP4 PUSH1 0x1 PUSH1 0x1 PUSH1 0xA0 SHL SUB AND PUSH4 0xDFE1681 PUSH1 0x40 MLOAD DUP2 PUSH4 0xFFFFFFFF AND PUSH1 0xE0 SHL DUP2 MSTORE PUSH1 0x4 ADD PUSH1 0x20 PUSH1 0x40 MLOAD DUP1 DUP4 SUB DUP2 DUP7 GAS STATICCALL ISZERO DUP1 ISZERO PUSH2 0x1407 JUMPI RETURNDATASIZE PUSH0 PUSH0 RETURNDATACOPY RETURNDATASIZE PUSH0 REVERT JUMPDEST POP POP POP POP PUSH1 0x40 MLOAD RETURNDATASIZE PUSH1 0x1F NOT PUSH1 0x1F DUP3 ADD AND DUP3 ADD DUP1 PUSH1 0x40 MSTORE POP DUP2 ADD SWAP1 PUSH2 0x142B SWAP2 SWAP1 PUSH2 0x4B0D JUMP JUMPDEST SWAP1 POP PUSH0 PUSH1 0x1 PUSH1 0x1 PUSH1 0xA0 SHL SUB DUP3 AND ADDRESS EQ PUSH2 0x1444 JUMPI DUP3 PUSH2 0x1446 JUMP JUMPDEST DUP4 JUMPDEST PUSH1 0x1 PUSH1 0x1 PUSH1 0x70 SHL SUB AND SWAP1 POP PUSH1 0x12 SLOAD DUP2 LT ISZERO PUSH2 0x1485 JUMPI PUSH1 0x11 SLOAD PUSH1 0x1 PUSH1 0xA0 SHL SWAP1 DIV PUSH1 0xFF AND PUSH2 0x1480 JUMPI PUSH1 0x11 DUP1 SLOAD PUSH1 0xFF PUSH1 0xA0 SHL NOT AND PUSH1 0x1 PUSH1 0xA0 SHL OR SWAP1 SSTORE JUMPDEST PUSH2 0x14A5 JUMP JUMPDEST PUSH1 0x11 SLOAD PUSH1 0x1 PUSH1 0xA0 SHL SWAP1 DIV PUSH1 0xFF AND ISZERO PUSH2 0x14A5 JUMPI PUSH1 0x11 DUP1 SLOAD PUSH1 0xFF PUSH1 0xA0 SHL NOT AND SWAP1 SSTORE JUMPDEST POP POP POP POP POP JUMP JUMPDEST PUSH2 0x14B4 PUSH2 0x1D6B JUMP JUMPDEST PUSH1 0x1 PUSH1 0x1 PUSH1 0xA0 SHL SUB SWAP2 SWAP1 SWAP2 AND PUSH0 SWAP1 DUP2 MSTORE PUSH1 0x1E PUSH1 0x20 MSTORE PUSH1 0x40 SWAP1 KECCAK256 DUP1 SLOAD PUSH1 0xFF NOT AND SWAP2 ISZERO ISZERO SWAP2 SWAP1 SWAP2 OR SWAP1 SSTORE JUMP JUMPDEST PUSH0 PUSH0 PUSH0 PUSH0 PUSH0 PUSH2 0x14EB PUSH2 0x10E9 JUMP JUMPDEST SWAP1 POP PUSH11 0x52B7D2DCC80CD2E4000000 DUP2 GT ISZERO PUSH2 0x1517 JUMPI PUSH2 0x640 PUSH0 PUSH2 0x12C PUSH1 0x3C SWAP5 POP SWAP5 POP SWAP5 POP SWAP5 POP POP PUSH2 0x152A JUMP JUMPDEST PUSH2 0x3E8 PUSH0 PUSH2 0x12C PUSH1 0x3C SWAP5 POP SWAP5 POP SWAP5 POP SWAP5 POP POP JUMPDEST SWAP1 SWAP2 SWAP3 SWAP4 JUMP JUMPDEST PUSH2 0x1538 PUSH2 0x1D6B JUMP JUMPDEST PUSH2 0x1541 PUSH0 PUSH2 0x1DAB JUMP JUMPDEST JUMP JUMPDEST PUSH0 PUSH0 PUSH2 0x154D PUSH2 0x10E9 JUMP JUMPDEST SWAP1 POP PUSH11 0x52B7D2DCC80CD2E4000000 DUP2 GT ISZERO PUSH2 0x156A JUMPI PUSH1 0x32 SWAP2 POP POP SWAP1 JUMP JUMPDEST PUSH1 0x14 SWAP2 POP POP SWAP1 JUMP JUMPDEST PUSH1 0x60 PUSH1 0x4 DUP1 SLOAD PUSH2 0x104F SWAP1 PUSH2 0x4A84 JUMP JUMPDEST PUSH2 0x1589 PUSH2 0x1D6B JUMP JUMPDEST PUSH0 JUMPDEST DUP3 DUP2 LT ISZERO PUSH2 0x15ED JUMPI DUP2 PUSH1 0x1E PUSH0 DUP7 DUP7 DUP6 DUP2 DUP2 LT PUSH2 0x15A9 JUMPI PUSH2 0x15A9 PUSH2 0x4A11 JUMP JUMPDEST SWAP1 POP PUSH1 0x20 MUL ADD PUSH1 0x20 DUP2 ADD SWAP1 PUSH2 0x15BE SWAP2 SWAP1 PUSH2 0x489B JUMP JUMPDEST PUSH1 0x1 PUSH1 0x1 PUSH1 0xA0 SHL SUB AND DUP2 MSTORE PUSH1 0x20 DUP2 ADD SWAP2 SWAP1 SWAP2 MSTORE PUSH1 0x40 ADD PUSH0 KECCAK256 DUP1 SLOAD PUSH1 0xFF NOT AND SWAP2 ISZERO ISZERO SWAP2 SWAP1 SWAP2 OR SWAP1 SSTORE PUSH1 0x1 ADD PUSH2 0x158B JUMP JUMPDEST POP POP POP POP JUMP JUMPDEST PUSH0 CALLER PUSH2 0x10DD DUP2 DUP6 DUP6 PUSH2 0x1D0E JUMP JUMPDEST PUSH2 0xDEAD PUSH0 SWAP1 DUP2 MSTORE PUSH1 0x20 DUP2 SWAP1 MSTORE PUSH32 0x44AD89BA62B98FF34F51403AC22759B55759460C0BB5521EB4B6EE3CFF49CF83 SLOAD PUSH1 0x2 SLOAD PUSH2 0x163B SWAP2 SWAP1 PUSH2 0x4B28 JUMP JUMPDEST SWAP1 POP SWAP1 JUMP JUMPDEST PUSH1 0xB SLOAD PUSH1 0x6 SLOAD PUSH1 0x40 MLOAD PUSH4 0x70A08231 PUSH1 0xE0 SHL DUP2 MSTORE ADDRESS PUSH1 0x4 DUP3 ADD MSTORE PUSH1 0x1 PUSH1 0x1 PUSH1 0xA0 SHL SUB SWAP3 DUP4 AND SWAP3 PUSH4 0xA9059CBB SWAP3 AND SWAP1 DUP4 SWAP1 PUSH4 0x70A08231 SWAP1 PUSH1 0x24 ADD PUSH1 0x20 PUSH1 0x40 MLOAD DUP1 DUP4 SUB DUP2 DUP7 GAS STATICCALL ISZERO DUP1 ISZERO PUSH2 0x1693 JUMPI RETURNDATASIZE PUSH0 PUSH0 RETURNDATACOPY RETURNDATASIZE PUSH0 REVERT JUMPDEST POP POP POP POP PUSH1 0x40 MLOAD RETURNDATASIZE PUSH1 0x1F NOT PUSH1 0x1F DUP3 ADD AND DUP3 ADD DUP1 PUSH1 0x40 MSTORE POP DUP2 ADD SWAP1 PUSH2 0x16B7 SWAP2 SWAP1 PUSH2 0x4B3B JUMP JUMPDEST PUSH1 0x40 MLOAD DUP4 PUSH4 0xFFFFFFFF AND PUSH1 0xE0 SHL DUP2 MSTORE PUSH1 0x4 ADD PUSH2 0x16D4 SWAP3 SWAP2 SWAP1 PUSH2 0x4B52 JUMP JUMPDEST PUSH1 0x20 PUSH1 0x40 MLOAD DUP1 DUP4 SUB DUP2 PUSH0 DUP8 GAS CALL ISZERO DUP1 ISZERO PUSH2 0x16F0 JUMPI RETURNDATASIZE PUSH0 PUSH0 RETURNDATACOPY RETURNDATASIZE PUSH0 REVERT JUMPDEST POP POP POP POP PUSH1 0x40 MLOAD RETURNDATASIZE PUSH1 0x1F NOT PUSH1 0x1F DUP3 ADD AND DUP3 ADD DUP1 PUSH1 0x40 MSTORE POP DUP2 ADD SWAP1 PUSH2 0x1714 SWAP2 SWAP1 PUSH2 0x4B6B JUMP JUMPDEST POP PUSH1 0x6 PUSH0 SWAP1 SLOAD SWAP1 PUSH2 0x100 EXP SWAP1 DIV PUSH1 0x1 PUSH1 0x1 PUSH1 0xA0 SHL SUB AND PUSH1 0x1 PUSH1 0x1 PUSH1 0xA0 SHL SUB AND PUSH4 0xFFF6CAE9 PUSH1 0x40 MLOAD DUP2 PUSH4 0xFFFFFFFF AND PUSH1 0xE0 SHL DUP2 MSTORE PUSH1 0x4 ADD PUSH0 PUSH1 0x40 MLOAD DUP1 DUP4 SUB DUP2 PUSH0 DUP8 DUP1 EXTCODESIZE ISZERO DUP1 ISZERO PUSH2 0x1761 JUMPI PUSH0 PUSH0 REVERT JUMPDEST POP GAS CALL ISZERO DUP1 ISZERO PUSH2 0x15ED JUMPI RETURNDATASIZE PUSH0 PUSH0 RETURNDATACOPY RETURNDATASIZE PUSH0 REVERT JUMPDEST PUSH1 0x1 PUSH1 0x1 PUSH1 0xA0 SHL SUB DUP3 DUP2 AND PUSH0 SWAP1 DUP2 MSTORE PUSH1 0xA PUSH1 0x20 MSTORE PUSH1 0x40 DUP2 KECCAK256 SLOAD SWAP1 SWAP2 AND ISZERO DUP1 ISZERO PUSH2 0x17AA JUMPI POP PUSH1 0x18 SLOAD PUSH1 0x1 PUSH1 0x1 PUSH1 0xA0 SHL SUB DUP5 DUP2 AND SWAP2 AND EQ ISZERO JUMPDEST DUP1 ISZERO PUSH2 0x17C4 JUMPI POP PUSH1 0x6 SLOAD PUSH1 0x1 PUSH1 0x1 PUSH1 0xA0 SHL SUB DUP4 DUP2 AND SWAP2 AND EQ ISZERO JUMPDEST DUP1 ISZERO PUSH2 0x17DE JUMPI POP PUSH1 0x6 SLOAD PUSH1 0x1 PUSH1 0x1 PUSH1 0xA0 SHL SUB DUP5 DUP2 AND SWAP2 AND EQ ISZERO JUMPDEST ISZERO PUSH2 0x17EA JUMPI POP PUSH0 PUSH2 0x10E3 JUMP JUMPDEST PUSH1 0x1 PUSH1 0x1 PUSH1 0xA0 SHL SUB DUP1 DUP5 AND PUSH0 SWAP1 DUP2 MSTORE PUSH1 0x7 PUSH1 0x20 SWAP1 DUP2 MSTORE PUSH1 0x40 DUP1 DUP4 KECCAK256 SWAP4 DUP7 AND DUP4 MSTORE SWAP3 SWAP1 MSTORE KECCAK256 SLOAD PUSH1 0xFF AND DUP1 PUSH2 0x182E JUMPI POP DUP2 PUSH1 0x1 PUSH1 0x1 PUSH1 0xA0 SHL SUB AND DUP4 PUSH1 0x1 PUSH1 0x1 PUSH1 0xA0 SHL SUB AND EQ JUMPDEST ISZERO PUSH2 0x183A JUMPI POP PUSH0 PUSH2 0x10E3 JUMP JUMPDEST DUP2 PUSH0 JUMPDEST PUSH1 0x1 PUSH1 0x1 PUSH1 0xA0 SHL SUB DUP3 AND ISZERO DUP1 ISZERO SWAP1 PUSH2 0x1858 JUMPI POP PUSH1 0x19 DUP2 PUSH1 0xFF AND LT JUMPDEST ISZERO PUSH2 0x122D JUMPI DUP5 PUSH1 0x1 PUSH1 0x1 PUSH1 0xA0 SHL SUB AND DUP3 PUSH1 0x1 PUSH1 0x1 PUSH1 0xA0 SHL SUB AND SUB PUSH2 0x1880 JUMPI PUSH0 SWAP3 POP POP POP PUSH2 0x10E3 JUMP JUMPDEST PUSH1 0x1 PUSH1 0x1 PUSH1 0xA0 SHL SUB SWAP2 DUP3 AND PUSH0 SWAP1 DUP2 MSTORE PUSH1 0xA PUSH1 0x20 MSTORE PUSH1 0x40 SWAP1 KECCAK256 SLOAD SWAP1 SWAP2 AND SWAP1 DUP1 PUSH2 0x18A7 DUP2 PUSH2 0x4B86 JUMP JUMPDEST SWAP2 POP POP PUSH2 0x183D JUMP JUMPDEST PUSH2 0x18B7 PUSH2 0x1D6B JUMP JUMPDEST PUSH1 0xD DUP1 SLOAD PUSH1 0x1 PUSH1 0x1 PUSH1 0xA0 SHL SUB SWAP4 DUP5 AND PUSH1 0x1 PUSH1 0x1 PUSH1 0xA0 SHL SUB NOT SWAP2 DUP3 AND OR SWAP1 SWAP2 SSTORE PUSH1 0xE DUP1 SLOAD SWAP3 SWAP1 SWAP4 AND SWAP2 AND OR SWAP1 SSTORE JUMP JUMPDEST PUSH1 0x1 PUSH1 0x1 PUSH1 0xA0 SHL SUB DUP1 DUP3 AND PUSH0 SWAP1 DUP2 MSTORE PUSH1 0xA PUSH1 0x20 SWAP1 DUP2 MSTORE PUSH1 0x40 DUP1 DUP4 KECCAK256 DUP2 MLOAD PUSH2 0x160 DUP2 ADD DUP4 MSTORE DUP2 SLOAD SWAP1 SWAP6 AND DUP6 MSTORE PUSH1 0x1 DUP2 ADD SLOAD SWAP3 DUP6 ADD SWAP3 SWAP1 SWAP3 MSTORE PUSH1 0x2 DUP3 ADD SLOAD SWAP1 DUP5 ADD MSTORE PUSH1 0x3 DUP2 ADD SLOAD PUSH1 0x60 DUP5 ADD MSTORE PUSH1 0x4 DUP2 ADD SLOAD PUSH1 0x80 DUP5 ADD MSTORE PUSH1 0x5 DUP2 ADD SLOAD PUSH1 0xA0 DUP5 ADD MSTORE PUSH1 0x6 DUP2 ADD SLOAD PUSH1 0xC0 DUP5 ADD MSTORE PUSH1 0x7 DUP2 ADD SLOAD PUSH1 0xE0 DUP5 ADD MSTORE PUSH1 0x8 DUP2 ADD SLOAD PUSH2 0x100 DUP1 DUP6 ADD SWAP2 SWAP1 SWAP2 MSTORE PUSH1 0x9 SWAP1 SWAP2 ADD SLOAD PUSH1 0xFF DUP1 DUP3 AND ISZERO ISZERO PUSH2 0x120 DUP7 ADD MSTORE SWAP2 SWAP1 DIV AND ISZERO DUP1 ISZERO PUSH2 0x140 DUP5 ADD MSTORE SWAP1 SWAP2 SWAP1 DUP1 PUSH2 0x1997 JUMPI POP DUP1 PUSH2 0x120 ADD MLOAD ISZERO JUMPDEST ISZERO PUSH2 0x19A4 JUMPI POP PUSH0 SWAP3 SWAP2 POP POP JUMP JUMPDEST PUSH1 0x1 PUSH1 0x1 PUSH1 0xA0 SHL SUB DUP4 AND PUSH0 SWAP1 DUP2 MSTORE PUSH1 0x9 PUSH1 0x20 MSTORE PUSH1 0x40 DUP2 KECCAK256 SLOAD SWAP1 DUP2 SWAP1 SUB PUSH2 0x19CD JUMPI POP PUSH0 SWAP4 SWAP3 POP POP POP JUMP JUMPDEST PUSH0 PUSH3 0x15180 PUSH2 0x19DC DUP4 TIMESTAMP PUSH2 0x4B28 JUMP JUMPDEST PUSH2 0x19E6 SWAP2 SWAP1 PUSH2 0x47C0 JUMP JUMPDEST SWAP1 POP PUSH1 0xC8 DUP2 GT ISZERO PUSH2 0x19FB JUMPI POP PUSH0 SWAP5 SWAP4 POP POP POP POP JUMP JUMPDEST PUSH0 PUSH2 0x1A04 PUSH2 0x14DE JUMP JUMPDEST POP POP POP SWAP1 POP PUSH1 0x7D DUP3 GT ISZERO PUSH2 0x1A17 JUMPI POP PUSH2 0x3E8 JUMPDEST PUSH1 0x20 DUP5 ADD MLOAD PUSH0 PUSH3 0x186A0 PUSH2 0x1A2B DUP5 DUP5 PUSH2 0x4BA4 JUMP JUMPDEST PUSH2 0x1A35 SWAP2 SWAP1 PUSH2 0x47C0 JUMP JUMPDEST SWAP1 POP PUSH0 PUSH0 DUP8 PUSH1 0x80 ADD MLOAD GT PUSH2 0x1A49 JUMPI DUP6 PUSH2 0x1A4F JUMP JUMPDEST DUP7 PUSH1 0x80 ADD MLOAD JUMPDEST SWAP1 POP PUSH0 PUSH3 0x15180 PUSH2 0x1A60 DUP4 TIMESTAMP PUSH2 0x4B28 JUMP JUMPDEST PUSH2 0x1A6A SWAP2 SWAP1 PUSH2 0x47C0 JUMP JUMPDEST SWAP1 POP DUP1 PUSH0 SUB PUSH2 0x1A82 JUMPI POP PUSH0 SWAP10 SWAP9 POP POP POP POP POP POP POP POP POP JUMP JUMPDEST PUSH0 PUSH2 0x1A8D DUP3 DUP6 PUSH2 0x4BA4 JUMP JUMPDEST SWAP1 POP PUSH0 PUSH2 0x1A9B DUP7 PUSH1 0x3 PUSH2 0x4BA4 JUMP JUMPDEST SWAP1 POP DUP1 DUP3 DUP12 PUSH2 0x100 ADD MLOAD PUSH2 0x1AAF SWAP2 SWAP1 PUSH2 0x4799 JUMP JUMPDEST GT ISZERO PUSH2 0x1AE5 JUMPI DUP1 DUP11 PUSH2 0x100 ADD MLOAD LT PUSH2 0x1AD2 JUMPI POP PUSH0 SWAP12 SWAP11 POP POP POP POP POP POP POP POP POP POP POP JUMP JUMPDEST PUSH2 0x100 DUP11 ADD MLOAD PUSH2 0x1AE2 SWAP1 DUP3 PUSH2 0x4B28 JUMP JUMPDEST SWAP2 POP JUMPDEST POP SWAP11 SWAP10 POP POP POP POP POP POP POP POP POP POP JUMP JUMPDEST PUSH2 0x1AFC PUSH2 0x1D6B JUMP JUMPDEST PUSH1 0x1 PUSH1 0x1 PUSH1 0xA0 SHL SUB DUP2 AND PUSH2 0x1B2A JUMPI PUSH1 0x40 MLOAD PUSH4 0x1E4FBDF7 PUSH1 0xE0 SHL DUP2 MSTORE PUSH0 PUSH1 0x4 DUP3 ADD MSTORE PUSH1 0x24 ADD JUMPDEST PUSH1 0x40 MLOAD DUP1 SWAP2 SUB SWAP1 REVERT JUMPDEST PUSH2 0x1B33 DUP2 PUSH2 0x1DAB JUMP JUMPDEST POP JUMP JUMPDEST PUSH2 0x1B3E PUSH2 0x1D6B JUMP JUMPDEST PUSH1 0xC DUP1 SLOAD PUSH1 0x1 PUSH1 0x1 PUSH1 0xA0 SHL SUB NOT AND PUSH1 0x1 PUSH1 0x1 PUSH1 0xA0 SHL SUB SWAP3 SWAP1 SWAP3 AND SWAP2 SWAP1 SWAP2 OR SWAP1 SSTORE JUMP JUMPDEST PUSH1 0x1 PUSH1 0x1 PUSH1 0xA0 SHL SUB DUP4 AND PUSH2 0x1B8A JUMPI DUP1 PUSH1 0x2 PUSH0 DUP3 DUP3 SLOAD PUSH2 0x1B7F SWAP2 SWAP1 PUSH2 0x4799 JUMP JUMPDEST SWAP1 SWAP2 SSTORE POP PUSH2 0x1BFA SWAP1 POP JUMP JUMPDEST PUSH1 0x1 PUSH1 0x1 PUSH1 0xA0 SHL SUB DUP4 AND PUSH0 SWAP1 DUP2 MSTORE PUSH1 0x20 DUP2 SWAP1 MSTORE PUSH1 0x40 SWAP1 KECCAK256 SLOAD DUP2 DUP2 LT ISZERO PUSH2 0x1BDC JUMPI PUSH1 0x40 MLOAD PUSH4 0x391434E3 PUSH1 0xE2 SHL DUP2 MSTORE PUSH1 0x1 PUSH1 0x1 PUSH1 0xA0 SHL SUB DUP6 AND PUSH1 0x4 DUP3 ADD MSTORE PUSH1 0x24 DUP2 ADD DUP3 SWAP1 MSTORE PUSH1 0x44 DUP2 ADD DUP4 SWAP1 MSTORE PUSH1 0x64 ADD PUSH2 0x1B21 JUMP JUMPDEST PUSH1 0x1 PUSH1 0x1 PUSH1 0xA0 SHL SUB DUP5 AND PUSH0 SWAP1 DUP2 MSTORE PUSH1 0x20 DUP2 SWAP1 MSTORE PUSH1 0x40 SWAP1 KECCAK256 SWAP1 DUP3 SWAP1 SUB SWAP1 SSTORE JUMPDEST PUSH1 0x1 PUSH1 0x1 PUSH1 0xA0 SHL SUB DUP3 AND PUSH2 0x1C16 JUMPI PUSH1 0x2 DUP1 SLOAD DUP3 SWAP1 SUB SWAP1 SSTORE PUSH2 0x1C34 JUMP JUMPDEST PUSH1 0x1 PUSH1 0x1 PUSH1 0xA0 SHL SUB DUP3 AND PUSH0 SWAP1 DUP2 MSTORE PUSH1 0x20 DUP2 SWAP1 MSTORE PUSH1 0x40 SWAP1 KECCAK256 DUP1 SLOAD DUP3 ADD SWAP1 SSTORE JUMPDEST DUP2 PUSH1 0x1 PUSH1 0x1 PUSH1 0xA0 SHL SUB AND DUP4 PUSH1 0x1 PUSH1 0x1 PUSH1 0xA0 SHL SUB AND PUSH32 0xDDF252AD1BE2C89B69C2B068FC378DAA952BA7F163C4A11628F55A4DF523B3EF DUP4 PUSH1 0x40 MLOAD PUSH2 0x1C79 SWAP2 DUP2 MSTORE PUSH1 0x20 ADD SWAP1 JUMP JUMPDEST PUSH1 0x40 MLOAD DUP1 SWAP2 SUB SWAP1 LOG3 POP POP POP JUMP JUMPDEST PUSH2 0x1C93 DUP4 DUP4 DUP4 PUSH1 0x1 PUSH2 0x1DFC JUMP JUMPDEST POP POP POP JUMP JUMPDEST PUSH1 0x1 PUSH1 0x1 PUSH1 0xA0 SHL SUB DUP4 DUP2 AND PUSH0 SWAP1 DUP2 MSTORE PUSH1 0x1 PUSH1 0x20 SWAP1 DUP2 MSTORE PUSH1 0x40 DUP1 DUP4 KECCAK256 SWAP4 DUP7 AND DUP4 MSTORE SWAP3 SWAP1 MSTORE KECCAK256 SLOAD PUSH0 NOT DUP2 LT ISZERO PUSH2 0x15ED JUMPI DUP2 DUP2 LT ISZERO PUSH2 0x1D00 JUMPI PUSH1 0x40 MLOAD PUSH4 0x7DC7A0D9 PUSH1 0xE1 SHL DUP2 MSTORE PUSH1 0x1 PUSH1 0x1 PUSH1 0xA0 SHL SUB DUP5 AND PUSH1 0x4 DUP3 ADD MSTORE PUSH1 0x24 DUP2 ADD DUP3 SWAP1 MSTORE PUSH1 0x44 DUP2 ADD DUP4 SWAP1 MSTORE PUSH1 0x64 ADD PUSH2 0x1B21 JUMP JUMPDEST PUSH2 0x15ED DUP5 DUP5 DUP5 DUP5 SUB PUSH0 PUSH2 0x1DFC JUMP JUMPDEST PUSH1 0x1 PUSH1 0x1 PUSH1 0xA0 SHL SUB DUP4 AND PUSH2 0x1D37 JUMPI PUSH1 0x40 MLOAD PUSH4 0x4B637E8F PUSH1 0xE1 SHL DUP2 MSTORE PUSH0 PUSH1 0x4 DUP3 ADD MSTORE PUSH1 0x24 ADD PUSH2 0x1B21 JUMP JUMPDEST PUSH1 0x1 PUSH1 0x1 PUSH1 0xA0 SHL SUB DUP3 AND PUSH2 0x1D60 JUMPI PUSH1 0x40 MLOAD PUSH4 0xEC442F05 PUSH1 0xE0 SHL DUP2 MSTORE PUSH0 PUSH1 0x4 DUP3 ADD MSTORE PUSH1 0x24 ADD PUSH2 0x1B21 JUMP JUMPDEST PUSH2 0x1C93 DUP4 DUP4 DUP4 PUSH2 0x1ECE JUMP JUMPDEST PUSH1 0x5 SLOAD PUSH1 0x1 PUSH1 0x1 PUSH1 0xA0 SHL SUB AND CALLER EQ PUSH2 0x1541 JUMPI PUSH1 0x40 MLOAD PUSH4 0x118CDAA7 PUSH1 0xE0 SHL DUP2 MSTORE CALLER PUSH1 0x4 DUP3 ADD MSTORE PUSH1 0x24 ADD PUSH2 0x1B21 JUMP JUMPDEST PUSH1 0x60 PUSH0 PUSH2 0x1DA4 DUP4 PUSH2 0x2B3C JUMP JUMPDEST SWAP4 SWAP3 POP POP POP JUMP JUMPDEST PUSH1 0x5 DUP1 SLOAD PUSH1 0x1 PUSH1 0x1 PUSH1 0xA0 SHL SUB DUP4 DUP2 AND PUSH1 0x1 PUSH1 0x1 PUSH1 0xA0 SHL SUB NOT DUP4 AND DUP2 OR SWAP1 SWAP4 SSTORE PUSH1 0x40 MLOAD SWAP2 AND SWAP2 SWAP1 DUP3 SWAP1 PUSH32 0x8BE0079C531659141344CD1FD0A4F28419497F9722A3DAAFE3B4186F6B6457E0 SWAP1 PUSH0 SWAP1 LOG3 POP POP JUMP JUMPDEST PUSH1 0x1 PUSH1 0x1 PUSH1 0xA0 SHL SUB DUP5 AND PUSH2 0x1E25 JUMPI PUSH1 0x40 MLOAD PUSH4 0xE602DF05 PUSH1 0xE0 SHL DUP2 MSTORE PUSH0 PUSH1 0x4 DUP3 ADD MSTORE PUSH1 0x24 ADD PUSH2 0x1B21 JUMP JUMPDEST PUSH1 0x1 PUSH1 0x1 PUSH1 0xA0 SHL SUB DUP4 AND PUSH2 0x1E4E JUMPI PUSH1 0x40 MLOAD PUSH4 0x4A1406B1 PUSH1 0xE1 SHL DUP2 MSTORE PUSH0 PUSH1 0x4 DUP3 ADD MSTORE PUSH1 0x24 ADD PUSH2 0x1B21 JUMP JUMPDEST PUSH1 0x1 PUSH1 0x1 PUSH1 0xA0 SHL SUB DUP1 DUP6 AND PUSH0 SWAP1 DUP2 MSTORE PUSH1 0x1 PUSH1 0x20 SWAP1 DUP2 MSTORE PUSH1 0x40 DUP1 DUP4 KECCAK256 SWAP4 DUP8 AND DUP4 MSTORE SWAP3 SWAP1 MSTORE KECCAK256 DUP3 SWAP1 SSTORE DUP1 ISZERO PUSH2 0x15ED JUMPI DUP3 PUSH1 0x1 PUSH1 0x1 PUSH1 0xA0 SHL SUB AND DUP5 PUSH1 0x1 PUSH1 0x1 PUSH1 0xA0 SHL SUB AND PUSH32 0x8C5BE1E5EBEC7D5BD14F71427D1E84F3DD0314C0F7B2291E5B200AC8C7C3B925 DUP5 PUSH1 0x40 MLOAD PUSH2 0x1EC0 SWAP2 DUP2 MSTORE PUSH1 0x20 ADD SWAP1 JUMP JUMPDEST PUSH1 0x40 MLOAD DUP1 SWAP2 SUB SWAP1 LOG3 POP POP POP POP JUMP JUMPDEST PUSH8 0x1BC16D674EC80000 DUP2 EQ DUP1 ISZERO PUSH2 0x1F0A JUMPI POP PUSH1 0x1 PUSH1 0x1 PUSH1 0xA0 SHL SUB DUP1 DUP4 AND PUSH0 SWAP1 DUP2 MSTORE PUSH1 0x7 PUSH1 0x20 SWAP1 DUP2 MSTORE PUSH1 0x40 DUP1 DUP4 KECCAK256 SWAP4 DUP8 AND DUP4 MSTORE SWAP3 SWAP1 MSTORE KECCAK256 SLOAD PUSH1 0xFF AND ISZERO JUMPDEST DUP1 ISZERO PUSH2 0x1F1B JUMPI POP PUSH2 0x1F1B DUP4 DUP4 PUSH2 0x1773 JUMP JUMPDEST ISZERO PUSH2 0x1F50 JUMPI PUSH1 0x1 PUSH1 0x1 PUSH1 0xA0 SHL SUB DUP1 DUP5 AND PUSH0 SWAP1 DUP2 MSTORE PUSH1 0x7 PUSH1 0x20 SWAP1 DUP2 MSTORE PUSH1 0x40 DUP1 DUP4 KECCAK256 SWAP4 DUP7 AND DUP4 MSTORE SWAP3 SWAP1 MSTORE KECCAK256 DUP1 SLOAD PUSH1 0xFF NOT AND PUSH1 0x1 OR SWAP1 SSTORE JUMPDEST PUSH8 0xDE0B6B3A7640000 DUP2 EQ DUP1 ISZERO PUSH2 0x1F8B JUMPI POP PUSH1 0x1 PUSH1 0x1 PUSH1 0xA0 SHL SUB DUP1 DUP4 AND PUSH0 SWAP1 DUP2 MSTORE PUSH1 0x7 PUSH1 0x20 SWAP1 DUP2 MSTORE PUSH1 0x40 DUP1 DUP4 KECCAK256 SWAP4 DUP8 AND DUP4 MSTORE SWAP3 SWAP1 MSTORE KECCAK256 SLOAD PUSH1 0xFF AND JUMPDEST DUP1 ISZERO PUSH2 0x1FAE JUMPI POP PUSH1 0x1 PUSH1 0x1 PUSH1 0xA0 SHL SUB DUP4 DUP2 AND PUSH0 SWAP1 DUP2 MSTORE PUSH1 0xA PUSH1 0x20 MSTORE PUSH1 0x40 SWAP1 KECCAK256 SLOAD AND ISZERO JUMPDEST ISZERO PUSH2 0x2036 JUMPI PUSH1 0x1 PUSH1 0x1 PUSH1 0xA0 SHL SUB DUP4 DUP2 AND PUSH0 SWAP1 DUP2 MSTORE PUSH1 0xA PUSH1 0x20 SWAP1 DUP2 MSTORE PUSH1 0x40 DUP1 DUP4 KECCAK256 DUP1 SLOAD PUSH1 0x1 PUSH1 0x1 PUSH1 0xA0 SHL SUB NOT AND SWAP5 DUP8 AND SWAP5 DUP6 OR SWAP1 SSTORE SWAP3 DUP3 MSTORE PUSH1 0x8 SWAP1 MSTORE KECCAK256 PUSH2 0x1FF4 SWAP1 DUP5 PUSH2 0x2B95 JUMP JUMPDEST POP DUP2 PUSH1 0x1 PUSH1 0x1 PUSH1 0xA0 SHL SUB AND DUP4 PUSH1 0x1 PUSH1 0x1 PUSH1 0xA0 SHL SUB AND PUSH32 0x8D63F2E3D39EB6CF9C80D49BC203133F6F215CE2A1A3D27A68F0167F6C045D48 PUSH1 0x40 MLOAD PUSH1 0x40 MLOAD DUP1 SWAP2 SUB SWAP1 LOG3 JUMPDEST PUSH1 0x1 PUSH1 0x1 PUSH1 0xA0 SHL SUB DUP3 AND ADDRESS EQ DUP1 ISZERO PUSH2 0x204D JUMPI POP CALLER ORIGIN EQ JUMPDEST ISZERO PUSH2 0x20DB JUMPI PUSH1 0x1 PUSH1 0x1 PUSH1 0xA0 SHL SUB DUP4 AND PUSH0 SWAP1 DUP2 MSTORE PUSH1 0x1E PUSH1 0x20 MSTORE PUSH1 0x40 SWAP1 KECCAK256 SLOAD PUSH1 0xFF AND ISZERO DUP1 ISZERO PUSH2 0x2083 JUMPI POP PUSH9 0x56BC75E2D63100000 DUP2 LT ISZERO JUMPDEST DUP1 ISZERO PUSH2 0x2099 JUMPI POP PUSH10 0x152D02C7E14AF6800000 DUP2 GT ISZERO JUMPDEST DUP1 ISZERO PUSH2 0x20A8 JUMPI POP PUSH1 0x1F SLOAD PUSH1 0xFF AND ISZERO JUMPDEST DUP1 ISZERO PUSH2 0x20CC JUMPI POP ADDRESS PUSH0 SWAP1 DUP2 MSTORE PUSH1 0x20 DUP2 SWAP1 MSTORE PUSH1 0x40 SWAP1 KECCAK256 SLOAD PUSH10 0x21E19E0C9BAB2400000 GT ISZERO JUMPDEST ISZERO PUSH2 0x20DB JUMPI PUSH2 0x1C93 DUP4 DUP3 PUSH2 0x2BA9 JUMP JUMPDEST PUSH1 0x1 PUSH1 0x1 PUSH1 0xA0 SHL SUB DUP1 DUP5 AND PUSH0 SWAP1 DUP2 MSTORE PUSH1 0xA PUSH1 0x20 SWAP1 DUP2 MSTORE PUSH1 0x40 SWAP2 DUP3 SWAP1 KECCAK256 DUP3 MLOAD PUSH2 0x160 DUP2 ADD DUP5 MSTORE DUP2 SLOAD SWAP1 SWAP5 AND DUP5 MSTORE PUSH1 0x1 DUP2 ADD SLOAD SWAP2 DUP5 ADD SWAP2 SWAP1 SWAP2 MSTORE PUSH1 0x2 DUP2 ADD SLOAD SWAP2 DUP4 ADD SWAP2 SWAP1 SWAP2 MSTORE PUSH1 0x3 DUP2 ADD SLOAD PUSH1 0x60 DUP4 ADD MSTORE PUSH1 0x4 DUP2 ADD SLOAD PUSH1 0x80 DUP4 ADD MSTORE PUSH1 0x5 DUP2 ADD SLOAD PUSH1 0xA0 DUP4 ADD MSTORE PUSH1 0x6 DUP2 ADD SLOAD PUSH1 0xC0 DUP4 ADD MSTORE PUSH1 0x7 DUP2 ADD SLOAD PUSH1 0xE0 DUP4 ADD MSTORE PUSH1 0x8 DUP2 ADD SLOAD PUSH2 0x100 DUP1 DUP5 ADD SWAP2 SWAP1 SWAP2 MSTORE PUSH1 0x9 SWAP1 SWAP2 ADD SLOAD PUSH1 0xFF DUP1 DUP3 AND ISZERO ISZERO PUSH2 0x120 DUP6 ADD MSTORE SWAP2 SWAP1 DIV AND ISZERO ISZERO PUSH2 0x140 DUP3 ADD MSTORE CALLER ORIGIN EQ DUP1 ISZERO PUSH2 0x2190 JUMPI POP DUP1 PUSH2 0x140 ADD MLOAD JUMPDEST DUP1 ISZERO PUSH2 0x219F JUMPI POP PUSH0 DUP2 PUSH1 0x40 ADD MLOAD GT JUMPDEST DUP1 ISZERO PUSH2 0x21B3 JUMPI POP PUSH1 0x1 PUSH1 0x1 PUSH1 0xA0 SHL SUB DUP4 AND ADDRESS EQ JUMPDEST ISZERO PUSH2 0x2487 JUMPI PUSH8 0xDE0B6B3A7640000 DUP3 SUB PUSH2 0x22E7 JUMPI PUSH1 0x11 SLOAD PUSH1 0x1 PUSH1 0xA0 SHL SWAP1 DIV PUSH1 0xFF AND ISZERO PUSH2 0x21F2 JUMPI PUSH1 0x40 MLOAD PUSH4 0x2F352531 PUSH1 0xE0 SHL DUP2 MSTORE PUSH1 0x4 ADD PUSH1 0x40 MLOAD DUP1 SWAP2 SUB SWAP1 REVERT JUMPDEST DUP1 PUSH2 0x120 ADD MLOAD PUSH2 0x2259 JUMPI PUSH1 0x1 PUSH1 0x1 PUSH1 0xA0 SHL SUB DUP5 AND PUSH0 SWAP1 DUP2 MSTORE PUSH1 0xA PUSH1 0x20 MSTORE PUSH1 0x40 SWAP1 KECCAK256 PUSH1 0x9 ADD DUP1 SLOAD PUSH1 0xFF NOT AND PUSH1 0x1 OR SWAP1 SSTORE PUSH2 0x222E TIMESTAMP PUSH3 0x15180 PUSH2 0x4799 JUMP JUMPDEST PUSH1 0x1 PUSH1 0x1 PUSH1 0xA0 SHL SUB DUP6 AND PUSH0 SWAP1 DUP2 MSTORE PUSH1 0xA PUSH1 0x20 MSTORE PUSH1 0x40 SWAP1 KECCAK256 PUSH1 0x3 DUP2 ADD SWAP2 SWAP1 SWAP2 SSTORE TIMESTAMP PUSH1 0x4 SWAP1 SWAP2 ADD SSTORE PUSH2 0x22E7 JUMP JUMPDEST DUP1 PUSH2 0x120 ADD MLOAD DUP1 ISZERO PUSH2 0x226F JUMPI POP DUP1 PUSH1 0x60 ADD MLOAD TIMESTAMP LT ISZERO JUMPDEST ISZERO PUSH2 0x22CE JUMPI PUSH2 0x227D DUP5 PUSH2 0x2D5D JUMP JUMPDEST PUSH2 0x228A TIMESTAMP PUSH3 0x15180 PUSH2 0x4799 JUMP JUMPDEST PUSH1 0x1 PUSH1 0x1 PUSH1 0xA0 SHL SUB DUP6 AND PUSH0 SWAP1 DUP2 MSTORE PUSH1 0xA PUSH1 0x20 MSTORE PUSH1 0x40 SWAP1 KECCAK256 PUSH1 0x3 DUP2 ADD SWAP2 SWAP1 SWAP2 SSTORE TIMESTAMP PUSH1 0x4 SWAP1 SWAP2 ADD SSTORE PUSH2 0x22BB DUP5 DUP5 DUP5 PUSH2 0x1B60 JUMP JUMPDEST PUSH2 0x15ED ADDRESS DUP6 PUSH8 0xDE0B6B3A7640000 PUSH2 0x1B60 JUMP JUMPDEST PUSH1 0x40 MLOAD PUSH4 0x2F352531 PUSH1 0xE0 SHL DUP2 MSTORE PUSH1 0x4 ADD PUSH1 0x40 MLOAD DUP1 SWAP2 SUB SWAP1 REVERT JUMPDEST PUSH8 0x8AC7230489E80000 DUP3 SUB PUSH2 0x247C JUMPI TIMESTAMP PUSH1 0x16 SLOAD LT PUSH2 0x2317 JUMPI PUSH1 0x40 MLOAD PUSH3 0x461BCD PUSH1 0xE5 SHL DUP2 MSTORE PUSH1 0x4 ADD PUSH2 0x1B21 SWAP1 PUSH2 0x4BBB JUMP JUMPDEST PUSH1 0x40 DUP2 ADD MLOAD DUP1 ISZERO PUSH2 0x23E2 JUMPI PUSH0 PUSH2 0x232B PUSH2 0x1543 JUMP JUMPDEST SWAP1 POP DUP1 ISZERO PUSH2 0x2366 JUMPI PUSH0 PUSH1 0x64 DUP3 DUP6 PUSH1 0x40 ADD MLOAD PUSH2 0x2346 SWAP2 SWAP1 PUSH2 0x4BA4 JUMP JUMPDEST PUSH2 0x2350 SWAP2 SWAP1 PUSH2 0x47C0 JUMP JUMPDEST SWAP1 POP DUP1 DUP5 PUSH1 0x40 ADD MLOAD PUSH2 0x2362 SWAP2 SWAP1 PUSH2 0x4B28 JUMP JUMPDEST SWAP3 POP POP JUMPDEST DUP2 ISZERO PUSH2 0x23E0 JUMPI PUSH1 0x6 SLOAD PUSH1 0x40 MLOAD PUSH4 0xA9059CBB PUSH1 0xE0 SHL DUP2 MSTORE PUSH1 0x1 PUSH1 0x1 PUSH1 0xA0 SHL SUB SWAP1 SWAP2 AND SWAP1 PUSH4 0xA9059CBB SWAP1 PUSH2 0x239E SWAP1 DUP10 SWAP1 DUP7 SWAP1 PUSH1 0x4 ADD PUSH2 0x4B52 JUMP JUMPDEST PUSH1 0x20 PUSH1 0x40 MLOAD DUP1 DUP4 SUB DUP2 PUSH0 DUP8 GAS CALL ISZERO DUP1 ISZERO PUSH2 0x23BA JUMPI RETURNDATASIZE PUSH0 PUSH0 RETURNDATACOPY RETURNDATASIZE PUSH0 REVERT JUMPDEST POP POP POP POP PUSH1 0x40 MLOAD RETURNDATASIZE PUSH1 0x1F NOT PUSH1 0x1F DUP3 ADD AND DUP3 ADD DUP1 PUSH1 0x40 MSTORE POP DUP2 ADD SWAP1 PUSH2 0x23DE SWAP2 SWAP1 PUSH2 0x4B6B JUMP JUMPDEST POP JUMPDEST POP JUMPDEST PUSH1 0x1 PUSH1 0x1 PUSH1 0xA0 SHL SUB DUP1 DUP7 AND PUSH0 SWAP1 DUP2 MSTORE PUSH1 0xA PUSH1 0x20 MSTORE PUSH1 0x40 DUP1 DUP3 KECCAK256 PUSH1 0x9 DUP2 ADD DUP1 SLOAD PUSH1 0x2 DUP4 ADD DUP6 SWAP1 SSTORE PUSH1 0x1 DUP4 ADD DUP6 SWAP1 SSTORE PUSH2 0xFFFF NOT AND SWAP1 SSTORE PUSH1 0x4 DUP2 ADD DUP4 SWAP1 SSTORE PUSH1 0x8 ADD DUP3 SWAP1 SSTORE DUP5 MLOAD SWAP1 SWAP3 AND DUP2 MSTORE KECCAK256 PUSH1 0x7 ADD SLOAD ISZERO PUSH2 0x2466 JUMPI DUP2 MLOAD PUSH1 0x1 PUSH1 0x1 PUSH1 0xA0 SHL SUB AND PUSH0 SWAP1 DUP2 MSTORE PUSH1 0xA PUSH1 0x20 MSTORE PUSH1 0x40 DUP2 KECCAK256 PUSH1 0x7 ADD DUP1 SLOAD PUSH1 0x1 SWAP3 SWAP1 PUSH2 0x2460 SWAP1 DUP5 SWAP1 PUSH2 0x4B28 JUMP JUMPDEST SWAP1 SWAP2 SSTORE POP POP JUMPDEST PUSH2 0x2471 DUP6 DUP6 DUP6 PUSH2 0x1B60 JUMP JUMPDEST PUSH2 0x14A5 ADDRESS DUP7 DUP6 PUSH2 0x1B60 JUMP JUMPDEST PUSH2 0x15ED DUP5 DUP5 DUP5 PUSH2 0x1B60 JUMP JUMPDEST PUSH1 0x1 PUSH1 0x1 PUSH1 0xA0 SHL SUB DUP5 AND ADDRESS EQ DUP1 PUSH2 0x24A6 JUMPI POP PUSH1 0x1 PUSH1 0x1 PUSH1 0xA0 SHL SUB DUP4 AND ADDRESS EQ JUMPDEST DUP1 PUSH2 0x24BE JUMPI POP PUSH1 0x11 SLOAD PUSH1 0x1 PUSH1 0x1 PUSH1 0xA0 SHL SUB DUP6 DUP2 AND SWAP2 AND EQ JUMPDEST DUP1 PUSH2 0x24D6 JUMPI POP PUSH1 0x11 SLOAD PUSH1 0x1 PUSH1 0x1 PUSH1 0xA0 SHL SUB DUP5 DUP2 AND SWAP2 AND EQ JUMPDEST ISZERO PUSH2 0x24E6 JUMPI PUSH2 0x15ED DUP5 DUP5 DUP5 PUSH2 0x1B60 JUMP JUMPDEST PUSH1 0x6 SLOAD PUSH1 0x1 PUSH1 0x1 PUSH1 0xA0 SHL SUB SWAP1 DUP2 AND SWAP1 DUP6 AND SUB PUSH2 0x27E0 JUMPI TIMESTAMP PUSH1 0x16 SLOAD LT PUSH2 0x251D JUMPI PUSH1 0x40 MLOAD PUSH3 0x461BCD PUSH1 0xE5 SHL DUP2 MSTORE PUSH1 0x4 ADD PUSH2 0x1B21 SWAP1 PUSH2 0x4BBB JUMP JUMPDEST ORIGIN PUSH0 SWAP1 DUP2 MSTORE PUSH1 0x9 PUSH1 0x20 MSTORE PUSH1 0x40 DUP2 KECCAK256 TIMESTAMP SWAP1 SSTORE PUSH2 0x2536 PUSH2 0x353D JUMP JUMPDEST GT ISZERO PUSH2 0x260C JUMPI PUSH0 PUSH0 PUSH2 0x2546 PUSH2 0x10E9 JUMP JUMPDEST SWAP1 POP PUSH12 0x33B2E3C9FD0803CE8000000 DUP2 LT PUSH2 0x2579 JUMPI PUSH1 0xA PUSH2 0x2568 DUP6 PUSH1 0x9 PUSH2 0x4BA4 JUMP JUMPDEST PUSH2 0x2572 SWAP2 SWAP1 PUSH2 0x47C0 JUMP JUMPDEST SWAP2 POP PUSH2 0x25DB JUMP JUMPDEST PUSH12 0x19D971E4FE8401E74000000 DUP2 LT PUSH2 0x2599 JUMPI PUSH1 0xA PUSH2 0x2568 DUP6 PUSH1 0x6 PUSH2 0x4BA4 JUMP JUMPDEST PUSH11 0x52B7D2DCC80CD2E4000000 DUP2 LT PUSH2 0x25B8 JUMPI PUSH1 0xA PUSH2 0x2568 DUP6 PUSH1 0x4 PUSH2 0x4BA4 JUMP JUMPDEST PUSH11 0x295BE96E64066972000000 DUP2 LT PUSH2 0x25D7 JUMPI PUSH1 0xA PUSH2 0x2568 DUP6 PUSH1 0x2 PUSH2 0x4BA4 JUMP JUMPDEST DUP4 SWAP2 POP JUMPDEST PUSH2 0x25E8 DUP7 PUSH2 0xDEAD DUP5 PUSH2 0x1B60 JUMP JUMPDEST DUP2 DUP5 GT ISZERO PUSH2 0x2604 JUMPI PUSH2 0x2604 DUP7 DUP7 PUSH2 0x25FF DUP6 DUP9 PUSH2 0x4B28 JUMP JUMPDEST PUSH2 0x1B60 JUMP JUMPDEST POP POP POP POP POP POP JUMP JUMPDEST PUSH1 0x64 PUSH2 0x2616 PUSH2 0x1600 JUMP JUMPDEST PUSH2 0x2621 SWAP1 PUSH1 0x5 PUSH2 0x4BA4 JUMP JUMPDEST PUSH2 0x262B SWAP2 SWAP1 PUSH2 0x47C0 JUMP JUMPDEST DUP3 LT PUSH2 0x2665 JUMPI PUSH1 0x40 MLOAD PUSH3 0x461BCD PUSH1 0xE5 SHL DUP2 MSTORE PUSH1 0x20 PUSH1 0x4 DUP3 ADD MSTORE PUSH1 0x9 PUSH1 0x24 DUP3 ADD MSTORE PUSH9 0x36B0BC103A37B5B2B7 PUSH1 0xB9 SHL PUSH1 0x44 DUP3 ADD MSTORE PUSH1 0x64 ADD PUSH2 0x1B21 JUMP JUMPDEST PUSH2 0x266D PUSH2 0x36D2 JUMP JUMPDEST PUSH1 0x1D SLOAD PUSH0 SWAP1 PUSH1 0xFF AND PUSH2 0x2681 JUMPI PUSH2 0x12C PUSH2 0x2685 JUMP JUMPDEST PUSH2 0xB54 JUMPDEST PUSH2 0xFFFF AND SWAP1 POP PUSH0 PUSH2 0x2710 PUSH2 0x2699 DUP4 DUP7 PUSH2 0x4BA4 JUMP JUMPDEST PUSH2 0x26A3 SWAP2 SWAP1 PUSH2 0x47C0 JUMP JUMPDEST SWAP1 POP PUSH0 PUSH2 0x2710 PUSH2 0x26B5 DUP7 PUSH2 0x12C PUSH2 0x4BA4 JUMP JUMPDEST PUSH2 0x26BF SWAP2 SWAP1 PUSH2 0x47C0 JUMP JUMPDEST PUSH1 0x1D SLOAD SWAP1 SWAP2 POP PUSH0 SWAP1 PUSH1 0xFF AND DUP1 ISZERO PUSH2 0x26D5 JUMPI POP DUP2 DUP4 GT JUMPDEST ISZERO PUSH2 0x2725 JUMPI PUSH2 0x26E4 DUP3 DUP5 PUSH2 0x4B28 JUMP JUMPDEST SWAP1 POP PUSH0 PUSH2 0x26F2 PUSH1 0x2 DUP4 PUSH2 0x47C0 JUMP JUMPDEST SWAP1 POP PUSH2 0x26FF DUP10 ADDRESS DUP4 PUSH2 0x1B60 JUMP JUMPDEST PUSH2 0x2709 DUP2 DUP4 PUSH2 0x4B28 JUMP JUMPDEST PUSH1 0x13 PUSH0 DUP3 DUP3 SLOAD PUSH2 0x2719 SWAP2 SWAP1 PUSH2 0x4799 JUMP JUMPDEST SWAP3 POP POP DUP2 SWAP1 SSTORE POP DUP3 SWAP4 POP POP JUMPDEST PUSH0 PUSH1 0xA PUSH2 0x2733 DUP6 PUSH1 0x7 PUSH2 0x4BA4 JUMP JUMPDEST PUSH2 0x273D SWAP2 SWAP1 PUSH2 0x47C0 JUMP JUMPDEST SWAP1 POP DUP1 PUSH1 0x13 PUSH0 DUP3 DUP3 SLOAD PUSH2 0x2750 SWAP2 SWAP1 PUSH2 0x4799 JUMP JUMPDEST SWAP1 SWAP2 SSTORE POP PUSH0 SWAP1 POP PUSH1 0xA PUSH2 0x2764 DUP7 PUSH1 0x1 PUSH2 0x4BA4 JUMP JUMPDEST PUSH2 0x276E SWAP2 SWAP1 PUSH2 0x47C0 JUMP JUMPDEST SWAP1 POP PUSH2 0x277D DUP11 PUSH2 0xDEAD DUP4 PUSH2 0x1B60 JUMP JUMPDEST PUSH0 DUP2 PUSH2 0x2789 DUP5 DUP9 PUSH2 0x4B28 JUMP JUMPDEST PUSH2 0x2793 SWAP2 SWAP1 PUSH2 0x4B28 JUMP JUMPDEST SWAP1 POP DUP1 PUSH1 0x14 PUSH0 DUP3 DUP3 SLOAD PUSH2 0x27A6 SWAP2 SWAP1 PUSH2 0x4799 JUMP JUMPDEST SWAP1 SWAP2 SSTORE POP PUSH2 0x27B7 SWAP1 POP DUP12 ADDRESS DUP6 PUSH2 0x1B60 JUMP JUMPDEST PUSH2 0x27C2 DUP12 ADDRESS DUP4 PUSH2 0x1B60 JUMP JUMPDEST PUSH2 0x27CC DUP5 DUP8 PUSH2 0x4799 JUMP JUMPDEST PUSH2 0x27D6 SWAP1 DUP11 PUSH2 0x4B28 JUMP JUMPDEST SWAP9 POP POP POP POP POP POP POP POP JUMPDEST PUSH1 0x6 SLOAD PUSH1 0x1 PUSH1 0x1 PUSH1 0xA0 SHL SUB SWAP1 DUP2 AND SWAP1 DUP5 AND SUB PUSH2 0x2B34 JUMPI PUSH1 0x1A SLOAD PUSH1 0x1 PUSH1 0xA8 SHL SWAP1 DIV PUSH1 0xFF AND ISZERO PUSH2 0x28DC JUMPI PUSH1 0x6 SLOAD PUSH1 0x40 DUP1 MLOAD PUSH4 0x240BC6B PUSH1 0xE2 SHL DUP2 MSTORE SWAP1 MLOAD PUSH1 0x1 PUSH1 0x1 PUSH1 0xA0 SHL SUB SWAP1 SWAP3 AND SWAP2 PUSH0 SWAP2 DUP3 SWAP2 DUP5 SWAP2 PUSH4 0x902F1AC SWAP2 PUSH1 0x4 DUP1 DUP4 ADD SWAP3 PUSH1 0x60 SWAP3 SWAP2 SWAP1 DUP3 SWAP1 SUB ADD DUP2 DUP7 GAS STATICCALL ISZERO DUP1 ISZERO PUSH2 0x2855 JUMPI RETURNDATASIZE PUSH0 PUSH0 RETURNDATACOPY RETURNDATASIZE PUSH0 REVERT JUMPDEST POP POP POP POP PUSH1 0x40 MLOAD RETURNDATASIZE PUSH1 0x1F NOT PUSH1 0x1F DUP3 ADD AND DUP3 ADD DUP1 PUSH1 0x40 MSTORE POP DUP2 ADD SWAP1 PUSH2 0x2879 SWAP2 SWAP1 PUSH2 0x4ACC JUMP JUMPDEST POP SWAP2 POP SWAP2 POP DUP2 PUSH1 0x1 PUSH1 0x1 PUSH1 0x70 SHL SUB AND PUSH0 EQ DUP1 ISZERO PUSH2 0x289D JUMPI POP PUSH1 0x1 PUSH1 0x1 PUSH1 0x70 SHL SUB DUP2 AND ISZERO JUMPDEST DUP1 ISZERO PUSH2 0x28B2 JUMPI POP PUSH1 0x1A SLOAD PUSH1 0x1 PUSH1 0xA8 SHL SWAP1 DIV PUSH1 0xFF AND JUMPDEST ISZERO PUSH2 0x28D8 JUMPI PUSH1 0x1A DUP1 SLOAD PUSH1 0xFF PUSH1 0xA8 SHL NOT AND SWAP1 SSTORE PUSH2 0x28CF DUP8 DUP8 DUP8 PUSH2 0x1B60 JUMP JUMPDEST POP POP POP POP POP POP POP JUMP JUMPDEST POP POP POP JUMPDEST PUSH2 0x28E7 PUSH1 0xA TIMESTAMP PUSH2 0x4B28 JUMP JUMPDEST ORIGIN PUSH0 SWAP1 DUP2 MSTORE PUSH1 0x9 PUSH1 0x20 MSTORE PUSH1 0x40 SWAP1 KECCAK256 SLOAD LT PUSH2 0x2928 JUMPI PUSH1 0x40 MLOAD PUSH3 0x461BCD PUSH1 0xE5 SHL DUP2 MSTORE PUSH1 0x20 PUSH1 0x4 DUP3 ADD MSTORE PUSH1 0x2 PUSH1 0x24 DUP3 ADD MSTORE PUSH2 0x18D9 PUSH1 0xF2 SHL PUSH1 0x44 DUP3 ADD MSTORE PUSH1 0x64 ADD PUSH2 0x1B21 JUMP JUMPDEST PUSH0 PUSH2 0x2932 DUP4 PUSH2 0x3931 JUMP JUMPDEST GT PUSH2 0x2B34 JUMPI TIMESTAMP PUSH1 0x16 SLOAD LT PUSH2 0x2958 JUMPI PUSH1 0x40 MLOAD PUSH3 0x461BCD PUSH1 0xE5 SHL DUP2 MSTORE PUSH1 0x4 ADD PUSH2 0x1B21 SWAP1 PUSH2 0x4BBB JUMP JUMPDEST PUSH1 0x64 PUSH2 0x2962 PUSH2 0x1600 JUMP JUMPDEST PUSH2 0x296D SWAP1 PUSH1 0xA PUSH2 0x4BA4 JUMP JUMPDEST PUSH2 0x2977 SWAP2 SWAP1 PUSH2 0x47C0 JUMP JUMPDEST DUP3 LT PUSH2 0x29B1 JUMPI PUSH1 0x40 MLOAD PUSH3 0x461BCD PUSH1 0xE5 SHL DUP2 MSTORE PUSH1 0x20 PUSH1 0x4 DUP3 ADD MSTORE PUSH1 0x9 PUSH1 0x24 DUP3 ADD MSTORE PUSH9 0x36B0BC103A37B5B2B7 PUSH1 0xB9 SHL PUSH1 0x44 DUP3 ADD MSTORE PUSH1 0x64 ADD PUSH2 0x1B21 JUMP JUMPDEST PUSH2 0x29B9 PUSH2 0x36D2 JUMP JUMPDEST PUSH1 0x1D SLOAD PUSH0 SWAP1 PUSH1 0xFF AND PUSH2 0x29CD JUMPI PUSH2 0x12C PUSH2 0x29D1 JUMP JUMPDEST PUSH2 0xB54 JUMPDEST PUSH2 0xFFFF AND SWAP1 POP PUSH0 PUSH2 0x2710 PUSH2 0x29E5 DUP4 DUP7 PUSH2 0x4BA4 JUMP JUMPDEST PUSH2 0x29EF SWAP2 SWAP1 PUSH2 0x47C0 JUMP JUMPDEST SWAP1 POP PUSH0 PUSH2 0x2710 PUSH2 0x2A01 DUP7 PUSH2 0x12C PUSH2 0x4BA4 JUMP JUMPDEST PUSH2 0x2A0B SWAP2 SWAP1 PUSH2 0x47C0 JUMP JUMPDEST PUSH1 0x1D SLOAD SWAP1 SWAP2 POP PUSH0 SWAP1 PUSH1 0xFF AND DUP1 ISZERO PUSH2 0x2A21 JUMPI POP DUP2 DUP4 GT JUMPDEST ISZERO PUSH2 0x2A71 JUMPI PUSH2 0x2A30 DUP3 DUP5 PUSH2 0x4B28 JUMP JUMPDEST SWAP1 POP PUSH0 PUSH2 0x2A3E PUSH1 0x2 DUP4 PUSH2 0x47C0 JUMP JUMPDEST SWAP1 POP PUSH2 0x2A4B DUP10 ADDRESS DUP4 PUSH2 0x1B60 JUMP JUMPDEST PUSH2 0x2A55 DUP2 DUP4 PUSH2 0x4B28 JUMP JUMPDEST PUSH1 0x13 PUSH0 DUP3 DUP3 SLOAD PUSH2 0x2A65 SWAP2 SWAP1 PUSH2 0x4799 JUMP JUMPDEST SWAP3 POP POP DUP2 SWAP1 SSTORE POP DUP3 SWAP4 POP POP JUMPDEST PUSH0 PUSH1 0xA PUSH2 0x2A7F DUP6 PUSH1 0x7 PUSH2 0x4BA4 JUMP JUMPDEST PUSH2 0x2A89 SWAP2 SWAP1 PUSH2 0x47C0 JUMP JUMPDEST SWAP1 POP DUP1 PUSH1 0x13 PUSH0 DUP3 DUP3 SLOAD PUSH2 0x2A9C SWAP2 SWAP1 PUSH2 0x4799 JUMP JUMPDEST SWAP1 SWAP2 SSTORE POP PUSH0 SWAP1 POP PUSH1 0xA PUSH2 0x2AB0 DUP7 PUSH1 0x1 PUSH2 0x4BA4 JUMP JUMPDEST PUSH2 0x2ABA SWAP2 SWAP1 PUSH2 0x47C0 JUMP JUMPDEST SWAP1 POP PUSH2 0x2AC9 DUP11 PUSH2 0xDEAD DUP4 PUSH2 0x1B60 JUMP JUMPDEST PUSH0 DUP2 PUSH2 0x2AD5 DUP5 DUP9 PUSH2 0x4B28 JUMP JUMPDEST PUSH2 0x2ADF SWAP2 SWAP1 PUSH2 0x4B28 JUMP JUMPDEST SWAP1 POP DUP1 PUSH1 0x14 PUSH0 DUP3 DUP3 SLOAD PUSH2 0x2AF2 SWAP2 SWAP1 PUSH2 0x4799 JUMP JUMPDEST SWAP1 SWAP2 SSTORE POP PUSH2 0x2B03 SWAP1 POP DUP12 ADDRESS DUP6 PUSH2 0x1B60 JUMP JUMPDEST PUSH2 0x2B0E DUP12 ADDRESS DUP4 PUSH2 0x1B60 JUMP JUMPDEST PUSH2 0x2B18 DUP5 DUP8 PUSH2 0x4799 JUMP JUMPDEST PUSH2 0x2B22 SWAP1 DUP11 PUSH2 0x4B28 JUMP JUMPDEST SWAP9 POP PUSH2 0x2B2C PUSH2 0x3B46 JUMP JUMPDEST POP POP POP POP POP POP POP JUMPDEST PUSH2 0x247C PUSH2 0x132C JUMP JUMPDEST PUSH1 0x60 DUP2 PUSH0 ADD DUP1 SLOAD DUP1 PUSH1 0x20 MUL PUSH1 0x20 ADD PUSH1 0x40 MLOAD SWAP1 DUP2 ADD PUSH1 0x40 MSTORE DUP1 SWAP3 SWAP2 SWAP1 DUP2 DUP2 MSTORE PUSH1 0x20 ADD DUP3 DUP1 SLOAD DUP1 ISZERO PUSH2 0x2B89 JUMPI PUSH1 0x20 MUL DUP3 ADD SWAP2 SWAP1 PUSH0 MSTORE PUSH1 0x20 PUSH0 KECCAK256 SWAP1 JUMPDEST DUP2 SLOAD DUP2 MSTORE PUSH1 0x20 ADD SWAP1 PUSH1 0x1 ADD SWAP1 DUP1 DUP4 GT PUSH2 0x2B75 JUMPI JUMPDEST POP POP POP POP POP SWAP1 POP SWAP2 SWAP1 POP JUMP JUMPDEST PUSH0 PUSH2 0x1DA4 DUP4 PUSH1 0x1 PUSH1 0x1 PUSH1 0xA0 SHL SUB DUP5 AND PUSH2 0x3E50 JUMP JUMPDEST PUSH0 PUSH2 0x2BB5 PUSH1 0xA DUP4 PUSH2 0x4BDE JUMP JUMPDEST SWAP1 POP PUSH0 PUSH2 0x2BC3 PUSH1 0x2 DUP4 PUSH2 0x4BDE JUMP JUMPDEST ISZERO SWAP1 POP PUSH0 PUSH2 0x2BD2 PUSH1 0x1 NUMBER PUSH2 0x4B28 JUMP JUMPDEST BLOCKHASH SWAP1 POP DUP1 PUSH2 0x2BE9 JUMPI PUSH2 0x2BE5 PUSH1 0x2 NUMBER PUSH2 0x4B28 JUMP JUMPDEST BLOCKHASH SWAP1 POP JUMPDEST PUSH1 0xFF DUP2 AND PUSH0 PUSH2 0x2BF9 PUSH1 0xA DUP4 PUSH2 0x4BF1 JUMP JUMPDEST SWAP1 POP PUSH0 PUSH2 0x2C07 PUSH1 0x2 DUP4 PUSH2 0x4BF1 JUMP JUMPDEST PUSH1 0xFF AND ISZERO SWAP1 POP DUP5 ISZERO ISZERO DUP2 EQ PUSH0 PUSH2 0x2C1E DUP10 PUSH1 0x2 PUSH2 0x4BA4 JUMP JUMPDEST SWAP1 POP PUSH2 0x2C2B DUP11 ADDRESS DUP12 PUSH2 0x1B60 JUMP JUMPDEST DUP2 ISZERO PUSH2 0x2D0A JUMPI ADDRESS PUSH0 SWAP1 DUP2 MSTORE PUSH1 0x20 DUP2 SWAP1 MSTORE PUSH1 0x40 SWAP1 KECCAK256 SLOAD DUP2 DUP2 LT PUSH2 0x2C9E JUMPI PUSH2 0x2C52 ADDRESS DUP13 DUP5 PUSH2 0x1B60 JUMP JUMPDEST PUSH1 0x40 DUP1 MLOAD DUP12 DUP2 MSTORE PUSH1 0x20 DUP2 ADD DUP5 SWAP1 MSTORE PUSH1 0x1 SWAP2 PUSH1 0x1 PUSH1 0x1 PUSH1 0xA0 SHL SUB DUP15 AND SWAP2 PUSH32 0x4DAB1356CD0582FEB480A4C99E95BB70C5D60B9B3F27D2CD27F5CCC64E6583E0 SWAP2 ADD PUSH1 0x40 MLOAD DUP1 SWAP2 SUB SWAP1 LOG3 PUSH2 0x2D04 JUMP JUMPDEST DUP1 ISZERO PUSH2 0x2CAF JUMPI PUSH2 0x2CAF ADDRESS DUP13 DUP4 PUSH2 0x1B60 JUMP JUMPDEST PUSH1 0x1F DUP1 SLOAD PUSH1 0xFF NOT AND PUSH1 0x1 SWAP1 DUP2 OR SWAP1 SWAP2 SSTORE PUSH1 0x40 DUP1 MLOAD DUP13 DUP2 MSTORE PUSH1 0x20 DUP2 ADD DUP5 SWAP1 MSTORE PUSH1 0x1 PUSH1 0x1 PUSH1 0xA0 SHL SUB DUP15 AND SWAP2 PUSH32 0x4DAB1356CD0582FEB480A4C99E95BB70C5D60B9B3F27D2CD27F5CCC64E6583E0 SWAP2 ADD PUSH1 0x40 MLOAD DUP1 SWAP2 SUB SWAP1 LOG3 JUMPDEST POP PUSH2 0x2D51 JUMP JUMPDEST PUSH1 0x40 DUP1 MLOAD DUP11 DUP2 MSTORE PUSH0 PUSH1 0x20 DUP3 ADD DUP2 SWAP1 MSTORE SWAP2 PUSH1 0x1 PUSH1 0x1 PUSH1 0xA0 SHL SUB DUP14 AND SWAP2 PUSH32 0x4DAB1356CD0582FEB480A4C99E95BB70C5D60B9B3F27D2CD27F5CCC64E6583E0 SWAP2 ADD PUSH1 0x40 MLOAD DUP1 SWAP2 SUB SWAP1 LOG3 JUMPDEST POP POP POP POP POP POP POP POP POP POP JUMP JUMPDEST PUSH1 0x1 PUSH1 0x1 PUSH1 0xA0 SHL SUB DUP1 DUP3 AND PUSH0 SWAP1 DUP2 MSTORE PUSH1 0xA PUSH1 0x20 SWAP1 DUP2 MSTORE PUSH1 0x40 SWAP2 DUP3 SWAP1 KECCAK256 DUP3 MLOAD PUSH2 0x160 DUP2 ADD DUP5 MSTORE DUP2 SLOAD SWAP1 SWAP5 AND DUP5 MSTORE PUSH1 0x1 DUP2 ADD SLOAD SWAP2 DUP5 ADD SWAP2 SWAP1 SWAP2 MSTORE PUSH1 0x2 DUP2 ADD SLOAD SWAP2 DUP4 ADD SWAP2 SWAP1 SWAP2 MSTORE PUSH1 0x3 DUP2 ADD SLOAD PUSH1 0x60 DUP4 ADD MSTORE PUSH1 0x4 DUP2 ADD SLOAD PUSH1 0x80 DUP4 ADD MSTORE PUSH1 0x5 DUP2 ADD SLOAD PUSH1 0xA0 DUP4 ADD MSTORE PUSH1 0x6 DUP2 ADD SLOAD PUSH1 0xC0 DUP4 ADD MSTORE PUSH1 0x7 DUP2 ADD SLOAD PUSH1 0xE0 DUP4 ADD MSTORE PUSH1 0x8 DUP2 ADD SLOAD PUSH2 0x100 DUP1 DUP5 ADD SWAP2 SWAP1 SWAP2 MSTORE PUSH1 0x9 SWAP1 SWAP2 ADD SLOAD PUSH1 0xFF DUP1 DUP3 AND ISZERO ISZERO PUSH2 0x120 DUP6 ADD MSTORE SWAP2 SWAP1 DIV AND ISZERO ISZERO PUSH2 0x140 DUP3 ADD DUP2 SWAP1 MSTORE PUSH2 0x2E45 JUMPI PUSH1 0x40 MLOAD PUSH3 0x461BCD PUSH1 0xE5 SHL DUP2 MSTORE PUSH1 0x20 PUSH1 0x4 DUP3 ADD MSTORE PUSH1 0x13 PUSH1 0x24 DUP3 ADD MSTORE PUSH19 0x155CD95C881A185CC81B9BDD08189BDD59DA1D PUSH1 0x6A SHL PUSH1 0x44 DUP3 ADD MSTORE PUSH1 0x64 ADD PUSH2 0x1B21 JUMP JUMPDEST DUP1 PUSH2 0x120 ADD MLOAD PUSH2 0x2E97 JUMPI PUSH1 0x40 MLOAD PUSH3 0x461BCD PUSH1 0xE5 SHL DUP2 MSTORE PUSH1 0x20 PUSH1 0x4 DUP3 ADD MSTORE PUSH1 0x1B PUSH1 0x24 DUP3 ADD MSTORE PUSH32 0x53746174696320726577617264206E6F7420617661696C61626C650000000000 PUSH1 0x44 DUP3 ADD MSTORE PUSH1 0x64 ADD PUSH2 0x1B21 JUMP JUMPDEST PUSH0 PUSH2 0x2EA1 DUP4 PUSH2 0x18E5 JUMP JUMPDEST SWAP1 POP PUSH0 DUP2 GT PUSH2 0x2F18 JUMPI PUSH1 0x40 MLOAD PUSH3 0x461BCD PUSH1 0xE5 SHL DUP2 MSTORE PUSH1 0x20 PUSH1 0x4 DUP3 ADD MSTORE PUSH1 0x39 PUSH1 0x24 DUP3 ADD MSTORE PUSH32 0x4E6F207374617469632072657761726420617661696C61626C65206F72206361 PUSH1 0x44 DUP3 ADD MSTORE PUSH32 0x702072656163686564206F722074696D65206578706972656400000000000000 PUSH1 0x64 DUP3 ADD MSTORE PUSH1 0x84 ADD PUSH2 0x1B21 JUMP JUMPDEST PUSH0 PUSH0 PUSH0 PUSH2 0x2F23 PUSH2 0x14DE JUMP JUMPDEST PUSH1 0x20 DUP10 ADD MLOAD SWAP3 SWAP7 POP SWAP1 SWAP5 POP SWAP3 POP SWAP1 POP PUSH0 PUSH3 0x186A0 PUSH2 0x2F41 DUP7 DUP5 PUSH2 0x4BA4 JUMP JUMPDEST PUSH2 0x2F4B SWAP2 SWAP1 PUSH2 0x47C0 JUMP JUMPDEST SWAP1 POP PUSH0 PUSH3 0x186A0 PUSH2 0x2F5C DUP7 DUP6 PUSH2 0x4BA4 JUMP JUMPDEST PUSH2 0x2F66 SWAP2 SWAP1 PUSH2 0x47C0 JUMP JUMPDEST SWAP1 POP PUSH0 PUSH3 0x186A0 PUSH2 0x2F77 DUP7 DUP7 PUSH2 0x4BA4 JUMP JUMPDEST PUSH2 0x2F81 SWAP2 SWAP1 PUSH2 0x47C0 JUMP JUMPDEST SWAP1 POP PUSH0 DUP2 DUP4 PUSH2 0x2F90 DUP7 DUP13 PUSH2 0x4799 JUMP JUMPDEST PUSH2 0x2F9A SWAP2 SWAP1 PUSH2 0x4799 JUMP JUMPDEST PUSH2 0x2FA4 SWAP2 SWAP1 PUSH2 0x4799 JUMP JUMPDEST SWAP1 POP PUSH0 PUSH2 0x2FB0 DUP3 PUSH2 0x3E9C JUMP JUMPDEST SWAP1 POP PUSH2 0x2FBA PUSH2 0x4767 JUMP JUMPDEST PUSH2 0x2FC3 DUP3 PUSH2 0x3FD8 JUMP JUMPDEST DUP1 DUP3 MSTORE DUP4 SWAP1 PUSH2 0x2FD3 SWAP1 DUP14 SWAP1 PUSH2 0x4BA4 JUMP JUMPDEST PUSH2 0x2FDD SWAP2 SWAP1 PUSH2 0x47C0 JUMP JUMPDEST DUP2 PUSH1 0x1 PUSH1 0x20 MUL ADD MSTORE PUSH1 0x6 SLOAD PUSH1 0x1 PUSH1 0x1 PUSH1 0xA0 SHL SUB AND PUSH4 0xA9059CBB DUP15 DUP4 PUSH1 0x1 PUSH1 0x20 MUL ADD MLOAD PUSH1 0x40 MLOAD DUP4 PUSH4 0xFFFFFFFF AND PUSH1 0xE0 SHL DUP2 MSTORE PUSH1 0x4 ADD PUSH2 0x301C SWAP3 SWAP2 SWAP1 PUSH2 0x4B52 JUMP JUMPDEST PUSH1 0x20 PUSH1 0x40 MLOAD DUP1 DUP4 SUB DUP2 PUSH0 DUP8 GAS CALL ISZERO DUP1 ISZERO PUSH2 0x3038 JUMPI RETURNDATASIZE PUSH0 PUSH0 RETURNDATACOPY RETURNDATASIZE PUSH0 REVERT JUMPDEST POP POP POP POP PUSH1 0x40 MLOAD RETURNDATASIZE PUSH1 0x1F NOT PUSH1 0x1F DUP3 ADD AND DUP3 ADD DUP1 PUSH1 0x40 MSTORE POP DUP2 ADD SWAP1 PUSH2 0x305C SWAP2 SWAP1 PUSH2 0x4B6B JUMP JUMPDEST POP PUSH2 0x306E DUP14 DUP3 PUSH1 0x1 PUSH1 0x20 MUL ADD MLOAD PUSH2 0x43BD JUMP JUMPDEST PUSH1 0x40 DUP3 ADD MSTORE DUP1 MLOAD DUP4 SWAP1 PUSH2 0x3082 SWAP1 DUP8 SWAP1 PUSH2 0x4BA4 JUMP JUMPDEST PUSH2 0x308C SWAP2 SWAP1 PUSH2 0x47C0 JUMP JUMPDEST PUSH1 0x60 DUP3 ADD MSTORE PUSH1 0xD SLOAD PUSH1 0x1 PUSH1 0x1 PUSH1 0xA0 SHL SUB AND ISZERO DUP1 ISZERO SWAP1 PUSH2 0x30B5 JUMPI POP PUSH1 0xE SLOAD PUSH1 0x1 PUSH1 0x1 PUSH1 0xA0 SHL SUB AND ISZERO ISZERO JUMPDEST ISZERO PUSH2 0x32AF JUMPI PUSH0 PUSH1 0xA DUP3 PUSH1 0x3 PUSH1 0x20 MUL ADD MLOAD PUSH2 0x30D0 SWAP1 PUSH1 0x7 PUSH2 0x4BA4 JUMP JUMPDEST PUSH2 0x30DA SWAP2 SWAP1 PUSH2 0x47C0 JUMP JUMPDEST SWAP1 POP PUSH0 DUP2 DUP4 PUSH1 0x3 PUSH1 0x20 MUL ADD MLOAD PUSH2 0x30F0 SWAP2 SWAP1 PUSH2 0x4B28 JUMP JUMPDEST SWAP1 POP PUSH1 0x17 SLOAD TIMESTAMP LT ISZERO PUSH2 0x3181 JUMPI PUSH1 0x6 SLOAD PUSH1 0xE SLOAD PUSH1 0x1 PUSH1 0x1 PUSH1 0xA0 SHL SUB SWAP2 DUP3 AND SWAP2 PUSH4 0xA9059CBB SWAP2 AND DUP6 PUSH1 0x3 JUMPDEST PUSH1 0x20 MUL ADD MLOAD PUSH1 0x40 MLOAD DUP4 PUSH4 0xFFFFFFFF AND PUSH1 0xE0 SHL DUP2 MSTORE PUSH1 0x4 ADD PUSH2 0x313B SWAP3 SWAP2 SWAP1 PUSH2 0x4B52 JUMP JUMPDEST PUSH1 0x20 PUSH1 0x40 MLOAD DUP1 DUP4 SUB DUP2 PUSH0 DUP8 GAS CALL ISZERO DUP1 ISZERO PUSH2 0x3157 JUMPI RETURNDATASIZE PUSH0 PUSH0 RETURNDATACOPY RETURNDATASIZE PUSH0 REVERT JUMPDEST POP POP POP POP PUSH1 0x40 MLOAD RETURNDATASIZE PUSH1 0x1F NOT PUSH1 0x1F DUP3 ADD AND DUP3 ADD DUP1 PUSH1 0x40 MSTORE POP DUP2 ADD SWAP1 PUSH2 0x317B SWAP2 SWAP1 PUSH2 0x4B6B JUMP JUMPDEST POP PUSH2 0x32A8 JUMP JUMPDEST PUSH1 0x17 SLOAD PUSH2 0x3191 SWAP1 PUSH3 0x278D00 PUSH2 0x4799 JUMP JUMPDEST TIMESTAMP LT ISZERO PUSH2 0x31B9 JUMPI PUSH1 0x6 SLOAD PUSH1 0xE SLOAD PUSH1 0x1 PUSH1 0x1 PUSH1 0xA0 SHL SUB SWAP2 DUP3 AND SWAP2 PUSH4 0xA9059CBB SWAP2 AND DUP6 PUSH1 0x3 PUSH2 0x3119 JUMP JUMPDEST PUSH1 0x6 SLOAD PUSH1 0xD SLOAD PUSH1 0x40 MLOAD PUSH4 0xA9059CBB PUSH1 0xE0 SHL DUP2 MSTORE PUSH1 0x1 PUSH1 0x1 PUSH1 0xA0 SHL SUB SWAP3 DUP4 AND SWAP3 PUSH4 0xA9059CBB SWAP3 PUSH2 0x31EF SWAP3 SWAP2 AND SWAP1 DUP7 SWAP1 PUSH1 0x4 ADD PUSH2 0x4B52 JUMP JUMPDEST PUSH1 0x20 PUSH1 0x40 MLOAD DUP1 DUP4 SUB DUP2 PUSH0 DUP8 GAS CALL ISZERO DUP1 ISZERO PUSH2 0x320B JUMPI RETURNDATASIZE PUSH0 PUSH0 RETURNDATACOPY RETURNDATASIZE PUSH0 REVERT JUMPDEST POP POP POP POP PUSH1 0x40 MLOAD RETURNDATASIZE PUSH1 0x1F NOT PUSH1 0x1F DUP3 ADD AND DUP3 ADD DUP1 PUSH1 0x40 MSTORE POP DUP2 ADD SWAP1 PUSH2 0x322F SWAP2 SWAP1 PUSH2 0x4B6B JUMP JUMPDEST POP PUSH1 0x6 SLOAD PUSH1 0xE SLOAD PUSH1 0x40 MLOAD PUSH4 0xA9059CBB PUSH1 0xE0 SHL DUP2 MSTORE PUSH1 0x1 PUSH1 0x1 PUSH1 0xA0 SHL SUB SWAP3 DUP4 AND SWAP3 PUSH4 0xA9059CBB SWAP3 PUSH2 0x3266 SWAP3 SWAP2 AND SWAP1 DUP6 SWAP1 PUSH1 0x4 ADD PUSH2 0x4B52 JUMP JUMPDEST PUSH1 0x20 PUSH1 0x40 MLOAD DUP1 DUP4 SUB DUP2 PUSH0 DUP8 GAS CALL ISZERO DUP1 ISZERO PUSH2 0x3282 JUMPI RETURNDATASIZE PUSH0 PUSH0 RETURNDATACOPY RETURNDATASIZE PUSH0 REVERT JUMPDEST POP POP POP POP PUSH1 0x40 MLOAD RETURNDATASIZE PUSH1 0x1F NOT PUSH1 0x1F DUP3 ADD AND DUP3 ADD DUP1 PUSH1 0x40 MSTORE POP DUP2 ADD SWAP1 PUSH2 0x32A6 SWAP2 SWAP1 PUSH2 0x4B6B JUMP JUMPDEST POP JUMPDEST POP POP PUSH2 0x332A JUMP JUMPDEST PUSH1 0x6 SLOAD PUSH1 0xC SLOAD PUSH1 0x60 DUP4 ADD MLOAD PUSH1 0x40 MLOAD PUSH4 0xA9059CBB PUSH1 0xE0 SHL DUP2 MSTORE PUSH1 0x1 PUSH1 0x1 PUSH1 0xA0 SHL SUB SWAP4 DUP5 AND SWAP4 PUSH4 0xA9059CBB SWAP4 PUSH2 0x32E8 SWAP4 SWAP2 AND SWAP2 PUSH1 0x4 ADD PUSH2 0x4B52 JUMP JUMPDEST PUSH1 0x20 PUSH1 0x40 MLOAD DUP1 DUP4 SUB DUP2 PUSH0 DUP8 GAS CALL ISZERO DUP1 ISZERO PUSH2 0x3304 JUMPI RETURNDATASIZE PUSH0 PUSH0 RETURNDATACOPY RETURNDATASIZE PUSH0 REVERT JUMPDEST POP POP POP POP PUSH1 0x40 MLOAD RETURNDATASIZE PUSH1 0x1F NOT PUSH1 0x1F DUP3 ADD AND DUP3 ADD DUP1 PUSH1 0x40 MSTORE POP DUP2 ADD SWAP1 PUSH2 0x3328 SWAP2 SWAP1 PUSH2 0x4B6B JUMP JUMPDEST POP JUMPDEST PUSH1 0xC PUSH0 SWAP1 SLOAD SWAP1 PUSH2 0x100 EXP SWAP1 DIV PUSH1 0x1 PUSH1 0x1 PUSH1 0xA0 SHL SUB AND PUSH1 0x1 PUSH1 0x1 PUSH1 0xA0 SHL SUB AND PUSH4 0xC33FB877 PUSH1 0x40 MLOAD DUP2 PUSH4 0xFFFFFFFF AND PUSH1 0xE0 SHL DUP2 MSTORE PUSH1 0x4 ADD PUSH0 PUSH1 0x40 MLOAD DUP1 DUP4 SUB DUP2 PUSH0 DUP8 DUP1 EXTCODESIZE ISZERO DUP1 ISZERO PUSH2 0x3376 JUMPI PUSH0 PUSH0 REVERT JUMPDEST POP GAS CALL SWAP3 POP POP POP DUP1 ISZERO PUSH2 0x3387 JUMPI POP PUSH1 0x1 JUMPDEST POP DUP1 MLOAD DUP4 SWAP1 PUSH2 0x3397 SWAP1 DUP7 SWAP1 PUSH2 0x4BA4 JUMP JUMPDEST PUSH2 0x33A1 SWAP2 SWAP1 PUSH2 0x47C0 JUMP JUMPDEST PUSH1 0x80 DUP3 ADD DUP2 SWAP1 MSTORE PUSH1 0x6 SLOAD PUSH1 0x19 SLOAD PUSH1 0x40 MLOAD PUSH4 0xA9059CBB PUSH1 0xE0 SHL DUP2 MSTORE PUSH1 0x1 PUSH1 0x1 PUSH1 0xA0 SHL SUB SWAP3 DUP4 AND SWAP4 PUSH4 0xA9059CBB SWAP4 PUSH2 0x33DB SWAP4 AND SWAP2 PUSH1 0x4 ADD PUSH2 0x4B52 JUMP JUMPDEST PUSH1 0x20 PUSH1 0x40 MLOAD DUP1 DUP4 SUB DUP2 PUSH0 DUP8 GAS CALL ISZERO DUP1 ISZERO PUSH2 0x33F7 JUMPI RETURNDATASIZE PUSH0 PUSH0 RETURNDATACOPY RETURNDATASIZE PUSH0 REVERT JUMPDEST POP POP POP POP PUSH1 0x40 MLOAD RETURNDATASIZE PUSH1 0x1F NOT PUSH1 0x1F DUP3 ADD AND DUP3 ADD DUP1 PUSH1 0x40 MSTORE POP DUP2 ADD SWAP1 PUSH2 0x341B SWAP2 SWAP1 PUSH2 0x4B6B JUMP JUMPDEST POP PUSH1 0x80 DUP2 ADD MLOAD PUSH1 0x60 DUP3 ADD MLOAD PUSH1 0x40 DUP4 ADD MLOAD PUSH1 0x20 DUP5 ADD MLOAD DUP5 MLOAD PUSH2 0x343C SWAP2 SWAP1 PUSH2 0x4B28 JUMP JUMPDEST PUSH2 0x3446 SWAP2 SWAP1 PUSH2 0x4B28 JUMP JUMPDEST PUSH2 0x3450 SWAP2 SWAP1 PUSH2 0x4B28 JUMP JUMPDEST PUSH2 0x345A SWAP2 SWAP1 PUSH2 0x4B28 JUMP JUMPDEST PUSH1 0xA0 DUP3 ADD DUP2 SWAP1 MSTORE ISZERO PUSH2 0x34E1 JUMPI PUSH1 0x6 SLOAD PUSH1 0x19 SLOAD PUSH1 0xA0 DUP4 ADD MLOAD PUSH1 0x40 MLOAD PUSH4 0xA9059CBB PUSH1 0xE0 SHL DUP2 MSTORE PUSH1 0x1 PUSH1 0x1 PUSH1 0xA0 SHL SUB SWAP4 DUP5 AND SWAP4 PUSH4 0xA9059CBB SWAP4 PUSH2 0x349F SWAP4 SWAP2 AND SWAP2 PUSH1 0x4 ADD PUSH2 0x4B52 JUMP JUMPDEST PUSH1 0x20 PUSH1 0x40 MLOAD DUP1 DUP4 SUB DUP2 PUSH0 DUP8 GAS CALL ISZERO DUP1 ISZERO PUSH2 0x34BB JUMPI RETURNDATASIZE PUSH0 PUSH0 RETURNDATACOPY RETURNDATASIZE PUSH0 REVERT JUMPDEST POP POP POP POP PUSH1 0x40 MLOAD RETURNDATASIZE PUSH1 0x1F NOT PUSH1 0x1F DUP3 ADD AND DUP3 ADD DUP1 PUSH1 0x40 MSTORE POP DUP2 ADD SWAP1 PUSH2 0x34DF SWAP2 SWAP1 PUSH2 0x4B6B JUMP JUMPDEST POP JUMPDEST PUSH1 0x1 PUSH1 0x1 PUSH1 0xA0 SHL SUB DUP14 AND PUSH0 SWAP1 DUP2 MSTORE PUSH1 0xA PUSH1 0x20 MSTORE PUSH1 0x40 DUP2 KECCAK256 PUSH1 0x8 ADD DUP1 SLOAD DUP14 SWAP3 SWAP1 PUSH2 0x350B SWAP1 DUP5 SWAP1 PUSH2 0x4799 JUMP JUMPDEST SWAP1 SWAP2 SSTORE POP POP POP PUSH1 0x1 PUSH1 0x1 PUSH1 0xA0 SHL SUB SWAP1 SWAP12 AND PUSH0 SWAP1 DUP2 MSTORE PUSH1 0xA PUSH1 0x20 MSTORE PUSH1 0x40 SWAP1 KECCAK256 TIMESTAMP PUSH1 0x4 SWAP1 SWAP2 ADD SSTORE POP POP POP POP POP POP POP POP POP POP POP JUMP JUMPDEST PUSH0 PUSH0 PUSH1 0x6 PUSH0 SWAP1 SLOAD SWAP1 PUSH2 0x100 EXP SWAP1 DIV PUSH1 0x1 PUSH1 0x1 PUSH1 0xA0 SHL SUB AND PUSH1 0x1 PUSH1 0x1 PUSH1 0xA0 SHL SUB AND PUSH4 0x902F1AC PUSH1 0x40 MLOAD DUP2 PUSH4 0xFFFFFFFF AND PUSH1 0xE0 SHL DUP2 MSTORE PUSH1 0x4 ADD PUSH1 0x60 PUSH1 0x40 MLOAD DUP1 DUP4 SUB DUP2 DUP7 GAS STATICCALL ISZERO DUP1 ISZERO PUSH2 0x358F JUMPI RETURNDATASIZE PUSH0 PUSH0 RETURNDATACOPY RETURNDATASIZE PUSH0 REVERT JUMPDEST POP POP POP POP PUSH1 0x40 MLOAD RETURNDATASIZE PUSH1 0x1F NOT PUSH1 0x1F DUP3 ADD AND DUP3 ADD DUP1 PUSH1 0x40 MSTORE POP DUP2 ADD SWAP1 PUSH2 0x35B3 SWAP2 SWAP1 PUSH2 0x4ACC JUMP JUMPDEST POP POP PUSH1 0xB SLOAD PUSH1 0x6 SLOAD PUSH1 0x40 MLOAD PUSH4 0x70A08231 PUSH1 0xE0 SHL DUP2 MSTORE PUSH1 0x1 PUSH1 0x1 PUSH1 0xA0 SHL SUB SWAP2 DUP3 AND PUSH1 0x4 DUP3 ADD MSTORE PUSH1 0x1 PUSH1 0x1 PUSH1 0x70 SHL SUB SWAP4 SWAP1 SWAP4 AND SWAP4 POP PUSH0 SWAP3 SWAP2 AND SWAP1 PUSH4 0x70A08231 SWAP1 PUSH1 0x24 ADD PUSH1 0x20 PUSH1 0x40 MLOAD DUP1 DUP4 SUB DUP2 DUP7 GAS STATICCALL ISZERO DUP1 ISZERO PUSH2 0x360F JUMPI RETURNDATASIZE PUSH0 PUSH0 RETURNDATACOPY RETURNDATASIZE PUSH0 REVERT JUMPDEST POP POP POP POP PUSH1 0x40 MLOAD RETURNDATASIZE PUSH1 0x1F NOT PUSH1 0x1F DUP3 ADD AND DUP3 ADD DUP1 PUSH1 0x40 MSTORE POP DUP2 ADD SWAP1 PUSH2 0x3633 SWAP2 SWAP1 PUSH2 0x4B3B JUMP JUMPDEST SWAP1 POP DUP1 DUP3 GT ISZERO PUSH2 0x36CD JUMPI PUSH1 0x6 SLOAD PUSH1 0x40 DUP1 MLOAD PUSH4 0x18160DDD PUSH1 0xE0 SHL DUP2 MSTORE SWAP1 MLOAD PUSH0 SWAP3 PUSH1 0x1 PUSH1 0x1 PUSH1 0xA0 SHL SUB AND SWAP2 PUSH4 0x18160DDD SWAP2 PUSH1 0x4 DUP1 DUP4 ADD SWAP3 PUSH1 0x20 SWAP3 SWAP2 SWAP1 DUP3 SWAP1 SUB ADD DUP2 DUP7 GAS STATICCALL ISZERO DUP1 ISZERO PUSH2 0x3684 JUMPI RETURNDATASIZE PUSH0 PUSH0 RETURNDATACOPY RETURNDATASIZE PUSH0 REVERT JUMPDEST POP POP POP POP PUSH1 0x40 MLOAD RETURNDATASIZE PUSH1 0x1F NOT PUSH1 0x1F DUP3 ADD AND DUP3 ADD DUP1 PUSH1 0x40 MSTORE POP DUP2 ADD SWAP1 PUSH2 0x36A8 SWAP2 SWAP1 PUSH2 0x4B3B JUMP JUMPDEST SWAP1 POP DUP2 PUSH2 0x36B5 DUP2 DUP6 PUSH2 0x4B28 JUMP JUMPDEST PUSH2 0x36BF SWAP1 DUP4 PUSH2 0x4BA4 JUMP JUMPDEST PUSH2 0x36C9 SWAP2 SWAP1 PUSH2 0x47C0 JUMP JUMPDEST SWAP4 POP POP JUMPDEST POP POP SWAP1 JUMP JUMPDEST PUSH1 0x6 SLOAD PUSH1 0x40 DUP1 MLOAD PUSH4 0x240BC6B PUSH1 0xE2 SHL DUP2 MSTORE SWAP1 MLOAD PUSH1 0x1 PUSH1 0x1 PUSH1 0xA0 SHL SUB SWAP1 SWAP3 AND SWAP2 PUSH0 SWAP2 DUP3 SWAP2 DUP5 SWAP2 PUSH4 0x902F1AC SWAP2 PUSH1 0x4 DUP1 DUP4 ADD SWAP3 PUSH1 0x60 SWAP3 SWAP2 SWAP1 DUP3 SWAP1 SUB ADD DUP2 DUP7 GAS STATICCALL ISZERO DUP1 ISZERO PUSH2 0x371F JUMPI RETURNDATASIZE PUSH0 PUSH0 RETURNDATACOPY RETURNDATASIZE PUSH0 REVERT JUMPDEST POP POP POP POP PUSH1 0x40 MLOAD RETURNDATASIZE PUSH1 0x1F NOT PUSH1 0x1F DUP3 ADD AND DUP3 ADD DUP1 PUSH1 0x40 MSTORE POP DUP2 ADD SWAP1 PUSH2 0x3743 SWAP2 SWAP1 PUSH2 0x4ACC JUMP JUMPDEST POP SWAP2 POP SWAP2 POP DUP2 PUSH1 0x1 PUSH1 0x1 PUSH1 0x70 SHL SUB AND PUSH0 EQ DUP1 PUSH2 0x3766 JUMPI POP PUSH1 0x1 PUSH1 0x1 PUSH1 0x70 SHL SUB DUP2 AND ISZERO JUMPDEST ISZERO PUSH2 0x3770 JUMPI POP POP POP JUMP JUMPDEST PUSH0 DUP4 PUSH1 0x1 PUSH1 0x1 PUSH1 0xA0 SHL SUB AND PUSH4 0xDFE1681 PUSH1 0x40 MLOAD DUP2 PUSH4 0xFFFFFFFF AND PUSH1 0xE0 SHL DUP2 MSTORE PUSH1 0x4 ADD PUSH1 0x20 PUSH1 0x40 MLOAD DUP1 DUP4 SUB DUP2 DUP7 GAS STATICCALL ISZERO DUP1 ISZERO PUSH2 0x37AD JUMPI RETURNDATASIZE PUSH0 PUSH0 RETURNDATACOPY RETURNDATASIZE PUSH0 REVERT JUMPDEST POP POP POP POP PUSH1 0x40 MLOAD RETURNDATASIZE PUSH1 0x1F NOT PUSH1 0x1F DUP3 ADD AND DUP3 ADD DUP1 PUSH1 0x40 MSTORE POP DUP2 ADD SWAP1 PUSH2 0x37D1 SWAP2 SWAP1 PUSH2 0x4B0D JUMP JUMPDEST SWAP1 POP PUSH0 PUSH1 0x1 PUSH1 0x1 PUSH1 0xA0 SHL SUB DUP3 AND ADDRESS EQ PUSH2 0x37EA JUMPI DUP3 PUSH2 0x37EC JUMP JUMPDEST DUP4 JUMPDEST PUSH1 0x1 PUSH1 0x1 PUSH1 0x70 SHL SUB AND SWAP1 POP PUSH0 PUSH1 0x1 PUSH1 0x1 PUSH1 0xA0 SHL SUB DUP4 AND ADDRESS EQ PUSH2 0x380E JUMPI DUP5 PUSH2 0x3810 JUMP JUMPDEST DUP4 JUMPDEST PUSH1 0x1 PUSH1 0x1 PUSH1 0x70 SHL SUB AND SWAP1 POP DUP1 PUSH0 SUB PUSH2 0x382A JUMPI POP POP POP POP POP POP JUMP JUMPDEST PUSH0 DUP3 PUSH2 0x383E DUP4 PUSH8 0xDE0B6B3A7640000 PUSH2 0x4BA4 JUMP JUMPDEST PUSH2 0x3848 SWAP2 SWAP1 PUSH2 0x47C0 JUMP JUMPDEST SWAP1 POP PUSH0 PUSH2 0x3858 PUSH3 0x15180 TIMESTAMP PUSH2 0x47C0 JUMP JUMPDEST SWAP1 POP PUSH1 0x1B SLOAD DUP2 GT ISZERO PUSH2 0x3927 JUMPI PUSH0 PUSH1 0x1C SLOAD GT DUP1 ISZERO PUSH2 0x388E JUMPI POP PUSH1 0x64 PUSH1 0x1C SLOAD PUSH1 0x5C PUSH2 0x3881 SWAP2 SWAP1 PUSH2 0x4BA4 JUMP JUMPDEST PUSH2 0x388B SWAP2 SWAP1 PUSH2 0x47C0 JUMP JUMPDEST DUP3 LT JUMPDEST ISZERO PUSH2 0x3911 JUMPI PUSH1 0x1D DUP1 SLOAD PUSH1 0xFF NOT AND PUSH1 0x1 OR SWAP1 SSTORE PUSH1 0x1C SLOAD PUSH32 0xE9560271FF9C39B91BAAAAFEBB009E70AD170A54AB31A72F4B884680B076682 SWAP1 DUP3 SWAP1 PUSH2 0x38D1 JUMPI PUSH0 PUSH2 0x38F4 JUMP JUMPDEST PUSH1 0x1C SLOAD PUSH2 0x38DE DUP6 DUP3 PUSH2 0x4B28 JUMP JUMPDEST PUSH2 0x38EA SWAP1 PUSH2 0x2710 PUSH2 0x4BA4 JUMP JUMPDEST PUSH2 0x38F4 SWAP2 SWAP1 PUSH2 0x47C0 JUMP JUMPDEST PUSH1 0x40 DUP1 MLOAD SWAP3 DUP4 MSTORE PUSH1 0x20 DUP4 ADD SWAP2 SWAP1 SWAP2 MSTORE ADD PUSH1 0x40 MLOAD DUP1 SWAP2 SUB SWAP1 LOG1 PUSH2 0x391C JUMP JUMPDEST PUSH1 0x1D DUP1 SLOAD PUSH1 0xFF NOT AND SWAP1 SSTORE JUMPDEST PUSH1 0x1C DUP3 SWAP1 SSTORE PUSH1 0x1B DUP2 SWAP1 SSTORE JUMPDEST POP POP POP POP POP POP POP POP JUMP JUMPDEST PUSH0 PUSH1 0x1 PUSH1 0x1 PUSH1 0xA0 SHL SUB PUSH32 0x0 AND CALLER SUB PUSH2 0x3B41 JUMPI PUSH0 PUSH0 PUSH1 0x6 PUSH0 SWAP1 SLOAD SWAP1 PUSH2 0x100 EXP SWAP1 DIV PUSH1 0x1 PUSH1 0x1 PUSH1 0xA0 SHL SUB AND PUSH1 0x1 PUSH1 0x1 PUSH1 0xA0 SHL SUB AND PUSH4 0x902F1AC PUSH1 0x40 MLOAD DUP2 PUSH4 0xFFFFFFFF AND PUSH1 0xE0 SHL DUP2 MSTORE PUSH1 0x4 ADD PUSH1 0x60 PUSH1 0x40 MLOAD DUP1 DUP4 SUB DUP2 DUP7 GAS STATICCALL ISZERO DUP1 ISZERO PUSH2 0x39B4 JUMPI RETURNDATASIZE PUSH0 PUSH0 RETURNDATACOPY RETURNDATASIZE PUSH0 REVERT JUMPDEST POP POP POP POP PUSH1 0x40 MLOAD RETURNDATASIZE PUSH1 0x1F NOT PUSH1 0x1F DUP3 ADD AND DUP3 ADD DUP1 PUSH1 0x40 MSTORE POP DUP2 ADD SWAP1 PUSH2 0x39D8 SWAP2 SWAP1 PUSH2 0x4ACC JUMP JUMPDEST POP PUSH1 0xB SLOAD PUSH1 0x6 SLOAD PUSH1 0x40 MLOAD PUSH4 0x70A08231 PUSH1 0xE0 SHL DUP2 MSTORE PUSH1 0x1 PUSH1 0x1 PUSH1 0xA0 SHL SUB SWAP2 DUP3 AND PUSH1 0x4 DUP3 ADD MSTORE PUSH1 0x1 PUSH1 0x1 PUSH1 0x70 SHL SUB SWAP5 DUP6 AND SWAP7 POP SWAP3 SWAP1 SWAP4 AND SWAP4 POP PUSH0 SWAP3 AND SWAP1 PUSH4 0x70A08231 SWAP1 PUSH1 0x24 ADD PUSH1 0x20 PUSH1 0x40 MLOAD DUP1 DUP4 SUB DUP2 DUP7 GAS STATICCALL ISZERO DUP1 ISZERO PUSH2 0x3A37 JUMPI RETURNDATASIZE PUSH0 PUSH0 RETURNDATACOPY RETURNDATASIZE PUSH0 REVERT JUMPDEST POP POP POP POP PUSH1 0x40 MLOAD RETURNDATASIZE PUSH1 0x1F NOT PUSH1 0x1F DUP3 ADD AND DUP3 ADD DUP1 PUSH1 0x40 MSTORE POP DUP2 ADD SWAP1 PUSH2 0x3A5B SWAP2 SWAP1 PUSH2 0x4B3B JUMP JUMPDEST SWAP1 POP DUP3 DUP2 GT ISZERO PUSH2 0x3B3D JUMPI PUSH1 0x6 SLOAD PUSH1 0x40 DUP1 MLOAD PUSH4 0x18160DDD PUSH1 0xE0 SHL DUP2 MSTORE SWAP1 MLOAD PUSH0 SWAP3 PUSH1 0x1 PUSH1 0x1 PUSH1 0xA0 SHL SUB AND SWAP2 PUSH4 0x18160DDD SWAP2 PUSH1 0x4 DUP1 DUP4 ADD SWAP3 PUSH1 0x20 SWAP3 SWAP2 SWAP1 DUP3 SWAP1 SUB ADD DUP2 DUP7 GAS STATICCALL ISZERO DUP1 ISZERO PUSH2 0x3AAC JUMPI RETURNDATASIZE PUSH0 PUSH0 RETURNDATACOPY RETURNDATASIZE PUSH0 REVERT JUMPDEST POP POP POP POP PUSH1 0x40 MLOAD RETURNDATASIZE PUSH1 0x1F NOT PUSH1 0x1F DUP3 ADD AND DUP3 ADD DUP1 PUSH1 0x40 MSTORE POP DUP2 ADD SWAP1 PUSH2 0x3AD0 SWAP2 SWAP1 PUSH2 0x4B3B JUMP JUMPDEST SWAP1 POP DUP1 PUSH0 SUB PUSH2 0x3AE5 JUMPI POP PUSH1 0x1 SWAP6 SWAP5 POP POP POP POP POP JUMP JUMPDEST PUSH2 0x3AF0 DUP2 DUP4 DUP6 PUSH2 0x458D JUMP JUMPDEST PUSH2 0x3AFA SWAP1 DUP3 PUSH2 0x4799 JUMP JUMPDEST SWAP1 POP PUSH2 0x3B39 DUP5 DUP3 PUSH2 0x3B0B DUP3 DUP7 PUSH2 0x4B28 JUMP JUMPDEST PUSH2 0x3B15 SWAP2 SWAP1 PUSH2 0x4BA4 JUMP JUMPDEST PUSH2 0x3B1F SWAP2 SWAP1 PUSH2 0x47C0 JUMP JUMPDEST DUP5 PUSH2 0x3B2A DUP5 DUP11 PUSH2 0x4BA4 JUMP JUMPDEST PUSH2 0x3B34 SWAP2 SWAP1 PUSH2 0x47C0 JUMP JUMPDEST PUSH2 0x4682 JUMP JUMPDEST SWAP5 POP POP JUMPDEST POP POP POP JUMPDEST SWAP2 SWAP1 POP JUMP JUMPDEST PUSH0 PUSH1 0x14 SLOAD PUSH1 0x13 SLOAD PUSH2 0x3B57 SWAP2 SWAP1 PUSH2 0x4799 JUMP JUMPDEST SWAP1 POP PUSH8 0xDE0B6B3A7640000 DUP2 LT ISZERO PUSH2 0x3B6C JUMPI POP JUMP JUMPDEST PUSH2 0x3B97 ADDRESS PUSH32 0x0 DUP4 PUSH2 0x1C86 JUMP JUMPDEST PUSH1 0x40 DUP1 MLOAD PUSH1 0x2 DUP1 DUP3 MSTORE PUSH1 0x60 DUP3 ADD DUP4 MSTORE PUSH0 SWAP3 PUSH1 0x20 DUP4 ADD SWAP1 DUP1 CALLDATASIZE DUP4 CALLDATACOPY ADD SWAP1 POP POP SWAP1 POP ADDRESS DUP2 PUSH0 DUP2 MLOAD DUP2 LT PUSH2 0x3BCA JUMPI PUSH2 0x3BCA PUSH2 0x4A11 JUMP JUMPDEST PUSH1 0x1 PUSH1 0x1 PUSH1 0xA0 SHL SUB SWAP3 DUP4 AND PUSH1 0x20 SWAP2 DUP3 MUL SWAP3 SWAP1 SWAP3 ADD ADD MSTORE PUSH1 0xB SLOAD DUP3 MLOAD SWAP2 AND SWAP1 DUP3 SWAP1 PUSH1 0x1 SWAP1 DUP2 LT PUSH2 0x3BFB JUMPI PUSH2 0x3BFB PUSH2 0x4A11 JUMP JUMPDEST PUSH1 0x1 PUSH1 0x1 PUSH1 0xA0 SHL SUB SWAP3 DUP4 AND PUSH1 0x20 SWAP2 DUP3 MUL SWAP3 SWAP1 SWAP3 ADD ADD MSTORE PUSH1 0x40 MLOAD PUSH4 0x791AC947 PUSH1 0xE0 SHL DUP2 MSTORE PUSH32 0x0 SWAP1 SWAP2 AND SWAP1 PUSH4 0x791AC947 SWAP1 PUSH2 0x3C5F SWAP1 DUP6 SWAP1 PUSH0 SWAP1 DUP7 SWAP1 ADDRESS SWAP1 TIMESTAMP SWAP1 PUSH1 0x4 ADD PUSH2 0x4C12 JUMP JUMPDEST PUSH0 PUSH1 0x40 MLOAD DUP1 DUP4 SUB DUP2 PUSH0 DUP8 DUP1 EXTCODESIZE ISZERO DUP1 ISZERO PUSH2 0x3C76 JUMPI PUSH0 PUSH0 REVERT JUMPDEST POP GAS CALL ISZERO DUP1 ISZERO PUSH2 0x3C88 JUMPI RETURNDATASIZE PUSH0 PUSH0 RETURNDATACOPY RETURNDATASIZE PUSH0 REVERT JUMPDEST POP POP PUSH1 0x14 SLOAD SELFBALANCE SWAP3 POP PUSH0 SWAP2 POP DUP5 SWAP1 PUSH2 0x3C9F SWAP1 DUP5 PUSH2 0x4BA4 JUMP JUMPDEST PUSH2 0x3CA9 SWAP2 SWAP1 PUSH2 0x47C0 JUMP JUMPDEST PUSH1 0x1A SLOAD SWAP1 SWAP2 POP PUSH2 0x3CC2 SWAP1 PUSH1 0x1 PUSH1 0x1 PUSH1 0xA0 SHL SUB AND DUP3 PUSH2 0x4697 JUMP JUMPDEST PUSH0 PUSH2 0x3CCD DUP3 DUP5 PUSH2 0x4B28 JUMP JUMPDEST SWAP1 POP PUSH0 DUP2 GT DUP1 ISZERO PUSH2 0x3CE8 JUMPI POP PUSH1 0xC SLOAD PUSH1 0x1 PUSH1 0x1 PUSH1 0xA0 SHL SUB AND ISZERO ISZERO JUMPDEST ISZERO PUSH2 0x3E24 JUMPI PUSH1 0x40 DUP1 MLOAD PUSH1 0x2 DUP1 DUP3 MSTORE PUSH1 0x60 DUP3 ADD DUP4 MSTORE PUSH0 SWAP3 PUSH1 0x20 DUP4 ADD SWAP1 DUP1 CALLDATASIZE DUP4 CALLDATACOPY POP POP PUSH1 0xB SLOAD DUP3 MLOAD SWAP3 SWAP4 POP PUSH1 0x1 PUSH1 0x1 PUSH1 0xA0 SHL SUB AND SWAP2 DUP4 SWAP2 POP PUSH0 SWAP1 PUSH2 0x3D2C JUMPI PUSH2 0x3D2C PUSH2 0x4A11 JUMP JUMPDEST PUSH1 0x20 MUL PUSH1 0x20 ADD ADD SWAP1 PUSH1 0x1 PUSH1 0x1 PUSH1 0xA0 SHL SUB AND SWAP1 DUP2 PUSH1 0x1 PUSH1 0x1 PUSH1 0xA0 SHL SUB AND DUP2 MSTORE POP POP PUSH20 0x55D398326F99059FF775485246999027B3197955 DUP2 PUSH1 0x1 DUP2 MLOAD DUP2 LT PUSH2 0x3D74 JUMPI PUSH2 0x3D74 PUSH2 0x4A11 JUMP JUMPDEST PUSH1 0x1 PUSH1 0x1 PUSH1 0xA0 SHL SUB SWAP3 DUP4 AND PUSH1 0x20 SWAP2 DUP3 MUL SWAP3 SWAP1 SWAP3 ADD ADD MSTORE PUSH1 0xC SLOAD PUSH1 0x40 MLOAD PUSH4 0xB6F9DE95 PUSH1 0xE0 SHL DUP2 MSTORE PUSH32 0x0 DUP4 AND SWAP3 PUSH4 0xB6F9DE95 SWAP3 DUP7 SWAP3 PUSH2 0x3DDB SWAP3 PUSH0 SWAP3 DUP9 SWAP3 SWAP2 AND SWAP1 TIMESTAMP SWAP1 PUSH1 0x4 ADD PUSH2 0x4A25 JUMP JUMPDEST PUSH0 PUSH1 0x40 MLOAD DUP1 DUP4 SUB DUP2 DUP6 DUP9 DUP1 EXTCODESIZE ISZERO DUP1 ISZERO PUSH2 0x3DF2 JUMPI PUSH0 PUSH0 REVERT JUMPDEST POP GAS CALL SWAP4 POP POP POP POP DUP1 ISZERO PUSH2 0x3E04 JUMPI POP PUSH1 0x1 JUMPDEST PUSH2 0x3E1E JUMPI PUSH1 0xC SLOAD PUSH2 0x3E1E SWAP1 PUSH1 0x1 PUSH1 0x1 PUSH1 0xA0 SHL SUB AND DUP4 PUSH2 0x4697 JUMP JUMPDEST POP PUSH2 0x3E40 JUMP JUMPDEST DUP1 ISZERO PUSH2 0x3E40 JUMPI PUSH1 0xC SLOAD PUSH2 0x3E40 SWAP1 PUSH1 0x1 PUSH1 0x1 PUSH1 0xA0 SHL SUB AND DUP3 PUSH2 0x4697 JUMP JUMPDEST POP POP PUSH0 PUSH1 0x13 DUP2 SWAP1 SSTORE PUSH1 0x14 SSTORE POP POP POP JUMP JUMPDEST PUSH0 DUP2 DUP2 MSTORE PUSH1 0x1 DUP4 ADD PUSH1 0x20 MSTORE PUSH1 0x40 DUP2 KECCAK256 SLOAD PUSH2 0x3E95 JUMPI POP DUP2 SLOAD PUSH1 0x1 DUP2 DUP2 ADD DUP5 SSTORE PUSH0 DUP5 DUP2 MSTORE PUSH1 0x20 DUP1 DUP3 KECCAK256 SWAP1 SWAP4 ADD DUP5 SWAP1 SSTORE DUP5 SLOAD DUP5 DUP3 MSTORE DUP3 DUP7 ADD SWAP1 SWAP4 MSTORE PUSH1 0x40 SWAP1 KECCAK256 SWAP2 SWAP1 SWAP2 SSTORE PUSH2 0x10E3 JUMP JUMPDEST POP PUSH0 PUSH2 0x10E3 JUMP JUMPDEST PUSH1 0x40 DUP1 MLOAD PUSH1 0x2 DUP1 DUP3 MSTORE PUSH1 0x60 DUP3 ADD DUP4 MSTORE PUSH0 SWAP3 DUP4 SWAP3 SWAP2 SWAP1 PUSH1 0x20 DUP4 ADD SWAP1 DUP1 CALLDATASIZE DUP4 CALLDATACOPY POP POP PUSH1 0xB SLOAD DUP3 MLOAD SWAP3 SWAP4 POP PUSH1 0x1 PUSH1 0x1 PUSH1 0xA0 SHL SUB AND SWAP2 DUP4 SWAP2 POP PUSH0 SWAP1 PUSH2 0x3EDF JUMPI PUSH2 0x3EDF PUSH2 0x4A11 JUMP JUMPDEST PUSH1 0x20 MUL PUSH1 0x20 ADD ADD SWAP1 PUSH1 0x1 PUSH1 0x1 PUSH1 0xA0 SHL SUB AND SWAP1 DUP2 PUSH1 0x1 PUSH1 0x1 PUSH1 0xA0 SHL SUB AND DUP2 MSTORE POP POP ADDRESS DUP2 PUSH1 0x1 DUP2 MLOAD DUP2 LT PUSH2 0x3F13 JUMPI PUSH2 0x3F13 PUSH2 0x4A11 JUMP JUMPDEST PUSH1 0x1 PUSH1 0x1 PUSH1 0xA0 SHL SUB SWAP3 DUP4 AND PUSH1 0x20 SWAP2 DUP3 MUL SWAP3 SWAP1 SWAP3 ADD ADD MSTORE PUSH1 0x40 MLOAD PUSH4 0xD06CA61F PUSH1 0xE0 SHL DUP2 MSTORE PUSH0 SWAP2 PUSH32 0x0 AND SWAP1 PUSH4 0xD06CA61F SWAP1 PUSH2 0x3F71 SWAP1 DUP8 SWAP1 DUP7 SWAP1 PUSH1 0x4 ADD PUSH2 0x4C4D JUMP JUMPDEST PUSH0 PUSH1 0x40 MLOAD DUP1 DUP4 SUB DUP2 DUP7 GAS STATICCALL ISZERO DUP1 ISZERO PUSH2 0x3F8B JUMPI RETURNDATASIZE PUSH0 PUSH0 RETURNDATACOPY RETURNDATASIZE PUSH0 REVERT JUMPDEST POP POP POP POP PUSH1 0x40 MLOAD RETURNDATASIZE PUSH0 DUP3 RETURNDATACOPY PUSH1 0x1F RETURNDATASIZE SWAP1 DUP2 ADD PUSH1 0x1F NOT AND DUP3 ADD PUSH1 0x40 MSTORE PUSH2 0x3FB2 SWAP2 SWAP1 DUP2 ADD SWAP1 PUSH2 0x4C6D JUMP JUMPDEST SWAP1 POP DUP1 PUSH1 0x1 DUP2 MLOAD DUP2 LT PUSH2 0x3FC7 JUMPI PUSH2 0x3FC7 PUSH2 0x4A11 JUMP JUMPDEST PUSH1 0x20 MUL PUSH1 0x20 ADD ADD MLOAD SWAP3 POP POP POP SWAP2 SWAP1 POP JUMP JUMPDEST PUSH0 DUP1 PUSH2 0x3FE5 PUSH1 0x2 DUP5 PUSH2 0x47C0 JUMP JUMPDEST PUSH1 0x40 DUP1 MLOAD PUSH1 0x2 DUP1 DUP3 MSTORE PUSH1 0x60 DUP3 ADD DUP4 MSTORE SWAP3 SWAP4 POP PUSH0 SWAP3 SWAP1 SWAP2 PUSH1 0x20 DUP4 ADD SWAP1 DUP1 CALLDATASIZE DUP4 CALLDATACOPY ADD SWAP1 POP POP SWAP1 POP ADDRESS DUP2 PUSH0 DUP2 MLOAD DUP2 LT PUSH2 0x401D JUMPI PUSH2 0x401D PUSH2 0x4A11 JUMP JUMPDEST PUSH1 0x1 PUSH1 0x1 PUSH1 0xA0 SHL SUB SWAP3 DUP4 AND PUSH1 0x20 SWAP2 DUP3 MUL SWAP3 SWAP1 SWAP3 ADD ADD MSTORE PUSH1 0xB SLOAD DUP3 MLOAD SWAP2 AND SWAP1 DUP3 SWAP1 PUSH1 0x1 SWAP1 DUP2 LT PUSH2 0x404E JUMPI PUSH2 0x404E PUSH2 0x4A11 JUMP JUMPDEST PUSH1 0x1 PUSH1 0x1 PUSH1 0xA0 SHL SUB SWAP3 DUP4 AND PUSH1 0x20 SWAP2 DUP3 MUL SWAP3 SWAP1 SWAP3 ADD ADD MSTORE PUSH1 0x6 SLOAD PUSH2 0x4073 SWAP2 AND ADDRESS DUP7 PUSH2 0x1B60 JUMP JUMPDEST PUSH1 0x6 PUSH0 SWAP1 SLOAD SWAP1 PUSH2 0x100 EXP SWAP1 DIV PUSH1 0x1 PUSH1 0x1 PUSH1 0xA0 SHL SUB AND PUSH1 0x1 PUSH1 0x1 PUSH1 0xA0 SHL SUB AND PUSH4 0xFFF6CAE9 PUSH1 0x40 MLOAD DUP2 PUSH4 0xFFFFFFFF AND PUSH1 0xE0 SHL DUP2 MSTORE PUSH1 0x4 ADD PUSH0 PUSH1 0x40 MLOAD DUP1 DUP4 SUB DUP2 PUSH0 DUP8 DUP1 EXTCODESIZE ISZERO DUP1 ISZERO PUSH2 0x40BF JUMPI PUSH0 PUSH0 REVERT JUMPDEST POP GAS CALL ISZERO DUP1 ISZERO PUSH2 0x40D1 JUMPI RETURNDATASIZE PUSH0 PUSH0 RETURNDATACOPY RETURNDATASIZE PUSH0 REVERT JUMPDEST POP POP POP POP PUSH2 0x4100 ADDRESS PUSH32 0x0 DUP7 PUSH2 0x1C86 JUMP JUMPDEST PUSH1 0x11 SLOAD PUSH1 0x40 MLOAD PUSH4 0x5C11D795 PUSH1 0xE0 SHL DUP2 MSTORE PUSH1 0x1 PUSH1 0x1 PUSH1 0xA0 SHL SUB PUSH32 0x0 DUP2 AND SWAP3 PUSH4 0x5C11D795 SWAP3 PUSH2 0x415B SWAP3 DUP8 SWAP3 PUSH0 SWAP3 DUP9 SWAP3 SWAP2 SWAP1 SWAP2 AND SWAP1 TIMESTAMP SWAP1 PUSH1 0x4 ADD PUSH2 0x4C12 JUMP JUMPDEST PUSH0 PUSH1 0x40 MLOAD DUP1 DUP4 SUB DUP2 PUSH0 DUP8 DUP1 EXTCODESIZE ISZERO DUP1 ISZERO PUSH2 0x4172 JUMPI PUSH0 PUSH0 REVERT JUMPDEST POP GAS CALL ISZERO DUP1 ISZERO PUSH2 0x4184 JUMPI RETURNDATASIZE PUSH0 PUSH0 RETURNDATACOPY RETURNDATASIZE PUSH0 REVERT JUMPDEST POP POP PUSH1 0xB SLOAD PUSH1 0x11 SLOAD PUSH1 0x40 MLOAD PUSH4 0x70A08231 PUSH1 0xE0 SHL DUP2 MSTORE PUSH1 0x1 PUSH1 0x1 PUSH1 0xA0 SHL SUB SWAP2 DUP3 AND PUSH1 0x4 DUP3 ADD MSTORE PUSH0 SWAP5 POP SWAP2 AND SWAP2 POP PUSH4 0x70A08231 SWAP1 PUSH1 0x24 ADD PUSH1 0x20 PUSH1 0x40 MLOAD DUP1 DUP4 SUB DUP2 DUP7 GAS STATICCALL ISZERO DUP1 ISZERO PUSH2 0x41D4 JUMPI RETURNDATASIZE PUSH0 PUSH0 RETURNDATACOPY RETURNDATASIZE PUSH0 REVERT JUMPDEST POP POP POP POP PUSH1 0x40 MLOAD RETURNDATASIZE PUSH1 0x1F NOT PUSH1 0x1F DUP3 ADD AND DUP3 ADD DUP1 PUSH1 0x40 MSTORE POP DUP2 ADD SWAP1 PUSH2 0x41F8 SWAP2 SWAP1 PUSH2 0x4B3B JUMP JUMPDEST PUSH1 0x11 SLOAD PUSH1 0xB SLOAD PUSH1 0x40 MLOAD PUSH4 0x92DFDB3 PUSH1 0xE1 SHL DUP2 MSTORE PUSH1 0x1 PUSH1 0x1 PUSH1 0xA0 SHL SUB SWAP2 DUP3 AND PUSH1 0x4 DUP3 ADD MSTORE ADDRESS PUSH1 0x24 DUP3 ADD MSTORE PUSH1 0x44 DUP2 ADD DUP5 SWAP1 MSTORE SWAP3 SWAP4 POP AND SWAP1 PUSH4 0x125BFB66 SWAP1 PUSH1 0x64 ADD PUSH0 PUSH1 0x40 MLOAD DUP1 DUP4 SUB DUP2 PUSH0 DUP8 DUP1 EXTCODESIZE ISZERO DUP1 ISZERO PUSH2 0x424D JUMPI PUSH0 PUSH0 REVERT JUMPDEST POP GAS CALL ISZERO DUP1 ISZERO PUSH2 0x425F JUMPI RETURNDATASIZE PUSH0 PUSH0 RETURNDATACOPY RETURNDATASIZE PUSH0 REVERT JUMPDEST POP POP PUSH1 0xB SLOAD PUSH1 0x40 MLOAD PUSH4 0x95EA7B3 PUSH1 0xE0 SHL DUP2 MSTORE PUSH1 0x1 PUSH1 0x1 PUSH1 0xA0 SHL SUB SWAP1 SWAP2 AND SWAP3 POP PUSH4 0x95EA7B3 SWAP2 POP PUSH2 0x42B5 SWAP1 PUSH32 0x0 SWAP1 DUP6 SWAP1 PUSH1 0x4 ADD PUSH2 0x4B52 JUMP JUMPDEST PUSH1 0x20 PUSH1 0x40 MLOAD DUP1 DUP4 SUB DUP2 PUSH0 DUP8 GAS CALL ISZERO DUP1 ISZERO PUSH2 0x42D1 JUMPI RETURNDATASIZE PUSH0 PUSH0 RETURNDATACOPY RETURNDATASIZE PUSH0 REVERT JUMPDEST POP POP POP POP PUSH1 0x40 MLOAD RETURNDATASIZE PUSH1 0x1F NOT PUSH1 0x1F DUP3 ADD AND DUP3 ADD DUP1 PUSH1 0x40 MSTORE POP DUP2 ADD SWAP1 PUSH2 0x42F5 SWAP2 SWAP1 PUSH2 0x4B6B JUMP JUMPDEST POP PUSH1 0xB SLOAD PUSH1 0x40 MLOAD PUSH3 0xE8E337 PUSH1 0xE8 SHL DUP2 MSTORE PUSH1 0x1 PUSH1 0x1 PUSH1 0xA0 SHL SUB SWAP2 DUP3 AND PUSH1 0x4 DUP3 ADD MSTORE ADDRESS PUSH1 0x24 DUP3 ADD DUP2 SWAP1 MSTORE PUSH1 0x44 DUP3 ADD DUP5 SWAP1 MSTORE PUSH1 0x64 DUP3 ADD DUP7 SWAP1 MSTORE PUSH0 PUSH1 0x84 DUP4 ADD DUP2 SWAP1 MSTORE PUSH1 0xA4 DUP4 ADD MSTORE PUSH1 0xC4 DUP3 ADD MSTORE TIMESTAMP PUSH1 0xE4 DUP3 ADD MSTORE PUSH32 0x0 SWAP1 SWAP2 AND SWAP1 PUSH4 0xE8E33700 SWAP1 PUSH2 0x104 ADD PUSH1 0x60 PUSH1 0x40 MLOAD DUP1 DUP4 SUB DUP2 PUSH0 DUP8 GAS CALL ISZERO DUP1 ISZERO PUSH2 0x438E JUMPI RETURNDATASIZE PUSH0 PUSH0 RETURNDATACOPY RETURNDATASIZE PUSH0 REVERT JUMPDEST POP POP POP POP PUSH1 0x40 MLOAD RETURNDATASIZE PUSH1 0x1F NOT PUSH1 0x1F DUP3 ADD AND DUP3 ADD DUP1 PUSH1 0x40 MSTORE POP DUP2 ADD SWAP1 PUSH2 0x43B2 SWAP2 SWAP1 PUSH2 0x4A59 JUMP JUMPDEST SWAP8 SWAP7 POP POP POP POP POP POP POP JUMP JUMPDEST PUSH1 0x1 PUSH1 0x1 PUSH1 0xA0 SHL SUB DUP1 DUP4 AND PUSH0 SWAP1 DUP2 MSTORE PUSH1 0xA PUSH1 0x20 SWAP1 DUP2 MSTORE PUSH1 0x40 DUP1 DUP4 KECCAK256 DUP2 MLOAD PUSH2 0x160 DUP2 ADD DUP4 MSTORE DUP2 SLOAD SWAP1 SWAP6 AND DUP1 DUP7 MSTORE PUSH1 0x1 DUP1 DUP4 ADD SLOAD SWAP5 DUP8 ADD SWAP5 SWAP1 SWAP5 MSTORE PUSH1 0x2 DUP3 ADD SLOAD SWAP3 DUP7 ADD SWAP3 SWAP1 SWAP3 MSTORE PUSH1 0x3 DUP2 ADD SLOAD PUSH1 0x60 DUP7 ADD MSTORE PUSH1 0x4 DUP2 ADD SLOAD PUSH1 0x80 DUP7 ADD MSTORE PUSH1 0x5 DUP2 ADD SLOAD PUSH1 0xA0 DUP7 ADD MSTORE PUSH1 0x6 DUP2 ADD SLOAD PUSH1 0xC0 DUP7 ADD MSTORE PUSH1 0x7 DUP2 ADD SLOAD PUSH1 0xE0 DUP7 ADD MSTORE PUSH1 0x8 DUP2 ADD SLOAD PUSH2 0x100 DUP1 DUP8 ADD SWAP2 SWAP1 SWAP2 MSTORE PUSH1 0x9 SWAP1 SWAP2 ADD SLOAD PUSH1 0xFF DUP1 DUP3 AND ISZERO ISZERO PUSH2 0x120 DUP9 ADD MSTORE SWAP2 SWAP1 DIV AND ISZERO ISZERO PUSH2 0x140 DUP6 ADD MSTORE SWAP2 SWAP3 SWAP2 SWAP1 PUSH1 0x14 JUMPDEST PUSH1 0x1 PUSH1 0x1 PUSH1 0xA0 SHL SUB DUP4 AND ISZERO DUP1 ISZERO SWAP1 PUSH2 0x4481 JUMPI POP DUP1 DUP3 GT ISZERO JUMPDEST ISZERO PUSH2 0x4583 JUMPI PUSH0 PUSH2 0x4490 DUP4 PUSH2 0x1262 JUMP JUMPDEST SWAP1 POP PUSH0 PUSH1 0x64 PUSH2 0x449F DUP4 DUP11 PUSH2 0x4BA4 JUMP JUMPDEST PUSH2 0x44A9 SWAP2 SWAP1 PUSH2 0x47C0 JUMP JUMPDEST SWAP1 POP DUP1 ISZERO PUSH2 0x4552 JUMPI PUSH1 0x1 PUSH1 0x1 PUSH1 0xA0 SHL SUB DUP6 AND PUSH0 SWAP1 DUP2 MSTORE PUSH1 0xA PUSH1 0x20 MSTORE PUSH1 0x40 SWAP1 KECCAK256 PUSH1 0x7 ADD SLOAD DUP5 GT PUSH2 0x4552 JUMPI PUSH1 0x6 SLOAD PUSH1 0x40 MLOAD PUSH4 0xA9059CBB PUSH1 0xE0 SHL DUP2 MSTORE PUSH1 0x1 PUSH1 0x1 PUSH1 0xA0 SHL SUB SWAP1 SWAP2 AND SWAP1 PUSH4 0xA9059CBB SWAP1 PUSH2 0x4504 SWAP1 DUP9 SWAP1 DUP6 SWAP1 PUSH1 0x4 ADD PUSH2 0x4B52 JUMP JUMPDEST PUSH1 0x20 PUSH1 0x40 MLOAD DUP1 DUP4 SUB DUP2 PUSH0 DUP8 GAS CALL ISZERO DUP1 ISZERO PUSH2 0x4520 JUMPI RETURNDATASIZE PUSH0 PUSH0 RETURNDATACOPY RETURNDATASIZE PUSH0 REVERT JUMPDEST POP POP POP POP PUSH1 0x40 MLOAD RETURNDATASIZE PUSH1 0x1F NOT PUSH1 0x1F DUP3 ADD AND DUP3 ADD DUP1 PUSH1 0x40 MSTORE POP DUP2 ADD SWAP1 PUSH2 0x4544 SWAP2 SWAP1 PUSH2 0x4B6B JUMP JUMPDEST POP PUSH2 0x454F DUP2 DUP9 PUSH2 0x4799 JUMP JUMPDEST SWAP7 POP JUMPDEST PUSH1 0x1 PUSH1 0x1 PUSH1 0xA0 SHL SUB SWAP5 DUP6 AND PUSH0 SWAP1 DUP2 MSTORE PUSH1 0xA PUSH1 0x20 MSTORE PUSH1 0x40 SWAP1 KECCAK256 SLOAD SWAP1 SWAP5 AND SWAP4 DUP4 PUSH2 0x4579 DUP2 PUSH2 0x4D35 JUMP JUMPDEST SWAP5 POP POP POP POP PUSH2 0x4469 JUMP JUMPDEST POP POP POP POP SWAP3 SWAP2 POP POP JUMP JUMPDEST PUSH0 DUP1 PUSH2 0x45A1 PUSH2 0x459C DUP5 DUP7 PUSH2 0x4BA4 JUMP JUMPDEST PUSH2 0x46FA JUMP JUMPDEST SWAP1 POP PUSH0 PUSH2 0x461B PUSH1 0x6 PUSH0 SWAP1 SLOAD SWAP1 PUSH2 0x100 EXP SWAP1 DIV PUSH1 0x1 PUSH1 0x1 PUSH1 0xA0 SHL SUB AND PUSH1 0x1 PUSH1 0x1 PUSH1 0xA0 SHL SUB AND PUSH4 0x7464FC3D PUSH1 0x40 MLOAD DUP2 PUSH4 0xFFFFFFFF AND PUSH1 0xE0 SHL DUP2 MSTORE PUSH1 0x4 ADD PUSH1 0x20 PUSH1 0x40 MLOAD DUP1 DUP4 SUB DUP2 DUP7 GAS STATICCALL ISZERO DUP1 ISZERO PUSH2 0x45F7 JUMPI RETURNDATASIZE PUSH0 PUSH0 RETURNDATACOPY RETURNDATASIZE PUSH0 REVERT JUMPDEST POP POP POP POP PUSH1 0x40 MLOAD RETURNDATASIZE PUSH1 0x1F NOT PUSH1 0x1F DUP3 ADD AND DUP3 ADD DUP1 PUSH1 0x40 MSTORE POP DUP2 ADD SWAP1 PUSH2 0x459C SWAP2 SWAP1 PUSH2 0x4B3B JUMP JUMPDEST SWAP1 POP DUP1 DUP3 GT ISZERO PUSH2 0x4679 JUMPI PUSH0 PUSH2 0x4630 DUP3 DUP5 PUSH2 0x4B28 JUMP JUMPDEST PUSH2 0x463A SWAP1 DUP9 PUSH2 0x4BA4 JUMP JUMPDEST PUSH2 0x4645 SWAP1 PUSH1 0x8 PUSH2 0x4BA4 JUMP JUMPDEST SWAP1 POP PUSH0 PUSH2 0x4653 DUP4 PUSH1 0x8 PUSH2 0x4BA4 JUMP JUMPDEST PUSH2 0x465E DUP6 PUSH1 0x11 PUSH2 0x4BA4 JUMP JUMPDEST PUSH2 0x4668 SWAP2 SWAP1 PUSH2 0x4799 JUMP JUMPDEST SWAP1 POP PUSH2 0x4674 DUP2 DUP4 PUSH2 0x47C0 JUMP JUMPDEST SWAP5 POP POP POP JUMPDEST POP POP SWAP4 SWAP3 POP POP POP JUMP JUMPDEST PUSH0 DUP2 DUP4 LT PUSH2 0x4690 JUMPI DUP2 PUSH2 0x1DA4 JUMP JUMPDEST POP SWAP1 SWAP2 SWAP1 POP JUMP JUMPDEST PUSH1 0x40 DUP1 MLOAD PUSH0 DUP1 DUP3 MSTORE PUSH1 0x20 DUP3 ADD SWAP1 SWAP3 MSTORE PUSH1 0x1 PUSH1 0x1 PUSH1 0xA0 SHL SUB DUP5 AND SWAP1 DUP4 SWAP1 PUSH1 0x40 MLOAD PUSH2 0x46C0 SWAP2 SWAP1 PUSH2 0x4D4D JUMP JUMPDEST PUSH0 PUSH1 0x40 MLOAD DUP1 DUP4 SUB DUP2 DUP6 DUP8 GAS CALL SWAP3 POP POP POP RETURNDATASIZE DUP1 PUSH0 DUP2 EQ PUSH2 0x2604 JUMPI PUSH1 0x40 MLOAD SWAP2 POP PUSH1 0x1F NOT PUSH1 0x3F RETURNDATASIZE ADD AND DUP3 ADD PUSH1 0x40 MSTORE RETURNDATASIZE DUP3 MSTORE RETURNDATASIZE PUSH0 PUSH1 0x20 DUP5 ADD RETURNDATACOPY PUSH2 0x2604 JUMP JUMPDEST PUSH0 PUSH1 0x3 DUP3 GT ISZERO PUSH2 0x4759 JUMPI POP DUP1 PUSH0 PUSH2 0x4712 PUSH1 0x2 DUP4 PUSH2 0x47C0 JUMP JUMPDEST PUSH2 0x471D SWAP1 PUSH1 0x1 PUSH2 0x4799 JUMP JUMPDEST SWAP1 POP JUMPDEST DUP2 DUP2 LT ISZERO PUSH2 0x4753 JUMPI SWAP1 POP DUP1 PUSH1 0x2 DUP2 PUSH2 0x4738 DUP2 DUP7 PUSH2 0x47C0 JUMP JUMPDEST PUSH2 0x4742 SWAP2 SWAP1 PUSH2 0x4799 JUMP JUMPDEST PUSH2 0x474C SWAP2 SWAP1 PUSH2 0x47C0 JUMP JUMPDEST SWAP1 POP PUSH2 0x4720 JUMP JUMPDEST POP SWAP2 SWAP1 POP JUMP JUMPDEST DUP2 ISZERO PUSH2 0x3B41 JUMPI POP PUSH1 0x1 SWAP2 SWAP1 POP JUMP JUMPDEST PUSH1 0x40 MLOAD DUP1 PUSH1 0xC0 ADD PUSH1 0x40 MSTORE DUP1 PUSH1 0x6 SWAP1 PUSH1 0x20 DUP3 MUL DUP1 CALLDATASIZE DUP4 CALLDATACOPY POP SWAP2 SWAP3 SWAP2 POP POP JUMP JUMPDEST PUSH4 0x4E487B71 PUSH1 0xE0 SHL PUSH0 MSTORE PUSH1 0x11 PUSH1 0x4 MSTORE PUSH1 0x24 PUSH0 REVERT JUMPDEST DUP1 DUP3 ADD DUP1 DUP3 GT ISZERO PUSH2 0x10E3 JUMPI PUSH2 0x10E3 PUSH2 0x4785 JUMP JUMPDEST PUSH4 0x4E487B71 PUSH1 0xE0 SHL PUSH0 MSTORE PUSH1 0x12 PUSH1 0x4 MSTORE PUSH1 0x24 PUSH0 REVERT JUMPDEST PUSH0 DUP3 PUSH2 0x47CE JUMPI PUSH2 0x47CE PUSH2 0x47AC JUMP JUMPDEST POP DIV SWAP1 JUMP JUMPDEST PUSH1 0x20 DUP2 MSTORE PUSH0 DUP3 MLOAD DUP1 PUSH1 0x20 DUP5 ADD MSTORE DUP1 PUSH1 0x20 DUP6 ADD PUSH1 0x40 DUP6 ADD MCOPY PUSH0 PUSH1 0x40 DUP3 DUP6 ADD ADD MSTORE PUSH1 0x40 PUSH1 0x1F NOT PUSH1 0x1F DUP4 ADD AND DUP5 ADD ADD SWAP2 POP POP SWAP3 SWAP2 POP POP JUMP JUMPDEST PUSH1 0x1 PUSH1 0x1 PUSH1 0xA0 SHL SUB DUP2 AND DUP2 EQ PUSH2 0x1B33 JUMPI PUSH0 PUSH0 REVERT JUMPDEST PUSH0 PUSH0 PUSH1 0x40 DUP4 DUP6 SUB SLT ISZERO PUSH2 0x482D JUMPI PUSH0 PUSH0 REVERT JUMPDEST DUP3 CALLDATALOAD PUSH2 0x4838 DUP2 PUSH2 0x4808 JUMP JUMPDEST SWAP5 PUSH1 0x20 SWAP4 SWAP1 SWAP4 ADD CALLDATALOAD SWAP4 POP POP POP JUMP JUMPDEST PUSH0 PUSH1 0x20 DUP3 DUP5 SUB SLT ISZERO PUSH2 0x4856 JUMPI PUSH0 PUSH0 REVERT JUMPDEST POP CALLDATALOAD SWAP2 SWAP1 POP JUMP JUMPDEST PUSH0 PUSH0 PUSH0 PUSH1 0x60 DUP5 DUP7 SUB SLT ISZERO PUSH2 0x486F JUMPI PUSH0 PUSH0 REVERT JUMPDEST DUP4 CALLDATALOAD PUSH2 0x487A DUP2 PUSH2 0x4808 JUMP JUMPDEST SWAP3 POP PUSH1 0x20 DUP5 ADD CALLDATALOAD PUSH2 0x488A DUP2 PUSH2 0x4808 JUMP JUMPDEST SWAP3 SWAP6 SWAP3 SWAP5 POP POP POP PUSH1 0x40 SWAP2 SWAP1 SWAP2 ADD CALLDATALOAD SWAP1 JUMP JUMPDEST PUSH0 PUSH1 0x20 DUP3 DUP5 SUB SLT ISZERO PUSH2 0x48AB JUMPI PUSH0 PUSH0 REVERT JUMPDEST DUP2 CALLDATALOAD PUSH2 0x1DA4 DUP2 PUSH2 0x4808 JUMP JUMPDEST PUSH0 DUP2 MLOAD DUP1 DUP5 MSTORE PUSH1 0x20 DUP5 ADD SWAP4 POP PUSH1 0x20 DUP4 ADD PUSH0 JUMPDEST DUP3 DUP2 LT ISZERO PUSH2 0x48EF JUMPI DUP2 MLOAD PUSH1 0x1 PUSH1 0x1 PUSH1 0xA0 SHL SUB AND DUP7 MSTORE PUSH1 0x20 SWAP6 DUP7 ADD SWAP6 SWAP1 SWAP2 ADD SWAP1 PUSH1 0x1 ADD PUSH2 0x48C8 JUMP JUMPDEST POP SWAP4 SWAP5 SWAP4 POP POP POP POP JUMP JUMPDEST PUSH1 0x20 DUP2 MSTORE PUSH0 PUSH2 0x1DA4 PUSH1 0x20 DUP4 ADD DUP5 PUSH2 0x48B6 JUMP JUMPDEST DUP1 ISZERO ISZERO DUP2 EQ PUSH2 0x1B33 JUMPI PUSH0 PUSH0 REVERT JUMPDEST PUSH0 PUSH0 PUSH1 0x40 DUP4 DUP6 SUB SLT ISZERO PUSH2 0x4929 JUMPI PUSH0 PUSH0 REVERT JUMPDEST DUP3 CALLDATALOAD PUSH2 0x4934 DUP2 PUSH2 0x4808 JUMP JUMPDEST SWAP2 POP PUSH1 0x20 DUP4 ADD CALLDATALOAD PUSH2 0x4944 DUP2 PUSH2 0x490B JUMP JUMPDEST DUP1 SWAP2 POP POP SWAP3 POP SWAP3 SWAP1 POP JUMP JUMPDEST PUSH0 PUSH0 PUSH0 PUSH1 0x40 DUP5 DUP7 SUB SLT ISZERO PUSH2 0x4961 JUMPI PUSH0 PUSH0 REVERT JUMPDEST DUP4 CALLDATALOAD PUSH8 0xFFFFFFFFFFFFFFFF DUP2 GT ISZERO PUSH2 0x4977 JUMPI PUSH0 PUSH0 REVERT JUMPDEST DUP5 ADD PUSH1 0x1F DUP2 ADD DUP7 SGT PUSH2 0x4987 JUMPI PUSH0 PUSH0 REVERT JUMPDEST DUP1 CALLDATALOAD PUSH8 0xFFFFFFFFFFFFFFFF DUP2 GT ISZERO PUSH2 0x499D JUMPI PUSH0 PUSH0 REVERT JUMPDEST DUP7 PUSH1 0x20 DUP3 PUSH1 0x5 SHL DUP5 ADD ADD GT ISZERO PUSH2 0x49B1 JUMPI PUSH0 PUSH0 REVERT JUMPDEST PUSH1 0x20 SWAP2 DUP3 ADD SWAP5 POP SWAP3 POP DUP5 ADD CALLDATALOAD PUSH2 0x49C6 DUP2 PUSH2 0x490B JUMP JUMPDEST DUP1 SWAP2 POP POP SWAP3 POP SWAP3 POP SWAP3 JUMP JUMPDEST PUSH0 PUSH0 PUSH1 0x40 DUP4 DUP6 SUB SLT ISZERO PUSH2 0x49E2 JUMPI PUSH0 PUSH0 REVERT JUMPDEST DUP3 CALLDATALOAD PUSH2 0x49ED DUP2 PUSH2 0x4808 JUMP JUMPDEST SWAP2 POP PUSH1 0x20 DUP4 ADD CALLDATALOAD PUSH2 0x4944 DUP2 PUSH2 0x4808 JUMP JUMPDEST PUSH4 0x4E487B71 PUSH1 0xE0 SHL PUSH0 MSTORE PUSH1 0x41 PUSH1 0x4 MSTORE PUSH1 0x24 PUSH0 REVERT JUMPDEST PUSH4 0x4E487B71 PUSH1 0xE0 SHL PUSH0 MSTORE PUSH1 0x32 PUSH1 0x4 MSTORE PUSH1 0x24 PUSH0 REVERT JUMPDEST DUP5 DUP2 MSTORE PUSH1 0x80 PUSH1 0x20 DUP3 ADD MSTORE PUSH0 PUSH2 0x4A3D PUSH1 0x80 DUP4 ADD DUP7 PUSH2 0x48B6 JUMP JUMPDEST PUSH1 0x1 PUSH1 0x1 PUSH1 0xA0 SHL SUB SWAP5 SWAP1 SWAP5 AND PUSH1 0x40 DUP4 ADD MSTORE POP PUSH1 0x60 ADD MSTORE SWAP3 SWAP2 POP POP JUMP JUMPDEST PUSH0 PUSH0 PUSH0 PUSH1 0x60 DUP5 DUP7 SUB SLT ISZERO PUSH2 0x4A6B JUMPI PUSH0 PUSH0 REVERT JUMPDEST POP POP DUP2 MLOAD PUSH1 0x20 DUP4 ADD MLOAD PUSH1 0x40 SWAP1 SWAP4 ADD MLOAD SWAP1 SWAP5 SWAP3 SWAP4 POP SWAP2 SWAP1 POP JUMP JUMPDEST PUSH1 0x1 DUP2 DUP2 SHR SWAP1 DUP3 AND DUP1 PUSH2 0x4A98 JUMPI PUSH1 0x7F DUP3 AND SWAP2 POP JUMPDEST PUSH1 0x20 DUP3 LT DUP2 SUB PUSH2 0x4753 JUMPI PUSH4 0x4E487B71 PUSH1 0xE0 SHL PUSH0 MSTORE PUSH1 0x22 PUSH1 0x4 MSTORE PUSH1 0x24 PUSH0 REVERT JUMPDEST DUP1 MLOAD PUSH1 0x1 PUSH1 0x1 PUSH1 0x70 SHL SUB DUP2 AND DUP2 EQ PUSH2 0x3B41 JUMPI PUSH0 PUSH0 REVERT JUMPDEST PUSH0 PUSH0 PUSH0 PUSH1 0x60 DUP5 DUP7 SUB SLT ISZERO PUSH2 0x4ADE JUMPI PUSH0 PUSH0 REVERT JUMPDEST PUSH2 0x4AE7 DUP5 PUSH2 0x4AB6 JUMP JUMPDEST SWAP3 POP PUSH2 0x4AF5 PUSH1 0x20 DUP6 ADD PUSH2 0x4AB6 JUMP JUMPDEST SWAP2 POP PUSH1 0x40 DUP5 ADD MLOAD PUSH4 0xFFFFFFFF DUP2 AND DUP2 EQ PUSH2 0x49C6 JUMPI PUSH0 PUSH0 REVERT JUMPDEST PUSH0 PUSH1 0x20 DUP3 DUP5 SUB SLT ISZERO PUSH2 0x4B1D JUMPI PUSH0 PUSH0 REVERT JUMPDEST DUP2 MLOAD PUSH2 0x1DA4 DUP2 PUSH2 0x4808 JUMP JUMPDEST DUP2 DUP2 SUB DUP2 DUP2 GT ISZERO PUSH2 0x10E3 JUMPI PUSH2 0x10E3 PUSH2 0x4785 JUMP JUMPDEST PUSH0 PUSH1 0x20 DUP3 DUP5 SUB SLT ISZERO PUSH2 0x4B4B JUMPI PUSH0 PUSH0 REVERT JUMPDEST POP MLOAD SWAP2 SWAP1 POP JUMP JUMPDEST PUSH1 0x1 PUSH1 0x1 PUSH1 0xA0 SHL SUB SWAP3 SWAP1 SWAP3 AND DUP3 MSTORE PUSH1 0x20 DUP3 ADD MSTORE PUSH1 0x40 ADD SWAP1 JUMP JUMPDEST PUSH0 PUSH1 0x20 DUP3 DUP5 SUB SLT ISZERO PUSH2 0x4B7B JUMPI PUSH0 PUSH0 REVERT JUMPDEST DUP2 MLOAD PUSH2 0x1DA4 DUP2 PUSH2 0x490B JUMP JUMPDEST PUSH0 PUSH1 0xFF DUP3 AND PUSH1 0xFF DUP2 SUB PUSH2 0x4B9B JUMPI PUSH2 0x4B9B PUSH2 0x4785 JUMP JUMPDEST PUSH1 0x1 ADD SWAP3 SWAP2 POP POP JUMP JUMPDEST DUP1 DUP3 MUL DUP2 ISZERO DUP3 DUP3 DIV DUP5 EQ OR PUSH2 0x10E3 JUMPI PUSH2 0x10E3 PUSH2 0x4785 JUMP JUMPDEST PUSH1 0x20 DUP1 DUP3 MSTORE PUSH1 0x9 SWAP1 DUP3 ADD MSTORE PUSH9 0x737461727454696D65 PUSH1 0xB8 SHL PUSH1 0x40 DUP3 ADD MSTORE PUSH1 0x60 ADD SWAP1 JUMP JUMPDEST PUSH0 DUP3 PUSH2 0x4BEC JUMPI PUSH2 0x4BEC PUSH2 0x47AC JUMP JUMPDEST POP MOD SWAP1 JUMP JUMPDEST PUSH0 PUSH1 0xFF DUP4 AND DUP1 PUSH2 0x4C03 JUMPI PUSH2 0x4C03 PUSH2 0x47AC JUMP JUMPDEST DUP1 PUSH1 0xFF DUP5 AND MOD SWAP2 POP POP SWAP3 SWAP2 POP POP JUMP JUMPDEST DUP6 DUP2 MSTORE DUP5 PUSH1 0x20 DUP3 ADD MSTORE PUSH1 0xA0 PUSH1 0x40 DUP3 ADD MSTORE PUSH0 PUSH2 0x4C30 PUSH1 0xA0 DUP4 ADD DUP7 PUSH2 0x48B6 JUMP JUMPDEST PUSH1 0x1 PUSH1 0x1 PUSH1 0xA0 SHL SUB SWAP5 SWAP1 SWAP5 AND PUSH1 0x60 DUP4 ADD MSTORE POP PUSH1 0x80 ADD MSTORE SWAP4 SWAP3 POP POP POP JUMP JUMPDEST DUP3 DUP2 MSTORE PUSH1 0x40 PUSH1 0x20 DUP3 ADD MSTORE PUSH0 PUSH2 0x4C65 PUSH1 0x40 DUP4 ADD DUP5 PUSH2 0x48B6 JUMP JUMPDEST SWAP5 SWAP4 POP POP POP POP JUMP JUMPDEST PUSH0 PUSH1 0x20 DUP3 DUP5 SUB SLT ISZERO PUSH2 0x4C7D JUMPI PUSH0 PUSH0 REVERT JUMPDEST DUP2 MLOAD PUSH8 0xFFFFFFFFFFFFFFFF DUP2 GT ISZERO PUSH2 0x4C93 JUMPI PUSH0 PUSH0 REVERT JUMPDEST DUP3 ADD PUSH1 0x1F DUP2 ADD DUP5 SGT PUSH2 0x4CA3 JUMPI PUSH0 PUSH0 REVERT JUMPDEST DUP1 MLOAD PUSH8 0xFFFFFFFFFFFFFFFF DUP2 GT ISZERO PUSH2 0x4CBD JUMPI PUSH2 0x4CBD PUSH2 0x49FD JUMP JUMPDEST DUP1 PUSH1 0x5 SHL PUSH1 0x40 MLOAD PUSH1 0x1F NOT PUSH1 0x3F DUP4 ADD AND DUP2 ADD DUP2 DUP2 LT PUSH8 0xFFFFFFFFFFFFFFFF DUP3 GT OR ISZERO PUSH2 0x4CEA JUMPI PUSH2 0x4CEA PUSH2 0x49FD JUMP JUMPDEST PUSH1 0x40 MSTORE SWAP2 DUP3 MSTORE PUSH1 0x20 DUP2 DUP5 ADD DUP2 ADD SWAP3 SWAP1 DUP2 ADD DUP8 DUP5 GT ISZERO PUSH2 0x4D07 JUMPI PUSH0 PUSH0 REVERT JUMPDEST PUSH1 0x20 DUP6 ADD SWAP5 POP JUMPDEST DUP4 DUP6 LT ISZERO PUSH2 0x4D2A JUMPI DUP5 MLOAD DUP1 DUP3 MSTORE PUSH1 0x20 SWAP6 DUP7 ADD SWAP6 SWAP1 SWAP4 POP ADD PUSH2 0x4D0E JUMP JUMPDEST POP SWAP7 SWAP6 POP POP POP POP POP POP JUMP JUMPDEST PUSH0 PUSH1 0x1 DUP3 ADD PUSH2 0x4D46 JUMPI PUSH2 0x4D46 PUSH2 0x4785 JUMP JUMPDEST POP PUSH1 0x1 ADD SWAP1 JUMP JUMPDEST PUSH0 DUP3 MLOAD DUP1 PUSH1 0x20 DUP6 ADD DUP5 MCOPY PUSH0 SWAP3 ADD SWAP2 DUP3 MSTORE POP SWAP2 SWAP1 POP JUMP INVALID LOG2 PUSH5 0x6970667358 0x22 SLT KECCAK256 LT PUSH6 0x4277F6835DE1 MUL 0xE9 0x24 SSTORE 0xAE 0xD6 DUP3 JUMPDEST RETURN 0xAB EXTCODESIZE 0x25 0xCB RETURNCONTRACT 0x78 DELEGATECALL 0xFC 0xED PUSH13 0x754FE3DEE464736F6C63430008 0x22 STOP CALLER PUSH1 0x80 PUSH1 0x40 MSTORE CALLVALUE DUP1 ISZERO PUSH1 0xE JUMPI PUSH0 PUSH0 REVERT JUMPDEST POP CALLER DUP1 PUSH1 0x33 JUMPI PUSH1 0x40 MLOAD PUSH4 0x1E4FBDF7 PUSH1 0xE0 SHL DUP2 MSTORE PUSH0 PUSH1 0x4 DUP3 ADD MSTORE PUSH1 0x24 ADD PUSH1 0x40 MLOAD DUP1 SWAP2 SUB SWAP1 REVERT JUMPDEST PUSH1 0x3A DUP2 PUSH1 0x5B JUMP JUMPDEST POP CALLER PUSH0 SWAP1 DUP2 MSTORE PUSH1 0x1 PUSH1 0x20 DUP2 SWAP1 MSTORE PUSH1 0x40 SWAP1 SWAP2 KECCAK256 DUP1 SLOAD PUSH1 0xFF NOT AND SWAP1 SWAP2 OR SWAP1 SSTORE PUSH1 0xAA JUMP JUMPDEST PUSH0 DUP1 SLOAD PUSH1 0x1 PUSH1 0x1 PUSH1 0xA0 SHL SUB DUP4 DUP2 AND PUSH1 0x1 PUSH1 0x1 PUSH1 0xA0 SHL SUB NOT DUP4 AND DUP2 OR DUP5 SSTORE PUSH1 0x40 MLOAD SWAP2 SWAP1 SWAP3 AND SWAP3 DUP4 SWAP2 PUSH32 0x8BE0079C531659141344CD1FD0A4F28419497F9722A3DAAFE3B4186F6B6457E0 SWAP2 SWAP1 LOG3 POP POP JUMP JUMPDEST PUSH2 0x44E DUP1 PUSH2 0xB7 PUSH0 CODECOPY PUSH0 RETURN INVALID PUSH1 0x80 PUSH1 0x40 MSTORE CALLVALUE DUP1 ISZERO PUSH2 0xF JUMPI PUSH0 PUSH0 REVERT JUMPDEST POP PUSH1 0x4 CALLDATASIZE LT PUSH2 0x60 JUMPI PUSH0 CALLDATALOAD PUSH1 0xE0 SHR DUP1 PUSH4 0x125BFB66 EQ PUSH2 0x64 JUMPI DUP1 PUSH4 0x172979E4 EQ PUSH2 0x79 JUMPI DUP1 PUSH4 0x715018A6 EQ PUSH2 0xB0 JUMPI DUP1 PUSH4 0x8D14E127 EQ PUSH2 0xB8 JUMPI DUP1 PUSH4 0x8DA5CB5B EQ PUSH2 0xCB JUMPI DUP1 PUSH4 0xF2FDE38B EQ PUSH2 0xE5 JUMPI JUMPDEST PUSH0 PUSH0 REVERT JUMPDEST PUSH2 0x77 PUSH2 0x72 CALLDATASIZE PUSH1 0x4 PUSH2 0x362 JUMP JUMPDEST PUSH2 0xF8 JUMP JUMPDEST STOP JUMPDEST PUSH2 0x9B PUSH2 0x87 CALLDATASIZE PUSH1 0x4 PUSH2 0x39B JUMP JUMPDEST PUSH1 0x1 PUSH1 0x20 MSTORE PUSH0 SWAP1 DUP2 MSTORE PUSH1 0x40 SWAP1 KECCAK256 SLOAD PUSH1 0xFF AND DUP2 JUMP JUMPDEST PUSH1 0x40 MLOAD SWAP1 ISZERO ISZERO DUP2 MSTORE PUSH1 0x20 ADD JUMPDEST PUSH1 0x40 MLOAD DUP1 SWAP2 SUB SWAP1 RETURN JUMPDEST PUSH2 0x77 PUSH2 0x216 JUMP JUMPDEST PUSH2 0x77 PUSH2 0xC6 CALLDATASIZE PUSH1 0x4 PUSH2 0x3C8 JUMP JUMPDEST PUSH2 0x229 JUMP JUMPDEST PUSH0 SLOAD PUSH1 0x40 MLOAD PUSH1 0x1 PUSH1 0x1 PUSH1 0xA0 SHL SUB SWAP1 SWAP2 AND DUP2 MSTORE PUSH1 0x20 ADD PUSH2 0xA7 JUMP JUMPDEST PUSH2 0x77 PUSH2 0xF3 CALLDATASIZE PUSH1 0x4 PUSH2 0x39B JUMP JUMPDEST PUSH2 0x28F JUMP JUMPDEST CALLER PUSH0 SWAP1 DUP2 MSTORE PUSH1 0x1 PUSH1 0x20 MSTORE PUSH1 0x40 SWAP1 KECCAK256 SLOAD PUSH1 0xFF AND PUSH2 0x153 JUMPI PUSH1 0x40 MLOAD PUSH3 0x461BCD PUSH1 0xE5 SHL DUP2 MSTORE PUSH1 0x20 PUSH1 0x4 DUP3 ADD MSTORE PUSH1 0x15 PUSH1 0x24 DUP3 ADD MSTORE PUSH21 0x141BDBDB0E881B9BDD081DDA1A5D195B1A5CDD1959 PUSH1 0x5A SHL PUSH1 0x44 DUP3 ADD MSTORE PUSH1 0x64 ADD JUMPDEST PUSH1 0x40 MLOAD DUP1 SWAP2 SUB SWAP1 REVERT JUMPDEST PUSH1 0x40 MLOAD PUSH4 0xA9059CBB PUSH1 0xE0 SHL DUP2 MSTORE PUSH1 0x1 PUSH1 0x1 PUSH1 0xA0 SHL SUB DUP4 DUP2 AND PUSH1 0x4 DUP4 ADD MSTORE PUSH1 0x24 DUP3 ADD DUP4 SWAP1 MSTORE DUP5 AND SWAP1 PUSH4 0xA9059CBB SWAP1 PUSH1 0x44 ADD PUSH1 0x20 PUSH1 0x40 MLOAD DUP1 DUP4 SUB DUP2 PUSH0 DUP8 GAS CALL ISZERO DUP1 ISZERO PUSH2 0x19F JUMPI RETURNDATASIZE PUSH0 PUSH0 RETURNDATACOPY RETURNDATASIZE PUSH0 REVERT JUMPDEST POP POP POP POP PUSH1 0x40 MLOAD RETURNDATASIZE PUSH1 0x1F NOT PUSH1 0x1F DUP3 ADD AND DUP3 ADD DUP1 PUSH1 0x40 MSTORE POP DUP2 ADD SWAP1 PUSH2 0x1C3 SWAP2 SWAP1 PUSH2 0x3FD JUMP JUMPDEST POP DUP2 PUSH1 0x1 PUSH1 0x1 PUSH1 0xA0 SHL SUB AND DUP4 PUSH1 0x1 PUSH1 0x1 PUSH1 0xA0 SHL SUB AND PUSH32 0xF7A40077FF7A04C7E61F6F26FB13774259DDF1B6BCE9ECF26A8276CDD3992683 DUP4 PUSH1 0x40 MLOAD PUSH2 0x209 SWAP2 DUP2 MSTORE PUSH1 0x20 ADD SWAP1 JUMP JUMPDEST PUSH1 0x40 MLOAD DUP1 SWAP2 SUB SWAP1 LOG3 POP POP POP JUMP JUMPDEST PUSH2 0x21E PUSH2 0x2CC JUMP JUMPDEST PUSH2 0x227 PUSH0 PUSH2 0x2F8 JUMP JUMPDEST JUMP JUMPDEST PUSH2 0x231 PUSH2 0x2CC JUMP JUMPDEST PUSH1 0x1 PUSH1 0x1 PUSH1 0xA0 SHL SUB DUP3 AND PUSH0 DUP2 DUP2 MSTORE PUSH1 0x1 PUSH1 0x20 SWAP1 DUP2 MSTORE PUSH1 0x40 SWAP2 DUP3 SWAP1 KECCAK256 DUP1 SLOAD PUSH1 0xFF NOT AND DUP6 ISZERO ISZERO SWAP1 DUP2 OR SWAP1 SWAP2 SSTORE SWAP2 MLOAD SWAP2 DUP3 MSTORE PUSH32 0xB1288E9F7BAE3599E10819D5553FEBEA48E11A6F8F585B32C8ABAD397DD2627E SWAP2 ADD PUSH1 0x40 MLOAD DUP1 SWAP2 SUB SWAP1 LOG2 POP POP JUMP JUMPDEST PUSH2 0x297 PUSH2 0x2CC JUMP JUMPDEST PUSH1 0x1 PUSH1 0x1 PUSH1 0xA0 SHL SUB DUP2 AND PUSH2 0x2C0 JUMPI PUSH1 0x40 MLOAD PUSH4 0x1E4FBDF7 PUSH1 0xE0 SHL DUP2 MSTORE PUSH0 PUSH1 0x4 DUP3 ADD MSTORE PUSH1 0x24 ADD PUSH2 0x14A JUMP JUMPDEST PUSH2 0x2C9 DUP2 PUSH2 0x2F8 JUMP JUMPDEST POP JUMP JUMPDEST PUSH0 SLOAD PUSH1 0x1 PUSH1 0x1 PUSH1 0xA0 SHL SUB AND CALLER EQ PUSH2 0x227 JUMPI PUSH1 0x40 MLOAD PUSH4 0x118CDAA7 PUSH1 0xE0 SHL DUP2 MSTORE CALLER PUSH1 0x4 DUP3 ADD MSTORE PUSH1 0x24 ADD PUSH2 0x14A JUMP JUMPDEST PUSH0 DUP1 SLOAD PUSH1 0x1 PUSH1 0x1 PUSH1 0xA0 SHL SUB DUP4 DUP2 AND PUSH1 0x1 PUSH1 0x1 PUSH1 0xA0 SHL SUB NOT DUP4 AND DUP2 OR DUP5 SSTORE PUSH1 0x40 MLOAD SWAP2 SWAP1 SWAP3 AND SWAP3 DUP4 SWAP2 PUSH32 0x8BE0079C531659141344CD1FD0A4F28419497F9722A3DAAFE3B4186F6B6457E0 SWAP2 SWAP1 LOG3 POP POP JUMP JUMPDEST DUP1 CALLDATALOAD PUSH1 0x1 PUSH1 0x1 PUSH1 0xA0 SHL SUB DUP2 AND DUP2 EQ PUSH2 0x35D JUMPI PUSH0 PUSH0 REVERT JUMPDEST SWAP2 SWAP1 POP JUMP JUMPDEST PUSH0 PUSH0 PUSH0 PUSH1 0x60 DUP5 DUP7 SUB SLT ISZERO PUSH2 0x374 JUMPI PUSH0 PUSH0 REVERT JUMPDEST PUSH2 0x37D DUP5 PUSH2 0x347 JUMP JUMPDEST SWAP3 POP PUSH2 0x38B PUSH1 0x20 DUP6 ADD PUSH2 0x347 JUMP JUMPDEST SWAP2 POP PUSH1 0x40 DUP5 ADD CALLDATALOAD SWAP1 POP SWAP3 POP SWAP3 POP SWAP3 JUMP JUMPDEST PUSH0 PUSH1 0x20 DUP3 DUP5 SUB SLT ISZERO PUSH2 0x3AB JUMPI PUSH0 PUSH0 REVERT JUMPDEST PUSH2 0x3B4 DUP3 PUSH2 0x347 JUMP JUMPDEST SWAP4 SWAP3 POP POP POP JUMP JUMPDEST DUP1 ISZERO ISZERO DUP2 EQ PUSH2 0x2C9 JUMPI PUSH0 PUSH0 REVERT JUMPDEST PUSH0 PUSH0 PUSH1 0x40 DUP4 DUP6 SUB SLT ISZERO PUSH2 0x3D9 JUMPI PUSH0 PUSH0 REVERT JUMPDEST PUSH2 0x3E2 DUP4 PUSH2 0x347 JUMP JUMPDEST SWAP2 POP PUSH1 0x20 DUP4 ADD CALLDATALOAD PUSH2 0x3F2 DUP2 PUSH2 0x3BB JUMP JUMPDEST DUP1 SWAP2 POP POP SWAP3 POP SWAP3 SWAP1 POP JUMP JUMPDEST PUSH0 PUSH1 0x20 DUP3 DUP5 SUB SLT ISZERO PUSH2 0x40D JUMPI PUSH0 PUSH0 REVERT JUMPDEST DUP2 MLOAD PUSH2 0x3B4 DUP2 PUSH2 0x3BB JUMP INVALID LOG2 PUSH5 0x6970667358 0x22 SLT KECCAK256 OR PUSH31 0xB0AB5B21AB35515087C3F0350E4B822B01CC97BBE058EB9AB943547071BF64 PUSH20 0x6F6C634300082200334DAB1356CD0582FEB480A4 0xC9 SWAP15 SWAP6 0xBB PUSH17 0xC5D60B9B3F27D2CD27F5CCC64E6583E000 "
		},
		"gasEstimates": {
			"creation": {
				"codeDepositCost": "3973000",
				"executionCost": "infinite",
				"totalCost": "infinite"
			},
			"external": {
				"FUSE_THRESHOLD()": "2405",
				"GAME_STOP_THRESHOLD()": "308",
				"HASH_GAME_MAX()": "307",
				"HASH_GAME_MIN()": "284",
				"MIN_AMOUNT()": "2361",
				"USDT()": "305",
				"WBNB()": "2448",
				"_uniswapPair()": "2426",
				"_uniswapV2Router()": "infinite",
				"allowance(address,address)": "infinite",
				"antiDumpMode()": "2366",
				"approve(address,uint256)": "24785",
				"balanceOf(address)": "2664",
				"batchSetWhitelist(address[],bool)": "infinite",
				"calculateRewardRates()": "infinite",
				"calculateStaticReward(address)": "infinite",
				"decimals()": "288",
				"dividendDistributor()": "2469",
				"feeAddress()": "2449",
				"fundAddress()": "2447",
				"fundRewardTotal()": "2362",
				"fused()": "2383",
				"fusing()": "infinite",
				"gameStopped()": "2368",
				"getCirculation()": "4583",
				"getDynamicRewardRate(uint256)": "560",
				"getPoolTokenAmount()": "infinite",
				"getUpsChildList(address)": "infinite",
				"getUserStatus(address)": "21919",
				"getWithdrawPenaltyRate()": "infinite",
				"hashGameRewardTotal()": "2428",
				"isCanBindInviter(address,address)": "infinite",
				"lastPrice()": "2386",
				"lastPriceUpdateDay()": "2363",
				"mainNFT()": "2404",
				"name()": "infinite",
				"nft()": "2470",
				"nftRewardTotal()": "2361",
				"nodes(uint256)": "4724",
				"owner()": "2420",
				"pool()": "2471",
				"preUps(address,address)": "infinite",
				"renounceOwnership()": "infinite",
				"sediment()": "infinite",
				"setDividendDistributor(address)": "26861",
				"setMainSubNFT(address,address)": "infinite",
				"setNFT(address)": "26837",
				"setStartTime(uint256)": "46763",
				"setWhitelist(address,bool)": "infinite",
				"startTime()": "2385",
				"subNFT()": "2469",
				"symbol()": "infinite",
				"totalSupply()": "2382",
				"tradingOpenTime()": "2383",
				"transfer(address,uint256)": "infinite",
				"transferFrom(address,address,uint256)": "infinite",
				"transferOwnership(address)": "infinite",
				"users(address)": "21893",
				"usersBuyTime(address)": "2644",
				"whitelist(address)": "2601"
			},
			"internal": {
				"_playHashGame(address,uint256)": "infinite",
				"_update(address,address,uint256)": "infinite",
				"_updateAntiDumpMode()": "infinite",
				"calculateDynamicReward(address,uint256)": "infinite",
				"distributeLPReward(uint256)": "infinite",
				"getBNBForTokenAmount(uint256)": "infinite",
				"getFeeLP(uint256,uint256,uint256)": "infinite",
				"isAddLiquidity(uint256)": "infinite",
				"isRemoveLiquidity()": "infinite",
				"min(uint256,uint256)": "60",
				"processStaticReward(address)": "infinite",
				"safeTransferETH(address,uint256)": "infinite",
				"sellFee()": "infinite",
				"sqrt(uint256)": "infinite",
				"swapAndAddLiquidity(uint256)": "infinite",
				"swapTokenAndAddLiquidity(uint256)": "infinite"
			}
		},
		"methodIdentifiers": {
			"FUSE_THRESHOLD()": "b4a2e463",
			"GAME_STOP_THRESHOLD()": "061e431c",
			"HASH_GAME_MAX()": "7c659472",
			"HASH_GAME_MIN()": "27b48142",
			"MIN_AMOUNT()": "ddbcb5fa",
			"USDT()": "c54e44eb",
			"WBNB()": "8dd95002",
			"_uniswapPair()": "4bf28fd0",
			"_uniswapV2Router()": "583e0568",
			"allowance(address,address)": "dd62ed3e",
			"antiDumpMode()": "42b10c59",
			"approve(address,uint256)": "095ea7b3",
			"balanceOf(address)": "70a08231",
			"batchSetWhitelist(address[],bool)": "a095e8f9",
			"calculateRewardRates()": "6d476a77",
			"calculateStaticReward(address)": "e8e8fe04",
			"decimals()": "313ce567",
			"dividendDistributor()": "bad3ea6a",
			"feeAddress()": "41275358",
			"fundAddress()": "e82bef29",
			"fundRewardTotal()": "7f054455",
			"fused()": "2529d1a3",
			"fusing()": "47ab459c",
			"gameStopped()": "0430e405",
			"getCirculation()": "bf151cb8",
			"getDynamicRewardRate(uint256)": "3d471d57",
			"getPoolTokenAmount()": "09d46746",
			"getUpsChildList(address)": "440b30e7",
			"getUserStatus(address)": "ea0d5dcd",
			"getWithdrawPenaltyRate()": "94a28097",
			"hashGameRewardTotal()": "54ef6ad5",
			"isCanBindInviter(address,address)": "d1227343",
			"lastPrice()": "053f14da",
			"lastPriceUpdateDay()": "177ae044",
			"mainNFT()": "48e66c04",
			"name()": "06fdde03",
			"nft()": "47ccca02",
			"nftRewardTotal()": "cca3c5ff",
			"nodes(uint256)": "1c53c280",
			"owner()": "8da5cb5b",
			"pool()": "16f0115b",
			"preUps(address,address)": "fd36e3c6",
			"renounceOwnership()": "715018a6",
			"sediment()": "c82c3cbf",
			"setDividendDistributor(address)": "32516d48",
			"setMainSubNFT(address,address)": "e16f3c59",
			"setNFT(address)": "f56e9c66",
			"setStartTime(uint256)": "3e0a322d",
			"setWhitelist(address,bool)": "53d6fd59",
			"startTime()": "78e97925",
			"subNFT()": "dd6c4398",
			"symbol()": "95d89b41",
			"totalSupply()": "18160ddd",
			"tradingOpenTime()": "5e2d0df1",
			"transfer(address,uint256)": "a9059cbb",
			"transferFrom(address,address,uint256)": "23b872dd",
			"transferOwnership(address)": "f2fde38b",
			"users(address)": "a87430ba",
			"usersBuyTime(address)": "a52ee3af",
			"whitelist(address)": "9b19251a"
		}
	},
	"abi": [
		{
			"inputs": [
				{
					"internalType": "address",
					"name": "user_",
					"type": "address"
				},
				{
					"internalType": "address",
					"name": "fund_",
					"type": "address"
				},
				{
					"internalType": "address",
					"name": "fee_",
					"type": "address"
				}
			],
			"stateMutability": "nonpayable",
			"type": "constructor"
		},
		{
			"inputs": [
				{
					"internalType": "address",
					"name": "spender",
					"type": "address"
				},
				{
					"internalType": "uint256",
					"name": "allowance",
					"type": "uint256"
				},
				{
					"internalType": "uint256",
					"name": "needed",
					"type": "uint256"
				}
			],
			"name": "ERC20InsufficientAllowance",
			"type": "error"
		},
		{
			"inputs": [
				{
					"internalType": "address",
					"name": "sender",
					"type": "address"
				},
				{
					"internalType": "uint256",
					"name": "balance",
					"type": "uint256"
				},
				{
					"internalType": "uint256",
					"name": "needed",
					"type": "uint256"
				}
			],
			"name": "ERC20InsufficientBalance",
			"type": "error"
		},
		{
			"inputs": [
				{
					"internalType": "address",
					"name": "approver",
					"type": "address"
				}
			],
			"name": "ERC20InvalidApprover",
			"type": "error"
		},
		{
			"inputs": [
				{
					"internalType": "address",
					"name": "receiver",
					"type": "address"
				}
			],
			"name": "ERC20InvalidReceiver",
			"type": "error"
		},
		{
			"inputs": [
				{
					"internalType": "address",
					"name": "sender",
					"type": "address"
				}
			],
			"name": "ERC20InvalidSender",
			"type": "error"
		},
		{
			"inputs": [
				{
					"internalType": "address",
					"name": "spender",
					"type": "address"
				}
			],
			"name": "ERC20InvalidSpender",
			"type": "error"
		},
		{
			"inputs": [],
			"name": "GameStopped",
			"type": "error"
		},
		{
			"inputs": [],
			"name": "InvalidGameAmount",
			"type": "error"
		},
		{
			"inputs": [],
			"name": "InvalidTransfer",
			"type": "error"
		},
		{
			"inputs": [],
			"name": "NodeAlreadyExist",
			"type": "error"
		},
		{
			"inputs": [
				{
					"internalType": "address",
					"name": "owner",
					"type": "address"
				}
			],
			"name": "OwnableInvalidOwner",
			"type": "error"
		},
		{
			"inputs": [
				{
					"internalType": "address",
					"name": "account",
					"type": "address"
				}
			],
			"name": "OwnableUnauthorizedAccount",
			"type": "error"
		},
		{
			"anonymous": false,
			"inputs": [
				{
					"indexed": false,
					"internalType": "uint256",
					"name": "day",
					"type": "uint256"
				},
				{
					"indexed": false,
					"internalType": "uint256",
					"name": "priceDrop",
					"type": "uint256"
				}
			],
			"name": "AntiDumpTriggered",
			"type": "event"
		},
		{
			"anonymous": false,
			"inputs": [
				{
					"indexed": true,
					"internalType": "address",
					"name": "owner",
					"type": "address"
				},
				{
					"indexed": true,
					"internalType": "address",
					"name": "spender",
					"type": "address"
				},
				{
					"indexed": false,
					"internalType": "uint256",
					"name": "value",
					"type": "uint256"
				}
			],
			"name": "Approval",
			"type": "event"
		},
		{
			"anonymous": false,
			"inputs": [
				{
					"indexed": true,
					"internalType": "address",
					"name": "up",
					"type": "address"
				},
				{
					"indexed": true,
					"internalType": "address",
					"name": "down",
					"type": "address"
				}
			],
			"name": "BindEvent",
			"type": "event"
		},
		{
			"anonymous": false,
			"inputs": [
				{
					"indexed": true,
					"internalType": "address",
					"name": "player",
					"type": "address"
				},
				{
					"indexed": false,
					"internalType": "uint256",
					"name": "amount",
					"type": "uint256"
				},
				{
					"indexed": true,
					"internalType": "bool",
					"name": "win",
					"type": "bool"
				},
				{
					"indexed": false,
					"internalType": "uint256",
					"name": "payout",
					"type": "uint256"
				}
			],
			"name": "HashGamePlayed",
			"type": "event"
		},
		{
			"anonymous": false,
			"inputs": [
				{
					"indexed": true,
					"internalType": "address",
					"name": "invite",
					"type": "address"
				},
				{
					"indexed": false,
					"internalType": "uint256",
					"name": "amount",
					"type": "uint256"
				}
			],
			"name": "InvestEvent",
			"type": "event"
		},
		{
			"anonymous": false,
			"inputs": [
				{
					"indexed": true,
					"internalType": "address",
					"name": "previousOwner",
					"type": "address"
				},
				{
					"indexed": true,
					"internalType": "address",
					"name": "newOwner",
					"type": "address"
				}
			],
			"name": "OwnershipTransferred",
			"type": "event"
		},
		{
			"anonymous": false,
			"inputs": [
				{
					"indexed": true,
					"internalType": "address",
					"name": "from",
					"type": "address"
				},
				{
					"indexed": true,
					"internalType": "address",
					"name": "to",
					"type": "address"
				},
				{
					"indexed": false,
					"internalType": "uint256",
					"name": "value",
					"type": "uint256"
				}
			],
			"name": "Transfer",
			"type": "event"
		},
		{
			"inputs": [],
			"name": "FUSE_THRESHOLD",
			"outputs": [
				{
					"internalType": "uint256",
					"name": "",
					"type": "uint256"
				}
			],
			"stateMutability": "view",
			"type": "function"
		},
		{
			"inputs": [],
			"name": "GAME_STOP_THRESHOLD",
			"outputs": [
				{
					"internalType": "uint256",
					"name": "",
					"type": "uint256"
				}
			],
			"stateMutability": "view",
			"type": "function"
		},
		{
			"inputs": [],
			"name": "HASH_GAME_MAX",
			"outputs": [
				{
					"internalType": "uint256",
					"name": "",
					"type": "uint256"
				}
			],
			"stateMutability": "view",
			"type": "function"
		},
		{
			"inputs": [],
			"name": "HASH_GAME_MIN",
			"outputs": [
				{
					"internalType": "uint256",
					"name": "",
					"type": "uint256"
				}
			],
			"stateMutability": "view",
			"type": "function"
		},
		{
			"inputs": [],
			"name": "MIN_AMOUNT",
			"outputs": [
				{
					"internalType": "uint256",
					"name": "",
					"type": "uint256"
				}
			],
			"stateMutability": "view",
			"type": "function"
		},
		{
			"inputs": [],
			"name": "USDT",
			"outputs": [
				{
					"internalType": "address",
					"name": "",
					"type": "address"
				}
			],
			"stateMutability": "view",
			"type": "function"
		},
		{
			"inputs": [],
			"name": "WBNB",
			"outputs": [
				{
					"internalType": "address",
					"name": "",
					"type": "address"
				}
			],
			"stateMutability": "view",
			"type": "function"
		},
		{
			"inputs": [],
			"name": "_uniswapPair",
			"outputs": [
				{
					"internalType": "address",
					"name": "",
					"type": "address"
				}
			],
			"stateMutability": "view",
			"type": "function"
		},
		{
			"inputs": [],
			"name": "_uniswapV2Router",
			"outputs": [
				{
					"internalType": "contract IUniswapV2Router02",
					"name": "",
					"type": "address"
				}
			],
			"stateMutability": "view",
			"type": "function"
		},
		{
			"inputs": [
				{
					"internalType": "address",
					"name": "owner",
					"type": "address"
				},
				{
					"internalType": "address",
					"name": "spender",
					"type": "address"
				}
			],
			"name": "allowance",
			"outputs": [
				{
					"internalType": "uint256",
					"name": "",
					"type": "uint256"
				}
			],
			"stateMutability": "view",
			"type": "function"
		},
		{
			"inputs": [],
			"name": "antiDumpMode",
			"outputs": [
				{
					"internalType": "bool",
					"name": "",
					"type": "bool"
				}
			],
			"stateMutability": "view",
			"type": "function"
		},
		{
			"inputs": [
				{
					"internalType": "address",
					"name": "spender",
					"type": "address"
				},
				{
					"internalType": "uint256",
					"name": "value",
					"type": "uint256"
				}
			],
			"name": "approve",
			"outputs": [
				{
					"internalType": "bool",
					"name": "",
					"type": "bool"
				}
			],
			"stateMutability": "nonpayable",
			"type": "function"
		},
		{
			"inputs": [
				{
					"internalType": "address",
					"name": "account",
					"type": "address"
				}
			],
			"name": "balanceOf",
			"outputs": [
				{
					"internalType": "uint256",
					"name": "",
					"type": "uint256"
				}
			],
			"stateMutability": "view",
			"type": "function"
		},
		{
			"inputs": [
				{
					"internalType": "address[]",
					"name": "accounts",
					"type": "address[]"
				},
				{
					"internalType": "bool",
					"name": "status",
					"type": "bool"
				}
			],
			"name": "batchSetWhitelist",
			"outputs": [],
			"stateMutability": "nonpayable",
			"type": "function"
		},
		{
			"inputs": [],
			"name": "calculateRewardRates",
			"outputs": [
				{
					"internalType": "uint256",
					"name": "staticRate",
					"type": "uint256"
				},
				{
					"internalType": "uint256",
					"name": "dynamicRate",
					"type": "uint256"
				},
				{
					"internalType": "uint256",
					"name": "nftRate",
					"type": "uint256"
				},
				{
					"internalType": "uint256",
					"name": "projectRate",
					"type": "uint256"
				}
			],
			"stateMutability": "view",
			"type": "function"
		},
		{
			"inputs": [
				{
					"internalType": "address",
					"name": "user",
					"type": "address"
				}
			],
			"name": "calculateStaticReward",
			"outputs": [
				{
					"internalType": "uint256",
					"name": "",
					"type": "uint256"
				}
			],
			"stateMutability": "view",
			"type": "function"
		},
		{
			"inputs": [],
			"name": "decimals",
			"outputs": [
				{
					"internalType": "uint8",
					"name": "",
					"type": "uint8"
				}
			],
			"stateMutability": "view",
			"type": "function"
		},
		{
			"inputs": [],
			"name": "dividendDistributor",
			"outputs": [
				{
					"internalType": "address",
					"name": "",
					"type": "address"
				}
			],
			"stateMutability": "view",
			"type": "function"
		},
		{
			"inputs": [],
			"name": "feeAddress",
			"outputs": [
				{
					"internalType": "address",
					"name": "",
					"type": "address"
				}
			],
			"stateMutability": "view",
			"type": "function"
		},
		{
			"inputs": [],
			"name": "fundAddress",
			"outputs": [
				{
					"internalType": "address",
					"name": "",
					"type": "address"
				}
			],
			"stateMutability": "view",
			"type": "function"
		},
		{
			"inputs": [],
			"name": "fundRewardTotal",
			"outputs": [
				{
					"internalType": "uint256",
					"name": "",
					"type": "uint256"
				}
			],
			"stateMutability": "view",
			"type": "function"
		},
		{
			"inputs": [],
			"name": "fused",
			"outputs": [
				{
					"internalType": "bool",
					"name": "",
					"type": "bool"
				}
			],
			"stateMutability": "view",
			"type": "function"
		},
		{
			"inputs": [],
			"name": "fusing",
			"outputs": [],
			"stateMutability": "nonpayable",
			"type": "function"
		},
		{
			"inputs": [],
			"name": "gameStopped",
			"outputs": [
				{
					"internalType": "bool",
					"name": "",
					"type": "bool"
				}
			],
			"stateMutability": "view",
			"type": "function"
		},
		{
			"inputs": [],
			"name": "getCirculation",
			"outputs": [
				{
					"internalType": "uint256",
					"name": "",
					"type": "uint256"
				}
			],
			"stateMutability": "view",
			"type": "function"
		},
		{
			"inputs": [
				{
					"internalType": "uint256",
					"name": "generation",
					"type": "uint256"
				}
			],
			"name": "getDynamicRewardRate",
			"outputs": [
				{
					"internalType": "uint256",
					"name": "",
					"type": "uint256"
				}
			],
			"stateMutability": "pure",
			"type": "function"
		},
		{
			"inputs": [],
			"name": "getPoolTokenAmount",
			"outputs": [
				{
					"internalType": "uint256",
					"name": "",
					"type": "uint256"
				}
			],
			"stateMutability": "view",
			"type": "function"
		},
		{
			"inputs": [
				{
					"internalType": "address",
					"name": "account",
					"type": "address"
				}
			],
			"name": "getUpsChildList",
			"outputs": [
				{
					"internalType": "address[]",
					"name": "",
					"type": "address[]"
				}
			],
			"stateMutability": "view",
			"type": "function"
		},
		{
			"inputs": [
				{
					"internalType": "address",
					"name": "user",
					"type": "address"
				}
			],
			"name": "getUserStatus",
			"outputs": [
				{
					"internalType": "uint256",
					"name": "bnbTotal",
					"type": "uint256"
				},
				{
					"internalType": "bool",
					"name": "isBuy",
					"type": "bool"
				},
				{
					"internalType": "bool",
					"name": "staticDrawStatus",
					"type": "bool"
				}
			],
			"stateMutability": "view",
			"type": "function"
		},
		{
			"inputs": [],
			"name": "getWithdrawPenaltyRate",
			"outputs": [
				{
					"internalType": "uint256",
					"name": "",
					"type": "uint256"
				}
			],
			"stateMutability": "view",
			"type": "function"
		},
		{
			"inputs": [],
			"name": "hashGameRewardTotal",
			"outputs": [
				{
					"internalType": "uint256",
					"name": "",
					"type": "uint256"
				}
			],
			"stateMutability": "view",
			"type": "function"
		},
		{
			"inputs": [
				{
					"internalType": "address",
					"name": "from",
					"type": "address"
				},
				{
					"internalType": "address",
					"name": "to",
					"type": "address"
				}
			],
			"name": "isCanBindInviter",
			"outputs": [
				{
					"internalType": "bool",
					"name": "",
					"type": "bool"
				}
			],
			"stateMutability": "view",
			"type": "function"
		},
		{
			"inputs": [],
			"name": "lastPrice",
			"outputs": [
				{
					"internalType": "uint256",
					"name": "",
					"type": "uint256"
				}
			],
			"stateMutability": "view",
			"type": "function"
		},
		{
			"inputs": [],
			"name": "lastPriceUpdateDay",
			"outputs": [
				{
					"internalType": "uint256",
					"name": "",
					"type": "uint256"
				}
			],
			"stateMutability": "view",
			"type": "function"
		},
		{
			"inputs": [],
			"name": "mainNFT",
			"outputs": [
				{
					"internalType": "address",
					"name": "",
					"type": "address"
				}
			],
			"stateMutability": "view",
			"type": "function"
		},
		{
			"inputs": [],
			"name": "name",
			"outputs": [
				{
					"internalType": "string",
					"name": "",
					"type": "string"
				}
			],
			"stateMutability": "view",
			"type": "function"
		},
		{
			"inputs": [],
			"name": "nft",
			"outputs": [
				{
					"internalType": "address",
					"name": "",
					"type": "address"
				}
			],
			"stateMutability": "view",
			"type": "function"
		},
		{
			"inputs": [],
			"name": "nftRewardTotal",
			"outputs": [
				{
					"internalType": "uint256",
					"name": "",
					"type": "uint256"
				}
			],
			"stateMutability": "view",
			"type": "function"
		},
		{
			"inputs": [
				{
					"internalType": "uint256",
					"name": "",
					"type": "uint256"
				}
			],
			"name": "nodes",
			"outputs": [
				{
					"internalType": "address",
					"name": "",
					"type": "address"
				}
			],
			"stateMutability": "view",
			"type": "function"
		},
		{
			"inputs": [],
			"name": "owner",
			"outputs": [
				{
					"internalType": "address",
					"name": "",
					"type": "address"
				}
			],
			"stateMutability": "view",
			"type": "function"
		},
		{
			"inputs": [],
			"name": "pool",
			"outputs": [
				{
					"internalType": "contract Pool",
					"name": "",
					"type": "address"
				}
			],
			"stateMutability": "view",
			"type": "function"
		},
		{
			"inputs": [
				{
					"internalType": "address",
					"name": "",
					"type": "address"
				},
				{
					"internalType": "address",
					"name": "",
					"type": "address"
				}
			],
			"name": "preUps",
			"outputs": [
				{
					"internalType": "bool",
					"name": "",
					"type": "bool"
				}
			],
			"stateMutability": "view",
			"type": "function"
		},
		{
			"inputs": [],
			"name": "renounceOwnership",
			"outputs": [],
			"stateMutability": "nonpayable",
			"type": "function"
		},
		{
			"inputs": [],
			"name": "sediment",
			"outputs": [],
			"stateMutability": "nonpayable",
			"type": "function"
		},
		{
			"inputs": [
				{
					"internalType": "address",
					"name": "_distributor",
					"type": "address"
				}
			],
			"name": "setDividendDistributor",
			"outputs": [],
			"stateMutability": "nonpayable",
			"type": "function"
		},
		{
			"inputs": [
				{
					"internalType": "address",
					"name": "_main",
					"type": "address"
				},
				{
					"internalType": "address",
					"name": "_sub",
					"type": "address"
				}
			],
			"name": "setMainSubNFT",
			"outputs": [],
			"stateMutability": "nonpayable",
			"type": "function"
		},
		{
			"inputs": [
				{
					"internalType": "address",
					"name": "_nft",
					"type": "address"
				}
			],
			"name": "setNFT",
			"outputs": [],
			"stateMutability": "nonpayable",
			"type": "function"
		},
		{
			"inputs": [
				{
					"internalType": "uint256",
					"name": "startTime_",
					"type": "uint256"
				}
			],
			"name": "setStartTime",
			"outputs": [],
			"stateMutability": "nonpayable",
			"type": "function"
		},
		{
			"inputs": [
				{
					"internalType": "address",
					"name": "account",
					"type": "address"
				},
				{
					"internalType": "bool",
					"name": "status",
					"type": "bool"
				}
			],
			"name": "setWhitelist",
			"outputs": [],
			"stateMutability": "nonpayable",
			"type": "function"
		},
		{
			"inputs": [],
			"name": "startTime",
			"outputs": [
				{
					"internalType": "uint256",
					"name": "",
					"type": "uint256"
				}
			],
			"stateMutability": "view",
			"type": "function"
		},
		{
			"inputs": [],
			"name": "subNFT",
			"outputs": [
				{
					"internalType": "address",
					"name": "",
					"type": "address"
				}
			],
			"stateMutability": "view",
			"type": "function"
		},
		{
			"inputs": [],
			"name": "symbol",
			"outputs": [
				{
					"internalType": "string",
					"name": "",
					"type": "string"
				}
			],
			"stateMutability": "view",
			"type": "function"
		},
		{
			"inputs": [],
			"name": "totalSupply",
			"outputs": [
				{
					"internalType": "uint256",
					"name": "",
					"type": "uint256"
				}
			],
			"stateMutability": "view",
			"type": "function"
		},
		{
			"inputs": [],
			"name": "tradingOpenTime",
			"outputs": [
				{
					"internalType": "uint256",
					"name": "",
					"type": "uint256"
				}
			],
			"stateMutability": "view",
			"type": "function"
		},
		{
			"inputs": [
				{
					"internalType": "address",
					"name": "to",
					"type": "address"
				},
				{
					"internalType": "uint256",
					"name": "value",
					"type": "uint256"
				}
			],
			"name": "transfer",
			"outputs": [
				{
					"internalType": "bool",
					"name": "",
					"type": "bool"
				}
			],
			"stateMutability": "nonpayable",
			"type": "function"
		},
		{
			"inputs": [
				{
					"internalType": "address",
					"name": "from",
					"type": "address"
				},
				{
					"internalType": "address",
					"name": "to",
					"type": "address"
				},
				{
					"internalType": "uint256",
					"name": "value",
					"type": "uint256"
				}
			],
			"name": "transferFrom",
			"outputs": [
				{
					"internalType": "bool",
					"name": "",
					"type": "bool"
				}
			],
			"stateMutability": "nonpayable",
			"type": "function"
		},
		{
			"inputs": [
				{
					"internalType": "address",
					"name": "newOwner",
					"type": "address"
				}
			],
			"name": "transferOwnership",
			"outputs": [],
			"stateMutability": "nonpayable",
			"type": "function"
		},
		{
			"inputs": [
				{
					"internalType": "address",
					"name": "",
					"type": "address"
				}
			],
			"name": "users",
			"outputs": [
				{
					"internalType": "address",
					"name": "up",
					"type": "address"
				},
				{
					"internalType": "uint256",
					"name": "bnbTotal",
					"type": "uint256"
				},
				{
					"internalType": "uint256",
					"name": "lpTotal",
					"type": "uint256"
				},
				{
					"internalType": "uint256",
					"name": "staticDrawAt",
					"type": "uint256"
				},
				{
					"internalType": "uint256",
					"name": "lastClaimTime",
					"type": "uint256"
				},
				{
					"internalType": "uint256",
					"name": "directTotal",
					"type": "uint256"
				},
				{
					"internalType": "uint256",
					"name": "directBuyTotal",
					"type": "uint256"
				},
				{
					"internalType": "uint256",
					"name": "validTotal",
					"type": "uint256"
				},
				{
					"internalType": "uint256",
					"name": "totalStaticClaimed",
					"type": "uint256"
				},
				{
					"internalType": "bool",
					"name": "staticDrawStatus",
					"type": "bool"
				},
				{
					"internalType": "bool",
					"name": "isBuy",
					"type": "bool"
				}
			],
			"stateMutability": "view",
			"type": "function"
		},
		{
			"inputs": [
				{
					"internalType": "address",
					"name": "",
					"type": "address"
				}
			],
			"name": "usersBuyTime",
			"outputs": [
				{
					"internalType": "uint256",
					"name": "",
					"type": "uint256"
				}
			],
			"stateMutability": "view",
			"type": "function"
		},
		{
			"inputs": [
				{
					"internalType": "address",
					"name": "",
					"type": "address"
				}
			],
			"name": "whitelist",
			"outputs": [
				{
					"internalType": "bool",
					"name": "",
					"type": "bool"
				}
			],
			"stateMutability": "view",
			"type": "function"
		},
		{
			"stateMutability": "payable",
			"type": "receive"
		}
	]
}